{
	"subasta9.sol": {
		"AuctionSergiooo": {
			"abi": [
				{
					"inputs": [
						{
							"internalType": "uint256",
							"name": "_initialBidGwei",
							"type": "uint256"
						}
					],
					"stateMutability": "nonpayable",
					"type": "constructor"
				},
				{
					"anonymous": false,
					"inputs": [
						{
							"indexed": false,
							"internalType": "address",
							"name": "winner",
							"type": "address"
						},
						{
							"indexed": false,
							"internalType": "uint256",
							"name": "winningAmountGwei",
							"type": "uint256"
						}
					],
					"name": "AuctionEnded",
					"type": "event"
				},
				{
					"anonymous": false,
					"inputs": [
						{
							"indexed": true,
							"internalType": "address",
							"name": "bidder",
							"type": "address"
						},
						{
							"indexed": false,
							"internalType": "uint256",
							"name": "amountGwei",
							"type": "uint256"
						}
					],
					"name": "NewBid",
					"type": "event"
				},
				{
					"inputs": [],
					"name": "auctionActive",
					"outputs": [
						{
							"internalType": "bool",
							"name": "",
							"type": "bool"
						}
					],
					"stateMutability": "view",
					"type": "function"
				},
				{
					"inputs": [],
					"name": "auctioneer",
					"outputs": [
						{
							"internalType": "address",
							"name": "",
							"type": "address"
						}
					],
					"stateMutability": "view",
					"type": "function"
				},
				{
					"inputs": [],
					"name": "bid",
					"outputs": [],
					"stateMutability": "payable",
					"type": "function"
				},
				{
					"inputs": [
						{
							"internalType": "uint256",
							"name": "",
							"type": "uint256"
						}
					],
					"name": "bidHistory",
					"outputs": [
						{
							"internalType": "address",
							"name": "bidder",
							"type": "address"
						},
						{
							"internalType": "uint256",
							"name": "amountGwei",
							"type": "uint256"
						}
					],
					"stateMutability": "view",
					"type": "function"
				},
				{
					"inputs": [],
					"name": "endAuction",
					"outputs": [],
					"stateMutability": "nonpayable",
					"type": "function"
				},
				{
					"inputs": [],
					"name": "endTime",
					"outputs": [
						{
							"internalType": "uint256",
							"name": "",
							"type": "uint256"
						}
					],
					"stateMutability": "view",
					"type": "function"
				},
				{
					"inputs": [],
					"name": "extensionPeriod",
					"outputs": [
						{
							"internalType": "uint32",
							"name": "",
							"type": "uint32"
						}
					],
					"stateMutability": "view",
					"type": "function"
				},
				{
					"inputs": [],
					"name": "gasCommission",
					"outputs": [
						{
							"internalType": "uint8",
							"name": "",
							"type": "uint8"
						}
					],
					"stateMutability": "view",
					"type": "function"
				},
				{
					"inputs": [],
					"name": "getMaxBidGwei",
					"outputs": [
						{
							"internalType": "uint256",
							"name": "",
							"type": "uint256"
						}
					],
					"stateMutability": "view",
					"type": "function"
				},
				{
					"inputs": [],
					"name": "minimumBidGwei",
					"outputs": [
						{
							"internalType": "uint256",
							"name": "",
							"type": "uint256"
						}
					],
					"stateMutability": "view",
					"type": "function"
				},
				{
					"inputs": [],
					"name": "partialWithdraw",
					"outputs": [],
					"stateMutability": "nonpayable",
					"type": "function"
				},
				{
					"inputs": [],
					"name": "refundDeposits",
					"outputs": [],
					"stateMutability": "nonpayable",
					"type": "function"
				},
				{
					"inputs": [],
					"name": "showBids",
					"outputs": [
						{
							"components": [
								{
									"internalType": "address",
									"name": "bidder",
									"type": "address"
								},
								{
									"internalType": "uint256",
									"name": "amountGwei",
									"type": "uint256"
								}
							],
							"internalType": "struct AuctionSergiooo.Bid[]",
							"name": "",
							"type": "tuple[]"
						}
					],
					"stateMutability": "view",
					"type": "function"
				}
			],
			"devdoc": {
				"details": "This is a simple auction implementation with time extensions, bid history, and deposit refunds.",
				"kind": "dev",
				"methods": {},
				"title": "Final Work - Module 2 - Auction ",
				"version": 1
			},
			"evm": {
				"assembly": "    /* \"subasta9.sol\":333:4553  contract AuctionSergiooo {... */\n  mstore(0x40, 0x80)\n    /* \"subasta9.sol\":612:621  2 minutes */\n  0x78\n    /* \"subasta9.sol\":580:621  uint32 public extensionPeriod = 2 minutes */\n  0x02\n  exp(0x0100, 0x00)\n  dup2\n  sload\n  dup2\n  0xffffffff\n  mul\n  not\n  and\n  swap1\n  dup4\n  0xffffffff\n  and\n  mul\n  or\n  swap1\n  sstore\n  pop\n    /* \"subasta9.sol\":713:714  2 */\n  0x02\n    /* \"subasta9.sol\":684:714  uint8 public gasCommission = 2 */\n  0x04\n  exp(0x0100, 0x00)\n  dup2\n  sload\n  dup2\n  0xff\n  mul\n  not\n  and\n  swap1\n  dup4\n  0xff\n  and\n  mul\n  or\n  swap1\n  sstore\n  pop\n    /* \"subasta9.sol\":953:1217  constructor(uint _initialBidGwei) {... */\n  callvalue\n  dup1\n  iszero\n  tag_1\n  jumpi\n  0x00\n  dup1\n  revert\ntag_1:\n  pop\n  mload(0x40)\n  sub(codesize, bytecodeSize)\n  dup1\n  bytecodeSize\n  dup4\n  codecopy\n  dup2\n  dup2\n  add\n  0x40\n  mstore\n  dup2\n  add\n  swap1\n  tag_2\n  swap2\n  swap1\n  tag_3\n  jump\t// in\ntag_2:\n    /* \"subasta9.sol\":1011:1021  msg.sender */\n  caller\n    /* \"subasta9.sol\":998:1008  auctioneer */\n  0x00\n  dup1\n    /* \"subasta9.sol\":998:1021  auctioneer = msg.sender */\n  0x0100\n  exp\n  dup2\n  sload\n  dup2\n  0xffffffffffffffffffffffffffffffffffffffff\n  mul\n  not\n  and\n  swap1\n  dup4\n  0xffffffffffffffffffffffffffffffffffffffff\n  and\n  mul\n  or\n  swap1\n  sstore\n  pop\n    /* \"subasta9.sol\":1049:1064  _initialBidGwei */\n  dup1\n    /* \"subasta9.sol\":1032:1046  minimumBidGwei */\n  0x03\n    /* \"subasta9.sol\":1032:1064  minimumBidGwei = _initialBidGwei */\n  dup2\n  swap1\n  sstore\n  pop\n    /* \"subasta9.sol\":1091:1095  true */\n  0x01\n    /* \"subasta9.sol\":1075:1088  auctionActive */\n  0x04\n  0x01\n    /* \"subasta9.sol\":1075:1095  auctionActive = true */\n  0x0100\n  exp\n  dup2\n  sload\n  dup2\n  0xff\n  mul\n  not\n  and\n  swap1\n  dup4\n  iszero\n  iszero\n  mul\n  or\n  swap1\n  sstore\n  pop\n    /* \"subasta9.sol\":1134:1149  extensionPeriod */\n  0x02\n  0x00\n  swap1\n  sload\n  swap1\n  0x0100\n  exp\n  swap1\n  div\n  0xffffffff\n  and\n    /* \"subasta9.sol\":1116:1149  block.timestamp + extensionPeriod */\n  0xffffffff\n  and\n    /* \"subasta9.sol\":1116:1131  block.timestamp */\n  timestamp\n    /* \"subasta9.sol\":1116:1149  block.timestamp + extensionPeriod */\n  tag_6\n  swap2\n  swap1\n  tag_7\n  jump\t// in\ntag_6:\n    /* \"subasta9.sol\":1106:1113  endTime */\n  0x01\n    /* \"subasta9.sol\":1106:1149  endTime = block.timestamp + extensionPeriod */\n  dup2\n  swap1\n  sstore\n  pop\n    /* \"subasta9.sol\":1160:1170  bidHistory */\n  0x05\n    /* \"subasta9.sol\":1176:1208  Bid(msg.sender, _initialBidGwei) */\n  mload(0x40)\n  dup1\n  0x40\n  add\n  0x40\n  mstore\n  dup1\n    /* \"subasta9.sol\":1180:1190  msg.sender */\n  caller\n    /* \"subasta9.sol\":1176:1208  Bid(msg.sender, _initialBidGwei) */\n  0xffffffffffffffffffffffffffffffffffffffff\n  and\n  dup2\n  mstore\n  0x20\n  add\n    /* \"subasta9.sol\":1192:1207  _initialBidGwei */\n  dup4\n    /* \"subasta9.sol\":1176:1208  Bid(msg.sender, _initialBidGwei) */\n  dup2\n  mstore\n  pop\n    /* \"subasta9.sol\":1160:1209  bidHistory.push(Bid(msg.sender, _initialBidGwei)) */\n  swap1\n  dup1\n  0x01\n  dup2\n  sload\n  add\n  dup1\n  dup3\n  sstore\n  dup1\n  swap2\n  pop\n  pop\n  0x01\n  swap1\n  sub\n  swap1\n  0x00\n  mstore\n  keccak256(0x00, 0x20)\n  swap1\n  0x02\n  mul\n  add\n  0x00\n  swap1\n  swap2\n  swap1\n  swap2\n  swap1\n  swap2\n  pop\n  0x00\n  dup3\n  add\n  mload\n  dup2\n  0x00\n  add\n  exp(0x0100, 0x00)\n  dup2\n  sload\n  dup2\n  0xffffffffffffffffffffffffffffffffffffffff\n  mul\n  not\n  and\n  swap1\n  dup4\n  0xffffffffffffffffffffffffffffffffffffffff\n  and\n  mul\n  or\n  swap1\n  sstore\n  pop\n  0x20\n  dup3\n  add\n  mload\n  dup2\n  0x01\n  add\n  sstore\n  pop\n  pop\n    /* \"subasta9.sol\":953:1217  constructor(uint _initialBidGwei) {... */\n  pop\n    /* \"subasta9.sol\":333:4553  contract AuctionSergiooo {... */\n  jump(tag_9)\n    /* \"#utility.yul\":88:205   */\ntag_11:\n    /* \"#utility.yul\":197:198   */\n  0x00\n    /* \"#utility.yul\":194:195   */\n  dup1\n    /* \"#utility.yul\":187:199   */\n  revert\n    /* \"#utility.yul\":334:411   */\ntag_13:\n    /* \"#utility.yul\":371:378   */\n  0x00\n    /* \"#utility.yul\":400:405   */\n  dup2\n    /* \"#utility.yul\":389:405   */\n  swap1\n  pop\n    /* \"#utility.yul\":334:411   */\n  swap2\n  swap1\n  pop\n  jump\t// out\n    /* \"#utility.yul\":417:539   */\ntag_14:\n    /* \"#utility.yul\":490:514   */\n  tag_23\n    /* \"#utility.yul\":508:513   */\n  dup2\n    /* \"#utility.yul\":490:514   */\n  tag_13\n  jump\t// in\ntag_23:\n    /* \"#utility.yul\":483:488   */\n  dup2\n    /* \"#utility.yul\":480:515   */\n  eq\n    /* \"#utility.yul\":470:533   */\n  tag_24\n  jumpi\n    /* \"#utility.yul\":529:530   */\n  0x00\n    /* \"#utility.yul\":526:527   */\n  dup1\n    /* \"#utility.yul\":519:531   */\n  revert\n    /* \"#utility.yul\":470:533   */\ntag_24:\n    /* \"#utility.yul\":417:539   */\n  pop\n  jump\t// out\n    /* \"#utility.yul\":545:688   */\ntag_15:\n    /* \"#utility.yul\":602:607   */\n  0x00\n    /* \"#utility.yul\":633:639   */\n  dup2\n    /* \"#utility.yul\":627:640   */\n  mload\n    /* \"#utility.yul\":618:640   */\n  swap1\n  pop\n    /* \"#utility.yul\":649:682   */\n  tag_26\n    /* \"#utility.yul\":676:681   */\n  dup2\n    /* \"#utility.yul\":649:682   */\n  tag_14\n  jump\t// in\ntag_26:\n    /* \"#utility.yul\":545:688   */\n  swap3\n  swap2\n  pop\n  pop\n  jump\t// out\n    /* \"#utility.yul\":694:1045   */\ntag_3:\n    /* \"#utility.yul\":764:770   */\n  0x00\n    /* \"#utility.yul\":813:815   */\n  0x20\n    /* \"#utility.yul\":801:810   */\n  dup3\n    /* \"#utility.yul\":792:799   */\n  dup5\n    /* \"#utility.yul\":788:811   */\n  sub\n    /* \"#utility.yul\":784:816   */\n  slt\n    /* \"#utility.yul\":781:900   */\n  iszero\n  tag_28\n  jumpi\n    /* \"#utility.yul\":819:898   */\n  tag_29\n  tag_11\n  jump\t// in\ntag_29:\n    /* \"#utility.yul\":781:900   */\ntag_28:\n    /* \"#utility.yul\":939:940   */\n  0x00\n    /* \"#utility.yul\":964:1028   */\n  tag_30\n    /* \"#utility.yul\":1020:1027   */\n  dup5\n    /* \"#utility.yul\":1011:1017   */\n  dup3\n    /* \"#utility.yul\":1000:1009   */\n  dup6\n    /* \"#utility.yul\":996:1018   */\n  add\n    /* \"#utility.yul\":964:1028   */\n  tag_15\n  jump\t// in\ntag_30:\n    /* \"#utility.yul\":954:1028   */\n  swap2\n  pop\n    /* \"#utility.yul\":910:1038   */\n  pop\n    /* \"#utility.yul\":694:1045   */\n  swap3\n  swap2\n  pop\n  pop\n  jump\t// out\n    /* \"#utility.yul\":1051:1231   */\ntag_16:\n    /* \"#utility.yul\":1099:1176   */\n  0x4e487b7100000000000000000000000000000000000000000000000000000000\n    /* \"#utility.yul\":1096:1097   */\n  0x00\n    /* \"#utility.yul\":1089:1177   */\n  mstore\n    /* \"#utility.yul\":1196:1200   */\n  0x11\n    /* \"#utility.yul\":1193:1194   */\n  0x04\n    /* \"#utility.yul\":1186:1201   */\n  mstore\n    /* \"#utility.yul\":1220:1224   */\n  0x24\n    /* \"#utility.yul\":1217:1218   */\n  0x00\n    /* \"#utility.yul\":1210:1225   */\n  revert\n    /* \"#utility.yul\":1237:1428   */\ntag_7:\n    /* \"#utility.yul\":1277:1280   */\n  0x00\n    /* \"#utility.yul\":1296:1316   */\n  tag_33\n    /* \"#utility.yul\":1314:1315   */\n  dup3\n    /* \"#utility.yul\":1296:1316   */\n  tag_13\n  jump\t// in\ntag_33:\n    /* \"#utility.yul\":1291:1316   */\n  swap2\n  pop\n    /* \"#utility.yul\":1330:1350   */\n  tag_34\n    /* \"#utility.yul\":1348:1349   */\n  dup4\n    /* \"#utility.yul\":1330:1350   */\n  tag_13\n  jump\t// in\ntag_34:\n    /* \"#utility.yul\":1325:1350   */\n  swap3\n  pop\n    /* \"#utility.yul\":1373:1374   */\n  dup3\n    /* \"#utility.yul\":1370:1371   */\n  dup3\n    /* \"#utility.yul\":1366:1375   */\n  add\n    /* \"#utility.yul\":1359:1375   */\n  swap1\n  pop\n    /* \"#utility.yul\":1394:1397   */\n  dup1\n    /* \"#utility.yul\":1391:1392   */\n  dup3\n    /* \"#utility.yul\":1388:1398   */\n  gt\n    /* \"#utility.yul\":1385:1421   */\n  iszero\n  tag_35\n  jumpi\n    /* \"#utility.yul\":1401:1419   */\n  tag_36\n  tag_16\n  jump\t// in\ntag_36:\n    /* \"#utility.yul\":1385:1421   */\ntag_35:\n    /* \"#utility.yul\":1237:1428   */\n  swap3\n  swap2\n  pop\n  pop\n  jump\t// out\n    /* \"subasta9.sol\":333:4553  contract AuctionSergiooo {... */\ntag_9:\n  dataSize(sub_0)\n  dup1\n  dataOffset(sub_0)\n  0x00\n  codecopy\n  0x00\n  return\nstop\n\nsub_0: assembly {\n        /* \"subasta9.sol\":333:4553  contract AuctionSergiooo {... */\n      mstore(0x40, 0x80)\n      jumpi(tag_1, lt(calldatasize, 0x04))\n      shr(0xe0, calldataload(0x00))\n      dup1\n      0x91f74900\n      gt\n      tag_15\n      jumpi\n      dup1\n      0xecde973d\n      gt\n      tag_16\n      jumpi\n      dup1\n      0xecde973d\n      eq\n      tag_11\n      jumpi\n      dup1\n      0xf1b05435\n      eq\n      tag_12\n      jumpi\n      dup1\n      0xf90ca117\n      eq\n      tag_13\n      jumpi\n      dup1\n      0xfe67a54b\n      eq\n      tag_14\n      jumpi\n      jump(tag_1)\n    tag_16:\n      dup1\n      0x91f74900\n      eq\n      tag_8\n      jumpi\n      dup1\n      0x92228006\n      eq\n      tag_9\n      jumpi\n      dup1\n      0xdedfab72\n      eq\n      tag_10\n      jumpi\n      jump(tag_1)\n    tag_15:\n      dup1\n      0x14d2687c\n      eq\n      tag_2\n      jumpi\n      dup1\n      0x1998aeef\n      eq\n      tag_3\n      jumpi\n      dup1\n      0x3197cbb6\n      eq\n      tag_4\n      jumpi\n      dup1\n      0x37072780\n      eq\n      tag_5\n      jumpi\n      dup1\n      0x5ec2c7bf\n      eq\n      tag_6\n      jumpi\n      dup1\n      0x6773fd77\n      eq\n      tag_7\n      jumpi\n    tag_1:\n      0x00\n      dup1\n      revert\n        /* \"subasta9.sol\":4302:4395  function showBids() external view returns (Bid[] memory) {... */\n    tag_2:\n      callvalue\n      dup1\n      iszero\n      tag_17\n      jumpi\n      0x00\n      dup1\n      revert\n    tag_17:\n      pop\n      tag_18\n      tag_19\n      jump\t// in\n    tag_18:\n      mload(0x40)\n      tag_20\n      swap2\n      swap1\n      tag_21\n      jump\t// in\n    tag_20:\n      mload(0x40)\n      dup1\n      swap2\n      sub\n      swap1\n      return\n        /* \"subasta9.sol\":1534:2019  function bid() external payable onlyWhileActive {... */\n    tag_3:\n      tag_22\n      tag_23\n      jump\t// in\n    tag_22:\n      stop\n        /* \"subasta9.sol\":554:573  uint public endTime */\n    tag_4:\n      callvalue\n      dup1\n      iszero\n      tag_24\n      jumpi\n      0x00\n      dup1\n      revert\n    tag_24:\n      pop\n      tag_25\n      tag_26\n      jump\t// in\n    tag_25:\n      mload(0x40)\n      tag_27\n      swap2\n      swap1\n      tag_28\n      jump\t// in\n    tag_27:\n      mload(0x40)\n      dup1\n      swap2\n      sub\n      swap1\n      return\n        /* \"subasta9.sol\":684:714  uint8 public gasCommission = 2 */\n    tag_5:\n      callvalue\n      dup1\n      iszero\n      tag_29\n      jumpi\n      0x00\n      dup1\n      revert\n    tag_29:\n      pop\n      tag_30\n      tag_31\n      jump\t// in\n    tag_30:\n      mload(0x40)\n      tag_32\n      swap2\n      swap1\n      tag_33\n      jump\t// in\n    tag_32:\n      mload(0x40)\n      dup1\n      swap2\n      sub\n      swap1\n      return\n        /* \"subasta9.sol\":522:547  address public auctioneer */\n    tag_6:\n      callvalue\n      dup1\n      iszero\n      tag_34\n      jumpi\n      0x00\n      dup1\n      revert\n    tag_34:\n      pop\n      tag_35\n      tag_36\n      jump\t// in\n    tag_35:\n      mload(0x40)\n      tag_37\n      swap2\n      swap1\n      tag_38\n      jump\t// in\n    tag_37:\n      mload(0x40)\n      dup1\n      swap2\n      sub\n      swap1\n      return\n        /* \"subasta9.sol\":2661:3671  function refundDeposits() external onlyAuctioneer {... */\n    tag_7:\n      callvalue\n      dup1\n      iszero\n      tag_39\n      jumpi\n      0x00\n      dup1\n      revert\n    tag_39:\n      pop\n      tag_40\n      tag_41\n      jump\t// in\n    tag_40:\n      stop\n        /* \"subasta9.sol\":4428:4550  function getMaxBidGwei() public view returns (uint) {... */\n    tag_8:\n      callvalue\n      dup1\n      iszero\n      tag_42\n      jumpi\n      0x00\n      dup1\n      revert\n    tag_42:\n      pop\n      tag_43\n      tag_44\n      jump\t// in\n    tag_43:\n      mload(0x40)\n      tag_45\n      swap2\n      swap1\n      tag_28\n      jump\t// in\n    tag_45:\n      mload(0x40)\n      dup1\n      swap2\n      sub\n      swap1\n      return\n        /* \"subasta9.sol\":727:752  bool public auctionActive */\n    tag_9:\n      callvalue\n      dup1\n      iszero\n      tag_46\n      jumpi\n      0x00\n      dup1\n      revert\n    tag_46:\n      pop\n      tag_47\n      tag_48\n      jump\t// in\n    tag_47:\n      mload(0x40)\n      tag_49\n      swap2\n      swap1\n      tag_50\n      jump\t// in\n    tag_49:\n      mload(0x40)\n      dup1\n      swap2\n      sub\n      swap1\n      return\n        /* \"subasta9.sol\":580:621  uint32 public extensionPeriod = 2 minutes */\n    tag_10:\n      callvalue\n      dup1\n      iszero\n      tag_51\n      jumpi\n      0x00\n      dup1\n      revert\n    tag_51:\n      pop\n      tag_52\n      tag_53\n      jump\t// in\n    tag_52:\n      mload(0x40)\n      tag_54\n      swap2\n      swap1\n      tag_55\n      jump\t// in\n    tag_54:\n      mload(0x40)\n      dup1\n      swap2\n      sub\n      swap1\n      return\n        /* \"subasta9.sol\":759:782  Bid[] public bidHistory */\n    tag_11:\n      callvalue\n      dup1\n      iszero\n      tag_56\n      jumpi\n      0x00\n      dup1\n      revert\n    tag_56:\n      pop\n      tag_57\n      0x04\n      dup1\n      calldatasize\n      sub\n      dup2\n      add\n      swap1\n      tag_58\n      swap2\n      swap1\n      tag_59\n      jump\t// in\n    tag_58:\n      tag_60\n      jump\t// in\n    tag_57:\n      mload(0x40)\n      tag_61\n      swap3\n      swap2\n      swap1\n      tag_62\n      jump\t// in\n    tag_61:\n      mload(0x40)\n      dup1\n      swap2\n      sub\n      swap1\n      return\n        /* \"subasta9.sol\":628:654  uint public minimumBidGwei */\n    tag_12:\n      callvalue\n      dup1\n      iszero\n      tag_63\n      jumpi\n      0x00\n      dup1\n      revert\n    tag_63:\n      pop\n      tag_64\n      tag_65\n      jump\t// in\n    tag_64:\n      mload(0x40)\n      tag_66\n      swap2\n      swap1\n      tag_28\n      jump\t// in\n    tag_66:\n      mload(0x40)\n      dup1\n      swap2\n      sub\n      swap1\n      return\n        /* \"subasta9.sol\":3679:4294  function partialWithdraw() external onlyWhileActive {... */\n    tag_13:\n      callvalue\n      dup1\n      iszero\n      tag_67\n      jumpi\n      0x00\n      dup1\n      revert\n    tag_67:\n      pop\n      tag_68\n      tag_69\n      jump\t// in\n    tag_68:\n      stop\n        /* \"subasta9.sol\":2027:2653  function endAuction() external onlyAuctioneer {... */\n    tag_14:\n      callvalue\n      dup1\n      iszero\n      tag_70\n      jumpi\n      0x00\n      dup1\n      revert\n    tag_70:\n      pop\n      tag_71\n      tag_72\n      jump\t// in\n    tag_71:\n      stop\n        /* \"subasta9.sol\":4302:4395  function showBids() external view returns (Bid[] memory) {... */\n    tag_19:\n        /* \"subasta9.sol\":4345:4357  Bid[] memory */\n      0x60\n        /* \"subasta9.sol\":4377:4387  bidHistory */\n      0x05\n        /* \"subasta9.sol\":4370:4387  return bidHistory */\n      dup1\n      sload\n      dup1\n      0x20\n      mul\n      0x20\n      add\n      mload(0x40)\n      swap1\n      dup2\n      add\n      0x40\n      mstore\n      dup1\n      swap3\n      swap2\n      swap1\n      dup2\n      dup2\n      mstore\n      0x20\n      add\n      0x00\n      swap1\n    tag_74:\n      dup3\n      dup3\n      lt\n      iszero\n      tag_75\n      jumpi\n      dup4\n      dup3\n      swap1\n      0x00\n      mstore\n      keccak256(0x00, 0x20)\n      swap1\n      0x02\n      mul\n      add\n      mload(0x40)\n      dup1\n      0x40\n      add\n      0x40\n      mstore\n      swap1\n      dup2\n      0x00\n      dup3\n      add\n      0x00\n      swap1\n      sload\n      swap1\n      0x0100\n      exp\n      swap1\n      div\n      0xffffffffffffffffffffffffffffffffffffffff\n      and\n      0xffffffffffffffffffffffffffffffffffffffff\n      and\n      0xffffffffffffffffffffffffffffffffffffffff\n      and\n      dup2\n      mstore\n      0x20\n      add\n      0x01\n      dup3\n      add\n      sload\n      dup2\n      mstore\n      pop\n      pop\n      dup2\n      mstore\n      0x20\n      add\n      swap1\n      0x01\n      add\n      swap1\n      jump(tag_74)\n    tag_75:\n      pop\n      pop\n      pop\n      pop\n      swap1\n      pop\n        /* \"subasta9.sol\":4302:4395  function showBids() external view returns (Bid[] memory) {... */\n      swap1\n      jump\t// out\n        /* \"subasta9.sol\":1534:2019  function bid() external payable onlyWhileActive {... */\n    tag_23:\n        /* \"subasta9.sol\":1436:1449  auctionActive */\n      0x04\n      0x01\n      swap1\n      sload\n      swap1\n      0x0100\n      exp\n      swap1\n      div\n      0xff\n      and\n        /* \"subasta9.sol\":1428:1479  require(auctionActive, \"The auction is not active\") */\n      tag_78\n      jumpi\n      mload(0x40)\n      0x08c379a000000000000000000000000000000000000000000000000000000000\n      dup2\n      mstore\n      0x04\n      add\n      tag_79\n      swap1\n      tag_80\n      jump\t// in\n    tag_79:\n      mload(0x40)\n      dup1\n      swap2\n      sub\n      swap1\n      revert\n    tag_78:\n        /* \"subasta9.sol\":1593:1611  uint bidAmountGwei */\n      0x00\n        /* \"subasta9.sol\":1626:1632  1 gwei */\n      0x3b9aca00\n        /* \"subasta9.sol\":1614:1623  msg.value */\n      callvalue\n        /* \"subasta9.sol\":1614:1632  msg.value / 1 gwei */\n      tag_82\n      swap2\n      swap1\n      tag_83\n      jump\t// in\n    tag_82:\n        /* \"subasta9.sol\":1593:1632  uint bidAmountGwei = msg.value / 1 gwei */\n      swap1\n      pop\n        /* \"subasta9.sol\":1694:1697  100 */\n      0x64\n        /* \"subasta9.sol\":1687:1690  105 */\n      0x69\n        /* \"subasta9.sol\":1669:1684  getMaxBidGwei() */\n      tag_84\n        /* \"subasta9.sol\":1669:1682  getMaxBidGwei */\n      tag_44\n        /* \"subasta9.sol\":1669:1684  getMaxBidGwei() */\n      jump\t// in\n    tag_84:\n        /* \"subasta9.sol\":1669:1690  getMaxBidGwei() * 105 */\n      tag_85\n      swap2\n      swap1\n      tag_86\n      jump\t// in\n    tag_85:\n        /* \"subasta9.sol\":1668:1697  (getMaxBidGwei() * 105) / 100 */\n      tag_87\n      swap2\n      swap1\n      tag_83\n      jump\t// in\n    tag_87:\n        /* \"subasta9.sol\":1651:1664  bidAmountGwei */\n      dup2\n        /* \"subasta9.sol\":1651:1697  bidAmountGwei >= (getMaxBidGwei() * 105) / 100 */\n      lt\n      iszero\n        /* \"subasta9.sol\":1643:1757  require(bidAmountGwei >= (getMaxBidGwei() * 105) / 100, \"The bid must be at least 5% higher than the current bid\") */\n      tag_88\n      jumpi\n      mload(0x40)\n      0x08c379a000000000000000000000000000000000000000000000000000000000\n      dup2\n      mstore\n      0x04\n      add\n      tag_89\n      swap1\n      tag_90\n      jump\t// in\n    tag_89:\n      mload(0x40)\n      dup1\n      swap2\n      sub\n      swap1\n      revert\n    tag_88:\n        /* \"subasta9.sol\":1794:1801  endTime */\n      sload(0x01)\n        /* \"subasta9.sol\":1776:1791  block.timestamp */\n      timestamp\n        /* \"subasta9.sol\":1776:1801  block.timestamp < endTime */\n      lt\n        /* \"subasta9.sol\":1768:1827  require(block.timestamp < endTime, \"The auction has ended\") */\n      tag_91\n      jumpi\n      mload(0x40)\n      0x08c379a000000000000000000000000000000000000000000000000000000000\n      dup2\n      mstore\n      0x04\n      add\n      tag_92\n      swap1\n      tag_93\n      jump\t// in\n    tag_92:\n      mload(0x40)\n      dup1\n      swap2\n      sub\n      swap1\n      revert\n    tag_91:\n        /* \"subasta9.sol\":1887:1902  extensionPeriod */\n      0x02\n      0x00\n      swap1\n      sload\n      swap1\n      0x0100\n      exp\n      swap1\n      div\n      0xffffffff\n      and\n        /* \"subasta9.sol\":1876:1902  endTime += extensionPeriod */\n      0xffffffff\n      and\n        /* \"subasta9.sol\":1876:1883  endTime */\n      0x01\n      0x00\n        /* \"subasta9.sol\":1876:1902  endTime += extensionPeriod */\n      dup3\n      dup3\n      sload\n      tag_94\n      swap2\n      swap1\n      tag_95\n      jump\t// in\n    tag_94:\n      swap3\n      pop\n      pop\n      dup2\n      swap1\n      sstore\n      pop\n        /* \"subasta9.sol\":1915:1925  bidHistory */\n      0x05\n        /* \"subasta9.sol\":1931:1961  Bid(msg.sender, bidAmountGwei) */\n      mload(0x40)\n      dup1\n      0x40\n      add\n      0x40\n      mstore\n      dup1\n        /* \"subasta9.sol\":1935:1945  msg.sender */\n      caller\n        /* \"subasta9.sol\":1931:1961  Bid(msg.sender, bidAmountGwei) */\n      0xffffffffffffffffffffffffffffffffffffffff\n      and\n      dup2\n      mstore\n      0x20\n      add\n        /* \"subasta9.sol\":1947:1960  bidAmountGwei */\n      dup4\n        /* \"subasta9.sol\":1931:1961  Bid(msg.sender, bidAmountGwei) */\n      dup2\n      mstore\n      pop\n        /* \"subasta9.sol\":1915:1962  bidHistory.push(Bid(msg.sender, bidAmountGwei)) */\n      swap1\n      dup1\n      0x01\n      dup2\n      sload\n      add\n      dup1\n      dup3\n      sstore\n      dup1\n      swap2\n      pop\n      pop\n      0x01\n      swap1\n      sub\n      swap1\n      0x00\n      mstore\n      keccak256(0x00, 0x20)\n      swap1\n      0x02\n      mul\n      add\n      0x00\n      swap1\n      swap2\n      swap1\n      swap2\n      swap1\n      swap2\n      pop\n      0x00\n      dup3\n      add\n      mload\n      dup2\n      0x00\n      add\n      exp(0x0100, 0x00)\n      dup2\n      sload\n      dup2\n      0xffffffffffffffffffffffffffffffffffffffff\n      mul\n      not\n      and\n      swap1\n      dup4\n      0xffffffffffffffffffffffffffffffffffffffff\n      and\n      mul\n      or\n      swap1\n      sstore\n      pop\n      0x20\n      dup3\n      add\n      mload\n      dup2\n      0x01\n      add\n      sstore\n      pop\n      pop\n        /* \"subasta9.sol\":1985:1995  msg.sender */\n      caller\n        /* \"subasta9.sol\":1978:2011  NewBid(msg.sender, bidAmountGwei) */\n      0xffffffffffffffffffffffffffffffffffffffff\n      and\n      0xdd0b6c6a77960e2066c96171b4d7ac9e8b4c184011f38544afa36a5bb63ec59f\n        /* \"subasta9.sol\":1997:2010  bidAmountGwei */\n      dup3\n        /* \"subasta9.sol\":1978:2011  NewBid(msg.sender, bidAmountGwei) */\n      mload(0x40)\n      tag_97\n      swap2\n      swap1\n      tag_28\n      jump\t// in\n    tag_97:\n      mload(0x40)\n      dup1\n      swap2\n      sub\n      swap1\n      log2\n        /* \"subasta9.sol\":1582:2019  {... */\n      pop\n        /* \"subasta9.sol\":1534:2019  function bid() external payable onlyWhileActive {... */\n      jump\t// out\n        /* \"subasta9.sol\":554:573  uint public endTime */\n    tag_26:\n      sload(0x01)\n      dup2\n      jump\t// out\n        /* \"subasta9.sol\":684:714  uint8 public gasCommission = 2 */\n    tag_31:\n      0x04\n      0x00\n      swap1\n      sload\n      swap1\n      0x0100\n      exp\n      swap1\n      div\n      0xff\n      and\n      dup2\n      jump\t// out\n        /* \"subasta9.sol\":522:547  address public auctioneer */\n    tag_36:\n      0x00\n      dup1\n      sload\n      swap1\n      0x0100\n      exp\n      swap1\n      div\n      0xffffffffffffffffffffffffffffffffffffffff\n      and\n      dup2\n      jump\t// out\n        /* \"subasta9.sol\":2661:3671  function refundDeposits() external onlyAuctioneer {... */\n    tag_41:\n        /* \"subasta9.sol\":1302:1312  auctioneer */\n      0x00\n      dup1\n      sload\n      swap1\n      0x0100\n      exp\n      swap1\n      div\n      0xffffffffffffffffffffffffffffffffffffffff\n      and\n        /* \"subasta9.sol\":1288:1312  msg.sender == auctioneer */\n      0xffffffffffffffffffffffffffffffffffffffff\n      and\n        /* \"subasta9.sol\":1288:1298  msg.sender */\n      caller\n        /* \"subasta9.sol\":1288:1312  msg.sender == auctioneer */\n      0xffffffffffffffffffffffffffffffffffffffff\n      and\n      eq\n        /* \"subasta9.sol\":1280:1362  require(msg.sender == auctioneer, \"Only the auctioneer can execute this function\") */\n      tag_99\n      jumpi\n      mload(0x40)\n      0x08c379a000000000000000000000000000000000000000000000000000000000\n      dup2\n      mstore\n      0x04\n      add\n      tag_100\n      swap1\n      tag_101\n      jump\t// in\n    tag_100:\n      mload(0x40)\n      dup1\n      swap2\n      sub\n      swap1\n      revert\n    tag_99:\n        /* \"subasta9.sol\":2731:2744  auctionActive */\n      0x04\n      0x01\n      swap1\n      sload\n      swap1\n      0x0100\n      exp\n      swap1\n      div\n      0xff\n      and\n        /* \"subasta9.sol\":2730:2744  !auctionActive */\n      iszero\n        /* \"subasta9.sol\":2722:2776  require(!auctionActive, \"The auction is still active\") */\n      tag_103\n      jumpi\n      mload(0x40)\n      0x08c379a000000000000000000000000000000000000000000000000000000000\n      dup2\n      mstore\n      0x04\n      add\n      tag_104\n      swap1\n      tag_105\n      jump\t// in\n    tag_104:\n      mload(0x40)\n      dup1\n      swap2\n      sub\n      swap1\n      revert\n    tag_103:\n        /* \"subasta9.sol\":2789:2808  uint historialArray */\n      0x00\n        /* \"subasta9.sol\":2811:2821  bidHistory */\n      0x05\n        /* \"subasta9.sol\":2811:2828  bidHistory.length */\n      dup1\n      sload\n      swap1\n      pop\n        /* \"subasta9.sol\":2789:2828  uint historialArray = bidHistory.length */\n      swap1\n      pop\n        /* \"subasta9.sol\":2839:2853  address winner */\n      0x00\n        /* \"subasta9.sol\":2856:2866  bidHistory */\n      0x05\n        /* \"subasta9.sol\":2884:2885  1 */\n      0x01\n        /* \"subasta9.sol\":2867:2881  historialArray */\n      dup4\n        /* \"subasta9.sol\":2867:2885  historialArray - 1 */\n      tag_106\n      swap2\n      swap1\n      tag_107\n      jump\t// in\n    tag_106:\n        /* \"subasta9.sol\":2856:2886  bidHistory[historialArray - 1] */\n      dup2\n      sload\n      dup2\n      lt\n      tag_108\n      jumpi\n      tag_109\n      tag_110\n      jump\t// in\n    tag_109:\n    tag_108:\n      swap1\n      0x00\n      mstore\n      keccak256(0x00, 0x20)\n      swap1\n      0x02\n      mul\n      add\n        /* \"subasta9.sol\":2856:2893  bidHistory[historialArray - 1].bidder */\n      0x00\n      add\n      0x00\n      swap1\n      sload\n      swap1\n      0x0100\n      exp\n      swap1\n      div\n      0xffffffffffffffffffffffffffffffffffffffff\n      and\n        /* \"subasta9.sol\":2839:2893  address winner = bidHistory[historialArray - 1].bidder */\n      swap1\n      pop\n        /* \"subasta9.sol\":2911:2917  uint i */\n      0x00\n        /* \"subasta9.sol\":2920:2921  1 */\n      0x01\n        /* \"subasta9.sol\":2911:2921  uint i = 1 */\n      swap1\n      pop\n        /* \"subasta9.sol\":2906:3664  for (uint i = 1; i < historialArray - 1; i++) { // Excluding the last bid (winner)... */\n    tag_112:\n        /* \"subasta9.sol\":2944:2945  1 */\n      0x01\n        /* \"subasta9.sol\":2927:2941  historialArray */\n      dup4\n        /* \"subasta9.sol\":2927:2945  historialArray - 1 */\n      tag_115\n      swap2\n      swap1\n      tag_107\n      jump\t// in\n    tag_115:\n        /* \"subasta9.sol\":2923:2924  i */\n      dup2\n        /* \"subasta9.sol\":2923:2945  i < historialArray - 1 */\n      lt\n        /* \"subasta9.sol\":2906:3664  for (uint i = 1; i < historialArray - 1; i++) { // Excluding the last bid (winner)... */\n      iszero\n      tag_113\n      jumpi\n        /* \"subasta9.sol\":3002:3016  address bidder */\n      0x00\n        /* \"subasta9.sol\":3019:3029  bidHistory */\n      0x05\n        /* \"subasta9.sol\":3030:3031  i */\n      dup3\n        /* \"subasta9.sol\":3019:3032  bidHistory[i] */\n      dup2\n      sload\n      dup2\n      lt\n      tag_116\n      jumpi\n      tag_117\n      tag_110\n      jump\t// in\n    tag_117:\n    tag_116:\n      swap1\n      0x00\n      mstore\n      keccak256(0x00, 0x20)\n      swap1\n      0x02\n      mul\n      add\n        /* \"subasta9.sol\":3019:3039  bidHistory[i].bidder */\n      0x00\n      add\n      0x00\n      swap1\n      sload\n      swap1\n      0x0100\n      exp\n      swap1\n      div\n      0xffffffffffffffffffffffffffffffffffffffff\n      and\n        /* \"subasta9.sol\":3002:3039  address bidder = bidHistory[i].bidder */\n      swap1\n      pop\n        /* \"subasta9.sol\":3054:3069  uint amountGwei */\n      0x00\n        /* \"subasta9.sol\":3072:3082  bidHistory */\n      0x05\n        /* \"subasta9.sol\":3083:3084  i */\n      dup4\n        /* \"subasta9.sol\":3072:3085  bidHistory[i] */\n      dup2\n      sload\n      dup2\n      lt\n      tag_119\n      jumpi\n      tag_120\n      tag_110\n      jump\t// in\n    tag_120:\n    tag_119:\n      swap1\n      0x00\n      mstore\n      keccak256(0x00, 0x20)\n      swap1\n      0x02\n      mul\n      add\n        /* \"subasta9.sol\":3072:3096  bidHistory[i].amountGwei */\n      0x01\n      add\n      sload\n        /* \"subasta9.sol\":3054:3096  uint amountGwei = bidHistory[i].amountGwei */\n      swap1\n      pop\n        /* \"subasta9.sol\":3183:3189  winner */\n      dup4\n        /* \"subasta9.sol\":3173:3189  bidder == winner */\n      0xffffffffffffffffffffffffffffffffffffffff\n      and\n        /* \"subasta9.sol\":3173:3179  bidder */\n      dup3\n        /* \"subasta9.sol\":3173:3189  bidder == winner */\n      0xffffffffffffffffffffffffffffffffffffffff\n      and\n      sub\n        /* \"subasta9.sol\":3169:3234  if (bidder == winner) {... */\n      tag_122\n      jumpi\n        /* \"subasta9.sol\":3210:3218  continue */\n      pop\n      pop\n      jump(tag_114)\n        /* \"subasta9.sol\":3169:3234  if (bidder == winner) {... */\n    tag_122:\n        /* \"subasta9.sol\":3321:3344  uint amountToRefundGwei */\n      0x00\n        /* \"subasta9.sol\":3386:3389  100 */\n      0x64\n        /* \"subasta9.sol\":3368:3381  gasCommission */\n      0x04\n      0x00\n      swap1\n      sload\n      swap1\n      0x0100\n      exp\n      swap1\n      div\n      0xff\n      and\n        /* \"subasta9.sol\":3362:3365  100 */\n      0x64\n        /* \"subasta9.sol\":3362:3381  100 - gasCommission */\n      tag_123\n      swap2\n      swap1\n      tag_124\n      jump\t// in\n    tag_123:\n        /* \"subasta9.sol\":3348:3382  amountGwei * (100 - gasCommission) */\n      0xff\n      and\n        /* \"subasta9.sol\":3348:3358  amountGwei */\n      dup4\n        /* \"subasta9.sol\":3348:3382  amountGwei * (100 - gasCommission) */\n      tag_125\n      swap2\n      swap1\n      tag_86\n      jump\t// in\n    tag_125:\n        /* \"subasta9.sol\":3347:3389  (amountGwei * (100 - gasCommission)) / 100 */\n      tag_126\n      swap2\n      swap1\n      tag_83\n      jump\t// in\n    tag_126:\n        /* \"subasta9.sol\":3321:3389  uint amountToRefundGwei = (amountGwei * (100 - gasCommission)) / 100 */\n      swap1\n      pop\n        /* \"subasta9.sol\":3404:3426  uint amountToRefundWei */\n      0x00\n        /* \"subasta9.sol\":3450:3456  1 gwei */\n      0x3b9aca00\n        /* \"subasta9.sol\":3429:3447  amountToRefundGwei */\n      dup3\n        /* \"subasta9.sol\":3429:3456  amountToRefundGwei * 1 gwei */\n      tag_127\n      swap2\n      swap1\n      tag_86\n      jump\t// in\n    tag_127:\n        /* \"subasta9.sol\":3404:3456  uint amountToRefundWei = amountToRefundGwei * 1 gwei */\n      swap1\n      pop\n        /* \"subasta9.sol\":3535:3547  bool success */\n      0x00\n        /* \"subasta9.sol\":3553:3559  bidder */\n      dup5\n        /* \"subasta9.sol\":3553:3564  bidder.call */\n      0xffffffffffffffffffffffffffffffffffffffff\n      and\n        /* \"subasta9.sol\":3572:3589  amountToRefundWei */\n      dup3\n        /* \"subasta9.sol\":3553:3594  bidder.call{value: amountToRefundWei}(\"\") */\n      mload(0x40)\n      tag_128\n      swap1\n      tag_129\n      jump\t// in\n    tag_128:\n      0x00\n      mload(0x40)\n      dup1\n      dup4\n      sub\n      dup2\n      dup6\n      dup8\n      gas\n      call\n      swap3\n      pop\n      pop\n      pop\n      returndatasize\n      dup1\n      0x00\n      dup2\n      eq\n      tag_132\n      jumpi\n      mload(0x40)\n      swap2\n      pop\n      and(add(returndatasize, 0x3f), not(0x1f))\n      dup3\n      add\n      0x40\n      mstore\n      returndatasize\n      dup3\n      mstore\n      returndatasize\n      0x00\n      0x20\n      dup5\n      add\n      returndatacopy\n      jump(tag_131)\n    tag_132:\n      0x60\n      swap2\n      pop\n    tag_131:\n      pop\n        /* \"subasta9.sol\":3534:3594  (bool success, ) = bidder.call{value: amountToRefundWei}(\"\") */\n      pop\n      swap1\n      pop\n        /* \"subasta9.sol\":3617:3624  success */\n      dup1\n        /* \"subasta9.sol\":3609:3652  require(success, \"Refund to bidder failed\") */\n      tag_133\n      jumpi\n      mload(0x40)\n      0x08c379a000000000000000000000000000000000000000000000000000000000\n      dup2\n      mstore\n      0x04\n      add\n      tag_134\n      swap1\n      tag_135\n      jump\t// in\n    tag_134:\n      mload(0x40)\n      dup1\n      swap2\n      sub\n      swap1\n      revert\n    tag_133:\n        /* \"subasta9.sol\":2952:3664  { // Excluding the last bid (winner)... */\n      pop\n      pop\n      pop\n      pop\n      pop\n        /* \"subasta9.sol\":2906:3664  for (uint i = 1; i < historialArray - 1; i++) { // Excluding the last bid (winner)... */\n    tag_114:\n        /* \"subasta9.sol\":2947:2950  i++ */\n      dup1\n      dup1\n      0x01\n      add\n      swap2\n      pop\n      pop\n        /* \"subasta9.sol\":2906:3664  for (uint i = 1; i < historialArray - 1; i++) { // Excluding the last bid (winner)... */\n      jump(tag_112)\n    tag_113:\n      pop\n        /* \"subasta9.sol\":2711:3671  {... */\n      pop\n      pop\n        /* \"subasta9.sol\":2661:3671  function refundDeposits() external onlyAuctioneer {... */\n      jump\t// out\n        /* \"subasta9.sol\":4428:4550  function getMaxBidGwei() public view returns (uint) {... */\n    tag_44:\n        /* \"subasta9.sol\":4474:4478  uint */\n      0x00\n        /* \"subasta9.sol\":4498:4508  bidHistory */\n      0x05\n        /* \"subasta9.sol\":4529:4530  1 */\n      0x01\n        /* \"subasta9.sol\":4509:4519  bidHistory */\n      0x05\n        /* \"subasta9.sol\":4509:4526  bidHistory.length */\n      dup1\n      sload\n      swap1\n      pop\n        /* \"subasta9.sol\":4509:4530  bidHistory.length - 1 */\n      tag_137\n      swap2\n      swap1\n      tag_107\n      jump\t// in\n    tag_137:\n        /* \"subasta9.sol\":4498:4531  bidHistory[bidHistory.length - 1] */\n      dup2\n      sload\n      dup2\n      lt\n      tag_138\n      jumpi\n      tag_139\n      tag_110\n      jump\t// in\n    tag_139:\n    tag_138:\n      swap1\n      0x00\n      mstore\n      keccak256(0x00, 0x20)\n      swap1\n      0x02\n      mul\n      add\n        /* \"subasta9.sol\":4498:4542  bidHistory[bidHistory.length - 1].amountGwei */\n      0x01\n      add\n      sload\n        /* \"subasta9.sol\":4491:4542  return bidHistory[bidHistory.length - 1].amountGwei */\n      swap1\n      pop\n        /* \"subasta9.sol\":4428:4550  function getMaxBidGwei() public view returns (uint) {... */\n      swap1\n      jump\t// out\n        /* \"subasta9.sol\":727:752  bool public auctionActive */\n    tag_48:\n      0x04\n      0x01\n      swap1\n      sload\n      swap1\n      0x0100\n      exp\n      swap1\n      div\n      0xff\n      and\n      dup2\n      jump\t// out\n        /* \"subasta9.sol\":580:621  uint32 public extensionPeriod = 2 minutes */\n    tag_53:\n      0x02\n      0x00\n      swap1\n      sload\n      swap1\n      0x0100\n      exp\n      swap1\n      div\n      0xffffffff\n      and\n      dup2\n      jump\t// out\n        /* \"subasta9.sol\":759:782  Bid[] public bidHistory */\n    tag_60:\n      0x05\n      dup2\n      dup2\n      sload\n      dup2\n      lt\n      tag_141\n      jumpi\n      0x00\n      dup1\n      revert\n    tag_141:\n      swap1\n      0x00\n      mstore\n      keccak256(0x00, 0x20)\n      swap1\n      0x02\n      mul\n      add\n      0x00\n      swap2\n      pop\n      swap1\n      pop\n      dup1\n      0x00\n      add\n      0x00\n      swap1\n      sload\n      swap1\n      0x0100\n      exp\n      swap1\n      div\n      0xffffffffffffffffffffffffffffffffffffffff\n      and\n      swap1\n      dup1\n      0x01\n      add\n      sload\n      swap1\n      pop\n      dup3\n      jump\t// out\n        /* \"subasta9.sol\":628:654  uint public minimumBidGwei */\n    tag_65:\n      sload(0x03)\n      dup2\n      jump\t// out\n        /* \"subasta9.sol\":3679:4294  function partialWithdraw() external onlyWhileActive {... */\n    tag_69:\n        /* \"subasta9.sol\":1436:1449  auctionActive */\n      0x04\n      0x01\n      swap1\n      sload\n      swap1\n      0x0100\n      exp\n      swap1\n      div\n      0xff\n      and\n        /* \"subasta9.sol\":1428:1479  require(auctionActive, \"The auction is not active\") */\n      tag_144\n      jumpi\n      mload(0x40)\n      0x08c379a000000000000000000000000000000000000000000000000000000000\n      dup2\n      mstore\n      0x04\n      add\n      tag_145\n      swap1\n      tag_80\n      jump\t// in\n    tag_145:\n      mload(0x40)\n      dup1\n      swap2\n      sub\n      swap1\n      revert\n    tag_144:\n        /* \"subasta9.sol\":3742:3767  uint amountToWithdrawGwei */\n      0x00\n        /* \"subasta9.sol\":3782:3801  uint historialArray */\n      dup1\n        /* \"subasta9.sol\":3804:3814  bidHistory */\n      0x05\n        /* \"subasta9.sol\":3804:3821  bidHistory.length */\n      dup1\n      sload\n      swap1\n      pop\n        /* \"subasta9.sol\":3782:3821  uint historialArray = bidHistory.length */\n      swap1\n      pop\n        /* \"subasta9.sol\":3839:3845  uint i */\n      0x00\n        /* \"subasta9.sol\":3834:4082  for (uint i = 0; i < historialArray - 1; i++) {... */\n    tag_147:\n        /* \"subasta9.sol\":3872:3873  1 */\n      0x01\n        /* \"subasta9.sol\":3855:3869  historialArray */\n      dup3\n        /* \"subasta9.sol\":3855:3873  historialArray - 1 */\n      tag_150\n      swap2\n      swap1\n      tag_107\n      jump\t// in\n    tag_150:\n        /* \"subasta9.sol\":3851:3852  i */\n      dup2\n        /* \"subasta9.sol\":3851:3873  i < historialArray - 1 */\n      lt\n        /* \"subasta9.sol\":3834:4082  for (uint i = 0; i < historialArray - 1; i++) {... */\n      iszero\n      tag_148\n      jumpi\n        /* \"subasta9.sol\":3923:3933  msg.sender */\n      caller\n        /* \"subasta9.sol\":3899:3933  bidHistory[i].bidder == msg.sender */\n      0xffffffffffffffffffffffffffffffffffffffff\n      and\n        /* \"subasta9.sol\":3899:3909  bidHistory */\n      0x05\n        /* \"subasta9.sol\":3910:3911  i */\n      dup3\n        /* \"subasta9.sol\":3899:3912  bidHistory[i] */\n      dup2\n      sload\n      dup2\n      lt\n      tag_151\n      jumpi\n      tag_152\n      tag_110\n      jump\t// in\n    tag_152:\n    tag_151:\n      swap1\n      0x00\n      mstore\n      keccak256(0x00, 0x20)\n      swap1\n      0x02\n      mul\n      add\n        /* \"subasta9.sol\":3899:3919  bidHistory[i].bidder */\n      0x00\n      add\n      0x00\n      swap1\n      sload\n      swap1\n      0x0100\n      exp\n      swap1\n      div\n      0xffffffffffffffffffffffffffffffffffffffff\n      and\n        /* \"subasta9.sol\":3899:3933  bidHistory[i].bidder == msg.sender */\n      0xffffffffffffffffffffffffffffffffffffffff\n      and\n      sub\n        /* \"subasta9.sol\":3895:4071  if (bidHistory[i].bidder == msg.sender) {... */\n      tag_154\n      jumpi\n        /* \"subasta9.sol\":3978:3988  bidHistory */\n      0x05\n        /* \"subasta9.sol\":3989:3990  i */\n      dup2\n        /* \"subasta9.sol\":3978:3991  bidHistory[i] */\n      dup2\n      sload\n      dup2\n      lt\n      tag_155\n      jumpi\n      tag_156\n      tag_110\n      jump\t// in\n    tag_156:\n    tag_155:\n      swap1\n      0x00\n      mstore\n      keccak256(0x00, 0x20)\n      swap1\n      0x02\n      mul\n      add\n        /* \"subasta9.sol\":3978:4002  bidHistory[i].amountGwei */\n      0x01\n      add\n      sload\n        /* \"subasta9.sol\":3954:4002  amountToWithdrawGwei += bidHistory[i].amountGwei */\n      dup4\n      tag_158\n      swap2\n      swap1\n      tag_95\n      jump\t// in\n    tag_158:\n      swap3\n      pop\n        /* \"subasta9.sol\":4028:4038  bidHistory */\n      0x05\n        /* \"subasta9.sol\":4039:4040  i */\n      dup2\n        /* \"subasta9.sol\":4028:4041  bidHistory[i] */\n      dup2\n      sload\n      dup2\n      lt\n      tag_159\n      jumpi\n      tag_160\n      tag_110\n      jump\t// in\n    tag_160:\n    tag_159:\n      swap1\n      0x00\n      mstore\n      keccak256(0x00, 0x20)\n      swap1\n      0x02\n      mul\n      add\n      0x00\n        /* \"subasta9.sol\":4021:4041  delete bidHistory[i] */\n      dup1\n      dup3\n      add\n      exp(0x0100, 0x00)\n      dup2\n      sload\n      swap1\n      0xffffffffffffffffffffffffffffffffffffffff\n      mul\n      not\n      and\n      swap1\n      sstore\n      0x01\n      dup3\n      add\n      0x00\n      swap1\n      sstore\n      pop\n      pop\n        /* \"subasta9.sol\":3895:4071  if (bidHistory[i].bidder == msg.sender) {... */\n    tag_154:\n        /* \"subasta9.sol\":3875:3878  i++ */\n      dup1\n      dup1\n      0x01\n      add\n      swap2\n      pop\n      pop\n        /* \"subasta9.sol\":3834:4082  for (uint i = 0; i < historialArray - 1; i++) {... */\n      jump(tag_147)\n    tag_148:\n      pop\n        /* \"subasta9.sol\":4123:4124  0 */\n      0x00\n        /* \"subasta9.sol\":4100:4120  amountToWithdrawGwei */\n      dup3\n        /* \"subasta9.sol\":4100:4124  amountToWithdrawGwei > 0 */\n      gt\n        /* \"subasta9.sol\":4092:4157  require(amountToWithdrawGwei > 0, \"There is nothing to withdraw\") */\n      tag_162\n      jumpi\n      mload(0x40)\n      0x08c379a000000000000000000000000000000000000000000000000000000000\n      dup2\n      mstore\n      0x04\n      add\n      tag_163\n      swap1\n      tag_164\n      jump\t// in\n    tag_163:\n      mload(0x40)\n      dup1\n      swap2\n      sub\n      swap1\n      revert\n    tag_162:\n        /* \"subasta9.sol\":4170:4194  uint amountToWithdrawWei */\n      0x00\n        /* \"subasta9.sol\":4220:4226  1 gwei */\n      0x3b9aca00\n        /* \"subasta9.sol\":4197:4217  amountToWithdrawGwei */\n      dup4\n        /* \"subasta9.sol\":4197:4226  amountToWithdrawGwei * 1 gwei */\n      tag_165\n      swap2\n      swap1\n      tag_86\n      jump\t// in\n    tag_165:\n        /* \"subasta9.sol\":4170:4226  uint amountToWithdrawWei = amountToWithdrawGwei * 1 gwei */\n      swap1\n      pop\n        /* \"subasta9.sol\":4245:4255  msg.sender */\n      caller\n        /* \"subasta9.sol\":4237:4265  payable(msg.sender).transfer */\n      0xffffffffffffffffffffffffffffffffffffffff\n      and\n        /* \"subasta9.sol\":4237:4286  payable(msg.sender).transfer(amountToWithdrawWei) */\n      0x08fc\n        /* \"subasta9.sol\":4266:4285  amountToWithdrawWei */\n      dup3\n        /* \"subasta9.sol\":4237:4286  payable(msg.sender).transfer(amountToWithdrawWei) */\n      swap1\n      dup2\n      iszero\n      mul\n      swap1\n      mload(0x40)\n      0x00\n      mload(0x40)\n      dup1\n      dup4\n      sub\n      dup2\n      dup6\n      dup9\n      dup9\n      call\n      swap4\n      pop\n      pop\n      pop\n      pop\n      iszero\n      dup1\n      iszero\n      tag_167\n      jumpi\n      returndatasize\n      0x00\n      dup1\n      returndatacopy\n      revert(0x00, returndatasize)\n    tag_167:\n      pop\n        /* \"subasta9.sol\":3731:4294  {... */\n      pop\n      pop\n      pop\n        /* \"subasta9.sol\":3679:4294  function partialWithdraw() external onlyWhileActive {... */\n      jump\t// out\n        /* \"subasta9.sol\":2027:2653  function endAuction() external onlyAuctioneer {... */\n    tag_72:\n        /* \"subasta9.sol\":1302:1312  auctioneer */\n      0x00\n      dup1\n      sload\n      swap1\n      0x0100\n      exp\n      swap1\n      div\n      0xffffffffffffffffffffffffffffffffffffffff\n      and\n        /* \"subasta9.sol\":1288:1312  msg.sender == auctioneer */\n      0xffffffffffffffffffffffffffffffffffffffff\n      and\n        /* \"subasta9.sol\":1288:1298  msg.sender */\n      caller\n        /* \"subasta9.sol\":1288:1312  msg.sender == auctioneer */\n      0xffffffffffffffffffffffffffffffffffffffff\n      and\n      eq\n        /* \"subasta9.sol\":1280:1362  require(msg.sender == auctioneer, \"Only the auctioneer can execute this function\") */\n      tag_169\n      jumpi\n      mload(0x40)\n      0x08c379a000000000000000000000000000000000000000000000000000000000\n      dup2\n      mstore\n      0x04\n      add\n      tag_170\n      swap1\n      tag_101\n      jump\t// in\n    tag_170:\n      mload(0x40)\n      dup1\n      swap2\n      sub\n      swap1\n      revert\n    tag_169:\n        /* \"subasta9.sol\":2111:2118  endTime */\n      sload(0x01)\n        /* \"subasta9.sol\":2092:2107  block.timestamp */\n      timestamp\n        /* \"subasta9.sol\":2092:2118  block.timestamp >= endTime */\n      lt\n      iszero\n        /* \"subasta9.sol\":2084:2148  require(block.timestamp >= endTime, \"The auction has not ended\") */\n      tag_172\n      jumpi\n      mload(0x40)\n      0x08c379a000000000000000000000000000000000000000000000000000000000\n      dup2\n      mstore\n      0x04\n      add\n      tag_173\n      swap1\n      tag_174\n      jump\t// in\n    tag_173:\n      mload(0x40)\n      dup1\n      swap2\n      sub\n      swap1\n      revert\n    tag_172:\n        /* \"subasta9.sol\":2177:2182  false */\n      0x00\n        /* \"subasta9.sol\":2161:2174  auctionActive */\n      0x04\n      0x01\n        /* \"subasta9.sol\":2161:2182  auctionActive = false */\n      0x0100\n      exp\n      dup2\n      sload\n      dup2\n      0xff\n      mul\n      not\n      and\n      swap1\n      dup4\n      iszero\n      iszero\n      mul\n      or\n      swap1\n      sstore\n      pop\n        /* \"subasta9.sol\":2193:2207  address winner */\n      0x00\n        /* \"subasta9.sol\":2210:2220  bidHistory */\n      0x05\n        /* \"subasta9.sol\":2241:2242  1 */\n      0x01\n        /* \"subasta9.sol\":2221:2231  bidHistory */\n      0x05\n        /* \"subasta9.sol\":2221:2238  bidHistory.length */\n      dup1\n      sload\n      swap1\n      pop\n        /* \"subasta9.sol\":2221:2242  bidHistory.length - 1 */\n      tag_175\n      swap2\n      swap1\n      tag_107\n      jump\t// in\n    tag_175:\n        /* \"subasta9.sol\":2210:2243  bidHistory[bidHistory.length - 1] */\n      dup2\n      sload\n      dup2\n      lt\n      tag_176\n      jumpi\n      tag_177\n      tag_110\n      jump\t// in\n    tag_177:\n    tag_176:\n      swap1\n      0x00\n      mstore\n      keccak256(0x00, 0x20)\n      swap1\n      0x02\n      mul\n      add\n        /* \"subasta9.sol\":2210:2250  bidHistory[bidHistory.length - 1].bidder */\n      0x00\n      add\n      0x00\n      swap1\n      sload\n      swap1\n      0x0100\n      exp\n      swap1\n      div\n      0xffffffffffffffffffffffffffffffffffffffff\n      and\n        /* \"subasta9.sol\":2193:2250  address winner = bidHistory[bidHistory.length - 1].bidder */\n      swap1\n      pop\n        /* \"subasta9.sol\":2261:2283  uint winningAmountGwei */\n      0x00\n        /* \"subasta9.sol\":2286:2296  bidHistory */\n      0x05\n        /* \"subasta9.sol\":2317:2318  1 */\n      0x01\n        /* \"subasta9.sol\":2297:2307  bidHistory */\n      0x05\n        /* \"subasta9.sol\":2297:2314  bidHistory.length */\n      dup1\n      sload\n      swap1\n      pop\n        /* \"subasta9.sol\":2297:2318  bidHistory.length - 1 */\n      tag_179\n      swap2\n      swap1\n      tag_107\n      jump\t// in\n    tag_179:\n        /* \"subasta9.sol\":2286:2319  bidHistory[bidHistory.length - 1] */\n      dup2\n      sload\n      dup2\n      lt\n      tag_180\n      jumpi\n      tag_181\n      tag_110\n      jump\t// in\n    tag_181:\n    tag_180:\n      swap1\n      0x00\n      mstore\n      keccak256(0x00, 0x20)\n      swap1\n      0x02\n      mul\n      add\n        /* \"subasta9.sol\":2286:2330  bidHistory[bidHistory.length - 1].amountGwei */\n      0x01\n      add\n      sload\n        /* \"subasta9.sol\":2261:2330  uint winningAmountGwei = bidHistory[bidHistory.length - 1].amountGwei */\n      swap1\n      pop\n        /* \"subasta9.sol\":2404:2425  uint winningAmountWei */\n      0x00\n        /* \"subasta9.sol\":2448:2454  1 gwei */\n      0x3b9aca00\n        /* \"subasta9.sol\":2428:2445  winningAmountGwei */\n      dup3\n        /* \"subasta9.sol\":2428:2454  winningAmountGwei * 1 gwei */\n      tag_183\n      swap2\n      swap1\n      tag_86\n      jump\t// in\n    tag_183:\n        /* \"subasta9.sol\":2404:2454  uint winningAmountWei = winningAmountGwei * 1 gwei */\n      swap1\n      pop\n        /* \"subasta9.sol\":2466:2478  bool success */\n      0x00\n        /* \"subasta9.sol\":2484:2494  auctioneer */\n      dup1\n      0x00\n      swap1\n      sload\n      swap1\n      0x0100\n      exp\n      swap1\n      div\n      0xffffffffffffffffffffffffffffffffffffffff\n      and\n        /* \"subasta9.sol\":2484:2499  auctioneer.call */\n      0xffffffffffffffffffffffffffffffffffffffff\n      and\n        /* \"subasta9.sol\":2507:2523  winningAmountWei */\n      dup3\n        /* \"subasta9.sol\":2484:2528  auctioneer.call{value: winningAmountWei}(\"\") */\n      mload(0x40)\n      tag_184\n      swap1\n      tag_129\n      jump\t// in\n    tag_184:\n      0x00\n      mload(0x40)\n      dup1\n      dup4\n      sub\n      dup2\n      dup6\n      dup8\n      gas\n      call\n      swap3\n      pop\n      pop\n      pop\n      returndatasize\n      dup1\n      0x00\n      dup2\n      eq\n      tag_187\n      jumpi\n      mload(0x40)\n      swap2\n      pop\n      and(add(returndatasize, 0x3f), not(0x1f))\n      dup3\n      add\n      0x40\n      mstore\n      returndatasize\n      dup3\n      mstore\n      returndatasize\n      0x00\n      0x20\n      dup5\n      add\n      returndatacopy\n      jump(tag_186)\n    tag_187:\n      0x60\n      swap2\n      pop\n    tag_186:\n      pop\n        /* \"subasta9.sol\":2465:2528  (bool success, ) = auctioneer.call{value: winningAmountWei}(\"\") */\n      pop\n      swap1\n      pop\n        /* \"subasta9.sol\":2547:2554  success */\n      dup1\n        /* \"subasta9.sol\":2539:2588  require(success, \"Transfer to auctioneer failed\") */\n      tag_188\n      jumpi\n      mload(0x40)\n      0x08c379a000000000000000000000000000000000000000000000000000000000\n      dup2\n      mstore\n      0x04\n      add\n      tag_189\n      swap1\n      tag_190\n      jump\t// in\n    tag_189:\n      mload(0x40)\n      dup1\n      swap2\n      sub\n      swap1\n      revert\n    tag_188:\n        /* \"subasta9.sol\":2606:2645  AuctionEnded(winner, winningAmountGwei) */\n      0xdaec4582d5d9595688c8c98545fdd1c696d41c6aeaeb636737e84ed2f5c00eda\n        /* \"subasta9.sol\":2619:2625  winner */\n      dup5\n        /* \"subasta9.sol\":2627:2644  winningAmountGwei */\n      dup5\n        /* \"subasta9.sol\":2606:2645  AuctionEnded(winner, winningAmountGwei) */\n      mload(0x40)\n      tag_191\n      swap3\n      swap2\n      swap1\n      tag_62\n      jump\t// in\n    tag_191:\n      mload(0x40)\n      dup1\n      swap2\n      sub\n      swap1\n      log1\n        /* \"subasta9.sol\":2073:2653  {... */\n      pop\n      pop\n      pop\n      pop\n        /* \"subasta9.sol\":2027:2653  function endAuction() external onlyAuctioneer {... */\n      jump\t// out\n        /* \"#utility.yul\":7:139   */\n    tag_192:\n        /* \"#utility.yul\":92:98   */\n      0x00\n        /* \"#utility.yul\":126:131   */\n      dup2\n        /* \"#utility.yul\":120:132   */\n      mload\n        /* \"#utility.yul\":110:132   */\n      swap1\n      pop\n        /* \"#utility.yul\":7:139   */\n      swap2\n      swap1\n      pop\n      jump\t// out\n        /* \"#utility.yul\":145:347   */\n    tag_193:\n        /* \"#utility.yul\":262:273   */\n      0x00\n        /* \"#utility.yul\":296:302   */\n      dup3\n        /* \"#utility.yul\":291:294   */\n      dup3\n        /* \"#utility.yul\":284:303   */\n      mstore\n        /* \"#utility.yul\":336:340   */\n      0x20\n        /* \"#utility.yul\":331:334   */\n      dup3\n        /* \"#utility.yul\":327:341   */\n      add\n        /* \"#utility.yul\":312:341   */\n      swap1\n      pop\n        /* \"#utility.yul\":145:347   */\n      swap3\n      swap2\n      pop\n      pop\n      jump\t// out\n        /* \"#utility.yul\":353:503   */\n    tag_194:\n        /* \"#utility.yul\":438:442   */\n      0x00\n        /* \"#utility.yul\":461:464   */\n      dup2\n        /* \"#utility.yul\":453:464   */\n      swap1\n      pop\n        /* \"#utility.yul\":491:495   */\n      0x20\n        /* \"#utility.yul\":486:489   */\n      dup3\n        /* \"#utility.yul\":482:496   */\n      add\n        /* \"#utility.yul\":474:496   */\n      swap1\n      pop\n        /* \"#utility.yul\":353:503   */\n      swap2\n      swap1\n      pop\n      jump\t// out\n        /* \"#utility.yul\":509:635   */\n    tag_195:\n        /* \"#utility.yul\":546:553   */\n      0x00\n        /* \"#utility.yul\":586:628   */\n      0xffffffffffffffffffffffffffffffffffffffff\n        /* \"#utility.yul\":579:584   */\n      dup3\n        /* \"#utility.yul\":575:629   */\n      and\n        /* \"#utility.yul\":564:629   */\n      swap1\n      pop\n        /* \"#utility.yul\":509:635   */\n      swap2\n      swap1\n      pop\n      jump\t// out\n        /* \"#utility.yul\":641:737   */\n    tag_196:\n        /* \"#utility.yul\":678:685   */\n      0x00\n        /* \"#utility.yul\":707:731   */\n      tag_247\n        /* \"#utility.yul\":725:730   */\n      dup3\n        /* \"#utility.yul\":707:731   */\n      tag_195\n      jump\t// in\n    tag_247:\n        /* \"#utility.yul\":696:731   */\n      swap1\n      pop\n        /* \"#utility.yul\":641:737   */\n      swap2\n      swap1\n      pop\n      jump\t// out\n        /* \"#utility.yul\":743:851   */\n    tag_197:\n        /* \"#utility.yul\":820:844   */\n      tag_249\n        /* \"#utility.yul\":838:843   */\n      dup2\n        /* \"#utility.yul\":820:844   */\n      tag_196\n      jump\t// in\n    tag_249:\n        /* \"#utility.yul\":815:818   */\n      dup3\n        /* \"#utility.yul\":808:845   */\n      mstore\n        /* \"#utility.yul\":743:851   */\n      pop\n      pop\n      jump\t// out\n        /* \"#utility.yul\":857:934   */\n    tag_198:\n        /* \"#utility.yul\":894:901   */\n      0x00\n        /* \"#utility.yul\":923:928   */\n      dup2\n        /* \"#utility.yul\":912:928   */\n      swap1\n      pop\n        /* \"#utility.yul\":857:934   */\n      swap2\n      swap1\n      pop\n      jump\t// out\n        /* \"#utility.yul\":940:1048   */\n    tag_199:\n        /* \"#utility.yul\":1017:1041   */\n      tag_252\n        /* \"#utility.yul\":1035:1040   */\n      dup2\n        /* \"#utility.yul\":1017:1041   */\n      tag_198\n      jump\t// in\n    tag_252:\n        /* \"#utility.yul\":1012:1015   */\n      dup3\n        /* \"#utility.yul\":1005:1042   */\n      mstore\n        /* \"#utility.yul\":940:1048   */\n      pop\n      pop\n      jump\t// out\n        /* \"#utility.yul\":1118:1609   */\n    tag_200:\n        /* \"#utility.yul\":1241:1245   */\n      0x40\n        /* \"#utility.yul\":1236:1239   */\n      dup3\n        /* \"#utility.yul\":1232:1246   */\n      add\n        /* \"#utility.yul\":1330:1334   */\n      0x00\n        /* \"#utility.yul\":1323:1328   */\n      dup3\n        /* \"#utility.yul\":1319:1335   */\n      add\n        /* \"#utility.yul\":1313:1336   */\n      mload\n        /* \"#utility.yul\":1349:1412   */\n      tag_254\n        /* \"#utility.yul\":1406:1410   */\n      0x00\n        /* \"#utility.yul\":1401:1404   */\n      dup6\n        /* \"#utility.yul\":1397:1411   */\n      add\n        /* \"#utility.yul\":1383:1395   */\n      dup3\n        /* \"#utility.yul\":1349:1412   */\n      tag_197\n      jump\t// in\n    tag_254:\n        /* \"#utility.yul\":1256:1422   */\n      pop\n        /* \"#utility.yul\":1510:1514   */\n      0x20\n        /* \"#utility.yul\":1503:1508   */\n      dup3\n        /* \"#utility.yul\":1499:1515   */\n      add\n        /* \"#utility.yul\":1493:1516   */\n      mload\n        /* \"#utility.yul\":1529:1592   */\n      tag_255\n        /* \"#utility.yul\":1586:1590   */\n      0x20\n        /* \"#utility.yul\":1581:1584   */\n      dup6\n        /* \"#utility.yul\":1577:1591   */\n      add\n        /* \"#utility.yul\":1563:1575   */\n      dup3\n        /* \"#utility.yul\":1529:1592   */\n      tag_199\n      jump\t// in\n    tag_255:\n        /* \"#utility.yul\":1432:1602   */\n      pop\n        /* \"#utility.yul\":1210:1609   */\n      pop\n        /* \"#utility.yul\":1118:1609   */\n      pop\n      pop\n      jump\t// out\n        /* \"#utility.yul\":1615:1866   */\n    tag_201:\n        /* \"#utility.yul\":1720:1730   */\n      0x00\n        /* \"#utility.yul\":1741:1823   */\n      tag_257\n        /* \"#utility.yul\":1819:1822   */\n      dup4\n        /* \"#utility.yul\":1811:1817   */\n      dup4\n        /* \"#utility.yul\":1741:1823   */\n      tag_200\n      jump\t// in\n    tag_257:\n        /* \"#utility.yul\":1855:1859   */\n      0x40\n        /* \"#utility.yul\":1850:1853   */\n      dup4\n        /* \"#utility.yul\":1846:1860   */\n      add\n        /* \"#utility.yul\":1832:1860   */\n      swap1\n      pop\n        /* \"#utility.yul\":1615:1866   */\n      swap3\n      swap2\n      pop\n      pop\n      jump\t// out\n        /* \"#utility.yul\":1872:2003   */\n    tag_202:\n        /* \"#utility.yul\":1960:1964   */\n      0x00\n        /* \"#utility.yul\":1992:1996   */\n      0x20\n        /* \"#utility.yul\":1987:1990   */\n      dup3\n        /* \"#utility.yul\":1983:1997   */\n      add\n        /* \"#utility.yul\":1975:1997   */\n      swap1\n      pop\n        /* \"#utility.yul\":1872:2003   */\n      swap2\n      swap1\n      pop\n      jump\t// out\n        /* \"#utility.yul\":2077:2953   */\n    tag_203:\n        /* \"#utility.yul\":2232:2235   */\n      0x00\n        /* \"#utility.yul\":2261:2333   */\n      tag_260\n        /* \"#utility.yul\":2327:2332   */\n      dup3\n        /* \"#utility.yul\":2261:2333   */\n      tag_192\n      jump\t// in\n    tag_260:\n        /* \"#utility.yul\":2349:2453   */\n      tag_261\n        /* \"#utility.yul\":2446:2452   */\n      dup2\n        /* \"#utility.yul\":2441:2444   */\n      dup6\n        /* \"#utility.yul\":2349:2453   */\n      tag_193\n      jump\t// in\n    tag_261:\n        /* \"#utility.yul\":2342:2453   */\n      swap4\n      pop\n        /* \"#utility.yul\":2477:2551   */\n      tag_262\n        /* \"#utility.yul\":2545:2550   */\n      dup4\n        /* \"#utility.yul\":2477:2551   */\n      tag_194\n      jump\t// in\n    tag_262:\n        /* \"#utility.yul\":2574:2581   */\n      dup1\n        /* \"#utility.yul\":2605:2606   */\n      0x00\n        /* \"#utility.yul\":2590:2928   */\n    tag_263:\n        /* \"#utility.yul\":2615:2621   */\n      dup4\n        /* \"#utility.yul\":2612:2613   */\n      dup2\n        /* \"#utility.yul\":2609:2622   */\n      lt\n        /* \"#utility.yul\":2590:2928   */\n      iszero\n      tag_265\n      jumpi\n        /* \"#utility.yul\":2691:2697   */\n      dup2\n        /* \"#utility.yul\":2685:2698   */\n      mload\n        /* \"#utility.yul\":2718:2817   */\n      tag_266\n        /* \"#utility.yul\":2813:2816   */\n      dup9\n        /* \"#utility.yul\":2798:2811   */\n      dup3\n        /* \"#utility.yul\":2718:2817   */\n      tag_201\n      jump\t// in\n    tag_266:\n        /* \"#utility.yul\":2711:2817   */\n      swap8\n      pop\n        /* \"#utility.yul\":2840:2918   */\n      tag_267\n        /* \"#utility.yul\":2911:2917   */\n      dup4\n        /* \"#utility.yul\":2840:2918   */\n      tag_202\n      jump\t// in\n    tag_267:\n        /* \"#utility.yul\":2830:2918   */\n      swap3\n      pop\n        /* \"#utility.yul\":2650:2928   */\n      pop\n        /* \"#utility.yul\":2637:2638   */\n      0x01\n        /* \"#utility.yul\":2634:2635   */\n      dup2\n        /* \"#utility.yul\":2630:2639   */\n      add\n        /* \"#utility.yul\":2625:2639   */\n      swap1\n      pop\n        /* \"#utility.yul\":2590:2928   */\n      jump(tag_263)\n    tag_265:\n        /* \"#utility.yul\":2594:2608   */\n      pop\n        /* \"#utility.yul\":2944:2947   */\n      dup6\n        /* \"#utility.yul\":2937:2947   */\n      swap4\n      pop\n        /* \"#utility.yul\":2237:2953   */\n      pop\n      pop\n      pop\n        /* \"#utility.yul\":2077:2953   */\n      swap3\n      swap2\n      pop\n      pop\n      jump\t// out\n        /* \"#utility.yul\":2959:3404   */\n    tag_21:\n        /* \"#utility.yul\":3138:3142   */\n      0x00\n        /* \"#utility.yul\":3176:3178   */\n      0x20\n        /* \"#utility.yul\":3165:3174   */\n      dup3\n        /* \"#utility.yul\":3161:3179   */\n      add\n        /* \"#utility.yul\":3153:3179   */\n      swap1\n      pop\n        /* \"#utility.yul\":3225:3234   */\n      dup2\n        /* \"#utility.yul\":3219:3223   */\n      dup2\n        /* \"#utility.yul\":3215:3235   */\n      sub\n        /* \"#utility.yul\":3211:3212   */\n      0x00\n        /* \"#utility.yul\":3200:3209   */\n      dup4\n        /* \"#utility.yul\":3196:3213   */\n      add\n        /* \"#utility.yul\":3189:3236   */\n      mstore\n        /* \"#utility.yul\":3253:3397   */\n      tag_269\n        /* \"#utility.yul\":3392:3396   */\n      dup2\n        /* \"#utility.yul\":3383:3389   */\n      dup5\n        /* \"#utility.yul\":3253:3397   */\n      tag_203\n      jump\t// in\n    tag_269:\n        /* \"#utility.yul\":3245:3397   */\n      swap1\n      pop\n        /* \"#utility.yul\":2959:3404   */\n      swap3\n      swap2\n      pop\n      pop\n      jump\t// out\n        /* \"#utility.yul\":3410:3528   */\n    tag_204:\n        /* \"#utility.yul\":3497:3521   */\n      tag_271\n        /* \"#utility.yul\":3515:3520   */\n      dup2\n        /* \"#utility.yul\":3497:3521   */\n      tag_198\n      jump\t// in\n    tag_271:\n        /* \"#utility.yul\":3492:3495   */\n      dup3\n        /* \"#utility.yul\":3485:3522   */\n      mstore\n        /* \"#utility.yul\":3410:3528   */\n      pop\n      pop\n      jump\t// out\n        /* \"#utility.yul\":3534:3756   */\n    tag_28:\n        /* \"#utility.yul\":3627:3631   */\n      0x00\n        /* \"#utility.yul\":3665:3667   */\n      0x20\n        /* \"#utility.yul\":3654:3663   */\n      dup3\n        /* \"#utility.yul\":3650:3668   */\n      add\n        /* \"#utility.yul\":3642:3668   */\n      swap1\n      pop\n        /* \"#utility.yul\":3678:3749   */\n      tag_273\n        /* \"#utility.yul\":3746:3747   */\n      0x00\n        /* \"#utility.yul\":3735:3744   */\n      dup4\n        /* \"#utility.yul\":3731:3748   */\n      add\n        /* \"#utility.yul\":3722:3728   */\n      dup5\n        /* \"#utility.yul\":3678:3749   */\n      tag_204\n      jump\t// in\n    tag_273:\n        /* \"#utility.yul\":3534:3756   */\n      swap3\n      swap2\n      pop\n      pop\n      jump\t// out\n        /* \"#utility.yul\":3762:3848   */\n    tag_205:\n        /* \"#utility.yul\":3797:3804   */\n      0x00\n        /* \"#utility.yul\":3837:3841   */\n      0xff\n        /* \"#utility.yul\":3830:3835   */\n      dup3\n        /* \"#utility.yul\":3826:3842   */\n      and\n        /* \"#utility.yul\":3815:3842   */\n      swap1\n      pop\n        /* \"#utility.yul\":3762:3848   */\n      swap2\n      swap1\n      pop\n      jump\t// out\n        /* \"#utility.yul\":3854:3966   */\n    tag_206:\n        /* \"#utility.yul\":3937:3959   */\n      tag_276\n        /* \"#utility.yul\":3953:3958   */\n      dup2\n        /* \"#utility.yul\":3937:3959   */\n      tag_205\n      jump\t// in\n    tag_276:\n        /* \"#utility.yul\":3932:3935   */\n      dup3\n        /* \"#utility.yul\":3925:3960   */\n      mstore\n        /* \"#utility.yul\":3854:3966   */\n      pop\n      pop\n      jump\t// out\n        /* \"#utility.yul\":3972:4186   */\n    tag_33:\n        /* \"#utility.yul\":4061:4065   */\n      0x00\n        /* \"#utility.yul\":4099:4101   */\n      0x20\n        /* \"#utility.yul\":4088:4097   */\n      dup3\n        /* \"#utility.yul\":4084:4102   */\n      add\n        /* \"#utility.yul\":4076:4102   */\n      swap1\n      pop\n        /* \"#utility.yul\":4112:4179   */\n      tag_278\n        /* \"#utility.yul\":4176:4177   */\n      0x00\n        /* \"#utility.yul\":4165:4174   */\n      dup4\n        /* \"#utility.yul\":4161:4178   */\n      add\n        /* \"#utility.yul\":4152:4158   */\n      dup5\n        /* \"#utility.yul\":4112:4179   */\n      tag_206\n      jump\t// in\n    tag_278:\n        /* \"#utility.yul\":3972:4186   */\n      swap3\n      swap2\n      pop\n      pop\n      jump\t// out\n        /* \"#utility.yul\":4192:4310   */\n    tag_207:\n        /* \"#utility.yul\":4279:4303   */\n      tag_280\n        /* \"#utility.yul\":4297:4302   */\n      dup2\n        /* \"#utility.yul\":4279:4303   */\n      tag_196\n      jump\t// in\n    tag_280:\n        /* \"#utility.yul\":4274:4277   */\n      dup3\n        /* \"#utility.yul\":4267:4304   */\n      mstore\n        /* \"#utility.yul\":4192:4310   */\n      pop\n      pop\n      jump\t// out\n        /* \"#utility.yul\":4316:4538   */\n    tag_38:\n        /* \"#utility.yul\":4409:4413   */\n      0x00\n        /* \"#utility.yul\":4447:4449   */\n      0x20\n        /* \"#utility.yul\":4436:4445   */\n      dup3\n        /* \"#utility.yul\":4432:4450   */\n      add\n        /* \"#utility.yul\":4424:4450   */\n      swap1\n      pop\n        /* \"#utility.yul\":4460:4531   */\n      tag_282\n        /* \"#utility.yul\":4528:4529   */\n      0x00\n        /* \"#utility.yul\":4517:4526   */\n      dup4\n        /* \"#utility.yul\":4513:4530   */\n      add\n        /* \"#utility.yul\":4504:4510   */\n      dup5\n        /* \"#utility.yul\":4460:4531   */\n      tag_207\n      jump\t// in\n    tag_282:\n        /* \"#utility.yul\":4316:4538   */\n      swap3\n      swap2\n      pop\n      pop\n      jump\t// out\n        /* \"#utility.yul\":4544:4634   */\n    tag_208:\n        /* \"#utility.yul\":4578:4585   */\n      0x00\n        /* \"#utility.yul\":4621:4626   */\n      dup2\n        /* \"#utility.yul\":4614:4627   */\n      iszero\n        /* \"#utility.yul\":4607:4628   */\n      iszero\n        /* \"#utility.yul\":4596:4628   */\n      swap1\n      pop\n        /* \"#utility.yul\":4544:4634   */\n      swap2\n      swap1\n      pop\n      jump\t// out\n        /* \"#utility.yul\":4640:4749   */\n    tag_209:\n        /* \"#utility.yul\":4721:4742   */\n      tag_285\n        /* \"#utility.yul\":4736:4741   */\n      dup2\n        /* \"#utility.yul\":4721:4742   */\n      tag_208\n      jump\t// in\n    tag_285:\n        /* \"#utility.yul\":4716:4719   */\n      dup3\n        /* \"#utility.yul\":4709:4743   */\n      mstore\n        /* \"#utility.yul\":4640:4749   */\n      pop\n      pop\n      jump\t// out\n        /* \"#utility.yul\":4755:4965   */\n    tag_50:\n        /* \"#utility.yul\":4842:4846   */\n      0x00\n        /* \"#utility.yul\":4880:4882   */\n      0x20\n        /* \"#utility.yul\":4869:4878   */\n      dup3\n        /* \"#utility.yul\":4865:4883   */\n      add\n        /* \"#utility.yul\":4857:4883   */\n      swap1\n      pop\n        /* \"#utility.yul\":4893:4958   */\n      tag_287\n        /* \"#utility.yul\":4955:4956   */\n      0x00\n        /* \"#utility.yul\":4944:4953   */\n      dup4\n        /* \"#utility.yul\":4940:4957   */\n      add\n        /* \"#utility.yul\":4931:4937   */\n      dup5\n        /* \"#utility.yul\":4893:4958   */\n      tag_209\n      jump\t// in\n    tag_287:\n        /* \"#utility.yul\":4755:4965   */\n      swap3\n      swap2\n      pop\n      pop\n      jump\t// out\n        /* \"#utility.yul\":4971:5064   */\n    tag_210:\n        /* \"#utility.yul\":5007:5014   */\n      0x00\n        /* \"#utility.yul\":5047:5057   */\n      0xffffffff\n        /* \"#utility.yul\":5040:5045   */\n      dup3\n        /* \"#utility.yul\":5036:5058   */\n      and\n        /* \"#utility.yul\":5025:5058   */\n      swap1\n      pop\n        /* \"#utility.yul\":4971:5064   */\n      swap2\n      swap1\n      pop\n      jump\t// out\n        /* \"#utility.yul\":5070:5185   */\n    tag_211:\n        /* \"#utility.yul\":5155:5178   */\n      tag_290\n        /* \"#utility.yul\":5172:5177   */\n      dup2\n        /* \"#utility.yul\":5155:5178   */\n      tag_210\n      jump\t// in\n    tag_290:\n        /* \"#utility.yul\":5150:5153   */\n      dup3\n        /* \"#utility.yul\":5143:5179   */\n      mstore\n        /* \"#utility.yul\":5070:5185   */\n      pop\n      pop\n      jump\t// out\n        /* \"#utility.yul\":5191:5409   */\n    tag_55:\n        /* \"#utility.yul\":5282:5286   */\n      0x00\n        /* \"#utility.yul\":5320:5322   */\n      0x20\n        /* \"#utility.yul\":5309:5318   */\n      dup3\n        /* \"#utility.yul\":5305:5323   */\n      add\n        /* \"#utility.yul\":5297:5323   */\n      swap1\n      pop\n        /* \"#utility.yul\":5333:5402   */\n      tag_292\n        /* \"#utility.yul\":5399:5400   */\n      0x00\n        /* \"#utility.yul\":5388:5397   */\n      dup4\n        /* \"#utility.yul\":5384:5401   */\n      add\n        /* \"#utility.yul\":5375:5381   */\n      dup5\n        /* \"#utility.yul\":5333:5402   */\n      tag_211\n      jump\t// in\n    tag_292:\n        /* \"#utility.yul\":5191:5409   */\n      swap3\n      swap2\n      pop\n      pop\n      jump\t// out\n        /* \"#utility.yul\":5496:5613   */\n    tag_213:\n        /* \"#utility.yul\":5605:5606   */\n      0x00\n        /* \"#utility.yul\":5602:5603   */\n      dup1\n        /* \"#utility.yul\":5595:5607   */\n      revert\n        /* \"#utility.yul\":5742:5864   */\n    tag_215:\n        /* \"#utility.yul\":5815:5839   */\n      tag_297\n        /* \"#utility.yul\":5833:5838   */\n      dup2\n        /* \"#utility.yul\":5815:5839   */\n      tag_198\n      jump\t// in\n    tag_297:\n        /* \"#utility.yul\":5808:5813   */\n      dup2\n        /* \"#utility.yul\":5805:5840   */\n      eq\n        /* \"#utility.yul\":5795:5858   */\n      tag_298\n      jumpi\n        /* \"#utility.yul\":5854:5855   */\n      0x00\n        /* \"#utility.yul\":5851:5852   */\n      dup1\n        /* \"#utility.yul\":5844:5856   */\n      revert\n        /* \"#utility.yul\":5795:5858   */\n    tag_298:\n        /* \"#utility.yul\":5742:5864   */\n      pop\n      jump\t// out\n        /* \"#utility.yul\":5870:6009   */\n    tag_216:\n        /* \"#utility.yul\":5916:5921   */\n      0x00\n        /* \"#utility.yul\":5954:5960   */\n      dup2\n        /* \"#utility.yul\":5941:5961   */\n      calldataload\n        /* \"#utility.yul\":5932:5961   */\n      swap1\n      pop\n        /* \"#utility.yul\":5970:6003   */\n      tag_300\n        /* \"#utility.yul\":5997:6002   */\n      dup2\n        /* \"#utility.yul\":5970:6003   */\n      tag_215\n      jump\t// in\n    tag_300:\n        /* \"#utility.yul\":5870:6009   */\n      swap3\n      swap2\n      pop\n      pop\n      jump\t// out\n        /* \"#utility.yul\":6015:6344   */\n    tag_59:\n        /* \"#utility.yul\":6074:6080   */\n      0x00\n        /* \"#utility.yul\":6123:6125   */\n      0x20\n        /* \"#utility.yul\":6111:6120   */\n      dup3\n        /* \"#utility.yul\":6102:6109   */\n      dup5\n        /* \"#utility.yul\":6098:6121   */\n      sub\n        /* \"#utility.yul\":6094:6126   */\n      slt\n        /* \"#utility.yul\":6091:6210   */\n      iszero\n      tag_302\n      jumpi\n        /* \"#utility.yul\":6129:6208   */\n      tag_303\n      tag_213\n      jump\t// in\n    tag_303:\n        /* \"#utility.yul\":6091:6210   */\n    tag_302:\n        /* \"#utility.yul\":6249:6250   */\n      0x00\n        /* \"#utility.yul\":6274:6327   */\n      tag_304\n        /* \"#utility.yul\":6319:6326   */\n      dup5\n        /* \"#utility.yul\":6310:6316   */\n      dup3\n        /* \"#utility.yul\":6299:6308   */\n      dup6\n        /* \"#utility.yul\":6295:6317   */\n      add\n        /* \"#utility.yul\":6274:6327   */\n      tag_216\n      jump\t// in\n    tag_304:\n        /* \"#utility.yul\":6264:6327   */\n      swap2\n      pop\n        /* \"#utility.yul\":6220:6337   */\n      pop\n        /* \"#utility.yul\":6015:6344   */\n      swap3\n      swap2\n      pop\n      pop\n      jump\t// out\n        /* \"#utility.yul\":6350:6682   */\n    tag_62:\n        /* \"#utility.yul\":6471:6475   */\n      0x00\n        /* \"#utility.yul\":6509:6511   */\n      0x40\n        /* \"#utility.yul\":6498:6507   */\n      dup3\n        /* \"#utility.yul\":6494:6512   */\n      add\n        /* \"#utility.yul\":6486:6512   */\n      swap1\n      pop\n        /* \"#utility.yul\":6522:6593   */\n      tag_306\n        /* \"#utility.yul\":6590:6591   */\n      0x00\n        /* \"#utility.yul\":6579:6588   */\n      dup4\n        /* \"#utility.yul\":6575:6592   */\n      add\n        /* \"#utility.yul\":6566:6572   */\n      dup6\n        /* \"#utility.yul\":6522:6593   */\n      tag_207\n      jump\t// in\n    tag_306:\n        /* \"#utility.yul\":6603:6675   */\n      tag_307\n        /* \"#utility.yul\":6671:6673   */\n      0x20\n        /* \"#utility.yul\":6660:6669   */\n      dup4\n        /* \"#utility.yul\":6656:6674   */\n      add\n        /* \"#utility.yul\":6647:6653   */\n      dup5\n        /* \"#utility.yul\":6603:6675   */\n      tag_204\n      jump\t// in\n    tag_307:\n        /* \"#utility.yul\":6350:6682   */\n      swap4\n      swap3\n      pop\n      pop\n      pop\n      jump\t// out\n        /* \"#utility.yul\":6688:6857   */\n    tag_217:\n        /* \"#utility.yul\":6772:6783   */\n      0x00\n        /* \"#utility.yul\":6806:6812   */\n      dup3\n        /* \"#utility.yul\":6801:6804   */\n      dup3\n        /* \"#utility.yul\":6794:6813   */\n      mstore\n        /* \"#utility.yul\":6846:6850   */\n      0x20\n        /* \"#utility.yul\":6841:6844   */\n      dup3\n        /* \"#utility.yul\":6837:6851   */\n      add\n        /* \"#utility.yul\":6822:6851   */\n      swap1\n      pop\n        /* \"#utility.yul\":6688:6857   */\n      swap3\n      swap2\n      pop\n      pop\n      jump\t// out\n        /* \"#utility.yul\":6863:7038   */\n    tag_218:\n        /* \"#utility.yul\":7003:7030   */\n      0x5468652061756374696f6e206973206e6f742061637469766500000000000000\n        /* \"#utility.yul\":6999:7000   */\n      0x00\n        /* \"#utility.yul\":6991:6997   */\n      dup3\n        /* \"#utility.yul\":6987:7001   */\n      add\n        /* \"#utility.yul\":6980:7031   */\n      mstore\n        /* \"#utility.yul\":6863:7038   */\n      pop\n      jump\t// out\n        /* \"#utility.yul\":7044:7410   */\n    tag_219:\n        /* \"#utility.yul\":7186:7189   */\n      0x00\n        /* \"#utility.yul\":7207:7274   */\n      tag_311\n        /* \"#utility.yul\":7271:7273   */\n      0x19\n        /* \"#utility.yul\":7266:7269   */\n      dup4\n        /* \"#utility.yul\":7207:7274   */\n      tag_217\n      jump\t// in\n    tag_311:\n        /* \"#utility.yul\":7200:7274   */\n      swap2\n      pop\n        /* \"#utility.yul\":7283:7376   */\n      tag_312\n        /* \"#utility.yul\":7372:7375   */\n      dup3\n        /* \"#utility.yul\":7283:7376   */\n      tag_218\n      jump\t// in\n    tag_312:\n        /* \"#utility.yul\":7401:7403   */\n      0x20\n        /* \"#utility.yul\":7396:7399   */\n      dup3\n        /* \"#utility.yul\":7392:7404   */\n      add\n        /* \"#utility.yul\":7385:7404   */\n      swap1\n      pop\n        /* \"#utility.yul\":7044:7410   */\n      swap2\n      swap1\n      pop\n      jump\t// out\n        /* \"#utility.yul\":7416:7835   */\n    tag_80:\n        /* \"#utility.yul\":7582:7586   */\n      0x00\n        /* \"#utility.yul\":7620:7622   */\n      0x20\n        /* \"#utility.yul\":7609:7618   */\n      dup3\n        /* \"#utility.yul\":7605:7623   */\n      add\n        /* \"#utility.yul\":7597:7623   */\n      swap1\n      pop\n        /* \"#utility.yul\":7669:7678   */\n      dup2\n        /* \"#utility.yul\":7663:7667   */\n      dup2\n        /* \"#utility.yul\":7659:7679   */\n      sub\n        /* \"#utility.yul\":7655:7656   */\n      0x00\n        /* \"#utility.yul\":7644:7653   */\n      dup4\n        /* \"#utility.yul\":7640:7657   */\n      add\n        /* \"#utility.yul\":7633:7680   */\n      mstore\n        /* \"#utility.yul\":7697:7828   */\n      tag_314\n        /* \"#utility.yul\":7823:7827   */\n      dup2\n        /* \"#utility.yul\":7697:7828   */\n      tag_219\n      jump\t// in\n    tag_314:\n        /* \"#utility.yul\":7689:7828   */\n      swap1\n      pop\n        /* \"#utility.yul\":7416:7835   */\n      swap2\n      swap1\n      pop\n      jump\t// out\n        /* \"#utility.yul\":7841:8021   */\n    tag_220:\n        /* \"#utility.yul\":7889:7966   */\n      0x4e487b7100000000000000000000000000000000000000000000000000000000\n        /* \"#utility.yul\":7886:7887   */\n      0x00\n        /* \"#utility.yul\":7879:7967   */\n      mstore\n        /* \"#utility.yul\":7986:7990   */\n      0x12\n        /* \"#utility.yul\":7983:7984   */\n      0x04\n        /* \"#utility.yul\":7976:7991   */\n      mstore\n        /* \"#utility.yul\":8010:8014   */\n      0x24\n        /* \"#utility.yul\":8007:8008   */\n      0x00\n        /* \"#utility.yul\":8000:8015   */\n      revert\n        /* \"#utility.yul\":8027:8207   */\n    tag_221:\n        /* \"#utility.yul\":8075:8152   */\n      0x4e487b7100000000000000000000000000000000000000000000000000000000\n        /* \"#utility.yul\":8072:8073   */\n      0x00\n        /* \"#utility.yul\":8065:8153   */\n      mstore\n        /* \"#utility.yul\":8172:8176   */\n      0x11\n        /* \"#utility.yul\":8169:8170   */\n      0x04\n        /* \"#utility.yul\":8162:8177   */\n      mstore\n        /* \"#utility.yul\":8196:8200   */\n      0x24\n        /* \"#utility.yul\":8193:8194   */\n      0x00\n        /* \"#utility.yul\":8186:8201   */\n      revert\n        /* \"#utility.yul\":8213:8398   */\n    tag_83:\n        /* \"#utility.yul\":8253:8254   */\n      0x00\n        /* \"#utility.yul\":8270:8290   */\n      tag_318\n        /* \"#utility.yul\":8288:8289   */\n      dup3\n        /* \"#utility.yul\":8270:8290   */\n      tag_198\n      jump\t// in\n    tag_318:\n        /* \"#utility.yul\":8265:8290   */\n      swap2\n      pop\n        /* \"#utility.yul\":8304:8324   */\n      tag_319\n        /* \"#utility.yul\":8322:8323   */\n      dup4\n        /* \"#utility.yul\":8304:8324   */\n      tag_198\n      jump\t// in\n    tag_319:\n        /* \"#utility.yul\":8299:8324   */\n      swap3\n      pop\n        /* \"#utility.yul\":8343:8344   */\n      dup3\n        /* \"#utility.yul\":8333:8368   */\n      tag_320\n      jumpi\n        /* \"#utility.yul\":8348:8366   */\n      tag_321\n      tag_220\n      jump\t// in\n    tag_321:\n        /* \"#utility.yul\":8333:8368   */\n    tag_320:\n        /* \"#utility.yul\":8390:8391   */\n      dup3\n        /* \"#utility.yul\":8387:8388   */\n      dup3\n        /* \"#utility.yul\":8383:8392   */\n      div\n        /* \"#utility.yul\":8378:8392   */\n      swap1\n      pop\n        /* \"#utility.yul\":8213:8398   */\n      swap3\n      swap2\n      pop\n      pop\n      jump\t// out\n        /* \"#utility.yul\":8404:8814   */\n    tag_86:\n        /* \"#utility.yul\":8444:8451   */\n      0x00\n        /* \"#utility.yul\":8467:8487   */\n      tag_323\n        /* \"#utility.yul\":8485:8486   */\n      dup3\n        /* \"#utility.yul\":8467:8487   */\n      tag_198\n      jump\t// in\n    tag_323:\n        /* \"#utility.yul\":8462:8487   */\n      swap2\n      pop\n        /* \"#utility.yul\":8501:8521   */\n      tag_324\n        /* \"#utility.yul\":8519:8520   */\n      dup4\n        /* \"#utility.yul\":8501:8521   */\n      tag_198\n      jump\t// in\n    tag_324:\n        /* \"#utility.yul\":8496:8521   */\n      swap3\n      pop\n        /* \"#utility.yul\":8556:8557   */\n      dup3\n        /* \"#utility.yul\":8553:8554   */\n      dup3\n        /* \"#utility.yul\":8549:8558   */\n      mul\n        /* \"#utility.yul\":8578:8608   */\n      tag_325\n        /* \"#utility.yul\":8596:8607   */\n      dup2\n        /* \"#utility.yul\":8578:8608   */\n      tag_198\n      jump\t// in\n    tag_325:\n        /* \"#utility.yul\":8567:8608   */\n      swap2\n      pop\n        /* \"#utility.yul\":8757:8758   */\n      dup3\n        /* \"#utility.yul\":8748:8755   */\n      dup3\n        /* \"#utility.yul\":8744:8759   */\n      div\n        /* \"#utility.yul\":8741:8742   */\n      dup5\n        /* \"#utility.yul\":8738:8760   */\n      eq\n        /* \"#utility.yul\":8718:8719   */\n      dup4\n        /* \"#utility.yul\":8711:8720   */\n      iszero\n        /* \"#utility.yul\":8691:8774   */\n      or\n        /* \"#utility.yul\":8668:8807   */\n      tag_326\n      jumpi\n        /* \"#utility.yul\":8787:8805   */\n      tag_327\n      tag_221\n      jump\t// in\n    tag_327:\n        /* \"#utility.yul\":8668:8807   */\n    tag_326:\n        /* \"#utility.yul\":8452:8814   */\n      pop\n        /* \"#utility.yul\":8404:8814   */\n      swap3\n      swap2\n      pop\n      pop\n      jump\t// out\n        /* \"#utility.yul\":8820:9062   */\n    tag_222:\n        /* \"#utility.yul\":8960:8994   */\n      0x54686520626964206d757374206265206174206c656173742035252068696768\n        /* \"#utility.yul\":8956:8957   */\n      0x00\n        /* \"#utility.yul\":8948:8954   */\n      dup3\n        /* \"#utility.yul\":8944:8958   */\n      add\n        /* \"#utility.yul\":8937:8995   */\n      mstore\n        /* \"#utility.yul\":9029:9054   */\n      0x6572207468616e207468652063757272656e7420626964000000000000000000\n        /* \"#utility.yul\":9024:9026   */\n      0x20\n        /* \"#utility.yul\":9016:9022   */\n      dup3\n        /* \"#utility.yul\":9012:9027   */\n      add\n        /* \"#utility.yul\":9005:9055   */\n      mstore\n        /* \"#utility.yul\":8820:9062   */\n      pop\n      jump\t// out\n        /* \"#utility.yul\":9068:9434   */\n    tag_223:\n        /* \"#utility.yul\":9210:9213   */\n      0x00\n        /* \"#utility.yul\":9231:9298   */\n      tag_330\n        /* \"#utility.yul\":9295:9297   */\n      0x37\n        /* \"#utility.yul\":9290:9293   */\n      dup4\n        /* \"#utility.yul\":9231:9298   */\n      tag_217\n      jump\t// in\n    tag_330:\n        /* \"#utility.yul\":9224:9298   */\n      swap2\n      pop\n        /* \"#utility.yul\":9307:9400   */\n      tag_331\n        /* \"#utility.yul\":9396:9399   */\n      dup3\n        /* \"#utility.yul\":9307:9400   */\n      tag_222\n      jump\t// in\n    tag_331:\n        /* \"#utility.yul\":9425:9427   */\n      0x40\n        /* \"#utility.yul\":9420:9423   */\n      dup3\n        /* \"#utility.yul\":9416:9428   */\n      add\n        /* \"#utility.yul\":9409:9428   */\n      swap1\n      pop\n        /* \"#utility.yul\":9068:9434   */\n      swap2\n      swap1\n      pop\n      jump\t// out\n        /* \"#utility.yul\":9440:9859   */\n    tag_90:\n        /* \"#utility.yul\":9606:9610   */\n      0x00\n        /* \"#utility.yul\":9644:9646   */\n      0x20\n        /* \"#utility.yul\":9633:9642   */\n      dup3\n        /* \"#utility.yul\":9629:9647   */\n      add\n        /* \"#utility.yul\":9621:9647   */\n      swap1\n      pop\n        /* \"#utility.yul\":9693:9702   */\n      dup2\n        /* \"#utility.yul\":9687:9691   */\n      dup2\n        /* \"#utility.yul\":9683:9703   */\n      sub\n        /* \"#utility.yul\":9679:9680   */\n      0x00\n        /* \"#utility.yul\":9668:9677   */\n      dup4\n        /* \"#utility.yul\":9664:9681   */\n      add\n        /* \"#utility.yul\":9657:9704   */\n      mstore\n        /* \"#utility.yul\":9721:9852   */\n      tag_333\n        /* \"#utility.yul\":9847:9851   */\n      dup2\n        /* \"#utility.yul\":9721:9852   */\n      tag_223\n      jump\t// in\n    tag_333:\n        /* \"#utility.yul\":9713:9852   */\n      swap1\n      pop\n        /* \"#utility.yul\":9440:9859   */\n      swap2\n      swap1\n      pop\n      jump\t// out\n        /* \"#utility.yul\":9865:10036   */\n    tag_224:\n        /* \"#utility.yul\":10005:10028   */\n      0x5468652061756374696f6e2068617320656e6465640000000000000000000000\n        /* \"#utility.yul\":10001:10002   */\n      0x00\n        /* \"#utility.yul\":9993:9999   */\n      dup3\n        /* \"#utility.yul\":9989:10003   */\n      add\n        /* \"#utility.yul\":9982:10029   */\n      mstore\n        /* \"#utility.yul\":9865:10036   */\n      pop\n      jump\t// out\n        /* \"#utility.yul\":10042:10408   */\n    tag_225:\n        /* \"#utility.yul\":10184:10187   */\n      0x00\n        /* \"#utility.yul\":10205:10272   */\n      tag_336\n        /* \"#utility.yul\":10269:10271   */\n      0x15\n        /* \"#utility.yul\":10264:10267   */\n      dup4\n        /* \"#utility.yul\":10205:10272   */\n      tag_217\n      jump\t// in\n    tag_336:\n        /* \"#utility.yul\":10198:10272   */\n      swap2\n      pop\n        /* \"#utility.yul\":10281:10374   */\n      tag_337\n        /* \"#utility.yul\":10370:10373   */\n      dup3\n        /* \"#utility.yul\":10281:10374   */\n      tag_224\n      jump\t// in\n    tag_337:\n        /* \"#utility.yul\":10399:10401   */\n      0x20\n        /* \"#utility.yul\":10394:10397   */\n      dup3\n        /* \"#utility.yul\":10390:10402   */\n      add\n        /* \"#utility.yul\":10383:10402   */\n      swap1\n      pop\n        /* \"#utility.yul\":10042:10408   */\n      swap2\n      swap1\n      pop\n      jump\t// out\n        /* \"#utility.yul\":10414:10833   */\n    tag_93:\n        /* \"#utility.yul\":10580:10584   */\n      0x00\n        /* \"#utility.yul\":10618:10620   */\n      0x20\n        /* \"#utility.yul\":10607:10616   */\n      dup3\n        /* \"#utility.yul\":10603:10621   */\n      add\n        /* \"#utility.yul\":10595:10621   */\n      swap1\n      pop\n        /* \"#utility.yul\":10667:10676   */\n      dup2\n        /* \"#utility.yul\":10661:10665   */\n      dup2\n        /* \"#utility.yul\":10657:10677   */\n      sub\n        /* \"#utility.yul\":10653:10654   */\n      0x00\n        /* \"#utility.yul\":10642:10651   */\n      dup4\n        /* \"#utility.yul\":10638:10655   */\n      add\n        /* \"#utility.yul\":10631:10678   */\n      mstore\n        /* \"#utility.yul\":10695:10826   */\n      tag_339\n        /* \"#utility.yul\":10821:10825   */\n      dup2\n        /* \"#utility.yul\":10695:10826   */\n      tag_225\n      jump\t// in\n    tag_339:\n        /* \"#utility.yul\":10687:10826   */\n      swap1\n      pop\n        /* \"#utility.yul\":10414:10833   */\n      swap2\n      swap1\n      pop\n      jump\t// out\n        /* \"#utility.yul\":10839:11030   */\n    tag_95:\n        /* \"#utility.yul\":10879:10882   */\n      0x00\n        /* \"#utility.yul\":10898:10918   */\n      tag_341\n        /* \"#utility.yul\":10916:10917   */\n      dup3\n        /* \"#utility.yul\":10898:10918   */\n      tag_198\n      jump\t// in\n    tag_341:\n        /* \"#utility.yul\":10893:10918   */\n      swap2\n      pop\n        /* \"#utility.yul\":10932:10952   */\n      tag_342\n        /* \"#utility.yul\":10950:10951   */\n      dup4\n        /* \"#utility.yul\":10932:10952   */\n      tag_198\n      jump\t// in\n    tag_342:\n        /* \"#utility.yul\":10927:10952   */\n      swap3\n      pop\n        /* \"#utility.yul\":10975:10976   */\n      dup3\n        /* \"#utility.yul\":10972:10973   */\n      dup3\n        /* \"#utility.yul\":10968:10977   */\n      add\n        /* \"#utility.yul\":10961:10977   */\n      swap1\n      pop\n        /* \"#utility.yul\":10996:10999   */\n      dup1\n        /* \"#utility.yul\":10993:10994   */\n      dup3\n        /* \"#utility.yul\":10990:11000   */\n      gt\n        /* \"#utility.yul\":10987:11023   */\n      iszero\n      tag_343\n      jumpi\n        /* \"#utility.yul\":11003:11021   */\n      tag_344\n      tag_221\n      jump\t// in\n    tag_344:\n        /* \"#utility.yul\":10987:11023   */\n    tag_343:\n        /* \"#utility.yul\":10839:11030   */\n      swap3\n      swap2\n      pop\n      pop\n      jump\t// out\n        /* \"#utility.yul\":11036:11268   */\n    tag_226:\n        /* \"#utility.yul\":11176:11210   */\n      0x4f6e6c79207468652061756374696f6e6565722063616e206578656375746520\n        /* \"#utility.yul\":11172:11173   */\n      0x00\n        /* \"#utility.yul\":11164:11170   */\n      dup3\n        /* \"#utility.yul\":11160:11174   */\n      add\n        /* \"#utility.yul\":11153:11211   */\n      mstore\n        /* \"#utility.yul\":11245:11260   */\n      0x746869732066756e6374696f6e00000000000000000000000000000000000000\n        /* \"#utility.yul\":11240:11242   */\n      0x20\n        /* \"#utility.yul\":11232:11238   */\n      dup3\n        /* \"#utility.yul\":11228:11243   */\n      add\n        /* \"#utility.yul\":11221:11261   */\n      mstore\n        /* \"#utility.yul\":11036:11268   */\n      pop\n      jump\t// out\n        /* \"#utility.yul\":11274:11640   */\n    tag_227:\n        /* \"#utility.yul\":11416:11419   */\n      0x00\n        /* \"#utility.yul\":11437:11504   */\n      tag_347\n        /* \"#utility.yul\":11501:11503   */\n      0x2d\n        /* \"#utility.yul\":11496:11499   */\n      dup4\n        /* \"#utility.yul\":11437:11504   */\n      tag_217\n      jump\t// in\n    tag_347:\n        /* \"#utility.yul\":11430:11504   */\n      swap2\n      pop\n        /* \"#utility.yul\":11513:11606   */\n      tag_348\n        /* \"#utility.yul\":11602:11605   */\n      dup3\n        /* \"#utility.yul\":11513:11606   */\n      tag_226\n      jump\t// in\n    tag_348:\n        /* \"#utility.yul\":11631:11633   */\n      0x40\n        /* \"#utility.yul\":11626:11629   */\n      dup3\n        /* \"#utility.yul\":11622:11634   */\n      add\n        /* \"#utility.yul\":11615:11634   */\n      swap1\n      pop\n        /* \"#utility.yul\":11274:11640   */\n      swap2\n      swap1\n      pop\n      jump\t// out\n        /* \"#utility.yul\":11646:12065   */\n    tag_101:\n        /* \"#utility.yul\":11812:11816   */\n      0x00\n        /* \"#utility.yul\":11850:11852   */\n      0x20\n        /* \"#utility.yul\":11839:11848   */\n      dup3\n        /* \"#utility.yul\":11835:11853   */\n      add\n        /* \"#utility.yul\":11827:11853   */\n      swap1\n      pop\n        /* \"#utility.yul\":11899:11908   */\n      dup2\n        /* \"#utility.yul\":11893:11897   */\n      dup2\n        /* \"#utility.yul\":11889:11909   */\n      sub\n        /* \"#utility.yul\":11885:11886   */\n      0x00\n        /* \"#utility.yul\":11874:11883   */\n      dup4\n        /* \"#utility.yul\":11870:11887   */\n      add\n        /* \"#utility.yul\":11863:11910   */\n      mstore\n        /* \"#utility.yul\":11927:12058   */\n      tag_350\n        /* \"#utility.yul\":12053:12057   */\n      dup2\n        /* \"#utility.yul\":11927:12058   */\n      tag_227\n      jump\t// in\n    tag_350:\n        /* \"#utility.yul\":11919:12058   */\n      swap1\n      pop\n        /* \"#utility.yul\":11646:12065   */\n      swap2\n      swap1\n      pop\n      jump\t// out\n        /* \"#utility.yul\":12071:12248   */\n    tag_228:\n        /* \"#utility.yul\":12211:12240   */\n      0x5468652061756374696f6e206973207374696c6c206163746976650000000000\n        /* \"#utility.yul\":12207:12208   */\n      0x00\n        /* \"#utility.yul\":12199:12205   */\n      dup3\n        /* \"#utility.yul\":12195:12209   */\n      add\n        /* \"#utility.yul\":12188:12241   */\n      mstore\n        /* \"#utility.yul\":12071:12248   */\n      pop\n      jump\t// out\n        /* \"#utility.yul\":12254:12620   */\n    tag_229:\n        /* \"#utility.yul\":12396:12399   */\n      0x00\n        /* \"#utility.yul\":12417:12484   */\n      tag_353\n        /* \"#utility.yul\":12481:12483   */\n      0x1b\n        /* \"#utility.yul\":12476:12479   */\n      dup4\n        /* \"#utility.yul\":12417:12484   */\n      tag_217\n      jump\t// in\n    tag_353:\n        /* \"#utility.yul\":12410:12484   */\n      swap2\n      pop\n        /* \"#utility.yul\":12493:12586   */\n      tag_354\n        /* \"#utility.yul\":12582:12585   */\n      dup3\n        /* \"#utility.yul\":12493:12586   */\n      tag_228\n      jump\t// in\n    tag_354:\n        /* \"#utility.yul\":12611:12613   */\n      0x20\n        /* \"#utility.yul\":12606:12609   */\n      dup3\n        /* \"#utility.yul\":12602:12614   */\n      add\n        /* \"#utility.yul\":12595:12614   */\n      swap1\n      pop\n        /* \"#utility.yul\":12254:12620   */\n      swap2\n      swap1\n      pop\n      jump\t// out\n        /* \"#utility.yul\":12626:13045   */\n    tag_105:\n        /* \"#utility.yul\":12792:12796   */\n      0x00\n        /* \"#utility.yul\":12830:12832   */\n      0x20\n        /* \"#utility.yul\":12819:12828   */\n      dup3\n        /* \"#utility.yul\":12815:12833   */\n      add\n        /* \"#utility.yul\":12807:12833   */\n      swap1\n      pop\n        /* \"#utility.yul\":12879:12888   */\n      dup2\n        /* \"#utility.yul\":12873:12877   */\n      dup2\n        /* \"#utility.yul\":12869:12889   */\n      sub\n        /* \"#utility.yul\":12865:12866   */\n      0x00\n        /* \"#utility.yul\":12854:12863   */\n      dup4\n        /* \"#utility.yul\":12850:12867   */\n      add\n        /* \"#utility.yul\":12843:12890   */\n      mstore\n        /* \"#utility.yul\":12907:13038   */\n      tag_356\n        /* \"#utility.yul\":13033:13037   */\n      dup2\n        /* \"#utility.yul\":12907:13038   */\n      tag_229\n      jump\t// in\n    tag_356:\n        /* \"#utility.yul\":12899:13038   */\n      swap1\n      pop\n        /* \"#utility.yul\":12626:13045   */\n      swap2\n      swap1\n      pop\n      jump\t// out\n        /* \"#utility.yul\":13051:13245   */\n    tag_107:\n        /* \"#utility.yul\":13091:13095   */\n      0x00\n        /* \"#utility.yul\":13111:13131   */\n      tag_358\n        /* \"#utility.yul\":13129:13130   */\n      dup3\n        /* \"#utility.yul\":13111:13131   */\n      tag_198\n      jump\t// in\n    tag_358:\n        /* \"#utility.yul\":13106:13131   */\n      swap2\n      pop\n        /* \"#utility.yul\":13145:13165   */\n      tag_359\n        /* \"#utility.yul\":13163:13164   */\n      dup4\n        /* \"#utility.yul\":13145:13165   */\n      tag_198\n      jump\t// in\n    tag_359:\n        /* \"#utility.yul\":13140:13165   */\n      swap3\n      pop\n        /* \"#utility.yul\":13189:13190   */\n      dup3\n        /* \"#utility.yul\":13186:13187   */\n      dup3\n        /* \"#utility.yul\":13182:13191   */\n      sub\n        /* \"#utility.yul\":13174:13191   */\n      swap1\n      pop\n        /* \"#utility.yul\":13213:13214   */\n      dup2\n        /* \"#utility.yul\":13207:13211   */\n      dup2\n        /* \"#utility.yul\":13204:13215   */\n      gt\n        /* \"#utility.yul\":13201:13238   */\n      iszero\n      tag_360\n      jumpi\n        /* \"#utility.yul\":13218:13236   */\n      tag_361\n      tag_221\n      jump\t// in\n    tag_361:\n        /* \"#utility.yul\":13201:13238   */\n    tag_360:\n        /* \"#utility.yul\":13051:13245   */\n      swap3\n      swap2\n      pop\n      pop\n      jump\t// out\n        /* \"#utility.yul\":13251:13431   */\n    tag_110:\n        /* \"#utility.yul\":13299:13376   */\n      0x4e487b7100000000000000000000000000000000000000000000000000000000\n        /* \"#utility.yul\":13296:13297   */\n      0x00\n        /* \"#utility.yul\":13289:13377   */\n      mstore\n        /* \"#utility.yul\":13396:13400   */\n      0x32\n        /* \"#utility.yul\":13393:13394   */\n      0x04\n        /* \"#utility.yul\":13386:13401   */\n      mstore\n        /* \"#utility.yul\":13420:13424   */\n      0x24\n        /* \"#utility.yul\":13417:13418   */\n      0x00\n        /* \"#utility.yul\":13410:13425   */\n      revert\n        /* \"#utility.yul\":13437:13628   */\n    tag_124:\n        /* \"#utility.yul\":13475:13479   */\n      0x00\n        /* \"#utility.yul\":13495:13513   */\n      tag_364\n        /* \"#utility.yul\":13511:13512   */\n      dup3\n        /* \"#utility.yul\":13495:13513   */\n      tag_205\n      jump\t// in\n    tag_364:\n        /* \"#utility.yul\":13490:13513   */\n      swap2\n      pop\n        /* \"#utility.yul\":13527:13545   */\n      tag_365\n        /* \"#utility.yul\":13543:13544   */\n      dup4\n        /* \"#utility.yul\":13527:13545   */\n      tag_205\n      jump\t// in\n    tag_365:\n        /* \"#utility.yul\":13522:13545   */\n      swap3\n      pop\n        /* \"#utility.yul\":13569:13570   */\n      dup3\n        /* \"#utility.yul\":13566:13567   */\n      dup3\n        /* \"#utility.yul\":13562:13571   */\n      sub\n        /* \"#utility.yul\":13554:13571   */\n      swap1\n      pop\n        /* \"#utility.yul\":13593:13597   */\n      0xff\n        /* \"#utility.yul\":13587:13591   */\n      dup2\n        /* \"#utility.yul\":13584:13598   */\n      gt\n        /* \"#utility.yul\":13581:13621   */\n      iszero\n      tag_366\n      jumpi\n        /* \"#utility.yul\":13601:13619   */\n      tag_367\n      tag_221\n      jump\t// in\n    tag_367:\n        /* \"#utility.yul\":13581:13621   */\n    tag_366:\n        /* \"#utility.yul\":13437:13628   */\n      swap3\n      swap2\n      pop\n      pop\n      jump\t// out\n        /* \"#utility.yul\":13634:13781   */\n    tag_230:\n        /* \"#utility.yul\":13735:13746   */\n      0x00\n        /* \"#utility.yul\":13772:13775   */\n      dup2\n        /* \"#utility.yul\":13757:13775   */\n      swap1\n      pop\n        /* \"#utility.yul\":13634:13781   */\n      swap3\n      swap2\n      pop\n      pop\n      jump\t// out\n        /* \"#utility.yul\":13787:13901   */\n    tag_231:\n      pop\n      jump\t// out\n        /* \"#utility.yul\":13907:14305   */\n    tag_232:\n        /* \"#utility.yul\":14066:14069   */\n      0x00\n        /* \"#utility.yul\":14087:14170   */\n      tag_371\n        /* \"#utility.yul\":14168:14169   */\n      0x00\n        /* \"#utility.yul\":14163:14166   */\n      dup4\n        /* \"#utility.yul\":14087:14170   */\n      tag_230\n      jump\t// in\n    tag_371:\n        /* \"#utility.yul\":14080:14170   */\n      swap2\n      pop\n        /* \"#utility.yul\":14179:14272   */\n      tag_372\n        /* \"#utility.yul\":14268:14271   */\n      dup3\n        /* \"#utility.yul\":14179:14272   */\n      tag_231\n      jump\t// in\n    tag_372:\n        /* \"#utility.yul\":14297:14298   */\n      0x00\n        /* \"#utility.yul\":14292:14295   */\n      dup3\n        /* \"#utility.yul\":14288:14299   */\n      add\n        /* \"#utility.yul\":14281:14299   */\n      swap1\n      pop\n        /* \"#utility.yul\":13907:14305   */\n      swap2\n      swap1\n      pop\n      jump\t// out\n        /* \"#utility.yul\":14311:14690   */\n    tag_129:\n        /* \"#utility.yul\":14495:14498   */\n      0x00\n        /* \"#utility.yul\":14517:14664   */\n      tag_374\n        /* \"#utility.yul\":14660:14663   */\n      dup3\n        /* \"#utility.yul\":14517:14664   */\n      tag_232\n      jump\t// in\n    tag_374:\n        /* \"#utility.yul\":14510:14664   */\n      swap2\n      pop\n        /* \"#utility.yul\":14681:14684   */\n      dup2\n        /* \"#utility.yul\":14674:14684   */\n      swap1\n      pop\n        /* \"#utility.yul\":14311:14690   */\n      swap2\n      swap1\n      pop\n      jump\t// out\n        /* \"#utility.yul\":14696:14869   */\n    tag_233:\n        /* \"#utility.yul\":14836:14861   */\n      0x526566756e6420746f20626964646572206661696c6564000000000000000000\n        /* \"#utility.yul\":14832:14833   */\n      0x00\n        /* \"#utility.yul\":14824:14830   */\n      dup3\n        /* \"#utility.yul\":14820:14834   */\n      add\n        /* \"#utility.yul\":14813:14862   */\n      mstore\n        /* \"#utility.yul\":14696:14869   */\n      pop\n      jump\t// out\n        /* \"#utility.yul\":14875:15241   */\n    tag_234:\n        /* \"#utility.yul\":15017:15020   */\n      0x00\n        /* \"#utility.yul\":15038:15105   */\n      tag_377\n        /* \"#utility.yul\":15102:15104   */\n      0x17\n        /* \"#utility.yul\":15097:15100   */\n      dup4\n        /* \"#utility.yul\":15038:15105   */\n      tag_217\n      jump\t// in\n    tag_377:\n        /* \"#utility.yul\":15031:15105   */\n      swap2\n      pop\n        /* \"#utility.yul\":15114:15207   */\n      tag_378\n        /* \"#utility.yul\":15203:15206   */\n      dup3\n        /* \"#utility.yul\":15114:15207   */\n      tag_233\n      jump\t// in\n    tag_378:\n        /* \"#utility.yul\":15232:15234   */\n      0x20\n        /* \"#utility.yul\":15227:15230   */\n      dup3\n        /* \"#utility.yul\":15223:15235   */\n      add\n        /* \"#utility.yul\":15216:15235   */\n      swap1\n      pop\n        /* \"#utility.yul\":14875:15241   */\n      swap2\n      swap1\n      pop\n      jump\t// out\n        /* \"#utility.yul\":15247:15666   */\n    tag_135:\n        /* \"#utility.yul\":15413:15417   */\n      0x00\n        /* \"#utility.yul\":15451:15453   */\n      0x20\n        /* \"#utility.yul\":15440:15449   */\n      dup3\n        /* \"#utility.yul\":15436:15454   */\n      add\n        /* \"#utility.yul\":15428:15454   */\n      swap1\n      pop\n        /* \"#utility.yul\":15500:15509   */\n      dup2\n        /* \"#utility.yul\":15494:15498   */\n      dup2\n        /* \"#utility.yul\":15490:15510   */\n      sub\n        /* \"#utility.yul\":15486:15487   */\n      0x00\n        /* \"#utility.yul\":15475:15484   */\n      dup4\n        /* \"#utility.yul\":15471:15488   */\n      add\n        /* \"#utility.yul\":15464:15511   */\n      mstore\n        /* \"#utility.yul\":15528:15659   */\n      tag_380\n        /* \"#utility.yul\":15654:15658   */\n      dup2\n        /* \"#utility.yul\":15528:15659   */\n      tag_234\n      jump\t// in\n    tag_380:\n        /* \"#utility.yul\":15520:15659   */\n      swap1\n      pop\n        /* \"#utility.yul\":15247:15666   */\n      swap2\n      swap1\n      pop\n      jump\t// out\n        /* \"#utility.yul\":15672:15850   */\n    tag_235:\n        /* \"#utility.yul\":15812:15842   */\n      0x5468657265206973206e6f7468696e6720746f20776974686472617700000000\n        /* \"#utility.yul\":15808:15809   */\n      0x00\n        /* \"#utility.yul\":15800:15806   */\n      dup3\n        /* \"#utility.yul\":15796:15810   */\n      add\n        /* \"#utility.yul\":15789:15843   */\n      mstore\n        /* \"#utility.yul\":15672:15850   */\n      pop\n      jump\t// out\n        /* \"#utility.yul\":15856:16222   */\n    tag_236:\n        /* \"#utility.yul\":15998:16001   */\n      0x00\n        /* \"#utility.yul\":16019:16086   */\n      tag_383\n        /* \"#utility.yul\":16083:16085   */\n      0x1c\n        /* \"#utility.yul\":16078:16081   */\n      dup4\n        /* \"#utility.yul\":16019:16086   */\n      tag_217\n      jump\t// in\n    tag_383:\n        /* \"#utility.yul\":16012:16086   */\n      swap2\n      pop\n        /* \"#utility.yul\":16095:16188   */\n      tag_384\n        /* \"#utility.yul\":16184:16187   */\n      dup3\n        /* \"#utility.yul\":16095:16188   */\n      tag_235\n      jump\t// in\n    tag_384:\n        /* \"#utility.yul\":16213:16215   */\n      0x20\n        /* \"#utility.yul\":16208:16211   */\n      dup3\n        /* \"#utility.yul\":16204:16216   */\n      add\n        /* \"#utility.yul\":16197:16216   */\n      swap1\n      pop\n        /* \"#utility.yul\":15856:16222   */\n      swap2\n      swap1\n      pop\n      jump\t// out\n        /* \"#utility.yul\":16228:16647   */\n    tag_164:\n        /* \"#utility.yul\":16394:16398   */\n      0x00\n        /* \"#utility.yul\":16432:16434   */\n      0x20\n        /* \"#utility.yul\":16421:16430   */\n      dup3\n        /* \"#utility.yul\":16417:16435   */\n      add\n        /* \"#utility.yul\":16409:16435   */\n      swap1\n      pop\n        /* \"#utility.yul\":16481:16490   */\n      dup2\n        /* \"#utility.yul\":16475:16479   */\n      dup2\n        /* \"#utility.yul\":16471:16491   */\n      sub\n        /* \"#utility.yul\":16467:16468   */\n      0x00\n        /* \"#utility.yul\":16456:16465   */\n      dup4\n        /* \"#utility.yul\":16452:16469   */\n      add\n        /* \"#utility.yul\":16445:16492   */\n      mstore\n        /* \"#utility.yul\":16509:16640   */\n      tag_386\n        /* \"#utility.yul\":16635:16639   */\n      dup2\n        /* \"#utility.yul\":16509:16640   */\n      tag_236\n      jump\t// in\n    tag_386:\n        /* \"#utility.yul\":16501:16640   */\n      swap1\n      pop\n        /* \"#utility.yul\":16228:16647   */\n      swap2\n      swap1\n      pop\n      jump\t// out\n        /* \"#utility.yul\":16653:16828   */\n    tag_237:\n        /* \"#utility.yul\":16793:16820   */\n      0x5468652061756374696f6e20686173206e6f7420656e64656400000000000000\n        /* \"#utility.yul\":16789:16790   */\n      0x00\n        /* \"#utility.yul\":16781:16787   */\n      dup3\n        /* \"#utility.yul\":16777:16791   */\n      add\n        /* \"#utility.yul\":16770:16821   */\n      mstore\n        /* \"#utility.yul\":16653:16828   */\n      pop\n      jump\t// out\n        /* \"#utility.yul\":16834:17200   */\n    tag_238:\n        /* \"#utility.yul\":16976:16979   */\n      0x00\n        /* \"#utility.yul\":16997:17064   */\n      tag_389\n        /* \"#utility.yul\":17061:17063   */\n      0x19\n        /* \"#utility.yul\":17056:17059   */\n      dup4\n        /* \"#utility.yul\":16997:17064   */\n      tag_217\n      jump\t// in\n    tag_389:\n        /* \"#utility.yul\":16990:17064   */\n      swap2\n      pop\n        /* \"#utility.yul\":17073:17166   */\n      tag_390\n        /* \"#utility.yul\":17162:17165   */\n      dup3\n        /* \"#utility.yul\":17073:17166   */\n      tag_237\n      jump\t// in\n    tag_390:\n        /* \"#utility.yul\":17191:17193   */\n      0x20\n        /* \"#utility.yul\":17186:17189   */\n      dup3\n        /* \"#utility.yul\":17182:17194   */\n      add\n        /* \"#utility.yul\":17175:17194   */\n      swap1\n      pop\n        /* \"#utility.yul\":16834:17200   */\n      swap2\n      swap1\n      pop\n      jump\t// out\n        /* \"#utility.yul\":17206:17625   */\n    tag_174:\n        /* \"#utility.yul\":17372:17376   */\n      0x00\n        /* \"#utility.yul\":17410:17412   */\n      0x20\n        /* \"#utility.yul\":17399:17408   */\n      dup3\n        /* \"#utility.yul\":17395:17413   */\n      add\n        /* \"#utility.yul\":17387:17413   */\n      swap1\n      pop\n        /* \"#utility.yul\":17459:17468   */\n      dup2\n        /* \"#utility.yul\":17453:17457   */\n      dup2\n        /* \"#utility.yul\":17449:17469   */\n      sub\n        /* \"#utility.yul\":17445:17446   */\n      0x00\n        /* \"#utility.yul\":17434:17443   */\n      dup4\n        /* \"#utility.yul\":17430:17447   */\n      add\n        /* \"#utility.yul\":17423:17470   */\n      mstore\n        /* \"#utility.yul\":17487:17618   */\n      tag_392\n        /* \"#utility.yul\":17613:17617   */\n      dup2\n        /* \"#utility.yul\":17487:17618   */\n      tag_238\n      jump\t// in\n    tag_392:\n        /* \"#utility.yul\":17479:17618   */\n      swap1\n      pop\n        /* \"#utility.yul\":17206:17625   */\n      swap2\n      swap1\n      pop\n      jump\t// out\n        /* \"#utility.yul\":17631:17810   */\n    tag_239:\n        /* \"#utility.yul\":17771:17802   */\n      0x5472616e7366657220746f2061756374696f6e656572206661696c6564000000\n        /* \"#utility.yul\":17767:17768   */\n      0x00\n        /* \"#utility.yul\":17759:17765   */\n      dup3\n        /* \"#utility.yul\":17755:17769   */\n      add\n        /* \"#utility.yul\":17748:17803   */\n      mstore\n        /* \"#utility.yul\":17631:17810   */\n      pop\n      jump\t// out\n        /* \"#utility.yul\":17816:18182   */\n    tag_240:\n        /* \"#utility.yul\":17958:17961   */\n      0x00\n        /* \"#utility.yul\":17979:18046   */\n      tag_395\n        /* \"#utility.yul\":18043:18045   */\n      0x1d\n        /* \"#utility.yul\":18038:18041   */\n      dup4\n        /* \"#utility.yul\":17979:18046   */\n      tag_217\n      jump\t// in\n    tag_395:\n        /* \"#utility.yul\":17972:18046   */\n      swap2\n      pop\n        /* \"#utility.yul\":18055:18148   */\n      tag_396\n        /* \"#utility.yul\":18144:18147   */\n      dup3\n        /* \"#utility.yul\":18055:18148   */\n      tag_239\n      jump\t// in\n    tag_396:\n        /* \"#utility.yul\":18173:18175   */\n      0x20\n        /* \"#utility.yul\":18168:18171   */\n      dup3\n        /* \"#utility.yul\":18164:18176   */\n      add\n        /* \"#utility.yul\":18157:18176   */\n      swap1\n      pop\n        /* \"#utility.yul\":17816:18182   */\n      swap2\n      swap1\n      pop\n      jump\t// out\n        /* \"#utility.yul\":18188:18607   */\n    tag_190:\n        /* \"#utility.yul\":18354:18358   */\n      0x00\n        /* \"#utility.yul\":18392:18394   */\n      0x20\n        /* \"#utility.yul\":18381:18390   */\n      dup3\n        /* \"#utility.yul\":18377:18395   */\n      add\n        /* \"#utility.yul\":18369:18395   */\n      swap1\n      pop\n        /* \"#utility.yul\":18441:18450   */\n      dup2\n        /* \"#utility.yul\":18435:18439   */\n      dup2\n        /* \"#utility.yul\":18431:18451   */\n      sub\n        /* \"#utility.yul\":18427:18428   */\n      0x00\n        /* \"#utility.yul\":18416:18425   */\n      dup4\n        /* \"#utility.yul\":18412:18429   */\n      add\n        /* \"#utility.yul\":18405:18452   */\n      mstore\n        /* \"#utility.yul\":18469:18600   */\n      tag_398\n        /* \"#utility.yul\":18595:18599   */\n      dup2\n        /* \"#utility.yul\":18469:18600   */\n      tag_240\n      jump\t// in\n    tag_398:\n        /* \"#utility.yul\":18461:18600   */\n      swap1\n      pop\n        /* \"#utility.yul\":18188:18607   */\n      swap2\n      swap1\n      pop\n      jump\t// out\n\n    auxdata: 0xa2646970667358221220c09f80f9b545ceeef17d76cdd3f78bd76574494cceaabc51ca40daf5b957f71664736f6c634300081a0033\n}\n",
				"bytecode": {
					"linkReferences": {},
					"object": "6080604052607860025f6101000a81548163ffffffff021916908363ffffffff160217905550600260045f6101000a81548160ff021916908360ff16021790555034801561004b575f80fd5b50604051611951380380611951833981810160405281019061006d91906101d7565b335f806101000a81548173ffffffffffffffffffffffffffffffffffffffff021916908373ffffffffffffffffffffffffffffffffffffffff160217905550806003819055506001600460016101000a81548160ff02191690831515021790555060025f9054906101000a900463ffffffff1663ffffffff16426100f1919061022f565b600181905550600560405180604001604052803373ffffffffffffffffffffffffffffffffffffffff16815260200183815250908060018154018082558091505060019003905f5260205f2090600202015f909190919091505f820151815f015f6101000a81548173ffffffffffffffffffffffffffffffffffffffff021916908373ffffffffffffffffffffffffffffffffffffffff16021790555060208201518160010155505050610262565b5f80fd5b5f819050919050565b6101b6816101a4565b81146101c0575f80fd5b50565b5f815190506101d1816101ad565b92915050565b5f602082840312156101ec576101eb6101a0565b5b5f6101f9848285016101c3565b91505092915050565b7f4e487b71000000000000000000000000000000000000000000000000000000005f52601160045260245ffd5b5f610239826101a4565b9150610244836101a4565b925082820190508082111561025c5761025b610202565b5b92915050565b6116e28061026f5f395ff3fe6080604052600436106100c1575f3560e01c806391f749001161007e578063ecde973d11610058578063ecde973d1461020b578063f1b0543514610248578063f90ca11714610272578063fe67a54b14610288576100c1565b806391f749001461018d57806392228006146101b7578063dedfab72146101e1576100c1565b806314d2687c146100c55780631998aeef146100ef5780633197cbb6146100f957806337072780146101235780635ec2c7bf1461014d5780636773fd7714610177575b5f80fd5b3480156100d0575f80fd5b506100d961029e565b6040516100e69190610f47565b60405180910390f35b6100f7610358565b005b348015610104575f80fd5b5061010d610583565b60405161011a9190610f76565b60405180910390f35b34801561012e575f80fd5b50610137610589565b6040516101449190610faa565b60405180910390f35b348015610158575f80fd5b5061016161059b565b60405161016e9190610fd2565b60405180910390f35b348015610182575f80fd5b5061018b6105be565b005b348015610198575f80fd5b506101a16108c0565b6040516101ae9190610f76565b60405180910390f35b3480156101c2575f80fd5b506101cb6108fb565b6040516101d89190611005565b60405180910390f35b3480156101ec575f80fd5b506101f561090e565b604051610202919061103c565b60405180910390f35b348015610216575f80fd5b50610231600480360381019061022c9190611083565b610923565b60405161023f9291906110ae565b60405180910390f35b348015610253575f80fd5b5061025c610971565b6040516102699190610f76565b60405180910390f35b34801561027d575f80fd5b50610286610977565b005b348015610293575f80fd5b5061029c610b87565b005b60606005805480602002602001604051908101604052809291908181526020015f905b8282101561034f578382905f5260205f2090600202016040518060400160405290815f82015f9054906101000a900473ffffffffffffffffffffffffffffffffffffffff1673ffffffffffffffffffffffffffffffffffffffff1673ffffffffffffffffffffffffffffffffffffffff168152602001600182015481525050815260200190600101906102c1565b50505050905090565b600460019054906101000a900460ff166103a7576040517f08c379a000000000000000000000000000000000000000000000000000000000815260040161039e9061112f565b60405180910390fd5b5f633b9aca00346103b891906111a7565b9050606460696103c66108c0565b6103d091906111d7565b6103da91906111a7565b81101561041c576040517f08c379a000000000000000000000000000000000000000000000000000000000815260040161041390611288565b60405180910390fd5b6001544210610460576040517f08c379a0000000000000000000000000000000000000000000000000000000008152600401610457906112f0565b60405180910390fd5b60025f9054906101000a900463ffffffff1663ffffffff1660015f828254610488919061130e565b92505081905550600560405180604001604052803373ffffffffffffffffffffffffffffffffffffffff16815260200183815250908060018154018082558091505060019003905f5260205f2090600202015f909190919091505f820151815f015f6101000a81548173ffffffffffffffffffffffffffffffffffffffff021916908373ffffffffffffffffffffffffffffffffffffffff1602179055506020820151816001015550503373ffffffffffffffffffffffffffffffffffffffff167fdd0b6c6a77960e2066c96171b4d7ac9e8b4c184011f38544afa36a5bb63ec59f826040516105789190610f76565b60405180910390a250565b60015481565b60045f9054906101000a900460ff1681565b5f8054906101000a900473ffffffffffffffffffffffffffffffffffffffff1681565b5f8054906101000a900473ffffffffffffffffffffffffffffffffffffffff1673ffffffffffffffffffffffffffffffffffffffff163373ffffffffffffffffffffffffffffffffffffffff161461064b576040517f08c379a0000000000000000000000000000000000000000000000000000000008152600401610642906113b1565b60405180910390fd5b600460019054906101000a900460ff161561069b576040517f08c379a000000000000000000000000000000000000000000000000000000000815260040161069290611419565b60405180910390fd5b5f60058054905090505f60056001836106b49190611437565b815481106106c5576106c461146a565b5b905f5260205f2090600202015f015f9054906101000a900473ffffffffffffffffffffffffffffffffffffffff1690505f600190505b6001836107089190611437565b8110156108bb575f600582815481106107245761072361146a565b5b905f5260205f2090600202015f015f9054906101000a900473ffffffffffffffffffffffffffffffffffffffff1690505f600583815481106107695761076861146a565b5b905f5260205f2090600202016001015490508373ffffffffffffffffffffffffffffffffffffffff168273ffffffffffffffffffffffffffffffffffffffff16036107b55750506108ae565b5f606460045f9054906101000a900460ff1660646107d39190611497565b60ff16836107e191906111d7565b6107eb91906111a7565b90505f633b9aca00826107fe91906111d7565b90505f8473ffffffffffffffffffffffffffffffffffffffff1682604051610825906114f8565b5f6040518083038185875af1925050503d805f811461085f576040519150601f19603f3d011682016040523d82523d5f602084013e610864565b606091505b50509050806108a8576040517f08c379a000000000000000000000000000000000000000000000000000000000815260040161089f90611556565b60405180910390fd5b50505050505b80806001019150506106fb565b505050565b5f600560016005805490506108d59190611437565b815481106108e6576108e561146a565b5b905f5260205f20906002020160010154905090565b600460019054906101000a900460ff1681565b60025f9054906101000a900463ffffffff1681565b60058181548110610932575f80fd5b905f5260205f2090600202015f91509050805f015f9054906101000a900473ffffffffffffffffffffffffffffffffffffffff16908060010154905082565b60035481565b600460019054906101000a900460ff166109c6576040517f08c379a00000000000000000000000000000000000000000000000000000000081526004016109bd9061112f565b60405180910390fd5b5f8060058054905090505f5b6001826109df9190611437565b811015610ae8573373ffffffffffffffffffffffffffffffffffffffff1660058281548110610a1157610a1061146a565b5b905f5260205f2090600202015f015f9054906101000a900473ffffffffffffffffffffffffffffffffffffffff1673ffffffffffffffffffffffffffffffffffffffff1603610adb5760058181548110610a6e57610a6d61146a565b5b905f5260205f2090600202016001015483610a89919061130e565b925060058181548110610a9f57610a9e61146a565b5b905f5260205f2090600202015f8082015f6101000a81549073ffffffffffffffffffffffffffffffffffffffff0219169055600182015f905550505b80806001019150506109d2565b505f8211610b2b576040517f08c379a0000000000000000000000000000000000000000000000000000000008152600401610b22906115be565b60405180910390fd5b5f633b9aca0083610b3c91906111d7565b90503373ffffffffffffffffffffffffffffffffffffffff166108fc8290811502906040515f60405180830381858888f19350505050158015610b81573d5f803e3d5ffd5b50505050565b5f8054906101000a900473ffffffffffffffffffffffffffffffffffffffff1673ffffffffffffffffffffffffffffffffffffffff163373ffffffffffffffffffffffffffffffffffffffff1614610c14576040517f08c379a0000000000000000000000000000000000000000000000000000000008152600401610c0b906113b1565b60405180910390fd5b600154421015610c59576040517f08c379a0000000000000000000000000000000000000000000000000000000008152600401610c5090611626565b60405180910390fd5b5f600460016101000a81548160ff0219169083151502179055505f60056001600580549050610c889190611437565b81548110610c9957610c9861146a565b5b905f5260205f2090600202015f015f9054906101000a900473ffffffffffffffffffffffffffffffffffffffff1690505f60056001600580549050610cde9190611437565b81548110610cef57610cee61146a565b5b905f5260205f2090600202016001015490505f633b9aca0082610d1291906111d7565b90505f805f9054906101000a900473ffffffffffffffffffffffffffffffffffffffff1673ffffffffffffffffffffffffffffffffffffffff1682604051610d59906114f8565b5f6040518083038185875af1925050503d805f8114610d93576040519150601f19603f3d011682016040523d82523d5f602084013e610d98565b606091505b5050905080610ddc576040517f08c379a0000000000000000000000000000000000000000000000000000000008152600401610dd39061168e565b60405180910390fd5b7fdaec4582d5d9595688c8c98545fdd1c696d41c6aeaeb636737e84ed2f5c00eda8484604051610e0d9291906110ae565b60405180910390a150505050565b5f81519050919050565b5f82825260208201905092915050565b5f819050602082019050919050565b5f73ffffffffffffffffffffffffffffffffffffffff82169050919050565b5f610e6d82610e44565b9050919050565b610e7d81610e63565b82525050565b5f819050919050565b610e9581610e83565b82525050565b604082015f820151610eaf5f850182610e74565b506020820151610ec26020850182610e8c565b50505050565b5f610ed38383610e9b565b60408301905092915050565b5f602082019050919050565b5f610ef582610e1b565b610eff8185610e25565b9350610f0a83610e35565b805f5b83811015610f3a578151610f218882610ec8565b9750610f2c83610edf565b925050600181019050610f0d565b5085935050505092915050565b5f6020820190508181035f830152610f5f8184610eeb565b905092915050565b610f7081610e83565b82525050565b5f602082019050610f895f830184610f67565b92915050565b5f60ff82169050919050565b610fa481610f8f565b82525050565b5f602082019050610fbd5f830184610f9b565b92915050565b610fcc81610e63565b82525050565b5f602082019050610fe55f830184610fc3565b92915050565b5f8115159050919050565b610fff81610feb565b82525050565b5f6020820190506110185f830184610ff6565b92915050565b5f63ffffffff82169050919050565b6110368161101e565b82525050565b5f60208201905061104f5f83018461102d565b92915050565b5f80fd5b61106281610e83565b811461106c575f80fd5b50565b5f8135905061107d81611059565b92915050565b5f6020828403121561109857611097611055565b5b5f6110a58482850161106f565b91505092915050565b5f6040820190506110c15f830185610fc3565b6110ce6020830184610f67565b9392505050565b5f82825260208201905092915050565b7f5468652061756374696f6e206973206e6f7420616374697665000000000000005f82015250565b5f6111196019836110d5565b9150611124826110e5565b602082019050919050565b5f6020820190508181035f8301526111468161110d565b9050919050565b7f4e487b71000000000000000000000000000000000000000000000000000000005f52601260045260245ffd5b7f4e487b71000000000000000000000000000000000000000000000000000000005f52601160045260245ffd5b5f6111b182610e83565b91506111bc83610e83565b9250826111cc576111cb61114d565b5b828204905092915050565b5f6111e182610e83565b91506111ec83610e83565b92508282026111fa81610e83565b915082820484148315176112115761121061117a565b5b5092915050565b7f54686520626964206d757374206265206174206c6561737420352520686967685f8201527f6572207468616e207468652063757272656e7420626964000000000000000000602082015250565b5f6112726037836110d5565b915061127d82611218565b604082019050919050565b5f6020820190508181035f83015261129f81611266565b9050919050565b7f5468652061756374696f6e2068617320656e64656400000000000000000000005f82015250565b5f6112da6015836110d5565b91506112e5826112a6565b602082019050919050565b5f6020820190508181035f830152611307816112ce565b9050919050565b5f61131882610e83565b915061132383610e83565b925082820190508082111561133b5761133a61117a565b5b92915050565b7f4f6e6c79207468652061756374696f6e6565722063616e2065786563757465205f8201527f746869732066756e6374696f6e00000000000000000000000000000000000000602082015250565b5f61139b602d836110d5565b91506113a682611341565b604082019050919050565b5f6020820190508181035f8301526113c88161138f565b9050919050565b7f5468652061756374696f6e206973207374696c6c2061637469766500000000005f82015250565b5f611403601b836110d5565b915061140e826113cf565b602082019050919050565b5f6020820190508181035f830152611430816113f7565b9050919050565b5f61144182610e83565b915061144c83610e83565b92508282039050818111156114645761146361117a565b5b92915050565b7f4e487b71000000000000000000000000000000000000000000000000000000005f52603260045260245ffd5b5f6114a182610f8f565b91506114ac83610f8f565b9250828203905060ff8111156114c5576114c461117a565b5b92915050565b5f81905092915050565b50565b5f6114e35f836114cb565b91506114ee826114d5565b5f82019050919050565b5f611502826114d8565b9150819050919050565b7f526566756e6420746f20626964646572206661696c65640000000000000000005f82015250565b5f6115406017836110d5565b915061154b8261150c565b602082019050919050565b5f6020820190508181035f83015261156d81611534565b9050919050565b7f5468657265206973206e6f7468696e6720746f207769746864726177000000005f82015250565b5f6115a8601c836110d5565b91506115b382611574565b602082019050919050565b5f6020820190508181035f8301526115d58161159c565b9050919050565b7f5468652061756374696f6e20686173206e6f7420656e646564000000000000005f82015250565b5f6116106019836110d5565b915061161b826115dc565b602082019050919050565b5f6020820190508181035f83015261163d81611604565b9050919050565b7f5472616e7366657220746f2061756374696f6e656572206661696c65640000005f82015250565b5f611678601d836110d5565b915061168382611644565b602082019050919050565b5f6020820190508181035f8301526116a58161166c565b905091905056fea2646970667358221220c09f80f9b545ceeef17d76cdd3f78bd76574494cceaabc51ca40daf5b957f71664736f6c634300081a0033",
					"opcodes": "PUSH1 0x80 PUSH1 0x40 MSTORE PUSH1 0x78 PUSH1 0x2 PUSH0 PUSH2 0x100 EXP DUP2 SLOAD DUP2 PUSH4 0xFFFFFFFF MUL NOT AND SWAP1 DUP4 PUSH4 0xFFFFFFFF AND MUL OR SWAP1 SSTORE POP PUSH1 0x2 PUSH1 0x4 PUSH0 PUSH2 0x100 EXP DUP2 SLOAD DUP2 PUSH1 0xFF MUL NOT AND SWAP1 DUP4 PUSH1 0xFF AND MUL OR SWAP1 SSTORE POP CALLVALUE DUP1 ISZERO PUSH2 0x4B JUMPI PUSH0 DUP1 REVERT JUMPDEST POP PUSH1 0x40 MLOAD PUSH2 0x1951 CODESIZE SUB DUP1 PUSH2 0x1951 DUP4 CODECOPY DUP2 DUP2 ADD PUSH1 0x40 MSTORE DUP2 ADD SWAP1 PUSH2 0x6D SWAP2 SWAP1 PUSH2 0x1D7 JUMP JUMPDEST CALLER PUSH0 DUP1 PUSH2 0x100 EXP DUP2 SLOAD DUP2 PUSH20 0xFFFFFFFFFFFFFFFFFFFFFFFFFFFFFFFFFFFFFFFF MUL NOT AND SWAP1 DUP4 PUSH20 0xFFFFFFFFFFFFFFFFFFFFFFFFFFFFFFFFFFFFFFFF AND MUL OR SWAP1 SSTORE POP DUP1 PUSH1 0x3 DUP2 SWAP1 SSTORE POP PUSH1 0x1 PUSH1 0x4 PUSH1 0x1 PUSH2 0x100 EXP DUP2 SLOAD DUP2 PUSH1 0xFF MUL NOT AND SWAP1 DUP4 ISZERO ISZERO MUL OR SWAP1 SSTORE POP PUSH1 0x2 PUSH0 SWAP1 SLOAD SWAP1 PUSH2 0x100 EXP SWAP1 DIV PUSH4 0xFFFFFFFF AND PUSH4 0xFFFFFFFF AND TIMESTAMP PUSH2 0xF1 SWAP2 SWAP1 PUSH2 0x22F JUMP JUMPDEST PUSH1 0x1 DUP2 SWAP1 SSTORE POP PUSH1 0x5 PUSH1 0x40 MLOAD DUP1 PUSH1 0x40 ADD PUSH1 0x40 MSTORE DUP1 CALLER PUSH20 0xFFFFFFFFFFFFFFFFFFFFFFFFFFFFFFFFFFFFFFFF AND DUP2 MSTORE PUSH1 0x20 ADD DUP4 DUP2 MSTORE POP SWAP1 DUP1 PUSH1 0x1 DUP2 SLOAD ADD DUP1 DUP3 SSTORE DUP1 SWAP2 POP POP PUSH1 0x1 SWAP1 SUB SWAP1 PUSH0 MSTORE PUSH1 0x20 PUSH0 KECCAK256 SWAP1 PUSH1 0x2 MUL ADD PUSH0 SWAP1 SWAP2 SWAP1 SWAP2 SWAP1 SWAP2 POP PUSH0 DUP3 ADD MLOAD DUP2 PUSH0 ADD PUSH0 PUSH2 0x100 EXP DUP2 SLOAD DUP2 PUSH20 0xFFFFFFFFFFFFFFFFFFFFFFFFFFFFFFFFFFFFFFFF MUL NOT AND SWAP1 DUP4 PUSH20 0xFFFFFFFFFFFFFFFFFFFFFFFFFFFFFFFFFFFFFFFF AND MUL OR SWAP1 SSTORE POP PUSH1 0x20 DUP3 ADD MLOAD DUP2 PUSH1 0x1 ADD SSTORE POP POP POP PUSH2 0x262 JUMP JUMPDEST PUSH0 DUP1 REVERT JUMPDEST PUSH0 DUP2 SWAP1 POP SWAP2 SWAP1 POP JUMP JUMPDEST PUSH2 0x1B6 DUP2 PUSH2 0x1A4 JUMP JUMPDEST DUP2 EQ PUSH2 0x1C0 JUMPI PUSH0 DUP1 REVERT JUMPDEST POP JUMP JUMPDEST PUSH0 DUP2 MLOAD SWAP1 POP PUSH2 0x1D1 DUP2 PUSH2 0x1AD JUMP JUMPDEST SWAP3 SWAP2 POP POP JUMP JUMPDEST PUSH0 PUSH1 0x20 DUP3 DUP5 SUB SLT ISZERO PUSH2 0x1EC JUMPI PUSH2 0x1EB PUSH2 0x1A0 JUMP JUMPDEST JUMPDEST PUSH0 PUSH2 0x1F9 DUP5 DUP3 DUP6 ADD PUSH2 0x1C3 JUMP JUMPDEST SWAP2 POP POP SWAP3 SWAP2 POP POP JUMP JUMPDEST PUSH32 0x4E487B7100000000000000000000000000000000000000000000000000000000 PUSH0 MSTORE PUSH1 0x11 PUSH1 0x4 MSTORE PUSH1 0x24 PUSH0 REVERT JUMPDEST PUSH0 PUSH2 0x239 DUP3 PUSH2 0x1A4 JUMP JUMPDEST SWAP2 POP PUSH2 0x244 DUP4 PUSH2 0x1A4 JUMP JUMPDEST SWAP3 POP DUP3 DUP3 ADD SWAP1 POP DUP1 DUP3 GT ISZERO PUSH2 0x25C JUMPI PUSH2 0x25B PUSH2 0x202 JUMP JUMPDEST JUMPDEST SWAP3 SWAP2 POP POP JUMP JUMPDEST PUSH2 0x16E2 DUP1 PUSH2 0x26F PUSH0 CODECOPY PUSH0 RETURN INVALID PUSH1 0x80 PUSH1 0x40 MSTORE PUSH1 0x4 CALLDATASIZE LT PUSH2 0xC1 JUMPI PUSH0 CALLDATALOAD PUSH1 0xE0 SHR DUP1 PUSH4 0x91F74900 GT PUSH2 0x7E JUMPI DUP1 PUSH4 0xECDE973D GT PUSH2 0x58 JUMPI DUP1 PUSH4 0xECDE973D EQ PUSH2 0x20B JUMPI DUP1 PUSH4 0xF1B05435 EQ PUSH2 0x248 JUMPI DUP1 PUSH4 0xF90CA117 EQ PUSH2 0x272 JUMPI DUP1 PUSH4 0xFE67A54B EQ PUSH2 0x288 JUMPI PUSH2 0xC1 JUMP JUMPDEST DUP1 PUSH4 0x91F74900 EQ PUSH2 0x18D JUMPI DUP1 PUSH4 0x92228006 EQ PUSH2 0x1B7 JUMPI DUP1 PUSH4 0xDEDFAB72 EQ PUSH2 0x1E1 JUMPI PUSH2 0xC1 JUMP JUMPDEST DUP1 PUSH4 0x14D2687C EQ PUSH2 0xC5 JUMPI DUP1 PUSH4 0x1998AEEF EQ PUSH2 0xEF JUMPI DUP1 PUSH4 0x3197CBB6 EQ PUSH2 0xF9 JUMPI DUP1 PUSH4 0x37072780 EQ PUSH2 0x123 JUMPI DUP1 PUSH4 0x5EC2C7BF EQ PUSH2 0x14D JUMPI DUP1 PUSH4 0x6773FD77 EQ PUSH2 0x177 JUMPI JUMPDEST PUSH0 DUP1 REVERT JUMPDEST CALLVALUE DUP1 ISZERO PUSH2 0xD0 JUMPI PUSH0 DUP1 REVERT JUMPDEST POP PUSH2 0xD9 PUSH2 0x29E JUMP JUMPDEST PUSH1 0x40 MLOAD PUSH2 0xE6 SWAP2 SWAP1 PUSH2 0xF47 JUMP JUMPDEST PUSH1 0x40 MLOAD DUP1 SWAP2 SUB SWAP1 RETURN JUMPDEST PUSH2 0xF7 PUSH2 0x358 JUMP JUMPDEST STOP JUMPDEST CALLVALUE DUP1 ISZERO PUSH2 0x104 JUMPI PUSH0 DUP1 REVERT JUMPDEST POP PUSH2 0x10D PUSH2 0x583 JUMP JUMPDEST PUSH1 0x40 MLOAD PUSH2 0x11A SWAP2 SWAP1 PUSH2 0xF76 JUMP JUMPDEST PUSH1 0x40 MLOAD DUP1 SWAP2 SUB SWAP1 RETURN JUMPDEST CALLVALUE DUP1 ISZERO PUSH2 0x12E JUMPI PUSH0 DUP1 REVERT JUMPDEST POP PUSH2 0x137 PUSH2 0x589 JUMP JUMPDEST PUSH1 0x40 MLOAD PUSH2 0x144 SWAP2 SWAP1 PUSH2 0xFAA JUMP JUMPDEST PUSH1 0x40 MLOAD DUP1 SWAP2 SUB SWAP1 RETURN JUMPDEST CALLVALUE DUP1 ISZERO PUSH2 0x158 JUMPI PUSH0 DUP1 REVERT JUMPDEST POP PUSH2 0x161 PUSH2 0x59B JUMP JUMPDEST PUSH1 0x40 MLOAD PUSH2 0x16E SWAP2 SWAP1 PUSH2 0xFD2 JUMP JUMPDEST PUSH1 0x40 MLOAD DUP1 SWAP2 SUB SWAP1 RETURN JUMPDEST CALLVALUE DUP1 ISZERO PUSH2 0x182 JUMPI PUSH0 DUP1 REVERT JUMPDEST POP PUSH2 0x18B PUSH2 0x5BE JUMP JUMPDEST STOP JUMPDEST CALLVALUE DUP1 ISZERO PUSH2 0x198 JUMPI PUSH0 DUP1 REVERT JUMPDEST POP PUSH2 0x1A1 PUSH2 0x8C0 JUMP JUMPDEST PUSH1 0x40 MLOAD PUSH2 0x1AE SWAP2 SWAP1 PUSH2 0xF76 JUMP JUMPDEST PUSH1 0x40 MLOAD DUP1 SWAP2 SUB SWAP1 RETURN JUMPDEST CALLVALUE DUP1 ISZERO PUSH2 0x1C2 JUMPI PUSH0 DUP1 REVERT JUMPDEST POP PUSH2 0x1CB PUSH2 0x8FB JUMP JUMPDEST PUSH1 0x40 MLOAD PUSH2 0x1D8 SWAP2 SWAP1 PUSH2 0x1005 JUMP JUMPDEST PUSH1 0x40 MLOAD DUP1 SWAP2 SUB SWAP1 RETURN JUMPDEST CALLVALUE DUP1 ISZERO PUSH2 0x1EC JUMPI PUSH0 DUP1 REVERT JUMPDEST POP PUSH2 0x1F5 PUSH2 0x90E JUMP JUMPDEST PUSH1 0x40 MLOAD PUSH2 0x202 SWAP2 SWAP1 PUSH2 0x103C JUMP JUMPDEST PUSH1 0x40 MLOAD DUP1 SWAP2 SUB SWAP1 RETURN JUMPDEST CALLVALUE DUP1 ISZERO PUSH2 0x216 JUMPI PUSH0 DUP1 REVERT JUMPDEST POP PUSH2 0x231 PUSH1 0x4 DUP1 CALLDATASIZE SUB DUP2 ADD SWAP1 PUSH2 0x22C SWAP2 SWAP1 PUSH2 0x1083 JUMP JUMPDEST PUSH2 0x923 JUMP JUMPDEST PUSH1 0x40 MLOAD PUSH2 0x23F SWAP3 SWAP2 SWAP1 PUSH2 0x10AE JUMP JUMPDEST PUSH1 0x40 MLOAD DUP1 SWAP2 SUB SWAP1 RETURN JUMPDEST CALLVALUE DUP1 ISZERO PUSH2 0x253 JUMPI PUSH0 DUP1 REVERT JUMPDEST POP PUSH2 0x25C PUSH2 0x971 JUMP JUMPDEST PUSH1 0x40 MLOAD PUSH2 0x269 SWAP2 SWAP1 PUSH2 0xF76 JUMP JUMPDEST PUSH1 0x40 MLOAD DUP1 SWAP2 SUB SWAP1 RETURN JUMPDEST CALLVALUE DUP1 ISZERO PUSH2 0x27D JUMPI PUSH0 DUP1 REVERT JUMPDEST POP PUSH2 0x286 PUSH2 0x977 JUMP JUMPDEST STOP JUMPDEST CALLVALUE DUP1 ISZERO PUSH2 0x293 JUMPI PUSH0 DUP1 REVERT JUMPDEST POP PUSH2 0x29C PUSH2 0xB87 JUMP JUMPDEST STOP JUMPDEST PUSH1 0x60 PUSH1 0x5 DUP1 SLOAD DUP1 PUSH1 0x20 MUL PUSH1 0x20 ADD PUSH1 0x40 MLOAD SWAP1 DUP2 ADD PUSH1 0x40 MSTORE DUP1 SWAP3 SWAP2 SWAP1 DUP2 DUP2 MSTORE PUSH1 0x20 ADD PUSH0 SWAP1 JUMPDEST DUP3 DUP3 LT ISZERO PUSH2 0x34F JUMPI DUP4 DUP3 SWAP1 PUSH0 MSTORE PUSH1 0x20 PUSH0 KECCAK256 SWAP1 PUSH1 0x2 MUL ADD PUSH1 0x40 MLOAD DUP1 PUSH1 0x40 ADD PUSH1 0x40 MSTORE SWAP1 DUP2 PUSH0 DUP3 ADD PUSH0 SWAP1 SLOAD SWAP1 PUSH2 0x100 EXP SWAP1 DIV PUSH20 0xFFFFFFFFFFFFFFFFFFFFFFFFFFFFFFFFFFFFFFFF AND PUSH20 0xFFFFFFFFFFFFFFFFFFFFFFFFFFFFFFFFFFFFFFFF AND PUSH20 0xFFFFFFFFFFFFFFFFFFFFFFFFFFFFFFFFFFFFFFFF AND DUP2 MSTORE PUSH1 0x20 ADD PUSH1 0x1 DUP3 ADD SLOAD DUP2 MSTORE POP POP DUP2 MSTORE PUSH1 0x20 ADD SWAP1 PUSH1 0x1 ADD SWAP1 PUSH2 0x2C1 JUMP JUMPDEST POP POP POP POP SWAP1 POP SWAP1 JUMP JUMPDEST PUSH1 0x4 PUSH1 0x1 SWAP1 SLOAD SWAP1 PUSH2 0x100 EXP SWAP1 DIV PUSH1 0xFF AND PUSH2 0x3A7 JUMPI PUSH1 0x40 MLOAD PUSH32 0x8C379A000000000000000000000000000000000000000000000000000000000 DUP2 MSTORE PUSH1 0x4 ADD PUSH2 0x39E SWAP1 PUSH2 0x112F JUMP JUMPDEST PUSH1 0x40 MLOAD DUP1 SWAP2 SUB SWAP1 REVERT JUMPDEST PUSH0 PUSH4 0x3B9ACA00 CALLVALUE PUSH2 0x3B8 SWAP2 SWAP1 PUSH2 0x11A7 JUMP JUMPDEST SWAP1 POP PUSH1 0x64 PUSH1 0x69 PUSH2 0x3C6 PUSH2 0x8C0 JUMP JUMPDEST PUSH2 0x3D0 SWAP2 SWAP1 PUSH2 0x11D7 JUMP JUMPDEST PUSH2 0x3DA SWAP2 SWAP1 PUSH2 0x11A7 JUMP JUMPDEST DUP2 LT ISZERO PUSH2 0x41C JUMPI PUSH1 0x40 MLOAD PUSH32 0x8C379A000000000000000000000000000000000000000000000000000000000 DUP2 MSTORE PUSH1 0x4 ADD PUSH2 0x413 SWAP1 PUSH2 0x1288 JUMP JUMPDEST PUSH1 0x40 MLOAD DUP1 SWAP2 SUB SWAP1 REVERT JUMPDEST PUSH1 0x1 SLOAD TIMESTAMP LT PUSH2 0x460 JUMPI PUSH1 0x40 MLOAD PUSH32 0x8C379A000000000000000000000000000000000000000000000000000000000 DUP2 MSTORE PUSH1 0x4 ADD PUSH2 0x457 SWAP1 PUSH2 0x12F0 JUMP JUMPDEST PUSH1 0x40 MLOAD DUP1 SWAP2 SUB SWAP1 REVERT JUMPDEST PUSH1 0x2 PUSH0 SWAP1 SLOAD SWAP1 PUSH2 0x100 EXP SWAP1 DIV PUSH4 0xFFFFFFFF AND PUSH4 0xFFFFFFFF AND PUSH1 0x1 PUSH0 DUP3 DUP3 SLOAD PUSH2 0x488 SWAP2 SWAP1 PUSH2 0x130E JUMP JUMPDEST SWAP3 POP POP DUP2 SWAP1 SSTORE POP PUSH1 0x5 PUSH1 0x40 MLOAD DUP1 PUSH1 0x40 ADD PUSH1 0x40 MSTORE DUP1 CALLER PUSH20 0xFFFFFFFFFFFFFFFFFFFFFFFFFFFFFFFFFFFFFFFF AND DUP2 MSTORE PUSH1 0x20 ADD DUP4 DUP2 MSTORE POP SWAP1 DUP1 PUSH1 0x1 DUP2 SLOAD ADD DUP1 DUP3 SSTORE DUP1 SWAP2 POP POP PUSH1 0x1 SWAP1 SUB SWAP1 PUSH0 MSTORE PUSH1 0x20 PUSH0 KECCAK256 SWAP1 PUSH1 0x2 MUL ADD PUSH0 SWAP1 SWAP2 SWAP1 SWAP2 SWAP1 SWAP2 POP PUSH0 DUP3 ADD MLOAD DUP2 PUSH0 ADD PUSH0 PUSH2 0x100 EXP DUP2 SLOAD DUP2 PUSH20 0xFFFFFFFFFFFFFFFFFFFFFFFFFFFFFFFFFFFFFFFF MUL NOT AND SWAP1 DUP4 PUSH20 0xFFFFFFFFFFFFFFFFFFFFFFFFFFFFFFFFFFFFFFFF AND MUL OR SWAP1 SSTORE POP PUSH1 0x20 DUP3 ADD MLOAD DUP2 PUSH1 0x1 ADD SSTORE POP POP CALLER PUSH20 0xFFFFFFFFFFFFFFFFFFFFFFFFFFFFFFFFFFFFFFFF AND PUSH32 0xDD0B6C6A77960E2066C96171B4D7AC9E8B4C184011F38544AFA36A5BB63EC59F DUP3 PUSH1 0x40 MLOAD PUSH2 0x578 SWAP2 SWAP1 PUSH2 0xF76 JUMP JUMPDEST PUSH1 0x40 MLOAD DUP1 SWAP2 SUB SWAP1 LOG2 POP JUMP JUMPDEST PUSH1 0x1 SLOAD DUP2 JUMP JUMPDEST PUSH1 0x4 PUSH0 SWAP1 SLOAD SWAP1 PUSH2 0x100 EXP SWAP1 DIV PUSH1 0xFF AND DUP2 JUMP JUMPDEST PUSH0 DUP1 SLOAD SWAP1 PUSH2 0x100 EXP SWAP1 DIV PUSH20 0xFFFFFFFFFFFFFFFFFFFFFFFFFFFFFFFFFFFFFFFF AND DUP2 JUMP JUMPDEST PUSH0 DUP1 SLOAD SWAP1 PUSH2 0x100 EXP SWAP1 DIV PUSH20 0xFFFFFFFFFFFFFFFFFFFFFFFFFFFFFFFFFFFFFFFF AND PUSH20 0xFFFFFFFFFFFFFFFFFFFFFFFFFFFFFFFFFFFFFFFF AND CALLER PUSH20 0xFFFFFFFFFFFFFFFFFFFFFFFFFFFFFFFFFFFFFFFF AND EQ PUSH2 0x64B JUMPI PUSH1 0x40 MLOAD PUSH32 0x8C379A000000000000000000000000000000000000000000000000000000000 DUP2 MSTORE PUSH1 0x4 ADD PUSH2 0x642 SWAP1 PUSH2 0x13B1 JUMP JUMPDEST PUSH1 0x40 MLOAD DUP1 SWAP2 SUB SWAP1 REVERT JUMPDEST PUSH1 0x4 PUSH1 0x1 SWAP1 SLOAD SWAP1 PUSH2 0x100 EXP SWAP1 DIV PUSH1 0xFF AND ISZERO PUSH2 0x69B JUMPI PUSH1 0x40 MLOAD PUSH32 0x8C379A000000000000000000000000000000000000000000000000000000000 DUP2 MSTORE PUSH1 0x4 ADD PUSH2 0x692 SWAP1 PUSH2 0x1419 JUMP JUMPDEST PUSH1 0x40 MLOAD DUP1 SWAP2 SUB SWAP1 REVERT JUMPDEST PUSH0 PUSH1 0x5 DUP1 SLOAD SWAP1 POP SWAP1 POP PUSH0 PUSH1 0x5 PUSH1 0x1 DUP4 PUSH2 0x6B4 SWAP2 SWAP1 PUSH2 0x1437 JUMP JUMPDEST DUP2 SLOAD DUP2 LT PUSH2 0x6C5 JUMPI PUSH2 0x6C4 PUSH2 0x146A JUMP JUMPDEST JUMPDEST SWAP1 PUSH0 MSTORE PUSH1 0x20 PUSH0 KECCAK256 SWAP1 PUSH1 0x2 MUL ADD PUSH0 ADD PUSH0 SWAP1 SLOAD SWAP1 PUSH2 0x100 EXP SWAP1 DIV PUSH20 0xFFFFFFFFFFFFFFFFFFFFFFFFFFFFFFFFFFFFFFFF AND SWAP1 POP PUSH0 PUSH1 0x1 SWAP1 POP JUMPDEST PUSH1 0x1 DUP4 PUSH2 0x708 SWAP2 SWAP1 PUSH2 0x1437 JUMP JUMPDEST DUP2 LT ISZERO PUSH2 0x8BB JUMPI PUSH0 PUSH1 0x5 DUP3 DUP2 SLOAD DUP2 LT PUSH2 0x724 JUMPI PUSH2 0x723 PUSH2 0x146A JUMP JUMPDEST JUMPDEST SWAP1 PUSH0 MSTORE PUSH1 0x20 PUSH0 KECCAK256 SWAP1 PUSH1 0x2 MUL ADD PUSH0 ADD PUSH0 SWAP1 SLOAD SWAP1 PUSH2 0x100 EXP SWAP1 DIV PUSH20 0xFFFFFFFFFFFFFFFFFFFFFFFFFFFFFFFFFFFFFFFF AND SWAP1 POP PUSH0 PUSH1 0x5 DUP4 DUP2 SLOAD DUP2 LT PUSH2 0x769 JUMPI PUSH2 0x768 PUSH2 0x146A JUMP JUMPDEST JUMPDEST SWAP1 PUSH0 MSTORE PUSH1 0x20 PUSH0 KECCAK256 SWAP1 PUSH1 0x2 MUL ADD PUSH1 0x1 ADD SLOAD SWAP1 POP DUP4 PUSH20 0xFFFFFFFFFFFFFFFFFFFFFFFFFFFFFFFFFFFFFFFF AND DUP3 PUSH20 0xFFFFFFFFFFFFFFFFFFFFFFFFFFFFFFFFFFFFFFFF AND SUB PUSH2 0x7B5 JUMPI POP POP PUSH2 0x8AE JUMP JUMPDEST PUSH0 PUSH1 0x64 PUSH1 0x4 PUSH0 SWAP1 SLOAD SWAP1 PUSH2 0x100 EXP SWAP1 DIV PUSH1 0xFF AND PUSH1 0x64 PUSH2 0x7D3 SWAP2 SWAP1 PUSH2 0x1497 JUMP JUMPDEST PUSH1 0xFF AND DUP4 PUSH2 0x7E1 SWAP2 SWAP1 PUSH2 0x11D7 JUMP JUMPDEST PUSH2 0x7EB SWAP2 SWAP1 PUSH2 0x11A7 JUMP JUMPDEST SWAP1 POP PUSH0 PUSH4 0x3B9ACA00 DUP3 PUSH2 0x7FE SWAP2 SWAP1 PUSH2 0x11D7 JUMP JUMPDEST SWAP1 POP PUSH0 DUP5 PUSH20 0xFFFFFFFFFFFFFFFFFFFFFFFFFFFFFFFFFFFFFFFF AND DUP3 PUSH1 0x40 MLOAD PUSH2 0x825 SWAP1 PUSH2 0x14F8 JUMP JUMPDEST PUSH0 PUSH1 0x40 MLOAD DUP1 DUP4 SUB DUP2 DUP6 DUP8 GAS CALL SWAP3 POP POP POP RETURNDATASIZE DUP1 PUSH0 DUP2 EQ PUSH2 0x85F JUMPI PUSH1 0x40 MLOAD SWAP2 POP PUSH1 0x1F NOT PUSH1 0x3F RETURNDATASIZE ADD AND DUP3 ADD PUSH1 0x40 MSTORE RETURNDATASIZE DUP3 MSTORE RETURNDATASIZE PUSH0 PUSH1 0x20 DUP5 ADD RETURNDATACOPY PUSH2 0x864 JUMP JUMPDEST PUSH1 0x60 SWAP2 POP JUMPDEST POP POP SWAP1 POP DUP1 PUSH2 0x8A8 JUMPI PUSH1 0x40 MLOAD PUSH32 0x8C379A000000000000000000000000000000000000000000000000000000000 DUP2 MSTORE PUSH1 0x4 ADD PUSH2 0x89F SWAP1 PUSH2 0x1556 JUMP JUMPDEST PUSH1 0x40 MLOAD DUP1 SWAP2 SUB SWAP1 REVERT JUMPDEST POP POP POP POP POP JUMPDEST DUP1 DUP1 PUSH1 0x1 ADD SWAP2 POP POP PUSH2 0x6FB JUMP JUMPDEST POP POP POP JUMP JUMPDEST PUSH0 PUSH1 0x5 PUSH1 0x1 PUSH1 0x5 DUP1 SLOAD SWAP1 POP PUSH2 0x8D5 SWAP2 SWAP1 PUSH2 0x1437 JUMP JUMPDEST DUP2 SLOAD DUP2 LT PUSH2 0x8E6 JUMPI PUSH2 0x8E5 PUSH2 0x146A JUMP JUMPDEST JUMPDEST SWAP1 PUSH0 MSTORE PUSH1 0x20 PUSH0 KECCAK256 SWAP1 PUSH1 0x2 MUL ADD PUSH1 0x1 ADD SLOAD SWAP1 POP SWAP1 JUMP JUMPDEST PUSH1 0x4 PUSH1 0x1 SWAP1 SLOAD SWAP1 PUSH2 0x100 EXP SWAP1 DIV PUSH1 0xFF AND DUP2 JUMP JUMPDEST PUSH1 0x2 PUSH0 SWAP1 SLOAD SWAP1 PUSH2 0x100 EXP SWAP1 DIV PUSH4 0xFFFFFFFF AND DUP2 JUMP JUMPDEST PUSH1 0x5 DUP2 DUP2 SLOAD DUP2 LT PUSH2 0x932 JUMPI PUSH0 DUP1 REVERT JUMPDEST SWAP1 PUSH0 MSTORE PUSH1 0x20 PUSH0 KECCAK256 SWAP1 PUSH1 0x2 MUL ADD PUSH0 SWAP2 POP SWAP1 POP DUP1 PUSH0 ADD PUSH0 SWAP1 SLOAD SWAP1 PUSH2 0x100 EXP SWAP1 DIV PUSH20 0xFFFFFFFFFFFFFFFFFFFFFFFFFFFFFFFFFFFFFFFF AND SWAP1 DUP1 PUSH1 0x1 ADD SLOAD SWAP1 POP DUP3 JUMP JUMPDEST PUSH1 0x3 SLOAD DUP2 JUMP JUMPDEST PUSH1 0x4 PUSH1 0x1 SWAP1 SLOAD SWAP1 PUSH2 0x100 EXP SWAP1 DIV PUSH1 0xFF AND PUSH2 0x9C6 JUMPI PUSH1 0x40 MLOAD PUSH32 0x8C379A000000000000000000000000000000000000000000000000000000000 DUP2 MSTORE PUSH1 0x4 ADD PUSH2 0x9BD SWAP1 PUSH2 0x112F JUMP JUMPDEST PUSH1 0x40 MLOAD DUP1 SWAP2 SUB SWAP1 REVERT JUMPDEST PUSH0 DUP1 PUSH1 0x5 DUP1 SLOAD SWAP1 POP SWAP1 POP PUSH0 JUMPDEST PUSH1 0x1 DUP3 PUSH2 0x9DF SWAP2 SWAP1 PUSH2 0x1437 JUMP JUMPDEST DUP2 LT ISZERO PUSH2 0xAE8 JUMPI CALLER PUSH20 0xFFFFFFFFFFFFFFFFFFFFFFFFFFFFFFFFFFFFFFFF AND PUSH1 0x5 DUP3 DUP2 SLOAD DUP2 LT PUSH2 0xA11 JUMPI PUSH2 0xA10 PUSH2 0x146A JUMP JUMPDEST JUMPDEST SWAP1 PUSH0 MSTORE PUSH1 0x20 PUSH0 KECCAK256 SWAP1 PUSH1 0x2 MUL ADD PUSH0 ADD PUSH0 SWAP1 SLOAD SWAP1 PUSH2 0x100 EXP SWAP1 DIV PUSH20 0xFFFFFFFFFFFFFFFFFFFFFFFFFFFFFFFFFFFFFFFF AND PUSH20 0xFFFFFFFFFFFFFFFFFFFFFFFFFFFFFFFFFFFFFFFF AND SUB PUSH2 0xADB JUMPI PUSH1 0x5 DUP2 DUP2 SLOAD DUP2 LT PUSH2 0xA6E JUMPI PUSH2 0xA6D PUSH2 0x146A JUMP JUMPDEST JUMPDEST SWAP1 PUSH0 MSTORE PUSH1 0x20 PUSH0 KECCAK256 SWAP1 PUSH1 0x2 MUL ADD PUSH1 0x1 ADD SLOAD DUP4 PUSH2 0xA89 SWAP2 SWAP1 PUSH2 0x130E JUMP JUMPDEST SWAP3 POP PUSH1 0x5 DUP2 DUP2 SLOAD DUP2 LT PUSH2 0xA9F JUMPI PUSH2 0xA9E PUSH2 0x146A JUMP JUMPDEST JUMPDEST SWAP1 PUSH0 MSTORE PUSH1 0x20 PUSH0 KECCAK256 SWAP1 PUSH1 0x2 MUL ADD PUSH0 DUP1 DUP3 ADD PUSH0 PUSH2 0x100 EXP DUP2 SLOAD SWAP1 PUSH20 0xFFFFFFFFFFFFFFFFFFFFFFFFFFFFFFFFFFFFFFFF MUL NOT AND SWAP1 SSTORE PUSH1 0x1 DUP3 ADD PUSH0 SWAP1 SSTORE POP POP JUMPDEST DUP1 DUP1 PUSH1 0x1 ADD SWAP2 POP POP PUSH2 0x9D2 JUMP JUMPDEST POP PUSH0 DUP3 GT PUSH2 0xB2B JUMPI PUSH1 0x40 MLOAD PUSH32 0x8C379A000000000000000000000000000000000000000000000000000000000 DUP2 MSTORE PUSH1 0x4 ADD PUSH2 0xB22 SWAP1 PUSH2 0x15BE JUMP JUMPDEST PUSH1 0x40 MLOAD DUP1 SWAP2 SUB SWAP1 REVERT JUMPDEST PUSH0 PUSH4 0x3B9ACA00 DUP4 PUSH2 0xB3C SWAP2 SWAP1 PUSH2 0x11D7 JUMP JUMPDEST SWAP1 POP CALLER PUSH20 0xFFFFFFFFFFFFFFFFFFFFFFFFFFFFFFFFFFFFFFFF AND PUSH2 0x8FC DUP3 SWAP1 DUP2 ISZERO MUL SWAP1 PUSH1 0x40 MLOAD PUSH0 PUSH1 0x40 MLOAD DUP1 DUP4 SUB DUP2 DUP6 DUP9 DUP9 CALL SWAP4 POP POP POP POP ISZERO DUP1 ISZERO PUSH2 0xB81 JUMPI RETURNDATASIZE PUSH0 DUP1 RETURNDATACOPY RETURNDATASIZE PUSH0 REVERT JUMPDEST POP POP POP POP JUMP JUMPDEST PUSH0 DUP1 SLOAD SWAP1 PUSH2 0x100 EXP SWAP1 DIV PUSH20 0xFFFFFFFFFFFFFFFFFFFFFFFFFFFFFFFFFFFFFFFF AND PUSH20 0xFFFFFFFFFFFFFFFFFFFFFFFFFFFFFFFFFFFFFFFF AND CALLER PUSH20 0xFFFFFFFFFFFFFFFFFFFFFFFFFFFFFFFFFFFFFFFF AND EQ PUSH2 0xC14 JUMPI PUSH1 0x40 MLOAD PUSH32 0x8C379A000000000000000000000000000000000000000000000000000000000 DUP2 MSTORE PUSH1 0x4 ADD PUSH2 0xC0B SWAP1 PUSH2 0x13B1 JUMP JUMPDEST PUSH1 0x40 MLOAD DUP1 SWAP2 SUB SWAP1 REVERT JUMPDEST PUSH1 0x1 SLOAD TIMESTAMP LT ISZERO PUSH2 0xC59 JUMPI PUSH1 0x40 MLOAD PUSH32 0x8C379A000000000000000000000000000000000000000000000000000000000 DUP2 MSTORE PUSH1 0x4 ADD PUSH2 0xC50 SWAP1 PUSH2 0x1626 JUMP JUMPDEST PUSH1 0x40 MLOAD DUP1 SWAP2 SUB SWAP1 REVERT JUMPDEST PUSH0 PUSH1 0x4 PUSH1 0x1 PUSH2 0x100 EXP DUP2 SLOAD DUP2 PUSH1 0xFF MUL NOT AND SWAP1 DUP4 ISZERO ISZERO MUL OR SWAP1 SSTORE POP PUSH0 PUSH1 0x5 PUSH1 0x1 PUSH1 0x5 DUP1 SLOAD SWAP1 POP PUSH2 0xC88 SWAP2 SWAP1 PUSH2 0x1437 JUMP JUMPDEST DUP2 SLOAD DUP2 LT PUSH2 0xC99 JUMPI PUSH2 0xC98 PUSH2 0x146A JUMP JUMPDEST JUMPDEST SWAP1 PUSH0 MSTORE PUSH1 0x20 PUSH0 KECCAK256 SWAP1 PUSH1 0x2 MUL ADD PUSH0 ADD PUSH0 SWAP1 SLOAD SWAP1 PUSH2 0x100 EXP SWAP1 DIV PUSH20 0xFFFFFFFFFFFFFFFFFFFFFFFFFFFFFFFFFFFFFFFF AND SWAP1 POP PUSH0 PUSH1 0x5 PUSH1 0x1 PUSH1 0x5 DUP1 SLOAD SWAP1 POP PUSH2 0xCDE SWAP2 SWAP1 PUSH2 0x1437 JUMP JUMPDEST DUP2 SLOAD DUP2 LT PUSH2 0xCEF JUMPI PUSH2 0xCEE PUSH2 0x146A JUMP JUMPDEST JUMPDEST SWAP1 PUSH0 MSTORE PUSH1 0x20 PUSH0 KECCAK256 SWAP1 PUSH1 0x2 MUL ADD PUSH1 0x1 ADD SLOAD SWAP1 POP PUSH0 PUSH4 0x3B9ACA00 DUP3 PUSH2 0xD12 SWAP2 SWAP1 PUSH2 0x11D7 JUMP JUMPDEST SWAP1 POP PUSH0 DUP1 PUSH0 SWAP1 SLOAD SWAP1 PUSH2 0x100 EXP SWAP1 DIV PUSH20 0xFFFFFFFFFFFFFFFFFFFFFFFFFFFFFFFFFFFFFFFF AND PUSH20 0xFFFFFFFFFFFFFFFFFFFFFFFFFFFFFFFFFFFFFFFF AND DUP3 PUSH1 0x40 MLOAD PUSH2 0xD59 SWAP1 PUSH2 0x14F8 JUMP JUMPDEST PUSH0 PUSH1 0x40 MLOAD DUP1 DUP4 SUB DUP2 DUP6 DUP8 GAS CALL SWAP3 POP POP POP RETURNDATASIZE DUP1 PUSH0 DUP2 EQ PUSH2 0xD93 JUMPI PUSH1 0x40 MLOAD SWAP2 POP PUSH1 0x1F NOT PUSH1 0x3F RETURNDATASIZE ADD AND DUP3 ADD PUSH1 0x40 MSTORE RETURNDATASIZE DUP3 MSTORE RETURNDATASIZE PUSH0 PUSH1 0x20 DUP5 ADD RETURNDATACOPY PUSH2 0xD98 JUMP JUMPDEST PUSH1 0x60 SWAP2 POP JUMPDEST POP POP SWAP1 POP DUP1 PUSH2 0xDDC JUMPI PUSH1 0x40 MLOAD PUSH32 0x8C379A000000000000000000000000000000000000000000000000000000000 DUP2 MSTORE PUSH1 0x4 ADD PUSH2 0xDD3 SWAP1 PUSH2 0x168E JUMP JUMPDEST PUSH1 0x40 MLOAD DUP1 SWAP2 SUB SWAP1 REVERT JUMPDEST PUSH32 0xDAEC4582D5D9595688C8C98545FDD1C696D41C6AEAEB636737E84ED2F5C00EDA DUP5 DUP5 PUSH1 0x40 MLOAD PUSH2 0xE0D SWAP3 SWAP2 SWAP1 PUSH2 0x10AE JUMP JUMPDEST PUSH1 0x40 MLOAD DUP1 SWAP2 SUB SWAP1 LOG1 POP POP POP POP JUMP JUMPDEST PUSH0 DUP2 MLOAD SWAP1 POP SWAP2 SWAP1 POP JUMP JUMPDEST PUSH0 DUP3 DUP3 MSTORE PUSH1 0x20 DUP3 ADD SWAP1 POP SWAP3 SWAP2 POP POP JUMP JUMPDEST PUSH0 DUP2 SWAP1 POP PUSH1 0x20 DUP3 ADD SWAP1 POP SWAP2 SWAP1 POP JUMP JUMPDEST PUSH0 PUSH20 0xFFFFFFFFFFFFFFFFFFFFFFFFFFFFFFFFFFFFFFFF DUP3 AND SWAP1 POP SWAP2 SWAP1 POP JUMP JUMPDEST PUSH0 PUSH2 0xE6D DUP3 PUSH2 0xE44 JUMP JUMPDEST SWAP1 POP SWAP2 SWAP1 POP JUMP JUMPDEST PUSH2 0xE7D DUP2 PUSH2 0xE63 JUMP JUMPDEST DUP3 MSTORE POP POP JUMP JUMPDEST PUSH0 DUP2 SWAP1 POP SWAP2 SWAP1 POP JUMP JUMPDEST PUSH2 0xE95 DUP2 PUSH2 0xE83 JUMP JUMPDEST DUP3 MSTORE POP POP JUMP JUMPDEST PUSH1 0x40 DUP3 ADD PUSH0 DUP3 ADD MLOAD PUSH2 0xEAF PUSH0 DUP6 ADD DUP3 PUSH2 0xE74 JUMP JUMPDEST POP PUSH1 0x20 DUP3 ADD MLOAD PUSH2 0xEC2 PUSH1 0x20 DUP6 ADD DUP3 PUSH2 0xE8C JUMP JUMPDEST POP POP POP POP JUMP JUMPDEST PUSH0 PUSH2 0xED3 DUP4 DUP4 PUSH2 0xE9B JUMP JUMPDEST PUSH1 0x40 DUP4 ADD SWAP1 POP SWAP3 SWAP2 POP POP JUMP JUMPDEST PUSH0 PUSH1 0x20 DUP3 ADD SWAP1 POP SWAP2 SWAP1 POP JUMP JUMPDEST PUSH0 PUSH2 0xEF5 DUP3 PUSH2 0xE1B JUMP JUMPDEST PUSH2 0xEFF DUP2 DUP6 PUSH2 0xE25 JUMP JUMPDEST SWAP4 POP PUSH2 0xF0A DUP4 PUSH2 0xE35 JUMP JUMPDEST DUP1 PUSH0 JUMPDEST DUP4 DUP2 LT ISZERO PUSH2 0xF3A JUMPI DUP2 MLOAD PUSH2 0xF21 DUP9 DUP3 PUSH2 0xEC8 JUMP JUMPDEST SWAP8 POP PUSH2 0xF2C DUP4 PUSH2 0xEDF JUMP JUMPDEST SWAP3 POP POP PUSH1 0x1 DUP2 ADD SWAP1 POP PUSH2 0xF0D JUMP JUMPDEST POP DUP6 SWAP4 POP POP POP POP SWAP3 SWAP2 POP POP JUMP JUMPDEST PUSH0 PUSH1 0x20 DUP3 ADD SWAP1 POP DUP2 DUP2 SUB PUSH0 DUP4 ADD MSTORE PUSH2 0xF5F DUP2 DUP5 PUSH2 0xEEB JUMP JUMPDEST SWAP1 POP SWAP3 SWAP2 POP POP JUMP JUMPDEST PUSH2 0xF70 DUP2 PUSH2 0xE83 JUMP JUMPDEST DUP3 MSTORE POP POP JUMP JUMPDEST PUSH0 PUSH1 0x20 DUP3 ADD SWAP1 POP PUSH2 0xF89 PUSH0 DUP4 ADD DUP5 PUSH2 0xF67 JUMP JUMPDEST SWAP3 SWAP2 POP POP JUMP JUMPDEST PUSH0 PUSH1 0xFF DUP3 AND SWAP1 POP SWAP2 SWAP1 POP JUMP JUMPDEST PUSH2 0xFA4 DUP2 PUSH2 0xF8F JUMP JUMPDEST DUP3 MSTORE POP POP JUMP JUMPDEST PUSH0 PUSH1 0x20 DUP3 ADD SWAP1 POP PUSH2 0xFBD PUSH0 DUP4 ADD DUP5 PUSH2 0xF9B JUMP JUMPDEST SWAP3 SWAP2 POP POP JUMP JUMPDEST PUSH2 0xFCC DUP2 PUSH2 0xE63 JUMP JUMPDEST DUP3 MSTORE POP POP JUMP JUMPDEST PUSH0 PUSH1 0x20 DUP3 ADD SWAP1 POP PUSH2 0xFE5 PUSH0 DUP4 ADD DUP5 PUSH2 0xFC3 JUMP JUMPDEST SWAP3 SWAP2 POP POP JUMP JUMPDEST PUSH0 DUP2 ISZERO ISZERO SWAP1 POP SWAP2 SWAP1 POP JUMP JUMPDEST PUSH2 0xFFF DUP2 PUSH2 0xFEB JUMP JUMPDEST DUP3 MSTORE POP POP JUMP JUMPDEST PUSH0 PUSH1 0x20 DUP3 ADD SWAP1 POP PUSH2 0x1018 PUSH0 DUP4 ADD DUP5 PUSH2 0xFF6 JUMP JUMPDEST SWAP3 SWAP2 POP POP JUMP JUMPDEST PUSH0 PUSH4 0xFFFFFFFF DUP3 AND SWAP1 POP SWAP2 SWAP1 POP JUMP JUMPDEST PUSH2 0x1036 DUP2 PUSH2 0x101E JUMP JUMPDEST DUP3 MSTORE POP POP JUMP JUMPDEST PUSH0 PUSH1 0x20 DUP3 ADD SWAP1 POP PUSH2 0x104F PUSH0 DUP4 ADD DUP5 PUSH2 0x102D JUMP JUMPDEST SWAP3 SWAP2 POP POP JUMP JUMPDEST PUSH0 DUP1 REVERT JUMPDEST PUSH2 0x1062 DUP2 PUSH2 0xE83 JUMP JUMPDEST DUP2 EQ PUSH2 0x106C JUMPI PUSH0 DUP1 REVERT JUMPDEST POP JUMP JUMPDEST PUSH0 DUP2 CALLDATALOAD SWAP1 POP PUSH2 0x107D DUP2 PUSH2 0x1059 JUMP JUMPDEST SWAP3 SWAP2 POP POP JUMP JUMPDEST PUSH0 PUSH1 0x20 DUP3 DUP5 SUB SLT ISZERO PUSH2 0x1098 JUMPI PUSH2 0x1097 PUSH2 0x1055 JUMP JUMPDEST JUMPDEST PUSH0 PUSH2 0x10A5 DUP5 DUP3 DUP6 ADD PUSH2 0x106F JUMP JUMPDEST SWAP2 POP POP SWAP3 SWAP2 POP POP JUMP JUMPDEST PUSH0 PUSH1 0x40 DUP3 ADD SWAP1 POP PUSH2 0x10C1 PUSH0 DUP4 ADD DUP6 PUSH2 0xFC3 JUMP JUMPDEST PUSH2 0x10CE PUSH1 0x20 DUP4 ADD DUP5 PUSH2 0xF67 JUMP JUMPDEST SWAP4 SWAP3 POP POP POP JUMP JUMPDEST PUSH0 DUP3 DUP3 MSTORE PUSH1 0x20 DUP3 ADD SWAP1 POP SWAP3 SWAP2 POP POP JUMP JUMPDEST PUSH32 0x5468652061756374696F6E206973206E6F742061637469766500000000000000 PUSH0 DUP3 ADD MSTORE POP JUMP JUMPDEST PUSH0 PUSH2 0x1119 PUSH1 0x19 DUP4 PUSH2 0x10D5 JUMP JUMPDEST SWAP2 POP PUSH2 0x1124 DUP3 PUSH2 0x10E5 JUMP JUMPDEST PUSH1 0x20 DUP3 ADD SWAP1 POP SWAP2 SWAP1 POP JUMP JUMPDEST PUSH0 PUSH1 0x20 DUP3 ADD SWAP1 POP DUP2 DUP2 SUB PUSH0 DUP4 ADD MSTORE PUSH2 0x1146 DUP2 PUSH2 0x110D JUMP JUMPDEST SWAP1 POP SWAP2 SWAP1 POP JUMP JUMPDEST PUSH32 0x4E487B7100000000000000000000000000000000000000000000000000000000 PUSH0 MSTORE PUSH1 0x12 PUSH1 0x4 MSTORE PUSH1 0x24 PUSH0 REVERT JUMPDEST PUSH32 0x4E487B7100000000000000000000000000000000000000000000000000000000 PUSH0 MSTORE PUSH1 0x11 PUSH1 0x4 MSTORE PUSH1 0x24 PUSH0 REVERT JUMPDEST PUSH0 PUSH2 0x11B1 DUP3 PUSH2 0xE83 JUMP JUMPDEST SWAP2 POP PUSH2 0x11BC DUP4 PUSH2 0xE83 JUMP JUMPDEST SWAP3 POP DUP3 PUSH2 0x11CC JUMPI PUSH2 0x11CB PUSH2 0x114D JUMP JUMPDEST JUMPDEST DUP3 DUP3 DIV SWAP1 POP SWAP3 SWAP2 POP POP JUMP JUMPDEST PUSH0 PUSH2 0x11E1 DUP3 PUSH2 0xE83 JUMP JUMPDEST SWAP2 POP PUSH2 0x11EC DUP4 PUSH2 0xE83 JUMP JUMPDEST SWAP3 POP DUP3 DUP3 MUL PUSH2 0x11FA DUP2 PUSH2 0xE83 JUMP JUMPDEST SWAP2 POP DUP3 DUP3 DIV DUP5 EQ DUP4 ISZERO OR PUSH2 0x1211 JUMPI PUSH2 0x1210 PUSH2 0x117A JUMP JUMPDEST JUMPDEST POP SWAP3 SWAP2 POP POP JUMP JUMPDEST PUSH32 0x54686520626964206D757374206265206174206C656173742035252068696768 PUSH0 DUP3 ADD MSTORE PUSH32 0x6572207468616E207468652063757272656E7420626964000000000000000000 PUSH1 0x20 DUP3 ADD MSTORE POP JUMP JUMPDEST PUSH0 PUSH2 0x1272 PUSH1 0x37 DUP4 PUSH2 0x10D5 JUMP JUMPDEST SWAP2 POP PUSH2 0x127D DUP3 PUSH2 0x1218 JUMP JUMPDEST PUSH1 0x40 DUP3 ADD SWAP1 POP SWAP2 SWAP1 POP JUMP JUMPDEST PUSH0 PUSH1 0x20 DUP3 ADD SWAP1 POP DUP2 DUP2 SUB PUSH0 DUP4 ADD MSTORE PUSH2 0x129F DUP2 PUSH2 0x1266 JUMP JUMPDEST SWAP1 POP SWAP2 SWAP1 POP JUMP JUMPDEST PUSH32 0x5468652061756374696F6E2068617320656E6465640000000000000000000000 PUSH0 DUP3 ADD MSTORE POP JUMP JUMPDEST PUSH0 PUSH2 0x12DA PUSH1 0x15 DUP4 PUSH2 0x10D5 JUMP JUMPDEST SWAP2 POP PUSH2 0x12E5 DUP3 PUSH2 0x12A6 JUMP JUMPDEST PUSH1 0x20 DUP3 ADD SWAP1 POP SWAP2 SWAP1 POP JUMP JUMPDEST PUSH0 PUSH1 0x20 DUP3 ADD SWAP1 POP DUP2 DUP2 SUB PUSH0 DUP4 ADD MSTORE PUSH2 0x1307 DUP2 PUSH2 0x12CE JUMP JUMPDEST SWAP1 POP SWAP2 SWAP1 POP JUMP JUMPDEST PUSH0 PUSH2 0x1318 DUP3 PUSH2 0xE83 JUMP JUMPDEST SWAP2 POP PUSH2 0x1323 DUP4 PUSH2 0xE83 JUMP JUMPDEST SWAP3 POP DUP3 DUP3 ADD SWAP1 POP DUP1 DUP3 GT ISZERO PUSH2 0x133B JUMPI PUSH2 0x133A PUSH2 0x117A JUMP JUMPDEST JUMPDEST SWAP3 SWAP2 POP POP JUMP JUMPDEST PUSH32 0x4F6E6C79207468652061756374696F6E6565722063616E206578656375746520 PUSH0 DUP3 ADD MSTORE PUSH32 0x746869732066756E6374696F6E00000000000000000000000000000000000000 PUSH1 0x20 DUP3 ADD MSTORE POP JUMP JUMPDEST PUSH0 PUSH2 0x139B PUSH1 0x2D DUP4 PUSH2 0x10D5 JUMP JUMPDEST SWAP2 POP PUSH2 0x13A6 DUP3 PUSH2 0x1341 JUMP JUMPDEST PUSH1 0x40 DUP3 ADD SWAP1 POP SWAP2 SWAP1 POP JUMP JUMPDEST PUSH0 PUSH1 0x20 DUP3 ADD SWAP1 POP DUP2 DUP2 SUB PUSH0 DUP4 ADD MSTORE PUSH2 0x13C8 DUP2 PUSH2 0x138F JUMP JUMPDEST SWAP1 POP SWAP2 SWAP1 POP JUMP JUMPDEST PUSH32 0x5468652061756374696F6E206973207374696C6C206163746976650000000000 PUSH0 DUP3 ADD MSTORE POP JUMP JUMPDEST PUSH0 PUSH2 0x1403 PUSH1 0x1B DUP4 PUSH2 0x10D5 JUMP JUMPDEST SWAP2 POP PUSH2 0x140E DUP3 PUSH2 0x13CF JUMP JUMPDEST PUSH1 0x20 DUP3 ADD SWAP1 POP SWAP2 SWAP1 POP JUMP JUMPDEST PUSH0 PUSH1 0x20 DUP3 ADD SWAP1 POP DUP2 DUP2 SUB PUSH0 DUP4 ADD MSTORE PUSH2 0x1430 DUP2 PUSH2 0x13F7 JUMP JUMPDEST SWAP1 POP SWAP2 SWAP1 POP JUMP JUMPDEST PUSH0 PUSH2 0x1441 DUP3 PUSH2 0xE83 JUMP JUMPDEST SWAP2 POP PUSH2 0x144C DUP4 PUSH2 0xE83 JUMP JUMPDEST SWAP3 POP DUP3 DUP3 SUB SWAP1 POP DUP2 DUP2 GT ISZERO PUSH2 0x1464 JUMPI PUSH2 0x1463 PUSH2 0x117A JUMP JUMPDEST JUMPDEST SWAP3 SWAP2 POP POP JUMP JUMPDEST PUSH32 0x4E487B7100000000000000000000000000000000000000000000000000000000 PUSH0 MSTORE PUSH1 0x32 PUSH1 0x4 MSTORE PUSH1 0x24 PUSH0 REVERT JUMPDEST PUSH0 PUSH2 0x14A1 DUP3 PUSH2 0xF8F JUMP JUMPDEST SWAP2 POP PUSH2 0x14AC DUP4 PUSH2 0xF8F JUMP JUMPDEST SWAP3 POP DUP3 DUP3 SUB SWAP1 POP PUSH1 0xFF DUP2 GT ISZERO PUSH2 0x14C5 JUMPI PUSH2 0x14C4 PUSH2 0x117A JUMP JUMPDEST JUMPDEST SWAP3 SWAP2 POP POP JUMP JUMPDEST PUSH0 DUP2 SWAP1 POP SWAP3 SWAP2 POP POP JUMP JUMPDEST POP JUMP JUMPDEST PUSH0 PUSH2 0x14E3 PUSH0 DUP4 PUSH2 0x14CB JUMP JUMPDEST SWAP2 POP PUSH2 0x14EE DUP3 PUSH2 0x14D5 JUMP JUMPDEST PUSH0 DUP3 ADD SWAP1 POP SWAP2 SWAP1 POP JUMP JUMPDEST PUSH0 PUSH2 0x1502 DUP3 PUSH2 0x14D8 JUMP JUMPDEST SWAP2 POP DUP2 SWAP1 POP SWAP2 SWAP1 POP JUMP JUMPDEST PUSH32 0x526566756E6420746F20626964646572206661696C6564000000000000000000 PUSH0 DUP3 ADD MSTORE POP JUMP JUMPDEST PUSH0 PUSH2 0x1540 PUSH1 0x17 DUP4 PUSH2 0x10D5 JUMP JUMPDEST SWAP2 POP PUSH2 0x154B DUP3 PUSH2 0x150C JUMP JUMPDEST PUSH1 0x20 DUP3 ADD SWAP1 POP SWAP2 SWAP1 POP JUMP JUMPDEST PUSH0 PUSH1 0x20 DUP3 ADD SWAP1 POP DUP2 DUP2 SUB PUSH0 DUP4 ADD MSTORE PUSH2 0x156D DUP2 PUSH2 0x1534 JUMP JUMPDEST SWAP1 POP SWAP2 SWAP1 POP JUMP JUMPDEST PUSH32 0x5468657265206973206E6F7468696E6720746F20776974686472617700000000 PUSH0 DUP3 ADD MSTORE POP JUMP JUMPDEST PUSH0 PUSH2 0x15A8 PUSH1 0x1C DUP4 PUSH2 0x10D5 JUMP JUMPDEST SWAP2 POP PUSH2 0x15B3 DUP3 PUSH2 0x1574 JUMP JUMPDEST PUSH1 0x20 DUP3 ADD SWAP1 POP SWAP2 SWAP1 POP JUMP JUMPDEST PUSH0 PUSH1 0x20 DUP3 ADD SWAP1 POP DUP2 DUP2 SUB PUSH0 DUP4 ADD MSTORE PUSH2 0x15D5 DUP2 PUSH2 0x159C JUMP JUMPDEST SWAP1 POP SWAP2 SWAP1 POP JUMP JUMPDEST PUSH32 0x5468652061756374696F6E20686173206E6F7420656E64656400000000000000 PUSH0 DUP3 ADD MSTORE POP JUMP JUMPDEST PUSH0 PUSH2 0x1610 PUSH1 0x19 DUP4 PUSH2 0x10D5 JUMP JUMPDEST SWAP2 POP PUSH2 0x161B DUP3 PUSH2 0x15DC JUMP JUMPDEST PUSH1 0x20 DUP3 ADD SWAP1 POP SWAP2 SWAP1 POP JUMP JUMPDEST PUSH0 PUSH1 0x20 DUP3 ADD SWAP1 POP DUP2 DUP2 SUB PUSH0 DUP4 ADD MSTORE PUSH2 0x163D DUP2 PUSH2 0x1604 JUMP JUMPDEST SWAP1 POP SWAP2 SWAP1 POP JUMP JUMPDEST PUSH32 0x5472616E7366657220746F2061756374696F6E656572206661696C6564000000 PUSH0 DUP3 ADD MSTORE POP JUMP JUMPDEST PUSH0 PUSH2 0x1678 PUSH1 0x1D DUP4 PUSH2 0x10D5 JUMP JUMPDEST SWAP2 POP PUSH2 0x1683 DUP3 PUSH2 0x1644 JUMP JUMPDEST PUSH1 0x20 DUP3 ADD SWAP1 POP SWAP2 SWAP1 POP JUMP JUMPDEST PUSH0 PUSH1 0x20 DUP3 ADD SWAP1 POP DUP2 DUP2 SUB PUSH0 DUP4 ADD MSTORE PUSH2 0x16A5 DUP2 PUSH2 0x166C JUMP JUMPDEST SWAP1 POP SWAP2 SWAP1 POP JUMP INVALID LOG2 PUSH5 0x6970667358 0x22 SLT KECCAK256 0xC0 SWAP16 DUP1 0xF9 0xB5 GASLIMIT 0xCE 0xEE CALL PUSH30 0x76CDD3F78BD76574494CCEAABC51CA40DAF5B957F71664736F6C63430008 BYTE STOP CALLER "
				},
				"gasEstimates": {
					"creation": {
						"codeDepositCost": "1171600",
						"executionCost": "infinite",
						"totalCost": "infinite"
					},
					"external": {
						"auctionActive()": "2562",
						"auctioneer()": "2594",
						"bid()": "infinite",
						"bidHistory(uint256)": "infinite",
						"endAuction()": "infinite",
						"endTime()": "2470",
						"extensionPeriod()": "2533",
						"gasCommission()": "2533",
						"getMaxBidGwei()": "infinite",
						"minimumBidGwei()": "2469",
						"partialWithdraw()": "infinite",
						"refundDeposits()": "infinite",
						"showBids()": "infinite"
					}
				},
				"methodIdentifiers": {
					"auctionActive()": "92228006",
					"auctioneer()": "5ec2c7bf",
					"bid()": "1998aeef",
					"bidHistory(uint256)": "ecde973d",
					"endAuction()": "fe67a54b",
					"endTime()": "3197cbb6",
					"extensionPeriod()": "dedfab72",
					"gasCommission()": "37072780",
					"getMaxBidGwei()": "91f74900",
					"minimumBidGwei()": "f1b05435",
					"partialWithdraw()": "f90ca117",
					"refundDeposits()": "6773fd77",
					"showBids()": "14d2687c"
				}
			},
			"storageLayout": {
				"storage": [
					{
						"astId": 9,
						"contract": "subasta9.sol:AuctionSergiooo",
						"label": "auctioneer",
						"offset": 0,
						"slot": "0",
						"type": "t_address"
					},
					{
						"astId": 11,
						"contract": "subasta9.sol:AuctionSergiooo",
						"label": "endTime",
						"offset": 0,
						"slot": "1",
						"type": "t_uint256"
					},
					{
						"astId": 14,
						"contract": "subasta9.sol:AuctionSergiooo",
						"label": "extensionPeriod",
						"offset": 0,
						"slot": "2",
						"type": "t_uint32"
					},
					{
						"astId": 16,
						"contract": "subasta9.sol:AuctionSergiooo",
						"label": "minimumBidGwei",
						"offset": 0,
						"slot": "3",
						"type": "t_uint256"
					},
					{
						"astId": 19,
						"contract": "subasta9.sol:AuctionSergiooo",
						"label": "gasCommission",
						"offset": 0,
						"slot": "4",
						"type": "t_uint8"
					},
					{
						"astId": 21,
						"contract": "subasta9.sol:AuctionSergiooo",
						"label": "auctionActive",
						"offset": 1,
						"slot": "4",
						"type": "t_bool"
					},
					{
						"astId": 25,
						"contract": "subasta9.sol:AuctionSergiooo",
						"label": "bidHistory",
						"offset": 0,
						"slot": "5",
						"type": "t_array(t_struct(Bid)7_storage)dyn_storage"
					}
				],
				"types": {
					"t_address": {
						"encoding": "inplace",
						"label": "address",
						"numberOfBytes": "20"
					},
					"t_array(t_struct(Bid)7_storage)dyn_storage": {
						"base": "t_struct(Bid)7_storage",
						"encoding": "dynamic_array",
						"label": "struct AuctionSergiooo.Bid[]",
						"numberOfBytes": "32"
					},
					"t_bool": {
						"encoding": "inplace",
						"label": "bool",
						"numberOfBytes": "1"
					},
					"t_struct(Bid)7_storage": {
						"encoding": "inplace",
						"label": "struct AuctionSergiooo.Bid",
						"members": [
							{
								"astId": 4,
								"contract": "subasta9.sol:AuctionSergiooo",
								"label": "bidder",
								"offset": 0,
								"slot": "0",
								"type": "t_address"
							},
							{
								"astId": 6,
								"contract": "subasta9.sol:AuctionSergiooo",
								"label": "amountGwei",
								"offset": 0,
								"slot": "1",
								"type": "t_uint256"
							}
						],
						"numberOfBytes": "64"
					},
					"t_uint256": {
						"encoding": "inplace",
						"label": "uint256",
						"numberOfBytes": "32"
					},
					"t_uint32": {
						"encoding": "inplace",
						"label": "uint32",
						"numberOfBytes": "4"
					},
					"t_uint8": {
						"encoding": "inplace",
						"label": "uint8",
						"numberOfBytes": "1"
					}
				}
			},
			"userdoc": {
				"kind": "user",
				"methods": {},
				"notice": "This contract allows for the creation of an auction where participants can place bids in gwei only.",
				"version": 1
			}
		}
	}
}