{
	"subasta5.sol": {
		"Subasta": {
			"abi": [
				{
					"inputs": [],
					"stateMutability": "nonpayable",
					"type": "constructor"
				},
				{
					"anonymous": false,
					"inputs": [
						{
							"indexed": false,
							"internalType": "address",
							"name": "ofertante",
							"type": "address"
						},
						{
							"indexed": false,
							"internalType": "uint256",
							"name": "cantidad",
							"type": "uint256"
						}
					],
					"name": "NuevaOferta",
					"type": "event"
				},
				{
					"anonymous": false,
					"inputs": [
						{
							"indexed": false,
							"internalType": "address",
							"name": "ganador",
							"type": "address"
						},
						{
							"indexed": false,
							"internalType": "uint256",
							"name": "cantidadGanadora",
							"type": "uint256"
						}
					],
					"name": "SubastaFinalizada",
					"type": "event"
				},
				{
					"inputs": [],
					"name": "activa",
					"outputs": [
						{
							"internalType": "bool",
							"name": "",
							"type": "bool"
						}
					],
					"stateMutability": "view",
					"type": "function"
				},
				{
					"inputs": [],
					"name": "comision",
					"outputs": [
						{
							"internalType": "uint256",
							"name": "",
							"type": "uint256"
						}
					],
					"stateMutability": "view",
					"type": "function"
				},
				{
					"inputs": [
						{
							"internalType": "address",
							"name": "",
							"type": "address"
						}
					],
					"name": "depositos",
					"outputs": [
						{
							"internalType": "uint256",
							"name": "",
							"type": "uint256"
						}
					],
					"stateMutability": "view",
					"type": "function"
				},
				{
					"inputs": [],
					"name": "duracionSubasta",
					"outputs": [
						{
							"internalType": "uint256",
							"name": "",
							"type": "uint256"
						}
					],
					"stateMutability": "view",
					"type": "function"
				},
				{
					"inputs": [],
					"name": "finalizarSubasta",
					"outputs": [],
					"stateMutability": "nonpayable",
					"type": "function"
				},
				{
					"inputs": [],
					"name": "mostrarGanador",
					"outputs": [
						{
							"internalType": "address",
							"name": "ganador",
							"type": "address"
						},
						{
							"internalType": "uint256",
							"name": "cantidadGanadora",
							"type": "uint256"
						}
					],
					"stateMutability": "view",
					"type": "function"
				},
				{
					"inputs": [],
					"name": "mostrarOfertas",
					"outputs": [
						{
							"components": [
								{
									"internalType": "address",
									"name": "ofertante",
									"type": "address"
								},
								{
									"internalType": "uint256",
									"name": "cantidad",
									"type": "uint256"
								}
							],
							"internalType": "struct Subasta.Oferta[]",
							"name": "",
							"type": "tuple[]"
						}
					],
					"stateMutability": "view",
					"type": "function"
				},
				{
					"inputs": [],
					"name": "ofertaInicial",
					"outputs": [
						{
							"internalType": "uint256",
							"name": "",
							"type": "uint256"
						}
					],
					"stateMutability": "view",
					"type": "function"
				},
				{
					"inputs": [],
					"name": "ofertar",
					"outputs": [],
					"stateMutability": "payable",
					"type": "function"
				},
				{
					"inputs": [
						{
							"internalType": "uint256",
							"name": "",
							"type": "uint256"
						}
					],
					"name": "ofertas",
					"outputs": [
						{
							"internalType": "address",
							"name": "ofertante",
							"type": "address"
						},
						{
							"internalType": "uint256",
							"name": "cantidad",
							"type": "uint256"
						}
					],
					"stateMutability": "view",
					"type": "function"
				},
				{
					"inputs": [],
					"name": "porcentajeIncremento",
					"outputs": [
						{
							"internalType": "uint256",
							"name": "",
							"type": "uint256"
						}
					],
					"stateMutability": "view",
					"type": "function"
				},
				{
					"inputs": [],
					"name": "reembolsarOfertantes",
					"outputs": [],
					"stateMutability": "nonpayable",
					"type": "function"
				},
				{
					"inputs": [],
					"name": "retirarDeposito",
					"outputs": [],
					"stateMutability": "nonpayable",
					"type": "function"
				},
				{
					"inputs": [],
					"name": "retiroParcial",
					"outputs": [],
					"stateMutability": "nonpayable",
					"type": "function"
				},
				{
					"inputs": [],
					"name": "subastador",
					"outputs": [
						{
							"internalType": "address",
							"name": "",
							"type": "address"
						}
					],
					"stateMutability": "view",
					"type": "function"
				},
				{
					"inputs": [],
					"name": "tiempoFinal",
					"outputs": [
						{
							"internalType": "uint256",
							"name": "",
							"type": "uint256"
						}
					],
					"stateMutability": "view",
					"type": "function"
				}
			],
			"devdoc": {
				"kind": "dev",
				"methods": {},
				"version": 1
			},
			"evm": {
				"assembly": "    /* \"subasta5.sol\":60:4426  contract Subasta {... */\n  mstore(0x40, 0x80)\n    /* \"subasta5.sol\":176:189  1 * 1 minutes */\n  0x3c\n    /* \"subasta5.sol\":146:189  uint public duracionSubasta = 1 * 1 minutes */\n  0x02\n  sstore\n    /* \"subasta5.sol\":231:232  5 */\n  0x05\n    /* \"subasta5.sol\":196:232  uint public porcentajeIncremento = 5 */\n  0x03\n  sstore\n    /* \"subasta5.sol\":290:291  2 */\n  0x02\n    /* \"subasta5.sol\":267:291  uint public comision = 2 */\n  0x04\n  sstore\n    /* \"subasta5.sol\":365:369  true */\n  0x01\n    /* \"subasta5.sol\":344:369  bool public activa = true */\n  0x05\n  exp(0x0100, 0x00)\n  dup2\n  sload\n  dup2\n  0xff\n  mul\n  not\n  and\n  swap1\n  dup4\n  iszero\n  iszero\n  mul\n  or\n  swap1\n  sstore\n  pop\n    /* \"subasta5.sol\":404:411  1 ether */\n  0x0de0b6b3a7640000\n    /* \"subasta5.sol\":376:411  uint public ofertaInicial = 1 ether */\n  0x06\n  sstore\n    /* \"subasta5.sol\":712:932  constructor() {... */\n  callvalue\n  dup1\n  iszero\n  tag_1\n  jumpi\n  0x00\n  dup1\n  revert\ntag_1:\n  pop\n    /* \"subasta5.sol\":750:760  msg.sender */\n  caller\n    /* \"subasta5.sol\":737:747  subastador */\n  0x00\n  dup1\n    /* \"subasta5.sol\":737:760  subastador = msg.sender */\n  0x0100\n  exp\n  dup2\n  sload\n  dup2\n  0xffffffffffffffffffffffffffffffffffffffff\n  mul\n  not\n  and\n  swap1\n  dup4\n  0xffffffffffffffffffffffffffffffffffffffff\n  and\n  mul\n  or\n  swap1\n  sstore\n  pop\n    /* \"subasta5.sol\":803:818  duracionSubasta */\n  sload(0x02)\n    /* \"subasta5.sol\":785:800  block.timestamp */\n  timestamp\n    /* \"subasta5.sol\":785:818  block.timestamp + duracionSubasta */\n  tag_4\n  swap2\n  swap1\n  tag_5\n  jump\t// in\ntag_4:\n    /* \"subasta5.sol\":771:782  tiempoFinal */\n  0x01\n    /* \"subasta5.sol\":771:818  tiempoFinal = block.timestamp + duracionSubasta */\n  dup2\n  swap1\n  sstore\n  pop\n    /* \"subasta5.sol\":829:836  ofertas */\n  0x07\n    /* \"subasta5.sol\":842:875  Oferta(subastador, ofertaInicial) */\n  mload(0x40)\n  dup1\n  0x40\n  add\n  0x40\n  mstore\n  dup1\n    /* \"subasta5.sol\":849:859  subastador */\n  0x00\n  dup1\n  sload\n  swap1\n  0x0100\n  exp\n  swap1\n  div\n  0xffffffffffffffffffffffffffffffffffffffff\n  and\n    /* \"subasta5.sol\":842:875  Oferta(subastador, ofertaInicial) */\n  0xffffffffffffffffffffffffffffffffffffffff\n  and\n  dup2\n  mstore\n  0x20\n  add\n    /* \"subasta5.sol\":861:874  ofertaInicial */\n  sload(0x06)\n    /* \"subasta5.sol\":842:875  Oferta(subastador, ofertaInicial) */\n  dup2\n  mstore\n  pop\n    /* \"subasta5.sol\":829:876  ofertas.push(Oferta(subastador, ofertaInicial)) */\n  swap1\n  dup1\n  0x01\n  dup2\n  sload\n  add\n  dup1\n  dup3\n  sstore\n  dup1\n  swap2\n  pop\n  pop\n  0x01\n  swap1\n  sub\n  swap1\n  0x00\n  mstore\n  keccak256(0x00, 0x20)\n  swap1\n  0x02\n  mul\n  add\n  0x00\n  swap1\n  swap2\n  swap1\n  swap2\n  swap1\n  swap2\n  pop\n  0x00\n  dup3\n  add\n  mload\n  dup2\n  0x00\n  add\n  exp(0x0100, 0x00)\n  dup2\n  sload\n  dup2\n  0xffffffffffffffffffffffffffffffffffffffff\n  mul\n  not\n  and\n  swap1\n  dup4\n  0xffffffffffffffffffffffffffffffffffffffff\n  and\n  mul\n  or\n  swap1\n  sstore\n  pop\n  0x20\n  dup3\n  add\n  mload\n  dup2\n  0x01\n  add\n  sstore\n  pop\n  pop\n    /* \"subasta5.sol\":911:924  ofertaInicial */\n  sload(0x06)\n    /* \"subasta5.sol\":887:896  depositos */\n  0x08\n    /* \"subasta5.sol\":887:908  depositos[subastador] */\n  0x00\n    /* \"subasta5.sol\":897:907  subastador */\n  dup1\n  0x00\n  swap1\n  sload\n  swap1\n  0x0100\n  exp\n  swap1\n  div\n  0xffffffffffffffffffffffffffffffffffffffff\n  and\n    /* \"subasta5.sol\":887:908  depositos[subastador] */\n  0xffffffffffffffffffffffffffffffffffffffff\n  and\n  0xffffffffffffffffffffffffffffffffffffffff\n  and\n  dup2\n  mstore\n  0x20\n  add\n  swap1\n  dup2\n  mstore\n  0x20\n  add\n  0x00\n  keccak256\n    /* \"subasta5.sol\":887:924  depositos[subastador] = ofertaInicial */\n  dup2\n  swap1\n  sstore\n  pop\n    /* \"subasta5.sol\":60:4426  contract Subasta {... */\n  jump(tag_7)\n    /* \"#utility.yul\":7:84   */\ntag_8:\n    /* \"#utility.yul\":44:51   */\n  0x00\n    /* \"#utility.yul\":73:78   */\n  dup2\n    /* \"#utility.yul\":62:78   */\n  swap1\n  pop\n    /* \"#utility.yul\":7:84   */\n  swap2\n  swap1\n  pop\n  jump\t// out\n    /* \"#utility.yul\":90:270   */\ntag_9:\n    /* \"#utility.yul\":138:215   */\n  0x4e487b7100000000000000000000000000000000000000000000000000000000\n    /* \"#utility.yul\":135:136   */\n  0x00\n    /* \"#utility.yul\":128:216   */\n  mstore\n    /* \"#utility.yul\":235:239   */\n  0x11\n    /* \"#utility.yul\":232:233   */\n  0x04\n    /* \"#utility.yul\":225:240   */\n  mstore\n    /* \"#utility.yul\":259:263   */\n  0x24\n    /* \"#utility.yul\":256:257   */\n  0x00\n    /* \"#utility.yul\":249:264   */\n  revert\n    /* \"#utility.yul\":276:467   */\ntag_5:\n    /* \"#utility.yul\":316:319   */\n  0x00\n    /* \"#utility.yul\":335:355   */\n  tag_14\n    /* \"#utility.yul\":353:354   */\n  dup3\n    /* \"#utility.yul\":335:355   */\n  tag_8\n  jump\t// in\ntag_14:\n    /* \"#utility.yul\":330:355   */\n  swap2\n  pop\n    /* \"#utility.yul\":369:389   */\n  tag_15\n    /* \"#utility.yul\":387:388   */\n  dup4\n    /* \"#utility.yul\":369:389   */\n  tag_8\n  jump\t// in\ntag_15:\n    /* \"#utility.yul\":364:389   */\n  swap3\n  pop\n    /* \"#utility.yul\":412:413   */\n  dup3\n    /* \"#utility.yul\":409:410   */\n  dup3\n    /* \"#utility.yul\":405:414   */\n  add\n    /* \"#utility.yul\":398:414   */\n  swap1\n  pop\n    /* \"#utility.yul\":433:436   */\n  dup1\n    /* \"#utility.yul\":430:431   */\n  dup3\n    /* \"#utility.yul\":427:437   */\n  gt\n    /* \"#utility.yul\":424:460   */\n  iszero\n  tag_16\n  jumpi\n    /* \"#utility.yul\":440:458   */\n  tag_17\n  tag_9\n  jump\t// in\ntag_17:\n    /* \"#utility.yul\":424:460   */\ntag_16:\n    /* \"#utility.yul\":276:467   */\n  swap3\n  swap2\n  pop\n  pop\n  jump\t// out\n    /* \"subasta5.sol\":60:4426  contract Subasta {... */\ntag_7:\n  dataSize(sub_0)\n  dup1\n  dataOffset(sub_0)\n  0x00\n  codecopy\n  0x00\n  return\nstop\n\nsub_0: assembly {\n        /* \"subasta5.sol\":60:4426  contract Subasta {... */\n      mstore(0x40, 0x80)\n      jumpi(tag_1, lt(calldatasize, 0x04))\n      shr(0xe0, calldataload(0x00))\n      dup1\n      0x753dcaeb\n      gt\n      tag_18\n      jumpi\n      dup1\n      0xc442a99f\n      gt\n      tag_19\n      jumpi\n      dup1\n      0xc442a99f\n      eq\n      tag_14\n      jumpi\n      dup1\n      0xc63049f8\n      eq\n      tag_15\n      jumpi\n      dup1\n      0xcc14e31f\n      eq\n      tag_16\n      jumpi\n      dup1\n      0xd1d7e96c\n      eq\n      tag_17\n      jumpi\n      jump(tag_1)\n    tag_19:\n      dup1\n      0x753dcaeb\n      eq\n      tag_10\n      jumpi\n      dup1\n      0x9528a4bd\n      eq\n      tag_11\n      jumpi\n      dup1\n      0xa05d3ddc\n      eq\n      tag_12\n      jumpi\n      dup1\n      0xb53627b2\n      eq\n      tag_13\n      jumpi\n      jump(tag_1)\n    tag_18:\n      dup1\n      0x51f4d7da\n      gt\n      tag_20\n      jumpi\n      dup1\n      0x51f4d7da\n      eq\n      tag_6\n      jumpi\n      dup1\n      0x56afff7c\n      eq\n      tag_7\n      jumpi\n      dup1\n      0x664e62b9\n      eq\n      tag_8\n      jumpi\n      dup1\n      0x71ea6d33\n      eq\n      tag_9\n      jumpi\n      jump(tag_1)\n    tag_20:\n      dup1\n      0x0851eac2\n      eq\n      tag_2\n      jumpi\n      dup1\n      0x2c5e5471\n      eq\n      tag_3\n      jumpi\n      dup1\n      0x3dfa138d\n      eq\n      tag_4\n      jumpi\n      dup1\n      0x3ec059d7\n      eq\n      tag_5\n      jumpi\n    tag_1:\n      0x00\n      dup1\n      revert\n        /* \"subasta5.sol\":2161:2515  function finalizarSubasta() external soloSubastador soloDuranteSubastaActiva {... */\n    tag_2:\n      callvalue\n      dup1\n      iszero\n      tag_21\n      jumpi\n      0x00\n      dup1\n      revert\n    tag_21:\n      pop\n      tag_22\n      tag_23\n      jump\t// in\n    tag_22:\n      stop\n        /* \"subasta5.sol\":344:369  bool public activa = true */\n    tag_3:\n      callvalue\n      dup1\n      iszero\n      tag_24\n      jumpi\n      0x00\n      dup1\n      revert\n    tag_24:\n      pop\n      tag_25\n      tag_26\n      jump\t// in\n    tag_25:\n      mload(0x40)\n      tag_27\n      swap2\n      swap1\n      tag_28\n      jump\t// in\n    tag_27:\n      mload(0x40)\n      dup1\n      swap2\n      sub\n      swap1\n      return\n        /* \"subasta5.sol\":84:109  address public subastador */\n    tag_4:\n      callvalue\n      dup1\n      iszero\n      tag_29\n      jumpi\n      0x00\n      dup1\n      revert\n    tag_29:\n      pop\n      tag_30\n      tag_31\n      jump\t// in\n    tag_30:\n      mload(0x40)\n      tag_32\n      swap2\n      swap1\n      tag_33\n      jump\t// in\n    tag_32:\n      mload(0x40)\n      dup1\n      swap2\n      sub\n      swap1\n      return\n        /* \"subasta5.sol\":1241:1761  function ofertar() external payable soloDuranteSubastaActiva {... */\n    tag_5:\n      tag_34\n      tag_35\n      jump\t// in\n    tag_34:\n      stop\n        /* \"subasta5.sol\":3719:4423  function reembolsarOfertantes() external soloSubastador {... */\n    tag_6:\n      callvalue\n      dup1\n      iszero\n      tag_36\n      jumpi\n      0x00\n      dup1\n      revert\n    tag_36:\n      pop\n      tag_37\n      tag_38\n      jump\t// in\n    tag_37:\n      stop\n        /* \"subasta5.sol\":502:525  Oferta[] public ofertas */\n    tag_7:\n      callvalue\n      dup1\n      iszero\n      tag_39\n      jumpi\n      0x00\n      dup1\n      revert\n    tag_39:\n      pop\n      tag_40\n      0x04\n      dup1\n      calldatasize\n      sub\n      dup2\n      add\n      swap1\n      tag_41\n      swap2\n      swap1\n      tag_42\n      jump\t// in\n    tag_41:\n      tag_43\n      jump\t// in\n    tag_40:\n      mload(0x40)\n      tag_44\n      swap3\n      swap2\n      swap1\n      tag_45\n      jump\t// in\n    tag_44:\n      mload(0x40)\n      dup1\n      swap2\n      sub\n      swap1\n      return\n        /* \"subasta5.sol\":532:573  mapping(address => uint) public depositos */\n    tag_8:\n      callvalue\n      dup1\n      iszero\n      tag_46\n      jumpi\n      0x00\n      dup1\n      revert\n    tag_46:\n      pop\n      tag_47\n      0x04\n      dup1\n      calldatasize\n      sub\n      dup2\n      add\n      swap1\n      tag_48\n      swap2\n      swap1\n      tag_49\n      jump\t// in\n    tag_48:\n      tag_50\n      jump\t// in\n    tag_47:\n      mload(0x40)\n      tag_51\n      swap2\n      swap1\n      tag_52\n      jump\t// in\n    tag_51:\n      mload(0x40)\n      dup1\n      swap2\n      sub\n      swap1\n      return\n        /* \"subasta5.sol\":376:411  uint public ofertaInicial = 1 ether */\n    tag_9:\n      callvalue\n      dup1\n      iszero\n      tag_53\n      jumpi\n      0x00\n      dup1\n      revert\n    tag_53:\n      pop\n      tag_54\n      tag_55\n      jump\t// in\n    tag_54:\n      mload(0x40)\n      tag_56\n      swap2\n      swap1\n      tag_52\n      jump\t// in\n    tag_56:\n      mload(0x40)\n      dup1\n      swap2\n      sub\n      swap1\n      return\n        /* \"subasta5.sol\":1769:2046  function mostrarGanador() external view returns (address ganador, uint cantidadGanadora) {... */\n    tag_10:\n      callvalue\n      dup1\n      iszero\n      tag_57\n      jumpi\n      0x00\n      dup1\n      revert\n    tag_57:\n      pop\n      tag_58\n      tag_59\n      jump\t// in\n    tag_58:\n      mload(0x40)\n      tag_60\n      swap3\n      swap2\n      swap1\n      tag_45\n      jump\t// in\n    tag_60:\n      mload(0x40)\n      dup1\n      swap2\n      sub\n      swap1\n      return\n        /* \"subasta5.sol\":3047:3711  function retiroParcial() external soloDuranteSubastaActiva {... */\n    tag_11:\n      callvalue\n      dup1\n      iszero\n      tag_61\n      jumpi\n      0x00\n      dup1\n      revert\n    tag_61:\n      pop\n      tag_62\n      tag_63\n      jump\t// in\n    tag_62:\n      stop\n        /* \"subasta5.sol\":2523:3039  function retirarDeposito() external {... */\n    tag_12:\n      callvalue\n      dup1\n      iszero\n      tag_64\n      jumpi\n      0x00\n      dup1\n      revert\n    tag_64:\n      pop\n      tag_65\n      tag_66\n      jump\t// in\n    tag_65:\n      stop\n        /* \"subasta5.sol\":267:291  uint public comision = 2 */\n    tag_13:\n      callvalue\n      dup1\n      iszero\n      tag_67\n      jumpi\n      0x00\n      dup1\n      revert\n    tag_67:\n      pop\n      tag_68\n      tag_69\n      jump\t// in\n    tag_68:\n      mload(0x40)\n      tag_70\n      swap2\n      swap1\n      tag_52\n      jump\t// in\n    tag_70:\n      mload(0x40)\n      dup1\n      swap2\n      sub\n      swap1\n      return\n        /* \"subasta5.sol\":2054:2153  function mostrarOfertas() external view returns (Oferta[] memory) {... */\n    tag_14:\n      callvalue\n      dup1\n      iszero\n      tag_71\n      jumpi\n      0x00\n      dup1\n      revert\n    tag_71:\n      pop\n      tag_72\n      tag_73\n      jump\t// in\n    tag_72:\n      mload(0x40)\n      tag_74\n      swap2\n      swap1\n      tag_75\n      jump\t// in\n    tag_74:\n      mload(0x40)\n      dup1\n      swap2\n      sub\n      swap1\n      return\n        /* \"subasta5.sol\":116:139  uint public tiempoFinal */\n    tag_15:\n      callvalue\n      dup1\n      iszero\n      tag_76\n      jumpi\n      0x00\n      dup1\n      revert\n    tag_76:\n      pop\n      tag_77\n      tag_78\n      jump\t// in\n    tag_77:\n      mload(0x40)\n      tag_79\n      swap2\n      swap1\n      tag_52\n      jump\t// in\n    tag_79:\n      mload(0x40)\n      dup1\n      swap2\n      sub\n      swap1\n      return\n        /* \"subasta5.sol\":196:232  uint public porcentajeIncremento = 5 */\n    tag_16:\n      callvalue\n      dup1\n      iszero\n      tag_80\n      jumpi\n      0x00\n      dup1\n      revert\n    tag_80:\n      pop\n      tag_81\n      tag_82\n      jump\t// in\n    tag_81:\n      mload(0x40)\n      tag_83\n      swap2\n      swap1\n      tag_52\n      jump\t// in\n    tag_83:\n      mload(0x40)\n      dup1\n      swap2\n      sub\n      swap1\n      return\n        /* \"subasta5.sol\":146:189  uint public duracionSubasta = 1 * 1 minutes */\n    tag_17:\n      callvalue\n      dup1\n      iszero\n      tag_84\n      jumpi\n      0x00\n      dup1\n      revert\n    tag_84:\n      pop\n      tag_85\n      tag_86\n      jump\t// in\n    tag_85:\n      mload(0x40)\n      tag_87\n      swap2\n      swap1\n      tag_52\n      jump\t// in\n    tag_87:\n      mload(0x40)\n      dup1\n      swap2\n      sub\n      swap1\n      return\n        /* \"subasta5.sol\":2161:2515  function finalizarSubasta() external soloSubastador soloDuranteSubastaActiva {... */\n    tag_23:\n        /* \"subasta5.sol\":1153:1163  subastador */\n      0x00\n      dup1\n      sload\n      swap1\n      0x0100\n      exp\n      swap1\n      div\n      0xffffffffffffffffffffffffffffffffffffffff\n      and\n        /* \"subasta5.sol\":1139:1163  msg.sender == subastador */\n      0xffffffffffffffffffffffffffffffffffffffff\n      and\n        /* \"subasta5.sol\":1139:1149  msg.sender */\n      caller\n        /* \"subasta5.sol\":1139:1163  msg.sender == subastador */\n      0xffffffffffffffffffffffffffffffffffffffff\n      and\n      eq\n        /* \"subasta5.sol\":1131:1213  require(msg.sender == subastador, \"Solo el subastador puede ejecutar esta accion\") */\n      tag_89\n      jumpi\n      mload(0x40)\n      0x08c379a000000000000000000000000000000000000000000000000000000000\n      dup2\n      mstore\n      0x04\n      add\n      tag_90\n      swap1\n      tag_91\n      jump\t// in\n    tag_90:\n      mload(0x40)\n      dup1\n      swap2\n      sub\n      swap1\n      revert\n    tag_89:\n        /* \"subasta5.sol\":995:1001  activa */\n      0x05\n      0x00\n      swap1\n      sload\n      swap1\n      0x0100\n      exp\n      swap1\n      div\n      0xff\n      and\n        /* \"subasta5.sol\":995:1034  activa && block.timestamp < tiempoFinal */\n      dup1\n      iszero\n      tag_93\n      jumpi\n      pop\n        /* \"subasta5.sol\":1023:1034  tiempoFinal */\n      sload(0x01)\n        /* \"subasta5.sol\":1005:1020  block.timestamp */\n      timestamp\n        /* \"subasta5.sol\":1005:1034  block.timestamp < tiempoFinal */\n      lt\n        /* \"subasta5.sol\":995:1034  activa && block.timestamp < tiempoFinal */\n    tag_93:\n        /* \"subasta5.sol\":987:1066  require(activa && block.timestamp < tiempoFinal, \"La subasta ya ha finalizado\") */\n      tag_94\n      jumpi\n      mload(0x40)\n      0x08c379a000000000000000000000000000000000000000000000000000000000\n      dup2\n      mstore\n      0x04\n      add\n      tag_95\n      swap1\n      tag_96\n      jump\t// in\n    tag_95:\n      mload(0x40)\n      dup1\n      swap2\n      sub\n      swap1\n      revert\n    tag_94:\n        /* \"subasta5.sol\":2276:2287  tiempoFinal */\n      sload(0x01)\n        /* \"subasta5.sol\":2257:2272  block.timestamp */\n      timestamp\n        /* \"subasta5.sol\":2257:2287  block.timestamp >= tiempoFinal */\n      lt\n      iszero\n        /* \"subasta5.sol\":2249:2320  require(block.timestamp >= tiempoFinal, \"La subasta aun esta en curso\") */\n      tag_98\n      jumpi\n      mload(0x40)\n      0x08c379a000000000000000000000000000000000000000000000000000000000\n      dup2\n      mstore\n      0x04\n      add\n      tag_99\n      swap1\n      tag_100\n      jump\t// in\n    tag_99:\n      mload(0x40)\n      dup1\n      swap2\n      sub\n      swap1\n      revert\n    tag_98:\n        /* \"subasta5.sol\":2340:2345  false */\n      0x00\n        /* \"subasta5.sol\":2331:2337  activa */\n      0x05\n      0x00\n        /* \"subasta5.sol\":2331:2345  activa = false */\n      0x0100\n      exp\n      dup2\n      sload\n      dup2\n      0xff\n      mul\n      not\n      and\n      swap1\n      dup4\n      iszero\n      iszero\n      mul\n      or\n      swap1\n      sstore\n      pop\n        /* \"subasta5.sol\":2379:2380  0 */\n      0x00\n        /* \"subasta5.sol\":2362:2369  ofertas */\n      0x07\n        /* \"subasta5.sol\":2362:2376  ofertas.length */\n      dup1\n      sload\n      swap1\n      pop\n        /* \"subasta5.sol\":2362:2380  ofertas.length > 0 */\n      gt\n        /* \"subasta5.sol\":2358:2508  if (ofertas.length > 0) {... */\n      iszero\n      tag_101\n      jumpi\n        /* \"subasta5.sol\":2402:2496  SubastaFinalizada(ofertas[ofertas.length - 1].ofertante, ofertas[ofertas.length - 1].cantidad) */\n      0xa3a65b403bdae88eb037f4ecc1d619f436fc3ef6bcbbee3787757164e82883f2\n        /* \"subasta5.sol\":2420:2427  ofertas */\n      0x07\n        /* \"subasta5.sol\":2445:2446  1 */\n      0x01\n        /* \"subasta5.sol\":2428:2435  ofertas */\n      0x07\n        /* \"subasta5.sol\":2428:2442  ofertas.length */\n      dup1\n      sload\n      swap1\n      pop\n        /* \"subasta5.sol\":2428:2446  ofertas.length - 1 */\n      tag_102\n      swap2\n      swap1\n      tag_103\n      jump\t// in\n    tag_102:\n        /* \"subasta5.sol\":2420:2447  ofertas[ofertas.length - 1] */\n      dup2\n      sload\n      dup2\n      lt\n      tag_104\n      jumpi\n      tag_105\n      tag_106\n      jump\t// in\n    tag_105:\n    tag_104:\n      swap1\n      0x00\n      mstore\n      keccak256(0x00, 0x20)\n      swap1\n      0x02\n      mul\n      add\n        /* \"subasta5.sol\":2420:2457  ofertas[ofertas.length - 1].ofertante */\n      0x00\n      add\n      0x00\n      swap1\n      sload\n      swap1\n      0x0100\n      exp\n      swap1\n      div\n      0xffffffffffffffffffffffffffffffffffffffff\n      and\n        /* \"subasta5.sol\":2459:2466  ofertas */\n      0x07\n        /* \"subasta5.sol\":2484:2485  1 */\n      0x01\n        /* \"subasta5.sol\":2467:2474  ofertas */\n      0x07\n        /* \"subasta5.sol\":2467:2481  ofertas.length */\n      dup1\n      sload\n      swap1\n      pop\n        /* \"subasta5.sol\":2467:2485  ofertas.length - 1 */\n      tag_108\n      swap2\n      swap1\n      tag_103\n      jump\t// in\n    tag_108:\n        /* \"subasta5.sol\":2459:2486  ofertas[ofertas.length - 1] */\n      dup2\n      sload\n      dup2\n      lt\n      tag_109\n      jumpi\n      tag_110\n      tag_106\n      jump\t// in\n    tag_110:\n    tag_109:\n      swap1\n      0x00\n      mstore\n      keccak256(0x00, 0x20)\n      swap1\n      0x02\n      mul\n      add\n        /* \"subasta5.sol\":2459:2495  ofertas[ofertas.length - 1].cantidad */\n      0x01\n      add\n      sload\n        /* \"subasta5.sol\":2402:2496  SubastaFinalizada(ofertas[ofertas.length - 1].ofertante, ofertas[ofertas.length - 1].cantidad) */\n      mload(0x40)\n      tag_112\n      swap3\n      swap2\n      swap1\n      tag_45\n      jump\t// in\n    tag_112:\n      mload(0x40)\n      dup1\n      swap2\n      sub\n      swap1\n      log1\n        /* \"subasta5.sol\":2358:2508  if (ofertas.length > 0) {... */\n    tag_101:\n        /* \"subasta5.sol\":2161:2515  function finalizarSubasta() external soloSubastador soloDuranteSubastaActiva {... */\n      jump\t// out\n        /* \"subasta5.sol\":344:369  bool public activa = true */\n    tag_26:\n      0x05\n      0x00\n      swap1\n      sload\n      swap1\n      0x0100\n      exp\n      swap1\n      div\n      0xff\n      and\n      dup2\n      jump\t// out\n        /* \"subasta5.sol\":84:109  address public subastador */\n    tag_31:\n      0x00\n      dup1\n      sload\n      swap1\n      0x0100\n      exp\n      swap1\n      div\n      0xffffffffffffffffffffffffffffffffffffffff\n      and\n      dup2\n      jump\t// out\n        /* \"subasta5.sol\":1241:1761  function ofertar() external payable soloDuranteSubastaActiva {... */\n    tag_35:\n        /* \"subasta5.sol\":995:1001  activa */\n      0x05\n      0x00\n      swap1\n      sload\n      swap1\n      0x0100\n      exp\n      swap1\n      div\n      0xff\n      and\n        /* \"subasta5.sol\":995:1034  activa && block.timestamp < tiempoFinal */\n      dup1\n      iszero\n      tag_114\n      jumpi\n      pop\n        /* \"subasta5.sol\":1023:1034  tiempoFinal */\n      sload(0x01)\n        /* \"subasta5.sol\":1005:1020  block.timestamp */\n      timestamp\n        /* \"subasta5.sol\":1005:1034  block.timestamp < tiempoFinal */\n      lt\n        /* \"subasta5.sol\":995:1034  activa && block.timestamp < tiempoFinal */\n    tag_114:\n        /* \"subasta5.sol\":987:1066  require(activa && block.timestamp < tiempoFinal, \"La subasta ya ha finalizado\") */\n      tag_115\n      jumpi\n      mload(0x40)\n      0x08c379a000000000000000000000000000000000000000000000000000000000\n      dup2\n      mstore\n      0x04\n      add\n      tag_116\n      swap1\n      tag_96\n      jump\t// in\n    tag_116:\n      mload(0x40)\n      dup1\n      swap2\n      sub\n      swap1\n      revert\n    tag_115:\n        /* \"subasta5.sol\":1313:1329  uint montoMinimo */\n      0x00\n        /* \"subasta5.sol\":1434:1437  100 */\n      0x64\n        /* \"subasta5.sol\":1411:1431  porcentajeIncremento */\n      sload(0x03)\n        /* \"subasta5.sol\":1372:1379  ofertas */\n      0x07\n        /* \"subasta5.sol\":1397:1398  1 */\n      0x01\n        /* \"subasta5.sol\":1380:1387  ofertas */\n      0x07\n        /* \"subasta5.sol\":1380:1394  ofertas.length */\n      dup1\n      sload\n      swap1\n      pop\n        /* \"subasta5.sol\":1380:1398  ofertas.length - 1 */\n      tag_118\n      swap2\n      swap1\n      tag_103\n      jump\t// in\n    tag_118:\n        /* \"subasta5.sol\":1372:1399  ofertas[ofertas.length - 1] */\n      dup2\n      sload\n      dup2\n      lt\n      tag_119\n      jumpi\n      tag_120\n      tag_106\n      jump\t// in\n    tag_120:\n    tag_119:\n      swap1\n      0x00\n      mstore\n      keccak256(0x00, 0x20)\n      swap1\n      0x02\n      mul\n      add\n        /* \"subasta5.sol\":1372:1408  ofertas[ofertas.length - 1].cantidad */\n      0x01\n      add\n      sload\n        /* \"subasta5.sol\":1372:1431  ofertas[ofertas.length - 1].cantidad * porcentajeIncremento */\n      tag_122\n      swap2\n      swap1\n      tag_123\n      jump\t// in\n    tag_122:\n        /* \"subasta5.sol\":1372:1437  ofertas[ofertas.length - 1].cantidad * porcentajeIncremento / 100 */\n      tag_124\n      swap2\n      swap1\n      tag_125\n      jump\t// in\n    tag_124:\n        /* \"subasta5.sol\":1332:1339  ofertas */\n      0x07\n        /* \"subasta5.sol\":1357:1358  1 */\n      0x01\n        /* \"subasta5.sol\":1340:1347  ofertas */\n      0x07\n        /* \"subasta5.sol\":1340:1354  ofertas.length */\n      dup1\n      sload\n      swap1\n      pop\n        /* \"subasta5.sol\":1340:1358  ofertas.length - 1 */\n      tag_126\n      swap2\n      swap1\n      tag_103\n      jump\t// in\n    tag_126:\n        /* \"subasta5.sol\":1332:1359  ofertas[ofertas.length - 1] */\n      dup2\n      sload\n      dup2\n      lt\n      tag_127\n      jumpi\n      tag_128\n      tag_106\n      jump\t// in\n    tag_128:\n    tag_127:\n      swap1\n      0x00\n      mstore\n      keccak256(0x00, 0x20)\n      swap1\n      0x02\n      mul\n      add\n        /* \"subasta5.sol\":1332:1368  ofertas[ofertas.length - 1].cantidad */\n      0x01\n      add\n      sload\n        /* \"subasta5.sol\":1332:1438  ofertas[ofertas.length - 1].cantidad + (ofertas[ofertas.length - 1].cantidad * porcentajeIncremento / 100) */\n      tag_130\n      swap2\n      swap1\n      tag_131\n      jump\t// in\n    tag_130:\n        /* \"subasta5.sol\":1313:1438  uint montoMinimo = ofertas[ofertas.length - 1].cantidad + (ofertas[ofertas.length - 1].cantidad * porcentajeIncremento / 100) */\n      swap1\n      pop\n        /* \"subasta5.sol\":1469:1480  montoMinimo */\n      dup1\n        /* \"subasta5.sol\":1457:1466  msg.value */\n      callvalue\n        /* \"subasta5.sol\":1457:1480  msg.value > montoMinimo */\n      gt\n        /* \"subasta5.sol\":1449:1542  require(msg.value > montoMinimo, \"La oferta debe superar en al menos un 5% la oferta actual\") */\n      tag_132\n      jumpi\n      mload(0x40)\n      0x08c379a000000000000000000000000000000000000000000000000000000000\n      dup2\n      mstore\n      0x04\n      add\n      tag_133\n      swap1\n      tag_134\n      jump\t// in\n    tag_133:\n      mload(0x40)\n      dup1\n      swap2\n      sub\n      swap1\n      revert\n    tag_132:\n        /* \"subasta5.sol\":1587:1602  duracionSubasta */\n      sload(0x02)\n        /* \"subasta5.sol\":1569:1584  block.timestamp */\n      timestamp\n        /* \"subasta5.sol\":1569:1602  block.timestamp + duracionSubasta */\n      tag_135\n      swap2\n      swap1\n      tag_131\n      jump\t// in\n    tag_135:\n        /* \"subasta5.sol\":1555:1566  tiempoFinal */\n      0x01\n        /* \"subasta5.sol\":1555:1602  tiempoFinal = block.timestamp + duracionSubasta */\n      dup2\n      swap1\n      sstore\n      pop\n        /* \"subasta5.sol\":1615:1622  ofertas */\n      0x07\n        /* \"subasta5.sol\":1628:1657  Oferta(msg.sender, msg.value) */\n      mload(0x40)\n      dup1\n      0x40\n      add\n      0x40\n      mstore\n      dup1\n        /* \"subasta5.sol\":1635:1645  msg.sender */\n      caller\n        /* \"subasta5.sol\":1628:1657  Oferta(msg.sender, msg.value) */\n      0xffffffffffffffffffffffffffffffffffffffff\n      and\n      dup2\n      mstore\n      0x20\n      add\n        /* \"subasta5.sol\":1647:1656  msg.value */\n      callvalue\n        /* \"subasta5.sol\":1628:1657  Oferta(msg.sender, msg.value) */\n      dup2\n      mstore\n      pop\n        /* \"subasta5.sol\":1615:1658  ofertas.push(Oferta(msg.sender, msg.value)) */\n      swap1\n      dup1\n      0x01\n      dup2\n      sload\n      add\n      dup1\n      dup3\n      sstore\n      dup1\n      swap2\n      pop\n      pop\n      0x01\n      swap1\n      sub\n      swap1\n      0x00\n      mstore\n      keccak256(0x00, 0x20)\n      swap1\n      0x02\n      mul\n      add\n      0x00\n      swap1\n      swap2\n      swap1\n      swap2\n      swap1\n      swap2\n      pop\n      0x00\n      dup3\n      add\n      mload\n      dup2\n      0x00\n      add\n      exp(0x0100, 0x00)\n      dup2\n      sload\n      dup2\n      0xffffffffffffffffffffffffffffffffffffffff\n      mul\n      not\n      and\n      swap1\n      dup4\n      0xffffffffffffffffffffffffffffffffffffffff\n      and\n      mul\n      or\n      swap1\n      sstore\n      pop\n      0x20\n      dup3\n      add\n      mload\n      dup2\n      0x01\n      add\n      sstore\n      pop\n      pop\n        /* \"subasta5.sol\":1694:1703  msg.value */\n      callvalue\n        /* \"subasta5.sol\":1669:1678  depositos */\n      0x08\n        /* \"subasta5.sol\":1669:1690  depositos[msg.sender] */\n      0x00\n        /* \"subasta5.sol\":1679:1689  msg.sender */\n      caller\n        /* \"subasta5.sol\":1669:1690  depositos[msg.sender] */\n      0xffffffffffffffffffffffffffffffffffffffff\n      and\n      0xffffffffffffffffffffffffffffffffffffffff\n      and\n      dup2\n      mstore\n      0x20\n      add\n      swap1\n      dup2\n      mstore\n      0x20\n      add\n      0x00\n      keccak256\n      0x00\n        /* \"subasta5.sol\":1669:1703  depositos[msg.sender] += msg.value */\n      dup3\n      dup3\n      sload\n      tag_137\n      swap2\n      swap1\n      tag_131\n      jump\t// in\n    tag_137:\n      swap3\n      pop\n      pop\n      dup2\n      swap1\n      sstore\n      pop\n        /* \"subasta5.sol\":1719:1753  NuevaOferta(msg.sender, msg.value) */\n      0x155d469211f46e4d9ae974606f0878f9aacc6198ba30a1e6b9c8cf5627352fb5\n        /* \"subasta5.sol\":1731:1741  msg.sender */\n      caller\n        /* \"subasta5.sol\":1743:1752  msg.value */\n      callvalue\n        /* \"subasta5.sol\":1719:1753  NuevaOferta(msg.sender, msg.value) */\n      mload(0x40)\n      tag_138\n      swap3\n      swap2\n      swap1\n      tag_45\n      jump\t// in\n    tag_138:\n      mload(0x40)\n      dup1\n      swap2\n      sub\n      swap1\n      log1\n        /* \"subasta5.sol\":1302:1761  {... */\n      pop\n        /* \"subasta5.sol\":1241:1761  function ofertar() external payable soloDuranteSubastaActiva {... */\n      jump\t// out\n        /* \"subasta5.sol\":3719:4423  function reembolsarOfertantes() external soloSubastador {... */\n    tag_38:\n        /* \"subasta5.sol\":1153:1163  subastador */\n      0x00\n      dup1\n      sload\n      swap1\n      0x0100\n      exp\n      swap1\n      div\n      0xffffffffffffffffffffffffffffffffffffffff\n      and\n        /* \"subasta5.sol\":1139:1163  msg.sender == subastador */\n      0xffffffffffffffffffffffffffffffffffffffff\n      and\n        /* \"subasta5.sol\":1139:1149  msg.sender */\n      caller\n        /* \"subasta5.sol\":1139:1163  msg.sender == subastador */\n      0xffffffffffffffffffffffffffffffffffffffff\n      and\n      eq\n        /* \"subasta5.sol\":1131:1213  require(msg.sender == subastador, \"Solo el subastador puede ejecutar esta accion\") */\n      tag_140\n      jumpi\n      mload(0x40)\n      0x08c379a000000000000000000000000000000000000000000000000000000000\n      dup2\n      mstore\n      0x04\n      add\n      tag_141\n      swap1\n      tag_91\n      jump\t// in\n    tag_141:\n      mload(0x40)\n      dup1\n      swap2\n      sub\n      swap1\n      revert\n    tag_140:\n        /* \"subasta5.sol\":3795:3801  activa */\n      0x05\n      0x00\n      swap1\n      sload\n      swap1\n      0x0100\n      exp\n      swap1\n      div\n      0xff\n      and\n        /* \"subasta5.sol\":3794:3801  !activa */\n      iszero\n        /* \"subasta5.sol\":3786:3832  require(!activa, \"La subasta aun esta activa\") */\n      tag_143\n      jumpi\n      mload(0x40)\n      0x08c379a000000000000000000000000000000000000000000000000000000000\n      dup2\n      mstore\n      0x04\n      add\n      tag_144\n      swap1\n      tag_145\n      jump\t// in\n    tag_144:\n      mload(0x40)\n      dup1\n      swap2\n      sub\n      swap1\n      revert\n    tag_143:\n        /* \"subasta5.sol\":3845:3860  address ganador */\n      0x00\n        /* \"subasta5.sol\":3863:3870  ofertas */\n      0x07\n        /* \"subasta5.sol\":3888:3889  1 */\n      0x01\n        /* \"subasta5.sol\":3871:3878  ofertas */\n      0x07\n        /* \"subasta5.sol\":3871:3885  ofertas.length */\n      dup1\n      sload\n      swap1\n      pop\n        /* \"subasta5.sol\":3871:3889  ofertas.length - 1 */\n      tag_146\n      swap2\n      swap1\n      tag_103\n      jump\t// in\n    tag_146:\n        /* \"subasta5.sol\":3863:3890  ofertas[ofertas.length - 1] */\n      dup2\n      sload\n      dup2\n      lt\n      tag_147\n      jumpi\n      tag_148\n      tag_106\n      jump\t// in\n    tag_148:\n    tag_147:\n      swap1\n      0x00\n      mstore\n      keccak256(0x00, 0x20)\n      swap1\n      0x02\n      mul\n      add\n        /* \"subasta5.sol\":3863:3900  ofertas[ofertas.length - 1].ofertante */\n      0x00\n      add\n      0x00\n      swap1\n      sload\n      swap1\n      0x0100\n      exp\n      swap1\n      div\n      0xffffffffffffffffffffffffffffffffffffffff\n      and\n        /* \"subasta5.sol\":3845:3900  address ganador = ofertas[ofertas.length - 1].ofertante */\n      swap1\n      pop\n        /* \"subasta5.sol\":3918:3924  uint i */\n      0x00\n        /* \"subasta5.sol\":3913:4416  for (uint i = 0; i < ofertas.length; i++) {... */\n    tag_150:\n        /* \"subasta5.sol\":3934:3941  ofertas */\n      0x07\n        /* \"subasta5.sol\":3934:3948  ofertas.length */\n      dup1\n      sload\n      swap1\n      pop\n        /* \"subasta5.sol\":3930:3931  i */\n      dup2\n        /* \"subasta5.sol\":3930:3948  i < ofertas.length */\n      lt\n        /* \"subasta5.sol\":3913:4416  for (uint i = 0; i < ofertas.length; i++) {... */\n      iszero\n      tag_151\n      jumpi\n        /* \"subasta5.sol\":3970:3987  address ofertante */\n      0x00\n        /* \"subasta5.sol\":3990:3997  ofertas */\n      0x07\n        /* \"subasta5.sol\":3998:3999  i */\n      dup3\n        /* \"subasta5.sol\":3990:4000  ofertas[i] */\n      dup2\n      sload\n      dup2\n      lt\n      tag_153\n      jumpi\n      tag_154\n      tag_106\n      jump\t// in\n    tag_154:\n    tag_153:\n      swap1\n      0x00\n      mstore\n      keccak256(0x00, 0x20)\n      swap1\n      0x02\n      mul\n      add\n        /* \"subasta5.sol\":3990:4010  ofertas[i].ofertante */\n      0x00\n      add\n      0x00\n      swap1\n      sload\n      swap1\n      0x0100\n      exp\n      swap1\n      div\n      0xffffffffffffffffffffffffffffffffffffffff\n      and\n        /* \"subasta5.sol\":3970:4010  address ofertante = ofertas[i].ofertante */\n      swap1\n      pop\n        /* \"subasta5.sol\":4042:4049  ganador */\n      dup3\n        /* \"subasta5.sol\":4029:4049  ofertante != ganador */\n      0xffffffffffffffffffffffffffffffffffffffff\n      and\n        /* \"subasta5.sol\":4029:4038  ofertante */\n      dup2\n        /* \"subasta5.sol\":4029:4049  ofertante != ganador */\n      0xffffffffffffffffffffffffffffffffffffffff\n      and\n      eq\n        /* \"subasta5.sol\":4025:4405  if (ofertante != ganador) {... */\n      tag_156\n      jumpi\n        /* \"subasta5.sol\":4070:4084  uint reembolso */\n      0x00\n        /* \"subasta5.sol\":4087:4096  depositos */\n      0x08\n        /* \"subasta5.sol\":4087:4107  depositos[ofertante] */\n      0x00\n        /* \"subasta5.sol\":4097:4106  ofertante */\n      dup4\n        /* \"subasta5.sol\":4087:4107  depositos[ofertante] */\n      0xffffffffffffffffffffffffffffffffffffffff\n      and\n      0xffffffffffffffffffffffffffffffffffffffff\n      and\n      dup2\n      mstore\n      0x20\n      add\n      swap1\n      dup2\n      mstore\n      0x20\n      add\n      0x00\n      keccak256\n      sload\n        /* \"subasta5.sol\":4070:4107  uint reembolso = depositos[ofertante] */\n      swap1\n      pop\n        /* \"subasta5.sol\":4126:4140  uint descuento */\n      0x00\n        /* \"subasta5.sol\":4166:4169  100 */\n      0x64\n        /* \"subasta5.sol\":4155:4163  comision */\n      sload(0x04)\n        /* \"subasta5.sol\":4143:4152  reembolso */\n      dup4\n        /* \"subasta5.sol\":4143:4163  reembolso * comision */\n      tag_157\n      swap2\n      swap1\n      tag_123\n      jump\t// in\n    tag_157:\n        /* \"subasta5.sol\":4143:4169  reembolso * comision / 100 */\n      tag_158\n      swap2\n      swap1\n      tag_125\n      jump\t// in\n    tag_158:\n        /* \"subasta5.sol\":4126:4169  uint descuento = reembolso * comision / 100 */\n      swap1\n      pop\n        /* \"subasta5.sol\":4201:4210  descuento */\n      dup1\n        /* \"subasta5.sol\":4188:4210  reembolso -= descuento */\n      dup3\n      tag_159\n      swap2\n      swap1\n      tag_103\n      jump\t// in\n    tag_159:\n      swap2\n      pop\n        /* \"subasta5.sol\":4252:4253  0 */\n      0x00\n        /* \"subasta5.sol\":4229:4238  depositos */\n      0x08\n        /* \"subasta5.sol\":4229:4249  depositos[ofertante] */\n      0x00\n        /* \"subasta5.sol\":4239:4248  ofertante */\n      dup6\n        /* \"subasta5.sol\":4229:4249  depositos[ofertante] */\n      0xffffffffffffffffffffffffffffffffffffffff\n      and\n      0xffffffffffffffffffffffffffffffffffffffff\n      and\n      dup2\n      mstore\n      0x20\n      add\n      swap1\n      dup2\n      mstore\n      0x20\n      add\n      0x00\n      keccak256\n        /* \"subasta5.sol\":4229:4253  depositos[ofertante] = 0 */\n      dup2\n      swap1\n      sstore\n      pop\n        /* \"subasta5.sol\":4306:4307  0 */\n      0x00\n        /* \"subasta5.sol\":4294:4303  reembolso */\n      dup3\n        /* \"subasta5.sol\":4294:4307  reembolso > 0 */\n      gt\n        /* \"subasta5.sol\":4290:4390  if (reembolso > 0) {... */\n      iszero\n      tag_160\n      jumpi\n        /* \"subasta5.sol\":4340:4349  ofertante */\n      dup3\n        /* \"subasta5.sol\":4332:4359  payable(ofertante).transfer */\n      0xffffffffffffffffffffffffffffffffffffffff\n      and\n        /* \"subasta5.sol\":4332:4370  payable(ofertante).transfer(reembolso) */\n      0x08fc\n        /* \"subasta5.sol\":4360:4369  reembolso */\n      dup4\n        /* \"subasta5.sol\":4332:4370  payable(ofertante).transfer(reembolso) */\n      swap1\n      dup2\n      iszero\n      mul\n      swap1\n      mload(0x40)\n      0x00\n      mload(0x40)\n      dup1\n      dup4\n      sub\n      dup2\n      dup6\n      dup9\n      dup9\n      call\n      swap4\n      pop\n      pop\n      pop\n      pop\n      iszero\n      dup1\n      iszero\n      tag_162\n      jumpi\n      returndatasize\n      0x00\n      dup1\n      returndatacopy\n      revert(0x00, returndatasize)\n    tag_162:\n      pop\n        /* \"subasta5.sol\":4290:4390  if (reembolso > 0) {... */\n    tag_160:\n        /* \"subasta5.sol\":4051:4405  {... */\n      pop\n      pop\n        /* \"subasta5.sol\":4025:4405  if (ofertante != ganador) {... */\n    tag_156:\n        /* \"subasta5.sol\":3955:4416  {... */\n      pop\n        /* \"subasta5.sol\":3950:3953  i++ */\n      dup1\n      dup1\n      0x01\n      add\n      swap2\n      pop\n      pop\n        /* \"subasta5.sol\":3913:4416  for (uint i = 0; i < ofertas.length; i++) {... */\n      jump(tag_150)\n    tag_151:\n      pop\n        /* \"subasta5.sol\":3775:4423  {... */\n      pop\n        /* \"subasta5.sol\":3719:4423  function reembolsarOfertantes() external soloSubastador {... */\n      jump\t// out\n        /* \"subasta5.sol\":502:525  Oferta[] public ofertas */\n    tag_43:\n      0x07\n      dup2\n      dup2\n      sload\n      dup2\n      lt\n      tag_163\n      jumpi\n      0x00\n      dup1\n      revert\n    tag_163:\n      swap1\n      0x00\n      mstore\n      keccak256(0x00, 0x20)\n      swap1\n      0x02\n      mul\n      add\n      0x00\n      swap2\n      pop\n      swap1\n      pop\n      dup1\n      0x00\n      add\n      0x00\n      swap1\n      sload\n      swap1\n      0x0100\n      exp\n      swap1\n      div\n      0xffffffffffffffffffffffffffffffffffffffff\n      and\n      swap1\n      dup1\n      0x01\n      add\n      sload\n      swap1\n      pop\n      dup3\n      jump\t// out\n        /* \"subasta5.sol\":532:573  mapping(address => uint) public depositos */\n    tag_50:\n      mstore(0x20, 0x08)\n      dup1\n      0x00\n      mstore\n      keccak256(0x00, 0x40)\n      0x00\n      swap2\n      pop\n      swap1\n      pop\n      sload\n      dup2\n      jump\t// out\n        /* \"subasta5.sol\":376:411  uint public ofertaInicial = 1 ether */\n    tag_55:\n      sload(0x06)\n      dup2\n      jump\t// out\n        /* \"subasta5.sol\":1769:2046  function mostrarGanador() external view returns (address ganador, uint cantidadGanadora) {... */\n    tag_59:\n        /* \"subasta5.sol\":1818:1833  address ganador */\n      0x00\n        /* \"subasta5.sol\":1835:1856  uint cantidadGanadora */\n      dup1\n        /* \"subasta5.sol\":1894:1895  0 */\n      0x00\n        /* \"subasta5.sol\":1877:1884  ofertas */\n      0x07\n        /* \"subasta5.sol\":1877:1891  ofertas.length */\n      dup1\n      sload\n      swap1\n      pop\n        /* \"subasta5.sol\":1877:1895  ofertas.length > 0 */\n      gt\n        /* \"subasta5.sol\":1869:1914  require(ofertas.length > 0, \"No hay ofertas\") */\n      tag_166\n      jumpi\n      mload(0x40)\n      0x08c379a000000000000000000000000000000000000000000000000000000000\n      dup2\n      mstore\n      0x04\n      add\n      tag_167\n      swap1\n      tag_168\n      jump\t// in\n    tag_167:\n      mload(0x40)\n      dup1\n      swap2\n      sub\n      swap1\n      revert\n    tag_166:\n        /* \"subasta5.sol\":1935:1942  ofertas */\n      0x07\n        /* \"subasta5.sol\":1960:1961  1 */\n      0x01\n        /* \"subasta5.sol\":1943:1950  ofertas */\n      0x07\n        /* \"subasta5.sol\":1943:1957  ofertas.length */\n      dup1\n      sload\n      swap1\n      pop\n        /* \"subasta5.sol\":1943:1961  ofertas.length - 1 */\n      tag_169\n      swap2\n      swap1\n      tag_103\n      jump\t// in\n    tag_169:\n        /* \"subasta5.sol\":1935:1962  ofertas[ofertas.length - 1] */\n      dup2\n      sload\n      dup2\n      lt\n      tag_170\n      jumpi\n      tag_171\n      tag_106\n      jump\t// in\n    tag_171:\n    tag_170:\n      swap1\n      0x00\n      mstore\n      keccak256(0x00, 0x20)\n      swap1\n      0x02\n      mul\n      add\n        /* \"subasta5.sol\":1935:1972  ofertas[ofertas.length - 1].ofertante */\n      0x00\n      add\n      0x00\n      swap1\n      sload\n      swap1\n      0x0100\n      exp\n      swap1\n      div\n      0xffffffffffffffffffffffffffffffffffffffff\n      and\n        /* \"subasta5.sol\":1925:1972  ganador = ofertas[ofertas.length - 1].ofertante */\n      swap2\n      pop\n        /* \"subasta5.sol\":2002:2009  ofertas */\n      0x07\n        /* \"subasta5.sol\":2027:2028  1 */\n      0x01\n        /* \"subasta5.sol\":2010:2017  ofertas */\n      0x07\n        /* \"subasta5.sol\":2010:2024  ofertas.length */\n      dup1\n      sload\n      swap1\n      pop\n        /* \"subasta5.sol\":2010:2028  ofertas.length - 1 */\n      tag_173\n      swap2\n      swap1\n      tag_103\n      jump\t// in\n    tag_173:\n        /* \"subasta5.sol\":2002:2029  ofertas[ofertas.length - 1] */\n      dup2\n      sload\n      dup2\n      lt\n      tag_174\n      jumpi\n      tag_175\n      tag_106\n      jump\t// in\n    tag_175:\n    tag_174:\n      swap1\n      0x00\n      mstore\n      keccak256(0x00, 0x20)\n      swap1\n      0x02\n      mul\n      add\n        /* \"subasta5.sol\":2002:2038  ofertas[ofertas.length - 1].cantidad */\n      0x01\n      add\n      sload\n        /* \"subasta5.sol\":1983:2038  cantidadGanadora = ofertas[ofertas.length - 1].cantidad */\n      swap1\n      pop\n        /* \"subasta5.sol\":1769:2046  function mostrarGanador() external view returns (address ganador, uint cantidadGanadora) {... */\n      swap1\n      swap2\n      jump\t// out\n        /* \"subasta5.sol\":3047:3711  function retiroParcial() external soloDuranteSubastaActiva {... */\n    tag_63:\n        /* \"subasta5.sol\":995:1001  activa */\n      0x05\n      0x00\n      swap1\n      sload\n      swap1\n      0x0100\n      exp\n      swap1\n      div\n      0xff\n      and\n        /* \"subasta5.sol\":995:1034  activa && block.timestamp < tiempoFinal */\n      dup1\n      iszero\n      tag_178\n      jumpi\n      pop\n        /* \"subasta5.sol\":1023:1034  tiempoFinal */\n      sload(0x01)\n        /* \"subasta5.sol\":1005:1020  block.timestamp */\n      timestamp\n        /* \"subasta5.sol\":1005:1034  block.timestamp < tiempoFinal */\n      lt\n        /* \"subasta5.sol\":995:1034  activa && block.timestamp < tiempoFinal */\n    tag_178:\n        /* \"subasta5.sol\":987:1066  require(activa && block.timestamp < tiempoFinal, \"La subasta ya ha finalizado\") */\n      tag_179\n      jumpi\n      mload(0x40)\n      0x08c379a000000000000000000000000000000000000000000000000000000000\n      dup2\n      mstore\n      0x04\n      add\n      tag_180\n      swap1\n      tag_96\n      jump\t// in\n    tag_180:\n      mload(0x40)\n      dup1\n      swap2\n      sub\n      swap1\n      revert\n    tag_179:\n        /* \"subasta5.sol\":3117:3136  uint depositoActual */\n      0x00\n        /* \"subasta5.sol\":3139:3148  depositos */\n      0x08\n        /* \"subasta5.sol\":3139:3160  depositos[msg.sender] */\n      0x00\n        /* \"subasta5.sol\":3149:3159  msg.sender */\n      caller\n        /* \"subasta5.sol\":3139:3160  depositos[msg.sender] */\n      0xffffffffffffffffffffffffffffffffffffffff\n      and\n      0xffffffffffffffffffffffffffffffffffffffff\n      and\n      dup2\n      mstore\n      0x20\n      add\n      swap1\n      dup2\n      mstore\n      0x20\n      add\n      0x00\n      keccak256\n      sload\n        /* \"subasta5.sol\":3117:3160  uint depositoActual = depositos[msg.sender] */\n      swap1\n      pop\n        /* \"subasta5.sol\":3171:3188  uint ultimaOferta */\n      0x00\n        /* \"subasta5.sol\":3262:3268  uint i */\n      dup1\n        /* \"subasta5.sol\":3271:3278  ofertas */\n      0x07\n        /* \"subasta5.sol\":3271:3285  ofertas.length */\n      dup1\n      sload\n      swap1\n      pop\n        /* \"subasta5.sol\":3262:3285  uint i = ofertas.length */\n      swap1\n      pop\n        /* \"subasta5.sol\":3257:3466  for (uint i = ofertas.length; i > 0; i--) {... */\n    tag_182:\n        /* \"subasta5.sol\":3291:3292  0 */\n      0x00\n        /* \"subasta5.sol\":3287:3288  i */\n      dup2\n        /* \"subasta5.sol\":3287:3292  i > 0 */\n      gt\n        /* \"subasta5.sol\":3257:3466  for (uint i = ofertas.length; i > 0; i--) {... */\n      iszero\n      tag_183\n      jumpi\n        /* \"subasta5.sol\":3346:3356  msg.sender */\n      caller\n        /* \"subasta5.sol\":3318:3356  ofertas[i - 1].ofertante == msg.sender */\n      0xffffffffffffffffffffffffffffffffffffffff\n      and\n        /* \"subasta5.sol\":3318:3325  ofertas */\n      0x07\n        /* \"subasta5.sol\":3330:3331  1 */\n      0x01\n        /* \"subasta5.sol\":3326:3327  i */\n      dup4\n        /* \"subasta5.sol\":3326:3331  i - 1 */\n      tag_185\n      swap2\n      swap1\n      tag_103\n      jump\t// in\n    tag_185:\n        /* \"subasta5.sol\":3318:3332  ofertas[i - 1] */\n      dup2\n      sload\n      dup2\n      lt\n      tag_186\n      jumpi\n      tag_187\n      tag_106\n      jump\t// in\n    tag_187:\n    tag_186:\n      swap1\n      0x00\n      mstore\n      keccak256(0x00, 0x20)\n      swap1\n      0x02\n      mul\n      add\n        /* \"subasta5.sol\":3318:3342  ofertas[i - 1].ofertante */\n      0x00\n      add\n      0x00\n      swap1\n      sload\n      swap1\n      0x0100\n      exp\n      swap1\n      div\n      0xffffffffffffffffffffffffffffffffffffffff\n      and\n        /* \"subasta5.sol\":3318:3356  ofertas[i - 1].ofertante == msg.sender */\n      0xffffffffffffffffffffffffffffffffffffffff\n      and\n      sub\n        /* \"subasta5.sol\":3314:3455  if (ofertas[i - 1].ofertante == msg.sender) {... */\n      tag_189\n      jumpi\n        /* \"subasta5.sol\":3392:3399  ofertas */\n      0x07\n        /* \"subasta5.sol\":3404:3405  1 */\n      0x01\n        /* \"subasta5.sol\":3400:3401  i */\n      dup3\n        /* \"subasta5.sol\":3400:3405  i - 1 */\n      tag_190\n      swap2\n      swap1\n      tag_103\n      jump\t// in\n    tag_190:\n        /* \"subasta5.sol\":3392:3406  ofertas[i - 1] */\n      dup2\n      sload\n      dup2\n      lt\n      tag_191\n      jumpi\n      tag_192\n      tag_106\n      jump\t// in\n    tag_192:\n    tag_191:\n      swap1\n      0x00\n      mstore\n      keccak256(0x00, 0x20)\n      swap1\n      0x02\n      mul\n      add\n        /* \"subasta5.sol\":3392:3415  ofertas[i - 1].cantidad */\n      0x01\n      add\n      sload\n        /* \"subasta5.sol\":3377:3415  ultimaOferta = ofertas[i - 1].cantidad */\n      swap2\n      pop\n        /* \"subasta5.sol\":3434:3439  break */\n      jump(tag_183)\n        /* \"subasta5.sol\":3314:3455  if (ofertas[i - 1].ofertante == msg.sender) {... */\n    tag_189:\n        /* \"subasta5.sol\":3294:3297  i-- */\n      dup1\n      dup1\n      tag_194\n      swap1\n      tag_195\n      jump\t// in\n    tag_194:\n      swap2\n      pop\n      pop\n        /* \"subasta5.sol\":3257:3466  for (uint i = ofertas.length; i > 0; i--) {... */\n      jump(tag_182)\n    tag_183:\n      pop\n        /* \"subasta5.sol\":3503:3515  ultimaOferta */\n      dup1\n        /* \"subasta5.sol\":3486:3500  depositoActual */\n      dup3\n        /* \"subasta5.sol\":3486:3515  depositoActual > ultimaOferta */\n      gt\n        /* \"subasta5.sol\":3478:3549  require(depositoActual > ultimaOferta, \"No hay excedente para retirar\") */\n      tag_196\n      jumpi\n      mload(0x40)\n      0x08c379a000000000000000000000000000000000000000000000000000000000\n      dup2\n      mstore\n      0x04\n      add\n      tag_197\n      swap1\n      tag_198\n      jump\t// in\n    tag_197:\n      mload(0x40)\n      dup1\n      swap2\n      sub\n      swap1\n      revert\n    tag_196:\n        /* \"subasta5.sol\":3560:3574  uint excedente */\n      0x00\n        /* \"subasta5.sol\":3594:3606  ultimaOferta */\n      dup2\n        /* \"subasta5.sol\":3577:3591  depositoActual */\n      dup4\n        /* \"subasta5.sol\":3577:3606  depositoActual - ultimaOferta */\n      tag_199\n      swap2\n      swap1\n      tag_103\n      jump\t// in\n    tag_199:\n        /* \"subasta5.sol\":3560:3606  uint excedente = depositoActual - ultimaOferta */\n      swap1\n      pop\n        /* \"subasta5.sol\":3644:3653  excedente */\n      dup1\n        /* \"subasta5.sol\":3619:3628  depositos */\n      0x08\n        /* \"subasta5.sol\":3619:3640  depositos[msg.sender] */\n      0x00\n        /* \"subasta5.sol\":3629:3639  msg.sender */\n      caller\n        /* \"subasta5.sol\":3619:3640  depositos[msg.sender] */\n      0xffffffffffffffffffffffffffffffffffffffff\n      and\n      0xffffffffffffffffffffffffffffffffffffffff\n      and\n      dup2\n      mstore\n      0x20\n      add\n      swap1\n      dup2\n      mstore\n      0x20\n      add\n      0x00\n      keccak256\n      0x00\n        /* \"subasta5.sol\":3619:3653  depositos[msg.sender] -= excedente */\n      dup3\n      dup3\n      sload\n      tag_200\n      swap2\n      swap1\n      tag_103\n      jump\t// in\n    tag_200:\n      swap3\n      pop\n      pop\n      dup2\n      swap1\n      sstore\n      pop\n        /* \"subasta5.sol\":3672:3682  msg.sender */\n      caller\n        /* \"subasta5.sol\":3664:3692  payable(msg.sender).transfer */\n      0xffffffffffffffffffffffffffffffffffffffff\n      and\n        /* \"subasta5.sol\":3664:3703  payable(msg.sender).transfer(excedente) */\n      0x08fc\n        /* \"subasta5.sol\":3693:3702  excedente */\n      dup3\n        /* \"subasta5.sol\":3664:3703  payable(msg.sender).transfer(excedente) */\n      swap1\n      dup2\n      iszero\n      mul\n      swap1\n      mload(0x40)\n      0x00\n      mload(0x40)\n      dup1\n      dup4\n      sub\n      dup2\n      dup6\n      dup9\n      dup9\n      call\n      swap4\n      pop\n      pop\n      pop\n      pop\n      iszero\n      dup1\n      iszero\n      tag_202\n      jumpi\n      returndatasize\n      0x00\n      dup1\n      returndatacopy\n      revert(0x00, returndatasize)\n    tag_202:\n      pop\n        /* \"subasta5.sol\":3106:3711  {... */\n      pop\n      pop\n      pop\n        /* \"subasta5.sol\":3047:3711  function retiroParcial() external soloDuranteSubastaActiva {... */\n      jump\t// out\n        /* \"subasta5.sol\":2523:3039  function retirarDeposito() external {... */\n    tag_66:\n        /* \"subasta5.sol\":2579:2585  activa */\n      0x05\n      0x00\n      swap1\n      sload\n      swap1\n      0x0100\n      exp\n      swap1\n      div\n      0xff\n      and\n        /* \"subasta5.sol\":2578:2585  !activa */\n      iszero\n        /* \"subasta5.sol\":2570:2616  require(!activa, \"La subasta aun esta activa\") */\n      tag_204\n      jumpi\n      mload(0x40)\n      0x08c379a000000000000000000000000000000000000000000000000000000000\n      dup2\n      mstore\n      0x04\n      add\n      tag_205\n      swap1\n      tag_145\n      jump\t// in\n    tag_205:\n      mload(0x40)\n      dup1\n      swap2\n      sub\n      swap1\n      revert\n    tag_204:\n        /* \"subasta5.sol\":2627:2641  uint reembolso */\n      0x00\n        /* \"subasta5.sol\":2644:2653  depositos */\n      0x08\n        /* \"subasta5.sol\":2644:2665  depositos[msg.sender] */\n      0x00\n        /* \"subasta5.sol\":2654:2664  msg.sender */\n      caller\n        /* \"subasta5.sol\":2644:2665  depositos[msg.sender] */\n      0xffffffffffffffffffffffffffffffffffffffff\n      and\n      0xffffffffffffffffffffffffffffffffffffffff\n      and\n      dup2\n      mstore\n      0x20\n      add\n      swap1\n      dup2\n      mstore\n      0x20\n      add\n      0x00\n      keccak256\n      sload\n        /* \"subasta5.sol\":2627:2665  uint reembolso = depositos[msg.sender] */\n      swap1\n      pop\n        /* \"subasta5.sol\":2696:2697  0 */\n      0x00\n        /* \"subasta5.sol\":2684:2693  reembolso */\n      dup2\n        /* \"subasta5.sol\":2684:2697  reembolso > 0 */\n      gt\n        /* \"subasta5.sol\":2676:2731  require(reembolso > 0, \"No hay deposito para devolver\") */\n      tag_206\n      jumpi\n      mload(0x40)\n      0x08c379a000000000000000000000000000000000000000000000000000000000\n      dup2\n      mstore\n      0x04\n      add\n      tag_207\n      swap1\n      tag_208\n      jump\t// in\n    tag_207:\n      mload(0x40)\n      dup1\n      swap2\n      sub\n      swap1\n      revert\n    tag_206:\n        /* \"subasta5.sol\":2744:2759  address ganador */\n      0x00\n        /* \"subasta5.sol\":2762:2769  ofertas */\n      0x07\n        /* \"subasta5.sol\":2787:2788  1 */\n      0x01\n        /* \"subasta5.sol\":2770:2777  ofertas */\n      0x07\n        /* \"subasta5.sol\":2770:2784  ofertas.length */\n      dup1\n      sload\n      swap1\n      pop\n        /* \"subasta5.sol\":2770:2788  ofertas.length - 1 */\n      tag_209\n      swap2\n      swap1\n      tag_103\n      jump\t// in\n    tag_209:\n        /* \"subasta5.sol\":2762:2789  ofertas[ofertas.length - 1] */\n      dup2\n      sload\n      dup2\n      lt\n      tag_210\n      jumpi\n      tag_211\n      tag_106\n      jump\t// in\n    tag_211:\n    tag_210:\n      swap1\n      0x00\n      mstore\n      keccak256(0x00, 0x20)\n      swap1\n      0x02\n      mul\n      add\n        /* \"subasta5.sol\":2762:2799  ofertas[ofertas.length - 1].ofertante */\n      0x00\n      add\n      0x00\n      swap1\n      sload\n      swap1\n      0x0100\n      exp\n      swap1\n      div\n      0xffffffffffffffffffffffffffffffffffffffff\n      and\n        /* \"subasta5.sol\":2744:2799  address ganador = ofertas[ofertas.length - 1].ofertante */\n      swap1\n      pop\n        /* \"subasta5.sol\":2828:2835  ganador */\n      dup1\n        /* \"subasta5.sol\":2814:2835  msg.sender != ganador */\n      0xffffffffffffffffffffffffffffffffffffffff\n      and\n        /* \"subasta5.sol\":2814:2824  msg.sender */\n      caller\n        /* \"subasta5.sol\":2814:2835  msg.sender != ganador */\n      0xffffffffffffffffffffffffffffffffffffffff\n      and\n      eq\n        /* \"subasta5.sol\":2810:2944  if (msg.sender != ganador) {... */\n      tag_213\n      jumpi\n        /* \"subasta5.sol\":2852:2866  uint descuento */\n      0x00\n        /* \"subasta5.sol\":2892:2895  100 */\n      0x64\n        /* \"subasta5.sol\":2881:2889  comision */\n      sload(0x04)\n        /* \"subasta5.sol\":2869:2878  reembolso */\n      dup5\n        /* \"subasta5.sol\":2869:2889  reembolso * comision */\n      tag_214\n      swap2\n      swap1\n      tag_123\n      jump\t// in\n    tag_214:\n        /* \"subasta5.sol\":2869:2895  reembolso * comision / 100 */\n      tag_215\n      swap2\n      swap1\n      tag_125\n      jump\t// in\n    tag_215:\n        /* \"subasta5.sol\":2852:2895  uint descuento = reembolso * comision / 100 */\n      swap1\n      pop\n        /* \"subasta5.sol\":2923:2932  descuento */\n      dup1\n        /* \"subasta5.sol\":2910:2932  reembolso -= descuento */\n      dup4\n      tag_216\n      swap2\n      swap1\n      tag_103\n      jump\t// in\n    tag_216:\n      swap3\n      pop\n        /* \"subasta5.sol\":2837:2944  {... */\n      pop\n        /* \"subasta5.sol\":2810:2944  if (msg.sender != ganador) {... */\n    tag_213:\n        /* \"subasta5.sol\":2980:2981  0 */\n      0x00\n        /* \"subasta5.sol\":2956:2965  depositos */\n      0x08\n        /* \"subasta5.sol\":2956:2977  depositos[msg.sender] */\n      0x00\n        /* \"subasta5.sol\":2966:2976  msg.sender */\n      caller\n        /* \"subasta5.sol\":2956:2977  depositos[msg.sender] */\n      0xffffffffffffffffffffffffffffffffffffffff\n      and\n      0xffffffffffffffffffffffffffffffffffffffff\n      and\n      dup2\n      mstore\n      0x20\n      add\n      swap1\n      dup2\n      mstore\n      0x20\n      add\n      0x00\n      keccak256\n        /* \"subasta5.sol\":2956:2981  depositos[msg.sender] = 0 */\n      dup2\n      swap1\n      sstore\n      pop\n        /* \"subasta5.sol\":3000:3010  msg.sender */\n      caller\n        /* \"subasta5.sol\":2992:3020  payable(msg.sender).transfer */\n      0xffffffffffffffffffffffffffffffffffffffff\n      and\n        /* \"subasta5.sol\":2992:3031  payable(msg.sender).transfer(reembolso) */\n      0x08fc\n        /* \"subasta5.sol\":3021:3030  reembolso */\n      dup4\n        /* \"subasta5.sol\":2992:3031  payable(msg.sender).transfer(reembolso) */\n      swap1\n      dup2\n      iszero\n      mul\n      swap1\n      mload(0x40)\n      0x00\n      mload(0x40)\n      dup1\n      dup4\n      sub\n      dup2\n      dup6\n      dup9\n      dup9\n      call\n      swap4\n      pop\n      pop\n      pop\n      pop\n      iszero\n      dup1\n      iszero\n      tag_218\n      jumpi\n      returndatasize\n      0x00\n      dup1\n      returndatacopy\n      revert(0x00, returndatasize)\n    tag_218:\n      pop\n        /* \"subasta5.sol\":2559:3039  {... */\n      pop\n      pop\n        /* \"subasta5.sol\":2523:3039  function retirarDeposito() external {... */\n      jump\t// out\n        /* \"subasta5.sol\":267:291  uint public comision = 2 */\n    tag_69:\n      sload(0x04)\n      dup2\n      jump\t// out\n        /* \"subasta5.sol\":2054:2153  function mostrarOfertas() external view returns (Oferta[] memory) {... */\n    tag_73:\n        /* \"subasta5.sol\":2103:2118  Oferta[] memory */\n      0x60\n        /* \"subasta5.sol\":2138:2145  ofertas */\n      0x07\n        /* \"subasta5.sol\":2131:2145  return ofertas */\n      dup1\n      sload\n      dup1\n      0x20\n      mul\n      0x20\n      add\n      mload(0x40)\n      swap1\n      dup2\n      add\n      0x40\n      mstore\n      dup1\n      swap3\n      swap2\n      swap1\n      dup2\n      dup2\n      mstore\n      0x20\n      add\n      0x00\n      swap1\n    tag_220:\n      dup3\n      dup3\n      lt\n      iszero\n      tag_221\n      jumpi\n      dup4\n      dup3\n      swap1\n      0x00\n      mstore\n      keccak256(0x00, 0x20)\n      swap1\n      0x02\n      mul\n      add\n      mload(0x40)\n      dup1\n      0x40\n      add\n      0x40\n      mstore\n      swap1\n      dup2\n      0x00\n      dup3\n      add\n      0x00\n      swap1\n      sload\n      swap1\n      0x0100\n      exp\n      swap1\n      div\n      0xffffffffffffffffffffffffffffffffffffffff\n      and\n      0xffffffffffffffffffffffffffffffffffffffff\n      and\n      0xffffffffffffffffffffffffffffffffffffffff\n      and\n      dup2\n      mstore\n      0x20\n      add\n      0x01\n      dup3\n      add\n      sload\n      dup2\n      mstore\n      pop\n      pop\n      dup2\n      mstore\n      0x20\n      add\n      swap1\n      0x01\n      add\n      swap1\n      jump(tag_220)\n    tag_221:\n      pop\n      pop\n      pop\n      pop\n      swap1\n      pop\n        /* \"subasta5.sol\":2054:2153  function mostrarOfertas() external view returns (Oferta[] memory) {... */\n      swap1\n      jump\t// out\n        /* \"subasta5.sol\":116:139  uint public tiempoFinal */\n    tag_78:\n      sload(0x01)\n      dup2\n      jump\t// out\n        /* \"subasta5.sol\":196:232  uint public porcentajeIncremento = 5 */\n    tag_82:\n      sload(0x03)\n      dup2\n      jump\t// out\n        /* \"subasta5.sol\":146:189  uint public duracionSubasta = 1 * 1 minutes */\n    tag_86:\n      sload(0x02)\n      dup2\n      jump\t// out\n        /* \"#utility.yul\":7:97   */\n    tag_223:\n        /* \"#utility.yul\":41:48   */\n      0x00\n        /* \"#utility.yul\":84:89   */\n      dup2\n        /* \"#utility.yul\":77:90   */\n      iszero\n        /* \"#utility.yul\":70:91   */\n      iszero\n        /* \"#utility.yul\":59:91   */\n      swap1\n      pop\n        /* \"#utility.yul\":7:97   */\n      swap2\n      swap1\n      pop\n      jump\t// out\n        /* \"#utility.yul\":103:212   */\n    tag_224:\n        /* \"#utility.yul\":184:205   */\n      tag_268\n        /* \"#utility.yul\":199:204   */\n      dup2\n        /* \"#utility.yul\":184:205   */\n      tag_223\n      jump\t// in\n    tag_268:\n        /* \"#utility.yul\":179:182   */\n      dup3\n        /* \"#utility.yul\":172:206   */\n      mstore\n        /* \"#utility.yul\":103:212   */\n      pop\n      pop\n      jump\t// out\n        /* \"#utility.yul\":218:428   */\n    tag_28:\n        /* \"#utility.yul\":305:309   */\n      0x00\n        /* \"#utility.yul\":343:345   */\n      0x20\n        /* \"#utility.yul\":332:341   */\n      dup3\n        /* \"#utility.yul\":328:346   */\n      add\n        /* \"#utility.yul\":320:346   */\n      swap1\n      pop\n        /* \"#utility.yul\":356:421   */\n      tag_270\n        /* \"#utility.yul\":418:419   */\n      0x00\n        /* \"#utility.yul\":407:416   */\n      dup4\n        /* \"#utility.yul\":403:420   */\n      add\n        /* \"#utility.yul\":394:400   */\n      dup5\n        /* \"#utility.yul\":356:421   */\n      tag_224\n      jump\t// in\n    tag_270:\n        /* \"#utility.yul\":218:428   */\n      swap3\n      swap2\n      pop\n      pop\n      jump\t// out\n        /* \"#utility.yul\":434:560   */\n    tag_225:\n        /* \"#utility.yul\":471:478   */\n      0x00\n        /* \"#utility.yul\":511:553   */\n      0xffffffffffffffffffffffffffffffffffffffff\n        /* \"#utility.yul\":504:509   */\n      dup3\n        /* \"#utility.yul\":500:554   */\n      and\n        /* \"#utility.yul\":489:554   */\n      swap1\n      pop\n        /* \"#utility.yul\":434:560   */\n      swap2\n      swap1\n      pop\n      jump\t// out\n        /* \"#utility.yul\":566:662   */\n    tag_226:\n        /* \"#utility.yul\":603:610   */\n      0x00\n        /* \"#utility.yul\":632:656   */\n      tag_273\n        /* \"#utility.yul\":650:655   */\n      dup3\n        /* \"#utility.yul\":632:656   */\n      tag_225\n      jump\t// in\n    tag_273:\n        /* \"#utility.yul\":621:656   */\n      swap1\n      pop\n        /* \"#utility.yul\":566:662   */\n      swap2\n      swap1\n      pop\n      jump\t// out\n        /* \"#utility.yul\":668:786   */\n    tag_227:\n        /* \"#utility.yul\":755:779   */\n      tag_275\n        /* \"#utility.yul\":773:778   */\n      dup2\n        /* \"#utility.yul\":755:779   */\n      tag_226\n      jump\t// in\n    tag_275:\n        /* \"#utility.yul\":750:753   */\n      dup3\n        /* \"#utility.yul\":743:780   */\n      mstore\n        /* \"#utility.yul\":668:786   */\n      pop\n      pop\n      jump\t// out\n        /* \"#utility.yul\":792:1014   */\n    tag_33:\n        /* \"#utility.yul\":885:889   */\n      0x00\n        /* \"#utility.yul\":923:925   */\n      0x20\n        /* \"#utility.yul\":912:921   */\n      dup3\n        /* \"#utility.yul\":908:926   */\n      add\n        /* \"#utility.yul\":900:926   */\n      swap1\n      pop\n        /* \"#utility.yul\":936:1007   */\n      tag_277\n        /* \"#utility.yul\":1004:1005   */\n      0x00\n        /* \"#utility.yul\":993:1002   */\n      dup4\n        /* \"#utility.yul\":989:1006   */\n      add\n        /* \"#utility.yul\":980:986   */\n      dup5\n        /* \"#utility.yul\":936:1007   */\n      tag_227\n      jump\t// in\n    tag_277:\n        /* \"#utility.yul\":792:1014   */\n      swap3\n      swap2\n      pop\n      pop\n      jump\t// out\n        /* \"#utility.yul\":1101:1218   */\n    tag_229:\n        /* \"#utility.yul\":1210:1211   */\n      0x00\n        /* \"#utility.yul\":1207:1208   */\n      dup1\n        /* \"#utility.yul\":1200:1212   */\n      revert\n        /* \"#utility.yul\":1347:1424   */\n    tag_231:\n        /* \"#utility.yul\":1384:1391   */\n      0x00\n        /* \"#utility.yul\":1413:1418   */\n      dup2\n        /* \"#utility.yul\":1402:1418   */\n      swap1\n      pop\n        /* \"#utility.yul\":1347:1424   */\n      swap2\n      swap1\n      pop\n      jump\t// out\n        /* \"#utility.yul\":1430:1552   */\n    tag_232:\n        /* \"#utility.yul\":1503:1527   */\n      tag_283\n        /* \"#utility.yul\":1521:1526   */\n      dup2\n        /* \"#utility.yul\":1503:1527   */\n      tag_231\n      jump\t// in\n    tag_283:\n        /* \"#utility.yul\":1496:1501   */\n      dup2\n        /* \"#utility.yul\":1493:1528   */\n      eq\n        /* \"#utility.yul\":1483:1546   */\n      tag_284\n      jumpi\n        /* \"#utility.yul\":1542:1543   */\n      0x00\n        /* \"#utility.yul\":1539:1540   */\n      dup1\n        /* \"#utility.yul\":1532:1544   */\n      revert\n        /* \"#utility.yul\":1483:1546   */\n    tag_284:\n        /* \"#utility.yul\":1430:1552   */\n      pop\n      jump\t// out\n        /* \"#utility.yul\":1558:1697   */\n    tag_233:\n        /* \"#utility.yul\":1604:1609   */\n      0x00\n        /* \"#utility.yul\":1642:1648   */\n      dup2\n        /* \"#utility.yul\":1629:1649   */\n      calldataload\n        /* \"#utility.yul\":1620:1649   */\n      swap1\n      pop\n        /* \"#utility.yul\":1658:1691   */\n      tag_286\n        /* \"#utility.yul\":1685:1690   */\n      dup2\n        /* \"#utility.yul\":1658:1691   */\n      tag_232\n      jump\t// in\n    tag_286:\n        /* \"#utility.yul\":1558:1697   */\n      swap3\n      swap2\n      pop\n      pop\n      jump\t// out\n        /* \"#utility.yul\":1703:2032   */\n    tag_42:\n        /* \"#utility.yul\":1762:1768   */\n      0x00\n        /* \"#utility.yul\":1811:1813   */\n      0x20\n        /* \"#utility.yul\":1799:1808   */\n      dup3\n        /* \"#utility.yul\":1790:1797   */\n      dup5\n        /* \"#utility.yul\":1786:1809   */\n      sub\n        /* \"#utility.yul\":1782:1814   */\n      slt\n        /* \"#utility.yul\":1779:1898   */\n      iszero\n      tag_288\n      jumpi\n        /* \"#utility.yul\":1817:1896   */\n      tag_289\n      tag_229\n      jump\t// in\n    tag_289:\n        /* \"#utility.yul\":1779:1898   */\n    tag_288:\n        /* \"#utility.yul\":1937:1938   */\n      0x00\n        /* \"#utility.yul\":1962:2015   */\n      tag_290\n        /* \"#utility.yul\":2007:2014   */\n      dup5\n        /* \"#utility.yul\":1998:2004   */\n      dup3\n        /* \"#utility.yul\":1987:1996   */\n      dup6\n        /* \"#utility.yul\":1983:2005   */\n      add\n        /* \"#utility.yul\":1962:2015   */\n      tag_233\n      jump\t// in\n    tag_290:\n        /* \"#utility.yul\":1952:2015   */\n      swap2\n      pop\n        /* \"#utility.yul\":1908:2025   */\n      pop\n        /* \"#utility.yul\":1703:2032   */\n      swap3\n      swap2\n      pop\n      pop\n      jump\t// out\n        /* \"#utility.yul\":2038:2156   */\n    tag_234:\n        /* \"#utility.yul\":2125:2149   */\n      tag_292\n        /* \"#utility.yul\":2143:2148   */\n      dup2\n        /* \"#utility.yul\":2125:2149   */\n      tag_231\n      jump\t// in\n    tag_292:\n        /* \"#utility.yul\":2120:2123   */\n      dup3\n        /* \"#utility.yul\":2113:2150   */\n      mstore\n        /* \"#utility.yul\":2038:2156   */\n      pop\n      pop\n      jump\t// out\n        /* \"#utility.yul\":2162:2494   */\n    tag_45:\n        /* \"#utility.yul\":2283:2287   */\n      0x00\n        /* \"#utility.yul\":2321:2323   */\n      0x40\n        /* \"#utility.yul\":2310:2319   */\n      dup3\n        /* \"#utility.yul\":2306:2324   */\n      add\n        /* \"#utility.yul\":2298:2324   */\n      swap1\n      pop\n        /* \"#utility.yul\":2334:2405   */\n      tag_294\n        /* \"#utility.yul\":2402:2403   */\n      0x00\n        /* \"#utility.yul\":2391:2400   */\n      dup4\n        /* \"#utility.yul\":2387:2404   */\n      add\n        /* \"#utility.yul\":2378:2384   */\n      dup6\n        /* \"#utility.yul\":2334:2405   */\n      tag_227\n      jump\t// in\n    tag_294:\n        /* \"#utility.yul\":2415:2487   */\n      tag_295\n        /* \"#utility.yul\":2483:2485   */\n      0x20\n        /* \"#utility.yul\":2472:2481   */\n      dup4\n        /* \"#utility.yul\":2468:2486   */\n      add\n        /* \"#utility.yul\":2459:2465   */\n      dup5\n        /* \"#utility.yul\":2415:2487   */\n      tag_234\n      jump\t// in\n    tag_295:\n        /* \"#utility.yul\":2162:2494   */\n      swap4\n      swap3\n      pop\n      pop\n      pop\n      jump\t// out\n        /* \"#utility.yul\":2500:2622   */\n    tag_235:\n        /* \"#utility.yul\":2573:2597   */\n      tag_297\n        /* \"#utility.yul\":2591:2596   */\n      dup2\n        /* \"#utility.yul\":2573:2597   */\n      tag_226\n      jump\t// in\n    tag_297:\n        /* \"#utility.yul\":2566:2571   */\n      dup2\n        /* \"#utility.yul\":2563:2598   */\n      eq\n        /* \"#utility.yul\":2553:2616   */\n      tag_298\n      jumpi\n        /* \"#utility.yul\":2612:2613   */\n      0x00\n        /* \"#utility.yul\":2609:2610   */\n      dup1\n        /* \"#utility.yul\":2602:2614   */\n      revert\n        /* \"#utility.yul\":2553:2616   */\n    tag_298:\n        /* \"#utility.yul\":2500:2622   */\n      pop\n      jump\t// out\n        /* \"#utility.yul\":2628:2767   */\n    tag_236:\n        /* \"#utility.yul\":2674:2679   */\n      0x00\n        /* \"#utility.yul\":2712:2718   */\n      dup2\n        /* \"#utility.yul\":2699:2719   */\n      calldataload\n        /* \"#utility.yul\":2690:2719   */\n      swap1\n      pop\n        /* \"#utility.yul\":2728:2761   */\n      tag_300\n        /* \"#utility.yul\":2755:2760   */\n      dup2\n        /* \"#utility.yul\":2728:2761   */\n      tag_235\n      jump\t// in\n    tag_300:\n        /* \"#utility.yul\":2628:2767   */\n      swap3\n      swap2\n      pop\n      pop\n      jump\t// out\n        /* \"#utility.yul\":2773:3102   */\n    tag_49:\n        /* \"#utility.yul\":2832:2838   */\n      0x00\n        /* \"#utility.yul\":2881:2883   */\n      0x20\n        /* \"#utility.yul\":2869:2878   */\n      dup3\n        /* \"#utility.yul\":2860:2867   */\n      dup5\n        /* \"#utility.yul\":2856:2879   */\n      sub\n        /* \"#utility.yul\":2852:2884   */\n      slt\n        /* \"#utility.yul\":2849:2968   */\n      iszero\n      tag_302\n      jumpi\n        /* \"#utility.yul\":2887:2966   */\n      tag_303\n      tag_229\n      jump\t// in\n    tag_303:\n        /* \"#utility.yul\":2849:2968   */\n    tag_302:\n        /* \"#utility.yul\":3007:3008   */\n      0x00\n        /* \"#utility.yul\":3032:3085   */\n      tag_304\n        /* \"#utility.yul\":3077:3084   */\n      dup5\n        /* \"#utility.yul\":3068:3074   */\n      dup3\n        /* \"#utility.yul\":3057:3066   */\n      dup6\n        /* \"#utility.yul\":3053:3075   */\n      add\n        /* \"#utility.yul\":3032:3085   */\n      tag_236\n      jump\t// in\n    tag_304:\n        /* \"#utility.yul\":3022:3085   */\n      swap2\n      pop\n        /* \"#utility.yul\":2978:3095   */\n      pop\n        /* \"#utility.yul\":2773:3102   */\n      swap3\n      swap2\n      pop\n      pop\n      jump\t// out\n        /* \"#utility.yul\":3108:3330   */\n    tag_52:\n        /* \"#utility.yul\":3201:3205   */\n      0x00\n        /* \"#utility.yul\":3239:3241   */\n      0x20\n        /* \"#utility.yul\":3228:3237   */\n      dup3\n        /* \"#utility.yul\":3224:3242   */\n      add\n        /* \"#utility.yul\":3216:3242   */\n      swap1\n      pop\n        /* \"#utility.yul\":3252:3323   */\n      tag_306\n        /* \"#utility.yul\":3320:3321   */\n      0x00\n        /* \"#utility.yul\":3309:3318   */\n      dup4\n        /* \"#utility.yul\":3305:3322   */\n      add\n        /* \"#utility.yul\":3296:3302   */\n      dup5\n        /* \"#utility.yul\":3252:3323   */\n      tag_234\n      jump\t// in\n    tag_306:\n        /* \"#utility.yul\":3108:3330   */\n      swap3\n      swap2\n      pop\n      pop\n      jump\t// out\n        /* \"#utility.yul\":3336:3472   */\n    tag_237:\n        /* \"#utility.yul\":3425:3431   */\n      0x00\n        /* \"#utility.yul\":3459:3464   */\n      dup2\n        /* \"#utility.yul\":3453:3465   */\n      mload\n        /* \"#utility.yul\":3443:3465   */\n      swap1\n      pop\n        /* \"#utility.yul\":3336:3472   */\n      swap2\n      swap1\n      pop\n      jump\t// out\n        /* \"#utility.yul\":3478:3684   */\n    tag_238:\n        /* \"#utility.yul\":3599:3610   */\n      0x00\n        /* \"#utility.yul\":3633:3639   */\n      dup3\n        /* \"#utility.yul\":3628:3631   */\n      dup3\n        /* \"#utility.yul\":3621:3640   */\n      mstore\n        /* \"#utility.yul\":3673:3677   */\n      0x20\n        /* \"#utility.yul\":3668:3671   */\n      dup3\n        /* \"#utility.yul\":3664:3678   */\n      add\n        /* \"#utility.yul\":3649:3678   */\n      swap1\n      pop\n        /* \"#utility.yul\":3478:3684   */\n      swap3\n      swap2\n      pop\n      pop\n      jump\t// out\n        /* \"#utility.yul\":3690:3844   */\n    tag_239:\n        /* \"#utility.yul\":3779:3783   */\n      0x00\n        /* \"#utility.yul\":3802:3805   */\n      dup2\n        /* \"#utility.yul\":3794:3805   */\n      swap1\n      pop\n        /* \"#utility.yul\":3832:3836   */\n      0x20\n        /* \"#utility.yul\":3827:3830   */\n      dup3\n        /* \"#utility.yul\":3823:3837   */\n      add\n        /* \"#utility.yul\":3815:3837   */\n      swap1\n      pop\n        /* \"#utility.yul\":3690:3844   */\n      swap2\n      swap1\n      pop\n      jump\t// out\n        /* \"#utility.yul\":3850:3958   */\n    tag_240:\n        /* \"#utility.yul\":3927:3951   */\n      tag_311\n        /* \"#utility.yul\":3945:3950   */\n      dup2\n        /* \"#utility.yul\":3927:3951   */\n      tag_226\n      jump\t// in\n    tag_311:\n        /* \"#utility.yul\":3922:3925   */\n      dup3\n        /* \"#utility.yul\":3915:3952   */\n      mstore\n        /* \"#utility.yul\":3850:3958   */\n      pop\n      pop\n      jump\t// out\n        /* \"#utility.yul\":3964:4072   */\n    tag_241:\n        /* \"#utility.yul\":4041:4065   */\n      tag_313\n        /* \"#utility.yul\":4059:4064   */\n      dup2\n        /* \"#utility.yul\":4041:4065   */\n      tag_231\n      jump\t// in\n    tag_313:\n        /* \"#utility.yul\":4036:4039   */\n      dup3\n        /* \"#utility.yul\":4029:4066   */\n      mstore\n        /* \"#utility.yul\":3964:4072   */\n      pop\n      pop\n      jump\t// out\n        /* \"#utility.yul\":4132:4632   */\n    tag_242:\n        /* \"#utility.yul\":4263:4267   */\n      0x40\n        /* \"#utility.yul\":4258:4261   */\n      dup3\n        /* \"#utility.yul\":4254:4268   */\n      add\n        /* \"#utility.yul\":4355:4359   */\n      0x00\n        /* \"#utility.yul\":4348:4353   */\n      dup3\n        /* \"#utility.yul\":4344:4360   */\n      add\n        /* \"#utility.yul\":4338:4361   */\n      mload\n        /* \"#utility.yul\":4374:4437   */\n      tag_315\n        /* \"#utility.yul\":4431:4435   */\n      0x00\n        /* \"#utility.yul\":4426:4429   */\n      dup6\n        /* \"#utility.yul\":4422:4436   */\n      add\n        /* \"#utility.yul\":4408:4420   */\n      dup3\n        /* \"#utility.yul\":4374:4437   */\n      tag_240\n      jump\t// in\n    tag_315:\n        /* \"#utility.yul\":4278:4447   */\n      pop\n        /* \"#utility.yul\":4533:4537   */\n      0x20\n        /* \"#utility.yul\":4526:4531   */\n      dup3\n        /* \"#utility.yul\":4522:4538   */\n      add\n        /* \"#utility.yul\":4516:4539   */\n      mload\n        /* \"#utility.yul\":4552:4615   */\n      tag_316\n        /* \"#utility.yul\":4609:4613   */\n      0x20\n        /* \"#utility.yul\":4604:4607   */\n      dup6\n        /* \"#utility.yul\":4600:4614   */\n      add\n        /* \"#utility.yul\":4586:4598   */\n      dup3\n        /* \"#utility.yul\":4552:4615   */\n      tag_241\n      jump\t// in\n    tag_316:\n        /* \"#utility.yul\":4457:4625   */\n      pop\n        /* \"#utility.yul\":4232:4632   */\n      pop\n        /* \"#utility.yul\":4132:4632   */\n      pop\n      pop\n      jump\t// out\n        /* \"#utility.yul\":4638:4905   */\n    tag_243:\n        /* \"#utility.yul\":4751:4761   */\n      0x00\n        /* \"#utility.yul\":4772:4862   */\n      tag_318\n        /* \"#utility.yul\":4858:4861   */\n      dup4\n        /* \"#utility.yul\":4850:4856   */\n      dup4\n        /* \"#utility.yul\":4772:4862   */\n      tag_242\n      jump\t// in\n    tag_318:\n        /* \"#utility.yul\":4894:4898   */\n      0x40\n        /* \"#utility.yul\":4889:4892   */\n      dup4\n        /* \"#utility.yul\":4885:4899   */\n      add\n        /* \"#utility.yul\":4871:4899   */\n      swap1\n      pop\n        /* \"#utility.yul\":4638:4905   */\n      swap3\n      swap2\n      pop\n      pop\n      jump\t// out\n        /* \"#utility.yul\":4911:5046   */\n    tag_244:\n        /* \"#utility.yul\":5003:5007   */\n      0x00\n        /* \"#utility.yul\":5035:5039   */\n      0x20\n        /* \"#utility.yul\":5030:5033   */\n      dup3\n        /* \"#utility.yul\":5026:5040   */\n      add\n        /* \"#utility.yul\":5018:5040   */\n      swap1\n      pop\n        /* \"#utility.yul\":4911:5046   */\n      swap2\n      swap1\n      pop\n      jump\t// out\n        /* \"#utility.yul\":5110:6018   */\n    tag_245:\n        /* \"#utility.yul\":5273:5276   */\n      0x00\n        /* \"#utility.yul\":5302:5378   */\n      tag_321\n        /* \"#utility.yul\":5372:5377   */\n      dup3\n        /* \"#utility.yul\":5302:5378   */\n      tag_237\n      jump\t// in\n    tag_321:\n        /* \"#utility.yul\":5394:5502   */\n      tag_322\n        /* \"#utility.yul\":5495:5501   */\n      dup2\n        /* \"#utility.yul\":5490:5493   */\n      dup6\n        /* \"#utility.yul\":5394:5502   */\n      tag_238\n      jump\t// in\n    tag_322:\n        /* \"#utility.yul\":5387:5502   */\n      swap4\n      pop\n        /* \"#utility.yul\":5526:5604   */\n      tag_323\n        /* \"#utility.yul\":5598:5603   */\n      dup4\n        /* \"#utility.yul\":5526:5604   */\n      tag_239\n      jump\t// in\n    tag_323:\n        /* \"#utility.yul\":5627:5634   */\n      dup1\n        /* \"#utility.yul\":5658:5659   */\n      0x00\n        /* \"#utility.yul\":5643:5993   */\n    tag_324:\n        /* \"#utility.yul\":5668:5674   */\n      dup4\n        /* \"#utility.yul\":5665:5666   */\n      dup2\n        /* \"#utility.yul\":5662:5675   */\n      lt\n        /* \"#utility.yul\":5643:5993   */\n      iszero\n      tag_326\n      jumpi\n        /* \"#utility.yul\":5744:5750   */\n      dup2\n        /* \"#utility.yul\":5738:5751   */\n      mload\n        /* \"#utility.yul\":5771:5878   */\n      tag_327\n        /* \"#utility.yul\":5874:5877   */\n      dup9\n        /* \"#utility.yul\":5859:5872   */\n      dup3\n        /* \"#utility.yul\":5771:5878   */\n      tag_243\n      jump\t// in\n    tag_327:\n        /* \"#utility.yul\":5764:5878   */\n      swap8\n      pop\n        /* \"#utility.yul\":5901:5983   */\n      tag_328\n        /* \"#utility.yul\":5976:5982   */\n      dup4\n        /* \"#utility.yul\":5901:5983   */\n      tag_244\n      jump\t// in\n    tag_328:\n        /* \"#utility.yul\":5891:5983   */\n      swap3\n      pop\n        /* \"#utility.yul\":5703:5993   */\n      pop\n        /* \"#utility.yul\":5690:5691   */\n      0x01\n        /* \"#utility.yul\":5687:5688   */\n      dup2\n        /* \"#utility.yul\":5683:5692   */\n      add\n        /* \"#utility.yul\":5678:5692   */\n      swap1\n      pop\n        /* \"#utility.yul\":5643:5993   */\n      jump(tag_324)\n    tag_326:\n        /* \"#utility.yul\":5647:5661   */\n      pop\n        /* \"#utility.yul\":6009:6012   */\n      dup6\n        /* \"#utility.yul\":6002:6012   */\n      swap4\n      pop\n        /* \"#utility.yul\":5278:6018   */\n      pop\n      pop\n      pop\n        /* \"#utility.yul\":5110:6018   */\n      swap3\n      swap2\n      pop\n      pop\n      jump\t// out\n        /* \"#utility.yul\":6024:6485   */\n    tag_75:\n        /* \"#utility.yul\":6211:6215   */\n      0x00\n        /* \"#utility.yul\":6249:6251   */\n      0x20\n        /* \"#utility.yul\":6238:6247   */\n      dup3\n        /* \"#utility.yul\":6234:6252   */\n      add\n        /* \"#utility.yul\":6226:6252   */\n      swap1\n      pop\n        /* \"#utility.yul\":6298:6307   */\n      dup2\n        /* \"#utility.yul\":6292:6296   */\n      dup2\n        /* \"#utility.yul\":6288:6308   */\n      sub\n        /* \"#utility.yul\":6284:6285   */\n      0x00\n        /* \"#utility.yul\":6273:6282   */\n      dup4\n        /* \"#utility.yul\":6269:6286   */\n      add\n        /* \"#utility.yul\":6262:6309   */\n      mstore\n        /* \"#utility.yul\":6326:6478   */\n      tag_330\n        /* \"#utility.yul\":6473:6477   */\n      dup2\n        /* \"#utility.yul\":6464:6470   */\n      dup5\n        /* \"#utility.yul\":6326:6478   */\n      tag_245\n      jump\t// in\n    tag_330:\n        /* \"#utility.yul\":6318:6478   */\n      swap1\n      pop\n        /* \"#utility.yul\":6024:6485   */\n      swap3\n      swap2\n      pop\n      pop\n      jump\t// out\n        /* \"#utility.yul\":6491:6660   */\n    tag_246:\n        /* \"#utility.yul\":6575:6586   */\n      0x00\n        /* \"#utility.yul\":6609:6615   */\n      dup3\n        /* \"#utility.yul\":6604:6607   */\n      dup3\n        /* \"#utility.yul\":6597:6616   */\n      mstore\n        /* \"#utility.yul\":6649:6653   */\n      0x20\n        /* \"#utility.yul\":6644:6647   */\n      dup3\n        /* \"#utility.yul\":6640:6654   */\n      add\n        /* \"#utility.yul\":6625:6654   */\n      swap1\n      pop\n        /* \"#utility.yul\":6491:6660   */\n      swap3\n      swap2\n      pop\n      pop\n      jump\t// out\n        /* \"#utility.yul\":6666:6898   */\n    tag_247:\n        /* \"#utility.yul\":6806:6840   */\n      0x536f6c6f20656c2073756261737461646f7220707565646520656a6563757461\n        /* \"#utility.yul\":6802:6803   */\n      0x00\n        /* \"#utility.yul\":6794:6800   */\n      dup3\n        /* \"#utility.yul\":6790:6804   */\n      add\n        /* \"#utility.yul\":6783:6841   */\n      mstore\n        /* \"#utility.yul\":6875:6890   */\n      0x72206573746120616363696f6e00000000000000000000000000000000000000\n        /* \"#utility.yul\":6870:6872   */\n      0x20\n        /* \"#utility.yul\":6862:6868   */\n      dup3\n        /* \"#utility.yul\":6858:6873   */\n      add\n        /* \"#utility.yul\":6851:6891   */\n      mstore\n        /* \"#utility.yul\":6666:6898   */\n      pop\n      jump\t// out\n        /* \"#utility.yul\":6904:7270   */\n    tag_248:\n        /* \"#utility.yul\":7046:7049   */\n      0x00\n        /* \"#utility.yul\":7067:7134   */\n      tag_334\n        /* \"#utility.yul\":7131:7133   */\n      0x2d\n        /* \"#utility.yul\":7126:7129   */\n      dup4\n        /* \"#utility.yul\":7067:7134   */\n      tag_246\n      jump\t// in\n    tag_334:\n        /* \"#utility.yul\":7060:7134   */\n      swap2\n      pop\n        /* \"#utility.yul\":7143:7236   */\n      tag_335\n        /* \"#utility.yul\":7232:7235   */\n      dup3\n        /* \"#utility.yul\":7143:7236   */\n      tag_247\n      jump\t// in\n    tag_335:\n        /* \"#utility.yul\":7261:7263   */\n      0x40\n        /* \"#utility.yul\":7256:7259   */\n      dup3\n        /* \"#utility.yul\":7252:7264   */\n      add\n        /* \"#utility.yul\":7245:7264   */\n      swap1\n      pop\n        /* \"#utility.yul\":6904:7270   */\n      swap2\n      swap1\n      pop\n      jump\t// out\n        /* \"#utility.yul\":7276:7695   */\n    tag_91:\n        /* \"#utility.yul\":7442:7446   */\n      0x00\n        /* \"#utility.yul\":7480:7482   */\n      0x20\n        /* \"#utility.yul\":7469:7478   */\n      dup3\n        /* \"#utility.yul\":7465:7483   */\n      add\n        /* \"#utility.yul\":7457:7483   */\n      swap1\n      pop\n        /* \"#utility.yul\":7529:7538   */\n      dup2\n        /* \"#utility.yul\":7523:7527   */\n      dup2\n        /* \"#utility.yul\":7519:7539   */\n      sub\n        /* \"#utility.yul\":7515:7516   */\n      0x00\n        /* \"#utility.yul\":7504:7513   */\n      dup4\n        /* \"#utility.yul\":7500:7517   */\n      add\n        /* \"#utility.yul\":7493:7540   */\n      mstore\n        /* \"#utility.yul\":7557:7688   */\n      tag_337\n        /* \"#utility.yul\":7683:7687   */\n      dup2\n        /* \"#utility.yul\":7557:7688   */\n      tag_248\n      jump\t// in\n    tag_337:\n        /* \"#utility.yul\":7549:7688   */\n      swap1\n      pop\n        /* \"#utility.yul\":7276:7695   */\n      swap2\n      swap1\n      pop\n      jump\t// out\n        /* \"#utility.yul\":7701:7878   */\n    tag_249:\n        /* \"#utility.yul\":7841:7870   */\n      0x4c6120737562617374612079612068612066696e616c697a61646f0000000000\n        /* \"#utility.yul\":7837:7838   */\n      0x00\n        /* \"#utility.yul\":7829:7835   */\n      dup3\n        /* \"#utility.yul\":7825:7839   */\n      add\n        /* \"#utility.yul\":7818:7871   */\n      mstore\n        /* \"#utility.yul\":7701:7878   */\n      pop\n      jump\t// out\n        /* \"#utility.yul\":7884:8250   */\n    tag_250:\n        /* \"#utility.yul\":8026:8029   */\n      0x00\n        /* \"#utility.yul\":8047:8114   */\n      tag_340\n        /* \"#utility.yul\":8111:8113   */\n      0x1b\n        /* \"#utility.yul\":8106:8109   */\n      dup4\n        /* \"#utility.yul\":8047:8114   */\n      tag_246\n      jump\t// in\n    tag_340:\n        /* \"#utility.yul\":8040:8114   */\n      swap2\n      pop\n        /* \"#utility.yul\":8123:8216   */\n      tag_341\n        /* \"#utility.yul\":8212:8215   */\n      dup3\n        /* \"#utility.yul\":8123:8216   */\n      tag_249\n      jump\t// in\n    tag_341:\n        /* \"#utility.yul\":8241:8243   */\n      0x20\n        /* \"#utility.yul\":8236:8239   */\n      dup3\n        /* \"#utility.yul\":8232:8244   */\n      add\n        /* \"#utility.yul\":8225:8244   */\n      swap1\n      pop\n        /* \"#utility.yul\":7884:8250   */\n      swap2\n      swap1\n      pop\n      jump\t// out\n        /* \"#utility.yul\":8256:8675   */\n    tag_96:\n        /* \"#utility.yul\":8422:8426   */\n      0x00\n        /* \"#utility.yul\":8460:8462   */\n      0x20\n        /* \"#utility.yul\":8449:8458   */\n      dup3\n        /* \"#utility.yul\":8445:8463   */\n      add\n        /* \"#utility.yul\":8437:8463   */\n      swap1\n      pop\n        /* \"#utility.yul\":8509:8518   */\n      dup2\n        /* \"#utility.yul\":8503:8507   */\n      dup2\n        /* \"#utility.yul\":8499:8519   */\n      sub\n        /* \"#utility.yul\":8495:8496   */\n      0x00\n        /* \"#utility.yul\":8484:8493   */\n      dup4\n        /* \"#utility.yul\":8480:8497   */\n      add\n        /* \"#utility.yul\":8473:8520   */\n      mstore\n        /* \"#utility.yul\":8537:8668   */\n      tag_343\n        /* \"#utility.yul\":8663:8667   */\n      dup2\n        /* \"#utility.yul\":8537:8668   */\n      tag_250\n      jump\t// in\n    tag_343:\n        /* \"#utility.yul\":8529:8668   */\n      swap1\n      pop\n        /* \"#utility.yul\":8256:8675   */\n      swap2\n      swap1\n      pop\n      jump\t// out\n        /* \"#utility.yul\":8681:8859   */\n    tag_251:\n        /* \"#utility.yul\":8821:8851   */\n      0x4c6120737562617374612061756e206573746120656e20637572736f00000000\n        /* \"#utility.yul\":8817:8818   */\n      0x00\n        /* \"#utility.yul\":8809:8815   */\n      dup3\n        /* \"#utility.yul\":8805:8819   */\n      add\n        /* \"#utility.yul\":8798:8852   */\n      mstore\n        /* \"#utility.yul\":8681:8859   */\n      pop\n      jump\t// out\n        /* \"#utility.yul\":8865:9231   */\n    tag_252:\n        /* \"#utility.yul\":9007:9010   */\n      0x00\n        /* \"#utility.yul\":9028:9095   */\n      tag_346\n        /* \"#utility.yul\":9092:9094   */\n      0x1c\n        /* \"#utility.yul\":9087:9090   */\n      dup4\n        /* \"#utility.yul\":9028:9095   */\n      tag_246\n      jump\t// in\n    tag_346:\n        /* \"#utility.yul\":9021:9095   */\n      swap2\n      pop\n        /* \"#utility.yul\":9104:9197   */\n      tag_347\n        /* \"#utility.yul\":9193:9196   */\n      dup3\n        /* \"#utility.yul\":9104:9197   */\n      tag_251\n      jump\t// in\n    tag_347:\n        /* \"#utility.yul\":9222:9224   */\n      0x20\n        /* \"#utility.yul\":9217:9220   */\n      dup3\n        /* \"#utility.yul\":9213:9225   */\n      add\n        /* \"#utility.yul\":9206:9225   */\n      swap1\n      pop\n        /* \"#utility.yul\":8865:9231   */\n      swap2\n      swap1\n      pop\n      jump\t// out\n        /* \"#utility.yul\":9237:9656   */\n    tag_100:\n        /* \"#utility.yul\":9403:9407   */\n      0x00\n        /* \"#utility.yul\":9441:9443   */\n      0x20\n        /* \"#utility.yul\":9430:9439   */\n      dup3\n        /* \"#utility.yul\":9426:9444   */\n      add\n        /* \"#utility.yul\":9418:9444   */\n      swap1\n      pop\n        /* \"#utility.yul\":9490:9499   */\n      dup2\n        /* \"#utility.yul\":9484:9488   */\n      dup2\n        /* \"#utility.yul\":9480:9500   */\n      sub\n        /* \"#utility.yul\":9476:9477   */\n      0x00\n        /* \"#utility.yul\":9465:9474   */\n      dup4\n        /* \"#utility.yul\":9461:9478   */\n      add\n        /* \"#utility.yul\":9454:9501   */\n      mstore\n        /* \"#utility.yul\":9518:9649   */\n      tag_349\n        /* \"#utility.yul\":9644:9648   */\n      dup2\n        /* \"#utility.yul\":9518:9649   */\n      tag_252\n      jump\t// in\n    tag_349:\n        /* \"#utility.yul\":9510:9649   */\n      swap1\n      pop\n        /* \"#utility.yul\":9237:9656   */\n      swap2\n      swap1\n      pop\n      jump\t// out\n        /* \"#utility.yul\":9662:9842   */\n    tag_253:\n        /* \"#utility.yul\":9710:9787   */\n      0x4e487b7100000000000000000000000000000000000000000000000000000000\n        /* \"#utility.yul\":9707:9708   */\n      0x00\n        /* \"#utility.yul\":9700:9788   */\n      mstore\n        /* \"#utility.yul\":9807:9811   */\n      0x11\n        /* \"#utility.yul\":9804:9805   */\n      0x04\n        /* \"#utility.yul\":9797:9812   */\n      mstore\n        /* \"#utility.yul\":9831:9835   */\n      0x24\n        /* \"#utility.yul\":9828:9829   */\n      0x00\n        /* \"#utility.yul\":9821:9836   */\n      revert\n        /* \"#utility.yul\":9848:10042   */\n    tag_103:\n        /* \"#utility.yul\":9888:9892   */\n      0x00\n        /* \"#utility.yul\":9908:9928   */\n      tag_352\n        /* \"#utility.yul\":9926:9927   */\n      dup3\n        /* \"#utility.yul\":9908:9928   */\n      tag_231\n      jump\t// in\n    tag_352:\n        /* \"#utility.yul\":9903:9928   */\n      swap2\n      pop\n        /* \"#utility.yul\":9942:9962   */\n      tag_353\n        /* \"#utility.yul\":9960:9961   */\n      dup4\n        /* \"#utility.yul\":9942:9962   */\n      tag_231\n      jump\t// in\n    tag_353:\n        /* \"#utility.yul\":9937:9962   */\n      swap3\n      pop\n        /* \"#utility.yul\":9986:9987   */\n      dup3\n        /* \"#utility.yul\":9983:9984   */\n      dup3\n        /* \"#utility.yul\":9979:9988   */\n      sub\n        /* \"#utility.yul\":9971:9988   */\n      swap1\n      pop\n        /* \"#utility.yul\":10010:10011   */\n      dup2\n        /* \"#utility.yul\":10004:10008   */\n      dup2\n        /* \"#utility.yul\":10001:10012   */\n      gt\n        /* \"#utility.yul\":9998:10035   */\n      iszero\n      tag_354\n      jumpi\n        /* \"#utility.yul\":10015:10033   */\n      tag_355\n      tag_253\n      jump\t// in\n    tag_355:\n        /* \"#utility.yul\":9998:10035   */\n    tag_354:\n        /* \"#utility.yul\":9848:10042   */\n      swap3\n      swap2\n      pop\n      pop\n      jump\t// out\n        /* \"#utility.yul\":10048:10228   */\n    tag_106:\n        /* \"#utility.yul\":10096:10173   */\n      0x4e487b7100000000000000000000000000000000000000000000000000000000\n        /* \"#utility.yul\":10093:10094   */\n      0x00\n        /* \"#utility.yul\":10086:10174   */\n      mstore\n        /* \"#utility.yul\":10193:10197   */\n      0x32\n        /* \"#utility.yul\":10190:10191   */\n      0x04\n        /* \"#utility.yul\":10183:10198   */\n      mstore\n        /* \"#utility.yul\":10217:10221   */\n      0x24\n        /* \"#utility.yul\":10214:10215   */\n      0x00\n        /* \"#utility.yul\":10207:10222   */\n      revert\n        /* \"#utility.yul\":10234:10644   */\n    tag_123:\n        /* \"#utility.yul\":10274:10281   */\n      0x00\n        /* \"#utility.yul\":10297:10317   */\n      tag_358\n        /* \"#utility.yul\":10315:10316   */\n      dup3\n        /* \"#utility.yul\":10297:10317   */\n      tag_231\n      jump\t// in\n    tag_358:\n        /* \"#utility.yul\":10292:10317   */\n      swap2\n      pop\n        /* \"#utility.yul\":10331:10351   */\n      tag_359\n        /* \"#utility.yul\":10349:10350   */\n      dup4\n        /* \"#utility.yul\":10331:10351   */\n      tag_231\n      jump\t// in\n    tag_359:\n        /* \"#utility.yul\":10326:10351   */\n      swap3\n      pop\n        /* \"#utility.yul\":10386:10387   */\n      dup3\n        /* \"#utility.yul\":10383:10384   */\n      dup3\n        /* \"#utility.yul\":10379:10388   */\n      mul\n        /* \"#utility.yul\":10408:10438   */\n      tag_360\n        /* \"#utility.yul\":10426:10437   */\n      dup2\n        /* \"#utility.yul\":10408:10438   */\n      tag_231\n      jump\t// in\n    tag_360:\n        /* \"#utility.yul\":10397:10438   */\n      swap2\n      pop\n        /* \"#utility.yul\":10587:10588   */\n      dup3\n        /* \"#utility.yul\":10578:10585   */\n      dup3\n        /* \"#utility.yul\":10574:10589   */\n      div\n        /* \"#utility.yul\":10571:10572   */\n      dup5\n        /* \"#utility.yul\":10568:10590   */\n      eq\n        /* \"#utility.yul\":10548:10549   */\n      dup4\n        /* \"#utility.yul\":10541:10550   */\n      iszero\n        /* \"#utility.yul\":10521:10604   */\n      or\n        /* \"#utility.yul\":10498:10637   */\n      tag_361\n      jumpi\n        /* \"#utility.yul\":10617:10635   */\n      tag_362\n      tag_253\n      jump\t// in\n    tag_362:\n        /* \"#utility.yul\":10498:10637   */\n    tag_361:\n        /* \"#utility.yul\":10282:10644   */\n      pop\n        /* \"#utility.yul\":10234:10644   */\n      swap3\n      swap2\n      pop\n      pop\n      jump\t// out\n        /* \"#utility.yul\":10650:10830   */\n    tag_254:\n        /* \"#utility.yul\":10698:10775   */\n      0x4e487b7100000000000000000000000000000000000000000000000000000000\n        /* \"#utility.yul\":10695:10696   */\n      0x00\n        /* \"#utility.yul\":10688:10776   */\n      mstore\n        /* \"#utility.yul\":10795:10799   */\n      0x12\n        /* \"#utility.yul\":10792:10793   */\n      0x04\n        /* \"#utility.yul\":10785:10800   */\n      mstore\n        /* \"#utility.yul\":10819:10823   */\n      0x24\n        /* \"#utility.yul\":10816:10817   */\n      0x00\n        /* \"#utility.yul\":10809:10824   */\n      revert\n        /* \"#utility.yul\":10836:11021   */\n    tag_125:\n        /* \"#utility.yul\":10876:10877   */\n      0x00\n        /* \"#utility.yul\":10893:10913   */\n      tag_365\n        /* \"#utility.yul\":10911:10912   */\n      dup3\n        /* \"#utility.yul\":10893:10913   */\n      tag_231\n      jump\t// in\n    tag_365:\n        /* \"#utility.yul\":10888:10913   */\n      swap2\n      pop\n        /* \"#utility.yul\":10927:10947   */\n      tag_366\n        /* \"#utility.yul\":10945:10946   */\n      dup4\n        /* \"#utility.yul\":10927:10947   */\n      tag_231\n      jump\t// in\n    tag_366:\n        /* \"#utility.yul\":10922:10947   */\n      swap3\n      pop\n        /* \"#utility.yul\":10966:10967   */\n      dup3\n        /* \"#utility.yul\":10956:10991   */\n      tag_367\n      jumpi\n        /* \"#utility.yul\":10971:10989   */\n      tag_368\n      tag_254\n      jump\t// in\n    tag_368:\n        /* \"#utility.yul\":10956:10991   */\n    tag_367:\n        /* \"#utility.yul\":11013:11014   */\n      dup3\n        /* \"#utility.yul\":11010:11011   */\n      dup3\n        /* \"#utility.yul\":11006:11015   */\n      div\n        /* \"#utility.yul\":11001:11015   */\n      swap1\n      pop\n        /* \"#utility.yul\":10836:11021   */\n      swap3\n      swap2\n      pop\n      pop\n      jump\t// out\n        /* \"#utility.yul\":11027:11218   */\n    tag_131:\n        /* \"#utility.yul\":11067:11070   */\n      0x00\n        /* \"#utility.yul\":11086:11106   */\n      tag_370\n        /* \"#utility.yul\":11104:11105   */\n      dup3\n        /* \"#utility.yul\":11086:11106   */\n      tag_231\n      jump\t// in\n    tag_370:\n        /* \"#utility.yul\":11081:11106   */\n      swap2\n      pop\n        /* \"#utility.yul\":11120:11140   */\n      tag_371\n        /* \"#utility.yul\":11138:11139   */\n      dup4\n        /* \"#utility.yul\":11120:11140   */\n      tag_231\n      jump\t// in\n    tag_371:\n        /* \"#utility.yul\":11115:11140   */\n      swap3\n      pop\n        /* \"#utility.yul\":11163:11164   */\n      dup3\n        /* \"#utility.yul\":11160:11161   */\n      dup3\n        /* \"#utility.yul\":11156:11165   */\n      add\n        /* \"#utility.yul\":11149:11165   */\n      swap1\n      pop\n        /* \"#utility.yul\":11184:11187   */\n      dup1\n        /* \"#utility.yul\":11181:11182   */\n      dup3\n        /* \"#utility.yul\":11178:11188   */\n      gt\n        /* \"#utility.yul\":11175:11211   */\n      iszero\n      tag_372\n      jumpi\n        /* \"#utility.yul\":11191:11209   */\n      tag_373\n      tag_253\n      jump\t// in\n    tag_373:\n        /* \"#utility.yul\":11175:11211   */\n    tag_372:\n        /* \"#utility.yul\":11027:11218   */\n      swap3\n      swap2\n      pop\n      pop\n      jump\t// out\n        /* \"#utility.yul\":11224:11468   */\n    tag_255:\n        /* \"#utility.yul\":11364:11398   */\n      0x4c61206f66657274612064656265207375706572617220656e20616c206d656e\n        /* \"#utility.yul\":11360:11361   */\n      0x00\n        /* \"#utility.yul\":11352:11358   */\n      dup3\n        /* \"#utility.yul\":11348:11362   */\n      add\n        /* \"#utility.yul\":11341:11399   */\n      mstore\n        /* \"#utility.yul\":11433:11460   */\n      0x6f7320756e203525206c61206f66657274612061637475616c00000000000000\n        /* \"#utility.yul\":11428:11430   */\n      0x20\n        /* \"#utility.yul\":11420:11426   */\n      dup3\n        /* \"#utility.yul\":11416:11431   */\n      add\n        /* \"#utility.yul\":11409:11461   */\n      mstore\n        /* \"#utility.yul\":11224:11468   */\n      pop\n      jump\t// out\n        /* \"#utility.yul\":11474:11840   */\n    tag_256:\n        /* \"#utility.yul\":11616:11619   */\n      0x00\n        /* \"#utility.yul\":11637:11704   */\n      tag_376\n        /* \"#utility.yul\":11701:11703   */\n      0x39\n        /* \"#utility.yul\":11696:11699   */\n      dup4\n        /* \"#utility.yul\":11637:11704   */\n      tag_246\n      jump\t// in\n    tag_376:\n        /* \"#utility.yul\":11630:11704   */\n      swap2\n      pop\n        /* \"#utility.yul\":11713:11806   */\n      tag_377\n        /* \"#utility.yul\":11802:11805   */\n      dup3\n        /* \"#utility.yul\":11713:11806   */\n      tag_255\n      jump\t// in\n    tag_377:\n        /* \"#utility.yul\":11831:11833   */\n      0x40\n        /* \"#utility.yul\":11826:11829   */\n      dup3\n        /* \"#utility.yul\":11822:11834   */\n      add\n        /* \"#utility.yul\":11815:11834   */\n      swap1\n      pop\n        /* \"#utility.yul\":11474:11840   */\n      swap2\n      swap1\n      pop\n      jump\t// out\n        /* \"#utility.yul\":11846:12265   */\n    tag_134:\n        /* \"#utility.yul\":12012:12016   */\n      0x00\n        /* \"#utility.yul\":12050:12052   */\n      0x20\n        /* \"#utility.yul\":12039:12048   */\n      dup3\n        /* \"#utility.yul\":12035:12053   */\n      add\n        /* \"#utility.yul\":12027:12053   */\n      swap1\n      pop\n        /* \"#utility.yul\":12099:12108   */\n      dup2\n        /* \"#utility.yul\":12093:12097   */\n      dup2\n        /* \"#utility.yul\":12089:12109   */\n      sub\n        /* \"#utility.yul\":12085:12086   */\n      0x00\n        /* \"#utility.yul\":12074:12083   */\n      dup4\n        /* \"#utility.yul\":12070:12087   */\n      add\n        /* \"#utility.yul\":12063:12110   */\n      mstore\n        /* \"#utility.yul\":12127:12258   */\n      tag_379\n        /* \"#utility.yul\":12253:12257   */\n      dup2\n        /* \"#utility.yul\":12127:12258   */\n      tag_256\n      jump\t// in\n    tag_379:\n        /* \"#utility.yul\":12119:12258   */\n      swap1\n      pop\n        /* \"#utility.yul\":11846:12265   */\n      swap2\n      swap1\n      pop\n      jump\t// out\n        /* \"#utility.yul\":12271:12447   */\n    tag_257:\n        /* \"#utility.yul\":12411:12439   */\n      0x4c6120737562617374612061756e206573746120616374697661000000000000\n        /* \"#utility.yul\":12407:12408   */\n      0x00\n        /* \"#utility.yul\":12399:12405   */\n      dup3\n        /* \"#utility.yul\":12395:12409   */\n      add\n        /* \"#utility.yul\":12388:12440   */\n      mstore\n        /* \"#utility.yul\":12271:12447   */\n      pop\n      jump\t// out\n        /* \"#utility.yul\":12453:12819   */\n    tag_258:\n        /* \"#utility.yul\":12595:12598   */\n      0x00\n        /* \"#utility.yul\":12616:12683   */\n      tag_382\n        /* \"#utility.yul\":12680:12682   */\n      0x1a\n        /* \"#utility.yul\":12675:12678   */\n      dup4\n        /* \"#utility.yul\":12616:12683   */\n      tag_246\n      jump\t// in\n    tag_382:\n        /* \"#utility.yul\":12609:12683   */\n      swap2\n      pop\n        /* \"#utility.yul\":12692:12785   */\n      tag_383\n        /* \"#utility.yul\":12781:12784   */\n      dup3\n        /* \"#utility.yul\":12692:12785   */\n      tag_257\n      jump\t// in\n    tag_383:\n        /* \"#utility.yul\":12810:12812   */\n      0x20\n        /* \"#utility.yul\":12805:12808   */\n      dup3\n        /* \"#utility.yul\":12801:12813   */\n      add\n        /* \"#utility.yul\":12794:12813   */\n      swap1\n      pop\n        /* \"#utility.yul\":12453:12819   */\n      swap2\n      swap1\n      pop\n      jump\t// out\n        /* \"#utility.yul\":12825:13244   */\n    tag_145:\n        /* \"#utility.yul\":12991:12995   */\n      0x00\n        /* \"#utility.yul\":13029:13031   */\n      0x20\n        /* \"#utility.yul\":13018:13027   */\n      dup3\n        /* \"#utility.yul\":13014:13032   */\n      add\n        /* \"#utility.yul\":13006:13032   */\n      swap1\n      pop\n        /* \"#utility.yul\":13078:13087   */\n      dup2\n        /* \"#utility.yul\":13072:13076   */\n      dup2\n        /* \"#utility.yul\":13068:13088   */\n      sub\n        /* \"#utility.yul\":13064:13065   */\n      0x00\n        /* \"#utility.yul\":13053:13062   */\n      dup4\n        /* \"#utility.yul\":13049:13066   */\n      add\n        /* \"#utility.yul\":13042:13089   */\n      mstore\n        /* \"#utility.yul\":13106:13237   */\n      tag_385\n        /* \"#utility.yul\":13232:13236   */\n      dup2\n        /* \"#utility.yul\":13106:13237   */\n      tag_258\n      jump\t// in\n    tag_385:\n        /* \"#utility.yul\":13098:13237   */\n      swap1\n      pop\n        /* \"#utility.yul\":12825:13244   */\n      swap2\n      swap1\n      pop\n      jump\t// out\n        /* \"#utility.yul\":13250:13414   */\n    tag_259:\n        /* \"#utility.yul\":13390:13406   */\n      0x4e6f20686179206f666572746173000000000000000000000000000000000000\n        /* \"#utility.yul\":13386:13387   */\n      0x00\n        /* \"#utility.yul\":13378:13384   */\n      dup3\n        /* \"#utility.yul\":13374:13388   */\n      add\n        /* \"#utility.yul\":13367:13407   */\n      mstore\n        /* \"#utility.yul\":13250:13414   */\n      pop\n      jump\t// out\n        /* \"#utility.yul\":13420:13786   */\n    tag_260:\n        /* \"#utility.yul\":13562:13565   */\n      0x00\n        /* \"#utility.yul\":13583:13650   */\n      tag_388\n        /* \"#utility.yul\":13647:13649   */\n      0x0e\n        /* \"#utility.yul\":13642:13645   */\n      dup4\n        /* \"#utility.yul\":13583:13650   */\n      tag_246\n      jump\t// in\n    tag_388:\n        /* \"#utility.yul\":13576:13650   */\n      swap2\n      pop\n        /* \"#utility.yul\":13659:13752   */\n      tag_389\n        /* \"#utility.yul\":13748:13751   */\n      dup3\n        /* \"#utility.yul\":13659:13752   */\n      tag_259\n      jump\t// in\n    tag_389:\n        /* \"#utility.yul\":13777:13779   */\n      0x20\n        /* \"#utility.yul\":13772:13775   */\n      dup3\n        /* \"#utility.yul\":13768:13780   */\n      add\n        /* \"#utility.yul\":13761:13780   */\n      swap1\n      pop\n        /* \"#utility.yul\":13420:13786   */\n      swap2\n      swap1\n      pop\n      jump\t// out\n        /* \"#utility.yul\":13792:14211   */\n    tag_168:\n        /* \"#utility.yul\":13958:13962   */\n      0x00\n        /* \"#utility.yul\":13996:13998   */\n      0x20\n        /* \"#utility.yul\":13985:13994   */\n      dup3\n        /* \"#utility.yul\":13981:13999   */\n      add\n        /* \"#utility.yul\":13973:13999   */\n      swap1\n      pop\n        /* \"#utility.yul\":14045:14054   */\n      dup2\n        /* \"#utility.yul\":14039:14043   */\n      dup2\n        /* \"#utility.yul\":14035:14055   */\n      sub\n        /* \"#utility.yul\":14031:14032   */\n      0x00\n        /* \"#utility.yul\":14020:14029   */\n      dup4\n        /* \"#utility.yul\":14016:14033   */\n      add\n        /* \"#utility.yul\":14009:14056   */\n      mstore\n        /* \"#utility.yul\":14073:14204   */\n      tag_391\n        /* \"#utility.yul\":14199:14203   */\n      dup2\n        /* \"#utility.yul\":14073:14204   */\n      tag_260\n      jump\t// in\n    tag_391:\n        /* \"#utility.yul\":14065:14204   */\n      swap1\n      pop\n        /* \"#utility.yul\":13792:14211   */\n      swap2\n      swap1\n      pop\n      jump\t// out\n        /* \"#utility.yul\":14217:14388   */\n    tag_195:\n        /* \"#utility.yul\":14256:14259   */\n      0x00\n        /* \"#utility.yul\":14279:14303   */\n      tag_393\n        /* \"#utility.yul\":14297:14302   */\n      dup3\n        /* \"#utility.yul\":14279:14303   */\n      tag_231\n      jump\t// in\n    tag_393:\n        /* \"#utility.yul\":14270:14303   */\n      swap2\n      pop\n        /* \"#utility.yul\":14325:14329   */\n      0x00\n        /* \"#utility.yul\":14318:14323   */\n      dup3\n        /* \"#utility.yul\":14315:14330   */\n      sub\n        /* \"#utility.yul\":14312:14353   */\n      tag_394\n      jumpi\n        /* \"#utility.yul\":14333:14351   */\n      tag_395\n      tag_253\n      jump\t// in\n    tag_395:\n        /* \"#utility.yul\":14312:14353   */\n    tag_394:\n        /* \"#utility.yul\":14380:14381   */\n      0x01\n        /* \"#utility.yul\":14373:14378   */\n      dup3\n        /* \"#utility.yul\":14369:14382   */\n      sub\n        /* \"#utility.yul\":14362:14382   */\n      swap1\n      pop\n        /* \"#utility.yul\":14217:14388   */\n      swap2\n      swap1\n      pop\n      jump\t// out\n        /* \"#utility.yul\":14394:14573   */\n    tag_261:\n        /* \"#utility.yul\":14534:14565   */\n      0x4e6f20686179206578636564656e746520706172612072657469726172000000\n        /* \"#utility.yul\":14530:14531   */\n      0x00\n        /* \"#utility.yul\":14522:14528   */\n      dup3\n        /* \"#utility.yul\":14518:14532   */\n      add\n        /* \"#utility.yul\":14511:14566   */\n      mstore\n        /* \"#utility.yul\":14394:14573   */\n      pop\n      jump\t// out\n        /* \"#utility.yul\":14579:14945   */\n    tag_262:\n        /* \"#utility.yul\":14721:14724   */\n      0x00\n        /* \"#utility.yul\":14742:14809   */\n      tag_398\n        /* \"#utility.yul\":14806:14808   */\n      0x1d\n        /* \"#utility.yul\":14801:14804   */\n      dup4\n        /* \"#utility.yul\":14742:14809   */\n      tag_246\n      jump\t// in\n    tag_398:\n        /* \"#utility.yul\":14735:14809   */\n      swap2\n      pop\n        /* \"#utility.yul\":14818:14911   */\n      tag_399\n        /* \"#utility.yul\":14907:14910   */\n      dup3\n        /* \"#utility.yul\":14818:14911   */\n      tag_261\n      jump\t// in\n    tag_399:\n        /* \"#utility.yul\":14936:14938   */\n      0x20\n        /* \"#utility.yul\":14931:14934   */\n      dup3\n        /* \"#utility.yul\":14927:14939   */\n      add\n        /* \"#utility.yul\":14920:14939   */\n      swap1\n      pop\n        /* \"#utility.yul\":14579:14945   */\n      swap2\n      swap1\n      pop\n      jump\t// out\n        /* \"#utility.yul\":14951:15370   */\n    tag_198:\n        /* \"#utility.yul\":15117:15121   */\n      0x00\n        /* \"#utility.yul\":15155:15157   */\n      0x20\n        /* \"#utility.yul\":15144:15153   */\n      dup3\n        /* \"#utility.yul\":15140:15158   */\n      add\n        /* \"#utility.yul\":15132:15158   */\n      swap1\n      pop\n        /* \"#utility.yul\":15204:15213   */\n      dup2\n        /* \"#utility.yul\":15198:15202   */\n      dup2\n        /* \"#utility.yul\":15194:15214   */\n      sub\n        /* \"#utility.yul\":15190:15191   */\n      0x00\n        /* \"#utility.yul\":15179:15188   */\n      dup4\n        /* \"#utility.yul\":15175:15192   */\n      add\n        /* \"#utility.yul\":15168:15215   */\n      mstore\n        /* \"#utility.yul\":15232:15363   */\n      tag_401\n        /* \"#utility.yul\":15358:15362   */\n      dup2\n        /* \"#utility.yul\":15232:15363   */\n      tag_262\n      jump\t// in\n    tag_401:\n        /* \"#utility.yul\":15224:15363   */\n      swap1\n      pop\n        /* \"#utility.yul\":14951:15370   */\n      swap2\n      swap1\n      pop\n      jump\t// out\n        /* \"#utility.yul\":15376:15555   */\n    tag_263:\n        /* \"#utility.yul\":15516:15547   */\n      0x4e6f20686179206465706f7369746f2070617261206465766f6c766572000000\n        /* \"#utility.yul\":15512:15513   */\n      0x00\n        /* \"#utility.yul\":15504:15510   */\n      dup3\n        /* \"#utility.yul\":15500:15514   */\n      add\n        /* \"#utility.yul\":15493:15548   */\n      mstore\n        /* \"#utility.yul\":15376:15555   */\n      pop\n      jump\t// out\n        /* \"#utility.yul\":15561:15927   */\n    tag_264:\n        /* \"#utility.yul\":15703:15706   */\n      0x00\n        /* \"#utility.yul\":15724:15791   */\n      tag_404\n        /* \"#utility.yul\":15788:15790   */\n      0x1d\n        /* \"#utility.yul\":15783:15786   */\n      dup4\n        /* \"#utility.yul\":15724:15791   */\n      tag_246\n      jump\t// in\n    tag_404:\n        /* \"#utility.yul\":15717:15791   */\n      swap2\n      pop\n        /* \"#utility.yul\":15800:15893   */\n      tag_405\n        /* \"#utility.yul\":15889:15892   */\n      dup3\n        /* \"#utility.yul\":15800:15893   */\n      tag_263\n      jump\t// in\n    tag_405:\n        /* \"#utility.yul\":15918:15920   */\n      0x20\n        /* \"#utility.yul\":15913:15916   */\n      dup3\n        /* \"#utility.yul\":15909:15921   */\n      add\n        /* \"#utility.yul\":15902:15921   */\n      swap1\n      pop\n        /* \"#utility.yul\":15561:15927   */\n      swap2\n      swap1\n      pop\n      jump\t// out\n        /* \"#utility.yul\":15933:16352   */\n    tag_208:\n        /* \"#utility.yul\":16099:16103   */\n      0x00\n        /* \"#utility.yul\":16137:16139   */\n      0x20\n        /* \"#utility.yul\":16126:16135   */\n      dup3\n        /* \"#utility.yul\":16122:16140   */\n      add\n        /* \"#utility.yul\":16114:16140   */\n      swap1\n      pop\n        /* \"#utility.yul\":16186:16195   */\n      dup2\n        /* \"#utility.yul\":16180:16184   */\n      dup2\n        /* \"#utility.yul\":16176:16196   */\n      sub\n        /* \"#utility.yul\":16172:16173   */\n      0x00\n        /* \"#utility.yul\":16161:16170   */\n      dup4\n        /* \"#utility.yul\":16157:16174   */\n      add\n        /* \"#utility.yul\":16150:16197   */\n      mstore\n        /* \"#utility.yul\":16214:16345   */\n      tag_407\n        /* \"#utility.yul\":16340:16344   */\n      dup2\n        /* \"#utility.yul\":16214:16345   */\n      tag_264\n      jump\t// in\n    tag_407:\n        /* \"#utility.yul\":16206:16345   */\n      swap1\n      pop\n        /* \"#utility.yul\":15933:16352   */\n      swap2\n      swap1\n      pop\n      jump\t// out\n\n    auxdata: 0xa2646970667358221220a729728e202d52cb0504d64a258936b2d342c0bc13ecfa0630a091c1d9349cc864736f6c634300081a0033\n}\n",
				"bytecode": {
					"linkReferences": {},
					"object": "6080604052603c60025560056003556002600455600160055f6101000a81548160ff021916908315150217905550670de0b6b3a7640000600655348015610044575f80fd5b50335f806101000a81548173ffffffffffffffffffffffffffffffffffffffff021916908373ffffffffffffffffffffffffffffffffffffffff1602179055506002544261009291906101fb565b600181905550600760405180604001604052805f8054906101000a900473ffffffffffffffffffffffffffffffffffffffff1673ffffffffffffffffffffffffffffffffffffffff168152602001600654815250908060018154018082558091505060019003905f5260205f2090600202015f909190919091505f820151815f015f6101000a81548173ffffffffffffffffffffffffffffffffffffffff021916908373ffffffffffffffffffffffffffffffffffffffff16021790555060208201518160010155505060065460085f805f9054906101000a900473ffffffffffffffffffffffffffffffffffffffff1673ffffffffffffffffffffffffffffffffffffffff1673ffffffffffffffffffffffffffffffffffffffff1681526020019081526020015f208190555061022e565b5f819050919050565b7f4e487b71000000000000000000000000000000000000000000000000000000005f52601160045260245ffd5b5f610205826101c5565b9150610210836101c5565b9250828201905080821115610228576102276101ce565b5b92915050565b61195a8061023b5f395ff3fe6080604052600436106100f2575f3560e01c8063753dcaeb11610089578063c442a99f11610058578063c442a99f146102a4578063c63049f8146102ce578063cc14e31f146102f8578063d1d7e96c14610322576100f2565b8063753dcaeb146102235780639528a4bd1461024e578063a05d3ddc14610264578063b53627b21461027a576100f2565b806351f4d7da116100c557806351f4d7da1461016a57806356afff7c14610180578063664e62b9146101bd57806371ea6d33146101f9576100f2565b80630851eac2146100f65780632c5e54711461010c5780633dfa138d146101365780633ec059d714610160575b5f80fd5b348015610101575f80fd5b5061010a61034c565b005b348015610117575f80fd5b50610120610561565b60405161012d9190611179565b60405180910390f35b348015610141575f80fd5b5061014a610573565b60405161015791906111d1565b60405180910390f35b610168610596565b005b348015610175575f80fd5b5061017e610809565b005b34801561018b575f80fd5b506101a660048036038101906101a19190611221565b610ad2565b6040516101b492919061125b565b60405180910390f35b3480156101c8575f80fd5b506101e360048036038101906101de91906112ac565b610b20565b6040516101f091906112d7565b60405180910390f35b348015610204575f80fd5b5061020d610b35565b60405161021a91906112d7565b60405180910390f35b34801561022e575f80fd5b50610237610b3b565b60405161024592919061125b565b60405180910390f35b348015610259575f80fd5b50610262610c14565b005b34801561026f575f80fd5b50610278610e7b565b005b348015610285575f80fd5b5061028e61108d565b60405161029b91906112d7565b60405180910390f35b3480156102af575f80fd5b506102b8611093565b6040516102c591906113e3565b60405180910390f35b3480156102d9575f80fd5b506102e261114d565b6040516102ef91906112d7565b60405180910390f35b348015610303575f80fd5b5061030c611153565b60405161031991906112d7565b60405180910390f35b34801561032d575f80fd5b50610336611159565b60405161034391906112d7565b60405180910390f35b5f8054906101000a900473ffffffffffffffffffffffffffffffffffffffff1673ffffffffffffffffffffffffffffffffffffffff163373ffffffffffffffffffffffffffffffffffffffff16146103d9576040517f08c379a00000000000000000000000000000000000000000000000000000000081526004016103d090611483565b60405180910390fd5b60055f9054906101000a900460ff1680156103f5575060015442105b610434576040517f08c379a000000000000000000000000000000000000000000000000000000000815260040161042b906114eb565b60405180910390fd5b600154421015610479576040517f08c379a000000000000000000000000000000000000000000000000000000000815260040161047090611553565b60405180910390fd5b5f60055f6101000a81548160ff0219169083151502179055505f600780549050111561055f577fa3a65b403bdae88eb037f4ecc1d619f436fc3ef6bcbbee3787757164e82883f2600760016007805490506104d4919061159e565b815481106104e5576104e46115d1565b5b905f5260205f2090600202015f015f9054906101000a900473ffffffffffffffffffffffffffffffffffffffff1660076001600780549050610527919061159e565b81548110610538576105376115d1565b5b905f5260205f2090600202016001015460405161055692919061125b565b60405180910390a15b565b60055f9054906101000a900460ff1681565b5f8054906101000a900473ffffffffffffffffffffffffffffffffffffffff1681565b60055f9054906101000a900460ff1680156105b2575060015442105b6105f1576040517f08c379a00000000000000000000000000000000000000000000000000000000081526004016105e8906114eb565b60405180910390fd5b5f60646003546007600160078054905061060b919061159e565b8154811061061c5761061b6115d1565b5b905f5260205f2090600202016001015461063691906115fe565b610640919061166c565b60076001600780549050610654919061159e565b81548110610665576106646115d1565b5b905f5260205f2090600202016001015461067f919061169c565b90508034116106c3576040517f08c379a00000000000000000000000000000000000000000000000000000000081526004016106ba9061173f565b60405180910390fd5b600254426106d1919061169c565b600181905550600760405180604001604052803373ffffffffffffffffffffffffffffffffffffffff16815260200134815250908060018154018082558091505060019003905f5260205f2090600202015f909190919091505f820151815f015f6101000a81548173ffffffffffffffffffffffffffffffffffffffff021916908373ffffffffffffffffffffffffffffffffffffffff1602179055506020820151816001015550503460085f3373ffffffffffffffffffffffffffffffffffffffff1673ffffffffffffffffffffffffffffffffffffffff1681526020019081526020015f205f8282546107c6919061169c565b925050819055507f155d469211f46e4d9ae974606f0878f9aacc6198ba30a1e6b9c8cf5627352fb533346040516107fe92919061125b565b60405180910390a150565b5f8054906101000a900473ffffffffffffffffffffffffffffffffffffffff1673ffffffffffffffffffffffffffffffffffffffff163373ffffffffffffffffffffffffffffffffffffffff1614610896576040517f08c379a000000000000000000000000000000000000000000000000000000000815260040161088d90611483565b60405180910390fd5b60055f9054906101000a900460ff16156108e5576040517f08c379a00000000000000000000000000000000000000000000000000000000081526004016108dc906117a7565b60405180910390fd5b5f600760016007805490506108fa919061159e565b8154811061090b5761090a6115d1565b5b905f5260205f2090600202015f015f9054906101000a900473ffffffffffffffffffffffffffffffffffffffff1690505f5b600780549050811015610ace575f6007828154811061095f5761095e6115d1565b5b905f5260205f2090600202015f015f9054906101000a900473ffffffffffffffffffffffffffffffffffffffff1690508273ffffffffffffffffffffffffffffffffffffffff168173ffffffffffffffffffffffffffffffffffffffff1614610ac0575f60085f8373ffffffffffffffffffffffffffffffffffffffff1673ffffffffffffffffffffffffffffffffffffffff1681526020019081526020015f205490505f606460045483610a1491906115fe565b610a1e919061166c565b90508082610a2c919061159e565b91505f60085f8573ffffffffffffffffffffffffffffffffffffffff1673ffffffffffffffffffffffffffffffffffffffff1681526020019081526020015f20819055505f821115610abd578273ffffffffffffffffffffffffffffffffffffffff166108fc8390811502906040515f60405180830381858888f19350505050158015610abb573d5f803e3d5ffd5b505b50505b50808060010191505061093d565b5050565b60078181548110610ae1575f80fd5b905f5260205f2090600202015f91509050805f015f9054906101000a900473ffffffffffffffffffffffffffffffffffffffff16908060010154905082565b6008602052805f5260405f205f915090505481565b60065481565b5f805f60078054905011610b84576040517f08c379a0000000000000000000000000000000000000000000000000000000008152600401610b7b9061180f565b60405180910390fd5b60076001600780549050610b98919061159e565b81548110610ba957610ba86115d1565b5b905f5260205f2090600202015f015f9054906101000a900473ffffffffffffffffffffffffffffffffffffffff16915060076001600780549050610bed919061159e565b81548110610bfe57610bfd6115d1565b5b905f5260205f2090600202016001015490509091565b60055f9054906101000a900460ff168015610c30575060015442105b610c6f576040517f08c379a0000000000000000000000000000000000000000000000000000000008152600401610c66906114eb565b60405180910390fd5b5f60085f3373ffffffffffffffffffffffffffffffffffffffff1673ffffffffffffffffffffffffffffffffffffffff1681526020019081526020015f205490505f8060078054905090505b5f811115610d8d573373ffffffffffffffffffffffffffffffffffffffff166007600183610ce9919061159e565b81548110610cfa57610cf96115d1565b5b905f5260205f2090600202015f015f9054906101000a900473ffffffffffffffffffffffffffffffffffffffff1673ffffffffffffffffffffffffffffffffffffffff1603610d7a576007600182610d52919061159e565b81548110610d6357610d626115d1565b5b905f5260205f209060020201600101549150610d8d565b8080610d859061182d565b915050610cbb565b50808211610dd0576040517f08c379a0000000000000000000000000000000000000000000000000000000008152600401610dc79061189e565b60405180910390fd5b5f8183610ddd919061159e565b90508060085f3373ffffffffffffffffffffffffffffffffffffffff1673ffffffffffffffffffffffffffffffffffffffff1681526020019081526020015f205f828254610e2b919061159e565b925050819055503373ffffffffffffffffffffffffffffffffffffffff166108fc8290811502906040515f60405180830381858888f19350505050158015610e75573d5f803e3d5ffd5b50505050565b60055f9054906101000a900460ff1615610eca576040517f08c379a0000000000000000000000000000000000000000000000000000000008152600401610ec1906117a7565b60405180910390fd5b5f60085f3373ffffffffffffffffffffffffffffffffffffffff1673ffffffffffffffffffffffffffffffffffffffff1681526020019081526020015f205490505f8111610f4d576040517f08c379a0000000000000000000000000000000000000000000000000000000008152600401610f4490611906565b60405180910390fd5b5f60076001600780549050610f62919061159e565b81548110610f7357610f726115d1565b5b905f5260205f2090600202015f015f9054906101000a900473ffffffffffffffffffffffffffffffffffffffff1690508073ffffffffffffffffffffffffffffffffffffffff163373ffffffffffffffffffffffffffffffffffffffff1614611003575f606460045484610fe791906115fe565b610ff1919061166c565b90508083610fff919061159e565b9250505b5f60085f3373ffffffffffffffffffffffffffffffffffffffff1673ffffffffffffffffffffffffffffffffffffffff1681526020019081526020015f20819055503373ffffffffffffffffffffffffffffffffffffffff166108fc8390811502906040515f60405180830381858888f19350505050158015611088573d5f803e3d5ffd5b505050565b60045481565b60606007805480602002602001604051908101604052809291908181526020015f905b82821015611144578382905f5260205f2090600202016040518060400160405290815f82015f9054906101000a900473ffffffffffffffffffffffffffffffffffffffff1673ffffffffffffffffffffffffffffffffffffffff1673ffffffffffffffffffffffffffffffffffffffff168152602001600182015481525050815260200190600101906110b6565b50505050905090565b60015481565b60035481565b60025481565b5f8115159050919050565b6111738161115f565b82525050565b5f60208201905061118c5f83018461116a565b92915050565b5f73ffffffffffffffffffffffffffffffffffffffff82169050919050565b5f6111bb82611192565b9050919050565b6111cb816111b1565b82525050565b5f6020820190506111e45f8301846111c2565b92915050565b5f80fd5b5f819050919050565b611200816111ee565b811461120a575f80fd5b50565b5f8135905061121b816111f7565b92915050565b5f60208284031215611236576112356111ea565b5b5f6112438482850161120d565b91505092915050565b611255816111ee565b82525050565b5f60408201905061126e5f8301856111c2565b61127b602083018461124c565b9392505050565b61128b816111b1565b8114611295575f80fd5b50565b5f813590506112a681611282565b92915050565b5f602082840312156112c1576112c06111ea565b5b5f6112ce84828501611298565b91505092915050565b5f6020820190506112ea5f83018461124c565b92915050565b5f81519050919050565b5f82825260208201905092915050565b5f819050602082019050919050565b611322816111b1565b82525050565b611331816111ee565b82525050565b604082015f82015161134b5f850182611319565b50602082015161135e6020850182611328565b50505050565b5f61136f8383611337565b60408301905092915050565b5f602082019050919050565b5f611391826112f0565b61139b81856112fa565b93506113a68361130a565b805f5b838110156113d65781516113bd8882611364565b97506113c88361137b565b9250506001810190506113a9565b5085935050505092915050565b5f6020820190508181035f8301526113fb8184611387565b905092915050565b5f82825260208201905092915050565b7f536f6c6f20656c2073756261737461646f7220707565646520656a65637574615f8201527f72206573746120616363696f6e00000000000000000000000000000000000000602082015250565b5f61146d602d83611403565b915061147882611413565b604082019050919050565b5f6020820190508181035f83015261149a81611461565b9050919050565b7f4c6120737562617374612079612068612066696e616c697a61646f00000000005f82015250565b5f6114d5601b83611403565b91506114e0826114a1565b602082019050919050565b5f6020820190508181035f830152611502816114c9565b9050919050565b7f4c6120737562617374612061756e206573746120656e20637572736f000000005f82015250565b5f61153d601c83611403565b915061154882611509565b602082019050919050565b5f6020820190508181035f83015261156a81611531565b9050919050565b7f4e487b71000000000000000000000000000000000000000000000000000000005f52601160045260245ffd5b5f6115a8826111ee565b91506115b3836111ee565b92508282039050818111156115cb576115ca611571565b5b92915050565b7f4e487b71000000000000000000000000000000000000000000000000000000005f52603260045260245ffd5b5f611608826111ee565b9150611613836111ee565b9250828202611621816111ee565b9150828204841483151761163857611637611571565b5b5092915050565b7f4e487b71000000000000000000000000000000000000000000000000000000005f52601260045260245ffd5b5f611676826111ee565b9150611681836111ee565b9250826116915761169061163f565b5b828204905092915050565b5f6116a6826111ee565b91506116b1836111ee565b92508282019050808211156116c9576116c8611571565b5b92915050565b7f4c61206f66657274612064656265207375706572617220656e20616c206d656e5f8201527f6f7320756e203525206c61206f66657274612061637475616c00000000000000602082015250565b5f611729603983611403565b9150611734826116cf565b604082019050919050565b5f6020820190508181035f8301526117568161171d565b9050919050565b7f4c6120737562617374612061756e2065737461206163746976610000000000005f82015250565b5f611791601a83611403565b915061179c8261175d565b602082019050919050565b5f6020820190508181035f8301526117be81611785565b9050919050565b7f4e6f20686179206f6665727461730000000000000000000000000000000000005f82015250565b5f6117f9600e83611403565b9150611804826117c5565b602082019050919050565b5f6020820190508181035f830152611826816117ed565b9050919050565b5f611837826111ee565b91505f820361184957611848611571565b5b600182039050919050565b7f4e6f20686179206578636564656e7465207061726120726574697261720000005f82015250565b5f611888601d83611403565b915061189382611854565b602082019050919050565b5f6020820190508181035f8301526118b58161187c565b9050919050565b7f4e6f20686179206465706f7369746f2070617261206465766f6c7665720000005f82015250565b5f6118f0601d83611403565b91506118fb826118bc565b602082019050919050565b5f6020820190508181035f83015261191d816118e4565b905091905056fea2646970667358221220a729728e202d52cb0504d64a258936b2d342c0bc13ecfa0630a091c1d9349cc864736f6c634300081a0033",
					"opcodes": "PUSH1 0x80 PUSH1 0x40 MSTORE PUSH1 0x3C PUSH1 0x2 SSTORE PUSH1 0x5 PUSH1 0x3 SSTORE PUSH1 0x2 PUSH1 0x4 SSTORE PUSH1 0x1 PUSH1 0x5 PUSH0 PUSH2 0x100 EXP DUP2 SLOAD DUP2 PUSH1 0xFF MUL NOT AND SWAP1 DUP4 ISZERO ISZERO MUL OR SWAP1 SSTORE POP PUSH8 0xDE0B6B3A7640000 PUSH1 0x6 SSTORE CALLVALUE DUP1 ISZERO PUSH2 0x44 JUMPI PUSH0 DUP1 REVERT JUMPDEST POP CALLER PUSH0 DUP1 PUSH2 0x100 EXP DUP2 SLOAD DUP2 PUSH20 0xFFFFFFFFFFFFFFFFFFFFFFFFFFFFFFFFFFFFFFFF MUL NOT AND SWAP1 DUP4 PUSH20 0xFFFFFFFFFFFFFFFFFFFFFFFFFFFFFFFFFFFFFFFF AND MUL OR SWAP1 SSTORE POP PUSH1 0x2 SLOAD TIMESTAMP PUSH2 0x92 SWAP2 SWAP1 PUSH2 0x1FB JUMP JUMPDEST PUSH1 0x1 DUP2 SWAP1 SSTORE POP PUSH1 0x7 PUSH1 0x40 MLOAD DUP1 PUSH1 0x40 ADD PUSH1 0x40 MSTORE DUP1 PUSH0 DUP1 SLOAD SWAP1 PUSH2 0x100 EXP SWAP1 DIV PUSH20 0xFFFFFFFFFFFFFFFFFFFFFFFFFFFFFFFFFFFFFFFF AND PUSH20 0xFFFFFFFFFFFFFFFFFFFFFFFFFFFFFFFFFFFFFFFF AND DUP2 MSTORE PUSH1 0x20 ADD PUSH1 0x6 SLOAD DUP2 MSTORE POP SWAP1 DUP1 PUSH1 0x1 DUP2 SLOAD ADD DUP1 DUP3 SSTORE DUP1 SWAP2 POP POP PUSH1 0x1 SWAP1 SUB SWAP1 PUSH0 MSTORE PUSH1 0x20 PUSH0 KECCAK256 SWAP1 PUSH1 0x2 MUL ADD PUSH0 SWAP1 SWAP2 SWAP1 SWAP2 SWAP1 SWAP2 POP PUSH0 DUP3 ADD MLOAD DUP2 PUSH0 ADD PUSH0 PUSH2 0x100 EXP DUP2 SLOAD DUP2 PUSH20 0xFFFFFFFFFFFFFFFFFFFFFFFFFFFFFFFFFFFFFFFF MUL NOT AND SWAP1 DUP4 PUSH20 0xFFFFFFFFFFFFFFFFFFFFFFFFFFFFFFFFFFFFFFFF AND MUL OR SWAP1 SSTORE POP PUSH1 0x20 DUP3 ADD MLOAD DUP2 PUSH1 0x1 ADD SSTORE POP POP PUSH1 0x6 SLOAD PUSH1 0x8 PUSH0 DUP1 PUSH0 SWAP1 SLOAD SWAP1 PUSH2 0x100 EXP SWAP1 DIV PUSH20 0xFFFFFFFFFFFFFFFFFFFFFFFFFFFFFFFFFFFFFFFF AND PUSH20 0xFFFFFFFFFFFFFFFFFFFFFFFFFFFFFFFFFFFFFFFF AND PUSH20 0xFFFFFFFFFFFFFFFFFFFFFFFFFFFFFFFFFFFFFFFF AND DUP2 MSTORE PUSH1 0x20 ADD SWAP1 DUP2 MSTORE PUSH1 0x20 ADD PUSH0 KECCAK256 DUP2 SWAP1 SSTORE POP PUSH2 0x22E JUMP JUMPDEST PUSH0 DUP2 SWAP1 POP SWAP2 SWAP1 POP JUMP JUMPDEST PUSH32 0x4E487B7100000000000000000000000000000000000000000000000000000000 PUSH0 MSTORE PUSH1 0x11 PUSH1 0x4 MSTORE PUSH1 0x24 PUSH0 REVERT JUMPDEST PUSH0 PUSH2 0x205 DUP3 PUSH2 0x1C5 JUMP JUMPDEST SWAP2 POP PUSH2 0x210 DUP4 PUSH2 0x1C5 JUMP JUMPDEST SWAP3 POP DUP3 DUP3 ADD SWAP1 POP DUP1 DUP3 GT ISZERO PUSH2 0x228 JUMPI PUSH2 0x227 PUSH2 0x1CE JUMP JUMPDEST JUMPDEST SWAP3 SWAP2 POP POP JUMP JUMPDEST PUSH2 0x195A DUP1 PUSH2 0x23B PUSH0 CODECOPY PUSH0 RETURN INVALID PUSH1 0x80 PUSH1 0x40 MSTORE PUSH1 0x4 CALLDATASIZE LT PUSH2 0xF2 JUMPI PUSH0 CALLDATALOAD PUSH1 0xE0 SHR DUP1 PUSH4 0x753DCAEB GT PUSH2 0x89 JUMPI DUP1 PUSH4 0xC442A99F GT PUSH2 0x58 JUMPI DUP1 PUSH4 0xC442A99F EQ PUSH2 0x2A4 JUMPI DUP1 PUSH4 0xC63049F8 EQ PUSH2 0x2CE JUMPI DUP1 PUSH4 0xCC14E31F EQ PUSH2 0x2F8 JUMPI DUP1 PUSH4 0xD1D7E96C EQ PUSH2 0x322 JUMPI PUSH2 0xF2 JUMP JUMPDEST DUP1 PUSH4 0x753DCAEB EQ PUSH2 0x223 JUMPI DUP1 PUSH4 0x9528A4BD EQ PUSH2 0x24E JUMPI DUP1 PUSH4 0xA05D3DDC EQ PUSH2 0x264 JUMPI DUP1 PUSH4 0xB53627B2 EQ PUSH2 0x27A JUMPI PUSH2 0xF2 JUMP JUMPDEST DUP1 PUSH4 0x51F4D7DA GT PUSH2 0xC5 JUMPI DUP1 PUSH4 0x51F4D7DA EQ PUSH2 0x16A JUMPI DUP1 PUSH4 0x56AFFF7C EQ PUSH2 0x180 JUMPI DUP1 PUSH4 0x664E62B9 EQ PUSH2 0x1BD JUMPI DUP1 PUSH4 0x71EA6D33 EQ PUSH2 0x1F9 JUMPI PUSH2 0xF2 JUMP JUMPDEST DUP1 PUSH4 0x851EAC2 EQ PUSH2 0xF6 JUMPI DUP1 PUSH4 0x2C5E5471 EQ PUSH2 0x10C JUMPI DUP1 PUSH4 0x3DFA138D EQ PUSH2 0x136 JUMPI DUP1 PUSH4 0x3EC059D7 EQ PUSH2 0x160 JUMPI JUMPDEST PUSH0 DUP1 REVERT JUMPDEST CALLVALUE DUP1 ISZERO PUSH2 0x101 JUMPI PUSH0 DUP1 REVERT JUMPDEST POP PUSH2 0x10A PUSH2 0x34C JUMP JUMPDEST STOP JUMPDEST CALLVALUE DUP1 ISZERO PUSH2 0x117 JUMPI PUSH0 DUP1 REVERT JUMPDEST POP PUSH2 0x120 PUSH2 0x561 JUMP JUMPDEST PUSH1 0x40 MLOAD PUSH2 0x12D SWAP2 SWAP1 PUSH2 0x1179 JUMP JUMPDEST PUSH1 0x40 MLOAD DUP1 SWAP2 SUB SWAP1 RETURN JUMPDEST CALLVALUE DUP1 ISZERO PUSH2 0x141 JUMPI PUSH0 DUP1 REVERT JUMPDEST POP PUSH2 0x14A PUSH2 0x573 JUMP JUMPDEST PUSH1 0x40 MLOAD PUSH2 0x157 SWAP2 SWAP1 PUSH2 0x11D1 JUMP JUMPDEST PUSH1 0x40 MLOAD DUP1 SWAP2 SUB SWAP1 RETURN JUMPDEST PUSH2 0x168 PUSH2 0x596 JUMP JUMPDEST STOP JUMPDEST CALLVALUE DUP1 ISZERO PUSH2 0x175 JUMPI PUSH0 DUP1 REVERT JUMPDEST POP PUSH2 0x17E PUSH2 0x809 JUMP JUMPDEST STOP JUMPDEST CALLVALUE DUP1 ISZERO PUSH2 0x18B JUMPI PUSH0 DUP1 REVERT JUMPDEST POP PUSH2 0x1A6 PUSH1 0x4 DUP1 CALLDATASIZE SUB DUP2 ADD SWAP1 PUSH2 0x1A1 SWAP2 SWAP1 PUSH2 0x1221 JUMP JUMPDEST PUSH2 0xAD2 JUMP JUMPDEST PUSH1 0x40 MLOAD PUSH2 0x1B4 SWAP3 SWAP2 SWAP1 PUSH2 0x125B JUMP JUMPDEST PUSH1 0x40 MLOAD DUP1 SWAP2 SUB SWAP1 RETURN JUMPDEST CALLVALUE DUP1 ISZERO PUSH2 0x1C8 JUMPI PUSH0 DUP1 REVERT JUMPDEST POP PUSH2 0x1E3 PUSH1 0x4 DUP1 CALLDATASIZE SUB DUP2 ADD SWAP1 PUSH2 0x1DE SWAP2 SWAP1 PUSH2 0x12AC JUMP JUMPDEST PUSH2 0xB20 JUMP JUMPDEST PUSH1 0x40 MLOAD PUSH2 0x1F0 SWAP2 SWAP1 PUSH2 0x12D7 JUMP JUMPDEST PUSH1 0x40 MLOAD DUP1 SWAP2 SUB SWAP1 RETURN JUMPDEST CALLVALUE DUP1 ISZERO PUSH2 0x204 JUMPI PUSH0 DUP1 REVERT JUMPDEST POP PUSH2 0x20D PUSH2 0xB35 JUMP JUMPDEST PUSH1 0x40 MLOAD PUSH2 0x21A SWAP2 SWAP1 PUSH2 0x12D7 JUMP JUMPDEST PUSH1 0x40 MLOAD DUP1 SWAP2 SUB SWAP1 RETURN JUMPDEST CALLVALUE DUP1 ISZERO PUSH2 0x22E JUMPI PUSH0 DUP1 REVERT JUMPDEST POP PUSH2 0x237 PUSH2 0xB3B JUMP JUMPDEST PUSH1 0x40 MLOAD PUSH2 0x245 SWAP3 SWAP2 SWAP1 PUSH2 0x125B JUMP JUMPDEST PUSH1 0x40 MLOAD DUP1 SWAP2 SUB SWAP1 RETURN JUMPDEST CALLVALUE DUP1 ISZERO PUSH2 0x259 JUMPI PUSH0 DUP1 REVERT JUMPDEST POP PUSH2 0x262 PUSH2 0xC14 JUMP JUMPDEST STOP JUMPDEST CALLVALUE DUP1 ISZERO PUSH2 0x26F JUMPI PUSH0 DUP1 REVERT JUMPDEST POP PUSH2 0x278 PUSH2 0xE7B JUMP JUMPDEST STOP JUMPDEST CALLVALUE DUP1 ISZERO PUSH2 0x285 JUMPI PUSH0 DUP1 REVERT JUMPDEST POP PUSH2 0x28E PUSH2 0x108D JUMP JUMPDEST PUSH1 0x40 MLOAD PUSH2 0x29B SWAP2 SWAP1 PUSH2 0x12D7 JUMP JUMPDEST PUSH1 0x40 MLOAD DUP1 SWAP2 SUB SWAP1 RETURN JUMPDEST CALLVALUE DUP1 ISZERO PUSH2 0x2AF JUMPI PUSH0 DUP1 REVERT JUMPDEST POP PUSH2 0x2B8 PUSH2 0x1093 JUMP JUMPDEST PUSH1 0x40 MLOAD PUSH2 0x2C5 SWAP2 SWAP1 PUSH2 0x13E3 JUMP JUMPDEST PUSH1 0x40 MLOAD DUP1 SWAP2 SUB SWAP1 RETURN JUMPDEST CALLVALUE DUP1 ISZERO PUSH2 0x2D9 JUMPI PUSH0 DUP1 REVERT JUMPDEST POP PUSH2 0x2E2 PUSH2 0x114D JUMP JUMPDEST PUSH1 0x40 MLOAD PUSH2 0x2EF SWAP2 SWAP1 PUSH2 0x12D7 JUMP JUMPDEST PUSH1 0x40 MLOAD DUP1 SWAP2 SUB SWAP1 RETURN JUMPDEST CALLVALUE DUP1 ISZERO PUSH2 0x303 JUMPI PUSH0 DUP1 REVERT JUMPDEST POP PUSH2 0x30C PUSH2 0x1153 JUMP JUMPDEST PUSH1 0x40 MLOAD PUSH2 0x319 SWAP2 SWAP1 PUSH2 0x12D7 JUMP JUMPDEST PUSH1 0x40 MLOAD DUP1 SWAP2 SUB SWAP1 RETURN JUMPDEST CALLVALUE DUP1 ISZERO PUSH2 0x32D JUMPI PUSH0 DUP1 REVERT JUMPDEST POP PUSH2 0x336 PUSH2 0x1159 JUMP JUMPDEST PUSH1 0x40 MLOAD PUSH2 0x343 SWAP2 SWAP1 PUSH2 0x12D7 JUMP JUMPDEST PUSH1 0x40 MLOAD DUP1 SWAP2 SUB SWAP1 RETURN JUMPDEST PUSH0 DUP1 SLOAD SWAP1 PUSH2 0x100 EXP SWAP1 DIV PUSH20 0xFFFFFFFFFFFFFFFFFFFFFFFFFFFFFFFFFFFFFFFF AND PUSH20 0xFFFFFFFFFFFFFFFFFFFFFFFFFFFFFFFFFFFFFFFF AND CALLER PUSH20 0xFFFFFFFFFFFFFFFFFFFFFFFFFFFFFFFFFFFFFFFF AND EQ PUSH2 0x3D9 JUMPI PUSH1 0x40 MLOAD PUSH32 0x8C379A000000000000000000000000000000000000000000000000000000000 DUP2 MSTORE PUSH1 0x4 ADD PUSH2 0x3D0 SWAP1 PUSH2 0x1483 JUMP JUMPDEST PUSH1 0x40 MLOAD DUP1 SWAP2 SUB SWAP1 REVERT JUMPDEST PUSH1 0x5 PUSH0 SWAP1 SLOAD SWAP1 PUSH2 0x100 EXP SWAP1 DIV PUSH1 0xFF AND DUP1 ISZERO PUSH2 0x3F5 JUMPI POP PUSH1 0x1 SLOAD TIMESTAMP LT JUMPDEST PUSH2 0x434 JUMPI PUSH1 0x40 MLOAD PUSH32 0x8C379A000000000000000000000000000000000000000000000000000000000 DUP2 MSTORE PUSH1 0x4 ADD PUSH2 0x42B SWAP1 PUSH2 0x14EB JUMP JUMPDEST PUSH1 0x40 MLOAD DUP1 SWAP2 SUB SWAP1 REVERT JUMPDEST PUSH1 0x1 SLOAD TIMESTAMP LT ISZERO PUSH2 0x479 JUMPI PUSH1 0x40 MLOAD PUSH32 0x8C379A000000000000000000000000000000000000000000000000000000000 DUP2 MSTORE PUSH1 0x4 ADD PUSH2 0x470 SWAP1 PUSH2 0x1553 JUMP JUMPDEST PUSH1 0x40 MLOAD DUP1 SWAP2 SUB SWAP1 REVERT JUMPDEST PUSH0 PUSH1 0x5 PUSH0 PUSH2 0x100 EXP DUP2 SLOAD DUP2 PUSH1 0xFF MUL NOT AND SWAP1 DUP4 ISZERO ISZERO MUL OR SWAP1 SSTORE POP PUSH0 PUSH1 0x7 DUP1 SLOAD SWAP1 POP GT ISZERO PUSH2 0x55F JUMPI PUSH32 0xA3A65B403BDAE88EB037F4ECC1D619F436FC3EF6BCBBEE3787757164E82883F2 PUSH1 0x7 PUSH1 0x1 PUSH1 0x7 DUP1 SLOAD SWAP1 POP PUSH2 0x4D4 SWAP2 SWAP1 PUSH2 0x159E JUMP JUMPDEST DUP2 SLOAD DUP2 LT PUSH2 0x4E5 JUMPI PUSH2 0x4E4 PUSH2 0x15D1 JUMP JUMPDEST JUMPDEST SWAP1 PUSH0 MSTORE PUSH1 0x20 PUSH0 KECCAK256 SWAP1 PUSH1 0x2 MUL ADD PUSH0 ADD PUSH0 SWAP1 SLOAD SWAP1 PUSH2 0x100 EXP SWAP1 DIV PUSH20 0xFFFFFFFFFFFFFFFFFFFFFFFFFFFFFFFFFFFFFFFF AND PUSH1 0x7 PUSH1 0x1 PUSH1 0x7 DUP1 SLOAD SWAP1 POP PUSH2 0x527 SWAP2 SWAP1 PUSH2 0x159E JUMP JUMPDEST DUP2 SLOAD DUP2 LT PUSH2 0x538 JUMPI PUSH2 0x537 PUSH2 0x15D1 JUMP JUMPDEST JUMPDEST SWAP1 PUSH0 MSTORE PUSH1 0x20 PUSH0 KECCAK256 SWAP1 PUSH1 0x2 MUL ADD PUSH1 0x1 ADD SLOAD PUSH1 0x40 MLOAD PUSH2 0x556 SWAP3 SWAP2 SWAP1 PUSH2 0x125B JUMP JUMPDEST PUSH1 0x40 MLOAD DUP1 SWAP2 SUB SWAP1 LOG1 JUMPDEST JUMP JUMPDEST PUSH1 0x5 PUSH0 SWAP1 SLOAD SWAP1 PUSH2 0x100 EXP SWAP1 DIV PUSH1 0xFF AND DUP2 JUMP JUMPDEST PUSH0 DUP1 SLOAD SWAP1 PUSH2 0x100 EXP SWAP1 DIV PUSH20 0xFFFFFFFFFFFFFFFFFFFFFFFFFFFFFFFFFFFFFFFF AND DUP2 JUMP JUMPDEST PUSH1 0x5 PUSH0 SWAP1 SLOAD SWAP1 PUSH2 0x100 EXP SWAP1 DIV PUSH1 0xFF AND DUP1 ISZERO PUSH2 0x5B2 JUMPI POP PUSH1 0x1 SLOAD TIMESTAMP LT JUMPDEST PUSH2 0x5F1 JUMPI PUSH1 0x40 MLOAD PUSH32 0x8C379A000000000000000000000000000000000000000000000000000000000 DUP2 MSTORE PUSH1 0x4 ADD PUSH2 0x5E8 SWAP1 PUSH2 0x14EB JUMP JUMPDEST PUSH1 0x40 MLOAD DUP1 SWAP2 SUB SWAP1 REVERT JUMPDEST PUSH0 PUSH1 0x64 PUSH1 0x3 SLOAD PUSH1 0x7 PUSH1 0x1 PUSH1 0x7 DUP1 SLOAD SWAP1 POP PUSH2 0x60B SWAP2 SWAP1 PUSH2 0x159E JUMP JUMPDEST DUP2 SLOAD DUP2 LT PUSH2 0x61C JUMPI PUSH2 0x61B PUSH2 0x15D1 JUMP JUMPDEST JUMPDEST SWAP1 PUSH0 MSTORE PUSH1 0x20 PUSH0 KECCAK256 SWAP1 PUSH1 0x2 MUL ADD PUSH1 0x1 ADD SLOAD PUSH2 0x636 SWAP2 SWAP1 PUSH2 0x15FE JUMP JUMPDEST PUSH2 0x640 SWAP2 SWAP1 PUSH2 0x166C JUMP JUMPDEST PUSH1 0x7 PUSH1 0x1 PUSH1 0x7 DUP1 SLOAD SWAP1 POP PUSH2 0x654 SWAP2 SWAP1 PUSH2 0x159E JUMP JUMPDEST DUP2 SLOAD DUP2 LT PUSH2 0x665 JUMPI PUSH2 0x664 PUSH2 0x15D1 JUMP JUMPDEST JUMPDEST SWAP1 PUSH0 MSTORE PUSH1 0x20 PUSH0 KECCAK256 SWAP1 PUSH1 0x2 MUL ADD PUSH1 0x1 ADD SLOAD PUSH2 0x67F SWAP2 SWAP1 PUSH2 0x169C JUMP JUMPDEST SWAP1 POP DUP1 CALLVALUE GT PUSH2 0x6C3 JUMPI PUSH1 0x40 MLOAD PUSH32 0x8C379A000000000000000000000000000000000000000000000000000000000 DUP2 MSTORE PUSH1 0x4 ADD PUSH2 0x6BA SWAP1 PUSH2 0x173F JUMP JUMPDEST PUSH1 0x40 MLOAD DUP1 SWAP2 SUB SWAP1 REVERT JUMPDEST PUSH1 0x2 SLOAD TIMESTAMP PUSH2 0x6D1 SWAP2 SWAP1 PUSH2 0x169C JUMP JUMPDEST PUSH1 0x1 DUP2 SWAP1 SSTORE POP PUSH1 0x7 PUSH1 0x40 MLOAD DUP1 PUSH1 0x40 ADD PUSH1 0x40 MSTORE DUP1 CALLER PUSH20 0xFFFFFFFFFFFFFFFFFFFFFFFFFFFFFFFFFFFFFFFF AND DUP2 MSTORE PUSH1 0x20 ADD CALLVALUE DUP2 MSTORE POP SWAP1 DUP1 PUSH1 0x1 DUP2 SLOAD ADD DUP1 DUP3 SSTORE DUP1 SWAP2 POP POP PUSH1 0x1 SWAP1 SUB SWAP1 PUSH0 MSTORE PUSH1 0x20 PUSH0 KECCAK256 SWAP1 PUSH1 0x2 MUL ADD PUSH0 SWAP1 SWAP2 SWAP1 SWAP2 SWAP1 SWAP2 POP PUSH0 DUP3 ADD MLOAD DUP2 PUSH0 ADD PUSH0 PUSH2 0x100 EXP DUP2 SLOAD DUP2 PUSH20 0xFFFFFFFFFFFFFFFFFFFFFFFFFFFFFFFFFFFFFFFF MUL NOT AND SWAP1 DUP4 PUSH20 0xFFFFFFFFFFFFFFFFFFFFFFFFFFFFFFFFFFFFFFFF AND MUL OR SWAP1 SSTORE POP PUSH1 0x20 DUP3 ADD MLOAD DUP2 PUSH1 0x1 ADD SSTORE POP POP CALLVALUE PUSH1 0x8 PUSH0 CALLER PUSH20 0xFFFFFFFFFFFFFFFFFFFFFFFFFFFFFFFFFFFFFFFF AND PUSH20 0xFFFFFFFFFFFFFFFFFFFFFFFFFFFFFFFFFFFFFFFF AND DUP2 MSTORE PUSH1 0x20 ADD SWAP1 DUP2 MSTORE PUSH1 0x20 ADD PUSH0 KECCAK256 PUSH0 DUP3 DUP3 SLOAD PUSH2 0x7C6 SWAP2 SWAP1 PUSH2 0x169C JUMP JUMPDEST SWAP3 POP POP DUP2 SWAP1 SSTORE POP PUSH32 0x155D469211F46E4D9AE974606F0878F9AACC6198BA30A1E6B9C8CF5627352FB5 CALLER CALLVALUE PUSH1 0x40 MLOAD PUSH2 0x7FE SWAP3 SWAP2 SWAP1 PUSH2 0x125B JUMP JUMPDEST PUSH1 0x40 MLOAD DUP1 SWAP2 SUB SWAP1 LOG1 POP JUMP JUMPDEST PUSH0 DUP1 SLOAD SWAP1 PUSH2 0x100 EXP SWAP1 DIV PUSH20 0xFFFFFFFFFFFFFFFFFFFFFFFFFFFFFFFFFFFFFFFF AND PUSH20 0xFFFFFFFFFFFFFFFFFFFFFFFFFFFFFFFFFFFFFFFF AND CALLER PUSH20 0xFFFFFFFFFFFFFFFFFFFFFFFFFFFFFFFFFFFFFFFF AND EQ PUSH2 0x896 JUMPI PUSH1 0x40 MLOAD PUSH32 0x8C379A000000000000000000000000000000000000000000000000000000000 DUP2 MSTORE PUSH1 0x4 ADD PUSH2 0x88D SWAP1 PUSH2 0x1483 JUMP JUMPDEST PUSH1 0x40 MLOAD DUP1 SWAP2 SUB SWAP1 REVERT JUMPDEST PUSH1 0x5 PUSH0 SWAP1 SLOAD SWAP1 PUSH2 0x100 EXP SWAP1 DIV PUSH1 0xFF AND ISZERO PUSH2 0x8E5 JUMPI PUSH1 0x40 MLOAD PUSH32 0x8C379A000000000000000000000000000000000000000000000000000000000 DUP2 MSTORE PUSH1 0x4 ADD PUSH2 0x8DC SWAP1 PUSH2 0x17A7 JUMP JUMPDEST PUSH1 0x40 MLOAD DUP1 SWAP2 SUB SWAP1 REVERT JUMPDEST PUSH0 PUSH1 0x7 PUSH1 0x1 PUSH1 0x7 DUP1 SLOAD SWAP1 POP PUSH2 0x8FA SWAP2 SWAP1 PUSH2 0x159E JUMP JUMPDEST DUP2 SLOAD DUP2 LT PUSH2 0x90B JUMPI PUSH2 0x90A PUSH2 0x15D1 JUMP JUMPDEST JUMPDEST SWAP1 PUSH0 MSTORE PUSH1 0x20 PUSH0 KECCAK256 SWAP1 PUSH1 0x2 MUL ADD PUSH0 ADD PUSH0 SWAP1 SLOAD SWAP1 PUSH2 0x100 EXP SWAP1 DIV PUSH20 0xFFFFFFFFFFFFFFFFFFFFFFFFFFFFFFFFFFFFFFFF AND SWAP1 POP PUSH0 JUMPDEST PUSH1 0x7 DUP1 SLOAD SWAP1 POP DUP2 LT ISZERO PUSH2 0xACE JUMPI PUSH0 PUSH1 0x7 DUP3 DUP2 SLOAD DUP2 LT PUSH2 0x95F JUMPI PUSH2 0x95E PUSH2 0x15D1 JUMP JUMPDEST JUMPDEST SWAP1 PUSH0 MSTORE PUSH1 0x20 PUSH0 KECCAK256 SWAP1 PUSH1 0x2 MUL ADD PUSH0 ADD PUSH0 SWAP1 SLOAD SWAP1 PUSH2 0x100 EXP SWAP1 DIV PUSH20 0xFFFFFFFFFFFFFFFFFFFFFFFFFFFFFFFFFFFFFFFF AND SWAP1 POP DUP3 PUSH20 0xFFFFFFFFFFFFFFFFFFFFFFFFFFFFFFFFFFFFFFFF AND DUP2 PUSH20 0xFFFFFFFFFFFFFFFFFFFFFFFFFFFFFFFFFFFFFFFF AND EQ PUSH2 0xAC0 JUMPI PUSH0 PUSH1 0x8 PUSH0 DUP4 PUSH20 0xFFFFFFFFFFFFFFFFFFFFFFFFFFFFFFFFFFFFFFFF AND PUSH20 0xFFFFFFFFFFFFFFFFFFFFFFFFFFFFFFFFFFFFFFFF AND DUP2 MSTORE PUSH1 0x20 ADD SWAP1 DUP2 MSTORE PUSH1 0x20 ADD PUSH0 KECCAK256 SLOAD SWAP1 POP PUSH0 PUSH1 0x64 PUSH1 0x4 SLOAD DUP4 PUSH2 0xA14 SWAP2 SWAP1 PUSH2 0x15FE JUMP JUMPDEST PUSH2 0xA1E SWAP2 SWAP1 PUSH2 0x166C JUMP JUMPDEST SWAP1 POP DUP1 DUP3 PUSH2 0xA2C SWAP2 SWAP1 PUSH2 0x159E JUMP JUMPDEST SWAP2 POP PUSH0 PUSH1 0x8 PUSH0 DUP6 PUSH20 0xFFFFFFFFFFFFFFFFFFFFFFFFFFFFFFFFFFFFFFFF AND PUSH20 0xFFFFFFFFFFFFFFFFFFFFFFFFFFFFFFFFFFFFFFFF AND DUP2 MSTORE PUSH1 0x20 ADD SWAP1 DUP2 MSTORE PUSH1 0x20 ADD PUSH0 KECCAK256 DUP2 SWAP1 SSTORE POP PUSH0 DUP3 GT ISZERO PUSH2 0xABD JUMPI DUP3 PUSH20 0xFFFFFFFFFFFFFFFFFFFFFFFFFFFFFFFFFFFFFFFF AND PUSH2 0x8FC DUP4 SWAP1 DUP2 ISZERO MUL SWAP1 PUSH1 0x40 MLOAD PUSH0 PUSH1 0x40 MLOAD DUP1 DUP4 SUB DUP2 DUP6 DUP9 DUP9 CALL SWAP4 POP POP POP POP ISZERO DUP1 ISZERO PUSH2 0xABB JUMPI RETURNDATASIZE PUSH0 DUP1 RETURNDATACOPY RETURNDATASIZE PUSH0 REVERT JUMPDEST POP JUMPDEST POP POP JUMPDEST POP DUP1 DUP1 PUSH1 0x1 ADD SWAP2 POP POP PUSH2 0x93D JUMP JUMPDEST POP POP JUMP JUMPDEST PUSH1 0x7 DUP2 DUP2 SLOAD DUP2 LT PUSH2 0xAE1 JUMPI PUSH0 DUP1 REVERT JUMPDEST SWAP1 PUSH0 MSTORE PUSH1 0x20 PUSH0 KECCAK256 SWAP1 PUSH1 0x2 MUL ADD PUSH0 SWAP2 POP SWAP1 POP DUP1 PUSH0 ADD PUSH0 SWAP1 SLOAD SWAP1 PUSH2 0x100 EXP SWAP1 DIV PUSH20 0xFFFFFFFFFFFFFFFFFFFFFFFFFFFFFFFFFFFFFFFF AND SWAP1 DUP1 PUSH1 0x1 ADD SLOAD SWAP1 POP DUP3 JUMP JUMPDEST PUSH1 0x8 PUSH1 0x20 MSTORE DUP1 PUSH0 MSTORE PUSH1 0x40 PUSH0 KECCAK256 PUSH0 SWAP2 POP SWAP1 POP SLOAD DUP2 JUMP JUMPDEST PUSH1 0x6 SLOAD DUP2 JUMP JUMPDEST PUSH0 DUP1 PUSH0 PUSH1 0x7 DUP1 SLOAD SWAP1 POP GT PUSH2 0xB84 JUMPI PUSH1 0x40 MLOAD PUSH32 0x8C379A000000000000000000000000000000000000000000000000000000000 DUP2 MSTORE PUSH1 0x4 ADD PUSH2 0xB7B SWAP1 PUSH2 0x180F JUMP JUMPDEST PUSH1 0x40 MLOAD DUP1 SWAP2 SUB SWAP1 REVERT JUMPDEST PUSH1 0x7 PUSH1 0x1 PUSH1 0x7 DUP1 SLOAD SWAP1 POP PUSH2 0xB98 SWAP2 SWAP1 PUSH2 0x159E JUMP JUMPDEST DUP2 SLOAD DUP2 LT PUSH2 0xBA9 JUMPI PUSH2 0xBA8 PUSH2 0x15D1 JUMP JUMPDEST JUMPDEST SWAP1 PUSH0 MSTORE PUSH1 0x20 PUSH0 KECCAK256 SWAP1 PUSH1 0x2 MUL ADD PUSH0 ADD PUSH0 SWAP1 SLOAD SWAP1 PUSH2 0x100 EXP SWAP1 DIV PUSH20 0xFFFFFFFFFFFFFFFFFFFFFFFFFFFFFFFFFFFFFFFF AND SWAP2 POP PUSH1 0x7 PUSH1 0x1 PUSH1 0x7 DUP1 SLOAD SWAP1 POP PUSH2 0xBED SWAP2 SWAP1 PUSH2 0x159E JUMP JUMPDEST DUP2 SLOAD DUP2 LT PUSH2 0xBFE JUMPI PUSH2 0xBFD PUSH2 0x15D1 JUMP JUMPDEST JUMPDEST SWAP1 PUSH0 MSTORE PUSH1 0x20 PUSH0 KECCAK256 SWAP1 PUSH1 0x2 MUL ADD PUSH1 0x1 ADD SLOAD SWAP1 POP SWAP1 SWAP2 JUMP JUMPDEST PUSH1 0x5 PUSH0 SWAP1 SLOAD SWAP1 PUSH2 0x100 EXP SWAP1 DIV PUSH1 0xFF AND DUP1 ISZERO PUSH2 0xC30 JUMPI POP PUSH1 0x1 SLOAD TIMESTAMP LT JUMPDEST PUSH2 0xC6F JUMPI PUSH1 0x40 MLOAD PUSH32 0x8C379A000000000000000000000000000000000000000000000000000000000 DUP2 MSTORE PUSH1 0x4 ADD PUSH2 0xC66 SWAP1 PUSH2 0x14EB JUMP JUMPDEST PUSH1 0x40 MLOAD DUP1 SWAP2 SUB SWAP1 REVERT JUMPDEST PUSH0 PUSH1 0x8 PUSH0 CALLER PUSH20 0xFFFFFFFFFFFFFFFFFFFFFFFFFFFFFFFFFFFFFFFF AND PUSH20 0xFFFFFFFFFFFFFFFFFFFFFFFFFFFFFFFFFFFFFFFF AND DUP2 MSTORE PUSH1 0x20 ADD SWAP1 DUP2 MSTORE PUSH1 0x20 ADD PUSH0 KECCAK256 SLOAD SWAP1 POP PUSH0 DUP1 PUSH1 0x7 DUP1 SLOAD SWAP1 POP SWAP1 POP JUMPDEST PUSH0 DUP2 GT ISZERO PUSH2 0xD8D JUMPI CALLER PUSH20 0xFFFFFFFFFFFFFFFFFFFFFFFFFFFFFFFFFFFFFFFF AND PUSH1 0x7 PUSH1 0x1 DUP4 PUSH2 0xCE9 SWAP2 SWAP1 PUSH2 0x159E JUMP JUMPDEST DUP2 SLOAD DUP2 LT PUSH2 0xCFA JUMPI PUSH2 0xCF9 PUSH2 0x15D1 JUMP JUMPDEST JUMPDEST SWAP1 PUSH0 MSTORE PUSH1 0x20 PUSH0 KECCAK256 SWAP1 PUSH1 0x2 MUL ADD PUSH0 ADD PUSH0 SWAP1 SLOAD SWAP1 PUSH2 0x100 EXP SWAP1 DIV PUSH20 0xFFFFFFFFFFFFFFFFFFFFFFFFFFFFFFFFFFFFFFFF AND PUSH20 0xFFFFFFFFFFFFFFFFFFFFFFFFFFFFFFFFFFFFFFFF AND SUB PUSH2 0xD7A JUMPI PUSH1 0x7 PUSH1 0x1 DUP3 PUSH2 0xD52 SWAP2 SWAP1 PUSH2 0x159E JUMP JUMPDEST DUP2 SLOAD DUP2 LT PUSH2 0xD63 JUMPI PUSH2 0xD62 PUSH2 0x15D1 JUMP JUMPDEST JUMPDEST SWAP1 PUSH0 MSTORE PUSH1 0x20 PUSH0 KECCAK256 SWAP1 PUSH1 0x2 MUL ADD PUSH1 0x1 ADD SLOAD SWAP2 POP PUSH2 0xD8D JUMP JUMPDEST DUP1 DUP1 PUSH2 0xD85 SWAP1 PUSH2 0x182D JUMP JUMPDEST SWAP2 POP POP PUSH2 0xCBB JUMP JUMPDEST POP DUP1 DUP3 GT PUSH2 0xDD0 JUMPI PUSH1 0x40 MLOAD PUSH32 0x8C379A000000000000000000000000000000000000000000000000000000000 DUP2 MSTORE PUSH1 0x4 ADD PUSH2 0xDC7 SWAP1 PUSH2 0x189E JUMP JUMPDEST PUSH1 0x40 MLOAD DUP1 SWAP2 SUB SWAP1 REVERT JUMPDEST PUSH0 DUP2 DUP4 PUSH2 0xDDD SWAP2 SWAP1 PUSH2 0x159E JUMP JUMPDEST SWAP1 POP DUP1 PUSH1 0x8 PUSH0 CALLER PUSH20 0xFFFFFFFFFFFFFFFFFFFFFFFFFFFFFFFFFFFFFFFF AND PUSH20 0xFFFFFFFFFFFFFFFFFFFFFFFFFFFFFFFFFFFFFFFF AND DUP2 MSTORE PUSH1 0x20 ADD SWAP1 DUP2 MSTORE PUSH1 0x20 ADD PUSH0 KECCAK256 PUSH0 DUP3 DUP3 SLOAD PUSH2 0xE2B SWAP2 SWAP1 PUSH2 0x159E JUMP JUMPDEST SWAP3 POP POP DUP2 SWAP1 SSTORE POP CALLER PUSH20 0xFFFFFFFFFFFFFFFFFFFFFFFFFFFFFFFFFFFFFFFF AND PUSH2 0x8FC DUP3 SWAP1 DUP2 ISZERO MUL SWAP1 PUSH1 0x40 MLOAD PUSH0 PUSH1 0x40 MLOAD DUP1 DUP4 SUB DUP2 DUP6 DUP9 DUP9 CALL SWAP4 POP POP POP POP ISZERO DUP1 ISZERO PUSH2 0xE75 JUMPI RETURNDATASIZE PUSH0 DUP1 RETURNDATACOPY RETURNDATASIZE PUSH0 REVERT JUMPDEST POP POP POP POP JUMP JUMPDEST PUSH1 0x5 PUSH0 SWAP1 SLOAD SWAP1 PUSH2 0x100 EXP SWAP1 DIV PUSH1 0xFF AND ISZERO PUSH2 0xECA JUMPI PUSH1 0x40 MLOAD PUSH32 0x8C379A000000000000000000000000000000000000000000000000000000000 DUP2 MSTORE PUSH1 0x4 ADD PUSH2 0xEC1 SWAP1 PUSH2 0x17A7 JUMP JUMPDEST PUSH1 0x40 MLOAD DUP1 SWAP2 SUB SWAP1 REVERT JUMPDEST PUSH0 PUSH1 0x8 PUSH0 CALLER PUSH20 0xFFFFFFFFFFFFFFFFFFFFFFFFFFFFFFFFFFFFFFFF AND PUSH20 0xFFFFFFFFFFFFFFFFFFFFFFFFFFFFFFFFFFFFFFFF AND DUP2 MSTORE PUSH1 0x20 ADD SWAP1 DUP2 MSTORE PUSH1 0x20 ADD PUSH0 KECCAK256 SLOAD SWAP1 POP PUSH0 DUP2 GT PUSH2 0xF4D JUMPI PUSH1 0x40 MLOAD PUSH32 0x8C379A000000000000000000000000000000000000000000000000000000000 DUP2 MSTORE PUSH1 0x4 ADD PUSH2 0xF44 SWAP1 PUSH2 0x1906 JUMP JUMPDEST PUSH1 0x40 MLOAD DUP1 SWAP2 SUB SWAP1 REVERT JUMPDEST PUSH0 PUSH1 0x7 PUSH1 0x1 PUSH1 0x7 DUP1 SLOAD SWAP1 POP PUSH2 0xF62 SWAP2 SWAP1 PUSH2 0x159E JUMP JUMPDEST DUP2 SLOAD DUP2 LT PUSH2 0xF73 JUMPI PUSH2 0xF72 PUSH2 0x15D1 JUMP JUMPDEST JUMPDEST SWAP1 PUSH0 MSTORE PUSH1 0x20 PUSH0 KECCAK256 SWAP1 PUSH1 0x2 MUL ADD PUSH0 ADD PUSH0 SWAP1 SLOAD SWAP1 PUSH2 0x100 EXP SWAP1 DIV PUSH20 0xFFFFFFFFFFFFFFFFFFFFFFFFFFFFFFFFFFFFFFFF AND SWAP1 POP DUP1 PUSH20 0xFFFFFFFFFFFFFFFFFFFFFFFFFFFFFFFFFFFFFFFF AND CALLER PUSH20 0xFFFFFFFFFFFFFFFFFFFFFFFFFFFFFFFFFFFFFFFF AND EQ PUSH2 0x1003 JUMPI PUSH0 PUSH1 0x64 PUSH1 0x4 SLOAD DUP5 PUSH2 0xFE7 SWAP2 SWAP1 PUSH2 0x15FE JUMP JUMPDEST PUSH2 0xFF1 SWAP2 SWAP1 PUSH2 0x166C JUMP JUMPDEST SWAP1 POP DUP1 DUP4 PUSH2 0xFFF SWAP2 SWAP1 PUSH2 0x159E JUMP JUMPDEST SWAP3 POP POP JUMPDEST PUSH0 PUSH1 0x8 PUSH0 CALLER PUSH20 0xFFFFFFFFFFFFFFFFFFFFFFFFFFFFFFFFFFFFFFFF AND PUSH20 0xFFFFFFFFFFFFFFFFFFFFFFFFFFFFFFFFFFFFFFFF AND DUP2 MSTORE PUSH1 0x20 ADD SWAP1 DUP2 MSTORE PUSH1 0x20 ADD PUSH0 KECCAK256 DUP2 SWAP1 SSTORE POP CALLER PUSH20 0xFFFFFFFFFFFFFFFFFFFFFFFFFFFFFFFFFFFFFFFF AND PUSH2 0x8FC DUP4 SWAP1 DUP2 ISZERO MUL SWAP1 PUSH1 0x40 MLOAD PUSH0 PUSH1 0x40 MLOAD DUP1 DUP4 SUB DUP2 DUP6 DUP9 DUP9 CALL SWAP4 POP POP POP POP ISZERO DUP1 ISZERO PUSH2 0x1088 JUMPI RETURNDATASIZE PUSH0 DUP1 RETURNDATACOPY RETURNDATASIZE PUSH0 REVERT JUMPDEST POP POP POP JUMP JUMPDEST PUSH1 0x4 SLOAD DUP2 JUMP JUMPDEST PUSH1 0x60 PUSH1 0x7 DUP1 SLOAD DUP1 PUSH1 0x20 MUL PUSH1 0x20 ADD PUSH1 0x40 MLOAD SWAP1 DUP2 ADD PUSH1 0x40 MSTORE DUP1 SWAP3 SWAP2 SWAP1 DUP2 DUP2 MSTORE PUSH1 0x20 ADD PUSH0 SWAP1 JUMPDEST DUP3 DUP3 LT ISZERO PUSH2 0x1144 JUMPI DUP4 DUP3 SWAP1 PUSH0 MSTORE PUSH1 0x20 PUSH0 KECCAK256 SWAP1 PUSH1 0x2 MUL ADD PUSH1 0x40 MLOAD DUP1 PUSH1 0x40 ADD PUSH1 0x40 MSTORE SWAP1 DUP2 PUSH0 DUP3 ADD PUSH0 SWAP1 SLOAD SWAP1 PUSH2 0x100 EXP SWAP1 DIV PUSH20 0xFFFFFFFFFFFFFFFFFFFFFFFFFFFFFFFFFFFFFFFF AND PUSH20 0xFFFFFFFFFFFFFFFFFFFFFFFFFFFFFFFFFFFFFFFF AND PUSH20 0xFFFFFFFFFFFFFFFFFFFFFFFFFFFFFFFFFFFFFFFF AND DUP2 MSTORE PUSH1 0x20 ADD PUSH1 0x1 DUP3 ADD SLOAD DUP2 MSTORE POP POP DUP2 MSTORE PUSH1 0x20 ADD SWAP1 PUSH1 0x1 ADD SWAP1 PUSH2 0x10B6 JUMP JUMPDEST POP POP POP POP SWAP1 POP SWAP1 JUMP JUMPDEST PUSH1 0x1 SLOAD DUP2 JUMP JUMPDEST PUSH1 0x3 SLOAD DUP2 JUMP JUMPDEST PUSH1 0x2 SLOAD DUP2 JUMP JUMPDEST PUSH0 DUP2 ISZERO ISZERO SWAP1 POP SWAP2 SWAP1 POP JUMP JUMPDEST PUSH2 0x1173 DUP2 PUSH2 0x115F JUMP JUMPDEST DUP3 MSTORE POP POP JUMP JUMPDEST PUSH0 PUSH1 0x20 DUP3 ADD SWAP1 POP PUSH2 0x118C PUSH0 DUP4 ADD DUP5 PUSH2 0x116A JUMP JUMPDEST SWAP3 SWAP2 POP POP JUMP JUMPDEST PUSH0 PUSH20 0xFFFFFFFFFFFFFFFFFFFFFFFFFFFFFFFFFFFFFFFF DUP3 AND SWAP1 POP SWAP2 SWAP1 POP JUMP JUMPDEST PUSH0 PUSH2 0x11BB DUP3 PUSH2 0x1192 JUMP JUMPDEST SWAP1 POP SWAP2 SWAP1 POP JUMP JUMPDEST PUSH2 0x11CB DUP2 PUSH2 0x11B1 JUMP JUMPDEST DUP3 MSTORE POP POP JUMP JUMPDEST PUSH0 PUSH1 0x20 DUP3 ADD SWAP1 POP PUSH2 0x11E4 PUSH0 DUP4 ADD DUP5 PUSH2 0x11C2 JUMP JUMPDEST SWAP3 SWAP2 POP POP JUMP JUMPDEST PUSH0 DUP1 REVERT JUMPDEST PUSH0 DUP2 SWAP1 POP SWAP2 SWAP1 POP JUMP JUMPDEST PUSH2 0x1200 DUP2 PUSH2 0x11EE JUMP JUMPDEST DUP2 EQ PUSH2 0x120A JUMPI PUSH0 DUP1 REVERT JUMPDEST POP JUMP JUMPDEST PUSH0 DUP2 CALLDATALOAD SWAP1 POP PUSH2 0x121B DUP2 PUSH2 0x11F7 JUMP JUMPDEST SWAP3 SWAP2 POP POP JUMP JUMPDEST PUSH0 PUSH1 0x20 DUP3 DUP5 SUB SLT ISZERO PUSH2 0x1236 JUMPI PUSH2 0x1235 PUSH2 0x11EA JUMP JUMPDEST JUMPDEST PUSH0 PUSH2 0x1243 DUP5 DUP3 DUP6 ADD PUSH2 0x120D JUMP JUMPDEST SWAP2 POP POP SWAP3 SWAP2 POP POP JUMP JUMPDEST PUSH2 0x1255 DUP2 PUSH2 0x11EE JUMP JUMPDEST DUP3 MSTORE POP POP JUMP JUMPDEST PUSH0 PUSH1 0x40 DUP3 ADD SWAP1 POP PUSH2 0x126E PUSH0 DUP4 ADD DUP6 PUSH2 0x11C2 JUMP JUMPDEST PUSH2 0x127B PUSH1 0x20 DUP4 ADD DUP5 PUSH2 0x124C JUMP JUMPDEST SWAP4 SWAP3 POP POP POP JUMP JUMPDEST PUSH2 0x128B DUP2 PUSH2 0x11B1 JUMP JUMPDEST DUP2 EQ PUSH2 0x1295 JUMPI PUSH0 DUP1 REVERT JUMPDEST POP JUMP JUMPDEST PUSH0 DUP2 CALLDATALOAD SWAP1 POP PUSH2 0x12A6 DUP2 PUSH2 0x1282 JUMP JUMPDEST SWAP3 SWAP2 POP POP JUMP JUMPDEST PUSH0 PUSH1 0x20 DUP3 DUP5 SUB SLT ISZERO PUSH2 0x12C1 JUMPI PUSH2 0x12C0 PUSH2 0x11EA JUMP JUMPDEST JUMPDEST PUSH0 PUSH2 0x12CE DUP5 DUP3 DUP6 ADD PUSH2 0x1298 JUMP JUMPDEST SWAP2 POP POP SWAP3 SWAP2 POP POP JUMP JUMPDEST PUSH0 PUSH1 0x20 DUP3 ADD SWAP1 POP PUSH2 0x12EA PUSH0 DUP4 ADD DUP5 PUSH2 0x124C JUMP JUMPDEST SWAP3 SWAP2 POP POP JUMP JUMPDEST PUSH0 DUP2 MLOAD SWAP1 POP SWAP2 SWAP1 POP JUMP JUMPDEST PUSH0 DUP3 DUP3 MSTORE PUSH1 0x20 DUP3 ADD SWAP1 POP SWAP3 SWAP2 POP POP JUMP JUMPDEST PUSH0 DUP2 SWAP1 POP PUSH1 0x20 DUP3 ADD SWAP1 POP SWAP2 SWAP1 POP JUMP JUMPDEST PUSH2 0x1322 DUP2 PUSH2 0x11B1 JUMP JUMPDEST DUP3 MSTORE POP POP JUMP JUMPDEST PUSH2 0x1331 DUP2 PUSH2 0x11EE JUMP JUMPDEST DUP3 MSTORE POP POP JUMP JUMPDEST PUSH1 0x40 DUP3 ADD PUSH0 DUP3 ADD MLOAD PUSH2 0x134B PUSH0 DUP6 ADD DUP3 PUSH2 0x1319 JUMP JUMPDEST POP PUSH1 0x20 DUP3 ADD MLOAD PUSH2 0x135E PUSH1 0x20 DUP6 ADD DUP3 PUSH2 0x1328 JUMP JUMPDEST POP POP POP POP JUMP JUMPDEST PUSH0 PUSH2 0x136F DUP4 DUP4 PUSH2 0x1337 JUMP JUMPDEST PUSH1 0x40 DUP4 ADD SWAP1 POP SWAP3 SWAP2 POP POP JUMP JUMPDEST PUSH0 PUSH1 0x20 DUP3 ADD SWAP1 POP SWAP2 SWAP1 POP JUMP JUMPDEST PUSH0 PUSH2 0x1391 DUP3 PUSH2 0x12F0 JUMP JUMPDEST PUSH2 0x139B DUP2 DUP6 PUSH2 0x12FA JUMP JUMPDEST SWAP4 POP PUSH2 0x13A6 DUP4 PUSH2 0x130A JUMP JUMPDEST DUP1 PUSH0 JUMPDEST DUP4 DUP2 LT ISZERO PUSH2 0x13D6 JUMPI DUP2 MLOAD PUSH2 0x13BD DUP9 DUP3 PUSH2 0x1364 JUMP JUMPDEST SWAP8 POP PUSH2 0x13C8 DUP4 PUSH2 0x137B JUMP JUMPDEST SWAP3 POP POP PUSH1 0x1 DUP2 ADD SWAP1 POP PUSH2 0x13A9 JUMP JUMPDEST POP DUP6 SWAP4 POP POP POP POP SWAP3 SWAP2 POP POP JUMP JUMPDEST PUSH0 PUSH1 0x20 DUP3 ADD SWAP1 POP DUP2 DUP2 SUB PUSH0 DUP4 ADD MSTORE PUSH2 0x13FB DUP2 DUP5 PUSH2 0x1387 JUMP JUMPDEST SWAP1 POP SWAP3 SWAP2 POP POP JUMP JUMPDEST PUSH0 DUP3 DUP3 MSTORE PUSH1 0x20 DUP3 ADD SWAP1 POP SWAP3 SWAP2 POP POP JUMP JUMPDEST PUSH32 0x536F6C6F20656C2073756261737461646F7220707565646520656A6563757461 PUSH0 DUP3 ADD MSTORE PUSH32 0x72206573746120616363696F6E00000000000000000000000000000000000000 PUSH1 0x20 DUP3 ADD MSTORE POP JUMP JUMPDEST PUSH0 PUSH2 0x146D PUSH1 0x2D DUP4 PUSH2 0x1403 JUMP JUMPDEST SWAP2 POP PUSH2 0x1478 DUP3 PUSH2 0x1413 JUMP JUMPDEST PUSH1 0x40 DUP3 ADD SWAP1 POP SWAP2 SWAP1 POP JUMP JUMPDEST PUSH0 PUSH1 0x20 DUP3 ADD SWAP1 POP DUP2 DUP2 SUB PUSH0 DUP4 ADD MSTORE PUSH2 0x149A DUP2 PUSH2 0x1461 JUMP JUMPDEST SWAP1 POP SWAP2 SWAP1 POP JUMP JUMPDEST PUSH32 0x4C6120737562617374612079612068612066696E616C697A61646F0000000000 PUSH0 DUP3 ADD MSTORE POP JUMP JUMPDEST PUSH0 PUSH2 0x14D5 PUSH1 0x1B DUP4 PUSH2 0x1403 JUMP JUMPDEST SWAP2 POP PUSH2 0x14E0 DUP3 PUSH2 0x14A1 JUMP JUMPDEST PUSH1 0x20 DUP3 ADD SWAP1 POP SWAP2 SWAP1 POP JUMP JUMPDEST PUSH0 PUSH1 0x20 DUP3 ADD SWAP1 POP DUP2 DUP2 SUB PUSH0 DUP4 ADD MSTORE PUSH2 0x1502 DUP2 PUSH2 0x14C9 JUMP JUMPDEST SWAP1 POP SWAP2 SWAP1 POP JUMP JUMPDEST PUSH32 0x4C6120737562617374612061756E206573746120656E20637572736F00000000 PUSH0 DUP3 ADD MSTORE POP JUMP JUMPDEST PUSH0 PUSH2 0x153D PUSH1 0x1C DUP4 PUSH2 0x1403 JUMP JUMPDEST SWAP2 POP PUSH2 0x1548 DUP3 PUSH2 0x1509 JUMP JUMPDEST PUSH1 0x20 DUP3 ADD SWAP1 POP SWAP2 SWAP1 POP JUMP JUMPDEST PUSH0 PUSH1 0x20 DUP3 ADD SWAP1 POP DUP2 DUP2 SUB PUSH0 DUP4 ADD MSTORE PUSH2 0x156A DUP2 PUSH2 0x1531 JUMP JUMPDEST SWAP1 POP SWAP2 SWAP1 POP JUMP JUMPDEST PUSH32 0x4E487B7100000000000000000000000000000000000000000000000000000000 PUSH0 MSTORE PUSH1 0x11 PUSH1 0x4 MSTORE PUSH1 0x24 PUSH0 REVERT JUMPDEST PUSH0 PUSH2 0x15A8 DUP3 PUSH2 0x11EE JUMP JUMPDEST SWAP2 POP PUSH2 0x15B3 DUP4 PUSH2 0x11EE JUMP JUMPDEST SWAP3 POP DUP3 DUP3 SUB SWAP1 POP DUP2 DUP2 GT ISZERO PUSH2 0x15CB JUMPI PUSH2 0x15CA PUSH2 0x1571 JUMP JUMPDEST JUMPDEST SWAP3 SWAP2 POP POP JUMP JUMPDEST PUSH32 0x4E487B7100000000000000000000000000000000000000000000000000000000 PUSH0 MSTORE PUSH1 0x32 PUSH1 0x4 MSTORE PUSH1 0x24 PUSH0 REVERT JUMPDEST PUSH0 PUSH2 0x1608 DUP3 PUSH2 0x11EE JUMP JUMPDEST SWAP2 POP PUSH2 0x1613 DUP4 PUSH2 0x11EE JUMP JUMPDEST SWAP3 POP DUP3 DUP3 MUL PUSH2 0x1621 DUP2 PUSH2 0x11EE JUMP JUMPDEST SWAP2 POP DUP3 DUP3 DIV DUP5 EQ DUP4 ISZERO OR PUSH2 0x1638 JUMPI PUSH2 0x1637 PUSH2 0x1571 JUMP JUMPDEST JUMPDEST POP SWAP3 SWAP2 POP POP JUMP JUMPDEST PUSH32 0x4E487B7100000000000000000000000000000000000000000000000000000000 PUSH0 MSTORE PUSH1 0x12 PUSH1 0x4 MSTORE PUSH1 0x24 PUSH0 REVERT JUMPDEST PUSH0 PUSH2 0x1676 DUP3 PUSH2 0x11EE JUMP JUMPDEST SWAP2 POP PUSH2 0x1681 DUP4 PUSH2 0x11EE JUMP JUMPDEST SWAP3 POP DUP3 PUSH2 0x1691 JUMPI PUSH2 0x1690 PUSH2 0x163F JUMP JUMPDEST JUMPDEST DUP3 DUP3 DIV SWAP1 POP SWAP3 SWAP2 POP POP JUMP JUMPDEST PUSH0 PUSH2 0x16A6 DUP3 PUSH2 0x11EE JUMP JUMPDEST SWAP2 POP PUSH2 0x16B1 DUP4 PUSH2 0x11EE JUMP JUMPDEST SWAP3 POP DUP3 DUP3 ADD SWAP1 POP DUP1 DUP3 GT ISZERO PUSH2 0x16C9 JUMPI PUSH2 0x16C8 PUSH2 0x1571 JUMP JUMPDEST JUMPDEST SWAP3 SWAP2 POP POP JUMP JUMPDEST PUSH32 0x4C61206F66657274612064656265207375706572617220656E20616C206D656E PUSH0 DUP3 ADD MSTORE PUSH32 0x6F7320756E203525206C61206F66657274612061637475616C00000000000000 PUSH1 0x20 DUP3 ADD MSTORE POP JUMP JUMPDEST PUSH0 PUSH2 0x1729 PUSH1 0x39 DUP4 PUSH2 0x1403 JUMP JUMPDEST SWAP2 POP PUSH2 0x1734 DUP3 PUSH2 0x16CF JUMP JUMPDEST PUSH1 0x40 DUP3 ADD SWAP1 POP SWAP2 SWAP1 POP JUMP JUMPDEST PUSH0 PUSH1 0x20 DUP3 ADD SWAP1 POP DUP2 DUP2 SUB PUSH0 DUP4 ADD MSTORE PUSH2 0x1756 DUP2 PUSH2 0x171D JUMP JUMPDEST SWAP1 POP SWAP2 SWAP1 POP JUMP JUMPDEST PUSH32 0x4C6120737562617374612061756E206573746120616374697661000000000000 PUSH0 DUP3 ADD MSTORE POP JUMP JUMPDEST PUSH0 PUSH2 0x1791 PUSH1 0x1A DUP4 PUSH2 0x1403 JUMP JUMPDEST SWAP2 POP PUSH2 0x179C DUP3 PUSH2 0x175D JUMP JUMPDEST PUSH1 0x20 DUP3 ADD SWAP1 POP SWAP2 SWAP1 POP JUMP JUMPDEST PUSH0 PUSH1 0x20 DUP3 ADD SWAP1 POP DUP2 DUP2 SUB PUSH0 DUP4 ADD MSTORE PUSH2 0x17BE DUP2 PUSH2 0x1785 JUMP JUMPDEST SWAP1 POP SWAP2 SWAP1 POP JUMP JUMPDEST PUSH32 0x4E6F20686179206F666572746173000000000000000000000000000000000000 PUSH0 DUP3 ADD MSTORE POP JUMP JUMPDEST PUSH0 PUSH2 0x17F9 PUSH1 0xE DUP4 PUSH2 0x1403 JUMP JUMPDEST SWAP2 POP PUSH2 0x1804 DUP3 PUSH2 0x17C5 JUMP JUMPDEST PUSH1 0x20 DUP3 ADD SWAP1 POP SWAP2 SWAP1 POP JUMP JUMPDEST PUSH0 PUSH1 0x20 DUP3 ADD SWAP1 POP DUP2 DUP2 SUB PUSH0 DUP4 ADD MSTORE PUSH2 0x1826 DUP2 PUSH2 0x17ED JUMP JUMPDEST SWAP1 POP SWAP2 SWAP1 POP JUMP JUMPDEST PUSH0 PUSH2 0x1837 DUP3 PUSH2 0x11EE JUMP JUMPDEST SWAP2 POP PUSH0 DUP3 SUB PUSH2 0x1849 JUMPI PUSH2 0x1848 PUSH2 0x1571 JUMP JUMPDEST JUMPDEST PUSH1 0x1 DUP3 SUB SWAP1 POP SWAP2 SWAP1 POP JUMP JUMPDEST PUSH32 0x4E6F20686179206578636564656E746520706172612072657469726172000000 PUSH0 DUP3 ADD MSTORE POP JUMP JUMPDEST PUSH0 PUSH2 0x1888 PUSH1 0x1D DUP4 PUSH2 0x1403 JUMP JUMPDEST SWAP2 POP PUSH2 0x1893 DUP3 PUSH2 0x1854 JUMP JUMPDEST PUSH1 0x20 DUP3 ADD SWAP1 POP SWAP2 SWAP1 POP JUMP JUMPDEST PUSH0 PUSH1 0x20 DUP3 ADD SWAP1 POP DUP2 DUP2 SUB PUSH0 DUP4 ADD MSTORE PUSH2 0x18B5 DUP2 PUSH2 0x187C JUMP JUMPDEST SWAP1 POP SWAP2 SWAP1 POP JUMP JUMPDEST PUSH32 0x4E6F20686179206465706F7369746F2070617261206465766F6C766572000000 PUSH0 DUP3 ADD MSTORE POP JUMP JUMPDEST PUSH0 PUSH2 0x18F0 PUSH1 0x1D DUP4 PUSH2 0x1403 JUMP JUMPDEST SWAP2 POP PUSH2 0x18FB DUP3 PUSH2 0x18BC JUMP JUMPDEST PUSH1 0x20 DUP3 ADD SWAP1 POP SWAP2 SWAP1 POP JUMP JUMPDEST PUSH0 PUSH1 0x20 DUP3 ADD SWAP1 POP DUP2 DUP2 SUB PUSH0 DUP4 ADD MSTORE PUSH2 0x191D DUP2 PUSH2 0x18E4 JUMP JUMPDEST SWAP1 POP SWAP2 SWAP1 POP JUMP INVALID LOG2 PUSH5 0x6970667358 0x22 SLT KECCAK256 0xA7 0x29 PUSH19 0x8E202D52CB0504D64A258936B2D342C0BC13EC STATICCALL MOD ADDRESS LOG0 SWAP2 0xC1 0xD9 CALLVALUE SWAP13 0xC8 PUSH5 0x736F6C6343 STOP ADDMOD BYTE STOP CALLER "
				},
				"gasEstimates": {
					"creation": {
						"codeDepositCost": "1298000",
						"executionCost": "infinite",
						"totalCost": "infinite"
					},
					"external": {
						"activa()": "2512",
						"comision()": "2514",
						"depositos(address)": "2869",
						"duracionSubasta()": "2513",
						"finalizarSubasta()": "infinite",
						"mostrarGanador()": "infinite",
						"mostrarOfertas()": "infinite",
						"ofertaInicial()": "2514",
						"ofertar()": "infinite",
						"ofertas(uint256)": "infinite",
						"porcentajeIncremento()": "2491",
						"reembolsarOfertantes()": "infinite",
						"retirarDeposito()": "infinite",
						"retiroParcial()": "infinite",
						"subastador()": "2573",
						"tiempoFinal()": "2469"
					}
				},
				"methodIdentifiers": {
					"activa()": "2c5e5471",
					"comision()": "b53627b2",
					"depositos(address)": "664e62b9",
					"duracionSubasta()": "d1d7e96c",
					"finalizarSubasta()": "0851eac2",
					"mostrarGanador()": "753dcaeb",
					"mostrarOfertas()": "c442a99f",
					"ofertaInicial()": "71ea6d33",
					"ofertar()": "3ec059d7",
					"ofertas(uint256)": "56afff7c",
					"porcentajeIncremento()": "cc14e31f",
					"reembolsarOfertantes()": "51f4d7da",
					"retirarDeposito()": "a05d3ddc",
					"retiroParcial()": "9528a4bd",
					"subastador()": "3dfa138d",
					"tiempoFinal()": "c63049f8"
				}
			},
			"storageLayout": {
				"storage": [
					{
						"astId": 3,
						"contract": "subasta5.sol:Subasta",
						"label": "subastador",
						"offset": 0,
						"slot": "0",
						"type": "t_address"
					},
					{
						"astId": 5,
						"contract": "subasta5.sol:Subasta",
						"label": "tiempoFinal",
						"offset": 0,
						"slot": "1",
						"type": "t_uint256"
					},
					{
						"astId": 10,
						"contract": "subasta5.sol:Subasta",
						"label": "duracionSubasta",
						"offset": 0,
						"slot": "2",
						"type": "t_uint256"
					},
					{
						"astId": 13,
						"contract": "subasta5.sol:Subasta",
						"label": "porcentajeIncremento",
						"offset": 0,
						"slot": "3",
						"type": "t_uint256"
					},
					{
						"astId": 16,
						"contract": "subasta5.sol:Subasta",
						"label": "comision",
						"offset": 0,
						"slot": "4",
						"type": "t_uint256"
					},
					{
						"astId": 19,
						"contract": "subasta5.sol:Subasta",
						"label": "activa",
						"offset": 0,
						"slot": "5",
						"type": "t_bool"
					},
					{
						"astId": 22,
						"contract": "subasta5.sol:Subasta",
						"label": "ofertaInicial",
						"offset": 0,
						"slot": "6",
						"type": "t_uint256"
					},
					{
						"astId": 31,
						"contract": "subasta5.sol:Subasta",
						"label": "ofertas",
						"offset": 0,
						"slot": "7",
						"type": "t_array(t_struct(Oferta)27_storage)dyn_storage"
					},
					{
						"astId": 35,
						"contract": "subasta5.sol:Subasta",
						"label": "depositos",
						"offset": 0,
						"slot": "8",
						"type": "t_mapping(t_address,t_uint256)"
					}
				],
				"types": {
					"t_address": {
						"encoding": "inplace",
						"label": "address",
						"numberOfBytes": "20"
					},
					"t_array(t_struct(Oferta)27_storage)dyn_storage": {
						"base": "t_struct(Oferta)27_storage",
						"encoding": "dynamic_array",
						"label": "struct Subasta.Oferta[]",
						"numberOfBytes": "32"
					},
					"t_bool": {
						"encoding": "inplace",
						"label": "bool",
						"numberOfBytes": "1"
					},
					"t_mapping(t_address,t_uint256)": {
						"encoding": "mapping",
						"key": "t_address",
						"label": "mapping(address => uint256)",
						"numberOfBytes": "32",
						"value": "t_uint256"
					},
					"t_struct(Oferta)27_storage": {
						"encoding": "inplace",
						"label": "struct Subasta.Oferta",
						"members": [
							{
								"astId": 24,
								"contract": "subasta5.sol:Subasta",
								"label": "ofertante",
								"offset": 0,
								"slot": "0",
								"type": "t_address"
							},
							{
								"astId": 26,
								"contract": "subasta5.sol:Subasta",
								"label": "cantidad",
								"offset": 0,
								"slot": "1",
								"type": "t_uint256"
							}
						],
						"numberOfBytes": "64"
					},
					"t_uint256": {
						"encoding": "inplace",
						"label": "uint256",
						"numberOfBytes": "32"
					}
				}
			},
			"userdoc": {
				"kind": "user",
				"methods": {},
				"version": 1
			}
		}
	}
}