{
	"subasta7.sol": {
		"AuctionSergioM": {
			"abi": [
				{
					"inputs": [
						{
							"internalType": "uint256",
							"name": "_initialBid",
							"type": "uint256"
						}
					],
					"stateMutability": "nonpayable",
					"type": "constructor"
				},
				{
					"anonymous": false,
					"inputs": [
						{
							"indexed": false,
							"internalType": "address",
							"name": "winner",
							"type": "address"
						},
						{
							"indexed": false,
							"internalType": "uint256",
							"name": "winningAmount",
							"type": "uint256"
						}
					],
					"name": "AuctionEnded",
					"type": "event"
				},
				{
					"anonymous": false,
					"inputs": [
						{
							"indexed": true,
							"internalType": "address",
							"name": "bidder",
							"type": "address"
						},
						{
							"indexed": false,
							"internalType": "uint256",
							"name": "amount",
							"type": "uint256"
						}
					],
					"name": "NewBid",
					"type": "event"
				},
				{
					"inputs": [],
					"name": "EXTENSION_PERIOD",
					"outputs": [
						{
							"internalType": "uint32",
							"name": "",
							"type": "uint32"
						}
					],
					"stateMutability": "view",
					"type": "function"
				},
				{
					"inputs": [],
					"name": "GAS_COMMISSION",
					"outputs": [
						{
							"internalType": "uint8",
							"name": "",
							"type": "uint8"
						}
					],
					"stateMutability": "view",
					"type": "function"
				},
				{
					"inputs": [],
					"name": "auctionActive",
					"outputs": [
						{
							"internalType": "bool",
							"name": "",
							"type": "bool"
						}
					],
					"stateMutability": "view",
					"type": "function"
				},
				{
					"inputs": [],
					"name": "auctioneer",
					"outputs": [
						{
							"internalType": "address",
							"name": "",
							"type": "address"
						}
					],
					"stateMutability": "view",
					"type": "function"
				},
				{
					"inputs": [],
					"name": "bid",
					"outputs": [],
					"stateMutability": "payable",
					"type": "function"
				},
				{
					"inputs": [
						{
							"internalType": "uint256",
							"name": "",
							"type": "uint256"
						}
					],
					"name": "bidHistory",
					"outputs": [
						{
							"internalType": "address",
							"name": "bidder",
							"type": "address"
						},
						{
							"internalType": "uint256",
							"name": "amount",
							"type": "uint256"
						}
					],
					"stateMutability": "view",
					"type": "function"
				},
				{
					"inputs": [],
					"name": "endAuction",
					"outputs": [],
					"stateMutability": "nonpayable",
					"type": "function"
				},
				{
					"inputs": [],
					"name": "endTime",
					"outputs": [
						{
							"internalType": "uint256",
							"name": "",
							"type": "uint256"
						}
					],
					"stateMutability": "view",
					"type": "function"
				},
				{
					"inputs": [],
					"name": "getMaxBid",
					"outputs": [
						{
							"internalType": "uint256",
							"name": "",
							"type": "uint256"
						}
					],
					"stateMutability": "view",
					"type": "function"
				},
				{
					"inputs": [],
					"name": "minimumBid",
					"outputs": [
						{
							"internalType": "uint256",
							"name": "",
							"type": "uint256"
						}
					],
					"stateMutability": "view",
					"type": "function"
				},
				{
					"inputs": [],
					"name": "partialWithdraw",
					"outputs": [],
					"stateMutability": "nonpayable",
					"type": "function"
				},
				{
					"inputs": [],
					"name": "refundDeposits",
					"outputs": [],
					"stateMutability": "nonpayable",
					"type": "function"
				},
				{
					"inputs": [],
					"name": "showBids",
					"outputs": [
						{
							"components": [
								{
									"internalType": "address",
									"name": "bidder",
									"type": "address"
								},
								{
									"internalType": "uint256",
									"name": "amount",
									"type": "uint256"
								}
							],
							"internalType": "struct AuctionSergioM.Bid[]",
							"name": "",
							"type": "tuple[]"
						}
					],
					"stateMutability": "view",
					"type": "function"
				}
			],
			"devdoc": {
				"author": "Sergio Muñoz",
				"details": "This is a simple auction implementation with time extensions, bid history, and deposit refunds.",
				"kind": "dev",
				"methods": {},
				"title": "Final Work - Module 2 - Auction ",
				"version": 1
			},
			"evm": {
				"assembly": "    /* \"subasta7.sol\":349:4314  contract AuctionSergioM {... */\n  mstore(0x40, 0x80)\n    /* \"subasta7.sol\":911:1160  constructor(uint _initialBid) {... */\n  callvalue\n  dup1\n  iszero\n  tag_1\n  jumpi\n  0x00\n  dup1\n  revert\ntag_1:\n  pop\n  mload(0x40)\n  sub(codesize, bytecodeSize)\n  dup1\n  bytecodeSize\n  dup4\n  codecopy\n  dup2\n  dup2\n  add\n  0x40\n  mstore\n  dup2\n  add\n  swap1\n  tag_2\n  swap2\n  swap1\n  tag_3\n  jump\t// in\ntag_2:\n    /* \"subasta7.sol\":965:975  msg.sender */\n  caller\n    /* \"subasta7.sol\":952:962  auctioneer */\n  0x00\n  dup1\n    /* \"subasta7.sol\":952:975  auctioneer = msg.sender */\n  0x0100\n  exp\n  dup2\n  sload\n  dup2\n  0xffffffffffffffffffffffffffffffffffffffff\n  mul\n  not\n  and\n  swap1\n  dup4\n  0xffffffffffffffffffffffffffffffffffffffff\n  and\n  mul\n  or\n  swap1\n  sstore\n  pop\n    /* \"subasta7.sol\":999:1010  _initialBid */\n  dup1\n    /* \"subasta7.sol\":986:996  minimumBid */\n  0x02\n    /* \"subasta7.sol\":986:1010  minimumBid = _initialBid */\n  dup2\n  swap1\n  sstore\n  pop\n    /* \"subasta7.sol\":1037:1041  true */\n  0x01\n    /* \"subasta7.sol\":1021:1034  auctionActive */\n  0x03\n  0x00\n    /* \"subasta7.sol\":1021:1041  auctionActive = true */\n  0x0100\n  exp\n  dup2\n  sload\n  dup2\n  0xff\n  mul\n  not\n  and\n  swap1\n  dup4\n  iszero\n  iszero\n  mul\n  or\n  swap1\n  sstore\n  pop\n    /* \"subasta7.sol\":594:604  10 minutes */\n  0x0258\n    /* \"subasta7.sol\":1062:1096  block.timestamp + EXTENSION_PERIOD */\n  0xffffffff\n  and\n    /* \"subasta7.sol\":1062:1077  block.timestamp */\n  timestamp\n    /* \"subasta7.sol\":1062:1096  block.timestamp + EXTENSION_PERIOD */\n  tag_6\n  swap2\n  swap1\n  tag_7\n  jump\t// in\ntag_6:\n    /* \"subasta7.sol\":1052:1059  endTime */\n  0x01\n    /* \"subasta7.sol\":1052:1096  endTime = block.timestamp + EXTENSION_PERIOD */\n  dup2\n  swap1\n  sstore\n  pop\n    /* \"subasta7.sol\":1107:1117  bidHistory */\n  0x04\n    /* \"subasta7.sol\":1123:1151  Bid(msg.sender, _initialBid) */\n  mload(0x40)\n  dup1\n  0x40\n  add\n  0x40\n  mstore\n  dup1\n    /* \"subasta7.sol\":1127:1137  msg.sender */\n  caller\n    /* \"subasta7.sol\":1123:1151  Bid(msg.sender, _initialBid) */\n  0xffffffffffffffffffffffffffffffffffffffff\n  and\n  dup2\n  mstore\n  0x20\n  add\n    /* \"subasta7.sol\":1139:1150  _initialBid */\n  dup4\n    /* \"subasta7.sol\":1123:1151  Bid(msg.sender, _initialBid) */\n  dup2\n  mstore\n  pop\n    /* \"subasta7.sol\":1107:1152  bidHistory.push(Bid(msg.sender, _initialBid)) */\n  swap1\n  dup1\n  0x01\n  dup2\n  sload\n  add\n  dup1\n  dup3\n  sstore\n  dup1\n  swap2\n  pop\n  pop\n  0x01\n  swap1\n  sub\n  swap1\n  0x00\n  mstore\n  keccak256(0x00, 0x20)\n  swap1\n  0x02\n  mul\n  add\n  0x00\n  swap1\n  swap2\n  swap1\n  swap2\n  swap1\n  swap2\n  pop\n  0x00\n  dup3\n  add\n  mload\n  dup2\n  0x00\n  add\n  exp(0x0100, 0x00)\n  dup2\n  sload\n  dup2\n  0xffffffffffffffffffffffffffffffffffffffff\n  mul\n  not\n  and\n  swap1\n  dup4\n  0xffffffffffffffffffffffffffffffffffffffff\n  and\n  mul\n  or\n  swap1\n  sstore\n  pop\n  0x20\n  dup3\n  add\n  mload\n  dup2\n  0x01\n  add\n  sstore\n  pop\n  pop\n    /* \"subasta7.sol\":911:1160  constructor(uint _initialBid) {... */\n  pop\n    /* \"subasta7.sol\":349:4314  contract AuctionSergioM {... */\n  jump(tag_9)\n    /* \"#utility.yul\":88:205   */\ntag_11:\n    /* \"#utility.yul\":197:198   */\n  0x00\n    /* \"#utility.yul\":194:195   */\n  dup1\n    /* \"#utility.yul\":187:199   */\n  revert\n    /* \"#utility.yul\":334:411   */\ntag_13:\n    /* \"#utility.yul\":371:378   */\n  0x00\n    /* \"#utility.yul\":400:405   */\n  dup2\n    /* \"#utility.yul\":389:405   */\n  swap1\n  pop\n    /* \"#utility.yul\":334:411   */\n  swap2\n  swap1\n  pop\n  jump\t// out\n    /* \"#utility.yul\":417:539   */\ntag_14:\n    /* \"#utility.yul\":490:514   */\n  tag_23\n    /* \"#utility.yul\":508:513   */\n  dup2\n    /* \"#utility.yul\":490:514   */\n  tag_13\n  jump\t// in\ntag_23:\n    /* \"#utility.yul\":483:488   */\n  dup2\n    /* \"#utility.yul\":480:515   */\n  eq\n    /* \"#utility.yul\":470:533   */\n  tag_24\n  jumpi\n    /* \"#utility.yul\":529:530   */\n  0x00\n    /* \"#utility.yul\":526:527   */\n  dup1\n    /* \"#utility.yul\":519:531   */\n  revert\n    /* \"#utility.yul\":470:533   */\ntag_24:\n    /* \"#utility.yul\":417:539   */\n  pop\n  jump\t// out\n    /* \"#utility.yul\":545:688   */\ntag_15:\n    /* \"#utility.yul\":602:607   */\n  0x00\n    /* \"#utility.yul\":633:639   */\n  dup2\n    /* \"#utility.yul\":627:640   */\n  mload\n    /* \"#utility.yul\":618:640   */\n  swap1\n  pop\n    /* \"#utility.yul\":649:682   */\n  tag_26\n    /* \"#utility.yul\":676:681   */\n  dup2\n    /* \"#utility.yul\":649:682   */\n  tag_14\n  jump\t// in\ntag_26:\n    /* \"#utility.yul\":545:688   */\n  swap3\n  swap2\n  pop\n  pop\n  jump\t// out\n    /* \"#utility.yul\":694:1045   */\ntag_3:\n    /* \"#utility.yul\":764:770   */\n  0x00\n    /* \"#utility.yul\":813:815   */\n  0x20\n    /* \"#utility.yul\":801:810   */\n  dup3\n    /* \"#utility.yul\":792:799   */\n  dup5\n    /* \"#utility.yul\":788:811   */\n  sub\n    /* \"#utility.yul\":784:816   */\n  slt\n    /* \"#utility.yul\":781:900   */\n  iszero\n  tag_28\n  jumpi\n    /* \"#utility.yul\":819:898   */\n  tag_29\n  tag_11\n  jump\t// in\ntag_29:\n    /* \"#utility.yul\":781:900   */\ntag_28:\n    /* \"#utility.yul\":939:940   */\n  0x00\n    /* \"#utility.yul\":964:1028   */\n  tag_30\n    /* \"#utility.yul\":1020:1027   */\n  dup5\n    /* \"#utility.yul\":1011:1017   */\n  dup3\n    /* \"#utility.yul\":1000:1009   */\n  dup6\n    /* \"#utility.yul\":996:1018   */\n  add\n    /* \"#utility.yul\":964:1028   */\n  tag_15\n  jump\t// in\ntag_30:\n    /* \"#utility.yul\":954:1028   */\n  swap2\n  pop\n    /* \"#utility.yul\":910:1038   */\n  pop\n    /* \"#utility.yul\":694:1045   */\n  swap3\n  swap2\n  pop\n  pop\n  jump\t// out\n    /* \"#utility.yul\":1051:1231   */\ntag_16:\n    /* \"#utility.yul\":1099:1176   */\n  0x4e487b7100000000000000000000000000000000000000000000000000000000\n    /* \"#utility.yul\":1096:1097   */\n  0x00\n    /* \"#utility.yul\":1089:1177   */\n  mstore\n    /* \"#utility.yul\":1196:1200   */\n  0x11\n    /* \"#utility.yul\":1193:1194   */\n  0x04\n    /* \"#utility.yul\":1186:1201   */\n  mstore\n    /* \"#utility.yul\":1220:1224   */\n  0x24\n    /* \"#utility.yul\":1217:1218   */\n  0x00\n    /* \"#utility.yul\":1210:1225   */\n  revert\n    /* \"#utility.yul\":1237:1428   */\ntag_7:\n    /* \"#utility.yul\":1277:1280   */\n  0x00\n    /* \"#utility.yul\":1296:1316   */\n  tag_33\n    /* \"#utility.yul\":1314:1315   */\n  dup3\n    /* \"#utility.yul\":1296:1316   */\n  tag_13\n  jump\t// in\ntag_33:\n    /* \"#utility.yul\":1291:1316   */\n  swap2\n  pop\n    /* \"#utility.yul\":1330:1350   */\n  tag_34\n    /* \"#utility.yul\":1348:1349   */\n  dup4\n    /* \"#utility.yul\":1330:1350   */\n  tag_13\n  jump\t// in\ntag_34:\n    /* \"#utility.yul\":1325:1350   */\n  swap3\n  pop\n    /* \"#utility.yul\":1373:1374   */\n  dup3\n    /* \"#utility.yul\":1370:1371   */\n  dup3\n    /* \"#utility.yul\":1366:1375   */\n  add\n    /* \"#utility.yul\":1359:1375   */\n  swap1\n  pop\n    /* \"#utility.yul\":1394:1397   */\n  dup1\n    /* \"#utility.yul\":1391:1392   */\n  dup3\n    /* \"#utility.yul\":1388:1398   */\n  gt\n    /* \"#utility.yul\":1385:1421   */\n  iszero\n  tag_35\n  jumpi\n    /* \"#utility.yul\":1401:1419   */\n  tag_36\n  tag_16\n  jump\t// in\ntag_36:\n    /* \"#utility.yul\":1385:1421   */\ntag_35:\n    /* \"#utility.yul\":1237:1428   */\n  swap3\n  swap2\n  pop\n  pop\n  jump\t// out\n    /* \"subasta7.sol\":349:4314  contract AuctionSergioM {... */\ntag_9:\n  dataSize(sub_0)\n  dup1\n  dataOffset(sub_0)\n  0x00\n  codecopy\n  0x00\n  return\nstop\n\nsub_0: assembly {\n        /* \"subasta7.sol\":349:4314  contract AuctionSergioM {... */\n      mstore(0x40, 0x80)\n      jumpi(tag_1, lt(calldatasize, 0x04))\n      shr(0xe0, calldataload(0x00))\n      dup1\n      0x7e12a251\n      gt\n      tag_15\n      jumpi\n      dup1\n      0xd3a86386\n      gt\n      tag_16\n      jumpi\n      dup1\n      0xd3a86386\n      eq\n      tag_11\n      jumpi\n      dup1\n      0xecde973d\n      eq\n      tag_12\n      jumpi\n      dup1\n      0xf90ca117\n      eq\n      tag_13\n      jumpi\n      dup1\n      0xfe67a54b\n      eq\n      tag_14\n      jumpi\n      jump(tag_1)\n    tag_16:\n      dup1\n      0x7e12a251\n      eq\n      tag_8\n      jumpi\n      dup1\n      0x92228006\n      eq\n      tag_9\n      jumpi\n      dup1\n      0xc2e8c498\n      eq\n      tag_10\n      jumpi\n      jump(tag_1)\n    tag_15:\n      dup1\n      0x110b093a\n      eq\n      tag_2\n      jumpi\n      dup1\n      0x14d2687c\n      eq\n      tag_3\n      jumpi\n      dup1\n      0x1998aeef\n      eq\n      tag_4\n      jumpi\n      dup1\n      0x3197cbb6\n      eq\n      tag_5\n      jumpi\n      dup1\n      0x5ec2c7bf\n      eq\n      tag_6\n      jumpi\n      dup1\n      0x6773fd77\n      eq\n      tag_7\n      jumpi\n    tag_1:\n      0x00\n      dup1\n      revert\n        /* \"subasta7.sol\":640:680  uint8 public constant GAS_COMMISSION = 2 */\n    tag_2:\n      callvalue\n      dup1\n      iszero\n      tag_17\n      jumpi\n      0x00\n      dup1\n      revert\n    tag_17:\n      pop\n      tag_18\n      tag_19\n      jump\t// in\n    tag_18:\n      mload(0x40)\n      tag_20\n      swap2\n      swap1\n      tag_21\n      jump\t// in\n    tag_20:\n      mload(0x40)\n      dup1\n      swap2\n      sub\n      swap1\n      return\n        /* \"subasta7.sol\":4071:4164  function showBids() external view returns (Bid[] memory) {... */\n    tag_3:\n      callvalue\n      dup1\n      iszero\n      tag_22\n      jumpi\n      0x00\n      dup1\n      revert\n    tag_22:\n      pop\n      tag_23\n      tag_24\n      jump\t// in\n    tag_23:\n      mload(0x40)\n      tag_25\n      swap2\n      swap1\n      tag_26\n      jump\t// in\n    tag_25:\n      mload(0x40)\n      dup1\n      swap2\n      sub\n      swap1\n      return\n        /* \"subasta7.sol\":1477:2040  function bid() external payable onlyWhileActive {... */\n    tag_4:\n      tag_27\n      tag_28\n      jump\t// in\n    tag_27:\n      stop\n        /* \"subasta7.sol\":526:545  uint public endTime */\n    tag_5:\n      callvalue\n      dup1\n      iszero\n      tag_29\n      jumpi\n      0x00\n      dup1\n      revert\n    tag_29:\n      pop\n      tag_30\n      tag_31\n      jump\t// in\n    tag_30:\n      mload(0x40)\n      tag_32\n      swap2\n      swap1\n      tag_33\n      jump\t// in\n    tag_32:\n      mload(0x40)\n      dup1\n      swap2\n      sub\n      swap1\n      return\n        /* \"subasta7.sol\":494:519  address public auctioneer */\n    tag_6:\n      callvalue\n      dup1\n      iszero\n      tag_34\n      jumpi\n      0x00\n      dup1\n      revert\n    tag_34:\n      pop\n      tag_35\n      tag_36\n      jump\t// in\n    tag_35:\n      mload(0x40)\n      tag_37\n      swap2\n      swap1\n      tag_38\n      jump\t// in\n    tag_37:\n      mload(0x40)\n      dup1\n      swap2\n      sub\n      swap1\n      return\n        /* \"subasta7.sol\":2603:3528  function refundDeposits() external onlyAuctioneer {... */\n    tag_7:\n      callvalue\n      dup1\n      iszero\n      tag_39\n      jumpi\n      0x00\n      dup1\n      revert\n    tag_39:\n      pop\n      tag_40\n      tag_41\n      jump\t// in\n    tag_40:\n      stop\n        /* \"subasta7.sol\":4197:4311  function getMaxBid() public view returns (uint) {... */\n    tag_8:\n      callvalue\n      dup1\n      iszero\n      tag_42\n      jumpi\n      0x00\n      dup1\n      revert\n    tag_42:\n      pop\n      tag_43\n      tag_44\n      jump\t// in\n    tag_43:\n      mload(0x40)\n      tag_45\n      swap2\n      swap1\n      tag_33\n      jump\t// in\n    tag_45:\n      mload(0x40)\n      dup1\n      swap2\n      sub\n      swap1\n      return\n        /* \"subasta7.sol\":693:718  bool public auctionActive */\n    tag_9:\n      callvalue\n      dup1\n      iszero\n      tag_46\n      jumpi\n      0x00\n      dup1\n      revert\n    tag_46:\n      pop\n      tag_47\n      tag_48\n      jump\t// in\n    tag_47:\n      mload(0x40)\n      tag_49\n      swap2\n      swap1\n      tag_50\n      jump\t// in\n    tag_49:\n      mload(0x40)\n      dup1\n      swap2\n      sub\n      swap1\n      return\n        /* \"subasta7.sol\":552:604  uint32 public constant EXTENSION_PERIOD = 10 minutes */\n    tag_10:\n      callvalue\n      dup1\n      iszero\n      tag_51\n      jumpi\n      0x00\n      dup1\n      revert\n    tag_51:\n      pop\n      tag_52\n      tag_53\n      jump\t// in\n    tag_52:\n      mload(0x40)\n      tag_54\n      swap2\n      swap1\n      tag_55\n      jump\t// in\n    tag_54:\n      mload(0x40)\n      dup1\n      swap2\n      sub\n      swap1\n      return\n        /* \"subasta7.sol\":611:633  uint public minimumBid */\n    tag_11:\n      callvalue\n      dup1\n      iszero\n      tag_56\n      jumpi\n      0x00\n      dup1\n      revert\n    tag_56:\n      pop\n      tag_57\n      tag_58\n      jump\t// in\n    tag_57:\n      mload(0x40)\n      tag_59\n      swap2\n      swap1\n      tag_33\n      jump\t// in\n    tag_59:\n      mload(0x40)\n      dup1\n      swap2\n      sub\n      swap1\n      return\n        /* \"subasta7.sol\":725:748  Bid[] public bidHistory */\n    tag_12:\n      callvalue\n      dup1\n      iszero\n      tag_60\n      jumpi\n      0x00\n      dup1\n      revert\n    tag_60:\n      pop\n      tag_61\n      0x04\n      dup1\n      calldatasize\n      sub\n      dup2\n      add\n      swap1\n      tag_62\n      swap2\n      swap1\n      tag_63\n      jump\t// in\n    tag_62:\n      tag_64\n      jump\t// in\n    tag_61:\n      mload(0x40)\n      tag_65\n      swap3\n      swap2\n      swap1\n      tag_66\n      jump\t// in\n    tag_65:\n      mload(0x40)\n      dup1\n      swap2\n      sub\n      swap1\n      return\n        /* \"subasta7.sol\":3536:4063  function partialWithdraw() external onlyWhileActive {... */\n    tag_13:\n      callvalue\n      dup1\n      iszero\n      tag_67\n      jumpi\n      0x00\n      dup1\n      revert\n    tag_67:\n      pop\n      tag_68\n      tag_69\n      jump\t// in\n    tag_68:\n      stop\n        /* \"subasta7.sol\":2052:2595  function endAuction() external onlyAuctioneer {... */\n    tag_14:\n      callvalue\n      dup1\n      iszero\n      tag_70\n      jumpi\n      0x00\n      dup1\n      revert\n    tag_70:\n      pop\n      tag_71\n      tag_72\n      jump\t// in\n    tag_71:\n      stop\n        /* \"subasta7.sol\":640:680  uint8 public constant GAS_COMMISSION = 2 */\n    tag_19:\n        /* \"subasta7.sol\":679:680  2 */\n      0x02\n        /* \"subasta7.sol\":640:680  uint8 public constant GAS_COMMISSION = 2 */\n      dup2\n      jump\t// out\n        /* \"subasta7.sol\":4071:4164  function showBids() external view returns (Bid[] memory) {... */\n    tag_24:\n        /* \"subasta7.sol\":4114:4126  Bid[] memory */\n      0x60\n        /* \"subasta7.sol\":4146:4156  bidHistory */\n      0x04\n        /* \"subasta7.sol\":4139:4156  return bidHistory */\n      dup1\n      sload\n      dup1\n      0x20\n      mul\n      0x20\n      add\n      mload(0x40)\n      swap1\n      dup2\n      add\n      0x40\n      mstore\n      dup1\n      swap3\n      swap2\n      swap1\n      dup2\n      dup2\n      mstore\n      0x20\n      add\n      0x00\n      swap1\n    tag_74:\n      dup3\n      dup3\n      lt\n      iszero\n      tag_75\n      jumpi\n      dup4\n      dup3\n      swap1\n      0x00\n      mstore\n      keccak256(0x00, 0x20)\n      swap1\n      0x02\n      mul\n      add\n      mload(0x40)\n      dup1\n      0x40\n      add\n      0x40\n      mstore\n      swap1\n      dup2\n      0x00\n      dup3\n      add\n      0x00\n      swap1\n      sload\n      swap1\n      0x0100\n      exp\n      swap1\n      div\n      0xffffffffffffffffffffffffffffffffffffffff\n      and\n      0xffffffffffffffffffffffffffffffffffffffff\n      and\n      0xffffffffffffffffffffffffffffffffffffffff\n      and\n      dup2\n      mstore\n      0x20\n      add\n      0x01\n      dup3\n      add\n      sload\n      dup2\n      mstore\n      pop\n      pop\n      dup2\n      mstore\n      0x20\n      add\n      swap1\n      0x01\n      add\n      swap1\n      jump(tag_74)\n    tag_75:\n      pop\n      pop\n      pop\n      pop\n      swap1\n      pop\n        /* \"subasta7.sol\":4071:4164  function showBids() external view returns (Bid[] memory) {... */\n      swap1\n      jump\t// out\n        /* \"subasta7.sol\":1477:2040  function bid() external payable onlyWhileActive {... */\n    tag_28:\n        /* \"subasta7.sol\":1379:1392  auctionActive */\n      0x03\n      0x00\n      swap1\n      sload\n      swap1\n      0x0100\n      exp\n      swap1\n      div\n      0xff\n      and\n        /* \"subasta7.sol\":1371:1422  require(auctionActive, \"The auction is not active\") */\n      tag_78\n      jumpi\n      mload(0x40)\n      0x08c379a000000000000000000000000000000000000000000000000000000000\n      dup2\n      mstore\n      0x04\n      add\n      tag_79\n      swap1\n      tag_80\n      jump\t// in\n    tag_79:\n      mload(0x40)\n      dup1\n      swap2\n      sub\n      swap1\n      revert\n    tag_78:\n        /* \"subasta7.sol\":1579:1582  100 */\n      0x64\n        /* \"subasta7.sol\":1572:1575  105 */\n      0x69\n        /* \"subasta7.sol\":1558:1569  getMaxBid() */\n      tag_82\n        /* \"subasta7.sol\":1558:1567  getMaxBid */\n      tag_44\n        /* \"subasta7.sol\":1558:1569  getMaxBid() */\n      jump\t// in\n    tag_82:\n        /* \"subasta7.sol\":1558:1575  getMaxBid() * 105 */\n      tag_83\n      swap2\n      swap1\n      tag_84\n      jump\t// in\n    tag_83:\n        /* \"subasta7.sol\":1557:1582  (getMaxBid() * 105) / 100 */\n      tag_85\n      swap2\n      swap1\n      tag_86\n      jump\t// in\n    tag_85:\n        /* \"subasta7.sol\":1544:1553  msg.value */\n      callvalue\n        /* \"subasta7.sol\":1544:1582  msg.value >= (getMaxBid() * 105) / 100 */\n      lt\n      iszero\n        /* \"subasta7.sol\":1536:1642  require(msg.value >= (getMaxBid() * 105) / 100, \"The bid must be at least 5% higher than the current bid\") */\n      tag_87\n      jumpi\n      mload(0x40)\n      0x08c379a000000000000000000000000000000000000000000000000000000000\n      dup2\n      mstore\n      0x04\n      add\n      tag_88\n      swap1\n      tag_89\n      jump\t// in\n    tag_88:\n      mload(0x40)\n      dup1\n      swap2\n      sub\n      swap1\n      revert\n    tag_87:\n        /* \"subasta7.sol\":1679:1686  endTime */\n      sload(0x01)\n        /* \"subasta7.sol\":1661:1676  block.timestamp */\n      timestamp\n        /* \"subasta7.sol\":1661:1686  block.timestamp < endTime */\n      lt\n        /* \"subasta7.sol\":1653:1712  require(block.timestamp < endTime, \"The auction has ended\") */\n      tag_90\n      jumpi\n      mload(0x40)\n      0x08c379a000000000000000000000000000000000000000000000000000000000\n      dup2\n      mstore\n      0x04\n      add\n      tag_91\n      swap1\n      tag_92\n      jump\t// in\n    tag_91:\n      mload(0x40)\n      dup1\n      swap2\n      sub\n      swap1\n      revert\n    tag_90:\n        /* \"subasta7.sol\":594:604  10 minutes */\n      0x0258\n        /* \"subasta7.sol\":1831:1876  endTime - block.timestamp <= EXTENSION_PERIOD */\n      0xffffffff\n      and\n        /* \"subasta7.sol\":1841:1856  block.timestamp */\n      timestamp\n        /* \"subasta7.sol\":1831:1838  endTime */\n      sload(0x01)\n        /* \"subasta7.sol\":1831:1856  endTime - block.timestamp */\n      tag_93\n      swap2\n      swap1\n      tag_94\n      jump\t// in\n    tag_93:\n        /* \"subasta7.sol\":1831:1876  endTime - block.timestamp <= EXTENSION_PERIOD */\n      gt\n        /* \"subasta7.sol\":1827:1932  if (endTime - block.timestamp <= EXTENSION_PERIOD) {... */\n      tag_95\n      jumpi\n        /* \"subasta7.sol\":594:604  10 minutes */\n      0x0258\n        /* \"subasta7.sol\":1893:1920  endTime += EXTENSION_PERIOD */\n      0xffffffff\n      and\n        /* \"subasta7.sol\":1893:1900  endTime */\n      0x01\n      0x00\n        /* \"subasta7.sol\":1893:1920  endTime += EXTENSION_PERIOD */\n      dup3\n      dup3\n      sload\n      tag_96\n      swap2\n      swap1\n      tag_97\n      jump\t// in\n    tag_96:\n      swap3\n      pop\n      pop\n      dup2\n      swap1\n      sstore\n      pop\n        /* \"subasta7.sol\":1827:1932  if (endTime - block.timestamp <= EXTENSION_PERIOD) {... */\n    tag_95:\n        /* \"subasta7.sol\":1944:1954  bidHistory */\n      0x04\n        /* \"subasta7.sol\":1960:1986  Bid(msg.sender, msg.value) */\n      mload(0x40)\n      dup1\n      0x40\n      add\n      0x40\n      mstore\n      dup1\n        /* \"subasta7.sol\":1964:1974  msg.sender */\n      caller\n        /* \"subasta7.sol\":1960:1986  Bid(msg.sender, msg.value) */\n      0xffffffffffffffffffffffffffffffffffffffff\n      and\n      dup2\n      mstore\n      0x20\n      add\n        /* \"subasta7.sol\":1976:1985  msg.value */\n      callvalue\n        /* \"subasta7.sol\":1960:1986  Bid(msg.sender, msg.value) */\n      dup2\n      mstore\n      pop\n        /* \"subasta7.sol\":1944:1987  bidHistory.push(Bid(msg.sender, msg.value)) */\n      swap1\n      dup1\n      0x01\n      dup2\n      sload\n      add\n      dup1\n      dup3\n      sstore\n      dup1\n      swap2\n      pop\n      pop\n      0x01\n      swap1\n      sub\n      swap1\n      0x00\n      mstore\n      keccak256(0x00, 0x20)\n      swap1\n      0x02\n      mul\n      add\n      0x00\n      swap1\n      swap2\n      swap1\n      swap2\n      swap1\n      swap2\n      pop\n      0x00\n      dup3\n      add\n      mload\n      dup2\n      0x00\n      add\n      exp(0x0100, 0x00)\n      dup2\n      sload\n      dup2\n      0xffffffffffffffffffffffffffffffffffffffff\n      mul\n      not\n      and\n      swap1\n      dup4\n      0xffffffffffffffffffffffffffffffffffffffff\n      and\n      mul\n      or\n      swap1\n      sstore\n      pop\n      0x20\n      dup3\n      add\n      mload\n      dup2\n      0x01\n      add\n      sstore\n      pop\n      pop\n        /* \"subasta7.sol\":2010:2020  msg.sender */\n      caller\n        /* \"subasta7.sol\":2003:2032  NewBid(msg.sender, msg.value) */\n      0xffffffffffffffffffffffffffffffffffffffff\n      and\n      0xdd0b6c6a77960e2066c96171b4d7ac9e8b4c184011f38544afa36a5bb63ec59f\n        /* \"subasta7.sol\":2022:2031  msg.value */\n      callvalue\n        /* \"subasta7.sol\":2003:2032  NewBid(msg.sender, msg.value) */\n      mload(0x40)\n      tag_99\n      swap2\n      swap1\n      tag_33\n      jump\t// in\n    tag_99:\n      mload(0x40)\n      dup1\n      swap2\n      sub\n      swap1\n      log2\n        /* \"subasta7.sol\":1477:2040  function bid() external payable onlyWhileActive {... */\n      jump\t// out\n        /* \"subasta7.sol\":526:545  uint public endTime */\n    tag_31:\n      sload(0x01)\n      dup2\n      jump\t// out\n        /* \"subasta7.sol\":494:519  address public auctioneer */\n    tag_36:\n      0x00\n      dup1\n      sload\n      swap1\n      0x0100\n      exp\n      swap1\n      div\n      0xffffffffffffffffffffffffffffffffffffffff\n      and\n      dup2\n      jump\t// out\n        /* \"subasta7.sol\":2603:3528  function refundDeposits() external onlyAuctioneer {... */\n    tag_41:\n        /* \"subasta7.sol\":1245:1255  auctioneer */\n      0x00\n      dup1\n      sload\n      swap1\n      0x0100\n      exp\n      swap1\n      div\n      0xffffffffffffffffffffffffffffffffffffffff\n      and\n        /* \"subasta7.sol\":1231:1255  msg.sender == auctioneer */\n      0xffffffffffffffffffffffffffffffffffffffff\n      and\n        /* \"subasta7.sol\":1231:1241  msg.sender */\n      caller\n        /* \"subasta7.sol\":1231:1255  msg.sender == auctioneer */\n      0xffffffffffffffffffffffffffffffffffffffff\n      and\n      eq\n        /* \"subasta7.sol\":1223:1305  require(msg.sender == auctioneer, \"Only the auctioneer can execute this function\") */\n      tag_101\n      jumpi\n      mload(0x40)\n      0x08c379a000000000000000000000000000000000000000000000000000000000\n      dup2\n      mstore\n      0x04\n      add\n      tag_102\n      swap1\n      tag_103\n      jump\t// in\n    tag_102:\n      mload(0x40)\n      dup1\n      swap2\n      sub\n      swap1\n      revert\n    tag_101:\n        /* \"subasta7.sol\":2673:2686  auctionActive */\n      0x03\n      0x00\n      swap1\n      sload\n      swap1\n      0x0100\n      exp\n      swap1\n      div\n      0xff\n      and\n        /* \"subasta7.sol\":2672:2686  !auctionActive */\n      iszero\n        /* \"subasta7.sol\":2664:2718  require(!auctionActive, \"The auction is still active\") */\n      tag_105\n      jumpi\n      mload(0x40)\n      0x08c379a000000000000000000000000000000000000000000000000000000000\n      dup2\n      mstore\n      0x04\n      add\n      tag_106\n      swap1\n      tag_107\n      jump\t// in\n    tag_106:\n      mload(0x40)\n      dup1\n      swap2\n      sub\n      swap1\n      revert\n    tag_105:\n        /* \"subasta7.sol\":2731:2750  uint historialArray */\n      0x00\n        /* \"subasta7.sol\":2753:2763  bidHistory */\n      0x04\n        /* \"subasta7.sol\":2753:2770  bidHistory.length */\n      dup1\n      sload\n      swap1\n      pop\n        /* \"subasta7.sol\":2731:2770  uint historialArray = bidHistory.length */\n      swap1\n      pop\n        /* \"subasta7.sol\":2781:2795  address winner */\n      0x00\n        /* \"subasta7.sol\":2798:2808  bidHistory */\n      0x04\n        /* \"subasta7.sol\":2826:2827  1 */\n      0x01\n        /* \"subasta7.sol\":2809:2823  historialArray */\n      dup4\n        /* \"subasta7.sol\":2809:2827  historialArray - 1 */\n      tag_108\n      swap2\n      swap1\n      tag_94\n      jump\t// in\n    tag_108:\n        /* \"subasta7.sol\":2798:2828  bidHistory[historialArray - 1] */\n      dup2\n      sload\n      dup2\n      lt\n      tag_109\n      jumpi\n      tag_110\n      tag_111\n      jump\t// in\n    tag_110:\n    tag_109:\n      swap1\n      0x00\n      mstore\n      keccak256(0x00, 0x20)\n      swap1\n      0x02\n      mul\n      add\n        /* \"subasta7.sol\":2798:2835  bidHistory[historialArray - 1].bidder */\n      0x00\n      add\n      0x00\n      swap1\n      sload\n      swap1\n      0x0100\n      exp\n      swap1\n      div\n      0xffffffffffffffffffffffffffffffffffffffff\n      and\n        /* \"subasta7.sol\":2781:2835  address winner = bidHistory[historialArray - 1].bidder */\n      swap1\n      pop\n        /* \"subasta7.sol\":2853:2859  uint i */\n      0x00\n        /* \"subasta7.sol\":2862:2863  1 */\n      0x01\n        /* \"subasta7.sol\":2853:2863  uint i = 1 */\n      swap1\n      pop\n        /* \"subasta7.sol\":2848:3521  for (uint i = 1; i < historialArray - 1; i++) { // Excluding the last bid (winner)... */\n    tag_113:\n        /* \"subasta7.sol\":2886:2887  1 */\n      0x01\n        /* \"subasta7.sol\":2869:2883  historialArray */\n      dup4\n        /* \"subasta7.sol\":2869:2887  historialArray - 1 */\n      tag_116\n      swap2\n      swap1\n      tag_94\n      jump\t// in\n    tag_116:\n        /* \"subasta7.sol\":2865:2866  i */\n      dup2\n        /* \"subasta7.sol\":2865:2887  i < historialArray - 1 */\n      lt\n        /* \"subasta7.sol\":2848:3521  for (uint i = 1; i < historialArray - 1; i++) { // Excluding the last bid (winner)... */\n      iszero\n      tag_114\n      jumpi\n        /* \"subasta7.sol\":2944:2958  address bidder */\n      0x00\n        /* \"subasta7.sol\":2961:2971  bidHistory */\n      0x04\n        /* \"subasta7.sol\":2972:2973  i */\n      dup3\n        /* \"subasta7.sol\":2961:2974  bidHistory[i] */\n      dup2\n      sload\n      dup2\n      lt\n      tag_117\n      jumpi\n      tag_118\n      tag_111\n      jump\t// in\n    tag_118:\n    tag_117:\n      swap1\n      0x00\n      mstore\n      keccak256(0x00, 0x20)\n      swap1\n      0x02\n      mul\n      add\n        /* \"subasta7.sol\":2961:2981  bidHistory[i].bidder */\n      0x00\n      add\n      0x00\n      swap1\n      sload\n      swap1\n      0x0100\n      exp\n      swap1\n      div\n      0xffffffffffffffffffffffffffffffffffffffff\n      and\n        /* \"subasta7.sol\":2944:2981  address bidder = bidHistory[i].bidder */\n      swap1\n      pop\n        /* \"subasta7.sol\":2996:3007  uint amount */\n      0x00\n        /* \"subasta7.sol\":3010:3020  bidHistory */\n      0x04\n        /* \"subasta7.sol\":3021:3022  i */\n      dup4\n        /* \"subasta7.sol\":3010:3023  bidHistory[i] */\n      dup2\n      sload\n      dup2\n      lt\n      tag_120\n      jumpi\n      tag_121\n      tag_111\n      jump\t// in\n    tag_121:\n    tag_120:\n      swap1\n      0x00\n      mstore\n      keccak256(0x00, 0x20)\n      swap1\n      0x02\n      mul\n      add\n        /* \"subasta7.sol\":3010:3030  bidHistory[i].amount */\n      0x01\n      add\n      sload\n        /* \"subasta7.sol\":2996:3030  uint amount = bidHistory[i].amount */\n      swap1\n      pop\n        /* \"subasta7.sol\":3117:3123  winner */\n      dup4\n        /* \"subasta7.sol\":3107:3123  bidder == winner */\n      0xffffffffffffffffffffffffffffffffffffffff\n      and\n        /* \"subasta7.sol\":3107:3113  bidder */\n      dup3\n        /* \"subasta7.sol\":3107:3123  bidder == winner */\n      0xffffffffffffffffffffffffffffffffffffffff\n      and\n      sub\n        /* \"subasta7.sol\":3103:3168  if (bidder == winner) {... */\n      tag_123\n      jumpi\n        /* \"subasta7.sol\":3144:3152  continue */\n      pop\n      pop\n      jump(tag_115)\n        /* \"subasta7.sol\":3103:3168  if (bidder == winner) {... */\n    tag_123:\n        /* \"subasta7.sol\":3255:3274  uint amountToRefund */\n      0x00\n        /* \"subasta7.sol\":3313:3316  100 */\n      0x64\n        /* \"subasta7.sol\":679:680  2 */\n      0x02\n        /* \"subasta7.sol\":3288:3291  100 */\n      0x64\n        /* \"subasta7.sol\":3288:3308  100 - GAS_COMMISSION */\n      tag_124\n      swap2\n      swap1\n      tag_125\n      jump\t// in\n    tag_124:\n        /* \"subasta7.sol\":3278:3309  amount * (100 - GAS_COMMISSION) */\n      0xff\n      and\n        /* \"subasta7.sol\":3278:3284  amount */\n      dup4\n        /* \"subasta7.sol\":3278:3309  amount * (100 - GAS_COMMISSION) */\n      tag_126\n      swap2\n      swap1\n      tag_84\n      jump\t// in\n    tag_126:\n        /* \"subasta7.sol\":3277:3316  (amount * (100 - GAS_COMMISSION)) / 100 */\n      tag_127\n      swap2\n      swap1\n      tag_86\n      jump\t// in\n    tag_127:\n        /* \"subasta7.sol\":3255:3316  uint amountToRefund = (amount * (100 - GAS_COMMISSION)) / 100 */\n      swap1\n      pop\n        /* \"subasta7.sol\":3395:3407  bool success */\n      0x00\n        /* \"subasta7.sol\":3413:3419  bidder */\n      dup4\n        /* \"subasta7.sol\":3413:3424  bidder.call */\n      0xffffffffffffffffffffffffffffffffffffffff\n      and\n        /* \"subasta7.sol\":3432:3446  amountToRefund */\n      dup3\n        /* \"subasta7.sol\":3413:3451  bidder.call{value: amountToRefund}(\"\") */\n      mload(0x40)\n      tag_128\n      swap1\n      tag_129\n      jump\t// in\n    tag_128:\n      0x00\n      mload(0x40)\n      dup1\n      dup4\n      sub\n      dup2\n      dup6\n      dup8\n      gas\n      call\n      swap3\n      pop\n      pop\n      pop\n      returndatasize\n      dup1\n      0x00\n      dup2\n      eq\n      tag_132\n      jumpi\n      mload(0x40)\n      swap2\n      pop\n      and(add(returndatasize, 0x3f), not(0x1f))\n      dup3\n      add\n      0x40\n      mstore\n      returndatasize\n      dup3\n      mstore\n      returndatasize\n      0x00\n      0x20\n      dup5\n      add\n      returndatacopy\n      jump(tag_131)\n    tag_132:\n      0x60\n      swap2\n      pop\n    tag_131:\n      pop\n        /* \"subasta7.sol\":3394:3451  (bool success, ) = bidder.call{value: amountToRefund}(\"\") */\n      pop\n      swap1\n      pop\n        /* \"subasta7.sol\":3474:3481  success */\n      dup1\n        /* \"subasta7.sol\":3466:3509  require(success, \"Refund to bidder failed\") */\n      tag_133\n      jumpi\n      mload(0x40)\n      0x08c379a000000000000000000000000000000000000000000000000000000000\n      dup2\n      mstore\n      0x04\n      add\n      tag_134\n      swap1\n      tag_135\n      jump\t// in\n    tag_134:\n      mload(0x40)\n      dup1\n      swap2\n      sub\n      swap1\n      revert\n    tag_133:\n        /* \"subasta7.sol\":2894:3521  { // Excluding the last bid (winner)... */\n      pop\n      pop\n      pop\n      pop\n        /* \"subasta7.sol\":2848:3521  for (uint i = 1; i < historialArray - 1; i++) { // Excluding the last bid (winner)... */\n    tag_115:\n        /* \"subasta7.sol\":2889:2892  i++ */\n      dup1\n      dup1\n      0x01\n      add\n      swap2\n      pop\n      pop\n        /* \"subasta7.sol\":2848:3521  for (uint i = 1; i < historialArray - 1; i++) { // Excluding the last bid (winner)... */\n      jump(tag_113)\n    tag_114:\n      pop\n        /* \"subasta7.sol\":2653:3528  {... */\n      pop\n      pop\n        /* \"subasta7.sol\":2603:3528  function refundDeposits() external onlyAuctioneer {... */\n      jump\t// out\n        /* \"subasta7.sol\":4197:4311  function getMaxBid() public view returns (uint) {... */\n    tag_44:\n        /* \"subasta7.sol\":4239:4243  uint */\n      0x00\n        /* \"subasta7.sol\":4263:4273  bidHistory */\n      0x04\n        /* \"subasta7.sol\":4294:4295  1 */\n      0x01\n        /* \"subasta7.sol\":4274:4284  bidHistory */\n      0x04\n        /* \"subasta7.sol\":4274:4291  bidHistory.length */\n      dup1\n      sload\n      swap1\n      pop\n        /* \"subasta7.sol\":4274:4295  bidHistory.length - 1 */\n      tag_137\n      swap2\n      swap1\n      tag_94\n      jump\t// in\n    tag_137:\n        /* \"subasta7.sol\":4263:4296  bidHistory[bidHistory.length - 1] */\n      dup2\n      sload\n      dup2\n      lt\n      tag_138\n      jumpi\n      tag_139\n      tag_111\n      jump\t// in\n    tag_139:\n    tag_138:\n      swap1\n      0x00\n      mstore\n      keccak256(0x00, 0x20)\n      swap1\n      0x02\n      mul\n      add\n        /* \"subasta7.sol\":4263:4303  bidHistory[bidHistory.length - 1].amount */\n      0x01\n      add\n      sload\n        /* \"subasta7.sol\":4256:4303  return bidHistory[bidHistory.length - 1].amount */\n      swap1\n      pop\n        /* \"subasta7.sol\":4197:4311  function getMaxBid() public view returns (uint) {... */\n      swap1\n      jump\t// out\n        /* \"subasta7.sol\":693:718  bool public auctionActive */\n    tag_48:\n      0x03\n      0x00\n      swap1\n      sload\n      swap1\n      0x0100\n      exp\n      swap1\n      div\n      0xff\n      and\n      dup2\n      jump\t// out\n        /* \"subasta7.sol\":552:604  uint32 public constant EXTENSION_PERIOD = 10 minutes */\n    tag_53:\n        /* \"subasta7.sol\":594:604  10 minutes */\n      0x0258\n        /* \"subasta7.sol\":552:604  uint32 public constant EXTENSION_PERIOD = 10 minutes */\n      dup2\n      jump\t// out\n        /* \"subasta7.sol\":611:633  uint public minimumBid */\n    tag_58:\n      sload(0x02)\n      dup2\n      jump\t// out\n        /* \"subasta7.sol\":725:748  Bid[] public bidHistory */\n    tag_64:\n      0x04\n      dup2\n      dup2\n      sload\n      dup2\n      lt\n      tag_141\n      jumpi\n      0x00\n      dup1\n      revert\n    tag_141:\n      swap1\n      0x00\n      mstore\n      keccak256(0x00, 0x20)\n      swap1\n      0x02\n      mul\n      add\n      0x00\n      swap2\n      pop\n      swap1\n      pop\n      dup1\n      0x00\n      add\n      0x00\n      swap1\n      sload\n      swap1\n      0x0100\n      exp\n      swap1\n      div\n      0xffffffffffffffffffffffffffffffffffffffff\n      and\n      swap1\n      dup1\n      0x01\n      add\n      sload\n      swap1\n      pop\n      dup3\n      jump\t// out\n        /* \"subasta7.sol\":3536:4063  function partialWithdraw() external onlyWhileActive {... */\n    tag_69:\n        /* \"subasta7.sol\":1379:1392  auctionActive */\n      0x03\n      0x00\n      swap1\n      sload\n      swap1\n      0x0100\n      exp\n      swap1\n      div\n      0xff\n      and\n        /* \"subasta7.sol\":1371:1422  require(auctionActive, \"The auction is not active\") */\n      tag_144\n      jumpi\n      mload(0x40)\n      0x08c379a000000000000000000000000000000000000000000000000000000000\n      dup2\n      mstore\n      0x04\n      add\n      tag_145\n      swap1\n      tag_80\n      jump\t// in\n    tag_145:\n      mload(0x40)\n      dup1\n      swap2\n      sub\n      swap1\n      revert\n    tag_144:\n        /* \"subasta7.sol\":3599:3620  uint amountToWithdraw */\n      0x00\n        /* \"subasta7.sol\":3635:3654  uint historialArray */\n      dup1\n        /* \"subasta7.sol\":3657:3667  bidHistory */\n      0x04\n        /* \"subasta7.sol\":3657:3674  bidHistory.length */\n      dup1\n      sload\n      swap1\n      pop\n        /* \"subasta7.sol\":3635:3674  uint historialArray = bidHistory.length */\n      swap1\n      pop\n        /* \"subasta7.sol\":3692:3698  uint i */\n      0x00\n        /* \"subasta7.sol\":3687:3927  for (uint i = 0; i < historialArray - 1; i++) {... */\n    tag_147:\n        /* \"subasta7.sol\":3725:3726  1 */\n      0x01\n        /* \"subasta7.sol\":3708:3722  historialArray */\n      dup3\n        /* \"subasta7.sol\":3708:3726  historialArray - 1 */\n      tag_150\n      swap2\n      swap1\n      tag_94\n      jump\t// in\n    tag_150:\n        /* \"subasta7.sol\":3704:3705  i */\n      dup2\n        /* \"subasta7.sol\":3704:3726  i < historialArray - 1 */\n      lt\n        /* \"subasta7.sol\":3687:3927  for (uint i = 0; i < historialArray - 1; i++) {... */\n      iszero\n      tag_148\n      jumpi\n        /* \"subasta7.sol\":3776:3786  msg.sender */\n      caller\n        /* \"subasta7.sol\":3752:3786  bidHistory[i].bidder == msg.sender */\n      0xffffffffffffffffffffffffffffffffffffffff\n      and\n        /* \"subasta7.sol\":3752:3762  bidHistory */\n      0x04\n        /* \"subasta7.sol\":3763:3764  i */\n      dup3\n        /* \"subasta7.sol\":3752:3765  bidHistory[i] */\n      dup2\n      sload\n      dup2\n      lt\n      tag_151\n      jumpi\n      tag_152\n      tag_111\n      jump\t// in\n    tag_152:\n    tag_151:\n      swap1\n      0x00\n      mstore\n      keccak256(0x00, 0x20)\n      swap1\n      0x02\n      mul\n      add\n        /* \"subasta7.sol\":3752:3772  bidHistory[i].bidder */\n      0x00\n      add\n      0x00\n      swap1\n      sload\n      swap1\n      0x0100\n      exp\n      swap1\n      div\n      0xffffffffffffffffffffffffffffffffffffffff\n      and\n        /* \"subasta7.sol\":3752:3786  bidHistory[i].bidder == msg.sender */\n      0xffffffffffffffffffffffffffffffffffffffff\n      and\n      sub\n        /* \"subasta7.sol\":3748:3916  if (bidHistory[i].bidder == msg.sender) {... */\n      tag_154\n      jumpi\n        /* \"subasta7.sol\":3827:3837  bidHistory */\n      0x04\n        /* \"subasta7.sol\":3838:3839  i */\n      dup2\n        /* \"subasta7.sol\":3827:3840  bidHistory[i] */\n      dup2\n      sload\n      dup2\n      lt\n      tag_155\n      jumpi\n      tag_156\n      tag_111\n      jump\t// in\n    tag_156:\n    tag_155:\n      swap1\n      0x00\n      mstore\n      keccak256(0x00, 0x20)\n      swap1\n      0x02\n      mul\n      add\n        /* \"subasta7.sol\":3827:3847  bidHistory[i].amount */\n      0x01\n      add\n      sload\n        /* \"subasta7.sol\":3807:3847  amountToWithdraw += bidHistory[i].amount */\n      dup4\n      tag_158\n      swap2\n      swap1\n      tag_97\n      jump\t// in\n    tag_158:\n      swap3\n      pop\n        /* \"subasta7.sol\":3873:3883  bidHistory */\n      0x04\n        /* \"subasta7.sol\":3884:3885  i */\n      dup2\n        /* \"subasta7.sol\":3873:3886  bidHistory[i] */\n      dup2\n      sload\n      dup2\n      lt\n      tag_159\n      jumpi\n      tag_160\n      tag_111\n      jump\t// in\n    tag_160:\n    tag_159:\n      swap1\n      0x00\n      mstore\n      keccak256(0x00, 0x20)\n      swap1\n      0x02\n      mul\n      add\n      0x00\n        /* \"subasta7.sol\":3866:3886  delete bidHistory[i] */\n      dup1\n      dup3\n      add\n      exp(0x0100, 0x00)\n      dup2\n      sload\n      swap1\n      0xffffffffffffffffffffffffffffffffffffffff\n      mul\n      not\n      and\n      swap1\n      sstore\n      0x01\n      dup3\n      add\n      0x00\n      swap1\n      sstore\n      pop\n      pop\n        /* \"subasta7.sol\":3748:3916  if (bidHistory[i].bidder == msg.sender) {... */\n    tag_154:\n        /* \"subasta7.sol\":3728:3731  i++ */\n      dup1\n      dup1\n      0x01\n      add\n      swap2\n      pop\n      pop\n        /* \"subasta7.sol\":3687:3927  for (uint i = 0; i < historialArray - 1; i++) {... */\n      jump(tag_147)\n    tag_148:\n      pop\n        /* \"subasta7.sol\":3964:3965  0 */\n      0x00\n        /* \"subasta7.sol\":3945:3961  amountToWithdraw */\n      dup3\n        /* \"subasta7.sol\":3945:3965  amountToWithdraw > 0 */\n      gt\n        /* \"subasta7.sol\":3937:3998  require(amountToWithdraw > 0, \"There is nothing to withdraw\") */\n      tag_162\n      jumpi\n      mload(0x40)\n      0x08c379a000000000000000000000000000000000000000000000000000000000\n      dup2\n      mstore\n      0x04\n      add\n      tag_163\n      swap1\n      tag_164\n      jump\t// in\n    tag_163:\n      mload(0x40)\n      dup1\n      swap2\n      sub\n      swap1\n      revert\n    tag_162:\n        /* \"subasta7.sol\":4017:4027  msg.sender */\n      caller\n        /* \"subasta7.sol\":4009:4037  payable(msg.sender).transfer */\n      0xffffffffffffffffffffffffffffffffffffffff\n      and\n        /* \"subasta7.sol\":4009:4055  payable(msg.sender).transfer(amountToWithdraw) */\n      0x08fc\n        /* \"subasta7.sol\":4038:4054  amountToWithdraw */\n      dup4\n        /* \"subasta7.sol\":4009:4055  payable(msg.sender).transfer(amountToWithdraw) */\n      swap1\n      dup2\n      iszero\n      mul\n      swap1\n      mload(0x40)\n      0x00\n      mload(0x40)\n      dup1\n      dup4\n      sub\n      dup2\n      dup6\n      dup9\n      dup9\n      call\n      swap4\n      pop\n      pop\n      pop\n      pop\n      iszero\n      dup1\n      iszero\n      tag_166\n      jumpi\n      returndatasize\n      0x00\n      dup1\n      returndatacopy\n      revert(0x00, returndatasize)\n    tag_166:\n      pop\n        /* \"subasta7.sol\":3588:4063  {... */\n      pop\n      pop\n        /* \"subasta7.sol\":3536:4063  function partialWithdraw() external onlyWhileActive {... */\n      jump\t// out\n        /* \"subasta7.sol\":2052:2595  function endAuction() external onlyAuctioneer {... */\n    tag_72:\n        /* \"subasta7.sol\":1245:1255  auctioneer */\n      0x00\n      dup1\n      sload\n      swap1\n      0x0100\n      exp\n      swap1\n      div\n      0xffffffffffffffffffffffffffffffffffffffff\n      and\n        /* \"subasta7.sol\":1231:1255  msg.sender == auctioneer */\n      0xffffffffffffffffffffffffffffffffffffffff\n      and\n        /* \"subasta7.sol\":1231:1241  msg.sender */\n      caller\n        /* \"subasta7.sol\":1231:1255  msg.sender == auctioneer */\n      0xffffffffffffffffffffffffffffffffffffffff\n      and\n      eq\n        /* \"subasta7.sol\":1223:1305  require(msg.sender == auctioneer, \"Only the auctioneer can execute this function\") */\n      tag_168\n      jumpi\n      mload(0x40)\n      0x08c379a000000000000000000000000000000000000000000000000000000000\n      dup2\n      mstore\n      0x04\n      add\n      tag_169\n      swap1\n      tag_103\n      jump\t// in\n    tag_169:\n      mload(0x40)\n      dup1\n      swap2\n      sub\n      swap1\n      revert\n    tag_168:\n        /* \"subasta7.sol\":2136:2143  endTime */\n      sload(0x01)\n        /* \"subasta7.sol\":2117:2132  block.timestamp */\n      timestamp\n        /* \"subasta7.sol\":2117:2143  block.timestamp >= endTime */\n      lt\n      iszero\n        /* \"subasta7.sol\":2109:2173  require(block.timestamp >= endTime, \"The auction has not ended\") */\n      tag_171\n      jumpi\n      mload(0x40)\n      0x08c379a000000000000000000000000000000000000000000000000000000000\n      dup2\n      mstore\n      0x04\n      add\n      tag_172\n      swap1\n      tag_173\n      jump\t// in\n    tag_172:\n      mload(0x40)\n      dup1\n      swap2\n      sub\n      swap1\n      revert\n    tag_171:\n        /* \"subasta7.sol\":2202:2207  false */\n      0x00\n        /* \"subasta7.sol\":2186:2199  auctionActive */\n      0x03\n      0x00\n        /* \"subasta7.sol\":2186:2207  auctionActive = false */\n      0x0100\n      exp\n      dup2\n      sload\n      dup2\n      0xff\n      mul\n      not\n      and\n      swap1\n      dup4\n      iszero\n      iszero\n      mul\n      or\n      swap1\n      sstore\n      pop\n        /* \"subasta7.sol\":2218:2232  address winner */\n      0x00\n        /* \"subasta7.sol\":2235:2245  bidHistory */\n      0x04\n        /* \"subasta7.sol\":2266:2267  1 */\n      0x01\n        /* \"subasta7.sol\":2246:2256  bidHistory */\n      0x04\n        /* \"subasta7.sol\":2246:2263  bidHistory.length */\n      dup1\n      sload\n      swap1\n      pop\n        /* \"subasta7.sol\":2246:2267  bidHistory.length - 1 */\n      tag_174\n      swap2\n      swap1\n      tag_94\n      jump\t// in\n    tag_174:\n        /* \"subasta7.sol\":2235:2268  bidHistory[bidHistory.length - 1] */\n      dup2\n      sload\n      dup2\n      lt\n      tag_175\n      jumpi\n      tag_176\n      tag_111\n      jump\t// in\n    tag_176:\n    tag_175:\n      swap1\n      0x00\n      mstore\n      keccak256(0x00, 0x20)\n      swap1\n      0x02\n      mul\n      add\n        /* \"subasta7.sol\":2235:2275  bidHistory[bidHistory.length - 1].bidder */\n      0x00\n      add\n      0x00\n      swap1\n      sload\n      swap1\n      0x0100\n      exp\n      swap1\n      div\n      0xffffffffffffffffffffffffffffffffffffffff\n      and\n        /* \"subasta7.sol\":2218:2275  address winner = bidHistory[bidHistory.length - 1].bidder */\n      swap1\n      pop\n        /* \"subasta7.sol\":2286:2304  uint winningAmount */\n      0x00\n        /* \"subasta7.sol\":2307:2317  bidHistory */\n      0x04\n        /* \"subasta7.sol\":2338:2339  1 */\n      0x01\n        /* \"subasta7.sol\":2318:2328  bidHistory */\n      0x04\n        /* \"subasta7.sol\":2318:2335  bidHistory.length */\n      dup1\n      sload\n      swap1\n      pop\n        /* \"subasta7.sol\":2318:2339  bidHistory.length - 1 */\n      tag_178\n      swap2\n      swap1\n      tag_94\n      jump\t// in\n    tag_178:\n        /* \"subasta7.sol\":2307:2340  bidHistory[bidHistory.length - 1] */\n      dup2\n      sload\n      dup2\n      lt\n      tag_179\n      jumpi\n      tag_180\n      tag_111\n      jump\t// in\n    tag_180:\n    tag_179:\n      swap1\n      0x00\n      mstore\n      keccak256(0x00, 0x20)\n      swap1\n      0x02\n      mul\n      add\n        /* \"subasta7.sol\":2307:2347  bidHistory[bidHistory.length - 1].amount */\n      0x01\n      add\n      sload\n        /* \"subasta7.sol\":2286:2347  uint winningAmount = bidHistory[bidHistory.length - 1].amount */\n      swap1\n      pop\n        /* \"subasta7.sol\":2415:2427  bool success */\n      0x00\n        /* \"subasta7.sol\":2433:2443  auctioneer */\n      dup1\n      0x00\n      swap1\n      sload\n      swap1\n      0x0100\n      exp\n      swap1\n      div\n      0xffffffffffffffffffffffffffffffffffffffff\n      and\n        /* \"subasta7.sol\":2433:2448  auctioneer.call */\n      0xffffffffffffffffffffffffffffffffffffffff\n      and\n        /* \"subasta7.sol\":2456:2469  winningAmount */\n      dup3\n        /* \"subasta7.sol\":2433:2474  auctioneer.call{value: winningAmount}(\"\") */\n      mload(0x40)\n      tag_182\n      swap1\n      tag_129\n      jump\t// in\n    tag_182:\n      0x00\n      mload(0x40)\n      dup1\n      dup4\n      sub\n      dup2\n      dup6\n      dup8\n      gas\n      call\n      swap3\n      pop\n      pop\n      pop\n      returndatasize\n      dup1\n      0x00\n      dup2\n      eq\n      tag_185\n      jumpi\n      mload(0x40)\n      swap2\n      pop\n      and(add(returndatasize, 0x3f), not(0x1f))\n      dup3\n      add\n      0x40\n      mstore\n      returndatasize\n      dup3\n      mstore\n      returndatasize\n      0x00\n      0x20\n      dup5\n      add\n      returndatacopy\n      jump(tag_184)\n    tag_185:\n      0x60\n      swap2\n      pop\n    tag_184:\n      pop\n        /* \"subasta7.sol\":2414:2474  (bool success, ) = auctioneer.call{value: winningAmount}(\"\") */\n      pop\n      swap1\n      pop\n        /* \"subasta7.sol\":2493:2500  success */\n      dup1\n        /* \"subasta7.sol\":2485:2534  require(success, \"Transfer to auctioneer failed\") */\n      tag_186\n      jumpi\n      mload(0x40)\n      0x08c379a000000000000000000000000000000000000000000000000000000000\n      dup2\n      mstore\n      0x04\n      add\n      tag_187\n      swap1\n      tag_188\n      jump\t// in\n    tag_187:\n      mload(0x40)\n      dup1\n      swap2\n      sub\n      swap1\n      revert\n    tag_186:\n        /* \"subasta7.sol\":2552:2587  AuctionEnded(winner, winningAmount) */\n      0xdaec4582d5d9595688c8c98545fdd1c696d41c6aeaeb636737e84ed2f5c00eda\n        /* \"subasta7.sol\":2565:2571  winner */\n      dup4\n        /* \"subasta7.sol\":2573:2586  winningAmount */\n      dup4\n        /* \"subasta7.sol\":2552:2587  AuctionEnded(winner, winningAmount) */\n      mload(0x40)\n      tag_189\n      swap3\n      swap2\n      swap1\n      tag_66\n      jump\t// in\n    tag_189:\n      mload(0x40)\n      dup1\n      swap2\n      sub\n      swap1\n      log1\n        /* \"subasta7.sol\":2098:2595  {... */\n      pop\n      pop\n      pop\n        /* \"subasta7.sol\":2052:2595  function endAuction() external onlyAuctioneer {... */\n      jump\t// out\n        /* \"#utility.yul\":7:93   */\n    tag_190:\n        /* \"#utility.yul\":42:49   */\n      0x00\n        /* \"#utility.yul\":82:86   */\n      0xff\n        /* \"#utility.yul\":75:80   */\n      dup3\n        /* \"#utility.yul\":71:87   */\n      and\n        /* \"#utility.yul\":60:87   */\n      swap1\n      pop\n        /* \"#utility.yul\":7:93   */\n      swap2\n      swap1\n      pop\n      jump\t// out\n        /* \"#utility.yul\":99:211   */\n    tag_191:\n        /* \"#utility.yul\":182:204   */\n      tag_242\n        /* \"#utility.yul\":198:203   */\n      dup2\n        /* \"#utility.yul\":182:204   */\n      tag_190\n      jump\t// in\n    tag_242:\n        /* \"#utility.yul\":177:180   */\n      dup3\n        /* \"#utility.yul\":170:205   */\n      mstore\n        /* \"#utility.yul\":99:211   */\n      pop\n      pop\n      jump\t// out\n        /* \"#utility.yul\":217:431   */\n    tag_21:\n        /* \"#utility.yul\":306:310   */\n      0x00\n        /* \"#utility.yul\":344:346   */\n      0x20\n        /* \"#utility.yul\":333:342   */\n      dup3\n        /* \"#utility.yul\":329:347   */\n      add\n        /* \"#utility.yul\":321:347   */\n      swap1\n      pop\n        /* \"#utility.yul\":357:424   */\n      tag_244\n        /* \"#utility.yul\":421:422   */\n      0x00\n        /* \"#utility.yul\":410:419   */\n      dup4\n        /* \"#utility.yul\":406:423   */\n      add\n        /* \"#utility.yul\":397:403   */\n      dup5\n        /* \"#utility.yul\":357:424   */\n      tag_191\n      jump\t// in\n    tag_244:\n        /* \"#utility.yul\":217:431   */\n      swap3\n      swap2\n      pop\n      pop\n      jump\t// out\n        /* \"#utility.yul\":437:569   */\n    tag_192:\n        /* \"#utility.yul\":522:528   */\n      0x00\n        /* \"#utility.yul\":556:561   */\n      dup2\n        /* \"#utility.yul\":550:562   */\n      mload\n        /* \"#utility.yul\":540:562   */\n      swap1\n      pop\n        /* \"#utility.yul\":437:569   */\n      swap2\n      swap1\n      pop\n      jump\t// out\n        /* \"#utility.yul\":575:777   */\n    tag_193:\n        /* \"#utility.yul\":692:703   */\n      0x00\n        /* \"#utility.yul\":726:732   */\n      dup3\n        /* \"#utility.yul\":721:724   */\n      dup3\n        /* \"#utility.yul\":714:733   */\n      mstore\n        /* \"#utility.yul\":766:770   */\n      0x20\n        /* \"#utility.yul\":761:764   */\n      dup3\n        /* \"#utility.yul\":757:771   */\n      add\n        /* \"#utility.yul\":742:771   */\n      swap1\n      pop\n        /* \"#utility.yul\":575:777   */\n      swap3\n      swap2\n      pop\n      pop\n      jump\t// out\n        /* \"#utility.yul\":783:933   */\n    tag_194:\n        /* \"#utility.yul\":868:872   */\n      0x00\n        /* \"#utility.yul\":891:894   */\n      dup2\n        /* \"#utility.yul\":883:894   */\n      swap1\n      pop\n        /* \"#utility.yul\":921:925   */\n      0x20\n        /* \"#utility.yul\":916:919   */\n      dup3\n        /* \"#utility.yul\":912:926   */\n      add\n        /* \"#utility.yul\":904:926   */\n      swap1\n      pop\n        /* \"#utility.yul\":783:933   */\n      swap2\n      swap1\n      pop\n      jump\t// out\n        /* \"#utility.yul\":939:1065   */\n    tag_195:\n        /* \"#utility.yul\":976:983   */\n      0x00\n        /* \"#utility.yul\":1016:1058   */\n      0xffffffffffffffffffffffffffffffffffffffff\n        /* \"#utility.yul\":1009:1014   */\n      dup3\n        /* \"#utility.yul\":1005:1059   */\n      and\n        /* \"#utility.yul\":994:1059   */\n      swap1\n      pop\n        /* \"#utility.yul\":939:1065   */\n      swap2\n      swap1\n      pop\n      jump\t// out\n        /* \"#utility.yul\":1071:1167   */\n    tag_196:\n        /* \"#utility.yul\":1108:1115   */\n      0x00\n        /* \"#utility.yul\":1137:1161   */\n      tag_250\n        /* \"#utility.yul\":1155:1160   */\n      dup3\n        /* \"#utility.yul\":1137:1161   */\n      tag_195\n      jump\t// in\n    tag_250:\n        /* \"#utility.yul\":1126:1161   */\n      swap1\n      pop\n        /* \"#utility.yul\":1071:1167   */\n      swap2\n      swap1\n      pop\n      jump\t// out\n        /* \"#utility.yul\":1173:1281   */\n    tag_197:\n        /* \"#utility.yul\":1250:1274   */\n      tag_252\n        /* \"#utility.yul\":1268:1273   */\n      dup2\n        /* \"#utility.yul\":1250:1274   */\n      tag_196\n      jump\t// in\n    tag_252:\n        /* \"#utility.yul\":1245:1248   */\n      dup3\n        /* \"#utility.yul\":1238:1275   */\n      mstore\n        /* \"#utility.yul\":1173:1281   */\n      pop\n      pop\n      jump\t// out\n        /* \"#utility.yul\":1287:1364   */\n    tag_198:\n        /* \"#utility.yul\":1324:1331   */\n      0x00\n        /* \"#utility.yul\":1353:1358   */\n      dup2\n        /* \"#utility.yul\":1342:1358   */\n      swap1\n      pop\n        /* \"#utility.yul\":1287:1364   */\n      swap2\n      swap1\n      pop\n      jump\t// out\n        /* \"#utility.yul\":1370:1478   */\n    tag_199:\n        /* \"#utility.yul\":1447:1471   */\n      tag_255\n        /* \"#utility.yul\":1465:1470   */\n      dup2\n        /* \"#utility.yul\":1447:1471   */\n      tag_198\n      jump\t// in\n    tag_255:\n        /* \"#utility.yul\":1442:1445   */\n      dup3\n        /* \"#utility.yul\":1435:1472   */\n      mstore\n        /* \"#utility.yul\":1370:1478   */\n      pop\n      pop\n      jump\t// out\n        /* \"#utility.yul\":1546:2033   */\n    tag_200:\n        /* \"#utility.yul\":1669:1673   */\n      0x40\n        /* \"#utility.yul\":1664:1667   */\n      dup3\n        /* \"#utility.yul\":1660:1674   */\n      add\n        /* \"#utility.yul\":1758:1762   */\n      0x00\n        /* \"#utility.yul\":1751:1756   */\n      dup3\n        /* \"#utility.yul\":1747:1763   */\n      add\n        /* \"#utility.yul\":1741:1764   */\n      mload\n        /* \"#utility.yul\":1777:1840   */\n      tag_257\n        /* \"#utility.yul\":1834:1838   */\n      0x00\n        /* \"#utility.yul\":1829:1832   */\n      dup6\n        /* \"#utility.yul\":1825:1839   */\n      add\n        /* \"#utility.yul\":1811:1823   */\n      dup3\n        /* \"#utility.yul\":1777:1840   */\n      tag_197\n      jump\t// in\n    tag_257:\n        /* \"#utility.yul\":1684:1850   */\n      pop\n        /* \"#utility.yul\":1934:1938   */\n      0x20\n        /* \"#utility.yul\":1927:1932   */\n      dup3\n        /* \"#utility.yul\":1923:1939   */\n      add\n        /* \"#utility.yul\":1917:1940   */\n      mload\n        /* \"#utility.yul\":1953:2016   */\n      tag_258\n        /* \"#utility.yul\":2010:2014   */\n      0x20\n        /* \"#utility.yul\":2005:2008   */\n      dup6\n        /* \"#utility.yul\":2001:2015   */\n      add\n        /* \"#utility.yul\":1987:1999   */\n      dup3\n        /* \"#utility.yul\":1953:2016   */\n      tag_199\n      jump\t// in\n    tag_258:\n        /* \"#utility.yul\":1860:2026   */\n      pop\n        /* \"#utility.yul\":1638:2033   */\n      pop\n        /* \"#utility.yul\":1546:2033   */\n      pop\n      pop\n      jump\t// out\n        /* \"#utility.yul\":2039:2290   */\n    tag_201:\n        /* \"#utility.yul\":2144:2154   */\n      0x00\n        /* \"#utility.yul\":2165:2247   */\n      tag_260\n        /* \"#utility.yul\":2243:2246   */\n      dup4\n        /* \"#utility.yul\":2235:2241   */\n      dup4\n        /* \"#utility.yul\":2165:2247   */\n      tag_200\n      jump\t// in\n    tag_260:\n        /* \"#utility.yul\":2279:2283   */\n      0x40\n        /* \"#utility.yul\":2274:2277   */\n      dup4\n        /* \"#utility.yul\":2270:2284   */\n      add\n        /* \"#utility.yul\":2256:2284   */\n      swap1\n      pop\n        /* \"#utility.yul\":2039:2290   */\n      swap3\n      swap2\n      pop\n      pop\n      jump\t// out\n        /* \"#utility.yul\":2296:2427   */\n    tag_202:\n        /* \"#utility.yul\":2384:2388   */\n      0x00\n        /* \"#utility.yul\":2416:2420   */\n      0x20\n        /* \"#utility.yul\":2411:2414   */\n      dup3\n        /* \"#utility.yul\":2407:2421   */\n      add\n        /* \"#utility.yul\":2399:2421   */\n      swap1\n      pop\n        /* \"#utility.yul\":2296:2427   */\n      swap2\n      swap1\n      pop\n      jump\t// out\n        /* \"#utility.yul\":2499:3375   */\n    tag_203:\n        /* \"#utility.yul\":2654:2657   */\n      0x00\n        /* \"#utility.yul\":2683:2755   */\n      tag_263\n        /* \"#utility.yul\":2749:2754   */\n      dup3\n        /* \"#utility.yul\":2683:2755   */\n      tag_192\n      jump\t// in\n    tag_263:\n        /* \"#utility.yul\":2771:2875   */\n      tag_264\n        /* \"#utility.yul\":2868:2874   */\n      dup2\n        /* \"#utility.yul\":2863:2866   */\n      dup6\n        /* \"#utility.yul\":2771:2875   */\n      tag_193\n      jump\t// in\n    tag_264:\n        /* \"#utility.yul\":2764:2875   */\n      swap4\n      pop\n        /* \"#utility.yul\":2899:2973   */\n      tag_265\n        /* \"#utility.yul\":2967:2972   */\n      dup4\n        /* \"#utility.yul\":2899:2973   */\n      tag_194\n      jump\t// in\n    tag_265:\n        /* \"#utility.yul\":2996:3003   */\n      dup1\n        /* \"#utility.yul\":3027:3028   */\n      0x00\n        /* \"#utility.yul\":3012:3350   */\n    tag_266:\n        /* \"#utility.yul\":3037:3043   */\n      dup4\n        /* \"#utility.yul\":3034:3035   */\n      dup2\n        /* \"#utility.yul\":3031:3044   */\n      lt\n        /* \"#utility.yul\":3012:3350   */\n      iszero\n      tag_268\n      jumpi\n        /* \"#utility.yul\":3113:3119   */\n      dup2\n        /* \"#utility.yul\":3107:3120   */\n      mload\n        /* \"#utility.yul\":3140:3239   */\n      tag_269\n        /* \"#utility.yul\":3235:3238   */\n      dup9\n        /* \"#utility.yul\":3220:3233   */\n      dup3\n        /* \"#utility.yul\":3140:3239   */\n      tag_201\n      jump\t// in\n    tag_269:\n        /* \"#utility.yul\":3133:3239   */\n      swap8\n      pop\n        /* \"#utility.yul\":3262:3340   */\n      tag_270\n        /* \"#utility.yul\":3333:3339   */\n      dup4\n        /* \"#utility.yul\":3262:3340   */\n      tag_202\n      jump\t// in\n    tag_270:\n        /* \"#utility.yul\":3252:3340   */\n      swap3\n      pop\n        /* \"#utility.yul\":3072:3350   */\n      pop\n        /* \"#utility.yul\":3059:3060   */\n      0x01\n        /* \"#utility.yul\":3056:3057   */\n      dup2\n        /* \"#utility.yul\":3052:3061   */\n      add\n        /* \"#utility.yul\":3047:3061   */\n      swap1\n      pop\n        /* \"#utility.yul\":3012:3350   */\n      jump(tag_266)\n    tag_268:\n        /* \"#utility.yul\":3016:3030   */\n      pop\n        /* \"#utility.yul\":3366:3369   */\n      dup6\n        /* \"#utility.yul\":3359:3369   */\n      swap4\n      pop\n        /* \"#utility.yul\":2659:3375   */\n      pop\n      pop\n      pop\n        /* \"#utility.yul\":2499:3375   */\n      swap3\n      swap2\n      pop\n      pop\n      jump\t// out\n        /* \"#utility.yul\":3381:3826   */\n    tag_26:\n        /* \"#utility.yul\":3560:3564   */\n      0x00\n        /* \"#utility.yul\":3598:3600   */\n      0x20\n        /* \"#utility.yul\":3587:3596   */\n      dup3\n        /* \"#utility.yul\":3583:3601   */\n      add\n        /* \"#utility.yul\":3575:3601   */\n      swap1\n      pop\n        /* \"#utility.yul\":3647:3656   */\n      dup2\n        /* \"#utility.yul\":3641:3645   */\n      dup2\n        /* \"#utility.yul\":3637:3657   */\n      sub\n        /* \"#utility.yul\":3633:3634   */\n      0x00\n        /* \"#utility.yul\":3622:3631   */\n      dup4\n        /* \"#utility.yul\":3618:3635   */\n      add\n        /* \"#utility.yul\":3611:3658   */\n      mstore\n        /* \"#utility.yul\":3675:3819   */\n      tag_272\n        /* \"#utility.yul\":3814:3818   */\n      dup2\n        /* \"#utility.yul\":3805:3811   */\n      dup5\n        /* \"#utility.yul\":3675:3819   */\n      tag_203\n      jump\t// in\n    tag_272:\n        /* \"#utility.yul\":3667:3819   */\n      swap1\n      pop\n        /* \"#utility.yul\":3381:3826   */\n      swap3\n      swap2\n      pop\n      pop\n      jump\t// out\n        /* \"#utility.yul\":3832:3950   */\n    tag_204:\n        /* \"#utility.yul\":3919:3943   */\n      tag_274\n        /* \"#utility.yul\":3937:3942   */\n      dup2\n        /* \"#utility.yul\":3919:3943   */\n      tag_198\n      jump\t// in\n    tag_274:\n        /* \"#utility.yul\":3914:3917   */\n      dup3\n        /* \"#utility.yul\":3907:3944   */\n      mstore\n        /* \"#utility.yul\":3832:3950   */\n      pop\n      pop\n      jump\t// out\n        /* \"#utility.yul\":3956:4178   */\n    tag_33:\n        /* \"#utility.yul\":4049:4053   */\n      0x00\n        /* \"#utility.yul\":4087:4089   */\n      0x20\n        /* \"#utility.yul\":4076:4085   */\n      dup3\n        /* \"#utility.yul\":4072:4090   */\n      add\n        /* \"#utility.yul\":4064:4090   */\n      swap1\n      pop\n        /* \"#utility.yul\":4100:4171   */\n      tag_276\n        /* \"#utility.yul\":4168:4169   */\n      0x00\n        /* \"#utility.yul\":4157:4166   */\n      dup4\n        /* \"#utility.yul\":4153:4170   */\n      add\n        /* \"#utility.yul\":4144:4150   */\n      dup5\n        /* \"#utility.yul\":4100:4171   */\n      tag_204\n      jump\t// in\n    tag_276:\n        /* \"#utility.yul\":3956:4178   */\n      swap3\n      swap2\n      pop\n      pop\n      jump\t// out\n        /* \"#utility.yul\":4184:4302   */\n    tag_205:\n        /* \"#utility.yul\":4271:4295   */\n      tag_278\n        /* \"#utility.yul\":4289:4294   */\n      dup2\n        /* \"#utility.yul\":4271:4295   */\n      tag_196\n      jump\t// in\n    tag_278:\n        /* \"#utility.yul\":4266:4269   */\n      dup3\n        /* \"#utility.yul\":4259:4296   */\n      mstore\n        /* \"#utility.yul\":4184:4302   */\n      pop\n      pop\n      jump\t// out\n        /* \"#utility.yul\":4308:4530   */\n    tag_38:\n        /* \"#utility.yul\":4401:4405   */\n      0x00\n        /* \"#utility.yul\":4439:4441   */\n      0x20\n        /* \"#utility.yul\":4428:4437   */\n      dup3\n        /* \"#utility.yul\":4424:4442   */\n      add\n        /* \"#utility.yul\":4416:4442   */\n      swap1\n      pop\n        /* \"#utility.yul\":4452:4523   */\n      tag_280\n        /* \"#utility.yul\":4520:4521   */\n      0x00\n        /* \"#utility.yul\":4509:4518   */\n      dup4\n        /* \"#utility.yul\":4505:4522   */\n      add\n        /* \"#utility.yul\":4496:4502   */\n      dup5\n        /* \"#utility.yul\":4452:4523   */\n      tag_205\n      jump\t// in\n    tag_280:\n        /* \"#utility.yul\":4308:4530   */\n      swap3\n      swap2\n      pop\n      pop\n      jump\t// out\n        /* \"#utility.yul\":4536:4626   */\n    tag_206:\n        /* \"#utility.yul\":4570:4577   */\n      0x00\n        /* \"#utility.yul\":4613:4618   */\n      dup2\n        /* \"#utility.yul\":4606:4619   */\n      iszero\n        /* \"#utility.yul\":4599:4620   */\n      iszero\n        /* \"#utility.yul\":4588:4620   */\n      swap1\n      pop\n        /* \"#utility.yul\":4536:4626   */\n      swap2\n      swap1\n      pop\n      jump\t// out\n        /* \"#utility.yul\":4632:4741   */\n    tag_207:\n        /* \"#utility.yul\":4713:4734   */\n      tag_283\n        /* \"#utility.yul\":4728:4733   */\n      dup2\n        /* \"#utility.yul\":4713:4734   */\n      tag_206\n      jump\t// in\n    tag_283:\n        /* \"#utility.yul\":4708:4711   */\n      dup3\n        /* \"#utility.yul\":4701:4735   */\n      mstore\n        /* \"#utility.yul\":4632:4741   */\n      pop\n      pop\n      jump\t// out\n        /* \"#utility.yul\":4747:4957   */\n    tag_50:\n        /* \"#utility.yul\":4834:4838   */\n      0x00\n        /* \"#utility.yul\":4872:4874   */\n      0x20\n        /* \"#utility.yul\":4861:4870   */\n      dup3\n        /* \"#utility.yul\":4857:4875   */\n      add\n        /* \"#utility.yul\":4849:4875   */\n      swap1\n      pop\n        /* \"#utility.yul\":4885:4950   */\n      tag_285\n        /* \"#utility.yul\":4947:4948   */\n      0x00\n        /* \"#utility.yul\":4936:4945   */\n      dup4\n        /* \"#utility.yul\":4932:4949   */\n      add\n        /* \"#utility.yul\":4923:4929   */\n      dup5\n        /* \"#utility.yul\":4885:4950   */\n      tag_207\n      jump\t// in\n    tag_285:\n        /* \"#utility.yul\":4747:4957   */\n      swap3\n      swap2\n      pop\n      pop\n      jump\t// out\n        /* \"#utility.yul\":4963:5056   */\n    tag_208:\n        /* \"#utility.yul\":4999:5006   */\n      0x00\n        /* \"#utility.yul\":5039:5049   */\n      0xffffffff\n        /* \"#utility.yul\":5032:5037   */\n      dup3\n        /* \"#utility.yul\":5028:5050   */\n      and\n        /* \"#utility.yul\":5017:5050   */\n      swap1\n      pop\n        /* \"#utility.yul\":4963:5056   */\n      swap2\n      swap1\n      pop\n      jump\t// out\n        /* \"#utility.yul\":5062:5177   */\n    tag_209:\n        /* \"#utility.yul\":5147:5170   */\n      tag_288\n        /* \"#utility.yul\":5164:5169   */\n      dup2\n        /* \"#utility.yul\":5147:5170   */\n      tag_208\n      jump\t// in\n    tag_288:\n        /* \"#utility.yul\":5142:5145   */\n      dup3\n        /* \"#utility.yul\":5135:5171   */\n      mstore\n        /* \"#utility.yul\":5062:5177   */\n      pop\n      pop\n      jump\t// out\n        /* \"#utility.yul\":5183:5401   */\n    tag_55:\n        /* \"#utility.yul\":5274:5278   */\n      0x00\n        /* \"#utility.yul\":5312:5314   */\n      0x20\n        /* \"#utility.yul\":5301:5310   */\n      dup3\n        /* \"#utility.yul\":5297:5315   */\n      add\n        /* \"#utility.yul\":5289:5315   */\n      swap1\n      pop\n        /* \"#utility.yul\":5325:5394   */\n      tag_290\n        /* \"#utility.yul\":5391:5392   */\n      0x00\n        /* \"#utility.yul\":5380:5389   */\n      dup4\n        /* \"#utility.yul\":5376:5393   */\n      add\n        /* \"#utility.yul\":5367:5373   */\n      dup5\n        /* \"#utility.yul\":5325:5394   */\n      tag_209\n      jump\t// in\n    tag_290:\n        /* \"#utility.yul\":5183:5401   */\n      swap3\n      swap2\n      pop\n      pop\n      jump\t// out\n        /* \"#utility.yul\":5488:5605   */\n    tag_211:\n        /* \"#utility.yul\":5597:5598   */\n      0x00\n        /* \"#utility.yul\":5594:5595   */\n      dup1\n        /* \"#utility.yul\":5587:5599   */\n      revert\n        /* \"#utility.yul\":5734:5856   */\n    tag_213:\n        /* \"#utility.yul\":5807:5831   */\n      tag_295\n        /* \"#utility.yul\":5825:5830   */\n      dup2\n        /* \"#utility.yul\":5807:5831   */\n      tag_198\n      jump\t// in\n    tag_295:\n        /* \"#utility.yul\":5800:5805   */\n      dup2\n        /* \"#utility.yul\":5797:5832   */\n      eq\n        /* \"#utility.yul\":5787:5850   */\n      tag_296\n      jumpi\n        /* \"#utility.yul\":5846:5847   */\n      0x00\n        /* \"#utility.yul\":5843:5844   */\n      dup1\n        /* \"#utility.yul\":5836:5848   */\n      revert\n        /* \"#utility.yul\":5787:5850   */\n    tag_296:\n        /* \"#utility.yul\":5734:5856   */\n      pop\n      jump\t// out\n        /* \"#utility.yul\":5862:6001   */\n    tag_214:\n        /* \"#utility.yul\":5908:5913   */\n      0x00\n        /* \"#utility.yul\":5946:5952   */\n      dup2\n        /* \"#utility.yul\":5933:5953   */\n      calldataload\n        /* \"#utility.yul\":5924:5953   */\n      swap1\n      pop\n        /* \"#utility.yul\":5962:5995   */\n      tag_298\n        /* \"#utility.yul\":5989:5994   */\n      dup2\n        /* \"#utility.yul\":5962:5995   */\n      tag_213\n      jump\t// in\n    tag_298:\n        /* \"#utility.yul\":5862:6001   */\n      swap3\n      swap2\n      pop\n      pop\n      jump\t// out\n        /* \"#utility.yul\":6007:6336   */\n    tag_63:\n        /* \"#utility.yul\":6066:6072   */\n      0x00\n        /* \"#utility.yul\":6115:6117   */\n      0x20\n        /* \"#utility.yul\":6103:6112   */\n      dup3\n        /* \"#utility.yul\":6094:6101   */\n      dup5\n        /* \"#utility.yul\":6090:6113   */\n      sub\n        /* \"#utility.yul\":6086:6118   */\n      slt\n        /* \"#utility.yul\":6083:6202   */\n      iszero\n      tag_300\n      jumpi\n        /* \"#utility.yul\":6121:6200   */\n      tag_301\n      tag_211\n      jump\t// in\n    tag_301:\n        /* \"#utility.yul\":6083:6202   */\n    tag_300:\n        /* \"#utility.yul\":6241:6242   */\n      0x00\n        /* \"#utility.yul\":6266:6319   */\n      tag_302\n        /* \"#utility.yul\":6311:6318   */\n      dup5\n        /* \"#utility.yul\":6302:6308   */\n      dup3\n        /* \"#utility.yul\":6291:6300   */\n      dup6\n        /* \"#utility.yul\":6287:6309   */\n      add\n        /* \"#utility.yul\":6266:6319   */\n      tag_214\n      jump\t// in\n    tag_302:\n        /* \"#utility.yul\":6256:6319   */\n      swap2\n      pop\n        /* \"#utility.yul\":6212:6329   */\n      pop\n        /* \"#utility.yul\":6007:6336   */\n      swap3\n      swap2\n      pop\n      pop\n      jump\t// out\n        /* \"#utility.yul\":6342:6674   */\n    tag_66:\n        /* \"#utility.yul\":6463:6467   */\n      0x00\n        /* \"#utility.yul\":6501:6503   */\n      0x40\n        /* \"#utility.yul\":6490:6499   */\n      dup3\n        /* \"#utility.yul\":6486:6504   */\n      add\n        /* \"#utility.yul\":6478:6504   */\n      swap1\n      pop\n        /* \"#utility.yul\":6514:6585   */\n      tag_304\n        /* \"#utility.yul\":6582:6583   */\n      0x00\n        /* \"#utility.yul\":6571:6580   */\n      dup4\n        /* \"#utility.yul\":6567:6584   */\n      add\n        /* \"#utility.yul\":6558:6564   */\n      dup6\n        /* \"#utility.yul\":6514:6585   */\n      tag_205\n      jump\t// in\n    tag_304:\n        /* \"#utility.yul\":6595:6667   */\n      tag_305\n        /* \"#utility.yul\":6663:6665   */\n      0x20\n        /* \"#utility.yul\":6652:6661   */\n      dup4\n        /* \"#utility.yul\":6648:6666   */\n      add\n        /* \"#utility.yul\":6639:6645   */\n      dup5\n        /* \"#utility.yul\":6595:6667   */\n      tag_204\n      jump\t// in\n    tag_305:\n        /* \"#utility.yul\":6342:6674   */\n      swap4\n      swap3\n      pop\n      pop\n      pop\n      jump\t// out\n        /* \"#utility.yul\":6680:6849   */\n    tag_215:\n        /* \"#utility.yul\":6764:6775   */\n      0x00\n        /* \"#utility.yul\":6798:6804   */\n      dup3\n        /* \"#utility.yul\":6793:6796   */\n      dup3\n        /* \"#utility.yul\":6786:6805   */\n      mstore\n        /* \"#utility.yul\":6838:6842   */\n      0x20\n        /* \"#utility.yul\":6833:6836   */\n      dup3\n        /* \"#utility.yul\":6829:6843   */\n      add\n        /* \"#utility.yul\":6814:6843   */\n      swap1\n      pop\n        /* \"#utility.yul\":6680:6849   */\n      swap3\n      swap2\n      pop\n      pop\n      jump\t// out\n        /* \"#utility.yul\":6855:7030   */\n    tag_216:\n        /* \"#utility.yul\":6995:7022   */\n      0x5468652061756374696f6e206973206e6f742061637469766500000000000000\n        /* \"#utility.yul\":6991:6992   */\n      0x00\n        /* \"#utility.yul\":6983:6989   */\n      dup3\n        /* \"#utility.yul\":6979:6993   */\n      add\n        /* \"#utility.yul\":6972:7023   */\n      mstore\n        /* \"#utility.yul\":6855:7030   */\n      pop\n      jump\t// out\n        /* \"#utility.yul\":7036:7402   */\n    tag_217:\n        /* \"#utility.yul\":7178:7181   */\n      0x00\n        /* \"#utility.yul\":7199:7266   */\n      tag_309\n        /* \"#utility.yul\":7263:7265   */\n      0x19\n        /* \"#utility.yul\":7258:7261   */\n      dup4\n        /* \"#utility.yul\":7199:7266   */\n      tag_215\n      jump\t// in\n    tag_309:\n        /* \"#utility.yul\":7192:7266   */\n      swap2\n      pop\n        /* \"#utility.yul\":7275:7368   */\n      tag_310\n        /* \"#utility.yul\":7364:7367   */\n      dup3\n        /* \"#utility.yul\":7275:7368   */\n      tag_216\n      jump\t// in\n    tag_310:\n        /* \"#utility.yul\":7393:7395   */\n      0x20\n        /* \"#utility.yul\":7388:7391   */\n      dup3\n        /* \"#utility.yul\":7384:7396   */\n      add\n        /* \"#utility.yul\":7377:7396   */\n      swap1\n      pop\n        /* \"#utility.yul\":7036:7402   */\n      swap2\n      swap1\n      pop\n      jump\t// out\n        /* \"#utility.yul\":7408:7827   */\n    tag_80:\n        /* \"#utility.yul\":7574:7578   */\n      0x00\n        /* \"#utility.yul\":7612:7614   */\n      0x20\n        /* \"#utility.yul\":7601:7610   */\n      dup3\n        /* \"#utility.yul\":7597:7615   */\n      add\n        /* \"#utility.yul\":7589:7615   */\n      swap1\n      pop\n        /* \"#utility.yul\":7661:7670   */\n      dup2\n        /* \"#utility.yul\":7655:7659   */\n      dup2\n        /* \"#utility.yul\":7651:7671   */\n      sub\n        /* \"#utility.yul\":7647:7648   */\n      0x00\n        /* \"#utility.yul\":7636:7645   */\n      dup4\n        /* \"#utility.yul\":7632:7649   */\n      add\n        /* \"#utility.yul\":7625:7672   */\n      mstore\n        /* \"#utility.yul\":7689:7820   */\n      tag_312\n        /* \"#utility.yul\":7815:7819   */\n      dup2\n        /* \"#utility.yul\":7689:7820   */\n      tag_217\n      jump\t// in\n    tag_312:\n        /* \"#utility.yul\":7681:7820   */\n      swap1\n      pop\n        /* \"#utility.yul\":7408:7827   */\n      swap2\n      swap1\n      pop\n      jump\t// out\n        /* \"#utility.yul\":7833:8013   */\n    tag_218:\n        /* \"#utility.yul\":7881:7958   */\n      0x4e487b7100000000000000000000000000000000000000000000000000000000\n        /* \"#utility.yul\":7878:7879   */\n      0x00\n        /* \"#utility.yul\":7871:7959   */\n      mstore\n        /* \"#utility.yul\":7978:7982   */\n      0x11\n        /* \"#utility.yul\":7975:7976   */\n      0x04\n        /* \"#utility.yul\":7968:7983   */\n      mstore\n        /* \"#utility.yul\":8002:8006   */\n      0x24\n        /* \"#utility.yul\":7999:8000   */\n      0x00\n        /* \"#utility.yul\":7992:8007   */\n      revert\n        /* \"#utility.yul\":8019:8429   */\n    tag_84:\n        /* \"#utility.yul\":8059:8066   */\n      0x00\n        /* \"#utility.yul\":8082:8102   */\n      tag_315\n        /* \"#utility.yul\":8100:8101   */\n      dup3\n        /* \"#utility.yul\":8082:8102   */\n      tag_198\n      jump\t// in\n    tag_315:\n        /* \"#utility.yul\":8077:8102   */\n      swap2\n      pop\n        /* \"#utility.yul\":8116:8136   */\n      tag_316\n        /* \"#utility.yul\":8134:8135   */\n      dup4\n        /* \"#utility.yul\":8116:8136   */\n      tag_198\n      jump\t// in\n    tag_316:\n        /* \"#utility.yul\":8111:8136   */\n      swap3\n      pop\n        /* \"#utility.yul\":8171:8172   */\n      dup3\n        /* \"#utility.yul\":8168:8169   */\n      dup3\n        /* \"#utility.yul\":8164:8173   */\n      mul\n        /* \"#utility.yul\":8193:8223   */\n      tag_317\n        /* \"#utility.yul\":8211:8222   */\n      dup2\n        /* \"#utility.yul\":8193:8223   */\n      tag_198\n      jump\t// in\n    tag_317:\n        /* \"#utility.yul\":8182:8223   */\n      swap2\n      pop\n        /* \"#utility.yul\":8372:8373   */\n      dup3\n        /* \"#utility.yul\":8363:8370   */\n      dup3\n        /* \"#utility.yul\":8359:8374   */\n      div\n        /* \"#utility.yul\":8356:8357   */\n      dup5\n        /* \"#utility.yul\":8353:8375   */\n      eq\n        /* \"#utility.yul\":8333:8334   */\n      dup4\n        /* \"#utility.yul\":8326:8335   */\n      iszero\n        /* \"#utility.yul\":8306:8389   */\n      or\n        /* \"#utility.yul\":8283:8422   */\n      tag_318\n      jumpi\n        /* \"#utility.yul\":8402:8420   */\n      tag_319\n      tag_218\n      jump\t// in\n    tag_319:\n        /* \"#utility.yul\":8283:8422   */\n    tag_318:\n        /* \"#utility.yul\":8067:8429   */\n      pop\n        /* \"#utility.yul\":8019:8429   */\n      swap3\n      swap2\n      pop\n      pop\n      jump\t// out\n        /* \"#utility.yul\":8435:8615   */\n    tag_219:\n        /* \"#utility.yul\":8483:8560   */\n      0x4e487b7100000000000000000000000000000000000000000000000000000000\n        /* \"#utility.yul\":8480:8481   */\n      0x00\n        /* \"#utility.yul\":8473:8561   */\n      mstore\n        /* \"#utility.yul\":8580:8584   */\n      0x12\n        /* \"#utility.yul\":8577:8578   */\n      0x04\n        /* \"#utility.yul\":8570:8585   */\n      mstore\n        /* \"#utility.yul\":8604:8608   */\n      0x24\n        /* \"#utility.yul\":8601:8602   */\n      0x00\n        /* \"#utility.yul\":8594:8609   */\n      revert\n        /* \"#utility.yul\":8621:8806   */\n    tag_86:\n        /* \"#utility.yul\":8661:8662   */\n      0x00\n        /* \"#utility.yul\":8678:8698   */\n      tag_322\n        /* \"#utility.yul\":8696:8697   */\n      dup3\n        /* \"#utility.yul\":8678:8698   */\n      tag_198\n      jump\t// in\n    tag_322:\n        /* \"#utility.yul\":8673:8698   */\n      swap2\n      pop\n        /* \"#utility.yul\":8712:8732   */\n      tag_323\n        /* \"#utility.yul\":8730:8731   */\n      dup4\n        /* \"#utility.yul\":8712:8732   */\n      tag_198\n      jump\t// in\n    tag_323:\n        /* \"#utility.yul\":8707:8732   */\n      swap3\n      pop\n        /* \"#utility.yul\":8751:8752   */\n      dup3\n        /* \"#utility.yul\":8741:8776   */\n      tag_324\n      jumpi\n        /* \"#utility.yul\":8756:8774   */\n      tag_325\n      tag_219\n      jump\t// in\n    tag_325:\n        /* \"#utility.yul\":8741:8776   */\n    tag_324:\n        /* \"#utility.yul\":8798:8799   */\n      dup3\n        /* \"#utility.yul\":8795:8796   */\n      dup3\n        /* \"#utility.yul\":8791:8800   */\n      div\n        /* \"#utility.yul\":8786:8800   */\n      swap1\n      pop\n        /* \"#utility.yul\":8621:8806   */\n      swap3\n      swap2\n      pop\n      pop\n      jump\t// out\n        /* \"#utility.yul\":8812:9054   */\n    tag_220:\n        /* \"#utility.yul\":8952:8986   */\n      0x54686520626964206d757374206265206174206c656173742035252068696768\n        /* \"#utility.yul\":8948:8949   */\n      0x00\n        /* \"#utility.yul\":8940:8946   */\n      dup3\n        /* \"#utility.yul\":8936:8950   */\n      add\n        /* \"#utility.yul\":8929:8987   */\n      mstore\n        /* \"#utility.yul\":9021:9046   */\n      0x6572207468616e207468652063757272656e7420626964000000000000000000\n        /* \"#utility.yul\":9016:9018   */\n      0x20\n        /* \"#utility.yul\":9008:9014   */\n      dup3\n        /* \"#utility.yul\":9004:9019   */\n      add\n        /* \"#utility.yul\":8997:9047   */\n      mstore\n        /* \"#utility.yul\":8812:9054   */\n      pop\n      jump\t// out\n        /* \"#utility.yul\":9060:9426   */\n    tag_221:\n        /* \"#utility.yul\":9202:9205   */\n      0x00\n        /* \"#utility.yul\":9223:9290   */\n      tag_328\n        /* \"#utility.yul\":9287:9289   */\n      0x37\n        /* \"#utility.yul\":9282:9285   */\n      dup4\n        /* \"#utility.yul\":9223:9290   */\n      tag_215\n      jump\t// in\n    tag_328:\n        /* \"#utility.yul\":9216:9290   */\n      swap2\n      pop\n        /* \"#utility.yul\":9299:9392   */\n      tag_329\n        /* \"#utility.yul\":9388:9391   */\n      dup3\n        /* \"#utility.yul\":9299:9392   */\n      tag_220\n      jump\t// in\n    tag_329:\n        /* \"#utility.yul\":9417:9419   */\n      0x40\n        /* \"#utility.yul\":9412:9415   */\n      dup3\n        /* \"#utility.yul\":9408:9420   */\n      add\n        /* \"#utility.yul\":9401:9420   */\n      swap1\n      pop\n        /* \"#utility.yul\":9060:9426   */\n      swap2\n      swap1\n      pop\n      jump\t// out\n        /* \"#utility.yul\":9432:9851   */\n    tag_89:\n        /* \"#utility.yul\":9598:9602   */\n      0x00\n        /* \"#utility.yul\":9636:9638   */\n      0x20\n        /* \"#utility.yul\":9625:9634   */\n      dup3\n        /* \"#utility.yul\":9621:9639   */\n      add\n        /* \"#utility.yul\":9613:9639   */\n      swap1\n      pop\n        /* \"#utility.yul\":9685:9694   */\n      dup2\n        /* \"#utility.yul\":9679:9683   */\n      dup2\n        /* \"#utility.yul\":9675:9695   */\n      sub\n        /* \"#utility.yul\":9671:9672   */\n      0x00\n        /* \"#utility.yul\":9660:9669   */\n      dup4\n        /* \"#utility.yul\":9656:9673   */\n      add\n        /* \"#utility.yul\":9649:9696   */\n      mstore\n        /* \"#utility.yul\":9713:9844   */\n      tag_331\n        /* \"#utility.yul\":9839:9843   */\n      dup2\n        /* \"#utility.yul\":9713:9844   */\n      tag_221\n      jump\t// in\n    tag_331:\n        /* \"#utility.yul\":9705:9844   */\n      swap1\n      pop\n        /* \"#utility.yul\":9432:9851   */\n      swap2\n      swap1\n      pop\n      jump\t// out\n        /* \"#utility.yul\":9857:10028   */\n    tag_222:\n        /* \"#utility.yul\":9997:10020   */\n      0x5468652061756374696f6e2068617320656e6465640000000000000000000000\n        /* \"#utility.yul\":9993:9994   */\n      0x00\n        /* \"#utility.yul\":9985:9991   */\n      dup3\n        /* \"#utility.yul\":9981:9995   */\n      add\n        /* \"#utility.yul\":9974:10021   */\n      mstore\n        /* \"#utility.yul\":9857:10028   */\n      pop\n      jump\t// out\n        /* \"#utility.yul\":10034:10400   */\n    tag_223:\n        /* \"#utility.yul\":10176:10179   */\n      0x00\n        /* \"#utility.yul\":10197:10264   */\n      tag_334\n        /* \"#utility.yul\":10261:10263   */\n      0x15\n        /* \"#utility.yul\":10256:10259   */\n      dup4\n        /* \"#utility.yul\":10197:10264   */\n      tag_215\n      jump\t// in\n    tag_334:\n        /* \"#utility.yul\":10190:10264   */\n      swap2\n      pop\n        /* \"#utility.yul\":10273:10366   */\n      tag_335\n        /* \"#utility.yul\":10362:10365   */\n      dup3\n        /* \"#utility.yul\":10273:10366   */\n      tag_222\n      jump\t// in\n    tag_335:\n        /* \"#utility.yul\":10391:10393   */\n      0x20\n        /* \"#utility.yul\":10386:10389   */\n      dup3\n        /* \"#utility.yul\":10382:10394   */\n      add\n        /* \"#utility.yul\":10375:10394   */\n      swap1\n      pop\n        /* \"#utility.yul\":10034:10400   */\n      swap2\n      swap1\n      pop\n      jump\t// out\n        /* \"#utility.yul\":10406:10825   */\n    tag_92:\n        /* \"#utility.yul\":10572:10576   */\n      0x00\n        /* \"#utility.yul\":10610:10612   */\n      0x20\n        /* \"#utility.yul\":10599:10608   */\n      dup3\n        /* \"#utility.yul\":10595:10613   */\n      add\n        /* \"#utility.yul\":10587:10613   */\n      swap1\n      pop\n        /* \"#utility.yul\":10659:10668   */\n      dup2\n        /* \"#utility.yul\":10653:10657   */\n      dup2\n        /* \"#utility.yul\":10649:10669   */\n      sub\n        /* \"#utility.yul\":10645:10646   */\n      0x00\n        /* \"#utility.yul\":10634:10643   */\n      dup4\n        /* \"#utility.yul\":10630:10647   */\n      add\n        /* \"#utility.yul\":10623:10670   */\n      mstore\n        /* \"#utility.yul\":10687:10818   */\n      tag_337\n        /* \"#utility.yul\":10813:10817   */\n      dup2\n        /* \"#utility.yul\":10687:10818   */\n      tag_223\n      jump\t// in\n    tag_337:\n        /* \"#utility.yul\":10679:10818   */\n      swap1\n      pop\n        /* \"#utility.yul\":10406:10825   */\n      swap2\n      swap1\n      pop\n      jump\t// out\n        /* \"#utility.yul\":10831:11025   */\n    tag_94:\n        /* \"#utility.yul\":10871:10875   */\n      0x00\n        /* \"#utility.yul\":10891:10911   */\n      tag_339\n        /* \"#utility.yul\":10909:10910   */\n      dup3\n        /* \"#utility.yul\":10891:10911   */\n      tag_198\n      jump\t// in\n    tag_339:\n        /* \"#utility.yul\":10886:10911   */\n      swap2\n      pop\n        /* \"#utility.yul\":10925:10945   */\n      tag_340\n        /* \"#utility.yul\":10943:10944   */\n      dup4\n        /* \"#utility.yul\":10925:10945   */\n      tag_198\n      jump\t// in\n    tag_340:\n        /* \"#utility.yul\":10920:10945   */\n      swap3\n      pop\n        /* \"#utility.yul\":10969:10970   */\n      dup3\n        /* \"#utility.yul\":10966:10967   */\n      dup3\n        /* \"#utility.yul\":10962:10971   */\n      sub\n        /* \"#utility.yul\":10954:10971   */\n      swap1\n      pop\n        /* \"#utility.yul\":10993:10994   */\n      dup2\n        /* \"#utility.yul\":10987:10991   */\n      dup2\n        /* \"#utility.yul\":10984:10995   */\n      gt\n        /* \"#utility.yul\":10981:11018   */\n      iszero\n      tag_341\n      jumpi\n        /* \"#utility.yul\":10998:11016   */\n      tag_342\n      tag_218\n      jump\t// in\n    tag_342:\n        /* \"#utility.yul\":10981:11018   */\n    tag_341:\n        /* \"#utility.yul\":10831:11025   */\n      swap3\n      swap2\n      pop\n      pop\n      jump\t// out\n        /* \"#utility.yul\":11031:11222   */\n    tag_97:\n        /* \"#utility.yul\":11071:11074   */\n      0x00\n        /* \"#utility.yul\":11090:11110   */\n      tag_344\n        /* \"#utility.yul\":11108:11109   */\n      dup3\n        /* \"#utility.yul\":11090:11110   */\n      tag_198\n      jump\t// in\n    tag_344:\n        /* \"#utility.yul\":11085:11110   */\n      swap2\n      pop\n        /* \"#utility.yul\":11124:11144   */\n      tag_345\n        /* \"#utility.yul\":11142:11143   */\n      dup4\n        /* \"#utility.yul\":11124:11144   */\n      tag_198\n      jump\t// in\n    tag_345:\n        /* \"#utility.yul\":11119:11144   */\n      swap3\n      pop\n        /* \"#utility.yul\":11167:11168   */\n      dup3\n        /* \"#utility.yul\":11164:11165   */\n      dup3\n        /* \"#utility.yul\":11160:11169   */\n      add\n        /* \"#utility.yul\":11153:11169   */\n      swap1\n      pop\n        /* \"#utility.yul\":11188:11191   */\n      dup1\n        /* \"#utility.yul\":11185:11186   */\n      dup3\n        /* \"#utility.yul\":11182:11192   */\n      gt\n        /* \"#utility.yul\":11179:11215   */\n      iszero\n      tag_346\n      jumpi\n        /* \"#utility.yul\":11195:11213   */\n      tag_347\n      tag_218\n      jump\t// in\n    tag_347:\n        /* \"#utility.yul\":11179:11215   */\n    tag_346:\n        /* \"#utility.yul\":11031:11222   */\n      swap3\n      swap2\n      pop\n      pop\n      jump\t// out\n        /* \"#utility.yul\":11228:11460   */\n    tag_224:\n        /* \"#utility.yul\":11368:11402   */\n      0x4f6e6c79207468652061756374696f6e6565722063616e206578656375746520\n        /* \"#utility.yul\":11364:11365   */\n      0x00\n        /* \"#utility.yul\":11356:11362   */\n      dup3\n        /* \"#utility.yul\":11352:11366   */\n      add\n        /* \"#utility.yul\":11345:11403   */\n      mstore\n        /* \"#utility.yul\":11437:11452   */\n      0x746869732066756e6374696f6e00000000000000000000000000000000000000\n        /* \"#utility.yul\":11432:11434   */\n      0x20\n        /* \"#utility.yul\":11424:11430   */\n      dup3\n        /* \"#utility.yul\":11420:11435   */\n      add\n        /* \"#utility.yul\":11413:11453   */\n      mstore\n        /* \"#utility.yul\":11228:11460   */\n      pop\n      jump\t// out\n        /* \"#utility.yul\":11466:11832   */\n    tag_225:\n        /* \"#utility.yul\":11608:11611   */\n      0x00\n        /* \"#utility.yul\":11629:11696   */\n      tag_350\n        /* \"#utility.yul\":11693:11695   */\n      0x2d\n        /* \"#utility.yul\":11688:11691   */\n      dup4\n        /* \"#utility.yul\":11629:11696   */\n      tag_215\n      jump\t// in\n    tag_350:\n        /* \"#utility.yul\":11622:11696   */\n      swap2\n      pop\n        /* \"#utility.yul\":11705:11798   */\n      tag_351\n        /* \"#utility.yul\":11794:11797   */\n      dup3\n        /* \"#utility.yul\":11705:11798   */\n      tag_224\n      jump\t// in\n    tag_351:\n        /* \"#utility.yul\":11823:11825   */\n      0x40\n        /* \"#utility.yul\":11818:11821   */\n      dup3\n        /* \"#utility.yul\":11814:11826   */\n      add\n        /* \"#utility.yul\":11807:11826   */\n      swap1\n      pop\n        /* \"#utility.yul\":11466:11832   */\n      swap2\n      swap1\n      pop\n      jump\t// out\n        /* \"#utility.yul\":11838:12257   */\n    tag_103:\n        /* \"#utility.yul\":12004:12008   */\n      0x00\n        /* \"#utility.yul\":12042:12044   */\n      0x20\n        /* \"#utility.yul\":12031:12040   */\n      dup3\n        /* \"#utility.yul\":12027:12045   */\n      add\n        /* \"#utility.yul\":12019:12045   */\n      swap1\n      pop\n        /* \"#utility.yul\":12091:12100   */\n      dup2\n        /* \"#utility.yul\":12085:12089   */\n      dup2\n        /* \"#utility.yul\":12081:12101   */\n      sub\n        /* \"#utility.yul\":12077:12078   */\n      0x00\n        /* \"#utility.yul\":12066:12075   */\n      dup4\n        /* \"#utility.yul\":12062:12079   */\n      add\n        /* \"#utility.yul\":12055:12102   */\n      mstore\n        /* \"#utility.yul\":12119:12250   */\n      tag_353\n        /* \"#utility.yul\":12245:12249   */\n      dup2\n        /* \"#utility.yul\":12119:12250   */\n      tag_225\n      jump\t// in\n    tag_353:\n        /* \"#utility.yul\":12111:12250   */\n      swap1\n      pop\n        /* \"#utility.yul\":11838:12257   */\n      swap2\n      swap1\n      pop\n      jump\t// out\n        /* \"#utility.yul\":12263:12440   */\n    tag_226:\n        /* \"#utility.yul\":12403:12432   */\n      0x5468652061756374696f6e206973207374696c6c206163746976650000000000\n        /* \"#utility.yul\":12399:12400   */\n      0x00\n        /* \"#utility.yul\":12391:12397   */\n      dup3\n        /* \"#utility.yul\":12387:12401   */\n      add\n        /* \"#utility.yul\":12380:12433   */\n      mstore\n        /* \"#utility.yul\":12263:12440   */\n      pop\n      jump\t// out\n        /* \"#utility.yul\":12446:12812   */\n    tag_227:\n        /* \"#utility.yul\":12588:12591   */\n      0x00\n        /* \"#utility.yul\":12609:12676   */\n      tag_356\n        /* \"#utility.yul\":12673:12675   */\n      0x1b\n        /* \"#utility.yul\":12668:12671   */\n      dup4\n        /* \"#utility.yul\":12609:12676   */\n      tag_215\n      jump\t// in\n    tag_356:\n        /* \"#utility.yul\":12602:12676   */\n      swap2\n      pop\n        /* \"#utility.yul\":12685:12778   */\n      tag_357\n        /* \"#utility.yul\":12774:12777   */\n      dup3\n        /* \"#utility.yul\":12685:12778   */\n      tag_226\n      jump\t// in\n    tag_357:\n        /* \"#utility.yul\":12803:12805   */\n      0x20\n        /* \"#utility.yul\":12798:12801   */\n      dup3\n        /* \"#utility.yul\":12794:12806   */\n      add\n        /* \"#utility.yul\":12787:12806   */\n      swap1\n      pop\n        /* \"#utility.yul\":12446:12812   */\n      swap2\n      swap1\n      pop\n      jump\t// out\n        /* \"#utility.yul\":12818:13237   */\n    tag_107:\n        /* \"#utility.yul\":12984:12988   */\n      0x00\n        /* \"#utility.yul\":13022:13024   */\n      0x20\n        /* \"#utility.yul\":13011:13020   */\n      dup3\n        /* \"#utility.yul\":13007:13025   */\n      add\n        /* \"#utility.yul\":12999:13025   */\n      swap1\n      pop\n        /* \"#utility.yul\":13071:13080   */\n      dup2\n        /* \"#utility.yul\":13065:13069   */\n      dup2\n        /* \"#utility.yul\":13061:13081   */\n      sub\n        /* \"#utility.yul\":13057:13058   */\n      0x00\n        /* \"#utility.yul\":13046:13055   */\n      dup4\n        /* \"#utility.yul\":13042:13059   */\n      add\n        /* \"#utility.yul\":13035:13082   */\n      mstore\n        /* \"#utility.yul\":13099:13230   */\n      tag_359\n        /* \"#utility.yul\":13225:13229   */\n      dup2\n        /* \"#utility.yul\":13099:13230   */\n      tag_227\n      jump\t// in\n    tag_359:\n        /* \"#utility.yul\":13091:13230   */\n      swap1\n      pop\n        /* \"#utility.yul\":12818:13237   */\n      swap2\n      swap1\n      pop\n      jump\t// out\n        /* \"#utility.yul\":13243:13423   */\n    tag_111:\n        /* \"#utility.yul\":13291:13368   */\n      0x4e487b7100000000000000000000000000000000000000000000000000000000\n        /* \"#utility.yul\":13288:13289   */\n      0x00\n        /* \"#utility.yul\":13281:13369   */\n      mstore\n        /* \"#utility.yul\":13388:13392   */\n      0x32\n        /* \"#utility.yul\":13385:13386   */\n      0x04\n        /* \"#utility.yul\":13378:13393   */\n      mstore\n        /* \"#utility.yul\":13412:13416   */\n      0x24\n        /* \"#utility.yul\":13409:13410   */\n      0x00\n        /* \"#utility.yul\":13402:13417   */\n      revert\n        /* \"#utility.yul\":13429:13620   */\n    tag_125:\n        /* \"#utility.yul\":13467:13471   */\n      0x00\n        /* \"#utility.yul\":13487:13505   */\n      tag_362\n        /* \"#utility.yul\":13503:13504   */\n      dup3\n        /* \"#utility.yul\":13487:13505   */\n      tag_190\n      jump\t// in\n    tag_362:\n        /* \"#utility.yul\":13482:13505   */\n      swap2\n      pop\n        /* \"#utility.yul\":13519:13537   */\n      tag_363\n        /* \"#utility.yul\":13535:13536   */\n      dup4\n        /* \"#utility.yul\":13519:13537   */\n      tag_190\n      jump\t// in\n    tag_363:\n        /* \"#utility.yul\":13514:13537   */\n      swap3\n      pop\n        /* \"#utility.yul\":13561:13562   */\n      dup3\n        /* \"#utility.yul\":13558:13559   */\n      dup3\n        /* \"#utility.yul\":13554:13563   */\n      sub\n        /* \"#utility.yul\":13546:13563   */\n      swap1\n      pop\n        /* \"#utility.yul\":13585:13589   */\n      0xff\n        /* \"#utility.yul\":13579:13583   */\n      dup2\n        /* \"#utility.yul\":13576:13590   */\n      gt\n        /* \"#utility.yul\":13573:13613   */\n      iszero\n      tag_364\n      jumpi\n        /* \"#utility.yul\":13593:13611   */\n      tag_365\n      tag_218\n      jump\t// in\n    tag_365:\n        /* \"#utility.yul\":13573:13613   */\n    tag_364:\n        /* \"#utility.yul\":13429:13620   */\n      swap3\n      swap2\n      pop\n      pop\n      jump\t// out\n        /* \"#utility.yul\":13626:13773   */\n    tag_228:\n        /* \"#utility.yul\":13727:13738   */\n      0x00\n        /* \"#utility.yul\":13764:13767   */\n      dup2\n        /* \"#utility.yul\":13749:13767   */\n      swap1\n      pop\n        /* \"#utility.yul\":13626:13773   */\n      swap3\n      swap2\n      pop\n      pop\n      jump\t// out\n        /* \"#utility.yul\":13779:13893   */\n    tag_229:\n      pop\n      jump\t// out\n        /* \"#utility.yul\":13899:14297   */\n    tag_230:\n        /* \"#utility.yul\":14058:14061   */\n      0x00\n        /* \"#utility.yul\":14079:14162   */\n      tag_369\n        /* \"#utility.yul\":14160:14161   */\n      0x00\n        /* \"#utility.yul\":14155:14158   */\n      dup4\n        /* \"#utility.yul\":14079:14162   */\n      tag_228\n      jump\t// in\n    tag_369:\n        /* \"#utility.yul\":14072:14162   */\n      swap2\n      pop\n        /* \"#utility.yul\":14171:14264   */\n      tag_370\n        /* \"#utility.yul\":14260:14263   */\n      dup3\n        /* \"#utility.yul\":14171:14264   */\n      tag_229\n      jump\t// in\n    tag_370:\n        /* \"#utility.yul\":14289:14290   */\n      0x00\n        /* \"#utility.yul\":14284:14287   */\n      dup3\n        /* \"#utility.yul\":14280:14291   */\n      add\n        /* \"#utility.yul\":14273:14291   */\n      swap1\n      pop\n        /* \"#utility.yul\":13899:14297   */\n      swap2\n      swap1\n      pop\n      jump\t// out\n        /* \"#utility.yul\":14303:14682   */\n    tag_129:\n        /* \"#utility.yul\":14487:14490   */\n      0x00\n        /* \"#utility.yul\":14509:14656   */\n      tag_372\n        /* \"#utility.yul\":14652:14655   */\n      dup3\n        /* \"#utility.yul\":14509:14656   */\n      tag_230\n      jump\t// in\n    tag_372:\n        /* \"#utility.yul\":14502:14656   */\n      swap2\n      pop\n        /* \"#utility.yul\":14673:14676   */\n      dup2\n        /* \"#utility.yul\":14666:14676   */\n      swap1\n      pop\n        /* \"#utility.yul\":14303:14682   */\n      swap2\n      swap1\n      pop\n      jump\t// out\n        /* \"#utility.yul\":14688:14861   */\n    tag_231:\n        /* \"#utility.yul\":14828:14853   */\n      0x526566756e6420746f20626964646572206661696c6564000000000000000000\n        /* \"#utility.yul\":14824:14825   */\n      0x00\n        /* \"#utility.yul\":14816:14822   */\n      dup3\n        /* \"#utility.yul\":14812:14826   */\n      add\n        /* \"#utility.yul\":14805:14854   */\n      mstore\n        /* \"#utility.yul\":14688:14861   */\n      pop\n      jump\t// out\n        /* \"#utility.yul\":14867:15233   */\n    tag_232:\n        /* \"#utility.yul\":15009:15012   */\n      0x00\n        /* \"#utility.yul\":15030:15097   */\n      tag_375\n        /* \"#utility.yul\":15094:15096   */\n      0x17\n        /* \"#utility.yul\":15089:15092   */\n      dup4\n        /* \"#utility.yul\":15030:15097   */\n      tag_215\n      jump\t// in\n    tag_375:\n        /* \"#utility.yul\":15023:15097   */\n      swap2\n      pop\n        /* \"#utility.yul\":15106:15199   */\n      tag_376\n        /* \"#utility.yul\":15195:15198   */\n      dup3\n        /* \"#utility.yul\":15106:15199   */\n      tag_231\n      jump\t// in\n    tag_376:\n        /* \"#utility.yul\":15224:15226   */\n      0x20\n        /* \"#utility.yul\":15219:15222   */\n      dup3\n        /* \"#utility.yul\":15215:15227   */\n      add\n        /* \"#utility.yul\":15208:15227   */\n      swap1\n      pop\n        /* \"#utility.yul\":14867:15233   */\n      swap2\n      swap1\n      pop\n      jump\t// out\n        /* \"#utility.yul\":15239:15658   */\n    tag_135:\n        /* \"#utility.yul\":15405:15409   */\n      0x00\n        /* \"#utility.yul\":15443:15445   */\n      0x20\n        /* \"#utility.yul\":15432:15441   */\n      dup3\n        /* \"#utility.yul\":15428:15446   */\n      add\n        /* \"#utility.yul\":15420:15446   */\n      swap1\n      pop\n        /* \"#utility.yul\":15492:15501   */\n      dup2\n        /* \"#utility.yul\":15486:15490   */\n      dup2\n        /* \"#utility.yul\":15482:15502   */\n      sub\n        /* \"#utility.yul\":15478:15479   */\n      0x00\n        /* \"#utility.yul\":15467:15476   */\n      dup4\n        /* \"#utility.yul\":15463:15480   */\n      add\n        /* \"#utility.yul\":15456:15503   */\n      mstore\n        /* \"#utility.yul\":15520:15651   */\n      tag_378\n        /* \"#utility.yul\":15646:15650   */\n      dup2\n        /* \"#utility.yul\":15520:15651   */\n      tag_232\n      jump\t// in\n    tag_378:\n        /* \"#utility.yul\":15512:15651   */\n      swap1\n      pop\n        /* \"#utility.yul\":15239:15658   */\n      swap2\n      swap1\n      pop\n      jump\t// out\n        /* \"#utility.yul\":15664:15842   */\n    tag_233:\n        /* \"#utility.yul\":15804:15834   */\n      0x5468657265206973206e6f7468696e6720746f20776974686472617700000000\n        /* \"#utility.yul\":15800:15801   */\n      0x00\n        /* \"#utility.yul\":15792:15798   */\n      dup3\n        /* \"#utility.yul\":15788:15802   */\n      add\n        /* \"#utility.yul\":15781:15835   */\n      mstore\n        /* \"#utility.yul\":15664:15842   */\n      pop\n      jump\t// out\n        /* \"#utility.yul\":15848:16214   */\n    tag_234:\n        /* \"#utility.yul\":15990:15993   */\n      0x00\n        /* \"#utility.yul\":16011:16078   */\n      tag_381\n        /* \"#utility.yul\":16075:16077   */\n      0x1c\n        /* \"#utility.yul\":16070:16073   */\n      dup4\n        /* \"#utility.yul\":16011:16078   */\n      tag_215\n      jump\t// in\n    tag_381:\n        /* \"#utility.yul\":16004:16078   */\n      swap2\n      pop\n        /* \"#utility.yul\":16087:16180   */\n      tag_382\n        /* \"#utility.yul\":16176:16179   */\n      dup3\n        /* \"#utility.yul\":16087:16180   */\n      tag_233\n      jump\t// in\n    tag_382:\n        /* \"#utility.yul\":16205:16207   */\n      0x20\n        /* \"#utility.yul\":16200:16203   */\n      dup3\n        /* \"#utility.yul\":16196:16208   */\n      add\n        /* \"#utility.yul\":16189:16208   */\n      swap1\n      pop\n        /* \"#utility.yul\":15848:16214   */\n      swap2\n      swap1\n      pop\n      jump\t// out\n        /* \"#utility.yul\":16220:16639   */\n    tag_164:\n        /* \"#utility.yul\":16386:16390   */\n      0x00\n        /* \"#utility.yul\":16424:16426   */\n      0x20\n        /* \"#utility.yul\":16413:16422   */\n      dup3\n        /* \"#utility.yul\":16409:16427   */\n      add\n        /* \"#utility.yul\":16401:16427   */\n      swap1\n      pop\n        /* \"#utility.yul\":16473:16482   */\n      dup2\n        /* \"#utility.yul\":16467:16471   */\n      dup2\n        /* \"#utility.yul\":16463:16483   */\n      sub\n        /* \"#utility.yul\":16459:16460   */\n      0x00\n        /* \"#utility.yul\":16448:16457   */\n      dup4\n        /* \"#utility.yul\":16444:16461   */\n      add\n        /* \"#utility.yul\":16437:16484   */\n      mstore\n        /* \"#utility.yul\":16501:16632   */\n      tag_384\n        /* \"#utility.yul\":16627:16631   */\n      dup2\n        /* \"#utility.yul\":16501:16632   */\n      tag_234\n      jump\t// in\n    tag_384:\n        /* \"#utility.yul\":16493:16632   */\n      swap1\n      pop\n        /* \"#utility.yul\":16220:16639   */\n      swap2\n      swap1\n      pop\n      jump\t// out\n        /* \"#utility.yul\":16645:16820   */\n    tag_235:\n        /* \"#utility.yul\":16785:16812   */\n      0x5468652061756374696f6e20686173206e6f7420656e64656400000000000000\n        /* \"#utility.yul\":16781:16782   */\n      0x00\n        /* \"#utility.yul\":16773:16779   */\n      dup3\n        /* \"#utility.yul\":16769:16783   */\n      add\n        /* \"#utility.yul\":16762:16813   */\n      mstore\n        /* \"#utility.yul\":16645:16820   */\n      pop\n      jump\t// out\n        /* \"#utility.yul\":16826:17192   */\n    tag_236:\n        /* \"#utility.yul\":16968:16971   */\n      0x00\n        /* \"#utility.yul\":16989:17056   */\n      tag_387\n        /* \"#utility.yul\":17053:17055   */\n      0x19\n        /* \"#utility.yul\":17048:17051   */\n      dup4\n        /* \"#utility.yul\":16989:17056   */\n      tag_215\n      jump\t// in\n    tag_387:\n        /* \"#utility.yul\":16982:17056   */\n      swap2\n      pop\n        /* \"#utility.yul\":17065:17158   */\n      tag_388\n        /* \"#utility.yul\":17154:17157   */\n      dup3\n        /* \"#utility.yul\":17065:17158   */\n      tag_235\n      jump\t// in\n    tag_388:\n        /* \"#utility.yul\":17183:17185   */\n      0x20\n        /* \"#utility.yul\":17178:17181   */\n      dup3\n        /* \"#utility.yul\":17174:17186   */\n      add\n        /* \"#utility.yul\":17167:17186   */\n      swap1\n      pop\n        /* \"#utility.yul\":16826:17192   */\n      swap2\n      swap1\n      pop\n      jump\t// out\n        /* \"#utility.yul\":17198:17617   */\n    tag_173:\n        /* \"#utility.yul\":17364:17368   */\n      0x00\n        /* \"#utility.yul\":17402:17404   */\n      0x20\n        /* \"#utility.yul\":17391:17400   */\n      dup3\n        /* \"#utility.yul\":17387:17405   */\n      add\n        /* \"#utility.yul\":17379:17405   */\n      swap1\n      pop\n        /* \"#utility.yul\":17451:17460   */\n      dup2\n        /* \"#utility.yul\":17445:17449   */\n      dup2\n        /* \"#utility.yul\":17441:17461   */\n      sub\n        /* \"#utility.yul\":17437:17438   */\n      0x00\n        /* \"#utility.yul\":17426:17435   */\n      dup4\n        /* \"#utility.yul\":17422:17439   */\n      add\n        /* \"#utility.yul\":17415:17462   */\n      mstore\n        /* \"#utility.yul\":17479:17610   */\n      tag_390\n        /* \"#utility.yul\":17605:17609   */\n      dup2\n        /* \"#utility.yul\":17479:17610   */\n      tag_236\n      jump\t// in\n    tag_390:\n        /* \"#utility.yul\":17471:17610   */\n      swap1\n      pop\n        /* \"#utility.yul\":17198:17617   */\n      swap2\n      swap1\n      pop\n      jump\t// out\n        /* \"#utility.yul\":17623:17802   */\n    tag_237:\n        /* \"#utility.yul\":17763:17794   */\n      0x5472616e7366657220746f2061756374696f6e656572206661696c6564000000\n        /* \"#utility.yul\":17759:17760   */\n      0x00\n        /* \"#utility.yul\":17751:17757   */\n      dup3\n        /* \"#utility.yul\":17747:17761   */\n      add\n        /* \"#utility.yul\":17740:17795   */\n      mstore\n        /* \"#utility.yul\":17623:17802   */\n      pop\n      jump\t// out\n        /* \"#utility.yul\":17808:18174   */\n    tag_238:\n        /* \"#utility.yul\":17950:17953   */\n      0x00\n        /* \"#utility.yul\":17971:18038   */\n      tag_393\n        /* \"#utility.yul\":18035:18037   */\n      0x1d\n        /* \"#utility.yul\":18030:18033   */\n      dup4\n        /* \"#utility.yul\":17971:18038   */\n      tag_215\n      jump\t// in\n    tag_393:\n        /* \"#utility.yul\":17964:18038   */\n      swap2\n      pop\n        /* \"#utility.yul\":18047:18140   */\n      tag_394\n        /* \"#utility.yul\":18136:18139   */\n      dup3\n        /* \"#utility.yul\":18047:18140   */\n      tag_237\n      jump\t// in\n    tag_394:\n        /* \"#utility.yul\":18165:18167   */\n      0x20\n        /* \"#utility.yul\":18160:18163   */\n      dup3\n        /* \"#utility.yul\":18156:18168   */\n      add\n        /* \"#utility.yul\":18149:18168   */\n      swap1\n      pop\n        /* \"#utility.yul\":17808:18174   */\n      swap2\n      swap1\n      pop\n      jump\t// out\n        /* \"#utility.yul\":18180:18599   */\n    tag_188:\n        /* \"#utility.yul\":18346:18350   */\n      0x00\n        /* \"#utility.yul\":18384:18386   */\n      0x20\n        /* \"#utility.yul\":18373:18382   */\n      dup3\n        /* \"#utility.yul\":18369:18387   */\n      add\n        /* \"#utility.yul\":18361:18387   */\n      swap1\n      pop\n        /* \"#utility.yul\":18433:18442   */\n      dup2\n        /* \"#utility.yul\":18427:18431   */\n      dup2\n        /* \"#utility.yul\":18423:18443   */\n      sub\n        /* \"#utility.yul\":18419:18420   */\n      0x00\n        /* \"#utility.yul\":18408:18417   */\n      dup4\n        /* \"#utility.yul\":18404:18421   */\n      add\n        /* \"#utility.yul\":18397:18444   */\n      mstore\n        /* \"#utility.yul\":18461:18592   */\n      tag_396\n        /* \"#utility.yul\":18587:18591   */\n      dup2\n        /* \"#utility.yul\":18461:18592   */\n      tag_238\n      jump\t// in\n    tag_396:\n        /* \"#utility.yul\":18453:18592   */\n      swap1\n      pop\n        /* \"#utility.yul\":18180:18599   */\n      swap2\n      swap1\n      pop\n      jump\t// out\n\n    auxdata: 0xa26469706673582212203f09f647a11bd87224bfcd793ccf546e7c330943e0c0050a101cc849ce60c01d64736f6c634300081a0033\n}\n",
				"bytecode": {
					"linkReferences": {},
					"object": "608060405234801561000f575f80fd5b506040516118953803806118958339818101604052810190610031919061018b565b335f806101000a81548173ffffffffffffffffffffffffffffffffffffffff021916908373ffffffffffffffffffffffffffffffffffffffff16021790555080600281905550600160035f6101000a81548160ff02191690831515021790555061025863ffffffff16426100a591906101e3565b600181905550600460405180604001604052803373ffffffffffffffffffffffffffffffffffffffff16815260200183815250908060018154018082558091505060019003905f5260205f2090600202015f909190919091505f820151815f015f6101000a81548173ffffffffffffffffffffffffffffffffffffffff021916908373ffffffffffffffffffffffffffffffffffffffff16021790555060208201518160010155505050610216565b5f80fd5b5f819050919050565b61016a81610158565b8114610174575f80fd5b50565b5f8151905061018581610161565b92915050565b5f602082840312156101a05761019f610154565b5b5f6101ad84828501610177565b91505092915050565b7f4e487b71000000000000000000000000000000000000000000000000000000005f52601160045260245ffd5b5f6101ed82610158565b91506101f883610158565b92508282019050808211156102105761020f6101b6565b5b92915050565b611672806102235f395ff3fe6080604052600436106100c1575f3560e01c80637e12a2511161007e578063d3a8638611610058578063d3a863861461020b578063ecde973d14610235578063f90ca11714610272578063fe67a54b14610288576100c1565b80637e12a2511461018d57806392228006146101b7578063c2e8c498146101e1576100c1565b8063110b093a146100c557806314d2687c146100ef5780631998aeef146101195780633197cbb6146101235780635ec2c7bf1461014d5780636773fd7714610177575b5f80fd5b3480156100d0575f80fd5b506100d961029e565b6040516100e69190610dc6565b60405180910390f35b3480156100fa575f80fd5b506101036102a3565b6040516101109190610f0b565b60405180910390f35b61012161035d565b005b34801561012e575f80fd5b50610137610581565b6040516101449190610f3a565b60405180910390f35b348015610158575f80fd5b50610161610587565b60405161016e9190610f62565b60405180910390f35b348015610182575f80fd5b5061018b6105aa565b005b348015610198575f80fd5b506101a161088a565b6040516101ae9190610f3a565b60405180910390f35b3480156101c2575f80fd5b506101cb6108c5565b6040516101d89190610f95565b60405180910390f35b3480156101ec575f80fd5b506101f56108d7565b6040516102029190610fcc565b60405180910390f35b348015610216575f80fd5b5061021f6108dd565b60405161022c9190610f3a565b60405180910390f35b348015610240575f80fd5b5061025b60048036038101906102569190611013565b6108e3565b60405161026992919061103e565b60405180910390f35b34801561027d575f80fd5b50610286610931565b005b348015610293575f80fd5b5061029c610b2c565b005b600281565b60606004805480602002602001604051908101604052809291908181526020015f905b82821015610354578382905f5260205f2090600202016040518060400160405290815f82015f9054906101000a900473ffffffffffffffffffffffffffffffffffffffff1673ffffffffffffffffffffffffffffffffffffffff1673ffffffffffffffffffffffffffffffffffffffff168152602001600182015481525050815260200190600101906102c6565b50505050905090565b60035f9054906101000a900460ff166103ab576040517f08c379a00000000000000000000000000000000000000000000000000000000081526004016103a2906110bf565b60405180910390fd5b606460696103b761088a565b6103c1919061110a565b6103cb9190611178565b34101561040d576040517f08c379a000000000000000000000000000000000000000000000000000000000815260040161040490611218565b60405180910390fd5b6001544210610451576040517f08c379a000000000000000000000000000000000000000000000000000000000815260040161044890611280565b60405180910390fd5b61025863ffffffff1642600154610468919061129e565b1161048e5761025863ffffffff1660015f82825461048691906112d1565b925050819055505b600460405180604001604052803373ffffffffffffffffffffffffffffffffffffffff16815260200134815250908060018154018082558091505060019003905f5260205f2090600202015f909190919091505f820151815f015f6101000a81548173ffffffffffffffffffffffffffffffffffffffff021916908373ffffffffffffffffffffffffffffffffffffffff1602179055506020820151816001015550503373ffffffffffffffffffffffffffffffffffffffff167fdd0b6c6a77960e2066c96171b4d7ac9e8b4c184011f38544afa36a5bb63ec59f346040516105779190610f3a565b60405180910390a2565b60015481565b5f8054906101000a900473ffffffffffffffffffffffffffffffffffffffff1681565b5f8054906101000a900473ffffffffffffffffffffffffffffffffffffffff1673ffffffffffffffffffffffffffffffffffffffff163373ffffffffffffffffffffffffffffffffffffffff1614610637576040517f08c379a000000000000000000000000000000000000000000000000000000000815260040161062e90611374565b60405180910390fd5b60035f9054906101000a900460ff1615610686576040517f08c379a000000000000000000000000000000000000000000000000000000000815260040161067d906113dc565b60405180910390fd5b5f60048054905090505f600460018361069f919061129e565b815481106106b0576106af6113fa565b5b905f5260205f2090600202015f015f9054906101000a900473ffffffffffffffffffffffffffffffffffffffff1690505f600190505b6001836106f3919061129e565b811015610885575f6004828154811061070f5761070e6113fa565b5b905f5260205f2090600202015f015f9054906101000a900473ffffffffffffffffffffffffffffffffffffffff1690505f60048381548110610754576107536113fa565b5b905f5260205f2090600202016001015490508373ffffffffffffffffffffffffffffffffffffffff168273ffffffffffffffffffffffffffffffffffffffff16036107a0575050610878565b5f6064600260646107b19190611427565b60ff16836107bf919061110a565b6107c99190611178565b90505f8373ffffffffffffffffffffffffffffffffffffffff16826040516107f090611488565b5f6040518083038185875af1925050503d805f811461082a576040519150601f19603f3d011682016040523d82523d5f602084013e61082f565b606091505b5050905080610873576040517f08c379a000000000000000000000000000000000000000000000000000000000815260040161086a906114e6565b60405180910390fd5b505050505b80806001019150506106e6565b505050565b5f6004600160048054905061089f919061129e565b815481106108b0576108af6113fa565b5b905f5260205f20906002020160010154905090565b60035f9054906101000a900460ff1681565b61025881565b60025481565b600481815481106108f2575f80fd5b905f5260205f2090600202015f91509050805f015f9054906101000a900473ffffffffffffffffffffffffffffffffffffffff16908060010154905082565b60035f9054906101000a900460ff1661097f576040517f08c379a0000000000000000000000000000000000000000000000000000000008152600401610976906110bf565b60405180910390fd5b5f8060048054905090505f5b600182610998919061129e565b811015610aa1573373ffffffffffffffffffffffffffffffffffffffff16600482815481106109ca576109c96113fa565b5b905f5260205f2090600202015f015f9054906101000a900473ffffffffffffffffffffffffffffffffffffffff1673ffffffffffffffffffffffffffffffffffffffff1603610a945760048181548110610a2757610a266113fa565b5b905f5260205f2090600202016001015483610a4291906112d1565b925060048181548110610a5857610a576113fa565b5b905f5260205f2090600202015f8082015f6101000a81549073ffffffffffffffffffffffffffffffffffffffff0219169055600182015f905550505b808060010191505061098b565b505f8211610ae4576040517f08c379a0000000000000000000000000000000000000000000000000000000008152600401610adb9061154e565b60405180910390fd5b3373ffffffffffffffffffffffffffffffffffffffff166108fc8390811502906040515f60405180830381858888f19350505050158015610b27573d5f803e3d5ffd5b505050565b5f8054906101000a900473ffffffffffffffffffffffffffffffffffffffff1673ffffffffffffffffffffffffffffffffffffffff163373ffffffffffffffffffffffffffffffffffffffff1614610bb9576040517f08c379a0000000000000000000000000000000000000000000000000000000008152600401610bb090611374565b60405180910390fd5b600154421015610bfe576040517f08c379a0000000000000000000000000000000000000000000000000000000008152600401610bf5906115b6565b60405180910390fd5b5f60035f6101000a81548160ff0219169083151502179055505f60046001600480549050610c2c919061129e565b81548110610c3d57610c3c6113fa565b5b905f5260205f2090600202015f015f9054906101000a900473ffffffffffffffffffffffffffffffffffffffff1690505f60046001600480549050610c82919061129e565b81548110610c9357610c926113fa565b5b905f5260205f2090600202016001015490505f805f9054906101000a900473ffffffffffffffffffffffffffffffffffffffff1673ffffffffffffffffffffffffffffffffffffffff1682604051610cea90611488565b5f6040518083038185875af1925050503d805f8114610d24576040519150601f19603f3d011682016040523d82523d5f602084013e610d29565b606091505b5050905080610d6d576040517f08c379a0000000000000000000000000000000000000000000000000000000008152600401610d649061161e565b60405180910390fd5b7fdaec4582d5d9595688c8c98545fdd1c696d41c6aeaeb636737e84ed2f5c00eda8383604051610d9e92919061103e565b60405180910390a1505050565b5f60ff82169050919050565b610dc081610dab565b82525050565b5f602082019050610dd95f830184610db7565b92915050565b5f81519050919050565b5f82825260208201905092915050565b5f819050602082019050919050565b5f73ffffffffffffffffffffffffffffffffffffffff82169050919050565b5f610e3182610e08565b9050919050565b610e4181610e27565b82525050565b5f819050919050565b610e5981610e47565b82525050565b604082015f820151610e735f850182610e38565b506020820151610e866020850182610e50565b50505050565b5f610e978383610e5f565b60408301905092915050565b5f602082019050919050565b5f610eb982610ddf565b610ec38185610de9565b9350610ece83610df9565b805f5b83811015610efe578151610ee58882610e8c565b9750610ef083610ea3565b925050600181019050610ed1565b5085935050505092915050565b5f6020820190508181035f830152610f238184610eaf565b905092915050565b610f3481610e47565b82525050565b5f602082019050610f4d5f830184610f2b565b92915050565b610f5c81610e27565b82525050565b5f602082019050610f755f830184610f53565b92915050565b5f8115159050919050565b610f8f81610f7b565b82525050565b5f602082019050610fa85f830184610f86565b92915050565b5f63ffffffff82169050919050565b610fc681610fae565b82525050565b5f602082019050610fdf5f830184610fbd565b92915050565b5f80fd5b610ff281610e47565b8114610ffc575f80fd5b50565b5f8135905061100d81610fe9565b92915050565b5f6020828403121561102857611027610fe5565b5b5f61103584828501610fff565b91505092915050565b5f6040820190506110515f830185610f53565b61105e6020830184610f2b565b9392505050565b5f82825260208201905092915050565b7f5468652061756374696f6e206973206e6f7420616374697665000000000000005f82015250565b5f6110a9601983611065565b91506110b482611075565b602082019050919050565b5f6020820190508181035f8301526110d68161109d565b9050919050565b7f4e487b71000000000000000000000000000000000000000000000000000000005f52601160045260245ffd5b5f61111482610e47565b915061111f83610e47565b925082820261112d81610e47565b91508282048414831517611144576111436110dd565b5b5092915050565b7f4e487b71000000000000000000000000000000000000000000000000000000005f52601260045260245ffd5b5f61118282610e47565b915061118d83610e47565b92508261119d5761119c61114b565b5b828204905092915050565b7f54686520626964206d757374206265206174206c6561737420352520686967685f8201527f6572207468616e207468652063757272656e7420626964000000000000000000602082015250565b5f611202603783611065565b915061120d826111a8565b604082019050919050565b5f6020820190508181035f83015261122f816111f6565b9050919050565b7f5468652061756374696f6e2068617320656e64656400000000000000000000005f82015250565b5f61126a601583611065565b915061127582611236565b602082019050919050565b5f6020820190508181035f8301526112978161125e565b9050919050565b5f6112a882610e47565b91506112b383610e47565b92508282039050818111156112cb576112ca6110dd565b5b92915050565b5f6112db82610e47565b91506112e683610e47565b92508282019050808211156112fe576112fd6110dd565b5b92915050565b7f4f6e6c79207468652061756374696f6e6565722063616e2065786563757465205f8201527f746869732066756e6374696f6e00000000000000000000000000000000000000602082015250565b5f61135e602d83611065565b915061136982611304565b604082019050919050565b5f6020820190508181035f83015261138b81611352565b9050919050565b7f5468652061756374696f6e206973207374696c6c2061637469766500000000005f82015250565b5f6113c6601b83611065565b91506113d182611392565b602082019050919050565b5f6020820190508181035f8301526113f3816113ba565b9050919050565b7f4e487b71000000000000000000000000000000000000000000000000000000005f52603260045260245ffd5b5f61143182610dab565b915061143c83610dab565b9250828203905060ff811115611455576114546110dd565b5b92915050565b5f81905092915050565b50565b5f6114735f8361145b565b915061147e82611465565b5f82019050919050565b5f61149282611468565b9150819050919050565b7f526566756e6420746f20626964646572206661696c65640000000000000000005f82015250565b5f6114d0601783611065565b91506114db8261149c565b602082019050919050565b5f6020820190508181035f8301526114fd816114c4565b9050919050565b7f5468657265206973206e6f7468696e6720746f207769746864726177000000005f82015250565b5f611538601c83611065565b915061154382611504565b602082019050919050565b5f6020820190508181035f8301526115658161152c565b9050919050565b7f5468652061756374696f6e20686173206e6f7420656e646564000000000000005f82015250565b5f6115a0601983611065565b91506115ab8261156c565b602082019050919050565b5f6020820190508181035f8301526115cd81611594565b9050919050565b7f5472616e7366657220746f2061756374696f6e656572206661696c65640000005f82015250565b5f611608601d83611065565b9150611613826115d4565b602082019050919050565b5f6020820190508181035f830152611635816115fc565b905091905056fea26469706673582212203f09f647a11bd87224bfcd793ccf546e7c330943e0c0050a101cc849ce60c01d64736f6c634300081a0033",
					"opcodes": "PUSH1 0x80 PUSH1 0x40 MSTORE CALLVALUE DUP1 ISZERO PUSH2 0xF JUMPI PUSH0 DUP1 REVERT JUMPDEST POP PUSH1 0x40 MLOAD PUSH2 0x1895 CODESIZE SUB DUP1 PUSH2 0x1895 DUP4 CODECOPY DUP2 DUP2 ADD PUSH1 0x40 MSTORE DUP2 ADD SWAP1 PUSH2 0x31 SWAP2 SWAP1 PUSH2 0x18B JUMP JUMPDEST CALLER PUSH0 DUP1 PUSH2 0x100 EXP DUP2 SLOAD DUP2 PUSH20 0xFFFFFFFFFFFFFFFFFFFFFFFFFFFFFFFFFFFFFFFF MUL NOT AND SWAP1 DUP4 PUSH20 0xFFFFFFFFFFFFFFFFFFFFFFFFFFFFFFFFFFFFFFFF AND MUL OR SWAP1 SSTORE POP DUP1 PUSH1 0x2 DUP2 SWAP1 SSTORE POP PUSH1 0x1 PUSH1 0x3 PUSH0 PUSH2 0x100 EXP DUP2 SLOAD DUP2 PUSH1 0xFF MUL NOT AND SWAP1 DUP4 ISZERO ISZERO MUL OR SWAP1 SSTORE POP PUSH2 0x258 PUSH4 0xFFFFFFFF AND TIMESTAMP PUSH2 0xA5 SWAP2 SWAP1 PUSH2 0x1E3 JUMP JUMPDEST PUSH1 0x1 DUP2 SWAP1 SSTORE POP PUSH1 0x4 PUSH1 0x40 MLOAD DUP1 PUSH1 0x40 ADD PUSH1 0x40 MSTORE DUP1 CALLER PUSH20 0xFFFFFFFFFFFFFFFFFFFFFFFFFFFFFFFFFFFFFFFF AND DUP2 MSTORE PUSH1 0x20 ADD DUP4 DUP2 MSTORE POP SWAP1 DUP1 PUSH1 0x1 DUP2 SLOAD ADD DUP1 DUP3 SSTORE DUP1 SWAP2 POP POP PUSH1 0x1 SWAP1 SUB SWAP1 PUSH0 MSTORE PUSH1 0x20 PUSH0 KECCAK256 SWAP1 PUSH1 0x2 MUL ADD PUSH0 SWAP1 SWAP2 SWAP1 SWAP2 SWAP1 SWAP2 POP PUSH0 DUP3 ADD MLOAD DUP2 PUSH0 ADD PUSH0 PUSH2 0x100 EXP DUP2 SLOAD DUP2 PUSH20 0xFFFFFFFFFFFFFFFFFFFFFFFFFFFFFFFFFFFFFFFF MUL NOT AND SWAP1 DUP4 PUSH20 0xFFFFFFFFFFFFFFFFFFFFFFFFFFFFFFFFFFFFFFFF AND MUL OR SWAP1 SSTORE POP PUSH1 0x20 DUP3 ADD MLOAD DUP2 PUSH1 0x1 ADD SSTORE POP POP POP PUSH2 0x216 JUMP JUMPDEST PUSH0 DUP1 REVERT JUMPDEST PUSH0 DUP2 SWAP1 POP SWAP2 SWAP1 POP JUMP JUMPDEST PUSH2 0x16A DUP2 PUSH2 0x158 JUMP JUMPDEST DUP2 EQ PUSH2 0x174 JUMPI PUSH0 DUP1 REVERT JUMPDEST POP JUMP JUMPDEST PUSH0 DUP2 MLOAD SWAP1 POP PUSH2 0x185 DUP2 PUSH2 0x161 JUMP JUMPDEST SWAP3 SWAP2 POP POP JUMP JUMPDEST PUSH0 PUSH1 0x20 DUP3 DUP5 SUB SLT ISZERO PUSH2 0x1A0 JUMPI PUSH2 0x19F PUSH2 0x154 JUMP JUMPDEST JUMPDEST PUSH0 PUSH2 0x1AD DUP5 DUP3 DUP6 ADD PUSH2 0x177 JUMP JUMPDEST SWAP2 POP POP SWAP3 SWAP2 POP POP JUMP JUMPDEST PUSH32 0x4E487B7100000000000000000000000000000000000000000000000000000000 PUSH0 MSTORE PUSH1 0x11 PUSH1 0x4 MSTORE PUSH1 0x24 PUSH0 REVERT JUMPDEST PUSH0 PUSH2 0x1ED DUP3 PUSH2 0x158 JUMP JUMPDEST SWAP2 POP PUSH2 0x1F8 DUP4 PUSH2 0x158 JUMP JUMPDEST SWAP3 POP DUP3 DUP3 ADD SWAP1 POP DUP1 DUP3 GT ISZERO PUSH2 0x210 JUMPI PUSH2 0x20F PUSH2 0x1B6 JUMP JUMPDEST JUMPDEST SWAP3 SWAP2 POP POP JUMP JUMPDEST PUSH2 0x1672 DUP1 PUSH2 0x223 PUSH0 CODECOPY PUSH0 RETURN INVALID PUSH1 0x80 PUSH1 0x40 MSTORE PUSH1 0x4 CALLDATASIZE LT PUSH2 0xC1 JUMPI PUSH0 CALLDATALOAD PUSH1 0xE0 SHR DUP1 PUSH4 0x7E12A251 GT PUSH2 0x7E JUMPI DUP1 PUSH4 0xD3A86386 GT PUSH2 0x58 JUMPI DUP1 PUSH4 0xD3A86386 EQ PUSH2 0x20B JUMPI DUP1 PUSH4 0xECDE973D EQ PUSH2 0x235 JUMPI DUP1 PUSH4 0xF90CA117 EQ PUSH2 0x272 JUMPI DUP1 PUSH4 0xFE67A54B EQ PUSH2 0x288 JUMPI PUSH2 0xC1 JUMP JUMPDEST DUP1 PUSH4 0x7E12A251 EQ PUSH2 0x18D JUMPI DUP1 PUSH4 0x92228006 EQ PUSH2 0x1B7 JUMPI DUP1 PUSH4 0xC2E8C498 EQ PUSH2 0x1E1 JUMPI PUSH2 0xC1 JUMP JUMPDEST DUP1 PUSH4 0x110B093A EQ PUSH2 0xC5 JUMPI DUP1 PUSH4 0x14D2687C EQ PUSH2 0xEF JUMPI DUP1 PUSH4 0x1998AEEF EQ PUSH2 0x119 JUMPI DUP1 PUSH4 0x3197CBB6 EQ PUSH2 0x123 JUMPI DUP1 PUSH4 0x5EC2C7BF EQ PUSH2 0x14D JUMPI DUP1 PUSH4 0x6773FD77 EQ PUSH2 0x177 JUMPI JUMPDEST PUSH0 DUP1 REVERT JUMPDEST CALLVALUE DUP1 ISZERO PUSH2 0xD0 JUMPI PUSH0 DUP1 REVERT JUMPDEST POP PUSH2 0xD9 PUSH2 0x29E JUMP JUMPDEST PUSH1 0x40 MLOAD PUSH2 0xE6 SWAP2 SWAP1 PUSH2 0xDC6 JUMP JUMPDEST PUSH1 0x40 MLOAD DUP1 SWAP2 SUB SWAP1 RETURN JUMPDEST CALLVALUE DUP1 ISZERO PUSH2 0xFA JUMPI PUSH0 DUP1 REVERT JUMPDEST POP PUSH2 0x103 PUSH2 0x2A3 JUMP JUMPDEST PUSH1 0x40 MLOAD PUSH2 0x110 SWAP2 SWAP1 PUSH2 0xF0B JUMP JUMPDEST PUSH1 0x40 MLOAD DUP1 SWAP2 SUB SWAP1 RETURN JUMPDEST PUSH2 0x121 PUSH2 0x35D JUMP JUMPDEST STOP JUMPDEST CALLVALUE DUP1 ISZERO PUSH2 0x12E JUMPI PUSH0 DUP1 REVERT JUMPDEST POP PUSH2 0x137 PUSH2 0x581 JUMP JUMPDEST PUSH1 0x40 MLOAD PUSH2 0x144 SWAP2 SWAP1 PUSH2 0xF3A JUMP JUMPDEST PUSH1 0x40 MLOAD DUP1 SWAP2 SUB SWAP1 RETURN JUMPDEST CALLVALUE DUP1 ISZERO PUSH2 0x158 JUMPI PUSH0 DUP1 REVERT JUMPDEST POP PUSH2 0x161 PUSH2 0x587 JUMP JUMPDEST PUSH1 0x40 MLOAD PUSH2 0x16E SWAP2 SWAP1 PUSH2 0xF62 JUMP JUMPDEST PUSH1 0x40 MLOAD DUP1 SWAP2 SUB SWAP1 RETURN JUMPDEST CALLVALUE DUP1 ISZERO PUSH2 0x182 JUMPI PUSH0 DUP1 REVERT JUMPDEST POP PUSH2 0x18B PUSH2 0x5AA JUMP JUMPDEST STOP JUMPDEST CALLVALUE DUP1 ISZERO PUSH2 0x198 JUMPI PUSH0 DUP1 REVERT JUMPDEST POP PUSH2 0x1A1 PUSH2 0x88A JUMP JUMPDEST PUSH1 0x40 MLOAD PUSH2 0x1AE SWAP2 SWAP1 PUSH2 0xF3A JUMP JUMPDEST PUSH1 0x40 MLOAD DUP1 SWAP2 SUB SWAP1 RETURN JUMPDEST CALLVALUE DUP1 ISZERO PUSH2 0x1C2 JUMPI PUSH0 DUP1 REVERT JUMPDEST POP PUSH2 0x1CB PUSH2 0x8C5 JUMP JUMPDEST PUSH1 0x40 MLOAD PUSH2 0x1D8 SWAP2 SWAP1 PUSH2 0xF95 JUMP JUMPDEST PUSH1 0x40 MLOAD DUP1 SWAP2 SUB SWAP1 RETURN JUMPDEST CALLVALUE DUP1 ISZERO PUSH2 0x1EC JUMPI PUSH0 DUP1 REVERT JUMPDEST POP PUSH2 0x1F5 PUSH2 0x8D7 JUMP JUMPDEST PUSH1 0x40 MLOAD PUSH2 0x202 SWAP2 SWAP1 PUSH2 0xFCC JUMP JUMPDEST PUSH1 0x40 MLOAD DUP1 SWAP2 SUB SWAP1 RETURN JUMPDEST CALLVALUE DUP1 ISZERO PUSH2 0x216 JUMPI PUSH0 DUP1 REVERT JUMPDEST POP PUSH2 0x21F PUSH2 0x8DD JUMP JUMPDEST PUSH1 0x40 MLOAD PUSH2 0x22C SWAP2 SWAP1 PUSH2 0xF3A JUMP JUMPDEST PUSH1 0x40 MLOAD DUP1 SWAP2 SUB SWAP1 RETURN JUMPDEST CALLVALUE DUP1 ISZERO PUSH2 0x240 JUMPI PUSH0 DUP1 REVERT JUMPDEST POP PUSH2 0x25B PUSH1 0x4 DUP1 CALLDATASIZE SUB DUP2 ADD SWAP1 PUSH2 0x256 SWAP2 SWAP1 PUSH2 0x1013 JUMP JUMPDEST PUSH2 0x8E3 JUMP JUMPDEST PUSH1 0x40 MLOAD PUSH2 0x269 SWAP3 SWAP2 SWAP1 PUSH2 0x103E JUMP JUMPDEST PUSH1 0x40 MLOAD DUP1 SWAP2 SUB SWAP1 RETURN JUMPDEST CALLVALUE DUP1 ISZERO PUSH2 0x27D JUMPI PUSH0 DUP1 REVERT JUMPDEST POP PUSH2 0x286 PUSH2 0x931 JUMP JUMPDEST STOP JUMPDEST CALLVALUE DUP1 ISZERO PUSH2 0x293 JUMPI PUSH0 DUP1 REVERT JUMPDEST POP PUSH2 0x29C PUSH2 0xB2C JUMP JUMPDEST STOP JUMPDEST PUSH1 0x2 DUP2 JUMP JUMPDEST PUSH1 0x60 PUSH1 0x4 DUP1 SLOAD DUP1 PUSH1 0x20 MUL PUSH1 0x20 ADD PUSH1 0x40 MLOAD SWAP1 DUP2 ADD PUSH1 0x40 MSTORE DUP1 SWAP3 SWAP2 SWAP1 DUP2 DUP2 MSTORE PUSH1 0x20 ADD PUSH0 SWAP1 JUMPDEST DUP3 DUP3 LT ISZERO PUSH2 0x354 JUMPI DUP4 DUP3 SWAP1 PUSH0 MSTORE PUSH1 0x20 PUSH0 KECCAK256 SWAP1 PUSH1 0x2 MUL ADD PUSH1 0x40 MLOAD DUP1 PUSH1 0x40 ADD PUSH1 0x40 MSTORE SWAP1 DUP2 PUSH0 DUP3 ADD PUSH0 SWAP1 SLOAD SWAP1 PUSH2 0x100 EXP SWAP1 DIV PUSH20 0xFFFFFFFFFFFFFFFFFFFFFFFFFFFFFFFFFFFFFFFF AND PUSH20 0xFFFFFFFFFFFFFFFFFFFFFFFFFFFFFFFFFFFFFFFF AND PUSH20 0xFFFFFFFFFFFFFFFFFFFFFFFFFFFFFFFFFFFFFFFF AND DUP2 MSTORE PUSH1 0x20 ADD PUSH1 0x1 DUP3 ADD SLOAD DUP2 MSTORE POP POP DUP2 MSTORE PUSH1 0x20 ADD SWAP1 PUSH1 0x1 ADD SWAP1 PUSH2 0x2C6 JUMP JUMPDEST POP POP POP POP SWAP1 POP SWAP1 JUMP JUMPDEST PUSH1 0x3 PUSH0 SWAP1 SLOAD SWAP1 PUSH2 0x100 EXP SWAP1 DIV PUSH1 0xFF AND PUSH2 0x3AB JUMPI PUSH1 0x40 MLOAD PUSH32 0x8C379A000000000000000000000000000000000000000000000000000000000 DUP2 MSTORE PUSH1 0x4 ADD PUSH2 0x3A2 SWAP1 PUSH2 0x10BF JUMP JUMPDEST PUSH1 0x40 MLOAD DUP1 SWAP2 SUB SWAP1 REVERT JUMPDEST PUSH1 0x64 PUSH1 0x69 PUSH2 0x3B7 PUSH2 0x88A JUMP JUMPDEST PUSH2 0x3C1 SWAP2 SWAP1 PUSH2 0x110A JUMP JUMPDEST PUSH2 0x3CB SWAP2 SWAP1 PUSH2 0x1178 JUMP JUMPDEST CALLVALUE LT ISZERO PUSH2 0x40D JUMPI PUSH1 0x40 MLOAD PUSH32 0x8C379A000000000000000000000000000000000000000000000000000000000 DUP2 MSTORE PUSH1 0x4 ADD PUSH2 0x404 SWAP1 PUSH2 0x1218 JUMP JUMPDEST PUSH1 0x40 MLOAD DUP1 SWAP2 SUB SWAP1 REVERT JUMPDEST PUSH1 0x1 SLOAD TIMESTAMP LT PUSH2 0x451 JUMPI PUSH1 0x40 MLOAD PUSH32 0x8C379A000000000000000000000000000000000000000000000000000000000 DUP2 MSTORE PUSH1 0x4 ADD PUSH2 0x448 SWAP1 PUSH2 0x1280 JUMP JUMPDEST PUSH1 0x40 MLOAD DUP1 SWAP2 SUB SWAP1 REVERT JUMPDEST PUSH2 0x258 PUSH4 0xFFFFFFFF AND TIMESTAMP PUSH1 0x1 SLOAD PUSH2 0x468 SWAP2 SWAP1 PUSH2 0x129E JUMP JUMPDEST GT PUSH2 0x48E JUMPI PUSH2 0x258 PUSH4 0xFFFFFFFF AND PUSH1 0x1 PUSH0 DUP3 DUP3 SLOAD PUSH2 0x486 SWAP2 SWAP1 PUSH2 0x12D1 JUMP JUMPDEST SWAP3 POP POP DUP2 SWAP1 SSTORE POP JUMPDEST PUSH1 0x4 PUSH1 0x40 MLOAD DUP1 PUSH1 0x40 ADD PUSH1 0x40 MSTORE DUP1 CALLER PUSH20 0xFFFFFFFFFFFFFFFFFFFFFFFFFFFFFFFFFFFFFFFF AND DUP2 MSTORE PUSH1 0x20 ADD CALLVALUE DUP2 MSTORE POP SWAP1 DUP1 PUSH1 0x1 DUP2 SLOAD ADD DUP1 DUP3 SSTORE DUP1 SWAP2 POP POP PUSH1 0x1 SWAP1 SUB SWAP1 PUSH0 MSTORE PUSH1 0x20 PUSH0 KECCAK256 SWAP1 PUSH1 0x2 MUL ADD PUSH0 SWAP1 SWAP2 SWAP1 SWAP2 SWAP1 SWAP2 POP PUSH0 DUP3 ADD MLOAD DUP2 PUSH0 ADD PUSH0 PUSH2 0x100 EXP DUP2 SLOAD DUP2 PUSH20 0xFFFFFFFFFFFFFFFFFFFFFFFFFFFFFFFFFFFFFFFF MUL NOT AND SWAP1 DUP4 PUSH20 0xFFFFFFFFFFFFFFFFFFFFFFFFFFFFFFFFFFFFFFFF AND MUL OR SWAP1 SSTORE POP PUSH1 0x20 DUP3 ADD MLOAD DUP2 PUSH1 0x1 ADD SSTORE POP POP CALLER PUSH20 0xFFFFFFFFFFFFFFFFFFFFFFFFFFFFFFFFFFFFFFFF AND PUSH32 0xDD0B6C6A77960E2066C96171B4D7AC9E8B4C184011F38544AFA36A5BB63EC59F CALLVALUE PUSH1 0x40 MLOAD PUSH2 0x577 SWAP2 SWAP1 PUSH2 0xF3A JUMP JUMPDEST PUSH1 0x40 MLOAD DUP1 SWAP2 SUB SWAP1 LOG2 JUMP JUMPDEST PUSH1 0x1 SLOAD DUP2 JUMP JUMPDEST PUSH0 DUP1 SLOAD SWAP1 PUSH2 0x100 EXP SWAP1 DIV PUSH20 0xFFFFFFFFFFFFFFFFFFFFFFFFFFFFFFFFFFFFFFFF AND DUP2 JUMP JUMPDEST PUSH0 DUP1 SLOAD SWAP1 PUSH2 0x100 EXP SWAP1 DIV PUSH20 0xFFFFFFFFFFFFFFFFFFFFFFFFFFFFFFFFFFFFFFFF AND PUSH20 0xFFFFFFFFFFFFFFFFFFFFFFFFFFFFFFFFFFFFFFFF AND CALLER PUSH20 0xFFFFFFFFFFFFFFFFFFFFFFFFFFFFFFFFFFFFFFFF AND EQ PUSH2 0x637 JUMPI PUSH1 0x40 MLOAD PUSH32 0x8C379A000000000000000000000000000000000000000000000000000000000 DUP2 MSTORE PUSH1 0x4 ADD PUSH2 0x62E SWAP1 PUSH2 0x1374 JUMP JUMPDEST PUSH1 0x40 MLOAD DUP1 SWAP2 SUB SWAP1 REVERT JUMPDEST PUSH1 0x3 PUSH0 SWAP1 SLOAD SWAP1 PUSH2 0x100 EXP SWAP1 DIV PUSH1 0xFF AND ISZERO PUSH2 0x686 JUMPI PUSH1 0x40 MLOAD PUSH32 0x8C379A000000000000000000000000000000000000000000000000000000000 DUP2 MSTORE PUSH1 0x4 ADD PUSH2 0x67D SWAP1 PUSH2 0x13DC JUMP JUMPDEST PUSH1 0x40 MLOAD DUP1 SWAP2 SUB SWAP1 REVERT JUMPDEST PUSH0 PUSH1 0x4 DUP1 SLOAD SWAP1 POP SWAP1 POP PUSH0 PUSH1 0x4 PUSH1 0x1 DUP4 PUSH2 0x69F SWAP2 SWAP1 PUSH2 0x129E JUMP JUMPDEST DUP2 SLOAD DUP2 LT PUSH2 0x6B0 JUMPI PUSH2 0x6AF PUSH2 0x13FA JUMP JUMPDEST JUMPDEST SWAP1 PUSH0 MSTORE PUSH1 0x20 PUSH0 KECCAK256 SWAP1 PUSH1 0x2 MUL ADD PUSH0 ADD PUSH0 SWAP1 SLOAD SWAP1 PUSH2 0x100 EXP SWAP1 DIV PUSH20 0xFFFFFFFFFFFFFFFFFFFFFFFFFFFFFFFFFFFFFFFF AND SWAP1 POP PUSH0 PUSH1 0x1 SWAP1 POP JUMPDEST PUSH1 0x1 DUP4 PUSH2 0x6F3 SWAP2 SWAP1 PUSH2 0x129E JUMP JUMPDEST DUP2 LT ISZERO PUSH2 0x885 JUMPI PUSH0 PUSH1 0x4 DUP3 DUP2 SLOAD DUP2 LT PUSH2 0x70F JUMPI PUSH2 0x70E PUSH2 0x13FA JUMP JUMPDEST JUMPDEST SWAP1 PUSH0 MSTORE PUSH1 0x20 PUSH0 KECCAK256 SWAP1 PUSH1 0x2 MUL ADD PUSH0 ADD PUSH0 SWAP1 SLOAD SWAP1 PUSH2 0x100 EXP SWAP1 DIV PUSH20 0xFFFFFFFFFFFFFFFFFFFFFFFFFFFFFFFFFFFFFFFF AND SWAP1 POP PUSH0 PUSH1 0x4 DUP4 DUP2 SLOAD DUP2 LT PUSH2 0x754 JUMPI PUSH2 0x753 PUSH2 0x13FA JUMP JUMPDEST JUMPDEST SWAP1 PUSH0 MSTORE PUSH1 0x20 PUSH0 KECCAK256 SWAP1 PUSH1 0x2 MUL ADD PUSH1 0x1 ADD SLOAD SWAP1 POP DUP4 PUSH20 0xFFFFFFFFFFFFFFFFFFFFFFFFFFFFFFFFFFFFFFFF AND DUP3 PUSH20 0xFFFFFFFFFFFFFFFFFFFFFFFFFFFFFFFFFFFFFFFF AND SUB PUSH2 0x7A0 JUMPI POP POP PUSH2 0x878 JUMP JUMPDEST PUSH0 PUSH1 0x64 PUSH1 0x2 PUSH1 0x64 PUSH2 0x7B1 SWAP2 SWAP1 PUSH2 0x1427 JUMP JUMPDEST PUSH1 0xFF AND DUP4 PUSH2 0x7BF SWAP2 SWAP1 PUSH2 0x110A JUMP JUMPDEST PUSH2 0x7C9 SWAP2 SWAP1 PUSH2 0x1178 JUMP JUMPDEST SWAP1 POP PUSH0 DUP4 PUSH20 0xFFFFFFFFFFFFFFFFFFFFFFFFFFFFFFFFFFFFFFFF AND DUP3 PUSH1 0x40 MLOAD PUSH2 0x7F0 SWAP1 PUSH2 0x1488 JUMP JUMPDEST PUSH0 PUSH1 0x40 MLOAD DUP1 DUP4 SUB DUP2 DUP6 DUP8 GAS CALL SWAP3 POP POP POP RETURNDATASIZE DUP1 PUSH0 DUP2 EQ PUSH2 0x82A JUMPI PUSH1 0x40 MLOAD SWAP2 POP PUSH1 0x1F NOT PUSH1 0x3F RETURNDATASIZE ADD AND DUP3 ADD PUSH1 0x40 MSTORE RETURNDATASIZE DUP3 MSTORE RETURNDATASIZE PUSH0 PUSH1 0x20 DUP5 ADD RETURNDATACOPY PUSH2 0x82F JUMP JUMPDEST PUSH1 0x60 SWAP2 POP JUMPDEST POP POP SWAP1 POP DUP1 PUSH2 0x873 JUMPI PUSH1 0x40 MLOAD PUSH32 0x8C379A000000000000000000000000000000000000000000000000000000000 DUP2 MSTORE PUSH1 0x4 ADD PUSH2 0x86A SWAP1 PUSH2 0x14E6 JUMP JUMPDEST PUSH1 0x40 MLOAD DUP1 SWAP2 SUB SWAP1 REVERT JUMPDEST POP POP POP POP JUMPDEST DUP1 DUP1 PUSH1 0x1 ADD SWAP2 POP POP PUSH2 0x6E6 JUMP JUMPDEST POP POP POP JUMP JUMPDEST PUSH0 PUSH1 0x4 PUSH1 0x1 PUSH1 0x4 DUP1 SLOAD SWAP1 POP PUSH2 0x89F SWAP2 SWAP1 PUSH2 0x129E JUMP JUMPDEST DUP2 SLOAD DUP2 LT PUSH2 0x8B0 JUMPI PUSH2 0x8AF PUSH2 0x13FA JUMP JUMPDEST JUMPDEST SWAP1 PUSH0 MSTORE PUSH1 0x20 PUSH0 KECCAK256 SWAP1 PUSH1 0x2 MUL ADD PUSH1 0x1 ADD SLOAD SWAP1 POP SWAP1 JUMP JUMPDEST PUSH1 0x3 PUSH0 SWAP1 SLOAD SWAP1 PUSH2 0x100 EXP SWAP1 DIV PUSH1 0xFF AND DUP2 JUMP JUMPDEST PUSH2 0x258 DUP2 JUMP JUMPDEST PUSH1 0x2 SLOAD DUP2 JUMP JUMPDEST PUSH1 0x4 DUP2 DUP2 SLOAD DUP2 LT PUSH2 0x8F2 JUMPI PUSH0 DUP1 REVERT JUMPDEST SWAP1 PUSH0 MSTORE PUSH1 0x20 PUSH0 KECCAK256 SWAP1 PUSH1 0x2 MUL ADD PUSH0 SWAP2 POP SWAP1 POP DUP1 PUSH0 ADD PUSH0 SWAP1 SLOAD SWAP1 PUSH2 0x100 EXP SWAP1 DIV PUSH20 0xFFFFFFFFFFFFFFFFFFFFFFFFFFFFFFFFFFFFFFFF AND SWAP1 DUP1 PUSH1 0x1 ADD SLOAD SWAP1 POP DUP3 JUMP JUMPDEST PUSH1 0x3 PUSH0 SWAP1 SLOAD SWAP1 PUSH2 0x100 EXP SWAP1 DIV PUSH1 0xFF AND PUSH2 0x97F JUMPI PUSH1 0x40 MLOAD PUSH32 0x8C379A000000000000000000000000000000000000000000000000000000000 DUP2 MSTORE PUSH1 0x4 ADD PUSH2 0x976 SWAP1 PUSH2 0x10BF JUMP JUMPDEST PUSH1 0x40 MLOAD DUP1 SWAP2 SUB SWAP1 REVERT JUMPDEST PUSH0 DUP1 PUSH1 0x4 DUP1 SLOAD SWAP1 POP SWAP1 POP PUSH0 JUMPDEST PUSH1 0x1 DUP3 PUSH2 0x998 SWAP2 SWAP1 PUSH2 0x129E JUMP JUMPDEST DUP2 LT ISZERO PUSH2 0xAA1 JUMPI CALLER PUSH20 0xFFFFFFFFFFFFFFFFFFFFFFFFFFFFFFFFFFFFFFFF AND PUSH1 0x4 DUP3 DUP2 SLOAD DUP2 LT PUSH2 0x9CA JUMPI PUSH2 0x9C9 PUSH2 0x13FA JUMP JUMPDEST JUMPDEST SWAP1 PUSH0 MSTORE PUSH1 0x20 PUSH0 KECCAK256 SWAP1 PUSH1 0x2 MUL ADD PUSH0 ADD PUSH0 SWAP1 SLOAD SWAP1 PUSH2 0x100 EXP SWAP1 DIV PUSH20 0xFFFFFFFFFFFFFFFFFFFFFFFFFFFFFFFFFFFFFFFF AND PUSH20 0xFFFFFFFFFFFFFFFFFFFFFFFFFFFFFFFFFFFFFFFF AND SUB PUSH2 0xA94 JUMPI PUSH1 0x4 DUP2 DUP2 SLOAD DUP2 LT PUSH2 0xA27 JUMPI PUSH2 0xA26 PUSH2 0x13FA JUMP JUMPDEST JUMPDEST SWAP1 PUSH0 MSTORE PUSH1 0x20 PUSH0 KECCAK256 SWAP1 PUSH1 0x2 MUL ADD PUSH1 0x1 ADD SLOAD DUP4 PUSH2 0xA42 SWAP2 SWAP1 PUSH2 0x12D1 JUMP JUMPDEST SWAP3 POP PUSH1 0x4 DUP2 DUP2 SLOAD DUP2 LT PUSH2 0xA58 JUMPI PUSH2 0xA57 PUSH2 0x13FA JUMP JUMPDEST JUMPDEST SWAP1 PUSH0 MSTORE PUSH1 0x20 PUSH0 KECCAK256 SWAP1 PUSH1 0x2 MUL ADD PUSH0 DUP1 DUP3 ADD PUSH0 PUSH2 0x100 EXP DUP2 SLOAD SWAP1 PUSH20 0xFFFFFFFFFFFFFFFFFFFFFFFFFFFFFFFFFFFFFFFF MUL NOT AND SWAP1 SSTORE PUSH1 0x1 DUP3 ADD PUSH0 SWAP1 SSTORE POP POP JUMPDEST DUP1 DUP1 PUSH1 0x1 ADD SWAP2 POP POP PUSH2 0x98B JUMP JUMPDEST POP PUSH0 DUP3 GT PUSH2 0xAE4 JUMPI PUSH1 0x40 MLOAD PUSH32 0x8C379A000000000000000000000000000000000000000000000000000000000 DUP2 MSTORE PUSH1 0x4 ADD PUSH2 0xADB SWAP1 PUSH2 0x154E JUMP JUMPDEST PUSH1 0x40 MLOAD DUP1 SWAP2 SUB SWAP1 REVERT JUMPDEST CALLER PUSH20 0xFFFFFFFFFFFFFFFFFFFFFFFFFFFFFFFFFFFFFFFF AND PUSH2 0x8FC DUP4 SWAP1 DUP2 ISZERO MUL SWAP1 PUSH1 0x40 MLOAD PUSH0 PUSH1 0x40 MLOAD DUP1 DUP4 SUB DUP2 DUP6 DUP9 DUP9 CALL SWAP4 POP POP POP POP ISZERO DUP1 ISZERO PUSH2 0xB27 JUMPI RETURNDATASIZE PUSH0 DUP1 RETURNDATACOPY RETURNDATASIZE PUSH0 REVERT JUMPDEST POP POP POP JUMP JUMPDEST PUSH0 DUP1 SLOAD SWAP1 PUSH2 0x100 EXP SWAP1 DIV PUSH20 0xFFFFFFFFFFFFFFFFFFFFFFFFFFFFFFFFFFFFFFFF AND PUSH20 0xFFFFFFFFFFFFFFFFFFFFFFFFFFFFFFFFFFFFFFFF AND CALLER PUSH20 0xFFFFFFFFFFFFFFFFFFFFFFFFFFFFFFFFFFFFFFFF AND EQ PUSH2 0xBB9 JUMPI PUSH1 0x40 MLOAD PUSH32 0x8C379A000000000000000000000000000000000000000000000000000000000 DUP2 MSTORE PUSH1 0x4 ADD PUSH2 0xBB0 SWAP1 PUSH2 0x1374 JUMP JUMPDEST PUSH1 0x40 MLOAD DUP1 SWAP2 SUB SWAP1 REVERT JUMPDEST PUSH1 0x1 SLOAD TIMESTAMP LT ISZERO PUSH2 0xBFE JUMPI PUSH1 0x40 MLOAD PUSH32 0x8C379A000000000000000000000000000000000000000000000000000000000 DUP2 MSTORE PUSH1 0x4 ADD PUSH2 0xBF5 SWAP1 PUSH2 0x15B6 JUMP JUMPDEST PUSH1 0x40 MLOAD DUP1 SWAP2 SUB SWAP1 REVERT JUMPDEST PUSH0 PUSH1 0x3 PUSH0 PUSH2 0x100 EXP DUP2 SLOAD DUP2 PUSH1 0xFF MUL NOT AND SWAP1 DUP4 ISZERO ISZERO MUL OR SWAP1 SSTORE POP PUSH0 PUSH1 0x4 PUSH1 0x1 PUSH1 0x4 DUP1 SLOAD SWAP1 POP PUSH2 0xC2C SWAP2 SWAP1 PUSH2 0x129E JUMP JUMPDEST DUP2 SLOAD DUP2 LT PUSH2 0xC3D JUMPI PUSH2 0xC3C PUSH2 0x13FA JUMP JUMPDEST JUMPDEST SWAP1 PUSH0 MSTORE PUSH1 0x20 PUSH0 KECCAK256 SWAP1 PUSH1 0x2 MUL ADD PUSH0 ADD PUSH0 SWAP1 SLOAD SWAP1 PUSH2 0x100 EXP SWAP1 DIV PUSH20 0xFFFFFFFFFFFFFFFFFFFFFFFFFFFFFFFFFFFFFFFF AND SWAP1 POP PUSH0 PUSH1 0x4 PUSH1 0x1 PUSH1 0x4 DUP1 SLOAD SWAP1 POP PUSH2 0xC82 SWAP2 SWAP1 PUSH2 0x129E JUMP JUMPDEST DUP2 SLOAD DUP2 LT PUSH2 0xC93 JUMPI PUSH2 0xC92 PUSH2 0x13FA JUMP JUMPDEST JUMPDEST SWAP1 PUSH0 MSTORE PUSH1 0x20 PUSH0 KECCAK256 SWAP1 PUSH1 0x2 MUL ADD PUSH1 0x1 ADD SLOAD SWAP1 POP PUSH0 DUP1 PUSH0 SWAP1 SLOAD SWAP1 PUSH2 0x100 EXP SWAP1 DIV PUSH20 0xFFFFFFFFFFFFFFFFFFFFFFFFFFFFFFFFFFFFFFFF AND PUSH20 0xFFFFFFFFFFFFFFFFFFFFFFFFFFFFFFFFFFFFFFFF AND DUP3 PUSH1 0x40 MLOAD PUSH2 0xCEA SWAP1 PUSH2 0x1488 JUMP JUMPDEST PUSH0 PUSH1 0x40 MLOAD DUP1 DUP4 SUB DUP2 DUP6 DUP8 GAS CALL SWAP3 POP POP POP RETURNDATASIZE DUP1 PUSH0 DUP2 EQ PUSH2 0xD24 JUMPI PUSH1 0x40 MLOAD SWAP2 POP PUSH1 0x1F NOT PUSH1 0x3F RETURNDATASIZE ADD AND DUP3 ADD PUSH1 0x40 MSTORE RETURNDATASIZE DUP3 MSTORE RETURNDATASIZE PUSH0 PUSH1 0x20 DUP5 ADD RETURNDATACOPY PUSH2 0xD29 JUMP JUMPDEST PUSH1 0x60 SWAP2 POP JUMPDEST POP POP SWAP1 POP DUP1 PUSH2 0xD6D JUMPI PUSH1 0x40 MLOAD PUSH32 0x8C379A000000000000000000000000000000000000000000000000000000000 DUP2 MSTORE PUSH1 0x4 ADD PUSH2 0xD64 SWAP1 PUSH2 0x161E JUMP JUMPDEST PUSH1 0x40 MLOAD DUP1 SWAP2 SUB SWAP1 REVERT JUMPDEST PUSH32 0xDAEC4582D5D9595688C8C98545FDD1C696D41C6AEAEB636737E84ED2F5C00EDA DUP4 DUP4 PUSH1 0x40 MLOAD PUSH2 0xD9E SWAP3 SWAP2 SWAP1 PUSH2 0x103E JUMP JUMPDEST PUSH1 0x40 MLOAD DUP1 SWAP2 SUB SWAP1 LOG1 POP POP POP JUMP JUMPDEST PUSH0 PUSH1 0xFF DUP3 AND SWAP1 POP SWAP2 SWAP1 POP JUMP JUMPDEST PUSH2 0xDC0 DUP2 PUSH2 0xDAB JUMP JUMPDEST DUP3 MSTORE POP POP JUMP JUMPDEST PUSH0 PUSH1 0x20 DUP3 ADD SWAP1 POP PUSH2 0xDD9 PUSH0 DUP4 ADD DUP5 PUSH2 0xDB7 JUMP JUMPDEST SWAP3 SWAP2 POP POP JUMP JUMPDEST PUSH0 DUP2 MLOAD SWAP1 POP SWAP2 SWAP1 POP JUMP JUMPDEST PUSH0 DUP3 DUP3 MSTORE PUSH1 0x20 DUP3 ADD SWAP1 POP SWAP3 SWAP2 POP POP JUMP JUMPDEST PUSH0 DUP2 SWAP1 POP PUSH1 0x20 DUP3 ADD SWAP1 POP SWAP2 SWAP1 POP JUMP JUMPDEST PUSH0 PUSH20 0xFFFFFFFFFFFFFFFFFFFFFFFFFFFFFFFFFFFFFFFF DUP3 AND SWAP1 POP SWAP2 SWAP1 POP JUMP JUMPDEST PUSH0 PUSH2 0xE31 DUP3 PUSH2 0xE08 JUMP JUMPDEST SWAP1 POP SWAP2 SWAP1 POP JUMP JUMPDEST PUSH2 0xE41 DUP2 PUSH2 0xE27 JUMP JUMPDEST DUP3 MSTORE POP POP JUMP JUMPDEST PUSH0 DUP2 SWAP1 POP SWAP2 SWAP1 POP JUMP JUMPDEST PUSH2 0xE59 DUP2 PUSH2 0xE47 JUMP JUMPDEST DUP3 MSTORE POP POP JUMP JUMPDEST PUSH1 0x40 DUP3 ADD PUSH0 DUP3 ADD MLOAD PUSH2 0xE73 PUSH0 DUP6 ADD DUP3 PUSH2 0xE38 JUMP JUMPDEST POP PUSH1 0x20 DUP3 ADD MLOAD PUSH2 0xE86 PUSH1 0x20 DUP6 ADD DUP3 PUSH2 0xE50 JUMP JUMPDEST POP POP POP POP JUMP JUMPDEST PUSH0 PUSH2 0xE97 DUP4 DUP4 PUSH2 0xE5F JUMP JUMPDEST PUSH1 0x40 DUP4 ADD SWAP1 POP SWAP3 SWAP2 POP POP JUMP JUMPDEST PUSH0 PUSH1 0x20 DUP3 ADD SWAP1 POP SWAP2 SWAP1 POP JUMP JUMPDEST PUSH0 PUSH2 0xEB9 DUP3 PUSH2 0xDDF JUMP JUMPDEST PUSH2 0xEC3 DUP2 DUP6 PUSH2 0xDE9 JUMP JUMPDEST SWAP4 POP PUSH2 0xECE DUP4 PUSH2 0xDF9 JUMP JUMPDEST DUP1 PUSH0 JUMPDEST DUP4 DUP2 LT ISZERO PUSH2 0xEFE JUMPI DUP2 MLOAD PUSH2 0xEE5 DUP9 DUP3 PUSH2 0xE8C JUMP JUMPDEST SWAP8 POP PUSH2 0xEF0 DUP4 PUSH2 0xEA3 JUMP JUMPDEST SWAP3 POP POP PUSH1 0x1 DUP2 ADD SWAP1 POP PUSH2 0xED1 JUMP JUMPDEST POP DUP6 SWAP4 POP POP POP POP SWAP3 SWAP2 POP POP JUMP JUMPDEST PUSH0 PUSH1 0x20 DUP3 ADD SWAP1 POP DUP2 DUP2 SUB PUSH0 DUP4 ADD MSTORE PUSH2 0xF23 DUP2 DUP5 PUSH2 0xEAF JUMP JUMPDEST SWAP1 POP SWAP3 SWAP2 POP POP JUMP JUMPDEST PUSH2 0xF34 DUP2 PUSH2 0xE47 JUMP JUMPDEST DUP3 MSTORE POP POP JUMP JUMPDEST PUSH0 PUSH1 0x20 DUP3 ADD SWAP1 POP PUSH2 0xF4D PUSH0 DUP4 ADD DUP5 PUSH2 0xF2B JUMP JUMPDEST SWAP3 SWAP2 POP POP JUMP JUMPDEST PUSH2 0xF5C DUP2 PUSH2 0xE27 JUMP JUMPDEST DUP3 MSTORE POP POP JUMP JUMPDEST PUSH0 PUSH1 0x20 DUP3 ADD SWAP1 POP PUSH2 0xF75 PUSH0 DUP4 ADD DUP5 PUSH2 0xF53 JUMP JUMPDEST SWAP3 SWAP2 POP POP JUMP JUMPDEST PUSH0 DUP2 ISZERO ISZERO SWAP1 POP SWAP2 SWAP1 POP JUMP JUMPDEST PUSH2 0xF8F DUP2 PUSH2 0xF7B JUMP JUMPDEST DUP3 MSTORE POP POP JUMP JUMPDEST PUSH0 PUSH1 0x20 DUP3 ADD SWAP1 POP PUSH2 0xFA8 PUSH0 DUP4 ADD DUP5 PUSH2 0xF86 JUMP JUMPDEST SWAP3 SWAP2 POP POP JUMP JUMPDEST PUSH0 PUSH4 0xFFFFFFFF DUP3 AND SWAP1 POP SWAP2 SWAP1 POP JUMP JUMPDEST PUSH2 0xFC6 DUP2 PUSH2 0xFAE JUMP JUMPDEST DUP3 MSTORE POP POP JUMP JUMPDEST PUSH0 PUSH1 0x20 DUP3 ADD SWAP1 POP PUSH2 0xFDF PUSH0 DUP4 ADD DUP5 PUSH2 0xFBD JUMP JUMPDEST SWAP3 SWAP2 POP POP JUMP JUMPDEST PUSH0 DUP1 REVERT JUMPDEST PUSH2 0xFF2 DUP2 PUSH2 0xE47 JUMP JUMPDEST DUP2 EQ PUSH2 0xFFC JUMPI PUSH0 DUP1 REVERT JUMPDEST POP JUMP JUMPDEST PUSH0 DUP2 CALLDATALOAD SWAP1 POP PUSH2 0x100D DUP2 PUSH2 0xFE9 JUMP JUMPDEST SWAP3 SWAP2 POP POP JUMP JUMPDEST PUSH0 PUSH1 0x20 DUP3 DUP5 SUB SLT ISZERO PUSH2 0x1028 JUMPI PUSH2 0x1027 PUSH2 0xFE5 JUMP JUMPDEST JUMPDEST PUSH0 PUSH2 0x1035 DUP5 DUP3 DUP6 ADD PUSH2 0xFFF JUMP JUMPDEST SWAP2 POP POP SWAP3 SWAP2 POP POP JUMP JUMPDEST PUSH0 PUSH1 0x40 DUP3 ADD SWAP1 POP PUSH2 0x1051 PUSH0 DUP4 ADD DUP6 PUSH2 0xF53 JUMP JUMPDEST PUSH2 0x105E PUSH1 0x20 DUP4 ADD DUP5 PUSH2 0xF2B JUMP JUMPDEST SWAP4 SWAP3 POP POP POP JUMP JUMPDEST PUSH0 DUP3 DUP3 MSTORE PUSH1 0x20 DUP3 ADD SWAP1 POP SWAP3 SWAP2 POP POP JUMP JUMPDEST PUSH32 0x5468652061756374696F6E206973206E6F742061637469766500000000000000 PUSH0 DUP3 ADD MSTORE POP JUMP JUMPDEST PUSH0 PUSH2 0x10A9 PUSH1 0x19 DUP4 PUSH2 0x1065 JUMP JUMPDEST SWAP2 POP PUSH2 0x10B4 DUP3 PUSH2 0x1075 JUMP JUMPDEST PUSH1 0x20 DUP3 ADD SWAP1 POP SWAP2 SWAP1 POP JUMP JUMPDEST PUSH0 PUSH1 0x20 DUP3 ADD SWAP1 POP DUP2 DUP2 SUB PUSH0 DUP4 ADD MSTORE PUSH2 0x10D6 DUP2 PUSH2 0x109D JUMP JUMPDEST SWAP1 POP SWAP2 SWAP1 POP JUMP JUMPDEST PUSH32 0x4E487B7100000000000000000000000000000000000000000000000000000000 PUSH0 MSTORE PUSH1 0x11 PUSH1 0x4 MSTORE PUSH1 0x24 PUSH0 REVERT JUMPDEST PUSH0 PUSH2 0x1114 DUP3 PUSH2 0xE47 JUMP JUMPDEST SWAP2 POP PUSH2 0x111F DUP4 PUSH2 0xE47 JUMP JUMPDEST SWAP3 POP DUP3 DUP3 MUL PUSH2 0x112D DUP2 PUSH2 0xE47 JUMP JUMPDEST SWAP2 POP DUP3 DUP3 DIV DUP5 EQ DUP4 ISZERO OR PUSH2 0x1144 JUMPI PUSH2 0x1143 PUSH2 0x10DD JUMP JUMPDEST JUMPDEST POP SWAP3 SWAP2 POP POP JUMP JUMPDEST PUSH32 0x4E487B7100000000000000000000000000000000000000000000000000000000 PUSH0 MSTORE PUSH1 0x12 PUSH1 0x4 MSTORE PUSH1 0x24 PUSH0 REVERT JUMPDEST PUSH0 PUSH2 0x1182 DUP3 PUSH2 0xE47 JUMP JUMPDEST SWAP2 POP PUSH2 0x118D DUP4 PUSH2 0xE47 JUMP JUMPDEST SWAP3 POP DUP3 PUSH2 0x119D JUMPI PUSH2 0x119C PUSH2 0x114B JUMP JUMPDEST JUMPDEST DUP3 DUP3 DIV SWAP1 POP SWAP3 SWAP2 POP POP JUMP JUMPDEST PUSH32 0x54686520626964206D757374206265206174206C656173742035252068696768 PUSH0 DUP3 ADD MSTORE PUSH32 0x6572207468616E207468652063757272656E7420626964000000000000000000 PUSH1 0x20 DUP3 ADD MSTORE POP JUMP JUMPDEST PUSH0 PUSH2 0x1202 PUSH1 0x37 DUP4 PUSH2 0x1065 JUMP JUMPDEST SWAP2 POP PUSH2 0x120D DUP3 PUSH2 0x11A8 JUMP JUMPDEST PUSH1 0x40 DUP3 ADD SWAP1 POP SWAP2 SWAP1 POP JUMP JUMPDEST PUSH0 PUSH1 0x20 DUP3 ADD SWAP1 POP DUP2 DUP2 SUB PUSH0 DUP4 ADD MSTORE PUSH2 0x122F DUP2 PUSH2 0x11F6 JUMP JUMPDEST SWAP1 POP SWAP2 SWAP1 POP JUMP JUMPDEST PUSH32 0x5468652061756374696F6E2068617320656E6465640000000000000000000000 PUSH0 DUP3 ADD MSTORE POP JUMP JUMPDEST PUSH0 PUSH2 0x126A PUSH1 0x15 DUP4 PUSH2 0x1065 JUMP JUMPDEST SWAP2 POP PUSH2 0x1275 DUP3 PUSH2 0x1236 JUMP JUMPDEST PUSH1 0x20 DUP3 ADD SWAP1 POP SWAP2 SWAP1 POP JUMP JUMPDEST PUSH0 PUSH1 0x20 DUP3 ADD SWAP1 POP DUP2 DUP2 SUB PUSH0 DUP4 ADD MSTORE PUSH2 0x1297 DUP2 PUSH2 0x125E JUMP JUMPDEST SWAP1 POP SWAP2 SWAP1 POP JUMP JUMPDEST PUSH0 PUSH2 0x12A8 DUP3 PUSH2 0xE47 JUMP JUMPDEST SWAP2 POP PUSH2 0x12B3 DUP4 PUSH2 0xE47 JUMP JUMPDEST SWAP3 POP DUP3 DUP3 SUB SWAP1 POP DUP2 DUP2 GT ISZERO PUSH2 0x12CB JUMPI PUSH2 0x12CA PUSH2 0x10DD JUMP JUMPDEST JUMPDEST SWAP3 SWAP2 POP POP JUMP JUMPDEST PUSH0 PUSH2 0x12DB DUP3 PUSH2 0xE47 JUMP JUMPDEST SWAP2 POP PUSH2 0x12E6 DUP4 PUSH2 0xE47 JUMP JUMPDEST SWAP3 POP DUP3 DUP3 ADD SWAP1 POP DUP1 DUP3 GT ISZERO PUSH2 0x12FE JUMPI PUSH2 0x12FD PUSH2 0x10DD JUMP JUMPDEST JUMPDEST SWAP3 SWAP2 POP POP JUMP JUMPDEST PUSH32 0x4F6E6C79207468652061756374696F6E6565722063616E206578656375746520 PUSH0 DUP3 ADD MSTORE PUSH32 0x746869732066756E6374696F6E00000000000000000000000000000000000000 PUSH1 0x20 DUP3 ADD MSTORE POP JUMP JUMPDEST PUSH0 PUSH2 0x135E PUSH1 0x2D DUP4 PUSH2 0x1065 JUMP JUMPDEST SWAP2 POP PUSH2 0x1369 DUP3 PUSH2 0x1304 JUMP JUMPDEST PUSH1 0x40 DUP3 ADD SWAP1 POP SWAP2 SWAP1 POP JUMP JUMPDEST PUSH0 PUSH1 0x20 DUP3 ADD SWAP1 POP DUP2 DUP2 SUB PUSH0 DUP4 ADD MSTORE PUSH2 0x138B DUP2 PUSH2 0x1352 JUMP JUMPDEST SWAP1 POP SWAP2 SWAP1 POP JUMP JUMPDEST PUSH32 0x5468652061756374696F6E206973207374696C6C206163746976650000000000 PUSH0 DUP3 ADD MSTORE POP JUMP JUMPDEST PUSH0 PUSH2 0x13C6 PUSH1 0x1B DUP4 PUSH2 0x1065 JUMP JUMPDEST SWAP2 POP PUSH2 0x13D1 DUP3 PUSH2 0x1392 JUMP JUMPDEST PUSH1 0x20 DUP3 ADD SWAP1 POP SWAP2 SWAP1 POP JUMP JUMPDEST PUSH0 PUSH1 0x20 DUP3 ADD SWAP1 POP DUP2 DUP2 SUB PUSH0 DUP4 ADD MSTORE PUSH2 0x13F3 DUP2 PUSH2 0x13BA JUMP JUMPDEST SWAP1 POP SWAP2 SWAP1 POP JUMP JUMPDEST PUSH32 0x4E487B7100000000000000000000000000000000000000000000000000000000 PUSH0 MSTORE PUSH1 0x32 PUSH1 0x4 MSTORE PUSH1 0x24 PUSH0 REVERT JUMPDEST PUSH0 PUSH2 0x1431 DUP3 PUSH2 0xDAB JUMP JUMPDEST SWAP2 POP PUSH2 0x143C DUP4 PUSH2 0xDAB JUMP JUMPDEST SWAP3 POP DUP3 DUP3 SUB SWAP1 POP PUSH1 0xFF DUP2 GT ISZERO PUSH2 0x1455 JUMPI PUSH2 0x1454 PUSH2 0x10DD JUMP JUMPDEST JUMPDEST SWAP3 SWAP2 POP POP JUMP JUMPDEST PUSH0 DUP2 SWAP1 POP SWAP3 SWAP2 POP POP JUMP JUMPDEST POP JUMP JUMPDEST PUSH0 PUSH2 0x1473 PUSH0 DUP4 PUSH2 0x145B JUMP JUMPDEST SWAP2 POP PUSH2 0x147E DUP3 PUSH2 0x1465 JUMP JUMPDEST PUSH0 DUP3 ADD SWAP1 POP SWAP2 SWAP1 POP JUMP JUMPDEST PUSH0 PUSH2 0x1492 DUP3 PUSH2 0x1468 JUMP JUMPDEST SWAP2 POP DUP2 SWAP1 POP SWAP2 SWAP1 POP JUMP JUMPDEST PUSH32 0x526566756E6420746F20626964646572206661696C6564000000000000000000 PUSH0 DUP3 ADD MSTORE POP JUMP JUMPDEST PUSH0 PUSH2 0x14D0 PUSH1 0x17 DUP4 PUSH2 0x1065 JUMP JUMPDEST SWAP2 POP PUSH2 0x14DB DUP3 PUSH2 0x149C JUMP JUMPDEST PUSH1 0x20 DUP3 ADD SWAP1 POP SWAP2 SWAP1 POP JUMP JUMPDEST PUSH0 PUSH1 0x20 DUP3 ADD SWAP1 POP DUP2 DUP2 SUB PUSH0 DUP4 ADD MSTORE PUSH2 0x14FD DUP2 PUSH2 0x14C4 JUMP JUMPDEST SWAP1 POP SWAP2 SWAP1 POP JUMP JUMPDEST PUSH32 0x5468657265206973206E6F7468696E6720746F20776974686472617700000000 PUSH0 DUP3 ADD MSTORE POP JUMP JUMPDEST PUSH0 PUSH2 0x1538 PUSH1 0x1C DUP4 PUSH2 0x1065 JUMP JUMPDEST SWAP2 POP PUSH2 0x1543 DUP3 PUSH2 0x1504 JUMP JUMPDEST PUSH1 0x20 DUP3 ADD SWAP1 POP SWAP2 SWAP1 POP JUMP JUMPDEST PUSH0 PUSH1 0x20 DUP3 ADD SWAP1 POP DUP2 DUP2 SUB PUSH0 DUP4 ADD MSTORE PUSH2 0x1565 DUP2 PUSH2 0x152C JUMP JUMPDEST SWAP1 POP SWAP2 SWAP1 POP JUMP JUMPDEST PUSH32 0x5468652061756374696F6E20686173206E6F7420656E64656400000000000000 PUSH0 DUP3 ADD MSTORE POP JUMP JUMPDEST PUSH0 PUSH2 0x15A0 PUSH1 0x19 DUP4 PUSH2 0x1065 JUMP JUMPDEST SWAP2 POP PUSH2 0x15AB DUP3 PUSH2 0x156C JUMP JUMPDEST PUSH1 0x20 DUP3 ADD SWAP1 POP SWAP2 SWAP1 POP JUMP JUMPDEST PUSH0 PUSH1 0x20 DUP3 ADD SWAP1 POP DUP2 DUP2 SUB PUSH0 DUP4 ADD MSTORE PUSH2 0x15CD DUP2 PUSH2 0x1594 JUMP JUMPDEST SWAP1 POP SWAP2 SWAP1 POP JUMP JUMPDEST PUSH32 0x5472616E7366657220746F2061756374696F6E656572206661696C6564000000 PUSH0 DUP3 ADD MSTORE POP JUMP JUMPDEST PUSH0 PUSH2 0x1608 PUSH1 0x1D DUP4 PUSH2 0x1065 JUMP JUMPDEST SWAP2 POP PUSH2 0x1613 DUP3 PUSH2 0x15D4 JUMP JUMPDEST PUSH1 0x20 DUP3 ADD SWAP1 POP SWAP2 SWAP1 POP JUMP JUMPDEST PUSH0 PUSH1 0x20 DUP3 ADD SWAP1 POP DUP2 DUP2 SUB PUSH0 DUP4 ADD MSTORE PUSH2 0x1635 DUP2 PUSH2 0x15FC JUMP JUMPDEST SWAP1 POP SWAP2 SWAP1 POP JUMP INVALID LOG2 PUSH5 0x6970667358 0x22 SLT KECCAK256 EXTCODEHASH MULMOD 0xF6 SELFBALANCE LOG1 SHL 0xD8 PUSH19 0x24BFCD793CCF546E7C330943E0C0050A101CC8 BLOBHASH 0xCE PUSH1 0xC0 SAR PUSH5 0x736F6C6343 STOP ADDMOD BYTE STOP CALLER "
				},
				"gasEstimates": {
					"creation": {
						"codeDepositCost": "1149200",
						"executionCost": "infinite",
						"totalCost": "infinite"
					},
					"external": {
						"EXTENSION_PERIOD()": "398",
						"GAS_COMMISSION()": "332",
						"auctionActive()": "2511",
						"auctioneer()": "2594",
						"bid()": "infinite",
						"bidHistory(uint256)": "infinite",
						"endAuction()": "infinite",
						"endTime()": "2492",
						"getMaxBid()": "infinite",
						"minimumBid()": "2447",
						"partialWithdraw()": "infinite",
						"refundDeposits()": "infinite",
						"showBids()": "infinite"
					}
				},
				"methodIdentifiers": {
					"EXTENSION_PERIOD()": "c2e8c498",
					"GAS_COMMISSION()": "110b093a",
					"auctionActive()": "92228006",
					"auctioneer()": "5ec2c7bf",
					"bid()": "1998aeef",
					"bidHistory(uint256)": "ecde973d",
					"endAuction()": "fe67a54b",
					"endTime()": "3197cbb6",
					"getMaxBid()": "7e12a251",
					"minimumBid()": "d3a86386",
					"partialWithdraw()": "f90ca117",
					"refundDeposits()": "6773fd77",
					"showBids()": "14d2687c"
				}
			},
			"storageLayout": {
				"storage": [
					{
						"astId": 9,
						"contract": "subasta7.sol:AuctionSergioM",
						"label": "auctioneer",
						"offset": 0,
						"slot": "0",
						"type": "t_address"
					},
					{
						"astId": 11,
						"contract": "subasta7.sol:AuctionSergioM",
						"label": "endTime",
						"offset": 0,
						"slot": "1",
						"type": "t_uint256"
					},
					{
						"astId": 16,
						"contract": "subasta7.sol:AuctionSergioM",
						"label": "minimumBid",
						"offset": 0,
						"slot": "2",
						"type": "t_uint256"
					},
					{
						"astId": 21,
						"contract": "subasta7.sol:AuctionSergioM",
						"label": "auctionActive",
						"offset": 0,
						"slot": "3",
						"type": "t_bool"
					},
					{
						"astId": 25,
						"contract": "subasta7.sol:AuctionSergioM",
						"label": "bidHistory",
						"offset": 0,
						"slot": "4",
						"type": "t_array(t_struct(Bid)7_storage)dyn_storage"
					}
				],
				"types": {
					"t_address": {
						"encoding": "inplace",
						"label": "address",
						"numberOfBytes": "20"
					},
					"t_array(t_struct(Bid)7_storage)dyn_storage": {
						"base": "t_struct(Bid)7_storage",
						"encoding": "dynamic_array",
						"label": "struct AuctionSergioM.Bid[]",
						"numberOfBytes": "32"
					},
					"t_bool": {
						"encoding": "inplace",
						"label": "bool",
						"numberOfBytes": "1"
					},
					"t_struct(Bid)7_storage": {
						"encoding": "inplace",
						"label": "struct AuctionSergioM.Bid",
						"members": [
							{
								"astId": 4,
								"contract": "subasta7.sol:AuctionSergioM",
								"label": "bidder",
								"offset": 0,
								"slot": "0",
								"type": "t_address"
							},
							{
								"astId": 6,
								"contract": "subasta7.sol:AuctionSergioM",
								"label": "amount",
								"offset": 0,
								"slot": "1",
								"type": "t_uint256"
							}
						],
						"numberOfBytes": "64"
					},
					"t_uint256": {
						"encoding": "inplace",
						"label": "uint256",
						"numberOfBytes": "32"
					}
				}
			},
			"userdoc": {
				"kind": "user",
				"methods": {},
				"notice": "This contract allows for the creation of an auction where participants can place bids.",
				"version": 1
			}
		}
	}
}