{
	"subasta1.sol": {
		"Subasta": {
			"abi": [
				{
					"inputs": [
						{
							"internalType": "uint256",
							"name": "_duracionSubasta",
							"type": "uint256"
						}
					],
					"stateMutability": "nonpayable",
					"type": "constructor"
				},
				{
					"anonymous": false,
					"inputs": [
						{
							"indexed": false,
							"internalType": "address",
							"name": "ofertante",
							"type": "address"
						},
						{
							"indexed": false,
							"internalType": "uint256",
							"name": "cantidad",
							"type": "uint256"
						}
					],
					"name": "NuevaOferta",
					"type": "event"
				},
				{
					"anonymous": false,
					"inputs": [
						{
							"indexed": false,
							"internalType": "address",
							"name": "ganador",
							"type": "address"
						},
						{
							"indexed": false,
							"internalType": "uint256",
							"name": "cantidadGanadora",
							"type": "uint256"
						}
					],
					"name": "SubastaFinalizada",
					"type": "event"
				},
				{
					"inputs": [],
					"name": "activa",
					"outputs": [
						{
							"internalType": "bool",
							"name": "",
							"type": "bool"
						}
					],
					"stateMutability": "view",
					"type": "function"
				},
				{
					"inputs": [],
					"name": "comision",
					"outputs": [
						{
							"internalType": "uint256",
							"name": "",
							"type": "uint256"
						}
					],
					"stateMutability": "view",
					"type": "function"
				},
				{
					"inputs": [
						{
							"internalType": "address",
							"name": "",
							"type": "address"
						}
					],
					"name": "depositos",
					"outputs": [
						{
							"internalType": "uint256",
							"name": "",
							"type": "uint256"
						}
					],
					"stateMutability": "view",
					"type": "function"
				},
				{
					"inputs": [],
					"name": "extensionTiempo",
					"outputs": [
						{
							"internalType": "uint256",
							"name": "",
							"type": "uint256"
						}
					],
					"stateMutability": "view",
					"type": "function"
				},
				{
					"inputs": [],
					"name": "finalizarSubasta",
					"outputs": [],
					"stateMutability": "nonpayable",
					"type": "function"
				},
				{
					"inputs": [],
					"name": "mostrarGanador",
					"outputs": [
						{
							"internalType": "address",
							"name": "ganador",
							"type": "address"
						},
						{
							"internalType": "uint256",
							"name": "cantidadGanadora",
							"type": "uint256"
						}
					],
					"stateMutability": "view",
					"type": "function"
				},
				{
					"inputs": [],
					"name": "mostrarOfertas",
					"outputs": [
						{
							"components": [
								{
									"internalType": "address",
									"name": "ofertante",
									"type": "address"
								},
								{
									"internalType": "uint256",
									"name": "cantidad",
									"type": "uint256"
								}
							],
							"internalType": "struct Subasta.Oferta[]",
							"name": "",
							"type": "tuple[]"
						}
					],
					"stateMutability": "view",
					"type": "function"
				},
				{
					"inputs": [],
					"name": "ofertar",
					"outputs": [],
					"stateMutability": "payable",
					"type": "function"
				},
				{
					"inputs": [
						{
							"internalType": "uint256",
							"name": "",
							"type": "uint256"
						}
					],
					"name": "ofertas",
					"outputs": [
						{
							"internalType": "address",
							"name": "ofertante",
							"type": "address"
						},
						{
							"internalType": "uint256",
							"name": "cantidad",
							"type": "uint256"
						}
					],
					"stateMutability": "view",
					"type": "function"
				},
				{
					"inputs": [],
					"name": "porcentajeIncremento",
					"outputs": [
						{
							"internalType": "uint256",
							"name": "",
							"type": "uint256"
						}
					],
					"stateMutability": "view",
					"type": "function"
				},
				{
					"inputs": [],
					"name": "retirarDeposito",
					"outputs": [],
					"stateMutability": "nonpayable",
					"type": "function"
				},
				{
					"inputs": [],
					"name": "retiroParcial",
					"outputs": [],
					"stateMutability": "nonpayable",
					"type": "function"
				},
				{
					"inputs": [],
					"name": "subastador",
					"outputs": [
						{
							"internalType": "address",
							"name": "",
							"type": "address"
						}
					],
					"stateMutability": "view",
					"type": "function"
				},
				{
					"inputs": [],
					"name": "tiempoFinal",
					"outputs": [
						{
							"internalType": "uint256",
							"name": "",
							"type": "uint256"
						}
					],
					"stateMutability": "view",
					"type": "function"
				}
			],
			"devdoc": {
				"kind": "dev",
				"methods": {},
				"version": 1
			},
			"evm": {
				"assembly": "    /* \"subasta1.sol\":60:3685  contract Subasta {... */\n  mstore(0x40, 0x80)\n    /* \"subasta1.sol\":176:186  10 minutes */\n  0x0258\n    /* \"subasta1.sol\":146:186  uint public extensionTiempo = 10 minutes */\n  0x02\n  sstore\n    /* \"subasta1.sol\":228:229  5 */\n  0x05\n    /* \"subasta1.sol\":193:229  uint public porcentajeIncremento = 5 */\n  0x03\n  sstore\n    /* \"subasta1.sol\":297:298  2 */\n  0x02\n    /* \"subasta1.sol\":274:298  uint public comision = 2 */\n  0x04\n  sstore\n    /* \"subasta1.sol\":372:376  true */\n  0x01\n    /* \"subasta1.sol\":351:376  bool public activa = true */\n  0x05\n  exp(0x0100, 0x00)\n  dup2\n  sload\n  dup2\n  0xff\n  mul\n  not\n  and\n  swap1\n  dup4\n  iszero\n  iszero\n  mul\n  or\n  swap1\n  sstore\n  pop\n    /* \"subasta1.sol\":677:813  constructor(uint _duracionSubasta) {... */\n  callvalue\n  dup1\n  iszero\n  tag_1\n  jumpi\n  0x00\n  dup1\n  revert\ntag_1:\n  pop\n  mload(0x40)\n  sub(codesize, bytecodeSize)\n  dup1\n  bytecodeSize\n  dup4\n  codecopy\n  dup2\n  dup2\n  add\n  0x40\n  mstore\n  dup2\n  add\n  swap1\n  tag_2\n  swap2\n  swap1\n  tag_3\n  jump\t// in\ntag_2:\n    /* \"subasta1.sol\":736:746  msg.sender */\n  caller\n    /* \"subasta1.sol\":723:733  subastador */\n  0x00\n  dup1\n    /* \"subasta1.sol\":723:746  subastador = msg.sender */\n  0x0100\n  exp\n  dup2\n  sload\n  dup2\n  0xffffffffffffffffffffffffffffffffffffffff\n  mul\n  not\n  and\n  swap1\n  dup4\n  0xffffffffffffffffffffffffffffffffffffffff\n  and\n  mul\n  or\n  swap1\n  sstore\n  pop\n    /* \"subasta1.sol\":789:805  _duracionSubasta */\n  dup1\n    /* \"subasta1.sol\":771:786  block.timestamp */\n  timestamp\n    /* \"subasta1.sol\":771:805  block.timestamp + _duracionSubasta */\n  tag_6\n  swap2\n  swap1\n  tag_7\n  jump\t// in\ntag_6:\n    /* \"subasta1.sol\":757:768  tiempoFinal */\n  0x01\n    /* \"subasta1.sol\":757:805  tiempoFinal = block.timestamp + _duracionSubasta */\n  dup2\n  swap1\n  sstore\n  pop\n    /* \"subasta1.sol\":677:813  constructor(uint _duracionSubasta) {... */\n  pop\n    /* \"subasta1.sol\":60:3685  contract Subasta {... */\n  jump(tag_8)\n    /* \"#utility.yul\":88:205   */\ntag_10:\n    /* \"#utility.yul\":197:198   */\n  0x00\n    /* \"#utility.yul\":194:195   */\n  dup1\n    /* \"#utility.yul\":187:199   */\n  revert\n    /* \"#utility.yul\":334:411   */\ntag_12:\n    /* \"#utility.yul\":371:378   */\n  0x00\n    /* \"#utility.yul\":400:405   */\n  dup2\n    /* \"#utility.yul\":389:405   */\n  swap1\n  pop\n    /* \"#utility.yul\":334:411   */\n  swap2\n  swap1\n  pop\n  jump\t// out\n    /* \"#utility.yul\":417:539   */\ntag_13:\n    /* \"#utility.yul\":490:514   */\n  tag_22\n    /* \"#utility.yul\":508:513   */\n  dup2\n    /* \"#utility.yul\":490:514   */\n  tag_12\n  jump\t// in\ntag_22:\n    /* \"#utility.yul\":483:488   */\n  dup2\n    /* \"#utility.yul\":480:515   */\n  eq\n    /* \"#utility.yul\":470:533   */\n  tag_23\n  jumpi\n    /* \"#utility.yul\":529:530   */\n  0x00\n    /* \"#utility.yul\":526:527   */\n  dup1\n    /* \"#utility.yul\":519:531   */\n  revert\n    /* \"#utility.yul\":470:533   */\ntag_23:\n    /* \"#utility.yul\":417:539   */\n  pop\n  jump\t// out\n    /* \"#utility.yul\":545:688   */\ntag_14:\n    /* \"#utility.yul\":602:607   */\n  0x00\n    /* \"#utility.yul\":633:639   */\n  dup2\n    /* \"#utility.yul\":627:640   */\n  mload\n    /* \"#utility.yul\":618:640   */\n  swap1\n  pop\n    /* \"#utility.yul\":649:682   */\n  tag_25\n    /* \"#utility.yul\":676:681   */\n  dup2\n    /* \"#utility.yul\":649:682   */\n  tag_13\n  jump\t// in\ntag_25:\n    /* \"#utility.yul\":545:688   */\n  swap3\n  swap2\n  pop\n  pop\n  jump\t// out\n    /* \"#utility.yul\":694:1045   */\ntag_3:\n    /* \"#utility.yul\":764:770   */\n  0x00\n    /* \"#utility.yul\":813:815   */\n  0x20\n    /* \"#utility.yul\":801:810   */\n  dup3\n    /* \"#utility.yul\":792:799   */\n  dup5\n    /* \"#utility.yul\":788:811   */\n  sub\n    /* \"#utility.yul\":784:816   */\n  slt\n    /* \"#utility.yul\":781:900   */\n  iszero\n  tag_27\n  jumpi\n    /* \"#utility.yul\":819:898   */\n  tag_28\n  tag_10\n  jump\t// in\ntag_28:\n    /* \"#utility.yul\":781:900   */\ntag_27:\n    /* \"#utility.yul\":939:940   */\n  0x00\n    /* \"#utility.yul\":964:1028   */\n  tag_29\n    /* \"#utility.yul\":1020:1027   */\n  dup5\n    /* \"#utility.yul\":1011:1017   */\n  dup3\n    /* \"#utility.yul\":1000:1009   */\n  dup6\n    /* \"#utility.yul\":996:1018   */\n  add\n    /* \"#utility.yul\":964:1028   */\n  tag_14\n  jump\t// in\ntag_29:\n    /* \"#utility.yul\":954:1028   */\n  swap2\n  pop\n    /* \"#utility.yul\":910:1038   */\n  pop\n    /* \"#utility.yul\":694:1045   */\n  swap3\n  swap2\n  pop\n  pop\n  jump\t// out\n    /* \"#utility.yul\":1051:1231   */\ntag_15:\n    /* \"#utility.yul\":1099:1176   */\n  0x4e487b7100000000000000000000000000000000000000000000000000000000\n    /* \"#utility.yul\":1096:1097   */\n  0x00\n    /* \"#utility.yul\":1089:1177   */\n  mstore\n    /* \"#utility.yul\":1196:1200   */\n  0x11\n    /* \"#utility.yul\":1193:1194   */\n  0x04\n    /* \"#utility.yul\":1186:1201   */\n  mstore\n    /* \"#utility.yul\":1220:1224   */\n  0x24\n    /* \"#utility.yul\":1217:1218   */\n  0x00\n    /* \"#utility.yul\":1210:1225   */\n  revert\n    /* \"#utility.yul\":1237:1428   */\ntag_7:\n    /* \"#utility.yul\":1277:1280   */\n  0x00\n    /* \"#utility.yul\":1296:1316   */\n  tag_32\n    /* \"#utility.yul\":1314:1315   */\n  dup3\n    /* \"#utility.yul\":1296:1316   */\n  tag_12\n  jump\t// in\ntag_32:\n    /* \"#utility.yul\":1291:1316   */\n  swap2\n  pop\n    /* \"#utility.yul\":1330:1350   */\n  tag_33\n    /* \"#utility.yul\":1348:1349   */\n  dup4\n    /* \"#utility.yul\":1330:1350   */\n  tag_12\n  jump\t// in\ntag_33:\n    /* \"#utility.yul\":1325:1350   */\n  swap3\n  pop\n    /* \"#utility.yul\":1373:1374   */\n  dup3\n    /* \"#utility.yul\":1370:1371   */\n  dup3\n    /* \"#utility.yul\":1366:1375   */\n  add\n    /* \"#utility.yul\":1359:1375   */\n  swap1\n  pop\n    /* \"#utility.yul\":1394:1397   */\n  dup1\n    /* \"#utility.yul\":1391:1392   */\n  dup3\n    /* \"#utility.yul\":1388:1398   */\n  gt\n    /* \"#utility.yul\":1385:1421   */\n  iszero\n  tag_34\n  jumpi\n    /* \"#utility.yul\":1401:1419   */\n  tag_35\n  tag_15\n  jump\t// in\ntag_35:\n    /* \"#utility.yul\":1385:1421   */\ntag_34:\n    /* \"#utility.yul\":1237:1428   */\n  swap3\n  swap2\n  pop\n  pop\n  jump\t// out\n    /* \"subasta1.sol\":60:3685  contract Subasta {... */\ntag_8:\n  dataSize(sub_0)\n  dup1\n  dataOffset(sub_0)\n  0x00\n  codecopy\n  0x00\n  return\nstop\n\nsub_0: assembly {\n        /* \"subasta1.sol\":60:3685  contract Subasta {... */\n      mstore(0x40, 0x80)\n      jumpi(tag_1, lt(calldatasize, 0x04))\n      shr(0xe0, calldataload(0x00))\n      dup1\n      0x9528a4bd\n      gt\n      tag_16\n      jumpi\n      dup1\n      0xc442a99f\n      gt\n      tag_17\n      jumpi\n      dup1\n      0xc442a99f\n      eq\n      tag_12\n      jumpi\n      dup1\n      0xc63049f8\n      eq\n      tag_13\n      jumpi\n      dup1\n      0xcc14e31f\n      eq\n      tag_14\n      jumpi\n      dup1\n      0xf292b25d\n      eq\n      tag_15\n      jumpi\n      jump(tag_1)\n    tag_17:\n      dup1\n      0x9528a4bd\n      eq\n      tag_9\n      jumpi\n      dup1\n      0xa05d3ddc\n      eq\n      tag_10\n      jumpi\n      dup1\n      0xb53627b2\n      eq\n      tag_11\n      jumpi\n      jump(tag_1)\n    tag_16:\n      dup1\n      0x3ec059d7\n      gt\n      tag_18\n      jumpi\n      dup1\n      0x3ec059d7\n      eq\n      tag_5\n      jumpi\n      dup1\n      0x56afff7c\n      eq\n      tag_6\n      jumpi\n      dup1\n      0x664e62b9\n      eq\n      tag_7\n      jumpi\n      dup1\n      0x753dcaeb\n      eq\n      tag_8\n      jumpi\n      jump(tag_1)\n    tag_18:\n      dup1\n      0x0851eac2\n      eq\n      tag_2\n      jumpi\n      dup1\n      0x2c5e5471\n      eq\n      tag_3\n      jumpi\n      dup1\n      0x3dfa138d\n      eq\n      tag_4\n      jumpi\n    tag_1:\n      0x00\n      dup1\n      revert\n        /* \"subasta1.sol\":2160:2514  function finalizarSubasta() external soloSubastador soloDuranteSubastaActiva {... */\n    tag_2:\n      callvalue\n      dup1\n      iszero\n      tag_19\n      jumpi\n      0x00\n      dup1\n      revert\n    tag_19:\n      pop\n      tag_20\n      tag_21\n      jump\t// in\n    tag_20:\n      stop\n        /* \"subasta1.sol\":351:376  bool public activa = true */\n    tag_3:\n      callvalue\n      dup1\n      iszero\n      tag_22\n      jumpi\n      0x00\n      dup1\n      revert\n    tag_22:\n      pop\n      tag_23\n      tag_24\n      jump\t// in\n    tag_23:\n      mload(0x40)\n      tag_25\n      swap2\n      swap1\n      tag_26\n      jump\t// in\n    tag_25:\n      mload(0x40)\n      dup1\n      swap2\n      sub\n      swap1\n      return\n        /* \"subasta1.sol\":84:109  address public subastador */\n    tag_4:\n      callvalue\n      dup1\n      iszero\n      tag_27\n      jumpi\n      0x00\n      dup1\n      revert\n    tag_27:\n      pop\n      tag_28\n      tag_29\n      jump\t// in\n    tag_28:\n      mload(0x40)\n      tag_30\n      swap2\n      swap1\n      tag_31\n      jump\t// in\n    tag_30:\n      mload(0x40)\n      dup1\n      swap2\n      sub\n      swap1\n      return\n        /* \"subasta1.sol\":1089:1760  function ofertar() external payable soloDuranteSubastaActiva {... */\n    tag_5:\n      tag_32\n      tag_33\n      jump\t// in\n    tag_32:\n      stop\n        /* \"subasta1.sol\":467:490  Oferta[] public ofertas */\n    tag_6:\n      callvalue\n      dup1\n      iszero\n      tag_34\n      jumpi\n      0x00\n      dup1\n      revert\n    tag_34:\n      pop\n      tag_35\n      0x04\n      dup1\n      calldatasize\n      sub\n      dup2\n      add\n      swap1\n      tag_36\n      swap2\n      swap1\n      tag_37\n      jump\t// in\n    tag_36:\n      tag_38\n      jump\t// in\n    tag_35:\n      mload(0x40)\n      tag_39\n      swap3\n      swap2\n      swap1\n      tag_40\n      jump\t// in\n    tag_39:\n      mload(0x40)\n      dup1\n      swap2\n      sub\n      swap1\n      return\n        /* \"subasta1.sol\":497:538  mapping(address => uint) public depositos */\n    tag_7:\n      callvalue\n      dup1\n      iszero\n      tag_41\n      jumpi\n      0x00\n      dup1\n      revert\n    tag_41:\n      pop\n      tag_42\n      0x04\n      dup1\n      calldatasize\n      sub\n      dup2\n      add\n      swap1\n      tag_43\n      swap2\n      swap1\n      tag_44\n      jump\t// in\n    tag_43:\n      tag_45\n      jump\t// in\n    tag_42:\n      mload(0x40)\n      tag_46\n      swap2\n      swap1\n      tag_47\n      jump\t// in\n    tag_46:\n      mload(0x40)\n      dup1\n      swap2\n      sub\n      swap1\n      return\n        /* \"subasta1.sol\":1768:2045  function mostrarGanador() external view returns (address ganador, uint cantidadGanadora) {... */\n    tag_8:\n      callvalue\n      dup1\n      iszero\n      tag_48\n      jumpi\n      0x00\n      dup1\n      revert\n    tag_48:\n      pop\n      tag_49\n      tag_50\n      jump\t// in\n    tag_49:\n      mload(0x40)\n      tag_51\n      swap3\n      swap2\n      swap1\n      tag_40\n      jump\t// in\n    tag_51:\n      mload(0x40)\n      dup1\n      swap2\n      sub\n      swap1\n      return\n        /* \"subasta1.sol\":3062:3682  function retiroParcial() external soloDuranteSubastaActiva {... */\n    tag_9:\n      callvalue\n      dup1\n      iszero\n      tag_52\n      jumpi\n      0x00\n      dup1\n      revert\n    tag_52:\n      pop\n      tag_53\n      tag_54\n      jump\t// in\n    tag_53:\n      stop\n        /* \"subasta1.sol\":2522:3054  function retirarDeposito() external {... */\n    tag_10:\n      callvalue\n      dup1\n      iszero\n      tag_55\n      jumpi\n      0x00\n      dup1\n      revert\n    tag_55:\n      pop\n      tag_56\n      tag_57\n      jump\t// in\n    tag_56:\n      stop\n        /* \"subasta1.sol\":274:298  uint public comision = 2 */\n    tag_11:\n      callvalue\n      dup1\n      iszero\n      tag_58\n      jumpi\n      0x00\n      dup1\n      revert\n    tag_58:\n      pop\n      tag_59\n      tag_60\n      jump\t// in\n    tag_59:\n      mload(0x40)\n      tag_61\n      swap2\n      swap1\n      tag_47\n      jump\t// in\n    tag_61:\n      mload(0x40)\n      dup1\n      swap2\n      sub\n      swap1\n      return\n        /* \"subasta1.sol\":2053:2152  function mostrarOfertas() external view returns (Oferta[] memory) {... */\n    tag_12:\n      callvalue\n      dup1\n      iszero\n      tag_62\n      jumpi\n      0x00\n      dup1\n      revert\n    tag_62:\n      pop\n      tag_63\n      tag_64\n      jump\t// in\n    tag_63:\n      mload(0x40)\n      tag_65\n      swap2\n      swap1\n      tag_66\n      jump\t// in\n    tag_65:\n      mload(0x40)\n      dup1\n      swap2\n      sub\n      swap1\n      return\n        /* \"subasta1.sol\":116:139  uint public tiempoFinal */\n    tag_13:\n      callvalue\n      dup1\n      iszero\n      tag_67\n      jumpi\n      0x00\n      dup1\n      revert\n    tag_67:\n      pop\n      tag_68\n      tag_69\n      jump\t// in\n    tag_68:\n      mload(0x40)\n      tag_70\n      swap2\n      swap1\n      tag_47\n      jump\t// in\n    tag_70:\n      mload(0x40)\n      dup1\n      swap2\n      sub\n      swap1\n      return\n        /* \"subasta1.sol\":193:229  uint public porcentajeIncremento = 5 */\n    tag_14:\n      callvalue\n      dup1\n      iszero\n      tag_71\n      jumpi\n      0x00\n      dup1\n      revert\n    tag_71:\n      pop\n      tag_72\n      tag_73\n      jump\t// in\n    tag_72:\n      mload(0x40)\n      tag_74\n      swap2\n      swap1\n      tag_47\n      jump\t// in\n    tag_74:\n      mload(0x40)\n      dup1\n      swap2\n      sub\n      swap1\n      return\n        /* \"subasta1.sol\":146:186  uint public extensionTiempo = 10 minutes */\n    tag_15:\n      callvalue\n      dup1\n      iszero\n      tag_75\n      jumpi\n      0x00\n      dup1\n      revert\n    tag_75:\n      pop\n      tag_76\n      tag_77\n      jump\t// in\n    tag_76:\n      mload(0x40)\n      tag_78\n      swap2\n      swap1\n      tag_47\n      jump\t// in\n    tag_78:\n      mload(0x40)\n      dup1\n      swap2\n      sub\n      swap1\n      return\n        /* \"subasta1.sol\":2160:2514  function finalizarSubasta() external soloSubastador soloDuranteSubastaActiva {... */\n    tag_21:\n        /* \"subasta1.sol\":1001:1011  subastador */\n      0x00\n      dup1\n      sload\n      swap1\n      0x0100\n      exp\n      swap1\n      div\n      0xffffffffffffffffffffffffffffffffffffffff\n      and\n        /* \"subasta1.sol\":987:1011  msg.sender == subastador */\n      0xffffffffffffffffffffffffffffffffffffffff\n      and\n        /* \"subasta1.sol\":987:997  msg.sender */\n      caller\n        /* \"subasta1.sol\":987:1011  msg.sender == subastador */\n      0xffffffffffffffffffffffffffffffffffffffff\n      and\n      eq\n        /* \"subasta1.sol\":979:1061  require(msg.sender == subastador, \"Solo el subastador puede ejecutar esta accion\") */\n      tag_80\n      jumpi\n      mload(0x40)\n      0x08c379a000000000000000000000000000000000000000000000000000000000\n      dup2\n      mstore\n      0x04\n      add\n      tag_81\n      swap1\n      tag_82\n      jump\t// in\n    tag_81:\n      mload(0x40)\n      dup1\n      swap2\n      sub\n      swap1\n      revert\n    tag_80:\n        /* \"subasta1.sol\":876:882  activa */\n      0x05\n      0x00\n      swap1\n      sload\n      swap1\n      0x0100\n      exp\n      swap1\n      div\n      0xff\n      and\n        /* \"subasta1.sol\":868:914  require(activa, \"La subasta ya ha finalizado\") */\n      tag_84\n      jumpi\n      mload(0x40)\n      0x08c379a000000000000000000000000000000000000000000000000000000000\n      dup2\n      mstore\n      0x04\n      add\n      tag_85\n      swap1\n      tag_86\n      jump\t// in\n    tag_85:\n      mload(0x40)\n      dup1\n      swap2\n      sub\n      swap1\n      revert\n    tag_84:\n        /* \"subasta1.sol\":2275:2286  tiempoFinal */\n      sload(0x01)\n        /* \"subasta1.sol\":2256:2271  block.timestamp */\n      timestamp\n        /* \"subasta1.sol\":2256:2286  block.timestamp >= tiempoFinal */\n      lt\n      iszero\n        /* \"subasta1.sol\":2248:2319  require(block.timestamp >= tiempoFinal, \"La subasta aun esta en curso\") */\n      tag_88\n      jumpi\n      mload(0x40)\n      0x08c379a000000000000000000000000000000000000000000000000000000000\n      dup2\n      mstore\n      0x04\n      add\n      tag_89\n      swap1\n      tag_90\n      jump\t// in\n    tag_89:\n      mload(0x40)\n      dup1\n      swap2\n      sub\n      swap1\n      revert\n    tag_88:\n        /* \"subasta1.sol\":2339:2344  false */\n      0x00\n        /* \"subasta1.sol\":2330:2336  activa */\n      0x05\n      0x00\n        /* \"subasta1.sol\":2330:2344  activa = false */\n      0x0100\n      exp\n      dup2\n      sload\n      dup2\n      0xff\n      mul\n      not\n      and\n      swap1\n      dup4\n      iszero\n      iszero\n      mul\n      or\n      swap1\n      sstore\n      pop\n        /* \"subasta1.sol\":2378:2379  0 */\n      0x00\n        /* \"subasta1.sol\":2361:2368  ofertas */\n      0x06\n        /* \"subasta1.sol\":2361:2375  ofertas.length */\n      dup1\n      sload\n      swap1\n      pop\n        /* \"subasta1.sol\":2361:2379  ofertas.length > 0 */\n      gt\n        /* \"subasta1.sol\":2357:2507  if (ofertas.length > 0) {... */\n      iszero\n      tag_91\n      jumpi\n        /* \"subasta1.sol\":2401:2495  SubastaFinalizada(ofertas[ofertas.length - 1].ofertante, ofertas[ofertas.length - 1].cantidad) */\n      0xa3a65b403bdae88eb037f4ecc1d619f436fc3ef6bcbbee3787757164e82883f2\n        /* \"subasta1.sol\":2419:2426  ofertas */\n      0x06\n        /* \"subasta1.sol\":2444:2445  1 */\n      0x01\n        /* \"subasta1.sol\":2427:2434  ofertas */\n      0x06\n        /* \"subasta1.sol\":2427:2441  ofertas.length */\n      dup1\n      sload\n      swap1\n      pop\n        /* \"subasta1.sol\":2427:2445  ofertas.length - 1 */\n      tag_92\n      swap2\n      swap1\n      tag_93\n      jump\t// in\n    tag_92:\n        /* \"subasta1.sol\":2419:2446  ofertas[ofertas.length - 1] */\n      dup2\n      sload\n      dup2\n      lt\n      tag_94\n      jumpi\n      tag_95\n      tag_96\n      jump\t// in\n    tag_95:\n    tag_94:\n      swap1\n      0x00\n      mstore\n      keccak256(0x00, 0x20)\n      swap1\n      0x02\n      mul\n      add\n        /* \"subasta1.sol\":2419:2456  ofertas[ofertas.length - 1].ofertante */\n      0x00\n      add\n      0x00\n      swap1\n      sload\n      swap1\n      0x0100\n      exp\n      swap1\n      div\n      0xffffffffffffffffffffffffffffffffffffffff\n      and\n        /* \"subasta1.sol\":2458:2465  ofertas */\n      0x06\n        /* \"subasta1.sol\":2483:2484  1 */\n      0x01\n        /* \"subasta1.sol\":2466:2473  ofertas */\n      0x06\n        /* \"subasta1.sol\":2466:2480  ofertas.length */\n      dup1\n      sload\n      swap1\n      pop\n        /* \"subasta1.sol\":2466:2484  ofertas.length - 1 */\n      tag_98\n      swap2\n      swap1\n      tag_93\n      jump\t// in\n    tag_98:\n        /* \"subasta1.sol\":2458:2485  ofertas[ofertas.length - 1] */\n      dup2\n      sload\n      dup2\n      lt\n      tag_99\n      jumpi\n      tag_100\n      tag_96\n      jump\t// in\n    tag_100:\n    tag_99:\n      swap1\n      0x00\n      mstore\n      keccak256(0x00, 0x20)\n      swap1\n      0x02\n      mul\n      add\n        /* \"subasta1.sol\":2458:2494  ofertas[ofertas.length - 1].cantidad */\n      0x01\n      add\n      sload\n        /* \"subasta1.sol\":2401:2495  SubastaFinalizada(ofertas[ofertas.length - 1].ofertante, ofertas[ofertas.length - 1].cantidad) */\n      mload(0x40)\n      tag_102\n      swap3\n      swap2\n      swap1\n      tag_40\n      jump\t// in\n    tag_102:\n      mload(0x40)\n      dup1\n      swap2\n      sub\n      swap1\n      log1\n        /* \"subasta1.sol\":2357:2507  if (ofertas.length > 0) {... */\n    tag_91:\n        /* \"subasta1.sol\":2160:2514  function finalizarSubasta() external soloSubastador soloDuranteSubastaActiva {... */\n      jump\t// out\n        /* \"subasta1.sol\":351:376  bool public activa = true */\n    tag_24:\n      0x05\n      0x00\n      swap1\n      sload\n      swap1\n      0x0100\n      exp\n      swap1\n      div\n      0xff\n      and\n      dup2\n      jump\t// out\n        /* \"subasta1.sol\":84:109  address public subastador */\n    tag_29:\n      0x00\n      dup1\n      sload\n      swap1\n      0x0100\n      exp\n      swap1\n      div\n      0xffffffffffffffffffffffffffffffffffffffff\n      and\n      dup2\n      jump\t// out\n        /* \"subasta1.sol\":1089:1760  function ofertar() external payable soloDuranteSubastaActiva {... */\n    tag_33:\n        /* \"subasta1.sol\":876:882  activa */\n      0x05\n      0x00\n      swap1\n      sload\n      swap1\n      0x0100\n      exp\n      swap1\n      div\n      0xff\n      and\n        /* \"subasta1.sol\":868:914  require(activa, \"La subasta ya ha finalizado\") */\n      tag_104\n      jumpi\n      mload(0x40)\n      0x08c379a000000000000000000000000000000000000000000000000000000000\n      dup2\n      mstore\n      0x04\n      add\n      tag_105\n      swap1\n      tag_86\n      jump\t// in\n    tag_105:\n      mload(0x40)\n      dup1\n      swap2\n      sub\n      swap1\n      revert\n    tag_104:\n        /* \"subasta1.sol\":1161:1177  uint montoMinimo */\n      0x00\n        /* \"subasta1.sol\":1180:1199  1000000000000000000 */\n      0x0de0b6b3a7640000\n        /* \"subasta1.sol\":1161:1199  uint montoMinimo = 1000000000000000000 */\n      swap1\n      pop\n        /* \"subasta1.sol\":1231:1232  0 */\n      0x00\n        /* \"subasta1.sol\":1214:1221  ofertas */\n      0x06\n        /* \"subasta1.sol\":1214:1228  ofertas.length */\n      dup1\n      sload\n      swap1\n      pop\n        /* \"subasta1.sol\":1214:1232  ofertas.length > 0 */\n      gt\n        /* \"subasta1.sol\":1210:1381  if (ofertas.length > 0) {... */\n      iszero\n      tag_107\n      jumpi\n        /* \"subasta1.sol\":1365:1368  100 */\n      0x64\n        /* \"subasta1.sol\":1342:1362  porcentajeIncremento */\n      sload(0x03)\n        /* \"subasta1.sol\":1303:1310  ofertas */\n      0x06\n        /* \"subasta1.sol\":1328:1329  1 */\n      0x01\n        /* \"subasta1.sol\":1311:1318  ofertas */\n      0x06\n        /* \"subasta1.sol\":1311:1325  ofertas.length */\n      dup1\n      sload\n      swap1\n      pop\n        /* \"subasta1.sol\":1311:1329  ofertas.length - 1 */\n      tag_108\n      swap2\n      swap1\n      tag_93\n      jump\t// in\n    tag_108:\n        /* \"subasta1.sol\":1303:1330  ofertas[ofertas.length - 1] */\n      dup2\n      sload\n      dup2\n      lt\n      tag_109\n      jumpi\n      tag_110\n      tag_96\n      jump\t// in\n    tag_110:\n    tag_109:\n      swap1\n      0x00\n      mstore\n      keccak256(0x00, 0x20)\n      swap1\n      0x02\n      mul\n      add\n        /* \"subasta1.sol\":1303:1339  ofertas[ofertas.length - 1].cantidad */\n      0x01\n      add\n      sload\n        /* \"subasta1.sol\":1303:1362  ofertas[ofertas.length - 1].cantidad * porcentajeIncremento */\n      tag_112\n      swap2\n      swap1\n      tag_113\n      jump\t// in\n    tag_112:\n        /* \"subasta1.sol\":1303:1368  ofertas[ofertas.length - 1].cantidad * porcentajeIncremento / 100 */\n      tag_114\n      swap2\n      swap1\n      tag_115\n      jump\t// in\n    tag_114:\n        /* \"subasta1.sol\":1263:1270  ofertas */\n      0x06\n        /* \"subasta1.sol\":1288:1289  1 */\n      0x01\n        /* \"subasta1.sol\":1271:1278  ofertas */\n      0x06\n        /* \"subasta1.sol\":1271:1285  ofertas.length */\n      dup1\n      sload\n      swap1\n      pop\n        /* \"subasta1.sol\":1271:1289  ofertas.length - 1 */\n      tag_116\n      swap2\n      swap1\n      tag_93\n      jump\t// in\n    tag_116:\n        /* \"subasta1.sol\":1263:1290  ofertas[ofertas.length - 1] */\n      dup2\n      sload\n      dup2\n      lt\n      tag_117\n      jumpi\n      tag_118\n      tag_96\n      jump\t// in\n    tag_118:\n    tag_117:\n      swap1\n      0x00\n      mstore\n      keccak256(0x00, 0x20)\n      swap1\n      0x02\n      mul\n      add\n        /* \"subasta1.sol\":1263:1299  ofertas[ofertas.length - 1].cantidad */\n      0x01\n      add\n      sload\n        /* \"subasta1.sol\":1263:1369  ofertas[ofertas.length - 1].cantidad + (ofertas[ofertas.length - 1].cantidad * porcentajeIncremento / 100) */\n      tag_120\n      swap2\n      swap1\n      tag_121\n      jump\t// in\n    tag_120:\n        /* \"subasta1.sol\":1249:1369  montoMinimo = ofertas[ofertas.length - 1].cantidad + (ofertas[ofertas.length - 1].cantidad * porcentajeIncremento / 100) */\n      swap1\n      pop\n        /* \"subasta1.sol\":1210:1381  if (ofertas.length > 0) {... */\n    tag_107:\n        /* \"subasta1.sol\":1411:1422  montoMinimo */\n      dup1\n        /* \"subasta1.sol\":1399:1408  msg.value */\n      callvalue\n        /* \"subasta1.sol\":1399:1422  msg.value > montoMinimo */\n      gt\n        /* \"subasta1.sol\":1391:1484  require(msg.value > montoMinimo, \"La oferta debe superar en al menos un 5% la oferta actual\") */\n      tag_122\n      jumpi\n      mload(0x40)\n      0x08c379a000000000000000000000000000000000000000000000000000000000\n      dup2\n      mstore\n      0x04\n      add\n      tag_123\n      swap1\n      tag_124\n      jump\t// in\n    tag_123:\n      mload(0x40)\n      dup1\n      swap2\n      sub\n      swap1\n      revert\n    tag_122:\n        /* \"subasta1.sol\":1533:1543  10 minutes */\n      0x0258\n        /* \"subasta1.sol\":1519:1530  tiempoFinal */\n      sload(0x01)\n        /* \"subasta1.sol\":1519:1543  tiempoFinal - 10 minutes */\n      tag_125\n      swap2\n      swap1\n      tag_93\n      jump\t// in\n    tag_125:\n        /* \"subasta1.sol\":1501:1516  block.timestamp */\n      timestamp\n        /* \"subasta1.sol\":1501:1543  block.timestamp > tiempoFinal - 10 minutes */\n      gt\n        /* \"subasta1.sol\":1497:1602  if (block.timestamp > tiempoFinal - 10 minutes) {... */\n      iszero\n      tag_126\n      jumpi\n        /* \"subasta1.sol\":1575:1590  extensionTiempo */\n      sload(0x02)\n        /* \"subasta1.sol\":1560:1571  tiempoFinal */\n      0x01\n      0x00\n        /* \"subasta1.sol\":1560:1590  tiempoFinal += extensionTiempo */\n      dup3\n      dup3\n      sload\n      tag_127\n      swap2\n      swap1\n      tag_121\n      jump\t// in\n    tag_127:\n      swap3\n      pop\n      pop\n      dup2\n      swap1\n      sstore\n      pop\n        /* \"subasta1.sol\":1497:1602  if (block.timestamp > tiempoFinal - 10 minutes) {... */\n    tag_126:\n        /* \"subasta1.sol\":1614:1621  ofertas */\n      0x06\n        /* \"subasta1.sol\":1627:1656  Oferta(msg.sender, msg.value) */\n      mload(0x40)\n      dup1\n      0x40\n      add\n      0x40\n      mstore\n      dup1\n        /* \"subasta1.sol\":1634:1644  msg.sender */\n      caller\n        /* \"subasta1.sol\":1627:1656  Oferta(msg.sender, msg.value) */\n      0xffffffffffffffffffffffffffffffffffffffff\n      and\n      dup2\n      mstore\n      0x20\n      add\n        /* \"subasta1.sol\":1646:1655  msg.value */\n      callvalue\n        /* \"subasta1.sol\":1627:1656  Oferta(msg.sender, msg.value) */\n      dup2\n      mstore\n      pop\n        /* \"subasta1.sol\":1614:1657  ofertas.push(Oferta(msg.sender, msg.value)) */\n      swap1\n      dup1\n      0x01\n      dup2\n      sload\n      add\n      dup1\n      dup3\n      sstore\n      dup1\n      swap2\n      pop\n      pop\n      0x01\n      swap1\n      sub\n      swap1\n      0x00\n      mstore\n      keccak256(0x00, 0x20)\n      swap1\n      0x02\n      mul\n      add\n      0x00\n      swap1\n      swap2\n      swap1\n      swap2\n      swap1\n      swap2\n      pop\n      0x00\n      dup3\n      add\n      mload\n      dup2\n      0x00\n      add\n      exp(0x0100, 0x00)\n      dup2\n      sload\n      dup2\n      0xffffffffffffffffffffffffffffffffffffffff\n      mul\n      not\n      and\n      swap1\n      dup4\n      0xffffffffffffffffffffffffffffffffffffffff\n      and\n      mul\n      or\n      swap1\n      sstore\n      pop\n      0x20\n      dup3\n      add\n      mload\n      dup2\n      0x01\n      add\n      sstore\n      pop\n      pop\n        /* \"subasta1.sol\":1693:1702  msg.value */\n      callvalue\n        /* \"subasta1.sol\":1668:1677  depositos */\n      0x07\n        /* \"subasta1.sol\":1668:1689  depositos[msg.sender] */\n      0x00\n        /* \"subasta1.sol\":1678:1688  msg.sender */\n      caller\n        /* \"subasta1.sol\":1668:1689  depositos[msg.sender] */\n      0xffffffffffffffffffffffffffffffffffffffff\n      and\n      0xffffffffffffffffffffffffffffffffffffffff\n      and\n      dup2\n      mstore\n      0x20\n      add\n      swap1\n      dup2\n      mstore\n      0x20\n      add\n      0x00\n      keccak256\n      0x00\n        /* \"subasta1.sol\":1668:1702  depositos[msg.sender] += msg.value */\n      dup3\n      dup3\n      sload\n      tag_129\n      swap2\n      swap1\n      tag_121\n      jump\t// in\n    tag_129:\n      swap3\n      pop\n      pop\n      dup2\n      swap1\n      sstore\n      pop\n        /* \"subasta1.sol\":1718:1752  NuevaOferta(msg.sender, msg.value) */\n      0x155d469211f46e4d9ae974606f0878f9aacc6198ba30a1e6b9c8cf5627352fb5\n        /* \"subasta1.sol\":1730:1740  msg.sender */\n      caller\n        /* \"subasta1.sol\":1742:1751  msg.value */\n      callvalue\n        /* \"subasta1.sol\":1718:1752  NuevaOferta(msg.sender, msg.value) */\n      mload(0x40)\n      tag_130\n      swap3\n      swap2\n      swap1\n      tag_40\n      jump\t// in\n    tag_130:\n      mload(0x40)\n      dup1\n      swap2\n      sub\n      swap1\n      log1\n        /* \"subasta1.sol\":1150:1760  {... */\n      pop\n        /* \"subasta1.sol\":1089:1760  function ofertar() external payable soloDuranteSubastaActiva {... */\n      jump\t// out\n        /* \"subasta1.sol\":467:490  Oferta[] public ofertas */\n    tag_38:\n      0x06\n      dup2\n      dup2\n      sload\n      dup2\n      lt\n      tag_131\n      jumpi\n      0x00\n      dup1\n      revert\n    tag_131:\n      swap1\n      0x00\n      mstore\n      keccak256(0x00, 0x20)\n      swap1\n      0x02\n      mul\n      add\n      0x00\n      swap2\n      pop\n      swap1\n      pop\n      dup1\n      0x00\n      add\n      0x00\n      swap1\n      sload\n      swap1\n      0x0100\n      exp\n      swap1\n      div\n      0xffffffffffffffffffffffffffffffffffffffff\n      and\n      swap1\n      dup1\n      0x01\n      add\n      sload\n      swap1\n      pop\n      dup3\n      jump\t// out\n        /* \"subasta1.sol\":497:538  mapping(address => uint) public depositos */\n    tag_45:\n      mstore(0x20, 0x07)\n      dup1\n      0x00\n      mstore\n      keccak256(0x00, 0x40)\n      0x00\n      swap2\n      pop\n      swap1\n      pop\n      sload\n      dup2\n      jump\t// out\n        /* \"subasta1.sol\":1768:2045  function mostrarGanador() external view returns (address ganador, uint cantidadGanadora) {... */\n    tag_50:\n        /* \"subasta1.sol\":1817:1832  address ganador */\n      0x00\n        /* \"subasta1.sol\":1834:1855  uint cantidadGanadora */\n      dup1\n        /* \"subasta1.sol\":1893:1894  0 */\n      0x00\n        /* \"subasta1.sol\":1876:1883  ofertas */\n      0x06\n        /* \"subasta1.sol\":1876:1890  ofertas.length */\n      dup1\n      sload\n      swap1\n      pop\n        /* \"subasta1.sol\":1876:1894  ofertas.length > 0 */\n      gt\n        /* \"subasta1.sol\":1868:1913  require(ofertas.length > 0, \"No hay ofertas\") */\n      tag_134\n      jumpi\n      mload(0x40)\n      0x08c379a000000000000000000000000000000000000000000000000000000000\n      dup2\n      mstore\n      0x04\n      add\n      tag_135\n      swap1\n      tag_136\n      jump\t// in\n    tag_135:\n      mload(0x40)\n      dup1\n      swap2\n      sub\n      swap1\n      revert\n    tag_134:\n        /* \"subasta1.sol\":1934:1941  ofertas */\n      0x06\n        /* \"subasta1.sol\":1959:1960  1 */\n      0x01\n        /* \"subasta1.sol\":1942:1949  ofertas */\n      0x06\n        /* \"subasta1.sol\":1942:1956  ofertas.length */\n      dup1\n      sload\n      swap1\n      pop\n        /* \"subasta1.sol\":1942:1960  ofertas.length - 1 */\n      tag_137\n      swap2\n      swap1\n      tag_93\n      jump\t// in\n    tag_137:\n        /* \"subasta1.sol\":1934:1961  ofertas[ofertas.length - 1] */\n      dup2\n      sload\n      dup2\n      lt\n      tag_138\n      jumpi\n      tag_139\n      tag_96\n      jump\t// in\n    tag_139:\n    tag_138:\n      swap1\n      0x00\n      mstore\n      keccak256(0x00, 0x20)\n      swap1\n      0x02\n      mul\n      add\n        /* \"subasta1.sol\":1934:1971  ofertas[ofertas.length - 1].ofertante */\n      0x00\n      add\n      0x00\n      swap1\n      sload\n      swap1\n      0x0100\n      exp\n      swap1\n      div\n      0xffffffffffffffffffffffffffffffffffffffff\n      and\n        /* \"subasta1.sol\":1924:1971  ganador = ofertas[ofertas.length - 1].ofertante */\n      swap2\n      pop\n        /* \"subasta1.sol\":2001:2008  ofertas */\n      0x06\n        /* \"subasta1.sol\":2026:2027  1 */\n      0x01\n        /* \"subasta1.sol\":2009:2016  ofertas */\n      0x06\n        /* \"subasta1.sol\":2009:2023  ofertas.length */\n      dup1\n      sload\n      swap1\n      pop\n        /* \"subasta1.sol\":2009:2027  ofertas.length - 1 */\n      tag_141\n      swap2\n      swap1\n      tag_93\n      jump\t// in\n    tag_141:\n        /* \"subasta1.sol\":2001:2028  ofertas[ofertas.length - 1] */\n      dup2\n      sload\n      dup2\n      lt\n      tag_142\n      jumpi\n      tag_143\n      tag_96\n      jump\t// in\n    tag_143:\n    tag_142:\n      swap1\n      0x00\n      mstore\n      keccak256(0x00, 0x20)\n      swap1\n      0x02\n      mul\n      add\n        /* \"subasta1.sol\":2001:2037  ofertas[ofertas.length - 1].cantidad */\n      0x01\n      add\n      sload\n        /* \"subasta1.sol\":1982:2037  cantidadGanadora = ofertas[ofertas.length - 1].cantidad */\n      swap1\n      pop\n        /* \"subasta1.sol\":1768:2045  function mostrarGanador() external view returns (address ganador, uint cantidadGanadora) {... */\n      swap1\n      swap2\n      jump\t// out\n        /* \"subasta1.sol\":3062:3682  function retiroParcial() external soloDuranteSubastaActiva {... */\n    tag_54:\n        /* \"subasta1.sol\":876:882  activa */\n      0x05\n      0x00\n      swap1\n      sload\n      swap1\n      0x0100\n      exp\n      swap1\n      div\n      0xff\n      and\n        /* \"subasta1.sol\":868:914  require(activa, \"La subasta ya ha finalizado\") */\n      tag_146\n      jumpi\n      mload(0x40)\n      0x08c379a000000000000000000000000000000000000000000000000000000000\n      dup2\n      mstore\n      0x04\n      add\n      tag_147\n      swap1\n      tag_86\n      jump\t// in\n    tag_147:\n      mload(0x40)\n      dup1\n      swap2\n      sub\n      swap1\n      revert\n    tag_146:\n        /* \"subasta1.sol\":3132:3151  uint depositoActual */\n      0x00\n        /* \"subasta1.sol\":3154:3163  depositos */\n      0x07\n        /* \"subasta1.sol\":3154:3175  depositos[msg.sender] */\n      0x00\n        /* \"subasta1.sol\":3164:3174  msg.sender */\n      caller\n        /* \"subasta1.sol\":3154:3175  depositos[msg.sender] */\n      0xffffffffffffffffffffffffffffffffffffffff\n      and\n      0xffffffffffffffffffffffffffffffffffffffff\n      and\n      dup2\n      mstore\n      0x20\n      add\n      swap1\n      dup2\n      mstore\n      0x20\n      add\n      0x00\n      keccak256\n      sload\n        /* \"subasta1.sol\":3132:3175  uint depositoActual = depositos[msg.sender] */\n      swap1\n      pop\n        /* \"subasta1.sol\":3186:3203  uint ultimaOferta */\n      0x00\n        /* \"subasta1.sol\":3225:3231  uint i */\n      dup1\n        /* \"subasta1.sol\":3234:3241  ofertas */\n      0x06\n        /* \"subasta1.sol\":3234:3248  ofertas.length */\n      dup1\n      sload\n      swap1\n      pop\n        /* \"subasta1.sol\":3225:3248  uint i = ofertas.length */\n      swap1\n      pop\n        /* \"subasta1.sol\":3220:3429  for (uint i = ofertas.length; i > 0; i--) {... */\n    tag_149:\n        /* \"subasta1.sol\":3254:3255  0 */\n      0x00\n        /* \"subasta1.sol\":3250:3251  i */\n      dup2\n        /* \"subasta1.sol\":3250:3255  i > 0 */\n      gt\n        /* \"subasta1.sol\":3220:3429  for (uint i = ofertas.length; i > 0; i--) {... */\n      iszero\n      tag_150\n      jumpi\n        /* \"subasta1.sol\":3309:3319  msg.sender */\n      caller\n        /* \"subasta1.sol\":3281:3319  ofertas[i - 1].ofertante == msg.sender */\n      0xffffffffffffffffffffffffffffffffffffffff\n      and\n        /* \"subasta1.sol\":3281:3288  ofertas */\n      0x06\n        /* \"subasta1.sol\":3293:3294  1 */\n      0x01\n        /* \"subasta1.sol\":3289:3290  i */\n      dup4\n        /* \"subasta1.sol\":3289:3294  i - 1 */\n      tag_152\n      swap2\n      swap1\n      tag_93\n      jump\t// in\n    tag_152:\n        /* \"subasta1.sol\":3281:3295  ofertas[i - 1] */\n      dup2\n      sload\n      dup2\n      lt\n      tag_153\n      jumpi\n      tag_154\n      tag_96\n      jump\t// in\n    tag_154:\n    tag_153:\n      swap1\n      0x00\n      mstore\n      keccak256(0x00, 0x20)\n      swap1\n      0x02\n      mul\n      add\n        /* \"subasta1.sol\":3281:3305  ofertas[i - 1].ofertante */\n      0x00\n      add\n      0x00\n      swap1\n      sload\n      swap1\n      0x0100\n      exp\n      swap1\n      div\n      0xffffffffffffffffffffffffffffffffffffffff\n      and\n        /* \"subasta1.sol\":3281:3319  ofertas[i - 1].ofertante == msg.sender */\n      0xffffffffffffffffffffffffffffffffffffffff\n      and\n      sub\n        /* \"subasta1.sol\":3277:3418  if (ofertas[i - 1].ofertante == msg.sender) {... */\n      tag_156\n      jumpi\n        /* \"subasta1.sol\":3355:3362  ofertas */\n      0x06\n        /* \"subasta1.sol\":3367:3368  1 */\n      0x01\n        /* \"subasta1.sol\":3363:3364  i */\n      dup3\n        /* \"subasta1.sol\":3363:3368  i - 1 */\n      tag_157\n      swap2\n      swap1\n      tag_93\n      jump\t// in\n    tag_157:\n        /* \"subasta1.sol\":3355:3369  ofertas[i - 1] */\n      dup2\n      sload\n      dup2\n      lt\n      tag_158\n      jumpi\n      tag_159\n      tag_96\n      jump\t// in\n    tag_159:\n    tag_158:\n      swap1\n      0x00\n      mstore\n      keccak256(0x00, 0x20)\n      swap1\n      0x02\n      mul\n      add\n        /* \"subasta1.sol\":3355:3378  ofertas[i - 1].cantidad */\n      0x01\n      add\n      sload\n        /* \"subasta1.sol\":3340:3378  ultimaOferta = ofertas[i - 1].cantidad */\n      swap2\n      pop\n        /* \"subasta1.sol\":3397:3402  break */\n      jump(tag_150)\n        /* \"subasta1.sol\":3277:3418  if (ofertas[i - 1].ofertante == msg.sender) {... */\n    tag_156:\n        /* \"subasta1.sol\":3257:3260  i-- */\n      dup1\n      dup1\n      tag_161\n      swap1\n      tag_162\n      jump\t// in\n    tag_161:\n      swap2\n      pop\n      pop\n        /* \"subasta1.sol\":3220:3429  for (uint i = ofertas.length; i > 0; i--) {... */\n      jump(tag_149)\n    tag_150:\n      pop\n        /* \"subasta1.sol\":3466:3478  ultimaOferta */\n      dup1\n        /* \"subasta1.sol\":3449:3463  depositoActual */\n      dup3\n        /* \"subasta1.sol\":3449:3478  depositoActual > ultimaOferta */\n      gt\n        /* \"subasta1.sol\":3441:3512  require(depositoActual > ultimaOferta, \"No hay excedente para retirar\") */\n      tag_163\n      jumpi\n      mload(0x40)\n      0x08c379a000000000000000000000000000000000000000000000000000000000\n      dup2\n      mstore\n      0x04\n      add\n      tag_164\n      swap1\n      tag_165\n      jump\t// in\n    tag_164:\n      mload(0x40)\n      dup1\n      swap2\n      sub\n      swap1\n      revert\n    tag_163:\n        /* \"subasta1.sol\":3523:3537  uint excedente */\n      0x00\n        /* \"subasta1.sol\":3557:3569  ultimaOferta */\n      dup2\n        /* \"subasta1.sol\":3540:3554  depositoActual */\n      dup4\n        /* \"subasta1.sol\":3540:3569  depositoActual - ultimaOferta */\n      tag_166\n      swap2\n      swap1\n      tag_93\n      jump\t// in\n    tag_166:\n        /* \"subasta1.sol\":3523:3569  uint excedente = depositoActual - ultimaOferta */\n      swap1\n      pop\n        /* \"subasta1.sol\":3615:3624  excedente */\n      dup1\n        /* \"subasta1.sol\":3590:3599  depositos */\n      0x07\n        /* \"subasta1.sol\":3590:3611  depositos[msg.sender] */\n      0x00\n        /* \"subasta1.sol\":3600:3610  msg.sender */\n      caller\n        /* \"subasta1.sol\":3590:3611  depositos[msg.sender] */\n      0xffffffffffffffffffffffffffffffffffffffff\n      and\n      0xffffffffffffffffffffffffffffffffffffffff\n      and\n      dup2\n      mstore\n      0x20\n      add\n      swap1\n      dup2\n      mstore\n      0x20\n      add\n      0x00\n      keccak256\n      0x00\n        /* \"subasta1.sol\":3590:3624  depositos[msg.sender] -= excedente */\n      dup3\n      dup3\n      sload\n      tag_167\n      swap2\n      swap1\n      tag_93\n      jump\t// in\n    tag_167:\n      swap3\n      pop\n      pop\n      dup2\n      swap1\n      sstore\n      pop\n        /* \"subasta1.sol\":3643:3653  msg.sender */\n      caller\n        /* \"subasta1.sol\":3635:3663  payable(msg.sender).transfer */\n      0xffffffffffffffffffffffffffffffffffffffff\n      and\n        /* \"subasta1.sol\":3635:3674  payable(msg.sender).transfer(excedente) */\n      0x08fc\n        /* \"subasta1.sol\":3664:3673  excedente */\n      dup3\n        /* \"subasta1.sol\":3635:3674  payable(msg.sender).transfer(excedente) */\n      swap1\n      dup2\n      iszero\n      mul\n      swap1\n      mload(0x40)\n      0x00\n      mload(0x40)\n      dup1\n      dup4\n      sub\n      dup2\n      dup6\n      dup9\n      dup9\n      call\n      swap4\n      pop\n      pop\n      pop\n      pop\n      iszero\n      dup1\n      iszero\n      tag_169\n      jumpi\n      returndatasize\n      0x00\n      dup1\n      returndatacopy\n      revert(0x00, returndatasize)\n    tag_169:\n      pop\n        /* \"subasta1.sol\":3121:3682  {... */\n      pop\n      pop\n      pop\n        /* \"subasta1.sol\":3062:3682  function retiroParcial() external soloDuranteSubastaActiva {... */\n      jump\t// out\n        /* \"subasta1.sol\":2522:3054  function retirarDeposito() external {... */\n    tag_57:\n        /* \"subasta1.sol\":2578:2584  activa */\n      0x05\n      0x00\n      swap1\n      sload\n      swap1\n      0x0100\n      exp\n      swap1\n      div\n      0xff\n      and\n        /* \"subasta1.sol\":2577:2584  !activa */\n      iszero\n        /* \"subasta1.sol\":2569:2615  require(!activa, \"La subasta aun esta activa\") */\n      tag_171\n      jumpi\n      mload(0x40)\n      0x08c379a000000000000000000000000000000000000000000000000000000000\n      dup2\n      mstore\n      0x04\n      add\n      tag_172\n      swap1\n      tag_173\n      jump\t// in\n    tag_172:\n      mload(0x40)\n      dup1\n      swap2\n      sub\n      swap1\n      revert\n    tag_171:\n        /* \"subasta1.sol\":2626:2640  uint reembolso */\n      0x00\n        /* \"subasta1.sol\":2643:2652  depositos */\n      0x07\n        /* \"subasta1.sol\":2643:2664  depositos[msg.sender] */\n      0x00\n        /* \"subasta1.sol\":2653:2663  msg.sender */\n      caller\n        /* \"subasta1.sol\":2643:2664  depositos[msg.sender] */\n      0xffffffffffffffffffffffffffffffffffffffff\n      and\n      0xffffffffffffffffffffffffffffffffffffffff\n      and\n      dup2\n      mstore\n      0x20\n      add\n      swap1\n      dup2\n      mstore\n      0x20\n      add\n      0x00\n      keccak256\n      sload\n        /* \"subasta1.sol\":2626:2664  uint reembolso = depositos[msg.sender] */\n      swap1\n      pop\n        /* \"subasta1.sol\":2695:2696  0 */\n      0x00\n        /* \"subasta1.sol\":2683:2692  reembolso */\n      dup2\n        /* \"subasta1.sol\":2683:2696  reembolso > 0 */\n      gt\n        /* \"subasta1.sol\":2675:2730  require(reembolso > 0, \"No hay deposito para devolver\") */\n      tag_174\n      jumpi\n      mload(0x40)\n      0x08c379a000000000000000000000000000000000000000000000000000000000\n      dup2\n      mstore\n      0x04\n      add\n      tag_175\n      swap1\n      tag_176\n      jump\t// in\n    tag_175:\n      mload(0x40)\n      dup1\n      swap2\n      sub\n      swap1\n      revert\n    tag_174:\n        /* \"subasta1.sol\":2751:2766  address ganador */\n      0x00\n        /* \"subasta1.sol\":2769:2776  ofertas */\n      0x06\n        /* \"subasta1.sol\":2794:2795  1 */\n      0x01\n        /* \"subasta1.sol\":2777:2784  ofertas */\n      0x06\n        /* \"subasta1.sol\":2777:2791  ofertas.length */\n      dup1\n      sload\n      swap1\n      pop\n        /* \"subasta1.sol\":2777:2795  ofertas.length - 1 */\n      tag_177\n      swap2\n      swap1\n      tag_93\n      jump\t// in\n    tag_177:\n        /* \"subasta1.sol\":2769:2796  ofertas[ofertas.length - 1] */\n      dup2\n      sload\n      dup2\n      lt\n      tag_178\n      jumpi\n      tag_179\n      tag_96\n      jump\t// in\n    tag_179:\n    tag_178:\n      swap1\n      0x00\n      mstore\n      keccak256(0x00, 0x20)\n      swap1\n      0x02\n      mul\n      add\n        /* \"subasta1.sol\":2769:2806  ofertas[ofertas.length - 1].ofertante */\n      0x00\n      add\n      0x00\n      swap1\n      sload\n      swap1\n      0x0100\n      exp\n      swap1\n      div\n      0xffffffffffffffffffffffffffffffffffffffff\n      and\n        /* \"subasta1.sol\":2751:2806  address ganador = ofertas[ofertas.length - 1].ofertante */\n      swap1\n      pop\n        /* \"subasta1.sol\":2835:2842  ganador */\n      dup1\n        /* \"subasta1.sol\":2821:2842  msg.sender != ganador */\n      0xffffffffffffffffffffffffffffffffffffffff\n      and\n        /* \"subasta1.sol\":2821:2831  msg.sender */\n      caller\n        /* \"subasta1.sol\":2821:2842  msg.sender != ganador */\n      0xffffffffffffffffffffffffffffffffffffffff\n      and\n      eq\n        /* \"subasta1.sol\":2817:2951  if (msg.sender != ganador) {... */\n      tag_181\n      jumpi\n        /* \"subasta1.sol\":2859:2873  uint descuento */\n      0x00\n        /* \"subasta1.sol\":2899:2902  100 */\n      0x64\n        /* \"subasta1.sol\":2888:2896  comision */\n      sload(0x04)\n        /* \"subasta1.sol\":2876:2885  reembolso */\n      dup5\n        /* \"subasta1.sol\":2876:2896  reembolso * comision */\n      tag_182\n      swap2\n      swap1\n      tag_113\n      jump\t// in\n    tag_182:\n        /* \"subasta1.sol\":2876:2902  reembolso * comision / 100 */\n      tag_183\n      swap2\n      swap1\n      tag_115\n      jump\t// in\n    tag_183:\n        /* \"subasta1.sol\":2859:2902  uint descuento = reembolso * comision / 100 */\n      swap1\n      pop\n        /* \"subasta1.sol\":2930:2939  descuento */\n      dup1\n        /* \"subasta1.sol\":2917:2939  reembolso -= descuento */\n      dup4\n      tag_184\n      swap2\n      swap1\n      tag_93\n      jump\t// in\n    tag_184:\n      swap3\n      pop\n        /* \"subasta1.sol\":2844:2951  {... */\n      pop\n        /* \"subasta1.sol\":2817:2951  if (msg.sender != ganador) {... */\n    tag_181:\n        /* \"subasta1.sol\":2995:2996  0 */\n      0x00\n        /* \"subasta1.sol\":2971:2980  depositos */\n      0x07\n        /* \"subasta1.sol\":2971:2992  depositos[msg.sender] */\n      0x00\n        /* \"subasta1.sol\":2981:2991  msg.sender */\n      caller\n        /* \"subasta1.sol\":2971:2992  depositos[msg.sender] */\n      0xffffffffffffffffffffffffffffffffffffffff\n      and\n      0xffffffffffffffffffffffffffffffffffffffff\n      and\n      dup2\n      mstore\n      0x20\n      add\n      swap1\n      dup2\n      mstore\n      0x20\n      add\n      0x00\n      keccak256\n        /* \"subasta1.sol\":2971:2996  depositos[msg.sender] = 0 */\n      dup2\n      swap1\n      sstore\n      pop\n        /* \"subasta1.sol\":3015:3025  msg.sender */\n      caller\n        /* \"subasta1.sol\":3007:3035  payable(msg.sender).transfer */\n      0xffffffffffffffffffffffffffffffffffffffff\n      and\n        /* \"subasta1.sol\":3007:3046  payable(msg.sender).transfer(reembolso) */\n      0x08fc\n        /* \"subasta1.sol\":3036:3045  reembolso */\n      dup4\n        /* \"subasta1.sol\":3007:3046  payable(msg.sender).transfer(reembolso) */\n      swap1\n      dup2\n      iszero\n      mul\n      swap1\n      mload(0x40)\n      0x00\n      mload(0x40)\n      dup1\n      dup4\n      sub\n      dup2\n      dup6\n      dup9\n      dup9\n      call\n      swap4\n      pop\n      pop\n      pop\n      pop\n      iszero\n      dup1\n      iszero\n      tag_186\n      jumpi\n      returndatasize\n      0x00\n      dup1\n      returndatacopy\n      revert(0x00, returndatasize)\n    tag_186:\n      pop\n        /* \"subasta1.sol\":2558:3054  {... */\n      pop\n      pop\n        /* \"subasta1.sol\":2522:3054  function retirarDeposito() external {... */\n      jump\t// out\n        /* \"subasta1.sol\":274:298  uint public comision = 2 */\n    tag_60:\n      sload(0x04)\n      dup2\n      jump\t// out\n        /* \"subasta1.sol\":2053:2152  function mostrarOfertas() external view returns (Oferta[] memory) {... */\n    tag_64:\n        /* \"subasta1.sol\":2102:2117  Oferta[] memory */\n      0x60\n        /* \"subasta1.sol\":2137:2144  ofertas */\n      0x06\n        /* \"subasta1.sol\":2130:2144  return ofertas */\n      dup1\n      sload\n      dup1\n      0x20\n      mul\n      0x20\n      add\n      mload(0x40)\n      swap1\n      dup2\n      add\n      0x40\n      mstore\n      dup1\n      swap3\n      swap2\n      swap1\n      dup2\n      dup2\n      mstore\n      0x20\n      add\n      0x00\n      swap1\n    tag_188:\n      dup3\n      dup3\n      lt\n      iszero\n      tag_189\n      jumpi\n      dup4\n      dup3\n      swap1\n      0x00\n      mstore\n      keccak256(0x00, 0x20)\n      swap1\n      0x02\n      mul\n      add\n      mload(0x40)\n      dup1\n      0x40\n      add\n      0x40\n      mstore\n      swap1\n      dup2\n      0x00\n      dup3\n      add\n      0x00\n      swap1\n      sload\n      swap1\n      0x0100\n      exp\n      swap1\n      div\n      0xffffffffffffffffffffffffffffffffffffffff\n      and\n      0xffffffffffffffffffffffffffffffffffffffff\n      and\n      0xffffffffffffffffffffffffffffffffffffffff\n      and\n      dup2\n      mstore\n      0x20\n      add\n      0x01\n      dup3\n      add\n      sload\n      dup2\n      mstore\n      pop\n      pop\n      dup2\n      mstore\n      0x20\n      add\n      swap1\n      0x01\n      add\n      swap1\n      jump(tag_188)\n    tag_189:\n      pop\n      pop\n      pop\n      pop\n      swap1\n      pop\n        /* \"subasta1.sol\":2053:2152  function mostrarOfertas() external view returns (Oferta[] memory) {... */\n      swap1\n      jump\t// out\n        /* \"subasta1.sol\":116:139  uint public tiempoFinal */\n    tag_69:\n      sload(0x01)\n      dup2\n      jump\t// out\n        /* \"subasta1.sol\":193:229  uint public porcentajeIncremento = 5 */\n    tag_73:\n      sload(0x03)\n      dup2\n      jump\t// out\n        /* \"subasta1.sol\":146:186  uint public extensionTiempo = 10 minutes */\n    tag_77:\n      sload(0x02)\n      dup2\n      jump\t// out\n        /* \"#utility.yul\":7:97   */\n    tag_191:\n        /* \"#utility.yul\":41:48   */\n      0x00\n        /* \"#utility.yul\":84:89   */\n      dup2\n        /* \"#utility.yul\":77:90   */\n      iszero\n        /* \"#utility.yul\":70:91   */\n      iszero\n        /* \"#utility.yul\":59:91   */\n      swap1\n      pop\n        /* \"#utility.yul\":7:97   */\n      swap2\n      swap1\n      pop\n      jump\t// out\n        /* \"#utility.yul\":103:212   */\n    tag_192:\n        /* \"#utility.yul\":184:205   */\n      tag_236\n        /* \"#utility.yul\":199:204   */\n      dup2\n        /* \"#utility.yul\":184:205   */\n      tag_191\n      jump\t// in\n    tag_236:\n        /* \"#utility.yul\":179:182   */\n      dup3\n        /* \"#utility.yul\":172:206   */\n      mstore\n        /* \"#utility.yul\":103:212   */\n      pop\n      pop\n      jump\t// out\n        /* \"#utility.yul\":218:428   */\n    tag_26:\n        /* \"#utility.yul\":305:309   */\n      0x00\n        /* \"#utility.yul\":343:345   */\n      0x20\n        /* \"#utility.yul\":332:341   */\n      dup3\n        /* \"#utility.yul\":328:346   */\n      add\n        /* \"#utility.yul\":320:346   */\n      swap1\n      pop\n        /* \"#utility.yul\":356:421   */\n      tag_238\n        /* \"#utility.yul\":418:419   */\n      0x00\n        /* \"#utility.yul\":407:416   */\n      dup4\n        /* \"#utility.yul\":403:420   */\n      add\n        /* \"#utility.yul\":394:400   */\n      dup5\n        /* \"#utility.yul\":356:421   */\n      tag_192\n      jump\t// in\n    tag_238:\n        /* \"#utility.yul\":218:428   */\n      swap3\n      swap2\n      pop\n      pop\n      jump\t// out\n        /* \"#utility.yul\":434:560   */\n    tag_193:\n        /* \"#utility.yul\":471:478   */\n      0x00\n        /* \"#utility.yul\":511:553   */\n      0xffffffffffffffffffffffffffffffffffffffff\n        /* \"#utility.yul\":504:509   */\n      dup3\n        /* \"#utility.yul\":500:554   */\n      and\n        /* \"#utility.yul\":489:554   */\n      swap1\n      pop\n        /* \"#utility.yul\":434:560   */\n      swap2\n      swap1\n      pop\n      jump\t// out\n        /* \"#utility.yul\":566:662   */\n    tag_194:\n        /* \"#utility.yul\":603:610   */\n      0x00\n        /* \"#utility.yul\":632:656   */\n      tag_241\n        /* \"#utility.yul\":650:655   */\n      dup3\n        /* \"#utility.yul\":632:656   */\n      tag_193\n      jump\t// in\n    tag_241:\n        /* \"#utility.yul\":621:656   */\n      swap1\n      pop\n        /* \"#utility.yul\":566:662   */\n      swap2\n      swap1\n      pop\n      jump\t// out\n        /* \"#utility.yul\":668:786   */\n    tag_195:\n        /* \"#utility.yul\":755:779   */\n      tag_243\n        /* \"#utility.yul\":773:778   */\n      dup2\n        /* \"#utility.yul\":755:779   */\n      tag_194\n      jump\t// in\n    tag_243:\n        /* \"#utility.yul\":750:753   */\n      dup3\n        /* \"#utility.yul\":743:780   */\n      mstore\n        /* \"#utility.yul\":668:786   */\n      pop\n      pop\n      jump\t// out\n        /* \"#utility.yul\":792:1014   */\n    tag_31:\n        /* \"#utility.yul\":885:889   */\n      0x00\n        /* \"#utility.yul\":923:925   */\n      0x20\n        /* \"#utility.yul\":912:921   */\n      dup3\n        /* \"#utility.yul\":908:926   */\n      add\n        /* \"#utility.yul\":900:926   */\n      swap1\n      pop\n        /* \"#utility.yul\":936:1007   */\n      tag_245\n        /* \"#utility.yul\":1004:1005   */\n      0x00\n        /* \"#utility.yul\":993:1002   */\n      dup4\n        /* \"#utility.yul\":989:1006   */\n      add\n        /* \"#utility.yul\":980:986   */\n      dup5\n        /* \"#utility.yul\":936:1007   */\n      tag_195\n      jump\t// in\n    tag_245:\n        /* \"#utility.yul\":792:1014   */\n      swap3\n      swap2\n      pop\n      pop\n      jump\t// out\n        /* \"#utility.yul\":1101:1218   */\n    tag_197:\n        /* \"#utility.yul\":1210:1211   */\n      0x00\n        /* \"#utility.yul\":1207:1208   */\n      dup1\n        /* \"#utility.yul\":1200:1212   */\n      revert\n        /* \"#utility.yul\":1347:1424   */\n    tag_199:\n        /* \"#utility.yul\":1384:1391   */\n      0x00\n        /* \"#utility.yul\":1413:1418   */\n      dup2\n        /* \"#utility.yul\":1402:1418   */\n      swap1\n      pop\n        /* \"#utility.yul\":1347:1424   */\n      swap2\n      swap1\n      pop\n      jump\t// out\n        /* \"#utility.yul\":1430:1552   */\n    tag_200:\n        /* \"#utility.yul\":1503:1527   */\n      tag_251\n        /* \"#utility.yul\":1521:1526   */\n      dup2\n        /* \"#utility.yul\":1503:1527   */\n      tag_199\n      jump\t// in\n    tag_251:\n        /* \"#utility.yul\":1496:1501   */\n      dup2\n        /* \"#utility.yul\":1493:1528   */\n      eq\n        /* \"#utility.yul\":1483:1546   */\n      tag_252\n      jumpi\n        /* \"#utility.yul\":1542:1543   */\n      0x00\n        /* \"#utility.yul\":1539:1540   */\n      dup1\n        /* \"#utility.yul\":1532:1544   */\n      revert\n        /* \"#utility.yul\":1483:1546   */\n    tag_252:\n        /* \"#utility.yul\":1430:1552   */\n      pop\n      jump\t// out\n        /* \"#utility.yul\":1558:1697   */\n    tag_201:\n        /* \"#utility.yul\":1604:1609   */\n      0x00\n        /* \"#utility.yul\":1642:1648   */\n      dup2\n        /* \"#utility.yul\":1629:1649   */\n      calldataload\n        /* \"#utility.yul\":1620:1649   */\n      swap1\n      pop\n        /* \"#utility.yul\":1658:1691   */\n      tag_254\n        /* \"#utility.yul\":1685:1690   */\n      dup2\n        /* \"#utility.yul\":1658:1691   */\n      tag_200\n      jump\t// in\n    tag_254:\n        /* \"#utility.yul\":1558:1697   */\n      swap3\n      swap2\n      pop\n      pop\n      jump\t// out\n        /* \"#utility.yul\":1703:2032   */\n    tag_37:\n        /* \"#utility.yul\":1762:1768   */\n      0x00\n        /* \"#utility.yul\":1811:1813   */\n      0x20\n        /* \"#utility.yul\":1799:1808   */\n      dup3\n        /* \"#utility.yul\":1790:1797   */\n      dup5\n        /* \"#utility.yul\":1786:1809   */\n      sub\n        /* \"#utility.yul\":1782:1814   */\n      slt\n        /* \"#utility.yul\":1779:1898   */\n      iszero\n      tag_256\n      jumpi\n        /* \"#utility.yul\":1817:1896   */\n      tag_257\n      tag_197\n      jump\t// in\n    tag_257:\n        /* \"#utility.yul\":1779:1898   */\n    tag_256:\n        /* \"#utility.yul\":1937:1938   */\n      0x00\n        /* \"#utility.yul\":1962:2015   */\n      tag_258\n        /* \"#utility.yul\":2007:2014   */\n      dup5\n        /* \"#utility.yul\":1998:2004   */\n      dup3\n        /* \"#utility.yul\":1987:1996   */\n      dup6\n        /* \"#utility.yul\":1983:2005   */\n      add\n        /* \"#utility.yul\":1962:2015   */\n      tag_201\n      jump\t// in\n    tag_258:\n        /* \"#utility.yul\":1952:2015   */\n      swap2\n      pop\n        /* \"#utility.yul\":1908:2025   */\n      pop\n        /* \"#utility.yul\":1703:2032   */\n      swap3\n      swap2\n      pop\n      pop\n      jump\t// out\n        /* \"#utility.yul\":2038:2156   */\n    tag_202:\n        /* \"#utility.yul\":2125:2149   */\n      tag_260\n        /* \"#utility.yul\":2143:2148   */\n      dup2\n        /* \"#utility.yul\":2125:2149   */\n      tag_199\n      jump\t// in\n    tag_260:\n        /* \"#utility.yul\":2120:2123   */\n      dup3\n        /* \"#utility.yul\":2113:2150   */\n      mstore\n        /* \"#utility.yul\":2038:2156   */\n      pop\n      pop\n      jump\t// out\n        /* \"#utility.yul\":2162:2494   */\n    tag_40:\n        /* \"#utility.yul\":2283:2287   */\n      0x00\n        /* \"#utility.yul\":2321:2323   */\n      0x40\n        /* \"#utility.yul\":2310:2319   */\n      dup3\n        /* \"#utility.yul\":2306:2324   */\n      add\n        /* \"#utility.yul\":2298:2324   */\n      swap1\n      pop\n        /* \"#utility.yul\":2334:2405   */\n      tag_262\n        /* \"#utility.yul\":2402:2403   */\n      0x00\n        /* \"#utility.yul\":2391:2400   */\n      dup4\n        /* \"#utility.yul\":2387:2404   */\n      add\n        /* \"#utility.yul\":2378:2384   */\n      dup6\n        /* \"#utility.yul\":2334:2405   */\n      tag_195\n      jump\t// in\n    tag_262:\n        /* \"#utility.yul\":2415:2487   */\n      tag_263\n        /* \"#utility.yul\":2483:2485   */\n      0x20\n        /* \"#utility.yul\":2472:2481   */\n      dup4\n        /* \"#utility.yul\":2468:2486   */\n      add\n        /* \"#utility.yul\":2459:2465   */\n      dup5\n        /* \"#utility.yul\":2415:2487   */\n      tag_202\n      jump\t// in\n    tag_263:\n        /* \"#utility.yul\":2162:2494   */\n      swap4\n      swap3\n      pop\n      pop\n      pop\n      jump\t// out\n        /* \"#utility.yul\":2500:2622   */\n    tag_203:\n        /* \"#utility.yul\":2573:2597   */\n      tag_265\n        /* \"#utility.yul\":2591:2596   */\n      dup2\n        /* \"#utility.yul\":2573:2597   */\n      tag_194\n      jump\t// in\n    tag_265:\n        /* \"#utility.yul\":2566:2571   */\n      dup2\n        /* \"#utility.yul\":2563:2598   */\n      eq\n        /* \"#utility.yul\":2553:2616   */\n      tag_266\n      jumpi\n        /* \"#utility.yul\":2612:2613   */\n      0x00\n        /* \"#utility.yul\":2609:2610   */\n      dup1\n        /* \"#utility.yul\":2602:2614   */\n      revert\n        /* \"#utility.yul\":2553:2616   */\n    tag_266:\n        /* \"#utility.yul\":2500:2622   */\n      pop\n      jump\t// out\n        /* \"#utility.yul\":2628:2767   */\n    tag_204:\n        /* \"#utility.yul\":2674:2679   */\n      0x00\n        /* \"#utility.yul\":2712:2718   */\n      dup2\n        /* \"#utility.yul\":2699:2719   */\n      calldataload\n        /* \"#utility.yul\":2690:2719   */\n      swap1\n      pop\n        /* \"#utility.yul\":2728:2761   */\n      tag_268\n        /* \"#utility.yul\":2755:2760   */\n      dup2\n        /* \"#utility.yul\":2728:2761   */\n      tag_203\n      jump\t// in\n    tag_268:\n        /* \"#utility.yul\":2628:2767   */\n      swap3\n      swap2\n      pop\n      pop\n      jump\t// out\n        /* \"#utility.yul\":2773:3102   */\n    tag_44:\n        /* \"#utility.yul\":2832:2838   */\n      0x00\n        /* \"#utility.yul\":2881:2883   */\n      0x20\n        /* \"#utility.yul\":2869:2878   */\n      dup3\n        /* \"#utility.yul\":2860:2867   */\n      dup5\n        /* \"#utility.yul\":2856:2879   */\n      sub\n        /* \"#utility.yul\":2852:2884   */\n      slt\n        /* \"#utility.yul\":2849:2968   */\n      iszero\n      tag_270\n      jumpi\n        /* \"#utility.yul\":2887:2966   */\n      tag_271\n      tag_197\n      jump\t// in\n    tag_271:\n        /* \"#utility.yul\":2849:2968   */\n    tag_270:\n        /* \"#utility.yul\":3007:3008   */\n      0x00\n        /* \"#utility.yul\":3032:3085   */\n      tag_272\n        /* \"#utility.yul\":3077:3084   */\n      dup5\n        /* \"#utility.yul\":3068:3074   */\n      dup3\n        /* \"#utility.yul\":3057:3066   */\n      dup6\n        /* \"#utility.yul\":3053:3075   */\n      add\n        /* \"#utility.yul\":3032:3085   */\n      tag_204\n      jump\t// in\n    tag_272:\n        /* \"#utility.yul\":3022:3085   */\n      swap2\n      pop\n        /* \"#utility.yul\":2978:3095   */\n      pop\n        /* \"#utility.yul\":2773:3102   */\n      swap3\n      swap2\n      pop\n      pop\n      jump\t// out\n        /* \"#utility.yul\":3108:3330   */\n    tag_47:\n        /* \"#utility.yul\":3201:3205   */\n      0x00\n        /* \"#utility.yul\":3239:3241   */\n      0x20\n        /* \"#utility.yul\":3228:3237   */\n      dup3\n        /* \"#utility.yul\":3224:3242   */\n      add\n        /* \"#utility.yul\":3216:3242   */\n      swap1\n      pop\n        /* \"#utility.yul\":3252:3323   */\n      tag_274\n        /* \"#utility.yul\":3320:3321   */\n      0x00\n        /* \"#utility.yul\":3309:3318   */\n      dup4\n        /* \"#utility.yul\":3305:3322   */\n      add\n        /* \"#utility.yul\":3296:3302   */\n      dup5\n        /* \"#utility.yul\":3252:3323   */\n      tag_202\n      jump\t// in\n    tag_274:\n        /* \"#utility.yul\":3108:3330   */\n      swap3\n      swap2\n      pop\n      pop\n      jump\t// out\n        /* \"#utility.yul\":3336:3472   */\n    tag_205:\n        /* \"#utility.yul\":3425:3431   */\n      0x00\n        /* \"#utility.yul\":3459:3464   */\n      dup2\n        /* \"#utility.yul\":3453:3465   */\n      mload\n        /* \"#utility.yul\":3443:3465   */\n      swap1\n      pop\n        /* \"#utility.yul\":3336:3472   */\n      swap2\n      swap1\n      pop\n      jump\t// out\n        /* \"#utility.yul\":3478:3684   */\n    tag_206:\n        /* \"#utility.yul\":3599:3610   */\n      0x00\n        /* \"#utility.yul\":3633:3639   */\n      dup3\n        /* \"#utility.yul\":3628:3631   */\n      dup3\n        /* \"#utility.yul\":3621:3640   */\n      mstore\n        /* \"#utility.yul\":3673:3677   */\n      0x20\n        /* \"#utility.yul\":3668:3671   */\n      dup3\n        /* \"#utility.yul\":3664:3678   */\n      add\n        /* \"#utility.yul\":3649:3678   */\n      swap1\n      pop\n        /* \"#utility.yul\":3478:3684   */\n      swap3\n      swap2\n      pop\n      pop\n      jump\t// out\n        /* \"#utility.yul\":3690:3844   */\n    tag_207:\n        /* \"#utility.yul\":3779:3783   */\n      0x00\n        /* \"#utility.yul\":3802:3805   */\n      dup2\n        /* \"#utility.yul\":3794:3805   */\n      swap1\n      pop\n        /* \"#utility.yul\":3832:3836   */\n      0x20\n        /* \"#utility.yul\":3827:3830   */\n      dup3\n        /* \"#utility.yul\":3823:3837   */\n      add\n        /* \"#utility.yul\":3815:3837   */\n      swap1\n      pop\n        /* \"#utility.yul\":3690:3844   */\n      swap2\n      swap1\n      pop\n      jump\t// out\n        /* \"#utility.yul\":3850:3958   */\n    tag_208:\n        /* \"#utility.yul\":3927:3951   */\n      tag_279\n        /* \"#utility.yul\":3945:3950   */\n      dup2\n        /* \"#utility.yul\":3927:3951   */\n      tag_194\n      jump\t// in\n    tag_279:\n        /* \"#utility.yul\":3922:3925   */\n      dup3\n        /* \"#utility.yul\":3915:3952   */\n      mstore\n        /* \"#utility.yul\":3850:3958   */\n      pop\n      pop\n      jump\t// out\n        /* \"#utility.yul\":3964:4072   */\n    tag_209:\n        /* \"#utility.yul\":4041:4065   */\n      tag_281\n        /* \"#utility.yul\":4059:4064   */\n      dup2\n        /* \"#utility.yul\":4041:4065   */\n      tag_199\n      jump\t// in\n    tag_281:\n        /* \"#utility.yul\":4036:4039   */\n      dup3\n        /* \"#utility.yul\":4029:4066   */\n      mstore\n        /* \"#utility.yul\":3964:4072   */\n      pop\n      pop\n      jump\t// out\n        /* \"#utility.yul\":4132:4632   */\n    tag_210:\n        /* \"#utility.yul\":4263:4267   */\n      0x40\n        /* \"#utility.yul\":4258:4261   */\n      dup3\n        /* \"#utility.yul\":4254:4268   */\n      add\n        /* \"#utility.yul\":4355:4359   */\n      0x00\n        /* \"#utility.yul\":4348:4353   */\n      dup3\n        /* \"#utility.yul\":4344:4360   */\n      add\n        /* \"#utility.yul\":4338:4361   */\n      mload\n        /* \"#utility.yul\":4374:4437   */\n      tag_283\n        /* \"#utility.yul\":4431:4435   */\n      0x00\n        /* \"#utility.yul\":4426:4429   */\n      dup6\n        /* \"#utility.yul\":4422:4436   */\n      add\n        /* \"#utility.yul\":4408:4420   */\n      dup3\n        /* \"#utility.yul\":4374:4437   */\n      tag_208\n      jump\t// in\n    tag_283:\n        /* \"#utility.yul\":4278:4447   */\n      pop\n        /* \"#utility.yul\":4533:4537   */\n      0x20\n        /* \"#utility.yul\":4526:4531   */\n      dup3\n        /* \"#utility.yul\":4522:4538   */\n      add\n        /* \"#utility.yul\":4516:4539   */\n      mload\n        /* \"#utility.yul\":4552:4615   */\n      tag_284\n        /* \"#utility.yul\":4609:4613   */\n      0x20\n        /* \"#utility.yul\":4604:4607   */\n      dup6\n        /* \"#utility.yul\":4600:4614   */\n      add\n        /* \"#utility.yul\":4586:4598   */\n      dup3\n        /* \"#utility.yul\":4552:4615   */\n      tag_209\n      jump\t// in\n    tag_284:\n        /* \"#utility.yul\":4457:4625   */\n      pop\n        /* \"#utility.yul\":4232:4632   */\n      pop\n        /* \"#utility.yul\":4132:4632   */\n      pop\n      pop\n      jump\t// out\n        /* \"#utility.yul\":4638:4905   */\n    tag_211:\n        /* \"#utility.yul\":4751:4761   */\n      0x00\n        /* \"#utility.yul\":4772:4862   */\n      tag_286\n        /* \"#utility.yul\":4858:4861   */\n      dup4\n        /* \"#utility.yul\":4850:4856   */\n      dup4\n        /* \"#utility.yul\":4772:4862   */\n      tag_210\n      jump\t// in\n    tag_286:\n        /* \"#utility.yul\":4894:4898   */\n      0x40\n        /* \"#utility.yul\":4889:4892   */\n      dup4\n        /* \"#utility.yul\":4885:4899   */\n      add\n        /* \"#utility.yul\":4871:4899   */\n      swap1\n      pop\n        /* \"#utility.yul\":4638:4905   */\n      swap3\n      swap2\n      pop\n      pop\n      jump\t// out\n        /* \"#utility.yul\":4911:5046   */\n    tag_212:\n        /* \"#utility.yul\":5003:5007   */\n      0x00\n        /* \"#utility.yul\":5035:5039   */\n      0x20\n        /* \"#utility.yul\":5030:5033   */\n      dup3\n        /* \"#utility.yul\":5026:5040   */\n      add\n        /* \"#utility.yul\":5018:5040   */\n      swap1\n      pop\n        /* \"#utility.yul\":4911:5046   */\n      swap2\n      swap1\n      pop\n      jump\t// out\n        /* \"#utility.yul\":5110:6018   */\n    tag_213:\n        /* \"#utility.yul\":5273:5276   */\n      0x00\n        /* \"#utility.yul\":5302:5378   */\n      tag_289\n        /* \"#utility.yul\":5372:5377   */\n      dup3\n        /* \"#utility.yul\":5302:5378   */\n      tag_205\n      jump\t// in\n    tag_289:\n        /* \"#utility.yul\":5394:5502   */\n      tag_290\n        /* \"#utility.yul\":5495:5501   */\n      dup2\n        /* \"#utility.yul\":5490:5493   */\n      dup6\n        /* \"#utility.yul\":5394:5502   */\n      tag_206\n      jump\t// in\n    tag_290:\n        /* \"#utility.yul\":5387:5502   */\n      swap4\n      pop\n        /* \"#utility.yul\":5526:5604   */\n      tag_291\n        /* \"#utility.yul\":5598:5603   */\n      dup4\n        /* \"#utility.yul\":5526:5604   */\n      tag_207\n      jump\t// in\n    tag_291:\n        /* \"#utility.yul\":5627:5634   */\n      dup1\n        /* \"#utility.yul\":5658:5659   */\n      0x00\n        /* \"#utility.yul\":5643:5993   */\n    tag_292:\n        /* \"#utility.yul\":5668:5674   */\n      dup4\n        /* \"#utility.yul\":5665:5666   */\n      dup2\n        /* \"#utility.yul\":5662:5675   */\n      lt\n        /* \"#utility.yul\":5643:5993   */\n      iszero\n      tag_294\n      jumpi\n        /* \"#utility.yul\":5744:5750   */\n      dup2\n        /* \"#utility.yul\":5738:5751   */\n      mload\n        /* \"#utility.yul\":5771:5878   */\n      tag_295\n        /* \"#utility.yul\":5874:5877   */\n      dup9\n        /* \"#utility.yul\":5859:5872   */\n      dup3\n        /* \"#utility.yul\":5771:5878   */\n      tag_211\n      jump\t// in\n    tag_295:\n        /* \"#utility.yul\":5764:5878   */\n      swap8\n      pop\n        /* \"#utility.yul\":5901:5983   */\n      tag_296\n        /* \"#utility.yul\":5976:5982   */\n      dup4\n        /* \"#utility.yul\":5901:5983   */\n      tag_212\n      jump\t// in\n    tag_296:\n        /* \"#utility.yul\":5891:5983   */\n      swap3\n      pop\n        /* \"#utility.yul\":5703:5993   */\n      pop\n        /* \"#utility.yul\":5690:5691   */\n      0x01\n        /* \"#utility.yul\":5687:5688   */\n      dup2\n        /* \"#utility.yul\":5683:5692   */\n      add\n        /* \"#utility.yul\":5678:5692   */\n      swap1\n      pop\n        /* \"#utility.yul\":5643:5993   */\n      jump(tag_292)\n    tag_294:\n        /* \"#utility.yul\":5647:5661   */\n      pop\n        /* \"#utility.yul\":6009:6012   */\n      dup6\n        /* \"#utility.yul\":6002:6012   */\n      swap4\n      pop\n        /* \"#utility.yul\":5278:6018   */\n      pop\n      pop\n      pop\n        /* \"#utility.yul\":5110:6018   */\n      swap3\n      swap2\n      pop\n      pop\n      jump\t// out\n        /* \"#utility.yul\":6024:6485   */\n    tag_66:\n        /* \"#utility.yul\":6211:6215   */\n      0x00\n        /* \"#utility.yul\":6249:6251   */\n      0x20\n        /* \"#utility.yul\":6238:6247   */\n      dup3\n        /* \"#utility.yul\":6234:6252   */\n      add\n        /* \"#utility.yul\":6226:6252   */\n      swap1\n      pop\n        /* \"#utility.yul\":6298:6307   */\n      dup2\n        /* \"#utility.yul\":6292:6296   */\n      dup2\n        /* \"#utility.yul\":6288:6308   */\n      sub\n        /* \"#utility.yul\":6284:6285   */\n      0x00\n        /* \"#utility.yul\":6273:6282   */\n      dup4\n        /* \"#utility.yul\":6269:6286   */\n      add\n        /* \"#utility.yul\":6262:6309   */\n      mstore\n        /* \"#utility.yul\":6326:6478   */\n      tag_298\n        /* \"#utility.yul\":6473:6477   */\n      dup2\n        /* \"#utility.yul\":6464:6470   */\n      dup5\n        /* \"#utility.yul\":6326:6478   */\n      tag_213\n      jump\t// in\n    tag_298:\n        /* \"#utility.yul\":6318:6478   */\n      swap1\n      pop\n        /* \"#utility.yul\":6024:6485   */\n      swap3\n      swap2\n      pop\n      pop\n      jump\t// out\n        /* \"#utility.yul\":6491:6660   */\n    tag_214:\n        /* \"#utility.yul\":6575:6586   */\n      0x00\n        /* \"#utility.yul\":6609:6615   */\n      dup3\n        /* \"#utility.yul\":6604:6607   */\n      dup3\n        /* \"#utility.yul\":6597:6616   */\n      mstore\n        /* \"#utility.yul\":6649:6653   */\n      0x20\n        /* \"#utility.yul\":6644:6647   */\n      dup3\n        /* \"#utility.yul\":6640:6654   */\n      add\n        /* \"#utility.yul\":6625:6654   */\n      swap1\n      pop\n        /* \"#utility.yul\":6491:6660   */\n      swap3\n      swap2\n      pop\n      pop\n      jump\t// out\n        /* \"#utility.yul\":6666:6898   */\n    tag_215:\n        /* \"#utility.yul\":6806:6840   */\n      0x536f6c6f20656c2073756261737461646f7220707565646520656a6563757461\n        /* \"#utility.yul\":6802:6803   */\n      0x00\n        /* \"#utility.yul\":6794:6800   */\n      dup3\n        /* \"#utility.yul\":6790:6804   */\n      add\n        /* \"#utility.yul\":6783:6841   */\n      mstore\n        /* \"#utility.yul\":6875:6890   */\n      0x72206573746120616363696f6e00000000000000000000000000000000000000\n        /* \"#utility.yul\":6870:6872   */\n      0x20\n        /* \"#utility.yul\":6862:6868   */\n      dup3\n        /* \"#utility.yul\":6858:6873   */\n      add\n        /* \"#utility.yul\":6851:6891   */\n      mstore\n        /* \"#utility.yul\":6666:6898   */\n      pop\n      jump\t// out\n        /* \"#utility.yul\":6904:7270   */\n    tag_216:\n        /* \"#utility.yul\":7046:7049   */\n      0x00\n        /* \"#utility.yul\":7067:7134   */\n      tag_302\n        /* \"#utility.yul\":7131:7133   */\n      0x2d\n        /* \"#utility.yul\":7126:7129   */\n      dup4\n        /* \"#utility.yul\":7067:7134   */\n      tag_214\n      jump\t// in\n    tag_302:\n        /* \"#utility.yul\":7060:7134   */\n      swap2\n      pop\n        /* \"#utility.yul\":7143:7236   */\n      tag_303\n        /* \"#utility.yul\":7232:7235   */\n      dup3\n        /* \"#utility.yul\":7143:7236   */\n      tag_215\n      jump\t// in\n    tag_303:\n        /* \"#utility.yul\":7261:7263   */\n      0x40\n        /* \"#utility.yul\":7256:7259   */\n      dup3\n        /* \"#utility.yul\":7252:7264   */\n      add\n        /* \"#utility.yul\":7245:7264   */\n      swap1\n      pop\n        /* \"#utility.yul\":6904:7270   */\n      swap2\n      swap1\n      pop\n      jump\t// out\n        /* \"#utility.yul\":7276:7695   */\n    tag_82:\n        /* \"#utility.yul\":7442:7446   */\n      0x00\n        /* \"#utility.yul\":7480:7482   */\n      0x20\n        /* \"#utility.yul\":7469:7478   */\n      dup3\n        /* \"#utility.yul\":7465:7483   */\n      add\n        /* \"#utility.yul\":7457:7483   */\n      swap1\n      pop\n        /* \"#utility.yul\":7529:7538   */\n      dup2\n        /* \"#utility.yul\":7523:7527   */\n      dup2\n        /* \"#utility.yul\":7519:7539   */\n      sub\n        /* \"#utility.yul\":7515:7516   */\n      0x00\n        /* \"#utility.yul\":7504:7513   */\n      dup4\n        /* \"#utility.yul\":7500:7517   */\n      add\n        /* \"#utility.yul\":7493:7540   */\n      mstore\n        /* \"#utility.yul\":7557:7688   */\n      tag_305\n        /* \"#utility.yul\":7683:7687   */\n      dup2\n        /* \"#utility.yul\":7557:7688   */\n      tag_216\n      jump\t// in\n    tag_305:\n        /* \"#utility.yul\":7549:7688   */\n      swap1\n      pop\n        /* \"#utility.yul\":7276:7695   */\n      swap2\n      swap1\n      pop\n      jump\t// out\n        /* \"#utility.yul\":7701:7878   */\n    tag_217:\n        /* \"#utility.yul\":7841:7870   */\n      0x4c6120737562617374612079612068612066696e616c697a61646f0000000000\n        /* \"#utility.yul\":7837:7838   */\n      0x00\n        /* \"#utility.yul\":7829:7835   */\n      dup3\n        /* \"#utility.yul\":7825:7839   */\n      add\n        /* \"#utility.yul\":7818:7871   */\n      mstore\n        /* \"#utility.yul\":7701:7878   */\n      pop\n      jump\t// out\n        /* \"#utility.yul\":7884:8250   */\n    tag_218:\n        /* \"#utility.yul\":8026:8029   */\n      0x00\n        /* \"#utility.yul\":8047:8114   */\n      tag_308\n        /* \"#utility.yul\":8111:8113   */\n      0x1b\n        /* \"#utility.yul\":8106:8109   */\n      dup4\n        /* \"#utility.yul\":8047:8114   */\n      tag_214\n      jump\t// in\n    tag_308:\n        /* \"#utility.yul\":8040:8114   */\n      swap2\n      pop\n        /* \"#utility.yul\":8123:8216   */\n      tag_309\n        /* \"#utility.yul\":8212:8215   */\n      dup3\n        /* \"#utility.yul\":8123:8216   */\n      tag_217\n      jump\t// in\n    tag_309:\n        /* \"#utility.yul\":8241:8243   */\n      0x20\n        /* \"#utility.yul\":8236:8239   */\n      dup3\n        /* \"#utility.yul\":8232:8244   */\n      add\n        /* \"#utility.yul\":8225:8244   */\n      swap1\n      pop\n        /* \"#utility.yul\":7884:8250   */\n      swap2\n      swap1\n      pop\n      jump\t// out\n        /* \"#utility.yul\":8256:8675   */\n    tag_86:\n        /* \"#utility.yul\":8422:8426   */\n      0x00\n        /* \"#utility.yul\":8460:8462   */\n      0x20\n        /* \"#utility.yul\":8449:8458   */\n      dup3\n        /* \"#utility.yul\":8445:8463   */\n      add\n        /* \"#utility.yul\":8437:8463   */\n      swap1\n      pop\n        /* \"#utility.yul\":8509:8518   */\n      dup2\n        /* \"#utility.yul\":8503:8507   */\n      dup2\n        /* \"#utility.yul\":8499:8519   */\n      sub\n        /* \"#utility.yul\":8495:8496   */\n      0x00\n        /* \"#utility.yul\":8484:8493   */\n      dup4\n        /* \"#utility.yul\":8480:8497   */\n      add\n        /* \"#utility.yul\":8473:8520   */\n      mstore\n        /* \"#utility.yul\":8537:8668   */\n      tag_311\n        /* \"#utility.yul\":8663:8667   */\n      dup2\n        /* \"#utility.yul\":8537:8668   */\n      tag_218\n      jump\t// in\n    tag_311:\n        /* \"#utility.yul\":8529:8668   */\n      swap1\n      pop\n        /* \"#utility.yul\":8256:8675   */\n      swap2\n      swap1\n      pop\n      jump\t// out\n        /* \"#utility.yul\":8681:8859   */\n    tag_219:\n        /* \"#utility.yul\":8821:8851   */\n      0x4c6120737562617374612061756e206573746120656e20637572736f00000000\n        /* \"#utility.yul\":8817:8818   */\n      0x00\n        /* \"#utility.yul\":8809:8815   */\n      dup3\n        /* \"#utility.yul\":8805:8819   */\n      add\n        /* \"#utility.yul\":8798:8852   */\n      mstore\n        /* \"#utility.yul\":8681:8859   */\n      pop\n      jump\t// out\n        /* \"#utility.yul\":8865:9231   */\n    tag_220:\n        /* \"#utility.yul\":9007:9010   */\n      0x00\n        /* \"#utility.yul\":9028:9095   */\n      tag_314\n        /* \"#utility.yul\":9092:9094   */\n      0x1c\n        /* \"#utility.yul\":9087:9090   */\n      dup4\n        /* \"#utility.yul\":9028:9095   */\n      tag_214\n      jump\t// in\n    tag_314:\n        /* \"#utility.yul\":9021:9095   */\n      swap2\n      pop\n        /* \"#utility.yul\":9104:9197   */\n      tag_315\n        /* \"#utility.yul\":9193:9196   */\n      dup3\n        /* \"#utility.yul\":9104:9197   */\n      tag_219\n      jump\t// in\n    tag_315:\n        /* \"#utility.yul\":9222:9224   */\n      0x20\n        /* \"#utility.yul\":9217:9220   */\n      dup3\n        /* \"#utility.yul\":9213:9225   */\n      add\n        /* \"#utility.yul\":9206:9225   */\n      swap1\n      pop\n        /* \"#utility.yul\":8865:9231   */\n      swap2\n      swap1\n      pop\n      jump\t// out\n        /* \"#utility.yul\":9237:9656   */\n    tag_90:\n        /* \"#utility.yul\":9403:9407   */\n      0x00\n        /* \"#utility.yul\":9441:9443   */\n      0x20\n        /* \"#utility.yul\":9430:9439   */\n      dup3\n        /* \"#utility.yul\":9426:9444   */\n      add\n        /* \"#utility.yul\":9418:9444   */\n      swap1\n      pop\n        /* \"#utility.yul\":9490:9499   */\n      dup2\n        /* \"#utility.yul\":9484:9488   */\n      dup2\n        /* \"#utility.yul\":9480:9500   */\n      sub\n        /* \"#utility.yul\":9476:9477   */\n      0x00\n        /* \"#utility.yul\":9465:9474   */\n      dup4\n        /* \"#utility.yul\":9461:9478   */\n      add\n        /* \"#utility.yul\":9454:9501   */\n      mstore\n        /* \"#utility.yul\":9518:9649   */\n      tag_317\n        /* \"#utility.yul\":9644:9648   */\n      dup2\n        /* \"#utility.yul\":9518:9649   */\n      tag_220\n      jump\t// in\n    tag_317:\n        /* \"#utility.yul\":9510:9649   */\n      swap1\n      pop\n        /* \"#utility.yul\":9237:9656   */\n      swap2\n      swap1\n      pop\n      jump\t// out\n        /* \"#utility.yul\":9662:9842   */\n    tag_221:\n        /* \"#utility.yul\":9710:9787   */\n      0x4e487b7100000000000000000000000000000000000000000000000000000000\n        /* \"#utility.yul\":9707:9708   */\n      0x00\n        /* \"#utility.yul\":9700:9788   */\n      mstore\n        /* \"#utility.yul\":9807:9811   */\n      0x11\n        /* \"#utility.yul\":9804:9805   */\n      0x04\n        /* \"#utility.yul\":9797:9812   */\n      mstore\n        /* \"#utility.yul\":9831:9835   */\n      0x24\n        /* \"#utility.yul\":9828:9829   */\n      0x00\n        /* \"#utility.yul\":9821:9836   */\n      revert\n        /* \"#utility.yul\":9848:10042   */\n    tag_93:\n        /* \"#utility.yul\":9888:9892   */\n      0x00\n        /* \"#utility.yul\":9908:9928   */\n      tag_320\n        /* \"#utility.yul\":9926:9927   */\n      dup3\n        /* \"#utility.yul\":9908:9928   */\n      tag_199\n      jump\t// in\n    tag_320:\n        /* \"#utility.yul\":9903:9928   */\n      swap2\n      pop\n        /* \"#utility.yul\":9942:9962   */\n      tag_321\n        /* \"#utility.yul\":9960:9961   */\n      dup4\n        /* \"#utility.yul\":9942:9962   */\n      tag_199\n      jump\t// in\n    tag_321:\n        /* \"#utility.yul\":9937:9962   */\n      swap3\n      pop\n        /* \"#utility.yul\":9986:9987   */\n      dup3\n        /* \"#utility.yul\":9983:9984   */\n      dup3\n        /* \"#utility.yul\":9979:9988   */\n      sub\n        /* \"#utility.yul\":9971:9988   */\n      swap1\n      pop\n        /* \"#utility.yul\":10010:10011   */\n      dup2\n        /* \"#utility.yul\":10004:10008   */\n      dup2\n        /* \"#utility.yul\":10001:10012   */\n      gt\n        /* \"#utility.yul\":9998:10035   */\n      iszero\n      tag_322\n      jumpi\n        /* \"#utility.yul\":10015:10033   */\n      tag_323\n      tag_221\n      jump\t// in\n    tag_323:\n        /* \"#utility.yul\":9998:10035   */\n    tag_322:\n        /* \"#utility.yul\":9848:10042   */\n      swap3\n      swap2\n      pop\n      pop\n      jump\t// out\n        /* \"#utility.yul\":10048:10228   */\n    tag_96:\n        /* \"#utility.yul\":10096:10173   */\n      0x4e487b7100000000000000000000000000000000000000000000000000000000\n        /* \"#utility.yul\":10093:10094   */\n      0x00\n        /* \"#utility.yul\":10086:10174   */\n      mstore\n        /* \"#utility.yul\":10193:10197   */\n      0x32\n        /* \"#utility.yul\":10190:10191   */\n      0x04\n        /* \"#utility.yul\":10183:10198   */\n      mstore\n        /* \"#utility.yul\":10217:10221   */\n      0x24\n        /* \"#utility.yul\":10214:10215   */\n      0x00\n        /* \"#utility.yul\":10207:10222   */\n      revert\n        /* \"#utility.yul\":10234:10644   */\n    tag_113:\n        /* \"#utility.yul\":10274:10281   */\n      0x00\n        /* \"#utility.yul\":10297:10317   */\n      tag_326\n        /* \"#utility.yul\":10315:10316   */\n      dup3\n        /* \"#utility.yul\":10297:10317   */\n      tag_199\n      jump\t// in\n    tag_326:\n        /* \"#utility.yul\":10292:10317   */\n      swap2\n      pop\n        /* \"#utility.yul\":10331:10351   */\n      tag_327\n        /* \"#utility.yul\":10349:10350   */\n      dup4\n        /* \"#utility.yul\":10331:10351   */\n      tag_199\n      jump\t// in\n    tag_327:\n        /* \"#utility.yul\":10326:10351   */\n      swap3\n      pop\n        /* \"#utility.yul\":10386:10387   */\n      dup3\n        /* \"#utility.yul\":10383:10384   */\n      dup3\n        /* \"#utility.yul\":10379:10388   */\n      mul\n        /* \"#utility.yul\":10408:10438   */\n      tag_328\n        /* \"#utility.yul\":10426:10437   */\n      dup2\n        /* \"#utility.yul\":10408:10438   */\n      tag_199\n      jump\t// in\n    tag_328:\n        /* \"#utility.yul\":10397:10438   */\n      swap2\n      pop\n        /* \"#utility.yul\":10587:10588   */\n      dup3\n        /* \"#utility.yul\":10578:10585   */\n      dup3\n        /* \"#utility.yul\":10574:10589   */\n      div\n        /* \"#utility.yul\":10571:10572   */\n      dup5\n        /* \"#utility.yul\":10568:10590   */\n      eq\n        /* \"#utility.yul\":10548:10549   */\n      dup4\n        /* \"#utility.yul\":10541:10550   */\n      iszero\n        /* \"#utility.yul\":10521:10604   */\n      or\n        /* \"#utility.yul\":10498:10637   */\n      tag_329\n      jumpi\n        /* \"#utility.yul\":10617:10635   */\n      tag_330\n      tag_221\n      jump\t// in\n    tag_330:\n        /* \"#utility.yul\":10498:10637   */\n    tag_329:\n        /* \"#utility.yul\":10282:10644   */\n      pop\n        /* \"#utility.yul\":10234:10644   */\n      swap3\n      swap2\n      pop\n      pop\n      jump\t// out\n        /* \"#utility.yul\":10650:10830   */\n    tag_222:\n        /* \"#utility.yul\":10698:10775   */\n      0x4e487b7100000000000000000000000000000000000000000000000000000000\n        /* \"#utility.yul\":10695:10696   */\n      0x00\n        /* \"#utility.yul\":10688:10776   */\n      mstore\n        /* \"#utility.yul\":10795:10799   */\n      0x12\n        /* \"#utility.yul\":10792:10793   */\n      0x04\n        /* \"#utility.yul\":10785:10800   */\n      mstore\n        /* \"#utility.yul\":10819:10823   */\n      0x24\n        /* \"#utility.yul\":10816:10817   */\n      0x00\n        /* \"#utility.yul\":10809:10824   */\n      revert\n        /* \"#utility.yul\":10836:11021   */\n    tag_115:\n        /* \"#utility.yul\":10876:10877   */\n      0x00\n        /* \"#utility.yul\":10893:10913   */\n      tag_333\n        /* \"#utility.yul\":10911:10912   */\n      dup3\n        /* \"#utility.yul\":10893:10913   */\n      tag_199\n      jump\t// in\n    tag_333:\n        /* \"#utility.yul\":10888:10913   */\n      swap2\n      pop\n        /* \"#utility.yul\":10927:10947   */\n      tag_334\n        /* \"#utility.yul\":10945:10946   */\n      dup4\n        /* \"#utility.yul\":10927:10947   */\n      tag_199\n      jump\t// in\n    tag_334:\n        /* \"#utility.yul\":10922:10947   */\n      swap3\n      pop\n        /* \"#utility.yul\":10966:10967   */\n      dup3\n        /* \"#utility.yul\":10956:10991   */\n      tag_335\n      jumpi\n        /* \"#utility.yul\":10971:10989   */\n      tag_336\n      tag_222\n      jump\t// in\n    tag_336:\n        /* \"#utility.yul\":10956:10991   */\n    tag_335:\n        /* \"#utility.yul\":11013:11014   */\n      dup3\n        /* \"#utility.yul\":11010:11011   */\n      dup3\n        /* \"#utility.yul\":11006:11015   */\n      div\n        /* \"#utility.yul\":11001:11015   */\n      swap1\n      pop\n        /* \"#utility.yul\":10836:11021   */\n      swap3\n      swap2\n      pop\n      pop\n      jump\t// out\n        /* \"#utility.yul\":11027:11218   */\n    tag_121:\n        /* \"#utility.yul\":11067:11070   */\n      0x00\n        /* \"#utility.yul\":11086:11106   */\n      tag_338\n        /* \"#utility.yul\":11104:11105   */\n      dup3\n        /* \"#utility.yul\":11086:11106   */\n      tag_199\n      jump\t// in\n    tag_338:\n        /* \"#utility.yul\":11081:11106   */\n      swap2\n      pop\n        /* \"#utility.yul\":11120:11140   */\n      tag_339\n        /* \"#utility.yul\":11138:11139   */\n      dup4\n        /* \"#utility.yul\":11120:11140   */\n      tag_199\n      jump\t// in\n    tag_339:\n        /* \"#utility.yul\":11115:11140   */\n      swap3\n      pop\n        /* \"#utility.yul\":11163:11164   */\n      dup3\n        /* \"#utility.yul\":11160:11161   */\n      dup3\n        /* \"#utility.yul\":11156:11165   */\n      add\n        /* \"#utility.yul\":11149:11165   */\n      swap1\n      pop\n        /* \"#utility.yul\":11184:11187   */\n      dup1\n        /* \"#utility.yul\":11181:11182   */\n      dup3\n        /* \"#utility.yul\":11178:11188   */\n      gt\n        /* \"#utility.yul\":11175:11211   */\n      iszero\n      tag_340\n      jumpi\n        /* \"#utility.yul\":11191:11209   */\n      tag_341\n      tag_221\n      jump\t// in\n    tag_341:\n        /* \"#utility.yul\":11175:11211   */\n    tag_340:\n        /* \"#utility.yul\":11027:11218   */\n      swap3\n      swap2\n      pop\n      pop\n      jump\t// out\n        /* \"#utility.yul\":11224:11468   */\n    tag_223:\n        /* \"#utility.yul\":11364:11398   */\n      0x4c61206f66657274612064656265207375706572617220656e20616c206d656e\n        /* \"#utility.yul\":11360:11361   */\n      0x00\n        /* \"#utility.yul\":11352:11358   */\n      dup3\n        /* \"#utility.yul\":11348:11362   */\n      add\n        /* \"#utility.yul\":11341:11399   */\n      mstore\n        /* \"#utility.yul\":11433:11460   */\n      0x6f7320756e203525206c61206f66657274612061637475616c00000000000000\n        /* \"#utility.yul\":11428:11430   */\n      0x20\n        /* \"#utility.yul\":11420:11426   */\n      dup3\n        /* \"#utility.yul\":11416:11431   */\n      add\n        /* \"#utility.yul\":11409:11461   */\n      mstore\n        /* \"#utility.yul\":11224:11468   */\n      pop\n      jump\t// out\n        /* \"#utility.yul\":11474:11840   */\n    tag_224:\n        /* \"#utility.yul\":11616:11619   */\n      0x00\n        /* \"#utility.yul\":11637:11704   */\n      tag_344\n        /* \"#utility.yul\":11701:11703   */\n      0x39\n        /* \"#utility.yul\":11696:11699   */\n      dup4\n        /* \"#utility.yul\":11637:11704   */\n      tag_214\n      jump\t// in\n    tag_344:\n        /* \"#utility.yul\":11630:11704   */\n      swap2\n      pop\n        /* \"#utility.yul\":11713:11806   */\n      tag_345\n        /* \"#utility.yul\":11802:11805   */\n      dup3\n        /* \"#utility.yul\":11713:11806   */\n      tag_223\n      jump\t// in\n    tag_345:\n        /* \"#utility.yul\":11831:11833   */\n      0x40\n        /* \"#utility.yul\":11826:11829   */\n      dup3\n        /* \"#utility.yul\":11822:11834   */\n      add\n        /* \"#utility.yul\":11815:11834   */\n      swap1\n      pop\n        /* \"#utility.yul\":11474:11840   */\n      swap2\n      swap1\n      pop\n      jump\t// out\n        /* \"#utility.yul\":11846:12265   */\n    tag_124:\n        /* \"#utility.yul\":12012:12016   */\n      0x00\n        /* \"#utility.yul\":12050:12052   */\n      0x20\n        /* \"#utility.yul\":12039:12048   */\n      dup3\n        /* \"#utility.yul\":12035:12053   */\n      add\n        /* \"#utility.yul\":12027:12053   */\n      swap1\n      pop\n        /* \"#utility.yul\":12099:12108   */\n      dup2\n        /* \"#utility.yul\":12093:12097   */\n      dup2\n        /* \"#utility.yul\":12089:12109   */\n      sub\n        /* \"#utility.yul\":12085:12086   */\n      0x00\n        /* \"#utility.yul\":12074:12083   */\n      dup4\n        /* \"#utility.yul\":12070:12087   */\n      add\n        /* \"#utility.yul\":12063:12110   */\n      mstore\n        /* \"#utility.yul\":12127:12258   */\n      tag_347\n        /* \"#utility.yul\":12253:12257   */\n      dup2\n        /* \"#utility.yul\":12127:12258   */\n      tag_224\n      jump\t// in\n    tag_347:\n        /* \"#utility.yul\":12119:12258   */\n      swap1\n      pop\n        /* \"#utility.yul\":11846:12265   */\n      swap2\n      swap1\n      pop\n      jump\t// out\n        /* \"#utility.yul\":12271:12435   */\n    tag_225:\n        /* \"#utility.yul\":12411:12427   */\n      0x4e6f20686179206f666572746173000000000000000000000000000000000000\n        /* \"#utility.yul\":12407:12408   */\n      0x00\n        /* \"#utility.yul\":12399:12405   */\n      dup3\n        /* \"#utility.yul\":12395:12409   */\n      add\n        /* \"#utility.yul\":12388:12428   */\n      mstore\n        /* \"#utility.yul\":12271:12435   */\n      pop\n      jump\t// out\n        /* \"#utility.yul\":12441:12807   */\n    tag_226:\n        /* \"#utility.yul\":12583:12586   */\n      0x00\n        /* \"#utility.yul\":12604:12671   */\n      tag_350\n        /* \"#utility.yul\":12668:12670   */\n      0x0e\n        /* \"#utility.yul\":12663:12666   */\n      dup4\n        /* \"#utility.yul\":12604:12671   */\n      tag_214\n      jump\t// in\n    tag_350:\n        /* \"#utility.yul\":12597:12671   */\n      swap2\n      pop\n        /* \"#utility.yul\":12680:12773   */\n      tag_351\n        /* \"#utility.yul\":12769:12772   */\n      dup3\n        /* \"#utility.yul\":12680:12773   */\n      tag_225\n      jump\t// in\n    tag_351:\n        /* \"#utility.yul\":12798:12800   */\n      0x20\n        /* \"#utility.yul\":12793:12796   */\n      dup3\n        /* \"#utility.yul\":12789:12801   */\n      add\n        /* \"#utility.yul\":12782:12801   */\n      swap1\n      pop\n        /* \"#utility.yul\":12441:12807   */\n      swap2\n      swap1\n      pop\n      jump\t// out\n        /* \"#utility.yul\":12813:13232   */\n    tag_136:\n        /* \"#utility.yul\":12979:12983   */\n      0x00\n        /* \"#utility.yul\":13017:13019   */\n      0x20\n        /* \"#utility.yul\":13006:13015   */\n      dup3\n        /* \"#utility.yul\":13002:13020   */\n      add\n        /* \"#utility.yul\":12994:13020   */\n      swap1\n      pop\n        /* \"#utility.yul\":13066:13075   */\n      dup2\n        /* \"#utility.yul\":13060:13064   */\n      dup2\n        /* \"#utility.yul\":13056:13076   */\n      sub\n        /* \"#utility.yul\":13052:13053   */\n      0x00\n        /* \"#utility.yul\":13041:13050   */\n      dup4\n        /* \"#utility.yul\":13037:13054   */\n      add\n        /* \"#utility.yul\":13030:13077   */\n      mstore\n        /* \"#utility.yul\":13094:13225   */\n      tag_353\n        /* \"#utility.yul\":13220:13224   */\n      dup2\n        /* \"#utility.yul\":13094:13225   */\n      tag_226\n      jump\t// in\n    tag_353:\n        /* \"#utility.yul\":13086:13225   */\n      swap1\n      pop\n        /* \"#utility.yul\":12813:13232   */\n      swap2\n      swap1\n      pop\n      jump\t// out\n        /* \"#utility.yul\":13238:13409   */\n    tag_162:\n        /* \"#utility.yul\":13277:13280   */\n      0x00\n        /* \"#utility.yul\":13300:13324   */\n      tag_355\n        /* \"#utility.yul\":13318:13323   */\n      dup3\n        /* \"#utility.yul\":13300:13324   */\n      tag_199\n      jump\t// in\n    tag_355:\n        /* \"#utility.yul\":13291:13324   */\n      swap2\n      pop\n        /* \"#utility.yul\":13346:13350   */\n      0x00\n        /* \"#utility.yul\":13339:13344   */\n      dup3\n        /* \"#utility.yul\":13336:13351   */\n      sub\n        /* \"#utility.yul\":13333:13374   */\n      tag_356\n      jumpi\n        /* \"#utility.yul\":13354:13372   */\n      tag_357\n      tag_221\n      jump\t// in\n    tag_357:\n        /* \"#utility.yul\":13333:13374   */\n    tag_356:\n        /* \"#utility.yul\":13401:13402   */\n      0x01\n        /* \"#utility.yul\":13394:13399   */\n      dup3\n        /* \"#utility.yul\":13390:13403   */\n      sub\n        /* \"#utility.yul\":13383:13403   */\n      swap1\n      pop\n        /* \"#utility.yul\":13238:13409   */\n      swap2\n      swap1\n      pop\n      jump\t// out\n        /* \"#utility.yul\":13415:13594   */\n    tag_227:\n        /* \"#utility.yul\":13555:13586   */\n      0x4e6f20686179206578636564656e746520706172612072657469726172000000\n        /* \"#utility.yul\":13551:13552   */\n      0x00\n        /* \"#utility.yul\":13543:13549   */\n      dup3\n        /* \"#utility.yul\":13539:13553   */\n      add\n        /* \"#utility.yul\":13532:13587   */\n      mstore\n        /* \"#utility.yul\":13415:13594   */\n      pop\n      jump\t// out\n        /* \"#utility.yul\":13600:13966   */\n    tag_228:\n        /* \"#utility.yul\":13742:13745   */\n      0x00\n        /* \"#utility.yul\":13763:13830   */\n      tag_360\n        /* \"#utility.yul\":13827:13829   */\n      0x1d\n        /* \"#utility.yul\":13822:13825   */\n      dup4\n        /* \"#utility.yul\":13763:13830   */\n      tag_214\n      jump\t// in\n    tag_360:\n        /* \"#utility.yul\":13756:13830   */\n      swap2\n      pop\n        /* \"#utility.yul\":13839:13932   */\n      tag_361\n        /* \"#utility.yul\":13928:13931   */\n      dup3\n        /* \"#utility.yul\":13839:13932   */\n      tag_227\n      jump\t// in\n    tag_361:\n        /* \"#utility.yul\":13957:13959   */\n      0x20\n        /* \"#utility.yul\":13952:13955   */\n      dup3\n        /* \"#utility.yul\":13948:13960   */\n      add\n        /* \"#utility.yul\":13941:13960   */\n      swap1\n      pop\n        /* \"#utility.yul\":13600:13966   */\n      swap2\n      swap1\n      pop\n      jump\t// out\n        /* \"#utility.yul\":13972:14391   */\n    tag_165:\n        /* \"#utility.yul\":14138:14142   */\n      0x00\n        /* \"#utility.yul\":14176:14178   */\n      0x20\n        /* \"#utility.yul\":14165:14174   */\n      dup3\n        /* \"#utility.yul\":14161:14179   */\n      add\n        /* \"#utility.yul\":14153:14179   */\n      swap1\n      pop\n        /* \"#utility.yul\":14225:14234   */\n      dup2\n        /* \"#utility.yul\":14219:14223   */\n      dup2\n        /* \"#utility.yul\":14215:14235   */\n      sub\n        /* \"#utility.yul\":14211:14212   */\n      0x00\n        /* \"#utility.yul\":14200:14209   */\n      dup4\n        /* \"#utility.yul\":14196:14213   */\n      add\n        /* \"#utility.yul\":14189:14236   */\n      mstore\n        /* \"#utility.yul\":14253:14384   */\n      tag_363\n        /* \"#utility.yul\":14379:14383   */\n      dup2\n        /* \"#utility.yul\":14253:14384   */\n      tag_228\n      jump\t// in\n    tag_363:\n        /* \"#utility.yul\":14245:14384   */\n      swap1\n      pop\n        /* \"#utility.yul\":13972:14391   */\n      swap2\n      swap1\n      pop\n      jump\t// out\n        /* \"#utility.yul\":14397:14573   */\n    tag_229:\n        /* \"#utility.yul\":14537:14565   */\n      0x4c6120737562617374612061756e206573746120616374697661000000000000\n        /* \"#utility.yul\":14533:14534   */\n      0x00\n        /* \"#utility.yul\":14525:14531   */\n      dup3\n        /* \"#utility.yul\":14521:14535   */\n      add\n        /* \"#utility.yul\":14514:14566   */\n      mstore\n        /* \"#utility.yul\":14397:14573   */\n      pop\n      jump\t// out\n        /* \"#utility.yul\":14579:14945   */\n    tag_230:\n        /* \"#utility.yul\":14721:14724   */\n      0x00\n        /* \"#utility.yul\":14742:14809   */\n      tag_366\n        /* \"#utility.yul\":14806:14808   */\n      0x1a\n        /* \"#utility.yul\":14801:14804   */\n      dup4\n        /* \"#utility.yul\":14742:14809   */\n      tag_214\n      jump\t// in\n    tag_366:\n        /* \"#utility.yul\":14735:14809   */\n      swap2\n      pop\n        /* \"#utility.yul\":14818:14911   */\n      tag_367\n        /* \"#utility.yul\":14907:14910   */\n      dup3\n        /* \"#utility.yul\":14818:14911   */\n      tag_229\n      jump\t// in\n    tag_367:\n        /* \"#utility.yul\":14936:14938   */\n      0x20\n        /* \"#utility.yul\":14931:14934   */\n      dup3\n        /* \"#utility.yul\":14927:14939   */\n      add\n        /* \"#utility.yul\":14920:14939   */\n      swap1\n      pop\n        /* \"#utility.yul\":14579:14945   */\n      swap2\n      swap1\n      pop\n      jump\t// out\n        /* \"#utility.yul\":14951:15370   */\n    tag_173:\n        /* \"#utility.yul\":15117:15121   */\n      0x00\n        /* \"#utility.yul\":15155:15157   */\n      0x20\n        /* \"#utility.yul\":15144:15153   */\n      dup3\n        /* \"#utility.yul\":15140:15158   */\n      add\n        /* \"#utility.yul\":15132:15158   */\n      swap1\n      pop\n        /* \"#utility.yul\":15204:15213   */\n      dup2\n        /* \"#utility.yul\":15198:15202   */\n      dup2\n        /* \"#utility.yul\":15194:15214   */\n      sub\n        /* \"#utility.yul\":15190:15191   */\n      0x00\n        /* \"#utility.yul\":15179:15188   */\n      dup4\n        /* \"#utility.yul\":15175:15192   */\n      add\n        /* \"#utility.yul\":15168:15215   */\n      mstore\n        /* \"#utility.yul\":15232:15363   */\n      tag_369\n        /* \"#utility.yul\":15358:15362   */\n      dup2\n        /* \"#utility.yul\":15232:15363   */\n      tag_230\n      jump\t// in\n    tag_369:\n        /* \"#utility.yul\":15224:15363   */\n      swap1\n      pop\n        /* \"#utility.yul\":14951:15370   */\n      swap2\n      swap1\n      pop\n      jump\t// out\n        /* \"#utility.yul\":15376:15555   */\n    tag_231:\n        /* \"#utility.yul\":15516:15547   */\n      0x4e6f20686179206465706f7369746f2070617261206465766f6c766572000000\n        /* \"#utility.yul\":15512:15513   */\n      0x00\n        /* \"#utility.yul\":15504:15510   */\n      dup3\n        /* \"#utility.yul\":15500:15514   */\n      add\n        /* \"#utility.yul\":15493:15548   */\n      mstore\n        /* \"#utility.yul\":15376:15555   */\n      pop\n      jump\t// out\n        /* \"#utility.yul\":15561:15927   */\n    tag_232:\n        /* \"#utility.yul\":15703:15706   */\n      0x00\n        /* \"#utility.yul\":15724:15791   */\n      tag_372\n        /* \"#utility.yul\":15788:15790   */\n      0x1d\n        /* \"#utility.yul\":15783:15786   */\n      dup4\n        /* \"#utility.yul\":15724:15791   */\n      tag_214\n      jump\t// in\n    tag_372:\n        /* \"#utility.yul\":15717:15791   */\n      swap2\n      pop\n        /* \"#utility.yul\":15800:15893   */\n      tag_373\n        /* \"#utility.yul\":15889:15892   */\n      dup3\n        /* \"#utility.yul\":15800:15893   */\n      tag_231\n      jump\t// in\n    tag_373:\n        /* \"#utility.yul\":15918:15920   */\n      0x20\n        /* \"#utility.yul\":15913:15916   */\n      dup3\n        /* \"#utility.yul\":15909:15921   */\n      add\n        /* \"#utility.yul\":15902:15921   */\n      swap1\n      pop\n        /* \"#utility.yul\":15561:15927   */\n      swap2\n      swap1\n      pop\n      jump\t// out\n        /* \"#utility.yul\":15933:16352   */\n    tag_176:\n        /* \"#utility.yul\":16099:16103   */\n      0x00\n        /* \"#utility.yul\":16137:16139   */\n      0x20\n        /* \"#utility.yul\":16126:16135   */\n      dup3\n        /* \"#utility.yul\":16122:16140   */\n      add\n        /* \"#utility.yul\":16114:16140   */\n      swap1\n      pop\n        /* \"#utility.yul\":16186:16195   */\n      dup2\n        /* \"#utility.yul\":16180:16184   */\n      dup2\n        /* \"#utility.yul\":16176:16196   */\n      sub\n        /* \"#utility.yul\":16172:16173   */\n      0x00\n        /* \"#utility.yul\":16161:16170   */\n      dup4\n        /* \"#utility.yul\":16157:16174   */\n      add\n        /* \"#utility.yul\":16150:16197   */\n      mstore\n        /* \"#utility.yul\":16214:16345   */\n      tag_375\n        /* \"#utility.yul\":16340:16344   */\n      dup2\n        /* \"#utility.yul\":16214:16345   */\n      tag_232\n      jump\t// in\n    tag_375:\n        /* \"#utility.yul\":16206:16345   */\n      swap1\n      pop\n        /* \"#utility.yul\":15933:16352   */\n      swap2\n      swap1\n      pop\n      jump\t// out\n\n    auxdata: 0xa2646970667358221220f48a90db546c5f58e20c8b38c6d9030fd420f8deaead9e9ab9508c4b6938361564736f6c634300081a0033\n}\n",
				"bytecode": {
					"linkReferences": {},
					"object": "608060405261025860025560056003556002600455600160055f6101000a81548160ff021916908315150217905550348015610039575f80fd5b506040516117c63803806117c6833981810160405281019061005b91906100e9565b335f806101000a81548173ffffffffffffffffffffffffffffffffffffffff021916908373ffffffffffffffffffffffffffffffffffffffff16021790555080426100a69190610141565b60018190555050610174565b5f80fd5b5f819050919050565b6100c8816100b6565b81146100d2575f80fd5b50565b5f815190506100e3816100bf565b92915050565b5f602082840312156100fe576100fd6100b2565b5b5f61010b848285016100d5565b91505092915050565b7f4e487b71000000000000000000000000000000000000000000000000000000005f52601160045260245ffd5b5f61014b826100b6565b9150610156836100b6565b925082820190508082111561016e5761016d610114565b5b92915050565b611645806101815f395ff3fe6080604052600436106100dc575f3560e01c80639528a4bd1161007e578063c442a99f11610058578063c442a99f1461024e578063c63049f814610278578063cc14e31f146102a2578063f292b25d146102cc576100dc565b80639528a4bd146101f8578063a05d3ddc1461020e578063b53627b214610224576100dc565b80633ec059d7116100ba5780633ec059d71461014a57806356afff7c14610154578063664e62b914610191578063753dcaeb146101cd576100dc565b80630851eac2146100e05780632c5e5471146100f65780633dfa138d14610120575b5f80fd5b3480156100eb575f80fd5b506100f46102f6565b005b348015610101575f80fd5b5061010a6104fe565b6040516101179190610e64565b60405180910390f35b34801561012b575f80fd5b50610134610510565b6040516101419190610ebc565b60405180910390f35b610152610533565b005b34801561015f575f80fd5b5061017a60048036038101906101759190610f0c565b6107d0565b604051610188929190610f46565b60405180910390f35b34801561019c575f80fd5b506101b760048036038101906101b29190610f97565b61081e565b6040516101c49190610fc2565b60405180910390f35b3480156101d8575f80fd5b506101e1610833565b6040516101ef929190610f46565b60405180910390f35b348015610203575f80fd5b5061020c61090c565b005b348015610219575f80fd5b50610222610b66565b005b34801561022f575f80fd5b50610238610d78565b6040516102459190610fc2565b60405180910390f35b348015610259575f80fd5b50610262610d7e565b60405161026f91906110ce565b60405180910390f35b348015610283575f80fd5b5061028c610e38565b6040516102999190610fc2565b60405180910390f35b3480156102ad575f80fd5b506102b6610e3e565b6040516102c39190610fc2565b60405180910390f35b3480156102d7575f80fd5b506102e0610e44565b6040516102ed9190610fc2565b60405180910390f35b5f8054906101000a900473ffffffffffffffffffffffffffffffffffffffff1673ffffffffffffffffffffffffffffffffffffffff163373ffffffffffffffffffffffffffffffffffffffff1614610383576040517f08c379a000000000000000000000000000000000000000000000000000000000815260040161037a9061116e565b60405180910390fd5b60055f9054906101000a900460ff166103d1576040517f08c379a00000000000000000000000000000000000000000000000000000000081526004016103c8906111d6565b60405180910390fd5b600154421015610416576040517f08c379a000000000000000000000000000000000000000000000000000000000815260040161040d9061123e565b60405180910390fd5b5f60055f6101000a81548160ff0219169083151502179055505f60068054905011156104fc577fa3a65b403bdae88eb037f4ecc1d619f436fc3ef6bcbbee3787757164e82883f2600660016006805490506104719190611289565b81548110610482576104816112bc565b5b905f5260205f2090600202015f015f9054906101000a900473ffffffffffffffffffffffffffffffffffffffff16600660016006805490506104c49190611289565b815481106104d5576104d46112bc565b5b905f5260205f209060020201600101546040516104f3929190610f46565b60405180910390a15b565b60055f9054906101000a900460ff1681565b5f8054906101000a900473ffffffffffffffffffffffffffffffffffffffff1681565b60055f9054906101000a900460ff16610581576040517f08c379a0000000000000000000000000000000000000000000000000000000008152600401610578906111d6565b60405180910390fd5b5f670de0b6b3a764000090505f600680549050111561062a576064600354600660016006805490506105b39190611289565b815481106105c4576105c36112bc565b5b905f5260205f209060020201600101546105de91906112e9565b6105e89190611357565b600660016006805490506105fc9190611289565b8154811061060d5761060c6112bc565b5b905f5260205f209060020201600101546106279190611387565b90505b80341161066c576040517f08c379a00000000000000000000000000000000000000000000000000000000081526004016106639061142a565b60405180910390fd5b61025860015461067c9190611289565b42111561069e5760025460015f8282546106969190611387565b925050819055505b600660405180604001604052803373ffffffffffffffffffffffffffffffffffffffff16815260200134815250908060018154018082558091505060019003905f5260205f2090600202015f909190919091505f820151815f015f6101000a81548173ffffffffffffffffffffffffffffffffffffffff021916908373ffffffffffffffffffffffffffffffffffffffff1602179055506020820151816001015550503460075f3373ffffffffffffffffffffffffffffffffffffffff1673ffffffffffffffffffffffffffffffffffffffff1681526020019081526020015f205f82825461078d9190611387565b925050819055507f155d469211f46e4d9ae974606f0878f9aacc6198ba30a1e6b9c8cf5627352fb533346040516107c5929190610f46565b60405180910390a150565b600681815481106107df575f80fd5b905f5260205f2090600202015f91509050805f015f9054906101000a900473ffffffffffffffffffffffffffffffffffffffff16908060010154905082565b6007602052805f5260405f205f915090505481565b5f805f6006805490501161087c576040517f08c379a000000000000000000000000000000000000000000000000000000000815260040161087390611492565b60405180910390fd5b600660016006805490506108909190611289565b815481106108a1576108a06112bc565b5b905f5260205f2090600202015f015f9054906101000a900473ffffffffffffffffffffffffffffffffffffffff169150600660016006805490506108e59190611289565b815481106108f6576108f56112bc565b5b905f5260205f2090600202016001015490509091565b60055f9054906101000a900460ff1661095a576040517f08c379a0000000000000000000000000000000000000000000000000000000008152600401610951906111d6565b60405180910390fd5b5f60075f3373ffffffffffffffffffffffffffffffffffffffff1673ffffffffffffffffffffffffffffffffffffffff1681526020019081526020015f205490505f8060068054905090505b5f811115610a78573373ffffffffffffffffffffffffffffffffffffffff1660066001836109d49190611289565b815481106109e5576109e46112bc565b5b905f5260205f2090600202015f015f9054906101000a900473ffffffffffffffffffffffffffffffffffffffff1673ffffffffffffffffffffffffffffffffffffffff1603610a65576006600182610a3d9190611289565b81548110610a4e57610a4d6112bc565b5b905f5260205f209060020201600101549150610a78565b8080610a70906114b0565b9150506109a6565b50808211610abb576040517f08c379a0000000000000000000000000000000000000000000000000000000008152600401610ab290611521565b60405180910390fd5b5f8183610ac89190611289565b90508060075f3373ffffffffffffffffffffffffffffffffffffffff1673ffffffffffffffffffffffffffffffffffffffff1681526020019081526020015f205f828254610b169190611289565b925050819055503373ffffffffffffffffffffffffffffffffffffffff166108fc8290811502906040515f60405180830381858888f19350505050158015610b60573d5f803e3d5ffd5b50505050565b60055f9054906101000a900460ff1615610bb5576040517f08c379a0000000000000000000000000000000000000000000000000000000008152600401610bac90611589565b60405180910390fd5b5f60075f3373ffffffffffffffffffffffffffffffffffffffff1673ffffffffffffffffffffffffffffffffffffffff1681526020019081526020015f205490505f8111610c38576040517f08c379a0000000000000000000000000000000000000000000000000000000008152600401610c2f906115f1565b60405180910390fd5b5f60066001600680549050610c4d9190611289565b81548110610c5e57610c5d6112bc565b5b905f5260205f2090600202015f015f9054906101000a900473ffffffffffffffffffffffffffffffffffffffff1690508073ffffffffffffffffffffffffffffffffffffffff163373ffffffffffffffffffffffffffffffffffffffff1614610cee575f606460045484610cd291906112e9565b610cdc9190611357565b90508083610cea9190611289565b9250505b5f60075f3373ffffffffffffffffffffffffffffffffffffffff1673ffffffffffffffffffffffffffffffffffffffff1681526020019081526020015f20819055503373ffffffffffffffffffffffffffffffffffffffff166108fc8390811502906040515f60405180830381858888f19350505050158015610d73573d5f803e3d5ffd5b505050565b60045481565b60606006805480602002602001604051908101604052809291908181526020015f905b82821015610e2f578382905f5260205f2090600202016040518060400160405290815f82015f9054906101000a900473ffffffffffffffffffffffffffffffffffffffff1673ffffffffffffffffffffffffffffffffffffffff1673ffffffffffffffffffffffffffffffffffffffff16815260200160018201548152505081526020019060010190610da1565b50505050905090565b60015481565b60035481565b60025481565b5f8115159050919050565b610e5e81610e4a565b82525050565b5f602082019050610e775f830184610e55565b92915050565b5f73ffffffffffffffffffffffffffffffffffffffff82169050919050565b5f610ea682610e7d565b9050919050565b610eb681610e9c565b82525050565b5f602082019050610ecf5f830184610ead565b92915050565b5f80fd5b5f819050919050565b610eeb81610ed9565b8114610ef5575f80fd5b50565b5f81359050610f0681610ee2565b92915050565b5f60208284031215610f2157610f20610ed5565b5b5f610f2e84828501610ef8565b91505092915050565b610f4081610ed9565b82525050565b5f604082019050610f595f830185610ead565b610f666020830184610f37565b9392505050565b610f7681610e9c565b8114610f80575f80fd5b50565b5f81359050610f9181610f6d565b92915050565b5f60208284031215610fac57610fab610ed5565b5b5f610fb984828501610f83565b91505092915050565b5f602082019050610fd55f830184610f37565b92915050565b5f81519050919050565b5f82825260208201905092915050565b5f819050602082019050919050565b61100d81610e9c565b82525050565b61101c81610ed9565b82525050565b604082015f8201516110365f850182611004565b5060208201516110496020850182611013565b50505050565b5f61105a8383611022565b60408301905092915050565b5f602082019050919050565b5f61107c82610fdb565b6110868185610fe5565b935061109183610ff5565b805f5b838110156110c15781516110a8888261104f565b97506110b383611066565b925050600181019050611094565b5085935050505092915050565b5f6020820190508181035f8301526110e68184611072565b905092915050565b5f82825260208201905092915050565b7f536f6c6f20656c2073756261737461646f7220707565646520656a65637574615f8201527f72206573746120616363696f6e00000000000000000000000000000000000000602082015250565b5f611158602d836110ee565b9150611163826110fe565b604082019050919050565b5f6020820190508181035f8301526111858161114c565b9050919050565b7f4c6120737562617374612079612068612066696e616c697a61646f00000000005f82015250565b5f6111c0601b836110ee565b91506111cb8261118c565b602082019050919050565b5f6020820190508181035f8301526111ed816111b4565b9050919050565b7f4c6120737562617374612061756e206573746120656e20637572736f000000005f82015250565b5f611228601c836110ee565b9150611233826111f4565b602082019050919050565b5f6020820190508181035f8301526112558161121c565b9050919050565b7f4e487b71000000000000000000000000000000000000000000000000000000005f52601160045260245ffd5b5f61129382610ed9565b915061129e83610ed9565b92508282039050818111156112b6576112b561125c565b5b92915050565b7f4e487b71000000000000000000000000000000000000000000000000000000005f52603260045260245ffd5b5f6112f382610ed9565b91506112fe83610ed9565b925082820261130c81610ed9565b915082820484148315176113235761132261125c565b5b5092915050565b7f4e487b71000000000000000000000000000000000000000000000000000000005f52601260045260245ffd5b5f61136182610ed9565b915061136c83610ed9565b92508261137c5761137b61132a565b5b828204905092915050565b5f61139182610ed9565b915061139c83610ed9565b92508282019050808211156113b4576113b361125c565b5b92915050565b7f4c61206f66657274612064656265207375706572617220656e20616c206d656e5f8201527f6f7320756e203525206c61206f66657274612061637475616c00000000000000602082015250565b5f6114146039836110ee565b915061141f826113ba565b604082019050919050565b5f6020820190508181035f83015261144181611408565b9050919050565b7f4e6f20686179206f6665727461730000000000000000000000000000000000005f82015250565b5f61147c600e836110ee565b915061148782611448565b602082019050919050565b5f6020820190508181035f8301526114a981611470565b9050919050565b5f6114ba82610ed9565b91505f82036114cc576114cb61125c565b5b600182039050919050565b7f4e6f20686179206578636564656e7465207061726120726574697261720000005f82015250565b5f61150b601d836110ee565b9150611516826114d7565b602082019050919050565b5f6020820190508181035f830152611538816114ff565b9050919050565b7f4c6120737562617374612061756e2065737461206163746976610000000000005f82015250565b5f611573601a836110ee565b915061157e8261153f565b602082019050919050565b5f6020820190508181035f8301526115a081611567565b9050919050565b7f4e6f20686179206465706f7369746f2070617261206465766f6c7665720000005f82015250565b5f6115db601d836110ee565b91506115e6826115a7565b602082019050919050565b5f6020820190508181035f830152611608816115cf565b905091905056fea2646970667358221220f48a90db546c5f58e20c8b38c6d9030fd420f8deaead9e9ab9508c4b6938361564736f6c634300081a0033",
					"opcodes": "PUSH1 0x80 PUSH1 0x40 MSTORE PUSH2 0x258 PUSH1 0x2 SSTORE PUSH1 0x5 PUSH1 0x3 SSTORE PUSH1 0x2 PUSH1 0x4 SSTORE PUSH1 0x1 PUSH1 0x5 PUSH0 PUSH2 0x100 EXP DUP2 SLOAD DUP2 PUSH1 0xFF MUL NOT AND SWAP1 DUP4 ISZERO ISZERO MUL OR SWAP1 SSTORE POP CALLVALUE DUP1 ISZERO PUSH2 0x39 JUMPI PUSH0 DUP1 REVERT JUMPDEST POP PUSH1 0x40 MLOAD PUSH2 0x17C6 CODESIZE SUB DUP1 PUSH2 0x17C6 DUP4 CODECOPY DUP2 DUP2 ADD PUSH1 0x40 MSTORE DUP2 ADD SWAP1 PUSH2 0x5B SWAP2 SWAP1 PUSH2 0xE9 JUMP JUMPDEST CALLER PUSH0 DUP1 PUSH2 0x100 EXP DUP2 SLOAD DUP2 PUSH20 0xFFFFFFFFFFFFFFFFFFFFFFFFFFFFFFFFFFFFFFFF MUL NOT AND SWAP1 DUP4 PUSH20 0xFFFFFFFFFFFFFFFFFFFFFFFFFFFFFFFFFFFFFFFF AND MUL OR SWAP1 SSTORE POP DUP1 TIMESTAMP PUSH2 0xA6 SWAP2 SWAP1 PUSH2 0x141 JUMP JUMPDEST PUSH1 0x1 DUP2 SWAP1 SSTORE POP POP PUSH2 0x174 JUMP JUMPDEST PUSH0 DUP1 REVERT JUMPDEST PUSH0 DUP2 SWAP1 POP SWAP2 SWAP1 POP JUMP JUMPDEST PUSH2 0xC8 DUP2 PUSH2 0xB6 JUMP JUMPDEST DUP2 EQ PUSH2 0xD2 JUMPI PUSH0 DUP1 REVERT JUMPDEST POP JUMP JUMPDEST PUSH0 DUP2 MLOAD SWAP1 POP PUSH2 0xE3 DUP2 PUSH2 0xBF JUMP JUMPDEST SWAP3 SWAP2 POP POP JUMP JUMPDEST PUSH0 PUSH1 0x20 DUP3 DUP5 SUB SLT ISZERO PUSH2 0xFE JUMPI PUSH2 0xFD PUSH2 0xB2 JUMP JUMPDEST JUMPDEST PUSH0 PUSH2 0x10B DUP5 DUP3 DUP6 ADD PUSH2 0xD5 JUMP JUMPDEST SWAP2 POP POP SWAP3 SWAP2 POP POP JUMP JUMPDEST PUSH32 0x4E487B7100000000000000000000000000000000000000000000000000000000 PUSH0 MSTORE PUSH1 0x11 PUSH1 0x4 MSTORE PUSH1 0x24 PUSH0 REVERT JUMPDEST PUSH0 PUSH2 0x14B DUP3 PUSH2 0xB6 JUMP JUMPDEST SWAP2 POP PUSH2 0x156 DUP4 PUSH2 0xB6 JUMP JUMPDEST SWAP3 POP DUP3 DUP3 ADD SWAP1 POP DUP1 DUP3 GT ISZERO PUSH2 0x16E JUMPI PUSH2 0x16D PUSH2 0x114 JUMP JUMPDEST JUMPDEST SWAP3 SWAP2 POP POP JUMP JUMPDEST PUSH2 0x1645 DUP1 PUSH2 0x181 PUSH0 CODECOPY PUSH0 RETURN INVALID PUSH1 0x80 PUSH1 0x40 MSTORE PUSH1 0x4 CALLDATASIZE LT PUSH2 0xDC JUMPI PUSH0 CALLDATALOAD PUSH1 0xE0 SHR DUP1 PUSH4 0x9528A4BD GT PUSH2 0x7E JUMPI DUP1 PUSH4 0xC442A99F GT PUSH2 0x58 JUMPI DUP1 PUSH4 0xC442A99F EQ PUSH2 0x24E JUMPI DUP1 PUSH4 0xC63049F8 EQ PUSH2 0x278 JUMPI DUP1 PUSH4 0xCC14E31F EQ PUSH2 0x2A2 JUMPI DUP1 PUSH4 0xF292B25D EQ PUSH2 0x2CC JUMPI PUSH2 0xDC JUMP JUMPDEST DUP1 PUSH4 0x9528A4BD EQ PUSH2 0x1F8 JUMPI DUP1 PUSH4 0xA05D3DDC EQ PUSH2 0x20E JUMPI DUP1 PUSH4 0xB53627B2 EQ PUSH2 0x224 JUMPI PUSH2 0xDC JUMP JUMPDEST DUP1 PUSH4 0x3EC059D7 GT PUSH2 0xBA JUMPI DUP1 PUSH4 0x3EC059D7 EQ PUSH2 0x14A JUMPI DUP1 PUSH4 0x56AFFF7C EQ PUSH2 0x154 JUMPI DUP1 PUSH4 0x664E62B9 EQ PUSH2 0x191 JUMPI DUP1 PUSH4 0x753DCAEB EQ PUSH2 0x1CD JUMPI PUSH2 0xDC JUMP JUMPDEST DUP1 PUSH4 0x851EAC2 EQ PUSH2 0xE0 JUMPI DUP1 PUSH4 0x2C5E5471 EQ PUSH2 0xF6 JUMPI DUP1 PUSH4 0x3DFA138D EQ PUSH2 0x120 JUMPI JUMPDEST PUSH0 DUP1 REVERT JUMPDEST CALLVALUE DUP1 ISZERO PUSH2 0xEB JUMPI PUSH0 DUP1 REVERT JUMPDEST POP PUSH2 0xF4 PUSH2 0x2F6 JUMP JUMPDEST STOP JUMPDEST CALLVALUE DUP1 ISZERO PUSH2 0x101 JUMPI PUSH0 DUP1 REVERT JUMPDEST POP PUSH2 0x10A PUSH2 0x4FE JUMP JUMPDEST PUSH1 0x40 MLOAD PUSH2 0x117 SWAP2 SWAP1 PUSH2 0xE64 JUMP JUMPDEST PUSH1 0x40 MLOAD DUP1 SWAP2 SUB SWAP1 RETURN JUMPDEST CALLVALUE DUP1 ISZERO PUSH2 0x12B JUMPI PUSH0 DUP1 REVERT JUMPDEST POP PUSH2 0x134 PUSH2 0x510 JUMP JUMPDEST PUSH1 0x40 MLOAD PUSH2 0x141 SWAP2 SWAP1 PUSH2 0xEBC JUMP JUMPDEST PUSH1 0x40 MLOAD DUP1 SWAP2 SUB SWAP1 RETURN JUMPDEST PUSH2 0x152 PUSH2 0x533 JUMP JUMPDEST STOP JUMPDEST CALLVALUE DUP1 ISZERO PUSH2 0x15F JUMPI PUSH0 DUP1 REVERT JUMPDEST POP PUSH2 0x17A PUSH1 0x4 DUP1 CALLDATASIZE SUB DUP2 ADD SWAP1 PUSH2 0x175 SWAP2 SWAP1 PUSH2 0xF0C JUMP JUMPDEST PUSH2 0x7D0 JUMP JUMPDEST PUSH1 0x40 MLOAD PUSH2 0x188 SWAP3 SWAP2 SWAP1 PUSH2 0xF46 JUMP JUMPDEST PUSH1 0x40 MLOAD DUP1 SWAP2 SUB SWAP1 RETURN JUMPDEST CALLVALUE DUP1 ISZERO PUSH2 0x19C JUMPI PUSH0 DUP1 REVERT JUMPDEST POP PUSH2 0x1B7 PUSH1 0x4 DUP1 CALLDATASIZE SUB DUP2 ADD SWAP1 PUSH2 0x1B2 SWAP2 SWAP1 PUSH2 0xF97 JUMP JUMPDEST PUSH2 0x81E JUMP JUMPDEST PUSH1 0x40 MLOAD PUSH2 0x1C4 SWAP2 SWAP1 PUSH2 0xFC2 JUMP JUMPDEST PUSH1 0x40 MLOAD DUP1 SWAP2 SUB SWAP1 RETURN JUMPDEST CALLVALUE DUP1 ISZERO PUSH2 0x1D8 JUMPI PUSH0 DUP1 REVERT JUMPDEST POP PUSH2 0x1E1 PUSH2 0x833 JUMP JUMPDEST PUSH1 0x40 MLOAD PUSH2 0x1EF SWAP3 SWAP2 SWAP1 PUSH2 0xF46 JUMP JUMPDEST PUSH1 0x40 MLOAD DUP1 SWAP2 SUB SWAP1 RETURN JUMPDEST CALLVALUE DUP1 ISZERO PUSH2 0x203 JUMPI PUSH0 DUP1 REVERT JUMPDEST POP PUSH2 0x20C PUSH2 0x90C JUMP JUMPDEST STOP JUMPDEST CALLVALUE DUP1 ISZERO PUSH2 0x219 JUMPI PUSH0 DUP1 REVERT JUMPDEST POP PUSH2 0x222 PUSH2 0xB66 JUMP JUMPDEST STOP JUMPDEST CALLVALUE DUP1 ISZERO PUSH2 0x22F JUMPI PUSH0 DUP1 REVERT JUMPDEST POP PUSH2 0x238 PUSH2 0xD78 JUMP JUMPDEST PUSH1 0x40 MLOAD PUSH2 0x245 SWAP2 SWAP1 PUSH2 0xFC2 JUMP JUMPDEST PUSH1 0x40 MLOAD DUP1 SWAP2 SUB SWAP1 RETURN JUMPDEST CALLVALUE DUP1 ISZERO PUSH2 0x259 JUMPI PUSH0 DUP1 REVERT JUMPDEST POP PUSH2 0x262 PUSH2 0xD7E JUMP JUMPDEST PUSH1 0x40 MLOAD PUSH2 0x26F SWAP2 SWAP1 PUSH2 0x10CE JUMP JUMPDEST PUSH1 0x40 MLOAD DUP1 SWAP2 SUB SWAP1 RETURN JUMPDEST CALLVALUE DUP1 ISZERO PUSH2 0x283 JUMPI PUSH0 DUP1 REVERT JUMPDEST POP PUSH2 0x28C PUSH2 0xE38 JUMP JUMPDEST PUSH1 0x40 MLOAD PUSH2 0x299 SWAP2 SWAP1 PUSH2 0xFC2 JUMP JUMPDEST PUSH1 0x40 MLOAD DUP1 SWAP2 SUB SWAP1 RETURN JUMPDEST CALLVALUE DUP1 ISZERO PUSH2 0x2AD JUMPI PUSH0 DUP1 REVERT JUMPDEST POP PUSH2 0x2B6 PUSH2 0xE3E JUMP JUMPDEST PUSH1 0x40 MLOAD PUSH2 0x2C3 SWAP2 SWAP1 PUSH2 0xFC2 JUMP JUMPDEST PUSH1 0x40 MLOAD DUP1 SWAP2 SUB SWAP1 RETURN JUMPDEST CALLVALUE DUP1 ISZERO PUSH2 0x2D7 JUMPI PUSH0 DUP1 REVERT JUMPDEST POP PUSH2 0x2E0 PUSH2 0xE44 JUMP JUMPDEST PUSH1 0x40 MLOAD PUSH2 0x2ED SWAP2 SWAP1 PUSH2 0xFC2 JUMP JUMPDEST PUSH1 0x40 MLOAD DUP1 SWAP2 SUB SWAP1 RETURN JUMPDEST PUSH0 DUP1 SLOAD SWAP1 PUSH2 0x100 EXP SWAP1 DIV PUSH20 0xFFFFFFFFFFFFFFFFFFFFFFFFFFFFFFFFFFFFFFFF AND PUSH20 0xFFFFFFFFFFFFFFFFFFFFFFFFFFFFFFFFFFFFFFFF AND CALLER PUSH20 0xFFFFFFFFFFFFFFFFFFFFFFFFFFFFFFFFFFFFFFFF AND EQ PUSH2 0x383 JUMPI PUSH1 0x40 MLOAD PUSH32 0x8C379A000000000000000000000000000000000000000000000000000000000 DUP2 MSTORE PUSH1 0x4 ADD PUSH2 0x37A SWAP1 PUSH2 0x116E JUMP JUMPDEST PUSH1 0x40 MLOAD DUP1 SWAP2 SUB SWAP1 REVERT JUMPDEST PUSH1 0x5 PUSH0 SWAP1 SLOAD SWAP1 PUSH2 0x100 EXP SWAP1 DIV PUSH1 0xFF AND PUSH2 0x3D1 JUMPI PUSH1 0x40 MLOAD PUSH32 0x8C379A000000000000000000000000000000000000000000000000000000000 DUP2 MSTORE PUSH1 0x4 ADD PUSH2 0x3C8 SWAP1 PUSH2 0x11D6 JUMP JUMPDEST PUSH1 0x40 MLOAD DUP1 SWAP2 SUB SWAP1 REVERT JUMPDEST PUSH1 0x1 SLOAD TIMESTAMP LT ISZERO PUSH2 0x416 JUMPI PUSH1 0x40 MLOAD PUSH32 0x8C379A000000000000000000000000000000000000000000000000000000000 DUP2 MSTORE PUSH1 0x4 ADD PUSH2 0x40D SWAP1 PUSH2 0x123E JUMP JUMPDEST PUSH1 0x40 MLOAD DUP1 SWAP2 SUB SWAP1 REVERT JUMPDEST PUSH0 PUSH1 0x5 PUSH0 PUSH2 0x100 EXP DUP2 SLOAD DUP2 PUSH1 0xFF MUL NOT AND SWAP1 DUP4 ISZERO ISZERO MUL OR SWAP1 SSTORE POP PUSH0 PUSH1 0x6 DUP1 SLOAD SWAP1 POP GT ISZERO PUSH2 0x4FC JUMPI PUSH32 0xA3A65B403BDAE88EB037F4ECC1D619F436FC3EF6BCBBEE3787757164E82883F2 PUSH1 0x6 PUSH1 0x1 PUSH1 0x6 DUP1 SLOAD SWAP1 POP PUSH2 0x471 SWAP2 SWAP1 PUSH2 0x1289 JUMP JUMPDEST DUP2 SLOAD DUP2 LT PUSH2 0x482 JUMPI PUSH2 0x481 PUSH2 0x12BC JUMP JUMPDEST JUMPDEST SWAP1 PUSH0 MSTORE PUSH1 0x20 PUSH0 KECCAK256 SWAP1 PUSH1 0x2 MUL ADD PUSH0 ADD PUSH0 SWAP1 SLOAD SWAP1 PUSH2 0x100 EXP SWAP1 DIV PUSH20 0xFFFFFFFFFFFFFFFFFFFFFFFFFFFFFFFFFFFFFFFF AND PUSH1 0x6 PUSH1 0x1 PUSH1 0x6 DUP1 SLOAD SWAP1 POP PUSH2 0x4C4 SWAP2 SWAP1 PUSH2 0x1289 JUMP JUMPDEST DUP2 SLOAD DUP2 LT PUSH2 0x4D5 JUMPI PUSH2 0x4D4 PUSH2 0x12BC JUMP JUMPDEST JUMPDEST SWAP1 PUSH0 MSTORE PUSH1 0x20 PUSH0 KECCAK256 SWAP1 PUSH1 0x2 MUL ADD PUSH1 0x1 ADD SLOAD PUSH1 0x40 MLOAD PUSH2 0x4F3 SWAP3 SWAP2 SWAP1 PUSH2 0xF46 JUMP JUMPDEST PUSH1 0x40 MLOAD DUP1 SWAP2 SUB SWAP1 LOG1 JUMPDEST JUMP JUMPDEST PUSH1 0x5 PUSH0 SWAP1 SLOAD SWAP1 PUSH2 0x100 EXP SWAP1 DIV PUSH1 0xFF AND DUP2 JUMP JUMPDEST PUSH0 DUP1 SLOAD SWAP1 PUSH2 0x100 EXP SWAP1 DIV PUSH20 0xFFFFFFFFFFFFFFFFFFFFFFFFFFFFFFFFFFFFFFFF AND DUP2 JUMP JUMPDEST PUSH1 0x5 PUSH0 SWAP1 SLOAD SWAP1 PUSH2 0x100 EXP SWAP1 DIV PUSH1 0xFF AND PUSH2 0x581 JUMPI PUSH1 0x40 MLOAD PUSH32 0x8C379A000000000000000000000000000000000000000000000000000000000 DUP2 MSTORE PUSH1 0x4 ADD PUSH2 0x578 SWAP1 PUSH2 0x11D6 JUMP JUMPDEST PUSH1 0x40 MLOAD DUP1 SWAP2 SUB SWAP1 REVERT JUMPDEST PUSH0 PUSH8 0xDE0B6B3A7640000 SWAP1 POP PUSH0 PUSH1 0x6 DUP1 SLOAD SWAP1 POP GT ISZERO PUSH2 0x62A JUMPI PUSH1 0x64 PUSH1 0x3 SLOAD PUSH1 0x6 PUSH1 0x1 PUSH1 0x6 DUP1 SLOAD SWAP1 POP PUSH2 0x5B3 SWAP2 SWAP1 PUSH2 0x1289 JUMP JUMPDEST DUP2 SLOAD DUP2 LT PUSH2 0x5C4 JUMPI PUSH2 0x5C3 PUSH2 0x12BC JUMP JUMPDEST JUMPDEST SWAP1 PUSH0 MSTORE PUSH1 0x20 PUSH0 KECCAK256 SWAP1 PUSH1 0x2 MUL ADD PUSH1 0x1 ADD SLOAD PUSH2 0x5DE SWAP2 SWAP1 PUSH2 0x12E9 JUMP JUMPDEST PUSH2 0x5E8 SWAP2 SWAP1 PUSH2 0x1357 JUMP JUMPDEST PUSH1 0x6 PUSH1 0x1 PUSH1 0x6 DUP1 SLOAD SWAP1 POP PUSH2 0x5FC SWAP2 SWAP1 PUSH2 0x1289 JUMP JUMPDEST DUP2 SLOAD DUP2 LT PUSH2 0x60D JUMPI PUSH2 0x60C PUSH2 0x12BC JUMP JUMPDEST JUMPDEST SWAP1 PUSH0 MSTORE PUSH1 0x20 PUSH0 KECCAK256 SWAP1 PUSH1 0x2 MUL ADD PUSH1 0x1 ADD SLOAD PUSH2 0x627 SWAP2 SWAP1 PUSH2 0x1387 JUMP JUMPDEST SWAP1 POP JUMPDEST DUP1 CALLVALUE GT PUSH2 0x66C JUMPI PUSH1 0x40 MLOAD PUSH32 0x8C379A000000000000000000000000000000000000000000000000000000000 DUP2 MSTORE PUSH1 0x4 ADD PUSH2 0x663 SWAP1 PUSH2 0x142A JUMP JUMPDEST PUSH1 0x40 MLOAD DUP1 SWAP2 SUB SWAP1 REVERT JUMPDEST PUSH2 0x258 PUSH1 0x1 SLOAD PUSH2 0x67C SWAP2 SWAP1 PUSH2 0x1289 JUMP JUMPDEST TIMESTAMP GT ISZERO PUSH2 0x69E JUMPI PUSH1 0x2 SLOAD PUSH1 0x1 PUSH0 DUP3 DUP3 SLOAD PUSH2 0x696 SWAP2 SWAP1 PUSH2 0x1387 JUMP JUMPDEST SWAP3 POP POP DUP2 SWAP1 SSTORE POP JUMPDEST PUSH1 0x6 PUSH1 0x40 MLOAD DUP1 PUSH1 0x40 ADD PUSH1 0x40 MSTORE DUP1 CALLER PUSH20 0xFFFFFFFFFFFFFFFFFFFFFFFFFFFFFFFFFFFFFFFF AND DUP2 MSTORE PUSH1 0x20 ADD CALLVALUE DUP2 MSTORE POP SWAP1 DUP1 PUSH1 0x1 DUP2 SLOAD ADD DUP1 DUP3 SSTORE DUP1 SWAP2 POP POP PUSH1 0x1 SWAP1 SUB SWAP1 PUSH0 MSTORE PUSH1 0x20 PUSH0 KECCAK256 SWAP1 PUSH1 0x2 MUL ADD PUSH0 SWAP1 SWAP2 SWAP1 SWAP2 SWAP1 SWAP2 POP PUSH0 DUP3 ADD MLOAD DUP2 PUSH0 ADD PUSH0 PUSH2 0x100 EXP DUP2 SLOAD DUP2 PUSH20 0xFFFFFFFFFFFFFFFFFFFFFFFFFFFFFFFFFFFFFFFF MUL NOT AND SWAP1 DUP4 PUSH20 0xFFFFFFFFFFFFFFFFFFFFFFFFFFFFFFFFFFFFFFFF AND MUL OR SWAP1 SSTORE POP PUSH1 0x20 DUP3 ADD MLOAD DUP2 PUSH1 0x1 ADD SSTORE POP POP CALLVALUE PUSH1 0x7 PUSH0 CALLER PUSH20 0xFFFFFFFFFFFFFFFFFFFFFFFFFFFFFFFFFFFFFFFF AND PUSH20 0xFFFFFFFFFFFFFFFFFFFFFFFFFFFFFFFFFFFFFFFF AND DUP2 MSTORE PUSH1 0x20 ADD SWAP1 DUP2 MSTORE PUSH1 0x20 ADD PUSH0 KECCAK256 PUSH0 DUP3 DUP3 SLOAD PUSH2 0x78D SWAP2 SWAP1 PUSH2 0x1387 JUMP JUMPDEST SWAP3 POP POP DUP2 SWAP1 SSTORE POP PUSH32 0x155D469211F46E4D9AE974606F0878F9AACC6198BA30A1E6B9C8CF5627352FB5 CALLER CALLVALUE PUSH1 0x40 MLOAD PUSH2 0x7C5 SWAP3 SWAP2 SWAP1 PUSH2 0xF46 JUMP JUMPDEST PUSH1 0x40 MLOAD DUP1 SWAP2 SUB SWAP1 LOG1 POP JUMP JUMPDEST PUSH1 0x6 DUP2 DUP2 SLOAD DUP2 LT PUSH2 0x7DF JUMPI PUSH0 DUP1 REVERT JUMPDEST SWAP1 PUSH0 MSTORE PUSH1 0x20 PUSH0 KECCAK256 SWAP1 PUSH1 0x2 MUL ADD PUSH0 SWAP2 POP SWAP1 POP DUP1 PUSH0 ADD PUSH0 SWAP1 SLOAD SWAP1 PUSH2 0x100 EXP SWAP1 DIV PUSH20 0xFFFFFFFFFFFFFFFFFFFFFFFFFFFFFFFFFFFFFFFF AND SWAP1 DUP1 PUSH1 0x1 ADD SLOAD SWAP1 POP DUP3 JUMP JUMPDEST PUSH1 0x7 PUSH1 0x20 MSTORE DUP1 PUSH0 MSTORE PUSH1 0x40 PUSH0 KECCAK256 PUSH0 SWAP2 POP SWAP1 POP SLOAD DUP2 JUMP JUMPDEST PUSH0 DUP1 PUSH0 PUSH1 0x6 DUP1 SLOAD SWAP1 POP GT PUSH2 0x87C JUMPI PUSH1 0x40 MLOAD PUSH32 0x8C379A000000000000000000000000000000000000000000000000000000000 DUP2 MSTORE PUSH1 0x4 ADD PUSH2 0x873 SWAP1 PUSH2 0x1492 JUMP JUMPDEST PUSH1 0x40 MLOAD DUP1 SWAP2 SUB SWAP1 REVERT JUMPDEST PUSH1 0x6 PUSH1 0x1 PUSH1 0x6 DUP1 SLOAD SWAP1 POP PUSH2 0x890 SWAP2 SWAP1 PUSH2 0x1289 JUMP JUMPDEST DUP2 SLOAD DUP2 LT PUSH2 0x8A1 JUMPI PUSH2 0x8A0 PUSH2 0x12BC JUMP JUMPDEST JUMPDEST SWAP1 PUSH0 MSTORE PUSH1 0x20 PUSH0 KECCAK256 SWAP1 PUSH1 0x2 MUL ADD PUSH0 ADD PUSH0 SWAP1 SLOAD SWAP1 PUSH2 0x100 EXP SWAP1 DIV PUSH20 0xFFFFFFFFFFFFFFFFFFFFFFFFFFFFFFFFFFFFFFFF AND SWAP2 POP PUSH1 0x6 PUSH1 0x1 PUSH1 0x6 DUP1 SLOAD SWAP1 POP PUSH2 0x8E5 SWAP2 SWAP1 PUSH2 0x1289 JUMP JUMPDEST DUP2 SLOAD DUP2 LT PUSH2 0x8F6 JUMPI PUSH2 0x8F5 PUSH2 0x12BC JUMP JUMPDEST JUMPDEST SWAP1 PUSH0 MSTORE PUSH1 0x20 PUSH0 KECCAK256 SWAP1 PUSH1 0x2 MUL ADD PUSH1 0x1 ADD SLOAD SWAP1 POP SWAP1 SWAP2 JUMP JUMPDEST PUSH1 0x5 PUSH0 SWAP1 SLOAD SWAP1 PUSH2 0x100 EXP SWAP1 DIV PUSH1 0xFF AND PUSH2 0x95A JUMPI PUSH1 0x40 MLOAD PUSH32 0x8C379A000000000000000000000000000000000000000000000000000000000 DUP2 MSTORE PUSH1 0x4 ADD PUSH2 0x951 SWAP1 PUSH2 0x11D6 JUMP JUMPDEST PUSH1 0x40 MLOAD DUP1 SWAP2 SUB SWAP1 REVERT JUMPDEST PUSH0 PUSH1 0x7 PUSH0 CALLER PUSH20 0xFFFFFFFFFFFFFFFFFFFFFFFFFFFFFFFFFFFFFFFF AND PUSH20 0xFFFFFFFFFFFFFFFFFFFFFFFFFFFFFFFFFFFFFFFF AND DUP2 MSTORE PUSH1 0x20 ADD SWAP1 DUP2 MSTORE PUSH1 0x20 ADD PUSH0 KECCAK256 SLOAD SWAP1 POP PUSH0 DUP1 PUSH1 0x6 DUP1 SLOAD SWAP1 POP SWAP1 POP JUMPDEST PUSH0 DUP2 GT ISZERO PUSH2 0xA78 JUMPI CALLER PUSH20 0xFFFFFFFFFFFFFFFFFFFFFFFFFFFFFFFFFFFFFFFF AND PUSH1 0x6 PUSH1 0x1 DUP4 PUSH2 0x9D4 SWAP2 SWAP1 PUSH2 0x1289 JUMP JUMPDEST DUP2 SLOAD DUP2 LT PUSH2 0x9E5 JUMPI PUSH2 0x9E4 PUSH2 0x12BC JUMP JUMPDEST JUMPDEST SWAP1 PUSH0 MSTORE PUSH1 0x20 PUSH0 KECCAK256 SWAP1 PUSH1 0x2 MUL ADD PUSH0 ADD PUSH0 SWAP1 SLOAD SWAP1 PUSH2 0x100 EXP SWAP1 DIV PUSH20 0xFFFFFFFFFFFFFFFFFFFFFFFFFFFFFFFFFFFFFFFF AND PUSH20 0xFFFFFFFFFFFFFFFFFFFFFFFFFFFFFFFFFFFFFFFF AND SUB PUSH2 0xA65 JUMPI PUSH1 0x6 PUSH1 0x1 DUP3 PUSH2 0xA3D SWAP2 SWAP1 PUSH2 0x1289 JUMP JUMPDEST DUP2 SLOAD DUP2 LT PUSH2 0xA4E JUMPI PUSH2 0xA4D PUSH2 0x12BC JUMP JUMPDEST JUMPDEST SWAP1 PUSH0 MSTORE PUSH1 0x20 PUSH0 KECCAK256 SWAP1 PUSH1 0x2 MUL ADD PUSH1 0x1 ADD SLOAD SWAP2 POP PUSH2 0xA78 JUMP JUMPDEST DUP1 DUP1 PUSH2 0xA70 SWAP1 PUSH2 0x14B0 JUMP JUMPDEST SWAP2 POP POP PUSH2 0x9A6 JUMP JUMPDEST POP DUP1 DUP3 GT PUSH2 0xABB JUMPI PUSH1 0x40 MLOAD PUSH32 0x8C379A000000000000000000000000000000000000000000000000000000000 DUP2 MSTORE PUSH1 0x4 ADD PUSH2 0xAB2 SWAP1 PUSH2 0x1521 JUMP JUMPDEST PUSH1 0x40 MLOAD DUP1 SWAP2 SUB SWAP1 REVERT JUMPDEST PUSH0 DUP2 DUP4 PUSH2 0xAC8 SWAP2 SWAP1 PUSH2 0x1289 JUMP JUMPDEST SWAP1 POP DUP1 PUSH1 0x7 PUSH0 CALLER PUSH20 0xFFFFFFFFFFFFFFFFFFFFFFFFFFFFFFFFFFFFFFFF AND PUSH20 0xFFFFFFFFFFFFFFFFFFFFFFFFFFFFFFFFFFFFFFFF AND DUP2 MSTORE PUSH1 0x20 ADD SWAP1 DUP2 MSTORE PUSH1 0x20 ADD PUSH0 KECCAK256 PUSH0 DUP3 DUP3 SLOAD PUSH2 0xB16 SWAP2 SWAP1 PUSH2 0x1289 JUMP JUMPDEST SWAP3 POP POP DUP2 SWAP1 SSTORE POP CALLER PUSH20 0xFFFFFFFFFFFFFFFFFFFFFFFFFFFFFFFFFFFFFFFF AND PUSH2 0x8FC DUP3 SWAP1 DUP2 ISZERO MUL SWAP1 PUSH1 0x40 MLOAD PUSH0 PUSH1 0x40 MLOAD DUP1 DUP4 SUB DUP2 DUP6 DUP9 DUP9 CALL SWAP4 POP POP POP POP ISZERO DUP1 ISZERO PUSH2 0xB60 JUMPI RETURNDATASIZE PUSH0 DUP1 RETURNDATACOPY RETURNDATASIZE PUSH0 REVERT JUMPDEST POP POP POP POP JUMP JUMPDEST PUSH1 0x5 PUSH0 SWAP1 SLOAD SWAP1 PUSH2 0x100 EXP SWAP1 DIV PUSH1 0xFF AND ISZERO PUSH2 0xBB5 JUMPI PUSH1 0x40 MLOAD PUSH32 0x8C379A000000000000000000000000000000000000000000000000000000000 DUP2 MSTORE PUSH1 0x4 ADD PUSH2 0xBAC SWAP1 PUSH2 0x1589 JUMP JUMPDEST PUSH1 0x40 MLOAD DUP1 SWAP2 SUB SWAP1 REVERT JUMPDEST PUSH0 PUSH1 0x7 PUSH0 CALLER PUSH20 0xFFFFFFFFFFFFFFFFFFFFFFFFFFFFFFFFFFFFFFFF AND PUSH20 0xFFFFFFFFFFFFFFFFFFFFFFFFFFFFFFFFFFFFFFFF AND DUP2 MSTORE PUSH1 0x20 ADD SWAP1 DUP2 MSTORE PUSH1 0x20 ADD PUSH0 KECCAK256 SLOAD SWAP1 POP PUSH0 DUP2 GT PUSH2 0xC38 JUMPI PUSH1 0x40 MLOAD PUSH32 0x8C379A000000000000000000000000000000000000000000000000000000000 DUP2 MSTORE PUSH1 0x4 ADD PUSH2 0xC2F SWAP1 PUSH2 0x15F1 JUMP JUMPDEST PUSH1 0x40 MLOAD DUP1 SWAP2 SUB SWAP1 REVERT JUMPDEST PUSH0 PUSH1 0x6 PUSH1 0x1 PUSH1 0x6 DUP1 SLOAD SWAP1 POP PUSH2 0xC4D SWAP2 SWAP1 PUSH2 0x1289 JUMP JUMPDEST DUP2 SLOAD DUP2 LT PUSH2 0xC5E JUMPI PUSH2 0xC5D PUSH2 0x12BC JUMP JUMPDEST JUMPDEST SWAP1 PUSH0 MSTORE PUSH1 0x20 PUSH0 KECCAK256 SWAP1 PUSH1 0x2 MUL ADD PUSH0 ADD PUSH0 SWAP1 SLOAD SWAP1 PUSH2 0x100 EXP SWAP1 DIV PUSH20 0xFFFFFFFFFFFFFFFFFFFFFFFFFFFFFFFFFFFFFFFF AND SWAP1 POP DUP1 PUSH20 0xFFFFFFFFFFFFFFFFFFFFFFFFFFFFFFFFFFFFFFFF AND CALLER PUSH20 0xFFFFFFFFFFFFFFFFFFFFFFFFFFFFFFFFFFFFFFFF AND EQ PUSH2 0xCEE JUMPI PUSH0 PUSH1 0x64 PUSH1 0x4 SLOAD DUP5 PUSH2 0xCD2 SWAP2 SWAP1 PUSH2 0x12E9 JUMP JUMPDEST PUSH2 0xCDC SWAP2 SWAP1 PUSH2 0x1357 JUMP JUMPDEST SWAP1 POP DUP1 DUP4 PUSH2 0xCEA SWAP2 SWAP1 PUSH2 0x1289 JUMP JUMPDEST SWAP3 POP POP JUMPDEST PUSH0 PUSH1 0x7 PUSH0 CALLER PUSH20 0xFFFFFFFFFFFFFFFFFFFFFFFFFFFFFFFFFFFFFFFF AND PUSH20 0xFFFFFFFFFFFFFFFFFFFFFFFFFFFFFFFFFFFFFFFF AND DUP2 MSTORE PUSH1 0x20 ADD SWAP1 DUP2 MSTORE PUSH1 0x20 ADD PUSH0 KECCAK256 DUP2 SWAP1 SSTORE POP CALLER PUSH20 0xFFFFFFFFFFFFFFFFFFFFFFFFFFFFFFFFFFFFFFFF AND PUSH2 0x8FC DUP4 SWAP1 DUP2 ISZERO MUL SWAP1 PUSH1 0x40 MLOAD PUSH0 PUSH1 0x40 MLOAD DUP1 DUP4 SUB DUP2 DUP6 DUP9 DUP9 CALL SWAP4 POP POP POP POP ISZERO DUP1 ISZERO PUSH2 0xD73 JUMPI RETURNDATASIZE PUSH0 DUP1 RETURNDATACOPY RETURNDATASIZE PUSH0 REVERT JUMPDEST POP POP POP JUMP JUMPDEST PUSH1 0x4 SLOAD DUP2 JUMP JUMPDEST PUSH1 0x60 PUSH1 0x6 DUP1 SLOAD DUP1 PUSH1 0x20 MUL PUSH1 0x20 ADD PUSH1 0x40 MLOAD SWAP1 DUP2 ADD PUSH1 0x40 MSTORE DUP1 SWAP3 SWAP2 SWAP1 DUP2 DUP2 MSTORE PUSH1 0x20 ADD PUSH0 SWAP1 JUMPDEST DUP3 DUP3 LT ISZERO PUSH2 0xE2F JUMPI DUP4 DUP3 SWAP1 PUSH0 MSTORE PUSH1 0x20 PUSH0 KECCAK256 SWAP1 PUSH1 0x2 MUL ADD PUSH1 0x40 MLOAD DUP1 PUSH1 0x40 ADD PUSH1 0x40 MSTORE SWAP1 DUP2 PUSH0 DUP3 ADD PUSH0 SWAP1 SLOAD SWAP1 PUSH2 0x100 EXP SWAP1 DIV PUSH20 0xFFFFFFFFFFFFFFFFFFFFFFFFFFFFFFFFFFFFFFFF AND PUSH20 0xFFFFFFFFFFFFFFFFFFFFFFFFFFFFFFFFFFFFFFFF AND PUSH20 0xFFFFFFFFFFFFFFFFFFFFFFFFFFFFFFFFFFFFFFFF AND DUP2 MSTORE PUSH1 0x20 ADD PUSH1 0x1 DUP3 ADD SLOAD DUP2 MSTORE POP POP DUP2 MSTORE PUSH1 0x20 ADD SWAP1 PUSH1 0x1 ADD SWAP1 PUSH2 0xDA1 JUMP JUMPDEST POP POP POP POP SWAP1 POP SWAP1 JUMP JUMPDEST PUSH1 0x1 SLOAD DUP2 JUMP JUMPDEST PUSH1 0x3 SLOAD DUP2 JUMP JUMPDEST PUSH1 0x2 SLOAD DUP2 JUMP JUMPDEST PUSH0 DUP2 ISZERO ISZERO SWAP1 POP SWAP2 SWAP1 POP JUMP JUMPDEST PUSH2 0xE5E DUP2 PUSH2 0xE4A JUMP JUMPDEST DUP3 MSTORE POP POP JUMP JUMPDEST PUSH0 PUSH1 0x20 DUP3 ADD SWAP1 POP PUSH2 0xE77 PUSH0 DUP4 ADD DUP5 PUSH2 0xE55 JUMP JUMPDEST SWAP3 SWAP2 POP POP JUMP JUMPDEST PUSH0 PUSH20 0xFFFFFFFFFFFFFFFFFFFFFFFFFFFFFFFFFFFFFFFF DUP3 AND SWAP1 POP SWAP2 SWAP1 POP JUMP JUMPDEST PUSH0 PUSH2 0xEA6 DUP3 PUSH2 0xE7D JUMP JUMPDEST SWAP1 POP SWAP2 SWAP1 POP JUMP JUMPDEST PUSH2 0xEB6 DUP2 PUSH2 0xE9C JUMP JUMPDEST DUP3 MSTORE POP POP JUMP JUMPDEST PUSH0 PUSH1 0x20 DUP3 ADD SWAP1 POP PUSH2 0xECF PUSH0 DUP4 ADD DUP5 PUSH2 0xEAD JUMP JUMPDEST SWAP3 SWAP2 POP POP JUMP JUMPDEST PUSH0 DUP1 REVERT JUMPDEST PUSH0 DUP2 SWAP1 POP SWAP2 SWAP1 POP JUMP JUMPDEST PUSH2 0xEEB DUP2 PUSH2 0xED9 JUMP JUMPDEST DUP2 EQ PUSH2 0xEF5 JUMPI PUSH0 DUP1 REVERT JUMPDEST POP JUMP JUMPDEST PUSH0 DUP2 CALLDATALOAD SWAP1 POP PUSH2 0xF06 DUP2 PUSH2 0xEE2 JUMP JUMPDEST SWAP3 SWAP2 POP POP JUMP JUMPDEST PUSH0 PUSH1 0x20 DUP3 DUP5 SUB SLT ISZERO PUSH2 0xF21 JUMPI PUSH2 0xF20 PUSH2 0xED5 JUMP JUMPDEST JUMPDEST PUSH0 PUSH2 0xF2E DUP5 DUP3 DUP6 ADD PUSH2 0xEF8 JUMP JUMPDEST SWAP2 POP POP SWAP3 SWAP2 POP POP JUMP JUMPDEST PUSH2 0xF40 DUP2 PUSH2 0xED9 JUMP JUMPDEST DUP3 MSTORE POP POP JUMP JUMPDEST PUSH0 PUSH1 0x40 DUP3 ADD SWAP1 POP PUSH2 0xF59 PUSH0 DUP4 ADD DUP6 PUSH2 0xEAD JUMP JUMPDEST PUSH2 0xF66 PUSH1 0x20 DUP4 ADD DUP5 PUSH2 0xF37 JUMP JUMPDEST SWAP4 SWAP3 POP POP POP JUMP JUMPDEST PUSH2 0xF76 DUP2 PUSH2 0xE9C JUMP JUMPDEST DUP2 EQ PUSH2 0xF80 JUMPI PUSH0 DUP1 REVERT JUMPDEST POP JUMP JUMPDEST PUSH0 DUP2 CALLDATALOAD SWAP1 POP PUSH2 0xF91 DUP2 PUSH2 0xF6D JUMP JUMPDEST SWAP3 SWAP2 POP POP JUMP JUMPDEST PUSH0 PUSH1 0x20 DUP3 DUP5 SUB SLT ISZERO PUSH2 0xFAC JUMPI PUSH2 0xFAB PUSH2 0xED5 JUMP JUMPDEST JUMPDEST PUSH0 PUSH2 0xFB9 DUP5 DUP3 DUP6 ADD PUSH2 0xF83 JUMP JUMPDEST SWAP2 POP POP SWAP3 SWAP2 POP POP JUMP JUMPDEST PUSH0 PUSH1 0x20 DUP3 ADD SWAP1 POP PUSH2 0xFD5 PUSH0 DUP4 ADD DUP5 PUSH2 0xF37 JUMP JUMPDEST SWAP3 SWAP2 POP POP JUMP JUMPDEST PUSH0 DUP2 MLOAD SWAP1 POP SWAP2 SWAP1 POP JUMP JUMPDEST PUSH0 DUP3 DUP3 MSTORE PUSH1 0x20 DUP3 ADD SWAP1 POP SWAP3 SWAP2 POP POP JUMP JUMPDEST PUSH0 DUP2 SWAP1 POP PUSH1 0x20 DUP3 ADD SWAP1 POP SWAP2 SWAP1 POP JUMP JUMPDEST PUSH2 0x100D DUP2 PUSH2 0xE9C JUMP JUMPDEST DUP3 MSTORE POP POP JUMP JUMPDEST PUSH2 0x101C DUP2 PUSH2 0xED9 JUMP JUMPDEST DUP3 MSTORE POP POP JUMP JUMPDEST PUSH1 0x40 DUP3 ADD PUSH0 DUP3 ADD MLOAD PUSH2 0x1036 PUSH0 DUP6 ADD DUP3 PUSH2 0x1004 JUMP JUMPDEST POP PUSH1 0x20 DUP3 ADD MLOAD PUSH2 0x1049 PUSH1 0x20 DUP6 ADD DUP3 PUSH2 0x1013 JUMP JUMPDEST POP POP POP POP JUMP JUMPDEST PUSH0 PUSH2 0x105A DUP4 DUP4 PUSH2 0x1022 JUMP JUMPDEST PUSH1 0x40 DUP4 ADD SWAP1 POP SWAP3 SWAP2 POP POP JUMP JUMPDEST PUSH0 PUSH1 0x20 DUP3 ADD SWAP1 POP SWAP2 SWAP1 POP JUMP JUMPDEST PUSH0 PUSH2 0x107C DUP3 PUSH2 0xFDB JUMP JUMPDEST PUSH2 0x1086 DUP2 DUP6 PUSH2 0xFE5 JUMP JUMPDEST SWAP4 POP PUSH2 0x1091 DUP4 PUSH2 0xFF5 JUMP JUMPDEST DUP1 PUSH0 JUMPDEST DUP4 DUP2 LT ISZERO PUSH2 0x10C1 JUMPI DUP2 MLOAD PUSH2 0x10A8 DUP9 DUP3 PUSH2 0x104F JUMP JUMPDEST SWAP8 POP PUSH2 0x10B3 DUP4 PUSH2 0x1066 JUMP JUMPDEST SWAP3 POP POP PUSH1 0x1 DUP2 ADD SWAP1 POP PUSH2 0x1094 JUMP JUMPDEST POP DUP6 SWAP4 POP POP POP POP SWAP3 SWAP2 POP POP JUMP JUMPDEST PUSH0 PUSH1 0x20 DUP3 ADD SWAP1 POP DUP2 DUP2 SUB PUSH0 DUP4 ADD MSTORE PUSH2 0x10E6 DUP2 DUP5 PUSH2 0x1072 JUMP JUMPDEST SWAP1 POP SWAP3 SWAP2 POP POP JUMP JUMPDEST PUSH0 DUP3 DUP3 MSTORE PUSH1 0x20 DUP3 ADD SWAP1 POP SWAP3 SWAP2 POP POP JUMP JUMPDEST PUSH32 0x536F6C6F20656C2073756261737461646F7220707565646520656A6563757461 PUSH0 DUP3 ADD MSTORE PUSH32 0x72206573746120616363696F6E00000000000000000000000000000000000000 PUSH1 0x20 DUP3 ADD MSTORE POP JUMP JUMPDEST PUSH0 PUSH2 0x1158 PUSH1 0x2D DUP4 PUSH2 0x10EE JUMP JUMPDEST SWAP2 POP PUSH2 0x1163 DUP3 PUSH2 0x10FE JUMP JUMPDEST PUSH1 0x40 DUP3 ADD SWAP1 POP SWAP2 SWAP1 POP JUMP JUMPDEST PUSH0 PUSH1 0x20 DUP3 ADD SWAP1 POP DUP2 DUP2 SUB PUSH0 DUP4 ADD MSTORE PUSH2 0x1185 DUP2 PUSH2 0x114C JUMP JUMPDEST SWAP1 POP SWAP2 SWAP1 POP JUMP JUMPDEST PUSH32 0x4C6120737562617374612079612068612066696E616C697A61646F0000000000 PUSH0 DUP3 ADD MSTORE POP JUMP JUMPDEST PUSH0 PUSH2 0x11C0 PUSH1 0x1B DUP4 PUSH2 0x10EE JUMP JUMPDEST SWAP2 POP PUSH2 0x11CB DUP3 PUSH2 0x118C JUMP JUMPDEST PUSH1 0x20 DUP3 ADD SWAP1 POP SWAP2 SWAP1 POP JUMP JUMPDEST PUSH0 PUSH1 0x20 DUP3 ADD SWAP1 POP DUP2 DUP2 SUB PUSH0 DUP4 ADD MSTORE PUSH2 0x11ED DUP2 PUSH2 0x11B4 JUMP JUMPDEST SWAP1 POP SWAP2 SWAP1 POP JUMP JUMPDEST PUSH32 0x4C6120737562617374612061756E206573746120656E20637572736F00000000 PUSH0 DUP3 ADD MSTORE POP JUMP JUMPDEST PUSH0 PUSH2 0x1228 PUSH1 0x1C DUP4 PUSH2 0x10EE JUMP JUMPDEST SWAP2 POP PUSH2 0x1233 DUP3 PUSH2 0x11F4 JUMP JUMPDEST PUSH1 0x20 DUP3 ADD SWAP1 POP SWAP2 SWAP1 POP JUMP JUMPDEST PUSH0 PUSH1 0x20 DUP3 ADD SWAP1 POP DUP2 DUP2 SUB PUSH0 DUP4 ADD MSTORE PUSH2 0x1255 DUP2 PUSH2 0x121C JUMP JUMPDEST SWAP1 POP SWAP2 SWAP1 POP JUMP JUMPDEST PUSH32 0x4E487B7100000000000000000000000000000000000000000000000000000000 PUSH0 MSTORE PUSH1 0x11 PUSH1 0x4 MSTORE PUSH1 0x24 PUSH0 REVERT JUMPDEST PUSH0 PUSH2 0x1293 DUP3 PUSH2 0xED9 JUMP JUMPDEST SWAP2 POP PUSH2 0x129E DUP4 PUSH2 0xED9 JUMP JUMPDEST SWAP3 POP DUP3 DUP3 SUB SWAP1 POP DUP2 DUP2 GT ISZERO PUSH2 0x12B6 JUMPI PUSH2 0x12B5 PUSH2 0x125C JUMP JUMPDEST JUMPDEST SWAP3 SWAP2 POP POP JUMP JUMPDEST PUSH32 0x4E487B7100000000000000000000000000000000000000000000000000000000 PUSH0 MSTORE PUSH1 0x32 PUSH1 0x4 MSTORE PUSH1 0x24 PUSH0 REVERT JUMPDEST PUSH0 PUSH2 0x12F3 DUP3 PUSH2 0xED9 JUMP JUMPDEST SWAP2 POP PUSH2 0x12FE DUP4 PUSH2 0xED9 JUMP JUMPDEST SWAP3 POP DUP3 DUP3 MUL PUSH2 0x130C DUP2 PUSH2 0xED9 JUMP JUMPDEST SWAP2 POP DUP3 DUP3 DIV DUP5 EQ DUP4 ISZERO OR PUSH2 0x1323 JUMPI PUSH2 0x1322 PUSH2 0x125C JUMP JUMPDEST JUMPDEST POP SWAP3 SWAP2 POP POP JUMP JUMPDEST PUSH32 0x4E487B7100000000000000000000000000000000000000000000000000000000 PUSH0 MSTORE PUSH1 0x12 PUSH1 0x4 MSTORE PUSH1 0x24 PUSH0 REVERT JUMPDEST PUSH0 PUSH2 0x1361 DUP3 PUSH2 0xED9 JUMP JUMPDEST SWAP2 POP PUSH2 0x136C DUP4 PUSH2 0xED9 JUMP JUMPDEST SWAP3 POP DUP3 PUSH2 0x137C JUMPI PUSH2 0x137B PUSH2 0x132A JUMP JUMPDEST JUMPDEST DUP3 DUP3 DIV SWAP1 POP SWAP3 SWAP2 POP POP JUMP JUMPDEST PUSH0 PUSH2 0x1391 DUP3 PUSH2 0xED9 JUMP JUMPDEST SWAP2 POP PUSH2 0x139C DUP4 PUSH2 0xED9 JUMP JUMPDEST SWAP3 POP DUP3 DUP3 ADD SWAP1 POP DUP1 DUP3 GT ISZERO PUSH2 0x13B4 JUMPI PUSH2 0x13B3 PUSH2 0x125C JUMP JUMPDEST JUMPDEST SWAP3 SWAP2 POP POP JUMP JUMPDEST PUSH32 0x4C61206F66657274612064656265207375706572617220656E20616C206D656E PUSH0 DUP3 ADD MSTORE PUSH32 0x6F7320756E203525206C61206F66657274612061637475616C00000000000000 PUSH1 0x20 DUP3 ADD MSTORE POP JUMP JUMPDEST PUSH0 PUSH2 0x1414 PUSH1 0x39 DUP4 PUSH2 0x10EE JUMP JUMPDEST SWAP2 POP PUSH2 0x141F DUP3 PUSH2 0x13BA JUMP JUMPDEST PUSH1 0x40 DUP3 ADD SWAP1 POP SWAP2 SWAP1 POP JUMP JUMPDEST PUSH0 PUSH1 0x20 DUP3 ADD SWAP1 POP DUP2 DUP2 SUB PUSH0 DUP4 ADD MSTORE PUSH2 0x1441 DUP2 PUSH2 0x1408 JUMP JUMPDEST SWAP1 POP SWAP2 SWAP1 POP JUMP JUMPDEST PUSH32 0x4E6F20686179206F666572746173000000000000000000000000000000000000 PUSH0 DUP3 ADD MSTORE POP JUMP JUMPDEST PUSH0 PUSH2 0x147C PUSH1 0xE DUP4 PUSH2 0x10EE JUMP JUMPDEST SWAP2 POP PUSH2 0x1487 DUP3 PUSH2 0x1448 JUMP JUMPDEST PUSH1 0x20 DUP3 ADD SWAP1 POP SWAP2 SWAP1 POP JUMP JUMPDEST PUSH0 PUSH1 0x20 DUP3 ADD SWAP1 POP DUP2 DUP2 SUB PUSH0 DUP4 ADD MSTORE PUSH2 0x14A9 DUP2 PUSH2 0x1470 JUMP JUMPDEST SWAP1 POP SWAP2 SWAP1 POP JUMP JUMPDEST PUSH0 PUSH2 0x14BA DUP3 PUSH2 0xED9 JUMP JUMPDEST SWAP2 POP PUSH0 DUP3 SUB PUSH2 0x14CC JUMPI PUSH2 0x14CB PUSH2 0x125C JUMP JUMPDEST JUMPDEST PUSH1 0x1 DUP3 SUB SWAP1 POP SWAP2 SWAP1 POP JUMP JUMPDEST PUSH32 0x4E6F20686179206578636564656E746520706172612072657469726172000000 PUSH0 DUP3 ADD MSTORE POP JUMP JUMPDEST PUSH0 PUSH2 0x150B PUSH1 0x1D DUP4 PUSH2 0x10EE JUMP JUMPDEST SWAP2 POP PUSH2 0x1516 DUP3 PUSH2 0x14D7 JUMP JUMPDEST PUSH1 0x20 DUP3 ADD SWAP1 POP SWAP2 SWAP1 POP JUMP JUMPDEST PUSH0 PUSH1 0x20 DUP3 ADD SWAP1 POP DUP2 DUP2 SUB PUSH0 DUP4 ADD MSTORE PUSH2 0x1538 DUP2 PUSH2 0x14FF JUMP JUMPDEST SWAP1 POP SWAP2 SWAP1 POP JUMP JUMPDEST PUSH32 0x4C6120737562617374612061756E206573746120616374697661000000000000 PUSH0 DUP3 ADD MSTORE POP JUMP JUMPDEST PUSH0 PUSH2 0x1573 PUSH1 0x1A DUP4 PUSH2 0x10EE JUMP JUMPDEST SWAP2 POP PUSH2 0x157E DUP3 PUSH2 0x153F JUMP JUMPDEST PUSH1 0x20 DUP3 ADD SWAP1 POP SWAP2 SWAP1 POP JUMP JUMPDEST PUSH0 PUSH1 0x20 DUP3 ADD SWAP1 POP DUP2 DUP2 SUB PUSH0 DUP4 ADD MSTORE PUSH2 0x15A0 DUP2 PUSH2 0x1567 JUMP JUMPDEST SWAP1 POP SWAP2 SWAP1 POP JUMP JUMPDEST PUSH32 0x4E6F20686179206465706F7369746F2070617261206465766F6C766572000000 PUSH0 DUP3 ADD MSTORE POP JUMP JUMPDEST PUSH0 PUSH2 0x15DB PUSH1 0x1D DUP4 PUSH2 0x10EE JUMP JUMPDEST SWAP2 POP PUSH2 0x15E6 DUP3 PUSH2 0x15A7 JUMP JUMPDEST PUSH1 0x20 DUP3 ADD SWAP1 POP SWAP2 SWAP1 POP JUMP JUMPDEST PUSH0 PUSH1 0x20 DUP3 ADD SWAP1 POP DUP2 DUP2 SUB PUSH0 DUP4 ADD MSTORE PUSH2 0x1608 DUP2 PUSH2 0x15CF JUMP JUMPDEST SWAP1 POP SWAP2 SWAP1 POP JUMP INVALID LOG2 PUSH5 0x6970667358 0x22 SLT KECCAK256 DELEGATECALL DUP11 SWAP1 0xDB SLOAD PUSH13 0x5F58E20C8B38C6D9030FD420F8 0xDE 0xAE 0xAD SWAP15 SWAP11 0xB9 POP DUP13 0x4B PUSH10 0x38361564736F6C634300 ADDMOD BYTE STOP CALLER "
				},
				"gasEstimates": {
					"creation": {
						"codeDepositCost": "1140200",
						"executionCost": "infinite",
						"totalCost": "infinite"
					},
					"external": {
						"activa()": "2512",
						"comision()": "2492",
						"depositos(address)": "2869",
						"extensionTiempo()": "2513",
						"finalizarSubasta()": "infinite",
						"mostrarGanador()": "infinite",
						"mostrarOfertas()": "infinite",
						"ofertar()": "infinite",
						"ofertas(uint256)": "infinite",
						"porcentajeIncremento()": "2491",
						"retirarDeposito()": "infinite",
						"retiroParcial()": "infinite",
						"subastador()": "2573",
						"tiempoFinal()": "2469"
					}
				},
				"methodIdentifiers": {
					"activa()": "2c5e5471",
					"comision()": "b53627b2",
					"depositos(address)": "664e62b9",
					"extensionTiempo()": "f292b25d",
					"finalizarSubasta()": "0851eac2",
					"mostrarGanador()": "753dcaeb",
					"mostrarOfertas()": "c442a99f",
					"ofertar()": "3ec059d7",
					"ofertas(uint256)": "56afff7c",
					"porcentajeIncremento()": "cc14e31f",
					"retirarDeposito()": "a05d3ddc",
					"retiroParcial()": "9528a4bd",
					"subastador()": "3dfa138d",
					"tiempoFinal()": "c63049f8"
				}
			},
			"storageLayout": {
				"storage": [
					{
						"astId": 3,
						"contract": "subasta1.sol:Subasta",
						"label": "subastador",
						"offset": 0,
						"slot": "0",
						"type": "t_address"
					},
					{
						"astId": 5,
						"contract": "subasta1.sol:Subasta",
						"label": "tiempoFinal",
						"offset": 0,
						"slot": "1",
						"type": "t_uint256"
					},
					{
						"astId": 8,
						"contract": "subasta1.sol:Subasta",
						"label": "extensionTiempo",
						"offset": 0,
						"slot": "2",
						"type": "t_uint256"
					},
					{
						"astId": 11,
						"contract": "subasta1.sol:Subasta",
						"label": "porcentajeIncremento",
						"offset": 0,
						"slot": "3",
						"type": "t_uint256"
					},
					{
						"astId": 14,
						"contract": "subasta1.sol:Subasta",
						"label": "comision",
						"offset": 0,
						"slot": "4",
						"type": "t_uint256"
					},
					{
						"astId": 17,
						"contract": "subasta1.sol:Subasta",
						"label": "activa",
						"offset": 0,
						"slot": "5",
						"type": "t_bool"
					},
					{
						"astId": 26,
						"contract": "subasta1.sol:Subasta",
						"label": "ofertas",
						"offset": 0,
						"slot": "6",
						"type": "t_array(t_struct(Oferta)22_storage)dyn_storage"
					},
					{
						"astId": 30,
						"contract": "subasta1.sol:Subasta",
						"label": "depositos",
						"offset": 0,
						"slot": "7",
						"type": "t_mapping(t_address,t_uint256)"
					}
				],
				"types": {
					"t_address": {
						"encoding": "inplace",
						"label": "address",
						"numberOfBytes": "20"
					},
					"t_array(t_struct(Oferta)22_storage)dyn_storage": {
						"base": "t_struct(Oferta)22_storage",
						"encoding": "dynamic_array",
						"label": "struct Subasta.Oferta[]",
						"numberOfBytes": "32"
					},
					"t_bool": {
						"encoding": "inplace",
						"label": "bool",
						"numberOfBytes": "1"
					},
					"t_mapping(t_address,t_uint256)": {
						"encoding": "mapping",
						"key": "t_address",
						"label": "mapping(address => uint256)",
						"numberOfBytes": "32",
						"value": "t_uint256"
					},
					"t_struct(Oferta)22_storage": {
						"encoding": "inplace",
						"label": "struct Subasta.Oferta",
						"members": [
							{
								"astId": 19,
								"contract": "subasta1.sol:Subasta",
								"label": "ofertante",
								"offset": 0,
								"slot": "0",
								"type": "t_address"
							},
							{
								"astId": 21,
								"contract": "subasta1.sol:Subasta",
								"label": "cantidad",
								"offset": 0,
								"slot": "1",
								"type": "t_uint256"
							}
						],
						"numberOfBytes": "64"
					},
					"t_uint256": {
						"encoding": "inplace",
						"label": "uint256",
						"numberOfBytes": "32"
					}
				}
			},
			"userdoc": {
				"kind": "user",
				"methods": {},
				"version": 1
			}
		}
	}
}