{
	"subasta2.sol": {
		"Subasta": {
			"abi": [
				{
					"inputs": [],
					"stateMutability": "nonpayable",
					"type": "constructor"
				},
				{
					"anonymous": false,
					"inputs": [
						{
							"indexed": false,
							"internalType": "address",
							"name": "ofertante",
							"type": "address"
						},
						{
							"indexed": false,
							"internalType": "uint256",
							"name": "cantidad",
							"type": "uint256"
						}
					],
					"name": "NuevaOferta",
					"type": "event"
				},
				{
					"anonymous": false,
					"inputs": [
						{
							"indexed": false,
							"internalType": "address",
							"name": "ganador",
							"type": "address"
						},
						{
							"indexed": false,
							"internalType": "uint256",
							"name": "cantidadGanadora",
							"type": "uint256"
						}
					],
					"name": "SubastaFinalizada",
					"type": "event"
				},
				{
					"inputs": [],
					"name": "activa",
					"outputs": [
						{
							"internalType": "bool",
							"name": "",
							"type": "bool"
						}
					],
					"stateMutability": "view",
					"type": "function"
				},
				{
					"inputs": [],
					"name": "comision",
					"outputs": [
						{
							"internalType": "uint256",
							"name": "",
							"type": "uint256"
						}
					],
					"stateMutability": "view",
					"type": "function"
				},
				{
					"inputs": [
						{
							"internalType": "address",
							"name": "",
							"type": "address"
						}
					],
					"name": "depositos",
					"outputs": [
						{
							"internalType": "uint256",
							"name": "",
							"type": "uint256"
						}
					],
					"stateMutability": "view",
					"type": "function"
				},
				{
					"inputs": [],
					"name": "duracionSubasta",
					"outputs": [
						{
							"internalType": "uint256",
							"name": "",
							"type": "uint256"
						}
					],
					"stateMutability": "view",
					"type": "function"
				},
				{
					"inputs": [],
					"name": "finalizarSubasta",
					"outputs": [],
					"stateMutability": "nonpayable",
					"type": "function"
				},
				{
					"inputs": [],
					"name": "mostrarGanador",
					"outputs": [
						{
							"internalType": "address",
							"name": "ganador",
							"type": "address"
						},
						{
							"internalType": "uint256",
							"name": "cantidadGanadora",
							"type": "uint256"
						}
					],
					"stateMutability": "view",
					"type": "function"
				},
				{
					"inputs": [],
					"name": "mostrarOfertas",
					"outputs": [
						{
							"components": [
								{
									"internalType": "address",
									"name": "ofertante",
									"type": "address"
								},
								{
									"internalType": "uint256",
									"name": "cantidad",
									"type": "uint256"
								}
							],
							"internalType": "struct Subasta.Oferta[]",
							"name": "",
							"type": "tuple[]"
						}
					],
					"stateMutability": "view",
					"type": "function"
				},
				{
					"inputs": [],
					"name": "ofertaInicial",
					"outputs": [
						{
							"internalType": "uint256",
							"name": "",
							"type": "uint256"
						}
					],
					"stateMutability": "view",
					"type": "function"
				},
				{
					"inputs": [],
					"name": "ofertar",
					"outputs": [],
					"stateMutability": "payable",
					"type": "function"
				},
				{
					"inputs": [
						{
							"internalType": "uint256",
							"name": "",
							"type": "uint256"
						}
					],
					"name": "ofertas",
					"outputs": [
						{
							"internalType": "address",
							"name": "ofertante",
							"type": "address"
						},
						{
							"internalType": "uint256",
							"name": "cantidad",
							"type": "uint256"
						}
					],
					"stateMutability": "view",
					"type": "function"
				},
				{
					"inputs": [],
					"name": "porcentajeIncremento",
					"outputs": [
						{
							"internalType": "uint256",
							"name": "",
							"type": "uint256"
						}
					],
					"stateMutability": "view",
					"type": "function"
				},
				{
					"inputs": [],
					"name": "retirarDeposito",
					"outputs": [],
					"stateMutability": "nonpayable",
					"type": "function"
				},
				{
					"inputs": [],
					"name": "retiroParcial",
					"outputs": [],
					"stateMutability": "nonpayable",
					"type": "function"
				},
				{
					"inputs": [],
					"name": "subastador",
					"outputs": [
						{
							"internalType": "address",
							"name": "",
							"type": "address"
						}
					],
					"stateMutability": "view",
					"type": "function"
				},
				{
					"inputs": [],
					"name": "tiempoFinal",
					"outputs": [
						{
							"internalType": "uint256",
							"name": "",
							"type": "uint256"
						}
					],
					"stateMutability": "view",
					"type": "function"
				}
			],
			"devdoc": {
				"kind": "dev",
				"methods": {},
				"version": 1
			},
			"evm": {
				"assembly": "    /* \"subasta2.sol\":60:3799  contract Subasta {... */\n  mstore(0x40, 0x80)\n    /* \"subasta2.sol\":176:190  10 * 1 minutes */\n  0x0258\n    /* \"subasta2.sol\":146:190  uint public duracionSubasta = 10 * 1 minutes */\n  0x02\n  sstore\n    /* \"subasta2.sol\":281:282  5 */\n  0x05\n    /* \"subasta2.sol\":246:282  uint public porcentajeIncremento = 5 */\n  0x03\n  sstore\n    /* \"subasta2.sol\":340:341  2 */\n  0x02\n    /* \"subasta2.sol\":317:341  uint public comision = 2 */\n  0x04\n  sstore\n    /* \"subasta2.sol\":415:419  true */\n  0x01\n    /* \"subasta2.sol\":394:419  bool public activa = true */\n  0x05\n  exp(0x0100, 0x00)\n  dup2\n  sload\n  dup2\n  0xff\n  mul\n  not\n  and\n  swap1\n  dup4\n  iszero\n  iszero\n  mul\n  or\n  swap1\n  sstore\n  pop\n    /* \"subasta2.sol\":454:461  1 ether */\n  0x0de0b6b3a7640000\n    /* \"subasta2.sol\":426:461  uint public ofertaInicial = 1 ether */\n  0x06\n  sstore\n    /* \"subasta2.sol\":762:1009  constructor(/* uint _duracionSubasta */) {... */\n  callvalue\n  dup1\n  iszero\n  tag_1\n  jumpi\n  0x00\n  dup1\n  revert\ntag_1:\n  pop\n    /* \"subasta2.sol\":827:837  msg.sender */\n  caller\n    /* \"subasta2.sol\":814:824  subastador */\n  0x00\n  dup1\n    /* \"subasta2.sol\":814:837  subastador = msg.sender */\n  0x0100\n  exp\n  dup2\n  sload\n  dup2\n  0xffffffffffffffffffffffffffffffffffffffff\n  mul\n  not\n  and\n  swap1\n  dup4\n  0xffffffffffffffffffffffffffffffffffffffff\n  and\n  mul\n  or\n  swap1\n  sstore\n  pop\n    /* \"subasta2.sol\":880:895  duracionSubasta */\n  sload(0x02)\n    /* \"subasta2.sol\":862:877  block.timestamp */\n  timestamp\n    /* \"subasta2.sol\":862:895  block.timestamp + duracionSubasta */\n  tag_4\n  swap2\n  swap1\n  tag_5\n  jump\t// in\ntag_4:\n    /* \"subasta2.sol\":848:859  tiempoFinal */\n  0x01\n    /* \"subasta2.sol\":848:895  tiempoFinal = block.timestamp + duracionSubasta */\n  dup2\n  swap1\n  sstore\n  pop\n    /* \"subasta2.sol\":906:913  ofertas */\n  0x07\n    /* \"subasta2.sol\":919:952  Oferta(subastador, ofertaInicial) */\n  mload(0x40)\n  dup1\n  0x40\n  add\n  0x40\n  mstore\n  dup1\n    /* \"subasta2.sol\":926:936  subastador */\n  0x00\n  dup1\n  sload\n  swap1\n  0x0100\n  exp\n  swap1\n  div\n  0xffffffffffffffffffffffffffffffffffffffff\n  and\n    /* \"subasta2.sol\":919:952  Oferta(subastador, ofertaInicial) */\n  0xffffffffffffffffffffffffffffffffffffffff\n  and\n  dup2\n  mstore\n  0x20\n  add\n    /* \"subasta2.sol\":938:951  ofertaInicial */\n  sload(0x06)\n    /* \"subasta2.sol\":919:952  Oferta(subastador, ofertaInicial) */\n  dup2\n  mstore\n  pop\n    /* \"subasta2.sol\":906:953  ofertas.push(Oferta(subastador, ofertaInicial)) */\n  swap1\n  dup1\n  0x01\n  dup2\n  sload\n  add\n  dup1\n  dup3\n  sstore\n  dup1\n  swap2\n  pop\n  pop\n  0x01\n  swap1\n  sub\n  swap1\n  0x00\n  mstore\n  keccak256(0x00, 0x20)\n  swap1\n  0x02\n  mul\n  add\n  0x00\n  swap1\n  swap2\n  swap1\n  swap2\n  swap1\n  swap2\n  pop\n  0x00\n  dup3\n  add\n  mload\n  dup2\n  0x00\n  add\n  exp(0x0100, 0x00)\n  dup2\n  sload\n  dup2\n  0xffffffffffffffffffffffffffffffffffffffff\n  mul\n  not\n  and\n  swap1\n  dup4\n  0xffffffffffffffffffffffffffffffffffffffff\n  and\n  mul\n  or\n  swap1\n  sstore\n  pop\n  0x20\n  dup3\n  add\n  mload\n  dup2\n  0x01\n  add\n  sstore\n  pop\n  pop\n    /* \"subasta2.sol\":988:1001  ofertaInicial */\n  sload(0x06)\n    /* \"subasta2.sol\":964:973  depositos */\n  0x08\n    /* \"subasta2.sol\":964:985  depositos[subastador] */\n  0x00\n    /* \"subasta2.sol\":974:984  subastador */\n  dup1\n  0x00\n  swap1\n  sload\n  swap1\n  0x0100\n  exp\n  swap1\n  div\n  0xffffffffffffffffffffffffffffffffffffffff\n  and\n    /* \"subasta2.sol\":964:985  depositos[subastador] */\n  0xffffffffffffffffffffffffffffffffffffffff\n  and\n  0xffffffffffffffffffffffffffffffffffffffff\n  and\n  dup2\n  mstore\n  0x20\n  add\n  swap1\n  dup2\n  mstore\n  0x20\n  add\n  0x00\n  keccak256\n    /* \"subasta2.sol\":964:1001  depositos[subastador] = ofertaInicial */\n  dup2\n  swap1\n  sstore\n  pop\n    /* \"subasta2.sol\":60:3799  contract Subasta {... */\n  jump(tag_7)\n    /* \"#utility.yul\":7:84   */\ntag_8:\n    /* \"#utility.yul\":44:51   */\n  0x00\n    /* \"#utility.yul\":73:78   */\n  dup2\n    /* \"#utility.yul\":62:78   */\n  swap1\n  pop\n    /* \"#utility.yul\":7:84   */\n  swap2\n  swap1\n  pop\n  jump\t// out\n    /* \"#utility.yul\":90:270   */\ntag_9:\n    /* \"#utility.yul\":138:215   */\n  0x4e487b7100000000000000000000000000000000000000000000000000000000\n    /* \"#utility.yul\":135:136   */\n  0x00\n    /* \"#utility.yul\":128:216   */\n  mstore\n    /* \"#utility.yul\":235:239   */\n  0x11\n    /* \"#utility.yul\":232:233   */\n  0x04\n    /* \"#utility.yul\":225:240   */\n  mstore\n    /* \"#utility.yul\":259:263   */\n  0x24\n    /* \"#utility.yul\":256:257   */\n  0x00\n    /* \"#utility.yul\":249:264   */\n  revert\n    /* \"#utility.yul\":276:467   */\ntag_5:\n    /* \"#utility.yul\":316:319   */\n  0x00\n    /* \"#utility.yul\":335:355   */\n  tag_14\n    /* \"#utility.yul\":353:354   */\n  dup3\n    /* \"#utility.yul\":335:355   */\n  tag_8\n  jump\t// in\ntag_14:\n    /* \"#utility.yul\":330:355   */\n  swap2\n  pop\n    /* \"#utility.yul\":369:389   */\n  tag_15\n    /* \"#utility.yul\":387:388   */\n  dup4\n    /* \"#utility.yul\":369:389   */\n  tag_8\n  jump\t// in\ntag_15:\n    /* \"#utility.yul\":364:389   */\n  swap3\n  pop\n    /* \"#utility.yul\":412:413   */\n  dup3\n    /* \"#utility.yul\":409:410   */\n  dup3\n    /* \"#utility.yul\":405:414   */\n  add\n    /* \"#utility.yul\":398:414   */\n  swap1\n  pop\n    /* \"#utility.yul\":433:436   */\n  dup1\n    /* \"#utility.yul\":430:431   */\n  dup3\n    /* \"#utility.yul\":427:437   */\n  gt\n    /* \"#utility.yul\":424:460   */\n  iszero\n  tag_16\n  jumpi\n    /* \"#utility.yul\":440:458   */\n  tag_17\n  tag_9\n  jump\t// in\ntag_17:\n    /* \"#utility.yul\":424:460   */\ntag_16:\n    /* \"#utility.yul\":276:467   */\n  swap3\n  swap2\n  pop\n  pop\n  jump\t// out\n    /* \"subasta2.sol\":60:3799  contract Subasta {... */\ntag_7:\n  dataSize(sub_0)\n  dup1\n  dataOffset(sub_0)\n  0x00\n  codecopy\n  0x00\n  return\nstop\n\nsub_0: assembly {\n        /* \"subasta2.sol\":60:3799  contract Subasta {... */\n      mstore(0x40, 0x80)\n      jumpi(tag_1, lt(calldatasize, 0x04))\n      shr(0xe0, calldataload(0x00))\n      dup1\n      0x753dcaeb\n      gt\n      tag_17\n      jumpi\n      dup1\n      0xc442a99f\n      gt\n      tag_18\n      jumpi\n      dup1\n      0xc442a99f\n      eq\n      tag_13\n      jumpi\n      dup1\n      0xc63049f8\n      eq\n      tag_14\n      jumpi\n      dup1\n      0xcc14e31f\n      eq\n      tag_15\n      jumpi\n      dup1\n      0xd1d7e96c\n      eq\n      tag_16\n      jumpi\n      jump(tag_1)\n    tag_18:\n      dup1\n      0x753dcaeb\n      eq\n      tag_9\n      jumpi\n      dup1\n      0x9528a4bd\n      eq\n      tag_10\n      jumpi\n      dup1\n      0xa05d3ddc\n      eq\n      tag_11\n      jumpi\n      dup1\n      0xb53627b2\n      eq\n      tag_12\n      jumpi\n      jump(tag_1)\n    tag_17:\n      dup1\n      0x3ec059d7\n      gt\n      tag_19\n      jumpi\n      dup1\n      0x3ec059d7\n      eq\n      tag_5\n      jumpi\n      dup1\n      0x56afff7c\n      eq\n      tag_6\n      jumpi\n      dup1\n      0x664e62b9\n      eq\n      tag_7\n      jumpi\n      dup1\n      0x71ea6d33\n      eq\n      tag_8\n      jumpi\n      jump(tag_1)\n    tag_19:\n      dup1\n      0x0851eac2\n      eq\n      tag_2\n      jumpi\n      dup1\n      0x2c5e5471\n      eq\n      tag_3\n      jumpi\n      dup1\n      0x3dfa138d\n      eq\n      tag_4\n      jumpi\n    tag_1:\n      0x00\n      dup1\n      revert\n        /* \"subasta2.sol\":2246:2600  function finalizarSubasta() external soloSubastador soloDuranteSubastaActiva {... */\n    tag_2:\n      callvalue\n      dup1\n      iszero\n      tag_20\n      jumpi\n      0x00\n      dup1\n      revert\n    tag_20:\n      pop\n      tag_21\n      tag_22\n      jump\t// in\n    tag_21:\n      stop\n        /* \"subasta2.sol\":394:419  bool public activa = true */\n    tag_3:\n      callvalue\n      dup1\n      iszero\n      tag_23\n      jumpi\n      0x00\n      dup1\n      revert\n    tag_23:\n      pop\n      tag_24\n      tag_25\n      jump\t// in\n    tag_24:\n      mload(0x40)\n      tag_26\n      swap2\n      swap1\n      tag_27\n      jump\t// in\n    tag_26:\n      mload(0x40)\n      dup1\n      swap2\n      sub\n      swap1\n      return\n        /* \"subasta2.sol\":84:109  address public subastador */\n    tag_4:\n      callvalue\n      dup1\n      iszero\n      tag_28\n      jumpi\n      0x00\n      dup1\n      revert\n    tag_28:\n      pop\n      tag_29\n      tag_30\n      jump\t// in\n    tag_29:\n      mload(0x40)\n      tag_31\n      swap2\n      swap1\n      tag_32\n      jump\t// in\n    tag_31:\n      mload(0x40)\n      dup1\n      swap2\n      sub\n      swap1\n      return\n        /* \"subasta2.sol\":1318:1846  function ofertar() external payable soloDuranteSubastaActiva {... */\n    tag_5:\n      tag_33\n      tag_34\n      jump\t// in\n    tag_33:\n      stop\n        /* \"subasta2.sol\":552:575  Oferta[] public ofertas */\n    tag_6:\n      callvalue\n      dup1\n      iszero\n      tag_35\n      jumpi\n      0x00\n      dup1\n      revert\n    tag_35:\n      pop\n      tag_36\n      0x04\n      dup1\n      calldatasize\n      sub\n      dup2\n      add\n      swap1\n      tag_37\n      swap2\n      swap1\n      tag_38\n      jump\t// in\n    tag_37:\n      tag_39\n      jump\t// in\n    tag_36:\n      mload(0x40)\n      tag_40\n      swap3\n      swap2\n      swap1\n      tag_41\n      jump\t// in\n    tag_40:\n      mload(0x40)\n      dup1\n      swap2\n      sub\n      swap1\n      return\n        /* \"subasta2.sol\":582:623  mapping(address => uint) public depositos */\n    tag_7:\n      callvalue\n      dup1\n      iszero\n      tag_42\n      jumpi\n      0x00\n      dup1\n      revert\n    tag_42:\n      pop\n      tag_43\n      0x04\n      dup1\n      calldatasize\n      sub\n      dup2\n      add\n      swap1\n      tag_44\n      swap2\n      swap1\n      tag_45\n      jump\t// in\n    tag_44:\n      tag_46\n      jump\t// in\n    tag_43:\n      mload(0x40)\n      tag_47\n      swap2\n      swap1\n      tag_48\n      jump\t// in\n    tag_47:\n      mload(0x40)\n      dup1\n      swap2\n      sub\n      swap1\n      return\n        /* \"subasta2.sol\":426:461  uint public ofertaInicial = 1 ether */\n    tag_8:\n      callvalue\n      dup1\n      iszero\n      tag_49\n      jumpi\n      0x00\n      dup1\n      revert\n    tag_49:\n      pop\n      tag_50\n      tag_51\n      jump\t// in\n    tag_50:\n      mload(0x40)\n      tag_52\n      swap2\n      swap1\n      tag_48\n      jump\t// in\n    tag_52:\n      mload(0x40)\n      dup1\n      swap2\n      sub\n      swap1\n      return\n        /* \"subasta2.sol\":1854:2131  function mostrarGanador() external view returns (address ganador, uint cantidadGanadora) {... */\n    tag_9:\n      callvalue\n      dup1\n      iszero\n      tag_53\n      jumpi\n      0x00\n      dup1\n      revert\n    tag_53:\n      pop\n      tag_54\n      tag_55\n      jump\t// in\n    tag_54:\n      mload(0x40)\n      tag_56\n      swap3\n      swap2\n      swap1\n      tag_41\n      jump\t// in\n    tag_56:\n      mload(0x40)\n      dup1\n      swap2\n      sub\n      swap1\n      return\n        /* \"subasta2.sol\":3132:3796  function retiroParcial() external soloDuranteSubastaActiva {... */\n    tag_10:\n      callvalue\n      dup1\n      iszero\n      tag_57\n      jumpi\n      0x00\n      dup1\n      revert\n    tag_57:\n      pop\n      tag_58\n      tag_59\n      jump\t// in\n    tag_58:\n      stop\n        /* \"subasta2.sol\":2608:3124  function retirarDeposito() external {... */\n    tag_11:\n      callvalue\n      dup1\n      iszero\n      tag_60\n      jumpi\n      0x00\n      dup1\n      revert\n    tag_60:\n      pop\n      tag_61\n      tag_62\n      jump\t// in\n    tag_61:\n      stop\n        /* \"subasta2.sol\":317:341  uint public comision = 2 */\n    tag_12:\n      callvalue\n      dup1\n      iszero\n      tag_63\n      jumpi\n      0x00\n      dup1\n      revert\n    tag_63:\n      pop\n      tag_64\n      tag_65\n      jump\t// in\n    tag_64:\n      mload(0x40)\n      tag_66\n      swap2\n      swap1\n      tag_48\n      jump\t// in\n    tag_66:\n      mload(0x40)\n      dup1\n      swap2\n      sub\n      swap1\n      return\n        /* \"subasta2.sol\":2139:2238  function mostrarOfertas() external view returns (Oferta[] memory) {... */\n    tag_13:\n      callvalue\n      dup1\n      iszero\n      tag_67\n      jumpi\n      0x00\n      dup1\n      revert\n    tag_67:\n      pop\n      tag_68\n      tag_69\n      jump\t// in\n    tag_68:\n      mload(0x40)\n      tag_70\n      swap2\n      swap1\n      tag_71\n      jump\t// in\n    tag_70:\n      mload(0x40)\n      dup1\n      swap2\n      sub\n      swap1\n      return\n        /* \"subasta2.sol\":116:139  uint public tiempoFinal */\n    tag_14:\n      callvalue\n      dup1\n      iszero\n      tag_72\n      jumpi\n      0x00\n      dup1\n      revert\n    tag_72:\n      pop\n      tag_73\n      tag_74\n      jump\t// in\n    tag_73:\n      mload(0x40)\n      tag_75\n      swap2\n      swap1\n      tag_48\n      jump\t// in\n    tag_75:\n      mload(0x40)\n      dup1\n      swap2\n      sub\n      swap1\n      return\n        /* \"subasta2.sol\":246:282  uint public porcentajeIncremento = 5 */\n    tag_15:\n      callvalue\n      dup1\n      iszero\n      tag_76\n      jumpi\n      0x00\n      dup1\n      revert\n    tag_76:\n      pop\n      tag_77\n      tag_78\n      jump\t// in\n    tag_77:\n      mload(0x40)\n      tag_79\n      swap2\n      swap1\n      tag_48\n      jump\t// in\n    tag_79:\n      mload(0x40)\n      dup1\n      swap2\n      sub\n      swap1\n      return\n        /* \"subasta2.sol\":146:190  uint public duracionSubasta = 10 * 1 minutes */\n    tag_16:\n      callvalue\n      dup1\n      iszero\n      tag_80\n      jumpi\n      0x00\n      dup1\n      revert\n    tag_80:\n      pop\n      tag_81\n      tag_82\n      jump\t// in\n    tag_81:\n      mload(0x40)\n      tag_83\n      swap2\n      swap1\n      tag_48\n      jump\t// in\n    tag_83:\n      mload(0x40)\n      dup1\n      swap2\n      sub\n      swap1\n      return\n        /* \"subasta2.sol\":2246:2600  function finalizarSubasta() external soloSubastador soloDuranteSubastaActiva {... */\n    tag_22:\n        /* \"subasta2.sol\":1230:1240  subastador */\n      0x00\n      dup1\n      sload\n      swap1\n      0x0100\n      exp\n      swap1\n      div\n      0xffffffffffffffffffffffffffffffffffffffff\n      and\n        /* \"subasta2.sol\":1216:1240  msg.sender == subastador */\n      0xffffffffffffffffffffffffffffffffffffffff\n      and\n        /* \"subasta2.sol\":1216:1226  msg.sender */\n      caller\n        /* \"subasta2.sol\":1216:1240  msg.sender == subastador */\n      0xffffffffffffffffffffffffffffffffffffffff\n      and\n      eq\n        /* \"subasta2.sol\":1208:1290  require(msg.sender == subastador, \"Solo el subastador puede ejecutar esta accion\") */\n      tag_85\n      jumpi\n      mload(0x40)\n      0x08c379a000000000000000000000000000000000000000000000000000000000\n      dup2\n      mstore\n      0x04\n      add\n      tag_86\n      swap1\n      tag_87\n      jump\t// in\n    tag_86:\n      mload(0x40)\n      dup1\n      swap2\n      sub\n      swap1\n      revert\n    tag_85:\n        /* \"subasta2.sol\":1072:1078  activa */\n      0x05\n      0x00\n      swap1\n      sload\n      swap1\n      0x0100\n      exp\n      swap1\n      div\n      0xff\n      and\n        /* \"subasta2.sol\":1072:1111  activa && block.timestamp < tiempoFinal */\n      dup1\n      iszero\n      tag_89\n      jumpi\n      pop\n        /* \"subasta2.sol\":1100:1111  tiempoFinal */\n      sload(0x01)\n        /* \"subasta2.sol\":1082:1097  block.timestamp */\n      timestamp\n        /* \"subasta2.sol\":1082:1111  block.timestamp < tiempoFinal */\n      lt\n        /* \"subasta2.sol\":1072:1111  activa && block.timestamp < tiempoFinal */\n    tag_89:\n        /* \"subasta2.sol\":1064:1143  require(activa && block.timestamp < tiempoFinal, \"La subasta ya ha finalizado\") */\n      tag_90\n      jumpi\n      mload(0x40)\n      0x08c379a000000000000000000000000000000000000000000000000000000000\n      dup2\n      mstore\n      0x04\n      add\n      tag_91\n      swap1\n      tag_92\n      jump\t// in\n    tag_91:\n      mload(0x40)\n      dup1\n      swap2\n      sub\n      swap1\n      revert\n    tag_90:\n        /* \"subasta2.sol\":2361:2372  tiempoFinal */\n      sload(0x01)\n        /* \"subasta2.sol\":2342:2357  block.timestamp */\n      timestamp\n        /* \"subasta2.sol\":2342:2372  block.timestamp >= tiempoFinal */\n      lt\n      iszero\n        /* \"subasta2.sol\":2334:2405  require(block.timestamp >= tiempoFinal, \"La subasta aun esta en curso\") */\n      tag_94\n      jumpi\n      mload(0x40)\n      0x08c379a000000000000000000000000000000000000000000000000000000000\n      dup2\n      mstore\n      0x04\n      add\n      tag_95\n      swap1\n      tag_96\n      jump\t// in\n    tag_95:\n      mload(0x40)\n      dup1\n      swap2\n      sub\n      swap1\n      revert\n    tag_94:\n        /* \"subasta2.sol\":2425:2430  false */\n      0x00\n        /* \"subasta2.sol\":2416:2422  activa */\n      0x05\n      0x00\n        /* \"subasta2.sol\":2416:2430  activa = false */\n      0x0100\n      exp\n      dup2\n      sload\n      dup2\n      0xff\n      mul\n      not\n      and\n      swap1\n      dup4\n      iszero\n      iszero\n      mul\n      or\n      swap1\n      sstore\n      pop\n        /* \"subasta2.sol\":2464:2465  0 */\n      0x00\n        /* \"subasta2.sol\":2447:2454  ofertas */\n      0x07\n        /* \"subasta2.sol\":2447:2461  ofertas.length */\n      dup1\n      sload\n      swap1\n      pop\n        /* \"subasta2.sol\":2447:2465  ofertas.length > 0 */\n      gt\n        /* \"subasta2.sol\":2443:2593  if (ofertas.length > 0) {... */\n      iszero\n      tag_97\n      jumpi\n        /* \"subasta2.sol\":2487:2581  SubastaFinalizada(ofertas[ofertas.length - 1].ofertante, ofertas[ofertas.length - 1].cantidad) */\n      0xa3a65b403bdae88eb037f4ecc1d619f436fc3ef6bcbbee3787757164e82883f2\n        /* \"subasta2.sol\":2505:2512  ofertas */\n      0x07\n        /* \"subasta2.sol\":2530:2531  1 */\n      0x01\n        /* \"subasta2.sol\":2513:2520  ofertas */\n      0x07\n        /* \"subasta2.sol\":2513:2527  ofertas.length */\n      dup1\n      sload\n      swap1\n      pop\n        /* \"subasta2.sol\":2513:2531  ofertas.length - 1 */\n      tag_98\n      swap2\n      swap1\n      tag_99\n      jump\t// in\n    tag_98:\n        /* \"subasta2.sol\":2505:2532  ofertas[ofertas.length - 1] */\n      dup2\n      sload\n      dup2\n      lt\n      tag_100\n      jumpi\n      tag_101\n      tag_102\n      jump\t// in\n    tag_101:\n    tag_100:\n      swap1\n      0x00\n      mstore\n      keccak256(0x00, 0x20)\n      swap1\n      0x02\n      mul\n      add\n        /* \"subasta2.sol\":2505:2542  ofertas[ofertas.length - 1].ofertante */\n      0x00\n      add\n      0x00\n      swap1\n      sload\n      swap1\n      0x0100\n      exp\n      swap1\n      div\n      0xffffffffffffffffffffffffffffffffffffffff\n      and\n        /* \"subasta2.sol\":2544:2551  ofertas */\n      0x07\n        /* \"subasta2.sol\":2569:2570  1 */\n      0x01\n        /* \"subasta2.sol\":2552:2559  ofertas */\n      0x07\n        /* \"subasta2.sol\":2552:2566  ofertas.length */\n      dup1\n      sload\n      swap1\n      pop\n        /* \"subasta2.sol\":2552:2570  ofertas.length - 1 */\n      tag_104\n      swap2\n      swap1\n      tag_99\n      jump\t// in\n    tag_104:\n        /* \"subasta2.sol\":2544:2571  ofertas[ofertas.length - 1] */\n      dup2\n      sload\n      dup2\n      lt\n      tag_105\n      jumpi\n      tag_106\n      tag_102\n      jump\t// in\n    tag_106:\n    tag_105:\n      swap1\n      0x00\n      mstore\n      keccak256(0x00, 0x20)\n      swap1\n      0x02\n      mul\n      add\n        /* \"subasta2.sol\":2544:2580  ofertas[ofertas.length - 1].cantidad */\n      0x01\n      add\n      sload\n        /* \"subasta2.sol\":2487:2581  SubastaFinalizada(ofertas[ofertas.length - 1].ofertante, ofertas[ofertas.length - 1].cantidad) */\n      mload(0x40)\n      tag_108\n      swap3\n      swap2\n      swap1\n      tag_41\n      jump\t// in\n    tag_108:\n      mload(0x40)\n      dup1\n      swap2\n      sub\n      swap1\n      log1\n        /* \"subasta2.sol\":2443:2593  if (ofertas.length > 0) {... */\n    tag_97:\n        /* \"subasta2.sol\":2246:2600  function finalizarSubasta() external soloSubastador soloDuranteSubastaActiva {... */\n      jump\t// out\n        /* \"subasta2.sol\":394:419  bool public activa = true */\n    tag_25:\n      0x05\n      0x00\n      swap1\n      sload\n      swap1\n      0x0100\n      exp\n      swap1\n      div\n      0xff\n      and\n      dup2\n      jump\t// out\n        /* \"subasta2.sol\":84:109  address public subastador */\n    tag_30:\n      0x00\n      dup1\n      sload\n      swap1\n      0x0100\n      exp\n      swap1\n      div\n      0xffffffffffffffffffffffffffffffffffffffff\n      and\n      dup2\n      jump\t// out\n        /* \"subasta2.sol\":1318:1846  function ofertar() external payable soloDuranteSubastaActiva {... */\n    tag_34:\n        /* \"subasta2.sol\":1072:1078  activa */\n      0x05\n      0x00\n      swap1\n      sload\n      swap1\n      0x0100\n      exp\n      swap1\n      div\n      0xff\n      and\n        /* \"subasta2.sol\":1072:1111  activa && block.timestamp < tiempoFinal */\n      dup1\n      iszero\n      tag_110\n      jumpi\n      pop\n        /* \"subasta2.sol\":1100:1111  tiempoFinal */\n      sload(0x01)\n        /* \"subasta2.sol\":1082:1097  block.timestamp */\n      timestamp\n        /* \"subasta2.sol\":1082:1111  block.timestamp < tiempoFinal */\n      lt\n        /* \"subasta2.sol\":1072:1111  activa && block.timestamp < tiempoFinal */\n    tag_110:\n        /* \"subasta2.sol\":1064:1143  require(activa && block.timestamp < tiempoFinal, \"La subasta ya ha finalizado\") */\n      tag_111\n      jumpi\n      mload(0x40)\n      0x08c379a000000000000000000000000000000000000000000000000000000000\n      dup2\n      mstore\n      0x04\n      add\n      tag_112\n      swap1\n      tag_92\n      jump\t// in\n    tag_112:\n      mload(0x40)\n      dup1\n      swap2\n      sub\n      swap1\n      revert\n    tag_111:\n        /* \"subasta2.sol\":1390:1406  uint montoMinimo */\n      0x00\n        /* \"subasta2.sol\":1511:1514  100 */\n      0x64\n        /* \"subasta2.sol\":1488:1508  porcentajeIncremento */\n      sload(0x03)\n        /* \"subasta2.sol\":1449:1456  ofertas */\n      0x07\n        /* \"subasta2.sol\":1474:1475  1 */\n      0x01\n        /* \"subasta2.sol\":1457:1464  ofertas */\n      0x07\n        /* \"subasta2.sol\":1457:1471  ofertas.length */\n      dup1\n      sload\n      swap1\n      pop\n        /* \"subasta2.sol\":1457:1475  ofertas.length - 1 */\n      tag_114\n      swap2\n      swap1\n      tag_99\n      jump\t// in\n    tag_114:\n        /* \"subasta2.sol\":1449:1476  ofertas[ofertas.length - 1] */\n      dup2\n      sload\n      dup2\n      lt\n      tag_115\n      jumpi\n      tag_116\n      tag_102\n      jump\t// in\n    tag_116:\n    tag_115:\n      swap1\n      0x00\n      mstore\n      keccak256(0x00, 0x20)\n      swap1\n      0x02\n      mul\n      add\n        /* \"subasta2.sol\":1449:1485  ofertas[ofertas.length - 1].cantidad */\n      0x01\n      add\n      sload\n        /* \"subasta2.sol\":1449:1508  ofertas[ofertas.length - 1].cantidad * porcentajeIncremento */\n      tag_118\n      swap2\n      swap1\n      tag_119\n      jump\t// in\n    tag_118:\n        /* \"subasta2.sol\":1449:1514  ofertas[ofertas.length - 1].cantidad * porcentajeIncremento / 100 */\n      tag_120\n      swap2\n      swap1\n      tag_121\n      jump\t// in\n    tag_120:\n        /* \"subasta2.sol\":1409:1416  ofertas */\n      0x07\n        /* \"subasta2.sol\":1434:1435  1 */\n      0x01\n        /* \"subasta2.sol\":1417:1424  ofertas */\n      0x07\n        /* \"subasta2.sol\":1417:1431  ofertas.length */\n      dup1\n      sload\n      swap1\n      pop\n        /* \"subasta2.sol\":1417:1435  ofertas.length - 1 */\n      tag_122\n      swap2\n      swap1\n      tag_99\n      jump\t// in\n    tag_122:\n        /* \"subasta2.sol\":1409:1436  ofertas[ofertas.length - 1] */\n      dup2\n      sload\n      dup2\n      lt\n      tag_123\n      jumpi\n      tag_124\n      tag_102\n      jump\t// in\n    tag_124:\n    tag_123:\n      swap1\n      0x00\n      mstore\n      keccak256(0x00, 0x20)\n      swap1\n      0x02\n      mul\n      add\n        /* \"subasta2.sol\":1409:1445  ofertas[ofertas.length - 1].cantidad */\n      0x01\n      add\n      sload\n        /* \"subasta2.sol\":1409:1515  ofertas[ofertas.length - 1].cantidad + (ofertas[ofertas.length - 1].cantidad * porcentajeIncremento / 100) */\n      tag_126\n      swap2\n      swap1\n      tag_127\n      jump\t// in\n    tag_126:\n        /* \"subasta2.sol\":1390:1515  uint montoMinimo = ofertas[ofertas.length - 1].cantidad + (ofertas[ofertas.length - 1].cantidad * porcentajeIncremento / 100) */\n      swap1\n      pop\n        /* \"subasta2.sol\":1546:1557  montoMinimo */\n      dup1\n        /* \"subasta2.sol\":1534:1543  msg.value */\n      callvalue\n        /* \"subasta2.sol\":1534:1557  msg.value > montoMinimo */\n      gt\n        /* \"subasta2.sol\":1526:1619  require(msg.value > montoMinimo, \"La oferta debe superar en al menos un 5% la oferta actual\") */\n      tag_128\n      jumpi\n      mload(0x40)\n      0x08c379a000000000000000000000000000000000000000000000000000000000\n      dup2\n      mstore\n      0x04\n      add\n      tag_129\n      swap1\n      tag_130\n      jump\t// in\n    tag_129:\n      mload(0x40)\n      dup1\n      swap2\n      sub\n      swap1\n      revert\n    tag_128:\n        /* \"subasta2.sol\":1672:1687  duracionSubasta */\n      sload(0x02)\n        /* \"subasta2.sol\":1654:1669  block.timestamp */\n      timestamp\n        /* \"subasta2.sol\":1654:1687  block.timestamp + duracionSubasta */\n      tag_131\n      swap2\n      swap1\n      tag_127\n      jump\t// in\n    tag_131:\n        /* \"subasta2.sol\":1640:1651  tiempoFinal */\n      0x01\n        /* \"subasta2.sol\":1640:1687  tiempoFinal = block.timestamp + duracionSubasta */\n      dup2\n      swap1\n      sstore\n      pop\n        /* \"subasta2.sol\":1700:1707  ofertas */\n      0x07\n        /* \"subasta2.sol\":1713:1742  Oferta(msg.sender, msg.value) */\n      mload(0x40)\n      dup1\n      0x40\n      add\n      0x40\n      mstore\n      dup1\n        /* \"subasta2.sol\":1720:1730  msg.sender */\n      caller\n        /* \"subasta2.sol\":1713:1742  Oferta(msg.sender, msg.value) */\n      0xffffffffffffffffffffffffffffffffffffffff\n      and\n      dup2\n      mstore\n      0x20\n      add\n        /* \"subasta2.sol\":1732:1741  msg.value */\n      callvalue\n        /* \"subasta2.sol\":1713:1742  Oferta(msg.sender, msg.value) */\n      dup2\n      mstore\n      pop\n        /* \"subasta2.sol\":1700:1743  ofertas.push(Oferta(msg.sender, msg.value)) */\n      swap1\n      dup1\n      0x01\n      dup2\n      sload\n      add\n      dup1\n      dup3\n      sstore\n      dup1\n      swap2\n      pop\n      pop\n      0x01\n      swap1\n      sub\n      swap1\n      0x00\n      mstore\n      keccak256(0x00, 0x20)\n      swap1\n      0x02\n      mul\n      add\n      0x00\n      swap1\n      swap2\n      swap1\n      swap2\n      swap1\n      swap2\n      pop\n      0x00\n      dup3\n      add\n      mload\n      dup2\n      0x00\n      add\n      exp(0x0100, 0x00)\n      dup2\n      sload\n      dup2\n      0xffffffffffffffffffffffffffffffffffffffff\n      mul\n      not\n      and\n      swap1\n      dup4\n      0xffffffffffffffffffffffffffffffffffffffff\n      and\n      mul\n      or\n      swap1\n      sstore\n      pop\n      0x20\n      dup3\n      add\n      mload\n      dup2\n      0x01\n      add\n      sstore\n      pop\n      pop\n        /* \"subasta2.sol\":1779:1788  msg.value */\n      callvalue\n        /* \"subasta2.sol\":1754:1763  depositos */\n      0x08\n        /* \"subasta2.sol\":1754:1775  depositos[msg.sender] */\n      0x00\n        /* \"subasta2.sol\":1764:1774  msg.sender */\n      caller\n        /* \"subasta2.sol\":1754:1775  depositos[msg.sender] */\n      0xffffffffffffffffffffffffffffffffffffffff\n      and\n      0xffffffffffffffffffffffffffffffffffffffff\n      and\n      dup2\n      mstore\n      0x20\n      add\n      swap1\n      dup2\n      mstore\n      0x20\n      add\n      0x00\n      keccak256\n      0x00\n        /* \"subasta2.sol\":1754:1788  depositos[msg.sender] += msg.value */\n      dup3\n      dup3\n      sload\n      tag_133\n      swap2\n      swap1\n      tag_127\n      jump\t// in\n    tag_133:\n      swap3\n      pop\n      pop\n      dup2\n      swap1\n      sstore\n      pop\n        /* \"subasta2.sol\":1804:1838  NuevaOferta(msg.sender, msg.value) */\n      0x155d469211f46e4d9ae974606f0878f9aacc6198ba30a1e6b9c8cf5627352fb5\n        /* \"subasta2.sol\":1816:1826  msg.sender */\n      caller\n        /* \"subasta2.sol\":1828:1837  msg.value */\n      callvalue\n        /* \"subasta2.sol\":1804:1838  NuevaOferta(msg.sender, msg.value) */\n      mload(0x40)\n      tag_134\n      swap3\n      swap2\n      swap1\n      tag_41\n      jump\t// in\n    tag_134:\n      mload(0x40)\n      dup1\n      swap2\n      sub\n      swap1\n      log1\n        /* \"subasta2.sol\":1379:1846  {... */\n      pop\n        /* \"subasta2.sol\":1318:1846  function ofertar() external payable soloDuranteSubastaActiva {... */\n      jump\t// out\n        /* \"subasta2.sol\":552:575  Oferta[] public ofertas */\n    tag_39:\n      0x07\n      dup2\n      dup2\n      sload\n      dup2\n      lt\n      tag_135\n      jumpi\n      0x00\n      dup1\n      revert\n    tag_135:\n      swap1\n      0x00\n      mstore\n      keccak256(0x00, 0x20)\n      swap1\n      0x02\n      mul\n      add\n      0x00\n      swap2\n      pop\n      swap1\n      pop\n      dup1\n      0x00\n      add\n      0x00\n      swap1\n      sload\n      swap1\n      0x0100\n      exp\n      swap1\n      div\n      0xffffffffffffffffffffffffffffffffffffffff\n      and\n      swap1\n      dup1\n      0x01\n      add\n      sload\n      swap1\n      pop\n      dup3\n      jump\t// out\n        /* \"subasta2.sol\":582:623  mapping(address => uint) public depositos */\n    tag_46:\n      mstore(0x20, 0x08)\n      dup1\n      0x00\n      mstore\n      keccak256(0x00, 0x40)\n      0x00\n      swap2\n      pop\n      swap1\n      pop\n      sload\n      dup2\n      jump\t// out\n        /* \"subasta2.sol\":426:461  uint public ofertaInicial = 1 ether */\n    tag_51:\n      sload(0x06)\n      dup2\n      jump\t// out\n        /* \"subasta2.sol\":1854:2131  function mostrarGanador() external view returns (address ganador, uint cantidadGanadora) {... */\n    tag_55:\n        /* \"subasta2.sol\":1903:1918  address ganador */\n      0x00\n        /* \"subasta2.sol\":1920:1941  uint cantidadGanadora */\n      dup1\n        /* \"subasta2.sol\":1979:1980  0 */\n      0x00\n        /* \"subasta2.sol\":1962:1969  ofertas */\n      0x07\n        /* \"subasta2.sol\":1962:1976  ofertas.length */\n      dup1\n      sload\n      swap1\n      pop\n        /* \"subasta2.sol\":1962:1980  ofertas.length > 0 */\n      gt\n        /* \"subasta2.sol\":1954:1999  require(ofertas.length > 0, \"No hay ofertas\") */\n      tag_138\n      jumpi\n      mload(0x40)\n      0x08c379a000000000000000000000000000000000000000000000000000000000\n      dup2\n      mstore\n      0x04\n      add\n      tag_139\n      swap1\n      tag_140\n      jump\t// in\n    tag_139:\n      mload(0x40)\n      dup1\n      swap2\n      sub\n      swap1\n      revert\n    tag_138:\n        /* \"subasta2.sol\":2020:2027  ofertas */\n      0x07\n        /* \"subasta2.sol\":2045:2046  1 */\n      0x01\n        /* \"subasta2.sol\":2028:2035  ofertas */\n      0x07\n        /* \"subasta2.sol\":2028:2042  ofertas.length */\n      dup1\n      sload\n      swap1\n      pop\n        /* \"subasta2.sol\":2028:2046  ofertas.length - 1 */\n      tag_141\n      swap2\n      swap1\n      tag_99\n      jump\t// in\n    tag_141:\n        /* \"subasta2.sol\":2020:2047  ofertas[ofertas.length - 1] */\n      dup2\n      sload\n      dup2\n      lt\n      tag_142\n      jumpi\n      tag_143\n      tag_102\n      jump\t// in\n    tag_143:\n    tag_142:\n      swap1\n      0x00\n      mstore\n      keccak256(0x00, 0x20)\n      swap1\n      0x02\n      mul\n      add\n        /* \"subasta2.sol\":2020:2057  ofertas[ofertas.length - 1].ofertante */\n      0x00\n      add\n      0x00\n      swap1\n      sload\n      swap1\n      0x0100\n      exp\n      swap1\n      div\n      0xffffffffffffffffffffffffffffffffffffffff\n      and\n        /* \"subasta2.sol\":2010:2057  ganador = ofertas[ofertas.length - 1].ofertante */\n      swap2\n      pop\n        /* \"subasta2.sol\":2087:2094  ofertas */\n      0x07\n        /* \"subasta2.sol\":2112:2113  1 */\n      0x01\n        /* \"subasta2.sol\":2095:2102  ofertas */\n      0x07\n        /* \"subasta2.sol\":2095:2109  ofertas.length */\n      dup1\n      sload\n      swap1\n      pop\n        /* \"subasta2.sol\":2095:2113  ofertas.length - 1 */\n      tag_145\n      swap2\n      swap1\n      tag_99\n      jump\t// in\n    tag_145:\n        /* \"subasta2.sol\":2087:2114  ofertas[ofertas.length - 1] */\n      dup2\n      sload\n      dup2\n      lt\n      tag_146\n      jumpi\n      tag_147\n      tag_102\n      jump\t// in\n    tag_147:\n    tag_146:\n      swap1\n      0x00\n      mstore\n      keccak256(0x00, 0x20)\n      swap1\n      0x02\n      mul\n      add\n        /* \"subasta2.sol\":2087:2123  ofertas[ofertas.length - 1].cantidad */\n      0x01\n      add\n      sload\n        /* \"subasta2.sol\":2068:2123  cantidadGanadora = ofertas[ofertas.length - 1].cantidad */\n      swap1\n      pop\n        /* \"subasta2.sol\":1854:2131  function mostrarGanador() external view returns (address ganador, uint cantidadGanadora) {... */\n      swap1\n      swap2\n      jump\t// out\n        /* \"subasta2.sol\":3132:3796  function retiroParcial() external soloDuranteSubastaActiva {... */\n    tag_59:\n        /* \"subasta2.sol\":1072:1078  activa */\n      0x05\n      0x00\n      swap1\n      sload\n      swap1\n      0x0100\n      exp\n      swap1\n      div\n      0xff\n      and\n        /* \"subasta2.sol\":1072:1111  activa && block.timestamp < tiempoFinal */\n      dup1\n      iszero\n      tag_150\n      jumpi\n      pop\n        /* \"subasta2.sol\":1100:1111  tiempoFinal */\n      sload(0x01)\n        /* \"subasta2.sol\":1082:1097  block.timestamp */\n      timestamp\n        /* \"subasta2.sol\":1082:1111  block.timestamp < tiempoFinal */\n      lt\n        /* \"subasta2.sol\":1072:1111  activa && block.timestamp < tiempoFinal */\n    tag_150:\n        /* \"subasta2.sol\":1064:1143  require(activa && block.timestamp < tiempoFinal, \"La subasta ya ha finalizado\") */\n      tag_151\n      jumpi\n      mload(0x40)\n      0x08c379a000000000000000000000000000000000000000000000000000000000\n      dup2\n      mstore\n      0x04\n      add\n      tag_152\n      swap1\n      tag_92\n      jump\t// in\n    tag_152:\n      mload(0x40)\n      dup1\n      swap2\n      sub\n      swap1\n      revert\n    tag_151:\n        /* \"subasta2.sol\":3202:3221  uint depositoActual */\n      0x00\n        /* \"subasta2.sol\":3224:3233  depositos */\n      0x08\n        /* \"subasta2.sol\":3224:3245  depositos[msg.sender] */\n      0x00\n        /* \"subasta2.sol\":3234:3244  msg.sender */\n      caller\n        /* \"subasta2.sol\":3224:3245  depositos[msg.sender] */\n      0xffffffffffffffffffffffffffffffffffffffff\n      and\n      0xffffffffffffffffffffffffffffffffffffffff\n      and\n      dup2\n      mstore\n      0x20\n      add\n      swap1\n      dup2\n      mstore\n      0x20\n      add\n      0x00\n      keccak256\n      sload\n        /* \"subasta2.sol\":3202:3245  uint depositoActual = depositos[msg.sender] */\n      swap1\n      pop\n        /* \"subasta2.sol\":3256:3273  uint ultimaOferta */\n      0x00\n        /* \"subasta2.sol\":3347:3353  uint i */\n      dup1\n        /* \"subasta2.sol\":3356:3363  ofertas */\n      0x07\n        /* \"subasta2.sol\":3356:3370  ofertas.length */\n      dup1\n      sload\n      swap1\n      pop\n        /* \"subasta2.sol\":3347:3370  uint i = ofertas.length */\n      swap1\n      pop\n        /* \"subasta2.sol\":3342:3551  for (uint i = ofertas.length; i > 0; i--) {... */\n    tag_154:\n        /* \"subasta2.sol\":3376:3377  0 */\n      0x00\n        /* \"subasta2.sol\":3372:3373  i */\n      dup2\n        /* \"subasta2.sol\":3372:3377  i > 0 */\n      gt\n        /* \"subasta2.sol\":3342:3551  for (uint i = ofertas.length; i > 0; i--) {... */\n      iszero\n      tag_155\n      jumpi\n        /* \"subasta2.sol\":3431:3441  msg.sender */\n      caller\n        /* \"subasta2.sol\":3403:3441  ofertas[i - 1].ofertante == msg.sender */\n      0xffffffffffffffffffffffffffffffffffffffff\n      and\n        /* \"subasta2.sol\":3403:3410  ofertas */\n      0x07\n        /* \"subasta2.sol\":3415:3416  1 */\n      0x01\n        /* \"subasta2.sol\":3411:3412  i */\n      dup4\n        /* \"subasta2.sol\":3411:3416  i - 1 */\n      tag_157\n      swap2\n      swap1\n      tag_99\n      jump\t// in\n    tag_157:\n        /* \"subasta2.sol\":3403:3417  ofertas[i - 1] */\n      dup2\n      sload\n      dup2\n      lt\n      tag_158\n      jumpi\n      tag_159\n      tag_102\n      jump\t// in\n    tag_159:\n    tag_158:\n      swap1\n      0x00\n      mstore\n      keccak256(0x00, 0x20)\n      swap1\n      0x02\n      mul\n      add\n        /* \"subasta2.sol\":3403:3427  ofertas[i - 1].ofertante */\n      0x00\n      add\n      0x00\n      swap1\n      sload\n      swap1\n      0x0100\n      exp\n      swap1\n      div\n      0xffffffffffffffffffffffffffffffffffffffff\n      and\n        /* \"subasta2.sol\":3403:3441  ofertas[i - 1].ofertante == msg.sender */\n      0xffffffffffffffffffffffffffffffffffffffff\n      and\n      sub\n        /* \"subasta2.sol\":3399:3540  if (ofertas[i - 1].ofertante == msg.sender) {... */\n      tag_161\n      jumpi\n        /* \"subasta2.sol\":3477:3484  ofertas */\n      0x07\n        /* \"subasta2.sol\":3489:3490  1 */\n      0x01\n        /* \"subasta2.sol\":3485:3486  i */\n      dup3\n        /* \"subasta2.sol\":3485:3490  i - 1 */\n      tag_162\n      swap2\n      swap1\n      tag_99\n      jump\t// in\n    tag_162:\n        /* \"subasta2.sol\":3477:3491  ofertas[i - 1] */\n      dup2\n      sload\n      dup2\n      lt\n      tag_163\n      jumpi\n      tag_164\n      tag_102\n      jump\t// in\n    tag_164:\n    tag_163:\n      swap1\n      0x00\n      mstore\n      keccak256(0x00, 0x20)\n      swap1\n      0x02\n      mul\n      add\n        /* \"subasta2.sol\":3477:3500  ofertas[i - 1].cantidad */\n      0x01\n      add\n      sload\n        /* \"subasta2.sol\":3462:3500  ultimaOferta = ofertas[i - 1].cantidad */\n      swap2\n      pop\n        /* \"subasta2.sol\":3519:3524  break */\n      jump(tag_155)\n        /* \"subasta2.sol\":3399:3540  if (ofertas[i - 1].ofertante == msg.sender) {... */\n    tag_161:\n        /* \"subasta2.sol\":3379:3382  i-- */\n      dup1\n      dup1\n      tag_166\n      swap1\n      tag_167\n      jump\t// in\n    tag_166:\n      swap2\n      pop\n      pop\n        /* \"subasta2.sol\":3342:3551  for (uint i = ofertas.length; i > 0; i--) {... */\n      jump(tag_154)\n    tag_155:\n      pop\n        /* \"subasta2.sol\":3588:3600  ultimaOferta */\n      dup1\n        /* \"subasta2.sol\":3571:3585  depositoActual */\n      dup3\n        /* \"subasta2.sol\":3571:3600  depositoActual > ultimaOferta */\n      gt\n        /* \"subasta2.sol\":3563:3634  require(depositoActual > ultimaOferta, \"No hay excedente para retirar\") */\n      tag_168\n      jumpi\n      mload(0x40)\n      0x08c379a000000000000000000000000000000000000000000000000000000000\n      dup2\n      mstore\n      0x04\n      add\n      tag_169\n      swap1\n      tag_170\n      jump\t// in\n    tag_169:\n      mload(0x40)\n      dup1\n      swap2\n      sub\n      swap1\n      revert\n    tag_168:\n        /* \"subasta2.sol\":3645:3659  uint excedente */\n      0x00\n        /* \"subasta2.sol\":3679:3691  ultimaOferta */\n      dup2\n        /* \"subasta2.sol\":3662:3676  depositoActual */\n      dup4\n        /* \"subasta2.sol\":3662:3691  depositoActual - ultimaOferta */\n      tag_171\n      swap2\n      swap1\n      tag_99\n      jump\t// in\n    tag_171:\n        /* \"subasta2.sol\":3645:3691  uint excedente = depositoActual - ultimaOferta */\n      swap1\n      pop\n        /* \"subasta2.sol\":3729:3738  excedente */\n      dup1\n        /* \"subasta2.sol\":3704:3713  depositos */\n      0x08\n        /* \"subasta2.sol\":3704:3725  depositos[msg.sender] */\n      0x00\n        /* \"subasta2.sol\":3714:3724  msg.sender */\n      caller\n        /* \"subasta2.sol\":3704:3725  depositos[msg.sender] */\n      0xffffffffffffffffffffffffffffffffffffffff\n      and\n      0xffffffffffffffffffffffffffffffffffffffff\n      and\n      dup2\n      mstore\n      0x20\n      add\n      swap1\n      dup2\n      mstore\n      0x20\n      add\n      0x00\n      keccak256\n      0x00\n        /* \"subasta2.sol\":3704:3738  depositos[msg.sender] -= excedente */\n      dup3\n      dup3\n      sload\n      tag_172\n      swap2\n      swap1\n      tag_99\n      jump\t// in\n    tag_172:\n      swap3\n      pop\n      pop\n      dup2\n      swap1\n      sstore\n      pop\n        /* \"subasta2.sol\":3757:3767  msg.sender */\n      caller\n        /* \"subasta2.sol\":3749:3777  payable(msg.sender).transfer */\n      0xffffffffffffffffffffffffffffffffffffffff\n      and\n        /* \"subasta2.sol\":3749:3788  payable(msg.sender).transfer(excedente) */\n      0x08fc\n        /* \"subasta2.sol\":3778:3787  excedente */\n      dup3\n        /* \"subasta2.sol\":3749:3788  payable(msg.sender).transfer(excedente) */\n      swap1\n      dup2\n      iszero\n      mul\n      swap1\n      mload(0x40)\n      0x00\n      mload(0x40)\n      dup1\n      dup4\n      sub\n      dup2\n      dup6\n      dup9\n      dup9\n      call\n      swap4\n      pop\n      pop\n      pop\n      pop\n      iszero\n      dup1\n      iszero\n      tag_174\n      jumpi\n      returndatasize\n      0x00\n      dup1\n      returndatacopy\n      revert(0x00, returndatasize)\n    tag_174:\n      pop\n        /* \"subasta2.sol\":3191:3796  {... */\n      pop\n      pop\n      pop\n        /* \"subasta2.sol\":3132:3796  function retiroParcial() external soloDuranteSubastaActiva {... */\n      jump\t// out\n        /* \"subasta2.sol\":2608:3124  function retirarDeposito() external {... */\n    tag_62:\n        /* \"subasta2.sol\":2664:2670  activa */\n      0x05\n      0x00\n      swap1\n      sload\n      swap1\n      0x0100\n      exp\n      swap1\n      div\n      0xff\n      and\n        /* \"subasta2.sol\":2663:2670  !activa */\n      iszero\n        /* \"subasta2.sol\":2655:2701  require(!activa, \"La subasta aun esta activa\") */\n      tag_176\n      jumpi\n      mload(0x40)\n      0x08c379a000000000000000000000000000000000000000000000000000000000\n      dup2\n      mstore\n      0x04\n      add\n      tag_177\n      swap1\n      tag_178\n      jump\t// in\n    tag_177:\n      mload(0x40)\n      dup1\n      swap2\n      sub\n      swap1\n      revert\n    tag_176:\n        /* \"subasta2.sol\":2712:2726  uint reembolso */\n      0x00\n        /* \"subasta2.sol\":2729:2738  depositos */\n      0x08\n        /* \"subasta2.sol\":2729:2750  depositos[msg.sender] */\n      0x00\n        /* \"subasta2.sol\":2739:2749  msg.sender */\n      caller\n        /* \"subasta2.sol\":2729:2750  depositos[msg.sender] */\n      0xffffffffffffffffffffffffffffffffffffffff\n      and\n      0xffffffffffffffffffffffffffffffffffffffff\n      and\n      dup2\n      mstore\n      0x20\n      add\n      swap1\n      dup2\n      mstore\n      0x20\n      add\n      0x00\n      keccak256\n      sload\n        /* \"subasta2.sol\":2712:2750  uint reembolso = depositos[msg.sender] */\n      swap1\n      pop\n        /* \"subasta2.sol\":2781:2782  0 */\n      0x00\n        /* \"subasta2.sol\":2769:2778  reembolso */\n      dup2\n        /* \"subasta2.sol\":2769:2782  reembolso > 0 */\n      gt\n        /* \"subasta2.sol\":2761:2816  require(reembolso > 0, \"No hay deposito para devolver\") */\n      tag_179\n      jumpi\n      mload(0x40)\n      0x08c379a000000000000000000000000000000000000000000000000000000000\n      dup2\n      mstore\n      0x04\n      add\n      tag_180\n      swap1\n      tag_181\n      jump\t// in\n    tag_180:\n      mload(0x40)\n      dup1\n      swap2\n      sub\n      swap1\n      revert\n    tag_179:\n        /* \"subasta2.sol\":2829:2844  address ganador */\n      0x00\n        /* \"subasta2.sol\":2847:2854  ofertas */\n      0x07\n        /* \"subasta2.sol\":2872:2873  1 */\n      0x01\n        /* \"subasta2.sol\":2855:2862  ofertas */\n      0x07\n        /* \"subasta2.sol\":2855:2869  ofertas.length */\n      dup1\n      sload\n      swap1\n      pop\n        /* \"subasta2.sol\":2855:2873  ofertas.length - 1 */\n      tag_182\n      swap2\n      swap1\n      tag_99\n      jump\t// in\n    tag_182:\n        /* \"subasta2.sol\":2847:2874  ofertas[ofertas.length - 1] */\n      dup2\n      sload\n      dup2\n      lt\n      tag_183\n      jumpi\n      tag_184\n      tag_102\n      jump\t// in\n    tag_184:\n    tag_183:\n      swap1\n      0x00\n      mstore\n      keccak256(0x00, 0x20)\n      swap1\n      0x02\n      mul\n      add\n        /* \"subasta2.sol\":2847:2884  ofertas[ofertas.length - 1].ofertante */\n      0x00\n      add\n      0x00\n      swap1\n      sload\n      swap1\n      0x0100\n      exp\n      swap1\n      div\n      0xffffffffffffffffffffffffffffffffffffffff\n      and\n        /* \"subasta2.sol\":2829:2884  address ganador = ofertas[ofertas.length - 1].ofertante */\n      swap1\n      pop\n        /* \"subasta2.sol\":2913:2920  ganador */\n      dup1\n        /* \"subasta2.sol\":2899:2920  msg.sender != ganador */\n      0xffffffffffffffffffffffffffffffffffffffff\n      and\n        /* \"subasta2.sol\":2899:2909  msg.sender */\n      caller\n        /* \"subasta2.sol\":2899:2920  msg.sender != ganador */\n      0xffffffffffffffffffffffffffffffffffffffff\n      and\n      eq\n        /* \"subasta2.sol\":2895:3029  if (msg.sender != ganador) {... */\n      tag_186\n      jumpi\n        /* \"subasta2.sol\":2937:2951  uint descuento */\n      0x00\n        /* \"subasta2.sol\":2977:2980  100 */\n      0x64\n        /* \"subasta2.sol\":2966:2974  comision */\n      sload(0x04)\n        /* \"subasta2.sol\":2954:2963  reembolso */\n      dup5\n        /* \"subasta2.sol\":2954:2974  reembolso * comision */\n      tag_187\n      swap2\n      swap1\n      tag_119\n      jump\t// in\n    tag_187:\n        /* \"subasta2.sol\":2954:2980  reembolso * comision / 100 */\n      tag_188\n      swap2\n      swap1\n      tag_121\n      jump\t// in\n    tag_188:\n        /* \"subasta2.sol\":2937:2980  uint descuento = reembolso * comision / 100 */\n      swap1\n      pop\n        /* \"subasta2.sol\":3008:3017  descuento */\n      dup1\n        /* \"subasta2.sol\":2995:3017  reembolso -= descuento */\n      dup4\n      tag_189\n      swap2\n      swap1\n      tag_99\n      jump\t// in\n    tag_189:\n      swap3\n      pop\n        /* \"subasta2.sol\":2922:3029  {... */\n      pop\n        /* \"subasta2.sol\":2895:3029  if (msg.sender != ganador) {... */\n    tag_186:\n        /* \"subasta2.sol\":3065:3066  0 */\n      0x00\n        /* \"subasta2.sol\":3041:3050  depositos */\n      0x08\n        /* \"subasta2.sol\":3041:3062  depositos[msg.sender] */\n      0x00\n        /* \"subasta2.sol\":3051:3061  msg.sender */\n      caller\n        /* \"subasta2.sol\":3041:3062  depositos[msg.sender] */\n      0xffffffffffffffffffffffffffffffffffffffff\n      and\n      0xffffffffffffffffffffffffffffffffffffffff\n      and\n      dup2\n      mstore\n      0x20\n      add\n      swap1\n      dup2\n      mstore\n      0x20\n      add\n      0x00\n      keccak256\n        /* \"subasta2.sol\":3041:3066  depositos[msg.sender] = 0 */\n      dup2\n      swap1\n      sstore\n      pop\n        /* \"subasta2.sol\":3085:3095  msg.sender */\n      caller\n        /* \"subasta2.sol\":3077:3105  payable(msg.sender).transfer */\n      0xffffffffffffffffffffffffffffffffffffffff\n      and\n        /* \"subasta2.sol\":3077:3116  payable(msg.sender).transfer(reembolso) */\n      0x08fc\n        /* \"subasta2.sol\":3106:3115  reembolso */\n      dup4\n        /* \"subasta2.sol\":3077:3116  payable(msg.sender).transfer(reembolso) */\n      swap1\n      dup2\n      iszero\n      mul\n      swap1\n      mload(0x40)\n      0x00\n      mload(0x40)\n      dup1\n      dup4\n      sub\n      dup2\n      dup6\n      dup9\n      dup9\n      call\n      swap4\n      pop\n      pop\n      pop\n      pop\n      iszero\n      dup1\n      iszero\n      tag_191\n      jumpi\n      returndatasize\n      0x00\n      dup1\n      returndatacopy\n      revert(0x00, returndatasize)\n    tag_191:\n      pop\n        /* \"subasta2.sol\":2644:3124  {... */\n      pop\n      pop\n        /* \"subasta2.sol\":2608:3124  function retirarDeposito() external {... */\n      jump\t// out\n        /* \"subasta2.sol\":317:341  uint public comision = 2 */\n    tag_65:\n      sload(0x04)\n      dup2\n      jump\t// out\n        /* \"subasta2.sol\":2139:2238  function mostrarOfertas() external view returns (Oferta[] memory) {... */\n    tag_69:\n        /* \"subasta2.sol\":2188:2203  Oferta[] memory */\n      0x60\n        /* \"subasta2.sol\":2223:2230  ofertas */\n      0x07\n        /* \"subasta2.sol\":2216:2230  return ofertas */\n      dup1\n      sload\n      dup1\n      0x20\n      mul\n      0x20\n      add\n      mload(0x40)\n      swap1\n      dup2\n      add\n      0x40\n      mstore\n      dup1\n      swap3\n      swap2\n      swap1\n      dup2\n      dup2\n      mstore\n      0x20\n      add\n      0x00\n      swap1\n    tag_193:\n      dup3\n      dup3\n      lt\n      iszero\n      tag_194\n      jumpi\n      dup4\n      dup3\n      swap1\n      0x00\n      mstore\n      keccak256(0x00, 0x20)\n      swap1\n      0x02\n      mul\n      add\n      mload(0x40)\n      dup1\n      0x40\n      add\n      0x40\n      mstore\n      swap1\n      dup2\n      0x00\n      dup3\n      add\n      0x00\n      swap1\n      sload\n      swap1\n      0x0100\n      exp\n      swap1\n      div\n      0xffffffffffffffffffffffffffffffffffffffff\n      and\n      0xffffffffffffffffffffffffffffffffffffffff\n      and\n      0xffffffffffffffffffffffffffffffffffffffff\n      and\n      dup2\n      mstore\n      0x20\n      add\n      0x01\n      dup3\n      add\n      sload\n      dup2\n      mstore\n      pop\n      pop\n      dup2\n      mstore\n      0x20\n      add\n      swap1\n      0x01\n      add\n      swap1\n      jump(tag_193)\n    tag_194:\n      pop\n      pop\n      pop\n      pop\n      swap1\n      pop\n        /* \"subasta2.sol\":2139:2238  function mostrarOfertas() external view returns (Oferta[] memory) {... */\n      swap1\n      jump\t// out\n        /* \"subasta2.sol\":116:139  uint public tiempoFinal */\n    tag_74:\n      sload(0x01)\n      dup2\n      jump\t// out\n        /* \"subasta2.sol\":246:282  uint public porcentajeIncremento = 5 */\n    tag_78:\n      sload(0x03)\n      dup2\n      jump\t// out\n        /* \"subasta2.sol\":146:190  uint public duracionSubasta = 10 * 1 minutes */\n    tag_82:\n      sload(0x02)\n      dup2\n      jump\t// out\n        /* \"#utility.yul\":7:97   */\n    tag_196:\n        /* \"#utility.yul\":41:48   */\n      0x00\n        /* \"#utility.yul\":84:89   */\n      dup2\n        /* \"#utility.yul\":77:90   */\n      iszero\n        /* \"#utility.yul\":70:91   */\n      iszero\n        /* \"#utility.yul\":59:91   */\n      swap1\n      pop\n        /* \"#utility.yul\":7:97   */\n      swap2\n      swap1\n      pop\n      jump\t// out\n        /* \"#utility.yul\":103:212   */\n    tag_197:\n        /* \"#utility.yul\":184:205   */\n      tag_241\n        /* \"#utility.yul\":199:204   */\n      dup2\n        /* \"#utility.yul\":184:205   */\n      tag_196\n      jump\t// in\n    tag_241:\n        /* \"#utility.yul\":179:182   */\n      dup3\n        /* \"#utility.yul\":172:206   */\n      mstore\n        /* \"#utility.yul\":103:212   */\n      pop\n      pop\n      jump\t// out\n        /* \"#utility.yul\":218:428   */\n    tag_27:\n        /* \"#utility.yul\":305:309   */\n      0x00\n        /* \"#utility.yul\":343:345   */\n      0x20\n        /* \"#utility.yul\":332:341   */\n      dup3\n        /* \"#utility.yul\":328:346   */\n      add\n        /* \"#utility.yul\":320:346   */\n      swap1\n      pop\n        /* \"#utility.yul\":356:421   */\n      tag_243\n        /* \"#utility.yul\":418:419   */\n      0x00\n        /* \"#utility.yul\":407:416   */\n      dup4\n        /* \"#utility.yul\":403:420   */\n      add\n        /* \"#utility.yul\":394:400   */\n      dup5\n        /* \"#utility.yul\":356:421   */\n      tag_197\n      jump\t// in\n    tag_243:\n        /* \"#utility.yul\":218:428   */\n      swap3\n      swap2\n      pop\n      pop\n      jump\t// out\n        /* \"#utility.yul\":434:560   */\n    tag_198:\n        /* \"#utility.yul\":471:478   */\n      0x00\n        /* \"#utility.yul\":511:553   */\n      0xffffffffffffffffffffffffffffffffffffffff\n        /* \"#utility.yul\":504:509   */\n      dup3\n        /* \"#utility.yul\":500:554   */\n      and\n        /* \"#utility.yul\":489:554   */\n      swap1\n      pop\n        /* \"#utility.yul\":434:560   */\n      swap2\n      swap1\n      pop\n      jump\t// out\n        /* \"#utility.yul\":566:662   */\n    tag_199:\n        /* \"#utility.yul\":603:610   */\n      0x00\n        /* \"#utility.yul\":632:656   */\n      tag_246\n        /* \"#utility.yul\":650:655   */\n      dup3\n        /* \"#utility.yul\":632:656   */\n      tag_198\n      jump\t// in\n    tag_246:\n        /* \"#utility.yul\":621:656   */\n      swap1\n      pop\n        /* \"#utility.yul\":566:662   */\n      swap2\n      swap1\n      pop\n      jump\t// out\n        /* \"#utility.yul\":668:786   */\n    tag_200:\n        /* \"#utility.yul\":755:779   */\n      tag_248\n        /* \"#utility.yul\":773:778   */\n      dup2\n        /* \"#utility.yul\":755:779   */\n      tag_199\n      jump\t// in\n    tag_248:\n        /* \"#utility.yul\":750:753   */\n      dup3\n        /* \"#utility.yul\":743:780   */\n      mstore\n        /* \"#utility.yul\":668:786   */\n      pop\n      pop\n      jump\t// out\n        /* \"#utility.yul\":792:1014   */\n    tag_32:\n        /* \"#utility.yul\":885:889   */\n      0x00\n        /* \"#utility.yul\":923:925   */\n      0x20\n        /* \"#utility.yul\":912:921   */\n      dup3\n        /* \"#utility.yul\":908:926   */\n      add\n        /* \"#utility.yul\":900:926   */\n      swap1\n      pop\n        /* \"#utility.yul\":936:1007   */\n      tag_250\n        /* \"#utility.yul\":1004:1005   */\n      0x00\n        /* \"#utility.yul\":993:1002   */\n      dup4\n        /* \"#utility.yul\":989:1006   */\n      add\n        /* \"#utility.yul\":980:986   */\n      dup5\n        /* \"#utility.yul\":936:1007   */\n      tag_200\n      jump\t// in\n    tag_250:\n        /* \"#utility.yul\":792:1014   */\n      swap3\n      swap2\n      pop\n      pop\n      jump\t// out\n        /* \"#utility.yul\":1101:1218   */\n    tag_202:\n        /* \"#utility.yul\":1210:1211   */\n      0x00\n        /* \"#utility.yul\":1207:1208   */\n      dup1\n        /* \"#utility.yul\":1200:1212   */\n      revert\n        /* \"#utility.yul\":1347:1424   */\n    tag_204:\n        /* \"#utility.yul\":1384:1391   */\n      0x00\n        /* \"#utility.yul\":1413:1418   */\n      dup2\n        /* \"#utility.yul\":1402:1418   */\n      swap1\n      pop\n        /* \"#utility.yul\":1347:1424   */\n      swap2\n      swap1\n      pop\n      jump\t// out\n        /* \"#utility.yul\":1430:1552   */\n    tag_205:\n        /* \"#utility.yul\":1503:1527   */\n      tag_256\n        /* \"#utility.yul\":1521:1526   */\n      dup2\n        /* \"#utility.yul\":1503:1527   */\n      tag_204\n      jump\t// in\n    tag_256:\n        /* \"#utility.yul\":1496:1501   */\n      dup2\n        /* \"#utility.yul\":1493:1528   */\n      eq\n        /* \"#utility.yul\":1483:1546   */\n      tag_257\n      jumpi\n        /* \"#utility.yul\":1542:1543   */\n      0x00\n        /* \"#utility.yul\":1539:1540   */\n      dup1\n        /* \"#utility.yul\":1532:1544   */\n      revert\n        /* \"#utility.yul\":1483:1546   */\n    tag_257:\n        /* \"#utility.yul\":1430:1552   */\n      pop\n      jump\t// out\n        /* \"#utility.yul\":1558:1697   */\n    tag_206:\n        /* \"#utility.yul\":1604:1609   */\n      0x00\n        /* \"#utility.yul\":1642:1648   */\n      dup2\n        /* \"#utility.yul\":1629:1649   */\n      calldataload\n        /* \"#utility.yul\":1620:1649   */\n      swap1\n      pop\n        /* \"#utility.yul\":1658:1691   */\n      tag_259\n        /* \"#utility.yul\":1685:1690   */\n      dup2\n        /* \"#utility.yul\":1658:1691   */\n      tag_205\n      jump\t// in\n    tag_259:\n        /* \"#utility.yul\":1558:1697   */\n      swap3\n      swap2\n      pop\n      pop\n      jump\t// out\n        /* \"#utility.yul\":1703:2032   */\n    tag_38:\n        /* \"#utility.yul\":1762:1768   */\n      0x00\n        /* \"#utility.yul\":1811:1813   */\n      0x20\n        /* \"#utility.yul\":1799:1808   */\n      dup3\n        /* \"#utility.yul\":1790:1797   */\n      dup5\n        /* \"#utility.yul\":1786:1809   */\n      sub\n        /* \"#utility.yul\":1782:1814   */\n      slt\n        /* \"#utility.yul\":1779:1898   */\n      iszero\n      tag_261\n      jumpi\n        /* \"#utility.yul\":1817:1896   */\n      tag_262\n      tag_202\n      jump\t// in\n    tag_262:\n        /* \"#utility.yul\":1779:1898   */\n    tag_261:\n        /* \"#utility.yul\":1937:1938   */\n      0x00\n        /* \"#utility.yul\":1962:2015   */\n      tag_263\n        /* \"#utility.yul\":2007:2014   */\n      dup5\n        /* \"#utility.yul\":1998:2004   */\n      dup3\n        /* \"#utility.yul\":1987:1996   */\n      dup6\n        /* \"#utility.yul\":1983:2005   */\n      add\n        /* \"#utility.yul\":1962:2015   */\n      tag_206\n      jump\t// in\n    tag_263:\n        /* \"#utility.yul\":1952:2015   */\n      swap2\n      pop\n        /* \"#utility.yul\":1908:2025   */\n      pop\n        /* \"#utility.yul\":1703:2032   */\n      swap3\n      swap2\n      pop\n      pop\n      jump\t// out\n        /* \"#utility.yul\":2038:2156   */\n    tag_207:\n        /* \"#utility.yul\":2125:2149   */\n      tag_265\n        /* \"#utility.yul\":2143:2148   */\n      dup2\n        /* \"#utility.yul\":2125:2149   */\n      tag_204\n      jump\t// in\n    tag_265:\n        /* \"#utility.yul\":2120:2123   */\n      dup3\n        /* \"#utility.yul\":2113:2150   */\n      mstore\n        /* \"#utility.yul\":2038:2156   */\n      pop\n      pop\n      jump\t// out\n        /* \"#utility.yul\":2162:2494   */\n    tag_41:\n        /* \"#utility.yul\":2283:2287   */\n      0x00\n        /* \"#utility.yul\":2321:2323   */\n      0x40\n        /* \"#utility.yul\":2310:2319   */\n      dup3\n        /* \"#utility.yul\":2306:2324   */\n      add\n        /* \"#utility.yul\":2298:2324   */\n      swap1\n      pop\n        /* \"#utility.yul\":2334:2405   */\n      tag_267\n        /* \"#utility.yul\":2402:2403   */\n      0x00\n        /* \"#utility.yul\":2391:2400   */\n      dup4\n        /* \"#utility.yul\":2387:2404   */\n      add\n        /* \"#utility.yul\":2378:2384   */\n      dup6\n        /* \"#utility.yul\":2334:2405   */\n      tag_200\n      jump\t// in\n    tag_267:\n        /* \"#utility.yul\":2415:2487   */\n      tag_268\n        /* \"#utility.yul\":2483:2485   */\n      0x20\n        /* \"#utility.yul\":2472:2481   */\n      dup4\n        /* \"#utility.yul\":2468:2486   */\n      add\n        /* \"#utility.yul\":2459:2465   */\n      dup5\n        /* \"#utility.yul\":2415:2487   */\n      tag_207\n      jump\t// in\n    tag_268:\n        /* \"#utility.yul\":2162:2494   */\n      swap4\n      swap3\n      pop\n      pop\n      pop\n      jump\t// out\n        /* \"#utility.yul\":2500:2622   */\n    tag_208:\n        /* \"#utility.yul\":2573:2597   */\n      tag_270\n        /* \"#utility.yul\":2591:2596   */\n      dup2\n        /* \"#utility.yul\":2573:2597   */\n      tag_199\n      jump\t// in\n    tag_270:\n        /* \"#utility.yul\":2566:2571   */\n      dup2\n        /* \"#utility.yul\":2563:2598   */\n      eq\n        /* \"#utility.yul\":2553:2616   */\n      tag_271\n      jumpi\n        /* \"#utility.yul\":2612:2613   */\n      0x00\n        /* \"#utility.yul\":2609:2610   */\n      dup1\n        /* \"#utility.yul\":2602:2614   */\n      revert\n        /* \"#utility.yul\":2553:2616   */\n    tag_271:\n        /* \"#utility.yul\":2500:2622   */\n      pop\n      jump\t// out\n        /* \"#utility.yul\":2628:2767   */\n    tag_209:\n        /* \"#utility.yul\":2674:2679   */\n      0x00\n        /* \"#utility.yul\":2712:2718   */\n      dup2\n        /* \"#utility.yul\":2699:2719   */\n      calldataload\n        /* \"#utility.yul\":2690:2719   */\n      swap1\n      pop\n        /* \"#utility.yul\":2728:2761   */\n      tag_273\n        /* \"#utility.yul\":2755:2760   */\n      dup2\n        /* \"#utility.yul\":2728:2761   */\n      tag_208\n      jump\t// in\n    tag_273:\n        /* \"#utility.yul\":2628:2767   */\n      swap3\n      swap2\n      pop\n      pop\n      jump\t// out\n        /* \"#utility.yul\":2773:3102   */\n    tag_45:\n        /* \"#utility.yul\":2832:2838   */\n      0x00\n        /* \"#utility.yul\":2881:2883   */\n      0x20\n        /* \"#utility.yul\":2869:2878   */\n      dup3\n        /* \"#utility.yul\":2860:2867   */\n      dup5\n        /* \"#utility.yul\":2856:2879   */\n      sub\n        /* \"#utility.yul\":2852:2884   */\n      slt\n        /* \"#utility.yul\":2849:2968   */\n      iszero\n      tag_275\n      jumpi\n        /* \"#utility.yul\":2887:2966   */\n      tag_276\n      tag_202\n      jump\t// in\n    tag_276:\n        /* \"#utility.yul\":2849:2968   */\n    tag_275:\n        /* \"#utility.yul\":3007:3008   */\n      0x00\n        /* \"#utility.yul\":3032:3085   */\n      tag_277\n        /* \"#utility.yul\":3077:3084   */\n      dup5\n        /* \"#utility.yul\":3068:3074   */\n      dup3\n        /* \"#utility.yul\":3057:3066   */\n      dup6\n        /* \"#utility.yul\":3053:3075   */\n      add\n        /* \"#utility.yul\":3032:3085   */\n      tag_209\n      jump\t// in\n    tag_277:\n        /* \"#utility.yul\":3022:3085   */\n      swap2\n      pop\n        /* \"#utility.yul\":2978:3095   */\n      pop\n        /* \"#utility.yul\":2773:3102   */\n      swap3\n      swap2\n      pop\n      pop\n      jump\t// out\n        /* \"#utility.yul\":3108:3330   */\n    tag_48:\n        /* \"#utility.yul\":3201:3205   */\n      0x00\n        /* \"#utility.yul\":3239:3241   */\n      0x20\n        /* \"#utility.yul\":3228:3237   */\n      dup3\n        /* \"#utility.yul\":3224:3242   */\n      add\n        /* \"#utility.yul\":3216:3242   */\n      swap1\n      pop\n        /* \"#utility.yul\":3252:3323   */\n      tag_279\n        /* \"#utility.yul\":3320:3321   */\n      0x00\n        /* \"#utility.yul\":3309:3318   */\n      dup4\n        /* \"#utility.yul\":3305:3322   */\n      add\n        /* \"#utility.yul\":3296:3302   */\n      dup5\n        /* \"#utility.yul\":3252:3323   */\n      tag_207\n      jump\t// in\n    tag_279:\n        /* \"#utility.yul\":3108:3330   */\n      swap3\n      swap2\n      pop\n      pop\n      jump\t// out\n        /* \"#utility.yul\":3336:3472   */\n    tag_210:\n        /* \"#utility.yul\":3425:3431   */\n      0x00\n        /* \"#utility.yul\":3459:3464   */\n      dup2\n        /* \"#utility.yul\":3453:3465   */\n      mload\n        /* \"#utility.yul\":3443:3465   */\n      swap1\n      pop\n        /* \"#utility.yul\":3336:3472   */\n      swap2\n      swap1\n      pop\n      jump\t// out\n        /* \"#utility.yul\":3478:3684   */\n    tag_211:\n        /* \"#utility.yul\":3599:3610   */\n      0x00\n        /* \"#utility.yul\":3633:3639   */\n      dup3\n        /* \"#utility.yul\":3628:3631   */\n      dup3\n        /* \"#utility.yul\":3621:3640   */\n      mstore\n        /* \"#utility.yul\":3673:3677   */\n      0x20\n        /* \"#utility.yul\":3668:3671   */\n      dup3\n        /* \"#utility.yul\":3664:3678   */\n      add\n        /* \"#utility.yul\":3649:3678   */\n      swap1\n      pop\n        /* \"#utility.yul\":3478:3684   */\n      swap3\n      swap2\n      pop\n      pop\n      jump\t// out\n        /* \"#utility.yul\":3690:3844   */\n    tag_212:\n        /* \"#utility.yul\":3779:3783   */\n      0x00\n        /* \"#utility.yul\":3802:3805   */\n      dup2\n        /* \"#utility.yul\":3794:3805   */\n      swap1\n      pop\n        /* \"#utility.yul\":3832:3836   */\n      0x20\n        /* \"#utility.yul\":3827:3830   */\n      dup3\n        /* \"#utility.yul\":3823:3837   */\n      add\n        /* \"#utility.yul\":3815:3837   */\n      swap1\n      pop\n        /* \"#utility.yul\":3690:3844   */\n      swap2\n      swap1\n      pop\n      jump\t// out\n        /* \"#utility.yul\":3850:3958   */\n    tag_213:\n        /* \"#utility.yul\":3927:3951   */\n      tag_284\n        /* \"#utility.yul\":3945:3950   */\n      dup2\n        /* \"#utility.yul\":3927:3951   */\n      tag_199\n      jump\t// in\n    tag_284:\n        /* \"#utility.yul\":3922:3925   */\n      dup3\n        /* \"#utility.yul\":3915:3952   */\n      mstore\n        /* \"#utility.yul\":3850:3958   */\n      pop\n      pop\n      jump\t// out\n        /* \"#utility.yul\":3964:4072   */\n    tag_214:\n        /* \"#utility.yul\":4041:4065   */\n      tag_286\n        /* \"#utility.yul\":4059:4064   */\n      dup2\n        /* \"#utility.yul\":4041:4065   */\n      tag_204\n      jump\t// in\n    tag_286:\n        /* \"#utility.yul\":4036:4039   */\n      dup3\n        /* \"#utility.yul\":4029:4066   */\n      mstore\n        /* \"#utility.yul\":3964:4072   */\n      pop\n      pop\n      jump\t// out\n        /* \"#utility.yul\":4132:4632   */\n    tag_215:\n        /* \"#utility.yul\":4263:4267   */\n      0x40\n        /* \"#utility.yul\":4258:4261   */\n      dup3\n        /* \"#utility.yul\":4254:4268   */\n      add\n        /* \"#utility.yul\":4355:4359   */\n      0x00\n        /* \"#utility.yul\":4348:4353   */\n      dup3\n        /* \"#utility.yul\":4344:4360   */\n      add\n        /* \"#utility.yul\":4338:4361   */\n      mload\n        /* \"#utility.yul\":4374:4437   */\n      tag_288\n        /* \"#utility.yul\":4431:4435   */\n      0x00\n        /* \"#utility.yul\":4426:4429   */\n      dup6\n        /* \"#utility.yul\":4422:4436   */\n      add\n        /* \"#utility.yul\":4408:4420   */\n      dup3\n        /* \"#utility.yul\":4374:4437   */\n      tag_213\n      jump\t// in\n    tag_288:\n        /* \"#utility.yul\":4278:4447   */\n      pop\n        /* \"#utility.yul\":4533:4537   */\n      0x20\n        /* \"#utility.yul\":4526:4531   */\n      dup3\n        /* \"#utility.yul\":4522:4538   */\n      add\n        /* \"#utility.yul\":4516:4539   */\n      mload\n        /* \"#utility.yul\":4552:4615   */\n      tag_289\n        /* \"#utility.yul\":4609:4613   */\n      0x20\n        /* \"#utility.yul\":4604:4607   */\n      dup6\n        /* \"#utility.yul\":4600:4614   */\n      add\n        /* \"#utility.yul\":4586:4598   */\n      dup3\n        /* \"#utility.yul\":4552:4615   */\n      tag_214\n      jump\t// in\n    tag_289:\n        /* \"#utility.yul\":4457:4625   */\n      pop\n        /* \"#utility.yul\":4232:4632   */\n      pop\n        /* \"#utility.yul\":4132:4632   */\n      pop\n      pop\n      jump\t// out\n        /* \"#utility.yul\":4638:4905   */\n    tag_216:\n        /* \"#utility.yul\":4751:4761   */\n      0x00\n        /* \"#utility.yul\":4772:4862   */\n      tag_291\n        /* \"#utility.yul\":4858:4861   */\n      dup4\n        /* \"#utility.yul\":4850:4856   */\n      dup4\n        /* \"#utility.yul\":4772:4862   */\n      tag_215\n      jump\t// in\n    tag_291:\n        /* \"#utility.yul\":4894:4898   */\n      0x40\n        /* \"#utility.yul\":4889:4892   */\n      dup4\n        /* \"#utility.yul\":4885:4899   */\n      add\n        /* \"#utility.yul\":4871:4899   */\n      swap1\n      pop\n        /* \"#utility.yul\":4638:4905   */\n      swap3\n      swap2\n      pop\n      pop\n      jump\t// out\n        /* \"#utility.yul\":4911:5046   */\n    tag_217:\n        /* \"#utility.yul\":5003:5007   */\n      0x00\n        /* \"#utility.yul\":5035:5039   */\n      0x20\n        /* \"#utility.yul\":5030:5033   */\n      dup3\n        /* \"#utility.yul\":5026:5040   */\n      add\n        /* \"#utility.yul\":5018:5040   */\n      swap1\n      pop\n        /* \"#utility.yul\":4911:5046   */\n      swap2\n      swap1\n      pop\n      jump\t// out\n        /* \"#utility.yul\":5110:6018   */\n    tag_218:\n        /* \"#utility.yul\":5273:5276   */\n      0x00\n        /* \"#utility.yul\":5302:5378   */\n      tag_294\n        /* \"#utility.yul\":5372:5377   */\n      dup3\n        /* \"#utility.yul\":5302:5378   */\n      tag_210\n      jump\t// in\n    tag_294:\n        /* \"#utility.yul\":5394:5502   */\n      tag_295\n        /* \"#utility.yul\":5495:5501   */\n      dup2\n        /* \"#utility.yul\":5490:5493   */\n      dup6\n        /* \"#utility.yul\":5394:5502   */\n      tag_211\n      jump\t// in\n    tag_295:\n        /* \"#utility.yul\":5387:5502   */\n      swap4\n      pop\n        /* \"#utility.yul\":5526:5604   */\n      tag_296\n        /* \"#utility.yul\":5598:5603   */\n      dup4\n        /* \"#utility.yul\":5526:5604   */\n      tag_212\n      jump\t// in\n    tag_296:\n        /* \"#utility.yul\":5627:5634   */\n      dup1\n        /* \"#utility.yul\":5658:5659   */\n      0x00\n        /* \"#utility.yul\":5643:5993   */\n    tag_297:\n        /* \"#utility.yul\":5668:5674   */\n      dup4\n        /* \"#utility.yul\":5665:5666   */\n      dup2\n        /* \"#utility.yul\":5662:5675   */\n      lt\n        /* \"#utility.yul\":5643:5993   */\n      iszero\n      tag_299\n      jumpi\n        /* \"#utility.yul\":5744:5750   */\n      dup2\n        /* \"#utility.yul\":5738:5751   */\n      mload\n        /* \"#utility.yul\":5771:5878   */\n      tag_300\n        /* \"#utility.yul\":5874:5877   */\n      dup9\n        /* \"#utility.yul\":5859:5872   */\n      dup3\n        /* \"#utility.yul\":5771:5878   */\n      tag_216\n      jump\t// in\n    tag_300:\n        /* \"#utility.yul\":5764:5878   */\n      swap8\n      pop\n        /* \"#utility.yul\":5901:5983   */\n      tag_301\n        /* \"#utility.yul\":5976:5982   */\n      dup4\n        /* \"#utility.yul\":5901:5983   */\n      tag_217\n      jump\t// in\n    tag_301:\n        /* \"#utility.yul\":5891:5983   */\n      swap3\n      pop\n        /* \"#utility.yul\":5703:5993   */\n      pop\n        /* \"#utility.yul\":5690:5691   */\n      0x01\n        /* \"#utility.yul\":5687:5688   */\n      dup2\n        /* \"#utility.yul\":5683:5692   */\n      add\n        /* \"#utility.yul\":5678:5692   */\n      swap1\n      pop\n        /* \"#utility.yul\":5643:5993   */\n      jump(tag_297)\n    tag_299:\n        /* \"#utility.yul\":5647:5661   */\n      pop\n        /* \"#utility.yul\":6009:6012   */\n      dup6\n        /* \"#utility.yul\":6002:6012   */\n      swap4\n      pop\n        /* \"#utility.yul\":5278:6018   */\n      pop\n      pop\n      pop\n        /* \"#utility.yul\":5110:6018   */\n      swap3\n      swap2\n      pop\n      pop\n      jump\t// out\n        /* \"#utility.yul\":6024:6485   */\n    tag_71:\n        /* \"#utility.yul\":6211:6215   */\n      0x00\n        /* \"#utility.yul\":6249:6251   */\n      0x20\n        /* \"#utility.yul\":6238:6247   */\n      dup3\n        /* \"#utility.yul\":6234:6252   */\n      add\n        /* \"#utility.yul\":6226:6252   */\n      swap1\n      pop\n        /* \"#utility.yul\":6298:6307   */\n      dup2\n        /* \"#utility.yul\":6292:6296   */\n      dup2\n        /* \"#utility.yul\":6288:6308   */\n      sub\n        /* \"#utility.yul\":6284:6285   */\n      0x00\n        /* \"#utility.yul\":6273:6282   */\n      dup4\n        /* \"#utility.yul\":6269:6286   */\n      add\n        /* \"#utility.yul\":6262:6309   */\n      mstore\n        /* \"#utility.yul\":6326:6478   */\n      tag_303\n        /* \"#utility.yul\":6473:6477   */\n      dup2\n        /* \"#utility.yul\":6464:6470   */\n      dup5\n        /* \"#utility.yul\":6326:6478   */\n      tag_218\n      jump\t// in\n    tag_303:\n        /* \"#utility.yul\":6318:6478   */\n      swap1\n      pop\n        /* \"#utility.yul\":6024:6485   */\n      swap3\n      swap2\n      pop\n      pop\n      jump\t// out\n        /* \"#utility.yul\":6491:6660   */\n    tag_219:\n        /* \"#utility.yul\":6575:6586   */\n      0x00\n        /* \"#utility.yul\":6609:6615   */\n      dup3\n        /* \"#utility.yul\":6604:6607   */\n      dup3\n        /* \"#utility.yul\":6597:6616   */\n      mstore\n        /* \"#utility.yul\":6649:6653   */\n      0x20\n        /* \"#utility.yul\":6644:6647   */\n      dup3\n        /* \"#utility.yul\":6640:6654   */\n      add\n        /* \"#utility.yul\":6625:6654   */\n      swap1\n      pop\n        /* \"#utility.yul\":6491:6660   */\n      swap3\n      swap2\n      pop\n      pop\n      jump\t// out\n        /* \"#utility.yul\":6666:6898   */\n    tag_220:\n        /* \"#utility.yul\":6806:6840   */\n      0x536f6c6f20656c2073756261737461646f7220707565646520656a6563757461\n        /* \"#utility.yul\":6802:6803   */\n      0x00\n        /* \"#utility.yul\":6794:6800   */\n      dup3\n        /* \"#utility.yul\":6790:6804   */\n      add\n        /* \"#utility.yul\":6783:6841   */\n      mstore\n        /* \"#utility.yul\":6875:6890   */\n      0x72206573746120616363696f6e00000000000000000000000000000000000000\n        /* \"#utility.yul\":6870:6872   */\n      0x20\n        /* \"#utility.yul\":6862:6868   */\n      dup3\n        /* \"#utility.yul\":6858:6873   */\n      add\n        /* \"#utility.yul\":6851:6891   */\n      mstore\n        /* \"#utility.yul\":6666:6898   */\n      pop\n      jump\t// out\n        /* \"#utility.yul\":6904:7270   */\n    tag_221:\n        /* \"#utility.yul\":7046:7049   */\n      0x00\n        /* \"#utility.yul\":7067:7134   */\n      tag_307\n        /* \"#utility.yul\":7131:7133   */\n      0x2d\n        /* \"#utility.yul\":7126:7129   */\n      dup4\n        /* \"#utility.yul\":7067:7134   */\n      tag_219\n      jump\t// in\n    tag_307:\n        /* \"#utility.yul\":7060:7134   */\n      swap2\n      pop\n        /* \"#utility.yul\":7143:7236   */\n      tag_308\n        /* \"#utility.yul\":7232:7235   */\n      dup3\n        /* \"#utility.yul\":7143:7236   */\n      tag_220\n      jump\t// in\n    tag_308:\n        /* \"#utility.yul\":7261:7263   */\n      0x40\n        /* \"#utility.yul\":7256:7259   */\n      dup3\n        /* \"#utility.yul\":7252:7264   */\n      add\n        /* \"#utility.yul\":7245:7264   */\n      swap1\n      pop\n        /* \"#utility.yul\":6904:7270   */\n      swap2\n      swap1\n      pop\n      jump\t// out\n        /* \"#utility.yul\":7276:7695   */\n    tag_87:\n        /* \"#utility.yul\":7442:7446   */\n      0x00\n        /* \"#utility.yul\":7480:7482   */\n      0x20\n        /* \"#utility.yul\":7469:7478   */\n      dup3\n        /* \"#utility.yul\":7465:7483   */\n      add\n        /* \"#utility.yul\":7457:7483   */\n      swap1\n      pop\n        /* \"#utility.yul\":7529:7538   */\n      dup2\n        /* \"#utility.yul\":7523:7527   */\n      dup2\n        /* \"#utility.yul\":7519:7539   */\n      sub\n        /* \"#utility.yul\":7515:7516   */\n      0x00\n        /* \"#utility.yul\":7504:7513   */\n      dup4\n        /* \"#utility.yul\":7500:7517   */\n      add\n        /* \"#utility.yul\":7493:7540   */\n      mstore\n        /* \"#utility.yul\":7557:7688   */\n      tag_310\n        /* \"#utility.yul\":7683:7687   */\n      dup2\n        /* \"#utility.yul\":7557:7688   */\n      tag_221\n      jump\t// in\n    tag_310:\n        /* \"#utility.yul\":7549:7688   */\n      swap1\n      pop\n        /* \"#utility.yul\":7276:7695   */\n      swap2\n      swap1\n      pop\n      jump\t// out\n        /* \"#utility.yul\":7701:7878   */\n    tag_222:\n        /* \"#utility.yul\":7841:7870   */\n      0x4c6120737562617374612079612068612066696e616c697a61646f0000000000\n        /* \"#utility.yul\":7837:7838   */\n      0x00\n        /* \"#utility.yul\":7829:7835   */\n      dup3\n        /* \"#utility.yul\":7825:7839   */\n      add\n        /* \"#utility.yul\":7818:7871   */\n      mstore\n        /* \"#utility.yul\":7701:7878   */\n      pop\n      jump\t// out\n        /* \"#utility.yul\":7884:8250   */\n    tag_223:\n        /* \"#utility.yul\":8026:8029   */\n      0x00\n        /* \"#utility.yul\":8047:8114   */\n      tag_313\n        /* \"#utility.yul\":8111:8113   */\n      0x1b\n        /* \"#utility.yul\":8106:8109   */\n      dup4\n        /* \"#utility.yul\":8047:8114   */\n      tag_219\n      jump\t// in\n    tag_313:\n        /* \"#utility.yul\":8040:8114   */\n      swap2\n      pop\n        /* \"#utility.yul\":8123:8216   */\n      tag_314\n        /* \"#utility.yul\":8212:8215   */\n      dup3\n        /* \"#utility.yul\":8123:8216   */\n      tag_222\n      jump\t// in\n    tag_314:\n        /* \"#utility.yul\":8241:8243   */\n      0x20\n        /* \"#utility.yul\":8236:8239   */\n      dup3\n        /* \"#utility.yul\":8232:8244   */\n      add\n        /* \"#utility.yul\":8225:8244   */\n      swap1\n      pop\n        /* \"#utility.yul\":7884:8250   */\n      swap2\n      swap1\n      pop\n      jump\t// out\n        /* \"#utility.yul\":8256:8675   */\n    tag_92:\n        /* \"#utility.yul\":8422:8426   */\n      0x00\n        /* \"#utility.yul\":8460:8462   */\n      0x20\n        /* \"#utility.yul\":8449:8458   */\n      dup3\n        /* \"#utility.yul\":8445:8463   */\n      add\n        /* \"#utility.yul\":8437:8463   */\n      swap1\n      pop\n        /* \"#utility.yul\":8509:8518   */\n      dup2\n        /* \"#utility.yul\":8503:8507   */\n      dup2\n        /* \"#utility.yul\":8499:8519   */\n      sub\n        /* \"#utility.yul\":8495:8496   */\n      0x00\n        /* \"#utility.yul\":8484:8493   */\n      dup4\n        /* \"#utility.yul\":8480:8497   */\n      add\n        /* \"#utility.yul\":8473:8520   */\n      mstore\n        /* \"#utility.yul\":8537:8668   */\n      tag_316\n        /* \"#utility.yul\":8663:8667   */\n      dup2\n        /* \"#utility.yul\":8537:8668   */\n      tag_223\n      jump\t// in\n    tag_316:\n        /* \"#utility.yul\":8529:8668   */\n      swap1\n      pop\n        /* \"#utility.yul\":8256:8675   */\n      swap2\n      swap1\n      pop\n      jump\t// out\n        /* \"#utility.yul\":8681:8859   */\n    tag_224:\n        /* \"#utility.yul\":8821:8851   */\n      0x4c6120737562617374612061756e206573746120656e20637572736f00000000\n        /* \"#utility.yul\":8817:8818   */\n      0x00\n        /* \"#utility.yul\":8809:8815   */\n      dup3\n        /* \"#utility.yul\":8805:8819   */\n      add\n        /* \"#utility.yul\":8798:8852   */\n      mstore\n        /* \"#utility.yul\":8681:8859   */\n      pop\n      jump\t// out\n        /* \"#utility.yul\":8865:9231   */\n    tag_225:\n        /* \"#utility.yul\":9007:9010   */\n      0x00\n        /* \"#utility.yul\":9028:9095   */\n      tag_319\n        /* \"#utility.yul\":9092:9094   */\n      0x1c\n        /* \"#utility.yul\":9087:9090   */\n      dup4\n        /* \"#utility.yul\":9028:9095   */\n      tag_219\n      jump\t// in\n    tag_319:\n        /* \"#utility.yul\":9021:9095   */\n      swap2\n      pop\n        /* \"#utility.yul\":9104:9197   */\n      tag_320\n        /* \"#utility.yul\":9193:9196   */\n      dup3\n        /* \"#utility.yul\":9104:9197   */\n      tag_224\n      jump\t// in\n    tag_320:\n        /* \"#utility.yul\":9222:9224   */\n      0x20\n        /* \"#utility.yul\":9217:9220   */\n      dup3\n        /* \"#utility.yul\":9213:9225   */\n      add\n        /* \"#utility.yul\":9206:9225   */\n      swap1\n      pop\n        /* \"#utility.yul\":8865:9231   */\n      swap2\n      swap1\n      pop\n      jump\t// out\n        /* \"#utility.yul\":9237:9656   */\n    tag_96:\n        /* \"#utility.yul\":9403:9407   */\n      0x00\n        /* \"#utility.yul\":9441:9443   */\n      0x20\n        /* \"#utility.yul\":9430:9439   */\n      dup3\n        /* \"#utility.yul\":9426:9444   */\n      add\n        /* \"#utility.yul\":9418:9444   */\n      swap1\n      pop\n        /* \"#utility.yul\":9490:9499   */\n      dup2\n        /* \"#utility.yul\":9484:9488   */\n      dup2\n        /* \"#utility.yul\":9480:9500   */\n      sub\n        /* \"#utility.yul\":9476:9477   */\n      0x00\n        /* \"#utility.yul\":9465:9474   */\n      dup4\n        /* \"#utility.yul\":9461:9478   */\n      add\n        /* \"#utility.yul\":9454:9501   */\n      mstore\n        /* \"#utility.yul\":9518:9649   */\n      tag_322\n        /* \"#utility.yul\":9644:9648   */\n      dup2\n        /* \"#utility.yul\":9518:9649   */\n      tag_225\n      jump\t// in\n    tag_322:\n        /* \"#utility.yul\":9510:9649   */\n      swap1\n      pop\n        /* \"#utility.yul\":9237:9656   */\n      swap2\n      swap1\n      pop\n      jump\t// out\n        /* \"#utility.yul\":9662:9842   */\n    tag_226:\n        /* \"#utility.yul\":9710:9787   */\n      0x4e487b7100000000000000000000000000000000000000000000000000000000\n        /* \"#utility.yul\":9707:9708   */\n      0x00\n        /* \"#utility.yul\":9700:9788   */\n      mstore\n        /* \"#utility.yul\":9807:9811   */\n      0x11\n        /* \"#utility.yul\":9804:9805   */\n      0x04\n        /* \"#utility.yul\":9797:9812   */\n      mstore\n        /* \"#utility.yul\":9831:9835   */\n      0x24\n        /* \"#utility.yul\":9828:9829   */\n      0x00\n        /* \"#utility.yul\":9821:9836   */\n      revert\n        /* \"#utility.yul\":9848:10042   */\n    tag_99:\n        /* \"#utility.yul\":9888:9892   */\n      0x00\n        /* \"#utility.yul\":9908:9928   */\n      tag_325\n        /* \"#utility.yul\":9926:9927   */\n      dup3\n        /* \"#utility.yul\":9908:9928   */\n      tag_204\n      jump\t// in\n    tag_325:\n        /* \"#utility.yul\":9903:9928   */\n      swap2\n      pop\n        /* \"#utility.yul\":9942:9962   */\n      tag_326\n        /* \"#utility.yul\":9960:9961   */\n      dup4\n        /* \"#utility.yul\":9942:9962   */\n      tag_204\n      jump\t// in\n    tag_326:\n        /* \"#utility.yul\":9937:9962   */\n      swap3\n      pop\n        /* \"#utility.yul\":9986:9987   */\n      dup3\n        /* \"#utility.yul\":9983:9984   */\n      dup3\n        /* \"#utility.yul\":9979:9988   */\n      sub\n        /* \"#utility.yul\":9971:9988   */\n      swap1\n      pop\n        /* \"#utility.yul\":10010:10011   */\n      dup2\n        /* \"#utility.yul\":10004:10008   */\n      dup2\n        /* \"#utility.yul\":10001:10012   */\n      gt\n        /* \"#utility.yul\":9998:10035   */\n      iszero\n      tag_327\n      jumpi\n        /* \"#utility.yul\":10015:10033   */\n      tag_328\n      tag_226\n      jump\t// in\n    tag_328:\n        /* \"#utility.yul\":9998:10035   */\n    tag_327:\n        /* \"#utility.yul\":9848:10042   */\n      swap3\n      swap2\n      pop\n      pop\n      jump\t// out\n        /* \"#utility.yul\":10048:10228   */\n    tag_102:\n        /* \"#utility.yul\":10096:10173   */\n      0x4e487b7100000000000000000000000000000000000000000000000000000000\n        /* \"#utility.yul\":10093:10094   */\n      0x00\n        /* \"#utility.yul\":10086:10174   */\n      mstore\n        /* \"#utility.yul\":10193:10197   */\n      0x32\n        /* \"#utility.yul\":10190:10191   */\n      0x04\n        /* \"#utility.yul\":10183:10198   */\n      mstore\n        /* \"#utility.yul\":10217:10221   */\n      0x24\n        /* \"#utility.yul\":10214:10215   */\n      0x00\n        /* \"#utility.yul\":10207:10222   */\n      revert\n        /* \"#utility.yul\":10234:10644   */\n    tag_119:\n        /* \"#utility.yul\":10274:10281   */\n      0x00\n        /* \"#utility.yul\":10297:10317   */\n      tag_331\n        /* \"#utility.yul\":10315:10316   */\n      dup3\n        /* \"#utility.yul\":10297:10317   */\n      tag_204\n      jump\t// in\n    tag_331:\n        /* \"#utility.yul\":10292:10317   */\n      swap2\n      pop\n        /* \"#utility.yul\":10331:10351   */\n      tag_332\n        /* \"#utility.yul\":10349:10350   */\n      dup4\n        /* \"#utility.yul\":10331:10351   */\n      tag_204\n      jump\t// in\n    tag_332:\n        /* \"#utility.yul\":10326:10351   */\n      swap3\n      pop\n        /* \"#utility.yul\":10386:10387   */\n      dup3\n        /* \"#utility.yul\":10383:10384   */\n      dup3\n        /* \"#utility.yul\":10379:10388   */\n      mul\n        /* \"#utility.yul\":10408:10438   */\n      tag_333\n        /* \"#utility.yul\":10426:10437   */\n      dup2\n        /* \"#utility.yul\":10408:10438   */\n      tag_204\n      jump\t// in\n    tag_333:\n        /* \"#utility.yul\":10397:10438   */\n      swap2\n      pop\n        /* \"#utility.yul\":10587:10588   */\n      dup3\n        /* \"#utility.yul\":10578:10585   */\n      dup3\n        /* \"#utility.yul\":10574:10589   */\n      div\n        /* \"#utility.yul\":10571:10572   */\n      dup5\n        /* \"#utility.yul\":10568:10590   */\n      eq\n        /* \"#utility.yul\":10548:10549   */\n      dup4\n        /* \"#utility.yul\":10541:10550   */\n      iszero\n        /* \"#utility.yul\":10521:10604   */\n      or\n        /* \"#utility.yul\":10498:10637   */\n      tag_334\n      jumpi\n        /* \"#utility.yul\":10617:10635   */\n      tag_335\n      tag_226\n      jump\t// in\n    tag_335:\n        /* \"#utility.yul\":10498:10637   */\n    tag_334:\n        /* \"#utility.yul\":10282:10644   */\n      pop\n        /* \"#utility.yul\":10234:10644   */\n      swap3\n      swap2\n      pop\n      pop\n      jump\t// out\n        /* \"#utility.yul\":10650:10830   */\n    tag_227:\n        /* \"#utility.yul\":10698:10775   */\n      0x4e487b7100000000000000000000000000000000000000000000000000000000\n        /* \"#utility.yul\":10695:10696   */\n      0x00\n        /* \"#utility.yul\":10688:10776   */\n      mstore\n        /* \"#utility.yul\":10795:10799   */\n      0x12\n        /* \"#utility.yul\":10792:10793   */\n      0x04\n        /* \"#utility.yul\":10785:10800   */\n      mstore\n        /* \"#utility.yul\":10819:10823   */\n      0x24\n        /* \"#utility.yul\":10816:10817   */\n      0x00\n        /* \"#utility.yul\":10809:10824   */\n      revert\n        /* \"#utility.yul\":10836:11021   */\n    tag_121:\n        /* \"#utility.yul\":10876:10877   */\n      0x00\n        /* \"#utility.yul\":10893:10913   */\n      tag_338\n        /* \"#utility.yul\":10911:10912   */\n      dup3\n        /* \"#utility.yul\":10893:10913   */\n      tag_204\n      jump\t// in\n    tag_338:\n        /* \"#utility.yul\":10888:10913   */\n      swap2\n      pop\n        /* \"#utility.yul\":10927:10947   */\n      tag_339\n        /* \"#utility.yul\":10945:10946   */\n      dup4\n        /* \"#utility.yul\":10927:10947   */\n      tag_204\n      jump\t// in\n    tag_339:\n        /* \"#utility.yul\":10922:10947   */\n      swap3\n      pop\n        /* \"#utility.yul\":10966:10967   */\n      dup3\n        /* \"#utility.yul\":10956:10991   */\n      tag_340\n      jumpi\n        /* \"#utility.yul\":10971:10989   */\n      tag_341\n      tag_227\n      jump\t// in\n    tag_341:\n        /* \"#utility.yul\":10956:10991   */\n    tag_340:\n        /* \"#utility.yul\":11013:11014   */\n      dup3\n        /* \"#utility.yul\":11010:11011   */\n      dup3\n        /* \"#utility.yul\":11006:11015   */\n      div\n        /* \"#utility.yul\":11001:11015   */\n      swap1\n      pop\n        /* \"#utility.yul\":10836:11021   */\n      swap3\n      swap2\n      pop\n      pop\n      jump\t// out\n        /* \"#utility.yul\":11027:11218   */\n    tag_127:\n        /* \"#utility.yul\":11067:11070   */\n      0x00\n        /* \"#utility.yul\":11086:11106   */\n      tag_343\n        /* \"#utility.yul\":11104:11105   */\n      dup3\n        /* \"#utility.yul\":11086:11106   */\n      tag_204\n      jump\t// in\n    tag_343:\n        /* \"#utility.yul\":11081:11106   */\n      swap2\n      pop\n        /* \"#utility.yul\":11120:11140   */\n      tag_344\n        /* \"#utility.yul\":11138:11139   */\n      dup4\n        /* \"#utility.yul\":11120:11140   */\n      tag_204\n      jump\t// in\n    tag_344:\n        /* \"#utility.yul\":11115:11140   */\n      swap3\n      pop\n        /* \"#utility.yul\":11163:11164   */\n      dup3\n        /* \"#utility.yul\":11160:11161   */\n      dup3\n        /* \"#utility.yul\":11156:11165   */\n      add\n        /* \"#utility.yul\":11149:11165   */\n      swap1\n      pop\n        /* \"#utility.yul\":11184:11187   */\n      dup1\n        /* \"#utility.yul\":11181:11182   */\n      dup3\n        /* \"#utility.yul\":11178:11188   */\n      gt\n        /* \"#utility.yul\":11175:11211   */\n      iszero\n      tag_345\n      jumpi\n        /* \"#utility.yul\":11191:11209   */\n      tag_346\n      tag_226\n      jump\t// in\n    tag_346:\n        /* \"#utility.yul\":11175:11211   */\n    tag_345:\n        /* \"#utility.yul\":11027:11218   */\n      swap3\n      swap2\n      pop\n      pop\n      jump\t// out\n        /* \"#utility.yul\":11224:11468   */\n    tag_228:\n        /* \"#utility.yul\":11364:11398   */\n      0x4c61206f66657274612064656265207375706572617220656e20616c206d656e\n        /* \"#utility.yul\":11360:11361   */\n      0x00\n        /* \"#utility.yul\":11352:11358   */\n      dup3\n        /* \"#utility.yul\":11348:11362   */\n      add\n        /* \"#utility.yul\":11341:11399   */\n      mstore\n        /* \"#utility.yul\":11433:11460   */\n      0x6f7320756e203525206c61206f66657274612061637475616c00000000000000\n        /* \"#utility.yul\":11428:11430   */\n      0x20\n        /* \"#utility.yul\":11420:11426   */\n      dup3\n        /* \"#utility.yul\":11416:11431   */\n      add\n        /* \"#utility.yul\":11409:11461   */\n      mstore\n        /* \"#utility.yul\":11224:11468   */\n      pop\n      jump\t// out\n        /* \"#utility.yul\":11474:11840   */\n    tag_229:\n        /* \"#utility.yul\":11616:11619   */\n      0x00\n        /* \"#utility.yul\":11637:11704   */\n      tag_349\n        /* \"#utility.yul\":11701:11703   */\n      0x39\n        /* \"#utility.yul\":11696:11699   */\n      dup4\n        /* \"#utility.yul\":11637:11704   */\n      tag_219\n      jump\t// in\n    tag_349:\n        /* \"#utility.yul\":11630:11704   */\n      swap2\n      pop\n        /* \"#utility.yul\":11713:11806   */\n      tag_350\n        /* \"#utility.yul\":11802:11805   */\n      dup3\n        /* \"#utility.yul\":11713:11806   */\n      tag_228\n      jump\t// in\n    tag_350:\n        /* \"#utility.yul\":11831:11833   */\n      0x40\n        /* \"#utility.yul\":11826:11829   */\n      dup3\n        /* \"#utility.yul\":11822:11834   */\n      add\n        /* \"#utility.yul\":11815:11834   */\n      swap1\n      pop\n        /* \"#utility.yul\":11474:11840   */\n      swap2\n      swap1\n      pop\n      jump\t// out\n        /* \"#utility.yul\":11846:12265   */\n    tag_130:\n        /* \"#utility.yul\":12012:12016   */\n      0x00\n        /* \"#utility.yul\":12050:12052   */\n      0x20\n        /* \"#utility.yul\":12039:12048   */\n      dup3\n        /* \"#utility.yul\":12035:12053   */\n      add\n        /* \"#utility.yul\":12027:12053   */\n      swap1\n      pop\n        /* \"#utility.yul\":12099:12108   */\n      dup2\n        /* \"#utility.yul\":12093:12097   */\n      dup2\n        /* \"#utility.yul\":12089:12109   */\n      sub\n        /* \"#utility.yul\":12085:12086   */\n      0x00\n        /* \"#utility.yul\":12074:12083   */\n      dup4\n        /* \"#utility.yul\":12070:12087   */\n      add\n        /* \"#utility.yul\":12063:12110   */\n      mstore\n        /* \"#utility.yul\":12127:12258   */\n      tag_352\n        /* \"#utility.yul\":12253:12257   */\n      dup2\n        /* \"#utility.yul\":12127:12258   */\n      tag_229\n      jump\t// in\n    tag_352:\n        /* \"#utility.yul\":12119:12258   */\n      swap1\n      pop\n        /* \"#utility.yul\":11846:12265   */\n      swap2\n      swap1\n      pop\n      jump\t// out\n        /* \"#utility.yul\":12271:12435   */\n    tag_230:\n        /* \"#utility.yul\":12411:12427   */\n      0x4e6f20686179206f666572746173000000000000000000000000000000000000\n        /* \"#utility.yul\":12407:12408   */\n      0x00\n        /* \"#utility.yul\":12399:12405   */\n      dup3\n        /* \"#utility.yul\":12395:12409   */\n      add\n        /* \"#utility.yul\":12388:12428   */\n      mstore\n        /* \"#utility.yul\":12271:12435   */\n      pop\n      jump\t// out\n        /* \"#utility.yul\":12441:12807   */\n    tag_231:\n        /* \"#utility.yul\":12583:12586   */\n      0x00\n        /* \"#utility.yul\":12604:12671   */\n      tag_355\n        /* \"#utility.yul\":12668:12670   */\n      0x0e\n        /* \"#utility.yul\":12663:12666   */\n      dup4\n        /* \"#utility.yul\":12604:12671   */\n      tag_219\n      jump\t// in\n    tag_355:\n        /* \"#utility.yul\":12597:12671   */\n      swap2\n      pop\n        /* \"#utility.yul\":12680:12773   */\n      tag_356\n        /* \"#utility.yul\":12769:12772   */\n      dup3\n        /* \"#utility.yul\":12680:12773   */\n      tag_230\n      jump\t// in\n    tag_356:\n        /* \"#utility.yul\":12798:12800   */\n      0x20\n        /* \"#utility.yul\":12793:12796   */\n      dup3\n        /* \"#utility.yul\":12789:12801   */\n      add\n        /* \"#utility.yul\":12782:12801   */\n      swap1\n      pop\n        /* \"#utility.yul\":12441:12807   */\n      swap2\n      swap1\n      pop\n      jump\t// out\n        /* \"#utility.yul\":12813:13232   */\n    tag_140:\n        /* \"#utility.yul\":12979:12983   */\n      0x00\n        /* \"#utility.yul\":13017:13019   */\n      0x20\n        /* \"#utility.yul\":13006:13015   */\n      dup3\n        /* \"#utility.yul\":13002:13020   */\n      add\n        /* \"#utility.yul\":12994:13020   */\n      swap1\n      pop\n        /* \"#utility.yul\":13066:13075   */\n      dup2\n        /* \"#utility.yul\":13060:13064   */\n      dup2\n        /* \"#utility.yul\":13056:13076   */\n      sub\n        /* \"#utility.yul\":13052:13053   */\n      0x00\n        /* \"#utility.yul\":13041:13050   */\n      dup4\n        /* \"#utility.yul\":13037:13054   */\n      add\n        /* \"#utility.yul\":13030:13077   */\n      mstore\n        /* \"#utility.yul\":13094:13225   */\n      tag_358\n        /* \"#utility.yul\":13220:13224   */\n      dup2\n        /* \"#utility.yul\":13094:13225   */\n      tag_231\n      jump\t// in\n    tag_358:\n        /* \"#utility.yul\":13086:13225   */\n      swap1\n      pop\n        /* \"#utility.yul\":12813:13232   */\n      swap2\n      swap1\n      pop\n      jump\t// out\n        /* \"#utility.yul\":13238:13409   */\n    tag_167:\n        /* \"#utility.yul\":13277:13280   */\n      0x00\n        /* \"#utility.yul\":13300:13324   */\n      tag_360\n        /* \"#utility.yul\":13318:13323   */\n      dup3\n        /* \"#utility.yul\":13300:13324   */\n      tag_204\n      jump\t// in\n    tag_360:\n        /* \"#utility.yul\":13291:13324   */\n      swap2\n      pop\n        /* \"#utility.yul\":13346:13350   */\n      0x00\n        /* \"#utility.yul\":13339:13344   */\n      dup3\n        /* \"#utility.yul\":13336:13351   */\n      sub\n        /* \"#utility.yul\":13333:13374   */\n      tag_361\n      jumpi\n        /* \"#utility.yul\":13354:13372   */\n      tag_362\n      tag_226\n      jump\t// in\n    tag_362:\n        /* \"#utility.yul\":13333:13374   */\n    tag_361:\n        /* \"#utility.yul\":13401:13402   */\n      0x01\n        /* \"#utility.yul\":13394:13399   */\n      dup3\n        /* \"#utility.yul\":13390:13403   */\n      sub\n        /* \"#utility.yul\":13383:13403   */\n      swap1\n      pop\n        /* \"#utility.yul\":13238:13409   */\n      swap2\n      swap1\n      pop\n      jump\t// out\n        /* \"#utility.yul\":13415:13594   */\n    tag_232:\n        /* \"#utility.yul\":13555:13586   */\n      0x4e6f20686179206578636564656e746520706172612072657469726172000000\n        /* \"#utility.yul\":13551:13552   */\n      0x00\n        /* \"#utility.yul\":13543:13549   */\n      dup3\n        /* \"#utility.yul\":13539:13553   */\n      add\n        /* \"#utility.yul\":13532:13587   */\n      mstore\n        /* \"#utility.yul\":13415:13594   */\n      pop\n      jump\t// out\n        /* \"#utility.yul\":13600:13966   */\n    tag_233:\n        /* \"#utility.yul\":13742:13745   */\n      0x00\n        /* \"#utility.yul\":13763:13830   */\n      tag_365\n        /* \"#utility.yul\":13827:13829   */\n      0x1d\n        /* \"#utility.yul\":13822:13825   */\n      dup4\n        /* \"#utility.yul\":13763:13830   */\n      tag_219\n      jump\t// in\n    tag_365:\n        /* \"#utility.yul\":13756:13830   */\n      swap2\n      pop\n        /* \"#utility.yul\":13839:13932   */\n      tag_366\n        /* \"#utility.yul\":13928:13931   */\n      dup3\n        /* \"#utility.yul\":13839:13932   */\n      tag_232\n      jump\t// in\n    tag_366:\n        /* \"#utility.yul\":13957:13959   */\n      0x20\n        /* \"#utility.yul\":13952:13955   */\n      dup3\n        /* \"#utility.yul\":13948:13960   */\n      add\n        /* \"#utility.yul\":13941:13960   */\n      swap1\n      pop\n        /* \"#utility.yul\":13600:13966   */\n      swap2\n      swap1\n      pop\n      jump\t// out\n        /* \"#utility.yul\":13972:14391   */\n    tag_170:\n        /* \"#utility.yul\":14138:14142   */\n      0x00\n        /* \"#utility.yul\":14176:14178   */\n      0x20\n        /* \"#utility.yul\":14165:14174   */\n      dup3\n        /* \"#utility.yul\":14161:14179   */\n      add\n        /* \"#utility.yul\":14153:14179   */\n      swap1\n      pop\n        /* \"#utility.yul\":14225:14234   */\n      dup2\n        /* \"#utility.yul\":14219:14223   */\n      dup2\n        /* \"#utility.yul\":14215:14235   */\n      sub\n        /* \"#utility.yul\":14211:14212   */\n      0x00\n        /* \"#utility.yul\":14200:14209   */\n      dup4\n        /* \"#utility.yul\":14196:14213   */\n      add\n        /* \"#utility.yul\":14189:14236   */\n      mstore\n        /* \"#utility.yul\":14253:14384   */\n      tag_368\n        /* \"#utility.yul\":14379:14383   */\n      dup2\n        /* \"#utility.yul\":14253:14384   */\n      tag_233\n      jump\t// in\n    tag_368:\n        /* \"#utility.yul\":14245:14384   */\n      swap1\n      pop\n        /* \"#utility.yul\":13972:14391   */\n      swap2\n      swap1\n      pop\n      jump\t// out\n        /* \"#utility.yul\":14397:14573   */\n    tag_234:\n        /* \"#utility.yul\":14537:14565   */\n      0x4c6120737562617374612061756e206573746120616374697661000000000000\n        /* \"#utility.yul\":14533:14534   */\n      0x00\n        /* \"#utility.yul\":14525:14531   */\n      dup3\n        /* \"#utility.yul\":14521:14535   */\n      add\n        /* \"#utility.yul\":14514:14566   */\n      mstore\n        /* \"#utility.yul\":14397:14573   */\n      pop\n      jump\t// out\n        /* \"#utility.yul\":14579:14945   */\n    tag_235:\n        /* \"#utility.yul\":14721:14724   */\n      0x00\n        /* \"#utility.yul\":14742:14809   */\n      tag_371\n        /* \"#utility.yul\":14806:14808   */\n      0x1a\n        /* \"#utility.yul\":14801:14804   */\n      dup4\n        /* \"#utility.yul\":14742:14809   */\n      tag_219\n      jump\t// in\n    tag_371:\n        /* \"#utility.yul\":14735:14809   */\n      swap2\n      pop\n        /* \"#utility.yul\":14818:14911   */\n      tag_372\n        /* \"#utility.yul\":14907:14910   */\n      dup3\n        /* \"#utility.yul\":14818:14911   */\n      tag_234\n      jump\t// in\n    tag_372:\n        /* \"#utility.yul\":14936:14938   */\n      0x20\n        /* \"#utility.yul\":14931:14934   */\n      dup3\n        /* \"#utility.yul\":14927:14939   */\n      add\n        /* \"#utility.yul\":14920:14939   */\n      swap1\n      pop\n        /* \"#utility.yul\":14579:14945   */\n      swap2\n      swap1\n      pop\n      jump\t// out\n        /* \"#utility.yul\":14951:15370   */\n    tag_178:\n        /* \"#utility.yul\":15117:15121   */\n      0x00\n        /* \"#utility.yul\":15155:15157   */\n      0x20\n        /* \"#utility.yul\":15144:15153   */\n      dup3\n        /* \"#utility.yul\":15140:15158   */\n      add\n        /* \"#utility.yul\":15132:15158   */\n      swap1\n      pop\n        /* \"#utility.yul\":15204:15213   */\n      dup2\n        /* \"#utility.yul\":15198:15202   */\n      dup2\n        /* \"#utility.yul\":15194:15214   */\n      sub\n        /* \"#utility.yul\":15190:15191   */\n      0x00\n        /* \"#utility.yul\":15179:15188   */\n      dup4\n        /* \"#utility.yul\":15175:15192   */\n      add\n        /* \"#utility.yul\":15168:15215   */\n      mstore\n        /* \"#utility.yul\":15232:15363   */\n      tag_374\n        /* \"#utility.yul\":15358:15362   */\n      dup2\n        /* \"#utility.yul\":15232:15363   */\n      tag_235\n      jump\t// in\n    tag_374:\n        /* \"#utility.yul\":15224:15363   */\n      swap1\n      pop\n        /* \"#utility.yul\":14951:15370   */\n      swap2\n      swap1\n      pop\n      jump\t// out\n        /* \"#utility.yul\":15376:15555   */\n    tag_236:\n        /* \"#utility.yul\":15516:15547   */\n      0x4e6f20686179206465706f7369746f2070617261206465766f6c766572000000\n        /* \"#utility.yul\":15512:15513   */\n      0x00\n        /* \"#utility.yul\":15504:15510   */\n      dup3\n        /* \"#utility.yul\":15500:15514   */\n      add\n        /* \"#utility.yul\":15493:15548   */\n      mstore\n        /* \"#utility.yul\":15376:15555   */\n      pop\n      jump\t// out\n        /* \"#utility.yul\":15561:15927   */\n    tag_237:\n        /* \"#utility.yul\":15703:15706   */\n      0x00\n        /* \"#utility.yul\":15724:15791   */\n      tag_377\n        /* \"#utility.yul\":15788:15790   */\n      0x1d\n        /* \"#utility.yul\":15783:15786   */\n      dup4\n        /* \"#utility.yul\":15724:15791   */\n      tag_219\n      jump\t// in\n    tag_377:\n        /* \"#utility.yul\":15717:15791   */\n      swap2\n      pop\n        /* \"#utility.yul\":15800:15893   */\n      tag_378\n        /* \"#utility.yul\":15889:15892   */\n      dup3\n        /* \"#utility.yul\":15800:15893   */\n      tag_236\n      jump\t// in\n    tag_378:\n        /* \"#utility.yul\":15918:15920   */\n      0x20\n        /* \"#utility.yul\":15913:15916   */\n      dup3\n        /* \"#utility.yul\":15909:15921   */\n      add\n        /* \"#utility.yul\":15902:15921   */\n      swap1\n      pop\n        /* \"#utility.yul\":15561:15927   */\n      swap2\n      swap1\n      pop\n      jump\t// out\n        /* \"#utility.yul\":15933:16352   */\n    tag_181:\n        /* \"#utility.yul\":16099:16103   */\n      0x00\n        /* \"#utility.yul\":16137:16139   */\n      0x20\n        /* \"#utility.yul\":16126:16135   */\n      dup3\n        /* \"#utility.yul\":16122:16140   */\n      add\n        /* \"#utility.yul\":16114:16140   */\n      swap1\n      pop\n        /* \"#utility.yul\":16186:16195   */\n      dup2\n        /* \"#utility.yul\":16180:16184   */\n      dup2\n        /* \"#utility.yul\":16176:16196   */\n      sub\n        /* \"#utility.yul\":16172:16173   */\n      0x00\n        /* \"#utility.yul\":16161:16170   */\n      dup4\n        /* \"#utility.yul\":16157:16174   */\n      add\n        /* \"#utility.yul\":16150:16197   */\n      mstore\n        /* \"#utility.yul\":16214:16345   */\n      tag_380\n        /* \"#utility.yul\":16340:16344   */\n      dup2\n        /* \"#utility.yul\":16214:16345   */\n      tag_237\n      jump\t// in\n    tag_380:\n        /* \"#utility.yul\":16206:16345   */\n      swap1\n      pop\n        /* \"#utility.yul\":15933:16352   */\n      swap2\n      swap1\n      pop\n      jump\t// out\n\n    auxdata: 0xa264697066735822122010f022f4d0e58178d92ee0646242438b93ba4f6cfaf58c8987616852f8a856c364736f6c634300081a0033\n}\n",
				"bytecode": {
					"linkReferences": {},
					"object": "608060405261025860025560056003556002600455600160055f6101000a81548160ff021916908315150217905550670de0b6b3a7640000600655348015610045575f80fd5b50335f806101000a81548173ffffffffffffffffffffffffffffffffffffffff021916908373ffffffffffffffffffffffffffffffffffffffff1602179055506002544261009391906101fc565b600181905550600760405180604001604052805f8054906101000a900473ffffffffffffffffffffffffffffffffffffffff1673ffffffffffffffffffffffffffffffffffffffff168152602001600654815250908060018154018082558091505060019003905f5260205f2090600202015f909190919091505f820151815f015f6101000a81548173ffffffffffffffffffffffffffffffffffffffff021916908373ffffffffffffffffffffffffffffffffffffffff16021790555060208201518160010155505060065460085f805f9054906101000a900473ffffffffffffffffffffffffffffffffffffffff1673ffffffffffffffffffffffffffffffffffffffff1673ffffffffffffffffffffffffffffffffffffffff1681526020019081526020015f208190555061022f565b5f819050919050565b7f4e487b71000000000000000000000000000000000000000000000000000000005f52601160045260245ffd5b5f610206826101c6565b9150610211836101c6565b9250828201905080821115610229576102286101cf565b5b92915050565b6116708061023c5f395ff3fe6080604052600436106100e7575f3560e01c8063753dcaeb11610089578063c442a99f11610058578063c442a99f14610283578063c63049f8146102ad578063cc14e31f146102d7578063d1d7e96c14610301576100e7565b8063753dcaeb146102025780639528a4bd1461022d578063a05d3ddc14610243578063b53627b214610259576100e7565b80633ec059d7116100c55780633ec059d71461015557806356afff7c1461015f578063664e62b91461019c57806371ea6d33146101d8576100e7565b80630851eac2146100eb5780632c5e5471146101015780633dfa138d1461012b575b5f80fd5b3480156100f6575f80fd5b506100ff61032b565b005b34801561010c575f80fd5b50610115610540565b6040516101229190610e8f565b60405180910390f35b348015610136575f80fd5b5061013f610552565b60405161014c9190610ee7565b60405180910390f35b61015d610575565b005b34801561016a575f80fd5b5061018560048036038101906101809190610f37565b6107e8565b604051610193929190610f71565b60405180910390f35b3480156101a7575f80fd5b506101c260048036038101906101bd9190610fc2565b610836565b6040516101cf9190610fed565b60405180910390f35b3480156101e3575f80fd5b506101ec61084b565b6040516101f99190610fed565b60405180910390f35b34801561020d575f80fd5b50610216610851565b604051610224929190610f71565b60405180910390f35b348015610238575f80fd5b5061024161092a565b005b34801561024e575f80fd5b50610257610b91565b005b348015610264575f80fd5b5061026d610da3565b60405161027a9190610fed565b60405180910390f35b34801561028e575f80fd5b50610297610da9565b6040516102a491906110f9565b60405180910390f35b3480156102b8575f80fd5b506102c1610e63565b6040516102ce9190610fed565b60405180910390f35b3480156102e2575f80fd5b506102eb610e69565b6040516102f89190610fed565b60405180910390f35b34801561030c575f80fd5b50610315610e6f565b6040516103229190610fed565b60405180910390f35b5f8054906101000a900473ffffffffffffffffffffffffffffffffffffffff1673ffffffffffffffffffffffffffffffffffffffff163373ffffffffffffffffffffffffffffffffffffffff16146103b8576040517f08c379a00000000000000000000000000000000000000000000000000000000081526004016103af90611199565b60405180910390fd5b60055f9054906101000a900460ff1680156103d4575060015442105b610413576040517f08c379a000000000000000000000000000000000000000000000000000000000815260040161040a90611201565b60405180910390fd5b600154421015610458576040517f08c379a000000000000000000000000000000000000000000000000000000000815260040161044f90611269565b60405180910390fd5b5f60055f6101000a81548160ff0219169083151502179055505f600780549050111561053e577fa3a65b403bdae88eb037f4ecc1d619f436fc3ef6bcbbee3787757164e82883f2600760016007805490506104b391906112b4565b815481106104c4576104c36112e7565b5b905f5260205f2090600202015f015f9054906101000a900473ffffffffffffffffffffffffffffffffffffffff166007600160078054905061050691906112b4565b81548110610517576105166112e7565b5b905f5260205f20906002020160010154604051610535929190610f71565b60405180910390a15b565b60055f9054906101000a900460ff1681565b5f8054906101000a900473ffffffffffffffffffffffffffffffffffffffff1681565b60055f9054906101000a900460ff168015610591575060015442105b6105d0576040517f08c379a00000000000000000000000000000000000000000000000000000000081526004016105c790611201565b60405180910390fd5b5f6064600354600760016007805490506105ea91906112b4565b815481106105fb576105fa6112e7565b5b905f5260205f209060020201600101546106159190611314565b61061f9190611382565b6007600160078054905061063391906112b4565b81548110610644576106436112e7565b5b905f5260205f2090600202016001015461065e91906113b2565b90508034116106a2576040517f08c379a000000000000000000000000000000000000000000000000000000000815260040161069990611455565b60405180910390fd5b600254426106b091906113b2565b600181905550600760405180604001604052803373ffffffffffffffffffffffffffffffffffffffff16815260200134815250908060018154018082558091505060019003905f5260205f2090600202015f909190919091505f820151815f015f6101000a81548173ffffffffffffffffffffffffffffffffffffffff021916908373ffffffffffffffffffffffffffffffffffffffff1602179055506020820151816001015550503460085f3373ffffffffffffffffffffffffffffffffffffffff1673ffffffffffffffffffffffffffffffffffffffff1681526020019081526020015f205f8282546107a591906113b2565b925050819055507f155d469211f46e4d9ae974606f0878f9aacc6198ba30a1e6b9c8cf5627352fb533346040516107dd929190610f71565b60405180910390a150565b600781815481106107f7575f80fd5b905f5260205f2090600202015f91509050805f015f9054906101000a900473ffffffffffffffffffffffffffffffffffffffff16908060010154905082565b6008602052805f5260405f205f915090505481565b60065481565b5f805f6007805490501161089a576040517f08c379a0000000000000000000000000000000000000000000000000000000008152600401610891906114bd565b60405180910390fd5b600760016007805490506108ae91906112b4565b815481106108bf576108be6112e7565b5b905f5260205f2090600202015f015f9054906101000a900473ffffffffffffffffffffffffffffffffffffffff1691506007600160078054905061090391906112b4565b81548110610914576109136112e7565b5b905f5260205f2090600202016001015490509091565b60055f9054906101000a900460ff168015610946575060015442105b610985576040517f08c379a000000000000000000000000000000000000000000000000000000000815260040161097c90611201565b60405180910390fd5b5f60085f3373ffffffffffffffffffffffffffffffffffffffff1673ffffffffffffffffffffffffffffffffffffffff1681526020019081526020015f205490505f8060078054905090505b5f811115610aa3573373ffffffffffffffffffffffffffffffffffffffff1660076001836109ff91906112b4565b81548110610a1057610a0f6112e7565b5b905f5260205f2090600202015f015f9054906101000a900473ffffffffffffffffffffffffffffffffffffffff1673ffffffffffffffffffffffffffffffffffffffff1603610a90576007600182610a6891906112b4565b81548110610a7957610a786112e7565b5b905f5260205f209060020201600101549150610aa3565b8080610a9b906114db565b9150506109d1565b50808211610ae6576040517f08c379a0000000000000000000000000000000000000000000000000000000008152600401610add9061154c565b60405180910390fd5b5f8183610af391906112b4565b90508060085f3373ffffffffffffffffffffffffffffffffffffffff1673ffffffffffffffffffffffffffffffffffffffff1681526020019081526020015f205f828254610b4191906112b4565b925050819055503373ffffffffffffffffffffffffffffffffffffffff166108fc8290811502906040515f60405180830381858888f19350505050158015610b8b573d5f803e3d5ffd5b50505050565b60055f9054906101000a900460ff1615610be0576040517f08c379a0000000000000000000000000000000000000000000000000000000008152600401610bd7906115b4565b60405180910390fd5b5f60085f3373ffffffffffffffffffffffffffffffffffffffff1673ffffffffffffffffffffffffffffffffffffffff1681526020019081526020015f205490505f8111610c63576040517f08c379a0000000000000000000000000000000000000000000000000000000008152600401610c5a9061161c565b60405180910390fd5b5f60076001600780549050610c7891906112b4565b81548110610c8957610c886112e7565b5b905f5260205f2090600202015f015f9054906101000a900473ffffffffffffffffffffffffffffffffffffffff1690508073ffffffffffffffffffffffffffffffffffffffff163373ffffffffffffffffffffffffffffffffffffffff1614610d19575f606460045484610cfd9190611314565b610d079190611382565b90508083610d1591906112b4565b9250505b5f60085f3373ffffffffffffffffffffffffffffffffffffffff1673ffffffffffffffffffffffffffffffffffffffff1681526020019081526020015f20819055503373ffffffffffffffffffffffffffffffffffffffff166108fc8390811502906040515f60405180830381858888f19350505050158015610d9e573d5f803e3d5ffd5b505050565b60045481565b60606007805480602002602001604051908101604052809291908181526020015f905b82821015610e5a578382905f5260205f2090600202016040518060400160405290815f82015f9054906101000a900473ffffffffffffffffffffffffffffffffffffffff1673ffffffffffffffffffffffffffffffffffffffff1673ffffffffffffffffffffffffffffffffffffffff16815260200160018201548152505081526020019060010190610dcc565b50505050905090565b60015481565b60035481565b60025481565b5f8115159050919050565b610e8981610e75565b82525050565b5f602082019050610ea25f830184610e80565b92915050565b5f73ffffffffffffffffffffffffffffffffffffffff82169050919050565b5f610ed182610ea8565b9050919050565b610ee181610ec7565b82525050565b5f602082019050610efa5f830184610ed8565b92915050565b5f80fd5b5f819050919050565b610f1681610f04565b8114610f20575f80fd5b50565b5f81359050610f3181610f0d565b92915050565b5f60208284031215610f4c57610f4b610f00565b5b5f610f5984828501610f23565b91505092915050565b610f6b81610f04565b82525050565b5f604082019050610f845f830185610ed8565b610f916020830184610f62565b9392505050565b610fa181610ec7565b8114610fab575f80fd5b50565b5f81359050610fbc81610f98565b92915050565b5f60208284031215610fd757610fd6610f00565b5b5f610fe484828501610fae565b91505092915050565b5f6020820190506110005f830184610f62565b92915050565b5f81519050919050565b5f82825260208201905092915050565b5f819050602082019050919050565b61103881610ec7565b82525050565b61104781610f04565b82525050565b604082015f8201516110615f85018261102f565b506020820151611074602085018261103e565b50505050565b5f611085838361104d565b60408301905092915050565b5f602082019050919050565b5f6110a782611006565b6110b18185611010565b93506110bc83611020565b805f5b838110156110ec5781516110d3888261107a565b97506110de83611091565b9250506001810190506110bf565b5085935050505092915050565b5f6020820190508181035f830152611111818461109d565b905092915050565b5f82825260208201905092915050565b7f536f6c6f20656c2073756261737461646f7220707565646520656a65637574615f8201527f72206573746120616363696f6e00000000000000000000000000000000000000602082015250565b5f611183602d83611119565b915061118e82611129565b604082019050919050565b5f6020820190508181035f8301526111b081611177565b9050919050565b7f4c6120737562617374612079612068612066696e616c697a61646f00000000005f82015250565b5f6111eb601b83611119565b91506111f6826111b7565b602082019050919050565b5f6020820190508181035f830152611218816111df565b9050919050565b7f4c6120737562617374612061756e206573746120656e20637572736f000000005f82015250565b5f611253601c83611119565b915061125e8261121f565b602082019050919050565b5f6020820190508181035f83015261128081611247565b9050919050565b7f4e487b71000000000000000000000000000000000000000000000000000000005f52601160045260245ffd5b5f6112be82610f04565b91506112c983610f04565b92508282039050818111156112e1576112e0611287565b5b92915050565b7f4e487b71000000000000000000000000000000000000000000000000000000005f52603260045260245ffd5b5f61131e82610f04565b915061132983610f04565b925082820261133781610f04565b9150828204841483151761134e5761134d611287565b5b5092915050565b7f4e487b71000000000000000000000000000000000000000000000000000000005f52601260045260245ffd5b5f61138c82610f04565b915061139783610f04565b9250826113a7576113a6611355565b5b828204905092915050565b5f6113bc82610f04565b91506113c783610f04565b92508282019050808211156113df576113de611287565b5b92915050565b7f4c61206f66657274612064656265207375706572617220656e20616c206d656e5f8201527f6f7320756e203525206c61206f66657274612061637475616c00000000000000602082015250565b5f61143f603983611119565b915061144a826113e5565b604082019050919050565b5f6020820190508181035f83015261146c81611433565b9050919050565b7f4e6f20686179206f6665727461730000000000000000000000000000000000005f82015250565b5f6114a7600e83611119565b91506114b282611473565b602082019050919050565b5f6020820190508181035f8301526114d48161149b565b9050919050565b5f6114e582610f04565b91505f82036114f7576114f6611287565b5b600182039050919050565b7f4e6f20686179206578636564656e7465207061726120726574697261720000005f82015250565b5f611536601d83611119565b915061154182611502565b602082019050919050565b5f6020820190508181035f8301526115638161152a565b9050919050565b7f4c6120737562617374612061756e2065737461206163746976610000000000005f82015250565b5f61159e601a83611119565b91506115a98261156a565b602082019050919050565b5f6020820190508181035f8301526115cb81611592565b9050919050565b7f4e6f20686179206465706f7369746f2070617261206465766f6c7665720000005f82015250565b5f611606601d83611119565b9150611611826115d2565b602082019050919050565b5f6020820190508181035f830152611633816115fa565b905091905056fea264697066735822122010f022f4d0e58178d92ee0646242438b93ba4f6cfaf58c8987616852f8a856c364736f6c634300081a0033",
					"opcodes": "PUSH1 0x80 PUSH1 0x40 MSTORE PUSH2 0x258 PUSH1 0x2 SSTORE PUSH1 0x5 PUSH1 0x3 SSTORE PUSH1 0x2 PUSH1 0x4 SSTORE PUSH1 0x1 PUSH1 0x5 PUSH0 PUSH2 0x100 EXP DUP2 SLOAD DUP2 PUSH1 0xFF MUL NOT AND SWAP1 DUP4 ISZERO ISZERO MUL OR SWAP1 SSTORE POP PUSH8 0xDE0B6B3A7640000 PUSH1 0x6 SSTORE CALLVALUE DUP1 ISZERO PUSH2 0x45 JUMPI PUSH0 DUP1 REVERT JUMPDEST POP CALLER PUSH0 DUP1 PUSH2 0x100 EXP DUP2 SLOAD DUP2 PUSH20 0xFFFFFFFFFFFFFFFFFFFFFFFFFFFFFFFFFFFFFFFF MUL NOT AND SWAP1 DUP4 PUSH20 0xFFFFFFFFFFFFFFFFFFFFFFFFFFFFFFFFFFFFFFFF AND MUL OR SWAP1 SSTORE POP PUSH1 0x2 SLOAD TIMESTAMP PUSH2 0x93 SWAP2 SWAP1 PUSH2 0x1FC JUMP JUMPDEST PUSH1 0x1 DUP2 SWAP1 SSTORE POP PUSH1 0x7 PUSH1 0x40 MLOAD DUP1 PUSH1 0x40 ADD PUSH1 0x40 MSTORE DUP1 PUSH0 DUP1 SLOAD SWAP1 PUSH2 0x100 EXP SWAP1 DIV PUSH20 0xFFFFFFFFFFFFFFFFFFFFFFFFFFFFFFFFFFFFFFFF AND PUSH20 0xFFFFFFFFFFFFFFFFFFFFFFFFFFFFFFFFFFFFFFFF AND DUP2 MSTORE PUSH1 0x20 ADD PUSH1 0x6 SLOAD DUP2 MSTORE POP SWAP1 DUP1 PUSH1 0x1 DUP2 SLOAD ADD DUP1 DUP3 SSTORE DUP1 SWAP2 POP POP PUSH1 0x1 SWAP1 SUB SWAP1 PUSH0 MSTORE PUSH1 0x20 PUSH0 KECCAK256 SWAP1 PUSH1 0x2 MUL ADD PUSH0 SWAP1 SWAP2 SWAP1 SWAP2 SWAP1 SWAP2 POP PUSH0 DUP3 ADD MLOAD DUP2 PUSH0 ADD PUSH0 PUSH2 0x100 EXP DUP2 SLOAD DUP2 PUSH20 0xFFFFFFFFFFFFFFFFFFFFFFFFFFFFFFFFFFFFFFFF MUL NOT AND SWAP1 DUP4 PUSH20 0xFFFFFFFFFFFFFFFFFFFFFFFFFFFFFFFFFFFFFFFF AND MUL OR SWAP1 SSTORE POP PUSH1 0x20 DUP3 ADD MLOAD DUP2 PUSH1 0x1 ADD SSTORE POP POP PUSH1 0x6 SLOAD PUSH1 0x8 PUSH0 DUP1 PUSH0 SWAP1 SLOAD SWAP1 PUSH2 0x100 EXP SWAP1 DIV PUSH20 0xFFFFFFFFFFFFFFFFFFFFFFFFFFFFFFFFFFFFFFFF AND PUSH20 0xFFFFFFFFFFFFFFFFFFFFFFFFFFFFFFFFFFFFFFFF AND PUSH20 0xFFFFFFFFFFFFFFFFFFFFFFFFFFFFFFFFFFFFFFFF AND DUP2 MSTORE PUSH1 0x20 ADD SWAP1 DUP2 MSTORE PUSH1 0x20 ADD PUSH0 KECCAK256 DUP2 SWAP1 SSTORE POP PUSH2 0x22F JUMP JUMPDEST PUSH0 DUP2 SWAP1 POP SWAP2 SWAP1 POP JUMP JUMPDEST PUSH32 0x4E487B7100000000000000000000000000000000000000000000000000000000 PUSH0 MSTORE PUSH1 0x11 PUSH1 0x4 MSTORE PUSH1 0x24 PUSH0 REVERT JUMPDEST PUSH0 PUSH2 0x206 DUP3 PUSH2 0x1C6 JUMP JUMPDEST SWAP2 POP PUSH2 0x211 DUP4 PUSH2 0x1C6 JUMP JUMPDEST SWAP3 POP DUP3 DUP3 ADD SWAP1 POP DUP1 DUP3 GT ISZERO PUSH2 0x229 JUMPI PUSH2 0x228 PUSH2 0x1CF JUMP JUMPDEST JUMPDEST SWAP3 SWAP2 POP POP JUMP JUMPDEST PUSH2 0x1670 DUP1 PUSH2 0x23C PUSH0 CODECOPY PUSH0 RETURN INVALID PUSH1 0x80 PUSH1 0x40 MSTORE PUSH1 0x4 CALLDATASIZE LT PUSH2 0xE7 JUMPI PUSH0 CALLDATALOAD PUSH1 0xE0 SHR DUP1 PUSH4 0x753DCAEB GT PUSH2 0x89 JUMPI DUP1 PUSH4 0xC442A99F GT PUSH2 0x58 JUMPI DUP1 PUSH4 0xC442A99F EQ PUSH2 0x283 JUMPI DUP1 PUSH4 0xC63049F8 EQ PUSH2 0x2AD JUMPI DUP1 PUSH4 0xCC14E31F EQ PUSH2 0x2D7 JUMPI DUP1 PUSH4 0xD1D7E96C EQ PUSH2 0x301 JUMPI PUSH2 0xE7 JUMP JUMPDEST DUP1 PUSH4 0x753DCAEB EQ PUSH2 0x202 JUMPI DUP1 PUSH4 0x9528A4BD EQ PUSH2 0x22D JUMPI DUP1 PUSH4 0xA05D3DDC EQ PUSH2 0x243 JUMPI DUP1 PUSH4 0xB53627B2 EQ PUSH2 0x259 JUMPI PUSH2 0xE7 JUMP JUMPDEST DUP1 PUSH4 0x3EC059D7 GT PUSH2 0xC5 JUMPI DUP1 PUSH4 0x3EC059D7 EQ PUSH2 0x155 JUMPI DUP1 PUSH4 0x56AFFF7C EQ PUSH2 0x15F JUMPI DUP1 PUSH4 0x664E62B9 EQ PUSH2 0x19C JUMPI DUP1 PUSH4 0x71EA6D33 EQ PUSH2 0x1D8 JUMPI PUSH2 0xE7 JUMP JUMPDEST DUP1 PUSH4 0x851EAC2 EQ PUSH2 0xEB JUMPI DUP1 PUSH4 0x2C5E5471 EQ PUSH2 0x101 JUMPI DUP1 PUSH4 0x3DFA138D EQ PUSH2 0x12B JUMPI JUMPDEST PUSH0 DUP1 REVERT JUMPDEST CALLVALUE DUP1 ISZERO PUSH2 0xF6 JUMPI PUSH0 DUP1 REVERT JUMPDEST POP PUSH2 0xFF PUSH2 0x32B JUMP JUMPDEST STOP JUMPDEST CALLVALUE DUP1 ISZERO PUSH2 0x10C JUMPI PUSH0 DUP1 REVERT JUMPDEST POP PUSH2 0x115 PUSH2 0x540 JUMP JUMPDEST PUSH1 0x40 MLOAD PUSH2 0x122 SWAP2 SWAP1 PUSH2 0xE8F JUMP JUMPDEST PUSH1 0x40 MLOAD DUP1 SWAP2 SUB SWAP1 RETURN JUMPDEST CALLVALUE DUP1 ISZERO PUSH2 0x136 JUMPI PUSH0 DUP1 REVERT JUMPDEST POP PUSH2 0x13F PUSH2 0x552 JUMP JUMPDEST PUSH1 0x40 MLOAD PUSH2 0x14C SWAP2 SWAP1 PUSH2 0xEE7 JUMP JUMPDEST PUSH1 0x40 MLOAD DUP1 SWAP2 SUB SWAP1 RETURN JUMPDEST PUSH2 0x15D PUSH2 0x575 JUMP JUMPDEST STOP JUMPDEST CALLVALUE DUP1 ISZERO PUSH2 0x16A JUMPI PUSH0 DUP1 REVERT JUMPDEST POP PUSH2 0x185 PUSH1 0x4 DUP1 CALLDATASIZE SUB DUP2 ADD SWAP1 PUSH2 0x180 SWAP2 SWAP1 PUSH2 0xF37 JUMP JUMPDEST PUSH2 0x7E8 JUMP JUMPDEST PUSH1 0x40 MLOAD PUSH2 0x193 SWAP3 SWAP2 SWAP1 PUSH2 0xF71 JUMP JUMPDEST PUSH1 0x40 MLOAD DUP1 SWAP2 SUB SWAP1 RETURN JUMPDEST CALLVALUE DUP1 ISZERO PUSH2 0x1A7 JUMPI PUSH0 DUP1 REVERT JUMPDEST POP PUSH2 0x1C2 PUSH1 0x4 DUP1 CALLDATASIZE SUB DUP2 ADD SWAP1 PUSH2 0x1BD SWAP2 SWAP1 PUSH2 0xFC2 JUMP JUMPDEST PUSH2 0x836 JUMP JUMPDEST PUSH1 0x40 MLOAD PUSH2 0x1CF SWAP2 SWAP1 PUSH2 0xFED JUMP JUMPDEST PUSH1 0x40 MLOAD DUP1 SWAP2 SUB SWAP1 RETURN JUMPDEST CALLVALUE DUP1 ISZERO PUSH2 0x1E3 JUMPI PUSH0 DUP1 REVERT JUMPDEST POP PUSH2 0x1EC PUSH2 0x84B JUMP JUMPDEST PUSH1 0x40 MLOAD PUSH2 0x1F9 SWAP2 SWAP1 PUSH2 0xFED JUMP JUMPDEST PUSH1 0x40 MLOAD DUP1 SWAP2 SUB SWAP1 RETURN JUMPDEST CALLVALUE DUP1 ISZERO PUSH2 0x20D JUMPI PUSH0 DUP1 REVERT JUMPDEST POP PUSH2 0x216 PUSH2 0x851 JUMP JUMPDEST PUSH1 0x40 MLOAD PUSH2 0x224 SWAP3 SWAP2 SWAP1 PUSH2 0xF71 JUMP JUMPDEST PUSH1 0x40 MLOAD DUP1 SWAP2 SUB SWAP1 RETURN JUMPDEST CALLVALUE DUP1 ISZERO PUSH2 0x238 JUMPI PUSH0 DUP1 REVERT JUMPDEST POP PUSH2 0x241 PUSH2 0x92A JUMP JUMPDEST STOP JUMPDEST CALLVALUE DUP1 ISZERO PUSH2 0x24E JUMPI PUSH0 DUP1 REVERT JUMPDEST POP PUSH2 0x257 PUSH2 0xB91 JUMP JUMPDEST STOP JUMPDEST CALLVALUE DUP1 ISZERO PUSH2 0x264 JUMPI PUSH0 DUP1 REVERT JUMPDEST POP PUSH2 0x26D PUSH2 0xDA3 JUMP JUMPDEST PUSH1 0x40 MLOAD PUSH2 0x27A SWAP2 SWAP1 PUSH2 0xFED JUMP JUMPDEST PUSH1 0x40 MLOAD DUP1 SWAP2 SUB SWAP1 RETURN JUMPDEST CALLVALUE DUP1 ISZERO PUSH2 0x28E JUMPI PUSH0 DUP1 REVERT JUMPDEST POP PUSH2 0x297 PUSH2 0xDA9 JUMP JUMPDEST PUSH1 0x40 MLOAD PUSH2 0x2A4 SWAP2 SWAP1 PUSH2 0x10F9 JUMP JUMPDEST PUSH1 0x40 MLOAD DUP1 SWAP2 SUB SWAP1 RETURN JUMPDEST CALLVALUE DUP1 ISZERO PUSH2 0x2B8 JUMPI PUSH0 DUP1 REVERT JUMPDEST POP PUSH2 0x2C1 PUSH2 0xE63 JUMP JUMPDEST PUSH1 0x40 MLOAD PUSH2 0x2CE SWAP2 SWAP1 PUSH2 0xFED JUMP JUMPDEST PUSH1 0x40 MLOAD DUP1 SWAP2 SUB SWAP1 RETURN JUMPDEST CALLVALUE DUP1 ISZERO PUSH2 0x2E2 JUMPI PUSH0 DUP1 REVERT JUMPDEST POP PUSH2 0x2EB PUSH2 0xE69 JUMP JUMPDEST PUSH1 0x40 MLOAD PUSH2 0x2F8 SWAP2 SWAP1 PUSH2 0xFED JUMP JUMPDEST PUSH1 0x40 MLOAD DUP1 SWAP2 SUB SWAP1 RETURN JUMPDEST CALLVALUE DUP1 ISZERO PUSH2 0x30C JUMPI PUSH0 DUP1 REVERT JUMPDEST POP PUSH2 0x315 PUSH2 0xE6F JUMP JUMPDEST PUSH1 0x40 MLOAD PUSH2 0x322 SWAP2 SWAP1 PUSH2 0xFED JUMP JUMPDEST PUSH1 0x40 MLOAD DUP1 SWAP2 SUB SWAP1 RETURN JUMPDEST PUSH0 DUP1 SLOAD SWAP1 PUSH2 0x100 EXP SWAP1 DIV PUSH20 0xFFFFFFFFFFFFFFFFFFFFFFFFFFFFFFFFFFFFFFFF AND PUSH20 0xFFFFFFFFFFFFFFFFFFFFFFFFFFFFFFFFFFFFFFFF AND CALLER PUSH20 0xFFFFFFFFFFFFFFFFFFFFFFFFFFFFFFFFFFFFFFFF AND EQ PUSH2 0x3B8 JUMPI PUSH1 0x40 MLOAD PUSH32 0x8C379A000000000000000000000000000000000000000000000000000000000 DUP2 MSTORE PUSH1 0x4 ADD PUSH2 0x3AF SWAP1 PUSH2 0x1199 JUMP JUMPDEST PUSH1 0x40 MLOAD DUP1 SWAP2 SUB SWAP1 REVERT JUMPDEST PUSH1 0x5 PUSH0 SWAP1 SLOAD SWAP1 PUSH2 0x100 EXP SWAP1 DIV PUSH1 0xFF AND DUP1 ISZERO PUSH2 0x3D4 JUMPI POP PUSH1 0x1 SLOAD TIMESTAMP LT JUMPDEST PUSH2 0x413 JUMPI PUSH1 0x40 MLOAD PUSH32 0x8C379A000000000000000000000000000000000000000000000000000000000 DUP2 MSTORE PUSH1 0x4 ADD PUSH2 0x40A SWAP1 PUSH2 0x1201 JUMP JUMPDEST PUSH1 0x40 MLOAD DUP1 SWAP2 SUB SWAP1 REVERT JUMPDEST PUSH1 0x1 SLOAD TIMESTAMP LT ISZERO PUSH2 0x458 JUMPI PUSH1 0x40 MLOAD PUSH32 0x8C379A000000000000000000000000000000000000000000000000000000000 DUP2 MSTORE PUSH1 0x4 ADD PUSH2 0x44F SWAP1 PUSH2 0x1269 JUMP JUMPDEST PUSH1 0x40 MLOAD DUP1 SWAP2 SUB SWAP1 REVERT JUMPDEST PUSH0 PUSH1 0x5 PUSH0 PUSH2 0x100 EXP DUP2 SLOAD DUP2 PUSH1 0xFF MUL NOT AND SWAP1 DUP4 ISZERO ISZERO MUL OR SWAP1 SSTORE POP PUSH0 PUSH1 0x7 DUP1 SLOAD SWAP1 POP GT ISZERO PUSH2 0x53E JUMPI PUSH32 0xA3A65B403BDAE88EB037F4ECC1D619F436FC3EF6BCBBEE3787757164E82883F2 PUSH1 0x7 PUSH1 0x1 PUSH1 0x7 DUP1 SLOAD SWAP1 POP PUSH2 0x4B3 SWAP2 SWAP1 PUSH2 0x12B4 JUMP JUMPDEST DUP2 SLOAD DUP2 LT PUSH2 0x4C4 JUMPI PUSH2 0x4C3 PUSH2 0x12E7 JUMP JUMPDEST JUMPDEST SWAP1 PUSH0 MSTORE PUSH1 0x20 PUSH0 KECCAK256 SWAP1 PUSH1 0x2 MUL ADD PUSH0 ADD PUSH0 SWAP1 SLOAD SWAP1 PUSH2 0x100 EXP SWAP1 DIV PUSH20 0xFFFFFFFFFFFFFFFFFFFFFFFFFFFFFFFFFFFFFFFF AND PUSH1 0x7 PUSH1 0x1 PUSH1 0x7 DUP1 SLOAD SWAP1 POP PUSH2 0x506 SWAP2 SWAP1 PUSH2 0x12B4 JUMP JUMPDEST DUP2 SLOAD DUP2 LT PUSH2 0x517 JUMPI PUSH2 0x516 PUSH2 0x12E7 JUMP JUMPDEST JUMPDEST SWAP1 PUSH0 MSTORE PUSH1 0x20 PUSH0 KECCAK256 SWAP1 PUSH1 0x2 MUL ADD PUSH1 0x1 ADD SLOAD PUSH1 0x40 MLOAD PUSH2 0x535 SWAP3 SWAP2 SWAP1 PUSH2 0xF71 JUMP JUMPDEST PUSH1 0x40 MLOAD DUP1 SWAP2 SUB SWAP1 LOG1 JUMPDEST JUMP JUMPDEST PUSH1 0x5 PUSH0 SWAP1 SLOAD SWAP1 PUSH2 0x100 EXP SWAP1 DIV PUSH1 0xFF AND DUP2 JUMP JUMPDEST PUSH0 DUP1 SLOAD SWAP1 PUSH2 0x100 EXP SWAP1 DIV PUSH20 0xFFFFFFFFFFFFFFFFFFFFFFFFFFFFFFFFFFFFFFFF AND DUP2 JUMP JUMPDEST PUSH1 0x5 PUSH0 SWAP1 SLOAD SWAP1 PUSH2 0x100 EXP SWAP1 DIV PUSH1 0xFF AND DUP1 ISZERO PUSH2 0x591 JUMPI POP PUSH1 0x1 SLOAD TIMESTAMP LT JUMPDEST PUSH2 0x5D0 JUMPI PUSH1 0x40 MLOAD PUSH32 0x8C379A000000000000000000000000000000000000000000000000000000000 DUP2 MSTORE PUSH1 0x4 ADD PUSH2 0x5C7 SWAP1 PUSH2 0x1201 JUMP JUMPDEST PUSH1 0x40 MLOAD DUP1 SWAP2 SUB SWAP1 REVERT JUMPDEST PUSH0 PUSH1 0x64 PUSH1 0x3 SLOAD PUSH1 0x7 PUSH1 0x1 PUSH1 0x7 DUP1 SLOAD SWAP1 POP PUSH2 0x5EA SWAP2 SWAP1 PUSH2 0x12B4 JUMP JUMPDEST DUP2 SLOAD DUP2 LT PUSH2 0x5FB JUMPI PUSH2 0x5FA PUSH2 0x12E7 JUMP JUMPDEST JUMPDEST SWAP1 PUSH0 MSTORE PUSH1 0x20 PUSH0 KECCAK256 SWAP1 PUSH1 0x2 MUL ADD PUSH1 0x1 ADD SLOAD PUSH2 0x615 SWAP2 SWAP1 PUSH2 0x1314 JUMP JUMPDEST PUSH2 0x61F SWAP2 SWAP1 PUSH2 0x1382 JUMP JUMPDEST PUSH1 0x7 PUSH1 0x1 PUSH1 0x7 DUP1 SLOAD SWAP1 POP PUSH2 0x633 SWAP2 SWAP1 PUSH2 0x12B4 JUMP JUMPDEST DUP2 SLOAD DUP2 LT PUSH2 0x644 JUMPI PUSH2 0x643 PUSH2 0x12E7 JUMP JUMPDEST JUMPDEST SWAP1 PUSH0 MSTORE PUSH1 0x20 PUSH0 KECCAK256 SWAP1 PUSH1 0x2 MUL ADD PUSH1 0x1 ADD SLOAD PUSH2 0x65E SWAP2 SWAP1 PUSH2 0x13B2 JUMP JUMPDEST SWAP1 POP DUP1 CALLVALUE GT PUSH2 0x6A2 JUMPI PUSH1 0x40 MLOAD PUSH32 0x8C379A000000000000000000000000000000000000000000000000000000000 DUP2 MSTORE PUSH1 0x4 ADD PUSH2 0x699 SWAP1 PUSH2 0x1455 JUMP JUMPDEST PUSH1 0x40 MLOAD DUP1 SWAP2 SUB SWAP1 REVERT JUMPDEST PUSH1 0x2 SLOAD TIMESTAMP PUSH2 0x6B0 SWAP2 SWAP1 PUSH2 0x13B2 JUMP JUMPDEST PUSH1 0x1 DUP2 SWAP1 SSTORE POP PUSH1 0x7 PUSH1 0x40 MLOAD DUP1 PUSH1 0x40 ADD PUSH1 0x40 MSTORE DUP1 CALLER PUSH20 0xFFFFFFFFFFFFFFFFFFFFFFFFFFFFFFFFFFFFFFFF AND DUP2 MSTORE PUSH1 0x20 ADD CALLVALUE DUP2 MSTORE POP SWAP1 DUP1 PUSH1 0x1 DUP2 SLOAD ADD DUP1 DUP3 SSTORE DUP1 SWAP2 POP POP PUSH1 0x1 SWAP1 SUB SWAP1 PUSH0 MSTORE PUSH1 0x20 PUSH0 KECCAK256 SWAP1 PUSH1 0x2 MUL ADD PUSH0 SWAP1 SWAP2 SWAP1 SWAP2 SWAP1 SWAP2 POP PUSH0 DUP3 ADD MLOAD DUP2 PUSH0 ADD PUSH0 PUSH2 0x100 EXP DUP2 SLOAD DUP2 PUSH20 0xFFFFFFFFFFFFFFFFFFFFFFFFFFFFFFFFFFFFFFFF MUL NOT AND SWAP1 DUP4 PUSH20 0xFFFFFFFFFFFFFFFFFFFFFFFFFFFFFFFFFFFFFFFF AND MUL OR SWAP1 SSTORE POP PUSH1 0x20 DUP3 ADD MLOAD DUP2 PUSH1 0x1 ADD SSTORE POP POP CALLVALUE PUSH1 0x8 PUSH0 CALLER PUSH20 0xFFFFFFFFFFFFFFFFFFFFFFFFFFFFFFFFFFFFFFFF AND PUSH20 0xFFFFFFFFFFFFFFFFFFFFFFFFFFFFFFFFFFFFFFFF AND DUP2 MSTORE PUSH1 0x20 ADD SWAP1 DUP2 MSTORE PUSH1 0x20 ADD PUSH0 KECCAK256 PUSH0 DUP3 DUP3 SLOAD PUSH2 0x7A5 SWAP2 SWAP1 PUSH2 0x13B2 JUMP JUMPDEST SWAP3 POP POP DUP2 SWAP1 SSTORE POP PUSH32 0x155D469211F46E4D9AE974606F0878F9AACC6198BA30A1E6B9C8CF5627352FB5 CALLER CALLVALUE PUSH1 0x40 MLOAD PUSH2 0x7DD SWAP3 SWAP2 SWAP1 PUSH2 0xF71 JUMP JUMPDEST PUSH1 0x40 MLOAD DUP1 SWAP2 SUB SWAP1 LOG1 POP JUMP JUMPDEST PUSH1 0x7 DUP2 DUP2 SLOAD DUP2 LT PUSH2 0x7F7 JUMPI PUSH0 DUP1 REVERT JUMPDEST SWAP1 PUSH0 MSTORE PUSH1 0x20 PUSH0 KECCAK256 SWAP1 PUSH1 0x2 MUL ADD PUSH0 SWAP2 POP SWAP1 POP DUP1 PUSH0 ADD PUSH0 SWAP1 SLOAD SWAP1 PUSH2 0x100 EXP SWAP1 DIV PUSH20 0xFFFFFFFFFFFFFFFFFFFFFFFFFFFFFFFFFFFFFFFF AND SWAP1 DUP1 PUSH1 0x1 ADD SLOAD SWAP1 POP DUP3 JUMP JUMPDEST PUSH1 0x8 PUSH1 0x20 MSTORE DUP1 PUSH0 MSTORE PUSH1 0x40 PUSH0 KECCAK256 PUSH0 SWAP2 POP SWAP1 POP SLOAD DUP2 JUMP JUMPDEST PUSH1 0x6 SLOAD DUP2 JUMP JUMPDEST PUSH0 DUP1 PUSH0 PUSH1 0x7 DUP1 SLOAD SWAP1 POP GT PUSH2 0x89A JUMPI PUSH1 0x40 MLOAD PUSH32 0x8C379A000000000000000000000000000000000000000000000000000000000 DUP2 MSTORE PUSH1 0x4 ADD PUSH2 0x891 SWAP1 PUSH2 0x14BD JUMP JUMPDEST PUSH1 0x40 MLOAD DUP1 SWAP2 SUB SWAP1 REVERT JUMPDEST PUSH1 0x7 PUSH1 0x1 PUSH1 0x7 DUP1 SLOAD SWAP1 POP PUSH2 0x8AE SWAP2 SWAP1 PUSH2 0x12B4 JUMP JUMPDEST DUP2 SLOAD DUP2 LT PUSH2 0x8BF JUMPI PUSH2 0x8BE PUSH2 0x12E7 JUMP JUMPDEST JUMPDEST SWAP1 PUSH0 MSTORE PUSH1 0x20 PUSH0 KECCAK256 SWAP1 PUSH1 0x2 MUL ADD PUSH0 ADD PUSH0 SWAP1 SLOAD SWAP1 PUSH2 0x100 EXP SWAP1 DIV PUSH20 0xFFFFFFFFFFFFFFFFFFFFFFFFFFFFFFFFFFFFFFFF AND SWAP2 POP PUSH1 0x7 PUSH1 0x1 PUSH1 0x7 DUP1 SLOAD SWAP1 POP PUSH2 0x903 SWAP2 SWAP1 PUSH2 0x12B4 JUMP JUMPDEST DUP2 SLOAD DUP2 LT PUSH2 0x914 JUMPI PUSH2 0x913 PUSH2 0x12E7 JUMP JUMPDEST JUMPDEST SWAP1 PUSH0 MSTORE PUSH1 0x20 PUSH0 KECCAK256 SWAP1 PUSH1 0x2 MUL ADD PUSH1 0x1 ADD SLOAD SWAP1 POP SWAP1 SWAP2 JUMP JUMPDEST PUSH1 0x5 PUSH0 SWAP1 SLOAD SWAP1 PUSH2 0x100 EXP SWAP1 DIV PUSH1 0xFF AND DUP1 ISZERO PUSH2 0x946 JUMPI POP PUSH1 0x1 SLOAD TIMESTAMP LT JUMPDEST PUSH2 0x985 JUMPI PUSH1 0x40 MLOAD PUSH32 0x8C379A000000000000000000000000000000000000000000000000000000000 DUP2 MSTORE PUSH1 0x4 ADD PUSH2 0x97C SWAP1 PUSH2 0x1201 JUMP JUMPDEST PUSH1 0x40 MLOAD DUP1 SWAP2 SUB SWAP1 REVERT JUMPDEST PUSH0 PUSH1 0x8 PUSH0 CALLER PUSH20 0xFFFFFFFFFFFFFFFFFFFFFFFFFFFFFFFFFFFFFFFF AND PUSH20 0xFFFFFFFFFFFFFFFFFFFFFFFFFFFFFFFFFFFFFFFF AND DUP2 MSTORE PUSH1 0x20 ADD SWAP1 DUP2 MSTORE PUSH1 0x20 ADD PUSH0 KECCAK256 SLOAD SWAP1 POP PUSH0 DUP1 PUSH1 0x7 DUP1 SLOAD SWAP1 POP SWAP1 POP JUMPDEST PUSH0 DUP2 GT ISZERO PUSH2 0xAA3 JUMPI CALLER PUSH20 0xFFFFFFFFFFFFFFFFFFFFFFFFFFFFFFFFFFFFFFFF AND PUSH1 0x7 PUSH1 0x1 DUP4 PUSH2 0x9FF SWAP2 SWAP1 PUSH2 0x12B4 JUMP JUMPDEST DUP2 SLOAD DUP2 LT PUSH2 0xA10 JUMPI PUSH2 0xA0F PUSH2 0x12E7 JUMP JUMPDEST JUMPDEST SWAP1 PUSH0 MSTORE PUSH1 0x20 PUSH0 KECCAK256 SWAP1 PUSH1 0x2 MUL ADD PUSH0 ADD PUSH0 SWAP1 SLOAD SWAP1 PUSH2 0x100 EXP SWAP1 DIV PUSH20 0xFFFFFFFFFFFFFFFFFFFFFFFFFFFFFFFFFFFFFFFF AND PUSH20 0xFFFFFFFFFFFFFFFFFFFFFFFFFFFFFFFFFFFFFFFF AND SUB PUSH2 0xA90 JUMPI PUSH1 0x7 PUSH1 0x1 DUP3 PUSH2 0xA68 SWAP2 SWAP1 PUSH2 0x12B4 JUMP JUMPDEST DUP2 SLOAD DUP2 LT PUSH2 0xA79 JUMPI PUSH2 0xA78 PUSH2 0x12E7 JUMP JUMPDEST JUMPDEST SWAP1 PUSH0 MSTORE PUSH1 0x20 PUSH0 KECCAK256 SWAP1 PUSH1 0x2 MUL ADD PUSH1 0x1 ADD SLOAD SWAP2 POP PUSH2 0xAA3 JUMP JUMPDEST DUP1 DUP1 PUSH2 0xA9B SWAP1 PUSH2 0x14DB JUMP JUMPDEST SWAP2 POP POP PUSH2 0x9D1 JUMP JUMPDEST POP DUP1 DUP3 GT PUSH2 0xAE6 JUMPI PUSH1 0x40 MLOAD PUSH32 0x8C379A000000000000000000000000000000000000000000000000000000000 DUP2 MSTORE PUSH1 0x4 ADD PUSH2 0xADD SWAP1 PUSH2 0x154C JUMP JUMPDEST PUSH1 0x40 MLOAD DUP1 SWAP2 SUB SWAP1 REVERT JUMPDEST PUSH0 DUP2 DUP4 PUSH2 0xAF3 SWAP2 SWAP1 PUSH2 0x12B4 JUMP JUMPDEST SWAP1 POP DUP1 PUSH1 0x8 PUSH0 CALLER PUSH20 0xFFFFFFFFFFFFFFFFFFFFFFFFFFFFFFFFFFFFFFFF AND PUSH20 0xFFFFFFFFFFFFFFFFFFFFFFFFFFFFFFFFFFFFFFFF AND DUP2 MSTORE PUSH1 0x20 ADD SWAP1 DUP2 MSTORE PUSH1 0x20 ADD PUSH0 KECCAK256 PUSH0 DUP3 DUP3 SLOAD PUSH2 0xB41 SWAP2 SWAP1 PUSH2 0x12B4 JUMP JUMPDEST SWAP3 POP POP DUP2 SWAP1 SSTORE POP CALLER PUSH20 0xFFFFFFFFFFFFFFFFFFFFFFFFFFFFFFFFFFFFFFFF AND PUSH2 0x8FC DUP3 SWAP1 DUP2 ISZERO MUL SWAP1 PUSH1 0x40 MLOAD PUSH0 PUSH1 0x40 MLOAD DUP1 DUP4 SUB DUP2 DUP6 DUP9 DUP9 CALL SWAP4 POP POP POP POP ISZERO DUP1 ISZERO PUSH2 0xB8B JUMPI RETURNDATASIZE PUSH0 DUP1 RETURNDATACOPY RETURNDATASIZE PUSH0 REVERT JUMPDEST POP POP POP POP JUMP JUMPDEST PUSH1 0x5 PUSH0 SWAP1 SLOAD SWAP1 PUSH2 0x100 EXP SWAP1 DIV PUSH1 0xFF AND ISZERO PUSH2 0xBE0 JUMPI PUSH1 0x40 MLOAD PUSH32 0x8C379A000000000000000000000000000000000000000000000000000000000 DUP2 MSTORE PUSH1 0x4 ADD PUSH2 0xBD7 SWAP1 PUSH2 0x15B4 JUMP JUMPDEST PUSH1 0x40 MLOAD DUP1 SWAP2 SUB SWAP1 REVERT JUMPDEST PUSH0 PUSH1 0x8 PUSH0 CALLER PUSH20 0xFFFFFFFFFFFFFFFFFFFFFFFFFFFFFFFFFFFFFFFF AND PUSH20 0xFFFFFFFFFFFFFFFFFFFFFFFFFFFFFFFFFFFFFFFF AND DUP2 MSTORE PUSH1 0x20 ADD SWAP1 DUP2 MSTORE PUSH1 0x20 ADD PUSH0 KECCAK256 SLOAD SWAP1 POP PUSH0 DUP2 GT PUSH2 0xC63 JUMPI PUSH1 0x40 MLOAD PUSH32 0x8C379A000000000000000000000000000000000000000000000000000000000 DUP2 MSTORE PUSH1 0x4 ADD PUSH2 0xC5A SWAP1 PUSH2 0x161C JUMP JUMPDEST PUSH1 0x40 MLOAD DUP1 SWAP2 SUB SWAP1 REVERT JUMPDEST PUSH0 PUSH1 0x7 PUSH1 0x1 PUSH1 0x7 DUP1 SLOAD SWAP1 POP PUSH2 0xC78 SWAP2 SWAP1 PUSH2 0x12B4 JUMP JUMPDEST DUP2 SLOAD DUP2 LT PUSH2 0xC89 JUMPI PUSH2 0xC88 PUSH2 0x12E7 JUMP JUMPDEST JUMPDEST SWAP1 PUSH0 MSTORE PUSH1 0x20 PUSH0 KECCAK256 SWAP1 PUSH1 0x2 MUL ADD PUSH0 ADD PUSH0 SWAP1 SLOAD SWAP1 PUSH2 0x100 EXP SWAP1 DIV PUSH20 0xFFFFFFFFFFFFFFFFFFFFFFFFFFFFFFFFFFFFFFFF AND SWAP1 POP DUP1 PUSH20 0xFFFFFFFFFFFFFFFFFFFFFFFFFFFFFFFFFFFFFFFF AND CALLER PUSH20 0xFFFFFFFFFFFFFFFFFFFFFFFFFFFFFFFFFFFFFFFF AND EQ PUSH2 0xD19 JUMPI PUSH0 PUSH1 0x64 PUSH1 0x4 SLOAD DUP5 PUSH2 0xCFD SWAP2 SWAP1 PUSH2 0x1314 JUMP JUMPDEST PUSH2 0xD07 SWAP2 SWAP1 PUSH2 0x1382 JUMP JUMPDEST SWAP1 POP DUP1 DUP4 PUSH2 0xD15 SWAP2 SWAP1 PUSH2 0x12B4 JUMP JUMPDEST SWAP3 POP POP JUMPDEST PUSH0 PUSH1 0x8 PUSH0 CALLER PUSH20 0xFFFFFFFFFFFFFFFFFFFFFFFFFFFFFFFFFFFFFFFF AND PUSH20 0xFFFFFFFFFFFFFFFFFFFFFFFFFFFFFFFFFFFFFFFF AND DUP2 MSTORE PUSH1 0x20 ADD SWAP1 DUP2 MSTORE PUSH1 0x20 ADD PUSH0 KECCAK256 DUP2 SWAP1 SSTORE POP CALLER PUSH20 0xFFFFFFFFFFFFFFFFFFFFFFFFFFFFFFFFFFFFFFFF AND PUSH2 0x8FC DUP4 SWAP1 DUP2 ISZERO MUL SWAP1 PUSH1 0x40 MLOAD PUSH0 PUSH1 0x40 MLOAD DUP1 DUP4 SUB DUP2 DUP6 DUP9 DUP9 CALL SWAP4 POP POP POP POP ISZERO DUP1 ISZERO PUSH2 0xD9E JUMPI RETURNDATASIZE PUSH0 DUP1 RETURNDATACOPY RETURNDATASIZE PUSH0 REVERT JUMPDEST POP POP POP JUMP JUMPDEST PUSH1 0x4 SLOAD DUP2 JUMP JUMPDEST PUSH1 0x60 PUSH1 0x7 DUP1 SLOAD DUP1 PUSH1 0x20 MUL PUSH1 0x20 ADD PUSH1 0x40 MLOAD SWAP1 DUP2 ADD PUSH1 0x40 MSTORE DUP1 SWAP3 SWAP2 SWAP1 DUP2 DUP2 MSTORE PUSH1 0x20 ADD PUSH0 SWAP1 JUMPDEST DUP3 DUP3 LT ISZERO PUSH2 0xE5A JUMPI DUP4 DUP3 SWAP1 PUSH0 MSTORE PUSH1 0x20 PUSH0 KECCAK256 SWAP1 PUSH1 0x2 MUL ADD PUSH1 0x40 MLOAD DUP1 PUSH1 0x40 ADD PUSH1 0x40 MSTORE SWAP1 DUP2 PUSH0 DUP3 ADD PUSH0 SWAP1 SLOAD SWAP1 PUSH2 0x100 EXP SWAP1 DIV PUSH20 0xFFFFFFFFFFFFFFFFFFFFFFFFFFFFFFFFFFFFFFFF AND PUSH20 0xFFFFFFFFFFFFFFFFFFFFFFFFFFFFFFFFFFFFFFFF AND PUSH20 0xFFFFFFFFFFFFFFFFFFFFFFFFFFFFFFFFFFFFFFFF AND DUP2 MSTORE PUSH1 0x20 ADD PUSH1 0x1 DUP3 ADD SLOAD DUP2 MSTORE POP POP DUP2 MSTORE PUSH1 0x20 ADD SWAP1 PUSH1 0x1 ADD SWAP1 PUSH2 0xDCC JUMP JUMPDEST POP POP POP POP SWAP1 POP SWAP1 JUMP JUMPDEST PUSH1 0x1 SLOAD DUP2 JUMP JUMPDEST PUSH1 0x3 SLOAD DUP2 JUMP JUMPDEST PUSH1 0x2 SLOAD DUP2 JUMP JUMPDEST PUSH0 DUP2 ISZERO ISZERO SWAP1 POP SWAP2 SWAP1 POP JUMP JUMPDEST PUSH2 0xE89 DUP2 PUSH2 0xE75 JUMP JUMPDEST DUP3 MSTORE POP POP JUMP JUMPDEST PUSH0 PUSH1 0x20 DUP3 ADD SWAP1 POP PUSH2 0xEA2 PUSH0 DUP4 ADD DUP5 PUSH2 0xE80 JUMP JUMPDEST SWAP3 SWAP2 POP POP JUMP JUMPDEST PUSH0 PUSH20 0xFFFFFFFFFFFFFFFFFFFFFFFFFFFFFFFFFFFFFFFF DUP3 AND SWAP1 POP SWAP2 SWAP1 POP JUMP JUMPDEST PUSH0 PUSH2 0xED1 DUP3 PUSH2 0xEA8 JUMP JUMPDEST SWAP1 POP SWAP2 SWAP1 POP JUMP JUMPDEST PUSH2 0xEE1 DUP2 PUSH2 0xEC7 JUMP JUMPDEST DUP3 MSTORE POP POP JUMP JUMPDEST PUSH0 PUSH1 0x20 DUP3 ADD SWAP1 POP PUSH2 0xEFA PUSH0 DUP4 ADD DUP5 PUSH2 0xED8 JUMP JUMPDEST SWAP3 SWAP2 POP POP JUMP JUMPDEST PUSH0 DUP1 REVERT JUMPDEST PUSH0 DUP2 SWAP1 POP SWAP2 SWAP1 POP JUMP JUMPDEST PUSH2 0xF16 DUP2 PUSH2 0xF04 JUMP JUMPDEST DUP2 EQ PUSH2 0xF20 JUMPI PUSH0 DUP1 REVERT JUMPDEST POP JUMP JUMPDEST PUSH0 DUP2 CALLDATALOAD SWAP1 POP PUSH2 0xF31 DUP2 PUSH2 0xF0D JUMP JUMPDEST SWAP3 SWAP2 POP POP JUMP JUMPDEST PUSH0 PUSH1 0x20 DUP3 DUP5 SUB SLT ISZERO PUSH2 0xF4C JUMPI PUSH2 0xF4B PUSH2 0xF00 JUMP JUMPDEST JUMPDEST PUSH0 PUSH2 0xF59 DUP5 DUP3 DUP6 ADD PUSH2 0xF23 JUMP JUMPDEST SWAP2 POP POP SWAP3 SWAP2 POP POP JUMP JUMPDEST PUSH2 0xF6B DUP2 PUSH2 0xF04 JUMP JUMPDEST DUP3 MSTORE POP POP JUMP JUMPDEST PUSH0 PUSH1 0x40 DUP3 ADD SWAP1 POP PUSH2 0xF84 PUSH0 DUP4 ADD DUP6 PUSH2 0xED8 JUMP JUMPDEST PUSH2 0xF91 PUSH1 0x20 DUP4 ADD DUP5 PUSH2 0xF62 JUMP JUMPDEST SWAP4 SWAP3 POP POP POP JUMP JUMPDEST PUSH2 0xFA1 DUP2 PUSH2 0xEC7 JUMP JUMPDEST DUP2 EQ PUSH2 0xFAB JUMPI PUSH0 DUP1 REVERT JUMPDEST POP JUMP JUMPDEST PUSH0 DUP2 CALLDATALOAD SWAP1 POP PUSH2 0xFBC DUP2 PUSH2 0xF98 JUMP JUMPDEST SWAP3 SWAP2 POP POP JUMP JUMPDEST PUSH0 PUSH1 0x20 DUP3 DUP5 SUB SLT ISZERO PUSH2 0xFD7 JUMPI PUSH2 0xFD6 PUSH2 0xF00 JUMP JUMPDEST JUMPDEST PUSH0 PUSH2 0xFE4 DUP5 DUP3 DUP6 ADD PUSH2 0xFAE JUMP JUMPDEST SWAP2 POP POP SWAP3 SWAP2 POP POP JUMP JUMPDEST PUSH0 PUSH1 0x20 DUP3 ADD SWAP1 POP PUSH2 0x1000 PUSH0 DUP4 ADD DUP5 PUSH2 0xF62 JUMP JUMPDEST SWAP3 SWAP2 POP POP JUMP JUMPDEST PUSH0 DUP2 MLOAD SWAP1 POP SWAP2 SWAP1 POP JUMP JUMPDEST PUSH0 DUP3 DUP3 MSTORE PUSH1 0x20 DUP3 ADD SWAP1 POP SWAP3 SWAP2 POP POP JUMP JUMPDEST PUSH0 DUP2 SWAP1 POP PUSH1 0x20 DUP3 ADD SWAP1 POP SWAP2 SWAP1 POP JUMP JUMPDEST PUSH2 0x1038 DUP2 PUSH2 0xEC7 JUMP JUMPDEST DUP3 MSTORE POP POP JUMP JUMPDEST PUSH2 0x1047 DUP2 PUSH2 0xF04 JUMP JUMPDEST DUP3 MSTORE POP POP JUMP JUMPDEST PUSH1 0x40 DUP3 ADD PUSH0 DUP3 ADD MLOAD PUSH2 0x1061 PUSH0 DUP6 ADD DUP3 PUSH2 0x102F JUMP JUMPDEST POP PUSH1 0x20 DUP3 ADD MLOAD PUSH2 0x1074 PUSH1 0x20 DUP6 ADD DUP3 PUSH2 0x103E JUMP JUMPDEST POP POP POP POP JUMP JUMPDEST PUSH0 PUSH2 0x1085 DUP4 DUP4 PUSH2 0x104D JUMP JUMPDEST PUSH1 0x40 DUP4 ADD SWAP1 POP SWAP3 SWAP2 POP POP JUMP JUMPDEST PUSH0 PUSH1 0x20 DUP3 ADD SWAP1 POP SWAP2 SWAP1 POP JUMP JUMPDEST PUSH0 PUSH2 0x10A7 DUP3 PUSH2 0x1006 JUMP JUMPDEST PUSH2 0x10B1 DUP2 DUP6 PUSH2 0x1010 JUMP JUMPDEST SWAP4 POP PUSH2 0x10BC DUP4 PUSH2 0x1020 JUMP JUMPDEST DUP1 PUSH0 JUMPDEST DUP4 DUP2 LT ISZERO PUSH2 0x10EC JUMPI DUP2 MLOAD PUSH2 0x10D3 DUP9 DUP3 PUSH2 0x107A JUMP JUMPDEST SWAP8 POP PUSH2 0x10DE DUP4 PUSH2 0x1091 JUMP JUMPDEST SWAP3 POP POP PUSH1 0x1 DUP2 ADD SWAP1 POP PUSH2 0x10BF JUMP JUMPDEST POP DUP6 SWAP4 POP POP POP POP SWAP3 SWAP2 POP POP JUMP JUMPDEST PUSH0 PUSH1 0x20 DUP3 ADD SWAP1 POP DUP2 DUP2 SUB PUSH0 DUP4 ADD MSTORE PUSH2 0x1111 DUP2 DUP5 PUSH2 0x109D JUMP JUMPDEST SWAP1 POP SWAP3 SWAP2 POP POP JUMP JUMPDEST PUSH0 DUP3 DUP3 MSTORE PUSH1 0x20 DUP3 ADD SWAP1 POP SWAP3 SWAP2 POP POP JUMP JUMPDEST PUSH32 0x536F6C6F20656C2073756261737461646F7220707565646520656A6563757461 PUSH0 DUP3 ADD MSTORE PUSH32 0x72206573746120616363696F6E00000000000000000000000000000000000000 PUSH1 0x20 DUP3 ADD MSTORE POP JUMP JUMPDEST PUSH0 PUSH2 0x1183 PUSH1 0x2D DUP4 PUSH2 0x1119 JUMP JUMPDEST SWAP2 POP PUSH2 0x118E DUP3 PUSH2 0x1129 JUMP JUMPDEST PUSH1 0x40 DUP3 ADD SWAP1 POP SWAP2 SWAP1 POP JUMP JUMPDEST PUSH0 PUSH1 0x20 DUP3 ADD SWAP1 POP DUP2 DUP2 SUB PUSH0 DUP4 ADD MSTORE PUSH2 0x11B0 DUP2 PUSH2 0x1177 JUMP JUMPDEST SWAP1 POP SWAP2 SWAP1 POP JUMP JUMPDEST PUSH32 0x4C6120737562617374612079612068612066696E616C697A61646F0000000000 PUSH0 DUP3 ADD MSTORE POP JUMP JUMPDEST PUSH0 PUSH2 0x11EB PUSH1 0x1B DUP4 PUSH2 0x1119 JUMP JUMPDEST SWAP2 POP PUSH2 0x11F6 DUP3 PUSH2 0x11B7 JUMP JUMPDEST PUSH1 0x20 DUP3 ADD SWAP1 POP SWAP2 SWAP1 POP JUMP JUMPDEST PUSH0 PUSH1 0x20 DUP3 ADD SWAP1 POP DUP2 DUP2 SUB PUSH0 DUP4 ADD MSTORE PUSH2 0x1218 DUP2 PUSH2 0x11DF JUMP JUMPDEST SWAP1 POP SWAP2 SWAP1 POP JUMP JUMPDEST PUSH32 0x4C6120737562617374612061756E206573746120656E20637572736F00000000 PUSH0 DUP3 ADD MSTORE POP JUMP JUMPDEST PUSH0 PUSH2 0x1253 PUSH1 0x1C DUP4 PUSH2 0x1119 JUMP JUMPDEST SWAP2 POP PUSH2 0x125E DUP3 PUSH2 0x121F JUMP JUMPDEST PUSH1 0x20 DUP3 ADD SWAP1 POP SWAP2 SWAP1 POP JUMP JUMPDEST PUSH0 PUSH1 0x20 DUP3 ADD SWAP1 POP DUP2 DUP2 SUB PUSH0 DUP4 ADD MSTORE PUSH2 0x1280 DUP2 PUSH2 0x1247 JUMP JUMPDEST SWAP1 POP SWAP2 SWAP1 POP JUMP JUMPDEST PUSH32 0x4E487B7100000000000000000000000000000000000000000000000000000000 PUSH0 MSTORE PUSH1 0x11 PUSH1 0x4 MSTORE PUSH1 0x24 PUSH0 REVERT JUMPDEST PUSH0 PUSH2 0x12BE DUP3 PUSH2 0xF04 JUMP JUMPDEST SWAP2 POP PUSH2 0x12C9 DUP4 PUSH2 0xF04 JUMP JUMPDEST SWAP3 POP DUP3 DUP3 SUB SWAP1 POP DUP2 DUP2 GT ISZERO PUSH2 0x12E1 JUMPI PUSH2 0x12E0 PUSH2 0x1287 JUMP JUMPDEST JUMPDEST SWAP3 SWAP2 POP POP JUMP JUMPDEST PUSH32 0x4E487B7100000000000000000000000000000000000000000000000000000000 PUSH0 MSTORE PUSH1 0x32 PUSH1 0x4 MSTORE PUSH1 0x24 PUSH0 REVERT JUMPDEST PUSH0 PUSH2 0x131E DUP3 PUSH2 0xF04 JUMP JUMPDEST SWAP2 POP PUSH2 0x1329 DUP4 PUSH2 0xF04 JUMP JUMPDEST SWAP3 POP DUP3 DUP3 MUL PUSH2 0x1337 DUP2 PUSH2 0xF04 JUMP JUMPDEST SWAP2 POP DUP3 DUP3 DIV DUP5 EQ DUP4 ISZERO OR PUSH2 0x134E JUMPI PUSH2 0x134D PUSH2 0x1287 JUMP JUMPDEST JUMPDEST POP SWAP3 SWAP2 POP POP JUMP JUMPDEST PUSH32 0x4E487B7100000000000000000000000000000000000000000000000000000000 PUSH0 MSTORE PUSH1 0x12 PUSH1 0x4 MSTORE PUSH1 0x24 PUSH0 REVERT JUMPDEST PUSH0 PUSH2 0x138C DUP3 PUSH2 0xF04 JUMP JUMPDEST SWAP2 POP PUSH2 0x1397 DUP4 PUSH2 0xF04 JUMP JUMPDEST SWAP3 POP DUP3 PUSH2 0x13A7 JUMPI PUSH2 0x13A6 PUSH2 0x1355 JUMP JUMPDEST JUMPDEST DUP3 DUP3 DIV SWAP1 POP SWAP3 SWAP2 POP POP JUMP JUMPDEST PUSH0 PUSH2 0x13BC DUP3 PUSH2 0xF04 JUMP JUMPDEST SWAP2 POP PUSH2 0x13C7 DUP4 PUSH2 0xF04 JUMP JUMPDEST SWAP3 POP DUP3 DUP3 ADD SWAP1 POP DUP1 DUP3 GT ISZERO PUSH2 0x13DF JUMPI PUSH2 0x13DE PUSH2 0x1287 JUMP JUMPDEST JUMPDEST SWAP3 SWAP2 POP POP JUMP JUMPDEST PUSH32 0x4C61206F66657274612064656265207375706572617220656E20616C206D656E PUSH0 DUP3 ADD MSTORE PUSH32 0x6F7320756E203525206C61206F66657274612061637475616C00000000000000 PUSH1 0x20 DUP3 ADD MSTORE POP JUMP JUMPDEST PUSH0 PUSH2 0x143F PUSH1 0x39 DUP4 PUSH2 0x1119 JUMP JUMPDEST SWAP2 POP PUSH2 0x144A DUP3 PUSH2 0x13E5 JUMP JUMPDEST PUSH1 0x40 DUP3 ADD SWAP1 POP SWAP2 SWAP1 POP JUMP JUMPDEST PUSH0 PUSH1 0x20 DUP3 ADD SWAP1 POP DUP2 DUP2 SUB PUSH0 DUP4 ADD MSTORE PUSH2 0x146C DUP2 PUSH2 0x1433 JUMP JUMPDEST SWAP1 POP SWAP2 SWAP1 POP JUMP JUMPDEST PUSH32 0x4E6F20686179206F666572746173000000000000000000000000000000000000 PUSH0 DUP3 ADD MSTORE POP JUMP JUMPDEST PUSH0 PUSH2 0x14A7 PUSH1 0xE DUP4 PUSH2 0x1119 JUMP JUMPDEST SWAP2 POP PUSH2 0x14B2 DUP3 PUSH2 0x1473 JUMP JUMPDEST PUSH1 0x20 DUP3 ADD SWAP1 POP SWAP2 SWAP1 POP JUMP JUMPDEST PUSH0 PUSH1 0x20 DUP3 ADD SWAP1 POP DUP2 DUP2 SUB PUSH0 DUP4 ADD MSTORE PUSH2 0x14D4 DUP2 PUSH2 0x149B JUMP JUMPDEST SWAP1 POP SWAP2 SWAP1 POP JUMP JUMPDEST PUSH0 PUSH2 0x14E5 DUP3 PUSH2 0xF04 JUMP JUMPDEST SWAP2 POP PUSH0 DUP3 SUB PUSH2 0x14F7 JUMPI PUSH2 0x14F6 PUSH2 0x1287 JUMP JUMPDEST JUMPDEST PUSH1 0x1 DUP3 SUB SWAP1 POP SWAP2 SWAP1 POP JUMP JUMPDEST PUSH32 0x4E6F20686179206578636564656E746520706172612072657469726172000000 PUSH0 DUP3 ADD MSTORE POP JUMP JUMPDEST PUSH0 PUSH2 0x1536 PUSH1 0x1D DUP4 PUSH2 0x1119 JUMP JUMPDEST SWAP2 POP PUSH2 0x1541 DUP3 PUSH2 0x1502 JUMP JUMPDEST PUSH1 0x20 DUP3 ADD SWAP1 POP SWAP2 SWAP1 POP JUMP JUMPDEST PUSH0 PUSH1 0x20 DUP3 ADD SWAP1 POP DUP2 DUP2 SUB PUSH0 DUP4 ADD MSTORE PUSH2 0x1563 DUP2 PUSH2 0x152A JUMP JUMPDEST SWAP1 POP SWAP2 SWAP1 POP JUMP JUMPDEST PUSH32 0x4C6120737562617374612061756E206573746120616374697661000000000000 PUSH0 DUP3 ADD MSTORE POP JUMP JUMPDEST PUSH0 PUSH2 0x159E PUSH1 0x1A DUP4 PUSH2 0x1119 JUMP JUMPDEST SWAP2 POP PUSH2 0x15A9 DUP3 PUSH2 0x156A JUMP JUMPDEST PUSH1 0x20 DUP3 ADD SWAP1 POP SWAP2 SWAP1 POP JUMP JUMPDEST PUSH0 PUSH1 0x20 DUP3 ADD SWAP1 POP DUP2 DUP2 SUB PUSH0 DUP4 ADD MSTORE PUSH2 0x15CB DUP2 PUSH2 0x1592 JUMP JUMPDEST SWAP1 POP SWAP2 SWAP1 POP JUMP JUMPDEST PUSH32 0x4E6F20686179206465706F7369746F2070617261206465766F6C766572000000 PUSH0 DUP3 ADD MSTORE POP JUMP JUMPDEST PUSH0 PUSH2 0x1606 PUSH1 0x1D DUP4 PUSH2 0x1119 JUMP JUMPDEST SWAP2 POP PUSH2 0x1611 DUP3 PUSH2 0x15D2 JUMP JUMPDEST PUSH1 0x20 DUP3 ADD SWAP1 POP SWAP2 SWAP1 POP JUMP JUMPDEST PUSH0 PUSH1 0x20 DUP3 ADD SWAP1 POP DUP2 DUP2 SUB PUSH0 DUP4 ADD MSTORE PUSH2 0x1633 DUP2 PUSH2 0x15FA JUMP JUMPDEST SWAP1 POP SWAP2 SWAP1 POP JUMP INVALID LOG2 PUSH5 0x6970667358 0x22 SLT KECCAK256 LT CREATE 0x22 DELEGATECALL 0xD0 0xE5 DUP2 PUSH25 0xD92EE0646242438B93BA4F6CFAF58C8987616852F8A856C364 PUSH20 0x6F6C634300081A00330000000000000000000000 "
				},
				"gasEstimates": {
					"creation": {
						"codeDepositCost": "1148800",
						"executionCost": "infinite",
						"totalCost": "infinite"
					},
					"external": {
						"activa()": "2512",
						"comision()": "2514",
						"depositos(address)": "2869",
						"duracionSubasta()": "2513",
						"finalizarSubasta()": "infinite",
						"mostrarGanador()": "infinite",
						"mostrarOfertas()": "infinite",
						"ofertaInicial()": "2514",
						"ofertar()": "infinite",
						"ofertas(uint256)": "infinite",
						"porcentajeIncremento()": "2491",
						"retirarDeposito()": "infinite",
						"retiroParcial()": "infinite",
						"subastador()": "2573",
						"tiempoFinal()": "2469"
					}
				},
				"methodIdentifiers": {
					"activa()": "2c5e5471",
					"comision()": "b53627b2",
					"depositos(address)": "664e62b9",
					"duracionSubasta()": "d1d7e96c",
					"finalizarSubasta()": "0851eac2",
					"mostrarGanador()": "753dcaeb",
					"mostrarOfertas()": "c442a99f",
					"ofertaInicial()": "71ea6d33",
					"ofertar()": "3ec059d7",
					"ofertas(uint256)": "56afff7c",
					"porcentajeIncremento()": "cc14e31f",
					"retirarDeposito()": "a05d3ddc",
					"retiroParcial()": "9528a4bd",
					"subastador()": "3dfa138d",
					"tiempoFinal()": "c63049f8"
				}
			},
			"storageLayout": {
				"storage": [
					{
						"astId": 3,
						"contract": "subasta2.sol:Subasta",
						"label": "subastador",
						"offset": 0,
						"slot": "0",
						"type": "t_address"
					},
					{
						"astId": 5,
						"contract": "subasta2.sol:Subasta",
						"label": "tiempoFinal",
						"offset": 0,
						"slot": "1",
						"type": "t_uint256"
					},
					{
						"astId": 10,
						"contract": "subasta2.sol:Subasta",
						"label": "duracionSubasta",
						"offset": 0,
						"slot": "2",
						"type": "t_uint256"
					},
					{
						"astId": 13,
						"contract": "subasta2.sol:Subasta",
						"label": "porcentajeIncremento",
						"offset": 0,
						"slot": "3",
						"type": "t_uint256"
					},
					{
						"astId": 16,
						"contract": "subasta2.sol:Subasta",
						"label": "comision",
						"offset": 0,
						"slot": "4",
						"type": "t_uint256"
					},
					{
						"astId": 19,
						"contract": "subasta2.sol:Subasta",
						"label": "activa",
						"offset": 0,
						"slot": "5",
						"type": "t_bool"
					},
					{
						"astId": 22,
						"contract": "subasta2.sol:Subasta",
						"label": "ofertaInicial",
						"offset": 0,
						"slot": "6",
						"type": "t_uint256"
					},
					{
						"astId": 31,
						"contract": "subasta2.sol:Subasta",
						"label": "ofertas",
						"offset": 0,
						"slot": "7",
						"type": "t_array(t_struct(Oferta)27_storage)dyn_storage"
					},
					{
						"astId": 35,
						"contract": "subasta2.sol:Subasta",
						"label": "depositos",
						"offset": 0,
						"slot": "8",
						"type": "t_mapping(t_address,t_uint256)"
					}
				],
				"types": {
					"t_address": {
						"encoding": "inplace",
						"label": "address",
						"numberOfBytes": "20"
					},
					"t_array(t_struct(Oferta)27_storage)dyn_storage": {
						"base": "t_struct(Oferta)27_storage",
						"encoding": "dynamic_array",
						"label": "struct Subasta.Oferta[]",
						"numberOfBytes": "32"
					},
					"t_bool": {
						"encoding": "inplace",
						"label": "bool",
						"numberOfBytes": "1"
					},
					"t_mapping(t_address,t_uint256)": {
						"encoding": "mapping",
						"key": "t_address",
						"label": "mapping(address => uint256)",
						"numberOfBytes": "32",
						"value": "t_uint256"
					},
					"t_struct(Oferta)27_storage": {
						"encoding": "inplace",
						"label": "struct Subasta.Oferta",
						"members": [
							{
								"astId": 24,
								"contract": "subasta2.sol:Subasta",
								"label": "ofertante",
								"offset": 0,
								"slot": "0",
								"type": "t_address"
							},
							{
								"astId": 26,
								"contract": "subasta2.sol:Subasta",
								"label": "cantidad",
								"offset": 0,
								"slot": "1",
								"type": "t_uint256"
							}
						],
						"numberOfBytes": "64"
					},
					"t_uint256": {
						"encoding": "inplace",
						"label": "uint256",
						"numberOfBytes": "32"
					}
				}
			},
			"userdoc": {
				"kind": "user",
				"methods": {},
				"version": 1
			}
		}
	}
}