{
	"subasta4.sol": {
		"Subasta": {
			"abi": [
				{
					"inputs": [],
					"stateMutability": "nonpayable",
					"type": "constructor"
				},
				{
					"anonymous": false,
					"inputs": [
						{
							"indexed": false,
							"internalType": "address",
							"name": "ofertante",
							"type": "address"
						},
						{
							"indexed": false,
							"internalType": "uint256",
							"name": "cantidad",
							"type": "uint256"
						}
					],
					"name": "NuevaOferta",
					"type": "event"
				},
				{
					"anonymous": false,
					"inputs": [
						{
							"indexed": false,
							"internalType": "address",
							"name": "ganador",
							"type": "address"
						},
						{
							"indexed": false,
							"internalType": "uint256",
							"name": "cantidadGanadora",
							"type": "uint256"
						}
					],
					"name": "SubastaFinalizada",
					"type": "event"
				},
				{
					"inputs": [],
					"name": "activa",
					"outputs": [
						{
							"internalType": "bool",
							"name": "",
							"type": "bool"
						}
					],
					"stateMutability": "view",
					"type": "function"
				},
				{
					"inputs": [
						{
							"internalType": "address",
							"name": "",
							"type": "address"
						}
					],
					"name": "depositos",
					"outputs": [
						{
							"internalType": "uint256",
							"name": "",
							"type": "uint256"
						}
					],
					"stateMutability": "view",
					"type": "function"
				},
				{
					"inputs": [],
					"name": "duracionSubasta",
					"outputs": [
						{
							"internalType": "uint256",
							"name": "",
							"type": "uint256"
						}
					],
					"stateMutability": "view",
					"type": "function"
				},
				{
					"inputs": [
						{
							"internalType": "uint256",
							"name": "",
							"type": "uint256"
						}
					],
					"name": "historialOfertas",
					"outputs": [
						{
							"internalType": "address",
							"name": "ofertante",
							"type": "address"
						},
						{
							"internalType": "uint256",
							"name": "cantidad",
							"type": "uint256"
						}
					],
					"stateMutability": "view",
					"type": "function"
				},
				{
					"inputs": [],
					"name": "mejorOferta",
					"outputs": [
						{
							"internalType": "address",
							"name": "ofertante",
							"type": "address"
						},
						{
							"internalType": "uint256",
							"name": "cantidad",
							"type": "uint256"
						}
					],
					"stateMutability": "view",
					"type": "function"
				},
				{
					"inputs": [],
					"name": "mostrarGanador",
					"outputs": [
						{
							"internalType": "address",
							"name": "ganador",
							"type": "address"
						},
						{
							"internalType": "uint256",
							"name": "cantidadGanadora",
							"type": "uint256"
						}
					],
					"stateMutability": "view",
					"type": "function"
				},
				{
					"inputs": [],
					"name": "mostrarOfertas",
					"outputs": [
						{
							"components": [
								{
									"internalType": "address",
									"name": "ofertante",
									"type": "address"
								},
								{
									"internalType": "uint256",
									"name": "cantidad",
									"type": "uint256"
								}
							],
							"internalType": "struct Subasta.Oferta[]",
							"name": "",
							"type": "tuple[]"
						}
					],
					"stateMutability": "view",
					"type": "function"
				},
				{
					"inputs": [],
					"name": "ofertaInicial",
					"outputs": [
						{
							"internalType": "uint256",
							"name": "",
							"type": "uint256"
						}
					],
					"stateMutability": "view",
					"type": "function"
				},
				{
					"inputs": [],
					"name": "ofertar",
					"outputs": [],
					"stateMutability": "payable",
					"type": "function"
				},
				{
					"inputs": [],
					"name": "porcentajeIncremento",
					"outputs": [
						{
							"internalType": "uint256",
							"name": "",
							"type": "uint256"
						}
					],
					"stateMutability": "view",
					"type": "function"
				},
				{
					"inputs": [],
					"name": "subastador",
					"outputs": [
						{
							"internalType": "address",
							"name": "",
							"type": "address"
						}
					],
					"stateMutability": "view",
					"type": "function"
				},
				{
					"inputs": [],
					"name": "tiempoFinal",
					"outputs": [
						{
							"internalType": "uint256",
							"name": "",
							"type": "uint256"
						}
					],
					"stateMutability": "view",
					"type": "function"
				},
				{
					"inputs": [],
					"name": "verificarFinalizacionSubasta",
					"outputs": [],
					"stateMutability": "nonpayable",
					"type": "function"
				}
			],
			"devdoc": {
				"kind": "dev",
				"methods": {},
				"version": 1
			},
			"evm": {
				"assembly": "    /* \"subasta4.sol\":60:3440  contract Subasta {... */\n  mstore(0x40, 0x80)\n    /* \"subasta4.sol\":176:185  3 minutes */\n  0xb4\n    /* \"subasta4.sol\":146:185  uint public duracionSubasta = 3 minutes */\n  0x02\n  sstore\n    /* \"subasta4.sol\":227:228  5 */\n  0x05\n    /* \"subasta4.sol\":192:228  uint public porcentajeIncremento = 5 */\n  0x03\n  sstore\n    /* \"subasta4.sol\":284:288  true */\n  0x01\n    /* \"subasta4.sol\":263:288  bool public activa = true */\n  0x04\n  exp(0x0100, 0x00)\n  dup2\n  sload\n  dup2\n  0xff\n  mul\n  not\n  and\n  swap1\n  dup4\n  iszero\n  iszero\n  mul\n  or\n  swap1\n  sstore\n  pop\n    /* \"subasta4.sol\":323:330  1 ether */\n  0x0de0b6b3a7640000\n    /* \"subasta4.sol\":295:330  uint public ofertaInicial = 1 ether */\n  0x05\n  sstore\n    /* \"subasta4.sol\":714:1137  constructor() {... */\n  callvalue\n  dup1\n  iszero\n  tag_1\n  jumpi\n  0x00\n  dup1\n  revert\ntag_1:\n  pop\n    /* \"subasta4.sol\":752:762  msg.sender */\n  caller\n    /* \"subasta4.sol\":739:749  subastador */\n  0x00\n  dup1\n    /* \"subasta4.sol\":739:762  subastador = msg.sender */\n  0x0100\n  exp\n  dup2\n  sload\n  dup2\n  0xffffffffffffffffffffffffffffffffffffffff\n  mul\n  not\n  and\n  swap1\n  dup4\n  0xffffffffffffffffffffffffffffffffffffffff\n  and\n  mul\n  or\n  swap1\n  sstore\n  pop\n    /* \"subasta4.sol\":805:820  duracionSubasta */\n  sload(0x02)\n    /* \"subasta4.sol\":787:802  block.timestamp */\n  timestamp\n    /* \"subasta4.sol\":787:820  block.timestamp + duracionSubasta */\n  tag_4\n  swap2\n  swap1\n  tag_5\n  jump\t// in\ntag_4:\n    /* \"subasta4.sol\":773:784  tiempoFinal */\n  0x01\n    /* \"subasta4.sol\":773:820  tiempoFinal = block.timestamp + duracionSubasta */\n  dup2\n  swap1\n  sstore\n  pop\n    /* \"subasta4.sol\":937:970  Oferta(subastador, ofertaInicial) */\n  mload(0x40)\n  dup1\n  0x40\n  add\n  0x40\n  mstore\n  dup1\n    /* \"subasta4.sol\":944:954  subastador */\n  0x00\n  dup1\n  sload\n  swap1\n  0x0100\n  exp\n  swap1\n  div\n  0xffffffffffffffffffffffffffffffffffffffff\n  and\n    /* \"subasta4.sol\":937:970  Oferta(subastador, ofertaInicial) */\n  0xffffffffffffffffffffffffffffffffffffffff\n  and\n  dup2\n  mstore\n  0x20\n  add\n    /* \"subasta4.sol\":956:969  ofertaInicial */\n  sload(0x05)\n    /* \"subasta4.sol\":937:970  Oferta(subastador, ofertaInicial) */\n  dup2\n  mstore\n  pop\n    /* \"subasta4.sol\":923:934  mejorOferta */\n  0x06\n    /* \"subasta4.sol\":923:970  mejorOferta = Oferta(subastador, ofertaInicial) */\n  0x00\n  dup3\n  add\n  mload\n  dup2\n  0x00\n  add\n  exp(0x0100, 0x00)\n  dup2\n  sload\n  dup2\n  0xffffffffffffffffffffffffffffffffffffffff\n  mul\n  not\n  and\n  swap1\n  dup4\n  0xffffffffffffffffffffffffffffffffffffffff\n  and\n  mul\n  or\n  swap1\n  sstore\n  pop\n  0x20\n  dup3\n  add\n  mload\n  dup2\n  0x01\n  add\n  sstore\n  swap1\n  pop\n  pop\n    /* \"subasta4.sol\":1005:1018  ofertaInicial */\n  sload(0x05)\n    /* \"subasta4.sol\":981:990  depositos */\n  0x08\n    /* \"subasta4.sol\":981:1002  depositos[subastador] */\n  0x00\n    /* \"subasta4.sol\":991:1001  subastador */\n  dup1\n  0x00\n  swap1\n  sload\n  swap1\n  0x0100\n  exp\n  swap1\n  div\n  0xffffffffffffffffffffffffffffffffffffffff\n  and\n    /* \"subasta4.sol\":981:1002  depositos[subastador] */\n  0xffffffffffffffffffffffffffffffffffffffff\n  and\n  0xffffffffffffffffffffffffffffffffffffffff\n  and\n  dup2\n  mstore\n  0x20\n  add\n  swap1\n  dup2\n  mstore\n  0x20\n  add\n  0x00\n  keccak256\n    /* \"subasta4.sol\":981:1018  depositos[subastador] = ofertaInicial */\n  dup2\n  swap1\n  sstore\n  pop\n    /* \"subasta4.sol\":1095:1111  historialOfertas */\n  0x09\n    /* \"subasta4.sol\":1117:1128  mejorOferta */\n  0x06\n    /* \"subasta4.sol\":1095:1129  historialOfertas.push(mejorOferta) */\n  swap1\n  dup1\n  0x01\n  dup2\n  sload\n  add\n  dup1\n  dup3\n  sstore\n  dup1\n  swap2\n  pop\n  pop\n  0x01\n  swap1\n  sub\n  swap1\n  0x00\n  mstore\n  keccak256(0x00, 0x20)\n  swap1\n  0x02\n  mul\n  add\n  0x00\n  swap1\n  swap2\n  swap1\n  swap2\n  swap1\n  swap2\n  pop\n  0x00\n  dup3\n  add\n  0x00\n  swap1\n  sload\n  swap1\n  0x0100\n  exp\n  swap1\n  div\n  0xffffffffffffffffffffffffffffffffffffffff\n  and\n  dup2\n  0x00\n  add\n  exp(0x0100, 0x00)\n  dup2\n  sload\n  dup2\n  0xffffffffffffffffffffffffffffffffffffffff\n  mul\n  not\n  and\n  swap1\n  dup4\n  0xffffffffffffffffffffffffffffffffffffffff\n  and\n  mul\n  or\n  swap1\n  sstore\n  pop\n  0x01\n  dup3\n  add\n  sload\n  dup2\n  0x01\n  add\n  sstore\n  pop\n  pop\n    /* \"subasta4.sol\":60:3440  contract Subasta {... */\n  jump(tag_7)\n    /* \"#utility.yul\":7:84   */\ntag_8:\n    /* \"#utility.yul\":44:51   */\n  0x00\n    /* \"#utility.yul\":73:78   */\n  dup2\n    /* \"#utility.yul\":62:78   */\n  swap1\n  pop\n    /* \"#utility.yul\":7:84   */\n  swap2\n  swap1\n  pop\n  jump\t// out\n    /* \"#utility.yul\":90:270   */\ntag_9:\n    /* \"#utility.yul\":138:215   */\n  0x4e487b7100000000000000000000000000000000000000000000000000000000\n    /* \"#utility.yul\":135:136   */\n  0x00\n    /* \"#utility.yul\":128:216   */\n  mstore\n    /* \"#utility.yul\":235:239   */\n  0x11\n    /* \"#utility.yul\":232:233   */\n  0x04\n    /* \"#utility.yul\":225:240   */\n  mstore\n    /* \"#utility.yul\":259:263   */\n  0x24\n    /* \"#utility.yul\":256:257   */\n  0x00\n    /* \"#utility.yul\":249:264   */\n  revert\n    /* \"#utility.yul\":276:467   */\ntag_5:\n    /* \"#utility.yul\":316:319   */\n  0x00\n    /* \"#utility.yul\":335:355   */\n  tag_14\n    /* \"#utility.yul\":353:354   */\n  dup3\n    /* \"#utility.yul\":335:355   */\n  tag_8\n  jump\t// in\ntag_14:\n    /* \"#utility.yul\":330:355   */\n  swap2\n  pop\n    /* \"#utility.yul\":369:389   */\n  tag_15\n    /* \"#utility.yul\":387:388   */\n  dup4\n    /* \"#utility.yul\":369:389   */\n  tag_8\n  jump\t// in\ntag_15:\n    /* \"#utility.yul\":364:389   */\n  swap3\n  pop\n    /* \"#utility.yul\":412:413   */\n  dup3\n    /* \"#utility.yul\":409:410   */\n  dup3\n    /* \"#utility.yul\":405:414   */\n  add\n    /* \"#utility.yul\":398:414   */\n  swap1\n  pop\n    /* \"#utility.yul\":433:436   */\n  dup1\n    /* \"#utility.yul\":430:431   */\n  dup3\n    /* \"#utility.yul\":427:437   */\n  gt\n    /* \"#utility.yul\":424:460   */\n  iszero\n  tag_16\n  jumpi\n    /* \"#utility.yul\":440:458   */\n  tag_17\n  tag_9\n  jump\t// in\ntag_17:\n    /* \"#utility.yul\":424:460   */\ntag_16:\n    /* \"#utility.yul\":276:467   */\n  swap3\n  swap2\n  pop\n  pop\n  jump\t// out\n    /* \"subasta4.sol\":60:3440  contract Subasta {... */\ntag_7:\n  dataSize(sub_0)\n  dup1\n  dataOffset(sub_0)\n  0x00\n  codecopy\n  0x00\n  return\nstop\n\nsub_0: assembly {\n        /* \"subasta4.sol\":60:3440  contract Subasta {... */\n      mstore(0x40, 0x80)\n      jumpi(tag_1, lt(calldatasize, 0x04))\n      shr(0xe0, calldataload(0x00))\n      dup1\n      0x8e3df72e\n      gt\n      tag_15\n      jumpi\n      dup1\n      0xc442a99f\n      gt\n      tag_16\n      jumpi\n      dup1\n      0xc442a99f\n      eq\n      tag_11\n      jumpi\n      dup1\n      0xc63049f8\n      eq\n      tag_12\n      jumpi\n      dup1\n      0xcc14e31f\n      eq\n      tag_13\n      jumpi\n      dup1\n      0xd1d7e96c\n      eq\n      tag_14\n      jumpi\n      jump(tag_1)\n    tag_16:\n      dup1\n      0x8e3df72e\n      eq\n      tag_8\n      jumpi\n      dup1\n      0x9257a3db\n      eq\n      tag_9\n      jumpi\n      dup1\n      0xacfc9f98\n      eq\n      tag_10\n      jumpi\n      jump(tag_1)\n    tag_15:\n      dup1\n      0x2c5e5471\n      eq\n      tag_2\n      jumpi\n      dup1\n      0x3dfa138d\n      eq\n      tag_3\n      jumpi\n      dup1\n      0x3ec059d7\n      eq\n      tag_4\n      jumpi\n      dup1\n      0x664e62b9\n      eq\n      tag_5\n      jumpi\n      dup1\n      0x71ea6d33\n      eq\n      tag_6\n      jumpi\n      dup1\n      0x753dcaeb\n      eq\n      tag_7\n      jumpi\n    tag_1:\n      0x00\n      dup1\n      revert\n        /* \"subasta4.sol\":263:288  bool public activa = true */\n    tag_2:\n      callvalue\n      dup1\n      iszero\n      tag_17\n      jumpi\n      0x00\n      dup1\n      revert\n    tag_17:\n      pop\n      tag_18\n      tag_19\n      jump\t// in\n    tag_18:\n      mload(0x40)\n      tag_20\n      swap2\n      swap1\n      tag_21\n      jump\t// in\n    tag_20:\n      mload(0x40)\n      dup1\n      swap2\n      sub\n      swap1\n      return\n        /* \"subasta4.sol\":84:109  address public subastador */\n    tag_3:\n      callvalue\n      dup1\n      iszero\n      tag_22\n      jumpi\n      0x00\n      dup1\n      revert\n    tag_22:\n      pop\n      tag_23\n      tag_24\n      jump\t// in\n    tag_23:\n      mload(0x40)\n      tag_25\n      swap2\n      swap1\n      tag_26\n      jump\t// in\n    tag_25:\n      mload(0x40)\n      dup1\n      swap2\n      sub\n      swap1\n      return\n        /* \"subasta4.sol\":1299:2468  function ofertar() external payable soloDuranteSubastaActiva {... */\n    tag_4:\n      tag_27\n      tag_28\n      jump\t// in\n    tag_27:\n      stop\n        /* \"subasta4.sol\":453:494  mapping(address => uint) public depositos */\n    tag_5:\n      callvalue\n      dup1\n      iszero\n      tag_29\n      jumpi\n      0x00\n      dup1\n      revert\n    tag_29:\n      pop\n      tag_30\n      0x04\n      dup1\n      calldatasize\n      sub\n      dup2\n      add\n      swap1\n      tag_31\n      swap2\n      swap1\n      tag_32\n      jump\t// in\n    tag_31:\n      tag_33\n      jump\t// in\n    tag_30:\n      mload(0x40)\n      tag_34\n      swap2\n      swap1\n      tag_35\n      jump\t// in\n    tag_34:\n      mload(0x40)\n      dup1\n      swap2\n      sub\n      swap1\n      return\n        /* \"subasta4.sol\":295:330  uint public ofertaInicial = 1 ether */\n    tag_6:\n      callvalue\n      dup1\n      iszero\n      tag_36\n      jumpi\n      0x00\n      dup1\n      revert\n    tag_36:\n      pop\n      tag_37\n      tag_38\n      jump\t// in\n    tag_37:\n      mload(0x40)\n      tag_39\n      swap2\n      swap1\n      tag_35\n      jump\t// in\n    tag_39:\n      mload(0x40)\n      dup1\n      swap2\n      sub\n      swap1\n      return\n        /* \"subasta4.sol\":3004:3250  function mostrarGanador() external view returns (address ganador, uint cantidadGanadora) {... */\n    tag_7:\n      callvalue\n      dup1\n      iszero\n      tag_40\n      jumpi\n      0x00\n      dup1\n      revert\n    tag_40:\n      pop\n      tag_41\n      tag_42\n      jump\t// in\n    tag_41:\n      mload(0x40)\n      tag_43\n      swap3\n      swap2\n      swap1\n      tag_44\n      jump\t// in\n    tag_43:\n      mload(0x40)\n      dup1\n      swap2\n      sub\n      swap1\n      return\n        /* \"subasta4.sol\":2476:2741  function verificarFinalizacionSubasta() external {... */\n    tag_8:\n      callvalue\n      dup1\n      iszero\n      tag_45\n      jumpi\n      0x00\n      dup1\n      revert\n    tag_45:\n      pop\n      tag_46\n      tag_47\n      jump\t// in\n    tag_46:\n      stop\n        /* \"subasta4.sol\":501:533  Oferta[] public historialOfertas */\n    tag_9:\n      callvalue\n      dup1\n      iszero\n      tag_48\n      jumpi\n      0x00\n      dup1\n      revert\n    tag_48:\n      pop\n      tag_49\n      0x04\n      dup1\n      calldatasize\n      sub\n      dup2\n      add\n      swap1\n      tag_50\n      swap2\n      swap1\n      tag_51\n      jump\t// in\n    tag_50:\n      tag_52\n      jump\t// in\n    tag_49:\n      mload(0x40)\n      tag_53\n      swap3\n      swap2\n      swap1\n      tag_44\n      jump\t// in\n    tag_53:\n      mload(0x40)\n      dup1\n      swap2\n      sub\n      swap1\n      return\n        /* \"subasta4.sol\":421:446  Oferta public mejorOferta */\n    tag_10:\n      callvalue\n      dup1\n      iszero\n      tag_54\n      jumpi\n      0x00\n      dup1\n      revert\n    tag_54:\n      pop\n      tag_55\n      tag_56\n      jump\t// in\n    tag_55:\n      mload(0x40)\n      tag_57\n      swap3\n      swap2\n      swap1\n      tag_44\n      jump\t// in\n    tag_57:\n      mload(0x40)\n      dup1\n      swap2\n      sub\n      swap1\n      return\n        /* \"subasta4.sol\":3329:3437  function mostrarOfertas() external view returns (Oferta[] memory) {... */\n    tag_11:\n      callvalue\n      dup1\n      iszero\n      tag_58\n      jumpi\n      0x00\n      dup1\n      revert\n    tag_58:\n      pop\n      tag_59\n      tag_60\n      jump\t// in\n    tag_59:\n      mload(0x40)\n      tag_61\n      swap2\n      swap1\n      tag_62\n      jump\t// in\n    tag_61:\n      mload(0x40)\n      dup1\n      swap2\n      sub\n      swap1\n      return\n        /* \"subasta4.sol\":116:139  uint public tiempoFinal */\n    tag_12:\n      callvalue\n      dup1\n      iszero\n      tag_63\n      jumpi\n      0x00\n      dup1\n      revert\n    tag_63:\n      pop\n      tag_64\n      tag_65\n      jump\t// in\n    tag_64:\n      mload(0x40)\n      tag_66\n      swap2\n      swap1\n      tag_35\n      jump\t// in\n    tag_66:\n      mload(0x40)\n      dup1\n      swap2\n      sub\n      swap1\n      return\n        /* \"subasta4.sol\":192:228  uint public porcentajeIncremento = 5 */\n    tag_13:\n      callvalue\n      dup1\n      iszero\n      tag_67\n      jumpi\n      0x00\n      dup1\n      revert\n    tag_67:\n      pop\n      tag_68\n      tag_69\n      jump\t// in\n    tag_68:\n      mload(0x40)\n      tag_70\n      swap2\n      swap1\n      tag_35\n      jump\t// in\n    tag_70:\n      mload(0x40)\n      dup1\n      swap2\n      sub\n      swap1\n      return\n        /* \"subasta4.sol\":146:185  uint public duracionSubasta = 3 minutes */\n    tag_14:\n      callvalue\n      dup1\n      iszero\n      tag_71\n      jumpi\n      0x00\n      dup1\n      revert\n    tag_71:\n      pop\n      tag_72\n      tag_73\n      jump\t// in\n    tag_72:\n      mload(0x40)\n      tag_74\n      swap2\n      swap1\n      tag_35\n      jump\t// in\n    tag_74:\n      mload(0x40)\n      dup1\n      swap2\n      sub\n      swap1\n      return\n        /* \"subasta4.sol\":263:288  bool public activa = true */\n    tag_19:\n      0x04\n      0x00\n      swap1\n      sload\n      swap1\n      0x0100\n      exp\n      swap1\n      div\n      0xff\n      and\n      dup2\n      jump\t// out\n        /* \"subasta4.sol\":84:109  address public subastador */\n    tag_24:\n      0x00\n      dup1\n      sload\n      swap1\n      0x0100\n      exp\n      swap1\n      div\n      0xffffffffffffffffffffffffffffffffffffffff\n      and\n      dup2\n      jump\t// out\n        /* \"subasta4.sol\":1299:2468  function ofertar() external payable soloDuranteSubastaActiva {... */\n    tag_28:\n        /* \"subasta4.sol\":1200:1206  activa */\n      0x04\n      0x00\n      swap1\n      sload\n      swap1\n      0x0100\n      exp\n      swap1\n      div\n      0xff\n      and\n        /* \"subasta4.sol\":1200:1239  activa && block.timestamp < tiempoFinal */\n      dup1\n      iszero\n      tag_76\n      jumpi\n      pop\n        /* \"subasta4.sol\":1228:1239  tiempoFinal */\n      sload(0x01)\n        /* \"subasta4.sol\":1210:1225  block.timestamp */\n      timestamp\n        /* \"subasta4.sol\":1210:1239  block.timestamp < tiempoFinal */\n      lt\n        /* \"subasta4.sol\":1200:1239  activa && block.timestamp < tiempoFinal */\n    tag_76:\n        /* \"subasta4.sol\":1192:1271  require(activa && block.timestamp < tiempoFinal, \"La subasta ya ha finalizado\") */\n      tag_77\n      jumpi\n      mload(0x40)\n      0x08c379a000000000000000000000000000000000000000000000000000000000\n      dup2\n      mstore\n      0x04\n      add\n      tag_78\n      swap1\n      tag_79\n      jump\t// in\n    tag_78:\n      mload(0x40)\n      dup1\n      swap2\n      sub\n      swap1\n      revert\n    tag_77:\n        /* \"subasta4.sol\":1371:1387  uint montoMinimo */\n      0x00\n        /* \"subasta4.sol\":1460:1463  100 */\n      0x64\n        /* \"subasta4.sol\":1437:1457  porcentajeIncremento */\n      sload(0x03)\n        /* \"subasta4.sol\":1414:1425  mejorOferta */\n      0x06\n        /* \"subasta4.sol\":1414:1434  mejorOferta.cantidad */\n      0x01\n      add\n      sload\n        /* \"subasta4.sol\":1414:1457  mejorOferta.cantidad * porcentajeIncremento */\n      tag_81\n      swap2\n      swap1\n      tag_82\n      jump\t// in\n    tag_81:\n        /* \"subasta4.sol\":1414:1463  mejorOferta.cantidad * porcentajeIncremento / 100 */\n      tag_83\n      swap2\n      swap1\n      tag_84\n      jump\t// in\n    tag_83:\n        /* \"subasta4.sol\":1390:1401  mejorOferta */\n      0x06\n        /* \"subasta4.sol\":1390:1410  mejorOferta.cantidad */\n      0x01\n      add\n      sload\n        /* \"subasta4.sol\":1390:1464  mejorOferta.cantidad + (mejorOferta.cantidad * porcentajeIncremento / 100) */\n      tag_85\n      swap2\n      swap1\n      tag_86\n      jump\t// in\n    tag_85:\n        /* \"subasta4.sol\":1371:1464  uint montoMinimo = mejorOferta.cantidad + (mejorOferta.cantidad * porcentajeIncremento / 100) */\n      swap1\n      pop\n        /* \"subasta4.sol\":1577:1588  montoMinimo */\n      dup1\n        /* \"subasta4.sol\":1564:1573  msg.value */\n      callvalue\n        /* \"subasta4.sol\":1564:1588  msg.value >= montoMinimo */\n      lt\n      iszero\n        /* \"subasta4.sol\":1556:1650  require(msg.value >= montoMinimo, \"La oferta debe superar en al menos un 5% la oferta actual\") */\n      tag_87\n      jumpi\n      mload(0x40)\n      0x08c379a000000000000000000000000000000000000000000000000000000000\n      dup2\n      mstore\n      0x04\n      add\n      tag_88\n      swap1\n      tag_89\n      jump\t// in\n    tag_88:\n      mload(0x40)\n      dup1\n      swap2\n      sub\n      swap1\n      revert\n    tag_87:\n        /* \"subasta4.sol\":1752:1762  subastador */\n      0x00\n      dup1\n      sload\n      swap1\n      0x0100\n      exp\n      swap1\n      div\n      0xffffffffffffffffffffffffffffffffffffffff\n      and\n        /* \"subasta4.sol\":1727:1762  mejorOferta.ofertante != subastador */\n      0xffffffffffffffffffffffffffffffffffffffff\n      and\n        /* \"subasta4.sol\":1727:1738  mejorOferta */\n      0x06\n        /* \"subasta4.sol\":1727:1748  mejorOferta.ofertante */\n      0x00\n      add\n      0x00\n      swap1\n      sload\n      swap1\n      0x0100\n      exp\n      swap1\n      div\n      0xffffffffffffffffffffffffffffffffffffffff\n      and\n        /* \"subasta4.sol\":1727:1762  mejorOferta.ofertante != subastador */\n      0xffffffffffffffffffffffffffffffffffffffff\n      and\n      eq\n        /* \"subasta4.sol\":1723:2022  if (mejorOferta.ofertante != subastador) {... */\n      tag_90\n      jumpi\n        /* \"subasta4.sol\":1779:1793  uint reembolso */\n      0x00\n        /* \"subasta4.sol\":1871:1874  100 */\n      0x64\n        /* \"subasta4.sol\":1867:1868  2 */\n      0x02\n        /* \"subasta4.sol\":1832:1841  depositos */\n      0x08\n        /* \"subasta4.sol\":1832:1864  depositos[mejorOferta.ofertante] */\n      0x00\n        /* \"subasta4.sol\":1842:1853  mejorOferta */\n      0x06\n        /* \"subasta4.sol\":1842:1863  mejorOferta.ofertante */\n      0x00\n      add\n      0x00\n      swap1\n      sload\n      swap1\n      0x0100\n      exp\n      swap1\n      div\n      0xffffffffffffffffffffffffffffffffffffffff\n      and\n        /* \"subasta4.sol\":1832:1864  depositos[mejorOferta.ofertante] */\n      0xffffffffffffffffffffffffffffffffffffffff\n      and\n      0xffffffffffffffffffffffffffffffffffffffff\n      and\n      dup2\n      mstore\n      0x20\n      add\n      swap1\n      dup2\n      mstore\n      0x20\n      add\n      0x00\n      keccak256\n      sload\n        /* \"subasta4.sol\":1832:1868  depositos[mejorOferta.ofertante] * 2 */\n      tag_91\n      swap2\n      swap1\n      tag_82\n      jump\t// in\n    tag_91:\n        /* \"subasta4.sol\":1832:1874  depositos[mejorOferta.ofertante] * 2 / 100 */\n      tag_92\n      swap2\n      swap1\n      tag_84\n      jump\t// in\n    tag_92:\n        /* \"subasta4.sol\":1796:1805  depositos */\n      0x08\n        /* \"subasta4.sol\":1796:1828  depositos[mejorOferta.ofertante] */\n      0x00\n        /* \"subasta4.sol\":1806:1817  mejorOferta */\n      0x06\n        /* \"subasta4.sol\":1806:1827  mejorOferta.ofertante */\n      0x00\n      add\n      0x00\n      swap1\n      sload\n      swap1\n      0x0100\n      exp\n      swap1\n      div\n      0xffffffffffffffffffffffffffffffffffffffff\n      and\n        /* \"subasta4.sol\":1796:1828  depositos[mejorOferta.ofertante] */\n      0xffffffffffffffffffffffffffffffffffffffff\n      and\n      0xffffffffffffffffffffffffffffffffffffffff\n      and\n      dup2\n      mstore\n      0x20\n      add\n      swap1\n      dup2\n      mstore\n      0x20\n      add\n      0x00\n      keccak256\n      sload\n        /* \"subasta4.sol\":1796:1875  depositos[mejorOferta.ofertante] - (depositos[mejorOferta.ofertante] * 2 / 100) */\n      tag_93\n      swap2\n      swap1\n      tag_94\n      jump\t// in\n    tag_93:\n        /* \"subasta4.sol\":1779:1875  uint reembolso = depositos[mejorOferta.ofertante] - (depositos[mejorOferta.ofertante] * 2 / 100) */\n      swap1\n      pop\n        /* \"subasta4.sol\":1917:1928  mejorOferta */\n      0x06\n        /* \"subasta4.sol\":1917:1938  mejorOferta.ofertante */\n      0x00\n      add\n      0x00\n      swap1\n      sload\n      swap1\n      0x0100\n      exp\n      swap1\n      div\n      0xffffffffffffffffffffffffffffffffffffffff\n      and\n        /* \"subasta4.sol\":1909:1948  payable(mejorOferta.ofertante).transfer */\n      0xffffffffffffffffffffffffffffffffffffffff\n      and\n        /* \"subasta4.sol\":1909:1959  payable(mejorOferta.ofertante).transfer(reembolso) */\n      0x08fc\n        /* \"subasta4.sol\":1949:1958  reembolso */\n      dup3\n        /* \"subasta4.sol\":1909:1959  payable(mejorOferta.ofertante).transfer(reembolso) */\n      swap1\n      dup2\n      iszero\n      mul\n      swap1\n      mload(0x40)\n      0x00\n      mload(0x40)\n      dup1\n      dup4\n      sub\n      dup2\n      dup6\n      dup9\n      dup9\n      call\n      swap4\n      pop\n      pop\n      pop\n      pop\n      iszero\n      dup1\n      iszero\n      tag_96\n      jumpi\n      returndatasize\n      0x00\n      dup1\n      returndatacopy\n      revert(0x00, returndatasize)\n    tag_96:\n      pop\n        /* \"subasta4.sol\":2009:2010  0 */\n      0x00\n        /* \"subasta4.sol\":1974:1983  depositos */\n      0x08\n        /* \"subasta4.sol\":1974:2006  depositos[mejorOferta.ofertante] */\n      0x00\n        /* \"subasta4.sol\":1984:1995  mejorOferta */\n      0x06\n        /* \"subasta4.sol\":1984:2005  mejorOferta.ofertante */\n      0x00\n      add\n      0x00\n      swap1\n      sload\n      swap1\n      0x0100\n      exp\n      swap1\n      div\n      0xffffffffffffffffffffffffffffffffffffffff\n      and\n        /* \"subasta4.sol\":1974:2006  depositos[mejorOferta.ofertante] */\n      0xffffffffffffffffffffffffffffffffffffffff\n      and\n      0xffffffffffffffffffffffffffffffffffffffff\n      and\n      dup2\n      mstore\n      0x20\n      add\n      swap1\n      dup2\n      mstore\n      0x20\n      add\n      0x00\n      keccak256\n        /* \"subasta4.sol\":1974:2010  depositos[mejorOferta.ofertante] = 0 */\n      dup2\n      swap1\n      sstore\n      pop\n        /* \"subasta4.sol\":1764:2022  {... */\n      pop\n        /* \"subasta4.sol\":1723:2022  if (mejorOferta.ofertante != subastador) {... */\n    tag_90:\n        /* \"subasta4.sol\":2093:2122  Oferta(msg.sender, msg.value) */\n      mload(0x40)\n      dup1\n      0x40\n      add\n      0x40\n      mstore\n      dup1\n        /* \"subasta4.sol\":2100:2110  msg.sender */\n      caller\n        /* \"subasta4.sol\":2093:2122  Oferta(msg.sender, msg.value) */\n      0xffffffffffffffffffffffffffffffffffffffff\n      and\n      dup2\n      mstore\n      0x20\n      add\n        /* \"subasta4.sol\":2112:2121  msg.value */\n      callvalue\n        /* \"subasta4.sol\":2093:2122  Oferta(msg.sender, msg.value) */\n      dup2\n      mstore\n      pop\n        /* \"subasta4.sol\":2079:2090  mejorOferta */\n      0x06\n        /* \"subasta4.sol\":2079:2122  mejorOferta = Oferta(msg.sender, msg.value) */\n      0x00\n      dup3\n      add\n      mload\n      dup2\n      0x00\n      add\n      exp(0x0100, 0x00)\n      dup2\n      sload\n      dup2\n      0xffffffffffffffffffffffffffffffffffffffff\n      mul\n      not\n      and\n      swap1\n      dup4\n      0xffffffffffffffffffffffffffffffffffffffff\n      and\n      mul\n      or\n      swap1\n      sstore\n      pop\n      0x20\n      dup3\n      add\n      mload\n      dup2\n      0x01\n      add\n      sstore\n      swap1\n      pop\n      pop\n        /* \"subasta4.sol\":2158:2167  msg.value */\n      callvalue\n        /* \"subasta4.sol\":2133:2142  depositos */\n      0x08\n        /* \"subasta4.sol\":2133:2154  depositos[msg.sender] */\n      0x00\n        /* \"subasta4.sol\":2143:2153  msg.sender */\n      caller\n        /* \"subasta4.sol\":2133:2154  depositos[msg.sender] */\n      0xffffffffffffffffffffffffffffffffffffffff\n      and\n      0xffffffffffffffffffffffffffffffffffffffff\n      and\n      dup2\n      mstore\n      0x20\n      add\n      swap1\n      dup2\n      mstore\n      0x20\n      add\n      0x00\n      keccak256\n      0x00\n        /* \"subasta4.sol\":2133:2167  depositos[msg.sender] += msg.value */\n      dup3\n      dup3\n      sload\n      tag_97\n      swap2\n      swap1\n      tag_86\n      jump\t// in\n    tag_97:\n      swap3\n      pop\n      pop\n      dup2\n      swap1\n      sstore\n      pop\n        /* \"subasta4.sol\":2300:2315  duracionSubasta */\n      sload(0x02)\n        /* \"subasta4.sol\":2282:2297  block.timestamp */\n      timestamp\n        /* \"subasta4.sol\":2282:2315  block.timestamp + duracionSubasta */\n      tag_98\n      swap2\n      swap1\n      tag_86\n      jump\t// in\n    tag_98:\n        /* \"subasta4.sol\":2268:2279  tiempoFinal */\n      0x01\n        /* \"subasta4.sol\":2268:2315  tiempoFinal = block.timestamp + duracionSubasta */\n      dup2\n      swap1\n      sstore\n      pop\n        /* \"subasta4.sol\":2374:2390  historialOfertas */\n      0x09\n        /* \"subasta4.sol\":2396:2407  mejorOferta */\n      0x06\n        /* \"subasta4.sol\":2374:2408  historialOfertas.push(mejorOferta) */\n      swap1\n      dup1\n      0x01\n      dup2\n      sload\n      add\n      dup1\n      dup3\n      sstore\n      dup1\n      swap2\n      pop\n      pop\n      0x01\n      swap1\n      sub\n      swap1\n      0x00\n      mstore\n      keccak256(0x00, 0x20)\n      swap1\n      0x02\n      mul\n      add\n      0x00\n      swap1\n      swap2\n      swap1\n      swap2\n      swap1\n      swap2\n      pop\n      0x00\n      dup3\n      add\n      0x00\n      swap1\n      sload\n      swap1\n      0x0100\n      exp\n      swap1\n      div\n      0xffffffffffffffffffffffffffffffffffffffff\n      and\n      dup2\n      0x00\n      add\n      exp(0x0100, 0x00)\n      dup2\n      sload\n      dup2\n      0xffffffffffffffffffffffffffffffffffffffff\n      mul\n      not\n      and\n      swap1\n      dup4\n      0xffffffffffffffffffffffffffffffffffffffff\n      and\n      mul\n      or\n      swap1\n      sstore\n      pop\n      0x01\n      dup3\n      add\n      sload\n      dup2\n      0x01\n      add\n      sstore\n      pop\n      pop\n        /* \"subasta4.sol\":2426:2460  NuevaOferta(msg.sender, msg.value) */\n      0x155d469211f46e4d9ae974606f0878f9aacc6198ba30a1e6b9c8cf5627352fb5\n        /* \"subasta4.sol\":2438:2448  msg.sender */\n      caller\n        /* \"subasta4.sol\":2450:2459  msg.value */\n      callvalue\n        /* \"subasta4.sol\":2426:2460  NuevaOferta(msg.sender, msg.value) */\n      mload(0x40)\n      tag_100\n      swap3\n      swap2\n      swap1\n      tag_44\n      jump\t// in\n    tag_100:\n      mload(0x40)\n      dup1\n      swap2\n      sub\n      swap1\n      log1\n        /* \"subasta4.sol\":1360:2468  {... */\n      pop\n        /* \"subasta4.sol\":1299:2468  function ofertar() external payable soloDuranteSubastaActiva {... */\n      jump\t// out\n        /* \"subasta4.sol\":453:494  mapping(address => uint) public depositos */\n    tag_33:\n      mstore(0x20, 0x08)\n      dup1\n      0x00\n      mstore\n      keccak256(0x00, 0x40)\n      0x00\n      swap2\n      pop\n      swap1\n      pop\n      sload\n      dup2\n      jump\t// out\n        /* \"subasta4.sol\":295:330  uint public ofertaInicial = 1 ether */\n    tag_38:\n      sload(0x05)\n      dup2\n      jump\t// out\n        /* \"subasta4.sol\":3004:3250  function mostrarGanador() external view returns (address ganador, uint cantidadGanadora) {... */\n    tag_42:\n        /* \"subasta4.sol\":3053:3068  address ganador */\n      0x00\n        /* \"subasta4.sol\":3070:3091  uint cantidadGanadora */\n      dup1\n        /* \"subasta4.sol\":3113:3119  activa */\n      0x04\n      0x00\n      swap1\n      sload\n      swap1\n      0x0100\n      exp\n      swap1\n      div\n      0xff\n      and\n        /* \"subasta4.sol\":3112:3119  !activa */\n      iszero\n        /* \"subasta4.sol\":3104:3150  require(!activa, \"La subasta aun esta activa\") */\n      tag_102\n      jumpi\n      mload(0x40)\n      0x08c379a000000000000000000000000000000000000000000000000000000000\n      dup2\n      mstore\n      0x04\n      add\n      tag_103\n      swap1\n      tag_104\n      jump\t// in\n    tag_103:\n      mload(0x40)\n      dup1\n      swap2\n      sub\n      swap1\n      revert\n    tag_102:\n        /* \"subasta4.sol\":3171:3182  mejorOferta */\n      0x06\n        /* \"subasta4.sol\":3171:3192  mejorOferta.ofertante */\n      0x00\n      add\n      0x00\n      swap1\n      sload\n      swap1\n      0x0100\n      exp\n      swap1\n      div\n      0xffffffffffffffffffffffffffffffffffffffff\n      and\n        /* \"subasta4.sol\":3161:3192  ganador = mejorOferta.ofertante */\n      swap2\n      pop\n        /* \"subasta4.sol\":3222:3233  mejorOferta */\n      0x06\n        /* \"subasta4.sol\":3222:3242  mejorOferta.cantidad */\n      0x01\n      add\n      sload\n        /* \"subasta4.sol\":3203:3242  cantidadGanadora = mejorOferta.cantidad */\n      swap1\n      pop\n        /* \"subasta4.sol\":3004:3250  function mostrarGanador() external view returns (address ganador, uint cantidadGanadora) {... */\n      swap1\n      swap2\n      jump\t// out\n        /* \"subasta4.sol\":2476:2741  function verificarFinalizacionSubasta() external {... */\n    tag_47:\n        /* \"subasta4.sol\":2666:2677  tiempoFinal */\n      sload(0x01)\n        /* \"subasta4.sol\":2647:2662  block.timestamp */\n      timestamp\n        /* \"subasta4.sol\":2647:2677  block.timestamp >= tiempoFinal */\n      lt\n      iszero\n        /* \"subasta4.sol\":2647:2687  block.timestamp >= tiempoFinal && activa */\n      dup1\n      iszero\n      tag_106\n      jumpi\n      pop\n        /* \"subasta4.sol\":2681:2687  activa */\n      0x04\n      0x00\n      swap1\n      sload\n      swap1\n      0x0100\n      exp\n      swap1\n      div\n      0xff\n      and\n        /* \"subasta4.sol\":2647:2687  block.timestamp >= tiempoFinal && activa */\n    tag_106:\n        /* \"subasta4.sol\":2643:2734  if (block.timestamp >= tiempoFinal && activa) {... */\n      iszero\n      tag_107\n      jumpi\n        /* \"subasta4.sol\":2704:2722  finalizarSubasta() */\n      tag_108\n        /* \"subasta4.sol\":2704:2720  finalizarSubasta */\n      tag_109\n        /* \"subasta4.sol\":2704:2722  finalizarSubasta() */\n      jump\t// in\n    tag_108:\n        /* \"subasta4.sol\":2643:2734  if (block.timestamp >= tiempoFinal && activa) {... */\n    tag_107:\n        /* \"subasta4.sol\":2476:2741  function verificarFinalizacionSubasta() external {... */\n      jump\t// out\n        /* \"subasta4.sol\":501:533  Oferta[] public historialOfertas */\n    tag_52:\n      0x09\n      dup2\n      dup2\n      sload\n      dup2\n      lt\n      tag_110\n      jumpi\n      0x00\n      dup1\n      revert\n    tag_110:\n      swap1\n      0x00\n      mstore\n      keccak256(0x00, 0x20)\n      swap1\n      0x02\n      mul\n      add\n      0x00\n      swap2\n      pop\n      swap1\n      pop\n      dup1\n      0x00\n      add\n      0x00\n      swap1\n      sload\n      swap1\n      0x0100\n      exp\n      swap1\n      div\n      0xffffffffffffffffffffffffffffffffffffffff\n      and\n      swap1\n      dup1\n      0x01\n      add\n      sload\n      swap1\n      pop\n      dup3\n      jump\t// out\n        /* \"subasta4.sol\":421:446  Oferta public mejorOferta */\n    tag_56:\n      0x06\n      dup1\n      0x00\n      add\n      0x00\n      swap1\n      sload\n      swap1\n      0x0100\n      exp\n      swap1\n      div\n      0xffffffffffffffffffffffffffffffffffffffff\n      and\n      swap1\n      dup1\n      0x01\n      add\n      sload\n      swap1\n      pop\n      dup3\n      jump\t// out\n        /* \"subasta4.sol\":3329:3437  function mostrarOfertas() external view returns (Oferta[] memory) {... */\n    tag_60:\n        /* \"subasta4.sol\":3378:3393  Oferta[] memory */\n      0x60\n        /* \"subasta4.sol\":3413:3429  historialOfertas */\n      0x09\n        /* \"subasta4.sol\":3406:3429  return historialOfertas */\n      dup1\n      sload\n      dup1\n      0x20\n      mul\n      0x20\n      add\n      mload(0x40)\n      swap1\n      dup2\n      add\n      0x40\n      mstore\n      dup1\n      swap3\n      swap2\n      swap1\n      dup2\n      dup2\n      mstore\n      0x20\n      add\n      0x00\n      swap1\n    tag_113:\n      dup3\n      dup3\n      lt\n      iszero\n      tag_114\n      jumpi\n      dup4\n      dup3\n      swap1\n      0x00\n      mstore\n      keccak256(0x00, 0x20)\n      swap1\n      0x02\n      mul\n      add\n      mload(0x40)\n      dup1\n      0x40\n      add\n      0x40\n      mstore\n      swap1\n      dup2\n      0x00\n      dup3\n      add\n      0x00\n      swap1\n      sload\n      swap1\n      0x0100\n      exp\n      swap1\n      div\n      0xffffffffffffffffffffffffffffffffffffffff\n      and\n      0xffffffffffffffffffffffffffffffffffffffff\n      and\n      0xffffffffffffffffffffffffffffffffffffffff\n      and\n      dup2\n      mstore\n      0x20\n      add\n      0x01\n      dup3\n      add\n      sload\n      dup2\n      mstore\n      pop\n      pop\n      dup2\n      mstore\n      0x20\n      add\n      swap1\n      0x01\n      add\n      swap1\n      jump(tag_113)\n    tag_114:\n      pop\n      pop\n      pop\n      pop\n      swap1\n      pop\n        /* \"subasta4.sol\":3329:3437  function mostrarOfertas() external view returns (Oferta[] memory) {... */\n      swap1\n      jump\t// out\n        /* \"subasta4.sol\":116:139  uint public tiempoFinal */\n    tag_65:\n      sload(0x01)\n      dup2\n      jump\t// out\n        /* \"subasta4.sol\":192:228  uint public porcentajeIncremento = 5 */\n    tag_69:\n      sload(0x03)\n      dup2\n      jump\t// out\n        /* \"subasta4.sol\":146:185  uint public duracionSubasta = 3 minutes */\n    tag_73:\n      sload(0x02)\n      dup2\n      jump\t// out\n        /* \"subasta4.sol\":2749:2996  function finalizarSubasta() internal {... */\n    tag_109:\n        /* \"subasta4.sol\":2806:2811  false */\n      0x00\n        /* \"subasta4.sol\":2797:2803  activa */\n      0x04\n      0x00\n        /* \"subasta4.sol\":2797:2811  activa = false */\n      0x0100\n      exp\n      dup2\n      sload\n      dup2\n      0xff\n      mul\n      not\n      and\n      swap1\n      dup4\n      iszero\n      iszero\n      mul\n      or\n      swap1\n      sstore\n      pop\n        /* \"subasta4.sol\":2832:2847  address ganador */\n      0x00\n        /* \"subasta4.sol\":2850:2861  mejorOferta */\n      0x06\n        /* \"subasta4.sol\":2850:2871  mejorOferta.ofertante */\n      0x00\n      add\n      0x00\n      swap1\n      sload\n      swap1\n      0x0100\n      exp\n      swap1\n      div\n      0xffffffffffffffffffffffffffffffffffffffff\n      and\n        /* \"subasta4.sol\":2832:2871  address ganador = mejorOferta.ofertante */\n      swap1\n      pop\n        /* \"subasta4.sol\":2882:2903  uint cantidadGanadora */\n      0x00\n        /* \"subasta4.sol\":2906:2917  mejorOferta */\n      0x06\n        /* \"subasta4.sol\":2906:2926  mejorOferta.cantidad */\n      0x01\n      add\n      sload\n        /* \"subasta4.sol\":2882:2926  uint cantidadGanadora = mejorOferta.cantidad */\n      swap1\n      pop\n        /* \"subasta4.sol\":2944:2988  SubastaFinalizada(ganador, cantidadGanadora) */\n      0xa3a65b403bdae88eb037f4ecc1d619f436fc3ef6bcbbee3787757164e82883f2\n        /* \"subasta4.sol\":2962:2969  ganador */\n      dup3\n        /* \"subasta4.sol\":2971:2987  cantidadGanadora */\n      dup3\n        /* \"subasta4.sol\":2944:2988  SubastaFinalizada(ganador, cantidadGanadora) */\n      mload(0x40)\n      tag_117\n      swap3\n      swap2\n      swap1\n      tag_44\n      jump\t// in\n    tag_117:\n      mload(0x40)\n      dup1\n      swap2\n      sub\n      swap1\n      log1\n        /* \"subasta4.sol\":2786:2996  {... */\n      pop\n      pop\n        /* \"subasta4.sol\":2749:2996  function finalizarSubasta() internal {... */\n      jump\t// out\n        /* \"#utility.yul\":7:97   */\n    tag_118:\n        /* \"#utility.yul\":41:48   */\n      0x00\n        /* \"#utility.yul\":84:89   */\n      dup2\n        /* \"#utility.yul\":77:90   */\n      iszero\n        /* \"#utility.yul\":70:91   */\n      iszero\n        /* \"#utility.yul\":59:91   */\n      swap1\n      pop\n        /* \"#utility.yul\":7:97   */\n      swap2\n      swap1\n      pop\n      jump\t// out\n        /* \"#utility.yul\":103:212   */\n    tag_119:\n        /* \"#utility.yul\":184:205   */\n      tag_153\n        /* \"#utility.yul\":199:204   */\n      dup2\n        /* \"#utility.yul\":184:205   */\n      tag_118\n      jump\t// in\n    tag_153:\n        /* \"#utility.yul\":179:182   */\n      dup3\n        /* \"#utility.yul\":172:206   */\n      mstore\n        /* \"#utility.yul\":103:212   */\n      pop\n      pop\n      jump\t// out\n        /* \"#utility.yul\":218:428   */\n    tag_21:\n        /* \"#utility.yul\":305:309   */\n      0x00\n        /* \"#utility.yul\":343:345   */\n      0x20\n        /* \"#utility.yul\":332:341   */\n      dup3\n        /* \"#utility.yul\":328:346   */\n      add\n        /* \"#utility.yul\":320:346   */\n      swap1\n      pop\n        /* \"#utility.yul\":356:421   */\n      tag_155\n        /* \"#utility.yul\":418:419   */\n      0x00\n        /* \"#utility.yul\":407:416   */\n      dup4\n        /* \"#utility.yul\":403:420   */\n      add\n        /* \"#utility.yul\":394:400   */\n      dup5\n        /* \"#utility.yul\":356:421   */\n      tag_119\n      jump\t// in\n    tag_155:\n        /* \"#utility.yul\":218:428   */\n      swap3\n      swap2\n      pop\n      pop\n      jump\t// out\n        /* \"#utility.yul\":434:560   */\n    tag_120:\n        /* \"#utility.yul\":471:478   */\n      0x00\n        /* \"#utility.yul\":511:553   */\n      0xffffffffffffffffffffffffffffffffffffffff\n        /* \"#utility.yul\":504:509   */\n      dup3\n        /* \"#utility.yul\":500:554   */\n      and\n        /* \"#utility.yul\":489:554   */\n      swap1\n      pop\n        /* \"#utility.yul\":434:560   */\n      swap2\n      swap1\n      pop\n      jump\t// out\n        /* \"#utility.yul\":566:662   */\n    tag_121:\n        /* \"#utility.yul\":603:610   */\n      0x00\n        /* \"#utility.yul\":632:656   */\n      tag_158\n        /* \"#utility.yul\":650:655   */\n      dup3\n        /* \"#utility.yul\":632:656   */\n      tag_120\n      jump\t// in\n    tag_158:\n        /* \"#utility.yul\":621:656   */\n      swap1\n      pop\n        /* \"#utility.yul\":566:662   */\n      swap2\n      swap1\n      pop\n      jump\t// out\n        /* \"#utility.yul\":668:786   */\n    tag_122:\n        /* \"#utility.yul\":755:779   */\n      tag_160\n        /* \"#utility.yul\":773:778   */\n      dup2\n        /* \"#utility.yul\":755:779   */\n      tag_121\n      jump\t// in\n    tag_160:\n        /* \"#utility.yul\":750:753   */\n      dup3\n        /* \"#utility.yul\":743:780   */\n      mstore\n        /* \"#utility.yul\":668:786   */\n      pop\n      pop\n      jump\t// out\n        /* \"#utility.yul\":792:1014   */\n    tag_26:\n        /* \"#utility.yul\":885:889   */\n      0x00\n        /* \"#utility.yul\":923:925   */\n      0x20\n        /* \"#utility.yul\":912:921   */\n      dup3\n        /* \"#utility.yul\":908:926   */\n      add\n        /* \"#utility.yul\":900:926   */\n      swap1\n      pop\n        /* \"#utility.yul\":936:1007   */\n      tag_162\n        /* \"#utility.yul\":1004:1005   */\n      0x00\n        /* \"#utility.yul\":993:1002   */\n      dup4\n        /* \"#utility.yul\":989:1006   */\n      add\n        /* \"#utility.yul\":980:986   */\n      dup5\n        /* \"#utility.yul\":936:1007   */\n      tag_122\n      jump\t// in\n    tag_162:\n        /* \"#utility.yul\":792:1014   */\n      swap3\n      swap2\n      pop\n      pop\n      jump\t// out\n        /* \"#utility.yul\":1101:1218   */\n    tag_124:\n        /* \"#utility.yul\":1210:1211   */\n      0x00\n        /* \"#utility.yul\":1207:1208   */\n      dup1\n        /* \"#utility.yul\":1200:1212   */\n      revert\n        /* \"#utility.yul\":1347:1469   */\n    tag_126:\n        /* \"#utility.yul\":1420:1444   */\n      tag_167\n        /* \"#utility.yul\":1438:1443   */\n      dup2\n        /* \"#utility.yul\":1420:1444   */\n      tag_121\n      jump\t// in\n    tag_167:\n        /* \"#utility.yul\":1413:1418   */\n      dup2\n        /* \"#utility.yul\":1410:1445   */\n      eq\n        /* \"#utility.yul\":1400:1463   */\n      tag_168\n      jumpi\n        /* \"#utility.yul\":1459:1460   */\n      0x00\n        /* \"#utility.yul\":1456:1457   */\n      dup1\n        /* \"#utility.yul\":1449:1461   */\n      revert\n        /* \"#utility.yul\":1400:1463   */\n    tag_168:\n        /* \"#utility.yul\":1347:1469   */\n      pop\n      jump\t// out\n        /* \"#utility.yul\":1475:1614   */\n    tag_127:\n        /* \"#utility.yul\":1521:1526   */\n      0x00\n        /* \"#utility.yul\":1559:1565   */\n      dup2\n        /* \"#utility.yul\":1546:1566   */\n      calldataload\n        /* \"#utility.yul\":1537:1566   */\n      swap1\n      pop\n        /* \"#utility.yul\":1575:1608   */\n      tag_170\n        /* \"#utility.yul\":1602:1607   */\n      dup2\n        /* \"#utility.yul\":1575:1608   */\n      tag_126\n      jump\t// in\n    tag_170:\n        /* \"#utility.yul\":1475:1614   */\n      swap3\n      swap2\n      pop\n      pop\n      jump\t// out\n        /* \"#utility.yul\":1620:1949   */\n    tag_32:\n        /* \"#utility.yul\":1679:1685   */\n      0x00\n        /* \"#utility.yul\":1728:1730   */\n      0x20\n        /* \"#utility.yul\":1716:1725   */\n      dup3\n        /* \"#utility.yul\":1707:1714   */\n      dup5\n        /* \"#utility.yul\":1703:1726   */\n      sub\n        /* \"#utility.yul\":1699:1731   */\n      slt\n        /* \"#utility.yul\":1696:1815   */\n      iszero\n      tag_172\n      jumpi\n        /* \"#utility.yul\":1734:1813   */\n      tag_173\n      tag_124\n      jump\t// in\n    tag_173:\n        /* \"#utility.yul\":1696:1815   */\n    tag_172:\n        /* \"#utility.yul\":1854:1855   */\n      0x00\n        /* \"#utility.yul\":1879:1932   */\n      tag_174\n        /* \"#utility.yul\":1924:1931   */\n      dup5\n        /* \"#utility.yul\":1915:1921   */\n      dup3\n        /* \"#utility.yul\":1904:1913   */\n      dup6\n        /* \"#utility.yul\":1900:1922   */\n      add\n        /* \"#utility.yul\":1879:1932   */\n      tag_127\n      jump\t// in\n    tag_174:\n        /* \"#utility.yul\":1869:1932   */\n      swap2\n      pop\n        /* \"#utility.yul\":1825:1942   */\n      pop\n        /* \"#utility.yul\":1620:1949   */\n      swap3\n      swap2\n      pop\n      pop\n      jump\t// out\n        /* \"#utility.yul\":1955:2032   */\n    tag_128:\n        /* \"#utility.yul\":1992:1999   */\n      0x00\n        /* \"#utility.yul\":2021:2026   */\n      dup2\n        /* \"#utility.yul\":2010:2026   */\n      swap1\n      pop\n        /* \"#utility.yul\":1955:2032   */\n      swap2\n      swap1\n      pop\n      jump\t// out\n        /* \"#utility.yul\":2038:2156   */\n    tag_129:\n        /* \"#utility.yul\":2125:2149   */\n      tag_177\n        /* \"#utility.yul\":2143:2148   */\n      dup2\n        /* \"#utility.yul\":2125:2149   */\n      tag_128\n      jump\t// in\n    tag_177:\n        /* \"#utility.yul\":2120:2123   */\n      dup3\n        /* \"#utility.yul\":2113:2150   */\n      mstore\n        /* \"#utility.yul\":2038:2156   */\n      pop\n      pop\n      jump\t// out\n        /* \"#utility.yul\":2162:2384   */\n    tag_35:\n        /* \"#utility.yul\":2255:2259   */\n      0x00\n        /* \"#utility.yul\":2293:2295   */\n      0x20\n        /* \"#utility.yul\":2282:2291   */\n      dup3\n        /* \"#utility.yul\":2278:2296   */\n      add\n        /* \"#utility.yul\":2270:2296   */\n      swap1\n      pop\n        /* \"#utility.yul\":2306:2377   */\n      tag_179\n        /* \"#utility.yul\":2374:2375   */\n      0x00\n        /* \"#utility.yul\":2363:2372   */\n      dup4\n        /* \"#utility.yul\":2359:2376   */\n      add\n        /* \"#utility.yul\":2350:2356   */\n      dup5\n        /* \"#utility.yul\":2306:2377   */\n      tag_129\n      jump\t// in\n    tag_179:\n        /* \"#utility.yul\":2162:2384   */\n      swap3\n      swap2\n      pop\n      pop\n      jump\t// out\n        /* \"#utility.yul\":2390:2722   */\n    tag_44:\n        /* \"#utility.yul\":2511:2515   */\n      0x00\n        /* \"#utility.yul\":2549:2551   */\n      0x40\n        /* \"#utility.yul\":2538:2547   */\n      dup3\n        /* \"#utility.yul\":2534:2552   */\n      add\n        /* \"#utility.yul\":2526:2552   */\n      swap1\n      pop\n        /* \"#utility.yul\":2562:2633   */\n      tag_181\n        /* \"#utility.yul\":2630:2631   */\n      0x00\n        /* \"#utility.yul\":2619:2628   */\n      dup4\n        /* \"#utility.yul\":2615:2632   */\n      add\n        /* \"#utility.yul\":2606:2612   */\n      dup6\n        /* \"#utility.yul\":2562:2633   */\n      tag_122\n      jump\t// in\n    tag_181:\n        /* \"#utility.yul\":2643:2715   */\n      tag_182\n        /* \"#utility.yul\":2711:2713   */\n      0x20\n        /* \"#utility.yul\":2700:2709   */\n      dup4\n        /* \"#utility.yul\":2696:2714   */\n      add\n        /* \"#utility.yul\":2687:2693   */\n      dup5\n        /* \"#utility.yul\":2643:2715   */\n      tag_129\n      jump\t// in\n    tag_182:\n        /* \"#utility.yul\":2390:2722   */\n      swap4\n      swap3\n      pop\n      pop\n      pop\n      jump\t// out\n        /* \"#utility.yul\":2728:2850   */\n    tag_130:\n        /* \"#utility.yul\":2801:2825   */\n      tag_184\n        /* \"#utility.yul\":2819:2824   */\n      dup2\n        /* \"#utility.yul\":2801:2825   */\n      tag_128\n      jump\t// in\n    tag_184:\n        /* \"#utility.yul\":2794:2799   */\n      dup2\n        /* \"#utility.yul\":2791:2826   */\n      eq\n        /* \"#utility.yul\":2781:2844   */\n      tag_185\n      jumpi\n        /* \"#utility.yul\":2840:2841   */\n      0x00\n        /* \"#utility.yul\":2837:2838   */\n      dup1\n        /* \"#utility.yul\":2830:2842   */\n      revert\n        /* \"#utility.yul\":2781:2844   */\n    tag_185:\n        /* \"#utility.yul\":2728:2850   */\n      pop\n      jump\t// out\n        /* \"#utility.yul\":2856:2995   */\n    tag_131:\n        /* \"#utility.yul\":2902:2907   */\n      0x00\n        /* \"#utility.yul\":2940:2946   */\n      dup2\n        /* \"#utility.yul\":2927:2947   */\n      calldataload\n        /* \"#utility.yul\":2918:2947   */\n      swap1\n      pop\n        /* \"#utility.yul\":2956:2989   */\n      tag_187\n        /* \"#utility.yul\":2983:2988   */\n      dup2\n        /* \"#utility.yul\":2956:2989   */\n      tag_130\n      jump\t// in\n    tag_187:\n        /* \"#utility.yul\":2856:2995   */\n      swap3\n      swap2\n      pop\n      pop\n      jump\t// out\n        /* \"#utility.yul\":3001:3330   */\n    tag_51:\n        /* \"#utility.yul\":3060:3066   */\n      0x00\n        /* \"#utility.yul\":3109:3111   */\n      0x20\n        /* \"#utility.yul\":3097:3106   */\n      dup3\n        /* \"#utility.yul\":3088:3095   */\n      dup5\n        /* \"#utility.yul\":3084:3107   */\n      sub\n        /* \"#utility.yul\":3080:3112   */\n      slt\n        /* \"#utility.yul\":3077:3196   */\n      iszero\n      tag_189\n      jumpi\n        /* \"#utility.yul\":3115:3194   */\n      tag_190\n      tag_124\n      jump\t// in\n    tag_190:\n        /* \"#utility.yul\":3077:3196   */\n    tag_189:\n        /* \"#utility.yul\":3235:3236   */\n      0x00\n        /* \"#utility.yul\":3260:3313   */\n      tag_191\n        /* \"#utility.yul\":3305:3312   */\n      dup5\n        /* \"#utility.yul\":3296:3302   */\n      dup3\n        /* \"#utility.yul\":3285:3294   */\n      dup6\n        /* \"#utility.yul\":3281:3303   */\n      add\n        /* \"#utility.yul\":3260:3313   */\n      tag_131\n      jump\t// in\n    tag_191:\n        /* \"#utility.yul\":3250:3313   */\n      swap2\n      pop\n        /* \"#utility.yul\":3206:3323   */\n      pop\n        /* \"#utility.yul\":3001:3330   */\n      swap3\n      swap2\n      pop\n      pop\n      jump\t// out\n        /* \"#utility.yul\":3336:3472   */\n    tag_132:\n        /* \"#utility.yul\":3425:3431   */\n      0x00\n        /* \"#utility.yul\":3459:3464   */\n      dup2\n        /* \"#utility.yul\":3453:3465   */\n      mload\n        /* \"#utility.yul\":3443:3465   */\n      swap1\n      pop\n        /* \"#utility.yul\":3336:3472   */\n      swap2\n      swap1\n      pop\n      jump\t// out\n        /* \"#utility.yul\":3478:3684   */\n    tag_133:\n        /* \"#utility.yul\":3599:3610   */\n      0x00\n        /* \"#utility.yul\":3633:3639   */\n      dup3\n        /* \"#utility.yul\":3628:3631   */\n      dup3\n        /* \"#utility.yul\":3621:3640   */\n      mstore\n        /* \"#utility.yul\":3673:3677   */\n      0x20\n        /* \"#utility.yul\":3668:3671   */\n      dup3\n        /* \"#utility.yul\":3664:3678   */\n      add\n        /* \"#utility.yul\":3649:3678   */\n      swap1\n      pop\n        /* \"#utility.yul\":3478:3684   */\n      swap3\n      swap2\n      pop\n      pop\n      jump\t// out\n        /* \"#utility.yul\":3690:3844   */\n    tag_134:\n        /* \"#utility.yul\":3779:3783   */\n      0x00\n        /* \"#utility.yul\":3802:3805   */\n      dup2\n        /* \"#utility.yul\":3794:3805   */\n      swap1\n      pop\n        /* \"#utility.yul\":3832:3836   */\n      0x20\n        /* \"#utility.yul\":3827:3830   */\n      dup3\n        /* \"#utility.yul\":3823:3837   */\n      add\n        /* \"#utility.yul\":3815:3837   */\n      swap1\n      pop\n        /* \"#utility.yul\":3690:3844   */\n      swap2\n      swap1\n      pop\n      jump\t// out\n        /* \"#utility.yul\":3850:3958   */\n    tag_135:\n        /* \"#utility.yul\":3927:3951   */\n      tag_196\n        /* \"#utility.yul\":3945:3950   */\n      dup2\n        /* \"#utility.yul\":3927:3951   */\n      tag_121\n      jump\t// in\n    tag_196:\n        /* \"#utility.yul\":3922:3925   */\n      dup3\n        /* \"#utility.yul\":3915:3952   */\n      mstore\n        /* \"#utility.yul\":3850:3958   */\n      pop\n      pop\n      jump\t// out\n        /* \"#utility.yul\":3964:4072   */\n    tag_136:\n        /* \"#utility.yul\":4041:4065   */\n      tag_198\n        /* \"#utility.yul\":4059:4064   */\n      dup2\n        /* \"#utility.yul\":4041:4065   */\n      tag_128\n      jump\t// in\n    tag_198:\n        /* \"#utility.yul\":4036:4039   */\n      dup3\n        /* \"#utility.yul\":4029:4066   */\n      mstore\n        /* \"#utility.yul\":3964:4072   */\n      pop\n      pop\n      jump\t// out\n        /* \"#utility.yul\":4132:4632   */\n    tag_137:\n        /* \"#utility.yul\":4263:4267   */\n      0x40\n        /* \"#utility.yul\":4258:4261   */\n      dup3\n        /* \"#utility.yul\":4254:4268   */\n      add\n        /* \"#utility.yul\":4355:4359   */\n      0x00\n        /* \"#utility.yul\":4348:4353   */\n      dup3\n        /* \"#utility.yul\":4344:4360   */\n      add\n        /* \"#utility.yul\":4338:4361   */\n      mload\n        /* \"#utility.yul\":4374:4437   */\n      tag_200\n        /* \"#utility.yul\":4431:4435   */\n      0x00\n        /* \"#utility.yul\":4426:4429   */\n      dup6\n        /* \"#utility.yul\":4422:4436   */\n      add\n        /* \"#utility.yul\":4408:4420   */\n      dup3\n        /* \"#utility.yul\":4374:4437   */\n      tag_135\n      jump\t// in\n    tag_200:\n        /* \"#utility.yul\":4278:4447   */\n      pop\n        /* \"#utility.yul\":4533:4537   */\n      0x20\n        /* \"#utility.yul\":4526:4531   */\n      dup3\n        /* \"#utility.yul\":4522:4538   */\n      add\n        /* \"#utility.yul\":4516:4539   */\n      mload\n        /* \"#utility.yul\":4552:4615   */\n      tag_201\n        /* \"#utility.yul\":4609:4613   */\n      0x20\n        /* \"#utility.yul\":4604:4607   */\n      dup6\n        /* \"#utility.yul\":4600:4614   */\n      add\n        /* \"#utility.yul\":4586:4598   */\n      dup3\n        /* \"#utility.yul\":4552:4615   */\n      tag_136\n      jump\t// in\n    tag_201:\n        /* \"#utility.yul\":4457:4625   */\n      pop\n        /* \"#utility.yul\":4232:4632   */\n      pop\n        /* \"#utility.yul\":4132:4632   */\n      pop\n      pop\n      jump\t// out\n        /* \"#utility.yul\":4638:4905   */\n    tag_138:\n        /* \"#utility.yul\":4751:4761   */\n      0x00\n        /* \"#utility.yul\":4772:4862   */\n      tag_203\n        /* \"#utility.yul\":4858:4861   */\n      dup4\n        /* \"#utility.yul\":4850:4856   */\n      dup4\n        /* \"#utility.yul\":4772:4862   */\n      tag_137\n      jump\t// in\n    tag_203:\n        /* \"#utility.yul\":4894:4898   */\n      0x40\n        /* \"#utility.yul\":4889:4892   */\n      dup4\n        /* \"#utility.yul\":4885:4899   */\n      add\n        /* \"#utility.yul\":4871:4899   */\n      swap1\n      pop\n        /* \"#utility.yul\":4638:4905   */\n      swap3\n      swap2\n      pop\n      pop\n      jump\t// out\n        /* \"#utility.yul\":4911:5046   */\n    tag_139:\n        /* \"#utility.yul\":5003:5007   */\n      0x00\n        /* \"#utility.yul\":5035:5039   */\n      0x20\n        /* \"#utility.yul\":5030:5033   */\n      dup3\n        /* \"#utility.yul\":5026:5040   */\n      add\n        /* \"#utility.yul\":5018:5040   */\n      swap1\n      pop\n        /* \"#utility.yul\":4911:5046   */\n      swap2\n      swap1\n      pop\n      jump\t// out\n        /* \"#utility.yul\":5110:6018   */\n    tag_140:\n        /* \"#utility.yul\":5273:5276   */\n      0x00\n        /* \"#utility.yul\":5302:5378   */\n      tag_206\n        /* \"#utility.yul\":5372:5377   */\n      dup3\n        /* \"#utility.yul\":5302:5378   */\n      tag_132\n      jump\t// in\n    tag_206:\n        /* \"#utility.yul\":5394:5502   */\n      tag_207\n        /* \"#utility.yul\":5495:5501   */\n      dup2\n        /* \"#utility.yul\":5490:5493   */\n      dup6\n        /* \"#utility.yul\":5394:5502   */\n      tag_133\n      jump\t// in\n    tag_207:\n        /* \"#utility.yul\":5387:5502   */\n      swap4\n      pop\n        /* \"#utility.yul\":5526:5604   */\n      tag_208\n        /* \"#utility.yul\":5598:5603   */\n      dup4\n        /* \"#utility.yul\":5526:5604   */\n      tag_134\n      jump\t// in\n    tag_208:\n        /* \"#utility.yul\":5627:5634   */\n      dup1\n        /* \"#utility.yul\":5658:5659   */\n      0x00\n        /* \"#utility.yul\":5643:5993   */\n    tag_209:\n        /* \"#utility.yul\":5668:5674   */\n      dup4\n        /* \"#utility.yul\":5665:5666   */\n      dup2\n        /* \"#utility.yul\":5662:5675   */\n      lt\n        /* \"#utility.yul\":5643:5993   */\n      iszero\n      tag_211\n      jumpi\n        /* \"#utility.yul\":5744:5750   */\n      dup2\n        /* \"#utility.yul\":5738:5751   */\n      mload\n        /* \"#utility.yul\":5771:5878   */\n      tag_212\n        /* \"#utility.yul\":5874:5877   */\n      dup9\n        /* \"#utility.yul\":5859:5872   */\n      dup3\n        /* \"#utility.yul\":5771:5878   */\n      tag_138\n      jump\t// in\n    tag_212:\n        /* \"#utility.yul\":5764:5878   */\n      swap8\n      pop\n        /* \"#utility.yul\":5901:5983   */\n      tag_213\n        /* \"#utility.yul\":5976:5982   */\n      dup4\n        /* \"#utility.yul\":5901:5983   */\n      tag_139\n      jump\t// in\n    tag_213:\n        /* \"#utility.yul\":5891:5983   */\n      swap3\n      pop\n        /* \"#utility.yul\":5703:5993   */\n      pop\n        /* \"#utility.yul\":5690:5691   */\n      0x01\n        /* \"#utility.yul\":5687:5688   */\n      dup2\n        /* \"#utility.yul\":5683:5692   */\n      add\n        /* \"#utility.yul\":5678:5692   */\n      swap1\n      pop\n        /* \"#utility.yul\":5643:5993   */\n      jump(tag_209)\n    tag_211:\n        /* \"#utility.yul\":5647:5661   */\n      pop\n        /* \"#utility.yul\":6009:6012   */\n      dup6\n        /* \"#utility.yul\":6002:6012   */\n      swap4\n      pop\n        /* \"#utility.yul\":5278:6018   */\n      pop\n      pop\n      pop\n        /* \"#utility.yul\":5110:6018   */\n      swap3\n      swap2\n      pop\n      pop\n      jump\t// out\n        /* \"#utility.yul\":6024:6485   */\n    tag_62:\n        /* \"#utility.yul\":6211:6215   */\n      0x00\n        /* \"#utility.yul\":6249:6251   */\n      0x20\n        /* \"#utility.yul\":6238:6247   */\n      dup3\n        /* \"#utility.yul\":6234:6252   */\n      add\n        /* \"#utility.yul\":6226:6252   */\n      swap1\n      pop\n        /* \"#utility.yul\":6298:6307   */\n      dup2\n        /* \"#utility.yul\":6292:6296   */\n      dup2\n        /* \"#utility.yul\":6288:6308   */\n      sub\n        /* \"#utility.yul\":6284:6285   */\n      0x00\n        /* \"#utility.yul\":6273:6282   */\n      dup4\n        /* \"#utility.yul\":6269:6286   */\n      add\n        /* \"#utility.yul\":6262:6309   */\n      mstore\n        /* \"#utility.yul\":6326:6478   */\n      tag_215\n        /* \"#utility.yul\":6473:6477   */\n      dup2\n        /* \"#utility.yul\":6464:6470   */\n      dup5\n        /* \"#utility.yul\":6326:6478   */\n      tag_140\n      jump\t// in\n    tag_215:\n        /* \"#utility.yul\":6318:6478   */\n      swap1\n      pop\n        /* \"#utility.yul\":6024:6485   */\n      swap3\n      swap2\n      pop\n      pop\n      jump\t// out\n        /* \"#utility.yul\":6491:6660   */\n    tag_141:\n        /* \"#utility.yul\":6575:6586   */\n      0x00\n        /* \"#utility.yul\":6609:6615   */\n      dup3\n        /* \"#utility.yul\":6604:6607   */\n      dup3\n        /* \"#utility.yul\":6597:6616   */\n      mstore\n        /* \"#utility.yul\":6649:6653   */\n      0x20\n        /* \"#utility.yul\":6644:6647   */\n      dup3\n        /* \"#utility.yul\":6640:6654   */\n      add\n        /* \"#utility.yul\":6625:6654   */\n      swap1\n      pop\n        /* \"#utility.yul\":6491:6660   */\n      swap3\n      swap2\n      pop\n      pop\n      jump\t// out\n        /* \"#utility.yul\":6666:6843   */\n    tag_142:\n        /* \"#utility.yul\":6806:6835   */\n      0x4c6120737562617374612079612068612066696e616c697a61646f0000000000\n        /* \"#utility.yul\":6802:6803   */\n      0x00\n        /* \"#utility.yul\":6794:6800   */\n      dup3\n        /* \"#utility.yul\":6790:6804   */\n      add\n        /* \"#utility.yul\":6783:6836   */\n      mstore\n        /* \"#utility.yul\":6666:6843   */\n      pop\n      jump\t// out\n        /* \"#utility.yul\":6849:7215   */\n    tag_143:\n        /* \"#utility.yul\":6991:6994   */\n      0x00\n        /* \"#utility.yul\":7012:7079   */\n      tag_219\n        /* \"#utility.yul\":7076:7078   */\n      0x1b\n        /* \"#utility.yul\":7071:7074   */\n      dup4\n        /* \"#utility.yul\":7012:7079   */\n      tag_141\n      jump\t// in\n    tag_219:\n        /* \"#utility.yul\":7005:7079   */\n      swap2\n      pop\n        /* \"#utility.yul\":7088:7181   */\n      tag_220\n        /* \"#utility.yul\":7177:7180   */\n      dup3\n        /* \"#utility.yul\":7088:7181   */\n      tag_142\n      jump\t// in\n    tag_220:\n        /* \"#utility.yul\":7206:7208   */\n      0x20\n        /* \"#utility.yul\":7201:7204   */\n      dup3\n        /* \"#utility.yul\":7197:7209   */\n      add\n        /* \"#utility.yul\":7190:7209   */\n      swap1\n      pop\n        /* \"#utility.yul\":6849:7215   */\n      swap2\n      swap1\n      pop\n      jump\t// out\n        /* \"#utility.yul\":7221:7640   */\n    tag_79:\n        /* \"#utility.yul\":7387:7391   */\n      0x00\n        /* \"#utility.yul\":7425:7427   */\n      0x20\n        /* \"#utility.yul\":7414:7423   */\n      dup3\n        /* \"#utility.yul\":7410:7428   */\n      add\n        /* \"#utility.yul\":7402:7428   */\n      swap1\n      pop\n        /* \"#utility.yul\":7474:7483   */\n      dup2\n        /* \"#utility.yul\":7468:7472   */\n      dup2\n        /* \"#utility.yul\":7464:7484   */\n      sub\n        /* \"#utility.yul\":7460:7461   */\n      0x00\n        /* \"#utility.yul\":7449:7458   */\n      dup4\n        /* \"#utility.yul\":7445:7462   */\n      add\n        /* \"#utility.yul\":7438:7485   */\n      mstore\n        /* \"#utility.yul\":7502:7633   */\n      tag_222\n        /* \"#utility.yul\":7628:7632   */\n      dup2\n        /* \"#utility.yul\":7502:7633   */\n      tag_143\n      jump\t// in\n    tag_222:\n        /* \"#utility.yul\":7494:7633   */\n      swap1\n      pop\n        /* \"#utility.yul\":7221:7640   */\n      swap2\n      swap1\n      pop\n      jump\t// out\n        /* \"#utility.yul\":7646:7826   */\n    tag_144:\n        /* \"#utility.yul\":7694:7771   */\n      0x4e487b7100000000000000000000000000000000000000000000000000000000\n        /* \"#utility.yul\":7691:7692   */\n      0x00\n        /* \"#utility.yul\":7684:7772   */\n      mstore\n        /* \"#utility.yul\":7791:7795   */\n      0x11\n        /* \"#utility.yul\":7788:7789   */\n      0x04\n        /* \"#utility.yul\":7781:7796   */\n      mstore\n        /* \"#utility.yul\":7815:7819   */\n      0x24\n        /* \"#utility.yul\":7812:7813   */\n      0x00\n        /* \"#utility.yul\":7805:7820   */\n      revert\n        /* \"#utility.yul\":7832:8242   */\n    tag_82:\n        /* \"#utility.yul\":7872:7879   */\n      0x00\n        /* \"#utility.yul\":7895:7915   */\n      tag_225\n        /* \"#utility.yul\":7913:7914   */\n      dup3\n        /* \"#utility.yul\":7895:7915   */\n      tag_128\n      jump\t// in\n    tag_225:\n        /* \"#utility.yul\":7890:7915   */\n      swap2\n      pop\n        /* \"#utility.yul\":7929:7949   */\n      tag_226\n        /* \"#utility.yul\":7947:7948   */\n      dup4\n        /* \"#utility.yul\":7929:7949   */\n      tag_128\n      jump\t// in\n    tag_226:\n        /* \"#utility.yul\":7924:7949   */\n      swap3\n      pop\n        /* \"#utility.yul\":7984:7985   */\n      dup3\n        /* \"#utility.yul\":7981:7982   */\n      dup3\n        /* \"#utility.yul\":7977:7986   */\n      mul\n        /* \"#utility.yul\":8006:8036   */\n      tag_227\n        /* \"#utility.yul\":8024:8035   */\n      dup2\n        /* \"#utility.yul\":8006:8036   */\n      tag_128\n      jump\t// in\n    tag_227:\n        /* \"#utility.yul\":7995:8036   */\n      swap2\n      pop\n        /* \"#utility.yul\":8185:8186   */\n      dup3\n        /* \"#utility.yul\":8176:8183   */\n      dup3\n        /* \"#utility.yul\":8172:8187   */\n      div\n        /* \"#utility.yul\":8169:8170   */\n      dup5\n        /* \"#utility.yul\":8166:8188   */\n      eq\n        /* \"#utility.yul\":8146:8147   */\n      dup4\n        /* \"#utility.yul\":8139:8148   */\n      iszero\n        /* \"#utility.yul\":8119:8202   */\n      or\n        /* \"#utility.yul\":8096:8235   */\n      tag_228\n      jumpi\n        /* \"#utility.yul\":8215:8233   */\n      tag_229\n      tag_144\n      jump\t// in\n    tag_229:\n        /* \"#utility.yul\":8096:8235   */\n    tag_228:\n        /* \"#utility.yul\":7880:8242   */\n      pop\n        /* \"#utility.yul\":7832:8242   */\n      swap3\n      swap2\n      pop\n      pop\n      jump\t// out\n        /* \"#utility.yul\":8248:8428   */\n    tag_145:\n        /* \"#utility.yul\":8296:8373   */\n      0x4e487b7100000000000000000000000000000000000000000000000000000000\n        /* \"#utility.yul\":8293:8294   */\n      0x00\n        /* \"#utility.yul\":8286:8374   */\n      mstore\n        /* \"#utility.yul\":8393:8397   */\n      0x12\n        /* \"#utility.yul\":8390:8391   */\n      0x04\n        /* \"#utility.yul\":8383:8398   */\n      mstore\n        /* \"#utility.yul\":8417:8421   */\n      0x24\n        /* \"#utility.yul\":8414:8415   */\n      0x00\n        /* \"#utility.yul\":8407:8422   */\n      revert\n        /* \"#utility.yul\":8434:8619   */\n    tag_84:\n        /* \"#utility.yul\":8474:8475   */\n      0x00\n        /* \"#utility.yul\":8491:8511   */\n      tag_232\n        /* \"#utility.yul\":8509:8510   */\n      dup3\n        /* \"#utility.yul\":8491:8511   */\n      tag_128\n      jump\t// in\n    tag_232:\n        /* \"#utility.yul\":8486:8511   */\n      swap2\n      pop\n        /* \"#utility.yul\":8525:8545   */\n      tag_233\n        /* \"#utility.yul\":8543:8544   */\n      dup4\n        /* \"#utility.yul\":8525:8545   */\n      tag_128\n      jump\t// in\n    tag_233:\n        /* \"#utility.yul\":8520:8545   */\n      swap3\n      pop\n        /* \"#utility.yul\":8564:8565   */\n      dup3\n        /* \"#utility.yul\":8554:8589   */\n      tag_234\n      jumpi\n        /* \"#utility.yul\":8569:8587   */\n      tag_235\n      tag_145\n      jump\t// in\n    tag_235:\n        /* \"#utility.yul\":8554:8589   */\n    tag_234:\n        /* \"#utility.yul\":8611:8612   */\n      dup3\n        /* \"#utility.yul\":8608:8609   */\n      dup3\n        /* \"#utility.yul\":8604:8613   */\n      div\n        /* \"#utility.yul\":8599:8613   */\n      swap1\n      pop\n        /* \"#utility.yul\":8434:8619   */\n      swap3\n      swap2\n      pop\n      pop\n      jump\t// out\n        /* \"#utility.yul\":8625:8816   */\n    tag_86:\n        /* \"#utility.yul\":8665:8668   */\n      0x00\n        /* \"#utility.yul\":8684:8704   */\n      tag_237\n        /* \"#utility.yul\":8702:8703   */\n      dup3\n        /* \"#utility.yul\":8684:8704   */\n      tag_128\n      jump\t// in\n    tag_237:\n        /* \"#utility.yul\":8679:8704   */\n      swap2\n      pop\n        /* \"#utility.yul\":8718:8738   */\n      tag_238\n        /* \"#utility.yul\":8736:8737   */\n      dup4\n        /* \"#utility.yul\":8718:8738   */\n      tag_128\n      jump\t// in\n    tag_238:\n        /* \"#utility.yul\":8713:8738   */\n      swap3\n      pop\n        /* \"#utility.yul\":8761:8762   */\n      dup3\n        /* \"#utility.yul\":8758:8759   */\n      dup3\n        /* \"#utility.yul\":8754:8763   */\n      add\n        /* \"#utility.yul\":8747:8763   */\n      swap1\n      pop\n        /* \"#utility.yul\":8782:8785   */\n      dup1\n        /* \"#utility.yul\":8779:8780   */\n      dup3\n        /* \"#utility.yul\":8776:8786   */\n      gt\n        /* \"#utility.yul\":8773:8809   */\n      iszero\n      tag_239\n      jumpi\n        /* \"#utility.yul\":8789:8807   */\n      tag_240\n      tag_144\n      jump\t// in\n    tag_240:\n        /* \"#utility.yul\":8773:8809   */\n    tag_239:\n        /* \"#utility.yul\":8625:8816   */\n      swap3\n      swap2\n      pop\n      pop\n      jump\t// out\n        /* \"#utility.yul\":8822:9066   */\n    tag_146:\n        /* \"#utility.yul\":8962:8996   */\n      0x4c61206f66657274612064656265207375706572617220656e20616c206d656e\n        /* \"#utility.yul\":8958:8959   */\n      0x00\n        /* \"#utility.yul\":8950:8956   */\n      dup3\n        /* \"#utility.yul\":8946:8960   */\n      add\n        /* \"#utility.yul\":8939:8997   */\n      mstore\n        /* \"#utility.yul\":9031:9058   */\n      0x6f7320756e203525206c61206f66657274612061637475616c00000000000000\n        /* \"#utility.yul\":9026:9028   */\n      0x20\n        /* \"#utility.yul\":9018:9024   */\n      dup3\n        /* \"#utility.yul\":9014:9029   */\n      add\n        /* \"#utility.yul\":9007:9059   */\n      mstore\n        /* \"#utility.yul\":8822:9066   */\n      pop\n      jump\t// out\n        /* \"#utility.yul\":9072:9438   */\n    tag_147:\n        /* \"#utility.yul\":9214:9217   */\n      0x00\n        /* \"#utility.yul\":9235:9302   */\n      tag_243\n        /* \"#utility.yul\":9299:9301   */\n      0x39\n        /* \"#utility.yul\":9294:9297   */\n      dup4\n        /* \"#utility.yul\":9235:9302   */\n      tag_141\n      jump\t// in\n    tag_243:\n        /* \"#utility.yul\":9228:9302   */\n      swap2\n      pop\n        /* \"#utility.yul\":9311:9404   */\n      tag_244\n        /* \"#utility.yul\":9400:9403   */\n      dup3\n        /* \"#utility.yul\":9311:9404   */\n      tag_146\n      jump\t// in\n    tag_244:\n        /* \"#utility.yul\":9429:9431   */\n      0x40\n        /* \"#utility.yul\":9424:9427   */\n      dup3\n        /* \"#utility.yul\":9420:9432   */\n      add\n        /* \"#utility.yul\":9413:9432   */\n      swap1\n      pop\n        /* \"#utility.yul\":9072:9438   */\n      swap2\n      swap1\n      pop\n      jump\t// out\n        /* \"#utility.yul\":9444:9863   */\n    tag_89:\n        /* \"#utility.yul\":9610:9614   */\n      0x00\n        /* \"#utility.yul\":9648:9650   */\n      0x20\n        /* \"#utility.yul\":9637:9646   */\n      dup3\n        /* \"#utility.yul\":9633:9651   */\n      add\n        /* \"#utility.yul\":9625:9651   */\n      swap1\n      pop\n        /* \"#utility.yul\":9697:9706   */\n      dup2\n        /* \"#utility.yul\":9691:9695   */\n      dup2\n        /* \"#utility.yul\":9687:9707   */\n      sub\n        /* \"#utility.yul\":9683:9684   */\n      0x00\n        /* \"#utility.yul\":9672:9681   */\n      dup4\n        /* \"#utility.yul\":9668:9685   */\n      add\n        /* \"#utility.yul\":9661:9708   */\n      mstore\n        /* \"#utility.yul\":9725:9856   */\n      tag_246\n        /* \"#utility.yul\":9851:9855   */\n      dup2\n        /* \"#utility.yul\":9725:9856   */\n      tag_147\n      jump\t// in\n    tag_246:\n        /* \"#utility.yul\":9717:9856   */\n      swap1\n      pop\n        /* \"#utility.yul\":9444:9863   */\n      swap2\n      swap1\n      pop\n      jump\t// out\n        /* \"#utility.yul\":9869:10063   */\n    tag_94:\n        /* \"#utility.yul\":9909:9913   */\n      0x00\n        /* \"#utility.yul\":9929:9949   */\n      tag_248\n        /* \"#utility.yul\":9947:9948   */\n      dup3\n        /* \"#utility.yul\":9929:9949   */\n      tag_128\n      jump\t// in\n    tag_248:\n        /* \"#utility.yul\":9924:9949   */\n      swap2\n      pop\n        /* \"#utility.yul\":9963:9983   */\n      tag_249\n        /* \"#utility.yul\":9981:9982   */\n      dup4\n        /* \"#utility.yul\":9963:9983   */\n      tag_128\n      jump\t// in\n    tag_249:\n        /* \"#utility.yul\":9958:9983   */\n      swap3\n      pop\n        /* \"#utility.yul\":10007:10008   */\n      dup3\n        /* \"#utility.yul\":10004:10005   */\n      dup3\n        /* \"#utility.yul\":10000:10009   */\n      sub\n        /* \"#utility.yul\":9992:10009   */\n      swap1\n      pop\n        /* \"#utility.yul\":10031:10032   */\n      dup2\n        /* \"#utility.yul\":10025:10029   */\n      dup2\n        /* \"#utility.yul\":10022:10033   */\n      gt\n        /* \"#utility.yul\":10019:10056   */\n      iszero\n      tag_250\n      jumpi\n        /* \"#utility.yul\":10036:10054   */\n      tag_251\n      tag_144\n      jump\t// in\n    tag_251:\n        /* \"#utility.yul\":10019:10056   */\n    tag_250:\n        /* \"#utility.yul\":9869:10063   */\n      swap3\n      swap2\n      pop\n      pop\n      jump\t// out\n        /* \"#utility.yul\":10069:10245   */\n    tag_148:\n        /* \"#utility.yul\":10209:10237   */\n      0x4c6120737562617374612061756e206573746120616374697661000000000000\n        /* \"#utility.yul\":10205:10206   */\n      0x00\n        /* \"#utility.yul\":10197:10203   */\n      dup3\n        /* \"#utility.yul\":10193:10207   */\n      add\n        /* \"#utility.yul\":10186:10238   */\n      mstore\n        /* \"#utility.yul\":10069:10245   */\n      pop\n      jump\t// out\n        /* \"#utility.yul\":10251:10617   */\n    tag_149:\n        /* \"#utility.yul\":10393:10396   */\n      0x00\n        /* \"#utility.yul\":10414:10481   */\n      tag_254\n        /* \"#utility.yul\":10478:10480   */\n      0x1a\n        /* \"#utility.yul\":10473:10476   */\n      dup4\n        /* \"#utility.yul\":10414:10481   */\n      tag_141\n      jump\t// in\n    tag_254:\n        /* \"#utility.yul\":10407:10481   */\n      swap2\n      pop\n        /* \"#utility.yul\":10490:10583   */\n      tag_255\n        /* \"#utility.yul\":10579:10582   */\n      dup3\n        /* \"#utility.yul\":10490:10583   */\n      tag_148\n      jump\t// in\n    tag_255:\n        /* \"#utility.yul\":10608:10610   */\n      0x20\n        /* \"#utility.yul\":10603:10606   */\n      dup3\n        /* \"#utility.yul\":10599:10611   */\n      add\n        /* \"#utility.yul\":10592:10611   */\n      swap1\n      pop\n        /* \"#utility.yul\":10251:10617   */\n      swap2\n      swap1\n      pop\n      jump\t// out\n        /* \"#utility.yul\":10623:11042   */\n    tag_104:\n        /* \"#utility.yul\":10789:10793   */\n      0x00\n        /* \"#utility.yul\":10827:10829   */\n      0x20\n        /* \"#utility.yul\":10816:10825   */\n      dup3\n        /* \"#utility.yul\":10812:10830   */\n      add\n        /* \"#utility.yul\":10804:10830   */\n      swap1\n      pop\n        /* \"#utility.yul\":10876:10885   */\n      dup2\n        /* \"#utility.yul\":10870:10874   */\n      dup2\n        /* \"#utility.yul\":10866:10886   */\n      sub\n        /* \"#utility.yul\":10862:10863   */\n      0x00\n        /* \"#utility.yul\":10851:10860   */\n      dup4\n        /* \"#utility.yul\":10847:10864   */\n      add\n        /* \"#utility.yul\":10840:10887   */\n      mstore\n        /* \"#utility.yul\":10904:11035   */\n      tag_257\n        /* \"#utility.yul\":11030:11034   */\n      dup2\n        /* \"#utility.yul\":10904:11035   */\n      tag_149\n      jump\t// in\n    tag_257:\n        /* \"#utility.yul\":10896:11035   */\n      swap1\n      pop\n        /* \"#utility.yul\":10623:11042   */\n      swap2\n      swap1\n      pop\n      jump\t// out\n\n    auxdata: 0xa26469706673582212208814ccd3d71c88e7670e23140b53092dfc074b3979ff995b55b892241b5e93d664736f6c634300081a0033\n}\n",
				"bytecode": {
					"linkReferences": {},
					"object": "608060405260b46002556005600355600160045f6101000a81548160ff021916908315150217905550670de0b6b3a764000060055534801561003f575f80fd5b50335f806101000a81548173ffffffffffffffffffffffffffffffffffffffff021916908373ffffffffffffffffffffffffffffffffffffffff1602179055506002544261008d919061026a565b60018190555060405180604001604052805f8054906101000a900473ffffffffffffffffffffffffffffffffffffffff1673ffffffffffffffffffffffffffffffffffffffff16815260200160055481525060065f820151815f015f6101000a81548173ffffffffffffffffffffffffffffffffffffffff021916908373ffffffffffffffffffffffffffffffffffffffff1602179055506020820151816001015590505060055460085f805f9054906101000a900473ffffffffffffffffffffffffffffffffffffffff1673ffffffffffffffffffffffffffffffffffffffff1673ffffffffffffffffffffffffffffffffffffffff1681526020019081526020015f208190555060096006908060018154018082558091505060019003905f5260205f2090600202015f909190919091505f82015f9054906101000a900473ffffffffffffffffffffffffffffffffffffffff16815f015f6101000a81548173ffffffffffffffffffffffffffffffffffffffff021916908373ffffffffffffffffffffffffffffffffffffffff16021790555060018201548160010155505061029d565b5f819050919050565b7f4e487b71000000000000000000000000000000000000000000000000000000005f52601160045260245ffd5b5f61027482610234565b915061027f83610234565b92508282019050808211156102975761029661023d565b5b92915050565b610fd7806102aa5f395ff3fe6080604052600436106100c1575f3560e01c80638e3df72e1161007e578063c442a99f11610058578063c442a99f14610232578063c63049f81461025c578063cc14e31f14610286578063d1d7e96c146102b0576100c1565b80638e3df72e146101b45780639257a3db146101ca578063acfc9f9814610207576100c1565b80632c5e5471146100c55780633dfa138d146100ef5780633ec059d714610119578063664e62b91461012357806371ea6d331461015f578063753dcaeb14610189575b5f80fd5b3480156100d0575f80fd5b506100d96102da565b6040516100e69190610a78565b60405180910390f35b3480156100fa575f80fd5b506101036102ec565b6040516101109190610ad0565b60405180910390f35b61012161030f565b005b34801561012e575f80fd5b5061014960048036038101906101449190610b17565b6107c3565b6040516101569190610b5a565b60405180910390f35b34801561016a575f80fd5b506101736107d8565b6040516101809190610b5a565b60405180910390f35b348015610194575f80fd5b5061019d6107de565b6040516101ab929190610b73565b60405180910390f35b3480156101bf575f80fd5b506101c8610861565b005b3480156101d5575f80fd5b506101f060048036038101906101eb9190610bc4565b61088e565b6040516101fe929190610b73565b60405180910390f35b348015610212575f80fd5b5061021b6108dc565b604051610229929190610b73565b60405180910390f35b34801561023d575f80fd5b5061024661090c565b6040516102539190610ce2565b60405180910390f35b348015610267575f80fd5b506102706109c6565b60405161027d9190610b5a565b60405180910390f35b348015610291575f80fd5b5061029a6109cc565b6040516102a79190610b5a565b60405180910390f35b3480156102bb575f80fd5b506102c46109d2565b6040516102d19190610b5a565b60405180910390f35b60045f9054906101000a900460ff1681565b5f8054906101000a900473ffffffffffffffffffffffffffffffffffffffff1681565b60045f9054906101000a900460ff16801561032b575060015442105b61036a576040517f08c379a000000000000000000000000000000000000000000000000000000000815260040161036190610d5c565b60405180910390fd5b5f60646003546006600101546103809190610da7565b61038a9190610e15565b60066001015461039a9190610e45565b9050803410156103df576040517f08c379a00000000000000000000000000000000000000000000000000000000081526004016103d690610ee8565b60405180910390fd5b5f8054906101000a900473ffffffffffffffffffffffffffffffffffffffff1673ffffffffffffffffffffffffffffffffffffffff1660065f015f9054906101000a900473ffffffffffffffffffffffffffffffffffffffff1673ffffffffffffffffffffffffffffffffffffffff1614610609575f6064600260085f60065f015f9054906101000a900473ffffffffffffffffffffffffffffffffffffffff1673ffffffffffffffffffffffffffffffffffffffff1673ffffffffffffffffffffffffffffffffffffffff1681526020019081526020015f20546104c49190610da7565b6104ce9190610e15565b60085f60065f015f9054906101000a900473ffffffffffffffffffffffffffffffffffffffff1673ffffffffffffffffffffffffffffffffffffffff1673ffffffffffffffffffffffffffffffffffffffff1681526020019081526020015f20546105399190610f06565b905060065f015f9054906101000a900473ffffffffffffffffffffffffffffffffffffffff1673ffffffffffffffffffffffffffffffffffffffff166108fc8290811502906040515f60405180830381858888f193505050501580156105a1573d5f803e3d5ffd5b505f60085f60065f015f9054906101000a900473ffffffffffffffffffffffffffffffffffffffff1673ffffffffffffffffffffffffffffffffffffffff1673ffffffffffffffffffffffffffffffffffffffff1681526020019081526020015f2081905550505b60405180604001604052803373ffffffffffffffffffffffffffffffffffffffff1681526020013481525060065f820151815f015f6101000a81548173ffffffffffffffffffffffffffffffffffffffff021916908373ffffffffffffffffffffffffffffffffffffffff160217905550602082015181600101559050503460085f3373ffffffffffffffffffffffffffffffffffffffff1673ffffffffffffffffffffffffffffffffffffffff1681526020019081526020015f205f8282546106d39190610e45565b92505081905550600254426106e89190610e45565b60018190555060096006908060018154018082558091505060019003905f5260205f2090600202015f909190919091505f82015f9054906101000a900473ffffffffffffffffffffffffffffffffffffffff16815f015f6101000a81548173ffffffffffffffffffffffffffffffffffffffff021916908373ffffffffffffffffffffffffffffffffffffffff1602179055506001820154816001015550507f155d469211f46e4d9ae974606f0878f9aacc6198ba30a1e6b9c8cf5627352fb533346040516107b8929190610b73565b60405180910390a150565b6008602052805f5260405f205f915090505481565b60055481565b5f8060045f9054906101000a900460ff161561082f576040517f08c379a000000000000000000000000000000000000000000000000000000000815260040161082690610f83565b60405180910390fd5b60065f015f9054906101000a900473ffffffffffffffffffffffffffffffffffffffff16915060066001015490509091565b600154421015801561087e575060045f9054906101000a900460ff165b1561088c5761088b6109d8565b5b565b6009818154811061089d575f80fd5b905f5260205f2090600202015f91509050805f015f9054906101000a900473ffffffffffffffffffffffffffffffffffffffff16908060010154905082565b6006805f015f9054906101000a900473ffffffffffffffffffffffffffffffffffffffff16908060010154905082565b60606009805480602002602001604051908101604052809291908181526020015f905b828210156109bd578382905f5260205f2090600202016040518060400160405290815f82015f9054906101000a900473ffffffffffffffffffffffffffffffffffffffff1673ffffffffffffffffffffffffffffffffffffffff1673ffffffffffffffffffffffffffffffffffffffff1681526020016001820154815250508152602001906001019061092f565b50505050905090565b60015481565b60035481565b60025481565b5f60045f6101000a81548160ff0219169083151502179055505f60065f015f9054906101000a900473ffffffffffffffffffffffffffffffffffffffff1690505f60066001015490507fa3a65b403bdae88eb037f4ecc1d619f436fc3ef6bcbbee3787757164e82883f28282604051610a52929190610b73565b60405180910390a15050565b5f8115159050919050565b610a7281610a5e565b82525050565b5f602082019050610a8b5f830184610a69565b92915050565b5f73ffffffffffffffffffffffffffffffffffffffff82169050919050565b5f610aba82610a91565b9050919050565b610aca81610ab0565b82525050565b5f602082019050610ae35f830184610ac1565b92915050565b5f80fd5b610af681610ab0565b8114610b00575f80fd5b50565b5f81359050610b1181610aed565b92915050565b5f60208284031215610b2c57610b2b610ae9565b5b5f610b3984828501610b03565b91505092915050565b5f819050919050565b610b5481610b42565b82525050565b5f602082019050610b6d5f830184610b4b565b92915050565b5f604082019050610b865f830185610ac1565b610b936020830184610b4b565b9392505050565b610ba381610b42565b8114610bad575f80fd5b50565b5f81359050610bbe81610b9a565b92915050565b5f60208284031215610bd957610bd8610ae9565b5b5f610be684828501610bb0565b91505092915050565b5f81519050919050565b5f82825260208201905092915050565b5f819050602082019050919050565b610c2181610ab0565b82525050565b610c3081610b42565b82525050565b604082015f820151610c4a5f850182610c18565b506020820151610c5d6020850182610c27565b50505050565b5f610c6e8383610c36565b60408301905092915050565b5f602082019050919050565b5f610c9082610bef565b610c9a8185610bf9565b9350610ca583610c09565b805f5b83811015610cd5578151610cbc8882610c63565b9750610cc783610c7a565b925050600181019050610ca8565b5085935050505092915050565b5f6020820190508181035f830152610cfa8184610c86565b905092915050565b5f82825260208201905092915050565b7f4c6120737562617374612079612068612066696e616c697a61646f00000000005f82015250565b5f610d46601b83610d02565b9150610d5182610d12565b602082019050919050565b5f6020820190508181035f830152610d7381610d3a565b9050919050565b7f4e487b71000000000000000000000000000000000000000000000000000000005f52601160045260245ffd5b5f610db182610b42565b9150610dbc83610b42565b9250828202610dca81610b42565b91508282048414831517610de157610de0610d7a565b5b5092915050565b7f4e487b71000000000000000000000000000000000000000000000000000000005f52601260045260245ffd5b5f610e1f82610b42565b9150610e2a83610b42565b925082610e3a57610e39610de8565b5b828204905092915050565b5f610e4f82610b42565b9150610e5a83610b42565b9250828201905080821115610e7257610e71610d7a565b5b92915050565b7f4c61206f66657274612064656265207375706572617220656e20616c206d656e5f8201527f6f7320756e203525206c61206f66657274612061637475616c00000000000000602082015250565b5f610ed2603983610d02565b9150610edd82610e78565b604082019050919050565b5f6020820190508181035f830152610eff81610ec6565b9050919050565b5f610f1082610b42565b9150610f1b83610b42565b9250828203905081811115610f3357610f32610d7a565b5b92915050565b7f4c6120737562617374612061756e2065737461206163746976610000000000005f82015250565b5f610f6d601a83610d02565b9150610f7882610f39565b602082019050919050565b5f6020820190508181035f830152610f9a81610f61565b905091905056fea26469706673582212208814ccd3d71c88e7670e23140b53092dfc074b3979ff995b55b892241b5e93d664736f6c634300081a0033",
					"opcodes": "PUSH1 0x80 PUSH1 0x40 MSTORE PUSH1 0xB4 PUSH1 0x2 SSTORE PUSH1 0x5 PUSH1 0x3 SSTORE PUSH1 0x1 PUSH1 0x4 PUSH0 PUSH2 0x100 EXP DUP2 SLOAD DUP2 PUSH1 0xFF MUL NOT AND SWAP1 DUP4 ISZERO ISZERO MUL OR SWAP1 SSTORE POP PUSH8 0xDE0B6B3A7640000 PUSH1 0x5 SSTORE CALLVALUE DUP1 ISZERO PUSH2 0x3F JUMPI PUSH0 DUP1 REVERT JUMPDEST POP CALLER PUSH0 DUP1 PUSH2 0x100 EXP DUP2 SLOAD DUP2 PUSH20 0xFFFFFFFFFFFFFFFFFFFFFFFFFFFFFFFFFFFFFFFF MUL NOT AND SWAP1 DUP4 PUSH20 0xFFFFFFFFFFFFFFFFFFFFFFFFFFFFFFFFFFFFFFFF AND MUL OR SWAP1 SSTORE POP PUSH1 0x2 SLOAD TIMESTAMP PUSH2 0x8D SWAP2 SWAP1 PUSH2 0x26A JUMP JUMPDEST PUSH1 0x1 DUP2 SWAP1 SSTORE POP PUSH1 0x40 MLOAD DUP1 PUSH1 0x40 ADD PUSH1 0x40 MSTORE DUP1 PUSH0 DUP1 SLOAD SWAP1 PUSH2 0x100 EXP SWAP1 DIV PUSH20 0xFFFFFFFFFFFFFFFFFFFFFFFFFFFFFFFFFFFFFFFF AND PUSH20 0xFFFFFFFFFFFFFFFFFFFFFFFFFFFFFFFFFFFFFFFF AND DUP2 MSTORE PUSH1 0x20 ADD PUSH1 0x5 SLOAD DUP2 MSTORE POP PUSH1 0x6 PUSH0 DUP3 ADD MLOAD DUP2 PUSH0 ADD PUSH0 PUSH2 0x100 EXP DUP2 SLOAD DUP2 PUSH20 0xFFFFFFFFFFFFFFFFFFFFFFFFFFFFFFFFFFFFFFFF MUL NOT AND SWAP1 DUP4 PUSH20 0xFFFFFFFFFFFFFFFFFFFFFFFFFFFFFFFFFFFFFFFF AND MUL OR SWAP1 SSTORE POP PUSH1 0x20 DUP3 ADD MLOAD DUP2 PUSH1 0x1 ADD SSTORE SWAP1 POP POP PUSH1 0x5 SLOAD PUSH1 0x8 PUSH0 DUP1 PUSH0 SWAP1 SLOAD SWAP1 PUSH2 0x100 EXP SWAP1 DIV PUSH20 0xFFFFFFFFFFFFFFFFFFFFFFFFFFFFFFFFFFFFFFFF AND PUSH20 0xFFFFFFFFFFFFFFFFFFFFFFFFFFFFFFFFFFFFFFFF AND PUSH20 0xFFFFFFFFFFFFFFFFFFFFFFFFFFFFFFFFFFFFFFFF AND DUP2 MSTORE PUSH1 0x20 ADD SWAP1 DUP2 MSTORE PUSH1 0x20 ADD PUSH0 KECCAK256 DUP2 SWAP1 SSTORE POP PUSH1 0x9 PUSH1 0x6 SWAP1 DUP1 PUSH1 0x1 DUP2 SLOAD ADD DUP1 DUP3 SSTORE DUP1 SWAP2 POP POP PUSH1 0x1 SWAP1 SUB SWAP1 PUSH0 MSTORE PUSH1 0x20 PUSH0 KECCAK256 SWAP1 PUSH1 0x2 MUL ADD PUSH0 SWAP1 SWAP2 SWAP1 SWAP2 SWAP1 SWAP2 POP PUSH0 DUP3 ADD PUSH0 SWAP1 SLOAD SWAP1 PUSH2 0x100 EXP SWAP1 DIV PUSH20 0xFFFFFFFFFFFFFFFFFFFFFFFFFFFFFFFFFFFFFFFF AND DUP2 PUSH0 ADD PUSH0 PUSH2 0x100 EXP DUP2 SLOAD DUP2 PUSH20 0xFFFFFFFFFFFFFFFFFFFFFFFFFFFFFFFFFFFFFFFF MUL NOT AND SWAP1 DUP4 PUSH20 0xFFFFFFFFFFFFFFFFFFFFFFFFFFFFFFFFFFFFFFFF AND MUL OR SWAP1 SSTORE POP PUSH1 0x1 DUP3 ADD SLOAD DUP2 PUSH1 0x1 ADD SSTORE POP POP PUSH2 0x29D JUMP JUMPDEST PUSH0 DUP2 SWAP1 POP SWAP2 SWAP1 POP JUMP JUMPDEST PUSH32 0x4E487B7100000000000000000000000000000000000000000000000000000000 PUSH0 MSTORE PUSH1 0x11 PUSH1 0x4 MSTORE PUSH1 0x24 PUSH0 REVERT JUMPDEST PUSH0 PUSH2 0x274 DUP3 PUSH2 0x234 JUMP JUMPDEST SWAP2 POP PUSH2 0x27F DUP4 PUSH2 0x234 JUMP JUMPDEST SWAP3 POP DUP3 DUP3 ADD SWAP1 POP DUP1 DUP3 GT ISZERO PUSH2 0x297 JUMPI PUSH2 0x296 PUSH2 0x23D JUMP JUMPDEST JUMPDEST SWAP3 SWAP2 POP POP JUMP JUMPDEST PUSH2 0xFD7 DUP1 PUSH2 0x2AA PUSH0 CODECOPY PUSH0 RETURN INVALID PUSH1 0x80 PUSH1 0x40 MSTORE PUSH1 0x4 CALLDATASIZE LT PUSH2 0xC1 JUMPI PUSH0 CALLDATALOAD PUSH1 0xE0 SHR DUP1 PUSH4 0x8E3DF72E GT PUSH2 0x7E JUMPI DUP1 PUSH4 0xC442A99F GT PUSH2 0x58 JUMPI DUP1 PUSH4 0xC442A99F EQ PUSH2 0x232 JUMPI DUP1 PUSH4 0xC63049F8 EQ PUSH2 0x25C JUMPI DUP1 PUSH4 0xCC14E31F EQ PUSH2 0x286 JUMPI DUP1 PUSH4 0xD1D7E96C EQ PUSH2 0x2B0 JUMPI PUSH2 0xC1 JUMP JUMPDEST DUP1 PUSH4 0x8E3DF72E EQ PUSH2 0x1B4 JUMPI DUP1 PUSH4 0x9257A3DB EQ PUSH2 0x1CA JUMPI DUP1 PUSH4 0xACFC9F98 EQ PUSH2 0x207 JUMPI PUSH2 0xC1 JUMP JUMPDEST DUP1 PUSH4 0x2C5E5471 EQ PUSH2 0xC5 JUMPI DUP1 PUSH4 0x3DFA138D EQ PUSH2 0xEF JUMPI DUP1 PUSH4 0x3EC059D7 EQ PUSH2 0x119 JUMPI DUP1 PUSH4 0x664E62B9 EQ PUSH2 0x123 JUMPI DUP1 PUSH4 0x71EA6D33 EQ PUSH2 0x15F JUMPI DUP1 PUSH4 0x753DCAEB EQ PUSH2 0x189 JUMPI JUMPDEST PUSH0 DUP1 REVERT JUMPDEST CALLVALUE DUP1 ISZERO PUSH2 0xD0 JUMPI PUSH0 DUP1 REVERT JUMPDEST POP PUSH2 0xD9 PUSH2 0x2DA JUMP JUMPDEST PUSH1 0x40 MLOAD PUSH2 0xE6 SWAP2 SWAP1 PUSH2 0xA78 JUMP JUMPDEST PUSH1 0x40 MLOAD DUP1 SWAP2 SUB SWAP1 RETURN JUMPDEST CALLVALUE DUP1 ISZERO PUSH2 0xFA JUMPI PUSH0 DUP1 REVERT JUMPDEST POP PUSH2 0x103 PUSH2 0x2EC JUMP JUMPDEST PUSH1 0x40 MLOAD PUSH2 0x110 SWAP2 SWAP1 PUSH2 0xAD0 JUMP JUMPDEST PUSH1 0x40 MLOAD DUP1 SWAP2 SUB SWAP1 RETURN JUMPDEST PUSH2 0x121 PUSH2 0x30F JUMP JUMPDEST STOP JUMPDEST CALLVALUE DUP1 ISZERO PUSH2 0x12E JUMPI PUSH0 DUP1 REVERT JUMPDEST POP PUSH2 0x149 PUSH1 0x4 DUP1 CALLDATASIZE SUB DUP2 ADD SWAP1 PUSH2 0x144 SWAP2 SWAP1 PUSH2 0xB17 JUMP JUMPDEST PUSH2 0x7C3 JUMP JUMPDEST PUSH1 0x40 MLOAD PUSH2 0x156 SWAP2 SWAP1 PUSH2 0xB5A JUMP JUMPDEST PUSH1 0x40 MLOAD DUP1 SWAP2 SUB SWAP1 RETURN JUMPDEST CALLVALUE DUP1 ISZERO PUSH2 0x16A JUMPI PUSH0 DUP1 REVERT JUMPDEST POP PUSH2 0x173 PUSH2 0x7D8 JUMP JUMPDEST PUSH1 0x40 MLOAD PUSH2 0x180 SWAP2 SWAP1 PUSH2 0xB5A JUMP JUMPDEST PUSH1 0x40 MLOAD DUP1 SWAP2 SUB SWAP1 RETURN JUMPDEST CALLVALUE DUP1 ISZERO PUSH2 0x194 JUMPI PUSH0 DUP1 REVERT JUMPDEST POP PUSH2 0x19D PUSH2 0x7DE JUMP JUMPDEST PUSH1 0x40 MLOAD PUSH2 0x1AB SWAP3 SWAP2 SWAP1 PUSH2 0xB73 JUMP JUMPDEST PUSH1 0x40 MLOAD DUP1 SWAP2 SUB SWAP1 RETURN JUMPDEST CALLVALUE DUP1 ISZERO PUSH2 0x1BF JUMPI PUSH0 DUP1 REVERT JUMPDEST POP PUSH2 0x1C8 PUSH2 0x861 JUMP JUMPDEST STOP JUMPDEST CALLVALUE DUP1 ISZERO PUSH2 0x1D5 JUMPI PUSH0 DUP1 REVERT JUMPDEST POP PUSH2 0x1F0 PUSH1 0x4 DUP1 CALLDATASIZE SUB DUP2 ADD SWAP1 PUSH2 0x1EB SWAP2 SWAP1 PUSH2 0xBC4 JUMP JUMPDEST PUSH2 0x88E JUMP JUMPDEST PUSH1 0x40 MLOAD PUSH2 0x1FE SWAP3 SWAP2 SWAP1 PUSH2 0xB73 JUMP JUMPDEST PUSH1 0x40 MLOAD DUP1 SWAP2 SUB SWAP1 RETURN JUMPDEST CALLVALUE DUP1 ISZERO PUSH2 0x212 JUMPI PUSH0 DUP1 REVERT JUMPDEST POP PUSH2 0x21B PUSH2 0x8DC JUMP JUMPDEST PUSH1 0x40 MLOAD PUSH2 0x229 SWAP3 SWAP2 SWAP1 PUSH2 0xB73 JUMP JUMPDEST PUSH1 0x40 MLOAD DUP1 SWAP2 SUB SWAP1 RETURN JUMPDEST CALLVALUE DUP1 ISZERO PUSH2 0x23D JUMPI PUSH0 DUP1 REVERT JUMPDEST POP PUSH2 0x246 PUSH2 0x90C JUMP JUMPDEST PUSH1 0x40 MLOAD PUSH2 0x253 SWAP2 SWAP1 PUSH2 0xCE2 JUMP JUMPDEST PUSH1 0x40 MLOAD DUP1 SWAP2 SUB SWAP1 RETURN JUMPDEST CALLVALUE DUP1 ISZERO PUSH2 0x267 JUMPI PUSH0 DUP1 REVERT JUMPDEST POP PUSH2 0x270 PUSH2 0x9C6 JUMP JUMPDEST PUSH1 0x40 MLOAD PUSH2 0x27D SWAP2 SWAP1 PUSH2 0xB5A JUMP JUMPDEST PUSH1 0x40 MLOAD DUP1 SWAP2 SUB SWAP1 RETURN JUMPDEST CALLVALUE DUP1 ISZERO PUSH2 0x291 JUMPI PUSH0 DUP1 REVERT JUMPDEST POP PUSH2 0x29A PUSH2 0x9CC JUMP JUMPDEST PUSH1 0x40 MLOAD PUSH2 0x2A7 SWAP2 SWAP1 PUSH2 0xB5A JUMP JUMPDEST PUSH1 0x40 MLOAD DUP1 SWAP2 SUB SWAP1 RETURN JUMPDEST CALLVALUE DUP1 ISZERO PUSH2 0x2BB JUMPI PUSH0 DUP1 REVERT JUMPDEST POP PUSH2 0x2C4 PUSH2 0x9D2 JUMP JUMPDEST PUSH1 0x40 MLOAD PUSH2 0x2D1 SWAP2 SWAP1 PUSH2 0xB5A JUMP JUMPDEST PUSH1 0x40 MLOAD DUP1 SWAP2 SUB SWAP1 RETURN JUMPDEST PUSH1 0x4 PUSH0 SWAP1 SLOAD SWAP1 PUSH2 0x100 EXP SWAP1 DIV PUSH1 0xFF AND DUP2 JUMP JUMPDEST PUSH0 DUP1 SLOAD SWAP1 PUSH2 0x100 EXP SWAP1 DIV PUSH20 0xFFFFFFFFFFFFFFFFFFFFFFFFFFFFFFFFFFFFFFFF AND DUP2 JUMP JUMPDEST PUSH1 0x4 PUSH0 SWAP1 SLOAD SWAP1 PUSH2 0x100 EXP SWAP1 DIV PUSH1 0xFF AND DUP1 ISZERO PUSH2 0x32B JUMPI POP PUSH1 0x1 SLOAD TIMESTAMP LT JUMPDEST PUSH2 0x36A JUMPI PUSH1 0x40 MLOAD PUSH32 0x8C379A000000000000000000000000000000000000000000000000000000000 DUP2 MSTORE PUSH1 0x4 ADD PUSH2 0x361 SWAP1 PUSH2 0xD5C JUMP JUMPDEST PUSH1 0x40 MLOAD DUP1 SWAP2 SUB SWAP1 REVERT JUMPDEST PUSH0 PUSH1 0x64 PUSH1 0x3 SLOAD PUSH1 0x6 PUSH1 0x1 ADD SLOAD PUSH2 0x380 SWAP2 SWAP1 PUSH2 0xDA7 JUMP JUMPDEST PUSH2 0x38A SWAP2 SWAP1 PUSH2 0xE15 JUMP JUMPDEST PUSH1 0x6 PUSH1 0x1 ADD SLOAD PUSH2 0x39A SWAP2 SWAP1 PUSH2 0xE45 JUMP JUMPDEST SWAP1 POP DUP1 CALLVALUE LT ISZERO PUSH2 0x3DF JUMPI PUSH1 0x40 MLOAD PUSH32 0x8C379A000000000000000000000000000000000000000000000000000000000 DUP2 MSTORE PUSH1 0x4 ADD PUSH2 0x3D6 SWAP1 PUSH2 0xEE8 JUMP JUMPDEST PUSH1 0x40 MLOAD DUP1 SWAP2 SUB SWAP1 REVERT JUMPDEST PUSH0 DUP1 SLOAD SWAP1 PUSH2 0x100 EXP SWAP1 DIV PUSH20 0xFFFFFFFFFFFFFFFFFFFFFFFFFFFFFFFFFFFFFFFF AND PUSH20 0xFFFFFFFFFFFFFFFFFFFFFFFFFFFFFFFFFFFFFFFF AND PUSH1 0x6 PUSH0 ADD PUSH0 SWAP1 SLOAD SWAP1 PUSH2 0x100 EXP SWAP1 DIV PUSH20 0xFFFFFFFFFFFFFFFFFFFFFFFFFFFFFFFFFFFFFFFF AND PUSH20 0xFFFFFFFFFFFFFFFFFFFFFFFFFFFFFFFFFFFFFFFF AND EQ PUSH2 0x609 JUMPI PUSH0 PUSH1 0x64 PUSH1 0x2 PUSH1 0x8 PUSH0 PUSH1 0x6 PUSH0 ADD PUSH0 SWAP1 SLOAD SWAP1 PUSH2 0x100 EXP SWAP1 DIV PUSH20 0xFFFFFFFFFFFFFFFFFFFFFFFFFFFFFFFFFFFFFFFF AND PUSH20 0xFFFFFFFFFFFFFFFFFFFFFFFFFFFFFFFFFFFFFFFF AND PUSH20 0xFFFFFFFFFFFFFFFFFFFFFFFFFFFFFFFFFFFFFFFF AND DUP2 MSTORE PUSH1 0x20 ADD SWAP1 DUP2 MSTORE PUSH1 0x20 ADD PUSH0 KECCAK256 SLOAD PUSH2 0x4C4 SWAP2 SWAP1 PUSH2 0xDA7 JUMP JUMPDEST PUSH2 0x4CE SWAP2 SWAP1 PUSH2 0xE15 JUMP JUMPDEST PUSH1 0x8 PUSH0 PUSH1 0x6 PUSH0 ADD PUSH0 SWAP1 SLOAD SWAP1 PUSH2 0x100 EXP SWAP1 DIV PUSH20 0xFFFFFFFFFFFFFFFFFFFFFFFFFFFFFFFFFFFFFFFF AND PUSH20 0xFFFFFFFFFFFFFFFFFFFFFFFFFFFFFFFFFFFFFFFF AND PUSH20 0xFFFFFFFFFFFFFFFFFFFFFFFFFFFFFFFFFFFFFFFF AND DUP2 MSTORE PUSH1 0x20 ADD SWAP1 DUP2 MSTORE PUSH1 0x20 ADD PUSH0 KECCAK256 SLOAD PUSH2 0x539 SWAP2 SWAP1 PUSH2 0xF06 JUMP JUMPDEST SWAP1 POP PUSH1 0x6 PUSH0 ADD PUSH0 SWAP1 SLOAD SWAP1 PUSH2 0x100 EXP SWAP1 DIV PUSH20 0xFFFFFFFFFFFFFFFFFFFFFFFFFFFFFFFFFFFFFFFF AND PUSH20 0xFFFFFFFFFFFFFFFFFFFFFFFFFFFFFFFFFFFFFFFF AND PUSH2 0x8FC DUP3 SWAP1 DUP2 ISZERO MUL SWAP1 PUSH1 0x40 MLOAD PUSH0 PUSH1 0x40 MLOAD DUP1 DUP4 SUB DUP2 DUP6 DUP9 DUP9 CALL SWAP4 POP POP POP POP ISZERO DUP1 ISZERO PUSH2 0x5A1 JUMPI RETURNDATASIZE PUSH0 DUP1 RETURNDATACOPY RETURNDATASIZE PUSH0 REVERT JUMPDEST POP PUSH0 PUSH1 0x8 PUSH0 PUSH1 0x6 PUSH0 ADD PUSH0 SWAP1 SLOAD SWAP1 PUSH2 0x100 EXP SWAP1 DIV PUSH20 0xFFFFFFFFFFFFFFFFFFFFFFFFFFFFFFFFFFFFFFFF AND PUSH20 0xFFFFFFFFFFFFFFFFFFFFFFFFFFFFFFFFFFFFFFFF AND PUSH20 0xFFFFFFFFFFFFFFFFFFFFFFFFFFFFFFFFFFFFFFFF AND DUP2 MSTORE PUSH1 0x20 ADD SWAP1 DUP2 MSTORE PUSH1 0x20 ADD PUSH0 KECCAK256 DUP2 SWAP1 SSTORE POP POP JUMPDEST PUSH1 0x40 MLOAD DUP1 PUSH1 0x40 ADD PUSH1 0x40 MSTORE DUP1 CALLER PUSH20 0xFFFFFFFFFFFFFFFFFFFFFFFFFFFFFFFFFFFFFFFF AND DUP2 MSTORE PUSH1 0x20 ADD CALLVALUE DUP2 MSTORE POP PUSH1 0x6 PUSH0 DUP3 ADD MLOAD DUP2 PUSH0 ADD PUSH0 PUSH2 0x100 EXP DUP2 SLOAD DUP2 PUSH20 0xFFFFFFFFFFFFFFFFFFFFFFFFFFFFFFFFFFFFFFFF MUL NOT AND SWAP1 DUP4 PUSH20 0xFFFFFFFFFFFFFFFFFFFFFFFFFFFFFFFFFFFFFFFF AND MUL OR SWAP1 SSTORE POP PUSH1 0x20 DUP3 ADD MLOAD DUP2 PUSH1 0x1 ADD SSTORE SWAP1 POP POP CALLVALUE PUSH1 0x8 PUSH0 CALLER PUSH20 0xFFFFFFFFFFFFFFFFFFFFFFFFFFFFFFFFFFFFFFFF AND PUSH20 0xFFFFFFFFFFFFFFFFFFFFFFFFFFFFFFFFFFFFFFFF AND DUP2 MSTORE PUSH1 0x20 ADD SWAP1 DUP2 MSTORE PUSH1 0x20 ADD PUSH0 KECCAK256 PUSH0 DUP3 DUP3 SLOAD PUSH2 0x6D3 SWAP2 SWAP1 PUSH2 0xE45 JUMP JUMPDEST SWAP3 POP POP DUP2 SWAP1 SSTORE POP PUSH1 0x2 SLOAD TIMESTAMP PUSH2 0x6E8 SWAP2 SWAP1 PUSH2 0xE45 JUMP JUMPDEST PUSH1 0x1 DUP2 SWAP1 SSTORE POP PUSH1 0x9 PUSH1 0x6 SWAP1 DUP1 PUSH1 0x1 DUP2 SLOAD ADD DUP1 DUP3 SSTORE DUP1 SWAP2 POP POP PUSH1 0x1 SWAP1 SUB SWAP1 PUSH0 MSTORE PUSH1 0x20 PUSH0 KECCAK256 SWAP1 PUSH1 0x2 MUL ADD PUSH0 SWAP1 SWAP2 SWAP1 SWAP2 SWAP1 SWAP2 POP PUSH0 DUP3 ADD PUSH0 SWAP1 SLOAD SWAP1 PUSH2 0x100 EXP SWAP1 DIV PUSH20 0xFFFFFFFFFFFFFFFFFFFFFFFFFFFFFFFFFFFFFFFF AND DUP2 PUSH0 ADD PUSH0 PUSH2 0x100 EXP DUP2 SLOAD DUP2 PUSH20 0xFFFFFFFFFFFFFFFFFFFFFFFFFFFFFFFFFFFFFFFF MUL NOT AND SWAP1 DUP4 PUSH20 0xFFFFFFFFFFFFFFFFFFFFFFFFFFFFFFFFFFFFFFFF AND MUL OR SWAP1 SSTORE POP PUSH1 0x1 DUP3 ADD SLOAD DUP2 PUSH1 0x1 ADD SSTORE POP POP PUSH32 0x155D469211F46E4D9AE974606F0878F9AACC6198BA30A1E6B9C8CF5627352FB5 CALLER CALLVALUE PUSH1 0x40 MLOAD PUSH2 0x7B8 SWAP3 SWAP2 SWAP1 PUSH2 0xB73 JUMP JUMPDEST PUSH1 0x40 MLOAD DUP1 SWAP2 SUB SWAP1 LOG1 POP JUMP JUMPDEST PUSH1 0x8 PUSH1 0x20 MSTORE DUP1 PUSH0 MSTORE PUSH1 0x40 PUSH0 KECCAK256 PUSH0 SWAP2 POP SWAP1 POP SLOAD DUP2 JUMP JUMPDEST PUSH1 0x5 SLOAD DUP2 JUMP JUMPDEST PUSH0 DUP1 PUSH1 0x4 PUSH0 SWAP1 SLOAD SWAP1 PUSH2 0x100 EXP SWAP1 DIV PUSH1 0xFF AND ISZERO PUSH2 0x82F JUMPI PUSH1 0x40 MLOAD PUSH32 0x8C379A000000000000000000000000000000000000000000000000000000000 DUP2 MSTORE PUSH1 0x4 ADD PUSH2 0x826 SWAP1 PUSH2 0xF83 JUMP JUMPDEST PUSH1 0x40 MLOAD DUP1 SWAP2 SUB SWAP1 REVERT JUMPDEST PUSH1 0x6 PUSH0 ADD PUSH0 SWAP1 SLOAD SWAP1 PUSH2 0x100 EXP SWAP1 DIV PUSH20 0xFFFFFFFFFFFFFFFFFFFFFFFFFFFFFFFFFFFFFFFF AND SWAP2 POP PUSH1 0x6 PUSH1 0x1 ADD SLOAD SWAP1 POP SWAP1 SWAP2 JUMP JUMPDEST PUSH1 0x1 SLOAD TIMESTAMP LT ISZERO DUP1 ISZERO PUSH2 0x87E JUMPI POP PUSH1 0x4 PUSH0 SWAP1 SLOAD SWAP1 PUSH2 0x100 EXP SWAP1 DIV PUSH1 0xFF AND JUMPDEST ISZERO PUSH2 0x88C JUMPI PUSH2 0x88B PUSH2 0x9D8 JUMP JUMPDEST JUMPDEST JUMP JUMPDEST PUSH1 0x9 DUP2 DUP2 SLOAD DUP2 LT PUSH2 0x89D JUMPI PUSH0 DUP1 REVERT JUMPDEST SWAP1 PUSH0 MSTORE PUSH1 0x20 PUSH0 KECCAK256 SWAP1 PUSH1 0x2 MUL ADD PUSH0 SWAP2 POP SWAP1 POP DUP1 PUSH0 ADD PUSH0 SWAP1 SLOAD SWAP1 PUSH2 0x100 EXP SWAP1 DIV PUSH20 0xFFFFFFFFFFFFFFFFFFFFFFFFFFFFFFFFFFFFFFFF AND SWAP1 DUP1 PUSH1 0x1 ADD SLOAD SWAP1 POP DUP3 JUMP JUMPDEST PUSH1 0x6 DUP1 PUSH0 ADD PUSH0 SWAP1 SLOAD SWAP1 PUSH2 0x100 EXP SWAP1 DIV PUSH20 0xFFFFFFFFFFFFFFFFFFFFFFFFFFFFFFFFFFFFFFFF AND SWAP1 DUP1 PUSH1 0x1 ADD SLOAD SWAP1 POP DUP3 JUMP JUMPDEST PUSH1 0x60 PUSH1 0x9 DUP1 SLOAD DUP1 PUSH1 0x20 MUL PUSH1 0x20 ADD PUSH1 0x40 MLOAD SWAP1 DUP2 ADD PUSH1 0x40 MSTORE DUP1 SWAP3 SWAP2 SWAP1 DUP2 DUP2 MSTORE PUSH1 0x20 ADD PUSH0 SWAP1 JUMPDEST DUP3 DUP3 LT ISZERO PUSH2 0x9BD JUMPI DUP4 DUP3 SWAP1 PUSH0 MSTORE PUSH1 0x20 PUSH0 KECCAK256 SWAP1 PUSH1 0x2 MUL ADD PUSH1 0x40 MLOAD DUP1 PUSH1 0x40 ADD PUSH1 0x40 MSTORE SWAP1 DUP2 PUSH0 DUP3 ADD PUSH0 SWAP1 SLOAD SWAP1 PUSH2 0x100 EXP SWAP1 DIV PUSH20 0xFFFFFFFFFFFFFFFFFFFFFFFFFFFFFFFFFFFFFFFF AND PUSH20 0xFFFFFFFFFFFFFFFFFFFFFFFFFFFFFFFFFFFFFFFF AND PUSH20 0xFFFFFFFFFFFFFFFFFFFFFFFFFFFFFFFFFFFFFFFF AND DUP2 MSTORE PUSH1 0x20 ADD PUSH1 0x1 DUP3 ADD SLOAD DUP2 MSTORE POP POP DUP2 MSTORE PUSH1 0x20 ADD SWAP1 PUSH1 0x1 ADD SWAP1 PUSH2 0x92F JUMP JUMPDEST POP POP POP POP SWAP1 POP SWAP1 JUMP JUMPDEST PUSH1 0x1 SLOAD DUP2 JUMP JUMPDEST PUSH1 0x3 SLOAD DUP2 JUMP JUMPDEST PUSH1 0x2 SLOAD DUP2 JUMP JUMPDEST PUSH0 PUSH1 0x4 PUSH0 PUSH2 0x100 EXP DUP2 SLOAD DUP2 PUSH1 0xFF MUL NOT AND SWAP1 DUP4 ISZERO ISZERO MUL OR SWAP1 SSTORE POP PUSH0 PUSH1 0x6 PUSH0 ADD PUSH0 SWAP1 SLOAD SWAP1 PUSH2 0x100 EXP SWAP1 DIV PUSH20 0xFFFFFFFFFFFFFFFFFFFFFFFFFFFFFFFFFFFFFFFF AND SWAP1 POP PUSH0 PUSH1 0x6 PUSH1 0x1 ADD SLOAD SWAP1 POP PUSH32 0xA3A65B403BDAE88EB037F4ECC1D619F436FC3EF6BCBBEE3787757164E82883F2 DUP3 DUP3 PUSH1 0x40 MLOAD PUSH2 0xA52 SWAP3 SWAP2 SWAP1 PUSH2 0xB73 JUMP JUMPDEST PUSH1 0x40 MLOAD DUP1 SWAP2 SUB SWAP1 LOG1 POP POP JUMP JUMPDEST PUSH0 DUP2 ISZERO ISZERO SWAP1 POP SWAP2 SWAP1 POP JUMP JUMPDEST PUSH2 0xA72 DUP2 PUSH2 0xA5E JUMP JUMPDEST DUP3 MSTORE POP POP JUMP JUMPDEST PUSH0 PUSH1 0x20 DUP3 ADD SWAP1 POP PUSH2 0xA8B PUSH0 DUP4 ADD DUP5 PUSH2 0xA69 JUMP JUMPDEST SWAP3 SWAP2 POP POP JUMP JUMPDEST PUSH0 PUSH20 0xFFFFFFFFFFFFFFFFFFFFFFFFFFFFFFFFFFFFFFFF DUP3 AND SWAP1 POP SWAP2 SWAP1 POP JUMP JUMPDEST PUSH0 PUSH2 0xABA DUP3 PUSH2 0xA91 JUMP JUMPDEST SWAP1 POP SWAP2 SWAP1 POP JUMP JUMPDEST PUSH2 0xACA DUP2 PUSH2 0xAB0 JUMP JUMPDEST DUP3 MSTORE POP POP JUMP JUMPDEST PUSH0 PUSH1 0x20 DUP3 ADD SWAP1 POP PUSH2 0xAE3 PUSH0 DUP4 ADD DUP5 PUSH2 0xAC1 JUMP JUMPDEST SWAP3 SWAP2 POP POP JUMP JUMPDEST PUSH0 DUP1 REVERT JUMPDEST PUSH2 0xAF6 DUP2 PUSH2 0xAB0 JUMP JUMPDEST DUP2 EQ PUSH2 0xB00 JUMPI PUSH0 DUP1 REVERT JUMPDEST POP JUMP JUMPDEST PUSH0 DUP2 CALLDATALOAD SWAP1 POP PUSH2 0xB11 DUP2 PUSH2 0xAED JUMP JUMPDEST SWAP3 SWAP2 POP POP JUMP JUMPDEST PUSH0 PUSH1 0x20 DUP3 DUP5 SUB SLT ISZERO PUSH2 0xB2C JUMPI PUSH2 0xB2B PUSH2 0xAE9 JUMP JUMPDEST JUMPDEST PUSH0 PUSH2 0xB39 DUP5 DUP3 DUP6 ADD PUSH2 0xB03 JUMP JUMPDEST SWAP2 POP POP SWAP3 SWAP2 POP POP JUMP JUMPDEST PUSH0 DUP2 SWAP1 POP SWAP2 SWAP1 POP JUMP JUMPDEST PUSH2 0xB54 DUP2 PUSH2 0xB42 JUMP JUMPDEST DUP3 MSTORE POP POP JUMP JUMPDEST PUSH0 PUSH1 0x20 DUP3 ADD SWAP1 POP PUSH2 0xB6D PUSH0 DUP4 ADD DUP5 PUSH2 0xB4B JUMP JUMPDEST SWAP3 SWAP2 POP POP JUMP JUMPDEST PUSH0 PUSH1 0x40 DUP3 ADD SWAP1 POP PUSH2 0xB86 PUSH0 DUP4 ADD DUP6 PUSH2 0xAC1 JUMP JUMPDEST PUSH2 0xB93 PUSH1 0x20 DUP4 ADD DUP5 PUSH2 0xB4B JUMP JUMPDEST SWAP4 SWAP3 POP POP POP JUMP JUMPDEST PUSH2 0xBA3 DUP2 PUSH2 0xB42 JUMP JUMPDEST DUP2 EQ PUSH2 0xBAD JUMPI PUSH0 DUP1 REVERT JUMPDEST POP JUMP JUMPDEST PUSH0 DUP2 CALLDATALOAD SWAP1 POP PUSH2 0xBBE DUP2 PUSH2 0xB9A JUMP JUMPDEST SWAP3 SWAP2 POP POP JUMP JUMPDEST PUSH0 PUSH1 0x20 DUP3 DUP5 SUB SLT ISZERO PUSH2 0xBD9 JUMPI PUSH2 0xBD8 PUSH2 0xAE9 JUMP JUMPDEST JUMPDEST PUSH0 PUSH2 0xBE6 DUP5 DUP3 DUP6 ADD PUSH2 0xBB0 JUMP JUMPDEST SWAP2 POP POP SWAP3 SWAP2 POP POP JUMP JUMPDEST PUSH0 DUP2 MLOAD SWAP1 POP SWAP2 SWAP1 POP JUMP JUMPDEST PUSH0 DUP3 DUP3 MSTORE PUSH1 0x20 DUP3 ADD SWAP1 POP SWAP3 SWAP2 POP POP JUMP JUMPDEST PUSH0 DUP2 SWAP1 POP PUSH1 0x20 DUP3 ADD SWAP1 POP SWAP2 SWAP1 POP JUMP JUMPDEST PUSH2 0xC21 DUP2 PUSH2 0xAB0 JUMP JUMPDEST DUP3 MSTORE POP POP JUMP JUMPDEST PUSH2 0xC30 DUP2 PUSH2 0xB42 JUMP JUMPDEST DUP3 MSTORE POP POP JUMP JUMPDEST PUSH1 0x40 DUP3 ADD PUSH0 DUP3 ADD MLOAD PUSH2 0xC4A PUSH0 DUP6 ADD DUP3 PUSH2 0xC18 JUMP JUMPDEST POP PUSH1 0x20 DUP3 ADD MLOAD PUSH2 0xC5D PUSH1 0x20 DUP6 ADD DUP3 PUSH2 0xC27 JUMP JUMPDEST POP POP POP POP JUMP JUMPDEST PUSH0 PUSH2 0xC6E DUP4 DUP4 PUSH2 0xC36 JUMP JUMPDEST PUSH1 0x40 DUP4 ADD SWAP1 POP SWAP3 SWAP2 POP POP JUMP JUMPDEST PUSH0 PUSH1 0x20 DUP3 ADD SWAP1 POP SWAP2 SWAP1 POP JUMP JUMPDEST PUSH0 PUSH2 0xC90 DUP3 PUSH2 0xBEF JUMP JUMPDEST PUSH2 0xC9A DUP2 DUP6 PUSH2 0xBF9 JUMP JUMPDEST SWAP4 POP PUSH2 0xCA5 DUP4 PUSH2 0xC09 JUMP JUMPDEST DUP1 PUSH0 JUMPDEST DUP4 DUP2 LT ISZERO PUSH2 0xCD5 JUMPI DUP2 MLOAD PUSH2 0xCBC DUP9 DUP3 PUSH2 0xC63 JUMP JUMPDEST SWAP8 POP PUSH2 0xCC7 DUP4 PUSH2 0xC7A JUMP JUMPDEST SWAP3 POP POP PUSH1 0x1 DUP2 ADD SWAP1 POP PUSH2 0xCA8 JUMP JUMPDEST POP DUP6 SWAP4 POP POP POP POP SWAP3 SWAP2 POP POP JUMP JUMPDEST PUSH0 PUSH1 0x20 DUP3 ADD SWAP1 POP DUP2 DUP2 SUB PUSH0 DUP4 ADD MSTORE PUSH2 0xCFA DUP2 DUP5 PUSH2 0xC86 JUMP JUMPDEST SWAP1 POP SWAP3 SWAP2 POP POP JUMP JUMPDEST PUSH0 DUP3 DUP3 MSTORE PUSH1 0x20 DUP3 ADD SWAP1 POP SWAP3 SWAP2 POP POP JUMP JUMPDEST PUSH32 0x4C6120737562617374612079612068612066696E616C697A61646F0000000000 PUSH0 DUP3 ADD MSTORE POP JUMP JUMPDEST PUSH0 PUSH2 0xD46 PUSH1 0x1B DUP4 PUSH2 0xD02 JUMP JUMPDEST SWAP2 POP PUSH2 0xD51 DUP3 PUSH2 0xD12 JUMP JUMPDEST PUSH1 0x20 DUP3 ADD SWAP1 POP SWAP2 SWAP1 POP JUMP JUMPDEST PUSH0 PUSH1 0x20 DUP3 ADD SWAP1 POP DUP2 DUP2 SUB PUSH0 DUP4 ADD MSTORE PUSH2 0xD73 DUP2 PUSH2 0xD3A JUMP JUMPDEST SWAP1 POP SWAP2 SWAP1 POP JUMP JUMPDEST PUSH32 0x4E487B7100000000000000000000000000000000000000000000000000000000 PUSH0 MSTORE PUSH1 0x11 PUSH1 0x4 MSTORE PUSH1 0x24 PUSH0 REVERT JUMPDEST PUSH0 PUSH2 0xDB1 DUP3 PUSH2 0xB42 JUMP JUMPDEST SWAP2 POP PUSH2 0xDBC DUP4 PUSH2 0xB42 JUMP JUMPDEST SWAP3 POP DUP3 DUP3 MUL PUSH2 0xDCA DUP2 PUSH2 0xB42 JUMP JUMPDEST SWAP2 POP DUP3 DUP3 DIV DUP5 EQ DUP4 ISZERO OR PUSH2 0xDE1 JUMPI PUSH2 0xDE0 PUSH2 0xD7A JUMP JUMPDEST JUMPDEST POP SWAP3 SWAP2 POP POP JUMP JUMPDEST PUSH32 0x4E487B7100000000000000000000000000000000000000000000000000000000 PUSH0 MSTORE PUSH1 0x12 PUSH1 0x4 MSTORE PUSH1 0x24 PUSH0 REVERT JUMPDEST PUSH0 PUSH2 0xE1F DUP3 PUSH2 0xB42 JUMP JUMPDEST SWAP2 POP PUSH2 0xE2A DUP4 PUSH2 0xB42 JUMP JUMPDEST SWAP3 POP DUP3 PUSH2 0xE3A JUMPI PUSH2 0xE39 PUSH2 0xDE8 JUMP JUMPDEST JUMPDEST DUP3 DUP3 DIV SWAP1 POP SWAP3 SWAP2 POP POP JUMP JUMPDEST PUSH0 PUSH2 0xE4F DUP3 PUSH2 0xB42 JUMP JUMPDEST SWAP2 POP PUSH2 0xE5A DUP4 PUSH2 0xB42 JUMP JUMPDEST SWAP3 POP DUP3 DUP3 ADD SWAP1 POP DUP1 DUP3 GT ISZERO PUSH2 0xE72 JUMPI PUSH2 0xE71 PUSH2 0xD7A JUMP JUMPDEST JUMPDEST SWAP3 SWAP2 POP POP JUMP JUMPDEST PUSH32 0x4C61206F66657274612064656265207375706572617220656E20616C206D656E PUSH0 DUP3 ADD MSTORE PUSH32 0x6F7320756E203525206C61206F66657274612061637475616C00000000000000 PUSH1 0x20 DUP3 ADD MSTORE POP JUMP JUMPDEST PUSH0 PUSH2 0xED2 PUSH1 0x39 DUP4 PUSH2 0xD02 JUMP JUMPDEST SWAP2 POP PUSH2 0xEDD DUP3 PUSH2 0xE78 JUMP JUMPDEST PUSH1 0x40 DUP3 ADD SWAP1 POP SWAP2 SWAP1 POP JUMP JUMPDEST PUSH0 PUSH1 0x20 DUP3 ADD SWAP1 POP DUP2 DUP2 SUB PUSH0 DUP4 ADD MSTORE PUSH2 0xEFF DUP2 PUSH2 0xEC6 JUMP JUMPDEST SWAP1 POP SWAP2 SWAP1 POP JUMP JUMPDEST PUSH0 PUSH2 0xF10 DUP3 PUSH2 0xB42 JUMP JUMPDEST SWAP2 POP PUSH2 0xF1B DUP4 PUSH2 0xB42 JUMP JUMPDEST SWAP3 POP DUP3 DUP3 SUB SWAP1 POP DUP2 DUP2 GT ISZERO PUSH2 0xF33 JUMPI PUSH2 0xF32 PUSH2 0xD7A JUMP JUMPDEST JUMPDEST SWAP3 SWAP2 POP POP JUMP JUMPDEST PUSH32 0x4C6120737562617374612061756E206573746120616374697661000000000000 PUSH0 DUP3 ADD MSTORE POP JUMP JUMPDEST PUSH0 PUSH2 0xF6D PUSH1 0x1A DUP4 PUSH2 0xD02 JUMP JUMPDEST SWAP2 POP PUSH2 0xF78 DUP3 PUSH2 0xF39 JUMP JUMPDEST PUSH1 0x20 DUP3 ADD SWAP1 POP SWAP2 SWAP1 POP JUMP JUMPDEST PUSH0 PUSH1 0x20 DUP3 ADD SWAP1 POP DUP2 DUP2 SUB PUSH0 DUP4 ADD MSTORE PUSH2 0xF9A DUP2 PUSH2 0xF61 JUMP JUMPDEST SWAP1 POP SWAP2 SWAP1 POP JUMP INVALID LOG2 PUSH5 0x6970667358 0x22 SLT KECCAK256 DUP9 EQ 0xCC 0xD3 0xD7 SHR DUP9 0xE7 PUSH8 0xE23140B53092DFC SMOD 0x4B CODECOPY PUSH26 0xFF995B55B892241B5E93D664736F6C634300081A003300000000 "
				},
				"gasEstimates": {
					"creation": {
						"codeDepositCost": "811000",
						"executionCost": "infinite",
						"totalCost": "infinite"
					},
					"external": {
						"activa()": "2467",
						"depositos(address)": "2869",
						"duracionSubasta()": "2513",
						"historialOfertas(uint256)": "infinite",
						"mejorOferta()": "4799",
						"mostrarGanador()": "7005",
						"mostrarOfertas()": "infinite",
						"ofertaInicial()": "2514",
						"ofertar()": "infinite",
						"porcentajeIncremento()": "2491",
						"subastador()": "2528",
						"tiempoFinal()": "2469",
						"verificarFinalizacionSubasta()": "34607"
					},
					"internal": {
						"finalizarSubasta()": "infinite"
					}
				},
				"methodIdentifiers": {
					"activa()": "2c5e5471",
					"depositos(address)": "664e62b9",
					"duracionSubasta()": "d1d7e96c",
					"historialOfertas(uint256)": "9257a3db",
					"mejorOferta()": "acfc9f98",
					"mostrarGanador()": "753dcaeb",
					"mostrarOfertas()": "c442a99f",
					"ofertaInicial()": "71ea6d33",
					"ofertar()": "3ec059d7",
					"porcentajeIncremento()": "cc14e31f",
					"subastador()": "3dfa138d",
					"tiempoFinal()": "c63049f8",
					"verificarFinalizacionSubasta()": "8e3df72e"
				}
			},
			"storageLayout": {
				"storage": [
					{
						"astId": 3,
						"contract": "subasta4.sol:Subasta",
						"label": "subastador",
						"offset": 0,
						"slot": "0",
						"type": "t_address"
					},
					{
						"astId": 5,
						"contract": "subasta4.sol:Subasta",
						"label": "tiempoFinal",
						"offset": 0,
						"slot": "1",
						"type": "t_uint256"
					},
					{
						"astId": 8,
						"contract": "subasta4.sol:Subasta",
						"label": "duracionSubasta",
						"offset": 0,
						"slot": "2",
						"type": "t_uint256"
					},
					{
						"astId": 11,
						"contract": "subasta4.sol:Subasta",
						"label": "porcentajeIncremento",
						"offset": 0,
						"slot": "3",
						"type": "t_uint256"
					},
					{
						"astId": 14,
						"contract": "subasta4.sol:Subasta",
						"label": "activa",
						"offset": 0,
						"slot": "4",
						"type": "t_bool"
					},
					{
						"astId": 17,
						"contract": "subasta4.sol:Subasta",
						"label": "ofertaInicial",
						"offset": 0,
						"slot": "5",
						"type": "t_uint256"
					},
					{
						"astId": 25,
						"contract": "subasta4.sol:Subasta",
						"label": "mejorOferta",
						"offset": 0,
						"slot": "6",
						"type": "t_struct(Oferta)22_storage"
					},
					{
						"astId": 29,
						"contract": "subasta4.sol:Subasta",
						"label": "depositos",
						"offset": 0,
						"slot": "8",
						"type": "t_mapping(t_address,t_uint256)"
					},
					{
						"astId": 33,
						"contract": "subasta4.sol:Subasta",
						"label": "historialOfertas",
						"offset": 0,
						"slot": "9",
						"type": "t_array(t_struct(Oferta)22_storage)dyn_storage"
					}
				],
				"types": {
					"t_address": {
						"encoding": "inplace",
						"label": "address",
						"numberOfBytes": "20"
					},
					"t_array(t_struct(Oferta)22_storage)dyn_storage": {
						"base": "t_struct(Oferta)22_storage",
						"encoding": "dynamic_array",
						"label": "struct Subasta.Oferta[]",
						"numberOfBytes": "32"
					},
					"t_bool": {
						"encoding": "inplace",
						"label": "bool",
						"numberOfBytes": "1"
					},
					"t_mapping(t_address,t_uint256)": {
						"encoding": "mapping",
						"key": "t_address",
						"label": "mapping(address => uint256)",
						"numberOfBytes": "32",
						"value": "t_uint256"
					},
					"t_struct(Oferta)22_storage": {
						"encoding": "inplace",
						"label": "struct Subasta.Oferta",
						"members": [
							{
								"astId": 19,
								"contract": "subasta4.sol:Subasta",
								"label": "ofertante",
								"offset": 0,
								"slot": "0",
								"type": "t_address"
							},
							{
								"astId": 21,
								"contract": "subasta4.sol:Subasta",
								"label": "cantidad",
								"offset": 0,
								"slot": "1",
								"type": "t_uint256"
							}
						],
						"numberOfBytes": "64"
					},
					"t_uint256": {
						"encoding": "inplace",
						"label": "uint256",
						"numberOfBytes": "32"
					}
				}
			},
			"userdoc": {
				"kind": "user",
				"methods": {},
				"version": 1
			}
		}
	}
}