{
	"subasta6.sol": {
		"Subastasa": {
			"abi": [
				{
					"inputs": [
						{
							"internalType": "uint256",
							"name": "_ofertaInicial",
							"type": "uint256"
						}
					],
					"stateMutability": "nonpayable",
					"type": "constructor"
				},
				{
					"anonymous": false,
					"inputs": [
						{
							"indexed": true,
							"internalType": "address",
							"name": "ofertante",
							"type": "address"
						},
						{
							"indexed": false,
							"internalType": "uint256",
							"name": "monto",
							"type": "uint256"
						}
					],
					"name": "NuevaOferta",
					"type": "event"
				},
				{
					"anonymous": false,
					"inputs": [
						{
							"indexed": false,
							"internalType": "address",
							"name": "ganador",
							"type": "address"
						},
						{
							"indexed": false,
							"internalType": "uint256",
							"name": "montoGanador",
							"type": "uint256"
						}
					],
					"name": "SubastaFinalizada",
					"type": "event"
				},
				{
					"inputs": [],
					"name": "comisionGas",
					"outputs": [
						{
							"internalType": "uint256",
							"name": "",
							"type": "uint256"
						}
					],
					"stateMutability": "view",
					"type": "function"
				},
				{
					"inputs": [],
					"name": "devolverDepositos",
					"outputs": [],
					"stateMutability": "nonpayable",
					"type": "function"
				},
				{
					"inputs": [],
					"name": "finalizarSubasta",
					"outputs": [],
					"stateMutability": "nonpayable",
					"type": "function"
				},
				{
					"inputs": [],
					"name": "getOfertaMaxima",
					"outputs": [
						{
							"internalType": "uint256",
							"name": "",
							"type": "uint256"
						}
					],
					"stateMutability": "view",
					"type": "function"
				},
				{
					"inputs": [
						{
							"internalType": "uint256",
							"name": "",
							"type": "uint256"
						}
					],
					"name": "historialOfertas",
					"outputs": [
						{
							"internalType": "address",
							"name": "ofertante",
							"type": "address"
						},
						{
							"internalType": "uint256",
							"name": "monto",
							"type": "uint256"
						}
					],
					"stateMutability": "view",
					"type": "function"
				},
				{
					"inputs": [],
					"name": "mostrarOfertas",
					"outputs": [
						{
							"components": [
								{
									"internalType": "address",
									"name": "ofertante",
									"type": "address"
								},
								{
									"internalType": "uint256",
									"name": "monto",
									"type": "uint256"
								}
							],
							"internalType": "struct Subastasa.Oferta[]",
							"name": "",
							"type": "tuple[]"
						}
					],
					"stateMutability": "view",
					"type": "function"
				},
				{
					"inputs": [],
					"name": "ofertaMinima",
					"outputs": [
						{
							"internalType": "uint256",
							"name": "",
							"type": "uint256"
						}
					],
					"stateMutability": "view",
					"type": "function"
				},
				{
					"inputs": [],
					"name": "ofertar",
					"outputs": [],
					"stateMutability": "payable",
					"type": "function"
				},
				{
					"inputs": [],
					"name": "plazoExtension",
					"outputs": [
						{
							"internalType": "uint256",
							"name": "",
							"type": "uint256"
						}
					],
					"stateMutability": "view",
					"type": "function"
				},
				{
					"inputs": [],
					"name": "retirarParcial",
					"outputs": [],
					"stateMutability": "nonpayable",
					"type": "function"
				},
				{
					"inputs": [],
					"name": "subastaActiva",
					"outputs": [
						{
							"internalType": "bool",
							"name": "",
							"type": "bool"
						}
					],
					"stateMutability": "view",
					"type": "function"
				},
				{
					"inputs": [],
					"name": "subastador",
					"outputs": [
						{
							"internalType": "address",
							"name": "",
							"type": "address"
						}
					],
					"stateMutability": "view",
					"type": "function"
				},
				{
					"inputs": [],
					"name": "tiempoFinalizacion",
					"outputs": [
						{
							"internalType": "uint256",
							"name": "",
							"type": "uint256"
						}
					],
					"stateMutability": "view",
					"type": "function"
				}
			],
			"devdoc": {
				"kind": "dev",
				"methods": {},
				"version": 1
			},
			"evm": {
				"assembly": "    /* \"subasta6.sol\":60:3751  contract Subastasa {... */\n  mstore(0x40, 0x80)\n    /* \"subasta6.sol\":263:274  300 seconds */\n  0x012c\n    /* \"subasta6.sol\":234:274  uint public plazoExtension = 300 seconds */\n  0x02\n  sstore\n    /* \"subasta6.sol\":338:339  2 */\n  0x02\n    /* \"subasta6.sol\":312:339  uint public comisionGas = 2 */\n  0x04\n  sstore\n    /* \"subasta6.sol\":556:834  constructor(uint _ofertaInicial) {... */\n  callvalue\n  dup1\n  iszero\n  tag_1\n  jumpi\n  0x00\n  dup1\n  revert\ntag_1:\n  pop\n  mload(0x40)\n  sub(codesize, bytecodeSize)\n  dup1\n  bytecodeSize\n  dup4\n  codecopy\n  dup2\n  dup2\n  add\n  0x40\n  mstore\n  dup2\n  add\n  swap1\n  tag_2\n  swap2\n  swap1\n  tag_3\n  jump\t// in\ntag_2:\n    /* \"subasta6.sol\":613:623  msg.sender */\n  caller\n    /* \"subasta6.sol\":600:610  subastador */\n  0x00\n  dup1\n    /* \"subasta6.sol\":600:623  subastador = msg.sender */\n  0x0100\n  exp\n  dup2\n  sload\n  dup2\n  0xffffffffffffffffffffffffffffffffffffffff\n  mul\n  not\n  and\n  swap1\n  dup4\n  0xffffffffffffffffffffffffffffffffffffffff\n  and\n  mul\n  or\n  swap1\n  sstore\n  pop\n    /* \"subasta6.sol\":649:663  _ofertaInicial */\n  dup1\n    /* \"subasta6.sol\":634:646  ofertaMinima */\n  0x03\n    /* \"subasta6.sol\":634:663  ofertaMinima = _ofertaInicial */\n  dup2\n  swap1\n  sstore\n  pop\n    /* \"subasta6.sol\":690:694  true */\n  0x01\n    /* \"subasta6.sol\":674:687  subastaActiva */\n  0x06\n  0x00\n    /* \"subasta6.sol\":674:694  subastaActiva = true */\n  0x0100\n  exp\n  dup2\n  sload\n  dup2\n  0xff\n  mul\n  not\n  and\n  swap1\n  dup4\n  iszero\n  iszero\n  mul\n  or\n  swap1\n  sstore\n  pop\n    /* \"subasta6.sol\":744:758  plazoExtension */\n  sload(0x02)\n    /* \"subasta6.sol\":726:741  block.timestamp */\n  timestamp\n    /* \"subasta6.sol\":726:758  block.timestamp + plazoExtension */\n  tag_6\n  swap2\n  swap1\n  tag_7\n  jump\t// in\ntag_6:\n    /* \"subasta6.sol\":705:723  tiempoFinalizacion */\n  0x01\n    /* \"subasta6.sol\":705:758  tiempoFinalizacion = block.timestamp + plazoExtension */\n  dup2\n  swap1\n  sstore\n  pop\n    /* \"subasta6.sol\":769:785  historialOfertas */\n  0x05\n    /* \"subasta6.sol\":791:825  Oferta(msg.sender, _ofertaInicial) */\n  mload(0x40)\n  dup1\n  0x40\n  add\n  0x40\n  mstore\n  dup1\n    /* \"subasta6.sol\":798:808  msg.sender */\n  caller\n    /* \"subasta6.sol\":791:825  Oferta(msg.sender, _ofertaInicial) */\n  0xffffffffffffffffffffffffffffffffffffffff\n  and\n  dup2\n  mstore\n  0x20\n  add\n    /* \"subasta6.sol\":810:824  _ofertaInicial */\n  dup4\n    /* \"subasta6.sol\":791:825  Oferta(msg.sender, _ofertaInicial) */\n  dup2\n  mstore\n  pop\n    /* \"subasta6.sol\":769:826  historialOfertas.push(Oferta(msg.sender, _ofertaInicial)) */\n  swap1\n  dup1\n  0x01\n  dup2\n  sload\n  add\n  dup1\n  dup3\n  sstore\n  dup1\n  swap2\n  pop\n  pop\n  0x01\n  swap1\n  sub\n  swap1\n  0x00\n  mstore\n  keccak256(0x00, 0x20)\n  swap1\n  0x02\n  mul\n  add\n  0x00\n  swap1\n  swap2\n  swap1\n  swap2\n  swap1\n  swap2\n  pop\n  0x00\n  dup3\n  add\n  mload\n  dup2\n  0x00\n  add\n  exp(0x0100, 0x00)\n  dup2\n  sload\n  dup2\n  0xffffffffffffffffffffffffffffffffffffffff\n  mul\n  not\n  and\n  swap1\n  dup4\n  0xffffffffffffffffffffffffffffffffffffffff\n  and\n  mul\n  or\n  swap1\n  sstore\n  pop\n  0x20\n  dup3\n  add\n  mload\n  dup2\n  0x01\n  add\n  sstore\n  pop\n  pop\n    /* \"subasta6.sol\":556:834  constructor(uint _ofertaInicial) {... */\n  pop\n    /* \"subasta6.sol\":60:3751  contract Subastasa {... */\n  jump(tag_9)\n    /* \"#utility.yul\":88:205   */\ntag_11:\n    /* \"#utility.yul\":197:198   */\n  0x00\n    /* \"#utility.yul\":194:195   */\n  dup1\n    /* \"#utility.yul\":187:199   */\n  revert\n    /* \"#utility.yul\":334:411   */\ntag_13:\n    /* \"#utility.yul\":371:378   */\n  0x00\n    /* \"#utility.yul\":400:405   */\n  dup2\n    /* \"#utility.yul\":389:405   */\n  swap1\n  pop\n    /* \"#utility.yul\":334:411   */\n  swap2\n  swap1\n  pop\n  jump\t// out\n    /* \"#utility.yul\":417:539   */\ntag_14:\n    /* \"#utility.yul\":490:514   */\n  tag_23\n    /* \"#utility.yul\":508:513   */\n  dup2\n    /* \"#utility.yul\":490:514   */\n  tag_13\n  jump\t// in\ntag_23:\n    /* \"#utility.yul\":483:488   */\n  dup2\n    /* \"#utility.yul\":480:515   */\n  eq\n    /* \"#utility.yul\":470:533   */\n  tag_24\n  jumpi\n    /* \"#utility.yul\":529:530   */\n  0x00\n    /* \"#utility.yul\":526:527   */\n  dup1\n    /* \"#utility.yul\":519:531   */\n  revert\n    /* \"#utility.yul\":470:533   */\ntag_24:\n    /* \"#utility.yul\":417:539   */\n  pop\n  jump\t// out\n    /* \"#utility.yul\":545:688   */\ntag_15:\n    /* \"#utility.yul\":602:607   */\n  0x00\n    /* \"#utility.yul\":633:639   */\n  dup2\n    /* \"#utility.yul\":627:640   */\n  mload\n    /* \"#utility.yul\":618:640   */\n  swap1\n  pop\n    /* \"#utility.yul\":649:682   */\n  tag_26\n    /* \"#utility.yul\":676:681   */\n  dup2\n    /* \"#utility.yul\":649:682   */\n  tag_14\n  jump\t// in\ntag_26:\n    /* \"#utility.yul\":545:688   */\n  swap3\n  swap2\n  pop\n  pop\n  jump\t// out\n    /* \"#utility.yul\":694:1045   */\ntag_3:\n    /* \"#utility.yul\":764:770   */\n  0x00\n    /* \"#utility.yul\":813:815   */\n  0x20\n    /* \"#utility.yul\":801:810   */\n  dup3\n    /* \"#utility.yul\":792:799   */\n  dup5\n    /* \"#utility.yul\":788:811   */\n  sub\n    /* \"#utility.yul\":784:816   */\n  slt\n    /* \"#utility.yul\":781:900   */\n  iszero\n  tag_28\n  jumpi\n    /* \"#utility.yul\":819:898   */\n  tag_29\n  tag_11\n  jump\t// in\ntag_29:\n    /* \"#utility.yul\":781:900   */\ntag_28:\n    /* \"#utility.yul\":939:940   */\n  0x00\n    /* \"#utility.yul\":964:1028   */\n  tag_30\n    /* \"#utility.yul\":1020:1027   */\n  dup5\n    /* \"#utility.yul\":1011:1017   */\n  dup3\n    /* \"#utility.yul\":1000:1009   */\n  dup6\n    /* \"#utility.yul\":996:1018   */\n  add\n    /* \"#utility.yul\":964:1028   */\n  tag_15\n  jump\t// in\ntag_30:\n    /* \"#utility.yul\":954:1028   */\n  swap2\n  pop\n    /* \"#utility.yul\":910:1038   */\n  pop\n    /* \"#utility.yul\":694:1045   */\n  swap3\n  swap2\n  pop\n  pop\n  jump\t// out\n    /* \"#utility.yul\":1051:1231   */\ntag_16:\n    /* \"#utility.yul\":1099:1176   */\n  0x4e487b7100000000000000000000000000000000000000000000000000000000\n    /* \"#utility.yul\":1096:1097   */\n  0x00\n    /* \"#utility.yul\":1089:1177   */\n  mstore\n    /* \"#utility.yul\":1196:1200   */\n  0x11\n    /* \"#utility.yul\":1193:1194   */\n  0x04\n    /* \"#utility.yul\":1186:1201   */\n  mstore\n    /* \"#utility.yul\":1220:1224   */\n  0x24\n    /* \"#utility.yul\":1217:1218   */\n  0x00\n    /* \"#utility.yul\":1210:1225   */\n  revert\n    /* \"#utility.yul\":1237:1428   */\ntag_7:\n    /* \"#utility.yul\":1277:1280   */\n  0x00\n    /* \"#utility.yul\":1296:1316   */\n  tag_33\n    /* \"#utility.yul\":1314:1315   */\n  dup3\n    /* \"#utility.yul\":1296:1316   */\n  tag_13\n  jump\t// in\ntag_33:\n    /* \"#utility.yul\":1291:1316   */\n  swap2\n  pop\n    /* \"#utility.yul\":1330:1350   */\n  tag_34\n    /* \"#utility.yul\":1348:1349   */\n  dup4\n    /* \"#utility.yul\":1330:1350   */\n  tag_13\n  jump\t// in\ntag_34:\n    /* \"#utility.yul\":1325:1350   */\n  swap3\n  pop\n    /* \"#utility.yul\":1373:1374   */\n  dup3\n    /* \"#utility.yul\":1370:1371   */\n  dup3\n    /* \"#utility.yul\":1366:1375   */\n  add\n    /* \"#utility.yul\":1359:1375   */\n  swap1\n  pop\n    /* \"#utility.yul\":1394:1397   */\n  dup1\n    /* \"#utility.yul\":1391:1392   */\n  dup3\n    /* \"#utility.yul\":1388:1398   */\n  gt\n    /* \"#utility.yul\":1385:1421   */\n  iszero\n  tag_35\n  jumpi\n    /* \"#utility.yul\":1401:1419   */\n  tag_36\n  tag_16\n  jump\t// in\ntag_36:\n    /* \"#utility.yul\":1385:1421   */\ntag_35:\n    /* \"#utility.yul\":1237:1428   */\n  swap3\n  swap2\n  pop\n  pop\n  jump\t// out\n    /* \"subasta6.sol\":60:3751  contract Subastasa {... */\ntag_9:\n  dataSize(sub_0)\n  dup1\n  dataOffset(sub_0)\n  0x00\n  codecopy\n  0x00\n  return\nstop\n\nsub_0: assembly {\n        /* \"subasta6.sol\":60:3751  contract Subastasa {... */\n      mstore(0x40, 0x80)\n      jumpi(tag_1, lt(calldatasize, 0x04))\n      shr(0xe0, calldataload(0x00))\n      dup1\n      0x5dfe78f7\n      gt\n      tag_15\n      jumpi\n      dup1\n      0xc442a99f\n      gt\n      tag_16\n      jumpi\n      dup1\n      0xc442a99f\n      eq\n      tag_11\n      jumpi\n      dup1\n      0xdfea620f\n      eq\n      tag_12\n      jumpi\n      dup1\n      0xe0107077\n      eq\n      tag_13\n      jumpi\n      dup1\n      0xe2bf4f60\n      eq\n      tag_14\n      jumpi\n      jump(tag_1)\n    tag_16:\n      dup1\n      0x5dfe78f7\n      eq\n      tag_8\n      jumpi\n      dup1\n      0x9257a3db\n      eq\n      tag_9\n      jumpi\n      dup1\n      0xa07b6925\n      eq\n      tag_10\n      jumpi\n      jump(tag_1)\n    tag_15:\n      dup1\n      0x01d65bd3\n      eq\n      tag_2\n      jumpi\n      dup1\n      0x0851eac2\n      eq\n      tag_3\n      jumpi\n      dup1\n      0x0dfe4c35\n      eq\n      tag_4\n      jumpi\n      dup1\n      0x3dfa138d\n      eq\n      tag_5\n      jumpi\n      dup1\n      0x3ec059d7\n      eq\n      tag_6\n      jumpi\n      dup1\n      0x5298a3c4\n      eq\n      tag_7\n      jumpi\n    tag_1:\n      0x00\n      dup1\n      revert\n        /* \"subasta6.sol\":3095:3632  function retirarParcial() external soloMientrasActiva {... */\n    tag_2:\n      callvalue\n      dup1\n      iszero\n      tag_17\n      jumpi\n      0x00\n      dup1\n      revert\n    tag_17:\n      pop\n      tag_18\n      tag_19\n      jump\t// in\n    tag_18:\n      stop\n        /* \"subasta6.sol\":1740:2143  function finalizarSubasta() external soloSubastador {... */\n    tag_3:\n      callvalue\n      dup1\n      iszero\n      tag_20\n      jumpi\n      0x00\n      dup1\n      revert\n    tag_20:\n      pop\n      tag_21\n      tag_22\n      jump\t// in\n    tag_21:\n      stop\n        /* \"subasta6.sol\":197:227  uint public tiempoFinalizacion */\n    tag_4:\n      callvalue\n      dup1\n      iszero\n      tag_23\n      jumpi\n      0x00\n      dup1\n      revert\n    tag_23:\n      pop\n      tag_24\n      tag_25\n      jump\t// in\n    tag_24:\n      mload(0x40)\n      tag_26\n      swap2\n      swap1\n      tag_27\n      jump\t// in\n    tag_26:\n      mload(0x40)\n      dup1\n      swap2\n      sub\n      swap1\n      return\n        /* \"subasta6.sol\":165:190  address public subastador */\n    tag_5:\n      callvalue\n      dup1\n      iszero\n      tag_28\n      jumpi\n      0x00\n      dup1\n      revert\n    tag_28:\n      pop\n      tag_29\n      tag_30\n      jump\t// in\n    tag_29:\n      mload(0x40)\n      tag_31\n      swap2\n      swap1\n      tag_32\n      jump\t// in\n    tag_31:\n      mload(0x40)\n      dup1\n      swap2\n      sub\n      swap1\n      return\n        /* \"subasta6.sol\":1110:1593  function ofertar() external payable soloMientrasActiva {... */\n    tag_6:\n      tag_33\n      tag_34\n      jump\t// in\n    tag_33:\n      stop\n        /* \"subasta6.sol\":2151:3083  function devolverDepositos() external soloSubastador {... */\n    tag_7:\n      callvalue\n      dup1\n      iszero\n      tag_35\n      jumpi\n      0x00\n      dup1\n      revert\n    tag_35:\n      pop\n      tag_36\n      tag_37\n      jump\t// in\n    tag_36:\n      stop\n        /* \"subasta6.sol\":391:416  bool public subastaActiva */\n    tag_8:\n      callvalue\n      dup1\n      iszero\n      tag_38\n      jumpi\n      0x00\n      dup1\n      revert\n    tag_38:\n      pop\n      tag_39\n      tag_40\n      jump\t// in\n    tag_39:\n      mload(0x40)\n      tag_41\n      swap2\n      swap1\n      tag_42\n      jump\t// in\n    tag_41:\n      mload(0x40)\n      dup1\n      swap2\n      sub\n      swap1\n      return\n        /* \"subasta6.sol\":352:384  Oferta[] public historialOfertas */\n    tag_9:\n      callvalue\n      dup1\n      iszero\n      tag_43\n      jumpi\n      0x00\n      dup1\n      revert\n    tag_43:\n      pop\n      tag_44\n      0x04\n      dup1\n      calldatasize\n      sub\n      dup2\n      add\n      swap1\n      tag_45\n      swap2\n      swap1\n      tag_46\n      jump\t// in\n    tag_45:\n      tag_47\n      jump\t// in\n    tag_44:\n      mload(0x40)\n      tag_48\n      swap3\n      swap2\n      swap1\n      tag_49\n      jump\t// in\n    tag_48:\n      mload(0x40)\n      dup1\n      swap2\n      sub\n      swap1\n      return\n        /* \"subasta6.sol\":312:339  uint public comisionGas = 2 */\n    tag_10:\n      callvalue\n      dup1\n      iszero\n      tag_50\n      jumpi\n      0x00\n      dup1\n      revert\n    tag_50:\n      pop\n      tag_51\n      tag_52\n      jump\t// in\n    tag_51:\n      mload(0x40)\n      tag_53\n      swap2\n      swap1\n      tag_27\n      jump\t// in\n    tag_53:\n      mload(0x40)\n      dup1\n      swap2\n      sub\n      swap1\n      return\n        /* \"subasta6.sol\":3640:3748  function mostrarOfertas() external view returns (Oferta[] memory) {... */\n    tag_11:\n      callvalue\n      dup1\n      iszero\n      tag_54\n      jumpi\n      0x00\n      dup1\n      revert\n    tag_54:\n      pop\n      tag_55\n      tag_56\n      jump\t// in\n    tag_55:\n      mload(0x40)\n      tag_57\n      swap2\n      swap1\n      tag_58\n      jump\t// in\n    tag_57:\n      mload(0x40)\n      dup1\n      swap2\n      sub\n      swap1\n      return\n        /* \"subasta6.sol\":234:274  uint public plazoExtension = 300 seconds */\n    tag_12:\n      callvalue\n      dup1\n      iszero\n      tag_59\n      jumpi\n      0x00\n      dup1\n      revert\n    tag_59:\n      pop\n      tag_60\n      tag_61\n      jump\t// in\n    tag_60:\n      mload(0x40)\n      tag_62\n      swap2\n      swap1\n      tag_27\n      jump\t// in\n    tag_62:\n      mload(0x40)\n      dup1\n      swap2\n      sub\n      swap1\n      return\n        /* \"subasta6.sol\":281:305  uint public ofertaMinima */\n    tag_13:\n      callvalue\n      dup1\n      iszero\n      tag_63\n      jumpi\n      0x00\n      dup1\n      revert\n    tag_63:\n      pop\n      tag_64\n      tag_65\n      jump\t// in\n    tag_64:\n      mload(0x40)\n      tag_66\n      swap2\n      swap1\n      tag_27\n      jump\t// in\n    tag_66:\n      mload(0x40)\n      dup1\n      swap2\n      sub\n      swap1\n      return\n        /* \"subasta6.sol\":1601:1732  function getOfertaMaxima() public view returns (uint) {... */\n    tag_14:\n      callvalue\n      dup1\n      iszero\n      tag_67\n      jumpi\n      0x00\n      dup1\n      revert\n    tag_67:\n      pop\n      tag_68\n      tag_69\n      jump\t// in\n    tag_68:\n      mload(0x40)\n      tag_70\n      swap2\n      swap1\n      tag_27\n      jump\t// in\n    tag_70:\n      mload(0x40)\n      dup1\n      swap2\n      sub\n      swap1\n      return\n        /* \"subasta6.sol\":3095:3632  function retirarParcial() external soloMientrasActiva {... */\n    tag_19:\n        /* \"subasta6.sol\":1039:1052  subastaActiva */\n      0x06\n      0x00\n      swap1\n      sload\n      swap1\n      0x0100\n      exp\n      swap1\n      div\n      0xff\n      and\n        /* \"subasta6.sol\":1031:1082  require(subastaActiva, \"La subasta no esta activa\") */\n      tag_72\n      jumpi\n      mload(0x40)\n      0x08c379a000000000000000000000000000000000000000000000000000000000\n      dup2\n      mstore\n      0x04\n      add\n      tag_73\n      swap1\n      tag_74\n      jump\t// in\n    tag_73:\n      mload(0x40)\n      dup1\n      swap2\n      sub\n      swap1\n      revert\n    tag_72:\n        /* \"subasta6.sol\":3160:3177  uint montoRetirar */\n      0x00\n        /* \"subasta6.sol\":3192:3211  uint historialArray */\n      dup1\n        /* \"subasta6.sol\":3214:3230  historialOfertas */\n      0x05\n        /* \"subasta6.sol\":3214:3237  historialOfertas.length */\n      dup1\n      sload\n      swap1\n      pop\n        /* \"subasta6.sol\":3192:3237  uint historialArray = historialOfertas.length */\n      swap1\n      pop\n        /* \"subasta6.sol\":3253:3259  uint i */\n      0x00\n        /* \"subasta6.sol\":3248:3508  for (uint i = 0; i < historialArray - 1; i++) {... */\n    tag_76:\n        /* \"subasta6.sol\":3286:3287  1 */\n      0x01\n        /* \"subasta6.sol\":3269:3283  historialArray */\n      dup3\n        /* \"subasta6.sol\":3269:3287  historialArray - 1 */\n      tag_79\n      swap2\n      swap1\n      tag_80\n      jump\t// in\n    tag_79:\n        /* \"subasta6.sol\":3265:3266  i */\n      dup2\n        /* \"subasta6.sol\":3265:3287  i < historialArray - 1 */\n      lt\n        /* \"subasta6.sol\":3248:3508  for (uint i = 0; i < historialArray - 1; i++) {... */\n      iszero\n      tag_77\n      jumpi\n        /* \"subasta6.sol\":3346:3356  msg.sender */\n      caller\n        /* \"subasta6.sol\":3313:3356  historialOfertas[i].ofertante == msg.sender */\n      0xffffffffffffffffffffffffffffffffffffffff\n      and\n        /* \"subasta6.sol\":3313:3329  historialOfertas */\n      0x05\n        /* \"subasta6.sol\":3330:3331  i */\n      dup3\n        /* \"subasta6.sol\":3313:3332  historialOfertas[i] */\n      dup2\n      sload\n      dup2\n      lt\n      tag_81\n      jumpi\n      tag_82\n      tag_83\n      jump\t// in\n    tag_82:\n    tag_81:\n      swap1\n      0x00\n      mstore\n      keccak256(0x00, 0x20)\n      swap1\n      0x02\n      mul\n      add\n        /* \"subasta6.sol\":3313:3342  historialOfertas[i].ofertante */\n      0x00\n      add\n      0x00\n      swap1\n      sload\n      swap1\n      0x0100\n      exp\n      swap1\n      div\n      0xffffffffffffffffffffffffffffffffffffffff\n      and\n        /* \"subasta6.sol\":3313:3356  historialOfertas[i].ofertante == msg.sender */\n      0xffffffffffffffffffffffffffffffffffffffff\n      and\n      sub\n        /* \"subasta6.sol\":3309:3497  if (historialOfertas[i].ofertante == msg.sender) {... */\n      tag_85\n      jumpi\n        /* \"subasta6.sol\":3393:3409  historialOfertas */\n      0x05\n        /* \"subasta6.sol\":3410:3411  i */\n      dup2\n        /* \"subasta6.sol\":3393:3412  historialOfertas[i] */\n      dup2\n      sload\n      dup2\n      lt\n      tag_86\n      jumpi\n      tag_87\n      tag_83\n      jump\t// in\n    tag_87:\n    tag_86:\n      swap1\n      0x00\n      mstore\n      keccak256(0x00, 0x20)\n      swap1\n      0x02\n      mul\n      add\n        /* \"subasta6.sol\":3393:3418  historialOfertas[i].monto */\n      0x01\n      add\n      sload\n        /* \"subasta6.sol\":3377:3418  montoRetirar += historialOfertas[i].monto */\n      dup4\n      tag_89\n      swap2\n      swap1\n      tag_90\n      jump\t// in\n    tag_89:\n      swap3\n      pop\n        /* \"subasta6.sol\":3444:3460  historialOfertas */\n      0x05\n        /* \"subasta6.sol\":3461:3462  i */\n      dup2\n        /* \"subasta6.sol\":3444:3463  historialOfertas[i] */\n      dup2\n      sload\n      dup2\n      lt\n      tag_91\n      jumpi\n      tag_92\n      tag_83\n      jump\t// in\n    tag_92:\n    tag_91:\n      swap1\n      0x00\n      mstore\n      keccak256(0x00, 0x20)\n      swap1\n      0x02\n      mul\n      add\n      0x00\n        /* \"subasta6.sol\":3437:3463  delete historialOfertas[i] */\n      dup1\n      dup3\n      add\n      exp(0x0100, 0x00)\n      dup2\n      sload\n      swap1\n      0xffffffffffffffffffffffffffffffffffffffff\n      mul\n      not\n      and\n      swap1\n      sstore\n      0x01\n      dup3\n      add\n      0x00\n      swap1\n      sstore\n      pop\n      pop\n        /* \"subasta6.sol\":3309:3497  if (historialOfertas[i].ofertante == msg.sender) {... */\n    tag_85:\n        /* \"subasta6.sol\":3289:3292  i++ */\n      dup1\n      dup1\n      0x01\n      add\n      swap2\n      pop\n      pop\n        /* \"subasta6.sol\":3248:3508  for (uint i = 0; i < historialArray - 1; i++) {... */\n      jump(tag_76)\n    tag_77:\n      pop\n        /* \"subasta6.sol\":3541:3542  0 */\n      0x00\n        /* \"subasta6.sol\":3526:3538  montoRetirar */\n      dup3\n        /* \"subasta6.sol\":3526:3542  montoRetirar > 0 */\n      gt\n        /* \"subasta6.sol\":3518:3571  require(montoRetirar > 0, \"No hay nada para retirar\") */\n      tag_94\n      jumpi\n      mload(0x40)\n      0x08c379a000000000000000000000000000000000000000000000000000000000\n      dup2\n      mstore\n      0x04\n      add\n      tag_95\n      swap1\n      tag_96\n      jump\t// in\n    tag_95:\n      mload(0x40)\n      dup1\n      swap2\n      sub\n      swap1\n      revert\n    tag_94:\n        /* \"subasta6.sol\":3590:3600  msg.sender */\n      caller\n        /* \"subasta6.sol\":3582:3610  payable(msg.sender).transfer */\n      0xffffffffffffffffffffffffffffffffffffffff\n      and\n        /* \"subasta6.sol\":3582:3624  payable(msg.sender).transfer(montoRetirar) */\n      0x08fc\n        /* \"subasta6.sol\":3611:3623  montoRetirar */\n      dup4\n        /* \"subasta6.sol\":3582:3624  payable(msg.sender).transfer(montoRetirar) */\n      swap1\n      dup2\n      iszero\n      mul\n      swap1\n      mload(0x40)\n      0x00\n      mload(0x40)\n      dup1\n      dup4\n      sub\n      dup2\n      dup6\n      dup9\n      dup9\n      call\n      swap4\n      pop\n      pop\n      pop\n      pop\n      iszero\n      dup1\n      iszero\n      tag_98\n      jumpi\n      returndatasize\n      0x00\n      dup1\n      returndatacopy\n      revert(0x00, returndatasize)\n    tag_98:\n      pop\n        /* \"subasta6.sol\":3149:3632  {... */\n      pop\n      pop\n        /* \"subasta6.sol\":3095:3632  function retirarParcial() external soloMientrasActiva {... */\n      jump\t// out\n        /* \"subasta6.sol\":1740:2143  function finalizarSubasta() external soloSubastador {... */\n    tag_22:\n        /* \"subasta6.sol\":901:911  subastador */\n      0x00\n      dup1\n      sload\n      swap1\n      0x0100\n      exp\n      swap1\n      div\n      0xffffffffffffffffffffffffffffffffffffffff\n      and\n        /* \"subasta6.sol\":887:911  msg.sender == subastador */\n      0xffffffffffffffffffffffffffffffffffffffff\n      and\n        /* \"subasta6.sol\":887:897  msg.sender */\n      caller\n        /* \"subasta6.sol\":887:911  msg.sender == subastador */\n      0xffffffffffffffffffffffffffffffffffffffff\n      and\n      eq\n        /* \"subasta6.sol\":879:962  require(msg.sender == subastador, \"Solo el subastador puede ejecutar esta funcion\") */\n      tag_100\n      jumpi\n      mload(0x40)\n      0x08c379a000000000000000000000000000000000000000000000000000000000\n      dup2\n      mstore\n      0x04\n      add\n      tag_101\n      swap1\n      tag_102\n      jump\t// in\n    tag_101:\n      mload(0x40)\n      dup1\n      swap2\n      sub\n      swap1\n      revert\n    tag_100:\n        /* \"subasta6.sol\":1830:1848  tiempoFinalizacion */\n      sload(0x01)\n        /* \"subasta6.sol\":1811:1826  block.timestamp */\n      timestamp\n        /* \"subasta6.sol\":1811:1848  block.timestamp >= tiempoFinalizacion */\n      lt\n      iszero\n        /* \"subasta6.sol\":1803:1879  require(block.timestamp >= tiempoFinalizacion, \"La subasta no ha terminado\") */\n      tag_104\n      jumpi\n      mload(0x40)\n      0x08c379a000000000000000000000000000000000000000000000000000000000\n      dup2\n      mstore\n      0x04\n      add\n      tag_105\n      swap1\n      tag_106\n      jump\t// in\n    tag_105:\n      mload(0x40)\n      dup1\n      swap2\n      sub\n      swap1\n      revert\n    tag_104:\n        /* \"subasta6.sol\":1908:1913  false */\n      0x00\n        /* \"subasta6.sol\":1892:1905  subastaActiva */\n      0x06\n      0x00\n        /* \"subasta6.sol\":1892:1913  subastaActiva = false */\n      0x0100\n      exp\n      dup2\n      sload\n      dup2\n      0xff\n      mul\n      not\n      and\n      swap1\n      dup4\n      iszero\n      iszero\n      mul\n      or\n      swap1\n      sstore\n      pop\n        /* \"subasta6.sol\":1924:1939  address ganador */\n      0x00\n        /* \"subasta6.sol\":1942:1958  historialOfertas */\n      0x05\n        /* \"subasta6.sol\":1985:1986  1 */\n      0x01\n        /* \"subasta6.sol\":1959:1975  historialOfertas */\n      0x05\n        /* \"subasta6.sol\":1959:1982  historialOfertas.length */\n      dup1\n      sload\n      swap1\n      pop\n        /* \"subasta6.sol\":1959:1986  historialOfertas.length - 1 */\n      tag_107\n      swap2\n      swap1\n      tag_80\n      jump\t// in\n    tag_107:\n        /* \"subasta6.sol\":1942:1987  historialOfertas[historialOfertas.length - 1] */\n      dup2\n      sload\n      dup2\n      lt\n      tag_108\n      jumpi\n      tag_109\n      tag_83\n      jump\t// in\n    tag_109:\n    tag_108:\n      swap1\n      0x00\n      mstore\n      keccak256(0x00, 0x20)\n      swap1\n      0x02\n      mul\n      add\n        /* \"subasta6.sol\":1942:1997  historialOfertas[historialOfertas.length - 1].ofertante */\n      0x00\n      add\n      0x00\n      swap1\n      sload\n      swap1\n      0x0100\n      exp\n      swap1\n      div\n      0xffffffffffffffffffffffffffffffffffffffff\n      and\n        /* \"subasta6.sol\":1924:1997  address ganador = historialOfertas[historialOfertas.length - 1].ofertante */\n      swap1\n      pop\n        /* \"subasta6.sol\":2008:2025  uint montoGanador */\n      0x00\n        /* \"subasta6.sol\":2028:2044  historialOfertas */\n      0x05\n        /* \"subasta6.sol\":2071:2072  1 */\n      0x01\n        /* \"subasta6.sol\":2045:2061  historialOfertas */\n      0x05\n        /* \"subasta6.sol\":2045:2068  historialOfertas.length */\n      dup1\n      sload\n      swap1\n      pop\n        /* \"subasta6.sol\":2045:2072  historialOfertas.length - 1 */\n      tag_111\n      swap2\n      swap1\n      tag_80\n      jump\t// in\n    tag_111:\n        /* \"subasta6.sol\":2028:2073  historialOfertas[historialOfertas.length - 1] */\n      dup2\n      sload\n      dup2\n      lt\n      tag_112\n      jumpi\n      tag_113\n      tag_83\n      jump\t// in\n    tag_113:\n    tag_112:\n      swap1\n      0x00\n      mstore\n      keccak256(0x00, 0x20)\n      swap1\n      0x02\n      mul\n      add\n        /* \"subasta6.sol\":2028:2079  historialOfertas[historialOfertas.length - 1].monto */\n      0x01\n      add\n      sload\n        /* \"subasta6.sol\":2008:2079  uint montoGanador = historialOfertas[historialOfertas.length - 1].monto */\n      swap1\n      pop\n        /* \"subasta6.sol\":2095:2135  SubastaFinalizada(ganador, montoGanador) */\n      0xa3a65b403bdae88eb037f4ecc1d619f436fc3ef6bcbbee3787757164e82883f2\n        /* \"subasta6.sol\":2113:2120  ganador */\n      dup3\n        /* \"subasta6.sol\":2122:2134  montoGanador */\n      dup3\n        /* \"subasta6.sol\":2095:2135  SubastaFinalizada(ganador, montoGanador) */\n      mload(0x40)\n      tag_115\n      swap3\n      swap2\n      swap1\n      tag_49\n      jump\t// in\n    tag_115:\n      mload(0x40)\n      dup1\n      swap2\n      sub\n      swap1\n      log1\n        /* \"subasta6.sol\":1792:2143  {... */\n      pop\n      pop\n        /* \"subasta6.sol\":1740:2143  function finalizarSubasta() external soloSubastador {... */\n      jump\t// out\n        /* \"subasta6.sol\":197:227  uint public tiempoFinalizacion */\n    tag_25:\n      sload(0x01)\n      dup2\n      jump\t// out\n        /* \"subasta6.sol\":165:190  address public subastador */\n    tag_30:\n      0x00\n      dup1\n      sload\n      swap1\n      0x0100\n      exp\n      swap1\n      div\n      0xffffffffffffffffffffffffffffffffffffffff\n      and\n      dup2\n      jump\t// out\n        /* \"subasta6.sol\":1110:1593  function ofertar() external payable soloMientrasActiva {... */\n    tag_34:\n        /* \"subasta6.sol\":1039:1052  subastaActiva */\n      0x06\n      0x00\n      swap1\n      sload\n      swap1\n      0x0100\n      exp\n      swap1\n      div\n      0xff\n      and\n        /* \"subasta6.sol\":1031:1082  require(subastaActiva, \"La subasta no esta activa\") */\n      tag_117\n      jumpi\n      mload(0x40)\n      0x08c379a000000000000000000000000000000000000000000000000000000000\n      dup2\n      mstore\n      0x04\n      add\n      tag_118\n      swap1\n      tag_74\n      jump\t// in\n    tag_118:\n      mload(0x40)\n      dup1\n      swap2\n      sub\n      swap1\n      revert\n    tag_117:\n        /* \"subasta6.sol\":1225:1228  100 */\n      0x64\n        /* \"subasta6.sol\":1218:1221  105 */\n      0x69\n        /* \"subasta6.sol\":1198:1215  getOfertaMaxima() */\n      tag_120\n        /* \"subasta6.sol\":1198:1213  getOfertaMaxima */\n      tag_69\n        /* \"subasta6.sol\":1198:1215  getOfertaMaxima() */\n      jump\t// in\n    tag_120:\n        /* \"subasta6.sol\":1198:1221  getOfertaMaxima() * 105 */\n      tag_121\n      swap2\n      swap1\n      tag_122\n      jump\t// in\n    tag_121:\n        /* \"subasta6.sol\":1197:1228  (getOfertaMaxima() * 105) / 100 */\n      tag_123\n      swap2\n      swap1\n      tag_124\n      jump\t// in\n    tag_123:\n        /* \"subasta6.sol\":1184:1193  msg.value */\n      callvalue\n        /* \"subasta6.sol\":1184:1228  msg.value >= (getOfertaMaxima() * 105) / 100 */\n      lt\n      iszero\n        /* \"subasta6.sol\":1176:1293  require(msg.value >= (getOfertaMaxima() * 105) / 100, \"La oferta debe ser al menos un 5% mayor que la oferta actual\") */\n      tag_125\n      jumpi\n      mload(0x40)\n      0x08c379a000000000000000000000000000000000000000000000000000000000\n      dup2\n      mstore\n      0x04\n      add\n      tag_126\n      swap1\n      tag_127\n      jump\t// in\n    tag_126:\n      mload(0x40)\n      dup1\n      swap2\n      sub\n      swap1\n      revert\n    tag_125:\n        /* \"subasta6.sol\":1330:1348  tiempoFinalizacion */\n      sload(0x01)\n        /* \"subasta6.sol\":1312:1327  block.timestamp */\n      timestamp\n        /* \"subasta6.sol\":1312:1348  block.timestamp < tiempoFinalizacion */\n      lt\n        /* \"subasta6.sol\":1304:1376  require(block.timestamp < tiempoFinalizacion, \"La subasta ha terminado\") */\n      tag_128\n      jumpi\n      mload(0x40)\n      0x08c379a000000000000000000000000000000000000000000000000000000000\n      dup2\n      mstore\n      0x04\n      add\n      tag_129\n      swap1\n      tag_130\n      jump\t// in\n    tag_129:\n      mload(0x40)\n      dup1\n      swap2\n      sub\n      swap1\n      revert\n    tag_128:\n        /* \"subasta6.sol\":1456:1470  plazoExtension */\n      sload(0x02)\n        /* \"subasta6.sol\":1434:1452  tiempoFinalizacion */\n      0x01\n      0x00\n        /* \"subasta6.sol\":1434:1470  tiempoFinalizacion += plazoExtension */\n      dup3\n      dup3\n      sload\n      tag_131\n      swap2\n      swap1\n      tag_90\n      jump\t// in\n    tag_131:\n      swap3\n      pop\n      pop\n      dup2\n      swap1\n      sstore\n      pop\n        /* \"subasta6.sol\":1483:1499  historialOfertas */\n      0x05\n        /* \"subasta6.sol\":1505:1534  Oferta(msg.sender, msg.value) */\n      mload(0x40)\n      dup1\n      0x40\n      add\n      0x40\n      mstore\n      dup1\n        /* \"subasta6.sol\":1512:1522  msg.sender */\n      caller\n        /* \"subasta6.sol\":1505:1534  Oferta(msg.sender, msg.value) */\n      0xffffffffffffffffffffffffffffffffffffffff\n      and\n      dup2\n      mstore\n      0x20\n      add\n        /* \"subasta6.sol\":1524:1533  msg.value */\n      callvalue\n        /* \"subasta6.sol\":1505:1534  Oferta(msg.sender, msg.value) */\n      dup2\n      mstore\n      pop\n        /* \"subasta6.sol\":1483:1535  historialOfertas.push(Oferta(msg.sender, msg.value)) */\n      swap1\n      dup1\n      0x01\n      dup2\n      sload\n      add\n      dup1\n      dup3\n      sstore\n      dup1\n      swap2\n      pop\n      pop\n      0x01\n      swap1\n      sub\n      swap1\n      0x00\n      mstore\n      keccak256(0x00, 0x20)\n      swap1\n      0x02\n      mul\n      add\n      0x00\n      swap1\n      swap2\n      swap1\n      swap2\n      swap1\n      swap2\n      pop\n      0x00\n      dup3\n      add\n      mload\n      dup2\n      0x00\n      add\n      exp(0x0100, 0x00)\n      dup2\n      sload\n      dup2\n      0xffffffffffffffffffffffffffffffffffffffff\n      mul\n      not\n      and\n      swap1\n      dup4\n      0xffffffffffffffffffffffffffffffffffffffff\n      and\n      mul\n      or\n      swap1\n      sstore\n      pop\n      0x20\n      dup3\n      add\n      mload\n      dup2\n      0x01\n      add\n      sstore\n      pop\n      pop\n        /* \"subasta6.sol\":1563:1573  msg.sender */\n      caller\n        /* \"subasta6.sol\":1551:1585  NuevaOferta(msg.sender, msg.value) */\n      0xffffffffffffffffffffffffffffffffffffffff\n      and\n      0x155d469211f46e4d9ae974606f0878f9aacc6198ba30a1e6b9c8cf5627352fb5\n        /* \"subasta6.sol\":1575:1584  msg.value */\n      callvalue\n        /* \"subasta6.sol\":1551:1585  NuevaOferta(msg.sender, msg.value) */\n      mload(0x40)\n      tag_133\n      swap2\n      swap1\n      tag_27\n      jump\t// in\n    tag_133:\n      mload(0x40)\n      dup1\n      swap2\n      sub\n      swap1\n      log2\n        /* \"subasta6.sol\":1110:1593  function ofertar() external payable soloMientrasActiva {... */\n      jump\t// out\n        /* \"subasta6.sol\":2151:3083  function devolverDepositos() external soloSubastador {... */\n    tag_37:\n        /* \"subasta6.sol\":901:911  subastador */\n      0x00\n      dup1\n      sload\n      swap1\n      0x0100\n      exp\n      swap1\n      div\n      0xffffffffffffffffffffffffffffffffffffffff\n      and\n        /* \"subasta6.sol\":887:911  msg.sender == subastador */\n      0xffffffffffffffffffffffffffffffffffffffff\n      and\n        /* \"subasta6.sol\":887:897  msg.sender */\n      caller\n        /* \"subasta6.sol\":887:911  msg.sender == subastador */\n      0xffffffffffffffffffffffffffffffffffffffff\n      and\n      eq\n        /* \"subasta6.sol\":879:962  require(msg.sender == subastador, \"Solo el subastador puede ejecutar esta funcion\") */\n      tag_135\n      jumpi\n      mload(0x40)\n      0x08c379a000000000000000000000000000000000000000000000000000000000\n      dup2\n      mstore\n      0x04\n      add\n      tag_136\n      swap1\n      tag_102\n      jump\t// in\n    tag_136:\n      mload(0x40)\n      dup1\n      swap2\n      sub\n      swap1\n      revert\n    tag_135:\n        /* \"subasta6.sol\":2220:2233  subastaActiva */\n      0x06\n      0x00\n      swap1\n      sload\n      swap1\n      0x0100\n      exp\n      swap1\n      div\n      0xff\n      and\n        /* \"subasta6.sol\":2219:2233  !subastaActiva */\n      iszero\n        /* \"subasta6.sol\":2211:2260  require(!subastaActiva, \"La subasta esta activa\") */\n      tag_138\n      jumpi\n      mload(0x40)\n      0x08c379a000000000000000000000000000000000000000000000000000000000\n      dup2\n      mstore\n      0x04\n      add\n      tag_139\n      swap1\n      tag_140\n      jump\t// in\n    tag_139:\n      mload(0x40)\n      dup1\n      swap2\n      sub\n      swap1\n      revert\n    tag_138:\n        /* \"subasta6.sol\":2267:2286  uint historialArray */\n      0x00\n        /* \"subasta6.sol\":2289:2305  historialOfertas */\n      0x05\n        /* \"subasta6.sol\":2289:2312  historialOfertas.length */\n      dup1\n      sload\n      swap1\n      pop\n        /* \"subasta6.sol\":2267:2312  uint historialArray = historialOfertas.length */\n      swap1\n      pop\n        /* \"subasta6.sol\":2319:2334  address ganador */\n      0x00\n        /* \"subasta6.sol\":2337:2353  historialOfertas */\n      0x05\n        /* \"subasta6.sol\":2371:2372  1 */\n      0x01\n        /* \"subasta6.sol\":2354:2368  historialArray */\n      dup4\n        /* \"subasta6.sol\":2354:2372  historialArray - 1 */\n      tag_141\n      swap2\n      swap1\n      tag_80\n      jump\t// in\n    tag_141:\n        /* \"subasta6.sol\":2337:2373  historialOfertas[historialArray - 1] */\n      dup2\n      sload\n      dup2\n      lt\n      tag_142\n      jumpi\n      tag_143\n      tag_83\n      jump\t// in\n    tag_143:\n    tag_142:\n      swap1\n      0x00\n      mstore\n      keccak256(0x00, 0x20)\n      swap1\n      0x02\n      mul\n      add\n        /* \"subasta6.sol\":2337:2383  historialOfertas[historialArray - 1].ofertante */\n      0x00\n      add\n      0x00\n      swap1\n      sload\n      swap1\n      0x0100\n      exp\n      swap1\n      div\n      0xffffffffffffffffffffffffffffffffffffffff\n      and\n        /* \"subasta6.sol\":2319:2383  address ganador = historialOfertas[historialArray - 1].ofertante */\n      swap1\n      pop\n        /* \"subasta6.sol\":2397:2403  uint i */\n      0x00\n        /* \"subasta6.sol\":2406:2407  1 */\n      0x01\n        /* \"subasta6.sol\":2397:2407  uint i = 1 */\n      swap1\n      pop\n        /* \"subasta6.sol\":2392:3080  for (uint i = 1; i < historialArray - 1; i++) { // Excluimos la última oferta (ganadora)... */\n    tag_145:\n        /* \"subasta6.sol\":2430:2431  1 */\n      0x01\n        /* \"subasta6.sol\":2413:2427  historialArray */\n      dup4\n        /* \"subasta6.sol\":2413:2431  historialArray - 1 */\n      tag_148\n      swap2\n      swap1\n      tag_80\n      jump\t// in\n    tag_148:\n        /* \"subasta6.sol\":2409:2410  i */\n      dup2\n        /* \"subasta6.sol\":2409:2431  i < historialArray - 1 */\n      lt\n        /* \"subasta6.sol\":2392:3080  for (uint i = 1; i < historialArray - 1; i++) { // Excluimos la última oferta (ganadora)... */\n      iszero\n      tag_146\n      jumpi\n        /* \"subasta6.sol\":2491:2508  address ofertante */\n      0x00\n        /* \"subasta6.sol\":2511:2527  historialOfertas */\n      0x05\n        /* \"subasta6.sol\":2528:2529  i */\n      dup3\n        /* \"subasta6.sol\":2511:2530  historialOfertas[i] */\n      dup2\n      sload\n      dup2\n      lt\n      tag_149\n      jumpi\n      tag_150\n      tag_83\n      jump\t// in\n    tag_150:\n    tag_149:\n      swap1\n      0x00\n      mstore\n      keccak256(0x00, 0x20)\n      swap1\n      0x02\n      mul\n      add\n        /* \"subasta6.sol\":2511:2540  historialOfertas[i].ofertante */\n      0x00\n      add\n      0x00\n      swap1\n      sload\n      swap1\n      0x0100\n      exp\n      swap1\n      div\n      0xffffffffffffffffffffffffffffffffffffffff\n      and\n        /* \"subasta6.sol\":2491:2540  address ofertante = historialOfertas[i].ofertante */\n      swap1\n      pop\n        /* \"subasta6.sol\":2551:2561  uint monto */\n      0x00\n        /* \"subasta6.sol\":2564:2580  historialOfertas */\n      0x05\n        /* \"subasta6.sol\":2581:2582  i */\n      dup4\n        /* \"subasta6.sol\":2564:2583  historialOfertas[i] */\n      dup2\n      sload\n      dup2\n      lt\n      tag_152\n      jumpi\n      tag_153\n      tag_83\n      jump\t// in\n    tag_153:\n    tag_152:\n      swap1\n      0x00\n      mstore\n      keccak256(0x00, 0x20)\n      swap1\n      0x02\n      mul\n      add\n        /* \"subasta6.sol\":2564:2589  historialOfertas[i].monto */\n      0x01\n      add\n      sload\n        /* \"subasta6.sol\":2551:2589  uint monto = historialOfertas[i].monto */\n      swap1\n      pop\n        /* \"subasta6.sol\":2683:2690  ganador */\n      dup4\n        /* \"subasta6.sol\":2670:2690  ofertante == ganador */\n      0xffffffffffffffffffffffffffffffffffffffff\n      and\n        /* \"subasta6.sol\":2670:2679  ofertante */\n      dup3\n        /* \"subasta6.sol\":2670:2690  ofertante == ganador */\n      0xffffffffffffffffffffffffffffffffffffffff\n      and\n      sub\n        /* \"subasta6.sol\":2666:2727  if (ofertante == ganador) {... */\n      tag_155\n      jumpi\n        /* \"subasta6.sol\":2707:2715  continue */\n      pop\n      pop\n      jump(tag_147)\n        /* \"subasta6.sol\":2666:2727  if (ofertante == ganador) {... */\n    tag_155:\n        /* \"subasta6.sol\":2813:2831  uint montoDevolver */\n      0x00\n        /* \"subasta6.sol\":2866:2869  100 */\n      0x64\n        /* \"subasta6.sol\":2850:2861  comisionGas */\n      sload(0x04)\n        /* \"subasta6.sol\":2844:2847  100 */\n      0x64\n        /* \"subasta6.sol\":2844:2861  100 - comisionGas */\n      tag_156\n      swap2\n      swap1\n      tag_80\n      jump\t// in\n    tag_156:\n        /* \"subasta6.sol\":2835:2840  monto */\n      dup4\n        /* \"subasta6.sol\":2835:2862  monto * (100 - comisionGas) */\n      tag_157\n      swap2\n      swap1\n      tag_122\n      jump\t// in\n    tag_157:\n        /* \"subasta6.sol\":2834:2869  (monto * (100 - comisionGas)) / 100 */\n      tag_158\n      swap2\n      swap1\n      tag_124\n      jump\t// in\n    tag_158:\n        /* \"subasta6.sol\":2813:2869  uint montoDevolver = (monto * (100 - comisionGas)) / 100 */\n      swap1\n      pop\n        /* \"subasta6.sol\":2951:2963  bool success */\n      0x00\n        /* \"subasta6.sol\":2969:2978  ofertante */\n      dup4\n        /* \"subasta6.sol\":2969:2983  ofertante.call */\n      0xffffffffffffffffffffffffffffffffffffffff\n      and\n        /* \"subasta6.sol\":2991:3004  montoDevolver */\n      dup3\n        /* \"subasta6.sol\":2969:3009  ofertante.call{value: montoDevolver}(\"\") */\n      mload(0x40)\n      tag_159\n      swap1\n      tag_160\n      jump\t// in\n    tag_159:\n      0x00\n      mload(0x40)\n      dup1\n      dup4\n      sub\n      dup2\n      dup6\n      dup8\n      gas\n      call\n      swap3\n      pop\n      pop\n      pop\n      returndatasize\n      dup1\n      0x00\n      dup2\n      eq\n      tag_163\n      jumpi\n      mload(0x40)\n      swap2\n      pop\n      and(add(returndatasize, 0x3f), not(0x1f))\n      dup3\n      add\n      0x40\n      mstore\n      returndatasize\n      dup3\n      mstore\n      returndatasize\n      0x00\n      0x20\n      dup5\n      add\n      returndatacopy\n      jump(tag_162)\n    tag_163:\n      0x60\n      swap2\n      pop\n    tag_162:\n      pop\n        /* \"subasta6.sol\":2950:3009  (bool success, ) = ofertante.call{value: montoDevolver}(\"\") */\n      pop\n      swap1\n      pop\n        /* \"subasta6.sol\":3028:3035  success */\n      dup1\n        /* \"subasta6.sol\":3020:3072  require(success, \"Fallo al reembolsar al ofertante\") */\n      tag_164\n      jumpi\n      mload(0x40)\n      0x08c379a000000000000000000000000000000000000000000000000000000000\n      dup2\n      mstore\n      0x04\n      add\n      tag_165\n      swap1\n      tag_166\n      jump\t// in\n    tag_165:\n      mload(0x40)\n      dup1\n      swap2\n      sub\n      swap1\n      revert\n    tag_164:\n        /* \"subasta6.sol\":2438:3080  { // Excluimos la última oferta (ganadora)... */\n      pop\n      pop\n      pop\n      pop\n        /* \"subasta6.sol\":2392:3080  for (uint i = 1; i < historialArray - 1; i++) { // Excluimos la última oferta (ganadora)... */\n    tag_147:\n        /* \"subasta6.sol\":2433:2436  i++ */\n      dup1\n      dup1\n      0x01\n      add\n      swap2\n      pop\n      pop\n        /* \"subasta6.sol\":2392:3080  for (uint i = 1; i < historialArray - 1; i++) { // Excluimos la última oferta (ganadora)... */\n      jump(tag_145)\n    tag_146:\n      pop\n        /* \"subasta6.sol\":2204:3083  {... */\n      pop\n      pop\n        /* \"subasta6.sol\":2151:3083  function devolverDepositos() external soloSubastador {... */\n      jump\t// out\n        /* \"subasta6.sol\":391:416  bool public subastaActiva */\n    tag_40:\n      0x06\n      0x00\n      swap1\n      sload\n      swap1\n      0x0100\n      exp\n      swap1\n      div\n      0xff\n      and\n      dup2\n      jump\t// out\n        /* \"subasta6.sol\":352:384  Oferta[] public historialOfertas */\n    tag_47:\n      0x05\n      dup2\n      dup2\n      sload\n      dup2\n      lt\n      tag_167\n      jumpi\n      0x00\n      dup1\n      revert\n    tag_167:\n      swap1\n      0x00\n      mstore\n      keccak256(0x00, 0x20)\n      swap1\n      0x02\n      mul\n      add\n      0x00\n      swap2\n      pop\n      swap1\n      pop\n      dup1\n      0x00\n      add\n      0x00\n      swap1\n      sload\n      swap1\n      0x0100\n      exp\n      swap1\n      div\n      0xffffffffffffffffffffffffffffffffffffffff\n      and\n      swap1\n      dup1\n      0x01\n      add\n      sload\n      swap1\n      pop\n      dup3\n      jump\t// out\n        /* \"subasta6.sol\":312:339  uint public comisionGas = 2 */\n    tag_52:\n      sload(0x04)\n      dup2\n      jump\t// out\n        /* \"subasta6.sol\":3640:3748  function mostrarOfertas() external view returns (Oferta[] memory) {... */\n    tag_56:\n        /* \"subasta6.sol\":3689:3704  Oferta[] memory */\n      0x60\n        /* \"subasta6.sol\":3724:3740  historialOfertas */\n      0x05\n        /* \"subasta6.sol\":3717:3740  return historialOfertas */\n      dup1\n      sload\n      dup1\n      0x20\n      mul\n      0x20\n      add\n      mload(0x40)\n      swap1\n      dup2\n      add\n      0x40\n      mstore\n      dup1\n      swap3\n      swap2\n      swap1\n      dup2\n      dup2\n      mstore\n      0x20\n      add\n      0x00\n      swap1\n    tag_170:\n      dup3\n      dup3\n      lt\n      iszero\n      tag_171\n      jumpi\n      dup4\n      dup3\n      swap1\n      0x00\n      mstore\n      keccak256(0x00, 0x20)\n      swap1\n      0x02\n      mul\n      add\n      mload(0x40)\n      dup1\n      0x40\n      add\n      0x40\n      mstore\n      swap1\n      dup2\n      0x00\n      dup3\n      add\n      0x00\n      swap1\n      sload\n      swap1\n      0x0100\n      exp\n      swap1\n      div\n      0xffffffffffffffffffffffffffffffffffffffff\n      and\n      0xffffffffffffffffffffffffffffffffffffffff\n      and\n      0xffffffffffffffffffffffffffffffffffffffff\n      and\n      dup2\n      mstore\n      0x20\n      add\n      0x01\n      dup3\n      add\n      sload\n      dup2\n      mstore\n      pop\n      pop\n      dup2\n      mstore\n      0x20\n      add\n      swap1\n      0x01\n      add\n      swap1\n      jump(tag_170)\n    tag_171:\n      pop\n      pop\n      pop\n      pop\n      swap1\n      pop\n        /* \"subasta6.sol\":3640:3748  function mostrarOfertas() external view returns (Oferta[] memory) {... */\n      swap1\n      jump\t// out\n        /* \"subasta6.sol\":234:274  uint public plazoExtension = 300 seconds */\n    tag_61:\n      sload(0x02)\n      dup2\n      jump\t// out\n        /* \"subasta6.sol\":281:305  uint public ofertaMinima */\n    tag_65:\n      sload(0x03)\n      dup2\n      jump\t// out\n        /* \"subasta6.sol\":1601:1732  function getOfertaMaxima() public view returns (uint) {... */\n    tag_69:\n        /* \"subasta6.sol\":1649:1653  uint */\n      0x00\n        /* \"subasta6.sol\":1673:1689  historialOfertas */\n      0x05\n        /* \"subasta6.sol\":1716:1717  1 */\n      0x01\n        /* \"subasta6.sol\":1690:1706  historialOfertas */\n      0x05\n        /* \"subasta6.sol\":1690:1713  historialOfertas.length */\n      dup1\n      sload\n      swap1\n      pop\n        /* \"subasta6.sol\":1690:1717  historialOfertas.length - 1 */\n      tag_174\n      swap2\n      swap1\n      tag_80\n      jump\t// in\n    tag_174:\n        /* \"subasta6.sol\":1673:1718  historialOfertas[historialOfertas.length - 1] */\n      dup2\n      sload\n      dup2\n      lt\n      tag_175\n      jumpi\n      tag_176\n      tag_83\n      jump\t// in\n    tag_176:\n    tag_175:\n      swap1\n      0x00\n      mstore\n      keccak256(0x00, 0x20)\n      swap1\n      0x02\n      mul\n      add\n        /* \"subasta6.sol\":1673:1724  historialOfertas[historialOfertas.length - 1].monto */\n      0x01\n      add\n      sload\n        /* \"subasta6.sol\":1666:1724  return historialOfertas[historialOfertas.length - 1].monto */\n      swap1\n      pop\n        /* \"subasta6.sol\":1601:1732  function getOfertaMaxima() public view returns (uint) {... */\n      swap1\n      jump\t// out\n        /* \"#utility.yul\":7:84   */\n    tag_178:\n        /* \"#utility.yul\":44:51   */\n      0x00\n        /* \"#utility.yul\":73:78   */\n      dup2\n        /* \"#utility.yul\":62:78   */\n      swap1\n      pop\n        /* \"#utility.yul\":7:84   */\n      swap2\n      swap1\n      pop\n      jump\t// out\n        /* \"#utility.yul\":90:208   */\n    tag_179:\n        /* \"#utility.yul\":177:201   */\n      tag_224\n        /* \"#utility.yul\":195:200   */\n      dup2\n        /* \"#utility.yul\":177:201   */\n      tag_178\n      jump\t// in\n    tag_224:\n        /* \"#utility.yul\":172:175   */\n      dup3\n        /* \"#utility.yul\":165:202   */\n      mstore\n        /* \"#utility.yul\":90:208   */\n      pop\n      pop\n      jump\t// out\n        /* \"#utility.yul\":214:436   */\n    tag_27:\n        /* \"#utility.yul\":307:311   */\n      0x00\n        /* \"#utility.yul\":345:347   */\n      0x20\n        /* \"#utility.yul\":334:343   */\n      dup3\n        /* \"#utility.yul\":330:348   */\n      add\n        /* \"#utility.yul\":322:348   */\n      swap1\n      pop\n        /* \"#utility.yul\":358:429   */\n      tag_226\n        /* \"#utility.yul\":426:427   */\n      0x00\n        /* \"#utility.yul\":415:424   */\n      dup4\n        /* \"#utility.yul\":411:428   */\n      add\n        /* \"#utility.yul\":402:408   */\n      dup5\n        /* \"#utility.yul\":358:429   */\n      tag_179\n      jump\t// in\n    tag_226:\n        /* \"#utility.yul\":214:436   */\n      swap3\n      swap2\n      pop\n      pop\n      jump\t// out\n        /* \"#utility.yul\":442:568   */\n    tag_180:\n        /* \"#utility.yul\":479:486   */\n      0x00\n        /* \"#utility.yul\":519:561   */\n      0xffffffffffffffffffffffffffffffffffffffff\n        /* \"#utility.yul\":512:517   */\n      dup3\n        /* \"#utility.yul\":508:562   */\n      and\n        /* \"#utility.yul\":497:562   */\n      swap1\n      pop\n        /* \"#utility.yul\":442:568   */\n      swap2\n      swap1\n      pop\n      jump\t// out\n        /* \"#utility.yul\":574:670   */\n    tag_181:\n        /* \"#utility.yul\":611:618   */\n      0x00\n        /* \"#utility.yul\":640:664   */\n      tag_229\n        /* \"#utility.yul\":658:663   */\n      dup3\n        /* \"#utility.yul\":640:664   */\n      tag_180\n      jump\t// in\n    tag_229:\n        /* \"#utility.yul\":629:664   */\n      swap1\n      pop\n        /* \"#utility.yul\":574:670   */\n      swap2\n      swap1\n      pop\n      jump\t// out\n        /* \"#utility.yul\":676:794   */\n    tag_182:\n        /* \"#utility.yul\":763:787   */\n      tag_231\n        /* \"#utility.yul\":781:786   */\n      dup2\n        /* \"#utility.yul\":763:787   */\n      tag_181\n      jump\t// in\n    tag_231:\n        /* \"#utility.yul\":758:761   */\n      dup3\n        /* \"#utility.yul\":751:788   */\n      mstore\n        /* \"#utility.yul\":676:794   */\n      pop\n      pop\n      jump\t// out\n        /* \"#utility.yul\":800:1022   */\n    tag_32:\n        /* \"#utility.yul\":893:897   */\n      0x00\n        /* \"#utility.yul\":931:933   */\n      0x20\n        /* \"#utility.yul\":920:929   */\n      dup3\n        /* \"#utility.yul\":916:934   */\n      add\n        /* \"#utility.yul\":908:934   */\n      swap1\n      pop\n        /* \"#utility.yul\":944:1015   */\n      tag_233\n        /* \"#utility.yul\":1012:1013   */\n      0x00\n        /* \"#utility.yul\":1001:1010   */\n      dup4\n        /* \"#utility.yul\":997:1014   */\n      add\n        /* \"#utility.yul\":988:994   */\n      dup5\n        /* \"#utility.yul\":944:1015   */\n      tag_182\n      jump\t// in\n    tag_233:\n        /* \"#utility.yul\":800:1022   */\n      swap3\n      swap2\n      pop\n      pop\n      jump\t// out\n        /* \"#utility.yul\":1028:1118   */\n    tag_183:\n        /* \"#utility.yul\":1062:1069   */\n      0x00\n        /* \"#utility.yul\":1105:1110   */\n      dup2\n        /* \"#utility.yul\":1098:1111   */\n      iszero\n        /* \"#utility.yul\":1091:1112   */\n      iszero\n        /* \"#utility.yul\":1080:1112   */\n      swap1\n      pop\n        /* \"#utility.yul\":1028:1118   */\n      swap2\n      swap1\n      pop\n      jump\t// out\n        /* \"#utility.yul\":1124:1233   */\n    tag_184:\n        /* \"#utility.yul\":1205:1226   */\n      tag_236\n        /* \"#utility.yul\":1220:1225   */\n      dup2\n        /* \"#utility.yul\":1205:1226   */\n      tag_183\n      jump\t// in\n    tag_236:\n        /* \"#utility.yul\":1200:1203   */\n      dup3\n        /* \"#utility.yul\":1193:1227   */\n      mstore\n        /* \"#utility.yul\":1124:1233   */\n      pop\n      pop\n      jump\t// out\n        /* \"#utility.yul\":1239:1449   */\n    tag_42:\n        /* \"#utility.yul\":1326:1330   */\n      0x00\n        /* \"#utility.yul\":1364:1366   */\n      0x20\n        /* \"#utility.yul\":1353:1362   */\n      dup3\n        /* \"#utility.yul\":1349:1367   */\n      add\n        /* \"#utility.yul\":1341:1367   */\n      swap1\n      pop\n        /* \"#utility.yul\":1377:1442   */\n      tag_238\n        /* \"#utility.yul\":1439:1440   */\n      0x00\n        /* \"#utility.yul\":1428:1437   */\n      dup4\n        /* \"#utility.yul\":1424:1441   */\n      add\n        /* \"#utility.yul\":1415:1421   */\n      dup5\n        /* \"#utility.yul\":1377:1442   */\n      tag_184\n      jump\t// in\n    tag_238:\n        /* \"#utility.yul\":1239:1449   */\n      swap3\n      swap2\n      pop\n      pop\n      jump\t// out\n        /* \"#utility.yul\":1536:1653   */\n    tag_186:\n        /* \"#utility.yul\":1645:1646   */\n      0x00\n        /* \"#utility.yul\":1642:1643   */\n      dup1\n        /* \"#utility.yul\":1635:1647   */\n      revert\n        /* \"#utility.yul\":1782:1904   */\n    tag_188:\n        /* \"#utility.yul\":1855:1879   */\n      tag_243\n        /* \"#utility.yul\":1873:1878   */\n      dup2\n        /* \"#utility.yul\":1855:1879   */\n      tag_178\n      jump\t// in\n    tag_243:\n        /* \"#utility.yul\":1848:1853   */\n      dup2\n        /* \"#utility.yul\":1845:1880   */\n      eq\n        /* \"#utility.yul\":1835:1898   */\n      tag_244\n      jumpi\n        /* \"#utility.yul\":1894:1895   */\n      0x00\n        /* \"#utility.yul\":1891:1892   */\n      dup1\n        /* \"#utility.yul\":1884:1896   */\n      revert\n        /* \"#utility.yul\":1835:1898   */\n    tag_244:\n        /* \"#utility.yul\":1782:1904   */\n      pop\n      jump\t// out\n        /* \"#utility.yul\":1910:2049   */\n    tag_189:\n        /* \"#utility.yul\":1956:1961   */\n      0x00\n        /* \"#utility.yul\":1994:2000   */\n      dup2\n        /* \"#utility.yul\":1981:2001   */\n      calldataload\n        /* \"#utility.yul\":1972:2001   */\n      swap1\n      pop\n        /* \"#utility.yul\":2010:2043   */\n      tag_246\n        /* \"#utility.yul\":2037:2042   */\n      dup2\n        /* \"#utility.yul\":2010:2043   */\n      tag_188\n      jump\t// in\n    tag_246:\n        /* \"#utility.yul\":1910:2049   */\n      swap3\n      swap2\n      pop\n      pop\n      jump\t// out\n        /* \"#utility.yul\":2055:2384   */\n    tag_46:\n        /* \"#utility.yul\":2114:2120   */\n      0x00\n        /* \"#utility.yul\":2163:2165   */\n      0x20\n        /* \"#utility.yul\":2151:2160   */\n      dup3\n        /* \"#utility.yul\":2142:2149   */\n      dup5\n        /* \"#utility.yul\":2138:2161   */\n      sub\n        /* \"#utility.yul\":2134:2166   */\n      slt\n        /* \"#utility.yul\":2131:2250   */\n      iszero\n      tag_248\n      jumpi\n        /* \"#utility.yul\":2169:2248   */\n      tag_249\n      tag_186\n      jump\t// in\n    tag_249:\n        /* \"#utility.yul\":2131:2250   */\n    tag_248:\n        /* \"#utility.yul\":2289:2290   */\n      0x00\n        /* \"#utility.yul\":2314:2367   */\n      tag_250\n        /* \"#utility.yul\":2359:2366   */\n      dup5\n        /* \"#utility.yul\":2350:2356   */\n      dup3\n        /* \"#utility.yul\":2339:2348   */\n      dup6\n        /* \"#utility.yul\":2335:2357   */\n      add\n        /* \"#utility.yul\":2314:2367   */\n      tag_189\n      jump\t// in\n    tag_250:\n        /* \"#utility.yul\":2304:2367   */\n      swap2\n      pop\n        /* \"#utility.yul\":2260:2377   */\n      pop\n        /* \"#utility.yul\":2055:2384   */\n      swap3\n      swap2\n      pop\n      pop\n      jump\t// out\n        /* \"#utility.yul\":2390:2722   */\n    tag_49:\n        /* \"#utility.yul\":2511:2515   */\n      0x00\n        /* \"#utility.yul\":2549:2551   */\n      0x40\n        /* \"#utility.yul\":2538:2547   */\n      dup3\n        /* \"#utility.yul\":2534:2552   */\n      add\n        /* \"#utility.yul\":2526:2552   */\n      swap1\n      pop\n        /* \"#utility.yul\":2562:2633   */\n      tag_252\n        /* \"#utility.yul\":2630:2631   */\n      0x00\n        /* \"#utility.yul\":2619:2628   */\n      dup4\n        /* \"#utility.yul\":2615:2632   */\n      add\n        /* \"#utility.yul\":2606:2612   */\n      dup6\n        /* \"#utility.yul\":2562:2633   */\n      tag_182\n      jump\t// in\n    tag_252:\n        /* \"#utility.yul\":2643:2715   */\n      tag_253\n        /* \"#utility.yul\":2711:2713   */\n      0x20\n        /* \"#utility.yul\":2700:2709   */\n      dup4\n        /* \"#utility.yul\":2696:2714   */\n      add\n        /* \"#utility.yul\":2687:2693   */\n      dup5\n        /* \"#utility.yul\":2643:2715   */\n      tag_179\n      jump\t// in\n    tag_253:\n        /* \"#utility.yul\":2390:2722   */\n      swap4\n      swap3\n      pop\n      pop\n      pop\n      jump\t// out\n        /* \"#utility.yul\":2728:2863   */\n    tag_190:\n        /* \"#utility.yul\":2816:2822   */\n      0x00\n        /* \"#utility.yul\":2850:2855   */\n      dup2\n        /* \"#utility.yul\":2844:2856   */\n      mload\n        /* \"#utility.yul\":2834:2856   */\n      swap1\n      pop\n        /* \"#utility.yul\":2728:2863   */\n      swap2\n      swap1\n      pop\n      jump\t// out\n        /* \"#utility.yul\":2869:3074   */\n    tag_191:\n        /* \"#utility.yul\":2989:3000   */\n      0x00\n        /* \"#utility.yul\":3023:3029   */\n      dup3\n        /* \"#utility.yul\":3018:3021   */\n      dup3\n        /* \"#utility.yul\":3011:3030   */\n      mstore\n        /* \"#utility.yul\":3063:3067   */\n      0x20\n        /* \"#utility.yul\":3058:3061   */\n      dup3\n        /* \"#utility.yul\":3054:3068   */\n      add\n        /* \"#utility.yul\":3039:3068   */\n      swap1\n      pop\n        /* \"#utility.yul\":2869:3074   */\n      swap3\n      swap2\n      pop\n      pop\n      jump\t// out\n        /* \"#utility.yul\":3080:3233   */\n    tag_192:\n        /* \"#utility.yul\":3168:3172   */\n      0x00\n        /* \"#utility.yul\":3191:3194   */\n      dup2\n        /* \"#utility.yul\":3183:3194   */\n      swap1\n      pop\n        /* \"#utility.yul\":3221:3225   */\n      0x20\n        /* \"#utility.yul\":3216:3219   */\n      dup3\n        /* \"#utility.yul\":3212:3226   */\n      add\n        /* \"#utility.yul\":3204:3226   */\n      swap1\n      pop\n        /* \"#utility.yul\":3080:3233   */\n      swap2\n      swap1\n      pop\n      jump\t// out\n        /* \"#utility.yul\":3239:3347   */\n    tag_193:\n        /* \"#utility.yul\":3316:3340   */\n      tag_258\n        /* \"#utility.yul\":3334:3339   */\n      dup2\n        /* \"#utility.yul\":3316:3340   */\n      tag_181\n      jump\t// in\n    tag_258:\n        /* \"#utility.yul\":3311:3314   */\n      dup3\n        /* \"#utility.yul\":3304:3341   */\n      mstore\n        /* \"#utility.yul\":3239:3347   */\n      pop\n      pop\n      jump\t// out\n        /* \"#utility.yul\":3353:3461   */\n    tag_194:\n        /* \"#utility.yul\":3430:3454   */\n      tag_260\n        /* \"#utility.yul\":3448:3453   */\n      dup2\n        /* \"#utility.yul\":3430:3454   */\n      tag_178\n      jump\t// in\n    tag_260:\n        /* \"#utility.yul\":3425:3428   */\n      dup3\n        /* \"#utility.yul\":3418:3455   */\n      mstore\n        /* \"#utility.yul\":3353:3461   */\n      pop\n      pop\n      jump\t// out\n        /* \"#utility.yul\":3525:4020   */\n    tag_195:\n        /* \"#utility.yul\":3654:3658   */\n      0x40\n        /* \"#utility.yul\":3649:3652   */\n      dup3\n        /* \"#utility.yul\":3645:3659   */\n      add\n        /* \"#utility.yul\":3746:3750   */\n      0x00\n        /* \"#utility.yul\":3739:3744   */\n      dup3\n        /* \"#utility.yul\":3735:3751   */\n      add\n        /* \"#utility.yul\":3729:3752   */\n      mload\n        /* \"#utility.yul\":3765:3828   */\n      tag_262\n        /* \"#utility.yul\":3822:3826   */\n      0x00\n        /* \"#utility.yul\":3817:3820   */\n      dup6\n        /* \"#utility.yul\":3813:3827   */\n      add\n        /* \"#utility.yul\":3799:3811   */\n      dup3\n        /* \"#utility.yul\":3765:3828   */\n      tag_193\n      jump\t// in\n    tag_262:\n        /* \"#utility.yul\":3669:3838   */\n      pop\n        /* \"#utility.yul\":3921:3925   */\n      0x20\n        /* \"#utility.yul\":3914:3919   */\n      dup3\n        /* \"#utility.yul\":3910:3926   */\n      add\n        /* \"#utility.yul\":3904:3927   */\n      mload\n        /* \"#utility.yul\":3940:4003   */\n      tag_263\n        /* \"#utility.yul\":3997:4001   */\n      0x20\n        /* \"#utility.yul\":3992:3995   */\n      dup6\n        /* \"#utility.yul\":3988:4002   */\n      add\n        /* \"#utility.yul\":3974:3986   */\n      dup3\n        /* \"#utility.yul\":3940:4003   */\n      tag_194\n      jump\t// in\n    tag_263:\n        /* \"#utility.yul\":3848:4013   */\n      pop\n        /* \"#utility.yul\":3623:4020   */\n      pop\n        /* \"#utility.yul\":3525:4020   */\n      pop\n      pop\n      jump\t// out\n        /* \"#utility.yul\":4026:4289   */\n    tag_196:\n        /* \"#utility.yul\":4137:4147   */\n      0x00\n        /* \"#utility.yul\":4158:4246   */\n      tag_265\n        /* \"#utility.yul\":4242:4245   */\n      dup4\n        /* \"#utility.yul\":4234:4240   */\n      dup4\n        /* \"#utility.yul\":4158:4246   */\n      tag_195\n      jump\t// in\n    tag_265:\n        /* \"#utility.yul\":4278:4282   */\n      0x40\n        /* \"#utility.yul\":4273:4276   */\n      dup4\n        /* \"#utility.yul\":4269:4283   */\n      add\n        /* \"#utility.yul\":4255:4283   */\n      swap1\n      pop\n        /* \"#utility.yul\":4026:4289   */\n      swap3\n      swap2\n      pop\n      pop\n      jump\t// out\n        /* \"#utility.yul\":4295:4429   */\n    tag_197:\n        /* \"#utility.yul\":4386:4390   */\n      0x00\n        /* \"#utility.yul\":4418:4422   */\n      0x20\n        /* \"#utility.yul\":4413:4416   */\n      dup3\n        /* \"#utility.yul\":4409:4423   */\n      add\n        /* \"#utility.yul\":4401:4423   */\n      swap1\n      pop\n        /* \"#utility.yul\":4295:4429   */\n      swap2\n      swap1\n      pop\n      jump\t// out\n        /* \"#utility.yul\":4497:5397   */\n    tag_198:\n        /* \"#utility.yul\":4658:4661   */\n      0x00\n        /* \"#utility.yul\":4687:4762   */\n      tag_268\n        /* \"#utility.yul\":4756:4761   */\n      dup3\n        /* \"#utility.yul\":4687:4762   */\n      tag_190\n      jump\t// in\n    tag_268:\n        /* \"#utility.yul\":4778:4885   */\n      tag_269\n        /* \"#utility.yul\":4878:4884   */\n      dup2\n        /* \"#utility.yul\":4873:4876   */\n      dup6\n        /* \"#utility.yul\":4778:4885   */\n      tag_191\n      jump\t// in\n    tag_269:\n        /* \"#utility.yul\":4771:4885   */\n      swap4\n      pop\n        /* \"#utility.yul\":4909:4986   */\n      tag_270\n        /* \"#utility.yul\":4980:4985   */\n      dup4\n        /* \"#utility.yul\":4909:4986   */\n      tag_192\n      jump\t// in\n    tag_270:\n        /* \"#utility.yul\":5009:5016   */\n      dup1\n        /* \"#utility.yul\":5040:5041   */\n      0x00\n        /* \"#utility.yul\":5025:5372   */\n    tag_271:\n        /* \"#utility.yul\":5050:5056   */\n      dup4\n        /* \"#utility.yul\":5047:5048   */\n      dup2\n        /* \"#utility.yul\":5044:5057   */\n      lt\n        /* \"#utility.yul\":5025:5372   */\n      iszero\n      tag_273\n      jumpi\n        /* \"#utility.yul\":5126:5132   */\n      dup2\n        /* \"#utility.yul\":5120:5133   */\n      mload\n        /* \"#utility.yul\":5153:5258   */\n      tag_274\n        /* \"#utility.yul\":5254:5257   */\n      dup9\n        /* \"#utility.yul\":5239:5252   */\n      dup3\n        /* \"#utility.yul\":5153:5258   */\n      tag_196\n      jump\t// in\n    tag_274:\n        /* \"#utility.yul\":5146:5258   */\n      swap8\n      pop\n        /* \"#utility.yul\":5281:5362   */\n      tag_275\n        /* \"#utility.yul\":5355:5361   */\n      dup4\n        /* \"#utility.yul\":5281:5362   */\n      tag_197\n      jump\t// in\n    tag_275:\n        /* \"#utility.yul\":5271:5362   */\n      swap3\n      pop\n        /* \"#utility.yul\":5085:5372   */\n      pop\n        /* \"#utility.yul\":5072:5073   */\n      0x01\n        /* \"#utility.yul\":5069:5070   */\n      dup2\n        /* \"#utility.yul\":5065:5074   */\n      add\n        /* \"#utility.yul\":5060:5074   */\n      swap1\n      pop\n        /* \"#utility.yul\":5025:5372   */\n      jump(tag_271)\n    tag_273:\n        /* \"#utility.yul\":5029:5043   */\n      pop\n        /* \"#utility.yul\":5388:5391   */\n      dup6\n        /* \"#utility.yul\":5381:5391   */\n      swap4\n      pop\n        /* \"#utility.yul\":4663:5397   */\n      pop\n      pop\n      pop\n        /* \"#utility.yul\":4497:5397   */\n      swap3\n      swap2\n      pop\n      pop\n      jump\t// out\n        /* \"#utility.yul\":5403:5860   */\n    tag_58:\n        /* \"#utility.yul\":5588:5592   */\n      0x00\n        /* \"#utility.yul\":5626:5628   */\n      0x20\n        /* \"#utility.yul\":5615:5624   */\n      dup3\n        /* \"#utility.yul\":5611:5629   */\n      add\n        /* \"#utility.yul\":5603:5629   */\n      swap1\n      pop\n        /* \"#utility.yul\":5675:5684   */\n      dup2\n        /* \"#utility.yul\":5669:5673   */\n      dup2\n        /* \"#utility.yul\":5665:5685   */\n      sub\n        /* \"#utility.yul\":5661:5662   */\n      0x00\n        /* \"#utility.yul\":5650:5659   */\n      dup4\n        /* \"#utility.yul\":5646:5663   */\n      add\n        /* \"#utility.yul\":5639:5686   */\n      mstore\n        /* \"#utility.yul\":5703:5853   */\n      tag_277\n        /* \"#utility.yul\":5848:5852   */\n      dup2\n        /* \"#utility.yul\":5839:5845   */\n      dup5\n        /* \"#utility.yul\":5703:5853   */\n      tag_198\n      jump\t// in\n    tag_277:\n        /* \"#utility.yul\":5695:5853   */\n      swap1\n      pop\n        /* \"#utility.yul\":5403:5860   */\n      swap3\n      swap2\n      pop\n      pop\n      jump\t// out\n        /* \"#utility.yul\":5866:6035   */\n    tag_199:\n        /* \"#utility.yul\":5950:5961   */\n      0x00\n        /* \"#utility.yul\":5984:5990   */\n      dup3\n        /* \"#utility.yul\":5979:5982   */\n      dup3\n        /* \"#utility.yul\":5972:5991   */\n      mstore\n        /* \"#utility.yul\":6024:6028   */\n      0x20\n        /* \"#utility.yul\":6019:6022   */\n      dup3\n        /* \"#utility.yul\":6015:6029   */\n      add\n        /* \"#utility.yul\":6000:6029   */\n      swap1\n      pop\n        /* \"#utility.yul\":5866:6035   */\n      swap3\n      swap2\n      pop\n      pop\n      jump\t// out\n        /* \"#utility.yul\":6041:6216   */\n    tag_200:\n        /* \"#utility.yul\":6181:6208   */\n      0x4c612073756261737461206e6f20657374612061637469766100000000000000\n        /* \"#utility.yul\":6177:6178   */\n      0x00\n        /* \"#utility.yul\":6169:6175   */\n      dup3\n        /* \"#utility.yul\":6165:6179   */\n      add\n        /* \"#utility.yul\":6158:6209   */\n      mstore\n        /* \"#utility.yul\":6041:6216   */\n      pop\n      jump\t// out\n        /* \"#utility.yul\":6222:6588   */\n    tag_201:\n        /* \"#utility.yul\":6364:6367   */\n      0x00\n        /* \"#utility.yul\":6385:6452   */\n      tag_281\n        /* \"#utility.yul\":6449:6451   */\n      0x19\n        /* \"#utility.yul\":6444:6447   */\n      dup4\n        /* \"#utility.yul\":6385:6452   */\n      tag_199\n      jump\t// in\n    tag_281:\n        /* \"#utility.yul\":6378:6452   */\n      swap2\n      pop\n        /* \"#utility.yul\":6461:6554   */\n      tag_282\n        /* \"#utility.yul\":6550:6553   */\n      dup3\n        /* \"#utility.yul\":6461:6554   */\n      tag_200\n      jump\t// in\n    tag_282:\n        /* \"#utility.yul\":6579:6581   */\n      0x20\n        /* \"#utility.yul\":6574:6577   */\n      dup3\n        /* \"#utility.yul\":6570:6582   */\n      add\n        /* \"#utility.yul\":6563:6582   */\n      swap1\n      pop\n        /* \"#utility.yul\":6222:6588   */\n      swap2\n      swap1\n      pop\n      jump\t// out\n        /* \"#utility.yul\":6594:7013   */\n    tag_74:\n        /* \"#utility.yul\":6760:6764   */\n      0x00\n        /* \"#utility.yul\":6798:6800   */\n      0x20\n        /* \"#utility.yul\":6787:6796   */\n      dup3\n        /* \"#utility.yul\":6783:6801   */\n      add\n        /* \"#utility.yul\":6775:6801   */\n      swap1\n      pop\n        /* \"#utility.yul\":6847:6856   */\n      dup2\n        /* \"#utility.yul\":6841:6845   */\n      dup2\n        /* \"#utility.yul\":6837:6857   */\n      sub\n        /* \"#utility.yul\":6833:6834   */\n      0x00\n        /* \"#utility.yul\":6822:6831   */\n      dup4\n        /* \"#utility.yul\":6818:6835   */\n      add\n        /* \"#utility.yul\":6811:6858   */\n      mstore\n        /* \"#utility.yul\":6875:7006   */\n      tag_284\n        /* \"#utility.yul\":7001:7005   */\n      dup2\n        /* \"#utility.yul\":6875:7006   */\n      tag_201\n      jump\t// in\n    tag_284:\n        /* \"#utility.yul\":6867:7006   */\n      swap1\n      pop\n        /* \"#utility.yul\":6594:7013   */\n      swap2\n      swap1\n      pop\n      jump\t// out\n        /* \"#utility.yul\":7019:7199   */\n    tag_202:\n        /* \"#utility.yul\":7067:7144   */\n      0x4e487b7100000000000000000000000000000000000000000000000000000000\n        /* \"#utility.yul\":7064:7065   */\n      0x00\n        /* \"#utility.yul\":7057:7145   */\n      mstore\n        /* \"#utility.yul\":7164:7168   */\n      0x11\n        /* \"#utility.yul\":7161:7162   */\n      0x04\n        /* \"#utility.yul\":7154:7169   */\n      mstore\n        /* \"#utility.yul\":7188:7192   */\n      0x24\n        /* \"#utility.yul\":7185:7186   */\n      0x00\n        /* \"#utility.yul\":7178:7193   */\n      revert\n        /* \"#utility.yul\":7205:7399   */\n    tag_80:\n        /* \"#utility.yul\":7245:7249   */\n      0x00\n        /* \"#utility.yul\":7265:7285   */\n      tag_287\n        /* \"#utility.yul\":7283:7284   */\n      dup3\n        /* \"#utility.yul\":7265:7285   */\n      tag_178\n      jump\t// in\n    tag_287:\n        /* \"#utility.yul\":7260:7285   */\n      swap2\n      pop\n        /* \"#utility.yul\":7299:7319   */\n      tag_288\n        /* \"#utility.yul\":7317:7318   */\n      dup4\n        /* \"#utility.yul\":7299:7319   */\n      tag_178\n      jump\t// in\n    tag_288:\n        /* \"#utility.yul\":7294:7319   */\n      swap3\n      pop\n        /* \"#utility.yul\":7343:7344   */\n      dup3\n        /* \"#utility.yul\":7340:7341   */\n      dup3\n        /* \"#utility.yul\":7336:7345   */\n      sub\n        /* \"#utility.yul\":7328:7345   */\n      swap1\n      pop\n        /* \"#utility.yul\":7367:7368   */\n      dup2\n        /* \"#utility.yul\":7361:7365   */\n      dup2\n        /* \"#utility.yul\":7358:7369   */\n      gt\n        /* \"#utility.yul\":7355:7392   */\n      iszero\n      tag_289\n      jumpi\n        /* \"#utility.yul\":7372:7390   */\n      tag_290\n      tag_202\n      jump\t// in\n    tag_290:\n        /* \"#utility.yul\":7355:7392   */\n    tag_289:\n        /* \"#utility.yul\":7205:7399   */\n      swap3\n      swap2\n      pop\n      pop\n      jump\t// out\n        /* \"#utility.yul\":7405:7585   */\n    tag_83:\n        /* \"#utility.yul\":7453:7530   */\n      0x4e487b7100000000000000000000000000000000000000000000000000000000\n        /* \"#utility.yul\":7450:7451   */\n      0x00\n        /* \"#utility.yul\":7443:7531   */\n      mstore\n        /* \"#utility.yul\":7550:7554   */\n      0x32\n        /* \"#utility.yul\":7547:7548   */\n      0x04\n        /* \"#utility.yul\":7540:7555   */\n      mstore\n        /* \"#utility.yul\":7574:7578   */\n      0x24\n        /* \"#utility.yul\":7571:7572   */\n      0x00\n        /* \"#utility.yul\":7564:7579   */\n      revert\n        /* \"#utility.yul\":7591:7782   */\n    tag_90:\n        /* \"#utility.yul\":7631:7634   */\n      0x00\n        /* \"#utility.yul\":7650:7670   */\n      tag_293\n        /* \"#utility.yul\":7668:7669   */\n      dup3\n        /* \"#utility.yul\":7650:7670   */\n      tag_178\n      jump\t// in\n    tag_293:\n        /* \"#utility.yul\":7645:7670   */\n      swap2\n      pop\n        /* \"#utility.yul\":7684:7704   */\n      tag_294\n        /* \"#utility.yul\":7702:7703   */\n      dup4\n        /* \"#utility.yul\":7684:7704   */\n      tag_178\n      jump\t// in\n    tag_294:\n        /* \"#utility.yul\":7679:7704   */\n      swap3\n      pop\n        /* \"#utility.yul\":7727:7728   */\n      dup3\n        /* \"#utility.yul\":7724:7725   */\n      dup3\n        /* \"#utility.yul\":7720:7729   */\n      add\n        /* \"#utility.yul\":7713:7729   */\n      swap1\n      pop\n        /* \"#utility.yul\":7748:7751   */\n      dup1\n        /* \"#utility.yul\":7745:7746   */\n      dup3\n        /* \"#utility.yul\":7742:7752   */\n      gt\n        /* \"#utility.yul\":7739:7775   */\n      iszero\n      tag_295\n      jumpi\n        /* \"#utility.yul\":7755:7773   */\n      tag_296\n      tag_202\n      jump\t// in\n    tag_296:\n        /* \"#utility.yul\":7739:7775   */\n    tag_295:\n        /* \"#utility.yul\":7591:7782   */\n      swap3\n      swap2\n      pop\n      pop\n      jump\t// out\n        /* \"#utility.yul\":7788:7962   */\n    tag_203:\n        /* \"#utility.yul\":7928:7954   */\n      0x4e6f20686179206e616461207061726120726574697261720000000000000000\n        /* \"#utility.yul\":7924:7925   */\n      0x00\n        /* \"#utility.yul\":7916:7922   */\n      dup3\n        /* \"#utility.yul\":7912:7926   */\n      add\n        /* \"#utility.yul\":7905:7955   */\n      mstore\n        /* \"#utility.yul\":7788:7962   */\n      pop\n      jump\t// out\n        /* \"#utility.yul\":7968:8334   */\n    tag_204:\n        /* \"#utility.yul\":8110:8113   */\n      0x00\n        /* \"#utility.yul\":8131:8198   */\n      tag_299\n        /* \"#utility.yul\":8195:8197   */\n      0x18\n        /* \"#utility.yul\":8190:8193   */\n      dup4\n        /* \"#utility.yul\":8131:8198   */\n      tag_199\n      jump\t// in\n    tag_299:\n        /* \"#utility.yul\":8124:8198   */\n      swap2\n      pop\n        /* \"#utility.yul\":8207:8300   */\n      tag_300\n        /* \"#utility.yul\":8296:8299   */\n      dup3\n        /* \"#utility.yul\":8207:8300   */\n      tag_203\n      jump\t// in\n    tag_300:\n        /* \"#utility.yul\":8325:8327   */\n      0x20\n        /* \"#utility.yul\":8320:8323   */\n      dup3\n        /* \"#utility.yul\":8316:8328   */\n      add\n        /* \"#utility.yul\":8309:8328   */\n      swap1\n      pop\n        /* \"#utility.yul\":7968:8334   */\n      swap2\n      swap1\n      pop\n      jump\t// out\n        /* \"#utility.yul\":8340:8759   */\n    tag_96:\n        /* \"#utility.yul\":8506:8510   */\n      0x00\n        /* \"#utility.yul\":8544:8546   */\n      0x20\n        /* \"#utility.yul\":8533:8542   */\n      dup3\n        /* \"#utility.yul\":8529:8547   */\n      add\n        /* \"#utility.yul\":8521:8547   */\n      swap1\n      pop\n        /* \"#utility.yul\":8593:8602   */\n      dup2\n        /* \"#utility.yul\":8587:8591   */\n      dup2\n        /* \"#utility.yul\":8583:8603   */\n      sub\n        /* \"#utility.yul\":8579:8580   */\n      0x00\n        /* \"#utility.yul\":8568:8577   */\n      dup4\n        /* \"#utility.yul\":8564:8581   */\n      add\n        /* \"#utility.yul\":8557:8604   */\n      mstore\n        /* \"#utility.yul\":8621:8752   */\n      tag_302\n        /* \"#utility.yul\":8747:8751   */\n      dup2\n        /* \"#utility.yul\":8621:8752   */\n      tag_204\n      jump\t// in\n    tag_302:\n        /* \"#utility.yul\":8613:8752   */\n      swap1\n      pop\n        /* \"#utility.yul\":8340:8759   */\n      swap2\n      swap1\n      pop\n      jump\t// out\n        /* \"#utility.yul\":8765:8998   */\n    tag_205:\n        /* \"#utility.yul\":8905:8939   */\n      0x536f6c6f20656c2073756261737461646f7220707565646520656a6563757461\n        /* \"#utility.yul\":8901:8902   */\n      0x00\n        /* \"#utility.yul\":8893:8899   */\n      dup3\n        /* \"#utility.yul\":8889:8903   */\n      add\n        /* \"#utility.yul\":8882:8940   */\n      mstore\n        /* \"#utility.yul\":8974:8990   */\n      0x7220657374612066756e63696f6e000000000000000000000000000000000000\n        /* \"#utility.yul\":8969:8971   */\n      0x20\n        /* \"#utility.yul\":8961:8967   */\n      dup3\n        /* \"#utility.yul\":8957:8972   */\n      add\n        /* \"#utility.yul\":8950:8991   */\n      mstore\n        /* \"#utility.yul\":8765:8998   */\n      pop\n      jump\t// out\n        /* \"#utility.yul\":9004:9370   */\n    tag_206:\n        /* \"#utility.yul\":9146:9149   */\n      0x00\n        /* \"#utility.yul\":9167:9234   */\n      tag_305\n        /* \"#utility.yul\":9231:9233   */\n      0x2e\n        /* \"#utility.yul\":9226:9229   */\n      dup4\n        /* \"#utility.yul\":9167:9234   */\n      tag_199\n      jump\t// in\n    tag_305:\n        /* \"#utility.yul\":9160:9234   */\n      swap2\n      pop\n        /* \"#utility.yul\":9243:9336   */\n      tag_306\n        /* \"#utility.yul\":9332:9335   */\n      dup3\n        /* \"#utility.yul\":9243:9336   */\n      tag_205\n      jump\t// in\n    tag_306:\n        /* \"#utility.yul\":9361:9363   */\n      0x40\n        /* \"#utility.yul\":9356:9359   */\n      dup3\n        /* \"#utility.yul\":9352:9364   */\n      add\n        /* \"#utility.yul\":9345:9364   */\n      swap1\n      pop\n        /* \"#utility.yul\":9004:9370   */\n      swap2\n      swap1\n      pop\n      jump\t// out\n        /* \"#utility.yul\":9376:9795   */\n    tag_102:\n        /* \"#utility.yul\":9542:9546   */\n      0x00\n        /* \"#utility.yul\":9580:9582   */\n      0x20\n        /* \"#utility.yul\":9569:9578   */\n      dup3\n        /* \"#utility.yul\":9565:9583   */\n      add\n        /* \"#utility.yul\":9557:9583   */\n      swap1\n      pop\n        /* \"#utility.yul\":9629:9638   */\n      dup2\n        /* \"#utility.yul\":9623:9627   */\n      dup2\n        /* \"#utility.yul\":9619:9639   */\n      sub\n        /* \"#utility.yul\":9615:9616   */\n      0x00\n        /* \"#utility.yul\":9604:9613   */\n      dup4\n        /* \"#utility.yul\":9600:9617   */\n      add\n        /* \"#utility.yul\":9593:9640   */\n      mstore\n        /* \"#utility.yul\":9657:9788   */\n      tag_308\n        /* \"#utility.yul\":9783:9787   */\n      dup2\n        /* \"#utility.yul\":9657:9788   */\n      tag_206\n      jump\t// in\n    tag_308:\n        /* \"#utility.yul\":9649:9788   */\n      swap1\n      pop\n        /* \"#utility.yul\":9376:9795   */\n      swap2\n      swap1\n      pop\n      jump\t// out\n        /* \"#utility.yul\":9801:9977   */\n    tag_207:\n        /* \"#utility.yul\":9941:9969   */\n      0x4c612073756261737461206e6f206861207465726d696e61646f000000000000\n        /* \"#utility.yul\":9937:9938   */\n      0x00\n        /* \"#utility.yul\":9929:9935   */\n      dup3\n        /* \"#utility.yul\":9925:9939   */\n      add\n        /* \"#utility.yul\":9918:9970   */\n      mstore\n        /* \"#utility.yul\":9801:9977   */\n      pop\n      jump\t// out\n        /* \"#utility.yul\":9983:10349   */\n    tag_208:\n        /* \"#utility.yul\":10125:10128   */\n      0x00\n        /* \"#utility.yul\":10146:10213   */\n      tag_311\n        /* \"#utility.yul\":10210:10212   */\n      0x1a\n        /* \"#utility.yul\":10205:10208   */\n      dup4\n        /* \"#utility.yul\":10146:10213   */\n      tag_199\n      jump\t// in\n    tag_311:\n        /* \"#utility.yul\":10139:10213   */\n      swap2\n      pop\n        /* \"#utility.yul\":10222:10315   */\n      tag_312\n        /* \"#utility.yul\":10311:10314   */\n      dup3\n        /* \"#utility.yul\":10222:10315   */\n      tag_207\n      jump\t// in\n    tag_312:\n        /* \"#utility.yul\":10340:10342   */\n      0x20\n        /* \"#utility.yul\":10335:10338   */\n      dup3\n        /* \"#utility.yul\":10331:10343   */\n      add\n        /* \"#utility.yul\":10324:10343   */\n      swap1\n      pop\n        /* \"#utility.yul\":9983:10349   */\n      swap2\n      swap1\n      pop\n      jump\t// out\n        /* \"#utility.yul\":10355:10774   */\n    tag_106:\n        /* \"#utility.yul\":10521:10525   */\n      0x00\n        /* \"#utility.yul\":10559:10561   */\n      0x20\n        /* \"#utility.yul\":10548:10557   */\n      dup3\n        /* \"#utility.yul\":10544:10562   */\n      add\n        /* \"#utility.yul\":10536:10562   */\n      swap1\n      pop\n        /* \"#utility.yul\":10608:10617   */\n      dup2\n        /* \"#utility.yul\":10602:10606   */\n      dup2\n        /* \"#utility.yul\":10598:10618   */\n      sub\n        /* \"#utility.yul\":10594:10595   */\n      0x00\n        /* \"#utility.yul\":10583:10592   */\n      dup4\n        /* \"#utility.yul\":10579:10596   */\n      add\n        /* \"#utility.yul\":10572:10619   */\n      mstore\n        /* \"#utility.yul\":10636:10767   */\n      tag_314\n        /* \"#utility.yul\":10762:10766   */\n      dup2\n        /* \"#utility.yul\":10636:10767   */\n      tag_208\n      jump\t// in\n    tag_314:\n        /* \"#utility.yul\":10628:10767   */\n      swap1\n      pop\n        /* \"#utility.yul\":10355:10774   */\n      swap2\n      swap1\n      pop\n      jump\t// out\n        /* \"#utility.yul\":10780:11190   */\n    tag_122:\n        /* \"#utility.yul\":10820:10827   */\n      0x00\n        /* \"#utility.yul\":10843:10863   */\n      tag_316\n        /* \"#utility.yul\":10861:10862   */\n      dup3\n        /* \"#utility.yul\":10843:10863   */\n      tag_178\n      jump\t// in\n    tag_316:\n        /* \"#utility.yul\":10838:10863   */\n      swap2\n      pop\n        /* \"#utility.yul\":10877:10897   */\n      tag_317\n        /* \"#utility.yul\":10895:10896   */\n      dup4\n        /* \"#utility.yul\":10877:10897   */\n      tag_178\n      jump\t// in\n    tag_317:\n        /* \"#utility.yul\":10872:10897   */\n      swap3\n      pop\n        /* \"#utility.yul\":10932:10933   */\n      dup3\n        /* \"#utility.yul\":10929:10930   */\n      dup3\n        /* \"#utility.yul\":10925:10934   */\n      mul\n        /* \"#utility.yul\":10954:10984   */\n      tag_318\n        /* \"#utility.yul\":10972:10983   */\n      dup2\n        /* \"#utility.yul\":10954:10984   */\n      tag_178\n      jump\t// in\n    tag_318:\n        /* \"#utility.yul\":10943:10984   */\n      swap2\n      pop\n        /* \"#utility.yul\":11133:11134   */\n      dup3\n        /* \"#utility.yul\":11124:11131   */\n      dup3\n        /* \"#utility.yul\":11120:11135   */\n      div\n        /* \"#utility.yul\":11117:11118   */\n      dup5\n        /* \"#utility.yul\":11114:11136   */\n      eq\n        /* \"#utility.yul\":11094:11095   */\n      dup4\n        /* \"#utility.yul\":11087:11096   */\n      iszero\n        /* \"#utility.yul\":11067:11150   */\n      or\n        /* \"#utility.yul\":11044:11183   */\n      tag_319\n      jumpi\n        /* \"#utility.yul\":11163:11181   */\n      tag_320\n      tag_202\n      jump\t// in\n    tag_320:\n        /* \"#utility.yul\":11044:11183   */\n    tag_319:\n        /* \"#utility.yul\":10828:11190   */\n      pop\n        /* \"#utility.yul\":10780:11190   */\n      swap3\n      swap2\n      pop\n      pop\n      jump\t// out\n        /* \"#utility.yul\":11196:11376   */\n    tag_209:\n        /* \"#utility.yul\":11244:11321   */\n      0x4e487b7100000000000000000000000000000000000000000000000000000000\n        /* \"#utility.yul\":11241:11242   */\n      0x00\n        /* \"#utility.yul\":11234:11322   */\n      mstore\n        /* \"#utility.yul\":11341:11345   */\n      0x12\n        /* \"#utility.yul\":11338:11339   */\n      0x04\n        /* \"#utility.yul\":11331:11346   */\n      mstore\n        /* \"#utility.yul\":11365:11369   */\n      0x24\n        /* \"#utility.yul\":11362:11363   */\n      0x00\n        /* \"#utility.yul\":11355:11370   */\n      revert\n        /* \"#utility.yul\":11382:11567   */\n    tag_124:\n        /* \"#utility.yul\":11422:11423   */\n      0x00\n        /* \"#utility.yul\":11439:11459   */\n      tag_323\n        /* \"#utility.yul\":11457:11458   */\n      dup3\n        /* \"#utility.yul\":11439:11459   */\n      tag_178\n      jump\t// in\n    tag_323:\n        /* \"#utility.yul\":11434:11459   */\n      swap2\n      pop\n        /* \"#utility.yul\":11473:11493   */\n      tag_324\n        /* \"#utility.yul\":11491:11492   */\n      dup4\n        /* \"#utility.yul\":11473:11493   */\n      tag_178\n      jump\t// in\n    tag_324:\n        /* \"#utility.yul\":11468:11493   */\n      swap3\n      pop\n        /* \"#utility.yul\":11512:11513   */\n      dup3\n        /* \"#utility.yul\":11502:11537   */\n      tag_325\n      jumpi\n        /* \"#utility.yul\":11517:11535   */\n      tag_326\n      tag_209\n      jump\t// in\n    tag_326:\n        /* \"#utility.yul\":11502:11537   */\n    tag_325:\n        /* \"#utility.yul\":11559:11560   */\n      dup3\n        /* \"#utility.yul\":11556:11557   */\n      dup3\n        /* \"#utility.yul\":11552:11561   */\n      div\n        /* \"#utility.yul\":11547:11561   */\n      swap1\n      pop\n        /* \"#utility.yul\":11382:11567   */\n      swap3\n      swap2\n      pop\n      pop\n      jump\t// out\n        /* \"#utility.yul\":11573:11820   */\n    tag_210:\n        /* \"#utility.yul\":11713:11747   */\n      0x4c61206f666572746120646562652073657220616c206d656e6f7320756e2035\n        /* \"#utility.yul\":11709:11710   */\n      0x00\n        /* \"#utility.yul\":11701:11707   */\n      dup3\n        /* \"#utility.yul\":11697:11711   */\n      add\n        /* \"#utility.yul\":11690:11748   */\n      mstore\n        /* \"#utility.yul\":11782:11812   */\n      0x25206d61796f7220717565206c61206f66657274612061637475616c00000000\n        /* \"#utility.yul\":11777:11779   */\n      0x20\n        /* \"#utility.yul\":11769:11775   */\n      dup3\n        /* \"#utility.yul\":11765:11780   */\n      add\n        /* \"#utility.yul\":11758:11813   */\n      mstore\n        /* \"#utility.yul\":11573:11820   */\n      pop\n      jump\t// out\n        /* \"#utility.yul\":11826:12192   */\n    tag_211:\n        /* \"#utility.yul\":11968:11971   */\n      0x00\n        /* \"#utility.yul\":11989:12056   */\n      tag_329\n        /* \"#utility.yul\":12053:12055   */\n      0x3c\n        /* \"#utility.yul\":12048:12051   */\n      dup4\n        /* \"#utility.yul\":11989:12056   */\n      tag_199\n      jump\t// in\n    tag_329:\n        /* \"#utility.yul\":11982:12056   */\n      swap2\n      pop\n        /* \"#utility.yul\":12065:12158   */\n      tag_330\n        /* \"#utility.yul\":12154:12157   */\n      dup3\n        /* \"#utility.yul\":12065:12158   */\n      tag_210\n      jump\t// in\n    tag_330:\n        /* \"#utility.yul\":12183:12185   */\n      0x40\n        /* \"#utility.yul\":12178:12181   */\n      dup3\n        /* \"#utility.yul\":12174:12186   */\n      add\n        /* \"#utility.yul\":12167:12186   */\n      swap1\n      pop\n        /* \"#utility.yul\":11826:12192   */\n      swap2\n      swap1\n      pop\n      jump\t// out\n        /* \"#utility.yul\":12198:12617   */\n    tag_127:\n        /* \"#utility.yul\":12364:12368   */\n      0x00\n        /* \"#utility.yul\":12402:12404   */\n      0x20\n        /* \"#utility.yul\":12391:12400   */\n      dup3\n        /* \"#utility.yul\":12387:12405   */\n      add\n        /* \"#utility.yul\":12379:12405   */\n      swap1\n      pop\n        /* \"#utility.yul\":12451:12460   */\n      dup2\n        /* \"#utility.yul\":12445:12449   */\n      dup2\n        /* \"#utility.yul\":12441:12461   */\n      sub\n        /* \"#utility.yul\":12437:12438   */\n      0x00\n        /* \"#utility.yul\":12426:12435   */\n      dup4\n        /* \"#utility.yul\":12422:12439   */\n      add\n        /* \"#utility.yul\":12415:12462   */\n      mstore\n        /* \"#utility.yul\":12479:12610   */\n      tag_332\n        /* \"#utility.yul\":12605:12609   */\n      dup2\n        /* \"#utility.yul\":12479:12610   */\n      tag_211\n      jump\t// in\n    tag_332:\n        /* \"#utility.yul\":12471:12610   */\n      swap1\n      pop\n        /* \"#utility.yul\":12198:12617   */\n      swap2\n      swap1\n      pop\n      jump\t// out\n        /* \"#utility.yul\":12623:12796   */\n    tag_212:\n        /* \"#utility.yul\":12763:12788   */\n      0x4c612073756261737461206861207465726d696e61646f000000000000000000\n        /* \"#utility.yul\":12759:12760   */\n      0x00\n        /* \"#utility.yul\":12751:12757   */\n      dup3\n        /* \"#utility.yul\":12747:12761   */\n      add\n        /* \"#utility.yul\":12740:12789   */\n      mstore\n        /* \"#utility.yul\":12623:12796   */\n      pop\n      jump\t// out\n        /* \"#utility.yul\":12802:13168   */\n    tag_213:\n        /* \"#utility.yul\":12944:12947   */\n      0x00\n        /* \"#utility.yul\":12965:13032   */\n      tag_335\n        /* \"#utility.yul\":13029:13031   */\n      0x17\n        /* \"#utility.yul\":13024:13027   */\n      dup4\n        /* \"#utility.yul\":12965:13032   */\n      tag_199\n      jump\t// in\n    tag_335:\n        /* \"#utility.yul\":12958:13032   */\n      swap2\n      pop\n        /* \"#utility.yul\":13041:13134   */\n      tag_336\n        /* \"#utility.yul\":13130:13133   */\n      dup3\n        /* \"#utility.yul\":13041:13134   */\n      tag_212\n      jump\t// in\n    tag_336:\n        /* \"#utility.yul\":13159:13161   */\n      0x20\n        /* \"#utility.yul\":13154:13157   */\n      dup3\n        /* \"#utility.yul\":13150:13162   */\n      add\n        /* \"#utility.yul\":13143:13162   */\n      swap1\n      pop\n        /* \"#utility.yul\":12802:13168   */\n      swap2\n      swap1\n      pop\n      jump\t// out\n        /* \"#utility.yul\":13174:13593   */\n    tag_130:\n        /* \"#utility.yul\":13340:13344   */\n      0x00\n        /* \"#utility.yul\":13378:13380   */\n      0x20\n        /* \"#utility.yul\":13367:13376   */\n      dup3\n        /* \"#utility.yul\":13363:13381   */\n      add\n        /* \"#utility.yul\":13355:13381   */\n      swap1\n      pop\n        /* \"#utility.yul\":13427:13436   */\n      dup2\n        /* \"#utility.yul\":13421:13425   */\n      dup2\n        /* \"#utility.yul\":13417:13437   */\n      sub\n        /* \"#utility.yul\":13413:13414   */\n      0x00\n        /* \"#utility.yul\":13402:13411   */\n      dup4\n        /* \"#utility.yul\":13398:13415   */\n      add\n        /* \"#utility.yul\":13391:13438   */\n      mstore\n        /* \"#utility.yul\":13455:13586   */\n      tag_338\n        /* \"#utility.yul\":13581:13585   */\n      dup2\n        /* \"#utility.yul\":13455:13586   */\n      tag_213\n      jump\t// in\n    tag_338:\n        /* \"#utility.yul\":13447:13586   */\n      swap1\n      pop\n        /* \"#utility.yul\":13174:13593   */\n      swap2\n      swap1\n      pop\n      jump\t// out\n        /* \"#utility.yul\":13599:13771   */\n    tag_214:\n        /* \"#utility.yul\":13739:13763   */\n      0x4c61207375626173746120657374612061637469766100000000000000000000\n        /* \"#utility.yul\":13735:13736   */\n      0x00\n        /* \"#utility.yul\":13727:13733   */\n      dup3\n        /* \"#utility.yul\":13723:13737   */\n      add\n        /* \"#utility.yul\":13716:13764   */\n      mstore\n        /* \"#utility.yul\":13599:13771   */\n      pop\n      jump\t// out\n        /* \"#utility.yul\":13777:14143   */\n    tag_215:\n        /* \"#utility.yul\":13919:13922   */\n      0x00\n        /* \"#utility.yul\":13940:14007   */\n      tag_341\n        /* \"#utility.yul\":14004:14006   */\n      0x16\n        /* \"#utility.yul\":13999:14002   */\n      dup4\n        /* \"#utility.yul\":13940:14007   */\n      tag_199\n      jump\t// in\n    tag_341:\n        /* \"#utility.yul\":13933:14007   */\n      swap2\n      pop\n        /* \"#utility.yul\":14016:14109   */\n      tag_342\n        /* \"#utility.yul\":14105:14108   */\n      dup3\n        /* \"#utility.yul\":14016:14109   */\n      tag_214\n      jump\t// in\n    tag_342:\n        /* \"#utility.yul\":14134:14136   */\n      0x20\n        /* \"#utility.yul\":14129:14132   */\n      dup3\n        /* \"#utility.yul\":14125:14137   */\n      add\n        /* \"#utility.yul\":14118:14137   */\n      swap1\n      pop\n        /* \"#utility.yul\":13777:14143   */\n      swap2\n      swap1\n      pop\n      jump\t// out\n        /* \"#utility.yul\":14149:14568   */\n    tag_140:\n        /* \"#utility.yul\":14315:14319   */\n      0x00\n        /* \"#utility.yul\":14353:14355   */\n      0x20\n        /* \"#utility.yul\":14342:14351   */\n      dup3\n        /* \"#utility.yul\":14338:14356   */\n      add\n        /* \"#utility.yul\":14330:14356   */\n      swap1\n      pop\n        /* \"#utility.yul\":14402:14411   */\n      dup2\n        /* \"#utility.yul\":14396:14400   */\n      dup2\n        /* \"#utility.yul\":14392:14412   */\n      sub\n        /* \"#utility.yul\":14388:14389   */\n      0x00\n        /* \"#utility.yul\":14377:14386   */\n      dup4\n        /* \"#utility.yul\":14373:14390   */\n      add\n        /* \"#utility.yul\":14366:14413   */\n      mstore\n        /* \"#utility.yul\":14430:14561   */\n      tag_344\n        /* \"#utility.yul\":14556:14560   */\n      dup2\n        /* \"#utility.yul\":14430:14561   */\n      tag_215\n      jump\t// in\n    tag_344:\n        /* \"#utility.yul\":14422:14561   */\n      swap1\n      pop\n        /* \"#utility.yul\":14149:14568   */\n      swap2\n      swap1\n      pop\n      jump\t// out\n        /* \"#utility.yul\":14574:14721   */\n    tag_216:\n        /* \"#utility.yul\":14675:14686   */\n      0x00\n        /* \"#utility.yul\":14712:14715   */\n      dup2\n        /* \"#utility.yul\":14697:14715   */\n      swap1\n      pop\n        /* \"#utility.yul\":14574:14721   */\n      swap3\n      swap2\n      pop\n      pop\n      jump\t// out\n        /* \"#utility.yul\":14727:14841   */\n    tag_217:\n      pop\n      jump\t// out\n        /* \"#utility.yul\":14847:15245   */\n    tag_218:\n        /* \"#utility.yul\":15006:15009   */\n      0x00\n        /* \"#utility.yul\":15027:15110   */\n      tag_348\n        /* \"#utility.yul\":15108:15109   */\n      0x00\n        /* \"#utility.yul\":15103:15106   */\n      dup4\n        /* \"#utility.yul\":15027:15110   */\n      tag_216\n      jump\t// in\n    tag_348:\n        /* \"#utility.yul\":15020:15110   */\n      swap2\n      pop\n        /* \"#utility.yul\":15119:15212   */\n      tag_349\n        /* \"#utility.yul\":15208:15211   */\n      dup3\n        /* \"#utility.yul\":15119:15212   */\n      tag_217\n      jump\t// in\n    tag_349:\n        /* \"#utility.yul\":15237:15238   */\n      0x00\n        /* \"#utility.yul\":15232:15235   */\n      dup3\n        /* \"#utility.yul\":15228:15239   */\n      add\n        /* \"#utility.yul\":15221:15239   */\n      swap1\n      pop\n        /* \"#utility.yul\":14847:15245   */\n      swap2\n      swap1\n      pop\n      jump\t// out\n        /* \"#utility.yul\":15251:15630   */\n    tag_160:\n        /* \"#utility.yul\":15435:15438   */\n      0x00\n        /* \"#utility.yul\":15457:15604   */\n      tag_351\n        /* \"#utility.yul\":15600:15603   */\n      dup3\n        /* \"#utility.yul\":15457:15604   */\n      tag_218\n      jump\t// in\n    tag_351:\n        /* \"#utility.yul\":15450:15604   */\n      swap2\n      pop\n        /* \"#utility.yul\":15621:15624   */\n      dup2\n        /* \"#utility.yul\":15614:15624   */\n      swap1\n      pop\n        /* \"#utility.yul\":15251:15630   */\n      swap2\n      swap1\n      pop\n      jump\t// out\n        /* \"#utility.yul\":15636:15818   */\n    tag_219:\n        /* \"#utility.yul\":15776:15810   */\n      0x46616c6c6f20616c207265656d626f6c73617220616c206f66657274616e7465\n        /* \"#utility.yul\":15772:15773   */\n      0x00\n        /* \"#utility.yul\":15764:15770   */\n      dup3\n        /* \"#utility.yul\":15760:15774   */\n      add\n        /* \"#utility.yul\":15753:15811   */\n      mstore\n        /* \"#utility.yul\":15636:15818   */\n      pop\n      jump\t// out\n        /* \"#utility.yul\":15824:16190   */\n    tag_220:\n        /* \"#utility.yul\":15966:15969   */\n      0x00\n        /* \"#utility.yul\":15987:16054   */\n      tag_354\n        /* \"#utility.yul\":16051:16053   */\n      0x20\n        /* \"#utility.yul\":16046:16049   */\n      dup4\n        /* \"#utility.yul\":15987:16054   */\n      tag_199\n      jump\t// in\n    tag_354:\n        /* \"#utility.yul\":15980:16054   */\n      swap2\n      pop\n        /* \"#utility.yul\":16063:16156   */\n      tag_355\n        /* \"#utility.yul\":16152:16155   */\n      dup3\n        /* \"#utility.yul\":16063:16156   */\n      tag_219\n      jump\t// in\n    tag_355:\n        /* \"#utility.yul\":16181:16183   */\n      0x20\n        /* \"#utility.yul\":16176:16179   */\n      dup3\n        /* \"#utility.yul\":16172:16184   */\n      add\n        /* \"#utility.yul\":16165:16184   */\n      swap1\n      pop\n        /* \"#utility.yul\":15824:16190   */\n      swap2\n      swap1\n      pop\n      jump\t// out\n        /* \"#utility.yul\":16196:16615   */\n    tag_166:\n        /* \"#utility.yul\":16362:16366   */\n      0x00\n        /* \"#utility.yul\":16400:16402   */\n      0x20\n        /* \"#utility.yul\":16389:16398   */\n      dup3\n        /* \"#utility.yul\":16385:16403   */\n      add\n        /* \"#utility.yul\":16377:16403   */\n      swap1\n      pop\n        /* \"#utility.yul\":16449:16458   */\n      dup2\n        /* \"#utility.yul\":16443:16447   */\n      dup2\n        /* \"#utility.yul\":16439:16459   */\n      sub\n        /* \"#utility.yul\":16435:16436   */\n      0x00\n        /* \"#utility.yul\":16424:16433   */\n      dup4\n        /* \"#utility.yul\":16420:16437   */\n      add\n        /* \"#utility.yul\":16413:16460   */\n      mstore\n        /* \"#utility.yul\":16477:16608   */\n      tag_357\n        /* \"#utility.yul\":16603:16607   */\n      dup2\n        /* \"#utility.yul\":16477:16608   */\n      tag_220\n      jump\t// in\n    tag_357:\n        /* \"#utility.yul\":16469:16608   */\n      swap1\n      pop\n        /* \"#utility.yul\":16196:16615   */\n      swap2\n      swap1\n      pop\n      jump\t// out\n\n    auxdata: 0xa26469706673582212206fc350a6f03340cb1705f2e9b6c2ff653044db10c0fc7f8c3eecd53c7e0531d964736f6c634300081a0033\n}\n",
				"bytecode": {
					"linkReferences": {},
					"object": "608060405261012c600255600260045534801561001a575f80fd5b506040516116a63803806116a6833981810160405281019061003c9190610190565b335f806101000a81548173ffffffffffffffffffffffffffffffffffffffff021916908373ffffffffffffffffffffffffffffffffffffffff16021790555080600381905550600160065f6101000a81548160ff021916908315150217905550600254426100aa91906101e8565b600181905550600560405180604001604052803373ffffffffffffffffffffffffffffffffffffffff16815260200183815250908060018154018082558091505060019003905f5260205f2090600202015f909190919091505f820151815f015f6101000a81548173ffffffffffffffffffffffffffffffffffffffff021916908373ffffffffffffffffffffffffffffffffffffffff1602179055506020820151816001015550505061021b565b5f80fd5b5f819050919050565b61016f8161015d565b8114610179575f80fd5b50565b5f8151905061018a81610166565b92915050565b5f602082840312156101a5576101a4610159565b5b5f6101b28482850161017c565b91505092915050565b7f4e487b71000000000000000000000000000000000000000000000000000000005f52601160045260245ffd5b5f6101f28261015d565b91506101fd8361015d565b9250828201905080821115610215576102146101bb565b5b92915050565b61147e806102285f395ff3fe6080604052600436106100c1575f3560e01c80635dfe78f71161007e578063c442a99f11610058578063c442a99f146101f6578063dfea620f14610220578063e01070771461024a578063e2bf4f6014610274576100c1565b80635dfe78f7146101655780639257a3db1461018f578063a07b6925146101cc576100c1565b806301d65bd3146100c55780630851eac2146100db5780630dfe4c35146100f15780633dfa138d1461011b5780633ec059d7146101455780635298a3c41461014f575b5f80fd5b3480156100d0575f80fd5b506100d961029e565b005b3480156100e6575f80fd5b506100ef610499565b005b3480156100fc575f80fd5b5061010561064f565b6040516101129190610cd6565b60405180910390f35b348015610126575f80fd5b5061012f610655565b60405161013c9190610d2e565b60405180910390f35b61014d610678565b005b34801561015a575f80fd5b50610163610879565b005b348015610170575f80fd5b50610179610b57565b6040516101869190610d61565b60405180910390f35b34801561019a575f80fd5b506101b560048036038101906101b09190610da8565b610b69565b6040516101c3929190610dd3565b60405180910390f35b3480156101d7575f80fd5b506101e0610bb7565b6040516101ed9190610cd6565b60405180910390f35b348015610201575f80fd5b5061020a610bbd565b6040516102179190610eed565b60405180910390f35b34801561022b575f80fd5b50610234610c77565b6040516102419190610cd6565b60405180910390f35b348015610255575f80fd5b5061025e610c7d565b60405161026b9190610cd6565b60405180910390f35b34801561027f575f80fd5b50610288610c83565b6040516102959190610cd6565b60405180910390f35b60065f9054906101000a900460ff166102ec576040517f08c379a00000000000000000000000000000000000000000000000000000000081526004016102e390610f67565b60405180910390fd5b5f8060058054905090505f5b6001826103059190610fb2565b81101561040e573373ffffffffffffffffffffffffffffffffffffffff166005828154811061033757610336610fe5565b5b905f5260205f2090600202015f015f9054906101000a900473ffffffffffffffffffffffffffffffffffffffff1673ffffffffffffffffffffffffffffffffffffffff1603610401576005818154811061039457610393610fe5565b5b905f5260205f20906002020160010154836103af9190611012565b9250600581815481106103c5576103c4610fe5565b5b905f5260205f2090600202015f8082015f6101000a81549073ffffffffffffffffffffffffffffffffffffffff0219169055600182015f905550505b80806001019150506102f8565b505f8211610451576040517f08c379a00000000000000000000000000000000000000000000000000000000081526004016104489061108f565b60405180910390fd5b3373ffffffffffffffffffffffffffffffffffffffff166108fc8390811502906040515f60405180830381858888f19350505050158015610494573d5f803e3d5ffd5b505050565b5f8054906101000a900473ffffffffffffffffffffffffffffffffffffffff1673ffffffffffffffffffffffffffffffffffffffff163373ffffffffffffffffffffffffffffffffffffffff1614610526576040517f08c379a000000000000000000000000000000000000000000000000000000000815260040161051d9061111d565b60405180910390fd5b60015442101561056b576040517f08c379a000000000000000000000000000000000000000000000000000000000815260040161056290611185565b60405180910390fd5b5f60065f6101000a81548160ff0219169083151502179055505f600560016005805490506105999190610fb2565b815481106105aa576105a9610fe5565b5b905f5260205f2090600202015f015f9054906101000a900473ffffffffffffffffffffffffffffffffffffffff1690505f600560016005805490506105ef9190610fb2565b81548110610600576105ff610fe5565b5b905f5260205f2090600202016001015490507fa3a65b403bdae88eb037f4ecc1d619f436fc3ef6bcbbee3787757164e82883f28282604051610643929190610dd3565b60405180910390a15050565b60015481565b5f8054906101000a900473ffffffffffffffffffffffffffffffffffffffff1681565b60065f9054906101000a900460ff166106c6576040517f08c379a00000000000000000000000000000000000000000000000000000000081526004016106bd90610f67565b60405180910390fd5b606460696106d2610c83565b6106dc91906111a3565b6106e69190611211565b341015610728576040517f08c379a000000000000000000000000000000000000000000000000000000000815260040161071f906112b1565b60405180910390fd5b600154421061076c576040517f08c379a000000000000000000000000000000000000000000000000000000000815260040161076390611319565b60405180910390fd5b60025460015f82825461077f9190611012565b92505081905550600560405180604001604052803373ffffffffffffffffffffffffffffffffffffffff16815260200134815250908060018154018082558091505060019003905f5260205f2090600202015f909190919091505f820151815f015f6101000a81548173ffffffffffffffffffffffffffffffffffffffff021916908373ffffffffffffffffffffffffffffffffffffffff1602179055506020820151816001015550503373ffffffffffffffffffffffffffffffffffffffff167f155d469211f46e4d9ae974606f0878f9aacc6198ba30a1e6b9c8cf5627352fb53460405161086f9190610cd6565b60405180910390a2565b5f8054906101000a900473ffffffffffffffffffffffffffffffffffffffff1673ffffffffffffffffffffffffffffffffffffffff163373ffffffffffffffffffffffffffffffffffffffff1614610906576040517f08c379a00000000000000000000000000000000000000000000000000000000081526004016108fd9061111d565b60405180910390fd5b60065f9054906101000a900460ff1615610955576040517f08c379a000000000000000000000000000000000000000000000000000000000815260040161094c90611381565b60405180910390fd5b5f60058054905090505f600560018361096e9190610fb2565b8154811061097f5761097e610fe5565b5b905f5260205f2090600202015f015f9054906101000a900473ffffffffffffffffffffffffffffffffffffffff1690505f600190505b6001836109c29190610fb2565b811015610b52575f600582815481106109de576109dd610fe5565b5b905f5260205f2090600202015f015f9054906101000a900473ffffffffffffffffffffffffffffffffffffffff1690505f60058381548110610a2357610a22610fe5565b5b905f5260205f2090600202016001015490508373ffffffffffffffffffffffffffffffffffffffff168273ffffffffffffffffffffffffffffffffffffffff1603610a6f575050610b45565b5f60646004546064610a819190610fb2565b83610a8c91906111a3565b610a969190611211565b90505f8373ffffffffffffffffffffffffffffffffffffffff1682604051610abd906113cc565b5f6040518083038185875af1925050503d805f8114610af7576040519150601f19603f3d011682016040523d82523d5f602084013e610afc565b606091505b5050905080610b40576040517f08c379a0000000000000000000000000000000000000000000000000000000008152600401610b379061142a565b60405180910390fd5b505050505b80806001019150506109b5565b505050565b60065f9054906101000a900460ff1681565b60058181548110610b78575f80fd5b905f5260205f2090600202015f91509050805f015f9054906101000a900473ffffffffffffffffffffffffffffffffffffffff16908060010154905082565b60045481565b60606005805480602002602001604051908101604052809291908181526020015f905b82821015610c6e578382905f5260205f2090600202016040518060400160405290815f82015f9054906101000a900473ffffffffffffffffffffffffffffffffffffffff1673ffffffffffffffffffffffffffffffffffffffff1673ffffffffffffffffffffffffffffffffffffffff16815260200160018201548152505081526020019060010190610be0565b50505050905090565b60025481565b60035481565b5f60056001600580549050610c989190610fb2565b81548110610ca957610ca8610fe5565b5b905f5260205f20906002020160010154905090565b5f819050919050565b610cd081610cbe565b82525050565b5f602082019050610ce95f830184610cc7565b92915050565b5f73ffffffffffffffffffffffffffffffffffffffff82169050919050565b5f610d1882610cef565b9050919050565b610d2881610d0e565b82525050565b5f602082019050610d415f830184610d1f565b92915050565b5f8115159050919050565b610d5b81610d47565b82525050565b5f602082019050610d745f830184610d52565b92915050565b5f80fd5b610d8781610cbe565b8114610d91575f80fd5b50565b5f81359050610da281610d7e565b92915050565b5f60208284031215610dbd57610dbc610d7a565b5b5f610dca84828501610d94565b91505092915050565b5f604082019050610de65f830185610d1f565b610df36020830184610cc7565b9392505050565b5f81519050919050565b5f82825260208201905092915050565b5f819050602082019050919050565b610e2c81610d0e565b82525050565b610e3b81610cbe565b82525050565b604082015f820151610e555f850182610e23565b506020820151610e686020850182610e32565b50505050565b5f610e798383610e41565b60408301905092915050565b5f602082019050919050565b5f610e9b82610dfa565b610ea58185610e04565b9350610eb083610e14565b805f5b83811015610ee0578151610ec78882610e6e565b9750610ed283610e85565b925050600181019050610eb3565b5085935050505092915050565b5f6020820190508181035f830152610f058184610e91565b905092915050565b5f82825260208201905092915050565b7f4c612073756261737461206e6f206573746120616374697661000000000000005f82015250565b5f610f51601983610f0d565b9150610f5c82610f1d565b602082019050919050565b5f6020820190508181035f830152610f7e81610f45565b9050919050565b7f4e487b71000000000000000000000000000000000000000000000000000000005f52601160045260245ffd5b5f610fbc82610cbe565b9150610fc783610cbe565b9250828203905081811115610fdf57610fde610f85565b5b92915050565b7f4e487b71000000000000000000000000000000000000000000000000000000005f52603260045260245ffd5b5f61101c82610cbe565b915061102783610cbe565b925082820190508082111561103f5761103e610f85565b5b92915050565b7f4e6f20686179206e6164612070617261207265746972617200000000000000005f82015250565b5f611079601883610f0d565b915061108482611045565b602082019050919050565b5f6020820190508181035f8301526110a68161106d565b9050919050565b7f536f6c6f20656c2073756261737461646f7220707565646520656a65637574615f8201527f7220657374612066756e63696f6e000000000000000000000000000000000000602082015250565b5f611107602e83610f0d565b9150611112826110ad565b604082019050919050565b5f6020820190508181035f830152611134816110fb565b9050919050565b7f4c612073756261737461206e6f206861207465726d696e61646f0000000000005f82015250565b5f61116f601a83610f0d565b915061117a8261113b565b602082019050919050565b5f6020820190508181035f83015261119c81611163565b9050919050565b5f6111ad82610cbe565b91506111b883610cbe565b92508282026111c681610cbe565b915082820484148315176111dd576111dc610f85565b5b5092915050565b7f4e487b71000000000000000000000000000000000000000000000000000000005f52601260045260245ffd5b5f61121b82610cbe565b915061122683610cbe565b925082611236576112356111e4565b5b828204905092915050565b7f4c61206f666572746120646562652073657220616c206d656e6f7320756e20355f8201527f25206d61796f7220717565206c61206f66657274612061637475616c00000000602082015250565b5f61129b603c83610f0d565b91506112a682611241565b604082019050919050565b5f6020820190508181035f8301526112c88161128f565b9050919050565b7f4c612073756261737461206861207465726d696e61646f0000000000000000005f82015250565b5f611303601783610f0d565b915061130e826112cf565b602082019050919050565b5f6020820190508181035f830152611330816112f7565b9050919050565b7f4c612073756261737461206573746120616374697661000000000000000000005f82015250565b5f61136b601683610f0d565b915061137682611337565b602082019050919050565b5f6020820190508181035f8301526113988161135f565b9050919050565b5f81905092915050565b50565b5f6113b75f8361139f565b91506113c2826113a9565b5f82019050919050565b5f6113d6826113ac565b9150819050919050565b7f46616c6c6f20616c207265656d626f6c73617220616c206f66657274616e74655f82015250565b5f611414602083610f0d565b915061141f826113e0565b602082019050919050565b5f6020820190508181035f83015261144181611408565b905091905056fea26469706673582212206fc350a6f03340cb1705f2e9b6c2ff653044db10c0fc7f8c3eecd53c7e0531d964736f6c634300081a0033",
					"opcodes": "PUSH1 0x80 PUSH1 0x40 MSTORE PUSH2 0x12C PUSH1 0x2 SSTORE PUSH1 0x2 PUSH1 0x4 SSTORE CALLVALUE DUP1 ISZERO PUSH2 0x1A JUMPI PUSH0 DUP1 REVERT JUMPDEST POP PUSH1 0x40 MLOAD PUSH2 0x16A6 CODESIZE SUB DUP1 PUSH2 0x16A6 DUP4 CODECOPY DUP2 DUP2 ADD PUSH1 0x40 MSTORE DUP2 ADD SWAP1 PUSH2 0x3C SWAP2 SWAP1 PUSH2 0x190 JUMP JUMPDEST CALLER PUSH0 DUP1 PUSH2 0x100 EXP DUP2 SLOAD DUP2 PUSH20 0xFFFFFFFFFFFFFFFFFFFFFFFFFFFFFFFFFFFFFFFF MUL NOT AND SWAP1 DUP4 PUSH20 0xFFFFFFFFFFFFFFFFFFFFFFFFFFFFFFFFFFFFFFFF AND MUL OR SWAP1 SSTORE POP DUP1 PUSH1 0x3 DUP2 SWAP1 SSTORE POP PUSH1 0x1 PUSH1 0x6 PUSH0 PUSH2 0x100 EXP DUP2 SLOAD DUP2 PUSH1 0xFF MUL NOT AND SWAP1 DUP4 ISZERO ISZERO MUL OR SWAP1 SSTORE POP PUSH1 0x2 SLOAD TIMESTAMP PUSH2 0xAA SWAP2 SWAP1 PUSH2 0x1E8 JUMP JUMPDEST PUSH1 0x1 DUP2 SWAP1 SSTORE POP PUSH1 0x5 PUSH1 0x40 MLOAD DUP1 PUSH1 0x40 ADD PUSH1 0x40 MSTORE DUP1 CALLER PUSH20 0xFFFFFFFFFFFFFFFFFFFFFFFFFFFFFFFFFFFFFFFF AND DUP2 MSTORE PUSH1 0x20 ADD DUP4 DUP2 MSTORE POP SWAP1 DUP1 PUSH1 0x1 DUP2 SLOAD ADD DUP1 DUP3 SSTORE DUP1 SWAP2 POP POP PUSH1 0x1 SWAP1 SUB SWAP1 PUSH0 MSTORE PUSH1 0x20 PUSH0 KECCAK256 SWAP1 PUSH1 0x2 MUL ADD PUSH0 SWAP1 SWAP2 SWAP1 SWAP2 SWAP1 SWAP2 POP PUSH0 DUP3 ADD MLOAD DUP2 PUSH0 ADD PUSH0 PUSH2 0x100 EXP DUP2 SLOAD DUP2 PUSH20 0xFFFFFFFFFFFFFFFFFFFFFFFFFFFFFFFFFFFFFFFF MUL NOT AND SWAP1 DUP4 PUSH20 0xFFFFFFFFFFFFFFFFFFFFFFFFFFFFFFFFFFFFFFFF AND MUL OR SWAP1 SSTORE POP PUSH1 0x20 DUP3 ADD MLOAD DUP2 PUSH1 0x1 ADD SSTORE POP POP POP PUSH2 0x21B JUMP JUMPDEST PUSH0 DUP1 REVERT JUMPDEST PUSH0 DUP2 SWAP1 POP SWAP2 SWAP1 POP JUMP JUMPDEST PUSH2 0x16F DUP2 PUSH2 0x15D JUMP JUMPDEST DUP2 EQ PUSH2 0x179 JUMPI PUSH0 DUP1 REVERT JUMPDEST POP JUMP JUMPDEST PUSH0 DUP2 MLOAD SWAP1 POP PUSH2 0x18A DUP2 PUSH2 0x166 JUMP JUMPDEST SWAP3 SWAP2 POP POP JUMP JUMPDEST PUSH0 PUSH1 0x20 DUP3 DUP5 SUB SLT ISZERO PUSH2 0x1A5 JUMPI PUSH2 0x1A4 PUSH2 0x159 JUMP JUMPDEST JUMPDEST PUSH0 PUSH2 0x1B2 DUP5 DUP3 DUP6 ADD PUSH2 0x17C JUMP JUMPDEST SWAP2 POP POP SWAP3 SWAP2 POP POP JUMP JUMPDEST PUSH32 0x4E487B7100000000000000000000000000000000000000000000000000000000 PUSH0 MSTORE PUSH1 0x11 PUSH1 0x4 MSTORE PUSH1 0x24 PUSH0 REVERT JUMPDEST PUSH0 PUSH2 0x1F2 DUP3 PUSH2 0x15D JUMP JUMPDEST SWAP2 POP PUSH2 0x1FD DUP4 PUSH2 0x15D JUMP JUMPDEST SWAP3 POP DUP3 DUP3 ADD SWAP1 POP DUP1 DUP3 GT ISZERO PUSH2 0x215 JUMPI PUSH2 0x214 PUSH2 0x1BB JUMP JUMPDEST JUMPDEST SWAP3 SWAP2 POP POP JUMP JUMPDEST PUSH2 0x147E DUP1 PUSH2 0x228 PUSH0 CODECOPY PUSH0 RETURN INVALID PUSH1 0x80 PUSH1 0x40 MSTORE PUSH1 0x4 CALLDATASIZE LT PUSH2 0xC1 JUMPI PUSH0 CALLDATALOAD PUSH1 0xE0 SHR DUP1 PUSH4 0x5DFE78F7 GT PUSH2 0x7E JUMPI DUP1 PUSH4 0xC442A99F GT PUSH2 0x58 JUMPI DUP1 PUSH4 0xC442A99F EQ PUSH2 0x1F6 JUMPI DUP1 PUSH4 0xDFEA620F EQ PUSH2 0x220 JUMPI DUP1 PUSH4 0xE0107077 EQ PUSH2 0x24A JUMPI DUP1 PUSH4 0xE2BF4F60 EQ PUSH2 0x274 JUMPI PUSH2 0xC1 JUMP JUMPDEST DUP1 PUSH4 0x5DFE78F7 EQ PUSH2 0x165 JUMPI DUP1 PUSH4 0x9257A3DB EQ PUSH2 0x18F JUMPI DUP1 PUSH4 0xA07B6925 EQ PUSH2 0x1CC JUMPI PUSH2 0xC1 JUMP JUMPDEST DUP1 PUSH4 0x1D65BD3 EQ PUSH2 0xC5 JUMPI DUP1 PUSH4 0x851EAC2 EQ PUSH2 0xDB JUMPI DUP1 PUSH4 0xDFE4C35 EQ PUSH2 0xF1 JUMPI DUP1 PUSH4 0x3DFA138D EQ PUSH2 0x11B JUMPI DUP1 PUSH4 0x3EC059D7 EQ PUSH2 0x145 JUMPI DUP1 PUSH4 0x5298A3C4 EQ PUSH2 0x14F JUMPI JUMPDEST PUSH0 DUP1 REVERT JUMPDEST CALLVALUE DUP1 ISZERO PUSH2 0xD0 JUMPI PUSH0 DUP1 REVERT JUMPDEST POP PUSH2 0xD9 PUSH2 0x29E JUMP JUMPDEST STOP JUMPDEST CALLVALUE DUP1 ISZERO PUSH2 0xE6 JUMPI PUSH0 DUP1 REVERT JUMPDEST POP PUSH2 0xEF PUSH2 0x499 JUMP JUMPDEST STOP JUMPDEST CALLVALUE DUP1 ISZERO PUSH2 0xFC JUMPI PUSH0 DUP1 REVERT JUMPDEST POP PUSH2 0x105 PUSH2 0x64F JUMP JUMPDEST PUSH1 0x40 MLOAD PUSH2 0x112 SWAP2 SWAP1 PUSH2 0xCD6 JUMP JUMPDEST PUSH1 0x40 MLOAD DUP1 SWAP2 SUB SWAP1 RETURN JUMPDEST CALLVALUE DUP1 ISZERO PUSH2 0x126 JUMPI PUSH0 DUP1 REVERT JUMPDEST POP PUSH2 0x12F PUSH2 0x655 JUMP JUMPDEST PUSH1 0x40 MLOAD PUSH2 0x13C SWAP2 SWAP1 PUSH2 0xD2E JUMP JUMPDEST PUSH1 0x40 MLOAD DUP1 SWAP2 SUB SWAP1 RETURN JUMPDEST PUSH2 0x14D PUSH2 0x678 JUMP JUMPDEST STOP JUMPDEST CALLVALUE DUP1 ISZERO PUSH2 0x15A JUMPI PUSH0 DUP1 REVERT JUMPDEST POP PUSH2 0x163 PUSH2 0x879 JUMP JUMPDEST STOP JUMPDEST CALLVALUE DUP1 ISZERO PUSH2 0x170 JUMPI PUSH0 DUP1 REVERT JUMPDEST POP PUSH2 0x179 PUSH2 0xB57 JUMP JUMPDEST PUSH1 0x40 MLOAD PUSH2 0x186 SWAP2 SWAP1 PUSH2 0xD61 JUMP JUMPDEST PUSH1 0x40 MLOAD DUP1 SWAP2 SUB SWAP1 RETURN JUMPDEST CALLVALUE DUP1 ISZERO PUSH2 0x19A JUMPI PUSH0 DUP1 REVERT JUMPDEST POP PUSH2 0x1B5 PUSH1 0x4 DUP1 CALLDATASIZE SUB DUP2 ADD SWAP1 PUSH2 0x1B0 SWAP2 SWAP1 PUSH2 0xDA8 JUMP JUMPDEST PUSH2 0xB69 JUMP JUMPDEST PUSH1 0x40 MLOAD PUSH2 0x1C3 SWAP3 SWAP2 SWAP1 PUSH2 0xDD3 JUMP JUMPDEST PUSH1 0x40 MLOAD DUP1 SWAP2 SUB SWAP1 RETURN JUMPDEST CALLVALUE DUP1 ISZERO PUSH2 0x1D7 JUMPI PUSH0 DUP1 REVERT JUMPDEST POP PUSH2 0x1E0 PUSH2 0xBB7 JUMP JUMPDEST PUSH1 0x40 MLOAD PUSH2 0x1ED SWAP2 SWAP1 PUSH2 0xCD6 JUMP JUMPDEST PUSH1 0x40 MLOAD DUP1 SWAP2 SUB SWAP1 RETURN JUMPDEST CALLVALUE DUP1 ISZERO PUSH2 0x201 JUMPI PUSH0 DUP1 REVERT JUMPDEST POP PUSH2 0x20A PUSH2 0xBBD JUMP JUMPDEST PUSH1 0x40 MLOAD PUSH2 0x217 SWAP2 SWAP1 PUSH2 0xEED JUMP JUMPDEST PUSH1 0x40 MLOAD DUP1 SWAP2 SUB SWAP1 RETURN JUMPDEST CALLVALUE DUP1 ISZERO PUSH2 0x22B JUMPI PUSH0 DUP1 REVERT JUMPDEST POP PUSH2 0x234 PUSH2 0xC77 JUMP JUMPDEST PUSH1 0x40 MLOAD PUSH2 0x241 SWAP2 SWAP1 PUSH2 0xCD6 JUMP JUMPDEST PUSH1 0x40 MLOAD DUP1 SWAP2 SUB SWAP1 RETURN JUMPDEST CALLVALUE DUP1 ISZERO PUSH2 0x255 JUMPI PUSH0 DUP1 REVERT JUMPDEST POP PUSH2 0x25E PUSH2 0xC7D JUMP JUMPDEST PUSH1 0x40 MLOAD PUSH2 0x26B SWAP2 SWAP1 PUSH2 0xCD6 JUMP JUMPDEST PUSH1 0x40 MLOAD DUP1 SWAP2 SUB SWAP1 RETURN JUMPDEST CALLVALUE DUP1 ISZERO PUSH2 0x27F JUMPI PUSH0 DUP1 REVERT JUMPDEST POP PUSH2 0x288 PUSH2 0xC83 JUMP JUMPDEST PUSH1 0x40 MLOAD PUSH2 0x295 SWAP2 SWAP1 PUSH2 0xCD6 JUMP JUMPDEST PUSH1 0x40 MLOAD DUP1 SWAP2 SUB SWAP1 RETURN JUMPDEST PUSH1 0x6 PUSH0 SWAP1 SLOAD SWAP1 PUSH2 0x100 EXP SWAP1 DIV PUSH1 0xFF AND PUSH2 0x2EC JUMPI PUSH1 0x40 MLOAD PUSH32 0x8C379A000000000000000000000000000000000000000000000000000000000 DUP2 MSTORE PUSH1 0x4 ADD PUSH2 0x2E3 SWAP1 PUSH2 0xF67 JUMP JUMPDEST PUSH1 0x40 MLOAD DUP1 SWAP2 SUB SWAP1 REVERT JUMPDEST PUSH0 DUP1 PUSH1 0x5 DUP1 SLOAD SWAP1 POP SWAP1 POP PUSH0 JUMPDEST PUSH1 0x1 DUP3 PUSH2 0x305 SWAP2 SWAP1 PUSH2 0xFB2 JUMP JUMPDEST DUP2 LT ISZERO PUSH2 0x40E JUMPI CALLER PUSH20 0xFFFFFFFFFFFFFFFFFFFFFFFFFFFFFFFFFFFFFFFF AND PUSH1 0x5 DUP3 DUP2 SLOAD DUP2 LT PUSH2 0x337 JUMPI PUSH2 0x336 PUSH2 0xFE5 JUMP JUMPDEST JUMPDEST SWAP1 PUSH0 MSTORE PUSH1 0x20 PUSH0 KECCAK256 SWAP1 PUSH1 0x2 MUL ADD PUSH0 ADD PUSH0 SWAP1 SLOAD SWAP1 PUSH2 0x100 EXP SWAP1 DIV PUSH20 0xFFFFFFFFFFFFFFFFFFFFFFFFFFFFFFFFFFFFFFFF AND PUSH20 0xFFFFFFFFFFFFFFFFFFFFFFFFFFFFFFFFFFFFFFFF AND SUB PUSH2 0x401 JUMPI PUSH1 0x5 DUP2 DUP2 SLOAD DUP2 LT PUSH2 0x394 JUMPI PUSH2 0x393 PUSH2 0xFE5 JUMP JUMPDEST JUMPDEST SWAP1 PUSH0 MSTORE PUSH1 0x20 PUSH0 KECCAK256 SWAP1 PUSH1 0x2 MUL ADD PUSH1 0x1 ADD SLOAD DUP4 PUSH2 0x3AF SWAP2 SWAP1 PUSH2 0x1012 JUMP JUMPDEST SWAP3 POP PUSH1 0x5 DUP2 DUP2 SLOAD DUP2 LT PUSH2 0x3C5 JUMPI PUSH2 0x3C4 PUSH2 0xFE5 JUMP JUMPDEST JUMPDEST SWAP1 PUSH0 MSTORE PUSH1 0x20 PUSH0 KECCAK256 SWAP1 PUSH1 0x2 MUL ADD PUSH0 DUP1 DUP3 ADD PUSH0 PUSH2 0x100 EXP DUP2 SLOAD SWAP1 PUSH20 0xFFFFFFFFFFFFFFFFFFFFFFFFFFFFFFFFFFFFFFFF MUL NOT AND SWAP1 SSTORE PUSH1 0x1 DUP3 ADD PUSH0 SWAP1 SSTORE POP POP JUMPDEST DUP1 DUP1 PUSH1 0x1 ADD SWAP2 POP POP PUSH2 0x2F8 JUMP JUMPDEST POP PUSH0 DUP3 GT PUSH2 0x451 JUMPI PUSH1 0x40 MLOAD PUSH32 0x8C379A000000000000000000000000000000000000000000000000000000000 DUP2 MSTORE PUSH1 0x4 ADD PUSH2 0x448 SWAP1 PUSH2 0x108F JUMP JUMPDEST PUSH1 0x40 MLOAD DUP1 SWAP2 SUB SWAP1 REVERT JUMPDEST CALLER PUSH20 0xFFFFFFFFFFFFFFFFFFFFFFFFFFFFFFFFFFFFFFFF AND PUSH2 0x8FC DUP4 SWAP1 DUP2 ISZERO MUL SWAP1 PUSH1 0x40 MLOAD PUSH0 PUSH1 0x40 MLOAD DUP1 DUP4 SUB DUP2 DUP6 DUP9 DUP9 CALL SWAP4 POP POP POP POP ISZERO DUP1 ISZERO PUSH2 0x494 JUMPI RETURNDATASIZE PUSH0 DUP1 RETURNDATACOPY RETURNDATASIZE PUSH0 REVERT JUMPDEST POP POP POP JUMP JUMPDEST PUSH0 DUP1 SLOAD SWAP1 PUSH2 0x100 EXP SWAP1 DIV PUSH20 0xFFFFFFFFFFFFFFFFFFFFFFFFFFFFFFFFFFFFFFFF AND PUSH20 0xFFFFFFFFFFFFFFFFFFFFFFFFFFFFFFFFFFFFFFFF AND CALLER PUSH20 0xFFFFFFFFFFFFFFFFFFFFFFFFFFFFFFFFFFFFFFFF AND EQ PUSH2 0x526 JUMPI PUSH1 0x40 MLOAD PUSH32 0x8C379A000000000000000000000000000000000000000000000000000000000 DUP2 MSTORE PUSH1 0x4 ADD PUSH2 0x51D SWAP1 PUSH2 0x111D JUMP JUMPDEST PUSH1 0x40 MLOAD DUP1 SWAP2 SUB SWAP1 REVERT JUMPDEST PUSH1 0x1 SLOAD TIMESTAMP LT ISZERO PUSH2 0x56B JUMPI PUSH1 0x40 MLOAD PUSH32 0x8C379A000000000000000000000000000000000000000000000000000000000 DUP2 MSTORE PUSH1 0x4 ADD PUSH2 0x562 SWAP1 PUSH2 0x1185 JUMP JUMPDEST PUSH1 0x40 MLOAD DUP1 SWAP2 SUB SWAP1 REVERT JUMPDEST PUSH0 PUSH1 0x6 PUSH0 PUSH2 0x100 EXP DUP2 SLOAD DUP2 PUSH1 0xFF MUL NOT AND SWAP1 DUP4 ISZERO ISZERO MUL OR SWAP1 SSTORE POP PUSH0 PUSH1 0x5 PUSH1 0x1 PUSH1 0x5 DUP1 SLOAD SWAP1 POP PUSH2 0x599 SWAP2 SWAP1 PUSH2 0xFB2 JUMP JUMPDEST DUP2 SLOAD DUP2 LT PUSH2 0x5AA JUMPI PUSH2 0x5A9 PUSH2 0xFE5 JUMP JUMPDEST JUMPDEST SWAP1 PUSH0 MSTORE PUSH1 0x20 PUSH0 KECCAK256 SWAP1 PUSH1 0x2 MUL ADD PUSH0 ADD PUSH0 SWAP1 SLOAD SWAP1 PUSH2 0x100 EXP SWAP1 DIV PUSH20 0xFFFFFFFFFFFFFFFFFFFFFFFFFFFFFFFFFFFFFFFF AND SWAP1 POP PUSH0 PUSH1 0x5 PUSH1 0x1 PUSH1 0x5 DUP1 SLOAD SWAP1 POP PUSH2 0x5EF SWAP2 SWAP1 PUSH2 0xFB2 JUMP JUMPDEST DUP2 SLOAD DUP2 LT PUSH2 0x600 JUMPI PUSH2 0x5FF PUSH2 0xFE5 JUMP JUMPDEST JUMPDEST SWAP1 PUSH0 MSTORE PUSH1 0x20 PUSH0 KECCAK256 SWAP1 PUSH1 0x2 MUL ADD PUSH1 0x1 ADD SLOAD SWAP1 POP PUSH32 0xA3A65B403BDAE88EB037F4ECC1D619F436FC3EF6BCBBEE3787757164E82883F2 DUP3 DUP3 PUSH1 0x40 MLOAD PUSH2 0x643 SWAP3 SWAP2 SWAP1 PUSH2 0xDD3 JUMP JUMPDEST PUSH1 0x40 MLOAD DUP1 SWAP2 SUB SWAP1 LOG1 POP POP JUMP JUMPDEST PUSH1 0x1 SLOAD DUP2 JUMP JUMPDEST PUSH0 DUP1 SLOAD SWAP1 PUSH2 0x100 EXP SWAP1 DIV PUSH20 0xFFFFFFFFFFFFFFFFFFFFFFFFFFFFFFFFFFFFFFFF AND DUP2 JUMP JUMPDEST PUSH1 0x6 PUSH0 SWAP1 SLOAD SWAP1 PUSH2 0x100 EXP SWAP1 DIV PUSH1 0xFF AND PUSH2 0x6C6 JUMPI PUSH1 0x40 MLOAD PUSH32 0x8C379A000000000000000000000000000000000000000000000000000000000 DUP2 MSTORE PUSH1 0x4 ADD PUSH2 0x6BD SWAP1 PUSH2 0xF67 JUMP JUMPDEST PUSH1 0x40 MLOAD DUP1 SWAP2 SUB SWAP1 REVERT JUMPDEST PUSH1 0x64 PUSH1 0x69 PUSH2 0x6D2 PUSH2 0xC83 JUMP JUMPDEST PUSH2 0x6DC SWAP2 SWAP1 PUSH2 0x11A3 JUMP JUMPDEST PUSH2 0x6E6 SWAP2 SWAP1 PUSH2 0x1211 JUMP JUMPDEST CALLVALUE LT ISZERO PUSH2 0x728 JUMPI PUSH1 0x40 MLOAD PUSH32 0x8C379A000000000000000000000000000000000000000000000000000000000 DUP2 MSTORE PUSH1 0x4 ADD PUSH2 0x71F SWAP1 PUSH2 0x12B1 JUMP JUMPDEST PUSH1 0x40 MLOAD DUP1 SWAP2 SUB SWAP1 REVERT JUMPDEST PUSH1 0x1 SLOAD TIMESTAMP LT PUSH2 0x76C JUMPI PUSH1 0x40 MLOAD PUSH32 0x8C379A000000000000000000000000000000000000000000000000000000000 DUP2 MSTORE PUSH1 0x4 ADD PUSH2 0x763 SWAP1 PUSH2 0x1319 JUMP JUMPDEST PUSH1 0x40 MLOAD DUP1 SWAP2 SUB SWAP1 REVERT JUMPDEST PUSH1 0x2 SLOAD PUSH1 0x1 PUSH0 DUP3 DUP3 SLOAD PUSH2 0x77F SWAP2 SWAP1 PUSH2 0x1012 JUMP JUMPDEST SWAP3 POP POP DUP2 SWAP1 SSTORE POP PUSH1 0x5 PUSH1 0x40 MLOAD DUP1 PUSH1 0x40 ADD PUSH1 0x40 MSTORE DUP1 CALLER PUSH20 0xFFFFFFFFFFFFFFFFFFFFFFFFFFFFFFFFFFFFFFFF AND DUP2 MSTORE PUSH1 0x20 ADD CALLVALUE DUP2 MSTORE POP SWAP1 DUP1 PUSH1 0x1 DUP2 SLOAD ADD DUP1 DUP3 SSTORE DUP1 SWAP2 POP POP PUSH1 0x1 SWAP1 SUB SWAP1 PUSH0 MSTORE PUSH1 0x20 PUSH0 KECCAK256 SWAP1 PUSH1 0x2 MUL ADD PUSH0 SWAP1 SWAP2 SWAP1 SWAP2 SWAP1 SWAP2 POP PUSH0 DUP3 ADD MLOAD DUP2 PUSH0 ADD PUSH0 PUSH2 0x100 EXP DUP2 SLOAD DUP2 PUSH20 0xFFFFFFFFFFFFFFFFFFFFFFFFFFFFFFFFFFFFFFFF MUL NOT AND SWAP1 DUP4 PUSH20 0xFFFFFFFFFFFFFFFFFFFFFFFFFFFFFFFFFFFFFFFF AND MUL OR SWAP1 SSTORE POP PUSH1 0x20 DUP3 ADD MLOAD DUP2 PUSH1 0x1 ADD SSTORE POP POP CALLER PUSH20 0xFFFFFFFFFFFFFFFFFFFFFFFFFFFFFFFFFFFFFFFF AND PUSH32 0x155D469211F46E4D9AE974606F0878F9AACC6198BA30A1E6B9C8CF5627352FB5 CALLVALUE PUSH1 0x40 MLOAD PUSH2 0x86F SWAP2 SWAP1 PUSH2 0xCD6 JUMP JUMPDEST PUSH1 0x40 MLOAD DUP1 SWAP2 SUB SWAP1 LOG2 JUMP JUMPDEST PUSH0 DUP1 SLOAD SWAP1 PUSH2 0x100 EXP SWAP1 DIV PUSH20 0xFFFFFFFFFFFFFFFFFFFFFFFFFFFFFFFFFFFFFFFF AND PUSH20 0xFFFFFFFFFFFFFFFFFFFFFFFFFFFFFFFFFFFFFFFF AND CALLER PUSH20 0xFFFFFFFFFFFFFFFFFFFFFFFFFFFFFFFFFFFFFFFF AND EQ PUSH2 0x906 JUMPI PUSH1 0x40 MLOAD PUSH32 0x8C379A000000000000000000000000000000000000000000000000000000000 DUP2 MSTORE PUSH1 0x4 ADD PUSH2 0x8FD SWAP1 PUSH2 0x111D JUMP JUMPDEST PUSH1 0x40 MLOAD DUP1 SWAP2 SUB SWAP1 REVERT JUMPDEST PUSH1 0x6 PUSH0 SWAP1 SLOAD SWAP1 PUSH2 0x100 EXP SWAP1 DIV PUSH1 0xFF AND ISZERO PUSH2 0x955 JUMPI PUSH1 0x40 MLOAD PUSH32 0x8C379A000000000000000000000000000000000000000000000000000000000 DUP2 MSTORE PUSH1 0x4 ADD PUSH2 0x94C SWAP1 PUSH2 0x1381 JUMP JUMPDEST PUSH1 0x40 MLOAD DUP1 SWAP2 SUB SWAP1 REVERT JUMPDEST PUSH0 PUSH1 0x5 DUP1 SLOAD SWAP1 POP SWAP1 POP PUSH0 PUSH1 0x5 PUSH1 0x1 DUP4 PUSH2 0x96E SWAP2 SWAP1 PUSH2 0xFB2 JUMP JUMPDEST DUP2 SLOAD DUP2 LT PUSH2 0x97F JUMPI PUSH2 0x97E PUSH2 0xFE5 JUMP JUMPDEST JUMPDEST SWAP1 PUSH0 MSTORE PUSH1 0x20 PUSH0 KECCAK256 SWAP1 PUSH1 0x2 MUL ADD PUSH0 ADD PUSH0 SWAP1 SLOAD SWAP1 PUSH2 0x100 EXP SWAP1 DIV PUSH20 0xFFFFFFFFFFFFFFFFFFFFFFFFFFFFFFFFFFFFFFFF AND SWAP1 POP PUSH0 PUSH1 0x1 SWAP1 POP JUMPDEST PUSH1 0x1 DUP4 PUSH2 0x9C2 SWAP2 SWAP1 PUSH2 0xFB2 JUMP JUMPDEST DUP2 LT ISZERO PUSH2 0xB52 JUMPI PUSH0 PUSH1 0x5 DUP3 DUP2 SLOAD DUP2 LT PUSH2 0x9DE JUMPI PUSH2 0x9DD PUSH2 0xFE5 JUMP JUMPDEST JUMPDEST SWAP1 PUSH0 MSTORE PUSH1 0x20 PUSH0 KECCAK256 SWAP1 PUSH1 0x2 MUL ADD PUSH0 ADD PUSH0 SWAP1 SLOAD SWAP1 PUSH2 0x100 EXP SWAP1 DIV PUSH20 0xFFFFFFFFFFFFFFFFFFFFFFFFFFFFFFFFFFFFFFFF AND SWAP1 POP PUSH0 PUSH1 0x5 DUP4 DUP2 SLOAD DUP2 LT PUSH2 0xA23 JUMPI PUSH2 0xA22 PUSH2 0xFE5 JUMP JUMPDEST JUMPDEST SWAP1 PUSH0 MSTORE PUSH1 0x20 PUSH0 KECCAK256 SWAP1 PUSH1 0x2 MUL ADD PUSH1 0x1 ADD SLOAD SWAP1 POP DUP4 PUSH20 0xFFFFFFFFFFFFFFFFFFFFFFFFFFFFFFFFFFFFFFFF AND DUP3 PUSH20 0xFFFFFFFFFFFFFFFFFFFFFFFFFFFFFFFFFFFFFFFF AND SUB PUSH2 0xA6F JUMPI POP POP PUSH2 0xB45 JUMP JUMPDEST PUSH0 PUSH1 0x64 PUSH1 0x4 SLOAD PUSH1 0x64 PUSH2 0xA81 SWAP2 SWAP1 PUSH2 0xFB2 JUMP JUMPDEST DUP4 PUSH2 0xA8C SWAP2 SWAP1 PUSH2 0x11A3 JUMP JUMPDEST PUSH2 0xA96 SWAP2 SWAP1 PUSH2 0x1211 JUMP JUMPDEST SWAP1 POP PUSH0 DUP4 PUSH20 0xFFFFFFFFFFFFFFFFFFFFFFFFFFFFFFFFFFFFFFFF AND DUP3 PUSH1 0x40 MLOAD PUSH2 0xABD SWAP1 PUSH2 0x13CC JUMP JUMPDEST PUSH0 PUSH1 0x40 MLOAD DUP1 DUP4 SUB DUP2 DUP6 DUP8 GAS CALL SWAP3 POP POP POP RETURNDATASIZE DUP1 PUSH0 DUP2 EQ PUSH2 0xAF7 JUMPI PUSH1 0x40 MLOAD SWAP2 POP PUSH1 0x1F NOT PUSH1 0x3F RETURNDATASIZE ADD AND DUP3 ADD PUSH1 0x40 MSTORE RETURNDATASIZE DUP3 MSTORE RETURNDATASIZE PUSH0 PUSH1 0x20 DUP5 ADD RETURNDATACOPY PUSH2 0xAFC JUMP JUMPDEST PUSH1 0x60 SWAP2 POP JUMPDEST POP POP SWAP1 POP DUP1 PUSH2 0xB40 JUMPI PUSH1 0x40 MLOAD PUSH32 0x8C379A000000000000000000000000000000000000000000000000000000000 DUP2 MSTORE PUSH1 0x4 ADD PUSH2 0xB37 SWAP1 PUSH2 0x142A JUMP JUMPDEST PUSH1 0x40 MLOAD DUP1 SWAP2 SUB SWAP1 REVERT JUMPDEST POP POP POP POP JUMPDEST DUP1 DUP1 PUSH1 0x1 ADD SWAP2 POP POP PUSH2 0x9B5 JUMP JUMPDEST POP POP POP JUMP JUMPDEST PUSH1 0x6 PUSH0 SWAP1 SLOAD SWAP1 PUSH2 0x100 EXP SWAP1 DIV PUSH1 0xFF AND DUP2 JUMP JUMPDEST PUSH1 0x5 DUP2 DUP2 SLOAD DUP2 LT PUSH2 0xB78 JUMPI PUSH0 DUP1 REVERT JUMPDEST SWAP1 PUSH0 MSTORE PUSH1 0x20 PUSH0 KECCAK256 SWAP1 PUSH1 0x2 MUL ADD PUSH0 SWAP2 POP SWAP1 POP DUP1 PUSH0 ADD PUSH0 SWAP1 SLOAD SWAP1 PUSH2 0x100 EXP SWAP1 DIV PUSH20 0xFFFFFFFFFFFFFFFFFFFFFFFFFFFFFFFFFFFFFFFF AND SWAP1 DUP1 PUSH1 0x1 ADD SLOAD SWAP1 POP DUP3 JUMP JUMPDEST PUSH1 0x4 SLOAD DUP2 JUMP JUMPDEST PUSH1 0x60 PUSH1 0x5 DUP1 SLOAD DUP1 PUSH1 0x20 MUL PUSH1 0x20 ADD PUSH1 0x40 MLOAD SWAP1 DUP2 ADD PUSH1 0x40 MSTORE DUP1 SWAP3 SWAP2 SWAP1 DUP2 DUP2 MSTORE PUSH1 0x20 ADD PUSH0 SWAP1 JUMPDEST DUP3 DUP3 LT ISZERO PUSH2 0xC6E JUMPI DUP4 DUP3 SWAP1 PUSH0 MSTORE PUSH1 0x20 PUSH0 KECCAK256 SWAP1 PUSH1 0x2 MUL ADD PUSH1 0x40 MLOAD DUP1 PUSH1 0x40 ADD PUSH1 0x40 MSTORE SWAP1 DUP2 PUSH0 DUP3 ADD PUSH0 SWAP1 SLOAD SWAP1 PUSH2 0x100 EXP SWAP1 DIV PUSH20 0xFFFFFFFFFFFFFFFFFFFFFFFFFFFFFFFFFFFFFFFF AND PUSH20 0xFFFFFFFFFFFFFFFFFFFFFFFFFFFFFFFFFFFFFFFF AND PUSH20 0xFFFFFFFFFFFFFFFFFFFFFFFFFFFFFFFFFFFFFFFF AND DUP2 MSTORE PUSH1 0x20 ADD PUSH1 0x1 DUP3 ADD SLOAD DUP2 MSTORE POP POP DUP2 MSTORE PUSH1 0x20 ADD SWAP1 PUSH1 0x1 ADD SWAP1 PUSH2 0xBE0 JUMP JUMPDEST POP POP POP POP SWAP1 POP SWAP1 JUMP JUMPDEST PUSH1 0x2 SLOAD DUP2 JUMP JUMPDEST PUSH1 0x3 SLOAD DUP2 JUMP JUMPDEST PUSH0 PUSH1 0x5 PUSH1 0x1 PUSH1 0x5 DUP1 SLOAD SWAP1 POP PUSH2 0xC98 SWAP2 SWAP1 PUSH2 0xFB2 JUMP JUMPDEST DUP2 SLOAD DUP2 LT PUSH2 0xCA9 JUMPI PUSH2 0xCA8 PUSH2 0xFE5 JUMP JUMPDEST JUMPDEST SWAP1 PUSH0 MSTORE PUSH1 0x20 PUSH0 KECCAK256 SWAP1 PUSH1 0x2 MUL ADD PUSH1 0x1 ADD SLOAD SWAP1 POP SWAP1 JUMP JUMPDEST PUSH0 DUP2 SWAP1 POP SWAP2 SWAP1 POP JUMP JUMPDEST PUSH2 0xCD0 DUP2 PUSH2 0xCBE JUMP JUMPDEST DUP3 MSTORE POP POP JUMP JUMPDEST PUSH0 PUSH1 0x20 DUP3 ADD SWAP1 POP PUSH2 0xCE9 PUSH0 DUP4 ADD DUP5 PUSH2 0xCC7 JUMP JUMPDEST SWAP3 SWAP2 POP POP JUMP JUMPDEST PUSH0 PUSH20 0xFFFFFFFFFFFFFFFFFFFFFFFFFFFFFFFFFFFFFFFF DUP3 AND SWAP1 POP SWAP2 SWAP1 POP JUMP JUMPDEST PUSH0 PUSH2 0xD18 DUP3 PUSH2 0xCEF JUMP JUMPDEST SWAP1 POP SWAP2 SWAP1 POP JUMP JUMPDEST PUSH2 0xD28 DUP2 PUSH2 0xD0E JUMP JUMPDEST DUP3 MSTORE POP POP JUMP JUMPDEST PUSH0 PUSH1 0x20 DUP3 ADD SWAP1 POP PUSH2 0xD41 PUSH0 DUP4 ADD DUP5 PUSH2 0xD1F JUMP JUMPDEST SWAP3 SWAP2 POP POP JUMP JUMPDEST PUSH0 DUP2 ISZERO ISZERO SWAP1 POP SWAP2 SWAP1 POP JUMP JUMPDEST PUSH2 0xD5B DUP2 PUSH2 0xD47 JUMP JUMPDEST DUP3 MSTORE POP POP JUMP JUMPDEST PUSH0 PUSH1 0x20 DUP3 ADD SWAP1 POP PUSH2 0xD74 PUSH0 DUP4 ADD DUP5 PUSH2 0xD52 JUMP JUMPDEST SWAP3 SWAP2 POP POP JUMP JUMPDEST PUSH0 DUP1 REVERT JUMPDEST PUSH2 0xD87 DUP2 PUSH2 0xCBE JUMP JUMPDEST DUP2 EQ PUSH2 0xD91 JUMPI PUSH0 DUP1 REVERT JUMPDEST POP JUMP JUMPDEST PUSH0 DUP2 CALLDATALOAD SWAP1 POP PUSH2 0xDA2 DUP2 PUSH2 0xD7E JUMP JUMPDEST SWAP3 SWAP2 POP POP JUMP JUMPDEST PUSH0 PUSH1 0x20 DUP3 DUP5 SUB SLT ISZERO PUSH2 0xDBD JUMPI PUSH2 0xDBC PUSH2 0xD7A JUMP JUMPDEST JUMPDEST PUSH0 PUSH2 0xDCA DUP5 DUP3 DUP6 ADD PUSH2 0xD94 JUMP JUMPDEST SWAP2 POP POP SWAP3 SWAP2 POP POP JUMP JUMPDEST PUSH0 PUSH1 0x40 DUP3 ADD SWAP1 POP PUSH2 0xDE6 PUSH0 DUP4 ADD DUP6 PUSH2 0xD1F JUMP JUMPDEST PUSH2 0xDF3 PUSH1 0x20 DUP4 ADD DUP5 PUSH2 0xCC7 JUMP JUMPDEST SWAP4 SWAP3 POP POP POP JUMP JUMPDEST PUSH0 DUP2 MLOAD SWAP1 POP SWAP2 SWAP1 POP JUMP JUMPDEST PUSH0 DUP3 DUP3 MSTORE PUSH1 0x20 DUP3 ADD SWAP1 POP SWAP3 SWAP2 POP POP JUMP JUMPDEST PUSH0 DUP2 SWAP1 POP PUSH1 0x20 DUP3 ADD SWAP1 POP SWAP2 SWAP1 POP JUMP JUMPDEST PUSH2 0xE2C DUP2 PUSH2 0xD0E JUMP JUMPDEST DUP3 MSTORE POP POP JUMP JUMPDEST PUSH2 0xE3B DUP2 PUSH2 0xCBE JUMP JUMPDEST DUP3 MSTORE POP POP JUMP JUMPDEST PUSH1 0x40 DUP3 ADD PUSH0 DUP3 ADD MLOAD PUSH2 0xE55 PUSH0 DUP6 ADD DUP3 PUSH2 0xE23 JUMP JUMPDEST POP PUSH1 0x20 DUP3 ADD MLOAD PUSH2 0xE68 PUSH1 0x20 DUP6 ADD DUP3 PUSH2 0xE32 JUMP JUMPDEST POP POP POP POP JUMP JUMPDEST PUSH0 PUSH2 0xE79 DUP4 DUP4 PUSH2 0xE41 JUMP JUMPDEST PUSH1 0x40 DUP4 ADD SWAP1 POP SWAP3 SWAP2 POP POP JUMP JUMPDEST PUSH0 PUSH1 0x20 DUP3 ADD SWAP1 POP SWAP2 SWAP1 POP JUMP JUMPDEST PUSH0 PUSH2 0xE9B DUP3 PUSH2 0xDFA JUMP JUMPDEST PUSH2 0xEA5 DUP2 DUP6 PUSH2 0xE04 JUMP JUMPDEST SWAP4 POP PUSH2 0xEB0 DUP4 PUSH2 0xE14 JUMP JUMPDEST DUP1 PUSH0 JUMPDEST DUP4 DUP2 LT ISZERO PUSH2 0xEE0 JUMPI DUP2 MLOAD PUSH2 0xEC7 DUP9 DUP3 PUSH2 0xE6E JUMP JUMPDEST SWAP8 POP PUSH2 0xED2 DUP4 PUSH2 0xE85 JUMP JUMPDEST SWAP3 POP POP PUSH1 0x1 DUP2 ADD SWAP1 POP PUSH2 0xEB3 JUMP JUMPDEST POP DUP6 SWAP4 POP POP POP POP SWAP3 SWAP2 POP POP JUMP JUMPDEST PUSH0 PUSH1 0x20 DUP3 ADD SWAP1 POP DUP2 DUP2 SUB PUSH0 DUP4 ADD MSTORE PUSH2 0xF05 DUP2 DUP5 PUSH2 0xE91 JUMP JUMPDEST SWAP1 POP SWAP3 SWAP2 POP POP JUMP JUMPDEST PUSH0 DUP3 DUP3 MSTORE PUSH1 0x20 DUP3 ADD SWAP1 POP SWAP3 SWAP2 POP POP JUMP JUMPDEST PUSH32 0x4C612073756261737461206E6F20657374612061637469766100000000000000 PUSH0 DUP3 ADD MSTORE POP JUMP JUMPDEST PUSH0 PUSH2 0xF51 PUSH1 0x19 DUP4 PUSH2 0xF0D JUMP JUMPDEST SWAP2 POP PUSH2 0xF5C DUP3 PUSH2 0xF1D JUMP JUMPDEST PUSH1 0x20 DUP3 ADD SWAP1 POP SWAP2 SWAP1 POP JUMP JUMPDEST PUSH0 PUSH1 0x20 DUP3 ADD SWAP1 POP DUP2 DUP2 SUB PUSH0 DUP4 ADD MSTORE PUSH2 0xF7E DUP2 PUSH2 0xF45 JUMP JUMPDEST SWAP1 POP SWAP2 SWAP1 POP JUMP JUMPDEST PUSH32 0x4E487B7100000000000000000000000000000000000000000000000000000000 PUSH0 MSTORE PUSH1 0x11 PUSH1 0x4 MSTORE PUSH1 0x24 PUSH0 REVERT JUMPDEST PUSH0 PUSH2 0xFBC DUP3 PUSH2 0xCBE JUMP JUMPDEST SWAP2 POP PUSH2 0xFC7 DUP4 PUSH2 0xCBE JUMP JUMPDEST SWAP3 POP DUP3 DUP3 SUB SWAP1 POP DUP2 DUP2 GT ISZERO PUSH2 0xFDF JUMPI PUSH2 0xFDE PUSH2 0xF85 JUMP JUMPDEST JUMPDEST SWAP3 SWAP2 POP POP JUMP JUMPDEST PUSH32 0x4E487B7100000000000000000000000000000000000000000000000000000000 PUSH0 MSTORE PUSH1 0x32 PUSH1 0x4 MSTORE PUSH1 0x24 PUSH0 REVERT JUMPDEST PUSH0 PUSH2 0x101C DUP3 PUSH2 0xCBE JUMP JUMPDEST SWAP2 POP PUSH2 0x1027 DUP4 PUSH2 0xCBE JUMP JUMPDEST SWAP3 POP DUP3 DUP3 ADD SWAP1 POP DUP1 DUP3 GT ISZERO PUSH2 0x103F JUMPI PUSH2 0x103E PUSH2 0xF85 JUMP JUMPDEST JUMPDEST SWAP3 SWAP2 POP POP JUMP JUMPDEST PUSH32 0x4E6F20686179206E616461207061726120726574697261720000000000000000 PUSH0 DUP3 ADD MSTORE POP JUMP JUMPDEST PUSH0 PUSH2 0x1079 PUSH1 0x18 DUP4 PUSH2 0xF0D JUMP JUMPDEST SWAP2 POP PUSH2 0x1084 DUP3 PUSH2 0x1045 JUMP JUMPDEST PUSH1 0x20 DUP3 ADD SWAP1 POP SWAP2 SWAP1 POP JUMP JUMPDEST PUSH0 PUSH1 0x20 DUP3 ADD SWAP1 POP DUP2 DUP2 SUB PUSH0 DUP4 ADD MSTORE PUSH2 0x10A6 DUP2 PUSH2 0x106D JUMP JUMPDEST SWAP1 POP SWAP2 SWAP1 POP JUMP JUMPDEST PUSH32 0x536F6C6F20656C2073756261737461646F7220707565646520656A6563757461 PUSH0 DUP3 ADD MSTORE PUSH32 0x7220657374612066756E63696F6E000000000000000000000000000000000000 PUSH1 0x20 DUP3 ADD MSTORE POP JUMP JUMPDEST PUSH0 PUSH2 0x1107 PUSH1 0x2E DUP4 PUSH2 0xF0D JUMP JUMPDEST SWAP2 POP PUSH2 0x1112 DUP3 PUSH2 0x10AD JUMP JUMPDEST PUSH1 0x40 DUP3 ADD SWAP1 POP SWAP2 SWAP1 POP JUMP JUMPDEST PUSH0 PUSH1 0x20 DUP3 ADD SWAP1 POP DUP2 DUP2 SUB PUSH0 DUP4 ADD MSTORE PUSH2 0x1134 DUP2 PUSH2 0x10FB JUMP JUMPDEST SWAP1 POP SWAP2 SWAP1 POP JUMP JUMPDEST PUSH32 0x4C612073756261737461206E6F206861207465726D696E61646F000000000000 PUSH0 DUP3 ADD MSTORE POP JUMP JUMPDEST PUSH0 PUSH2 0x116F PUSH1 0x1A DUP4 PUSH2 0xF0D JUMP JUMPDEST SWAP2 POP PUSH2 0x117A DUP3 PUSH2 0x113B JUMP JUMPDEST PUSH1 0x20 DUP3 ADD SWAP1 POP SWAP2 SWAP1 POP JUMP JUMPDEST PUSH0 PUSH1 0x20 DUP3 ADD SWAP1 POP DUP2 DUP2 SUB PUSH0 DUP4 ADD MSTORE PUSH2 0x119C DUP2 PUSH2 0x1163 JUMP JUMPDEST SWAP1 POP SWAP2 SWAP1 POP JUMP JUMPDEST PUSH0 PUSH2 0x11AD DUP3 PUSH2 0xCBE JUMP JUMPDEST SWAP2 POP PUSH2 0x11B8 DUP4 PUSH2 0xCBE JUMP JUMPDEST SWAP3 POP DUP3 DUP3 MUL PUSH2 0x11C6 DUP2 PUSH2 0xCBE JUMP JUMPDEST SWAP2 POP DUP3 DUP3 DIV DUP5 EQ DUP4 ISZERO OR PUSH2 0x11DD JUMPI PUSH2 0x11DC PUSH2 0xF85 JUMP JUMPDEST JUMPDEST POP SWAP3 SWAP2 POP POP JUMP JUMPDEST PUSH32 0x4E487B7100000000000000000000000000000000000000000000000000000000 PUSH0 MSTORE PUSH1 0x12 PUSH1 0x4 MSTORE PUSH1 0x24 PUSH0 REVERT JUMPDEST PUSH0 PUSH2 0x121B DUP3 PUSH2 0xCBE JUMP JUMPDEST SWAP2 POP PUSH2 0x1226 DUP4 PUSH2 0xCBE JUMP JUMPDEST SWAP3 POP DUP3 PUSH2 0x1236 JUMPI PUSH2 0x1235 PUSH2 0x11E4 JUMP JUMPDEST JUMPDEST DUP3 DUP3 DIV SWAP1 POP SWAP3 SWAP2 POP POP JUMP JUMPDEST PUSH32 0x4C61206F666572746120646562652073657220616C206D656E6F7320756E2035 PUSH0 DUP3 ADD MSTORE PUSH32 0x25206D61796F7220717565206C61206F66657274612061637475616C00000000 PUSH1 0x20 DUP3 ADD MSTORE POP JUMP JUMPDEST PUSH0 PUSH2 0x129B PUSH1 0x3C DUP4 PUSH2 0xF0D JUMP JUMPDEST SWAP2 POP PUSH2 0x12A6 DUP3 PUSH2 0x1241 JUMP JUMPDEST PUSH1 0x40 DUP3 ADD SWAP1 POP SWAP2 SWAP1 POP JUMP JUMPDEST PUSH0 PUSH1 0x20 DUP3 ADD SWAP1 POP DUP2 DUP2 SUB PUSH0 DUP4 ADD MSTORE PUSH2 0x12C8 DUP2 PUSH2 0x128F JUMP JUMPDEST SWAP1 POP SWAP2 SWAP1 POP JUMP JUMPDEST PUSH32 0x4C612073756261737461206861207465726D696E61646F000000000000000000 PUSH0 DUP3 ADD MSTORE POP JUMP JUMPDEST PUSH0 PUSH2 0x1303 PUSH1 0x17 DUP4 PUSH2 0xF0D JUMP JUMPDEST SWAP2 POP PUSH2 0x130E DUP3 PUSH2 0x12CF JUMP JUMPDEST PUSH1 0x20 DUP3 ADD SWAP1 POP SWAP2 SWAP1 POP JUMP JUMPDEST PUSH0 PUSH1 0x20 DUP3 ADD SWAP1 POP DUP2 DUP2 SUB PUSH0 DUP4 ADD MSTORE PUSH2 0x1330 DUP2 PUSH2 0x12F7 JUMP JUMPDEST SWAP1 POP SWAP2 SWAP1 POP JUMP JUMPDEST PUSH32 0x4C61207375626173746120657374612061637469766100000000000000000000 PUSH0 DUP3 ADD MSTORE POP JUMP JUMPDEST PUSH0 PUSH2 0x136B PUSH1 0x16 DUP4 PUSH2 0xF0D JUMP JUMPDEST SWAP2 POP PUSH2 0x1376 DUP3 PUSH2 0x1337 JUMP JUMPDEST PUSH1 0x20 DUP3 ADD SWAP1 POP SWAP2 SWAP1 POP JUMP JUMPDEST PUSH0 PUSH1 0x20 DUP3 ADD SWAP1 POP DUP2 DUP2 SUB PUSH0 DUP4 ADD MSTORE PUSH2 0x1398 DUP2 PUSH2 0x135F JUMP JUMPDEST SWAP1 POP SWAP2 SWAP1 POP JUMP JUMPDEST PUSH0 DUP2 SWAP1 POP SWAP3 SWAP2 POP POP JUMP JUMPDEST POP JUMP JUMPDEST PUSH0 PUSH2 0x13B7 PUSH0 DUP4 PUSH2 0x139F JUMP JUMPDEST SWAP2 POP PUSH2 0x13C2 DUP3 PUSH2 0x13A9 JUMP JUMPDEST PUSH0 DUP3 ADD SWAP1 POP SWAP2 SWAP1 POP JUMP JUMPDEST PUSH0 PUSH2 0x13D6 DUP3 PUSH2 0x13AC JUMP JUMPDEST SWAP2 POP DUP2 SWAP1 POP SWAP2 SWAP1 POP JUMP JUMPDEST PUSH32 0x46616C6C6F20616C207265656D626F6C73617220616C206F66657274616E7465 PUSH0 DUP3 ADD MSTORE POP JUMP JUMPDEST PUSH0 PUSH2 0x1414 PUSH1 0x20 DUP4 PUSH2 0xF0D JUMP JUMPDEST SWAP2 POP PUSH2 0x141F DUP3 PUSH2 0x13E0 JUMP JUMPDEST PUSH1 0x20 DUP3 ADD SWAP1 POP SWAP2 SWAP1 POP JUMP JUMPDEST PUSH0 PUSH1 0x20 DUP3 ADD SWAP1 POP DUP2 DUP2 SUB PUSH0 DUP4 ADD MSTORE PUSH2 0x1441 DUP2 PUSH2 0x1408 JUMP JUMPDEST SWAP1 POP SWAP2 SWAP1 POP JUMP INVALID LOG2 PUSH5 0x6970667358 0x22 SLT KECCAK256 PUSH16 0xC350A6F03340CB1705F2E9B6C2FF6530 PREVRANDAO 0xDB LT 0xC0 0xFC PUSH32 0x8C3EECD53C7E0531D964736F6C634300081A0033000000000000000000000000 "
				},
				"gasEstimates": {
					"creation": {
						"codeDepositCost": "1049200",
						"executionCost": "infinite",
						"totalCost": "infinite"
					},
					"external": {
						"comisionGas()": "2492",
						"devolverDepositos()": "infinite",
						"finalizarSubasta()": "infinite",
						"getOfertaMaxima()": "infinite",
						"historialOfertas(uint256)": "infinite",
						"mostrarOfertas()": "infinite",
						"ofertaMinima()": "2491",
						"ofertar()": "infinite",
						"plazoExtension()": "2469",
						"retirarParcial()": "infinite",
						"subastaActiva()": "2489",
						"subastador()": "2572",
						"tiempoFinalizacion()": "2470"
					}
				},
				"methodIdentifiers": {
					"comisionGas()": "a07b6925",
					"devolverDepositos()": "5298a3c4",
					"finalizarSubasta()": "0851eac2",
					"getOfertaMaxima()": "e2bf4f60",
					"historialOfertas(uint256)": "9257a3db",
					"mostrarOfertas()": "c442a99f",
					"ofertaMinima()": "e0107077",
					"ofertar()": "3ec059d7",
					"plazoExtension()": "dfea620f",
					"retirarParcial()": "01d65bd3",
					"subastaActiva()": "5dfe78f7",
					"subastador()": "3dfa138d",
					"tiempoFinalizacion()": "0dfe4c35"
				}
			},
			"storageLayout": {
				"storage": [
					{
						"astId": 8,
						"contract": "subasta6.sol:Subastasa",
						"label": "subastador",
						"offset": 0,
						"slot": "0",
						"type": "t_address"
					},
					{
						"astId": 10,
						"contract": "subasta6.sol:Subastasa",
						"label": "tiempoFinalizacion",
						"offset": 0,
						"slot": "1",
						"type": "t_uint256"
					},
					{
						"astId": 13,
						"contract": "subasta6.sol:Subastasa",
						"label": "plazoExtension",
						"offset": 0,
						"slot": "2",
						"type": "t_uint256"
					},
					{
						"astId": 15,
						"contract": "subasta6.sol:Subastasa",
						"label": "ofertaMinima",
						"offset": 0,
						"slot": "3",
						"type": "t_uint256"
					},
					{
						"astId": 18,
						"contract": "subasta6.sol:Subastasa",
						"label": "comisionGas",
						"offset": 0,
						"slot": "4",
						"type": "t_uint256"
					},
					{
						"astId": 22,
						"contract": "subasta6.sol:Subastasa",
						"label": "historialOfertas",
						"offset": 0,
						"slot": "5",
						"type": "t_array(t_struct(Oferta)6_storage)dyn_storage"
					},
					{
						"astId": 24,
						"contract": "subasta6.sol:Subastasa",
						"label": "subastaActiva",
						"offset": 0,
						"slot": "6",
						"type": "t_bool"
					}
				],
				"types": {
					"t_address": {
						"encoding": "inplace",
						"label": "address",
						"numberOfBytes": "20"
					},
					"t_array(t_struct(Oferta)6_storage)dyn_storage": {
						"base": "t_struct(Oferta)6_storage",
						"encoding": "dynamic_array",
						"label": "struct Subastasa.Oferta[]",
						"numberOfBytes": "32"
					},
					"t_bool": {
						"encoding": "inplace",
						"label": "bool",
						"numberOfBytes": "1"
					},
					"t_struct(Oferta)6_storage": {
						"encoding": "inplace",
						"label": "struct Subastasa.Oferta",
						"members": [
							{
								"astId": 3,
								"contract": "subasta6.sol:Subastasa",
								"label": "ofertante",
								"offset": 0,
								"slot": "0",
								"type": "t_address"
							},
							{
								"astId": 5,
								"contract": "subasta6.sol:Subastasa",
								"label": "monto",
								"offset": 0,
								"slot": "1",
								"type": "t_uint256"
							}
						],
						"numberOfBytes": "64"
					},
					"t_uint256": {
						"encoding": "inplace",
						"label": "uint256",
						"numberOfBytes": "32"
					}
				}
			},
			"userdoc": {
				"kind": "user",
				"methods": {},
				"version": 1
			}
		}
	}
}