{
	"simpleDEX2.sol": {
		"SimpleDEX": {
			"abi": [
				{
					"inputs": [
						{
							"internalType": "address",
							"name": "_tokenA",
							"type": "address"
						},
						{
							"internalType": "address",
							"name": "_tokenB",
							"type": "address"
						}
					],
					"stateMutability": "nonpayable",
					"type": "constructor"
				},
				{
					"anonymous": false,
					"inputs": [
						{
							"indexed": false,
							"internalType": "uint256",
							"name": "amountA",
							"type": "uint256"
						},
						{
							"indexed": false,
							"internalType": "uint256",
							"name": "amountB",
							"type": "uint256"
						}
					],
					"name": "LiquidityAdded",
					"type": "event"
				},
				{
					"anonymous": false,
					"inputs": [
						{
							"indexed": false,
							"internalType": "uint256",
							"name": "amountA",
							"type": "uint256"
						},
						{
							"indexed": false,
							"internalType": "uint256",
							"name": "amountB",
							"type": "uint256"
						}
					],
					"name": "LiquidityRemoved",
					"type": "event"
				},
				{
					"anonymous": false,
					"inputs": [
						{
							"indexed": true,
							"internalType": "address",
							"name": "user",
							"type": "address"
						},
						{
							"indexed": false,
							"internalType": "uint256",
							"name": "amountIn",
							"type": "uint256"
						},
						{
							"indexed": false,
							"internalType": "uint256",
							"name": "amountOut",
							"type": "uint256"
						},
						{
							"indexed": false,
							"internalType": "string",
							"name": "direction",
							"type": "string"
						}
					],
					"name": "TokensSwapped",
					"type": "event"
				},
				{
					"inputs": [
						{
							"internalType": "uint256",
							"name": "amountA",
							"type": "uint256"
						},
						{
							"internalType": "uint256",
							"name": "amountB",
							"type": "uint256"
						}
					],
					"name": "addLiquidity",
					"outputs": [],
					"stateMutability": "nonpayable",
					"type": "function"
				},
				{
					"inputs": [
						{
							"internalType": "address",
							"name": "_token",
							"type": "address"
						}
					],
					"name": "getPrice",
					"outputs": [
						{
							"internalType": "uint256",
							"name": "",
							"type": "uint256"
						}
					],
					"stateMutability": "view",
					"type": "function"
				},
				{
					"inputs": [
						{
							"internalType": "uint256",
							"name": "amountA",
							"type": "uint256"
						},
						{
							"internalType": "uint256",
							"name": "amountB",
							"type": "uint256"
						}
					],
					"name": "removeLiquidity",
					"outputs": [],
					"stateMutability": "nonpayable",
					"type": "function"
				},
				{
					"inputs": [],
					"name": "reserveA",
					"outputs": [
						{
							"internalType": "uint256",
							"name": "",
							"type": "uint256"
						}
					],
					"stateMutability": "view",
					"type": "function"
				},
				{
					"inputs": [],
					"name": "reserveB",
					"outputs": [
						{
							"internalType": "uint256",
							"name": "",
							"type": "uint256"
						}
					],
					"stateMutability": "view",
					"type": "function"
				},
				{
					"inputs": [
						{
							"internalType": "uint256",
							"name": "amountAIn",
							"type": "uint256"
						}
					],
					"name": "swapAforB",
					"outputs": [],
					"stateMutability": "nonpayable",
					"type": "function"
				},
				{
					"inputs": [
						{
							"internalType": "uint256",
							"name": "amountBIn",
							"type": "uint256"
						}
					],
					"name": "swapBforA",
					"outputs": [],
					"stateMutability": "nonpayable",
					"type": "function"
				},
				{
					"inputs": [],
					"name": "tokenA",
					"outputs": [
						{
							"internalType": "address",
							"name": "",
							"type": "address"
						}
					],
					"stateMutability": "view",
					"type": "function"
				},
				{
					"inputs": [],
					"name": "tokenB",
					"outputs": [
						{
							"internalType": "address",
							"name": "",
							"type": "address"
						}
					],
					"stateMutability": "view",
					"type": "function"
				}
			],
			"devdoc": {
				"kind": "dev",
				"methods": {},
				"version": 1
			},
			"evm": {
				"assembly": "    /* \"simpleDEX2.sol\":120:3939  contract SimpleDEX {... */\n  mstore(0x40, 0x80)\n    /* \"simpleDEX2.sol\":495:603  constructor(address _tokenA, address _tokenB) {... */\n  callvalue\n  dup1\n  iszero\n  tag_1\n  jumpi\n  0x00\n  dup1\n  revert\ntag_1:\n  pop\n  mload(0x40)\n  sub(codesize, bytecodeSize)\n  dup1\n  bytecodeSize\n  dup4\n  codecopy\n  dup2\n  dup2\n  add\n  0x40\n  mstore\n  dup2\n  add\n  swap1\n  tag_2\n  swap2\n  swap1\n  tag_3\n  jump\t// in\ntag_2:\n    /* \"simpleDEX2.sol\":561:568  _tokenA */\n  dup2\n    /* \"simpleDEX2.sol\":552:558  tokenA */\n  0x00\n  dup1\n    /* \"simpleDEX2.sol\":552:568  tokenA = _tokenA */\n  0x0100\n  exp\n  dup2\n  sload\n  dup2\n  0xffffffffffffffffffffffffffffffffffffffff\n  mul\n  not\n  and\n  swap1\n  dup4\n  0xffffffffffffffffffffffffffffffffffffffff\n  and\n  mul\n  or\n  swap1\n  sstore\n  pop\n    /* \"simpleDEX2.sol\":588:595  _tokenB */\n  dup1\n    /* \"simpleDEX2.sol\":579:585  tokenB */\n  0x01\n  0x00\n    /* \"simpleDEX2.sol\":579:595  tokenB = _tokenB */\n  0x0100\n  exp\n  dup2\n  sload\n  dup2\n  0xffffffffffffffffffffffffffffffffffffffff\n  mul\n  not\n  and\n  swap1\n  dup4\n  0xffffffffffffffffffffffffffffffffffffffff\n  and\n  mul\n  or\n  swap1\n  sstore\n  pop\n    /* \"simpleDEX2.sol\":495:603  constructor(address _tokenA, address _tokenB) {... */\n  pop\n  pop\n    /* \"simpleDEX2.sol\":120:3939  contract SimpleDEX {... */\n  jump(tag_6)\n    /* \"#utility.yul\":88:205   */\ntag_8:\n    /* \"#utility.yul\":197:198   */\n  0x00\n    /* \"#utility.yul\":194:195   */\n  dup1\n    /* \"#utility.yul\":187:199   */\n  revert\n    /* \"#utility.yul\":334:460   */\ntag_10:\n    /* \"#utility.yul\":371:378   */\n  0x00\n    /* \"#utility.yul\":411:453   */\n  0xffffffffffffffffffffffffffffffffffffffff\n    /* \"#utility.yul\":404:409   */\n  dup3\n    /* \"#utility.yul\":400:454   */\n  and\n    /* \"#utility.yul\":389:454   */\n  swap1\n  pop\n    /* \"#utility.yul\":334:460   */\n  swap2\n  swap1\n  pop\n  jump\t// out\n    /* \"#utility.yul\":466:562   */\ntag_11:\n    /* \"#utility.yul\":503:510   */\n  0x00\n    /* \"#utility.yul\":532:556   */\n  tag_20\n    /* \"#utility.yul\":550:555   */\n  dup3\n    /* \"#utility.yul\":532:556   */\n  tag_10\n  jump\t// in\ntag_20:\n    /* \"#utility.yul\":521:556   */\n  swap1\n  pop\n    /* \"#utility.yul\":466:562   */\n  swap2\n  swap1\n  pop\n  jump\t// out\n    /* \"#utility.yul\":568:690   */\ntag_12:\n    /* \"#utility.yul\":641:665   */\n  tag_22\n    /* \"#utility.yul\":659:664   */\n  dup2\n    /* \"#utility.yul\":641:665   */\n  tag_11\n  jump\t// in\ntag_22:\n    /* \"#utility.yul\":634:639   */\n  dup2\n    /* \"#utility.yul\":631:666   */\n  eq\n    /* \"#utility.yul\":621:684   */\n  tag_23\n  jumpi\n    /* \"#utility.yul\":680:681   */\n  0x00\n    /* \"#utility.yul\":677:678   */\n  dup1\n    /* \"#utility.yul\":670:682   */\n  revert\n    /* \"#utility.yul\":621:684   */\ntag_23:\n    /* \"#utility.yul\":568:690   */\n  pop\n  jump\t// out\n    /* \"#utility.yul\":696:839   */\ntag_13:\n    /* \"#utility.yul\":753:758   */\n  0x00\n    /* \"#utility.yul\":784:790   */\n  dup2\n    /* \"#utility.yul\":778:791   */\n  mload\n    /* \"#utility.yul\":769:791   */\n  swap1\n  pop\n    /* \"#utility.yul\":800:833   */\n  tag_25\n    /* \"#utility.yul\":827:832   */\n  dup2\n    /* \"#utility.yul\":800:833   */\n  tag_12\n  jump\t// in\ntag_25:\n    /* \"#utility.yul\":696:839   */\n  swap3\n  swap2\n  pop\n  pop\n  jump\t// out\n    /* \"#utility.yul\":845:1352   */\ntag_3:\n    /* \"#utility.yul\":924:930   */\n  0x00\n    /* \"#utility.yul\":932:938   */\n  dup1\n    /* \"#utility.yul\":981:983   */\n  0x40\n    /* \"#utility.yul\":969:978   */\n  dup4\n    /* \"#utility.yul\":960:967   */\n  dup6\n    /* \"#utility.yul\":956:979   */\n  sub\n    /* \"#utility.yul\":952:984   */\n  slt\n    /* \"#utility.yul\":949:1068   */\n  iszero\n  tag_27\n  jumpi\n    /* \"#utility.yul\":987:1066   */\n  tag_28\n  tag_8\n  jump\t// in\ntag_28:\n    /* \"#utility.yul\":949:1068   */\ntag_27:\n    /* \"#utility.yul\":1107:1108   */\n  0x00\n    /* \"#utility.yul\":1132:1196   */\n  tag_29\n    /* \"#utility.yul\":1188:1195   */\n  dup6\n    /* \"#utility.yul\":1179:1185   */\n  dup3\n    /* \"#utility.yul\":1168:1177   */\n  dup7\n    /* \"#utility.yul\":1164:1186   */\n  add\n    /* \"#utility.yul\":1132:1196   */\n  tag_13\n  jump\t// in\ntag_29:\n    /* \"#utility.yul\":1122:1196   */\n  swap3\n  pop\n    /* \"#utility.yul\":1078:1206   */\n  pop\n    /* \"#utility.yul\":1245:1247   */\n  0x20\n    /* \"#utility.yul\":1271:1335   */\n  tag_30\n    /* \"#utility.yul\":1327:1334   */\n  dup6\n    /* \"#utility.yul\":1318:1324   */\n  dup3\n    /* \"#utility.yul\":1307:1316   */\n  dup7\n    /* \"#utility.yul\":1303:1325   */\n  add\n    /* \"#utility.yul\":1271:1335   */\n  tag_13\n  jump\t// in\ntag_30:\n    /* \"#utility.yul\":1261:1335   */\n  swap2\n  pop\n    /* \"#utility.yul\":1216:1345   */\n  pop\n    /* \"#utility.yul\":845:1352   */\n  swap3\n  pop\n  swap3\n  swap1\n  pop\n  jump\t// out\n    /* \"simpleDEX2.sol\":120:3939  contract SimpleDEX {... */\ntag_6:\n  dataSize(sub_0)\n  dup1\n  dataOffset(sub_0)\n  0x00\n  codecopy\n  0x00\n  return\nstop\n\nsub_0: assembly {\n        /* \"simpleDEX2.sol\":120:3939  contract SimpleDEX {... */\n      mstore(0x40, 0x80)\n      callvalue\n      dup1\n      iszero\n      tag_1\n      jumpi\n      0x00\n      dup1\n      revert\n    tag_1:\n      pop\n      jumpi(tag_2, lt(calldatasize, 0x04))\n      shr(0xe0, calldataload(0x00))\n      dup1\n      0x8014a7aa\n      gt\n      tag_12\n      jumpi\n      dup1\n      0x8014a7aa\n      eq\n      tag_7\n      jumpi\n      dup1\n      0x9cd441da\n      eq\n      tag_8\n      jumpi\n      dup1\n      0x9d7de6b3\n      eq\n      tag_9\n      jumpi\n      dup1\n      0xdc5fa6c5\n      eq\n      tag_10\n      jumpi\n      dup1\n      0xe4f1f70a\n      eq\n      tag_11\n      jumpi\n      jump(tag_2)\n    tag_12:\n      dup1\n      0x0fc63d10\n      eq\n      tag_3\n      jumpi\n      dup1\n      0x19e36f3b\n      eq\n      tag_4\n      jumpi\n      dup1\n      0x41976e09\n      eq\n      tag_5\n      jumpi\n      dup1\n      0x5f64b55b\n      eq\n      tag_6\n      jumpi\n    tag_2:\n      0x00\n      dup1\n      revert\n        /* \"simpleDEX2.sol\":146:167  address public tokenA */\n    tag_3:\n      tag_13\n      tag_14\n      jump\t// in\n    tag_13:\n      mload(0x40)\n      tag_15\n      swap2\n      swap1\n      tag_16\n      jump\t// in\n    tag_15:\n      mload(0x40)\n      dup1\n      swap2\n      sub\n      swap1\n      return\n        /* \"simpleDEX2.sol\":234:257  uint256 public reserveB */\n    tag_4:\n      tag_17\n      tag_18\n      jump\t// in\n    tag_17:\n      mload(0x40)\n      tag_19\n      swap2\n      swap1\n      tag_20\n      jump\t// in\n    tag_19:\n      mload(0x40)\n      dup1\n      swap2\n      sub\n      swap1\n      return\n        /* \"simpleDEX2.sol\":3533:3936  function getPrice(address _token) external view returns (uint256) {... */\n    tag_5:\n      tag_21\n      0x04\n      dup1\n      calldatasize\n      sub\n      dup2\n      add\n      swap1\n      tag_22\n      swap2\n      swap1\n      tag_23\n      jump\t// in\n    tag_22:\n      tag_24\n      jump\t// in\n    tag_21:\n      mload(0x40)\n      tag_25\n      swap2\n      swap1\n      tag_20\n      jump\t// in\n    tag_25:\n      mload(0x40)\n      dup1\n      swap2\n      sub\n      swap1\n      return\n        /* \"simpleDEX2.sol\":174:195  address public tokenB */\n    tag_6:\n      tag_26\n      tag_27\n      jump\t// in\n    tag_26:\n      mload(0x40)\n      tag_28\n      swap2\n      swap1\n      tag_16\n      jump\t// in\n    tag_28:\n      mload(0x40)\n      dup1\n      swap2\n      sub\n      swap1\n      return\n        /* \"simpleDEX2.sol\":2070:2914  function swapBforA(uint256 amountBIn) external {... */\n    tag_7:\n      tag_29\n      0x04\n      dup1\n      calldatasize\n      sub\n      dup2\n      add\n      swap1\n      tag_30\n      swap2\n      swap1\n      tag_31\n      jump\t// in\n    tag_30:\n      tag_32\n      jump\t// in\n    tag_29:\n      stop\n        /* \"simpleDEX2.sol\":636:1132  function addLiquidity(uint256 amountA, uint256 amountB) external {... */\n    tag_8:\n      tag_33\n      0x04\n      dup1\n      calldatasize\n      sub\n      dup2\n      add\n      swap1\n      tag_34\n      swap2\n      swap1\n      tag_35\n      jump\t// in\n    tag_34:\n      tag_36\n      jump\t// in\n    tag_33:\n      stop\n        /* \"simpleDEX2.sol\":2947:3500  function removeLiquidity(uint256 amountA, uint256 amountB) external {... */\n    tag_9:\n      tag_37\n      0x04\n      dup1\n      calldatasize\n      sub\n      dup2\n      add\n      swap1\n      tag_38\n      swap2\n      swap1\n      tag_35\n      jump\t// in\n    tag_38:\n      tag_39\n      jump\t// in\n    tag_37:\n      stop\n        /* \"simpleDEX2.sol\":204:227  uint256 public reserveA */\n    tag_10:\n      tag_40\n      tag_41\n      jump\t// in\n    tag_40:\n      mload(0x40)\n      tag_42\n      swap2\n      swap1\n      tag_20\n      jump\t// in\n    tag_42:\n      mload(0x40)\n      dup1\n      swap2\n      sub\n      swap1\n      return\n        /* \"simpleDEX2.sol\":1179:2023  function swapAforB(uint256 amountAIn) external {... */\n    tag_11:\n      tag_43\n      0x04\n      dup1\n      calldatasize\n      sub\n      dup2\n      add\n      swap1\n      tag_44\n      swap2\n      swap1\n      tag_31\n      jump\t// in\n    tag_44:\n      tag_45\n      jump\t// in\n    tag_43:\n      stop\n        /* \"simpleDEX2.sol\":146:167  address public tokenA */\n    tag_14:\n      0x00\n      dup1\n      sload\n      swap1\n      0x0100\n      exp\n      swap1\n      div\n      0xffffffffffffffffffffffffffffffffffffffff\n      and\n      dup2\n      jump\t// out\n        /* \"simpleDEX2.sol\":234:257  uint256 public reserveB */\n    tag_18:\n      sload(0x03)\n      dup2\n      jump\t// out\n        /* \"simpleDEX2.sol\":3533:3936  function getPrice(address _token) external view returns (uint256) {... */\n    tag_24:\n        /* \"simpleDEX2.sol\":3590:3597  uint256 */\n      0x00\n        /* \"simpleDEX2.sol\":3628:3634  tokenA */\n      dup1\n      0x00\n      swap1\n      sload\n      swap1\n      0x0100\n      exp\n      swap1\n      div\n      0xffffffffffffffffffffffffffffffffffffffff\n      and\n        /* \"simpleDEX2.sol\":3618:3634  _token == tokenA */\n      0xffffffffffffffffffffffffffffffffffffffff\n      and\n        /* \"simpleDEX2.sol\":3618:3624  _token */\n      dup3\n        /* \"simpleDEX2.sol\":3618:3634  _token == tokenA */\n      0xffffffffffffffffffffffffffffffffffffffff\n      and\n      eq\n        /* \"simpleDEX2.sol\":3618:3654  _token == tokenA || _token == tokenB */\n      dup1\n      tag_47\n      jumpi\n      pop\n        /* \"simpleDEX2.sol\":3648:3654  tokenB */\n      0x01\n      0x00\n      swap1\n      sload\n      swap1\n      0x0100\n      exp\n      swap1\n      div\n      0xffffffffffffffffffffffffffffffffffffffff\n      and\n        /* \"simpleDEX2.sol\":3638:3654  _token == tokenB */\n      0xffffffffffffffffffffffffffffffffffffffff\n      and\n        /* \"simpleDEX2.sol\":3638:3644  _token */\n      dup3\n        /* \"simpleDEX2.sol\":3638:3654  _token == tokenB */\n      0xffffffffffffffffffffffffffffffffffffffff\n      and\n      eq\n        /* \"simpleDEX2.sol\":3618:3654  _token == tokenA || _token == tokenB */\n    tag_47:\n        /* \"simpleDEX2.sol\":3610:3680  require(_token == tokenA || _token == tokenB, \"Invalid token address\") */\n      tag_48\n      jumpi\n      mload(0x40)\n      0x08c379a000000000000000000000000000000000000000000000000000000000\n      dup2\n      mstore\n      0x04\n      add\n      tag_49\n      swap1\n      tag_50\n      jump\t// in\n    tag_49:\n      mload(0x40)\n      dup1\n      swap2\n      sub\n      swap1\n      revert\n    tag_48:\n        /* \"simpleDEX2.sol\":3705:3711  tokenA */\n      0x00\n      dup1\n      sload\n      swap1\n      0x0100\n      exp\n      swap1\n      div\n      0xffffffffffffffffffffffffffffffffffffffff\n      and\n        /* \"simpleDEX2.sol\":3695:3711  _token == tokenA */\n      0xffffffffffffffffffffffffffffffffffffffff\n      and\n        /* \"simpleDEX2.sol\":3695:3701  _token */\n      dup3\n        /* \"simpleDEX2.sol\":3695:3711  _token == tokenA */\n      0xffffffffffffffffffffffffffffffffffffffff\n      and\n      sub\n        /* \"simpleDEX2.sol\":3691:3929  if (_token == tokenA) {... */\n      tag_51\n      jumpi\n        /* \"simpleDEX2.sol\":3755:3763  reserveA */\n      sload(0x02)\n        /* \"simpleDEX2.sol\":3747:3751  1e18 */\n      0x0de0b6b3a7640000\n        /* \"simpleDEX2.sol\":3736:3744  reserveB */\n      sload(0x03)\n        /* \"simpleDEX2.sol\":3736:3751  reserveB * 1e18 */\n      tag_52\n      swap2\n      swap1\n      tag_53\n      jump\t// in\n    tag_52:\n        /* \"simpleDEX2.sol\":3735:3763  (reserveB * 1e18) / reserveA */\n      tag_54\n      swap2\n      swap1\n      tag_55\n      jump\t// in\n    tag_54:\n        /* \"simpleDEX2.sol\":3728:3763  return (reserveB * 1e18) / reserveA */\n      swap1\n      pop\n      jump(tag_46)\n        /* \"simpleDEX2.sol\":3691:3929  if (_token == tokenA) {... */\n    tag_51:\n        /* \"simpleDEX2.sol\":3866:3874  reserveB */\n      sload(0x03)\n        /* \"simpleDEX2.sol\":3858:3862  1e18 */\n      0x0de0b6b3a7640000\n        /* \"simpleDEX2.sol\":3847:3855  reserveA */\n      sload(0x02)\n        /* \"simpleDEX2.sol\":3847:3862  reserveA * 1e18 */\n      tag_57\n      swap2\n      swap1\n      tag_53\n      jump\t// in\n    tag_57:\n        /* \"simpleDEX2.sol\":3846:3874  (reserveA * 1e18) / reserveB */\n      tag_58\n      swap2\n      swap1\n      tag_55\n      jump\t// in\n    tag_58:\n        /* \"simpleDEX2.sol\":3839:3874  return (reserveA * 1e18) / reserveB */\n      swap1\n      pop\n        /* \"simpleDEX2.sol\":3533:3936  function getPrice(address _token) external view returns (uint256) {... */\n    tag_46:\n      swap2\n      swap1\n      pop\n      jump\t// out\n        /* \"simpleDEX2.sol\":174:195  address public tokenB */\n    tag_27:\n      0x01\n      0x00\n      swap1\n      sload\n      swap1\n      0x0100\n      exp\n      swap1\n      div\n      0xffffffffffffffffffffffffffffffffffffffff\n      and\n      dup2\n      jump\t// out\n        /* \"simpleDEX2.sol\":2070:2914  function swapBforA(uint256 amountBIn) external {... */\n    tag_32:\n        /* \"simpleDEX2.sol\":2148:2149  0 */\n      0x00\n        /* \"simpleDEX2.sol\":2136:2145  amountBIn */\n      dup2\n        /* \"simpleDEX2.sol\":2136:2149  amountBIn > 0 */\n      gt\n        /* \"simpleDEX2.sol\":2128:2186  require(amountBIn > 0, \"Amount must be greater than zero\") */\n      tag_60\n      jumpi\n      mload(0x40)\n      0x08c379a000000000000000000000000000000000000000000000000000000000\n      dup2\n      mstore\n      0x04\n      add\n      tag_61\n      swap1\n      tag_62\n      jump\t// in\n    tag_61:\n      mload(0x40)\n      dup1\n      swap2\n      sub\n      swap1\n      revert\n    tag_60:\n        /* \"simpleDEX2.sol\":2216:2217  0 */\n      0x00\n        /* \"simpleDEX2.sol\":2205:2213  reserveA */\n      sload(0x02)\n        /* \"simpleDEX2.sol\":2205:2217  reserveA > 0 */\n      gt\n        /* \"simpleDEX2.sol\":2205:2233  reserveA > 0 && reserveB > 0 */\n      dup1\n      iszero\n      tag_63\n      jumpi\n      pop\n        /* \"simpleDEX2.sol\":2232:2233  0 */\n      0x00\n        /* \"simpleDEX2.sol\":2221:2229  reserveB */\n      sload(0x03)\n        /* \"simpleDEX2.sol\":2221:2233  reserveB > 0 */\n      gt\n        /* \"simpleDEX2.sol\":2205:2233  reserveA > 0 && reserveB > 0 */\n    tag_63:\n        /* \"simpleDEX2.sol\":2197:2260  require(reserveA > 0 && reserveB > 0, \"Insufficient liquidity\") */\n      tag_64\n      jumpi\n      mload(0x40)\n      0x08c379a000000000000000000000000000000000000000000000000000000000\n      dup2\n      mstore\n      0x04\n      add\n      tag_65\n      swap1\n      tag_66\n      jump\t// in\n    tag_65:\n      mload(0x40)\n      dup1\n      swap2\n      sub\n      swap1\n      revert\n    tag_64:\n        /* \"simpleDEX2.sol\":2365:2383  uint256 amountAOut */\n      0x00\n        /* \"simpleDEX2.sol\":2423:2432  amountBIn */\n      dup2\n        /* \"simpleDEX2.sol\":2412:2420  reserveB */\n      sload(0x03)\n        /* \"simpleDEX2.sol\":2412:2432  reserveB + amountBIn */\n      tag_67\n      swap2\n      swap1\n      tag_68\n      jump\t// in\n    tag_67:\n        /* \"simpleDEX2.sol\":2398:2407  amountBIn */\n      dup3\n        /* \"simpleDEX2.sol\":2387:2395  reserveA */\n      sload(0x02)\n        /* \"simpleDEX2.sol\":2387:2407  reserveA * amountBIn */\n      tag_69\n      swap2\n      swap1\n      tag_53\n      jump\t// in\n    tag_69:\n        /* \"simpleDEX2.sol\":2386:2433  (reserveA * amountBIn) / (reserveB + amountBIn) */\n      tag_70\n      swap2\n      swap1\n      tag_55\n      jump\t// in\n    tag_70:\n        /* \"simpleDEX2.sol\":2365:2433  uint256 amountAOut = (reserveA * amountBIn) / (reserveB + amountBIn) */\n      swap1\n      pop\n        /* \"simpleDEX2.sol\":2467:2468  0 */\n      0x00\n        /* \"simpleDEX2.sol\":2454:2464  amountAOut */\n      dup2\n        /* \"simpleDEX2.sol\":2454:2468  amountAOut > 0 */\n      gt\n        /* \"simpleDEX2.sol\":2446:2512  require(amountAOut > 0, \"Output amount must be greater than zero\") */\n      tag_71\n      jumpi\n      mload(0x40)\n      0x08c379a000000000000000000000000000000000000000000000000000000000\n      dup2\n      mstore\n      0x04\n      add\n      tag_72\n      swap1\n      tag_73\n      jump\t// in\n    tag_72:\n      mload(0x40)\n      dup1\n      swap2\n      sub\n      swap1\n      revert\n    tag_71:\n        /* \"simpleDEX2.sol\":2574:2580  tokenB */\n      0x01\n      0x00\n      swap1\n      sload\n      swap1\n      0x0100\n      exp\n      swap1\n      div\n      0xffffffffffffffffffffffffffffffffffffffff\n      and\n        /* \"simpleDEX2.sol\":2567:2594  IERC20(tokenB).transferFrom */\n      0xffffffffffffffffffffffffffffffffffffffff\n      and\n      0x23b872dd\n        /* \"simpleDEX2.sol\":2595:2605  msg.sender */\n      caller\n        /* \"simpleDEX2.sol\":2615:2619  this */\n      address\n        /* \"simpleDEX2.sol\":2622:2631  amountBIn */\n      dup6\n        /* \"simpleDEX2.sol\":2567:2632  IERC20(tokenB).transferFrom(msg.sender, address(this), amountBIn) */\n      mload(0x40)\n      dup5\n      0xffffffff\n      and\n      0xe0\n      shl\n      dup2\n      mstore\n      0x04\n      add\n      tag_74\n      swap4\n      swap3\n      swap2\n      swap1\n      tag_75\n      jump\t// in\n    tag_74:\n      0x20\n      mload(0x40)\n      dup1\n      dup4\n      sub\n      dup2\n      0x00\n      dup8\n      gas\n      call\n      iszero\n      dup1\n      iszero\n      tag_77\n      jumpi\n      returndatasize\n      0x00\n      dup1\n      returndatacopy\n      revert(0x00, returndatasize)\n    tag_77:\n      pop\n      pop\n      pop\n      pop\n      mload(0x40)\n      returndatasize\n      not(0x1f)\n      0x1f\n      dup3\n      add\n      and\n      dup3\n      add\n      dup1\n      0x40\n      mstore\n      pop\n      dup2\n      add\n      swap1\n      tag_78\n      swap2\n      swap1\n      tag_79\n      jump\t// in\n    tag_78:\n      pop\n        /* \"simpleDEX2.sol\":2693:2699  tokenA */\n      0x00\n      dup1\n      sload\n      swap1\n      0x0100\n      exp\n      swap1\n      div\n      0xffffffffffffffffffffffffffffffffffffffff\n      and\n        /* \"simpleDEX2.sol\":2686:2709  IERC20(tokenA).transfer */\n      0xffffffffffffffffffffffffffffffffffffffff\n      and\n      0xa9059cbb\n        /* \"simpleDEX2.sol\":2710:2720  msg.sender */\n      caller\n        /* \"simpleDEX2.sol\":2722:2732  amountAOut */\n      dup4\n        /* \"simpleDEX2.sol\":2686:2733  IERC20(tokenA).transfer(msg.sender, amountAOut) */\n      mload(0x40)\n      dup4\n      0xffffffff\n      and\n      0xe0\n      shl\n      dup2\n      mstore\n      0x04\n      add\n      tag_80\n      swap3\n      swap2\n      swap1\n      tag_81\n      jump\t// in\n    tag_80:\n      0x20\n      mload(0x40)\n      dup1\n      dup4\n      sub\n      dup2\n      0x00\n      dup8\n      gas\n      call\n      iszero\n      dup1\n      iszero\n      tag_83\n      jumpi\n      returndatasize\n      0x00\n      dup1\n      returndatacopy\n      revert(0x00, returndatasize)\n    tag_83:\n      pop\n      pop\n      pop\n      pop\n      mload(0x40)\n      returndatasize\n      not(0x1f)\n      0x1f\n      dup3\n      add\n      and\n      dup3\n      add\n      dup1\n      0x40\n      mstore\n      pop\n      dup2\n      add\n      swap1\n      tag_84\n      swap2\n      swap1\n      tag_79\n      jump\t// in\n    tag_84:\n      pop\n        /* \"simpleDEX2.sol\":2790:2800  amountAOut */\n      dup1\n        /* \"simpleDEX2.sol\":2778:2786  reserveA */\n      0x02\n      0x00\n        /* \"simpleDEX2.sol\":2778:2800  reserveA -= amountAOut */\n      dup3\n      dup3\n      sload\n      tag_85\n      swap2\n      swap1\n      tag_86\n      jump\t// in\n    tag_85:\n      swap3\n      pop\n      pop\n      dup2\n      swap1\n      sstore\n      pop\n        /* \"simpleDEX2.sol\":2823:2832  amountBIn */\n      dup2\n        /* \"simpleDEX2.sol\":2811:2819  reserveB */\n      0x03\n      0x00\n        /* \"simpleDEX2.sol\":2811:2832  reserveB += amountBIn */\n      dup3\n      dup3\n      sload\n      tag_87\n      swap2\n      swap1\n      tag_68\n      jump\t// in\n    tag_87:\n      swap3\n      pop\n      pop\n      dup2\n      swap1\n      sstore\n      pop\n        /* \"simpleDEX2.sol\":2864:2874  msg.sender */\n      caller\n        /* \"simpleDEX2.sol\":2850:2906  TokensSwapped(msg.sender, amountBIn, amountAOut, \"B->A\") */\n      0xffffffffffffffffffffffffffffffffffffffff\n      and\n      0x5fe997f80da1632e1237be5a3f6b702cfa91e654659e831b2c723bc5226b50f4\n        /* \"simpleDEX2.sol\":2876:2885  amountBIn */\n      dup4\n        /* \"simpleDEX2.sol\":2887:2897  amountAOut */\n      dup4\n        /* \"simpleDEX2.sol\":2850:2906  TokensSwapped(msg.sender, amountBIn, amountAOut, \"B->A\") */\n      mload(0x40)\n      tag_88\n      swap3\n      swap2\n      swap1\n      tag_89\n      jump\t// in\n    tag_88:\n      mload(0x40)\n      dup1\n      swap2\n      sub\n      swap1\n      log2\n        /* \"simpleDEX2.sol\":2117:2914  {... */\n      pop\n        /* \"simpleDEX2.sol\":2070:2914  function swapBforA(uint256 amountBIn) external {... */\n      pop\n      jump\t// out\n        /* \"simpleDEX2.sol\":636:1132  function addLiquidity(uint256 amountA, uint256 amountB) external {... */\n    tag_36:\n        /* \"simpleDEX2.sol\":730:731  0 */\n      0x00\n        /* \"simpleDEX2.sol\":720:727  amountA */\n      dup3\n        /* \"simpleDEX2.sol\":720:731  amountA > 0 */\n      gt\n        /* \"simpleDEX2.sol\":720:746  amountA > 0 && amountB > 0 */\n      dup1\n      iszero\n      tag_91\n      jumpi\n      pop\n        /* \"simpleDEX2.sol\":745:746  0 */\n      0x00\n        /* \"simpleDEX2.sol\":735:742  amountB */\n      dup2\n        /* \"simpleDEX2.sol\":735:746  amountB > 0 */\n      gt\n        /* \"simpleDEX2.sol\":720:746  amountA > 0 && amountB > 0 */\n    tag_91:\n        /* \"simpleDEX2.sol\":712:784  require(amountA > 0 && amountB > 0, \"Amounts must be greater than zero\") */\n      tag_92\n      jumpi\n      mload(0x40)\n      0x08c379a000000000000000000000000000000000000000000000000000000000\n      dup2\n      mstore\n      0x04\n      add\n      tag_93\n      swap1\n      tag_94\n      jump\t// in\n    tag_93:\n      mload(0x40)\n      dup1\n      swap2\n      sub\n      swap1\n      revert\n    tag_92:\n        /* \"simpleDEX2.sol\":850:856  tokenA */\n      0x00\n      dup1\n      sload\n      swap1\n      0x0100\n      exp\n      swap1\n      div\n      0xffffffffffffffffffffffffffffffffffffffff\n      and\n        /* \"simpleDEX2.sol\":843:870  IERC20(tokenA).transferFrom */\n      0xffffffffffffffffffffffffffffffffffffffff\n      and\n      0x23b872dd\n        /* \"simpleDEX2.sol\":871:881  msg.sender */\n      caller\n        /* \"simpleDEX2.sol\":891:895  this */\n      address\n        /* \"simpleDEX2.sol\":898:905  amountA */\n      dup6\n        /* \"simpleDEX2.sol\":843:906  IERC20(tokenA).transferFrom(msg.sender, address(this), amountA) */\n      mload(0x40)\n      dup5\n      0xffffffff\n      and\n      0xe0\n      shl\n      dup2\n      mstore\n      0x04\n      add\n      tag_95\n      swap4\n      swap3\n      swap2\n      swap1\n      tag_75\n      jump\t// in\n    tag_95:\n      0x20\n      mload(0x40)\n      dup1\n      dup4\n      sub\n      dup2\n      0x00\n      dup8\n      gas\n      call\n      iszero\n      dup1\n      iszero\n      tag_97\n      jumpi\n      returndatasize\n      0x00\n      dup1\n      returndatacopy\n      revert(0x00, returndatasize)\n    tag_97:\n      pop\n      pop\n      pop\n      pop\n      mload(0x40)\n      returndatasize\n      not(0x1f)\n      0x1f\n      dup3\n      add\n      and\n      dup3\n      add\n      dup1\n      0x40\n      mstore\n      pop\n      dup2\n      add\n      swap1\n      tag_98\n      swap2\n      swap1\n      tag_79\n      jump\t// in\n    tag_98:\n      pop\n        /* \"simpleDEX2.sol\":924:930  tokenB */\n      0x01\n      0x00\n      swap1\n      sload\n      swap1\n      0x0100\n      exp\n      swap1\n      div\n      0xffffffffffffffffffffffffffffffffffffffff\n      and\n        /* \"simpleDEX2.sol\":917:944  IERC20(tokenB).transferFrom */\n      0xffffffffffffffffffffffffffffffffffffffff\n      and\n      0x23b872dd\n        /* \"simpleDEX2.sol\":945:955  msg.sender */\n      caller\n        /* \"simpleDEX2.sol\":965:969  this */\n      address\n        /* \"simpleDEX2.sol\":972:979  amountB */\n      dup5\n        /* \"simpleDEX2.sol\":917:980  IERC20(tokenB).transferFrom(msg.sender, address(this), amountB) */\n      mload(0x40)\n      dup5\n      0xffffffff\n      and\n      0xe0\n      shl\n      dup2\n      mstore\n      0x04\n      add\n      tag_99\n      swap4\n      swap3\n      swap2\n      swap1\n      tag_75\n      jump\t// in\n    tag_99:\n      0x20\n      mload(0x40)\n      dup1\n      dup4\n      sub\n      dup2\n      0x00\n      dup8\n      gas\n      call\n      iszero\n      dup1\n      iszero\n      tag_101\n      jumpi\n      returndatasize\n      0x00\n      dup1\n      returndatacopy\n      revert(0x00, returndatasize)\n    tag_101:\n      pop\n      pop\n      pop\n      pop\n      mload(0x40)\n      returndatasize\n      not(0x1f)\n      0x1f\n      dup3\n      add\n      and\n      dup3\n      add\n      dup1\n      0x40\n      mstore\n      pop\n      dup2\n      add\n      swap1\n      tag_102\n      swap2\n      swap1\n      tag_79\n      jump\t// in\n    tag_102:\n      pop\n        /* \"simpleDEX2.sol\":1037:1044  amountA */\n      dup2\n        /* \"simpleDEX2.sol\":1025:1033  reserveA */\n      0x02\n      0x00\n        /* \"simpleDEX2.sol\":1025:1044  reserveA += amountA */\n      dup3\n      dup3\n      sload\n      tag_103\n      swap2\n      swap1\n      tag_68\n      jump\t// in\n    tag_103:\n      swap3\n      pop\n      pop\n      dup2\n      swap1\n      sstore\n      pop\n        /* \"simpleDEX2.sol\":1067:1074  amountB */\n      dup1\n        /* \"simpleDEX2.sol\":1055:1063  reserveB */\n      0x03\n      0x00\n        /* \"simpleDEX2.sol\":1055:1074  reserveB += amountB */\n      dup3\n      dup3\n      sload\n      tag_104\n      swap2\n      swap1\n      tag_68\n      jump\t// in\n    tag_104:\n      swap3\n      pop\n      pop\n      dup2\n      swap1\n      sstore\n      pop\n        /* \"simpleDEX2.sol\":1092:1124  LiquidityAdded(amountA, amountB) */\n      0x38f8a0c92f4c5b0b6877f878cb4c0c8d348a47b76d716c8e78f425043df9515b\n        /* \"simpleDEX2.sol\":1107:1114  amountA */\n      dup3\n        /* \"simpleDEX2.sol\":1116:1123  amountB */\n      dup3\n        /* \"simpleDEX2.sol\":1092:1124  LiquidityAdded(amountA, amountB) */\n      mload(0x40)\n      tag_105\n      swap3\n      swap2\n      swap1\n      tag_106\n      jump\t// in\n    tag_105:\n      mload(0x40)\n      dup1\n      swap2\n      sub\n      swap1\n      log1\n        /* \"simpleDEX2.sol\":636:1132  function addLiquidity(uint256 amountA, uint256 amountB) external {... */\n      pop\n      pop\n      jump\t// out\n        /* \"simpleDEX2.sol\":2947:3500  function removeLiquidity(uint256 amountA, uint256 amountB) external {... */\n    tag_39:\n        /* \"simpleDEX2.sol\":3044:3045  0 */\n      0x00\n        /* \"simpleDEX2.sol\":3034:3041  amountA */\n      dup3\n        /* \"simpleDEX2.sol\":3034:3045  amountA > 0 */\n      gt\n        /* \"simpleDEX2.sol\":3034:3060  amountA > 0 && amountB > 0 */\n      dup1\n      iszero\n      tag_108\n      jumpi\n      pop\n        /* \"simpleDEX2.sol\":3059:3060  0 */\n      0x00\n        /* \"simpleDEX2.sol\":3049:3056  amountB */\n      dup2\n        /* \"simpleDEX2.sol\":3049:3060  amountB > 0 */\n      gt\n        /* \"simpleDEX2.sol\":3034:3060  amountA > 0 && amountB > 0 */\n    tag_108:\n        /* \"simpleDEX2.sol\":3026:3098  require(amountA > 0 && amountB > 0, \"Amounts must be greater than zero\") */\n      tag_109\n      jumpi\n      mload(0x40)\n      0x08c379a000000000000000000000000000000000000000000000000000000000\n      dup2\n      mstore\n      0x04\n      add\n      tag_110\n      swap1\n      tag_94\n      jump\t// in\n    tag_110:\n      mload(0x40)\n      dup1\n      swap2\n      sub\n      swap1\n      revert\n    tag_109:\n        /* \"simpleDEX2.sol\":3128:3136  reserveA */\n      sload(0x02)\n        /* \"simpleDEX2.sol\":3117:3124  amountA */\n      dup3\n        /* \"simpleDEX2.sol\":3117:3136  amountA <= reserveA */\n      gt\n      iszero\n        /* \"simpleDEX2.sol\":3117:3159  amountA <= reserveA && amountB <= reserveB */\n      dup1\n      iszero\n      tag_111\n      jumpi\n      pop\n        /* \"simpleDEX2.sol\":3151:3159  reserveB */\n      sload(0x03)\n        /* \"simpleDEX2.sol\":3140:3147  amountB */\n      dup2\n        /* \"simpleDEX2.sol\":3140:3159  amountB <= reserveB */\n      gt\n      iszero\n        /* \"simpleDEX2.sol\":3117:3159  amountA <= reserveA && amountB <= reserveB */\n    tag_111:\n        /* \"simpleDEX2.sol\":3109:3185  require(amountA <= reserveA && amountB <= reserveB, \"Insufficient reserves\") */\n      tag_112\n      jumpi\n      mload(0x40)\n      0x08c379a000000000000000000000000000000000000000000000000000000000\n      dup2\n      mstore\n      0x04\n      add\n      tag_113\n      swap1\n      tag_114\n      jump\t// in\n    tag_113:\n      mload(0x40)\n      dup1\n      swap2\n      sub\n      swap1\n      revert\n    tag_112:\n        /* \"simpleDEX2.sol\":3254:3260  tokenA */\n      0x00\n      dup1\n      sload\n      swap1\n      0x0100\n      exp\n      swap1\n      div\n      0xffffffffffffffffffffffffffffffffffffffff\n      and\n        /* \"simpleDEX2.sol\":3247:3270  IERC20(tokenA).transfer */\n      0xffffffffffffffffffffffffffffffffffffffff\n      and\n      0xa9059cbb\n        /* \"simpleDEX2.sol\":3271:3281  msg.sender */\n      caller\n        /* \"simpleDEX2.sol\":3283:3290  amountA */\n      dup5\n        /* \"simpleDEX2.sol\":3247:3291  IERC20(tokenA).transfer(msg.sender, amountA) */\n      mload(0x40)\n      dup4\n      0xffffffff\n      and\n      0xe0\n      shl\n      dup2\n      mstore\n      0x04\n      add\n      tag_115\n      swap3\n      swap2\n      swap1\n      tag_81\n      jump\t// in\n    tag_115:\n      0x20\n      mload(0x40)\n      dup1\n      dup4\n      sub\n      dup2\n      0x00\n      dup8\n      gas\n      call\n      iszero\n      dup1\n      iszero\n      tag_117\n      jumpi\n      returndatasize\n      0x00\n      dup1\n      returndatacopy\n      revert(0x00, returndatasize)\n    tag_117:\n      pop\n      pop\n      pop\n      pop\n      mload(0x40)\n      returndatasize\n      not(0x1f)\n      0x1f\n      dup3\n      add\n      and\n      dup3\n      add\n      dup1\n      0x40\n      mstore\n      pop\n      dup2\n      add\n      swap1\n      tag_118\n      swap2\n      swap1\n      tag_79\n      jump\t// in\n    tag_118:\n      pop\n        /* \"simpleDEX2.sol\":3309:3315  tokenB */\n      0x01\n      0x00\n      swap1\n      sload\n      swap1\n      0x0100\n      exp\n      swap1\n      div\n      0xffffffffffffffffffffffffffffffffffffffff\n      and\n        /* \"simpleDEX2.sol\":3302:3325  IERC20(tokenB).transfer */\n      0xffffffffffffffffffffffffffffffffffffffff\n      and\n      0xa9059cbb\n        /* \"simpleDEX2.sol\":3326:3336  msg.sender */\n      caller\n        /* \"simpleDEX2.sol\":3338:3345  amountB */\n      dup4\n        /* \"simpleDEX2.sol\":3302:3346  IERC20(tokenB).transfer(msg.sender, amountB) */\n      mload(0x40)\n      dup4\n      0xffffffff\n      and\n      0xe0\n      shl\n      dup2\n      mstore\n      0x04\n      add\n      tag_119\n      swap3\n      swap2\n      swap1\n      tag_81\n      jump\t// in\n    tag_119:\n      0x20\n      mload(0x40)\n      dup1\n      dup4\n      sub\n      dup2\n      0x00\n      dup8\n      gas\n      call\n      iszero\n      dup1\n      iszero\n      tag_121\n      jumpi\n      returndatasize\n      0x00\n      dup1\n      returndatacopy\n      revert(0x00, returndatasize)\n    tag_121:\n      pop\n      pop\n      pop\n      pop\n      mload(0x40)\n      returndatasize\n      not(0x1f)\n      0x1f\n      dup3\n      add\n      and\n      dup3\n      add\n      dup1\n      0x40\n      mstore\n      pop\n      dup2\n      add\n      swap1\n      tag_122\n      swap2\n      swap1\n      tag_79\n      jump\t// in\n    tag_122:\n      pop\n        /* \"simpleDEX2.sol\":3403:3410  amountA */\n      dup2\n        /* \"simpleDEX2.sol\":3391:3399  reserveA */\n      0x02\n      0x00\n        /* \"simpleDEX2.sol\":3391:3410  reserveA -= amountA */\n      dup3\n      dup3\n      sload\n      tag_123\n      swap2\n      swap1\n      tag_86\n      jump\t// in\n    tag_123:\n      swap3\n      pop\n      pop\n      dup2\n      swap1\n      sstore\n      pop\n        /* \"simpleDEX2.sol\":3433:3440  amountB */\n      dup1\n        /* \"simpleDEX2.sol\":3421:3429  reserveB */\n      0x03\n      0x00\n        /* \"simpleDEX2.sol\":3421:3440  reserveB -= amountB */\n      dup3\n      dup3\n      sload\n      tag_124\n      swap2\n      swap1\n      tag_86\n      jump\t// in\n    tag_124:\n      swap3\n      pop\n      pop\n      dup2\n      swap1\n      sstore\n      pop\n        /* \"simpleDEX2.sol\":3458:3492  LiquidityRemoved(amountA, amountB) */\n      0x6f0f96292ae0038c04f9b6bab30f185d9ca02c471d0983f563f2a4f674aef137\n        /* \"simpleDEX2.sol\":3475:3482  amountA */\n      dup3\n        /* \"simpleDEX2.sol\":3484:3491  amountB */\n      dup3\n        /* \"simpleDEX2.sol\":3458:3492  LiquidityRemoved(amountA, amountB) */\n      mload(0x40)\n      tag_125\n      swap3\n      swap2\n      swap1\n      tag_106\n      jump\t// in\n    tag_125:\n      mload(0x40)\n      dup1\n      swap2\n      sub\n      swap1\n      log1\n        /* \"simpleDEX2.sol\":2947:3500  function removeLiquidity(uint256 amountA, uint256 amountB) external {... */\n      pop\n      pop\n      jump\t// out\n        /* \"simpleDEX2.sol\":204:227  uint256 public reserveA */\n    tag_41:\n      sload(0x02)\n      dup2\n      jump\t// out\n        /* \"simpleDEX2.sol\":1179:2023  function swapAforB(uint256 amountAIn) external {... */\n    tag_45:\n        /* \"simpleDEX2.sol\":1257:1258  0 */\n      0x00\n        /* \"simpleDEX2.sol\":1245:1254  amountAIn */\n      dup2\n        /* \"simpleDEX2.sol\":1245:1258  amountAIn > 0 */\n      gt\n        /* \"simpleDEX2.sol\":1237:1295  require(amountAIn > 0, \"Amount must be greater than zero\") */\n      tag_127\n      jumpi\n      mload(0x40)\n      0x08c379a000000000000000000000000000000000000000000000000000000000\n      dup2\n      mstore\n      0x04\n      add\n      tag_128\n      swap1\n      tag_62\n      jump\t// in\n    tag_128:\n      mload(0x40)\n      dup1\n      swap2\n      sub\n      swap1\n      revert\n    tag_127:\n        /* \"simpleDEX2.sol\":1325:1326  0 */\n      0x00\n        /* \"simpleDEX2.sol\":1314:1322  reserveA */\n      sload(0x02)\n        /* \"simpleDEX2.sol\":1314:1326  reserveA > 0 */\n      gt\n        /* \"simpleDEX2.sol\":1314:1342  reserveA > 0 && reserveB > 0 */\n      dup1\n      iszero\n      tag_129\n      jumpi\n      pop\n        /* \"simpleDEX2.sol\":1341:1342  0 */\n      0x00\n        /* \"simpleDEX2.sol\":1330:1338  reserveB */\n      sload(0x03)\n        /* \"simpleDEX2.sol\":1330:1342  reserveB > 0 */\n      gt\n        /* \"simpleDEX2.sol\":1314:1342  reserveA > 0 && reserveB > 0 */\n    tag_129:\n        /* \"simpleDEX2.sol\":1306:1369  require(reserveA > 0 && reserveB > 0, \"Insufficient liquidity\") */\n      tag_130\n      jumpi\n      mload(0x40)\n      0x08c379a000000000000000000000000000000000000000000000000000000000\n      dup2\n      mstore\n      0x04\n      add\n      tag_131\n      swap1\n      tag_66\n      jump\t// in\n    tag_131:\n      mload(0x40)\n      dup1\n      swap2\n      sub\n      swap1\n      revert\n    tag_130:\n        /* \"simpleDEX2.sol\":1474:1492  uint256 amountBOut */\n      0x00\n        /* \"simpleDEX2.sol\":1532:1541  amountAIn */\n      dup2\n        /* \"simpleDEX2.sol\":1521:1529  reserveA */\n      sload(0x02)\n        /* \"simpleDEX2.sol\":1521:1541  reserveA + amountAIn */\n      tag_132\n      swap2\n      swap1\n      tag_68\n      jump\t// in\n    tag_132:\n        /* \"simpleDEX2.sol\":1507:1516  amountAIn */\n      dup3\n        /* \"simpleDEX2.sol\":1496:1504  reserveB */\n      sload(0x03)\n        /* \"simpleDEX2.sol\":1496:1516  reserveB * amountAIn */\n      tag_133\n      swap2\n      swap1\n      tag_53\n      jump\t// in\n    tag_133:\n        /* \"simpleDEX2.sol\":1495:1542  (reserveB * amountAIn) / (reserveA + amountAIn) */\n      tag_134\n      swap2\n      swap1\n      tag_55\n      jump\t// in\n    tag_134:\n        /* \"simpleDEX2.sol\":1474:1542  uint256 amountBOut = (reserveB * amountAIn) / (reserveA + amountAIn) */\n      swap1\n      pop\n        /* \"simpleDEX2.sol\":1576:1577  0 */\n      0x00\n        /* \"simpleDEX2.sol\":1563:1573  amountBOut */\n      dup2\n        /* \"simpleDEX2.sol\":1563:1577  amountBOut > 0 */\n      gt\n        /* \"simpleDEX2.sol\":1555:1621  require(amountBOut > 0, \"Output amount must be greater than zero\") */\n      tag_135\n      jumpi\n      mload(0x40)\n      0x08c379a000000000000000000000000000000000000000000000000000000000\n      dup2\n      mstore\n      0x04\n      add\n      tag_136\n      swap1\n      tag_73\n      jump\t// in\n    tag_136:\n      mload(0x40)\n      dup1\n      swap2\n      sub\n      swap1\n      revert\n    tag_135:\n        /* \"simpleDEX2.sol\":1683:1689  tokenA */\n      0x00\n      dup1\n      sload\n      swap1\n      0x0100\n      exp\n      swap1\n      div\n      0xffffffffffffffffffffffffffffffffffffffff\n      and\n        /* \"simpleDEX2.sol\":1676:1703  IERC20(tokenA).transferFrom */\n      0xffffffffffffffffffffffffffffffffffffffff\n      and\n      0x23b872dd\n        /* \"simpleDEX2.sol\":1704:1714  msg.sender */\n      caller\n        /* \"simpleDEX2.sol\":1724:1728  this */\n      address\n        /* \"simpleDEX2.sol\":1731:1740  amountAIn */\n      dup6\n        /* \"simpleDEX2.sol\":1676:1741  IERC20(tokenA).transferFrom(msg.sender, address(this), amountAIn) */\n      mload(0x40)\n      dup5\n      0xffffffff\n      and\n      0xe0\n      shl\n      dup2\n      mstore\n      0x04\n      add\n      tag_137\n      swap4\n      swap3\n      swap2\n      swap1\n      tag_75\n      jump\t// in\n    tag_137:\n      0x20\n      mload(0x40)\n      dup1\n      dup4\n      sub\n      dup2\n      0x00\n      dup8\n      gas\n      call\n      iszero\n      dup1\n      iszero\n      tag_139\n      jumpi\n      returndatasize\n      0x00\n      dup1\n      returndatacopy\n      revert(0x00, returndatasize)\n    tag_139:\n      pop\n      pop\n      pop\n      pop\n      mload(0x40)\n      returndatasize\n      not(0x1f)\n      0x1f\n      dup3\n      add\n      and\n      dup3\n      add\n      dup1\n      0x40\n      mstore\n      pop\n      dup2\n      add\n      swap1\n      tag_140\n      swap2\n      swap1\n      tag_79\n      jump\t// in\n    tag_140:\n      pop\n        /* \"simpleDEX2.sol\":1802:1808  tokenB */\n      0x01\n      0x00\n      swap1\n      sload\n      swap1\n      0x0100\n      exp\n      swap1\n      div\n      0xffffffffffffffffffffffffffffffffffffffff\n      and\n        /* \"simpleDEX2.sol\":1795:1818  IERC20(tokenB).transfer */\n      0xffffffffffffffffffffffffffffffffffffffff\n      and\n      0xa9059cbb\n        /* \"simpleDEX2.sol\":1819:1829  msg.sender */\n      caller\n        /* \"simpleDEX2.sol\":1831:1841  amountBOut */\n      dup4\n        /* \"simpleDEX2.sol\":1795:1842  IERC20(tokenB).transfer(msg.sender, amountBOut) */\n      mload(0x40)\n      dup4\n      0xffffffff\n      and\n      0xe0\n      shl\n      dup2\n      mstore\n      0x04\n      add\n      tag_141\n      swap3\n      swap2\n      swap1\n      tag_81\n      jump\t// in\n    tag_141:\n      0x20\n      mload(0x40)\n      dup1\n      dup4\n      sub\n      dup2\n      0x00\n      dup8\n      gas\n      call\n      iszero\n      dup1\n      iszero\n      tag_143\n      jumpi\n      returndatasize\n      0x00\n      dup1\n      returndatacopy\n      revert(0x00, returndatasize)\n    tag_143:\n      pop\n      pop\n      pop\n      pop\n      mload(0x40)\n      returndatasize\n      not(0x1f)\n      0x1f\n      dup3\n      add\n      and\n      dup3\n      add\n      dup1\n      0x40\n      mstore\n      pop\n      dup2\n      add\n      swap1\n      tag_144\n      swap2\n      swap1\n      tag_79\n      jump\t// in\n    tag_144:\n      pop\n        /* \"simpleDEX2.sol\":1899:1908  amountAIn */\n      dup2\n        /* \"simpleDEX2.sol\":1887:1895  reserveA */\n      0x02\n      0x00\n        /* \"simpleDEX2.sol\":1887:1908  reserveA += amountAIn */\n      dup3\n      dup3\n      sload\n      tag_145\n      swap2\n      swap1\n      tag_68\n      jump\t// in\n    tag_145:\n      swap3\n      pop\n      pop\n      dup2\n      swap1\n      sstore\n      pop\n        /* \"simpleDEX2.sol\":1931:1941  amountBOut */\n      dup1\n        /* \"simpleDEX2.sol\":1919:1927  reserveB */\n      0x03\n      0x00\n        /* \"simpleDEX2.sol\":1919:1941  reserveB -= amountBOut */\n      dup3\n      dup3\n      sload\n      tag_146\n      swap2\n      swap1\n      tag_86\n      jump\t// in\n    tag_146:\n      swap3\n      pop\n      pop\n      dup2\n      swap1\n      sstore\n      pop\n        /* \"simpleDEX2.sol\":1973:1983  msg.sender */\n      caller\n        /* \"simpleDEX2.sol\":1959:2015  TokensSwapped(msg.sender, amountAIn, amountBOut, \"A->B\") */\n      0xffffffffffffffffffffffffffffffffffffffff\n      and\n      0x5fe997f80da1632e1237be5a3f6b702cfa91e654659e831b2c723bc5226b50f4\n        /* \"simpleDEX2.sol\":1985:1994  amountAIn */\n      dup4\n        /* \"simpleDEX2.sol\":1996:2006  amountBOut */\n      dup4\n        /* \"simpleDEX2.sol\":1959:2015  TokensSwapped(msg.sender, amountAIn, amountBOut, \"A->B\") */\n      mload(0x40)\n      tag_147\n      swap3\n      swap2\n      swap1\n      tag_148\n      jump\t// in\n    tag_147:\n      mload(0x40)\n      dup1\n      swap2\n      sub\n      swap1\n      log2\n        /* \"simpleDEX2.sol\":1226:2023  {... */\n      pop\n        /* \"simpleDEX2.sol\":1179:2023  function swapAforB(uint256 amountAIn) external {... */\n      pop\n      jump\t// out\n        /* \"#utility.yul\":7:133   */\n    tag_149:\n        /* \"#utility.yul\":44:51   */\n      0x00\n        /* \"#utility.yul\":84:126   */\n      0xffffffffffffffffffffffffffffffffffffffff\n        /* \"#utility.yul\":77:82   */\n      dup3\n        /* \"#utility.yul\":73:127   */\n      and\n        /* \"#utility.yul\":62:127   */\n      swap1\n      pop\n        /* \"#utility.yul\":7:133   */\n      swap2\n      swap1\n      pop\n      jump\t// out\n        /* \"#utility.yul\":139:235   */\n    tag_150:\n        /* \"#utility.yul\":176:183   */\n      0x00\n        /* \"#utility.yul\":205:229   */\n      tag_186\n        /* \"#utility.yul\":223:228   */\n      dup3\n        /* \"#utility.yul\":205:229   */\n      tag_149\n      jump\t// in\n    tag_186:\n        /* \"#utility.yul\":194:229   */\n      swap1\n      pop\n        /* \"#utility.yul\":139:235   */\n      swap2\n      swap1\n      pop\n      jump\t// out\n        /* \"#utility.yul\":241:359   */\n    tag_151:\n        /* \"#utility.yul\":328:352   */\n      tag_188\n        /* \"#utility.yul\":346:351   */\n      dup2\n        /* \"#utility.yul\":328:352   */\n      tag_150\n      jump\t// in\n    tag_188:\n        /* \"#utility.yul\":323:326   */\n      dup3\n        /* \"#utility.yul\":316:353   */\n      mstore\n        /* \"#utility.yul\":241:359   */\n      pop\n      pop\n      jump\t// out\n        /* \"#utility.yul\":365:587   */\n    tag_16:\n        /* \"#utility.yul\":458:462   */\n      0x00\n        /* \"#utility.yul\":496:498   */\n      0x20\n        /* \"#utility.yul\":485:494   */\n      dup3\n        /* \"#utility.yul\":481:499   */\n      add\n        /* \"#utility.yul\":473:499   */\n      swap1\n      pop\n        /* \"#utility.yul\":509:580   */\n      tag_190\n        /* \"#utility.yul\":577:578   */\n      0x00\n        /* \"#utility.yul\":566:575   */\n      dup4\n        /* \"#utility.yul\":562:579   */\n      add\n        /* \"#utility.yul\":553:559   */\n      dup5\n        /* \"#utility.yul\":509:580   */\n      tag_151\n      jump\t// in\n    tag_190:\n        /* \"#utility.yul\":365:587   */\n      swap3\n      swap2\n      pop\n      pop\n      jump\t// out\n        /* \"#utility.yul\":593:670   */\n    tag_152:\n        /* \"#utility.yul\":630:637   */\n      0x00\n        /* \"#utility.yul\":659:664   */\n      dup2\n        /* \"#utility.yul\":648:664   */\n      swap1\n      pop\n        /* \"#utility.yul\":593:670   */\n      swap2\n      swap1\n      pop\n      jump\t// out\n        /* \"#utility.yul\":676:794   */\n    tag_153:\n        /* \"#utility.yul\":763:787   */\n      tag_193\n        /* \"#utility.yul\":781:786   */\n      dup2\n        /* \"#utility.yul\":763:787   */\n      tag_152\n      jump\t// in\n    tag_193:\n        /* \"#utility.yul\":758:761   */\n      dup3\n        /* \"#utility.yul\":751:788   */\n      mstore\n        /* \"#utility.yul\":676:794   */\n      pop\n      pop\n      jump\t// out\n        /* \"#utility.yul\":800:1022   */\n    tag_20:\n        /* \"#utility.yul\":893:897   */\n      0x00\n        /* \"#utility.yul\":931:933   */\n      0x20\n        /* \"#utility.yul\":920:929   */\n      dup3\n        /* \"#utility.yul\":916:934   */\n      add\n        /* \"#utility.yul\":908:934   */\n      swap1\n      pop\n        /* \"#utility.yul\":944:1015   */\n      tag_195\n        /* \"#utility.yul\":1012:1013   */\n      0x00\n        /* \"#utility.yul\":1001:1010   */\n      dup4\n        /* \"#utility.yul\":997:1014   */\n      add\n        /* \"#utility.yul\":988:994   */\n      dup5\n        /* \"#utility.yul\":944:1015   */\n      tag_153\n      jump\t// in\n    tag_195:\n        /* \"#utility.yul\":800:1022   */\n      swap3\n      swap2\n      pop\n      pop\n      jump\t// out\n        /* \"#utility.yul\":1109:1226   */\n    tag_155:\n        /* \"#utility.yul\":1218:1219   */\n      0x00\n        /* \"#utility.yul\":1215:1216   */\n      dup1\n        /* \"#utility.yul\":1208:1220   */\n      revert\n        /* \"#utility.yul\":1355:1477   */\n    tag_157:\n        /* \"#utility.yul\":1428:1452   */\n      tag_200\n        /* \"#utility.yul\":1446:1451   */\n      dup2\n        /* \"#utility.yul\":1428:1452   */\n      tag_150\n      jump\t// in\n    tag_200:\n        /* \"#utility.yul\":1421:1426   */\n      dup2\n        /* \"#utility.yul\":1418:1453   */\n      eq\n        /* \"#utility.yul\":1408:1471   */\n      tag_201\n      jumpi\n        /* \"#utility.yul\":1467:1468   */\n      0x00\n        /* \"#utility.yul\":1464:1465   */\n      dup1\n        /* \"#utility.yul\":1457:1469   */\n      revert\n        /* \"#utility.yul\":1408:1471   */\n    tag_201:\n        /* \"#utility.yul\":1355:1477   */\n      pop\n      jump\t// out\n        /* \"#utility.yul\":1483:1622   */\n    tag_158:\n        /* \"#utility.yul\":1529:1534   */\n      0x00\n        /* \"#utility.yul\":1567:1573   */\n      dup2\n        /* \"#utility.yul\":1554:1574   */\n      calldataload\n        /* \"#utility.yul\":1545:1574   */\n      swap1\n      pop\n        /* \"#utility.yul\":1583:1616   */\n      tag_203\n        /* \"#utility.yul\":1610:1615   */\n      dup2\n        /* \"#utility.yul\":1583:1616   */\n      tag_157\n      jump\t// in\n    tag_203:\n        /* \"#utility.yul\":1483:1622   */\n      swap3\n      swap2\n      pop\n      pop\n      jump\t// out\n        /* \"#utility.yul\":1628:1957   */\n    tag_23:\n        /* \"#utility.yul\":1687:1693   */\n      0x00\n        /* \"#utility.yul\":1736:1738   */\n      0x20\n        /* \"#utility.yul\":1724:1733   */\n      dup3\n        /* \"#utility.yul\":1715:1722   */\n      dup5\n        /* \"#utility.yul\":1711:1734   */\n      sub\n        /* \"#utility.yul\":1707:1739   */\n      slt\n        /* \"#utility.yul\":1704:1823   */\n      iszero\n      tag_205\n      jumpi\n        /* \"#utility.yul\":1742:1821   */\n      tag_206\n      tag_155\n      jump\t// in\n    tag_206:\n        /* \"#utility.yul\":1704:1823   */\n    tag_205:\n        /* \"#utility.yul\":1862:1863   */\n      0x00\n        /* \"#utility.yul\":1887:1940   */\n      tag_207\n        /* \"#utility.yul\":1932:1939   */\n      dup5\n        /* \"#utility.yul\":1923:1929   */\n      dup3\n        /* \"#utility.yul\":1912:1921   */\n      dup6\n        /* \"#utility.yul\":1908:1930   */\n      add\n        /* \"#utility.yul\":1887:1940   */\n      tag_158\n      jump\t// in\n    tag_207:\n        /* \"#utility.yul\":1877:1940   */\n      swap2\n      pop\n        /* \"#utility.yul\":1833:1950   */\n      pop\n        /* \"#utility.yul\":1628:1957   */\n      swap3\n      swap2\n      pop\n      pop\n      jump\t// out\n        /* \"#utility.yul\":1963:2085   */\n    tag_159:\n        /* \"#utility.yul\":2036:2060   */\n      tag_209\n        /* \"#utility.yul\":2054:2059   */\n      dup2\n        /* \"#utility.yul\":2036:2060   */\n      tag_152\n      jump\t// in\n    tag_209:\n        /* \"#utility.yul\":2029:2034   */\n      dup2\n        /* \"#utility.yul\":2026:2061   */\n      eq\n        /* \"#utility.yul\":2016:2079   */\n      tag_210\n      jumpi\n        /* \"#utility.yul\":2075:2076   */\n      0x00\n        /* \"#utility.yul\":2072:2073   */\n      dup1\n        /* \"#utility.yul\":2065:2077   */\n      revert\n        /* \"#utility.yul\":2016:2079   */\n    tag_210:\n        /* \"#utility.yul\":1963:2085   */\n      pop\n      jump\t// out\n        /* \"#utility.yul\":2091:2230   */\n    tag_160:\n        /* \"#utility.yul\":2137:2142   */\n      0x00\n        /* \"#utility.yul\":2175:2181   */\n      dup2\n        /* \"#utility.yul\":2162:2182   */\n      calldataload\n        /* \"#utility.yul\":2153:2182   */\n      swap1\n      pop\n        /* \"#utility.yul\":2191:2224   */\n      tag_212\n        /* \"#utility.yul\":2218:2223   */\n      dup2\n        /* \"#utility.yul\":2191:2224   */\n      tag_159\n      jump\t// in\n    tag_212:\n        /* \"#utility.yul\":2091:2230   */\n      swap3\n      swap2\n      pop\n      pop\n      jump\t// out\n        /* \"#utility.yul\":2236:2565   */\n    tag_31:\n        /* \"#utility.yul\":2295:2301   */\n      0x00\n        /* \"#utility.yul\":2344:2346   */\n      0x20\n        /* \"#utility.yul\":2332:2341   */\n      dup3\n        /* \"#utility.yul\":2323:2330   */\n      dup5\n        /* \"#utility.yul\":2319:2342   */\n      sub\n        /* \"#utility.yul\":2315:2347   */\n      slt\n        /* \"#utility.yul\":2312:2431   */\n      iszero\n      tag_214\n      jumpi\n        /* \"#utility.yul\":2350:2429   */\n      tag_215\n      tag_155\n      jump\t// in\n    tag_215:\n        /* \"#utility.yul\":2312:2431   */\n    tag_214:\n        /* \"#utility.yul\":2470:2471   */\n      0x00\n        /* \"#utility.yul\":2495:2548   */\n      tag_216\n        /* \"#utility.yul\":2540:2547   */\n      dup5\n        /* \"#utility.yul\":2531:2537   */\n      dup3\n        /* \"#utility.yul\":2520:2529   */\n      dup6\n        /* \"#utility.yul\":2516:2538   */\n      add\n        /* \"#utility.yul\":2495:2548   */\n      tag_160\n      jump\t// in\n    tag_216:\n        /* \"#utility.yul\":2485:2548   */\n      swap2\n      pop\n        /* \"#utility.yul\":2441:2558   */\n      pop\n        /* \"#utility.yul\":2236:2565   */\n      swap3\n      swap2\n      pop\n      pop\n      jump\t// out\n        /* \"#utility.yul\":2571:3045   */\n    tag_35:\n        /* \"#utility.yul\":2639:2645   */\n      0x00\n        /* \"#utility.yul\":2647:2653   */\n      dup1\n        /* \"#utility.yul\":2696:2698   */\n      0x40\n        /* \"#utility.yul\":2684:2693   */\n      dup4\n        /* \"#utility.yul\":2675:2682   */\n      dup6\n        /* \"#utility.yul\":2671:2694   */\n      sub\n        /* \"#utility.yul\":2667:2699   */\n      slt\n        /* \"#utility.yul\":2664:2783   */\n      iszero\n      tag_218\n      jumpi\n        /* \"#utility.yul\":2702:2781   */\n      tag_219\n      tag_155\n      jump\t// in\n    tag_219:\n        /* \"#utility.yul\":2664:2783   */\n    tag_218:\n        /* \"#utility.yul\":2822:2823   */\n      0x00\n        /* \"#utility.yul\":2847:2900   */\n      tag_220\n        /* \"#utility.yul\":2892:2899   */\n      dup6\n        /* \"#utility.yul\":2883:2889   */\n      dup3\n        /* \"#utility.yul\":2872:2881   */\n      dup7\n        /* \"#utility.yul\":2868:2890   */\n      add\n        /* \"#utility.yul\":2847:2900   */\n      tag_160\n      jump\t// in\n    tag_220:\n        /* \"#utility.yul\":2837:2900   */\n      swap3\n      pop\n        /* \"#utility.yul\":2793:2910   */\n      pop\n        /* \"#utility.yul\":2949:2951   */\n      0x20\n        /* \"#utility.yul\":2975:3028   */\n      tag_221\n        /* \"#utility.yul\":3020:3027   */\n      dup6\n        /* \"#utility.yul\":3011:3017   */\n      dup3\n        /* \"#utility.yul\":3000:3009   */\n      dup7\n        /* \"#utility.yul\":2996:3018   */\n      add\n        /* \"#utility.yul\":2975:3028   */\n      tag_160\n      jump\t// in\n    tag_221:\n        /* \"#utility.yul\":2965:3028   */\n      swap2\n      pop\n        /* \"#utility.yul\":2920:3038   */\n      pop\n        /* \"#utility.yul\":2571:3045   */\n      swap3\n      pop\n      swap3\n      swap1\n      pop\n      jump\t// out\n        /* \"#utility.yul\":3051:3220   */\n    tag_161:\n        /* \"#utility.yul\":3135:3146   */\n      0x00\n        /* \"#utility.yul\":3169:3175   */\n      dup3\n        /* \"#utility.yul\":3164:3167   */\n      dup3\n        /* \"#utility.yul\":3157:3176   */\n      mstore\n        /* \"#utility.yul\":3209:3213   */\n      0x20\n        /* \"#utility.yul\":3204:3207   */\n      dup3\n        /* \"#utility.yul\":3200:3214   */\n      add\n        /* \"#utility.yul\":3185:3214   */\n      swap1\n      pop\n        /* \"#utility.yul\":3051:3220   */\n      swap3\n      swap2\n      pop\n      pop\n      jump\t// out\n        /* \"#utility.yul\":3226:3397   */\n    tag_162:\n        /* \"#utility.yul\":3366:3389   */\n      0x496e76616c696420746f6b656e20616464726573730000000000000000000000\n        /* \"#utility.yul\":3362:3363   */\n      0x00\n        /* \"#utility.yul\":3354:3360   */\n      dup3\n        /* \"#utility.yul\":3350:3364   */\n      add\n        /* \"#utility.yul\":3343:3390   */\n      mstore\n        /* \"#utility.yul\":3226:3397   */\n      pop\n      jump\t// out\n        /* \"#utility.yul\":3403:3769   */\n    tag_163:\n        /* \"#utility.yul\":3545:3548   */\n      0x00\n        /* \"#utility.yul\":3566:3633   */\n      tag_225\n        /* \"#utility.yul\":3630:3632   */\n      0x15\n        /* \"#utility.yul\":3625:3628   */\n      dup4\n        /* \"#utility.yul\":3566:3633   */\n      tag_161\n      jump\t// in\n    tag_225:\n        /* \"#utility.yul\":3559:3633   */\n      swap2\n      pop\n        /* \"#utility.yul\":3642:3735   */\n      tag_226\n        /* \"#utility.yul\":3731:3734   */\n      dup3\n        /* \"#utility.yul\":3642:3735   */\n      tag_162\n      jump\t// in\n    tag_226:\n        /* \"#utility.yul\":3760:3762   */\n      0x20\n        /* \"#utility.yul\":3755:3758   */\n      dup3\n        /* \"#utility.yul\":3751:3763   */\n      add\n        /* \"#utility.yul\":3744:3763   */\n      swap1\n      pop\n        /* \"#utility.yul\":3403:3769   */\n      swap2\n      swap1\n      pop\n      jump\t// out\n        /* \"#utility.yul\":3775:4194   */\n    tag_50:\n        /* \"#utility.yul\":3941:3945   */\n      0x00\n        /* \"#utility.yul\":3979:3981   */\n      0x20\n        /* \"#utility.yul\":3968:3977   */\n      dup3\n        /* \"#utility.yul\":3964:3982   */\n      add\n        /* \"#utility.yul\":3956:3982   */\n      swap1\n      pop\n        /* \"#utility.yul\":4028:4037   */\n      dup2\n        /* \"#utility.yul\":4022:4026   */\n      dup2\n        /* \"#utility.yul\":4018:4038   */\n      sub\n        /* \"#utility.yul\":4014:4015   */\n      0x00\n        /* \"#utility.yul\":4003:4012   */\n      dup4\n        /* \"#utility.yul\":3999:4016   */\n      add\n        /* \"#utility.yul\":3992:4039   */\n      mstore\n        /* \"#utility.yul\":4056:4187   */\n      tag_228\n        /* \"#utility.yul\":4182:4186   */\n      dup2\n        /* \"#utility.yul\":4056:4187   */\n      tag_163\n      jump\t// in\n    tag_228:\n        /* \"#utility.yul\":4048:4187   */\n      swap1\n      pop\n        /* \"#utility.yul\":3775:4194   */\n      swap2\n      swap1\n      pop\n      jump\t// out\n        /* \"#utility.yul\":4200:4380   */\n    tag_164:\n        /* \"#utility.yul\":4248:4325   */\n      0x4e487b7100000000000000000000000000000000000000000000000000000000\n        /* \"#utility.yul\":4245:4246   */\n      0x00\n        /* \"#utility.yul\":4238:4326   */\n      mstore\n        /* \"#utility.yul\":4345:4349   */\n      0x11\n        /* \"#utility.yul\":4342:4343   */\n      0x04\n        /* \"#utility.yul\":4335:4350   */\n      mstore\n        /* \"#utility.yul\":4369:4373   */\n      0x24\n        /* \"#utility.yul\":4366:4367   */\n      0x00\n        /* \"#utility.yul\":4359:4374   */\n      revert\n        /* \"#utility.yul\":4386:4796   */\n    tag_53:\n        /* \"#utility.yul\":4426:4433   */\n      0x00\n        /* \"#utility.yul\":4449:4469   */\n      tag_231\n        /* \"#utility.yul\":4467:4468   */\n      dup3\n        /* \"#utility.yul\":4449:4469   */\n      tag_152\n      jump\t// in\n    tag_231:\n        /* \"#utility.yul\":4444:4469   */\n      swap2\n      pop\n        /* \"#utility.yul\":4483:4503   */\n      tag_232\n        /* \"#utility.yul\":4501:4502   */\n      dup4\n        /* \"#utility.yul\":4483:4503   */\n      tag_152\n      jump\t// in\n    tag_232:\n        /* \"#utility.yul\":4478:4503   */\n      swap3\n      pop\n        /* \"#utility.yul\":4538:4539   */\n      dup3\n        /* \"#utility.yul\":4535:4536   */\n      dup3\n        /* \"#utility.yul\":4531:4540   */\n      mul\n        /* \"#utility.yul\":4560:4590   */\n      tag_233\n        /* \"#utility.yul\":4578:4589   */\n      dup2\n        /* \"#utility.yul\":4560:4590   */\n      tag_152\n      jump\t// in\n    tag_233:\n        /* \"#utility.yul\":4549:4590   */\n      swap2\n      pop\n        /* \"#utility.yul\":4739:4740   */\n      dup3\n        /* \"#utility.yul\":4730:4737   */\n      dup3\n        /* \"#utility.yul\":4726:4741   */\n      div\n        /* \"#utility.yul\":4723:4724   */\n      dup5\n        /* \"#utility.yul\":4720:4742   */\n      eq\n        /* \"#utility.yul\":4700:4701   */\n      dup4\n        /* \"#utility.yul\":4693:4702   */\n      iszero\n        /* \"#utility.yul\":4673:4756   */\n      or\n        /* \"#utility.yul\":4650:4789   */\n      tag_234\n      jumpi\n        /* \"#utility.yul\":4769:4787   */\n      tag_235\n      tag_164\n      jump\t// in\n    tag_235:\n        /* \"#utility.yul\":4650:4789   */\n    tag_234:\n        /* \"#utility.yul\":4434:4796   */\n      pop\n        /* \"#utility.yul\":4386:4796   */\n      swap3\n      swap2\n      pop\n      pop\n      jump\t// out\n        /* \"#utility.yul\":4802:4982   */\n    tag_165:\n        /* \"#utility.yul\":4850:4927   */\n      0x4e487b7100000000000000000000000000000000000000000000000000000000\n        /* \"#utility.yul\":4847:4848   */\n      0x00\n        /* \"#utility.yul\":4840:4928   */\n      mstore\n        /* \"#utility.yul\":4947:4951   */\n      0x12\n        /* \"#utility.yul\":4944:4945   */\n      0x04\n        /* \"#utility.yul\":4937:4952   */\n      mstore\n        /* \"#utility.yul\":4971:4975   */\n      0x24\n        /* \"#utility.yul\":4968:4969   */\n      0x00\n        /* \"#utility.yul\":4961:4976   */\n      revert\n        /* \"#utility.yul\":4988:5173   */\n    tag_55:\n        /* \"#utility.yul\":5028:5029   */\n      0x00\n        /* \"#utility.yul\":5045:5065   */\n      tag_238\n        /* \"#utility.yul\":5063:5064   */\n      dup3\n        /* \"#utility.yul\":5045:5065   */\n      tag_152\n      jump\t// in\n    tag_238:\n        /* \"#utility.yul\":5040:5065   */\n      swap2\n      pop\n        /* \"#utility.yul\":5079:5099   */\n      tag_239\n        /* \"#utility.yul\":5097:5098   */\n      dup4\n        /* \"#utility.yul\":5079:5099   */\n      tag_152\n      jump\t// in\n    tag_239:\n        /* \"#utility.yul\":5074:5099   */\n      swap3\n      pop\n        /* \"#utility.yul\":5118:5119   */\n      dup3\n        /* \"#utility.yul\":5108:5143   */\n      tag_240\n      jumpi\n        /* \"#utility.yul\":5123:5141   */\n      tag_241\n      tag_165\n      jump\t// in\n    tag_241:\n        /* \"#utility.yul\":5108:5143   */\n    tag_240:\n        /* \"#utility.yul\":5165:5166   */\n      dup3\n        /* \"#utility.yul\":5162:5163   */\n      dup3\n        /* \"#utility.yul\":5158:5167   */\n      div\n        /* \"#utility.yul\":5153:5167   */\n      swap1\n      pop\n        /* \"#utility.yul\":4988:5173   */\n      swap3\n      swap2\n      pop\n      pop\n      jump\t// out\n        /* \"#utility.yul\":5179:5361   */\n    tag_166:\n        /* \"#utility.yul\":5319:5353   */\n      0x416d6f756e74206d7573742062652067726561746572207468616e207a65726f\n        /* \"#utility.yul\":5315:5316   */\n      0x00\n        /* \"#utility.yul\":5307:5313   */\n      dup3\n        /* \"#utility.yul\":5303:5317   */\n      add\n        /* \"#utility.yul\":5296:5354   */\n      mstore\n        /* \"#utility.yul\":5179:5361   */\n      pop\n      jump\t// out\n        /* \"#utility.yul\":5367:5733   */\n    tag_167:\n        /* \"#utility.yul\":5509:5512   */\n      0x00\n        /* \"#utility.yul\":5530:5597   */\n      tag_244\n        /* \"#utility.yul\":5594:5596   */\n      0x20\n        /* \"#utility.yul\":5589:5592   */\n      dup4\n        /* \"#utility.yul\":5530:5597   */\n      tag_161\n      jump\t// in\n    tag_244:\n        /* \"#utility.yul\":5523:5597   */\n      swap2\n      pop\n        /* \"#utility.yul\":5606:5699   */\n      tag_245\n        /* \"#utility.yul\":5695:5698   */\n      dup3\n        /* \"#utility.yul\":5606:5699   */\n      tag_166\n      jump\t// in\n    tag_245:\n        /* \"#utility.yul\":5724:5726   */\n      0x20\n        /* \"#utility.yul\":5719:5722   */\n      dup3\n        /* \"#utility.yul\":5715:5727   */\n      add\n        /* \"#utility.yul\":5708:5727   */\n      swap1\n      pop\n        /* \"#utility.yul\":5367:5733   */\n      swap2\n      swap1\n      pop\n      jump\t// out\n        /* \"#utility.yul\":5739:6158   */\n    tag_62:\n        /* \"#utility.yul\":5905:5909   */\n      0x00\n        /* \"#utility.yul\":5943:5945   */\n      0x20\n        /* \"#utility.yul\":5932:5941   */\n      dup3\n        /* \"#utility.yul\":5928:5946   */\n      add\n        /* \"#utility.yul\":5920:5946   */\n      swap1\n      pop\n        /* \"#utility.yul\":5992:6001   */\n      dup2\n        /* \"#utility.yul\":5986:5990   */\n      dup2\n        /* \"#utility.yul\":5982:6002   */\n      sub\n        /* \"#utility.yul\":5978:5979   */\n      0x00\n        /* \"#utility.yul\":5967:5976   */\n      dup4\n        /* \"#utility.yul\":5963:5980   */\n      add\n        /* \"#utility.yul\":5956:6003   */\n      mstore\n        /* \"#utility.yul\":6020:6151   */\n      tag_247\n        /* \"#utility.yul\":6146:6150   */\n      dup2\n        /* \"#utility.yul\":6020:6151   */\n      tag_167\n      jump\t// in\n    tag_247:\n        /* \"#utility.yul\":6012:6151   */\n      swap1\n      pop\n        /* \"#utility.yul\":5739:6158   */\n      swap2\n      swap1\n      pop\n      jump\t// out\n        /* \"#utility.yul\":6164:6336   */\n    tag_168:\n        /* \"#utility.yul\":6304:6328   */\n      0x496e73756666696369656e74206c697175696469747900000000000000000000\n        /* \"#utility.yul\":6300:6301   */\n      0x00\n        /* \"#utility.yul\":6292:6298   */\n      dup3\n        /* \"#utility.yul\":6288:6302   */\n      add\n        /* \"#utility.yul\":6281:6329   */\n      mstore\n        /* \"#utility.yul\":6164:6336   */\n      pop\n      jump\t// out\n        /* \"#utility.yul\":6342:6708   */\n    tag_169:\n        /* \"#utility.yul\":6484:6487   */\n      0x00\n        /* \"#utility.yul\":6505:6572   */\n      tag_250\n        /* \"#utility.yul\":6569:6571   */\n      0x16\n        /* \"#utility.yul\":6564:6567   */\n      dup4\n        /* \"#utility.yul\":6505:6572   */\n      tag_161\n      jump\t// in\n    tag_250:\n        /* \"#utility.yul\":6498:6572   */\n      swap2\n      pop\n        /* \"#utility.yul\":6581:6674   */\n      tag_251\n        /* \"#utility.yul\":6670:6673   */\n      dup3\n        /* \"#utility.yul\":6581:6674   */\n      tag_168\n      jump\t// in\n    tag_251:\n        /* \"#utility.yul\":6699:6701   */\n      0x20\n        /* \"#utility.yul\":6694:6697   */\n      dup3\n        /* \"#utility.yul\":6690:6702   */\n      add\n        /* \"#utility.yul\":6683:6702   */\n      swap1\n      pop\n        /* \"#utility.yul\":6342:6708   */\n      swap2\n      swap1\n      pop\n      jump\t// out\n        /* \"#utility.yul\":6714:7133   */\n    tag_66:\n        /* \"#utility.yul\":6880:6884   */\n      0x00\n        /* \"#utility.yul\":6918:6920   */\n      0x20\n        /* \"#utility.yul\":6907:6916   */\n      dup3\n        /* \"#utility.yul\":6903:6921   */\n      add\n        /* \"#utility.yul\":6895:6921   */\n      swap1\n      pop\n        /* \"#utility.yul\":6967:6976   */\n      dup2\n        /* \"#utility.yul\":6961:6965   */\n      dup2\n        /* \"#utility.yul\":6957:6977   */\n      sub\n        /* \"#utility.yul\":6953:6954   */\n      0x00\n        /* \"#utility.yul\":6942:6951   */\n      dup4\n        /* \"#utility.yul\":6938:6955   */\n      add\n        /* \"#utility.yul\":6931:6978   */\n      mstore\n        /* \"#utility.yul\":6995:7126   */\n      tag_253\n        /* \"#utility.yul\":7121:7125   */\n      dup2\n        /* \"#utility.yul\":6995:7126   */\n      tag_169\n      jump\t// in\n    tag_253:\n        /* \"#utility.yul\":6987:7126   */\n      swap1\n      pop\n        /* \"#utility.yul\":6714:7133   */\n      swap2\n      swap1\n      pop\n      jump\t// out\n        /* \"#utility.yul\":7139:7330   */\n    tag_68:\n        /* \"#utility.yul\":7179:7182   */\n      0x00\n        /* \"#utility.yul\":7198:7218   */\n      tag_255\n        /* \"#utility.yul\":7216:7217   */\n      dup3\n        /* \"#utility.yul\":7198:7218   */\n      tag_152\n      jump\t// in\n    tag_255:\n        /* \"#utility.yul\":7193:7218   */\n      swap2\n      pop\n        /* \"#utility.yul\":7232:7252   */\n      tag_256\n        /* \"#utility.yul\":7250:7251   */\n      dup4\n        /* \"#utility.yul\":7232:7252   */\n      tag_152\n      jump\t// in\n    tag_256:\n        /* \"#utility.yul\":7227:7252   */\n      swap3\n      pop\n        /* \"#utility.yul\":7275:7276   */\n      dup3\n        /* \"#utility.yul\":7272:7273   */\n      dup3\n        /* \"#utility.yul\":7268:7277   */\n      add\n        /* \"#utility.yul\":7261:7277   */\n      swap1\n      pop\n        /* \"#utility.yul\":7296:7299   */\n      dup1\n        /* \"#utility.yul\":7293:7294   */\n      dup3\n        /* \"#utility.yul\":7290:7300   */\n      gt\n        /* \"#utility.yul\":7287:7323   */\n      iszero\n      tag_257\n      jumpi\n        /* \"#utility.yul\":7303:7321   */\n      tag_258\n      tag_164\n      jump\t// in\n    tag_258:\n        /* \"#utility.yul\":7287:7323   */\n    tag_257:\n        /* \"#utility.yul\":7139:7330   */\n      swap3\n      swap2\n      pop\n      pop\n      jump\t// out\n        /* \"#utility.yul\":7336:7562   */\n    tag_170:\n        /* \"#utility.yul\":7476:7510   */\n      0x4f757470757420616d6f756e74206d7573742062652067726561746572207468\n        /* \"#utility.yul\":7472:7473   */\n      0x00\n        /* \"#utility.yul\":7464:7470   */\n      dup3\n        /* \"#utility.yul\":7460:7474   */\n      add\n        /* \"#utility.yul\":7453:7511   */\n      mstore\n        /* \"#utility.yul\":7545:7554   */\n      0x616e207a65726f00000000000000000000000000000000000000000000000000\n        /* \"#utility.yul\":7540:7542   */\n      0x20\n        /* \"#utility.yul\":7532:7538   */\n      dup3\n        /* \"#utility.yul\":7528:7543   */\n      add\n        /* \"#utility.yul\":7521:7555   */\n      mstore\n        /* \"#utility.yul\":7336:7562   */\n      pop\n      jump\t// out\n        /* \"#utility.yul\":7568:7934   */\n    tag_171:\n        /* \"#utility.yul\":7710:7713   */\n      0x00\n        /* \"#utility.yul\":7731:7798   */\n      tag_261\n        /* \"#utility.yul\":7795:7797   */\n      0x27\n        /* \"#utility.yul\":7790:7793   */\n      dup4\n        /* \"#utility.yul\":7731:7798   */\n      tag_161\n      jump\t// in\n    tag_261:\n        /* \"#utility.yul\":7724:7798   */\n      swap2\n      pop\n        /* \"#utility.yul\":7807:7900   */\n      tag_262\n        /* \"#utility.yul\":7896:7899   */\n      dup3\n        /* \"#utility.yul\":7807:7900   */\n      tag_170\n      jump\t// in\n    tag_262:\n        /* \"#utility.yul\":7925:7927   */\n      0x40\n        /* \"#utility.yul\":7920:7923   */\n      dup3\n        /* \"#utility.yul\":7916:7928   */\n      add\n        /* \"#utility.yul\":7909:7928   */\n      swap1\n      pop\n        /* \"#utility.yul\":7568:7934   */\n      swap2\n      swap1\n      pop\n      jump\t// out\n        /* \"#utility.yul\":7940:8359   */\n    tag_73:\n        /* \"#utility.yul\":8106:8110   */\n      0x00\n        /* \"#utility.yul\":8144:8146   */\n      0x20\n        /* \"#utility.yul\":8133:8142   */\n      dup3\n        /* \"#utility.yul\":8129:8147   */\n      add\n        /* \"#utility.yul\":8121:8147   */\n      swap1\n      pop\n        /* \"#utility.yul\":8193:8202   */\n      dup2\n        /* \"#utility.yul\":8187:8191   */\n      dup2\n        /* \"#utility.yul\":8183:8203   */\n      sub\n        /* \"#utility.yul\":8179:8180   */\n      0x00\n        /* \"#utility.yul\":8168:8177   */\n      dup4\n        /* \"#utility.yul\":8164:8181   */\n      add\n        /* \"#utility.yul\":8157:8204   */\n      mstore\n        /* \"#utility.yul\":8221:8352   */\n      tag_264\n        /* \"#utility.yul\":8347:8351   */\n      dup2\n        /* \"#utility.yul\":8221:8352   */\n      tag_171\n      jump\t// in\n    tag_264:\n        /* \"#utility.yul\":8213:8352   */\n      swap1\n      pop\n        /* \"#utility.yul\":7940:8359   */\n      swap2\n      swap1\n      pop\n      jump\t// out\n        /* \"#utility.yul\":8365:8807   */\n    tag_75:\n        /* \"#utility.yul\":8514:8518   */\n      0x00\n        /* \"#utility.yul\":8552:8554   */\n      0x60\n        /* \"#utility.yul\":8541:8550   */\n      dup3\n        /* \"#utility.yul\":8537:8555   */\n      add\n        /* \"#utility.yul\":8529:8555   */\n      swap1\n      pop\n        /* \"#utility.yul\":8565:8636   */\n      tag_266\n        /* \"#utility.yul\":8633:8634   */\n      0x00\n        /* \"#utility.yul\":8622:8631   */\n      dup4\n        /* \"#utility.yul\":8618:8635   */\n      add\n        /* \"#utility.yul\":8609:8615   */\n      dup7\n        /* \"#utility.yul\":8565:8636   */\n      tag_151\n      jump\t// in\n    tag_266:\n        /* \"#utility.yul\":8646:8718   */\n      tag_267\n        /* \"#utility.yul\":8714:8716   */\n      0x20\n        /* \"#utility.yul\":8703:8712   */\n      dup4\n        /* \"#utility.yul\":8699:8717   */\n      add\n        /* \"#utility.yul\":8690:8696   */\n      dup6\n        /* \"#utility.yul\":8646:8718   */\n      tag_151\n      jump\t// in\n    tag_267:\n        /* \"#utility.yul\":8728:8800   */\n      tag_268\n        /* \"#utility.yul\":8796:8798   */\n      0x40\n        /* \"#utility.yul\":8785:8794   */\n      dup4\n        /* \"#utility.yul\":8781:8799   */\n      add\n        /* \"#utility.yul\":8772:8778   */\n      dup5\n        /* \"#utility.yul\":8728:8800   */\n      tag_153\n      jump\t// in\n    tag_268:\n        /* \"#utility.yul\":8365:8807   */\n      swap5\n      swap4\n      pop\n      pop\n      pop\n      pop\n      jump\t// out\n        /* \"#utility.yul\":8813:8903   */\n    tag_172:\n        /* \"#utility.yul\":8847:8854   */\n      0x00\n        /* \"#utility.yul\":8890:8895   */\n      dup2\n        /* \"#utility.yul\":8883:8896   */\n      iszero\n        /* \"#utility.yul\":8876:8897   */\n      iszero\n        /* \"#utility.yul\":8865:8897   */\n      swap1\n      pop\n        /* \"#utility.yul\":8813:8903   */\n      swap2\n      swap1\n      pop\n      jump\t// out\n        /* \"#utility.yul\":8909:9025   */\n    tag_173:\n        /* \"#utility.yul\":8979:9000   */\n      tag_271\n        /* \"#utility.yul\":8994:8999   */\n      dup2\n        /* \"#utility.yul\":8979:9000   */\n      tag_172\n      jump\t// in\n    tag_271:\n        /* \"#utility.yul\":8972:8977   */\n      dup2\n        /* \"#utility.yul\":8969:9001   */\n      eq\n        /* \"#utility.yul\":8959:9019   */\n      tag_272\n      jumpi\n        /* \"#utility.yul\":9015:9016   */\n      0x00\n        /* \"#utility.yul\":9012:9013   */\n      dup1\n        /* \"#utility.yul\":9005:9017   */\n      revert\n        /* \"#utility.yul\":8959:9019   */\n    tag_272:\n        /* \"#utility.yul\":8909:9025   */\n      pop\n      jump\t// out\n        /* \"#utility.yul\":9031:9168   */\n    tag_174:\n        /* \"#utility.yul\":9085:9090   */\n      0x00\n        /* \"#utility.yul\":9116:9122   */\n      dup2\n        /* \"#utility.yul\":9110:9123   */\n      mload\n        /* \"#utility.yul\":9101:9123   */\n      swap1\n      pop\n        /* \"#utility.yul\":9132:9162   */\n      tag_274\n        /* \"#utility.yul\":9156:9161   */\n      dup2\n        /* \"#utility.yul\":9132:9162   */\n      tag_173\n      jump\t// in\n    tag_274:\n        /* \"#utility.yul\":9031:9168   */\n      swap3\n      swap2\n      pop\n      pop\n      jump\t// out\n        /* \"#utility.yul\":9174:9519   */\n    tag_79:\n        /* \"#utility.yul\":9241:9247   */\n      0x00\n        /* \"#utility.yul\":9290:9292   */\n      0x20\n        /* \"#utility.yul\":9278:9287   */\n      dup3\n        /* \"#utility.yul\":9269:9276   */\n      dup5\n        /* \"#utility.yul\":9265:9288   */\n      sub\n        /* \"#utility.yul\":9261:9293   */\n      slt\n        /* \"#utility.yul\":9258:9377   */\n      iszero\n      tag_276\n      jumpi\n        /* \"#utility.yul\":9296:9375   */\n      tag_277\n      tag_155\n      jump\t// in\n    tag_277:\n        /* \"#utility.yul\":9258:9377   */\n    tag_276:\n        /* \"#utility.yul\":9416:9417   */\n      0x00\n        /* \"#utility.yul\":9441:9502   */\n      tag_278\n        /* \"#utility.yul\":9494:9501   */\n      dup5\n        /* \"#utility.yul\":9485:9491   */\n      dup3\n        /* \"#utility.yul\":9474:9483   */\n      dup6\n        /* \"#utility.yul\":9470:9492   */\n      add\n        /* \"#utility.yul\":9441:9502   */\n      tag_174\n      jump\t// in\n    tag_278:\n        /* \"#utility.yul\":9431:9502   */\n      swap2\n      pop\n        /* \"#utility.yul\":9387:9512   */\n      pop\n        /* \"#utility.yul\":9174:9519   */\n      swap3\n      swap2\n      pop\n      pop\n      jump\t// out\n        /* \"#utility.yul\":9525:9857   */\n    tag_81:\n        /* \"#utility.yul\":9646:9650   */\n      0x00\n        /* \"#utility.yul\":9684:9686   */\n      0x40\n        /* \"#utility.yul\":9673:9682   */\n      dup3\n        /* \"#utility.yul\":9669:9687   */\n      add\n        /* \"#utility.yul\":9661:9687   */\n      swap1\n      pop\n        /* \"#utility.yul\":9697:9768   */\n      tag_280\n        /* \"#utility.yul\":9765:9766   */\n      0x00\n        /* \"#utility.yul\":9754:9763   */\n      dup4\n        /* \"#utility.yul\":9750:9767   */\n      add\n        /* \"#utility.yul\":9741:9747   */\n      dup6\n        /* \"#utility.yul\":9697:9768   */\n      tag_151\n      jump\t// in\n    tag_280:\n        /* \"#utility.yul\":9778:9850   */\n      tag_281\n        /* \"#utility.yul\":9846:9848   */\n      0x20\n        /* \"#utility.yul\":9835:9844   */\n      dup4\n        /* \"#utility.yul\":9831:9849   */\n      add\n        /* \"#utility.yul\":9822:9828   */\n      dup5\n        /* \"#utility.yul\":9778:9850   */\n      tag_153\n      jump\t// in\n    tag_281:\n        /* \"#utility.yul\":9525:9857   */\n      swap4\n      swap3\n      pop\n      pop\n      pop\n      jump\t// out\n        /* \"#utility.yul\":9863:10057   */\n    tag_86:\n        /* \"#utility.yul\":9903:9907   */\n      0x00\n        /* \"#utility.yul\":9923:9943   */\n      tag_283\n        /* \"#utility.yul\":9941:9942   */\n      dup3\n        /* \"#utility.yul\":9923:9943   */\n      tag_152\n      jump\t// in\n    tag_283:\n        /* \"#utility.yul\":9918:9943   */\n      swap2\n      pop\n        /* \"#utility.yul\":9957:9977   */\n      tag_284\n        /* \"#utility.yul\":9975:9976   */\n      dup4\n        /* \"#utility.yul\":9957:9977   */\n      tag_152\n      jump\t// in\n    tag_284:\n        /* \"#utility.yul\":9952:9977   */\n      swap3\n      pop\n        /* \"#utility.yul\":10001:10002   */\n      dup3\n        /* \"#utility.yul\":9998:9999   */\n      dup3\n        /* \"#utility.yul\":9994:10003   */\n      sub\n        /* \"#utility.yul\":9986:10003   */\n      swap1\n      pop\n        /* \"#utility.yul\":10025:10026   */\n      dup2\n        /* \"#utility.yul\":10019:10023   */\n      dup2\n        /* \"#utility.yul\":10016:10027   */\n      gt\n        /* \"#utility.yul\":10013:10050   */\n      iszero\n      tag_285\n      jumpi\n        /* \"#utility.yul\":10030:10048   */\n      tag_286\n      tag_164\n      jump\t// in\n    tag_286:\n        /* \"#utility.yul\":10013:10050   */\n    tag_285:\n        /* \"#utility.yul\":9863:10057   */\n      swap3\n      swap2\n      pop\n      pop\n      jump\t// out\n        /* \"#utility.yul\":10063:10217   */\n    tag_175:\n        /* \"#utility.yul\":10203:10209   */\n      0x422d3e4100000000000000000000000000000000000000000000000000000000\n        /* \"#utility.yul\":10199:10200   */\n      0x00\n        /* \"#utility.yul\":10191:10197   */\n      dup3\n        /* \"#utility.yul\":10187:10201   */\n      add\n        /* \"#utility.yul\":10180:10210   */\n      mstore\n        /* \"#utility.yul\":10063:10217   */\n      pop\n      jump\t// out\n        /* \"#utility.yul\":10223:10588   */\n    tag_176:\n        /* \"#utility.yul\":10365:10368   */\n      0x00\n        /* \"#utility.yul\":10386:10452   */\n      tag_289\n        /* \"#utility.yul\":10450:10451   */\n      0x04\n        /* \"#utility.yul\":10445:10448   */\n      dup4\n        /* \"#utility.yul\":10386:10452   */\n      tag_161\n      jump\t// in\n    tag_289:\n        /* \"#utility.yul\":10379:10452   */\n      swap2\n      pop\n        /* \"#utility.yul\":10461:10554   */\n      tag_290\n        /* \"#utility.yul\":10550:10553   */\n      dup3\n        /* \"#utility.yul\":10461:10554   */\n      tag_175\n      jump\t// in\n    tag_290:\n        /* \"#utility.yul\":10579:10581   */\n      0x20\n        /* \"#utility.yul\":10574:10577   */\n      dup3\n        /* \"#utility.yul\":10570:10582   */\n      add\n        /* \"#utility.yul\":10563:10582   */\n      swap1\n      pop\n        /* \"#utility.yul\":10223:10588   */\n      swap2\n      swap1\n      pop\n      jump\t// out\n        /* \"#utility.yul\":10594:11233   */\n    tag_89:\n        /* \"#utility.yul\":10816:10820   */\n      0x00\n        /* \"#utility.yul\":10854:10856   */\n      0x60\n        /* \"#utility.yul\":10843:10852   */\n      dup3\n        /* \"#utility.yul\":10839:10857   */\n      add\n        /* \"#utility.yul\":10831:10857   */\n      swap1\n      pop\n        /* \"#utility.yul\":10867:10938   */\n      tag_292\n        /* \"#utility.yul\":10935:10936   */\n      0x00\n        /* \"#utility.yul\":10924:10933   */\n      dup4\n        /* \"#utility.yul\":10920:10937   */\n      add\n        /* \"#utility.yul\":10911:10917   */\n      dup6\n        /* \"#utility.yul\":10867:10938   */\n      tag_153\n      jump\t// in\n    tag_292:\n        /* \"#utility.yul\":10948:11020   */\n      tag_293\n        /* \"#utility.yul\":11016:11018   */\n      0x20\n        /* \"#utility.yul\":11005:11014   */\n      dup4\n        /* \"#utility.yul\":11001:11019   */\n      add\n        /* \"#utility.yul\":10992:10998   */\n      dup5\n        /* \"#utility.yul\":10948:11020   */\n      tag_153\n      jump\t// in\n    tag_293:\n        /* \"#utility.yul\":11067:11076   */\n      dup2\n        /* \"#utility.yul\":11061:11065   */\n      dup2\n        /* \"#utility.yul\":11057:11077   */\n      sub\n        /* \"#utility.yul\":11052:11054   */\n      0x40\n        /* \"#utility.yul\":11041:11050   */\n      dup4\n        /* \"#utility.yul\":11037:11055   */\n      add\n        /* \"#utility.yul\":11030:11078   */\n      mstore\n        /* \"#utility.yul\":11095:11226   */\n      tag_294\n        /* \"#utility.yul\":11221:11225   */\n      dup2\n        /* \"#utility.yul\":11095:11226   */\n      tag_176\n      jump\t// in\n    tag_294:\n        /* \"#utility.yul\":11087:11226   */\n      swap1\n      pop\n        /* \"#utility.yul\":10594:11233   */\n      swap4\n      swap3\n      pop\n      pop\n      pop\n      jump\t// out\n        /* \"#utility.yul\":11239:11459   */\n    tag_177:\n        /* \"#utility.yul\":11379:11413   */\n      0x416d6f756e7473206d7573742062652067726561746572207468616e207a6572\n        /* \"#utility.yul\":11375:11376   */\n      0x00\n        /* \"#utility.yul\":11367:11373   */\n      dup3\n        /* \"#utility.yul\":11363:11377   */\n      add\n        /* \"#utility.yul\":11356:11414   */\n      mstore\n        /* \"#utility.yul\":11448:11451   */\n      0x6f00000000000000000000000000000000000000000000000000000000000000\n        /* \"#utility.yul\":11443:11445   */\n      0x20\n        /* \"#utility.yul\":11435:11441   */\n      dup3\n        /* \"#utility.yul\":11431:11446   */\n      add\n        /* \"#utility.yul\":11424:11452   */\n      mstore\n        /* \"#utility.yul\":11239:11459   */\n      pop\n      jump\t// out\n        /* \"#utility.yul\":11465:11831   */\n    tag_178:\n        /* \"#utility.yul\":11607:11610   */\n      0x00\n        /* \"#utility.yul\":11628:11695   */\n      tag_297\n        /* \"#utility.yul\":11692:11694   */\n      0x21\n        /* \"#utility.yul\":11687:11690   */\n      dup4\n        /* \"#utility.yul\":11628:11695   */\n      tag_161\n      jump\t// in\n    tag_297:\n        /* \"#utility.yul\":11621:11695   */\n      swap2\n      pop\n        /* \"#utility.yul\":11704:11797   */\n      tag_298\n        /* \"#utility.yul\":11793:11796   */\n      dup3\n        /* \"#utility.yul\":11704:11797   */\n      tag_177\n      jump\t// in\n    tag_298:\n        /* \"#utility.yul\":11822:11824   */\n      0x40\n        /* \"#utility.yul\":11817:11820   */\n      dup3\n        /* \"#utility.yul\":11813:11825   */\n      add\n        /* \"#utility.yul\":11806:11825   */\n      swap1\n      pop\n        /* \"#utility.yul\":11465:11831   */\n      swap2\n      swap1\n      pop\n      jump\t// out\n        /* \"#utility.yul\":11837:12256   */\n    tag_94:\n        /* \"#utility.yul\":12003:12007   */\n      0x00\n        /* \"#utility.yul\":12041:12043   */\n      0x20\n        /* \"#utility.yul\":12030:12039   */\n      dup3\n        /* \"#utility.yul\":12026:12044   */\n      add\n        /* \"#utility.yul\":12018:12044   */\n      swap1\n      pop\n        /* \"#utility.yul\":12090:12099   */\n      dup2\n        /* \"#utility.yul\":12084:12088   */\n      dup2\n        /* \"#utility.yul\":12080:12100   */\n      sub\n        /* \"#utility.yul\":12076:12077   */\n      0x00\n        /* \"#utility.yul\":12065:12074   */\n      dup4\n        /* \"#utility.yul\":12061:12078   */\n      add\n        /* \"#utility.yul\":12054:12101   */\n      mstore\n        /* \"#utility.yul\":12118:12249   */\n      tag_300\n        /* \"#utility.yul\":12244:12248   */\n      dup2\n        /* \"#utility.yul\":12118:12249   */\n      tag_178\n      jump\t// in\n    tag_300:\n        /* \"#utility.yul\":12110:12249   */\n      swap1\n      pop\n        /* \"#utility.yul\":11837:12256   */\n      swap2\n      swap1\n      pop\n      jump\t// out\n        /* \"#utility.yul\":12262:12594   */\n    tag_106:\n        /* \"#utility.yul\":12383:12387   */\n      0x00\n        /* \"#utility.yul\":12421:12423   */\n      0x40\n        /* \"#utility.yul\":12410:12419   */\n      dup3\n        /* \"#utility.yul\":12406:12424   */\n      add\n        /* \"#utility.yul\":12398:12424   */\n      swap1\n      pop\n        /* \"#utility.yul\":12434:12505   */\n      tag_302\n        /* \"#utility.yul\":12502:12503   */\n      0x00\n        /* \"#utility.yul\":12491:12500   */\n      dup4\n        /* \"#utility.yul\":12487:12504   */\n      add\n        /* \"#utility.yul\":12478:12484   */\n      dup6\n        /* \"#utility.yul\":12434:12505   */\n      tag_153\n      jump\t// in\n    tag_302:\n        /* \"#utility.yul\":12515:12587   */\n      tag_303\n        /* \"#utility.yul\":12583:12585   */\n      0x20\n        /* \"#utility.yul\":12572:12581   */\n      dup4\n        /* \"#utility.yul\":12568:12586   */\n      add\n        /* \"#utility.yul\":12559:12565   */\n      dup5\n        /* \"#utility.yul\":12515:12587   */\n      tag_153\n      jump\t// in\n    tag_303:\n        /* \"#utility.yul\":12262:12594   */\n      swap4\n      swap3\n      pop\n      pop\n      pop\n      jump\t// out\n        /* \"#utility.yul\":12600:12771   */\n    tag_179:\n        /* \"#utility.yul\":12740:12763   */\n      0x496e73756666696369656e742072657365727665730000000000000000000000\n        /* \"#utility.yul\":12736:12737   */\n      0x00\n        /* \"#utility.yul\":12728:12734   */\n      dup3\n        /* \"#utility.yul\":12724:12738   */\n      add\n        /* \"#utility.yul\":12717:12764   */\n      mstore\n        /* \"#utility.yul\":12600:12771   */\n      pop\n      jump\t// out\n        /* \"#utility.yul\":12777:13143   */\n    tag_180:\n        /* \"#utility.yul\":12919:12922   */\n      0x00\n        /* \"#utility.yul\":12940:13007   */\n      tag_306\n        /* \"#utility.yul\":13004:13006   */\n      0x15\n        /* \"#utility.yul\":12999:13002   */\n      dup4\n        /* \"#utility.yul\":12940:13007   */\n      tag_161\n      jump\t// in\n    tag_306:\n        /* \"#utility.yul\":12933:13007   */\n      swap2\n      pop\n        /* \"#utility.yul\":13016:13109   */\n      tag_307\n        /* \"#utility.yul\":13105:13108   */\n      dup3\n        /* \"#utility.yul\":13016:13109   */\n      tag_179\n      jump\t// in\n    tag_307:\n        /* \"#utility.yul\":13134:13136   */\n      0x20\n        /* \"#utility.yul\":13129:13132   */\n      dup3\n        /* \"#utility.yul\":13125:13137   */\n      add\n        /* \"#utility.yul\":13118:13137   */\n      swap1\n      pop\n        /* \"#utility.yul\":12777:13143   */\n      swap2\n      swap1\n      pop\n      jump\t// out\n        /* \"#utility.yul\":13149:13568   */\n    tag_114:\n        /* \"#utility.yul\":13315:13319   */\n      0x00\n        /* \"#utility.yul\":13353:13355   */\n      0x20\n        /* \"#utility.yul\":13342:13351   */\n      dup3\n        /* \"#utility.yul\":13338:13356   */\n      add\n        /* \"#utility.yul\":13330:13356   */\n      swap1\n      pop\n        /* \"#utility.yul\":13402:13411   */\n      dup2\n        /* \"#utility.yul\":13396:13400   */\n      dup2\n        /* \"#utility.yul\":13392:13412   */\n      sub\n        /* \"#utility.yul\":13388:13389   */\n      0x00\n        /* \"#utility.yul\":13377:13386   */\n      dup4\n        /* \"#utility.yul\":13373:13390   */\n      add\n        /* \"#utility.yul\":13366:13413   */\n      mstore\n        /* \"#utility.yul\":13430:13561   */\n      tag_309\n        /* \"#utility.yul\":13556:13560   */\n      dup2\n        /* \"#utility.yul\":13430:13561   */\n      tag_180\n      jump\t// in\n    tag_309:\n        /* \"#utility.yul\":13422:13561   */\n      swap1\n      pop\n        /* \"#utility.yul\":13149:13568   */\n      swap2\n      swap1\n      pop\n      jump\t// out\n        /* \"#utility.yul\":13574:13728   */\n    tag_181:\n        /* \"#utility.yul\":13714:13720   */\n      0x412d3e4200000000000000000000000000000000000000000000000000000000\n        /* \"#utility.yul\":13710:13711   */\n      0x00\n        /* \"#utility.yul\":13702:13708   */\n      dup3\n        /* \"#utility.yul\":13698:13712   */\n      add\n        /* \"#utility.yul\":13691:13721   */\n      mstore\n        /* \"#utility.yul\":13574:13728   */\n      pop\n      jump\t// out\n        /* \"#utility.yul\":13734:14099   */\n    tag_182:\n        /* \"#utility.yul\":13876:13879   */\n      0x00\n        /* \"#utility.yul\":13897:13963   */\n      tag_312\n        /* \"#utility.yul\":13961:13962   */\n      0x04\n        /* \"#utility.yul\":13956:13959   */\n      dup4\n        /* \"#utility.yul\":13897:13963   */\n      tag_161\n      jump\t// in\n    tag_312:\n        /* \"#utility.yul\":13890:13963   */\n      swap2\n      pop\n        /* \"#utility.yul\":13972:14065   */\n      tag_313\n        /* \"#utility.yul\":14061:14064   */\n      dup3\n        /* \"#utility.yul\":13972:14065   */\n      tag_181\n      jump\t// in\n    tag_313:\n        /* \"#utility.yul\":14090:14092   */\n      0x20\n        /* \"#utility.yul\":14085:14088   */\n      dup3\n        /* \"#utility.yul\":14081:14093   */\n      add\n        /* \"#utility.yul\":14074:14093   */\n      swap1\n      pop\n        /* \"#utility.yul\":13734:14099   */\n      swap2\n      swap1\n      pop\n      jump\t// out\n        /* \"#utility.yul\":14105:14744   */\n    tag_148:\n        /* \"#utility.yul\":14327:14331   */\n      0x00\n        /* \"#utility.yul\":14365:14367   */\n      0x60\n        /* \"#utility.yul\":14354:14363   */\n      dup3\n        /* \"#utility.yul\":14350:14368   */\n      add\n        /* \"#utility.yul\":14342:14368   */\n      swap1\n      pop\n        /* \"#utility.yul\":14378:14449   */\n      tag_315\n        /* \"#utility.yul\":14446:14447   */\n      0x00\n        /* \"#utility.yul\":14435:14444   */\n      dup4\n        /* \"#utility.yul\":14431:14448   */\n      add\n        /* \"#utility.yul\":14422:14428   */\n      dup6\n        /* \"#utility.yul\":14378:14449   */\n      tag_153\n      jump\t// in\n    tag_315:\n        /* \"#utility.yul\":14459:14531   */\n      tag_316\n        /* \"#utility.yul\":14527:14529   */\n      0x20\n        /* \"#utility.yul\":14516:14525   */\n      dup4\n        /* \"#utility.yul\":14512:14530   */\n      add\n        /* \"#utility.yul\":14503:14509   */\n      dup5\n        /* \"#utility.yul\":14459:14531   */\n      tag_153\n      jump\t// in\n    tag_316:\n        /* \"#utility.yul\":14578:14587   */\n      dup2\n        /* \"#utility.yul\":14572:14576   */\n      dup2\n        /* \"#utility.yul\":14568:14588   */\n      sub\n        /* \"#utility.yul\":14563:14565   */\n      0x40\n        /* \"#utility.yul\":14552:14561   */\n      dup4\n        /* \"#utility.yul\":14548:14566   */\n      add\n        /* \"#utility.yul\":14541:14589   */\n      mstore\n        /* \"#utility.yul\":14606:14737   */\n      tag_317\n        /* \"#utility.yul\":14732:14736   */\n      dup2\n        /* \"#utility.yul\":14606:14737   */\n      tag_182\n      jump\t// in\n    tag_317:\n        /* \"#utility.yul\":14598:14737   */\n      swap1\n      pop\n        /* \"#utility.yul\":14105:14744   */\n      swap4\n      swap3\n      pop\n      pop\n      pop\n      jump\t// out\n\n    auxdata: 0xa2646970667358221220a95249b6b98f1acc8d88262f66c4ec3b6638a151eb8090336c4d4a3d7f6c31cc64736f6c634300081a0033\n}\n",
				"bytecode": {
					"linkReferences": {},
					"object": "608060405234801561000f575f80fd5b5060405161163438038061163483398181016040528101906100319190610115565b815f806101000a81548173ffffffffffffffffffffffffffffffffffffffff021916908373ffffffffffffffffffffffffffffffffffffffff1602179055508060015f6101000a81548173ffffffffffffffffffffffffffffffffffffffff021916908373ffffffffffffffffffffffffffffffffffffffff1602179055505050610153565b5f80fd5b5f73ffffffffffffffffffffffffffffffffffffffff82169050919050565b5f6100e4826100bb565b9050919050565b6100f4816100da565b81146100fe575f80fd5b50565b5f8151905061010f816100eb565b92915050565b5f806040838503121561012b5761012a6100b7565b5b5f61013885828601610101565b925050602061014985828601610101565b9150509250929050565b6114d4806101605f395ff3fe608060405234801561000f575f80fd5b5060043610610091575f3560e01c80638014a7aa116100645780638014a7aa1461011f5780639cd441da1461013b5780639d7de6b314610157578063dc5fa6c514610173578063e4f1f70a1461019157610091565b80630fc63d101461009557806319e36f3b146100b357806341976e09146100d15780635f64b55b14610101575b5f80fd5b61009d6101ad565b6040516100aa9190610d80565b60405180910390f35b6100bb6101d0565b6040516100c89190610db1565b60405180910390f35b6100eb60048036038101906100e69190610df8565b6101d6565b6040516100f89190610db1565b60405180910390f35b610109610363565b6040516101169190610d80565b60405180910390f35b61013960048036038101906101349190610e4d565b610388565b005b61015560048036038101906101509190610e78565b610644565b005b610171600480360381019061016c9190610e78565b61083a565b005b61017b610a7f565b6040516101889190610db1565b60405180910390f35b6101ab60048036038101906101a69190610e4d565b610a85565b005b5f8054906101000a900473ffffffffffffffffffffffffffffffffffffffff1681565b60035481565b5f805f9054906101000a900473ffffffffffffffffffffffffffffffffffffffff1673ffffffffffffffffffffffffffffffffffffffff168273ffffffffffffffffffffffffffffffffffffffff16148061027d575060015f9054906101000a900473ffffffffffffffffffffffffffffffffffffffff1673ffffffffffffffffffffffffffffffffffffffff168273ffffffffffffffffffffffffffffffffffffffff16145b6102bc576040517f08c379a00000000000000000000000000000000000000000000000000000000081526004016102b390610f10565b60405180910390fd5b5f8054906101000a900473ffffffffffffffffffffffffffffffffffffffff1673ffffffffffffffffffffffffffffffffffffffff168273ffffffffffffffffffffffffffffffffffffffff160361033857600254670de0b6b3a76400006003546103279190610f5b565b6103319190610fc9565b905061035e565b600354670de0b6b3a76400006002546103519190610f5b565b61035b9190610fc9565b90505b919050565b60015f9054906101000a900473ffffffffffffffffffffffffffffffffffffffff1681565b5f81116103ca576040517f08c379a00000000000000000000000000000000000000000000000000000000081526004016103c190611043565b60405180910390fd5b5f6002541180156103dc57505f600354115b61041b576040517f08c379a0000000000000000000000000000000000000000000000000000000008152600401610412906110ab565b60405180910390fd5b5f8160035461042a91906110c9565b826002546104389190610f5b565b6104429190610fc9565b90505f8111610486576040517f08c379a000000000000000000000000000000000000000000000000000000000815260040161047d9061116c565b60405180910390fd5b60015f9054906101000a900473ffffffffffffffffffffffffffffffffffffffff1673ffffffffffffffffffffffffffffffffffffffff166323b872dd3330856040518463ffffffff1660e01b81526004016104e49392919061118a565b6020604051808303815f875af1158015610500573d5f803e3d5ffd5b505050506040513d601f19601f8201168201806040525081019061052491906111f4565b505f8054906101000a900473ffffffffffffffffffffffffffffffffffffffff1673ffffffffffffffffffffffffffffffffffffffff1663a9059cbb33836040518363ffffffff1660e01b815260040161057f92919061121f565b6020604051808303815f875af115801561059b573d5f803e3d5ffd5b505050506040513d601f19601f820116820180604052508101906105bf91906111f4565b508060025f8282546105d19190611246565b925050819055508160035f8282546105e991906110c9565b925050819055503373ffffffffffffffffffffffffffffffffffffffff167f5fe997f80da1632e1237be5a3f6b702cfa91e654659e831b2c723bc5226b50f483836040516106389291906112c3565b60405180910390a25050565b5f8211801561065257505f81115b610691576040517f08c379a00000000000000000000000000000000000000000000000000000000081526004016106889061136d565b60405180910390fd5b5f8054906101000a900473ffffffffffffffffffffffffffffffffffffffff1673ffffffffffffffffffffffffffffffffffffffff166323b872dd3330856040518463ffffffff1660e01b81526004016106ed9392919061118a565b6020604051808303815f875af1158015610709573d5f803e3d5ffd5b505050506040513d601f19601f8201168201806040525081019061072d91906111f4565b5060015f9054906101000a900473ffffffffffffffffffffffffffffffffffffffff1673ffffffffffffffffffffffffffffffffffffffff166323b872dd3330846040518463ffffffff1660e01b815260040161078c9392919061118a565b6020604051808303815f875af11580156107a8573d5f803e3d5ffd5b505050506040513d601f19601f820116820180604052508101906107cc91906111f4565b508160025f8282546107de91906110c9565b925050819055508060035f8282546107f691906110c9565b925050819055507f38f8a0c92f4c5b0b6877f878cb4c0c8d348a47b76d716c8e78f425043df9515b828260405161082e92919061138b565b60405180910390a15050565b5f8211801561084857505f81115b610887576040517f08c379a000000000000000000000000000000000000000000000000000000000815260040161087e9061136d565b60405180910390fd5b600254821115801561089b57506003548111155b6108da576040517f08c379a00000000000000000000000000000000000000000000000000000000081526004016108d1906113fc565b60405180910390fd5b5f8054906101000a900473ffffffffffffffffffffffffffffffffffffffff1673ffffffffffffffffffffffffffffffffffffffff1663a9059cbb33846040518363ffffffff1660e01b815260040161093492919061121f565b6020604051808303815f875af1158015610950573d5f803e3d5ffd5b505050506040513d601f19601f8201168201806040525081019061097491906111f4565b5060015f9054906101000a900473ffffffffffffffffffffffffffffffffffffffff1673ffffffffffffffffffffffffffffffffffffffff1663a9059cbb33836040518363ffffffff1660e01b81526004016109d192919061121f565b6020604051808303815f875af11580156109ed573d5f803e3d5ffd5b505050506040513d601f19601f82011682018060405250810190610a1191906111f4565b508160025f828254610a239190611246565b925050819055508060035f828254610a3b9190611246565b925050819055507f6f0f96292ae0038c04f9b6bab30f185d9ca02c471d0983f563f2a4f674aef1378282604051610a7392919061138b565b60405180910390a15050565b60025481565b5f8111610ac7576040517f08c379a0000000000000000000000000000000000000000000000000000000008152600401610abe90611043565b60405180910390fd5b5f600254118015610ad957505f600354115b610b18576040517f08c379a0000000000000000000000000000000000000000000000000000000008152600401610b0f906110ab565b60405180910390fd5b5f81600254610b2791906110c9565b82600354610b359190610f5b565b610b3f9190610fc9565b90505f8111610b83576040517f08c379a0000000000000000000000000000000000000000000000000000000008152600401610b7a9061116c565b60405180910390fd5b5f8054906101000a900473ffffffffffffffffffffffffffffffffffffffff1673ffffffffffffffffffffffffffffffffffffffff166323b872dd3330856040518463ffffffff1660e01b8152600401610bdf9392919061118a565b6020604051808303815f875af1158015610bfb573d5f803e3d5ffd5b505050506040513d601f19601f82011682018060405250810190610c1f91906111f4565b5060015f9054906101000a900473ffffffffffffffffffffffffffffffffffffffff1673ffffffffffffffffffffffffffffffffffffffff1663a9059cbb33836040518363ffffffff1660e01b8152600401610c7c92919061121f565b6020604051808303815f875af1158015610c98573d5f803e3d5ffd5b505050506040513d601f19601f82011682018060405250810190610cbc91906111f4565b508160025f828254610cce91906110c9565b925050819055508060035f828254610ce69190611246565b925050819055503373ffffffffffffffffffffffffffffffffffffffff167f5fe997f80da1632e1237be5a3f6b702cfa91e654659e831b2c723bc5226b50f48383604051610d35929190611464565b60405180910390a25050565b5f73ffffffffffffffffffffffffffffffffffffffff82169050919050565b5f610d6a82610d41565b9050919050565b610d7a81610d60565b82525050565b5f602082019050610d935f830184610d71565b92915050565b5f819050919050565b610dab81610d99565b82525050565b5f602082019050610dc45f830184610da2565b92915050565b5f80fd5b610dd781610d60565b8114610de1575f80fd5b50565b5f81359050610df281610dce565b92915050565b5f60208284031215610e0d57610e0c610dca565b5b5f610e1a84828501610de4565b91505092915050565b610e2c81610d99565b8114610e36575f80fd5b50565b5f81359050610e4781610e23565b92915050565b5f60208284031215610e6257610e61610dca565b5b5f610e6f84828501610e39565b91505092915050565b5f8060408385031215610e8e57610e8d610dca565b5b5f610e9b85828601610e39565b9250506020610eac85828601610e39565b9150509250929050565b5f82825260208201905092915050565b7f496e76616c696420746f6b656e206164647265737300000000000000000000005f82015250565b5f610efa601583610eb6565b9150610f0582610ec6565b602082019050919050565b5f6020820190508181035f830152610f2781610eee565b9050919050565b7f4e487b71000000000000000000000000000000000000000000000000000000005f52601160045260245ffd5b5f610f6582610d99565b9150610f7083610d99565b9250828202610f7e81610d99565b91508282048414831517610f9557610f94610f2e565b5b5092915050565b7f4e487b71000000000000000000000000000000000000000000000000000000005f52601260045260245ffd5b5f610fd382610d99565b9150610fde83610d99565b925082610fee57610fed610f9c565b5b828204905092915050565b7f416d6f756e74206d7573742062652067726561746572207468616e207a65726f5f82015250565b5f61102d602083610eb6565b915061103882610ff9565b602082019050919050565b5f6020820190508181035f83015261105a81611021565b9050919050565b7f496e73756666696369656e74206c6971756964697479000000000000000000005f82015250565b5f611095601683610eb6565b91506110a082611061565b602082019050919050565b5f6020820190508181035f8301526110c281611089565b9050919050565b5f6110d382610d99565b91506110de83610d99565b92508282019050808211156110f6576110f5610f2e565b5b92915050565b7f4f757470757420616d6f756e74206d75737420626520677265617465722074685f8201527f616e207a65726f00000000000000000000000000000000000000000000000000602082015250565b5f611156602783610eb6565b9150611161826110fc565b604082019050919050565b5f6020820190508181035f8301526111838161114a565b9050919050565b5f60608201905061119d5f830186610d71565b6111aa6020830185610d71565b6111b76040830184610da2565b949350505050565b5f8115159050919050565b6111d3816111bf565b81146111dd575f80fd5b50565b5f815190506111ee816111ca565b92915050565b5f6020828403121561120957611208610dca565b5b5f611216848285016111e0565b91505092915050565b5f6040820190506112325f830185610d71565b61123f6020830184610da2565b9392505050565b5f61125082610d99565b915061125b83610d99565b925082820390508181111561127357611272610f2e565b5b92915050565b7f422d3e41000000000000000000000000000000000000000000000000000000005f82015250565b5f6112ad600483610eb6565b91506112b882611279565b602082019050919050565b5f6060820190506112d65f830185610da2565b6112e36020830184610da2565b81810360408301526112f4816112a1565b90509392505050565b7f416d6f756e7473206d7573742062652067726561746572207468616e207a65725f8201527f6f00000000000000000000000000000000000000000000000000000000000000602082015250565b5f611357602183610eb6565b9150611362826112fd565b604082019050919050565b5f6020820190508181035f8301526113848161134b565b9050919050565b5f60408201905061139e5f830185610da2565b6113ab6020830184610da2565b9392505050565b7f496e73756666696369656e7420726573657276657300000000000000000000005f82015250565b5f6113e6601583610eb6565b91506113f1826113b2565b602082019050919050565b5f6020820190508181035f830152611413816113da565b9050919050565b7f412d3e42000000000000000000000000000000000000000000000000000000005f82015250565b5f61144e600483610eb6565b91506114598261141a565b602082019050919050565b5f6060820190506114775f830185610da2565b6114846020830184610da2565b818103604083015261149581611442565b9050939250505056fea2646970667358221220a95249b6b98f1acc8d88262f66c4ec3b6638a151eb8090336c4d4a3d7f6c31cc64736f6c634300081a0033",
					"opcodes": "PUSH1 0x80 PUSH1 0x40 MSTORE CALLVALUE DUP1 ISZERO PUSH2 0xF JUMPI PUSH0 DUP1 REVERT JUMPDEST POP PUSH1 0x40 MLOAD PUSH2 0x1634 CODESIZE SUB DUP1 PUSH2 0x1634 DUP4 CODECOPY DUP2 DUP2 ADD PUSH1 0x40 MSTORE DUP2 ADD SWAP1 PUSH2 0x31 SWAP2 SWAP1 PUSH2 0x115 JUMP JUMPDEST DUP2 PUSH0 DUP1 PUSH2 0x100 EXP DUP2 SLOAD DUP2 PUSH20 0xFFFFFFFFFFFFFFFFFFFFFFFFFFFFFFFFFFFFFFFF MUL NOT AND SWAP1 DUP4 PUSH20 0xFFFFFFFFFFFFFFFFFFFFFFFFFFFFFFFFFFFFFFFF AND MUL OR SWAP1 SSTORE POP DUP1 PUSH1 0x1 PUSH0 PUSH2 0x100 EXP DUP2 SLOAD DUP2 PUSH20 0xFFFFFFFFFFFFFFFFFFFFFFFFFFFFFFFFFFFFFFFF MUL NOT AND SWAP1 DUP4 PUSH20 0xFFFFFFFFFFFFFFFFFFFFFFFFFFFFFFFFFFFFFFFF AND MUL OR SWAP1 SSTORE POP POP POP PUSH2 0x153 JUMP JUMPDEST PUSH0 DUP1 REVERT JUMPDEST PUSH0 PUSH20 0xFFFFFFFFFFFFFFFFFFFFFFFFFFFFFFFFFFFFFFFF DUP3 AND SWAP1 POP SWAP2 SWAP1 POP JUMP JUMPDEST PUSH0 PUSH2 0xE4 DUP3 PUSH2 0xBB JUMP JUMPDEST SWAP1 POP SWAP2 SWAP1 POP JUMP JUMPDEST PUSH2 0xF4 DUP2 PUSH2 0xDA JUMP JUMPDEST DUP2 EQ PUSH2 0xFE JUMPI PUSH0 DUP1 REVERT JUMPDEST POP JUMP JUMPDEST PUSH0 DUP2 MLOAD SWAP1 POP PUSH2 0x10F DUP2 PUSH2 0xEB JUMP JUMPDEST SWAP3 SWAP2 POP POP JUMP JUMPDEST PUSH0 DUP1 PUSH1 0x40 DUP4 DUP6 SUB SLT ISZERO PUSH2 0x12B JUMPI PUSH2 0x12A PUSH2 0xB7 JUMP JUMPDEST JUMPDEST PUSH0 PUSH2 0x138 DUP6 DUP3 DUP7 ADD PUSH2 0x101 JUMP JUMPDEST SWAP3 POP POP PUSH1 0x20 PUSH2 0x149 DUP6 DUP3 DUP7 ADD PUSH2 0x101 JUMP JUMPDEST SWAP2 POP POP SWAP3 POP SWAP3 SWAP1 POP JUMP JUMPDEST PUSH2 0x14D4 DUP1 PUSH2 0x160 PUSH0 CODECOPY PUSH0 RETURN INVALID PUSH1 0x80 PUSH1 0x40 MSTORE CALLVALUE DUP1 ISZERO PUSH2 0xF JUMPI PUSH0 DUP1 REVERT JUMPDEST POP PUSH1 0x4 CALLDATASIZE LT PUSH2 0x91 JUMPI PUSH0 CALLDATALOAD PUSH1 0xE0 SHR DUP1 PUSH4 0x8014A7AA GT PUSH2 0x64 JUMPI DUP1 PUSH4 0x8014A7AA EQ PUSH2 0x11F JUMPI DUP1 PUSH4 0x9CD441DA EQ PUSH2 0x13B JUMPI DUP1 PUSH4 0x9D7DE6B3 EQ PUSH2 0x157 JUMPI DUP1 PUSH4 0xDC5FA6C5 EQ PUSH2 0x173 JUMPI DUP1 PUSH4 0xE4F1F70A EQ PUSH2 0x191 JUMPI PUSH2 0x91 JUMP JUMPDEST DUP1 PUSH4 0xFC63D10 EQ PUSH2 0x95 JUMPI DUP1 PUSH4 0x19E36F3B EQ PUSH2 0xB3 JUMPI DUP1 PUSH4 0x41976E09 EQ PUSH2 0xD1 JUMPI DUP1 PUSH4 0x5F64B55B EQ PUSH2 0x101 JUMPI JUMPDEST PUSH0 DUP1 REVERT JUMPDEST PUSH2 0x9D PUSH2 0x1AD JUMP JUMPDEST PUSH1 0x40 MLOAD PUSH2 0xAA SWAP2 SWAP1 PUSH2 0xD80 JUMP JUMPDEST PUSH1 0x40 MLOAD DUP1 SWAP2 SUB SWAP1 RETURN JUMPDEST PUSH2 0xBB PUSH2 0x1D0 JUMP JUMPDEST PUSH1 0x40 MLOAD PUSH2 0xC8 SWAP2 SWAP1 PUSH2 0xDB1 JUMP JUMPDEST PUSH1 0x40 MLOAD DUP1 SWAP2 SUB SWAP1 RETURN JUMPDEST PUSH2 0xEB PUSH1 0x4 DUP1 CALLDATASIZE SUB DUP2 ADD SWAP1 PUSH2 0xE6 SWAP2 SWAP1 PUSH2 0xDF8 JUMP JUMPDEST PUSH2 0x1D6 JUMP JUMPDEST PUSH1 0x40 MLOAD PUSH2 0xF8 SWAP2 SWAP1 PUSH2 0xDB1 JUMP JUMPDEST PUSH1 0x40 MLOAD DUP1 SWAP2 SUB SWAP1 RETURN JUMPDEST PUSH2 0x109 PUSH2 0x363 JUMP JUMPDEST PUSH1 0x40 MLOAD PUSH2 0x116 SWAP2 SWAP1 PUSH2 0xD80 JUMP JUMPDEST PUSH1 0x40 MLOAD DUP1 SWAP2 SUB SWAP1 RETURN JUMPDEST PUSH2 0x139 PUSH1 0x4 DUP1 CALLDATASIZE SUB DUP2 ADD SWAP1 PUSH2 0x134 SWAP2 SWAP1 PUSH2 0xE4D JUMP JUMPDEST PUSH2 0x388 JUMP JUMPDEST STOP JUMPDEST PUSH2 0x155 PUSH1 0x4 DUP1 CALLDATASIZE SUB DUP2 ADD SWAP1 PUSH2 0x150 SWAP2 SWAP1 PUSH2 0xE78 JUMP JUMPDEST PUSH2 0x644 JUMP JUMPDEST STOP JUMPDEST PUSH2 0x171 PUSH1 0x4 DUP1 CALLDATASIZE SUB DUP2 ADD SWAP1 PUSH2 0x16C SWAP2 SWAP1 PUSH2 0xE78 JUMP JUMPDEST PUSH2 0x83A JUMP JUMPDEST STOP JUMPDEST PUSH2 0x17B PUSH2 0xA7F JUMP JUMPDEST PUSH1 0x40 MLOAD PUSH2 0x188 SWAP2 SWAP1 PUSH2 0xDB1 JUMP JUMPDEST PUSH1 0x40 MLOAD DUP1 SWAP2 SUB SWAP1 RETURN JUMPDEST PUSH2 0x1AB PUSH1 0x4 DUP1 CALLDATASIZE SUB DUP2 ADD SWAP1 PUSH2 0x1A6 SWAP2 SWAP1 PUSH2 0xE4D JUMP JUMPDEST PUSH2 0xA85 JUMP JUMPDEST STOP JUMPDEST PUSH0 DUP1 SLOAD SWAP1 PUSH2 0x100 EXP SWAP1 DIV PUSH20 0xFFFFFFFFFFFFFFFFFFFFFFFFFFFFFFFFFFFFFFFF AND DUP2 JUMP JUMPDEST PUSH1 0x3 SLOAD DUP2 JUMP JUMPDEST PUSH0 DUP1 PUSH0 SWAP1 SLOAD SWAP1 PUSH2 0x100 EXP SWAP1 DIV PUSH20 0xFFFFFFFFFFFFFFFFFFFFFFFFFFFFFFFFFFFFFFFF AND PUSH20 0xFFFFFFFFFFFFFFFFFFFFFFFFFFFFFFFFFFFFFFFF AND DUP3 PUSH20 0xFFFFFFFFFFFFFFFFFFFFFFFFFFFFFFFFFFFFFFFF AND EQ DUP1 PUSH2 0x27D JUMPI POP PUSH1 0x1 PUSH0 SWAP1 SLOAD SWAP1 PUSH2 0x100 EXP SWAP1 DIV PUSH20 0xFFFFFFFFFFFFFFFFFFFFFFFFFFFFFFFFFFFFFFFF AND PUSH20 0xFFFFFFFFFFFFFFFFFFFFFFFFFFFFFFFFFFFFFFFF AND DUP3 PUSH20 0xFFFFFFFFFFFFFFFFFFFFFFFFFFFFFFFFFFFFFFFF AND EQ JUMPDEST PUSH2 0x2BC JUMPI PUSH1 0x40 MLOAD PUSH32 0x8C379A000000000000000000000000000000000000000000000000000000000 DUP2 MSTORE PUSH1 0x4 ADD PUSH2 0x2B3 SWAP1 PUSH2 0xF10 JUMP JUMPDEST PUSH1 0x40 MLOAD DUP1 SWAP2 SUB SWAP1 REVERT JUMPDEST PUSH0 DUP1 SLOAD SWAP1 PUSH2 0x100 EXP SWAP1 DIV PUSH20 0xFFFFFFFFFFFFFFFFFFFFFFFFFFFFFFFFFFFFFFFF AND PUSH20 0xFFFFFFFFFFFFFFFFFFFFFFFFFFFFFFFFFFFFFFFF AND DUP3 PUSH20 0xFFFFFFFFFFFFFFFFFFFFFFFFFFFFFFFFFFFFFFFF AND SUB PUSH2 0x338 JUMPI PUSH1 0x2 SLOAD PUSH8 0xDE0B6B3A7640000 PUSH1 0x3 SLOAD PUSH2 0x327 SWAP2 SWAP1 PUSH2 0xF5B JUMP JUMPDEST PUSH2 0x331 SWAP2 SWAP1 PUSH2 0xFC9 JUMP JUMPDEST SWAP1 POP PUSH2 0x35E JUMP JUMPDEST PUSH1 0x3 SLOAD PUSH8 0xDE0B6B3A7640000 PUSH1 0x2 SLOAD PUSH2 0x351 SWAP2 SWAP1 PUSH2 0xF5B JUMP JUMPDEST PUSH2 0x35B SWAP2 SWAP1 PUSH2 0xFC9 JUMP JUMPDEST SWAP1 POP JUMPDEST SWAP2 SWAP1 POP JUMP JUMPDEST PUSH1 0x1 PUSH0 SWAP1 SLOAD SWAP1 PUSH2 0x100 EXP SWAP1 DIV PUSH20 0xFFFFFFFFFFFFFFFFFFFFFFFFFFFFFFFFFFFFFFFF AND DUP2 JUMP JUMPDEST PUSH0 DUP2 GT PUSH2 0x3CA JUMPI PUSH1 0x40 MLOAD PUSH32 0x8C379A000000000000000000000000000000000000000000000000000000000 DUP2 MSTORE PUSH1 0x4 ADD PUSH2 0x3C1 SWAP1 PUSH2 0x1043 JUMP JUMPDEST PUSH1 0x40 MLOAD DUP1 SWAP2 SUB SWAP1 REVERT JUMPDEST PUSH0 PUSH1 0x2 SLOAD GT DUP1 ISZERO PUSH2 0x3DC JUMPI POP PUSH0 PUSH1 0x3 SLOAD GT JUMPDEST PUSH2 0x41B JUMPI PUSH1 0x40 MLOAD PUSH32 0x8C379A000000000000000000000000000000000000000000000000000000000 DUP2 MSTORE PUSH1 0x4 ADD PUSH2 0x412 SWAP1 PUSH2 0x10AB JUMP JUMPDEST PUSH1 0x40 MLOAD DUP1 SWAP2 SUB SWAP1 REVERT JUMPDEST PUSH0 DUP2 PUSH1 0x3 SLOAD PUSH2 0x42A SWAP2 SWAP1 PUSH2 0x10C9 JUMP JUMPDEST DUP3 PUSH1 0x2 SLOAD PUSH2 0x438 SWAP2 SWAP1 PUSH2 0xF5B JUMP JUMPDEST PUSH2 0x442 SWAP2 SWAP1 PUSH2 0xFC9 JUMP JUMPDEST SWAP1 POP PUSH0 DUP2 GT PUSH2 0x486 JUMPI PUSH1 0x40 MLOAD PUSH32 0x8C379A000000000000000000000000000000000000000000000000000000000 DUP2 MSTORE PUSH1 0x4 ADD PUSH2 0x47D SWAP1 PUSH2 0x116C JUMP JUMPDEST PUSH1 0x40 MLOAD DUP1 SWAP2 SUB SWAP1 REVERT JUMPDEST PUSH1 0x1 PUSH0 SWAP1 SLOAD SWAP1 PUSH2 0x100 EXP SWAP1 DIV PUSH20 0xFFFFFFFFFFFFFFFFFFFFFFFFFFFFFFFFFFFFFFFF AND PUSH20 0xFFFFFFFFFFFFFFFFFFFFFFFFFFFFFFFFFFFFFFFF AND PUSH4 0x23B872DD CALLER ADDRESS DUP6 PUSH1 0x40 MLOAD DUP5 PUSH4 0xFFFFFFFF AND PUSH1 0xE0 SHL DUP2 MSTORE PUSH1 0x4 ADD PUSH2 0x4E4 SWAP4 SWAP3 SWAP2 SWAP1 PUSH2 0x118A JUMP JUMPDEST PUSH1 0x20 PUSH1 0x40 MLOAD DUP1 DUP4 SUB DUP2 PUSH0 DUP8 GAS CALL ISZERO DUP1 ISZERO PUSH2 0x500 JUMPI RETURNDATASIZE PUSH0 DUP1 RETURNDATACOPY RETURNDATASIZE PUSH0 REVERT JUMPDEST POP POP POP POP PUSH1 0x40 MLOAD RETURNDATASIZE PUSH1 0x1F NOT PUSH1 0x1F DUP3 ADD AND DUP3 ADD DUP1 PUSH1 0x40 MSTORE POP DUP2 ADD SWAP1 PUSH2 0x524 SWAP2 SWAP1 PUSH2 0x11F4 JUMP JUMPDEST POP PUSH0 DUP1 SLOAD SWAP1 PUSH2 0x100 EXP SWAP1 DIV PUSH20 0xFFFFFFFFFFFFFFFFFFFFFFFFFFFFFFFFFFFFFFFF AND PUSH20 0xFFFFFFFFFFFFFFFFFFFFFFFFFFFFFFFFFFFFFFFF AND PUSH4 0xA9059CBB CALLER DUP4 PUSH1 0x40 MLOAD DUP4 PUSH4 0xFFFFFFFF AND PUSH1 0xE0 SHL DUP2 MSTORE PUSH1 0x4 ADD PUSH2 0x57F SWAP3 SWAP2 SWAP1 PUSH2 0x121F JUMP JUMPDEST PUSH1 0x20 PUSH1 0x40 MLOAD DUP1 DUP4 SUB DUP2 PUSH0 DUP8 GAS CALL ISZERO DUP1 ISZERO PUSH2 0x59B JUMPI RETURNDATASIZE PUSH0 DUP1 RETURNDATACOPY RETURNDATASIZE PUSH0 REVERT JUMPDEST POP POP POP POP PUSH1 0x40 MLOAD RETURNDATASIZE PUSH1 0x1F NOT PUSH1 0x1F DUP3 ADD AND DUP3 ADD DUP1 PUSH1 0x40 MSTORE POP DUP2 ADD SWAP1 PUSH2 0x5BF SWAP2 SWAP1 PUSH2 0x11F4 JUMP JUMPDEST POP DUP1 PUSH1 0x2 PUSH0 DUP3 DUP3 SLOAD PUSH2 0x5D1 SWAP2 SWAP1 PUSH2 0x1246 JUMP JUMPDEST SWAP3 POP POP DUP2 SWAP1 SSTORE POP DUP2 PUSH1 0x3 PUSH0 DUP3 DUP3 SLOAD PUSH2 0x5E9 SWAP2 SWAP1 PUSH2 0x10C9 JUMP JUMPDEST SWAP3 POP POP DUP2 SWAP1 SSTORE POP CALLER PUSH20 0xFFFFFFFFFFFFFFFFFFFFFFFFFFFFFFFFFFFFFFFF AND PUSH32 0x5FE997F80DA1632E1237BE5A3F6B702CFA91E654659E831B2C723BC5226B50F4 DUP4 DUP4 PUSH1 0x40 MLOAD PUSH2 0x638 SWAP3 SWAP2 SWAP1 PUSH2 0x12C3 JUMP JUMPDEST PUSH1 0x40 MLOAD DUP1 SWAP2 SUB SWAP1 LOG2 POP POP JUMP JUMPDEST PUSH0 DUP3 GT DUP1 ISZERO PUSH2 0x652 JUMPI POP PUSH0 DUP2 GT JUMPDEST PUSH2 0x691 JUMPI PUSH1 0x40 MLOAD PUSH32 0x8C379A000000000000000000000000000000000000000000000000000000000 DUP2 MSTORE PUSH1 0x4 ADD PUSH2 0x688 SWAP1 PUSH2 0x136D JUMP JUMPDEST PUSH1 0x40 MLOAD DUP1 SWAP2 SUB SWAP1 REVERT JUMPDEST PUSH0 DUP1 SLOAD SWAP1 PUSH2 0x100 EXP SWAP1 DIV PUSH20 0xFFFFFFFFFFFFFFFFFFFFFFFFFFFFFFFFFFFFFFFF AND PUSH20 0xFFFFFFFFFFFFFFFFFFFFFFFFFFFFFFFFFFFFFFFF AND PUSH4 0x23B872DD CALLER ADDRESS DUP6 PUSH1 0x40 MLOAD DUP5 PUSH4 0xFFFFFFFF AND PUSH1 0xE0 SHL DUP2 MSTORE PUSH1 0x4 ADD PUSH2 0x6ED SWAP4 SWAP3 SWAP2 SWAP1 PUSH2 0x118A JUMP JUMPDEST PUSH1 0x20 PUSH1 0x40 MLOAD DUP1 DUP4 SUB DUP2 PUSH0 DUP8 GAS CALL ISZERO DUP1 ISZERO PUSH2 0x709 JUMPI RETURNDATASIZE PUSH0 DUP1 RETURNDATACOPY RETURNDATASIZE PUSH0 REVERT JUMPDEST POP POP POP POP PUSH1 0x40 MLOAD RETURNDATASIZE PUSH1 0x1F NOT PUSH1 0x1F DUP3 ADD AND DUP3 ADD DUP1 PUSH1 0x40 MSTORE POP DUP2 ADD SWAP1 PUSH2 0x72D SWAP2 SWAP1 PUSH2 0x11F4 JUMP JUMPDEST POP PUSH1 0x1 PUSH0 SWAP1 SLOAD SWAP1 PUSH2 0x100 EXP SWAP1 DIV PUSH20 0xFFFFFFFFFFFFFFFFFFFFFFFFFFFFFFFFFFFFFFFF AND PUSH20 0xFFFFFFFFFFFFFFFFFFFFFFFFFFFFFFFFFFFFFFFF AND PUSH4 0x23B872DD CALLER ADDRESS DUP5 PUSH1 0x40 MLOAD DUP5 PUSH4 0xFFFFFFFF AND PUSH1 0xE0 SHL DUP2 MSTORE PUSH1 0x4 ADD PUSH2 0x78C SWAP4 SWAP3 SWAP2 SWAP1 PUSH2 0x118A JUMP JUMPDEST PUSH1 0x20 PUSH1 0x40 MLOAD DUP1 DUP4 SUB DUP2 PUSH0 DUP8 GAS CALL ISZERO DUP1 ISZERO PUSH2 0x7A8 JUMPI RETURNDATASIZE PUSH0 DUP1 RETURNDATACOPY RETURNDATASIZE PUSH0 REVERT JUMPDEST POP POP POP POP PUSH1 0x40 MLOAD RETURNDATASIZE PUSH1 0x1F NOT PUSH1 0x1F DUP3 ADD AND DUP3 ADD DUP1 PUSH1 0x40 MSTORE POP DUP2 ADD SWAP1 PUSH2 0x7CC SWAP2 SWAP1 PUSH2 0x11F4 JUMP JUMPDEST POP DUP2 PUSH1 0x2 PUSH0 DUP3 DUP3 SLOAD PUSH2 0x7DE SWAP2 SWAP1 PUSH2 0x10C9 JUMP JUMPDEST SWAP3 POP POP DUP2 SWAP1 SSTORE POP DUP1 PUSH1 0x3 PUSH0 DUP3 DUP3 SLOAD PUSH2 0x7F6 SWAP2 SWAP1 PUSH2 0x10C9 JUMP JUMPDEST SWAP3 POP POP DUP2 SWAP1 SSTORE POP PUSH32 0x38F8A0C92F4C5B0B6877F878CB4C0C8D348A47B76D716C8E78F425043DF9515B DUP3 DUP3 PUSH1 0x40 MLOAD PUSH2 0x82E SWAP3 SWAP2 SWAP1 PUSH2 0x138B JUMP JUMPDEST PUSH1 0x40 MLOAD DUP1 SWAP2 SUB SWAP1 LOG1 POP POP JUMP JUMPDEST PUSH0 DUP3 GT DUP1 ISZERO PUSH2 0x848 JUMPI POP PUSH0 DUP2 GT JUMPDEST PUSH2 0x887 JUMPI PUSH1 0x40 MLOAD PUSH32 0x8C379A000000000000000000000000000000000000000000000000000000000 DUP2 MSTORE PUSH1 0x4 ADD PUSH2 0x87E SWAP1 PUSH2 0x136D JUMP JUMPDEST PUSH1 0x40 MLOAD DUP1 SWAP2 SUB SWAP1 REVERT JUMPDEST PUSH1 0x2 SLOAD DUP3 GT ISZERO DUP1 ISZERO PUSH2 0x89B JUMPI POP PUSH1 0x3 SLOAD DUP2 GT ISZERO JUMPDEST PUSH2 0x8DA JUMPI PUSH1 0x40 MLOAD PUSH32 0x8C379A000000000000000000000000000000000000000000000000000000000 DUP2 MSTORE PUSH1 0x4 ADD PUSH2 0x8D1 SWAP1 PUSH2 0x13FC JUMP JUMPDEST PUSH1 0x40 MLOAD DUP1 SWAP2 SUB SWAP1 REVERT JUMPDEST PUSH0 DUP1 SLOAD SWAP1 PUSH2 0x100 EXP SWAP1 DIV PUSH20 0xFFFFFFFFFFFFFFFFFFFFFFFFFFFFFFFFFFFFFFFF AND PUSH20 0xFFFFFFFFFFFFFFFFFFFFFFFFFFFFFFFFFFFFFFFF AND PUSH4 0xA9059CBB CALLER DUP5 PUSH1 0x40 MLOAD DUP4 PUSH4 0xFFFFFFFF AND PUSH1 0xE0 SHL DUP2 MSTORE PUSH1 0x4 ADD PUSH2 0x934 SWAP3 SWAP2 SWAP1 PUSH2 0x121F JUMP JUMPDEST PUSH1 0x20 PUSH1 0x40 MLOAD DUP1 DUP4 SUB DUP2 PUSH0 DUP8 GAS CALL ISZERO DUP1 ISZERO PUSH2 0x950 JUMPI RETURNDATASIZE PUSH0 DUP1 RETURNDATACOPY RETURNDATASIZE PUSH0 REVERT JUMPDEST POP POP POP POP PUSH1 0x40 MLOAD RETURNDATASIZE PUSH1 0x1F NOT PUSH1 0x1F DUP3 ADD AND DUP3 ADD DUP1 PUSH1 0x40 MSTORE POP DUP2 ADD SWAP1 PUSH2 0x974 SWAP2 SWAP1 PUSH2 0x11F4 JUMP JUMPDEST POP PUSH1 0x1 PUSH0 SWAP1 SLOAD SWAP1 PUSH2 0x100 EXP SWAP1 DIV PUSH20 0xFFFFFFFFFFFFFFFFFFFFFFFFFFFFFFFFFFFFFFFF AND PUSH20 0xFFFFFFFFFFFFFFFFFFFFFFFFFFFFFFFFFFFFFFFF AND PUSH4 0xA9059CBB CALLER DUP4 PUSH1 0x40 MLOAD DUP4 PUSH4 0xFFFFFFFF AND PUSH1 0xE0 SHL DUP2 MSTORE PUSH1 0x4 ADD PUSH2 0x9D1 SWAP3 SWAP2 SWAP1 PUSH2 0x121F JUMP JUMPDEST PUSH1 0x20 PUSH1 0x40 MLOAD DUP1 DUP4 SUB DUP2 PUSH0 DUP8 GAS CALL ISZERO DUP1 ISZERO PUSH2 0x9ED JUMPI RETURNDATASIZE PUSH0 DUP1 RETURNDATACOPY RETURNDATASIZE PUSH0 REVERT JUMPDEST POP POP POP POP PUSH1 0x40 MLOAD RETURNDATASIZE PUSH1 0x1F NOT PUSH1 0x1F DUP3 ADD AND DUP3 ADD DUP1 PUSH1 0x40 MSTORE POP DUP2 ADD SWAP1 PUSH2 0xA11 SWAP2 SWAP1 PUSH2 0x11F4 JUMP JUMPDEST POP DUP2 PUSH1 0x2 PUSH0 DUP3 DUP3 SLOAD PUSH2 0xA23 SWAP2 SWAP1 PUSH2 0x1246 JUMP JUMPDEST SWAP3 POP POP DUP2 SWAP1 SSTORE POP DUP1 PUSH1 0x3 PUSH0 DUP3 DUP3 SLOAD PUSH2 0xA3B SWAP2 SWAP1 PUSH2 0x1246 JUMP JUMPDEST SWAP3 POP POP DUP2 SWAP1 SSTORE POP PUSH32 0x6F0F96292AE0038C04F9B6BAB30F185D9CA02C471D0983F563F2A4F674AEF137 DUP3 DUP3 PUSH1 0x40 MLOAD PUSH2 0xA73 SWAP3 SWAP2 SWAP1 PUSH2 0x138B JUMP JUMPDEST PUSH1 0x40 MLOAD DUP1 SWAP2 SUB SWAP1 LOG1 POP POP JUMP JUMPDEST PUSH1 0x2 SLOAD DUP2 JUMP JUMPDEST PUSH0 DUP2 GT PUSH2 0xAC7 JUMPI PUSH1 0x40 MLOAD PUSH32 0x8C379A000000000000000000000000000000000000000000000000000000000 DUP2 MSTORE PUSH1 0x4 ADD PUSH2 0xABE SWAP1 PUSH2 0x1043 JUMP JUMPDEST PUSH1 0x40 MLOAD DUP1 SWAP2 SUB SWAP1 REVERT JUMPDEST PUSH0 PUSH1 0x2 SLOAD GT DUP1 ISZERO PUSH2 0xAD9 JUMPI POP PUSH0 PUSH1 0x3 SLOAD GT JUMPDEST PUSH2 0xB18 JUMPI PUSH1 0x40 MLOAD PUSH32 0x8C379A000000000000000000000000000000000000000000000000000000000 DUP2 MSTORE PUSH1 0x4 ADD PUSH2 0xB0F SWAP1 PUSH2 0x10AB JUMP JUMPDEST PUSH1 0x40 MLOAD DUP1 SWAP2 SUB SWAP1 REVERT JUMPDEST PUSH0 DUP2 PUSH1 0x2 SLOAD PUSH2 0xB27 SWAP2 SWAP1 PUSH2 0x10C9 JUMP JUMPDEST DUP3 PUSH1 0x3 SLOAD PUSH2 0xB35 SWAP2 SWAP1 PUSH2 0xF5B JUMP JUMPDEST PUSH2 0xB3F SWAP2 SWAP1 PUSH2 0xFC9 JUMP JUMPDEST SWAP1 POP PUSH0 DUP2 GT PUSH2 0xB83 JUMPI PUSH1 0x40 MLOAD PUSH32 0x8C379A000000000000000000000000000000000000000000000000000000000 DUP2 MSTORE PUSH1 0x4 ADD PUSH2 0xB7A SWAP1 PUSH2 0x116C JUMP JUMPDEST PUSH1 0x40 MLOAD DUP1 SWAP2 SUB SWAP1 REVERT JUMPDEST PUSH0 DUP1 SLOAD SWAP1 PUSH2 0x100 EXP SWAP1 DIV PUSH20 0xFFFFFFFFFFFFFFFFFFFFFFFFFFFFFFFFFFFFFFFF AND PUSH20 0xFFFFFFFFFFFFFFFFFFFFFFFFFFFFFFFFFFFFFFFF AND PUSH4 0x23B872DD CALLER ADDRESS DUP6 PUSH1 0x40 MLOAD DUP5 PUSH4 0xFFFFFFFF AND PUSH1 0xE0 SHL DUP2 MSTORE PUSH1 0x4 ADD PUSH2 0xBDF SWAP4 SWAP3 SWAP2 SWAP1 PUSH2 0x118A JUMP JUMPDEST PUSH1 0x20 PUSH1 0x40 MLOAD DUP1 DUP4 SUB DUP2 PUSH0 DUP8 GAS CALL ISZERO DUP1 ISZERO PUSH2 0xBFB JUMPI RETURNDATASIZE PUSH0 DUP1 RETURNDATACOPY RETURNDATASIZE PUSH0 REVERT JUMPDEST POP POP POP POP PUSH1 0x40 MLOAD RETURNDATASIZE PUSH1 0x1F NOT PUSH1 0x1F DUP3 ADD AND DUP3 ADD DUP1 PUSH1 0x40 MSTORE POP DUP2 ADD SWAP1 PUSH2 0xC1F SWAP2 SWAP1 PUSH2 0x11F4 JUMP JUMPDEST POP PUSH1 0x1 PUSH0 SWAP1 SLOAD SWAP1 PUSH2 0x100 EXP SWAP1 DIV PUSH20 0xFFFFFFFFFFFFFFFFFFFFFFFFFFFFFFFFFFFFFFFF AND PUSH20 0xFFFFFFFFFFFFFFFFFFFFFFFFFFFFFFFFFFFFFFFF AND PUSH4 0xA9059CBB CALLER DUP4 PUSH1 0x40 MLOAD DUP4 PUSH4 0xFFFFFFFF AND PUSH1 0xE0 SHL DUP2 MSTORE PUSH1 0x4 ADD PUSH2 0xC7C SWAP3 SWAP2 SWAP1 PUSH2 0x121F JUMP JUMPDEST PUSH1 0x20 PUSH1 0x40 MLOAD DUP1 DUP4 SUB DUP2 PUSH0 DUP8 GAS CALL ISZERO DUP1 ISZERO PUSH2 0xC98 JUMPI RETURNDATASIZE PUSH0 DUP1 RETURNDATACOPY RETURNDATASIZE PUSH0 REVERT JUMPDEST POP POP POP POP PUSH1 0x40 MLOAD RETURNDATASIZE PUSH1 0x1F NOT PUSH1 0x1F DUP3 ADD AND DUP3 ADD DUP1 PUSH1 0x40 MSTORE POP DUP2 ADD SWAP1 PUSH2 0xCBC SWAP2 SWAP1 PUSH2 0x11F4 JUMP JUMPDEST POP DUP2 PUSH1 0x2 PUSH0 DUP3 DUP3 SLOAD PUSH2 0xCCE SWAP2 SWAP1 PUSH2 0x10C9 JUMP JUMPDEST SWAP3 POP POP DUP2 SWAP1 SSTORE POP DUP1 PUSH1 0x3 PUSH0 DUP3 DUP3 SLOAD PUSH2 0xCE6 SWAP2 SWAP1 PUSH2 0x1246 JUMP JUMPDEST SWAP3 POP POP DUP2 SWAP1 SSTORE POP CALLER PUSH20 0xFFFFFFFFFFFFFFFFFFFFFFFFFFFFFFFFFFFFFFFF AND PUSH32 0x5FE997F80DA1632E1237BE5A3F6B702CFA91E654659E831B2C723BC5226B50F4 DUP4 DUP4 PUSH1 0x40 MLOAD PUSH2 0xD35 SWAP3 SWAP2 SWAP1 PUSH2 0x1464 JUMP JUMPDEST PUSH1 0x40 MLOAD DUP1 SWAP2 SUB SWAP1 LOG2 POP POP JUMP JUMPDEST PUSH0 PUSH20 0xFFFFFFFFFFFFFFFFFFFFFFFFFFFFFFFFFFFFFFFF DUP3 AND SWAP1 POP SWAP2 SWAP1 POP JUMP JUMPDEST PUSH0 PUSH2 0xD6A DUP3 PUSH2 0xD41 JUMP JUMPDEST SWAP1 POP SWAP2 SWAP1 POP JUMP JUMPDEST PUSH2 0xD7A DUP2 PUSH2 0xD60 JUMP JUMPDEST DUP3 MSTORE POP POP JUMP JUMPDEST PUSH0 PUSH1 0x20 DUP3 ADD SWAP1 POP PUSH2 0xD93 PUSH0 DUP4 ADD DUP5 PUSH2 0xD71 JUMP JUMPDEST SWAP3 SWAP2 POP POP JUMP JUMPDEST PUSH0 DUP2 SWAP1 POP SWAP2 SWAP1 POP JUMP JUMPDEST PUSH2 0xDAB DUP2 PUSH2 0xD99 JUMP JUMPDEST DUP3 MSTORE POP POP JUMP JUMPDEST PUSH0 PUSH1 0x20 DUP3 ADD SWAP1 POP PUSH2 0xDC4 PUSH0 DUP4 ADD DUP5 PUSH2 0xDA2 JUMP JUMPDEST SWAP3 SWAP2 POP POP JUMP JUMPDEST PUSH0 DUP1 REVERT JUMPDEST PUSH2 0xDD7 DUP2 PUSH2 0xD60 JUMP JUMPDEST DUP2 EQ PUSH2 0xDE1 JUMPI PUSH0 DUP1 REVERT JUMPDEST POP JUMP JUMPDEST PUSH0 DUP2 CALLDATALOAD SWAP1 POP PUSH2 0xDF2 DUP2 PUSH2 0xDCE JUMP JUMPDEST SWAP3 SWAP2 POP POP JUMP JUMPDEST PUSH0 PUSH1 0x20 DUP3 DUP5 SUB SLT ISZERO PUSH2 0xE0D JUMPI PUSH2 0xE0C PUSH2 0xDCA JUMP JUMPDEST JUMPDEST PUSH0 PUSH2 0xE1A DUP5 DUP3 DUP6 ADD PUSH2 0xDE4 JUMP JUMPDEST SWAP2 POP POP SWAP3 SWAP2 POP POP JUMP JUMPDEST PUSH2 0xE2C DUP2 PUSH2 0xD99 JUMP JUMPDEST DUP2 EQ PUSH2 0xE36 JUMPI PUSH0 DUP1 REVERT JUMPDEST POP JUMP JUMPDEST PUSH0 DUP2 CALLDATALOAD SWAP1 POP PUSH2 0xE47 DUP2 PUSH2 0xE23 JUMP JUMPDEST SWAP3 SWAP2 POP POP JUMP JUMPDEST PUSH0 PUSH1 0x20 DUP3 DUP5 SUB SLT ISZERO PUSH2 0xE62 JUMPI PUSH2 0xE61 PUSH2 0xDCA JUMP JUMPDEST JUMPDEST PUSH0 PUSH2 0xE6F DUP5 DUP3 DUP6 ADD PUSH2 0xE39 JUMP JUMPDEST SWAP2 POP POP SWAP3 SWAP2 POP POP JUMP JUMPDEST PUSH0 DUP1 PUSH1 0x40 DUP4 DUP6 SUB SLT ISZERO PUSH2 0xE8E JUMPI PUSH2 0xE8D PUSH2 0xDCA JUMP JUMPDEST JUMPDEST PUSH0 PUSH2 0xE9B DUP6 DUP3 DUP7 ADD PUSH2 0xE39 JUMP JUMPDEST SWAP3 POP POP PUSH1 0x20 PUSH2 0xEAC DUP6 DUP3 DUP7 ADD PUSH2 0xE39 JUMP JUMPDEST SWAP2 POP POP SWAP3 POP SWAP3 SWAP1 POP JUMP JUMPDEST PUSH0 DUP3 DUP3 MSTORE PUSH1 0x20 DUP3 ADD SWAP1 POP SWAP3 SWAP2 POP POP JUMP JUMPDEST PUSH32 0x496E76616C696420746F6B656E20616464726573730000000000000000000000 PUSH0 DUP3 ADD MSTORE POP JUMP JUMPDEST PUSH0 PUSH2 0xEFA PUSH1 0x15 DUP4 PUSH2 0xEB6 JUMP JUMPDEST SWAP2 POP PUSH2 0xF05 DUP3 PUSH2 0xEC6 JUMP JUMPDEST PUSH1 0x20 DUP3 ADD SWAP1 POP SWAP2 SWAP1 POP JUMP JUMPDEST PUSH0 PUSH1 0x20 DUP3 ADD SWAP1 POP DUP2 DUP2 SUB PUSH0 DUP4 ADD MSTORE PUSH2 0xF27 DUP2 PUSH2 0xEEE JUMP JUMPDEST SWAP1 POP SWAP2 SWAP1 POP JUMP JUMPDEST PUSH32 0x4E487B7100000000000000000000000000000000000000000000000000000000 PUSH0 MSTORE PUSH1 0x11 PUSH1 0x4 MSTORE PUSH1 0x24 PUSH0 REVERT JUMPDEST PUSH0 PUSH2 0xF65 DUP3 PUSH2 0xD99 JUMP JUMPDEST SWAP2 POP PUSH2 0xF70 DUP4 PUSH2 0xD99 JUMP JUMPDEST SWAP3 POP DUP3 DUP3 MUL PUSH2 0xF7E DUP2 PUSH2 0xD99 JUMP JUMPDEST SWAP2 POP DUP3 DUP3 DIV DUP5 EQ DUP4 ISZERO OR PUSH2 0xF95 JUMPI PUSH2 0xF94 PUSH2 0xF2E JUMP JUMPDEST JUMPDEST POP SWAP3 SWAP2 POP POP JUMP JUMPDEST PUSH32 0x4E487B7100000000000000000000000000000000000000000000000000000000 PUSH0 MSTORE PUSH1 0x12 PUSH1 0x4 MSTORE PUSH1 0x24 PUSH0 REVERT JUMPDEST PUSH0 PUSH2 0xFD3 DUP3 PUSH2 0xD99 JUMP JUMPDEST SWAP2 POP PUSH2 0xFDE DUP4 PUSH2 0xD99 JUMP JUMPDEST SWAP3 POP DUP3 PUSH2 0xFEE JUMPI PUSH2 0xFED PUSH2 0xF9C JUMP JUMPDEST JUMPDEST DUP3 DUP3 DIV SWAP1 POP SWAP3 SWAP2 POP POP JUMP JUMPDEST PUSH32 0x416D6F756E74206D7573742062652067726561746572207468616E207A65726F PUSH0 DUP3 ADD MSTORE POP JUMP JUMPDEST PUSH0 PUSH2 0x102D PUSH1 0x20 DUP4 PUSH2 0xEB6 JUMP JUMPDEST SWAP2 POP PUSH2 0x1038 DUP3 PUSH2 0xFF9 JUMP JUMPDEST PUSH1 0x20 DUP3 ADD SWAP1 POP SWAP2 SWAP1 POP JUMP JUMPDEST PUSH0 PUSH1 0x20 DUP3 ADD SWAP1 POP DUP2 DUP2 SUB PUSH0 DUP4 ADD MSTORE PUSH2 0x105A DUP2 PUSH2 0x1021 JUMP JUMPDEST SWAP1 POP SWAP2 SWAP1 POP JUMP JUMPDEST PUSH32 0x496E73756666696369656E74206C697175696469747900000000000000000000 PUSH0 DUP3 ADD MSTORE POP JUMP JUMPDEST PUSH0 PUSH2 0x1095 PUSH1 0x16 DUP4 PUSH2 0xEB6 JUMP JUMPDEST SWAP2 POP PUSH2 0x10A0 DUP3 PUSH2 0x1061 JUMP JUMPDEST PUSH1 0x20 DUP3 ADD SWAP1 POP SWAP2 SWAP1 POP JUMP JUMPDEST PUSH0 PUSH1 0x20 DUP3 ADD SWAP1 POP DUP2 DUP2 SUB PUSH0 DUP4 ADD MSTORE PUSH2 0x10C2 DUP2 PUSH2 0x1089 JUMP JUMPDEST SWAP1 POP SWAP2 SWAP1 POP JUMP JUMPDEST PUSH0 PUSH2 0x10D3 DUP3 PUSH2 0xD99 JUMP JUMPDEST SWAP2 POP PUSH2 0x10DE DUP4 PUSH2 0xD99 JUMP JUMPDEST SWAP3 POP DUP3 DUP3 ADD SWAP1 POP DUP1 DUP3 GT ISZERO PUSH2 0x10F6 JUMPI PUSH2 0x10F5 PUSH2 0xF2E JUMP JUMPDEST JUMPDEST SWAP3 SWAP2 POP POP JUMP JUMPDEST PUSH32 0x4F757470757420616D6F756E74206D7573742062652067726561746572207468 PUSH0 DUP3 ADD MSTORE PUSH32 0x616E207A65726F00000000000000000000000000000000000000000000000000 PUSH1 0x20 DUP3 ADD MSTORE POP JUMP JUMPDEST PUSH0 PUSH2 0x1156 PUSH1 0x27 DUP4 PUSH2 0xEB6 JUMP JUMPDEST SWAP2 POP PUSH2 0x1161 DUP3 PUSH2 0x10FC JUMP JUMPDEST PUSH1 0x40 DUP3 ADD SWAP1 POP SWAP2 SWAP1 POP JUMP JUMPDEST PUSH0 PUSH1 0x20 DUP3 ADD SWAP1 POP DUP2 DUP2 SUB PUSH0 DUP4 ADD MSTORE PUSH2 0x1183 DUP2 PUSH2 0x114A JUMP JUMPDEST SWAP1 POP SWAP2 SWAP1 POP JUMP JUMPDEST PUSH0 PUSH1 0x60 DUP3 ADD SWAP1 POP PUSH2 0x119D PUSH0 DUP4 ADD DUP7 PUSH2 0xD71 JUMP JUMPDEST PUSH2 0x11AA PUSH1 0x20 DUP4 ADD DUP6 PUSH2 0xD71 JUMP JUMPDEST PUSH2 0x11B7 PUSH1 0x40 DUP4 ADD DUP5 PUSH2 0xDA2 JUMP JUMPDEST SWAP5 SWAP4 POP POP POP POP JUMP JUMPDEST PUSH0 DUP2 ISZERO ISZERO SWAP1 POP SWAP2 SWAP1 POP JUMP JUMPDEST PUSH2 0x11D3 DUP2 PUSH2 0x11BF JUMP JUMPDEST DUP2 EQ PUSH2 0x11DD JUMPI PUSH0 DUP1 REVERT JUMPDEST POP JUMP JUMPDEST PUSH0 DUP2 MLOAD SWAP1 POP PUSH2 0x11EE DUP2 PUSH2 0x11CA JUMP JUMPDEST SWAP3 SWAP2 POP POP JUMP JUMPDEST PUSH0 PUSH1 0x20 DUP3 DUP5 SUB SLT ISZERO PUSH2 0x1209 JUMPI PUSH2 0x1208 PUSH2 0xDCA JUMP JUMPDEST JUMPDEST PUSH0 PUSH2 0x1216 DUP5 DUP3 DUP6 ADD PUSH2 0x11E0 JUMP JUMPDEST SWAP2 POP POP SWAP3 SWAP2 POP POP JUMP JUMPDEST PUSH0 PUSH1 0x40 DUP3 ADD SWAP1 POP PUSH2 0x1232 PUSH0 DUP4 ADD DUP6 PUSH2 0xD71 JUMP JUMPDEST PUSH2 0x123F PUSH1 0x20 DUP4 ADD DUP5 PUSH2 0xDA2 JUMP JUMPDEST SWAP4 SWAP3 POP POP POP JUMP JUMPDEST PUSH0 PUSH2 0x1250 DUP3 PUSH2 0xD99 JUMP JUMPDEST SWAP2 POP PUSH2 0x125B DUP4 PUSH2 0xD99 JUMP JUMPDEST SWAP3 POP DUP3 DUP3 SUB SWAP1 POP DUP2 DUP2 GT ISZERO PUSH2 0x1273 JUMPI PUSH2 0x1272 PUSH2 0xF2E JUMP JUMPDEST JUMPDEST SWAP3 SWAP2 POP POP JUMP JUMPDEST PUSH32 0x422D3E4100000000000000000000000000000000000000000000000000000000 PUSH0 DUP3 ADD MSTORE POP JUMP JUMPDEST PUSH0 PUSH2 0x12AD PUSH1 0x4 DUP4 PUSH2 0xEB6 JUMP JUMPDEST SWAP2 POP PUSH2 0x12B8 DUP3 PUSH2 0x1279 JUMP JUMPDEST PUSH1 0x20 DUP3 ADD SWAP1 POP SWAP2 SWAP1 POP JUMP JUMPDEST PUSH0 PUSH1 0x60 DUP3 ADD SWAP1 POP PUSH2 0x12D6 PUSH0 DUP4 ADD DUP6 PUSH2 0xDA2 JUMP JUMPDEST PUSH2 0x12E3 PUSH1 0x20 DUP4 ADD DUP5 PUSH2 0xDA2 JUMP JUMPDEST DUP2 DUP2 SUB PUSH1 0x40 DUP4 ADD MSTORE PUSH2 0x12F4 DUP2 PUSH2 0x12A1 JUMP JUMPDEST SWAP1 POP SWAP4 SWAP3 POP POP POP JUMP JUMPDEST PUSH32 0x416D6F756E7473206D7573742062652067726561746572207468616E207A6572 PUSH0 DUP3 ADD MSTORE PUSH32 0x6F00000000000000000000000000000000000000000000000000000000000000 PUSH1 0x20 DUP3 ADD MSTORE POP JUMP JUMPDEST PUSH0 PUSH2 0x1357 PUSH1 0x21 DUP4 PUSH2 0xEB6 JUMP JUMPDEST SWAP2 POP PUSH2 0x1362 DUP3 PUSH2 0x12FD JUMP JUMPDEST PUSH1 0x40 DUP3 ADD SWAP1 POP SWAP2 SWAP1 POP JUMP JUMPDEST PUSH0 PUSH1 0x20 DUP3 ADD SWAP1 POP DUP2 DUP2 SUB PUSH0 DUP4 ADD MSTORE PUSH2 0x1384 DUP2 PUSH2 0x134B JUMP JUMPDEST SWAP1 POP SWAP2 SWAP1 POP JUMP JUMPDEST PUSH0 PUSH1 0x40 DUP3 ADD SWAP1 POP PUSH2 0x139E PUSH0 DUP4 ADD DUP6 PUSH2 0xDA2 JUMP JUMPDEST PUSH2 0x13AB PUSH1 0x20 DUP4 ADD DUP5 PUSH2 0xDA2 JUMP JUMPDEST SWAP4 SWAP3 POP POP POP JUMP JUMPDEST PUSH32 0x496E73756666696369656E742072657365727665730000000000000000000000 PUSH0 DUP3 ADD MSTORE POP JUMP JUMPDEST PUSH0 PUSH2 0x13E6 PUSH1 0x15 DUP4 PUSH2 0xEB6 JUMP JUMPDEST SWAP2 POP PUSH2 0x13F1 DUP3 PUSH2 0x13B2 JUMP JUMPDEST PUSH1 0x20 DUP3 ADD SWAP1 POP SWAP2 SWAP1 POP JUMP JUMPDEST PUSH0 PUSH1 0x20 DUP3 ADD SWAP1 POP DUP2 DUP2 SUB PUSH0 DUP4 ADD MSTORE PUSH2 0x1413 DUP2 PUSH2 0x13DA JUMP JUMPDEST SWAP1 POP SWAP2 SWAP1 POP JUMP JUMPDEST PUSH32 0x412D3E4200000000000000000000000000000000000000000000000000000000 PUSH0 DUP3 ADD MSTORE POP JUMP JUMPDEST PUSH0 PUSH2 0x144E PUSH1 0x4 DUP4 PUSH2 0xEB6 JUMP JUMPDEST SWAP2 POP PUSH2 0x1459 DUP3 PUSH2 0x141A JUMP JUMPDEST PUSH1 0x20 DUP3 ADD SWAP1 POP SWAP2 SWAP1 POP JUMP JUMPDEST PUSH0 PUSH1 0x60 DUP3 ADD SWAP1 POP PUSH2 0x1477 PUSH0 DUP4 ADD DUP6 PUSH2 0xDA2 JUMP JUMPDEST PUSH2 0x1484 PUSH1 0x20 DUP4 ADD DUP5 PUSH2 0xDA2 JUMP JUMPDEST DUP2 DUP2 SUB PUSH1 0x40 DUP4 ADD MSTORE PUSH2 0x1495 DUP2 PUSH2 0x1442 JUMP JUMPDEST SWAP1 POP SWAP4 SWAP3 POP POP POP JUMP INVALID LOG2 PUSH5 0x6970667358 0x22 SLT KECCAK256 0xA9 MSTORE BLOBHASH 0xB6 0xB9 DUP16 BYTE 0xCC DUP14 DUP9 0x26 0x2F PUSH7 0xC4EC3B6638A151 0xEB DUP1 SWAP1 CALLER PUSH13 0x4D4A3D7F6C31CC64736F6C6343 STOP ADDMOD BYTE STOP CALLER "
				},
				"gasEstimates": {
					"creation": {
						"codeDepositCost": "1066400",
						"executionCost": "infinite",
						"totalCost": "infinite"
					},
					"external": {
						"addLiquidity(uint256,uint256)": "infinite",
						"getPrice(address)": "infinite",
						"removeLiquidity(uint256,uint256)": "infinite",
						"reserveA()": "2491",
						"reserveB()": "2448",
						"swapAforB(uint256)": "infinite",
						"swapBforA(uint256)": "infinite",
						"tokenA()": "2506",
						"tokenB()": "2575"
					}
				},
				"methodIdentifiers": {
					"addLiquidity(uint256,uint256)": "9cd441da",
					"getPrice(address)": "41976e09",
					"removeLiquidity(uint256,uint256)": "9d7de6b3",
					"reserveA()": "dc5fa6c5",
					"reserveB()": "19e36f3b",
					"swapAforB(uint256)": "e4f1f70a",
					"swapBforA(uint256)": "8014a7aa",
					"tokenA()": "0fc63d10",
					"tokenB()": "5f64b55b"
				}
			},
			"storageLayout": {
				"storage": [
					{
						"astId": 82,
						"contract": "simpleDEX2.sol:SimpleDEX",
						"label": "tokenA",
						"offset": 0,
						"slot": "0",
						"type": "t_address"
					},
					{
						"astId": 84,
						"contract": "simpleDEX2.sol:SimpleDEX",
						"label": "tokenB",
						"offset": 0,
						"slot": "1",
						"type": "t_address"
					},
					{
						"astId": 86,
						"contract": "simpleDEX2.sol:SimpleDEX",
						"label": "reserveA",
						"offset": 0,
						"slot": "2",
						"type": "t_uint256"
					},
					{
						"astId": 88,
						"contract": "simpleDEX2.sol:SimpleDEX",
						"label": "reserveB",
						"offset": 0,
						"slot": "3",
						"type": "t_uint256"
					}
				],
				"types": {
					"t_address": {
						"encoding": "inplace",
						"label": "address",
						"numberOfBytes": "20"
					},
					"t_uint256": {
						"encoding": "inplace",
						"label": "uint256",
						"numberOfBytes": "32"
					}
				}
			},
			"userdoc": {
				"kind": "user",
				"methods": {},
				"version": 1
			}
		}
	}
}