{
	"subasta3.sol": {
		"Subasta": {
			"abi": [
				{
					"inputs": [],
					"stateMutability": "nonpayable",
					"type": "constructor"
				},
				{
					"anonymous": false,
					"inputs": [
						{
							"indexed": false,
							"internalType": "address",
							"name": "ofertante",
							"type": "address"
						},
						{
							"indexed": false,
							"internalType": "uint256",
							"name": "cantidad",
							"type": "uint256"
						}
					],
					"name": "NuevaOferta",
					"type": "event"
				},
				{
					"anonymous": false,
					"inputs": [
						{
							"indexed": false,
							"internalType": "address",
							"name": "ganador",
							"type": "address"
						},
						{
							"indexed": false,
							"internalType": "uint256",
							"name": "cantidadGanadora",
							"type": "uint256"
						}
					],
					"name": "SubastaFinalizada",
					"type": "event"
				},
				{
					"inputs": [],
					"name": "activa",
					"outputs": [
						{
							"internalType": "bool",
							"name": "",
							"type": "bool"
						}
					],
					"stateMutability": "view",
					"type": "function"
				},
				{
					"inputs": [
						{
							"internalType": "address",
							"name": "",
							"type": "address"
						}
					],
					"name": "depositos",
					"outputs": [
						{
							"internalType": "uint256",
							"name": "",
							"type": "uint256"
						}
					],
					"stateMutability": "view",
					"type": "function"
				},
				{
					"inputs": [],
					"name": "duracionSubasta",
					"outputs": [
						{
							"internalType": "uint256",
							"name": "",
							"type": "uint256"
						}
					],
					"stateMutability": "view",
					"type": "function"
				},
				{
					"inputs": [],
					"name": "mejorOferta",
					"outputs": [
						{
							"internalType": "address",
							"name": "ofertante",
							"type": "address"
						},
						{
							"internalType": "uint256",
							"name": "cantidad",
							"type": "uint256"
						}
					],
					"stateMutability": "view",
					"type": "function"
				},
				{
					"inputs": [],
					"name": "mostrarGanador",
					"outputs": [
						{
							"internalType": "address",
							"name": "ganador",
							"type": "address"
						},
						{
							"internalType": "uint256",
							"name": "cantidadGanadora",
							"type": "uint256"
						}
					],
					"stateMutability": "view",
					"type": "function"
				},
				{
					"inputs": [],
					"name": "ofertaInicial",
					"outputs": [
						{
							"internalType": "uint256",
							"name": "",
							"type": "uint256"
						}
					],
					"stateMutability": "view",
					"type": "function"
				},
				{
					"inputs": [],
					"name": "ofertar",
					"outputs": [],
					"stateMutability": "payable",
					"type": "function"
				},
				{
					"inputs": [],
					"name": "porcentajeIncremento",
					"outputs": [
						{
							"internalType": "uint256",
							"name": "",
							"type": "uint256"
						}
					],
					"stateMutability": "view",
					"type": "function"
				},
				{
					"inputs": [],
					"name": "subastador",
					"outputs": [
						{
							"internalType": "address",
							"name": "",
							"type": "address"
						}
					],
					"stateMutability": "view",
					"type": "function"
				},
				{
					"inputs": [],
					"name": "tiempoFinal",
					"outputs": [
						{
							"internalType": "uint256",
							"name": "",
							"type": "uint256"
						}
					],
					"stateMutability": "view",
					"type": "function"
				},
				{
					"inputs": [],
					"name": "verificarFinalizacionSubasta",
					"outputs": [],
					"stateMutability": "nonpayable",
					"type": "function"
				}
			],
			"devdoc": {
				"kind": "dev",
				"methods": {},
				"version": 1
			},
			"evm": {
				"assembly": "    /* \"subasta3.sol\":60:2968  contract Subasta {... */\n  mstore(0x40, 0x80)\n    /* \"subasta3.sol\":176:186  10 minutes */\n  0x0258\n    /* \"subasta3.sol\":146:186  uint public duracionSubasta = 10 minutes */\n  0x02\n  sstore\n    /* \"subasta3.sol\":228:229  5 */\n  0x05\n    /* \"subasta3.sol\":193:229  uint public porcentajeIncremento = 5 */\n  0x03\n  sstore\n    /* \"subasta3.sol\":285:289  true */\n  0x01\n    /* \"subasta3.sol\":264:289  bool public activa = true */\n  0x04\n  exp(0x0100, 0x00)\n  dup2\n  sload\n  dup2\n  0xff\n  mul\n  not\n  and\n  swap1\n  dup4\n  iszero\n  iszero\n  mul\n  or\n  swap1\n  sstore\n  pop\n    /* \"subasta3.sol\":324:331  1 ether */\n  0x0de0b6b3a7640000\n    /* \"subasta3.sol\":296:331  uint public ofertaInicial = 1 ether */\n  0x05\n  sstore\n    /* \"subasta3.sol\":634:946  constructor() {... */\n  callvalue\n  dup1\n  iszero\n  tag_1\n  jumpi\n  0x00\n  dup1\n  revert\ntag_1:\n  pop\n    /* \"subasta3.sol\":672:682  msg.sender */\n  caller\n    /* \"subasta3.sol\":659:669  subastador */\n  0x00\n  dup1\n    /* \"subasta3.sol\":659:682  subastador = msg.sender */\n  0x0100\n  exp\n  dup2\n  sload\n  dup2\n  0xffffffffffffffffffffffffffffffffffffffff\n  mul\n  not\n  and\n  swap1\n  dup4\n  0xffffffffffffffffffffffffffffffffffffffff\n  and\n  mul\n  or\n  swap1\n  sstore\n  pop\n    /* \"subasta3.sol\":725:740  duracionSubasta */\n  sload(0x02)\n    /* \"subasta3.sol\":707:722  block.timestamp */\n  timestamp\n    /* \"subasta3.sol\":707:740  block.timestamp + duracionSubasta */\n  tag_4\n  swap2\n  swap1\n  tag_5\n  jump\t// in\ntag_4:\n    /* \"subasta3.sol\":693:704  tiempoFinal */\n  0x01\n    /* \"subasta3.sol\":693:740  tiempoFinal = block.timestamp + duracionSubasta */\n  dup2\n  swap1\n  sstore\n  pop\n    /* \"subasta3.sol\":857:890  Oferta(subastador, ofertaInicial) */\n  mload(0x40)\n  dup1\n  0x40\n  add\n  0x40\n  mstore\n  dup1\n    /* \"subasta3.sol\":864:874  subastador */\n  0x00\n  dup1\n  sload\n  swap1\n  0x0100\n  exp\n  swap1\n  div\n  0xffffffffffffffffffffffffffffffffffffffff\n  and\n    /* \"subasta3.sol\":857:890  Oferta(subastador, ofertaInicial) */\n  0xffffffffffffffffffffffffffffffffffffffff\n  and\n  dup2\n  mstore\n  0x20\n  add\n    /* \"subasta3.sol\":876:889  ofertaInicial */\n  sload(0x05)\n    /* \"subasta3.sol\":857:890  Oferta(subastador, ofertaInicial) */\n  dup2\n  mstore\n  pop\n    /* \"subasta3.sol\":843:854  mejorOferta */\n  0x06\n    /* \"subasta3.sol\":843:890  mejorOferta = Oferta(subastador, ofertaInicial) */\n  0x00\n  dup3\n  add\n  mload\n  dup2\n  0x00\n  add\n  exp(0x0100, 0x00)\n  dup2\n  sload\n  dup2\n  0xffffffffffffffffffffffffffffffffffffffff\n  mul\n  not\n  and\n  swap1\n  dup4\n  0xffffffffffffffffffffffffffffffffffffffff\n  and\n  mul\n  or\n  swap1\n  sstore\n  pop\n  0x20\n  dup3\n  add\n  mload\n  dup2\n  0x01\n  add\n  sstore\n  swap1\n  pop\n  pop\n    /* \"subasta3.sol\":925:938  ofertaInicial */\n  sload(0x05)\n    /* \"subasta3.sol\":901:910  depositos */\n  0x08\n    /* \"subasta3.sol\":901:922  depositos[subastador] */\n  0x00\n    /* \"subasta3.sol\":911:921  subastador */\n  dup1\n  0x00\n  swap1\n  sload\n  swap1\n  0x0100\n  exp\n  swap1\n  div\n  0xffffffffffffffffffffffffffffffffffffffff\n  and\n    /* \"subasta3.sol\":901:922  depositos[subastador] */\n  0xffffffffffffffffffffffffffffffffffffffff\n  and\n  0xffffffffffffffffffffffffffffffffffffffff\n  and\n  dup2\n  mstore\n  0x20\n  add\n  swap1\n  dup2\n  mstore\n  0x20\n  add\n  0x00\n  keccak256\n    /* \"subasta3.sol\":901:938  depositos[subastador] = ofertaInicial */\n  dup2\n  swap1\n  sstore\n  pop\n    /* \"subasta3.sol\":60:2968  contract Subasta {... */\n  jump(tag_6)\n    /* \"#utility.yul\":7:84   */\ntag_7:\n    /* \"#utility.yul\":44:51   */\n  0x00\n    /* \"#utility.yul\":73:78   */\n  dup2\n    /* \"#utility.yul\":62:78   */\n  swap1\n  pop\n    /* \"#utility.yul\":7:84   */\n  swap2\n  swap1\n  pop\n  jump\t// out\n    /* \"#utility.yul\":90:270   */\ntag_8:\n    /* \"#utility.yul\":138:215   */\n  0x4e487b7100000000000000000000000000000000000000000000000000000000\n    /* \"#utility.yul\":135:136   */\n  0x00\n    /* \"#utility.yul\":128:216   */\n  mstore\n    /* \"#utility.yul\":235:239   */\n  0x11\n    /* \"#utility.yul\":232:233   */\n  0x04\n    /* \"#utility.yul\":225:240   */\n  mstore\n    /* \"#utility.yul\":259:263   */\n  0x24\n    /* \"#utility.yul\":256:257   */\n  0x00\n    /* \"#utility.yul\":249:264   */\n  revert\n    /* \"#utility.yul\":276:467   */\ntag_5:\n    /* \"#utility.yul\":316:319   */\n  0x00\n    /* \"#utility.yul\":335:355   */\n  tag_13\n    /* \"#utility.yul\":353:354   */\n  dup3\n    /* \"#utility.yul\":335:355   */\n  tag_7\n  jump\t// in\ntag_13:\n    /* \"#utility.yul\":330:355   */\n  swap2\n  pop\n    /* \"#utility.yul\":369:389   */\n  tag_14\n    /* \"#utility.yul\":387:388   */\n  dup4\n    /* \"#utility.yul\":369:389   */\n  tag_7\n  jump\t// in\ntag_14:\n    /* \"#utility.yul\":364:389   */\n  swap3\n  pop\n    /* \"#utility.yul\":412:413   */\n  dup3\n    /* \"#utility.yul\":409:410   */\n  dup3\n    /* \"#utility.yul\":405:414   */\n  add\n    /* \"#utility.yul\":398:414   */\n  swap1\n  pop\n    /* \"#utility.yul\":433:436   */\n  dup1\n    /* \"#utility.yul\":430:431   */\n  dup3\n    /* \"#utility.yul\":427:437   */\n  gt\n    /* \"#utility.yul\":424:460   */\n  iszero\n  tag_15\n  jumpi\n    /* \"#utility.yul\":440:458   */\n  tag_16\n  tag_8\n  jump\t// in\ntag_16:\n    /* \"#utility.yul\":424:460   */\ntag_15:\n    /* \"#utility.yul\":276:467   */\n  swap3\n  swap2\n  pop\n  pop\n  jump\t// out\n    /* \"subasta3.sol\":60:2968  contract Subasta {... */\ntag_6:\n  dataSize(sub_0)\n  dup1\n  dataOffset(sub_0)\n  0x00\n  codecopy\n  0x00\n  return\nstop\n\nsub_0: assembly {\n        /* \"subasta3.sol\":60:2968  contract Subasta {... */\n      mstore(0x40, 0x80)\n      jumpi(tag_1, lt(calldatasize, 0x04))\n      shr(0xe0, calldataload(0x00))\n      dup1\n      0x753dcaeb\n      gt\n      tag_13\n      jumpi\n      dup1\n      0x753dcaeb\n      eq\n      tag_7\n      jumpi\n      dup1\n      0x8e3df72e\n      eq\n      tag_8\n      jumpi\n      dup1\n      0xacfc9f98\n      eq\n      tag_9\n      jumpi\n      dup1\n      0xc63049f8\n      eq\n      tag_10\n      jumpi\n      dup1\n      0xcc14e31f\n      eq\n      tag_11\n      jumpi\n      dup1\n      0xd1d7e96c\n      eq\n      tag_12\n      jumpi\n      jump(tag_1)\n    tag_13:\n      dup1\n      0x2c5e5471\n      eq\n      tag_2\n      jumpi\n      dup1\n      0x3dfa138d\n      eq\n      tag_3\n      jumpi\n      dup1\n      0x3ec059d7\n      eq\n      tag_4\n      jumpi\n      dup1\n      0x664e62b9\n      eq\n      tag_5\n      jumpi\n      dup1\n      0x71ea6d33\n      eq\n      tag_6\n      jumpi\n    tag_1:\n      0x00\n      dup1\n      revert\n        /* \"subasta3.sol\":264:289  bool public activa = true */\n    tag_2:\n      callvalue\n      dup1\n      iszero\n      tag_14\n      jumpi\n      0x00\n      dup1\n      revert\n    tag_14:\n      pop\n      tag_15\n      tag_16\n      jump\t// in\n    tag_15:\n      mload(0x40)\n      tag_17\n      swap2\n      swap1\n      tag_18\n      jump\t// in\n    tag_17:\n      mload(0x40)\n      dup1\n      swap2\n      sub\n      swap1\n      return\n        /* \"subasta3.sol\":84:109  address public subastador */\n    tag_3:\n      callvalue\n      dup1\n      iszero\n      tag_19\n      jumpi\n      0x00\n      dup1\n      revert\n    tag_19:\n      pop\n      tag_20\n      tag_21\n      jump\t// in\n    tag_20:\n      mload(0x40)\n      tag_22\n      swap2\n      swap1\n      tag_23\n      jump\t// in\n    tag_22:\n      mload(0x40)\n      dup1\n      swap2\n      sub\n      swap1\n      return\n        /* \"subasta3.sol\":1108:2183  function ofertar() external payable soloDuranteSubastaActiva {... */\n    tag_4:\n      tag_24\n      tag_25\n      jump\t// in\n    tag_24:\n      stop\n        /* \"subasta3.sol\":454:495  mapping(address => uint) public depositos */\n    tag_5:\n      callvalue\n      dup1\n      iszero\n      tag_26\n      jumpi\n      0x00\n      dup1\n      revert\n    tag_26:\n      pop\n      tag_27\n      0x04\n      dup1\n      calldatasize\n      sub\n      dup2\n      add\n      swap1\n      tag_28\n      swap2\n      swap1\n      tag_29\n      jump\t// in\n    tag_28:\n      tag_30\n      jump\t// in\n    tag_27:\n      mload(0x40)\n      tag_31\n      swap2\n      swap1\n      tag_32\n      jump\t// in\n    tag_31:\n      mload(0x40)\n      dup1\n      swap2\n      sub\n      swap1\n      return\n        /* \"subasta3.sol\":296:331  uint public ofertaInicial = 1 ether */\n    tag_6:\n      callvalue\n      dup1\n      iszero\n      tag_33\n      jumpi\n      0x00\n      dup1\n      revert\n    tag_33:\n      pop\n      tag_34\n      tag_35\n      jump\t// in\n    tag_34:\n      mload(0x40)\n      tag_36\n      swap2\n      swap1\n      tag_32\n      jump\t// in\n    tag_36:\n      mload(0x40)\n      dup1\n      swap2\n      sub\n      swap1\n      return\n        /* \"subasta3.sol\":2719:2965  function mostrarGanador() external view returns (address ganador, uint cantidadGanadora) {... */\n    tag_7:\n      callvalue\n      dup1\n      iszero\n      tag_37\n      jumpi\n      0x00\n      dup1\n      revert\n    tag_37:\n      pop\n      tag_38\n      tag_39\n      jump\t// in\n    tag_38:\n      mload(0x40)\n      tag_40\n      swap3\n      swap2\n      swap1\n      tag_41\n      jump\t// in\n    tag_40:\n      mload(0x40)\n      dup1\n      swap2\n      sub\n      swap1\n      return\n        /* \"subasta3.sol\":2191:2456  function verificarFinalizacionSubasta() external {... */\n    tag_8:\n      callvalue\n      dup1\n      iszero\n      tag_42\n      jumpi\n      0x00\n      dup1\n      revert\n    tag_42:\n      pop\n      tag_43\n      tag_44\n      jump\t// in\n    tag_43:\n      stop\n        /* \"subasta3.sol\":422:447  Oferta public mejorOferta */\n    tag_9:\n      callvalue\n      dup1\n      iszero\n      tag_45\n      jumpi\n      0x00\n      dup1\n      revert\n    tag_45:\n      pop\n      tag_46\n      tag_47\n      jump\t// in\n    tag_46:\n      mload(0x40)\n      tag_48\n      swap3\n      swap2\n      swap1\n      tag_41\n      jump\t// in\n    tag_48:\n      mload(0x40)\n      dup1\n      swap2\n      sub\n      swap1\n      return\n        /* \"subasta3.sol\":116:139  uint public tiempoFinal */\n    tag_10:\n      callvalue\n      dup1\n      iszero\n      tag_49\n      jumpi\n      0x00\n      dup1\n      revert\n    tag_49:\n      pop\n      tag_50\n      tag_51\n      jump\t// in\n    tag_50:\n      mload(0x40)\n      tag_52\n      swap2\n      swap1\n      tag_32\n      jump\t// in\n    tag_52:\n      mload(0x40)\n      dup1\n      swap2\n      sub\n      swap1\n      return\n        /* \"subasta3.sol\":193:229  uint public porcentajeIncremento = 5 */\n    tag_11:\n      callvalue\n      dup1\n      iszero\n      tag_53\n      jumpi\n      0x00\n      dup1\n      revert\n    tag_53:\n      pop\n      tag_54\n      tag_55\n      jump\t// in\n    tag_54:\n      mload(0x40)\n      tag_56\n      swap2\n      swap1\n      tag_32\n      jump\t// in\n    tag_56:\n      mload(0x40)\n      dup1\n      swap2\n      sub\n      swap1\n      return\n        /* \"subasta3.sol\":146:186  uint public duracionSubasta = 10 minutes */\n    tag_12:\n      callvalue\n      dup1\n      iszero\n      tag_57\n      jumpi\n      0x00\n      dup1\n      revert\n    tag_57:\n      pop\n      tag_58\n      tag_59\n      jump\t// in\n    tag_58:\n      mload(0x40)\n      tag_60\n      swap2\n      swap1\n      tag_32\n      jump\t// in\n    tag_60:\n      mload(0x40)\n      dup1\n      swap2\n      sub\n      swap1\n      return\n        /* \"subasta3.sol\":264:289  bool public activa = true */\n    tag_16:\n      0x04\n      0x00\n      swap1\n      sload\n      swap1\n      0x0100\n      exp\n      swap1\n      div\n      0xff\n      and\n      dup2\n      jump\t// out\n        /* \"subasta3.sol\":84:109  address public subastador */\n    tag_21:\n      0x00\n      dup1\n      sload\n      swap1\n      0x0100\n      exp\n      swap1\n      div\n      0xffffffffffffffffffffffffffffffffffffffff\n      and\n      dup2\n      jump\t// out\n        /* \"subasta3.sol\":1108:2183  function ofertar() external payable soloDuranteSubastaActiva {... */\n    tag_25:\n        /* \"subasta3.sol\":1009:1015  activa */\n      0x04\n      0x00\n      swap1\n      sload\n      swap1\n      0x0100\n      exp\n      swap1\n      div\n      0xff\n      and\n        /* \"subasta3.sol\":1009:1048  activa && block.timestamp < tiempoFinal */\n      dup1\n      iszero\n      tag_62\n      jumpi\n      pop\n        /* \"subasta3.sol\":1037:1048  tiempoFinal */\n      sload(0x01)\n        /* \"subasta3.sol\":1019:1034  block.timestamp */\n      timestamp\n        /* \"subasta3.sol\":1019:1048  block.timestamp < tiempoFinal */\n      lt\n        /* \"subasta3.sol\":1009:1048  activa && block.timestamp < tiempoFinal */\n    tag_62:\n        /* \"subasta3.sol\":1001:1080  require(activa && block.timestamp < tiempoFinal, \"La subasta ya ha finalizado\") */\n      tag_63\n      jumpi\n      mload(0x40)\n      0x08c379a000000000000000000000000000000000000000000000000000000000\n      dup2\n      mstore\n      0x04\n      add\n      tag_64\n      swap1\n      tag_65\n      jump\t// in\n    tag_64:\n      mload(0x40)\n      dup1\n      swap2\n      sub\n      swap1\n      revert\n    tag_63:\n        /* \"subasta3.sol\":1180:1196  uint montoMinimo */\n      0x00\n        /* \"subasta3.sol\":1269:1272  100 */\n      0x64\n        /* \"subasta3.sol\":1246:1266  porcentajeIncremento */\n      sload(0x03)\n        /* \"subasta3.sol\":1223:1234  mejorOferta */\n      0x06\n        /* \"subasta3.sol\":1223:1243  mejorOferta.cantidad */\n      0x01\n      add\n      sload\n        /* \"subasta3.sol\":1223:1266  mejorOferta.cantidad * porcentajeIncremento */\n      tag_67\n      swap2\n      swap1\n      tag_68\n      jump\t// in\n    tag_67:\n        /* \"subasta3.sol\":1223:1272  mejorOferta.cantidad * porcentajeIncremento / 100 */\n      tag_69\n      swap2\n      swap1\n      tag_70\n      jump\t// in\n    tag_69:\n        /* \"subasta3.sol\":1199:1210  mejorOferta */\n      0x06\n        /* \"subasta3.sol\":1199:1219  mejorOferta.cantidad */\n      0x01\n      add\n      sload\n        /* \"subasta3.sol\":1199:1273  mejorOferta.cantidad + (mejorOferta.cantidad * porcentajeIncremento / 100) */\n      tag_71\n      swap2\n      swap1\n      tag_72\n      jump\t// in\n    tag_71:\n        /* \"subasta3.sol\":1180:1273  uint montoMinimo = mejorOferta.cantidad + (mejorOferta.cantidad * porcentajeIncremento / 100) */\n      swap1\n      pop\n        /* \"subasta3.sol\":1385:1396  montoMinimo */\n      dup1\n        /* \"subasta3.sol\":1373:1382  msg.value */\n      callvalue\n        /* \"subasta3.sol\":1373:1396  msg.value > montoMinimo */\n      gt\n        /* \"subasta3.sol\":1365:1458  require(msg.value > montoMinimo, \"La oferta debe superar en al menos un 5% la oferta actual\") */\n      tag_73\n      jumpi\n      mload(0x40)\n      0x08c379a000000000000000000000000000000000000000000000000000000000\n      dup2\n      mstore\n      0x04\n      add\n      tag_74\n      swap1\n      tag_75\n      jump\t// in\n    tag_74:\n      mload(0x40)\n      dup1\n      swap2\n      sub\n      swap1\n      revert\n    tag_73:\n        /* \"subasta3.sol\":1560:1570  subastador */\n      0x00\n      dup1\n      sload\n      swap1\n      0x0100\n      exp\n      swap1\n      div\n      0xffffffffffffffffffffffffffffffffffffffff\n      and\n        /* \"subasta3.sol\":1535:1570  mejorOferta.ofertante != subastador */\n      0xffffffffffffffffffffffffffffffffffffffff\n      and\n        /* \"subasta3.sol\":1535:1546  mejorOferta */\n      0x06\n        /* \"subasta3.sol\":1535:1556  mejorOferta.ofertante */\n      0x00\n      add\n      0x00\n      swap1\n      sload\n      swap1\n      0x0100\n      exp\n      swap1\n      div\n      0xffffffffffffffffffffffffffffffffffffffff\n      and\n        /* \"subasta3.sol\":1535:1570  mejorOferta.ofertante != subastador */\n      0xffffffffffffffffffffffffffffffffffffffff\n      and\n      eq\n        /* \"subasta3.sol\":1531:1830  if (mejorOferta.ofertante != subastador) {... */\n      tag_76\n      jumpi\n        /* \"subasta3.sol\":1587:1601  uint reembolso */\n      0x00\n        /* \"subasta3.sol\":1679:1682  100 */\n      0x64\n        /* \"subasta3.sol\":1675:1676  2 */\n      0x02\n        /* \"subasta3.sol\":1640:1649  depositos */\n      0x08\n        /* \"subasta3.sol\":1640:1672  depositos[mejorOferta.ofertante] */\n      0x00\n        /* \"subasta3.sol\":1650:1661  mejorOferta */\n      0x06\n        /* \"subasta3.sol\":1650:1671  mejorOferta.ofertante */\n      0x00\n      add\n      0x00\n      swap1\n      sload\n      swap1\n      0x0100\n      exp\n      swap1\n      div\n      0xffffffffffffffffffffffffffffffffffffffff\n      and\n        /* \"subasta3.sol\":1640:1672  depositos[mejorOferta.ofertante] */\n      0xffffffffffffffffffffffffffffffffffffffff\n      and\n      0xffffffffffffffffffffffffffffffffffffffff\n      and\n      dup2\n      mstore\n      0x20\n      add\n      swap1\n      dup2\n      mstore\n      0x20\n      add\n      0x00\n      keccak256\n      sload\n        /* \"subasta3.sol\":1640:1676  depositos[mejorOferta.ofertante] * 2 */\n      tag_77\n      swap2\n      swap1\n      tag_68\n      jump\t// in\n    tag_77:\n        /* \"subasta3.sol\":1640:1682  depositos[mejorOferta.ofertante] * 2 / 100 */\n      tag_78\n      swap2\n      swap1\n      tag_70\n      jump\t// in\n    tag_78:\n        /* \"subasta3.sol\":1604:1613  depositos */\n      0x08\n        /* \"subasta3.sol\":1604:1636  depositos[mejorOferta.ofertante] */\n      0x00\n        /* \"subasta3.sol\":1614:1625  mejorOferta */\n      0x06\n        /* \"subasta3.sol\":1614:1635  mejorOferta.ofertante */\n      0x00\n      add\n      0x00\n      swap1\n      sload\n      swap1\n      0x0100\n      exp\n      swap1\n      div\n      0xffffffffffffffffffffffffffffffffffffffff\n      and\n        /* \"subasta3.sol\":1604:1636  depositos[mejorOferta.ofertante] */\n      0xffffffffffffffffffffffffffffffffffffffff\n      and\n      0xffffffffffffffffffffffffffffffffffffffff\n      and\n      dup2\n      mstore\n      0x20\n      add\n      swap1\n      dup2\n      mstore\n      0x20\n      add\n      0x00\n      keccak256\n      sload\n        /* \"subasta3.sol\":1604:1683  depositos[mejorOferta.ofertante] - (depositos[mejorOferta.ofertante] * 2 / 100) */\n      tag_79\n      swap2\n      swap1\n      tag_80\n      jump\t// in\n    tag_79:\n        /* \"subasta3.sol\":1587:1683  uint reembolso = depositos[mejorOferta.ofertante] - (depositos[mejorOferta.ofertante] * 2 / 100) */\n      swap1\n      pop\n        /* \"subasta3.sol\":1725:1736  mejorOferta */\n      0x06\n        /* \"subasta3.sol\":1725:1746  mejorOferta.ofertante */\n      0x00\n      add\n      0x00\n      swap1\n      sload\n      swap1\n      0x0100\n      exp\n      swap1\n      div\n      0xffffffffffffffffffffffffffffffffffffffff\n      and\n        /* \"subasta3.sol\":1717:1756  payable(mejorOferta.ofertante).transfer */\n      0xffffffffffffffffffffffffffffffffffffffff\n      and\n        /* \"subasta3.sol\":1717:1767  payable(mejorOferta.ofertante).transfer(reembolso) */\n      0x08fc\n        /* \"subasta3.sol\":1757:1766  reembolso */\n      dup3\n        /* \"subasta3.sol\":1717:1767  payable(mejorOferta.ofertante).transfer(reembolso) */\n      swap1\n      dup2\n      iszero\n      mul\n      swap1\n      mload(0x40)\n      0x00\n      mload(0x40)\n      dup1\n      dup4\n      sub\n      dup2\n      dup6\n      dup9\n      dup9\n      call\n      swap4\n      pop\n      pop\n      pop\n      pop\n      iszero\n      dup1\n      iszero\n      tag_82\n      jumpi\n      returndatasize\n      0x00\n      dup1\n      returndatacopy\n      revert(0x00, returndatasize)\n    tag_82:\n      pop\n        /* \"subasta3.sol\":1817:1818  0 */\n      0x00\n        /* \"subasta3.sol\":1782:1791  depositos */\n      0x08\n        /* \"subasta3.sol\":1782:1814  depositos[mejorOferta.ofertante] */\n      0x00\n        /* \"subasta3.sol\":1792:1803  mejorOferta */\n      0x06\n        /* \"subasta3.sol\":1792:1813  mejorOferta.ofertante */\n      0x00\n      add\n      0x00\n      swap1\n      sload\n      swap1\n      0x0100\n      exp\n      swap1\n      div\n      0xffffffffffffffffffffffffffffffffffffffff\n      and\n        /* \"subasta3.sol\":1782:1814  depositos[mejorOferta.ofertante] */\n      0xffffffffffffffffffffffffffffffffffffffff\n      and\n      0xffffffffffffffffffffffffffffffffffffffff\n      and\n      dup2\n      mstore\n      0x20\n      add\n      swap1\n      dup2\n      mstore\n      0x20\n      add\n      0x00\n      keccak256\n        /* \"subasta3.sol\":1782:1818  depositos[mejorOferta.ofertante] = 0 */\n      dup2\n      swap1\n      sstore\n      pop\n        /* \"subasta3.sol\":1572:1830  {... */\n      pop\n        /* \"subasta3.sol\":1531:1830  if (mejorOferta.ofertante != subastador) {... */\n    tag_76:\n        /* \"subasta3.sol\":1901:1930  Oferta(msg.sender, msg.value) */\n      mload(0x40)\n      dup1\n      0x40\n      add\n      0x40\n      mstore\n      dup1\n        /* \"subasta3.sol\":1908:1918  msg.sender */\n      caller\n        /* \"subasta3.sol\":1901:1930  Oferta(msg.sender, msg.value) */\n      0xffffffffffffffffffffffffffffffffffffffff\n      and\n      dup2\n      mstore\n      0x20\n      add\n        /* \"subasta3.sol\":1920:1929  msg.value */\n      callvalue\n        /* \"subasta3.sol\":1901:1930  Oferta(msg.sender, msg.value) */\n      dup2\n      mstore\n      pop\n        /* \"subasta3.sol\":1887:1898  mejorOferta */\n      0x06\n        /* \"subasta3.sol\":1887:1930  mejorOferta = Oferta(msg.sender, msg.value) */\n      0x00\n      dup3\n      add\n      mload\n      dup2\n      0x00\n      add\n      exp(0x0100, 0x00)\n      dup2\n      sload\n      dup2\n      0xffffffffffffffffffffffffffffffffffffffff\n      mul\n      not\n      and\n      swap1\n      dup4\n      0xffffffffffffffffffffffffffffffffffffffff\n      and\n      mul\n      or\n      swap1\n      sstore\n      pop\n      0x20\n      dup3\n      add\n      mload\n      dup2\n      0x01\n      add\n      sstore\n      swap1\n      pop\n      pop\n        /* \"subasta3.sol\":1966:1975  msg.value */\n      callvalue\n        /* \"subasta3.sol\":1941:1950  depositos */\n      0x08\n        /* \"subasta3.sol\":1941:1962  depositos[msg.sender] */\n      0x00\n        /* \"subasta3.sol\":1951:1961  msg.sender */\n      caller\n        /* \"subasta3.sol\":1941:1962  depositos[msg.sender] */\n      0xffffffffffffffffffffffffffffffffffffffff\n      and\n      0xffffffffffffffffffffffffffffffffffffffff\n      and\n      dup2\n      mstore\n      0x20\n      add\n      swap1\n      dup2\n      mstore\n      0x20\n      add\n      0x00\n      keccak256\n      0x00\n        /* \"subasta3.sol\":1941:1975  depositos[msg.sender] += msg.value */\n      dup3\n      dup3\n      sload\n      tag_83\n      swap2\n      swap1\n      tag_72\n      jump\t// in\n    tag_83:\n      swap3\n      pop\n      pop\n      dup2\n      swap1\n      sstore\n      pop\n        /* \"subasta3.sol\":2108:2123  duracionSubasta */\n      sload(0x02)\n        /* \"subasta3.sol\":2090:2105  block.timestamp */\n      timestamp\n        /* \"subasta3.sol\":2090:2123  block.timestamp + duracionSubasta */\n      tag_84\n      swap2\n      swap1\n      tag_72\n      jump\t// in\n    tag_84:\n        /* \"subasta3.sol\":2076:2087  tiempoFinal */\n      0x01\n        /* \"subasta3.sol\":2076:2123  tiempoFinal = block.timestamp + duracionSubasta */\n      dup2\n      swap1\n      sstore\n      pop\n        /* \"subasta3.sol\":2141:2175  NuevaOferta(msg.sender, msg.value) */\n      0x155d469211f46e4d9ae974606f0878f9aacc6198ba30a1e6b9c8cf5627352fb5\n        /* \"subasta3.sol\":2153:2163  msg.sender */\n      caller\n        /* \"subasta3.sol\":2165:2174  msg.value */\n      callvalue\n        /* \"subasta3.sol\":2141:2175  NuevaOferta(msg.sender, msg.value) */\n      mload(0x40)\n      tag_85\n      swap3\n      swap2\n      swap1\n      tag_41\n      jump\t// in\n    tag_85:\n      mload(0x40)\n      dup1\n      swap2\n      sub\n      swap1\n      log1\n        /* \"subasta3.sol\":1169:2183  {... */\n      pop\n        /* \"subasta3.sol\":1108:2183  function ofertar() external payable soloDuranteSubastaActiva {... */\n      jump\t// out\n        /* \"subasta3.sol\":454:495  mapping(address => uint) public depositos */\n    tag_30:\n      mstore(0x20, 0x08)\n      dup1\n      0x00\n      mstore\n      keccak256(0x00, 0x40)\n      0x00\n      swap2\n      pop\n      swap1\n      pop\n      sload\n      dup2\n      jump\t// out\n        /* \"subasta3.sol\":296:331  uint public ofertaInicial = 1 ether */\n    tag_35:\n      sload(0x05)\n      dup2\n      jump\t// out\n        /* \"subasta3.sol\":2719:2965  function mostrarGanador() external view returns (address ganador, uint cantidadGanadora) {... */\n    tag_39:\n        /* \"subasta3.sol\":2768:2783  address ganador */\n      0x00\n        /* \"subasta3.sol\":2785:2806  uint cantidadGanadora */\n      dup1\n        /* \"subasta3.sol\":2828:2834  activa */\n      0x04\n      0x00\n      swap1\n      sload\n      swap1\n      0x0100\n      exp\n      swap1\n      div\n      0xff\n      and\n        /* \"subasta3.sol\":2827:2834  !activa */\n      iszero\n        /* \"subasta3.sol\":2819:2865  require(!activa, \"La subasta aun esta activa\") */\n      tag_87\n      jumpi\n      mload(0x40)\n      0x08c379a000000000000000000000000000000000000000000000000000000000\n      dup2\n      mstore\n      0x04\n      add\n      tag_88\n      swap1\n      tag_89\n      jump\t// in\n    tag_88:\n      mload(0x40)\n      dup1\n      swap2\n      sub\n      swap1\n      revert\n    tag_87:\n        /* \"subasta3.sol\":2886:2897  mejorOferta */\n      0x06\n        /* \"subasta3.sol\":2886:2907  mejorOferta.ofertante */\n      0x00\n      add\n      0x00\n      swap1\n      sload\n      swap1\n      0x0100\n      exp\n      swap1\n      div\n      0xffffffffffffffffffffffffffffffffffffffff\n      and\n        /* \"subasta3.sol\":2876:2907  ganador = mejorOferta.ofertante */\n      swap2\n      pop\n        /* \"subasta3.sol\":2937:2948  mejorOferta */\n      0x06\n        /* \"subasta3.sol\":2937:2957  mejorOferta.cantidad */\n      0x01\n      add\n      sload\n        /* \"subasta3.sol\":2918:2957  cantidadGanadora = mejorOferta.cantidad */\n      swap1\n      pop\n        /* \"subasta3.sol\":2719:2965  function mostrarGanador() external view returns (address ganador, uint cantidadGanadora) {... */\n      swap1\n      swap2\n      jump\t// out\n        /* \"subasta3.sol\":2191:2456  function verificarFinalizacionSubasta() external {... */\n    tag_44:\n        /* \"subasta3.sol\":2381:2392  tiempoFinal */\n      sload(0x01)\n        /* \"subasta3.sol\":2362:2377  block.timestamp */\n      timestamp\n        /* \"subasta3.sol\":2362:2392  block.timestamp >= tiempoFinal */\n      lt\n      iszero\n        /* \"subasta3.sol\":2362:2402  block.timestamp >= tiempoFinal && activa */\n      dup1\n      iszero\n      tag_91\n      jumpi\n      pop\n        /* \"subasta3.sol\":2396:2402  activa */\n      0x04\n      0x00\n      swap1\n      sload\n      swap1\n      0x0100\n      exp\n      swap1\n      div\n      0xff\n      and\n        /* \"subasta3.sol\":2362:2402  block.timestamp >= tiempoFinal && activa */\n    tag_91:\n        /* \"subasta3.sol\":2358:2449  if (block.timestamp >= tiempoFinal && activa) {... */\n      iszero\n      tag_92\n      jumpi\n        /* \"subasta3.sol\":2419:2437  finalizarSubasta() */\n      tag_93\n        /* \"subasta3.sol\":2419:2435  finalizarSubasta */\n      tag_94\n        /* \"subasta3.sol\":2419:2437  finalizarSubasta() */\n      jump\t// in\n    tag_93:\n        /* \"subasta3.sol\":2358:2449  if (block.timestamp >= tiempoFinal && activa) {... */\n    tag_92:\n        /* \"subasta3.sol\":2191:2456  function verificarFinalizacionSubasta() external {... */\n      jump\t// out\n        /* \"subasta3.sol\":422:447  Oferta public mejorOferta */\n    tag_47:\n      0x06\n      dup1\n      0x00\n      add\n      0x00\n      swap1\n      sload\n      swap1\n      0x0100\n      exp\n      swap1\n      div\n      0xffffffffffffffffffffffffffffffffffffffff\n      and\n      swap1\n      dup1\n      0x01\n      add\n      sload\n      swap1\n      pop\n      dup3\n      jump\t// out\n        /* \"subasta3.sol\":116:139  uint public tiempoFinal */\n    tag_51:\n      sload(0x01)\n      dup2\n      jump\t// out\n        /* \"subasta3.sol\":193:229  uint public porcentajeIncremento = 5 */\n    tag_55:\n      sload(0x03)\n      dup2\n      jump\t// out\n        /* \"subasta3.sol\":146:186  uint public duracionSubasta = 10 minutes */\n    tag_59:\n      sload(0x02)\n      dup2\n      jump\t// out\n        /* \"subasta3.sol\":2464:2711  function finalizarSubasta() internal {... */\n    tag_94:\n        /* \"subasta3.sol\":2521:2526  false */\n      0x00\n        /* \"subasta3.sol\":2512:2518  activa */\n      0x04\n      0x00\n        /* \"subasta3.sol\":2512:2526  activa = false */\n      0x0100\n      exp\n      dup2\n      sload\n      dup2\n      0xff\n      mul\n      not\n      and\n      swap1\n      dup4\n      iszero\n      iszero\n      mul\n      or\n      swap1\n      sstore\n      pop\n        /* \"subasta3.sol\":2547:2562  address ganador */\n      0x00\n        /* \"subasta3.sol\":2565:2576  mejorOferta */\n      0x06\n        /* \"subasta3.sol\":2565:2586  mejorOferta.ofertante */\n      0x00\n      add\n      0x00\n      swap1\n      sload\n      swap1\n      0x0100\n      exp\n      swap1\n      div\n      0xffffffffffffffffffffffffffffffffffffffff\n      and\n        /* \"subasta3.sol\":2547:2586  address ganador = mejorOferta.ofertante */\n      swap1\n      pop\n        /* \"subasta3.sol\":2597:2618  uint cantidadGanadora */\n      0x00\n        /* \"subasta3.sol\":2621:2632  mejorOferta */\n      0x06\n        /* \"subasta3.sol\":2621:2641  mejorOferta.cantidad */\n      0x01\n      add\n      sload\n        /* \"subasta3.sol\":2597:2641  uint cantidadGanadora = mejorOferta.cantidad */\n      swap1\n      pop\n        /* \"subasta3.sol\":2659:2703  SubastaFinalizada(ganador, cantidadGanadora) */\n      0xa3a65b403bdae88eb037f4ecc1d619f436fc3ef6bcbbee3787757164e82883f2\n        /* \"subasta3.sol\":2677:2684  ganador */\n      dup3\n        /* \"subasta3.sol\":2686:2702  cantidadGanadora */\n      dup3\n        /* \"subasta3.sol\":2659:2703  SubastaFinalizada(ganador, cantidadGanadora) */\n      mload(0x40)\n      tag_96\n      swap3\n      swap2\n      swap1\n      tag_41\n      jump\t// in\n    tag_96:\n      mload(0x40)\n      dup1\n      swap2\n      sub\n      swap1\n      log1\n        /* \"subasta3.sol\":2501:2711  {... */\n      pop\n      pop\n        /* \"subasta3.sol\":2464:2711  function finalizarSubasta() internal {... */\n      jump\t// out\n        /* \"#utility.yul\":7:97   */\n    tag_97:\n        /* \"#utility.yul\":41:48   */\n      0x00\n        /* \"#utility.yul\":84:89   */\n      dup2\n        /* \"#utility.yul\":77:90   */\n      iszero\n        /* \"#utility.yul\":70:91   */\n      iszero\n        /* \"#utility.yul\":59:91   */\n      swap1\n      pop\n        /* \"#utility.yul\":7:97   */\n      swap2\n      swap1\n      pop\n      jump\t// out\n        /* \"#utility.yul\":103:212   */\n    tag_98:\n        /* \"#utility.yul\":184:205   */\n      tag_121\n        /* \"#utility.yul\":199:204   */\n      dup2\n        /* \"#utility.yul\":184:205   */\n      tag_97\n      jump\t// in\n    tag_121:\n        /* \"#utility.yul\":179:182   */\n      dup3\n        /* \"#utility.yul\":172:206   */\n      mstore\n        /* \"#utility.yul\":103:212   */\n      pop\n      pop\n      jump\t// out\n        /* \"#utility.yul\":218:428   */\n    tag_18:\n        /* \"#utility.yul\":305:309   */\n      0x00\n        /* \"#utility.yul\":343:345   */\n      0x20\n        /* \"#utility.yul\":332:341   */\n      dup3\n        /* \"#utility.yul\":328:346   */\n      add\n        /* \"#utility.yul\":320:346   */\n      swap1\n      pop\n        /* \"#utility.yul\":356:421   */\n      tag_123\n        /* \"#utility.yul\":418:419   */\n      0x00\n        /* \"#utility.yul\":407:416   */\n      dup4\n        /* \"#utility.yul\":403:420   */\n      add\n        /* \"#utility.yul\":394:400   */\n      dup5\n        /* \"#utility.yul\":356:421   */\n      tag_98\n      jump\t// in\n    tag_123:\n        /* \"#utility.yul\":218:428   */\n      swap3\n      swap2\n      pop\n      pop\n      jump\t// out\n        /* \"#utility.yul\":434:560   */\n    tag_99:\n        /* \"#utility.yul\":471:478   */\n      0x00\n        /* \"#utility.yul\":511:553   */\n      0xffffffffffffffffffffffffffffffffffffffff\n        /* \"#utility.yul\":504:509   */\n      dup3\n        /* \"#utility.yul\":500:554   */\n      and\n        /* \"#utility.yul\":489:554   */\n      swap1\n      pop\n        /* \"#utility.yul\":434:560   */\n      swap2\n      swap1\n      pop\n      jump\t// out\n        /* \"#utility.yul\":566:662   */\n    tag_100:\n        /* \"#utility.yul\":603:610   */\n      0x00\n        /* \"#utility.yul\":632:656   */\n      tag_126\n        /* \"#utility.yul\":650:655   */\n      dup3\n        /* \"#utility.yul\":632:656   */\n      tag_99\n      jump\t// in\n    tag_126:\n        /* \"#utility.yul\":621:656   */\n      swap1\n      pop\n        /* \"#utility.yul\":566:662   */\n      swap2\n      swap1\n      pop\n      jump\t// out\n        /* \"#utility.yul\":668:786   */\n    tag_101:\n        /* \"#utility.yul\":755:779   */\n      tag_128\n        /* \"#utility.yul\":773:778   */\n      dup2\n        /* \"#utility.yul\":755:779   */\n      tag_100\n      jump\t// in\n    tag_128:\n        /* \"#utility.yul\":750:753   */\n      dup3\n        /* \"#utility.yul\":743:780   */\n      mstore\n        /* \"#utility.yul\":668:786   */\n      pop\n      pop\n      jump\t// out\n        /* \"#utility.yul\":792:1014   */\n    tag_23:\n        /* \"#utility.yul\":885:889   */\n      0x00\n        /* \"#utility.yul\":923:925   */\n      0x20\n        /* \"#utility.yul\":912:921   */\n      dup3\n        /* \"#utility.yul\":908:926   */\n      add\n        /* \"#utility.yul\":900:926   */\n      swap1\n      pop\n        /* \"#utility.yul\":936:1007   */\n      tag_130\n        /* \"#utility.yul\":1004:1005   */\n      0x00\n        /* \"#utility.yul\":993:1002   */\n      dup4\n        /* \"#utility.yul\":989:1006   */\n      add\n        /* \"#utility.yul\":980:986   */\n      dup5\n        /* \"#utility.yul\":936:1007   */\n      tag_101\n      jump\t// in\n    tag_130:\n        /* \"#utility.yul\":792:1014   */\n      swap3\n      swap2\n      pop\n      pop\n      jump\t// out\n        /* \"#utility.yul\":1101:1218   */\n    tag_103:\n        /* \"#utility.yul\":1210:1211   */\n      0x00\n        /* \"#utility.yul\":1207:1208   */\n      dup1\n        /* \"#utility.yul\":1200:1212   */\n      revert\n        /* \"#utility.yul\":1347:1469   */\n    tag_105:\n        /* \"#utility.yul\":1420:1444   */\n      tag_135\n        /* \"#utility.yul\":1438:1443   */\n      dup2\n        /* \"#utility.yul\":1420:1444   */\n      tag_100\n      jump\t// in\n    tag_135:\n        /* \"#utility.yul\":1413:1418   */\n      dup2\n        /* \"#utility.yul\":1410:1445   */\n      eq\n        /* \"#utility.yul\":1400:1463   */\n      tag_136\n      jumpi\n        /* \"#utility.yul\":1459:1460   */\n      0x00\n        /* \"#utility.yul\":1456:1457   */\n      dup1\n        /* \"#utility.yul\":1449:1461   */\n      revert\n        /* \"#utility.yul\":1400:1463   */\n    tag_136:\n        /* \"#utility.yul\":1347:1469   */\n      pop\n      jump\t// out\n        /* \"#utility.yul\":1475:1614   */\n    tag_106:\n        /* \"#utility.yul\":1521:1526   */\n      0x00\n        /* \"#utility.yul\":1559:1565   */\n      dup2\n        /* \"#utility.yul\":1546:1566   */\n      calldataload\n        /* \"#utility.yul\":1537:1566   */\n      swap1\n      pop\n        /* \"#utility.yul\":1575:1608   */\n      tag_138\n        /* \"#utility.yul\":1602:1607   */\n      dup2\n        /* \"#utility.yul\":1575:1608   */\n      tag_105\n      jump\t// in\n    tag_138:\n        /* \"#utility.yul\":1475:1614   */\n      swap3\n      swap2\n      pop\n      pop\n      jump\t// out\n        /* \"#utility.yul\":1620:1949   */\n    tag_29:\n        /* \"#utility.yul\":1679:1685   */\n      0x00\n        /* \"#utility.yul\":1728:1730   */\n      0x20\n        /* \"#utility.yul\":1716:1725   */\n      dup3\n        /* \"#utility.yul\":1707:1714   */\n      dup5\n        /* \"#utility.yul\":1703:1726   */\n      sub\n        /* \"#utility.yul\":1699:1731   */\n      slt\n        /* \"#utility.yul\":1696:1815   */\n      iszero\n      tag_140\n      jumpi\n        /* \"#utility.yul\":1734:1813   */\n      tag_141\n      tag_103\n      jump\t// in\n    tag_141:\n        /* \"#utility.yul\":1696:1815   */\n    tag_140:\n        /* \"#utility.yul\":1854:1855   */\n      0x00\n        /* \"#utility.yul\":1879:1932   */\n      tag_142\n        /* \"#utility.yul\":1924:1931   */\n      dup5\n        /* \"#utility.yul\":1915:1921   */\n      dup3\n        /* \"#utility.yul\":1904:1913   */\n      dup6\n        /* \"#utility.yul\":1900:1922   */\n      add\n        /* \"#utility.yul\":1879:1932   */\n      tag_106\n      jump\t// in\n    tag_142:\n        /* \"#utility.yul\":1869:1932   */\n      swap2\n      pop\n        /* \"#utility.yul\":1825:1942   */\n      pop\n        /* \"#utility.yul\":1620:1949   */\n      swap3\n      swap2\n      pop\n      pop\n      jump\t// out\n        /* \"#utility.yul\":1955:2032   */\n    tag_107:\n        /* \"#utility.yul\":1992:1999   */\n      0x00\n        /* \"#utility.yul\":2021:2026   */\n      dup2\n        /* \"#utility.yul\":2010:2026   */\n      swap1\n      pop\n        /* \"#utility.yul\":1955:2032   */\n      swap2\n      swap1\n      pop\n      jump\t// out\n        /* \"#utility.yul\":2038:2156   */\n    tag_108:\n        /* \"#utility.yul\":2125:2149   */\n      tag_145\n        /* \"#utility.yul\":2143:2148   */\n      dup2\n        /* \"#utility.yul\":2125:2149   */\n      tag_107\n      jump\t// in\n    tag_145:\n        /* \"#utility.yul\":2120:2123   */\n      dup3\n        /* \"#utility.yul\":2113:2150   */\n      mstore\n        /* \"#utility.yul\":2038:2156   */\n      pop\n      pop\n      jump\t// out\n        /* \"#utility.yul\":2162:2384   */\n    tag_32:\n        /* \"#utility.yul\":2255:2259   */\n      0x00\n        /* \"#utility.yul\":2293:2295   */\n      0x20\n        /* \"#utility.yul\":2282:2291   */\n      dup3\n        /* \"#utility.yul\":2278:2296   */\n      add\n        /* \"#utility.yul\":2270:2296   */\n      swap1\n      pop\n        /* \"#utility.yul\":2306:2377   */\n      tag_147\n        /* \"#utility.yul\":2374:2375   */\n      0x00\n        /* \"#utility.yul\":2363:2372   */\n      dup4\n        /* \"#utility.yul\":2359:2376   */\n      add\n        /* \"#utility.yul\":2350:2356   */\n      dup5\n        /* \"#utility.yul\":2306:2377   */\n      tag_108\n      jump\t// in\n    tag_147:\n        /* \"#utility.yul\":2162:2384   */\n      swap3\n      swap2\n      pop\n      pop\n      jump\t// out\n        /* \"#utility.yul\":2390:2722   */\n    tag_41:\n        /* \"#utility.yul\":2511:2515   */\n      0x00\n        /* \"#utility.yul\":2549:2551   */\n      0x40\n        /* \"#utility.yul\":2538:2547   */\n      dup3\n        /* \"#utility.yul\":2534:2552   */\n      add\n        /* \"#utility.yul\":2526:2552   */\n      swap1\n      pop\n        /* \"#utility.yul\":2562:2633   */\n      tag_149\n        /* \"#utility.yul\":2630:2631   */\n      0x00\n        /* \"#utility.yul\":2619:2628   */\n      dup4\n        /* \"#utility.yul\":2615:2632   */\n      add\n        /* \"#utility.yul\":2606:2612   */\n      dup6\n        /* \"#utility.yul\":2562:2633   */\n      tag_101\n      jump\t// in\n    tag_149:\n        /* \"#utility.yul\":2643:2715   */\n      tag_150\n        /* \"#utility.yul\":2711:2713   */\n      0x20\n        /* \"#utility.yul\":2700:2709   */\n      dup4\n        /* \"#utility.yul\":2696:2714   */\n      add\n        /* \"#utility.yul\":2687:2693   */\n      dup5\n        /* \"#utility.yul\":2643:2715   */\n      tag_108\n      jump\t// in\n    tag_150:\n        /* \"#utility.yul\":2390:2722   */\n      swap4\n      swap3\n      pop\n      pop\n      pop\n      jump\t// out\n        /* \"#utility.yul\":2728:2897   */\n    tag_109:\n        /* \"#utility.yul\":2812:2823   */\n      0x00\n        /* \"#utility.yul\":2846:2852   */\n      dup3\n        /* \"#utility.yul\":2841:2844   */\n      dup3\n        /* \"#utility.yul\":2834:2853   */\n      mstore\n        /* \"#utility.yul\":2886:2890   */\n      0x20\n        /* \"#utility.yul\":2881:2884   */\n      dup3\n        /* \"#utility.yul\":2877:2891   */\n      add\n        /* \"#utility.yul\":2862:2891   */\n      swap1\n      pop\n        /* \"#utility.yul\":2728:2897   */\n      swap3\n      swap2\n      pop\n      pop\n      jump\t// out\n        /* \"#utility.yul\":2903:3080   */\n    tag_110:\n        /* \"#utility.yul\":3043:3072   */\n      0x4c6120737562617374612079612068612066696e616c697a61646f0000000000\n        /* \"#utility.yul\":3039:3040   */\n      0x00\n        /* \"#utility.yul\":3031:3037   */\n      dup3\n        /* \"#utility.yul\":3027:3041   */\n      add\n        /* \"#utility.yul\":3020:3073   */\n      mstore\n        /* \"#utility.yul\":2903:3080   */\n      pop\n      jump\t// out\n        /* \"#utility.yul\":3086:3452   */\n    tag_111:\n        /* \"#utility.yul\":3228:3231   */\n      0x00\n        /* \"#utility.yul\":3249:3316   */\n      tag_154\n        /* \"#utility.yul\":3313:3315   */\n      0x1b\n        /* \"#utility.yul\":3308:3311   */\n      dup4\n        /* \"#utility.yul\":3249:3316   */\n      tag_109\n      jump\t// in\n    tag_154:\n        /* \"#utility.yul\":3242:3316   */\n      swap2\n      pop\n        /* \"#utility.yul\":3325:3418   */\n      tag_155\n        /* \"#utility.yul\":3414:3417   */\n      dup3\n        /* \"#utility.yul\":3325:3418   */\n      tag_110\n      jump\t// in\n    tag_155:\n        /* \"#utility.yul\":3443:3445   */\n      0x20\n        /* \"#utility.yul\":3438:3441   */\n      dup3\n        /* \"#utility.yul\":3434:3446   */\n      add\n        /* \"#utility.yul\":3427:3446   */\n      swap1\n      pop\n        /* \"#utility.yul\":3086:3452   */\n      swap2\n      swap1\n      pop\n      jump\t// out\n        /* \"#utility.yul\":3458:3877   */\n    tag_65:\n        /* \"#utility.yul\":3624:3628   */\n      0x00\n        /* \"#utility.yul\":3662:3664   */\n      0x20\n        /* \"#utility.yul\":3651:3660   */\n      dup3\n        /* \"#utility.yul\":3647:3665   */\n      add\n        /* \"#utility.yul\":3639:3665   */\n      swap1\n      pop\n        /* \"#utility.yul\":3711:3720   */\n      dup2\n        /* \"#utility.yul\":3705:3709   */\n      dup2\n        /* \"#utility.yul\":3701:3721   */\n      sub\n        /* \"#utility.yul\":3697:3698   */\n      0x00\n        /* \"#utility.yul\":3686:3695   */\n      dup4\n        /* \"#utility.yul\":3682:3699   */\n      add\n        /* \"#utility.yul\":3675:3722   */\n      mstore\n        /* \"#utility.yul\":3739:3870   */\n      tag_157\n        /* \"#utility.yul\":3865:3869   */\n      dup2\n        /* \"#utility.yul\":3739:3870   */\n      tag_111\n      jump\t// in\n    tag_157:\n        /* \"#utility.yul\":3731:3870   */\n      swap1\n      pop\n        /* \"#utility.yul\":3458:3877   */\n      swap2\n      swap1\n      pop\n      jump\t// out\n        /* \"#utility.yul\":3883:4063   */\n    tag_112:\n        /* \"#utility.yul\":3931:4008   */\n      0x4e487b7100000000000000000000000000000000000000000000000000000000\n        /* \"#utility.yul\":3928:3929   */\n      0x00\n        /* \"#utility.yul\":3921:4009   */\n      mstore\n        /* \"#utility.yul\":4028:4032   */\n      0x11\n        /* \"#utility.yul\":4025:4026   */\n      0x04\n        /* \"#utility.yul\":4018:4033   */\n      mstore\n        /* \"#utility.yul\":4052:4056   */\n      0x24\n        /* \"#utility.yul\":4049:4050   */\n      0x00\n        /* \"#utility.yul\":4042:4057   */\n      revert\n        /* \"#utility.yul\":4069:4479   */\n    tag_68:\n        /* \"#utility.yul\":4109:4116   */\n      0x00\n        /* \"#utility.yul\":4132:4152   */\n      tag_160\n        /* \"#utility.yul\":4150:4151   */\n      dup3\n        /* \"#utility.yul\":4132:4152   */\n      tag_107\n      jump\t// in\n    tag_160:\n        /* \"#utility.yul\":4127:4152   */\n      swap2\n      pop\n        /* \"#utility.yul\":4166:4186   */\n      tag_161\n        /* \"#utility.yul\":4184:4185   */\n      dup4\n        /* \"#utility.yul\":4166:4186   */\n      tag_107\n      jump\t// in\n    tag_161:\n        /* \"#utility.yul\":4161:4186   */\n      swap3\n      pop\n        /* \"#utility.yul\":4221:4222   */\n      dup3\n        /* \"#utility.yul\":4218:4219   */\n      dup3\n        /* \"#utility.yul\":4214:4223   */\n      mul\n        /* \"#utility.yul\":4243:4273   */\n      tag_162\n        /* \"#utility.yul\":4261:4272   */\n      dup2\n        /* \"#utility.yul\":4243:4273   */\n      tag_107\n      jump\t// in\n    tag_162:\n        /* \"#utility.yul\":4232:4273   */\n      swap2\n      pop\n        /* \"#utility.yul\":4422:4423   */\n      dup3\n        /* \"#utility.yul\":4413:4420   */\n      dup3\n        /* \"#utility.yul\":4409:4424   */\n      div\n        /* \"#utility.yul\":4406:4407   */\n      dup5\n        /* \"#utility.yul\":4403:4425   */\n      eq\n        /* \"#utility.yul\":4383:4384   */\n      dup4\n        /* \"#utility.yul\":4376:4385   */\n      iszero\n        /* \"#utility.yul\":4356:4439   */\n      or\n        /* \"#utility.yul\":4333:4472   */\n      tag_163\n      jumpi\n        /* \"#utility.yul\":4452:4470   */\n      tag_164\n      tag_112\n      jump\t// in\n    tag_164:\n        /* \"#utility.yul\":4333:4472   */\n    tag_163:\n        /* \"#utility.yul\":4117:4479   */\n      pop\n        /* \"#utility.yul\":4069:4479   */\n      swap3\n      swap2\n      pop\n      pop\n      jump\t// out\n        /* \"#utility.yul\":4485:4665   */\n    tag_113:\n        /* \"#utility.yul\":4533:4610   */\n      0x4e487b7100000000000000000000000000000000000000000000000000000000\n        /* \"#utility.yul\":4530:4531   */\n      0x00\n        /* \"#utility.yul\":4523:4611   */\n      mstore\n        /* \"#utility.yul\":4630:4634   */\n      0x12\n        /* \"#utility.yul\":4627:4628   */\n      0x04\n        /* \"#utility.yul\":4620:4635   */\n      mstore\n        /* \"#utility.yul\":4654:4658   */\n      0x24\n        /* \"#utility.yul\":4651:4652   */\n      0x00\n        /* \"#utility.yul\":4644:4659   */\n      revert\n        /* \"#utility.yul\":4671:4856   */\n    tag_70:\n        /* \"#utility.yul\":4711:4712   */\n      0x00\n        /* \"#utility.yul\":4728:4748   */\n      tag_167\n        /* \"#utility.yul\":4746:4747   */\n      dup3\n        /* \"#utility.yul\":4728:4748   */\n      tag_107\n      jump\t// in\n    tag_167:\n        /* \"#utility.yul\":4723:4748   */\n      swap2\n      pop\n        /* \"#utility.yul\":4762:4782   */\n      tag_168\n        /* \"#utility.yul\":4780:4781   */\n      dup4\n        /* \"#utility.yul\":4762:4782   */\n      tag_107\n      jump\t// in\n    tag_168:\n        /* \"#utility.yul\":4757:4782   */\n      swap3\n      pop\n        /* \"#utility.yul\":4801:4802   */\n      dup3\n        /* \"#utility.yul\":4791:4826   */\n      tag_169\n      jumpi\n        /* \"#utility.yul\":4806:4824   */\n      tag_170\n      tag_113\n      jump\t// in\n    tag_170:\n        /* \"#utility.yul\":4791:4826   */\n    tag_169:\n        /* \"#utility.yul\":4848:4849   */\n      dup3\n        /* \"#utility.yul\":4845:4846   */\n      dup3\n        /* \"#utility.yul\":4841:4850   */\n      div\n        /* \"#utility.yul\":4836:4850   */\n      swap1\n      pop\n        /* \"#utility.yul\":4671:4856   */\n      swap3\n      swap2\n      pop\n      pop\n      jump\t// out\n        /* \"#utility.yul\":4862:5053   */\n    tag_72:\n        /* \"#utility.yul\":4902:4905   */\n      0x00\n        /* \"#utility.yul\":4921:4941   */\n      tag_172\n        /* \"#utility.yul\":4939:4940   */\n      dup3\n        /* \"#utility.yul\":4921:4941   */\n      tag_107\n      jump\t// in\n    tag_172:\n        /* \"#utility.yul\":4916:4941   */\n      swap2\n      pop\n        /* \"#utility.yul\":4955:4975   */\n      tag_173\n        /* \"#utility.yul\":4973:4974   */\n      dup4\n        /* \"#utility.yul\":4955:4975   */\n      tag_107\n      jump\t// in\n    tag_173:\n        /* \"#utility.yul\":4950:4975   */\n      swap3\n      pop\n        /* \"#utility.yul\":4998:4999   */\n      dup3\n        /* \"#utility.yul\":4995:4996   */\n      dup3\n        /* \"#utility.yul\":4991:5000   */\n      add\n        /* \"#utility.yul\":4984:5000   */\n      swap1\n      pop\n        /* \"#utility.yul\":5019:5022   */\n      dup1\n        /* \"#utility.yul\":5016:5017   */\n      dup3\n        /* \"#utility.yul\":5013:5023   */\n      gt\n        /* \"#utility.yul\":5010:5046   */\n      iszero\n      tag_174\n      jumpi\n        /* \"#utility.yul\":5026:5044   */\n      tag_175\n      tag_112\n      jump\t// in\n    tag_175:\n        /* \"#utility.yul\":5010:5046   */\n    tag_174:\n        /* \"#utility.yul\":4862:5053   */\n      swap3\n      swap2\n      pop\n      pop\n      jump\t// out\n        /* \"#utility.yul\":5059:5303   */\n    tag_114:\n        /* \"#utility.yul\":5199:5233   */\n      0x4c61206f66657274612064656265207375706572617220656e20616c206d656e\n        /* \"#utility.yul\":5195:5196   */\n      0x00\n        /* \"#utility.yul\":5187:5193   */\n      dup3\n        /* \"#utility.yul\":5183:5197   */\n      add\n        /* \"#utility.yul\":5176:5234   */\n      mstore\n        /* \"#utility.yul\":5268:5295   */\n      0x6f7320756e203525206c61206f66657274612061637475616c00000000000000\n        /* \"#utility.yul\":5263:5265   */\n      0x20\n        /* \"#utility.yul\":5255:5261   */\n      dup3\n        /* \"#utility.yul\":5251:5266   */\n      add\n        /* \"#utility.yul\":5244:5296   */\n      mstore\n        /* \"#utility.yul\":5059:5303   */\n      pop\n      jump\t// out\n        /* \"#utility.yul\":5309:5675   */\n    tag_115:\n        /* \"#utility.yul\":5451:5454   */\n      0x00\n        /* \"#utility.yul\":5472:5539   */\n      tag_178\n        /* \"#utility.yul\":5536:5538   */\n      0x39\n        /* \"#utility.yul\":5531:5534   */\n      dup4\n        /* \"#utility.yul\":5472:5539   */\n      tag_109\n      jump\t// in\n    tag_178:\n        /* \"#utility.yul\":5465:5539   */\n      swap2\n      pop\n        /* \"#utility.yul\":5548:5641   */\n      tag_179\n        /* \"#utility.yul\":5637:5640   */\n      dup3\n        /* \"#utility.yul\":5548:5641   */\n      tag_114\n      jump\t// in\n    tag_179:\n        /* \"#utility.yul\":5666:5668   */\n      0x40\n        /* \"#utility.yul\":5661:5664   */\n      dup3\n        /* \"#utility.yul\":5657:5669   */\n      add\n        /* \"#utility.yul\":5650:5669   */\n      swap1\n      pop\n        /* \"#utility.yul\":5309:5675   */\n      swap2\n      swap1\n      pop\n      jump\t// out\n        /* \"#utility.yul\":5681:6100   */\n    tag_75:\n        /* \"#utility.yul\":5847:5851   */\n      0x00\n        /* \"#utility.yul\":5885:5887   */\n      0x20\n        /* \"#utility.yul\":5874:5883   */\n      dup3\n        /* \"#utility.yul\":5870:5888   */\n      add\n        /* \"#utility.yul\":5862:5888   */\n      swap1\n      pop\n        /* \"#utility.yul\":5934:5943   */\n      dup2\n        /* \"#utility.yul\":5928:5932   */\n      dup2\n        /* \"#utility.yul\":5924:5944   */\n      sub\n        /* \"#utility.yul\":5920:5921   */\n      0x00\n        /* \"#utility.yul\":5909:5918   */\n      dup4\n        /* \"#utility.yul\":5905:5922   */\n      add\n        /* \"#utility.yul\":5898:5945   */\n      mstore\n        /* \"#utility.yul\":5962:6093   */\n      tag_181\n        /* \"#utility.yul\":6088:6092   */\n      dup2\n        /* \"#utility.yul\":5962:6093   */\n      tag_115\n      jump\t// in\n    tag_181:\n        /* \"#utility.yul\":5954:6093   */\n      swap1\n      pop\n        /* \"#utility.yul\":5681:6100   */\n      swap2\n      swap1\n      pop\n      jump\t// out\n        /* \"#utility.yul\":6106:6300   */\n    tag_80:\n        /* \"#utility.yul\":6146:6150   */\n      0x00\n        /* \"#utility.yul\":6166:6186   */\n      tag_183\n        /* \"#utility.yul\":6184:6185   */\n      dup3\n        /* \"#utility.yul\":6166:6186   */\n      tag_107\n      jump\t// in\n    tag_183:\n        /* \"#utility.yul\":6161:6186   */\n      swap2\n      pop\n        /* \"#utility.yul\":6200:6220   */\n      tag_184\n        /* \"#utility.yul\":6218:6219   */\n      dup4\n        /* \"#utility.yul\":6200:6220   */\n      tag_107\n      jump\t// in\n    tag_184:\n        /* \"#utility.yul\":6195:6220   */\n      swap3\n      pop\n        /* \"#utility.yul\":6244:6245   */\n      dup3\n        /* \"#utility.yul\":6241:6242   */\n      dup3\n        /* \"#utility.yul\":6237:6246   */\n      sub\n        /* \"#utility.yul\":6229:6246   */\n      swap1\n      pop\n        /* \"#utility.yul\":6268:6269   */\n      dup2\n        /* \"#utility.yul\":6262:6266   */\n      dup2\n        /* \"#utility.yul\":6259:6270   */\n      gt\n        /* \"#utility.yul\":6256:6293   */\n      iszero\n      tag_185\n      jumpi\n        /* \"#utility.yul\":6273:6291   */\n      tag_186\n      tag_112\n      jump\t// in\n    tag_186:\n        /* \"#utility.yul\":6256:6293   */\n    tag_185:\n        /* \"#utility.yul\":6106:6300   */\n      swap3\n      swap2\n      pop\n      pop\n      jump\t// out\n        /* \"#utility.yul\":6306:6482   */\n    tag_116:\n        /* \"#utility.yul\":6446:6474   */\n      0x4c6120737562617374612061756e206573746120616374697661000000000000\n        /* \"#utility.yul\":6442:6443   */\n      0x00\n        /* \"#utility.yul\":6434:6440   */\n      dup3\n        /* \"#utility.yul\":6430:6444   */\n      add\n        /* \"#utility.yul\":6423:6475   */\n      mstore\n        /* \"#utility.yul\":6306:6482   */\n      pop\n      jump\t// out\n        /* \"#utility.yul\":6488:6854   */\n    tag_117:\n        /* \"#utility.yul\":6630:6633   */\n      0x00\n        /* \"#utility.yul\":6651:6718   */\n      tag_189\n        /* \"#utility.yul\":6715:6717   */\n      0x1a\n        /* \"#utility.yul\":6710:6713   */\n      dup4\n        /* \"#utility.yul\":6651:6718   */\n      tag_109\n      jump\t// in\n    tag_189:\n        /* \"#utility.yul\":6644:6718   */\n      swap2\n      pop\n        /* \"#utility.yul\":6727:6820   */\n      tag_190\n        /* \"#utility.yul\":6816:6819   */\n      dup3\n        /* \"#utility.yul\":6727:6820   */\n      tag_116\n      jump\t// in\n    tag_190:\n        /* \"#utility.yul\":6845:6847   */\n      0x20\n        /* \"#utility.yul\":6840:6843   */\n      dup3\n        /* \"#utility.yul\":6836:6848   */\n      add\n        /* \"#utility.yul\":6829:6848   */\n      swap1\n      pop\n        /* \"#utility.yul\":6488:6854   */\n      swap2\n      swap1\n      pop\n      jump\t// out\n        /* \"#utility.yul\":6860:7279   */\n    tag_89:\n        /* \"#utility.yul\":7026:7030   */\n      0x00\n        /* \"#utility.yul\":7064:7066   */\n      0x20\n        /* \"#utility.yul\":7053:7062   */\n      dup3\n        /* \"#utility.yul\":7049:7067   */\n      add\n        /* \"#utility.yul\":7041:7067   */\n      swap1\n      pop\n        /* \"#utility.yul\":7113:7122   */\n      dup2\n        /* \"#utility.yul\":7107:7111   */\n      dup2\n        /* \"#utility.yul\":7103:7123   */\n      sub\n        /* \"#utility.yul\":7099:7100   */\n      0x00\n        /* \"#utility.yul\":7088:7097   */\n      dup4\n        /* \"#utility.yul\":7084:7101   */\n      add\n        /* \"#utility.yul\":7077:7124   */\n      mstore\n        /* \"#utility.yul\":7141:7272   */\n      tag_192\n        /* \"#utility.yul\":7267:7271   */\n      dup2\n        /* \"#utility.yul\":7141:7272   */\n      tag_117\n      jump\t// in\n    tag_192:\n        /* \"#utility.yul\":7133:7272   */\n      swap1\n      pop\n        /* \"#utility.yul\":6860:7279   */\n      swap2\n      swap1\n      pop\n      jump\t// out\n\n    auxdata: 0xa26469706673582212209ac08e366f1c57e05d76b19f766b94340033122513d846fa88c4e83d1db9993864736f6c634300081a0033\n}\n",
				"bytecode": {
					"linkReferences": {},
					"object": "60806040526102586002556005600355600160045f6101000a81548160ff021916908315150217905550670de0b6b3a7640000600555348015610040575f80fd5b50335f806101000a81548173ffffffffffffffffffffffffffffffffffffffff021916908373ffffffffffffffffffffffffffffffffffffffff1602179055506002544261008e91906101d2565b60018190555060405180604001604052805f8054906101000a900473ffffffffffffffffffffffffffffffffffffffff1673ffffffffffffffffffffffffffffffffffffffff16815260200160055481525060065f820151815f015f6101000a81548173ffffffffffffffffffffffffffffffffffffffff021916908373ffffffffffffffffffffffffffffffffffffffff1602179055506020820151816001015590505060055460085f805f9054906101000a900473ffffffffffffffffffffffffffffffffffffffff1673ffffffffffffffffffffffffffffffffffffffff1673ffffffffffffffffffffffffffffffffffffffff1681526020019081526020015f2081905550610205565b5f819050919050565b7f4e487b71000000000000000000000000000000000000000000000000000000005f52601160045260245ffd5b5f6101dc8261019c565b91506101e78361019c565b92508282019050808211156101ff576101fe6101a5565b5b92915050565b610c40806102125f395ff3fe60806040526004361061009b575f3560e01c8063753dcaeb11610063578063753dcaeb146101635780638e3df72e1461018e578063acfc9f98146101a4578063c63049f8146101cf578063cc14e31f146101f9578063d1d7e96c146102235761009b565b80632c5e54711461009f5780633dfa138d146100c95780633ec059d7146100f3578063664e62b9146100fd57806371ea6d3314610139575b5f80fd5b3480156100aa575f80fd5b506100b361024d565b6040516100c09190610849565b60405180910390f35b3480156100d4575f80fd5b506100dd61025f565b6040516100ea91906108a1565b60405180910390f35b6100fb610282565b005b348015610108575f80fd5b50610123600480360381019061011e91906108e8565b61069c565b604051610130919061092b565b60405180910390f35b348015610144575f80fd5b5061014d6106b1565b60405161015a919061092b565b60405180910390f35b34801561016e575f80fd5b506101776106b7565b604051610185929190610944565b60405180910390f35b348015610199575f80fd5b506101a261073a565b005b3480156101af575f80fd5b506101b8610767565b6040516101c6929190610944565b60405180910390f35b3480156101da575f80fd5b506101e3610797565b6040516101f0919061092b565b60405180910390f35b348015610204575f80fd5b5061020d61079d565b60405161021a919061092b565b60405180910390f35b34801561022e575f80fd5b506102376107a3565b604051610244919061092b565b60405180910390f35b60045f9054906101000a900460ff1681565b5f8054906101000a900473ffffffffffffffffffffffffffffffffffffffff1681565b60045f9054906101000a900460ff16801561029e575060015442105b6102dd576040517f08c379a00000000000000000000000000000000000000000000000000000000081526004016102d4906109c5565b60405180910390fd5b5f60646003546006600101546102f39190610a10565b6102fd9190610a7e565b60066001015461030d9190610aae565b9050803411610351576040517f08c379a000000000000000000000000000000000000000000000000000000000815260040161034890610b51565b60405180910390fd5b5f8054906101000a900473ffffffffffffffffffffffffffffffffffffffff1673ffffffffffffffffffffffffffffffffffffffff1660065f015f9054906101000a900473ffffffffffffffffffffffffffffffffffffffff1673ffffffffffffffffffffffffffffffffffffffff161461057b575f6064600260085f60065f015f9054906101000a900473ffffffffffffffffffffffffffffffffffffffff1673ffffffffffffffffffffffffffffffffffffffff1673ffffffffffffffffffffffffffffffffffffffff1681526020019081526020015f20546104369190610a10565b6104409190610a7e565b60085f60065f015f9054906101000a900473ffffffffffffffffffffffffffffffffffffffff1673ffffffffffffffffffffffffffffffffffffffff1673ffffffffffffffffffffffffffffffffffffffff1681526020019081526020015f20546104ab9190610b6f565b905060065f015f9054906101000a900473ffffffffffffffffffffffffffffffffffffffff1673ffffffffffffffffffffffffffffffffffffffff166108fc8290811502906040515f60405180830381858888f19350505050158015610513573d5f803e3d5ffd5b505f60085f60065f015f9054906101000a900473ffffffffffffffffffffffffffffffffffffffff1673ffffffffffffffffffffffffffffffffffffffff1673ffffffffffffffffffffffffffffffffffffffff1681526020019081526020015f2081905550505b60405180604001604052803373ffffffffffffffffffffffffffffffffffffffff1681526020013481525060065f820151815f015f6101000a81548173ffffffffffffffffffffffffffffffffffffffff021916908373ffffffffffffffffffffffffffffffffffffffff160217905550602082015181600101559050503460085f3373ffffffffffffffffffffffffffffffffffffffff1673ffffffffffffffffffffffffffffffffffffffff1681526020019081526020015f205f8282546106459190610aae565b925050819055506002544261065a9190610aae565b6001819055507f155d469211f46e4d9ae974606f0878f9aacc6198ba30a1e6b9c8cf5627352fb53334604051610691929190610944565b60405180910390a150565b6008602052805f5260405f205f915090505481565b60055481565b5f8060045f9054906101000a900460ff1615610708576040517f08c379a00000000000000000000000000000000000000000000000000000000081526004016106ff90610bec565b60405180910390fd5b60065f015f9054906101000a900473ffffffffffffffffffffffffffffffffffffffff16915060066001015490509091565b6001544210158015610757575060045f9054906101000a900460ff165b15610765576107646107a9565b5b565b6006805f015f9054906101000a900473ffffffffffffffffffffffffffffffffffffffff16908060010154905082565b60015481565b60035481565b60025481565b5f60045f6101000a81548160ff0219169083151502179055505f60065f015f9054906101000a900473ffffffffffffffffffffffffffffffffffffffff1690505f60066001015490507fa3a65b403bdae88eb037f4ecc1d619f436fc3ef6bcbbee3787757164e82883f28282604051610823929190610944565b60405180910390a15050565b5f8115159050919050565b6108438161082f565b82525050565b5f60208201905061085c5f83018461083a565b92915050565b5f73ffffffffffffffffffffffffffffffffffffffff82169050919050565b5f61088b82610862565b9050919050565b61089b81610881565b82525050565b5f6020820190506108b45f830184610892565b92915050565b5f80fd5b6108c781610881565b81146108d1575f80fd5b50565b5f813590506108e2816108be565b92915050565b5f602082840312156108fd576108fc6108ba565b5b5f61090a848285016108d4565b91505092915050565b5f819050919050565b61092581610913565b82525050565b5f60208201905061093e5f83018461091c565b92915050565b5f6040820190506109575f830185610892565b610964602083018461091c565b9392505050565b5f82825260208201905092915050565b7f4c6120737562617374612079612068612066696e616c697a61646f00000000005f82015250565b5f6109af601b8361096b565b91506109ba8261097b565b602082019050919050565b5f6020820190508181035f8301526109dc816109a3565b9050919050565b7f4e487b71000000000000000000000000000000000000000000000000000000005f52601160045260245ffd5b5f610a1a82610913565b9150610a2583610913565b9250828202610a3381610913565b91508282048414831517610a4a57610a496109e3565b5b5092915050565b7f4e487b71000000000000000000000000000000000000000000000000000000005f52601260045260245ffd5b5f610a8882610913565b9150610a9383610913565b925082610aa357610aa2610a51565b5b828204905092915050565b5f610ab882610913565b9150610ac383610913565b9250828201905080821115610adb57610ada6109e3565b5b92915050565b7f4c61206f66657274612064656265207375706572617220656e20616c206d656e5f8201527f6f7320756e203525206c61206f66657274612061637475616c00000000000000602082015250565b5f610b3b60398361096b565b9150610b4682610ae1565b604082019050919050565b5f6020820190508181035f830152610b6881610b2f565b9050919050565b5f610b7982610913565b9150610b8483610913565b9250828203905081811115610b9c57610b9b6109e3565b5b92915050565b7f4c6120737562617374612061756e2065737461206163746976610000000000005f82015250565b5f610bd6601a8361096b565b9150610be182610ba2565b602082019050919050565b5f6020820190508181035f830152610c0381610bca565b905091905056fea26469706673582212209ac08e366f1c57e05d76b19f766b94340033122513d846fa88c4e83d1db9993864736f6c634300081a0033",
					"opcodes": "PUSH1 0x80 PUSH1 0x40 MSTORE PUSH2 0x258 PUSH1 0x2 SSTORE PUSH1 0x5 PUSH1 0x3 SSTORE PUSH1 0x1 PUSH1 0x4 PUSH0 PUSH2 0x100 EXP DUP2 SLOAD DUP2 PUSH1 0xFF MUL NOT AND SWAP1 DUP4 ISZERO ISZERO MUL OR SWAP1 SSTORE POP PUSH8 0xDE0B6B3A7640000 PUSH1 0x5 SSTORE CALLVALUE DUP1 ISZERO PUSH2 0x40 JUMPI PUSH0 DUP1 REVERT JUMPDEST POP CALLER PUSH0 DUP1 PUSH2 0x100 EXP DUP2 SLOAD DUP2 PUSH20 0xFFFFFFFFFFFFFFFFFFFFFFFFFFFFFFFFFFFFFFFF MUL NOT AND SWAP1 DUP4 PUSH20 0xFFFFFFFFFFFFFFFFFFFFFFFFFFFFFFFFFFFFFFFF AND MUL OR SWAP1 SSTORE POP PUSH1 0x2 SLOAD TIMESTAMP PUSH2 0x8E SWAP2 SWAP1 PUSH2 0x1D2 JUMP JUMPDEST PUSH1 0x1 DUP2 SWAP1 SSTORE POP PUSH1 0x40 MLOAD DUP1 PUSH1 0x40 ADD PUSH1 0x40 MSTORE DUP1 PUSH0 DUP1 SLOAD SWAP1 PUSH2 0x100 EXP SWAP1 DIV PUSH20 0xFFFFFFFFFFFFFFFFFFFFFFFFFFFFFFFFFFFFFFFF AND PUSH20 0xFFFFFFFFFFFFFFFFFFFFFFFFFFFFFFFFFFFFFFFF AND DUP2 MSTORE PUSH1 0x20 ADD PUSH1 0x5 SLOAD DUP2 MSTORE POP PUSH1 0x6 PUSH0 DUP3 ADD MLOAD DUP2 PUSH0 ADD PUSH0 PUSH2 0x100 EXP DUP2 SLOAD DUP2 PUSH20 0xFFFFFFFFFFFFFFFFFFFFFFFFFFFFFFFFFFFFFFFF MUL NOT AND SWAP1 DUP4 PUSH20 0xFFFFFFFFFFFFFFFFFFFFFFFFFFFFFFFFFFFFFFFF AND MUL OR SWAP1 SSTORE POP PUSH1 0x20 DUP3 ADD MLOAD DUP2 PUSH1 0x1 ADD SSTORE SWAP1 POP POP PUSH1 0x5 SLOAD PUSH1 0x8 PUSH0 DUP1 PUSH0 SWAP1 SLOAD SWAP1 PUSH2 0x100 EXP SWAP1 DIV PUSH20 0xFFFFFFFFFFFFFFFFFFFFFFFFFFFFFFFFFFFFFFFF AND PUSH20 0xFFFFFFFFFFFFFFFFFFFFFFFFFFFFFFFFFFFFFFFF AND PUSH20 0xFFFFFFFFFFFFFFFFFFFFFFFFFFFFFFFFFFFFFFFF AND DUP2 MSTORE PUSH1 0x20 ADD SWAP1 DUP2 MSTORE PUSH1 0x20 ADD PUSH0 KECCAK256 DUP2 SWAP1 SSTORE POP PUSH2 0x205 JUMP JUMPDEST PUSH0 DUP2 SWAP1 POP SWAP2 SWAP1 POP JUMP JUMPDEST PUSH32 0x4E487B7100000000000000000000000000000000000000000000000000000000 PUSH0 MSTORE PUSH1 0x11 PUSH1 0x4 MSTORE PUSH1 0x24 PUSH0 REVERT JUMPDEST PUSH0 PUSH2 0x1DC DUP3 PUSH2 0x19C JUMP JUMPDEST SWAP2 POP PUSH2 0x1E7 DUP4 PUSH2 0x19C JUMP JUMPDEST SWAP3 POP DUP3 DUP3 ADD SWAP1 POP DUP1 DUP3 GT ISZERO PUSH2 0x1FF JUMPI PUSH2 0x1FE PUSH2 0x1A5 JUMP JUMPDEST JUMPDEST SWAP3 SWAP2 POP POP JUMP JUMPDEST PUSH2 0xC40 DUP1 PUSH2 0x212 PUSH0 CODECOPY PUSH0 RETURN INVALID PUSH1 0x80 PUSH1 0x40 MSTORE PUSH1 0x4 CALLDATASIZE LT PUSH2 0x9B JUMPI PUSH0 CALLDATALOAD PUSH1 0xE0 SHR DUP1 PUSH4 0x753DCAEB GT PUSH2 0x63 JUMPI DUP1 PUSH4 0x753DCAEB EQ PUSH2 0x163 JUMPI DUP1 PUSH4 0x8E3DF72E EQ PUSH2 0x18E JUMPI DUP1 PUSH4 0xACFC9F98 EQ PUSH2 0x1A4 JUMPI DUP1 PUSH4 0xC63049F8 EQ PUSH2 0x1CF JUMPI DUP1 PUSH4 0xCC14E31F EQ PUSH2 0x1F9 JUMPI DUP1 PUSH4 0xD1D7E96C EQ PUSH2 0x223 JUMPI PUSH2 0x9B JUMP JUMPDEST DUP1 PUSH4 0x2C5E5471 EQ PUSH2 0x9F JUMPI DUP1 PUSH4 0x3DFA138D EQ PUSH2 0xC9 JUMPI DUP1 PUSH4 0x3EC059D7 EQ PUSH2 0xF3 JUMPI DUP1 PUSH4 0x664E62B9 EQ PUSH2 0xFD JUMPI DUP1 PUSH4 0x71EA6D33 EQ PUSH2 0x139 JUMPI JUMPDEST PUSH0 DUP1 REVERT JUMPDEST CALLVALUE DUP1 ISZERO PUSH2 0xAA JUMPI PUSH0 DUP1 REVERT JUMPDEST POP PUSH2 0xB3 PUSH2 0x24D JUMP JUMPDEST PUSH1 0x40 MLOAD PUSH2 0xC0 SWAP2 SWAP1 PUSH2 0x849 JUMP JUMPDEST PUSH1 0x40 MLOAD DUP1 SWAP2 SUB SWAP1 RETURN JUMPDEST CALLVALUE DUP1 ISZERO PUSH2 0xD4 JUMPI PUSH0 DUP1 REVERT JUMPDEST POP PUSH2 0xDD PUSH2 0x25F JUMP JUMPDEST PUSH1 0x40 MLOAD PUSH2 0xEA SWAP2 SWAP1 PUSH2 0x8A1 JUMP JUMPDEST PUSH1 0x40 MLOAD DUP1 SWAP2 SUB SWAP1 RETURN JUMPDEST PUSH2 0xFB PUSH2 0x282 JUMP JUMPDEST STOP JUMPDEST CALLVALUE DUP1 ISZERO PUSH2 0x108 JUMPI PUSH0 DUP1 REVERT JUMPDEST POP PUSH2 0x123 PUSH1 0x4 DUP1 CALLDATASIZE SUB DUP2 ADD SWAP1 PUSH2 0x11E SWAP2 SWAP1 PUSH2 0x8E8 JUMP JUMPDEST PUSH2 0x69C JUMP JUMPDEST PUSH1 0x40 MLOAD PUSH2 0x130 SWAP2 SWAP1 PUSH2 0x92B JUMP JUMPDEST PUSH1 0x40 MLOAD DUP1 SWAP2 SUB SWAP1 RETURN JUMPDEST CALLVALUE DUP1 ISZERO PUSH2 0x144 JUMPI PUSH0 DUP1 REVERT JUMPDEST POP PUSH2 0x14D PUSH2 0x6B1 JUMP JUMPDEST PUSH1 0x40 MLOAD PUSH2 0x15A SWAP2 SWAP1 PUSH2 0x92B JUMP JUMPDEST PUSH1 0x40 MLOAD DUP1 SWAP2 SUB SWAP1 RETURN JUMPDEST CALLVALUE DUP1 ISZERO PUSH2 0x16E JUMPI PUSH0 DUP1 REVERT JUMPDEST POP PUSH2 0x177 PUSH2 0x6B7 JUMP JUMPDEST PUSH1 0x40 MLOAD PUSH2 0x185 SWAP3 SWAP2 SWAP1 PUSH2 0x944 JUMP JUMPDEST PUSH1 0x40 MLOAD DUP1 SWAP2 SUB SWAP1 RETURN JUMPDEST CALLVALUE DUP1 ISZERO PUSH2 0x199 JUMPI PUSH0 DUP1 REVERT JUMPDEST POP PUSH2 0x1A2 PUSH2 0x73A JUMP JUMPDEST STOP JUMPDEST CALLVALUE DUP1 ISZERO PUSH2 0x1AF JUMPI PUSH0 DUP1 REVERT JUMPDEST POP PUSH2 0x1B8 PUSH2 0x767 JUMP JUMPDEST PUSH1 0x40 MLOAD PUSH2 0x1C6 SWAP3 SWAP2 SWAP1 PUSH2 0x944 JUMP JUMPDEST PUSH1 0x40 MLOAD DUP1 SWAP2 SUB SWAP1 RETURN JUMPDEST CALLVALUE DUP1 ISZERO PUSH2 0x1DA JUMPI PUSH0 DUP1 REVERT JUMPDEST POP PUSH2 0x1E3 PUSH2 0x797 JUMP JUMPDEST PUSH1 0x40 MLOAD PUSH2 0x1F0 SWAP2 SWAP1 PUSH2 0x92B JUMP JUMPDEST PUSH1 0x40 MLOAD DUP1 SWAP2 SUB SWAP1 RETURN JUMPDEST CALLVALUE DUP1 ISZERO PUSH2 0x204 JUMPI PUSH0 DUP1 REVERT JUMPDEST POP PUSH2 0x20D PUSH2 0x79D JUMP JUMPDEST PUSH1 0x40 MLOAD PUSH2 0x21A SWAP2 SWAP1 PUSH2 0x92B JUMP JUMPDEST PUSH1 0x40 MLOAD DUP1 SWAP2 SUB SWAP1 RETURN JUMPDEST CALLVALUE DUP1 ISZERO PUSH2 0x22E JUMPI PUSH0 DUP1 REVERT JUMPDEST POP PUSH2 0x237 PUSH2 0x7A3 JUMP JUMPDEST PUSH1 0x40 MLOAD PUSH2 0x244 SWAP2 SWAP1 PUSH2 0x92B JUMP JUMPDEST PUSH1 0x40 MLOAD DUP1 SWAP2 SUB SWAP1 RETURN JUMPDEST PUSH1 0x4 PUSH0 SWAP1 SLOAD SWAP1 PUSH2 0x100 EXP SWAP1 DIV PUSH1 0xFF AND DUP2 JUMP JUMPDEST PUSH0 DUP1 SLOAD SWAP1 PUSH2 0x100 EXP SWAP1 DIV PUSH20 0xFFFFFFFFFFFFFFFFFFFFFFFFFFFFFFFFFFFFFFFF AND DUP2 JUMP JUMPDEST PUSH1 0x4 PUSH0 SWAP1 SLOAD SWAP1 PUSH2 0x100 EXP SWAP1 DIV PUSH1 0xFF AND DUP1 ISZERO PUSH2 0x29E JUMPI POP PUSH1 0x1 SLOAD TIMESTAMP LT JUMPDEST PUSH2 0x2DD JUMPI PUSH1 0x40 MLOAD PUSH32 0x8C379A000000000000000000000000000000000000000000000000000000000 DUP2 MSTORE PUSH1 0x4 ADD PUSH2 0x2D4 SWAP1 PUSH2 0x9C5 JUMP JUMPDEST PUSH1 0x40 MLOAD DUP1 SWAP2 SUB SWAP1 REVERT JUMPDEST PUSH0 PUSH1 0x64 PUSH1 0x3 SLOAD PUSH1 0x6 PUSH1 0x1 ADD SLOAD PUSH2 0x2F3 SWAP2 SWAP1 PUSH2 0xA10 JUMP JUMPDEST PUSH2 0x2FD SWAP2 SWAP1 PUSH2 0xA7E JUMP JUMPDEST PUSH1 0x6 PUSH1 0x1 ADD SLOAD PUSH2 0x30D SWAP2 SWAP1 PUSH2 0xAAE JUMP JUMPDEST SWAP1 POP DUP1 CALLVALUE GT PUSH2 0x351 JUMPI PUSH1 0x40 MLOAD PUSH32 0x8C379A000000000000000000000000000000000000000000000000000000000 DUP2 MSTORE PUSH1 0x4 ADD PUSH2 0x348 SWAP1 PUSH2 0xB51 JUMP JUMPDEST PUSH1 0x40 MLOAD DUP1 SWAP2 SUB SWAP1 REVERT JUMPDEST PUSH0 DUP1 SLOAD SWAP1 PUSH2 0x100 EXP SWAP1 DIV PUSH20 0xFFFFFFFFFFFFFFFFFFFFFFFFFFFFFFFFFFFFFFFF AND PUSH20 0xFFFFFFFFFFFFFFFFFFFFFFFFFFFFFFFFFFFFFFFF AND PUSH1 0x6 PUSH0 ADD PUSH0 SWAP1 SLOAD SWAP1 PUSH2 0x100 EXP SWAP1 DIV PUSH20 0xFFFFFFFFFFFFFFFFFFFFFFFFFFFFFFFFFFFFFFFF AND PUSH20 0xFFFFFFFFFFFFFFFFFFFFFFFFFFFFFFFFFFFFFFFF AND EQ PUSH2 0x57B JUMPI PUSH0 PUSH1 0x64 PUSH1 0x2 PUSH1 0x8 PUSH0 PUSH1 0x6 PUSH0 ADD PUSH0 SWAP1 SLOAD SWAP1 PUSH2 0x100 EXP SWAP1 DIV PUSH20 0xFFFFFFFFFFFFFFFFFFFFFFFFFFFFFFFFFFFFFFFF AND PUSH20 0xFFFFFFFFFFFFFFFFFFFFFFFFFFFFFFFFFFFFFFFF AND PUSH20 0xFFFFFFFFFFFFFFFFFFFFFFFFFFFFFFFFFFFFFFFF AND DUP2 MSTORE PUSH1 0x20 ADD SWAP1 DUP2 MSTORE PUSH1 0x20 ADD PUSH0 KECCAK256 SLOAD PUSH2 0x436 SWAP2 SWAP1 PUSH2 0xA10 JUMP JUMPDEST PUSH2 0x440 SWAP2 SWAP1 PUSH2 0xA7E JUMP JUMPDEST PUSH1 0x8 PUSH0 PUSH1 0x6 PUSH0 ADD PUSH0 SWAP1 SLOAD SWAP1 PUSH2 0x100 EXP SWAP1 DIV PUSH20 0xFFFFFFFFFFFFFFFFFFFFFFFFFFFFFFFFFFFFFFFF AND PUSH20 0xFFFFFFFFFFFFFFFFFFFFFFFFFFFFFFFFFFFFFFFF AND PUSH20 0xFFFFFFFFFFFFFFFFFFFFFFFFFFFFFFFFFFFFFFFF AND DUP2 MSTORE PUSH1 0x20 ADD SWAP1 DUP2 MSTORE PUSH1 0x20 ADD PUSH0 KECCAK256 SLOAD PUSH2 0x4AB SWAP2 SWAP1 PUSH2 0xB6F JUMP JUMPDEST SWAP1 POP PUSH1 0x6 PUSH0 ADD PUSH0 SWAP1 SLOAD SWAP1 PUSH2 0x100 EXP SWAP1 DIV PUSH20 0xFFFFFFFFFFFFFFFFFFFFFFFFFFFFFFFFFFFFFFFF AND PUSH20 0xFFFFFFFFFFFFFFFFFFFFFFFFFFFFFFFFFFFFFFFF AND PUSH2 0x8FC DUP3 SWAP1 DUP2 ISZERO MUL SWAP1 PUSH1 0x40 MLOAD PUSH0 PUSH1 0x40 MLOAD DUP1 DUP4 SUB DUP2 DUP6 DUP9 DUP9 CALL SWAP4 POP POP POP POP ISZERO DUP1 ISZERO PUSH2 0x513 JUMPI RETURNDATASIZE PUSH0 DUP1 RETURNDATACOPY RETURNDATASIZE PUSH0 REVERT JUMPDEST POP PUSH0 PUSH1 0x8 PUSH0 PUSH1 0x6 PUSH0 ADD PUSH0 SWAP1 SLOAD SWAP1 PUSH2 0x100 EXP SWAP1 DIV PUSH20 0xFFFFFFFFFFFFFFFFFFFFFFFFFFFFFFFFFFFFFFFF AND PUSH20 0xFFFFFFFFFFFFFFFFFFFFFFFFFFFFFFFFFFFFFFFF AND PUSH20 0xFFFFFFFFFFFFFFFFFFFFFFFFFFFFFFFFFFFFFFFF AND DUP2 MSTORE PUSH1 0x20 ADD SWAP1 DUP2 MSTORE PUSH1 0x20 ADD PUSH0 KECCAK256 DUP2 SWAP1 SSTORE POP POP JUMPDEST PUSH1 0x40 MLOAD DUP1 PUSH1 0x40 ADD PUSH1 0x40 MSTORE DUP1 CALLER PUSH20 0xFFFFFFFFFFFFFFFFFFFFFFFFFFFFFFFFFFFFFFFF AND DUP2 MSTORE PUSH1 0x20 ADD CALLVALUE DUP2 MSTORE POP PUSH1 0x6 PUSH0 DUP3 ADD MLOAD DUP2 PUSH0 ADD PUSH0 PUSH2 0x100 EXP DUP2 SLOAD DUP2 PUSH20 0xFFFFFFFFFFFFFFFFFFFFFFFFFFFFFFFFFFFFFFFF MUL NOT AND SWAP1 DUP4 PUSH20 0xFFFFFFFFFFFFFFFFFFFFFFFFFFFFFFFFFFFFFFFF AND MUL OR SWAP1 SSTORE POP PUSH1 0x20 DUP3 ADD MLOAD DUP2 PUSH1 0x1 ADD SSTORE SWAP1 POP POP CALLVALUE PUSH1 0x8 PUSH0 CALLER PUSH20 0xFFFFFFFFFFFFFFFFFFFFFFFFFFFFFFFFFFFFFFFF AND PUSH20 0xFFFFFFFFFFFFFFFFFFFFFFFFFFFFFFFFFFFFFFFF AND DUP2 MSTORE PUSH1 0x20 ADD SWAP1 DUP2 MSTORE PUSH1 0x20 ADD PUSH0 KECCAK256 PUSH0 DUP3 DUP3 SLOAD PUSH2 0x645 SWAP2 SWAP1 PUSH2 0xAAE JUMP JUMPDEST SWAP3 POP POP DUP2 SWAP1 SSTORE POP PUSH1 0x2 SLOAD TIMESTAMP PUSH2 0x65A SWAP2 SWAP1 PUSH2 0xAAE JUMP JUMPDEST PUSH1 0x1 DUP2 SWAP1 SSTORE POP PUSH32 0x155D469211F46E4D9AE974606F0878F9AACC6198BA30A1E6B9C8CF5627352FB5 CALLER CALLVALUE PUSH1 0x40 MLOAD PUSH2 0x691 SWAP3 SWAP2 SWAP1 PUSH2 0x944 JUMP JUMPDEST PUSH1 0x40 MLOAD DUP1 SWAP2 SUB SWAP1 LOG1 POP JUMP JUMPDEST PUSH1 0x8 PUSH1 0x20 MSTORE DUP1 PUSH0 MSTORE PUSH1 0x40 PUSH0 KECCAK256 PUSH0 SWAP2 POP SWAP1 POP SLOAD DUP2 JUMP JUMPDEST PUSH1 0x5 SLOAD DUP2 JUMP JUMPDEST PUSH0 DUP1 PUSH1 0x4 PUSH0 SWAP1 SLOAD SWAP1 PUSH2 0x100 EXP SWAP1 DIV PUSH1 0xFF AND ISZERO PUSH2 0x708 JUMPI PUSH1 0x40 MLOAD PUSH32 0x8C379A000000000000000000000000000000000000000000000000000000000 DUP2 MSTORE PUSH1 0x4 ADD PUSH2 0x6FF SWAP1 PUSH2 0xBEC JUMP JUMPDEST PUSH1 0x40 MLOAD DUP1 SWAP2 SUB SWAP1 REVERT JUMPDEST PUSH1 0x6 PUSH0 ADD PUSH0 SWAP1 SLOAD SWAP1 PUSH2 0x100 EXP SWAP1 DIV PUSH20 0xFFFFFFFFFFFFFFFFFFFFFFFFFFFFFFFFFFFFFFFF AND SWAP2 POP PUSH1 0x6 PUSH1 0x1 ADD SLOAD SWAP1 POP SWAP1 SWAP2 JUMP JUMPDEST PUSH1 0x1 SLOAD TIMESTAMP LT ISZERO DUP1 ISZERO PUSH2 0x757 JUMPI POP PUSH1 0x4 PUSH0 SWAP1 SLOAD SWAP1 PUSH2 0x100 EXP SWAP1 DIV PUSH1 0xFF AND JUMPDEST ISZERO PUSH2 0x765 JUMPI PUSH2 0x764 PUSH2 0x7A9 JUMP JUMPDEST JUMPDEST JUMP JUMPDEST PUSH1 0x6 DUP1 PUSH0 ADD PUSH0 SWAP1 SLOAD SWAP1 PUSH2 0x100 EXP SWAP1 DIV PUSH20 0xFFFFFFFFFFFFFFFFFFFFFFFFFFFFFFFFFFFFFFFF AND SWAP1 DUP1 PUSH1 0x1 ADD SLOAD SWAP1 POP DUP3 JUMP JUMPDEST PUSH1 0x1 SLOAD DUP2 JUMP JUMPDEST PUSH1 0x3 SLOAD DUP2 JUMP JUMPDEST PUSH1 0x2 SLOAD DUP2 JUMP JUMPDEST PUSH0 PUSH1 0x4 PUSH0 PUSH2 0x100 EXP DUP2 SLOAD DUP2 PUSH1 0xFF MUL NOT AND SWAP1 DUP4 ISZERO ISZERO MUL OR SWAP1 SSTORE POP PUSH0 PUSH1 0x6 PUSH0 ADD PUSH0 SWAP1 SLOAD SWAP1 PUSH2 0x100 EXP SWAP1 DIV PUSH20 0xFFFFFFFFFFFFFFFFFFFFFFFFFFFFFFFFFFFFFFFF AND SWAP1 POP PUSH0 PUSH1 0x6 PUSH1 0x1 ADD SLOAD SWAP1 POP PUSH32 0xA3A65B403BDAE88EB037F4ECC1D619F436FC3EF6BCBBEE3787757164E82883F2 DUP3 DUP3 PUSH1 0x40 MLOAD PUSH2 0x823 SWAP3 SWAP2 SWAP1 PUSH2 0x944 JUMP JUMPDEST PUSH1 0x40 MLOAD DUP1 SWAP2 SUB SWAP1 LOG1 POP POP JUMP JUMPDEST PUSH0 DUP2 ISZERO ISZERO SWAP1 POP SWAP2 SWAP1 POP JUMP JUMPDEST PUSH2 0x843 DUP2 PUSH2 0x82F JUMP JUMPDEST DUP3 MSTORE POP POP JUMP JUMPDEST PUSH0 PUSH1 0x20 DUP3 ADD SWAP1 POP PUSH2 0x85C PUSH0 DUP4 ADD DUP5 PUSH2 0x83A JUMP JUMPDEST SWAP3 SWAP2 POP POP JUMP JUMPDEST PUSH0 PUSH20 0xFFFFFFFFFFFFFFFFFFFFFFFFFFFFFFFFFFFFFFFF DUP3 AND SWAP1 POP SWAP2 SWAP1 POP JUMP JUMPDEST PUSH0 PUSH2 0x88B DUP3 PUSH2 0x862 JUMP JUMPDEST SWAP1 POP SWAP2 SWAP1 POP JUMP JUMPDEST PUSH2 0x89B DUP2 PUSH2 0x881 JUMP JUMPDEST DUP3 MSTORE POP POP JUMP JUMPDEST PUSH0 PUSH1 0x20 DUP3 ADD SWAP1 POP PUSH2 0x8B4 PUSH0 DUP4 ADD DUP5 PUSH2 0x892 JUMP JUMPDEST SWAP3 SWAP2 POP POP JUMP JUMPDEST PUSH0 DUP1 REVERT JUMPDEST PUSH2 0x8C7 DUP2 PUSH2 0x881 JUMP JUMPDEST DUP2 EQ PUSH2 0x8D1 JUMPI PUSH0 DUP1 REVERT JUMPDEST POP JUMP JUMPDEST PUSH0 DUP2 CALLDATALOAD SWAP1 POP PUSH2 0x8E2 DUP2 PUSH2 0x8BE JUMP JUMPDEST SWAP3 SWAP2 POP POP JUMP JUMPDEST PUSH0 PUSH1 0x20 DUP3 DUP5 SUB SLT ISZERO PUSH2 0x8FD JUMPI PUSH2 0x8FC PUSH2 0x8BA JUMP JUMPDEST JUMPDEST PUSH0 PUSH2 0x90A DUP5 DUP3 DUP6 ADD PUSH2 0x8D4 JUMP JUMPDEST SWAP2 POP POP SWAP3 SWAP2 POP POP JUMP JUMPDEST PUSH0 DUP2 SWAP1 POP SWAP2 SWAP1 POP JUMP JUMPDEST PUSH2 0x925 DUP2 PUSH2 0x913 JUMP JUMPDEST DUP3 MSTORE POP POP JUMP JUMPDEST PUSH0 PUSH1 0x20 DUP3 ADD SWAP1 POP PUSH2 0x93E PUSH0 DUP4 ADD DUP5 PUSH2 0x91C JUMP JUMPDEST SWAP3 SWAP2 POP POP JUMP JUMPDEST PUSH0 PUSH1 0x40 DUP3 ADD SWAP1 POP PUSH2 0x957 PUSH0 DUP4 ADD DUP6 PUSH2 0x892 JUMP JUMPDEST PUSH2 0x964 PUSH1 0x20 DUP4 ADD DUP5 PUSH2 0x91C JUMP JUMPDEST SWAP4 SWAP3 POP POP POP JUMP JUMPDEST PUSH0 DUP3 DUP3 MSTORE PUSH1 0x20 DUP3 ADD SWAP1 POP SWAP3 SWAP2 POP POP JUMP JUMPDEST PUSH32 0x4C6120737562617374612079612068612066696E616C697A61646F0000000000 PUSH0 DUP3 ADD MSTORE POP JUMP JUMPDEST PUSH0 PUSH2 0x9AF PUSH1 0x1B DUP4 PUSH2 0x96B JUMP JUMPDEST SWAP2 POP PUSH2 0x9BA DUP3 PUSH2 0x97B JUMP JUMPDEST PUSH1 0x20 DUP3 ADD SWAP1 POP SWAP2 SWAP1 POP JUMP JUMPDEST PUSH0 PUSH1 0x20 DUP3 ADD SWAP1 POP DUP2 DUP2 SUB PUSH0 DUP4 ADD MSTORE PUSH2 0x9DC DUP2 PUSH2 0x9A3 JUMP JUMPDEST SWAP1 POP SWAP2 SWAP1 POP JUMP JUMPDEST PUSH32 0x4E487B7100000000000000000000000000000000000000000000000000000000 PUSH0 MSTORE PUSH1 0x11 PUSH1 0x4 MSTORE PUSH1 0x24 PUSH0 REVERT JUMPDEST PUSH0 PUSH2 0xA1A DUP3 PUSH2 0x913 JUMP JUMPDEST SWAP2 POP PUSH2 0xA25 DUP4 PUSH2 0x913 JUMP JUMPDEST SWAP3 POP DUP3 DUP3 MUL PUSH2 0xA33 DUP2 PUSH2 0x913 JUMP JUMPDEST SWAP2 POP DUP3 DUP3 DIV DUP5 EQ DUP4 ISZERO OR PUSH2 0xA4A JUMPI PUSH2 0xA49 PUSH2 0x9E3 JUMP JUMPDEST JUMPDEST POP SWAP3 SWAP2 POP POP JUMP JUMPDEST PUSH32 0x4E487B7100000000000000000000000000000000000000000000000000000000 PUSH0 MSTORE PUSH1 0x12 PUSH1 0x4 MSTORE PUSH1 0x24 PUSH0 REVERT JUMPDEST PUSH0 PUSH2 0xA88 DUP3 PUSH2 0x913 JUMP JUMPDEST SWAP2 POP PUSH2 0xA93 DUP4 PUSH2 0x913 JUMP JUMPDEST SWAP3 POP DUP3 PUSH2 0xAA3 JUMPI PUSH2 0xAA2 PUSH2 0xA51 JUMP JUMPDEST JUMPDEST DUP3 DUP3 DIV SWAP1 POP SWAP3 SWAP2 POP POP JUMP JUMPDEST PUSH0 PUSH2 0xAB8 DUP3 PUSH2 0x913 JUMP JUMPDEST SWAP2 POP PUSH2 0xAC3 DUP4 PUSH2 0x913 JUMP JUMPDEST SWAP3 POP DUP3 DUP3 ADD SWAP1 POP DUP1 DUP3 GT ISZERO PUSH2 0xADB JUMPI PUSH2 0xADA PUSH2 0x9E3 JUMP JUMPDEST JUMPDEST SWAP3 SWAP2 POP POP JUMP JUMPDEST PUSH32 0x4C61206F66657274612064656265207375706572617220656E20616C206D656E PUSH0 DUP3 ADD MSTORE PUSH32 0x6F7320756E203525206C61206F66657274612061637475616C00000000000000 PUSH1 0x20 DUP3 ADD MSTORE POP JUMP JUMPDEST PUSH0 PUSH2 0xB3B PUSH1 0x39 DUP4 PUSH2 0x96B JUMP JUMPDEST SWAP2 POP PUSH2 0xB46 DUP3 PUSH2 0xAE1 JUMP JUMPDEST PUSH1 0x40 DUP3 ADD SWAP1 POP SWAP2 SWAP1 POP JUMP JUMPDEST PUSH0 PUSH1 0x20 DUP3 ADD SWAP1 POP DUP2 DUP2 SUB PUSH0 DUP4 ADD MSTORE PUSH2 0xB68 DUP2 PUSH2 0xB2F JUMP JUMPDEST SWAP1 POP SWAP2 SWAP1 POP JUMP JUMPDEST PUSH0 PUSH2 0xB79 DUP3 PUSH2 0x913 JUMP JUMPDEST SWAP2 POP PUSH2 0xB84 DUP4 PUSH2 0x913 JUMP JUMPDEST SWAP3 POP DUP3 DUP3 SUB SWAP1 POP DUP2 DUP2 GT ISZERO PUSH2 0xB9C JUMPI PUSH2 0xB9B PUSH2 0x9E3 JUMP JUMPDEST JUMPDEST SWAP3 SWAP2 POP POP JUMP JUMPDEST PUSH32 0x4C6120737562617374612061756E206573746120616374697661000000000000 PUSH0 DUP3 ADD MSTORE POP JUMP JUMPDEST PUSH0 PUSH2 0xBD6 PUSH1 0x1A DUP4 PUSH2 0x96B JUMP JUMPDEST SWAP2 POP PUSH2 0xBE1 DUP3 PUSH2 0xBA2 JUMP JUMPDEST PUSH1 0x20 DUP3 ADD SWAP1 POP SWAP2 SWAP1 POP JUMP JUMPDEST PUSH0 PUSH1 0x20 DUP3 ADD SWAP1 POP DUP2 DUP2 SUB PUSH0 DUP4 ADD MSTORE PUSH2 0xC03 DUP2 PUSH2 0xBCA JUMP JUMPDEST SWAP1 POP SWAP2 SWAP1 POP JUMP INVALID LOG2 PUSH5 0x6970667358 0x22 SLT KECCAK256 SWAP11 0xC0 DUP15 CALLDATASIZE PUSH16 0x1C57E05D76B19F766B94340033122513 0xD8 CHAINID STATICCALL DUP9 0xC4 0xE8 RETURNDATASIZE SAR 0xB9 SWAP10 CODESIZE PUSH5 0x736F6C6343 STOP ADDMOD BYTE STOP CALLER "
				},
				"gasEstimates": {
					"creation": {
						"codeDepositCost": "627200",
						"executionCost": "infinite",
						"totalCost": "infinite"
					},
					"external": {
						"activa()": "2467",
						"depositos(address)": "2869",
						"duracionSubasta()": "2535",
						"mejorOferta()": "4776",
						"mostrarGanador()": "6894",
						"ofertaInicial()": "2514",
						"ofertar()": "infinite",
						"porcentajeIncremento()": "2513",
						"subastador()": "2528",
						"tiempoFinal()": "2491",
						"verificarFinalizacionSubasta()": "34606"
					},
					"internal": {
						"finalizarSubasta()": "infinite"
					}
				},
				"methodIdentifiers": {
					"activa()": "2c5e5471",
					"depositos(address)": "664e62b9",
					"duracionSubasta()": "d1d7e96c",
					"mejorOferta()": "acfc9f98",
					"mostrarGanador()": "753dcaeb",
					"ofertaInicial()": "71ea6d33",
					"ofertar()": "3ec059d7",
					"porcentajeIncremento()": "cc14e31f",
					"subastador()": "3dfa138d",
					"tiempoFinal()": "c63049f8",
					"verificarFinalizacionSubasta()": "8e3df72e"
				}
			},
			"storageLayout": {
				"storage": [
					{
						"astId": 3,
						"contract": "subasta3.sol:Subasta",
						"label": "subastador",
						"offset": 0,
						"slot": "0",
						"type": "t_address"
					},
					{
						"astId": 5,
						"contract": "subasta3.sol:Subasta",
						"label": "tiempoFinal",
						"offset": 0,
						"slot": "1",
						"type": "t_uint256"
					},
					{
						"astId": 8,
						"contract": "subasta3.sol:Subasta",
						"label": "duracionSubasta",
						"offset": 0,
						"slot": "2",
						"type": "t_uint256"
					},
					{
						"astId": 11,
						"contract": "subasta3.sol:Subasta",
						"label": "porcentajeIncremento",
						"offset": 0,
						"slot": "3",
						"type": "t_uint256"
					},
					{
						"astId": 14,
						"contract": "subasta3.sol:Subasta",
						"label": "activa",
						"offset": 0,
						"slot": "4",
						"type": "t_bool"
					},
					{
						"astId": 17,
						"contract": "subasta3.sol:Subasta",
						"label": "ofertaInicial",
						"offset": 0,
						"slot": "5",
						"type": "t_uint256"
					},
					{
						"astId": 25,
						"contract": "subasta3.sol:Subasta",
						"label": "mejorOferta",
						"offset": 0,
						"slot": "6",
						"type": "t_struct(Oferta)22_storage"
					},
					{
						"astId": 29,
						"contract": "subasta3.sol:Subasta",
						"label": "depositos",
						"offset": 0,
						"slot": "8",
						"type": "t_mapping(t_address,t_uint256)"
					}
				],
				"types": {
					"t_address": {
						"encoding": "inplace",
						"label": "address",
						"numberOfBytes": "20"
					},
					"t_bool": {
						"encoding": "inplace",
						"label": "bool",
						"numberOfBytes": "1"
					},
					"t_mapping(t_address,t_uint256)": {
						"encoding": "mapping",
						"key": "t_address",
						"label": "mapping(address => uint256)",
						"numberOfBytes": "32",
						"value": "t_uint256"
					},
					"t_struct(Oferta)22_storage": {
						"encoding": "inplace",
						"label": "struct Subasta.Oferta",
						"members": [
							{
								"astId": 19,
								"contract": "subasta3.sol:Subasta",
								"label": "ofertante",
								"offset": 0,
								"slot": "0",
								"type": "t_address"
							},
							{
								"astId": 21,
								"contract": "subasta3.sol:Subasta",
								"label": "cantidad",
								"offset": 0,
								"slot": "1",
								"type": "t_uint256"
							}
						],
						"numberOfBytes": "64"
					},
					"t_uint256": {
						"encoding": "inplace",
						"label": "uint256",
						"numberOfBytes": "32"
					}
				}
			},
			"userdoc": {
				"kind": "user",
				"methods": {},
				"version": 1
			}
		}
	}
}