{
	"subastaGas.sol": {
		"Auction": {
			"abi": [
				{
					"inputs": [
						{
							"internalType": "uint256",
							"name": "_initialBid",
							"type": "uint256"
						}
					],
					"stateMutability": "nonpayable",
					"type": "constructor"
				},
				{
					"anonymous": false,
					"inputs": [
						{
							"indexed": false,
							"internalType": "address",
							"name": "winner",
							"type": "address"
						},
						{
							"indexed": false,
							"internalType": "uint256",
							"name": "winningAmount",
							"type": "uint256"
						}
					],
					"name": "AuctionEnded",
					"type": "event"
				},
				{
					"anonymous": false,
					"inputs": [
						{
							"indexed": true,
							"internalType": "address",
							"name": "bidder",
							"type": "address"
						},
						{
							"indexed": false,
							"internalType": "uint256",
							"name": "amount",
							"type": "uint256"
						}
					],
					"name": "NewBid",
					"type": "event"
				},
				{
					"inputs": [],
					"name": "auctionActive",
					"outputs": [
						{
							"internalType": "bool",
							"name": "",
							"type": "bool"
						}
					],
					"stateMutability": "view",
					"type": "function"
				},
				{
					"inputs": [],
					"name": "auctioneer",
					"outputs": [
						{
							"internalType": "address",
							"name": "",
							"type": "address"
						}
					],
					"stateMutability": "view",
					"type": "function"
				},
				{
					"inputs": [],
					"name": "bid",
					"outputs": [],
					"stateMutability": "payable",
					"type": "function"
				},
				{
					"inputs": [],
					"name": "endAuction",
					"outputs": [],
					"stateMutability": "nonpayable",
					"type": "function"
				},
				{
					"inputs": [],
					"name": "endTime",
					"outputs": [
						{
							"internalType": "uint256",
							"name": "",
							"type": "uint256"
						}
					],
					"stateMutability": "view",
					"type": "function"
				},
				{
					"inputs": [],
					"name": "gasCommission",
					"outputs": [
						{
							"internalType": "uint256",
							"name": "",
							"type": "uint256"
						}
					],
					"stateMutability": "view",
					"type": "function"
				},
				{
					"inputs": [],
					"name": "highestBid",
					"outputs": [
						{
							"internalType": "uint256",
							"name": "",
							"type": "uint256"
						}
					],
					"stateMutability": "view",
					"type": "function"
				},
				{
					"inputs": [],
					"name": "highestBidder",
					"outputs": [
						{
							"internalType": "address",
							"name": "",
							"type": "address"
						}
					],
					"stateMutability": "view",
					"type": "function"
				},
				{
					"inputs": [],
					"name": "minimumBid",
					"outputs": [
						{
							"internalType": "uint256",
							"name": "",
							"type": "uint256"
						}
					],
					"stateMutability": "view",
					"type": "function"
				},
				{
					"inputs": [],
					"name": "withdraw",
					"outputs": [],
					"stateMutability": "nonpayable",
					"type": "function"
				}
			],
			"devdoc": {
				"kind": "dev",
				"methods": {},
				"version": 1
			},
			"evm": {
				"assembly": "    /* \"subastaGas.sol\":60:2360  contract Auction {... */\n  mstore(0x40, 0x80)\n    /* \"subastaGas.sol\":199:200  2 */\n  0x02\n    /* \"subastaGas.sol\":171:200  uint public gasCommission = 2 */\n  0x03\n  sstore\n    /* \"subastaGas.sol\":430:718  constructor(uint _initialBid) {... */\n  callvalue\n  dup1\n  iszero\n  tag_1\n  jumpi\n  0x00\n  dup1\n  revert\ntag_1:\n  pop\n  mload(0x40)\n  sub(codesize, bytecodeSize)\n  dup1\n  bytecodeSize\n  dup4\n  codecopy\n  dup2\n  dup2\n  add\n  0x40\n  mstore\n  dup2\n  add\n  swap1\n  tag_2\n  swap2\n  swap1\n  tag_3\n  jump\t// in\ntag_2:\n    /* \"subastaGas.sol\":484:494  msg.sender */\n  caller\n    /* \"subastaGas.sol\":471:481  auctioneer */\n  0x00\n  dup1\n    /* \"subastaGas.sol\":471:494  auctioneer = msg.sender */\n  0x0100\n  exp\n  dup2\n  sload\n  dup2\n  0xffffffffffffffffffffffffffffffffffffffff\n  mul\n  not\n  and\n  swap1\n  dup4\n  0xffffffffffffffffffffffffffffffffffffffff\n  and\n  mul\n  or\n  swap1\n  sstore\n  pop\n    /* \"subastaGas.sol\":518:529  _initialBid */\n  dup1\n    /* \"subastaGas.sol\":505:515  minimumBid */\n  0x02\n    /* \"subastaGas.sol\":505:529  minimumBid = _initialBid */\n  dup2\n  swap1\n  sstore\n  pop\n    /* \"subastaGas.sol\":556:560  true */\n  0x01\n    /* \"subastaGas.sol\":540:553  auctionActive */\n  0x04\n  0x00\n    /* \"subastaGas.sol\":540:560  auctionActive = true */\n  0x0100\n  exp\n  dup2\n  sload\n  dup2\n  0xff\n  mul\n  not\n  and\n  swap1\n  dup4\n  iszero\n  iszero\n  mul\n  or\n  swap1\n  sstore\n  pop\n    /* \"subastaGas.sol\":599:605  1 days */\n  0x015180\n    /* \"subastaGas.sol\":581:596  block.timestamp */\n  timestamp\n    /* \"subastaGas.sol\":581:605  block.timestamp + 1 days */\n  tag_6\n  swap2\n  swap1\n  tag_7\n  jump\t// in\ntag_6:\n    /* \"subastaGas.sol\":571:578  endTime */\n  0x01\n    /* \"subastaGas.sol\":571:605  endTime = block.timestamp + 1 days */\n  dup2\n  swap1\n  sstore\n  pop\n    /* \"subastaGas.sol\":665:675  msg.sender */\n  caller\n    /* \"subastaGas.sol\":649:662  highestBidder */\n  0x04\n  0x01\n    /* \"subastaGas.sol\":649:675  highestBidder = msg.sender */\n  0x0100\n  exp\n  dup2\n  sload\n  dup2\n  0xffffffffffffffffffffffffffffffffffffffff\n  mul\n  not\n  and\n  swap1\n  dup4\n  0xffffffffffffffffffffffffffffffffffffffff\n  and\n  mul\n  or\n  swap1\n  sstore\n  pop\n    /* \"subastaGas.sol\":699:710  _initialBid */\n  dup1\n    /* \"subastaGas.sol\":686:696  highestBid */\n  0x05\n    /* \"subastaGas.sol\":686:710  highestBid = _initialBid */\n  dup2\n  swap1\n  sstore\n  pop\n    /* \"subastaGas.sol\":430:718  constructor(uint _initialBid) {... */\n  pop\n    /* \"subastaGas.sol\":60:2360  contract Auction {... */\n  jump(tag_8)\n    /* \"#utility.yul\":88:205   */\ntag_10:\n    /* \"#utility.yul\":197:198   */\n  0x00\n    /* \"#utility.yul\":194:195   */\n  dup1\n    /* \"#utility.yul\":187:199   */\n  revert\n    /* \"#utility.yul\":334:411   */\ntag_12:\n    /* \"#utility.yul\":371:378   */\n  0x00\n    /* \"#utility.yul\":400:405   */\n  dup2\n    /* \"#utility.yul\":389:405   */\n  swap1\n  pop\n    /* \"#utility.yul\":334:411   */\n  swap2\n  swap1\n  pop\n  jump\t// out\n    /* \"#utility.yul\":417:539   */\ntag_13:\n    /* \"#utility.yul\":490:514   */\n  tag_22\n    /* \"#utility.yul\":508:513   */\n  dup2\n    /* \"#utility.yul\":490:514   */\n  tag_12\n  jump\t// in\ntag_22:\n    /* \"#utility.yul\":483:488   */\n  dup2\n    /* \"#utility.yul\":480:515   */\n  eq\n    /* \"#utility.yul\":470:533   */\n  tag_23\n  jumpi\n    /* \"#utility.yul\":529:530   */\n  0x00\n    /* \"#utility.yul\":526:527   */\n  dup1\n    /* \"#utility.yul\":519:531   */\n  revert\n    /* \"#utility.yul\":470:533   */\ntag_23:\n    /* \"#utility.yul\":417:539   */\n  pop\n  jump\t// out\n    /* \"#utility.yul\":545:688   */\ntag_14:\n    /* \"#utility.yul\":602:607   */\n  0x00\n    /* \"#utility.yul\":633:639   */\n  dup2\n    /* \"#utility.yul\":627:640   */\n  mload\n    /* \"#utility.yul\":618:640   */\n  swap1\n  pop\n    /* \"#utility.yul\":649:682   */\n  tag_25\n    /* \"#utility.yul\":676:681   */\n  dup2\n    /* \"#utility.yul\":649:682   */\n  tag_13\n  jump\t// in\ntag_25:\n    /* \"#utility.yul\":545:688   */\n  swap3\n  swap2\n  pop\n  pop\n  jump\t// out\n    /* \"#utility.yul\":694:1045   */\ntag_3:\n    /* \"#utility.yul\":764:770   */\n  0x00\n    /* \"#utility.yul\":813:815   */\n  0x20\n    /* \"#utility.yul\":801:810   */\n  dup3\n    /* \"#utility.yul\":792:799   */\n  dup5\n    /* \"#utility.yul\":788:811   */\n  sub\n    /* \"#utility.yul\":784:816   */\n  slt\n    /* \"#utility.yul\":781:900   */\n  iszero\n  tag_27\n  jumpi\n    /* \"#utility.yul\":819:898   */\n  tag_28\n  tag_10\n  jump\t// in\ntag_28:\n    /* \"#utility.yul\":781:900   */\ntag_27:\n    /* \"#utility.yul\":939:940   */\n  0x00\n    /* \"#utility.yul\":964:1028   */\n  tag_29\n    /* \"#utility.yul\":1020:1027   */\n  dup5\n    /* \"#utility.yul\":1011:1017   */\n  dup3\n    /* \"#utility.yul\":1000:1009   */\n  dup6\n    /* \"#utility.yul\":996:1018   */\n  add\n    /* \"#utility.yul\":964:1028   */\n  tag_14\n  jump\t// in\ntag_29:\n    /* \"#utility.yul\":954:1028   */\n  swap2\n  pop\n    /* \"#utility.yul\":910:1038   */\n  pop\n    /* \"#utility.yul\":694:1045   */\n  swap3\n  swap2\n  pop\n  pop\n  jump\t// out\n    /* \"#utility.yul\":1051:1231   */\ntag_15:\n    /* \"#utility.yul\":1099:1176   */\n  0x4e487b7100000000000000000000000000000000000000000000000000000000\n    /* \"#utility.yul\":1096:1097   */\n  0x00\n    /* \"#utility.yul\":1089:1177   */\n  mstore\n    /* \"#utility.yul\":1196:1200   */\n  0x11\n    /* \"#utility.yul\":1193:1194   */\n  0x04\n    /* \"#utility.yul\":1186:1201   */\n  mstore\n    /* \"#utility.yul\":1220:1224   */\n  0x24\n    /* \"#utility.yul\":1217:1218   */\n  0x00\n    /* \"#utility.yul\":1210:1225   */\n  revert\n    /* \"#utility.yul\":1237:1428   */\ntag_7:\n    /* \"#utility.yul\":1277:1280   */\n  0x00\n    /* \"#utility.yul\":1296:1316   */\n  tag_32\n    /* \"#utility.yul\":1314:1315   */\n  dup3\n    /* \"#utility.yul\":1296:1316   */\n  tag_12\n  jump\t// in\ntag_32:\n    /* \"#utility.yul\":1291:1316   */\n  swap2\n  pop\n    /* \"#utility.yul\":1330:1350   */\n  tag_33\n    /* \"#utility.yul\":1348:1349   */\n  dup4\n    /* \"#utility.yul\":1330:1350   */\n  tag_12\n  jump\t// in\ntag_33:\n    /* \"#utility.yul\":1325:1350   */\n  swap3\n  pop\n    /* \"#utility.yul\":1373:1374   */\n  dup3\n    /* \"#utility.yul\":1370:1371   */\n  dup3\n    /* \"#utility.yul\":1366:1375   */\n  add\n    /* \"#utility.yul\":1359:1375   */\n  swap1\n  pop\n    /* \"#utility.yul\":1394:1397   */\n  dup1\n    /* \"#utility.yul\":1391:1392   */\n  dup3\n    /* \"#utility.yul\":1388:1398   */\n  gt\n    /* \"#utility.yul\":1385:1421   */\n  iszero\n  tag_34\n  jumpi\n    /* \"#utility.yul\":1401:1419   */\n  tag_35\n  tag_15\n  jump\t// in\ntag_35:\n    /* \"#utility.yul\":1385:1421   */\ntag_34:\n    /* \"#utility.yul\":1237:1428   */\n  swap3\n  swap2\n  pop\n  pop\n  jump\t// out\n    /* \"subastaGas.sol\":60:2360  contract Auction {... */\ntag_8:\n  dataSize(sub_0)\n  dup1\n  dataOffset(sub_0)\n  0x00\n  codecopy\n  0x00\n  return\nstop\n\nsub_0: assembly {\n        /* \"subastaGas.sol\":60:2360  contract Auction {... */\n      mstore(0x40, 0x80)\n      jumpi(tag_1, lt(calldatasize, 0x04))\n      shr(0xe0, calldataload(0x00))\n      dup1\n      0x91f90157\n      gt\n      tag_12\n      jumpi\n      dup1\n      0x91f90157\n      eq\n      tag_7\n      jumpi\n      dup1\n      0x92228006\n      eq\n      tag_8\n      jumpi\n      dup1\n      0xd3a86386\n      eq\n      tag_9\n      jumpi\n      dup1\n      0xd57bde79\n      eq\n      tag_10\n      jumpi\n      dup1\n      0xfe67a54b\n      eq\n      tag_11\n      jumpi\n      jump(tag_1)\n    tag_12:\n      dup1\n      0x1998aeef\n      eq\n      tag_2\n      jumpi\n      dup1\n      0x3197cbb6\n      eq\n      tag_3\n      jumpi\n      dup1\n      0x37072780\n      eq\n      tag_4\n      jumpi\n      dup1\n      0x3ccfd60b\n      eq\n      tag_5\n      jumpi\n      dup1\n      0x5ec2c7bf\n      eq\n      tag_6\n      jumpi\n    tag_1:\n      0x00\n      dup1\n      revert\n        /* \"subastaGas.sol\":990:1728  function bid() external payable onlyWhileActive {... */\n    tag_2:\n      tag_13\n      tag_14\n      jump\t// in\n    tag_13:\n      stop\n        /* \"subastaGas.sol\":116:135  uint public endTime */\n    tag_3:\n      callvalue\n      dup1\n      iszero\n      tag_15\n      jumpi\n      0x00\n      dup1\n      revert\n    tag_15:\n      pop\n      tag_16\n      tag_17\n      jump\t// in\n    tag_16:\n      mload(0x40)\n      tag_18\n      swap2\n      swap1\n      tag_19\n      jump\t// in\n    tag_18:\n      mload(0x40)\n      dup1\n      swap2\n      sub\n      swap1\n      return\n        /* \"subastaGas.sol\":171:200  uint public gasCommission = 2 */\n    tag_4:\n      callvalue\n      dup1\n      iszero\n      tag_20\n      jumpi\n      0x00\n      dup1\n      revert\n    tag_20:\n      pop\n      tag_21\n      tag_22\n      jump\t// in\n    tag_21:\n      mload(0x40)\n      tag_23\n      swap2\n      swap1\n      tag_19\n      jump\t// in\n    tag_23:\n      mload(0x40)\n      dup1\n      swap2\n      sub\n      swap1\n      return\n        /* \"subastaGas.sol\":2020:2357  function withdraw() external onlyAuctioneer {... */\n    tag_5:\n      callvalue\n      dup1\n      iszero\n      tag_24\n      jumpi\n      0x00\n      dup1\n      revert\n    tag_24:\n      pop\n      tag_25\n      tag_26\n      jump\t// in\n    tag_25:\n      stop\n        /* \"subastaGas.sol\":84:109  address public auctioneer */\n    tag_6:\n      callvalue\n      dup1\n      iszero\n      tag_27\n      jumpi\n      0x00\n      dup1\n      revert\n    tag_27:\n      pop\n      tag_28\n      tag_29\n      jump\t// in\n    tag_28:\n      mload(0x40)\n      tag_30\n      swap2\n      swap1\n      tag_31\n      jump\t// in\n    tag_30:\n      mload(0x40)\n      dup1\n      swap2\n      sub\n      swap1\n      return\n        /* \"subastaGas.sol\":245:273  address public highestBidder */\n    tag_7:\n      callvalue\n      dup1\n      iszero\n      tag_32\n      jumpi\n      0x00\n      dup1\n      revert\n    tag_32:\n      pop\n      tag_33\n      tag_34\n      jump\t// in\n    tag_33:\n      mload(0x40)\n      tag_35\n      swap2\n      swap1\n      tag_31\n      jump\t// in\n    tag_35:\n      mload(0x40)\n      dup1\n      swap2\n      sub\n      swap1\n      return\n        /* \"subastaGas.sol\":213:238  bool public auctionActive */\n    tag_8:\n      callvalue\n      dup1\n      iszero\n      tag_36\n      jumpi\n      0x00\n      dup1\n      revert\n    tag_36:\n      pop\n      tag_37\n      tag_38\n      jump\t// in\n    tag_37:\n      mload(0x40)\n      tag_39\n      swap2\n      swap1\n      tag_40\n      jump\t// in\n    tag_39:\n      mload(0x40)\n      dup1\n      swap2\n      sub\n      swap1\n      return\n        /* \"subastaGas.sol\":142:164  uint public minimumBid */\n    tag_9:\n      callvalue\n      dup1\n      iszero\n      tag_41\n      jumpi\n      0x00\n      dup1\n      revert\n    tag_41:\n      pop\n      tag_42\n      tag_43\n      jump\t// in\n    tag_42:\n      mload(0x40)\n      tag_44\n      swap2\n      swap1\n      tag_19\n      jump\t// in\n    tag_44:\n      mload(0x40)\n      dup1\n      swap2\n      sub\n      swap1\n      return\n        /* \"subastaGas.sol\":280:302  uint public highestBid */\n    tag_10:\n      callvalue\n      dup1\n      iszero\n      tag_45\n      jumpi\n      0x00\n      dup1\n      revert\n    tag_45:\n      pop\n      tag_46\n      tag_47\n      jump\t// in\n    tag_46:\n      mload(0x40)\n      tag_48\n      swap2\n      swap1\n      tag_19\n      jump\t// in\n    tag_48:\n      mload(0x40)\n      dup1\n      swap2\n      sub\n      swap1\n      return\n        /* \"subastaGas.sol\":1736:2012  function endAuction() external onlyAuctioneer {... */\n    tag_11:\n      callvalue\n      dup1\n      iszero\n      tag_49\n      jumpi\n      0x00\n      dup1\n      revert\n    tag_49:\n      pop\n      tag_50\n      tag_51\n      jump\t// in\n    tag_50:\n      stop\n        /* \"subastaGas.sol\":990:1728  function bid() external payable onlyWhileActive {... */\n    tag_14:\n        /* \"subastaGas.sol\":919:932  auctionActive */\n      0x04\n      0x00\n      swap1\n      sload\n      swap1\n      0x0100\n      exp\n      swap1\n      div\n      0xff\n      and\n        /* \"subastaGas.sol\":911:962  require(auctionActive, \"The auction is not active\") */\n      tag_53\n      jumpi\n      mload(0x40)\n      0x08c379a000000000000000000000000000000000000000000000000000000000\n      dup2\n      mstore\n      0x04\n      add\n      tag_54\n      swap1\n      tag_55\n      jump\t// in\n    tag_54:\n      mload(0x40)\n      dup1\n      swap2\n      sub\n      swap1\n      revert\n    tag_53:\n        /* \"subastaGas.sol\":1091:1094  100 */\n      0x64\n        /* \"subastaGas.sol\":1084:1087  105 */\n      0x69\n        /* \"subastaGas.sol\":1071:1081  highestBid */\n      sload(0x05)\n        /* \"subastaGas.sol\":1071:1087  highestBid * 105 */\n      tag_57\n      swap2\n      swap1\n      tag_58\n      jump\t// in\n    tag_57:\n        /* \"subastaGas.sol\":1070:1094  (highestBid * 105) / 100 */\n      tag_59\n      swap2\n      swap1\n      tag_60\n      jump\t// in\n    tag_59:\n        /* \"subastaGas.sol\":1057:1066  msg.value */\n      callvalue\n        /* \"subastaGas.sol\":1057:1094  msg.value >= (highestBid * 105) / 100 */\n      lt\n      iszero\n        /* \"subastaGas.sol\":1049:1154  require(msg.value >= (highestBid * 105) / 100, \"The bid must be at least 5% higher than the current bid\") */\n      tag_61\n      jumpi\n      mload(0x40)\n      0x08c379a000000000000000000000000000000000000000000000000000000000\n      dup2\n      mstore\n      0x04\n      add\n      tag_62\n      swap1\n      tag_63\n      jump\t// in\n    tag_62:\n      mload(0x40)\n      dup1\n      swap2\n      sub\n      swap1\n      revert\n    tag_61:\n        /* \"subastaGas.sol\":1191:1198  endTime */\n      sload(0x01)\n        /* \"subastaGas.sol\":1173:1188  block.timestamp */\n      timestamp\n        /* \"subastaGas.sol\":1173:1198  block.timestamp < endTime */\n      lt\n        /* \"subastaGas.sol\":1165:1224  require(block.timestamp < endTime, \"The auction has ended\") */\n      tag_64\n      jumpi\n      mload(0x40)\n      0x08c379a000000000000000000000000000000000000000000000000000000000\n      dup2\n      mstore\n      0x04\n      add\n      tag_65\n      swap1\n      tag_66\n      jump\t// in\n    tag_65:\n      mload(0x40)\n      dup1\n      swap2\n      sub\n      swap1\n      revert\n    tag_64:\n        /* \"subastaGas.sol\":1313:1314  0 */\n      0x00\n        /* \"subastaGas.sol\":1288:1315  highestBidder != address(0) */\n      0xffffffffffffffffffffffffffffffffffffffff\n      and\n        /* \"subastaGas.sol\":1288:1301  highestBidder */\n      0x04\n      0x01\n      swap1\n      sload\n      swap1\n      0x0100\n      exp\n      swap1\n      div\n      0xffffffffffffffffffffffffffffffffffffffff\n      and\n        /* \"subastaGas.sol\":1288:1315  highestBidder != address(0) */\n      0xffffffffffffffffffffffffffffffffffffffff\n      and\n      eq\n        /* \"subastaGas.sol\":1284:1558  if (highestBidder != address(0)) {... */\n      tag_67\n      jumpi\n        /* \"subastaGas.sol\":1332:1349  uint refundAmount */\n      0x00\n        /* \"subastaGas.sol\":1391:1394  100 */\n      0x64\n        /* \"subastaGas.sol\":1373:1386  gasCommission */\n      sload(0x03)\n        /* \"subastaGas.sol\":1367:1370  100 */\n      0x64\n        /* \"subastaGas.sol\":1367:1386  100 - gasCommission */\n      tag_68\n      swap2\n      swap1\n      tag_69\n      jump\t// in\n    tag_68:\n        /* \"subastaGas.sol\":1353:1363  highestBid */\n      sload(0x05)\n        /* \"subastaGas.sol\":1353:1387  highestBid * (100 - gasCommission) */\n      tag_70\n      swap2\n      swap1\n      tag_58\n      jump\t// in\n    tag_70:\n        /* \"subastaGas.sol\":1352:1394  (highestBid * (100 - gasCommission)) / 100 */\n      tag_71\n      swap2\n      swap1\n      tag_60\n      jump\t// in\n    tag_71:\n        /* \"subastaGas.sol\":1332:1394  uint refundAmount = (highestBid * (100 - gasCommission)) / 100 */\n      swap1\n      pop\n        /* \"subastaGas.sol\":1410:1422  bool success */\n      0x00\n        /* \"subastaGas.sol\":1428:1441  highestBidder */\n      0x04\n      0x01\n      swap1\n      sload\n      swap1\n      0x0100\n      exp\n      swap1\n      div\n      0xffffffffffffffffffffffffffffffffffffffff\n      and\n        /* \"subastaGas.sol\":1428:1446  highestBidder.call */\n      0xffffffffffffffffffffffffffffffffffffffff\n      and\n        /* \"subastaGas.sol\":1454:1466  refundAmount */\n      dup3\n        /* \"subastaGas.sol\":1428:1471  highestBidder.call{value: refundAmount}(\"\") */\n      mload(0x40)\n      tag_72\n      swap1\n      tag_73\n      jump\t// in\n    tag_72:\n      0x00\n      mload(0x40)\n      dup1\n      dup4\n      sub\n      dup2\n      dup6\n      dup8\n      gas\n      call\n      swap3\n      pop\n      pop\n      pop\n      returndatasize\n      dup1\n      0x00\n      dup2\n      eq\n      tag_76\n      jumpi\n      mload(0x40)\n      swap2\n      pop\n      and(add(returndatasize, 0x3f), not(0x1f))\n      dup3\n      add\n      0x40\n      mstore\n      returndatasize\n      dup3\n      mstore\n      returndatasize\n      0x00\n      0x20\n      dup5\n      add\n      returndatacopy\n      jump(tag_75)\n    tag_76:\n      0x60\n      swap2\n      pop\n    tag_75:\n      pop\n        /* \"subastaGas.sol\":1409:1471  (bool success, ) = highestBidder.call{value: refundAmount}(\"\") */\n      pop\n      swap1\n      pop\n        /* \"subastaGas.sol\":1494:1501  success */\n      dup1\n        /* \"subastaGas.sol\":1486:1546  require(success, \"Refund to previous highest bidder failed\") */\n      tag_77\n      jumpi\n      mload(0x40)\n      0x08c379a000000000000000000000000000000000000000000000000000000000\n      dup2\n      mstore\n      0x04\n      add\n      tag_78\n      swap1\n      tag_79\n      jump\t// in\n    tag_78:\n      mload(0x40)\n      dup1\n      swap2\n      sub\n      swap1\n      revert\n    tag_77:\n        /* \"subastaGas.sol\":1317:1558  {... */\n      pop\n      pop\n        /* \"subastaGas.sol\":1284:1558  if (highestBidder != address(0)) {... */\n    tag_67:\n        /* \"subastaGas.sol\":1632:1642  msg.sender */\n      caller\n        /* \"subastaGas.sol\":1616:1629  highestBidder */\n      0x04\n      0x01\n        /* \"subastaGas.sol\":1616:1642  highestBidder = msg.sender */\n      0x0100\n      exp\n      dup2\n      sload\n      dup2\n      0xffffffffffffffffffffffffffffffffffffffff\n      mul\n      not\n      and\n      swap1\n      dup4\n      0xffffffffffffffffffffffffffffffffffffffff\n      and\n      mul\n      or\n      swap1\n      sstore\n      pop\n        /* \"subastaGas.sol\":1666:1675  msg.value */\n      callvalue\n        /* \"subastaGas.sol\":1653:1663  highestBid */\n      0x05\n        /* \"subastaGas.sol\":1653:1675  highestBid = msg.value */\n      dup2\n      swap1\n      sstore\n      pop\n        /* \"subastaGas.sol\":1698:1708  msg.sender */\n      caller\n        /* \"subastaGas.sol\":1691:1720  NewBid(msg.sender, msg.value) */\n      0xffffffffffffffffffffffffffffffffffffffff\n      and\n      0xdd0b6c6a77960e2066c96171b4d7ac9e8b4c184011f38544afa36a5bb63ec59f\n        /* \"subastaGas.sol\":1710:1719  msg.value */\n      callvalue\n        /* \"subastaGas.sol\":1691:1720  NewBid(msg.sender, msg.value) */\n      mload(0x40)\n      tag_80\n      swap2\n      swap1\n      tag_19\n      jump\t// in\n    tag_80:\n      mload(0x40)\n      dup1\n      swap2\n      sub\n      swap1\n      log2\n        /* \"subastaGas.sol\":990:1728  function bid() external payable onlyWhileActive {... */\n      jump\t// out\n        /* \"subastaGas.sol\":116:135  uint public endTime */\n    tag_17:\n      sload(0x01)\n      dup2\n      jump\t// out\n        /* \"subastaGas.sol\":171:200  uint public gasCommission = 2 */\n    tag_22:\n      sload(0x03)\n      dup2\n      jump\t// out\n        /* \"subastaGas.sol\":2020:2357  function withdraw() external onlyAuctioneer {... */\n    tag_26:\n        /* \"subastaGas.sol\":785:795  auctioneer */\n      0x00\n      dup1\n      sload\n      swap1\n      0x0100\n      exp\n      swap1\n      div\n      0xffffffffffffffffffffffffffffffffffffffff\n      and\n        /* \"subastaGas.sol\":771:795  msg.sender == auctioneer */\n      0xffffffffffffffffffffffffffffffffffffffff\n      and\n        /* \"subastaGas.sol\":771:781  msg.sender */\n      caller\n        /* \"subastaGas.sol\":771:795  msg.sender == auctioneer */\n      0xffffffffffffffffffffffffffffffffffffffff\n      and\n      eq\n        /* \"subastaGas.sol\":763:845  require(msg.sender == auctioneer, \"Only the auctioneer can execute this function\") */\n      tag_82\n      jumpi\n      mload(0x40)\n      0x08c379a000000000000000000000000000000000000000000000000000000000\n      dup2\n      mstore\n      0x04\n      add\n      tag_83\n      swap1\n      tag_84\n      jump\t// in\n    tag_83:\n      mload(0x40)\n      dup1\n      swap2\n      sub\n      swap1\n      revert\n    tag_82:\n        /* \"subastaGas.sol\":2084:2097  auctionActive */\n      0x04\n      0x00\n      swap1\n      sload\n      swap1\n      0x0100\n      exp\n      swap1\n      div\n      0xff\n      and\n        /* \"subastaGas.sol\":2083:2097  !auctionActive */\n      iszero\n        /* \"subastaGas.sol\":2075:2129  require(!auctionActive, \"The auction is still active\") */\n      tag_86\n      jumpi\n      mload(0x40)\n      0x08c379a000000000000000000000000000000000000000000000000000000000\n      dup2\n      mstore\n      0x04\n      add\n      tag_87\n      swap1\n      tag_88\n      jump\t// in\n    tag_87:\n      mload(0x40)\n      dup1\n      swap2\n      sub\n      swap1\n      revert\n    tag_86:\n        /* \"subastaGas.sol\":2222:2245  uint amountToAuctioneer */\n      0x00\n        /* \"subastaGas.sol\":2287:2290  100 */\n      0x64\n        /* \"subastaGas.sol\":2269:2282  gasCommission */\n      sload(0x03)\n        /* \"subastaGas.sol\":2263:2266  100 */\n      0x64\n        /* \"subastaGas.sol\":2263:2282  100 - gasCommission */\n      tag_89\n      swap2\n      swap1\n      tag_69\n      jump\t// in\n    tag_89:\n        /* \"subastaGas.sol\":2249:2259  highestBid */\n      sload(0x05)\n        /* \"subastaGas.sol\":2249:2283  highestBid * (100 - gasCommission) */\n      tag_90\n      swap2\n      swap1\n      tag_58\n      jump\t// in\n    tag_90:\n        /* \"subastaGas.sol\":2248:2290  (highestBid * (100 - gasCommission)) / 100 */\n      tag_91\n      swap2\n      swap1\n      tag_60\n      jump\t// in\n    tag_91:\n        /* \"subastaGas.sol\":2222:2290  uint amountToAuctioneer = (highestBid * (100 - gasCommission)) / 100 */\n      swap1\n      pop\n        /* \"subastaGas.sol\":2309:2319  auctioneer */\n      0x00\n      dup1\n      sload\n      swap1\n      0x0100\n      exp\n      swap1\n      div\n      0xffffffffffffffffffffffffffffffffffffffff\n      and\n        /* \"subastaGas.sol\":2301:2329  payable(auctioneer).transfer */\n      0xffffffffffffffffffffffffffffffffffffffff\n      and\n        /* \"subastaGas.sol\":2301:2349  payable(auctioneer).transfer(amountToAuctioneer) */\n      0x08fc\n        /* \"subastaGas.sol\":2330:2348  amountToAuctioneer */\n      dup3\n        /* \"subastaGas.sol\":2301:2349  payable(auctioneer).transfer(amountToAuctioneer) */\n      swap1\n      dup2\n      iszero\n      mul\n      swap1\n      mload(0x40)\n      0x00\n      mload(0x40)\n      dup1\n      dup4\n      sub\n      dup2\n      dup6\n      dup9\n      dup9\n      call\n      swap4\n      pop\n      pop\n      pop\n      pop\n      iszero\n      dup1\n      iszero\n      tag_93\n      jumpi\n      returndatasize\n      0x00\n      dup1\n      returndatacopy\n      revert(0x00, returndatasize)\n    tag_93:\n      pop\n        /* \"subastaGas.sol\":2064:2357  {... */\n      pop\n        /* \"subastaGas.sol\":2020:2357  function withdraw() external onlyAuctioneer {... */\n      jump\t// out\n        /* \"subastaGas.sol\":84:109  address public auctioneer */\n    tag_29:\n      0x00\n      dup1\n      sload\n      swap1\n      0x0100\n      exp\n      swap1\n      div\n      0xffffffffffffffffffffffffffffffffffffffff\n      and\n      dup2\n      jump\t// out\n        /* \"subastaGas.sol\":245:273  address public highestBidder */\n    tag_34:\n      0x04\n      0x01\n      swap1\n      sload\n      swap1\n      0x0100\n      exp\n      swap1\n      div\n      0xffffffffffffffffffffffffffffffffffffffff\n      and\n      dup2\n      jump\t// out\n        /* \"subastaGas.sol\":213:238  bool public auctionActive */\n    tag_38:\n      0x04\n      0x00\n      swap1\n      sload\n      swap1\n      0x0100\n      exp\n      swap1\n      div\n      0xff\n      and\n      dup2\n      jump\t// out\n        /* \"subastaGas.sol\":142:164  uint public minimumBid */\n    tag_43:\n      sload(0x02)\n      dup2\n      jump\t// out\n        /* \"subastaGas.sol\":280:302  uint public highestBid */\n    tag_47:\n      sload(0x05)\n      dup2\n      jump\t// out\n        /* \"subastaGas.sol\":1736:2012  function endAuction() external onlyAuctioneer {... */\n    tag_51:\n        /* \"subastaGas.sol\":785:795  auctioneer */\n      0x00\n      dup1\n      sload\n      swap1\n      0x0100\n      exp\n      swap1\n      div\n      0xffffffffffffffffffffffffffffffffffffffff\n      and\n        /* \"subastaGas.sol\":771:795  msg.sender == auctioneer */\n      0xffffffffffffffffffffffffffffffffffffffff\n      and\n        /* \"subastaGas.sol\":771:781  msg.sender */\n      caller\n        /* \"subastaGas.sol\":771:795  msg.sender == auctioneer */\n      0xffffffffffffffffffffffffffffffffffffffff\n      and\n      eq\n        /* \"subastaGas.sol\":763:845  require(msg.sender == auctioneer, \"Only the auctioneer can execute this function\") */\n      tag_95\n      jumpi\n      mload(0x40)\n      0x08c379a000000000000000000000000000000000000000000000000000000000\n      dup2\n      mstore\n      0x04\n      add\n      tag_96\n      swap1\n      tag_84\n      jump\t// in\n    tag_96:\n      mload(0x40)\n      dup1\n      swap2\n      sub\n      swap1\n      revert\n    tag_95:\n        /* \"subastaGas.sol\":1820:1827  endTime */\n      sload(0x01)\n        /* \"subastaGas.sol\":1801:1816  block.timestamp */\n      timestamp\n        /* \"subastaGas.sol\":1801:1827  block.timestamp >= endTime */\n      lt\n      iszero\n        /* \"subastaGas.sol\":1793:1857  require(block.timestamp >= endTime, \"The auction has not ended\") */\n      tag_98\n      jumpi\n      mload(0x40)\n      0x08c379a000000000000000000000000000000000000000000000000000000000\n      dup2\n      mstore\n      0x04\n      add\n      tag_99\n      swap1\n      tag_100\n      jump\t// in\n    tag_99:\n      mload(0x40)\n      dup1\n      swap2\n      sub\n      swap1\n      revert\n    tag_98:\n        /* \"subastaGas.sol\":1876:1889  auctionActive */\n      0x04\n      0x00\n      swap1\n      sload\n      swap1\n      0x0100\n      exp\n      swap1\n      div\n      0xff\n      and\n        /* \"subastaGas.sol\":1868:1915  require(auctionActive, \"Auction already ended\") */\n      tag_101\n      jumpi\n      mload(0x40)\n      0x08c379a000000000000000000000000000000000000000000000000000000000\n      dup2\n      mstore\n      0x04\n      add\n      tag_102\n      swap1\n      tag_103\n      jump\t// in\n    tag_102:\n      mload(0x40)\n      dup1\n      swap2\n      sub\n      swap1\n      revert\n    tag_101:\n        /* \"subastaGas.sol\":1944:1949  false */\n      0x00\n        /* \"subastaGas.sol\":1928:1941  auctionActive */\n      0x04\n      0x00\n        /* \"subastaGas.sol\":1928:1949  auctionActive = false */\n      0x0100\n      exp\n      dup2\n      sload\n      dup2\n      0xff\n      mul\n      not\n      and\n      swap1\n      dup4\n      iszero\n      iszero\n      mul\n      or\n      swap1\n      sstore\n      pop\n        /* \"subastaGas.sol\":1965:2004  AuctionEnded(highestBidder, highestBid) */\n      0xdaec4582d5d9595688c8c98545fdd1c696d41c6aeaeb636737e84ed2f5c00eda\n        /* \"subastaGas.sol\":1978:1991  highestBidder */\n      0x04\n      0x01\n      swap1\n      sload\n      swap1\n      0x0100\n      exp\n      swap1\n      div\n      0xffffffffffffffffffffffffffffffffffffffff\n      and\n        /* \"subastaGas.sol\":1993:2003  highestBid */\n      sload(0x05)\n        /* \"subastaGas.sol\":1965:2004  AuctionEnded(highestBidder, highestBid) */\n      mload(0x40)\n      tag_104\n      swap3\n      swap2\n      swap1\n      tag_105\n      jump\t// in\n    tag_104:\n      mload(0x40)\n      dup1\n      swap2\n      sub\n      swap1\n      log1\n        /* \"subastaGas.sol\":1736:2012  function endAuction() external onlyAuctioneer {... */\n      jump\t// out\n        /* \"#utility.yul\":7:84   */\n    tag_106:\n        /* \"#utility.yul\":44:51   */\n      0x00\n        /* \"#utility.yul\":73:78   */\n      dup2\n        /* \"#utility.yul\":62:78   */\n      swap1\n      pop\n        /* \"#utility.yul\":7:84   */\n      swap2\n      swap1\n      pop\n      jump\t// out\n        /* \"#utility.yul\":90:208   */\n    tag_107:\n        /* \"#utility.yul\":177:201   */\n      tag_138\n        /* \"#utility.yul\":195:200   */\n      dup2\n        /* \"#utility.yul\":177:201   */\n      tag_106\n      jump\t// in\n    tag_138:\n        /* \"#utility.yul\":172:175   */\n      dup3\n        /* \"#utility.yul\":165:202   */\n      mstore\n        /* \"#utility.yul\":90:208   */\n      pop\n      pop\n      jump\t// out\n        /* \"#utility.yul\":214:436   */\n    tag_19:\n        /* \"#utility.yul\":307:311   */\n      0x00\n        /* \"#utility.yul\":345:347   */\n      0x20\n        /* \"#utility.yul\":334:343   */\n      dup3\n        /* \"#utility.yul\":330:348   */\n      add\n        /* \"#utility.yul\":322:348   */\n      swap1\n      pop\n        /* \"#utility.yul\":358:429   */\n      tag_140\n        /* \"#utility.yul\":426:427   */\n      0x00\n        /* \"#utility.yul\":415:424   */\n      dup4\n        /* \"#utility.yul\":411:428   */\n      add\n        /* \"#utility.yul\":402:408   */\n      dup5\n        /* \"#utility.yul\":358:429   */\n      tag_107\n      jump\t// in\n    tag_140:\n        /* \"#utility.yul\":214:436   */\n      swap3\n      swap2\n      pop\n      pop\n      jump\t// out\n        /* \"#utility.yul\":442:568   */\n    tag_108:\n        /* \"#utility.yul\":479:486   */\n      0x00\n        /* \"#utility.yul\":519:561   */\n      0xffffffffffffffffffffffffffffffffffffffff\n        /* \"#utility.yul\":512:517   */\n      dup3\n        /* \"#utility.yul\":508:562   */\n      and\n        /* \"#utility.yul\":497:562   */\n      swap1\n      pop\n        /* \"#utility.yul\":442:568   */\n      swap2\n      swap1\n      pop\n      jump\t// out\n        /* \"#utility.yul\":574:670   */\n    tag_109:\n        /* \"#utility.yul\":611:618   */\n      0x00\n        /* \"#utility.yul\":640:664   */\n      tag_143\n        /* \"#utility.yul\":658:663   */\n      dup3\n        /* \"#utility.yul\":640:664   */\n      tag_108\n      jump\t// in\n    tag_143:\n        /* \"#utility.yul\":629:664   */\n      swap1\n      pop\n        /* \"#utility.yul\":574:670   */\n      swap2\n      swap1\n      pop\n      jump\t// out\n        /* \"#utility.yul\":676:794   */\n    tag_110:\n        /* \"#utility.yul\":763:787   */\n      tag_145\n        /* \"#utility.yul\":781:786   */\n      dup2\n        /* \"#utility.yul\":763:787   */\n      tag_109\n      jump\t// in\n    tag_145:\n        /* \"#utility.yul\":758:761   */\n      dup3\n        /* \"#utility.yul\":751:788   */\n      mstore\n        /* \"#utility.yul\":676:794   */\n      pop\n      pop\n      jump\t// out\n        /* \"#utility.yul\":800:1022   */\n    tag_31:\n        /* \"#utility.yul\":893:897   */\n      0x00\n        /* \"#utility.yul\":931:933   */\n      0x20\n        /* \"#utility.yul\":920:929   */\n      dup3\n        /* \"#utility.yul\":916:934   */\n      add\n        /* \"#utility.yul\":908:934   */\n      swap1\n      pop\n        /* \"#utility.yul\":944:1015   */\n      tag_147\n        /* \"#utility.yul\":1012:1013   */\n      0x00\n        /* \"#utility.yul\":1001:1010   */\n      dup4\n        /* \"#utility.yul\":997:1014   */\n      add\n        /* \"#utility.yul\":988:994   */\n      dup5\n        /* \"#utility.yul\":944:1015   */\n      tag_110\n      jump\t// in\n    tag_147:\n        /* \"#utility.yul\":800:1022   */\n      swap3\n      swap2\n      pop\n      pop\n      jump\t// out\n        /* \"#utility.yul\":1028:1118   */\n    tag_111:\n        /* \"#utility.yul\":1062:1069   */\n      0x00\n        /* \"#utility.yul\":1105:1110   */\n      dup2\n        /* \"#utility.yul\":1098:1111   */\n      iszero\n        /* \"#utility.yul\":1091:1112   */\n      iszero\n        /* \"#utility.yul\":1080:1112   */\n      swap1\n      pop\n        /* \"#utility.yul\":1028:1118   */\n      swap2\n      swap1\n      pop\n      jump\t// out\n        /* \"#utility.yul\":1124:1233   */\n    tag_112:\n        /* \"#utility.yul\":1205:1226   */\n      tag_150\n        /* \"#utility.yul\":1220:1225   */\n      dup2\n        /* \"#utility.yul\":1205:1226   */\n      tag_111\n      jump\t// in\n    tag_150:\n        /* \"#utility.yul\":1200:1203   */\n      dup3\n        /* \"#utility.yul\":1193:1227   */\n      mstore\n        /* \"#utility.yul\":1124:1233   */\n      pop\n      pop\n      jump\t// out\n        /* \"#utility.yul\":1239:1449   */\n    tag_40:\n        /* \"#utility.yul\":1326:1330   */\n      0x00\n        /* \"#utility.yul\":1364:1366   */\n      0x20\n        /* \"#utility.yul\":1353:1362   */\n      dup3\n        /* \"#utility.yul\":1349:1367   */\n      add\n        /* \"#utility.yul\":1341:1367   */\n      swap1\n      pop\n        /* \"#utility.yul\":1377:1442   */\n      tag_152\n        /* \"#utility.yul\":1439:1440   */\n      0x00\n        /* \"#utility.yul\":1428:1437   */\n      dup4\n        /* \"#utility.yul\":1424:1441   */\n      add\n        /* \"#utility.yul\":1415:1421   */\n      dup5\n        /* \"#utility.yul\":1377:1442   */\n      tag_112\n      jump\t// in\n    tag_152:\n        /* \"#utility.yul\":1239:1449   */\n      swap3\n      swap2\n      pop\n      pop\n      jump\t// out\n        /* \"#utility.yul\":1455:1624   */\n    tag_113:\n        /* \"#utility.yul\":1539:1550   */\n      0x00\n        /* \"#utility.yul\":1573:1579   */\n      dup3\n        /* \"#utility.yul\":1568:1571   */\n      dup3\n        /* \"#utility.yul\":1561:1580   */\n      mstore\n        /* \"#utility.yul\":1613:1617   */\n      0x20\n        /* \"#utility.yul\":1608:1611   */\n      dup3\n        /* \"#utility.yul\":1604:1618   */\n      add\n        /* \"#utility.yul\":1589:1618   */\n      swap1\n      pop\n        /* \"#utility.yul\":1455:1624   */\n      swap3\n      swap2\n      pop\n      pop\n      jump\t// out\n        /* \"#utility.yul\":1630:1805   */\n    tag_114:\n        /* \"#utility.yul\":1770:1797   */\n      0x5468652061756374696f6e206973206e6f742061637469766500000000000000\n        /* \"#utility.yul\":1766:1767   */\n      0x00\n        /* \"#utility.yul\":1758:1764   */\n      dup3\n        /* \"#utility.yul\":1754:1768   */\n      add\n        /* \"#utility.yul\":1747:1798   */\n      mstore\n        /* \"#utility.yul\":1630:1805   */\n      pop\n      jump\t// out\n        /* \"#utility.yul\":1811:2177   */\n    tag_115:\n        /* \"#utility.yul\":1953:1956   */\n      0x00\n        /* \"#utility.yul\":1974:2041   */\n      tag_156\n        /* \"#utility.yul\":2038:2040   */\n      0x19\n        /* \"#utility.yul\":2033:2036   */\n      dup4\n        /* \"#utility.yul\":1974:2041   */\n      tag_113\n      jump\t// in\n    tag_156:\n        /* \"#utility.yul\":1967:2041   */\n      swap2\n      pop\n        /* \"#utility.yul\":2050:2143   */\n      tag_157\n        /* \"#utility.yul\":2139:2142   */\n      dup3\n        /* \"#utility.yul\":2050:2143   */\n      tag_114\n      jump\t// in\n    tag_157:\n        /* \"#utility.yul\":2168:2170   */\n      0x20\n        /* \"#utility.yul\":2163:2166   */\n      dup3\n        /* \"#utility.yul\":2159:2171   */\n      add\n        /* \"#utility.yul\":2152:2171   */\n      swap1\n      pop\n        /* \"#utility.yul\":1811:2177   */\n      swap2\n      swap1\n      pop\n      jump\t// out\n        /* \"#utility.yul\":2183:2602   */\n    tag_55:\n        /* \"#utility.yul\":2349:2353   */\n      0x00\n        /* \"#utility.yul\":2387:2389   */\n      0x20\n        /* \"#utility.yul\":2376:2385   */\n      dup3\n        /* \"#utility.yul\":2372:2390   */\n      add\n        /* \"#utility.yul\":2364:2390   */\n      swap1\n      pop\n        /* \"#utility.yul\":2436:2445   */\n      dup2\n        /* \"#utility.yul\":2430:2434   */\n      dup2\n        /* \"#utility.yul\":2426:2446   */\n      sub\n        /* \"#utility.yul\":2422:2423   */\n      0x00\n        /* \"#utility.yul\":2411:2420   */\n      dup4\n        /* \"#utility.yul\":2407:2424   */\n      add\n        /* \"#utility.yul\":2400:2447   */\n      mstore\n        /* \"#utility.yul\":2464:2595   */\n      tag_159\n        /* \"#utility.yul\":2590:2594   */\n      dup2\n        /* \"#utility.yul\":2464:2595   */\n      tag_115\n      jump\t// in\n    tag_159:\n        /* \"#utility.yul\":2456:2595   */\n      swap1\n      pop\n        /* \"#utility.yul\":2183:2602   */\n      swap2\n      swap1\n      pop\n      jump\t// out\n        /* \"#utility.yul\":2608:2788   */\n    tag_116:\n        /* \"#utility.yul\":2656:2733   */\n      0x4e487b7100000000000000000000000000000000000000000000000000000000\n        /* \"#utility.yul\":2653:2654   */\n      0x00\n        /* \"#utility.yul\":2646:2734   */\n      mstore\n        /* \"#utility.yul\":2753:2757   */\n      0x11\n        /* \"#utility.yul\":2750:2751   */\n      0x04\n        /* \"#utility.yul\":2743:2758   */\n      mstore\n        /* \"#utility.yul\":2777:2781   */\n      0x24\n        /* \"#utility.yul\":2774:2775   */\n      0x00\n        /* \"#utility.yul\":2767:2782   */\n      revert\n        /* \"#utility.yul\":2794:3204   */\n    tag_58:\n        /* \"#utility.yul\":2834:2841   */\n      0x00\n        /* \"#utility.yul\":2857:2877   */\n      tag_162\n        /* \"#utility.yul\":2875:2876   */\n      dup3\n        /* \"#utility.yul\":2857:2877   */\n      tag_106\n      jump\t// in\n    tag_162:\n        /* \"#utility.yul\":2852:2877   */\n      swap2\n      pop\n        /* \"#utility.yul\":2891:2911   */\n      tag_163\n        /* \"#utility.yul\":2909:2910   */\n      dup4\n        /* \"#utility.yul\":2891:2911   */\n      tag_106\n      jump\t// in\n    tag_163:\n        /* \"#utility.yul\":2886:2911   */\n      swap3\n      pop\n        /* \"#utility.yul\":2946:2947   */\n      dup3\n        /* \"#utility.yul\":2943:2944   */\n      dup3\n        /* \"#utility.yul\":2939:2948   */\n      mul\n        /* \"#utility.yul\":2968:2998   */\n      tag_164\n        /* \"#utility.yul\":2986:2997   */\n      dup2\n        /* \"#utility.yul\":2968:2998   */\n      tag_106\n      jump\t// in\n    tag_164:\n        /* \"#utility.yul\":2957:2998   */\n      swap2\n      pop\n        /* \"#utility.yul\":3147:3148   */\n      dup3\n        /* \"#utility.yul\":3138:3145   */\n      dup3\n        /* \"#utility.yul\":3134:3149   */\n      div\n        /* \"#utility.yul\":3131:3132   */\n      dup5\n        /* \"#utility.yul\":3128:3150   */\n      eq\n        /* \"#utility.yul\":3108:3109   */\n      dup4\n        /* \"#utility.yul\":3101:3110   */\n      iszero\n        /* \"#utility.yul\":3081:3164   */\n      or\n        /* \"#utility.yul\":3058:3197   */\n      tag_165\n      jumpi\n        /* \"#utility.yul\":3177:3195   */\n      tag_166\n      tag_116\n      jump\t// in\n    tag_166:\n        /* \"#utility.yul\":3058:3197   */\n    tag_165:\n        /* \"#utility.yul\":2842:3204   */\n      pop\n        /* \"#utility.yul\":2794:3204   */\n      swap3\n      swap2\n      pop\n      pop\n      jump\t// out\n        /* \"#utility.yul\":3210:3390   */\n    tag_117:\n        /* \"#utility.yul\":3258:3335   */\n      0x4e487b7100000000000000000000000000000000000000000000000000000000\n        /* \"#utility.yul\":3255:3256   */\n      0x00\n        /* \"#utility.yul\":3248:3336   */\n      mstore\n        /* \"#utility.yul\":3355:3359   */\n      0x12\n        /* \"#utility.yul\":3352:3353   */\n      0x04\n        /* \"#utility.yul\":3345:3360   */\n      mstore\n        /* \"#utility.yul\":3379:3383   */\n      0x24\n        /* \"#utility.yul\":3376:3377   */\n      0x00\n        /* \"#utility.yul\":3369:3384   */\n      revert\n        /* \"#utility.yul\":3396:3581   */\n    tag_60:\n        /* \"#utility.yul\":3436:3437   */\n      0x00\n        /* \"#utility.yul\":3453:3473   */\n      tag_169\n        /* \"#utility.yul\":3471:3472   */\n      dup3\n        /* \"#utility.yul\":3453:3473   */\n      tag_106\n      jump\t// in\n    tag_169:\n        /* \"#utility.yul\":3448:3473   */\n      swap2\n      pop\n        /* \"#utility.yul\":3487:3507   */\n      tag_170\n        /* \"#utility.yul\":3505:3506   */\n      dup4\n        /* \"#utility.yul\":3487:3507   */\n      tag_106\n      jump\t// in\n    tag_170:\n        /* \"#utility.yul\":3482:3507   */\n      swap3\n      pop\n        /* \"#utility.yul\":3526:3527   */\n      dup3\n        /* \"#utility.yul\":3516:3551   */\n      tag_171\n      jumpi\n        /* \"#utility.yul\":3531:3549   */\n      tag_172\n      tag_117\n      jump\t// in\n    tag_172:\n        /* \"#utility.yul\":3516:3551   */\n    tag_171:\n        /* \"#utility.yul\":3573:3574   */\n      dup3\n        /* \"#utility.yul\":3570:3571   */\n      dup3\n        /* \"#utility.yul\":3566:3575   */\n      div\n        /* \"#utility.yul\":3561:3575   */\n      swap1\n      pop\n        /* \"#utility.yul\":3396:3581   */\n      swap3\n      swap2\n      pop\n      pop\n      jump\t// out\n        /* \"#utility.yul\":3587:3829   */\n    tag_118:\n        /* \"#utility.yul\":3727:3761   */\n      0x54686520626964206d757374206265206174206c656173742035252068696768\n        /* \"#utility.yul\":3723:3724   */\n      0x00\n        /* \"#utility.yul\":3715:3721   */\n      dup3\n        /* \"#utility.yul\":3711:3725   */\n      add\n        /* \"#utility.yul\":3704:3762   */\n      mstore\n        /* \"#utility.yul\":3796:3821   */\n      0x6572207468616e207468652063757272656e7420626964000000000000000000\n        /* \"#utility.yul\":3791:3793   */\n      0x20\n        /* \"#utility.yul\":3783:3789   */\n      dup3\n        /* \"#utility.yul\":3779:3794   */\n      add\n        /* \"#utility.yul\":3772:3822   */\n      mstore\n        /* \"#utility.yul\":3587:3829   */\n      pop\n      jump\t// out\n        /* \"#utility.yul\":3835:4201   */\n    tag_119:\n        /* \"#utility.yul\":3977:3980   */\n      0x00\n        /* \"#utility.yul\":3998:4065   */\n      tag_175\n        /* \"#utility.yul\":4062:4064   */\n      0x37\n        /* \"#utility.yul\":4057:4060   */\n      dup4\n        /* \"#utility.yul\":3998:4065   */\n      tag_113\n      jump\t// in\n    tag_175:\n        /* \"#utility.yul\":3991:4065   */\n      swap2\n      pop\n        /* \"#utility.yul\":4074:4167   */\n      tag_176\n        /* \"#utility.yul\":4163:4166   */\n      dup3\n        /* \"#utility.yul\":4074:4167   */\n      tag_118\n      jump\t// in\n    tag_176:\n        /* \"#utility.yul\":4192:4194   */\n      0x40\n        /* \"#utility.yul\":4187:4190   */\n      dup3\n        /* \"#utility.yul\":4183:4195   */\n      add\n        /* \"#utility.yul\":4176:4195   */\n      swap1\n      pop\n        /* \"#utility.yul\":3835:4201   */\n      swap2\n      swap1\n      pop\n      jump\t// out\n        /* \"#utility.yul\":4207:4626   */\n    tag_63:\n        /* \"#utility.yul\":4373:4377   */\n      0x00\n        /* \"#utility.yul\":4411:4413   */\n      0x20\n        /* \"#utility.yul\":4400:4409   */\n      dup3\n        /* \"#utility.yul\":4396:4414   */\n      add\n        /* \"#utility.yul\":4388:4414   */\n      swap1\n      pop\n        /* \"#utility.yul\":4460:4469   */\n      dup2\n        /* \"#utility.yul\":4454:4458   */\n      dup2\n        /* \"#utility.yul\":4450:4470   */\n      sub\n        /* \"#utility.yul\":4446:4447   */\n      0x00\n        /* \"#utility.yul\":4435:4444   */\n      dup4\n        /* \"#utility.yul\":4431:4448   */\n      add\n        /* \"#utility.yul\":4424:4471   */\n      mstore\n        /* \"#utility.yul\":4488:4619   */\n      tag_178\n        /* \"#utility.yul\":4614:4618   */\n      dup2\n        /* \"#utility.yul\":4488:4619   */\n      tag_119\n      jump\t// in\n    tag_178:\n        /* \"#utility.yul\":4480:4619   */\n      swap1\n      pop\n        /* \"#utility.yul\":4207:4626   */\n      swap2\n      swap1\n      pop\n      jump\t// out\n        /* \"#utility.yul\":4632:4803   */\n    tag_120:\n        /* \"#utility.yul\":4772:4795   */\n      0x5468652061756374696f6e2068617320656e6465640000000000000000000000\n        /* \"#utility.yul\":4768:4769   */\n      0x00\n        /* \"#utility.yul\":4760:4766   */\n      dup3\n        /* \"#utility.yul\":4756:4770   */\n      add\n        /* \"#utility.yul\":4749:4796   */\n      mstore\n        /* \"#utility.yul\":4632:4803   */\n      pop\n      jump\t// out\n        /* \"#utility.yul\":4809:5175   */\n    tag_121:\n        /* \"#utility.yul\":4951:4954   */\n      0x00\n        /* \"#utility.yul\":4972:5039   */\n      tag_181\n        /* \"#utility.yul\":5036:5038   */\n      0x15\n        /* \"#utility.yul\":5031:5034   */\n      dup4\n        /* \"#utility.yul\":4972:5039   */\n      tag_113\n      jump\t// in\n    tag_181:\n        /* \"#utility.yul\":4965:5039   */\n      swap2\n      pop\n        /* \"#utility.yul\":5048:5141   */\n      tag_182\n        /* \"#utility.yul\":5137:5140   */\n      dup3\n        /* \"#utility.yul\":5048:5141   */\n      tag_120\n      jump\t// in\n    tag_182:\n        /* \"#utility.yul\":5166:5168   */\n      0x20\n        /* \"#utility.yul\":5161:5164   */\n      dup3\n        /* \"#utility.yul\":5157:5169   */\n      add\n        /* \"#utility.yul\":5150:5169   */\n      swap1\n      pop\n        /* \"#utility.yul\":4809:5175   */\n      swap2\n      swap1\n      pop\n      jump\t// out\n        /* \"#utility.yul\":5181:5600   */\n    tag_66:\n        /* \"#utility.yul\":5347:5351   */\n      0x00\n        /* \"#utility.yul\":5385:5387   */\n      0x20\n        /* \"#utility.yul\":5374:5383   */\n      dup3\n        /* \"#utility.yul\":5370:5388   */\n      add\n        /* \"#utility.yul\":5362:5388   */\n      swap1\n      pop\n        /* \"#utility.yul\":5434:5443   */\n      dup2\n        /* \"#utility.yul\":5428:5432   */\n      dup2\n        /* \"#utility.yul\":5424:5444   */\n      sub\n        /* \"#utility.yul\":5420:5421   */\n      0x00\n        /* \"#utility.yul\":5409:5418   */\n      dup4\n        /* \"#utility.yul\":5405:5422   */\n      add\n        /* \"#utility.yul\":5398:5445   */\n      mstore\n        /* \"#utility.yul\":5462:5593   */\n      tag_184\n        /* \"#utility.yul\":5588:5592   */\n      dup2\n        /* \"#utility.yul\":5462:5593   */\n      tag_121\n      jump\t// in\n    tag_184:\n        /* \"#utility.yul\":5454:5593   */\n      swap1\n      pop\n        /* \"#utility.yul\":5181:5600   */\n      swap2\n      swap1\n      pop\n      jump\t// out\n        /* \"#utility.yul\":5606:5800   */\n    tag_69:\n        /* \"#utility.yul\":5646:5650   */\n      0x00\n        /* \"#utility.yul\":5666:5686   */\n      tag_186\n        /* \"#utility.yul\":5684:5685   */\n      dup3\n        /* \"#utility.yul\":5666:5686   */\n      tag_106\n      jump\t// in\n    tag_186:\n        /* \"#utility.yul\":5661:5686   */\n      swap2\n      pop\n        /* \"#utility.yul\":5700:5720   */\n      tag_187\n        /* \"#utility.yul\":5718:5719   */\n      dup4\n        /* \"#utility.yul\":5700:5720   */\n      tag_106\n      jump\t// in\n    tag_187:\n        /* \"#utility.yul\":5695:5720   */\n      swap3\n      pop\n        /* \"#utility.yul\":5744:5745   */\n      dup3\n        /* \"#utility.yul\":5741:5742   */\n      dup3\n        /* \"#utility.yul\":5737:5746   */\n      sub\n        /* \"#utility.yul\":5729:5746   */\n      swap1\n      pop\n        /* \"#utility.yul\":5768:5769   */\n      dup2\n        /* \"#utility.yul\":5762:5766   */\n      dup2\n        /* \"#utility.yul\":5759:5770   */\n      gt\n        /* \"#utility.yul\":5756:5793   */\n      iszero\n      tag_188\n      jumpi\n        /* \"#utility.yul\":5773:5791   */\n      tag_189\n      tag_116\n      jump\t// in\n    tag_189:\n        /* \"#utility.yul\":5756:5793   */\n    tag_188:\n        /* \"#utility.yul\":5606:5800   */\n      swap3\n      swap2\n      pop\n      pop\n      jump\t// out\n        /* \"#utility.yul\":5806:5953   */\n    tag_122:\n        /* \"#utility.yul\":5907:5918   */\n      0x00\n        /* \"#utility.yul\":5944:5947   */\n      dup2\n        /* \"#utility.yul\":5929:5947   */\n      swap1\n      pop\n        /* \"#utility.yul\":5806:5953   */\n      swap3\n      swap2\n      pop\n      pop\n      jump\t// out\n        /* \"#utility.yul\":5959:6073   */\n    tag_123:\n      pop\n      jump\t// out\n        /* \"#utility.yul\":6079:6477   */\n    tag_124:\n        /* \"#utility.yul\":6238:6241   */\n      0x00\n        /* \"#utility.yul\":6259:6342   */\n      tag_193\n        /* \"#utility.yul\":6340:6341   */\n      0x00\n        /* \"#utility.yul\":6335:6338   */\n      dup4\n        /* \"#utility.yul\":6259:6342   */\n      tag_122\n      jump\t// in\n    tag_193:\n        /* \"#utility.yul\":6252:6342   */\n      swap2\n      pop\n        /* \"#utility.yul\":6351:6444   */\n      tag_194\n        /* \"#utility.yul\":6440:6443   */\n      dup3\n        /* \"#utility.yul\":6351:6444   */\n      tag_123\n      jump\t// in\n    tag_194:\n        /* \"#utility.yul\":6469:6470   */\n      0x00\n        /* \"#utility.yul\":6464:6467   */\n      dup3\n        /* \"#utility.yul\":6460:6471   */\n      add\n        /* \"#utility.yul\":6453:6471   */\n      swap1\n      pop\n        /* \"#utility.yul\":6079:6477   */\n      swap2\n      swap1\n      pop\n      jump\t// out\n        /* \"#utility.yul\":6483:6862   */\n    tag_73:\n        /* \"#utility.yul\":6667:6670   */\n      0x00\n        /* \"#utility.yul\":6689:6836   */\n      tag_196\n        /* \"#utility.yul\":6832:6835   */\n      dup3\n        /* \"#utility.yul\":6689:6836   */\n      tag_124\n      jump\t// in\n    tag_196:\n        /* \"#utility.yul\":6682:6836   */\n      swap2\n      pop\n        /* \"#utility.yul\":6853:6856   */\n      dup2\n        /* \"#utility.yul\":6846:6856   */\n      swap1\n      pop\n        /* \"#utility.yul\":6483:6862   */\n      swap2\n      swap1\n      pop\n      jump\t// out\n        /* \"#utility.yul\":6868:7095   */\n    tag_125:\n        /* \"#utility.yul\":7008:7042   */\n      0x526566756e6420746f2070726576696f75732068696768657374206269646465\n        /* \"#utility.yul\":7004:7005   */\n      0x00\n        /* \"#utility.yul\":6996:7002   */\n      dup3\n        /* \"#utility.yul\":6992:7006   */\n      add\n        /* \"#utility.yul\":6985:7043   */\n      mstore\n        /* \"#utility.yul\":7077:7087   */\n      0x72206661696c6564000000000000000000000000000000000000000000000000\n        /* \"#utility.yul\":7072:7074   */\n      0x20\n        /* \"#utility.yul\":7064:7070   */\n      dup3\n        /* \"#utility.yul\":7060:7075   */\n      add\n        /* \"#utility.yul\":7053:7088   */\n      mstore\n        /* \"#utility.yul\":6868:7095   */\n      pop\n      jump\t// out\n        /* \"#utility.yul\":7101:7467   */\n    tag_126:\n        /* \"#utility.yul\":7243:7246   */\n      0x00\n        /* \"#utility.yul\":7264:7331   */\n      tag_199\n        /* \"#utility.yul\":7328:7330   */\n      0x28\n        /* \"#utility.yul\":7323:7326   */\n      dup4\n        /* \"#utility.yul\":7264:7331   */\n      tag_113\n      jump\t// in\n    tag_199:\n        /* \"#utility.yul\":7257:7331   */\n      swap2\n      pop\n        /* \"#utility.yul\":7340:7433   */\n      tag_200\n        /* \"#utility.yul\":7429:7432   */\n      dup3\n        /* \"#utility.yul\":7340:7433   */\n      tag_125\n      jump\t// in\n    tag_200:\n        /* \"#utility.yul\":7458:7460   */\n      0x40\n        /* \"#utility.yul\":7453:7456   */\n      dup3\n        /* \"#utility.yul\":7449:7461   */\n      add\n        /* \"#utility.yul\":7442:7461   */\n      swap1\n      pop\n        /* \"#utility.yul\":7101:7467   */\n      swap2\n      swap1\n      pop\n      jump\t// out\n        /* \"#utility.yul\":7473:7892   */\n    tag_79:\n        /* \"#utility.yul\":7639:7643   */\n      0x00\n        /* \"#utility.yul\":7677:7679   */\n      0x20\n        /* \"#utility.yul\":7666:7675   */\n      dup3\n        /* \"#utility.yul\":7662:7680   */\n      add\n        /* \"#utility.yul\":7654:7680   */\n      swap1\n      pop\n        /* \"#utility.yul\":7726:7735   */\n      dup2\n        /* \"#utility.yul\":7720:7724   */\n      dup2\n        /* \"#utility.yul\":7716:7736   */\n      sub\n        /* \"#utility.yul\":7712:7713   */\n      0x00\n        /* \"#utility.yul\":7701:7710   */\n      dup4\n        /* \"#utility.yul\":7697:7714   */\n      add\n        /* \"#utility.yul\":7690:7737   */\n      mstore\n        /* \"#utility.yul\":7754:7885   */\n      tag_202\n        /* \"#utility.yul\":7880:7884   */\n      dup2\n        /* \"#utility.yul\":7754:7885   */\n      tag_126\n      jump\t// in\n    tag_202:\n        /* \"#utility.yul\":7746:7885   */\n      swap1\n      pop\n        /* \"#utility.yul\":7473:7892   */\n      swap2\n      swap1\n      pop\n      jump\t// out\n        /* \"#utility.yul\":7898:8130   */\n    tag_127:\n        /* \"#utility.yul\":8038:8072   */\n      0x4f6e6c79207468652061756374696f6e6565722063616e206578656375746520\n        /* \"#utility.yul\":8034:8035   */\n      0x00\n        /* \"#utility.yul\":8026:8032   */\n      dup3\n        /* \"#utility.yul\":8022:8036   */\n      add\n        /* \"#utility.yul\":8015:8073   */\n      mstore\n        /* \"#utility.yul\":8107:8122   */\n      0x746869732066756e6374696f6e00000000000000000000000000000000000000\n        /* \"#utility.yul\":8102:8104   */\n      0x20\n        /* \"#utility.yul\":8094:8100   */\n      dup3\n        /* \"#utility.yul\":8090:8105   */\n      add\n        /* \"#utility.yul\":8083:8123   */\n      mstore\n        /* \"#utility.yul\":7898:8130   */\n      pop\n      jump\t// out\n        /* \"#utility.yul\":8136:8502   */\n    tag_128:\n        /* \"#utility.yul\":8278:8281   */\n      0x00\n        /* \"#utility.yul\":8299:8366   */\n      tag_205\n        /* \"#utility.yul\":8363:8365   */\n      0x2d\n        /* \"#utility.yul\":8358:8361   */\n      dup4\n        /* \"#utility.yul\":8299:8366   */\n      tag_113\n      jump\t// in\n    tag_205:\n        /* \"#utility.yul\":8292:8366   */\n      swap2\n      pop\n        /* \"#utility.yul\":8375:8468   */\n      tag_206\n        /* \"#utility.yul\":8464:8467   */\n      dup3\n        /* \"#utility.yul\":8375:8468   */\n      tag_127\n      jump\t// in\n    tag_206:\n        /* \"#utility.yul\":8493:8495   */\n      0x40\n        /* \"#utility.yul\":8488:8491   */\n      dup3\n        /* \"#utility.yul\":8484:8496   */\n      add\n        /* \"#utility.yul\":8477:8496   */\n      swap1\n      pop\n        /* \"#utility.yul\":8136:8502   */\n      swap2\n      swap1\n      pop\n      jump\t// out\n        /* \"#utility.yul\":8508:8927   */\n    tag_84:\n        /* \"#utility.yul\":8674:8678   */\n      0x00\n        /* \"#utility.yul\":8712:8714   */\n      0x20\n        /* \"#utility.yul\":8701:8710   */\n      dup3\n        /* \"#utility.yul\":8697:8715   */\n      add\n        /* \"#utility.yul\":8689:8715   */\n      swap1\n      pop\n        /* \"#utility.yul\":8761:8770   */\n      dup2\n        /* \"#utility.yul\":8755:8759   */\n      dup2\n        /* \"#utility.yul\":8751:8771   */\n      sub\n        /* \"#utility.yul\":8747:8748   */\n      0x00\n        /* \"#utility.yul\":8736:8745   */\n      dup4\n        /* \"#utility.yul\":8732:8749   */\n      add\n        /* \"#utility.yul\":8725:8772   */\n      mstore\n        /* \"#utility.yul\":8789:8920   */\n      tag_208\n        /* \"#utility.yul\":8915:8919   */\n      dup2\n        /* \"#utility.yul\":8789:8920   */\n      tag_128\n      jump\t// in\n    tag_208:\n        /* \"#utility.yul\":8781:8920   */\n      swap1\n      pop\n        /* \"#utility.yul\":8508:8927   */\n      swap2\n      swap1\n      pop\n      jump\t// out\n        /* \"#utility.yul\":8933:9110   */\n    tag_129:\n        /* \"#utility.yul\":9073:9102   */\n      0x5468652061756374696f6e206973207374696c6c206163746976650000000000\n        /* \"#utility.yul\":9069:9070   */\n      0x00\n        /* \"#utility.yul\":9061:9067   */\n      dup3\n        /* \"#utility.yul\":9057:9071   */\n      add\n        /* \"#utility.yul\":9050:9103   */\n      mstore\n        /* \"#utility.yul\":8933:9110   */\n      pop\n      jump\t// out\n        /* \"#utility.yul\":9116:9482   */\n    tag_130:\n        /* \"#utility.yul\":9258:9261   */\n      0x00\n        /* \"#utility.yul\":9279:9346   */\n      tag_211\n        /* \"#utility.yul\":9343:9345   */\n      0x1b\n        /* \"#utility.yul\":9338:9341   */\n      dup4\n        /* \"#utility.yul\":9279:9346   */\n      tag_113\n      jump\t// in\n    tag_211:\n        /* \"#utility.yul\":9272:9346   */\n      swap2\n      pop\n        /* \"#utility.yul\":9355:9448   */\n      tag_212\n        /* \"#utility.yul\":9444:9447   */\n      dup3\n        /* \"#utility.yul\":9355:9448   */\n      tag_129\n      jump\t// in\n    tag_212:\n        /* \"#utility.yul\":9473:9475   */\n      0x20\n        /* \"#utility.yul\":9468:9471   */\n      dup3\n        /* \"#utility.yul\":9464:9476   */\n      add\n        /* \"#utility.yul\":9457:9476   */\n      swap1\n      pop\n        /* \"#utility.yul\":9116:9482   */\n      swap2\n      swap1\n      pop\n      jump\t// out\n        /* \"#utility.yul\":9488:9907   */\n    tag_88:\n        /* \"#utility.yul\":9654:9658   */\n      0x00\n        /* \"#utility.yul\":9692:9694   */\n      0x20\n        /* \"#utility.yul\":9681:9690   */\n      dup3\n        /* \"#utility.yul\":9677:9695   */\n      add\n        /* \"#utility.yul\":9669:9695   */\n      swap1\n      pop\n        /* \"#utility.yul\":9741:9750   */\n      dup2\n        /* \"#utility.yul\":9735:9739   */\n      dup2\n        /* \"#utility.yul\":9731:9751   */\n      sub\n        /* \"#utility.yul\":9727:9728   */\n      0x00\n        /* \"#utility.yul\":9716:9725   */\n      dup4\n        /* \"#utility.yul\":9712:9729   */\n      add\n        /* \"#utility.yul\":9705:9752   */\n      mstore\n        /* \"#utility.yul\":9769:9900   */\n      tag_214\n        /* \"#utility.yul\":9895:9899   */\n      dup2\n        /* \"#utility.yul\":9769:9900   */\n      tag_130\n      jump\t// in\n    tag_214:\n        /* \"#utility.yul\":9761:9900   */\n      swap1\n      pop\n        /* \"#utility.yul\":9488:9907   */\n      swap2\n      swap1\n      pop\n      jump\t// out\n        /* \"#utility.yul\":9913:10088   */\n    tag_131:\n        /* \"#utility.yul\":10053:10080   */\n      0x5468652061756374696f6e20686173206e6f7420656e64656400000000000000\n        /* \"#utility.yul\":10049:10050   */\n      0x00\n        /* \"#utility.yul\":10041:10047   */\n      dup3\n        /* \"#utility.yul\":10037:10051   */\n      add\n        /* \"#utility.yul\":10030:10081   */\n      mstore\n        /* \"#utility.yul\":9913:10088   */\n      pop\n      jump\t// out\n        /* \"#utility.yul\":10094:10460   */\n    tag_132:\n        /* \"#utility.yul\":10236:10239   */\n      0x00\n        /* \"#utility.yul\":10257:10324   */\n      tag_217\n        /* \"#utility.yul\":10321:10323   */\n      0x19\n        /* \"#utility.yul\":10316:10319   */\n      dup4\n        /* \"#utility.yul\":10257:10324   */\n      tag_113\n      jump\t// in\n    tag_217:\n        /* \"#utility.yul\":10250:10324   */\n      swap2\n      pop\n        /* \"#utility.yul\":10333:10426   */\n      tag_218\n        /* \"#utility.yul\":10422:10425   */\n      dup3\n        /* \"#utility.yul\":10333:10426   */\n      tag_131\n      jump\t// in\n    tag_218:\n        /* \"#utility.yul\":10451:10453   */\n      0x20\n        /* \"#utility.yul\":10446:10449   */\n      dup3\n        /* \"#utility.yul\":10442:10454   */\n      add\n        /* \"#utility.yul\":10435:10454   */\n      swap1\n      pop\n        /* \"#utility.yul\":10094:10460   */\n      swap2\n      swap1\n      pop\n      jump\t// out\n        /* \"#utility.yul\":10466:10885   */\n    tag_100:\n        /* \"#utility.yul\":10632:10636   */\n      0x00\n        /* \"#utility.yul\":10670:10672   */\n      0x20\n        /* \"#utility.yul\":10659:10668   */\n      dup3\n        /* \"#utility.yul\":10655:10673   */\n      add\n        /* \"#utility.yul\":10647:10673   */\n      swap1\n      pop\n        /* \"#utility.yul\":10719:10728   */\n      dup2\n        /* \"#utility.yul\":10713:10717   */\n      dup2\n        /* \"#utility.yul\":10709:10729   */\n      sub\n        /* \"#utility.yul\":10705:10706   */\n      0x00\n        /* \"#utility.yul\":10694:10703   */\n      dup4\n        /* \"#utility.yul\":10690:10707   */\n      add\n        /* \"#utility.yul\":10683:10730   */\n      mstore\n        /* \"#utility.yul\":10747:10878   */\n      tag_220\n        /* \"#utility.yul\":10873:10877   */\n      dup2\n        /* \"#utility.yul\":10747:10878   */\n      tag_132\n      jump\t// in\n    tag_220:\n        /* \"#utility.yul\":10739:10878   */\n      swap1\n      pop\n        /* \"#utility.yul\":10466:10885   */\n      swap2\n      swap1\n      pop\n      jump\t// out\n        /* \"#utility.yul\":10891:11062   */\n    tag_133:\n        /* \"#utility.yul\":11031:11054   */\n      0x41756374696f6e20616c726561647920656e6465640000000000000000000000\n        /* \"#utility.yul\":11027:11028   */\n      0x00\n        /* \"#utility.yul\":11019:11025   */\n      dup3\n        /* \"#utility.yul\":11015:11029   */\n      add\n        /* \"#utility.yul\":11008:11055   */\n      mstore\n        /* \"#utility.yul\":10891:11062   */\n      pop\n      jump\t// out\n        /* \"#utility.yul\":11068:11434   */\n    tag_134:\n        /* \"#utility.yul\":11210:11213   */\n      0x00\n        /* \"#utility.yul\":11231:11298   */\n      tag_223\n        /* \"#utility.yul\":11295:11297   */\n      0x15\n        /* \"#utility.yul\":11290:11293   */\n      dup4\n        /* \"#utility.yul\":11231:11298   */\n      tag_113\n      jump\t// in\n    tag_223:\n        /* \"#utility.yul\":11224:11298   */\n      swap2\n      pop\n        /* \"#utility.yul\":11307:11400   */\n      tag_224\n        /* \"#utility.yul\":11396:11399   */\n      dup3\n        /* \"#utility.yul\":11307:11400   */\n      tag_133\n      jump\t// in\n    tag_224:\n        /* \"#utility.yul\":11425:11427   */\n      0x20\n        /* \"#utility.yul\":11420:11423   */\n      dup3\n        /* \"#utility.yul\":11416:11428   */\n      add\n        /* \"#utility.yul\":11409:11428   */\n      swap1\n      pop\n        /* \"#utility.yul\":11068:11434   */\n      swap2\n      swap1\n      pop\n      jump\t// out\n        /* \"#utility.yul\":11440:11859   */\n    tag_103:\n        /* \"#utility.yul\":11606:11610   */\n      0x00\n        /* \"#utility.yul\":11644:11646   */\n      0x20\n        /* \"#utility.yul\":11633:11642   */\n      dup3\n        /* \"#utility.yul\":11629:11647   */\n      add\n        /* \"#utility.yul\":11621:11647   */\n      swap1\n      pop\n        /* \"#utility.yul\":11693:11702   */\n      dup2\n        /* \"#utility.yul\":11687:11691   */\n      dup2\n        /* \"#utility.yul\":11683:11703   */\n      sub\n        /* \"#utility.yul\":11679:11680   */\n      0x00\n        /* \"#utility.yul\":11668:11677   */\n      dup4\n        /* \"#utility.yul\":11664:11681   */\n      add\n        /* \"#utility.yul\":11657:11704   */\n      mstore\n        /* \"#utility.yul\":11721:11852   */\n      tag_226\n        /* \"#utility.yul\":11847:11851   */\n      dup2\n        /* \"#utility.yul\":11721:11852   */\n      tag_134\n      jump\t// in\n    tag_226:\n        /* \"#utility.yul\":11713:11852   */\n      swap1\n      pop\n        /* \"#utility.yul\":11440:11859   */\n      swap2\n      swap1\n      pop\n      jump\t// out\n        /* \"#utility.yul\":11865:12197   */\n    tag_105:\n        /* \"#utility.yul\":11986:11990   */\n      0x00\n        /* \"#utility.yul\":12024:12026   */\n      0x40\n        /* \"#utility.yul\":12013:12022   */\n      dup3\n        /* \"#utility.yul\":12009:12027   */\n      add\n        /* \"#utility.yul\":12001:12027   */\n      swap1\n      pop\n        /* \"#utility.yul\":12037:12108   */\n      tag_228\n        /* \"#utility.yul\":12105:12106   */\n      0x00\n        /* \"#utility.yul\":12094:12103   */\n      dup4\n        /* \"#utility.yul\":12090:12107   */\n      add\n        /* \"#utility.yul\":12081:12087   */\n      dup6\n        /* \"#utility.yul\":12037:12108   */\n      tag_110\n      jump\t// in\n    tag_228:\n        /* \"#utility.yul\":12118:12190   */\n      tag_229\n        /* \"#utility.yul\":12186:12188   */\n      0x20\n        /* \"#utility.yul\":12175:12184   */\n      dup4\n        /* \"#utility.yul\":12171:12189   */\n      add\n        /* \"#utility.yul\":12162:12168   */\n      dup5\n        /* \"#utility.yul\":12118:12190   */\n      tag_107\n      jump\t// in\n    tag_229:\n        /* \"#utility.yul\":11865:12197   */\n      swap4\n      swap3\n      pop\n      pop\n      pop\n      jump\t// out\n\n    auxdata: 0xa2646970667358221220587afff72d60520566887c7c6e7d2f2a3cf1b09cd7eaea6d2bc67be7b54b062064736f6c634300081a0033\n}\n",
				"bytecode": {
					"linkReferences": {},
					"object": "60806040526002600355348015610014575f80fd5b5060405161101e38038061101e83398181016040528101906100369190610130565b335f806101000a81548173ffffffffffffffffffffffffffffffffffffffff021916908373ffffffffffffffffffffffffffffffffffffffff16021790555080600281905550600160045f6101000a81548160ff02191690831515021790555062015180426100a59190610188565b60018190555033600460016101000a81548173ffffffffffffffffffffffffffffffffffffffff021916908373ffffffffffffffffffffffffffffffffffffffff16021790555080600581905550506101bb565b5f80fd5b5f819050919050565b61010f816100fd565b8114610119575f80fd5b50565b5f8151905061012a81610106565b92915050565b5f60208284031215610145576101446100f9565b5b5f6101528482850161011c565b91505092915050565b7f4e487b71000000000000000000000000000000000000000000000000000000005f52601160045260245ffd5b5f610192826100fd565b915061019d836100fd565b92508282019050808211156101b5576101b461015b565b5b92915050565b610e56806101c85f395ff3fe608060405260043610610090575f3560e01c806391f901571161005857806391f9015714610132578063922280061461015c578063d3a8638614610186578063d57bde79146101b0578063fe67a54b146101da57610090565b80631998aeef146100945780633197cbb61461009e57806337072780146100c85780633ccfd60b146100f25780635ec2c7bf14610108575b5f80fd5b61009c6101f0565b005b3480156100a9575f80fd5b506100b26104c4565b6040516100bf9190610854565b60405180910390f35b3480156100d3575f80fd5b506100dc6104ca565b6040516100e99190610854565b60405180910390f35b3480156100fd575f80fd5b506101066104d0565b005b348015610113575f80fd5b5061011c61063d565b60405161012991906108ac565b60405180910390f35b34801561013d575f80fd5b50610146610660565b60405161015391906108ac565b60405180910390f35b348015610167575f80fd5b50610170610686565b60405161017d91906108df565b60405180910390f35b348015610191575f80fd5b5061019a610698565b6040516101a79190610854565b60405180910390f35b3480156101bb575f80fd5b506101c461069e565b6040516101d19190610854565b60405180910390f35b3480156101e5575f80fd5b506101ee6106a4565b005b60045f9054906101000a900460ff1661023e576040517f08c379a000000000000000000000000000000000000000000000000000000000815260040161023590610952565b60405180910390fd5b6064606960055461024f919061099d565b6102599190610a0b565b34101561029b576040517f08c379a000000000000000000000000000000000000000000000000000000000815260040161029290610aab565b60405180910390fd5b60015442106102df576040517f08c379a00000000000000000000000000000000000000000000000000000000081526004016102d690610b13565b60405180910390fd5b5f73ffffffffffffffffffffffffffffffffffffffff16600460019054906101000a900473ffffffffffffffffffffffffffffffffffffffff1673ffffffffffffffffffffffffffffffffffffffff161461042c575f606460035460646103469190610b31565b600554610353919061099d565b61035d9190610a0b565b90505f600460019054906101000a900473ffffffffffffffffffffffffffffffffffffffff1673ffffffffffffffffffffffffffffffffffffffff16826040516103a690610b91565b5f6040518083038185875af1925050503d805f81146103e0576040519150601f19603f3d011682016040523d82523d5f602084013e6103e5565b606091505b5050905080610429576040517f08c379a000000000000000000000000000000000000000000000000000000000815260040161042090610c15565b60405180910390fd5b50505b33600460016101000a81548173ffffffffffffffffffffffffffffffffffffffff021916908373ffffffffffffffffffffffffffffffffffffffff160217905550346005819055503373ffffffffffffffffffffffffffffffffffffffff167fdd0b6c6a77960e2066c96171b4d7ac9e8b4c184011f38544afa36a5bb63ec59f346040516104ba9190610854565b60405180910390a2565b60015481565b60035481565b5f8054906101000a900473ffffffffffffffffffffffffffffffffffffffff1673ffffffffffffffffffffffffffffffffffffffff163373ffffffffffffffffffffffffffffffffffffffff161461055d576040517f08c379a000000000000000000000000000000000000000000000000000000000815260040161055490610ca3565b60405180910390fd5b60045f9054906101000a900460ff16156105ac576040517f08c379a00000000000000000000000000000000000000000000000000000000081526004016105a390610d0b565b60405180910390fd5b5f606460035460646105be9190610b31565b6005546105cb919061099d565b6105d59190610a0b565b90505f8054906101000a900473ffffffffffffffffffffffffffffffffffffffff1673ffffffffffffffffffffffffffffffffffffffff166108fc8290811502906040515f60405180830381858888f19350505050158015610639573d5f803e3d5ffd5b5050565b5f8054906101000a900473ffffffffffffffffffffffffffffffffffffffff1681565b600460019054906101000a900473ffffffffffffffffffffffffffffffffffffffff1681565b60045f9054906101000a900460ff1681565b60025481565b60055481565b5f8054906101000a900473ffffffffffffffffffffffffffffffffffffffff1673ffffffffffffffffffffffffffffffffffffffff163373ffffffffffffffffffffffffffffffffffffffff1614610731576040517f08c379a000000000000000000000000000000000000000000000000000000000815260040161072890610ca3565b60405180910390fd5b600154421015610776576040517f08c379a000000000000000000000000000000000000000000000000000000000815260040161076d90610d73565b60405180910390fd5b60045f9054906101000a900460ff166107c4576040517f08c379a00000000000000000000000000000000000000000000000000000000081526004016107bb90610ddb565b60405180910390fd5b5f60045f6101000a81548160ff0219169083151502179055507fdaec4582d5d9595688c8c98545fdd1c696d41c6aeaeb636737e84ed2f5c00eda600460019054906101000a900473ffffffffffffffffffffffffffffffffffffffff16600554604051610832929190610df9565b60405180910390a1565b5f819050919050565b61084e8161083c565b82525050565b5f6020820190506108675f830184610845565b92915050565b5f73ffffffffffffffffffffffffffffffffffffffff82169050919050565b5f6108968261086d565b9050919050565b6108a68161088c565b82525050565b5f6020820190506108bf5f83018461089d565b92915050565b5f8115159050919050565b6108d9816108c5565b82525050565b5f6020820190506108f25f8301846108d0565b92915050565b5f82825260208201905092915050565b7f5468652061756374696f6e206973206e6f7420616374697665000000000000005f82015250565b5f61093c6019836108f8565b915061094782610908565b602082019050919050565b5f6020820190508181035f83015261096981610930565b9050919050565b7f4e487b71000000000000000000000000000000000000000000000000000000005f52601160045260245ffd5b5f6109a78261083c565b91506109b28361083c565b92508282026109c08161083c565b915082820484148315176109d7576109d6610970565b5b5092915050565b7f4e487b71000000000000000000000000000000000000000000000000000000005f52601260045260245ffd5b5f610a158261083c565b9150610a208361083c565b925082610a3057610a2f6109de565b5b828204905092915050565b7f54686520626964206d757374206265206174206c6561737420352520686967685f8201527f6572207468616e207468652063757272656e7420626964000000000000000000602082015250565b5f610a956037836108f8565b9150610aa082610a3b565b604082019050919050565b5f6020820190508181035f830152610ac281610a89565b9050919050565b7f5468652061756374696f6e2068617320656e64656400000000000000000000005f82015250565b5f610afd6015836108f8565b9150610b0882610ac9565b602082019050919050565b5f6020820190508181035f830152610b2a81610af1565b9050919050565b5f610b3b8261083c565b9150610b468361083c565b9250828203905081811115610b5e57610b5d610970565b5b92915050565b5f81905092915050565b50565b5f610b7c5f83610b64565b9150610b8782610b6e565b5f82019050919050565b5f610b9b82610b71565b9150819050919050565b7f526566756e6420746f2070726576696f757320686967686573742062696464655f8201527f72206661696c6564000000000000000000000000000000000000000000000000602082015250565b5f610bff6028836108f8565b9150610c0a82610ba5565b604082019050919050565b5f6020820190508181035f830152610c2c81610bf3565b9050919050565b7f4f6e6c79207468652061756374696f6e6565722063616e2065786563757465205f8201527f746869732066756e6374696f6e00000000000000000000000000000000000000602082015250565b5f610c8d602d836108f8565b9150610c9882610c33565b604082019050919050565b5f6020820190508181035f830152610cba81610c81565b9050919050565b7f5468652061756374696f6e206973207374696c6c2061637469766500000000005f82015250565b5f610cf5601b836108f8565b9150610d0082610cc1565b602082019050919050565b5f6020820190508181035f830152610d2281610ce9565b9050919050565b7f5468652061756374696f6e20686173206e6f7420656e646564000000000000005f82015250565b5f610d5d6019836108f8565b9150610d6882610d29565b602082019050919050565b5f6020820190508181035f830152610d8a81610d51565b9050919050565b7f41756374696f6e20616c726561647920656e64656400000000000000000000005f82015250565b5f610dc56015836108f8565b9150610dd082610d91565b602082019050919050565b5f6020820190508181035f830152610df281610db9565b9050919050565b5f604082019050610e0c5f83018561089d565b610e196020830184610845565b939250505056fea2646970667358221220587afff72d60520566887c7c6e7d2f2a3cf1b09cd7eaea6d2bc67be7b54b062064736f6c634300081a0033",
					"opcodes": "PUSH1 0x80 PUSH1 0x40 MSTORE PUSH1 0x2 PUSH1 0x3 SSTORE CALLVALUE DUP1 ISZERO PUSH2 0x14 JUMPI PUSH0 DUP1 REVERT JUMPDEST POP PUSH1 0x40 MLOAD PUSH2 0x101E CODESIZE SUB DUP1 PUSH2 0x101E DUP4 CODECOPY DUP2 DUP2 ADD PUSH1 0x40 MSTORE DUP2 ADD SWAP1 PUSH2 0x36 SWAP2 SWAP1 PUSH2 0x130 JUMP JUMPDEST CALLER PUSH0 DUP1 PUSH2 0x100 EXP DUP2 SLOAD DUP2 PUSH20 0xFFFFFFFFFFFFFFFFFFFFFFFFFFFFFFFFFFFFFFFF MUL NOT AND SWAP1 DUP4 PUSH20 0xFFFFFFFFFFFFFFFFFFFFFFFFFFFFFFFFFFFFFFFF AND MUL OR SWAP1 SSTORE POP DUP1 PUSH1 0x2 DUP2 SWAP1 SSTORE POP PUSH1 0x1 PUSH1 0x4 PUSH0 PUSH2 0x100 EXP DUP2 SLOAD DUP2 PUSH1 0xFF MUL NOT AND SWAP1 DUP4 ISZERO ISZERO MUL OR SWAP1 SSTORE POP PUSH3 0x15180 TIMESTAMP PUSH2 0xA5 SWAP2 SWAP1 PUSH2 0x188 JUMP JUMPDEST PUSH1 0x1 DUP2 SWAP1 SSTORE POP CALLER PUSH1 0x4 PUSH1 0x1 PUSH2 0x100 EXP DUP2 SLOAD DUP2 PUSH20 0xFFFFFFFFFFFFFFFFFFFFFFFFFFFFFFFFFFFFFFFF MUL NOT AND SWAP1 DUP4 PUSH20 0xFFFFFFFFFFFFFFFFFFFFFFFFFFFFFFFFFFFFFFFF AND MUL OR SWAP1 SSTORE POP DUP1 PUSH1 0x5 DUP2 SWAP1 SSTORE POP POP PUSH2 0x1BB JUMP JUMPDEST PUSH0 DUP1 REVERT JUMPDEST PUSH0 DUP2 SWAP1 POP SWAP2 SWAP1 POP JUMP JUMPDEST PUSH2 0x10F DUP2 PUSH2 0xFD JUMP JUMPDEST DUP2 EQ PUSH2 0x119 JUMPI PUSH0 DUP1 REVERT JUMPDEST POP JUMP JUMPDEST PUSH0 DUP2 MLOAD SWAP1 POP PUSH2 0x12A DUP2 PUSH2 0x106 JUMP JUMPDEST SWAP3 SWAP2 POP POP JUMP JUMPDEST PUSH0 PUSH1 0x20 DUP3 DUP5 SUB SLT ISZERO PUSH2 0x145 JUMPI PUSH2 0x144 PUSH2 0xF9 JUMP JUMPDEST JUMPDEST PUSH0 PUSH2 0x152 DUP5 DUP3 DUP6 ADD PUSH2 0x11C JUMP JUMPDEST SWAP2 POP POP SWAP3 SWAP2 POP POP JUMP JUMPDEST PUSH32 0x4E487B7100000000000000000000000000000000000000000000000000000000 PUSH0 MSTORE PUSH1 0x11 PUSH1 0x4 MSTORE PUSH1 0x24 PUSH0 REVERT JUMPDEST PUSH0 PUSH2 0x192 DUP3 PUSH2 0xFD JUMP JUMPDEST SWAP2 POP PUSH2 0x19D DUP4 PUSH2 0xFD JUMP JUMPDEST SWAP3 POP DUP3 DUP3 ADD SWAP1 POP DUP1 DUP3 GT ISZERO PUSH2 0x1B5 JUMPI PUSH2 0x1B4 PUSH2 0x15B JUMP JUMPDEST JUMPDEST SWAP3 SWAP2 POP POP JUMP JUMPDEST PUSH2 0xE56 DUP1 PUSH2 0x1C8 PUSH0 CODECOPY PUSH0 RETURN INVALID PUSH1 0x80 PUSH1 0x40 MSTORE PUSH1 0x4 CALLDATASIZE LT PUSH2 0x90 JUMPI PUSH0 CALLDATALOAD PUSH1 0xE0 SHR DUP1 PUSH4 0x91F90157 GT PUSH2 0x58 JUMPI DUP1 PUSH4 0x91F90157 EQ PUSH2 0x132 JUMPI DUP1 PUSH4 0x92228006 EQ PUSH2 0x15C JUMPI DUP1 PUSH4 0xD3A86386 EQ PUSH2 0x186 JUMPI DUP1 PUSH4 0xD57BDE79 EQ PUSH2 0x1B0 JUMPI DUP1 PUSH4 0xFE67A54B EQ PUSH2 0x1DA JUMPI PUSH2 0x90 JUMP JUMPDEST DUP1 PUSH4 0x1998AEEF EQ PUSH2 0x94 JUMPI DUP1 PUSH4 0x3197CBB6 EQ PUSH2 0x9E JUMPI DUP1 PUSH4 0x37072780 EQ PUSH2 0xC8 JUMPI DUP1 PUSH4 0x3CCFD60B EQ PUSH2 0xF2 JUMPI DUP1 PUSH4 0x5EC2C7BF EQ PUSH2 0x108 JUMPI JUMPDEST PUSH0 DUP1 REVERT JUMPDEST PUSH2 0x9C PUSH2 0x1F0 JUMP JUMPDEST STOP JUMPDEST CALLVALUE DUP1 ISZERO PUSH2 0xA9 JUMPI PUSH0 DUP1 REVERT JUMPDEST POP PUSH2 0xB2 PUSH2 0x4C4 JUMP JUMPDEST PUSH1 0x40 MLOAD PUSH2 0xBF SWAP2 SWAP1 PUSH2 0x854 JUMP JUMPDEST PUSH1 0x40 MLOAD DUP1 SWAP2 SUB SWAP1 RETURN JUMPDEST CALLVALUE DUP1 ISZERO PUSH2 0xD3 JUMPI PUSH0 DUP1 REVERT JUMPDEST POP PUSH2 0xDC PUSH2 0x4CA JUMP JUMPDEST PUSH1 0x40 MLOAD PUSH2 0xE9 SWAP2 SWAP1 PUSH2 0x854 JUMP JUMPDEST PUSH1 0x40 MLOAD DUP1 SWAP2 SUB SWAP1 RETURN JUMPDEST CALLVALUE DUP1 ISZERO PUSH2 0xFD JUMPI PUSH0 DUP1 REVERT JUMPDEST POP PUSH2 0x106 PUSH2 0x4D0 JUMP JUMPDEST STOP JUMPDEST CALLVALUE DUP1 ISZERO PUSH2 0x113 JUMPI PUSH0 DUP1 REVERT JUMPDEST POP PUSH2 0x11C PUSH2 0x63D JUMP JUMPDEST PUSH1 0x40 MLOAD PUSH2 0x129 SWAP2 SWAP1 PUSH2 0x8AC JUMP JUMPDEST PUSH1 0x40 MLOAD DUP1 SWAP2 SUB SWAP1 RETURN JUMPDEST CALLVALUE DUP1 ISZERO PUSH2 0x13D JUMPI PUSH0 DUP1 REVERT JUMPDEST POP PUSH2 0x146 PUSH2 0x660 JUMP JUMPDEST PUSH1 0x40 MLOAD PUSH2 0x153 SWAP2 SWAP1 PUSH2 0x8AC JUMP JUMPDEST PUSH1 0x40 MLOAD DUP1 SWAP2 SUB SWAP1 RETURN JUMPDEST CALLVALUE DUP1 ISZERO PUSH2 0x167 JUMPI PUSH0 DUP1 REVERT JUMPDEST POP PUSH2 0x170 PUSH2 0x686 JUMP JUMPDEST PUSH1 0x40 MLOAD PUSH2 0x17D SWAP2 SWAP1 PUSH2 0x8DF JUMP JUMPDEST PUSH1 0x40 MLOAD DUP1 SWAP2 SUB SWAP1 RETURN JUMPDEST CALLVALUE DUP1 ISZERO PUSH2 0x191 JUMPI PUSH0 DUP1 REVERT JUMPDEST POP PUSH2 0x19A PUSH2 0x698 JUMP JUMPDEST PUSH1 0x40 MLOAD PUSH2 0x1A7 SWAP2 SWAP1 PUSH2 0x854 JUMP JUMPDEST PUSH1 0x40 MLOAD DUP1 SWAP2 SUB SWAP1 RETURN JUMPDEST CALLVALUE DUP1 ISZERO PUSH2 0x1BB JUMPI PUSH0 DUP1 REVERT JUMPDEST POP PUSH2 0x1C4 PUSH2 0x69E JUMP JUMPDEST PUSH1 0x40 MLOAD PUSH2 0x1D1 SWAP2 SWAP1 PUSH2 0x854 JUMP JUMPDEST PUSH1 0x40 MLOAD DUP1 SWAP2 SUB SWAP1 RETURN JUMPDEST CALLVALUE DUP1 ISZERO PUSH2 0x1E5 JUMPI PUSH0 DUP1 REVERT JUMPDEST POP PUSH2 0x1EE PUSH2 0x6A4 JUMP JUMPDEST STOP JUMPDEST PUSH1 0x4 PUSH0 SWAP1 SLOAD SWAP1 PUSH2 0x100 EXP SWAP1 DIV PUSH1 0xFF AND PUSH2 0x23E JUMPI PUSH1 0x40 MLOAD PUSH32 0x8C379A000000000000000000000000000000000000000000000000000000000 DUP2 MSTORE PUSH1 0x4 ADD PUSH2 0x235 SWAP1 PUSH2 0x952 JUMP JUMPDEST PUSH1 0x40 MLOAD DUP1 SWAP2 SUB SWAP1 REVERT JUMPDEST PUSH1 0x64 PUSH1 0x69 PUSH1 0x5 SLOAD PUSH2 0x24F SWAP2 SWAP1 PUSH2 0x99D JUMP JUMPDEST PUSH2 0x259 SWAP2 SWAP1 PUSH2 0xA0B JUMP JUMPDEST CALLVALUE LT ISZERO PUSH2 0x29B JUMPI PUSH1 0x40 MLOAD PUSH32 0x8C379A000000000000000000000000000000000000000000000000000000000 DUP2 MSTORE PUSH1 0x4 ADD PUSH2 0x292 SWAP1 PUSH2 0xAAB JUMP JUMPDEST PUSH1 0x40 MLOAD DUP1 SWAP2 SUB SWAP1 REVERT JUMPDEST PUSH1 0x1 SLOAD TIMESTAMP LT PUSH2 0x2DF JUMPI PUSH1 0x40 MLOAD PUSH32 0x8C379A000000000000000000000000000000000000000000000000000000000 DUP2 MSTORE PUSH1 0x4 ADD PUSH2 0x2D6 SWAP1 PUSH2 0xB13 JUMP JUMPDEST PUSH1 0x40 MLOAD DUP1 SWAP2 SUB SWAP1 REVERT JUMPDEST PUSH0 PUSH20 0xFFFFFFFFFFFFFFFFFFFFFFFFFFFFFFFFFFFFFFFF AND PUSH1 0x4 PUSH1 0x1 SWAP1 SLOAD SWAP1 PUSH2 0x100 EXP SWAP1 DIV PUSH20 0xFFFFFFFFFFFFFFFFFFFFFFFFFFFFFFFFFFFFFFFF AND PUSH20 0xFFFFFFFFFFFFFFFFFFFFFFFFFFFFFFFFFFFFFFFF AND EQ PUSH2 0x42C JUMPI PUSH0 PUSH1 0x64 PUSH1 0x3 SLOAD PUSH1 0x64 PUSH2 0x346 SWAP2 SWAP1 PUSH2 0xB31 JUMP JUMPDEST PUSH1 0x5 SLOAD PUSH2 0x353 SWAP2 SWAP1 PUSH2 0x99D JUMP JUMPDEST PUSH2 0x35D SWAP2 SWAP1 PUSH2 0xA0B JUMP JUMPDEST SWAP1 POP PUSH0 PUSH1 0x4 PUSH1 0x1 SWAP1 SLOAD SWAP1 PUSH2 0x100 EXP SWAP1 DIV PUSH20 0xFFFFFFFFFFFFFFFFFFFFFFFFFFFFFFFFFFFFFFFF AND PUSH20 0xFFFFFFFFFFFFFFFFFFFFFFFFFFFFFFFFFFFFFFFF AND DUP3 PUSH1 0x40 MLOAD PUSH2 0x3A6 SWAP1 PUSH2 0xB91 JUMP JUMPDEST PUSH0 PUSH1 0x40 MLOAD DUP1 DUP4 SUB DUP2 DUP6 DUP8 GAS CALL SWAP3 POP POP POP RETURNDATASIZE DUP1 PUSH0 DUP2 EQ PUSH2 0x3E0 JUMPI PUSH1 0x40 MLOAD SWAP2 POP PUSH1 0x1F NOT PUSH1 0x3F RETURNDATASIZE ADD AND DUP3 ADD PUSH1 0x40 MSTORE RETURNDATASIZE DUP3 MSTORE RETURNDATASIZE PUSH0 PUSH1 0x20 DUP5 ADD RETURNDATACOPY PUSH2 0x3E5 JUMP JUMPDEST PUSH1 0x60 SWAP2 POP JUMPDEST POP POP SWAP1 POP DUP1 PUSH2 0x429 JUMPI PUSH1 0x40 MLOAD PUSH32 0x8C379A000000000000000000000000000000000000000000000000000000000 DUP2 MSTORE PUSH1 0x4 ADD PUSH2 0x420 SWAP1 PUSH2 0xC15 JUMP JUMPDEST PUSH1 0x40 MLOAD DUP1 SWAP2 SUB SWAP1 REVERT JUMPDEST POP POP JUMPDEST CALLER PUSH1 0x4 PUSH1 0x1 PUSH2 0x100 EXP DUP2 SLOAD DUP2 PUSH20 0xFFFFFFFFFFFFFFFFFFFFFFFFFFFFFFFFFFFFFFFF MUL NOT AND SWAP1 DUP4 PUSH20 0xFFFFFFFFFFFFFFFFFFFFFFFFFFFFFFFFFFFFFFFF AND MUL OR SWAP1 SSTORE POP CALLVALUE PUSH1 0x5 DUP2 SWAP1 SSTORE POP CALLER PUSH20 0xFFFFFFFFFFFFFFFFFFFFFFFFFFFFFFFFFFFFFFFF AND PUSH32 0xDD0B6C6A77960E2066C96171B4D7AC9E8B4C184011F38544AFA36A5BB63EC59F CALLVALUE PUSH1 0x40 MLOAD PUSH2 0x4BA SWAP2 SWAP1 PUSH2 0x854 JUMP JUMPDEST PUSH1 0x40 MLOAD DUP1 SWAP2 SUB SWAP1 LOG2 JUMP JUMPDEST PUSH1 0x1 SLOAD DUP2 JUMP JUMPDEST PUSH1 0x3 SLOAD DUP2 JUMP JUMPDEST PUSH0 DUP1 SLOAD SWAP1 PUSH2 0x100 EXP SWAP1 DIV PUSH20 0xFFFFFFFFFFFFFFFFFFFFFFFFFFFFFFFFFFFFFFFF AND PUSH20 0xFFFFFFFFFFFFFFFFFFFFFFFFFFFFFFFFFFFFFFFF AND CALLER PUSH20 0xFFFFFFFFFFFFFFFFFFFFFFFFFFFFFFFFFFFFFFFF AND EQ PUSH2 0x55D JUMPI PUSH1 0x40 MLOAD PUSH32 0x8C379A000000000000000000000000000000000000000000000000000000000 DUP2 MSTORE PUSH1 0x4 ADD PUSH2 0x554 SWAP1 PUSH2 0xCA3 JUMP JUMPDEST PUSH1 0x40 MLOAD DUP1 SWAP2 SUB SWAP1 REVERT JUMPDEST PUSH1 0x4 PUSH0 SWAP1 SLOAD SWAP1 PUSH2 0x100 EXP SWAP1 DIV PUSH1 0xFF AND ISZERO PUSH2 0x5AC JUMPI PUSH1 0x40 MLOAD PUSH32 0x8C379A000000000000000000000000000000000000000000000000000000000 DUP2 MSTORE PUSH1 0x4 ADD PUSH2 0x5A3 SWAP1 PUSH2 0xD0B JUMP JUMPDEST PUSH1 0x40 MLOAD DUP1 SWAP2 SUB SWAP1 REVERT JUMPDEST PUSH0 PUSH1 0x64 PUSH1 0x3 SLOAD PUSH1 0x64 PUSH2 0x5BE SWAP2 SWAP1 PUSH2 0xB31 JUMP JUMPDEST PUSH1 0x5 SLOAD PUSH2 0x5CB SWAP2 SWAP1 PUSH2 0x99D JUMP JUMPDEST PUSH2 0x5D5 SWAP2 SWAP1 PUSH2 0xA0B JUMP JUMPDEST SWAP1 POP PUSH0 DUP1 SLOAD SWAP1 PUSH2 0x100 EXP SWAP1 DIV PUSH20 0xFFFFFFFFFFFFFFFFFFFFFFFFFFFFFFFFFFFFFFFF AND PUSH20 0xFFFFFFFFFFFFFFFFFFFFFFFFFFFFFFFFFFFFFFFF AND PUSH2 0x8FC DUP3 SWAP1 DUP2 ISZERO MUL SWAP1 PUSH1 0x40 MLOAD PUSH0 PUSH1 0x40 MLOAD DUP1 DUP4 SUB DUP2 DUP6 DUP9 DUP9 CALL SWAP4 POP POP POP POP ISZERO DUP1 ISZERO PUSH2 0x639 JUMPI RETURNDATASIZE PUSH0 DUP1 RETURNDATACOPY RETURNDATASIZE PUSH0 REVERT JUMPDEST POP POP JUMP JUMPDEST PUSH0 DUP1 SLOAD SWAP1 PUSH2 0x100 EXP SWAP1 DIV PUSH20 0xFFFFFFFFFFFFFFFFFFFFFFFFFFFFFFFFFFFFFFFF AND DUP2 JUMP JUMPDEST PUSH1 0x4 PUSH1 0x1 SWAP1 SLOAD SWAP1 PUSH2 0x100 EXP SWAP1 DIV PUSH20 0xFFFFFFFFFFFFFFFFFFFFFFFFFFFFFFFFFFFFFFFF AND DUP2 JUMP JUMPDEST PUSH1 0x4 PUSH0 SWAP1 SLOAD SWAP1 PUSH2 0x100 EXP SWAP1 DIV PUSH1 0xFF AND DUP2 JUMP JUMPDEST PUSH1 0x2 SLOAD DUP2 JUMP JUMPDEST PUSH1 0x5 SLOAD DUP2 JUMP JUMPDEST PUSH0 DUP1 SLOAD SWAP1 PUSH2 0x100 EXP SWAP1 DIV PUSH20 0xFFFFFFFFFFFFFFFFFFFFFFFFFFFFFFFFFFFFFFFF AND PUSH20 0xFFFFFFFFFFFFFFFFFFFFFFFFFFFFFFFFFFFFFFFF AND CALLER PUSH20 0xFFFFFFFFFFFFFFFFFFFFFFFFFFFFFFFFFFFFFFFF AND EQ PUSH2 0x731 JUMPI PUSH1 0x40 MLOAD PUSH32 0x8C379A000000000000000000000000000000000000000000000000000000000 DUP2 MSTORE PUSH1 0x4 ADD PUSH2 0x728 SWAP1 PUSH2 0xCA3 JUMP JUMPDEST PUSH1 0x40 MLOAD DUP1 SWAP2 SUB SWAP1 REVERT JUMPDEST PUSH1 0x1 SLOAD TIMESTAMP LT ISZERO PUSH2 0x776 JUMPI PUSH1 0x40 MLOAD PUSH32 0x8C379A000000000000000000000000000000000000000000000000000000000 DUP2 MSTORE PUSH1 0x4 ADD PUSH2 0x76D SWAP1 PUSH2 0xD73 JUMP JUMPDEST PUSH1 0x40 MLOAD DUP1 SWAP2 SUB SWAP1 REVERT JUMPDEST PUSH1 0x4 PUSH0 SWAP1 SLOAD SWAP1 PUSH2 0x100 EXP SWAP1 DIV PUSH1 0xFF AND PUSH2 0x7C4 JUMPI PUSH1 0x40 MLOAD PUSH32 0x8C379A000000000000000000000000000000000000000000000000000000000 DUP2 MSTORE PUSH1 0x4 ADD PUSH2 0x7BB SWAP1 PUSH2 0xDDB JUMP JUMPDEST PUSH1 0x40 MLOAD DUP1 SWAP2 SUB SWAP1 REVERT JUMPDEST PUSH0 PUSH1 0x4 PUSH0 PUSH2 0x100 EXP DUP2 SLOAD DUP2 PUSH1 0xFF MUL NOT AND SWAP1 DUP4 ISZERO ISZERO MUL OR SWAP1 SSTORE POP PUSH32 0xDAEC4582D5D9595688C8C98545FDD1C696D41C6AEAEB636737E84ED2F5C00EDA PUSH1 0x4 PUSH1 0x1 SWAP1 SLOAD SWAP1 PUSH2 0x100 EXP SWAP1 DIV PUSH20 0xFFFFFFFFFFFFFFFFFFFFFFFFFFFFFFFFFFFFFFFF AND PUSH1 0x5 SLOAD PUSH1 0x40 MLOAD PUSH2 0x832 SWAP3 SWAP2 SWAP1 PUSH2 0xDF9 JUMP JUMPDEST PUSH1 0x40 MLOAD DUP1 SWAP2 SUB SWAP1 LOG1 JUMP JUMPDEST PUSH0 DUP2 SWAP1 POP SWAP2 SWAP1 POP JUMP JUMPDEST PUSH2 0x84E DUP2 PUSH2 0x83C JUMP JUMPDEST DUP3 MSTORE POP POP JUMP JUMPDEST PUSH0 PUSH1 0x20 DUP3 ADD SWAP1 POP PUSH2 0x867 PUSH0 DUP4 ADD DUP5 PUSH2 0x845 JUMP JUMPDEST SWAP3 SWAP2 POP POP JUMP JUMPDEST PUSH0 PUSH20 0xFFFFFFFFFFFFFFFFFFFFFFFFFFFFFFFFFFFFFFFF DUP3 AND SWAP1 POP SWAP2 SWAP1 POP JUMP JUMPDEST PUSH0 PUSH2 0x896 DUP3 PUSH2 0x86D JUMP JUMPDEST SWAP1 POP SWAP2 SWAP1 POP JUMP JUMPDEST PUSH2 0x8A6 DUP2 PUSH2 0x88C JUMP JUMPDEST DUP3 MSTORE POP POP JUMP JUMPDEST PUSH0 PUSH1 0x20 DUP3 ADD SWAP1 POP PUSH2 0x8BF PUSH0 DUP4 ADD DUP5 PUSH2 0x89D JUMP JUMPDEST SWAP3 SWAP2 POP POP JUMP JUMPDEST PUSH0 DUP2 ISZERO ISZERO SWAP1 POP SWAP2 SWAP1 POP JUMP JUMPDEST PUSH2 0x8D9 DUP2 PUSH2 0x8C5 JUMP JUMPDEST DUP3 MSTORE POP POP JUMP JUMPDEST PUSH0 PUSH1 0x20 DUP3 ADD SWAP1 POP PUSH2 0x8F2 PUSH0 DUP4 ADD DUP5 PUSH2 0x8D0 JUMP JUMPDEST SWAP3 SWAP2 POP POP JUMP JUMPDEST PUSH0 DUP3 DUP3 MSTORE PUSH1 0x20 DUP3 ADD SWAP1 POP SWAP3 SWAP2 POP POP JUMP JUMPDEST PUSH32 0x5468652061756374696F6E206973206E6F742061637469766500000000000000 PUSH0 DUP3 ADD MSTORE POP JUMP JUMPDEST PUSH0 PUSH2 0x93C PUSH1 0x19 DUP4 PUSH2 0x8F8 JUMP JUMPDEST SWAP2 POP PUSH2 0x947 DUP3 PUSH2 0x908 JUMP JUMPDEST PUSH1 0x20 DUP3 ADD SWAP1 POP SWAP2 SWAP1 POP JUMP JUMPDEST PUSH0 PUSH1 0x20 DUP3 ADD SWAP1 POP DUP2 DUP2 SUB PUSH0 DUP4 ADD MSTORE PUSH2 0x969 DUP2 PUSH2 0x930 JUMP JUMPDEST SWAP1 POP SWAP2 SWAP1 POP JUMP JUMPDEST PUSH32 0x4E487B7100000000000000000000000000000000000000000000000000000000 PUSH0 MSTORE PUSH1 0x11 PUSH1 0x4 MSTORE PUSH1 0x24 PUSH0 REVERT JUMPDEST PUSH0 PUSH2 0x9A7 DUP3 PUSH2 0x83C JUMP JUMPDEST SWAP2 POP PUSH2 0x9B2 DUP4 PUSH2 0x83C JUMP JUMPDEST SWAP3 POP DUP3 DUP3 MUL PUSH2 0x9C0 DUP2 PUSH2 0x83C JUMP JUMPDEST SWAP2 POP DUP3 DUP3 DIV DUP5 EQ DUP4 ISZERO OR PUSH2 0x9D7 JUMPI PUSH2 0x9D6 PUSH2 0x970 JUMP JUMPDEST JUMPDEST POP SWAP3 SWAP2 POP POP JUMP JUMPDEST PUSH32 0x4E487B7100000000000000000000000000000000000000000000000000000000 PUSH0 MSTORE PUSH1 0x12 PUSH1 0x4 MSTORE PUSH1 0x24 PUSH0 REVERT JUMPDEST PUSH0 PUSH2 0xA15 DUP3 PUSH2 0x83C JUMP JUMPDEST SWAP2 POP PUSH2 0xA20 DUP4 PUSH2 0x83C JUMP JUMPDEST SWAP3 POP DUP3 PUSH2 0xA30 JUMPI PUSH2 0xA2F PUSH2 0x9DE JUMP JUMPDEST JUMPDEST DUP3 DUP3 DIV SWAP1 POP SWAP3 SWAP2 POP POP JUMP JUMPDEST PUSH32 0x54686520626964206D757374206265206174206C656173742035252068696768 PUSH0 DUP3 ADD MSTORE PUSH32 0x6572207468616E207468652063757272656E7420626964000000000000000000 PUSH1 0x20 DUP3 ADD MSTORE POP JUMP JUMPDEST PUSH0 PUSH2 0xA95 PUSH1 0x37 DUP4 PUSH2 0x8F8 JUMP JUMPDEST SWAP2 POP PUSH2 0xAA0 DUP3 PUSH2 0xA3B JUMP JUMPDEST PUSH1 0x40 DUP3 ADD SWAP1 POP SWAP2 SWAP1 POP JUMP JUMPDEST PUSH0 PUSH1 0x20 DUP3 ADD SWAP1 POP DUP2 DUP2 SUB PUSH0 DUP4 ADD MSTORE PUSH2 0xAC2 DUP2 PUSH2 0xA89 JUMP JUMPDEST SWAP1 POP SWAP2 SWAP1 POP JUMP JUMPDEST PUSH32 0x5468652061756374696F6E2068617320656E6465640000000000000000000000 PUSH0 DUP3 ADD MSTORE POP JUMP JUMPDEST PUSH0 PUSH2 0xAFD PUSH1 0x15 DUP4 PUSH2 0x8F8 JUMP JUMPDEST SWAP2 POP PUSH2 0xB08 DUP3 PUSH2 0xAC9 JUMP JUMPDEST PUSH1 0x20 DUP3 ADD SWAP1 POP SWAP2 SWAP1 POP JUMP JUMPDEST PUSH0 PUSH1 0x20 DUP3 ADD SWAP1 POP DUP2 DUP2 SUB PUSH0 DUP4 ADD MSTORE PUSH2 0xB2A DUP2 PUSH2 0xAF1 JUMP JUMPDEST SWAP1 POP SWAP2 SWAP1 POP JUMP JUMPDEST PUSH0 PUSH2 0xB3B DUP3 PUSH2 0x83C JUMP JUMPDEST SWAP2 POP PUSH2 0xB46 DUP4 PUSH2 0x83C JUMP JUMPDEST SWAP3 POP DUP3 DUP3 SUB SWAP1 POP DUP2 DUP2 GT ISZERO PUSH2 0xB5E JUMPI PUSH2 0xB5D PUSH2 0x970 JUMP JUMPDEST JUMPDEST SWAP3 SWAP2 POP POP JUMP JUMPDEST PUSH0 DUP2 SWAP1 POP SWAP3 SWAP2 POP POP JUMP JUMPDEST POP JUMP JUMPDEST PUSH0 PUSH2 0xB7C PUSH0 DUP4 PUSH2 0xB64 JUMP JUMPDEST SWAP2 POP PUSH2 0xB87 DUP3 PUSH2 0xB6E JUMP JUMPDEST PUSH0 DUP3 ADD SWAP1 POP SWAP2 SWAP1 POP JUMP JUMPDEST PUSH0 PUSH2 0xB9B DUP3 PUSH2 0xB71 JUMP JUMPDEST SWAP2 POP DUP2 SWAP1 POP SWAP2 SWAP1 POP JUMP JUMPDEST PUSH32 0x526566756E6420746F2070726576696F75732068696768657374206269646465 PUSH0 DUP3 ADD MSTORE PUSH32 0x72206661696C6564000000000000000000000000000000000000000000000000 PUSH1 0x20 DUP3 ADD MSTORE POP JUMP JUMPDEST PUSH0 PUSH2 0xBFF PUSH1 0x28 DUP4 PUSH2 0x8F8 JUMP JUMPDEST SWAP2 POP PUSH2 0xC0A DUP3 PUSH2 0xBA5 JUMP JUMPDEST PUSH1 0x40 DUP3 ADD SWAP1 POP SWAP2 SWAP1 POP JUMP JUMPDEST PUSH0 PUSH1 0x20 DUP3 ADD SWAP1 POP DUP2 DUP2 SUB PUSH0 DUP4 ADD MSTORE PUSH2 0xC2C DUP2 PUSH2 0xBF3 JUMP JUMPDEST SWAP1 POP SWAP2 SWAP1 POP JUMP JUMPDEST PUSH32 0x4F6E6C79207468652061756374696F6E6565722063616E206578656375746520 PUSH0 DUP3 ADD MSTORE PUSH32 0x746869732066756E6374696F6E00000000000000000000000000000000000000 PUSH1 0x20 DUP3 ADD MSTORE POP JUMP JUMPDEST PUSH0 PUSH2 0xC8D PUSH1 0x2D DUP4 PUSH2 0x8F8 JUMP JUMPDEST SWAP2 POP PUSH2 0xC98 DUP3 PUSH2 0xC33 JUMP JUMPDEST PUSH1 0x40 DUP3 ADD SWAP1 POP SWAP2 SWAP1 POP JUMP JUMPDEST PUSH0 PUSH1 0x20 DUP3 ADD SWAP1 POP DUP2 DUP2 SUB PUSH0 DUP4 ADD MSTORE PUSH2 0xCBA DUP2 PUSH2 0xC81 JUMP JUMPDEST SWAP1 POP SWAP2 SWAP1 POP JUMP JUMPDEST PUSH32 0x5468652061756374696F6E206973207374696C6C206163746976650000000000 PUSH0 DUP3 ADD MSTORE POP JUMP JUMPDEST PUSH0 PUSH2 0xCF5 PUSH1 0x1B DUP4 PUSH2 0x8F8 JUMP JUMPDEST SWAP2 POP PUSH2 0xD00 DUP3 PUSH2 0xCC1 JUMP JUMPDEST PUSH1 0x20 DUP3 ADD SWAP1 POP SWAP2 SWAP1 POP JUMP JUMPDEST PUSH0 PUSH1 0x20 DUP3 ADD SWAP1 POP DUP2 DUP2 SUB PUSH0 DUP4 ADD MSTORE PUSH2 0xD22 DUP2 PUSH2 0xCE9 JUMP JUMPDEST SWAP1 POP SWAP2 SWAP1 POP JUMP JUMPDEST PUSH32 0x5468652061756374696F6E20686173206E6F7420656E64656400000000000000 PUSH0 DUP3 ADD MSTORE POP JUMP JUMPDEST PUSH0 PUSH2 0xD5D PUSH1 0x19 DUP4 PUSH2 0x8F8 JUMP JUMPDEST SWAP2 POP PUSH2 0xD68 DUP3 PUSH2 0xD29 JUMP JUMPDEST PUSH1 0x20 DUP3 ADD SWAP1 POP SWAP2 SWAP1 POP JUMP JUMPDEST PUSH0 PUSH1 0x20 DUP3 ADD SWAP1 POP DUP2 DUP2 SUB PUSH0 DUP4 ADD MSTORE PUSH2 0xD8A DUP2 PUSH2 0xD51 JUMP JUMPDEST SWAP1 POP SWAP2 SWAP1 POP JUMP JUMPDEST PUSH32 0x41756374696F6E20616C726561647920656E6465640000000000000000000000 PUSH0 DUP3 ADD MSTORE POP JUMP JUMPDEST PUSH0 PUSH2 0xDC5 PUSH1 0x15 DUP4 PUSH2 0x8F8 JUMP JUMPDEST SWAP2 POP PUSH2 0xDD0 DUP3 PUSH2 0xD91 JUMP JUMPDEST PUSH1 0x20 DUP3 ADD SWAP1 POP SWAP2 SWAP1 POP JUMP JUMPDEST PUSH0 PUSH1 0x20 DUP3 ADD SWAP1 POP DUP2 DUP2 SUB PUSH0 DUP4 ADD MSTORE PUSH2 0xDF2 DUP2 PUSH2 0xDB9 JUMP JUMPDEST SWAP1 POP SWAP2 SWAP1 POP JUMP JUMPDEST PUSH0 PUSH1 0x40 DUP3 ADD SWAP1 POP PUSH2 0xE0C PUSH0 DUP4 ADD DUP6 PUSH2 0x89D JUMP JUMPDEST PUSH2 0xE19 PUSH1 0x20 DUP4 ADD DUP5 PUSH2 0x845 JUMP JUMPDEST SWAP4 SWAP3 POP POP POP JUMP INVALID LOG2 PUSH5 0x6970667358 0x22 SLT KECCAK256 PC PUSH27 0xFFF72D60520566887C7C6E7D2F2A3CF1B09CD7EAEA6D2BC67BE7B5 0x4B MOD KECCAK256 PUSH5 0x736F6C6343 STOP ADDMOD BYTE STOP CALLER "
				},
				"gasEstimates": {
					"creation": {
						"codeDepositCost": "734000",
						"executionCost": "infinite",
						"totalCost": "infinite"
					},
					"external": {
						"auctionActive()": "2488",
						"auctioneer()": "2594",
						"bid()": "infinite",
						"endAuction()": "36819",
						"endTime()": "2448",
						"gasCommission()": "2470",
						"highestBid()": "2491",
						"highestBidder()": "2559",
						"minimumBid()": "2469",
						"withdraw()": "infinite"
					}
				},
				"methodIdentifiers": {
					"auctionActive()": "92228006",
					"auctioneer()": "5ec2c7bf",
					"bid()": "1998aeef",
					"endAuction()": "fe67a54b",
					"endTime()": "3197cbb6",
					"gasCommission()": "37072780",
					"highestBid()": "d57bde79",
					"highestBidder()": "91f90157",
					"minimumBid()": "d3a86386",
					"withdraw()": "3ccfd60b"
				}
			},
			"storageLayout": {
				"storage": [
					{
						"astId": 3,
						"contract": "subastaGas.sol:Auction",
						"label": "auctioneer",
						"offset": 0,
						"slot": "0",
						"type": "t_address"
					},
					{
						"astId": 5,
						"contract": "subastaGas.sol:Auction",
						"label": "endTime",
						"offset": 0,
						"slot": "1",
						"type": "t_uint256"
					},
					{
						"astId": 7,
						"contract": "subastaGas.sol:Auction",
						"label": "minimumBid",
						"offset": 0,
						"slot": "2",
						"type": "t_uint256"
					},
					{
						"astId": 10,
						"contract": "subastaGas.sol:Auction",
						"label": "gasCommission",
						"offset": 0,
						"slot": "3",
						"type": "t_uint256"
					},
					{
						"astId": 12,
						"contract": "subastaGas.sol:Auction",
						"label": "auctionActive",
						"offset": 0,
						"slot": "4",
						"type": "t_bool"
					},
					{
						"astId": 14,
						"contract": "subastaGas.sol:Auction",
						"label": "highestBidder",
						"offset": 1,
						"slot": "4",
						"type": "t_address"
					},
					{
						"astId": 16,
						"contract": "subastaGas.sol:Auction",
						"label": "highestBid",
						"offset": 0,
						"slot": "5",
						"type": "t_uint256"
					}
				],
				"types": {
					"t_address": {
						"encoding": "inplace",
						"label": "address",
						"numberOfBytes": "20"
					},
					"t_bool": {
						"encoding": "inplace",
						"label": "bool",
						"numberOfBytes": "1"
					},
					"t_uint256": {
						"encoding": "inplace",
						"label": "uint256",
						"numberOfBytes": "32"
					}
				}
			},
			"userdoc": {
				"kind": "user",
				"methods": {},
				"version": 1
			}
		}
	}
}