{
	"subasta7.sol": {
		"AuctionSergio": {
			"abi": [
				{
					"inputs": [
						{
							"internalType": "uint256",
							"name": "_initialBid",
							"type": "uint256"
						}
					],
					"stateMutability": "nonpayable",
					"type": "constructor"
				},
				{
					"anonymous": false,
					"inputs": [
						{
							"indexed": false,
							"internalType": "address",
							"name": "winner",
							"type": "address"
						},
						{
							"indexed": false,
							"internalType": "uint256",
							"name": "winningAmount",
							"type": "uint256"
						}
					],
					"name": "AuctionEnded",
					"type": "event"
				},
				{
					"anonymous": false,
					"inputs": [
						{
							"indexed": true,
							"internalType": "address",
							"name": "bidder",
							"type": "address"
						},
						{
							"indexed": false,
							"internalType": "uint256",
							"name": "amount",
							"type": "uint256"
						}
					],
					"name": "NewBid",
					"type": "event"
				},
				{
					"inputs": [],
					"name": "auctionActive",
					"outputs": [
						{
							"internalType": "bool",
							"name": "",
							"type": "bool"
						}
					],
					"stateMutability": "view",
					"type": "function"
				},
				{
					"inputs": [],
					"name": "auctioneer",
					"outputs": [
						{
							"internalType": "address",
							"name": "",
							"type": "address"
						}
					],
					"stateMutability": "view",
					"type": "function"
				},
				{
					"inputs": [],
					"name": "bid",
					"outputs": [],
					"stateMutability": "payable",
					"type": "function"
				},
				{
					"inputs": [
						{
							"internalType": "uint256",
							"name": "",
							"type": "uint256"
						}
					],
					"name": "bidHistory",
					"outputs": [
						{
							"internalType": "address",
							"name": "bidder",
							"type": "address"
						},
						{
							"internalType": "uint256",
							"name": "amount",
							"type": "uint256"
						}
					],
					"stateMutability": "view",
					"type": "function"
				},
				{
					"inputs": [],
					"name": "endAuction",
					"outputs": [],
					"stateMutability": "nonpayable",
					"type": "function"
				},
				{
					"inputs": [],
					"name": "endTime",
					"outputs": [
						{
							"internalType": "uint256",
							"name": "",
							"type": "uint256"
						}
					],
					"stateMutability": "view",
					"type": "function"
				},
				{
					"inputs": [],
					"name": "extensionPeriod",
					"outputs": [
						{
							"internalType": "uint256",
							"name": "",
							"type": "uint256"
						}
					],
					"stateMutability": "view",
					"type": "function"
				},
				{
					"inputs": [],
					"name": "gasCommission",
					"outputs": [
						{
							"internalType": "uint256",
							"name": "",
							"type": "uint256"
						}
					],
					"stateMutability": "view",
					"type": "function"
				},
				{
					"inputs": [],
					"name": "getMaxBid",
					"outputs": [
						{
							"internalType": "uint256",
							"name": "",
							"type": "uint256"
						}
					],
					"stateMutability": "view",
					"type": "function"
				},
				{
					"inputs": [],
					"name": "minimumBid",
					"outputs": [
						{
							"internalType": "uint256",
							"name": "",
							"type": "uint256"
						}
					],
					"stateMutability": "view",
					"type": "function"
				},
				{
					"inputs": [],
					"name": "partialWithdraw",
					"outputs": [],
					"stateMutability": "nonpayable",
					"type": "function"
				},
				{
					"inputs": [],
					"name": "refundDeposits",
					"outputs": [],
					"stateMutability": "nonpayable",
					"type": "function"
				},
				{
					"inputs": [],
					"name": "showBids",
					"outputs": [
						{
							"components": [
								{
									"internalType": "address",
									"name": "bidder",
									"type": "address"
								},
								{
									"internalType": "uint256",
									"name": "amount",
									"type": "uint256"
								}
							],
							"internalType": "struct AuctionSergio.Bid[]",
							"name": "",
							"type": "tuple[]"
						}
					],
					"stateMutability": "view",
					"type": "function"
				}
			],
			"devdoc": {
				"kind": "dev",
				"methods": {},
				"version": 1
			},
			"evm": {
				"assembly": "    /* \"subasta7.sol\":69:4229  contract AuctionSergio {... */\n  mstore(0x40, 0x80)\n    /* \"subasta7.sol\":301:310  1 minutes */\n  0x3c\n    /* \"subasta7.sol\":271:310  uint public extensionPeriod = 1 minutes */\n  0x02\n  sstore\n    /* \"subasta7.sol\":374:375  2 */\n  0x02\n    /* \"subasta7.sol\":346:375  uint public gasCommission = 2 */\n  0x04\n  sstore\n    /* \"subasta7.sol\":606:854  constructor(uint _initialBid) {... */\n  callvalue\n  dup1\n  iszero\n  tag_1\n  jumpi\n  0x00\n  dup1\n  revert\ntag_1:\n  pop\n  mload(0x40)\n  sub(codesize, bytecodeSize)\n  dup1\n  bytecodeSize\n  dup4\n  codecopy\n  dup2\n  dup2\n  add\n  0x40\n  mstore\n  dup2\n  add\n  swap1\n  tag_2\n  swap2\n  swap1\n  tag_3\n  jump\t// in\ntag_2:\n    /* \"subasta7.sol\":660:670  msg.sender */\n  caller\n    /* \"subasta7.sol\":647:657  auctioneer */\n  0x00\n  dup1\n    /* \"subasta7.sol\":647:670  auctioneer = msg.sender */\n  0x0100\n  exp\n  dup2\n  sload\n  dup2\n  0xffffffffffffffffffffffffffffffffffffffff\n  mul\n  not\n  and\n  swap1\n  dup4\n  0xffffffffffffffffffffffffffffffffffffffff\n  and\n  mul\n  or\n  swap1\n  sstore\n  pop\n    /* \"subasta7.sol\":694:705  _initialBid */\n  dup1\n    /* \"subasta7.sol\":681:691  minimumBid */\n  0x03\n    /* \"subasta7.sol\":681:705  minimumBid = _initialBid */\n  dup2\n  swap1\n  sstore\n  pop\n    /* \"subasta7.sol\":732:736  true */\n  0x01\n    /* \"subasta7.sol\":716:729  auctionActive */\n  0x05\n  0x00\n    /* \"subasta7.sol\":716:736  auctionActive = true */\n  0x0100\n  exp\n  dup2\n  sload\n  dup2\n  0xff\n  mul\n  not\n  and\n  swap1\n  dup4\n  iszero\n  iszero\n  mul\n  or\n  swap1\n  sstore\n  pop\n    /* \"subasta7.sol\":775:790  extensionPeriod */\n  sload(0x02)\n    /* \"subasta7.sol\":757:772  block.timestamp */\n  timestamp\n    /* \"subasta7.sol\":757:790  block.timestamp + extensionPeriod */\n  tag_6\n  swap2\n  swap1\n  tag_7\n  jump\t// in\ntag_6:\n    /* \"subasta7.sol\":747:754  endTime */\n  0x01\n    /* \"subasta7.sol\":747:790  endTime = block.timestamp + extensionPeriod */\n  dup2\n  swap1\n  sstore\n  pop\n    /* \"subasta7.sol\":801:811  bidHistory */\n  0x06\n    /* \"subasta7.sol\":817:845  Bid(msg.sender, _initialBid) */\n  mload(0x40)\n  dup1\n  0x40\n  add\n  0x40\n  mstore\n  dup1\n    /* \"subasta7.sol\":821:831  msg.sender */\n  caller\n    /* \"subasta7.sol\":817:845  Bid(msg.sender, _initialBid) */\n  0xffffffffffffffffffffffffffffffffffffffff\n  and\n  dup2\n  mstore\n  0x20\n  add\n    /* \"subasta7.sol\":833:844  _initialBid */\n  dup4\n    /* \"subasta7.sol\":817:845  Bid(msg.sender, _initialBid) */\n  dup2\n  mstore\n  pop\n    /* \"subasta7.sol\":801:846  bidHistory.push(Bid(msg.sender, _initialBid)) */\n  swap1\n  dup1\n  0x01\n  dup2\n  sload\n  add\n  dup1\n  dup3\n  sstore\n  dup1\n  swap2\n  pop\n  pop\n  0x01\n  swap1\n  sub\n  swap1\n  0x00\n  mstore\n  keccak256(0x00, 0x20)\n  swap1\n  0x02\n  mul\n  add\n  0x00\n  swap1\n  swap2\n  swap1\n  swap2\n  swap1\n  swap2\n  pop\n  0x00\n  dup3\n  add\n  mload\n  dup2\n  0x00\n  add\n  exp(0x0100, 0x00)\n  dup2\n  sload\n  dup2\n  0xffffffffffffffffffffffffffffffffffffffff\n  mul\n  not\n  and\n  swap1\n  dup4\n  0xffffffffffffffffffffffffffffffffffffffff\n  and\n  mul\n  or\n  swap1\n  sstore\n  pop\n  0x20\n  dup3\n  add\n  mload\n  dup2\n  0x01\n  add\n  sstore\n  pop\n  pop\n    /* \"subasta7.sol\":606:854  constructor(uint _initialBid) {... */\n  pop\n    /* \"subasta7.sol\":69:4229  contract AuctionSergio {... */\n  jump(tag_9)\n    /* \"#utility.yul\":88:205   */\ntag_11:\n    /* \"#utility.yul\":197:198   */\n  0x00\n    /* \"#utility.yul\":194:195   */\n  dup1\n    /* \"#utility.yul\":187:199   */\n  revert\n    /* \"#utility.yul\":334:411   */\ntag_13:\n    /* \"#utility.yul\":371:378   */\n  0x00\n    /* \"#utility.yul\":400:405   */\n  dup2\n    /* \"#utility.yul\":389:405   */\n  swap1\n  pop\n    /* \"#utility.yul\":334:411   */\n  swap2\n  swap1\n  pop\n  jump\t// out\n    /* \"#utility.yul\":417:539   */\ntag_14:\n    /* \"#utility.yul\":490:514   */\n  tag_23\n    /* \"#utility.yul\":508:513   */\n  dup2\n    /* \"#utility.yul\":490:514   */\n  tag_13\n  jump\t// in\ntag_23:\n    /* \"#utility.yul\":483:488   */\n  dup2\n    /* \"#utility.yul\":480:515   */\n  eq\n    /* \"#utility.yul\":470:533   */\n  tag_24\n  jumpi\n    /* \"#utility.yul\":529:530   */\n  0x00\n    /* \"#utility.yul\":526:527   */\n  dup1\n    /* \"#utility.yul\":519:531   */\n  revert\n    /* \"#utility.yul\":470:533   */\ntag_24:\n    /* \"#utility.yul\":417:539   */\n  pop\n  jump\t// out\n    /* \"#utility.yul\":545:688   */\ntag_15:\n    /* \"#utility.yul\":602:607   */\n  0x00\n    /* \"#utility.yul\":633:639   */\n  dup2\n    /* \"#utility.yul\":627:640   */\n  mload\n    /* \"#utility.yul\":618:640   */\n  swap1\n  pop\n    /* \"#utility.yul\":649:682   */\n  tag_26\n    /* \"#utility.yul\":676:681   */\n  dup2\n    /* \"#utility.yul\":649:682   */\n  tag_14\n  jump\t// in\ntag_26:\n    /* \"#utility.yul\":545:688   */\n  swap3\n  swap2\n  pop\n  pop\n  jump\t// out\n    /* \"#utility.yul\":694:1045   */\ntag_3:\n    /* \"#utility.yul\":764:770   */\n  0x00\n    /* \"#utility.yul\":813:815   */\n  0x20\n    /* \"#utility.yul\":801:810   */\n  dup3\n    /* \"#utility.yul\":792:799   */\n  dup5\n    /* \"#utility.yul\":788:811   */\n  sub\n    /* \"#utility.yul\":784:816   */\n  slt\n    /* \"#utility.yul\":781:900   */\n  iszero\n  tag_28\n  jumpi\n    /* \"#utility.yul\":819:898   */\n  tag_29\n  tag_11\n  jump\t// in\ntag_29:\n    /* \"#utility.yul\":781:900   */\ntag_28:\n    /* \"#utility.yul\":939:940   */\n  0x00\n    /* \"#utility.yul\":964:1028   */\n  tag_30\n    /* \"#utility.yul\":1020:1027   */\n  dup5\n    /* \"#utility.yul\":1011:1017   */\n  dup3\n    /* \"#utility.yul\":1000:1009   */\n  dup6\n    /* \"#utility.yul\":996:1018   */\n  add\n    /* \"#utility.yul\":964:1028   */\n  tag_15\n  jump\t// in\ntag_30:\n    /* \"#utility.yul\":954:1028   */\n  swap2\n  pop\n    /* \"#utility.yul\":910:1038   */\n  pop\n    /* \"#utility.yul\":694:1045   */\n  swap3\n  swap2\n  pop\n  pop\n  jump\t// out\n    /* \"#utility.yul\":1051:1231   */\ntag_16:\n    /* \"#utility.yul\":1099:1176   */\n  0x4e487b7100000000000000000000000000000000000000000000000000000000\n    /* \"#utility.yul\":1096:1097   */\n  0x00\n    /* \"#utility.yul\":1089:1177   */\n  mstore\n    /* \"#utility.yul\":1196:1200   */\n  0x11\n    /* \"#utility.yul\":1193:1194   */\n  0x04\n    /* \"#utility.yul\":1186:1201   */\n  mstore\n    /* \"#utility.yul\":1220:1224   */\n  0x24\n    /* \"#utility.yul\":1217:1218   */\n  0x00\n    /* \"#utility.yul\":1210:1225   */\n  revert\n    /* \"#utility.yul\":1237:1428   */\ntag_7:\n    /* \"#utility.yul\":1277:1280   */\n  0x00\n    /* \"#utility.yul\":1296:1316   */\n  tag_33\n    /* \"#utility.yul\":1314:1315   */\n  dup3\n    /* \"#utility.yul\":1296:1316   */\n  tag_13\n  jump\t// in\ntag_33:\n    /* \"#utility.yul\":1291:1316   */\n  swap2\n  pop\n    /* \"#utility.yul\":1330:1350   */\n  tag_34\n    /* \"#utility.yul\":1348:1349   */\n  dup4\n    /* \"#utility.yul\":1330:1350   */\n  tag_13\n  jump\t// in\ntag_34:\n    /* \"#utility.yul\":1325:1350   */\n  swap3\n  pop\n    /* \"#utility.yul\":1373:1374   */\n  dup3\n    /* \"#utility.yul\":1370:1371   */\n  dup3\n    /* \"#utility.yul\":1366:1375   */\n  add\n    /* \"#utility.yul\":1359:1375   */\n  swap1\n  pop\n    /* \"#utility.yul\":1394:1397   */\n  dup1\n    /* \"#utility.yul\":1391:1392   */\n  dup3\n    /* \"#utility.yul\":1388:1398   */\n  gt\n    /* \"#utility.yul\":1385:1421   */\n  iszero\n  tag_35\n  jumpi\n    /* \"#utility.yul\":1401:1419   */\n  tag_36\n  tag_16\n  jump\t// in\ntag_36:\n    /* \"#utility.yul\":1385:1421   */\ntag_35:\n    /* \"#utility.yul\":1237:1428   */\n  swap3\n  swap2\n  pop\n  pop\n  jump\t// out\n    /* \"subasta7.sol\":69:4229  contract AuctionSergio {... */\ntag_9:\n  dataSize(sub_0)\n  dup1\n  dataOffset(sub_0)\n  0x00\n  codecopy\n  0x00\n  return\nstop\n\nsub_0: assembly {\n        /* \"subasta7.sol\":69:4229  contract AuctionSergio {... */\n      mstore(0x40, 0x80)\n      jumpi(tag_1, lt(calldatasize, 0x04))\n      shr(0xe0, calldataload(0x00))\n      dup1\n      0x7e12a251\n      gt\n      tag_15\n      jumpi\n      dup1\n      0xdedfab72\n      gt\n      tag_16\n      jumpi\n      dup1\n      0xdedfab72\n      eq\n      tag_11\n      jumpi\n      dup1\n      0xecde973d\n      eq\n      tag_12\n      jumpi\n      dup1\n      0xf90ca117\n      eq\n      tag_13\n      jumpi\n      dup1\n      0xfe67a54b\n      eq\n      tag_14\n      jumpi\n      jump(tag_1)\n    tag_16:\n      dup1\n      0x7e12a251\n      eq\n      tag_8\n      jumpi\n      dup1\n      0x92228006\n      eq\n      tag_9\n      jumpi\n      dup1\n      0xd3a86386\n      eq\n      tag_10\n      jumpi\n      jump(tag_1)\n    tag_15:\n      dup1\n      0x14d2687c\n      eq\n      tag_2\n      jumpi\n      dup1\n      0x1998aeef\n      eq\n      tag_3\n      jumpi\n      dup1\n      0x3197cbb6\n      eq\n      tag_4\n      jumpi\n      dup1\n      0x37072780\n      eq\n      tag_5\n      jumpi\n      dup1\n      0x5ec2c7bf\n      eq\n      tag_6\n      jumpi\n      dup1\n      0x6773fd77\n      eq\n      tag_7\n      jumpi\n    tag_1:\n      0x00\n      dup1\n      revert\n        /* \"subasta7.sol\":3986:4079  function showBids() external view returns (Bid[] memory) {... */\n    tag_2:\n      callvalue\n      dup1\n      iszero\n      tag_17\n      jumpi\n      0x00\n      dup1\n      revert\n    tag_17:\n      pop\n      tag_18\n      tag_19\n      jump\t// in\n    tag_18:\n      mload(0x40)\n      tag_20\n      swap2\n      swap1\n      tag_21\n      jump\t// in\n    tag_20:\n      mload(0x40)\n      dup1\n      swap2\n      sub\n      swap1\n      return\n        /* \"subasta7.sol\":1171:1590  function bid() external payable onlyWhileActive {... */\n    tag_3:\n      tag_22\n      tag_23\n      jump\t// in\n    tag_22:\n      stop\n        /* \"subasta7.sol\":245:264  uint public endTime */\n    tag_4:\n      callvalue\n      dup1\n      iszero\n      tag_24\n      jumpi\n      0x00\n      dup1\n      revert\n    tag_24:\n      pop\n      tag_25\n      tag_26\n      jump\t// in\n    tag_25:\n      mload(0x40)\n      tag_27\n      swap2\n      swap1\n      tag_28\n      jump\t// in\n    tag_27:\n      mload(0x40)\n      dup1\n      swap2\n      sub\n      swap1\n      return\n        /* \"subasta7.sol\":346:375  uint public gasCommission = 2 */\n    tag_5:\n      callvalue\n      dup1\n      iszero\n      tag_29\n      jumpi\n      0x00\n      dup1\n      revert\n    tag_29:\n      pop\n      tag_30\n      tag_31\n      jump\t// in\n    tag_30:\n      mload(0x40)\n      tag_32\n      swap2\n      swap1\n      tag_28\n      jump\t// in\n    tag_32:\n      mload(0x40)\n      dup1\n      swap2\n      sub\n      swap1\n      return\n        /* \"subasta7.sol\":213:238  address public auctioneer */\n    tag_6:\n      callvalue\n      dup1\n      iszero\n      tag_33\n      jumpi\n      0x00\n      dup1\n      revert\n    tag_33:\n      pop\n      tag_34\n      tag_35\n      jump\t// in\n    tag_34:\n      mload(0x40)\n      tag_36\n      swap2\n      swap1\n      tag_37\n      jump\t// in\n    tag_36:\n      mload(0x40)\n      dup1\n      swap2\n      sub\n      swap1\n      return\n        /* \"subasta7.sol\":2519:3443  function refundDeposits() external onlyAuctioneer {... */\n    tag_7:\n      callvalue\n      dup1\n      iszero\n      tag_38\n      jumpi\n      0x00\n      dup1\n      revert\n    tag_38:\n      pop\n      tag_39\n      tag_40\n      jump\t// in\n    tag_39:\n      stop\n        /* \"subasta7.sol\":4112:4226  function getMaxBid() public view returns (uint) {... */\n    tag_8:\n      callvalue\n      dup1\n      iszero\n      tag_41\n      jumpi\n      0x00\n      dup1\n      revert\n    tag_41:\n      pop\n      tag_42\n      tag_43\n      jump\t// in\n    tag_42:\n      mload(0x40)\n      tag_44\n      swap2\n      swap1\n      tag_28\n      jump\t// in\n    tag_44:\n      mload(0x40)\n      dup1\n      swap2\n      sub\n      swap1\n      return\n        /* \"subasta7.sol\":388:413  bool public auctionActive */\n    tag_9:\n      callvalue\n      dup1\n      iszero\n      tag_45\n      jumpi\n      0x00\n      dup1\n      revert\n    tag_45:\n      pop\n      tag_46\n      tag_47\n      jump\t// in\n    tag_46:\n      mload(0x40)\n      tag_48\n      swap2\n      swap1\n      tag_49\n      jump\t// in\n    tag_48:\n      mload(0x40)\n      dup1\n      swap2\n      sub\n      swap1\n      return\n        /* \"subasta7.sol\":317:339  uint public minimumBid */\n    tag_10:\n      callvalue\n      dup1\n      iszero\n      tag_50\n      jumpi\n      0x00\n      dup1\n      revert\n    tag_50:\n      pop\n      tag_51\n      tag_52\n      jump\t// in\n    tag_51:\n      mload(0x40)\n      tag_53\n      swap2\n      swap1\n      tag_28\n      jump\t// in\n    tag_53:\n      mload(0x40)\n      dup1\n      swap2\n      sub\n      swap1\n      return\n        /* \"subasta7.sol\":271:310  uint public extensionPeriod = 1 minutes */\n    tag_11:\n      callvalue\n      dup1\n      iszero\n      tag_54\n      jumpi\n      0x00\n      dup1\n      revert\n    tag_54:\n      pop\n      tag_55\n      tag_56\n      jump\t// in\n    tag_55:\n      mload(0x40)\n      tag_57\n      swap2\n      swap1\n      tag_28\n      jump\t// in\n    tag_57:\n      mload(0x40)\n      dup1\n      swap2\n      sub\n      swap1\n      return\n        /* \"subasta7.sol\":420:443  Bid[] public bidHistory */\n    tag_12:\n      callvalue\n      dup1\n      iszero\n      tag_58\n      jumpi\n      0x00\n      dup1\n      revert\n    tag_58:\n      pop\n      tag_59\n      0x04\n      dup1\n      calldatasize\n      sub\n      dup2\n      add\n      swap1\n      tag_60\n      swap2\n      swap1\n      tag_61\n      jump\t// in\n    tag_60:\n      tag_62\n      jump\t// in\n    tag_59:\n      mload(0x40)\n      tag_63\n      swap3\n      swap2\n      swap1\n      tag_64\n      jump\t// in\n    tag_63:\n      mload(0x40)\n      dup1\n      swap2\n      sub\n      swap1\n      return\n        /* \"subasta7.sol\":3451:3978  function partialWithdraw() external onlyWhileActive {... */\n    tag_13:\n      callvalue\n      dup1\n      iszero\n      tag_65\n      jumpi\n      0x00\n      dup1\n      revert\n    tag_65:\n      pop\n      tag_66\n      tag_67\n      jump\t// in\n    tag_66:\n      stop\n        /* \"subasta7.sol\":1968:2511  function endAuction() external onlyAuctioneer {... */\n    tag_14:\n      callvalue\n      dup1\n      iszero\n      tag_68\n      jumpi\n      0x00\n      dup1\n      revert\n    tag_68:\n      pop\n      tag_69\n      tag_70\n      jump\t// in\n    tag_69:\n      stop\n        /* \"subasta7.sol\":3986:4079  function showBids() external view returns (Bid[] memory) {... */\n    tag_19:\n        /* \"subasta7.sol\":4029:4041  Bid[] memory */\n      0x60\n        /* \"subasta7.sol\":4061:4071  bidHistory */\n      0x06\n        /* \"subasta7.sol\":4054:4071  return bidHistory */\n      dup1\n      sload\n      dup1\n      0x20\n      mul\n      0x20\n      add\n      mload(0x40)\n      swap1\n      dup2\n      add\n      0x40\n      mstore\n      dup1\n      swap3\n      swap2\n      swap1\n      dup2\n      dup2\n      mstore\n      0x20\n      add\n      0x00\n      swap1\n    tag_72:\n      dup3\n      dup3\n      lt\n      iszero\n      tag_73\n      jumpi\n      dup4\n      dup3\n      swap1\n      0x00\n      mstore\n      keccak256(0x00, 0x20)\n      swap1\n      0x02\n      mul\n      add\n      mload(0x40)\n      dup1\n      0x40\n      add\n      0x40\n      mstore\n      swap1\n      dup2\n      0x00\n      dup3\n      add\n      0x00\n      swap1\n      sload\n      swap1\n      0x0100\n      exp\n      swap1\n      div\n      0xffffffffffffffffffffffffffffffffffffffff\n      and\n      0xffffffffffffffffffffffffffffffffffffffff\n      and\n      0xffffffffffffffffffffffffffffffffffffffff\n      and\n      dup2\n      mstore\n      0x20\n      add\n      0x01\n      dup3\n      add\n      sload\n      dup2\n      mstore\n      pop\n      pop\n      dup2\n      mstore\n      0x20\n      add\n      swap1\n      0x01\n      add\n      swap1\n      jump(tag_72)\n    tag_73:\n      pop\n      pop\n      pop\n      pop\n      swap1\n      pop\n        /* \"subasta7.sol\":3986:4079  function showBids() external view returns (Bid[] memory) {... */\n      swap1\n      jump\t// out\n        /* \"subasta7.sol\":1171:1590  function bid() external payable onlyWhileActive {... */\n    tag_23:\n        /* \"subasta7.sol\":1073:1086  auctionActive */\n      0x05\n      0x00\n      swap1\n      sload\n      swap1\n      0x0100\n      exp\n      swap1\n      div\n      0xff\n      and\n        /* \"subasta7.sol\":1065:1116  require(auctionActive, \"The auction is not active\") */\n      tag_76\n      jumpi\n      mload(0x40)\n      0x08c379a000000000000000000000000000000000000000000000000000000000\n      dup2\n      mstore\n      0x04\n      add\n      tag_77\n      swap1\n      tag_78\n      jump\t// in\n    tag_77:\n      mload(0x40)\n      dup1\n      swap2\n      sub\n      swap1\n      revert\n    tag_76:\n        /* \"subasta7.sol\":1273:1276  100 */\n      0x64\n        /* \"subasta7.sol\":1266:1269  105 */\n      0x69\n        /* \"subasta7.sol\":1252:1263  getMaxBid() */\n      tag_80\n        /* \"subasta7.sol\":1252:1261  getMaxBid */\n      tag_43\n        /* \"subasta7.sol\":1252:1263  getMaxBid() */\n      jump\t// in\n    tag_80:\n        /* \"subasta7.sol\":1252:1269  getMaxBid() * 105 */\n      tag_81\n      swap2\n      swap1\n      tag_82\n      jump\t// in\n    tag_81:\n        /* \"subasta7.sol\":1251:1276  (getMaxBid() * 105) / 100 */\n      tag_83\n      swap2\n      swap1\n      tag_84\n      jump\t// in\n    tag_83:\n        /* \"subasta7.sol\":1238:1247  msg.value */\n      callvalue\n        /* \"subasta7.sol\":1238:1276  msg.value >= (getMaxBid() * 105) / 100 */\n      lt\n      iszero\n        /* \"subasta7.sol\":1230:1336  require(msg.value >= (getMaxBid() * 105) / 100, \"The bid must be at least 5% higher than the current bid\") */\n      tag_85\n      jumpi\n      mload(0x40)\n      0x08c379a000000000000000000000000000000000000000000000000000000000\n      dup2\n      mstore\n      0x04\n      add\n      tag_86\n      swap1\n      tag_87\n      jump\t// in\n    tag_86:\n      mload(0x40)\n      dup1\n      swap2\n      sub\n      swap1\n      revert\n    tag_85:\n        /* \"subasta7.sol\":1373:1380  endTime */\n      sload(0x01)\n        /* \"subasta7.sol\":1355:1370  block.timestamp */\n      timestamp\n        /* \"subasta7.sol\":1355:1380  block.timestamp < endTime */\n      lt\n        /* \"subasta7.sol\":1347:1406  require(block.timestamp < endTime, \"The auction has ended\") */\n      tag_88\n      jumpi\n      mload(0x40)\n      0x08c379a000000000000000000000000000000000000000000000000000000000\n      dup2\n      mstore\n      0x04\n      add\n      tag_89\n      swap1\n      tag_90\n      jump\t// in\n    tag_89:\n      mload(0x40)\n      dup1\n      swap2\n      sub\n      swap1\n      revert\n    tag_88:\n        /* \"subasta7.sol\":1466:1481  extensionPeriod */\n      sload(0x02)\n        /* \"subasta7.sol\":1455:1462  endTime */\n      0x01\n      0x00\n        /* \"subasta7.sol\":1455:1481  endTime += extensionPeriod */\n      dup3\n      dup3\n      sload\n      tag_91\n      swap2\n      swap1\n      tag_92\n      jump\t// in\n    tag_91:\n      swap3\n      pop\n      pop\n      dup2\n      swap1\n      sstore\n      pop\n        /* \"subasta7.sol\":1494:1504  bidHistory */\n      0x06\n        /* \"subasta7.sol\":1510:1536  Bid(msg.sender, msg.value) */\n      mload(0x40)\n      dup1\n      0x40\n      add\n      0x40\n      mstore\n      dup1\n        /* \"subasta7.sol\":1514:1524  msg.sender */\n      caller\n        /* \"subasta7.sol\":1510:1536  Bid(msg.sender, msg.value) */\n      0xffffffffffffffffffffffffffffffffffffffff\n      and\n      dup2\n      mstore\n      0x20\n      add\n        /* \"subasta7.sol\":1526:1535  msg.value */\n      callvalue\n        /* \"subasta7.sol\":1510:1536  Bid(msg.sender, msg.value) */\n      dup2\n      mstore\n      pop\n        /* \"subasta7.sol\":1494:1537  bidHistory.push(Bid(msg.sender, msg.value)) */\n      swap1\n      dup1\n      0x01\n      dup2\n      sload\n      add\n      dup1\n      dup3\n      sstore\n      dup1\n      swap2\n      pop\n      pop\n      0x01\n      swap1\n      sub\n      swap1\n      0x00\n      mstore\n      keccak256(0x00, 0x20)\n      swap1\n      0x02\n      mul\n      add\n      0x00\n      swap1\n      swap2\n      swap1\n      swap2\n      swap1\n      swap2\n      pop\n      0x00\n      dup3\n      add\n      mload\n      dup2\n      0x00\n      add\n      exp(0x0100, 0x00)\n      dup2\n      sload\n      dup2\n      0xffffffffffffffffffffffffffffffffffffffff\n      mul\n      not\n      and\n      swap1\n      dup4\n      0xffffffffffffffffffffffffffffffffffffffff\n      and\n      mul\n      or\n      swap1\n      sstore\n      pop\n      0x20\n      dup3\n      add\n      mload\n      dup2\n      0x01\n      add\n      sstore\n      pop\n      pop\n        /* \"subasta7.sol\":1560:1570  msg.sender */\n      caller\n        /* \"subasta7.sol\":1553:1582  NewBid(msg.sender, msg.value) */\n      0xffffffffffffffffffffffffffffffffffffffff\n      and\n      0xdd0b6c6a77960e2066c96171b4d7ac9e8b4c184011f38544afa36a5bb63ec59f\n        /* \"subasta7.sol\":1572:1581  msg.value */\n      callvalue\n        /* \"subasta7.sol\":1553:1582  NewBid(msg.sender, msg.value) */\n      mload(0x40)\n      tag_94\n      swap2\n      swap1\n      tag_28\n      jump\t// in\n    tag_94:\n      mload(0x40)\n      dup1\n      swap2\n      sub\n      swap1\n      log2\n        /* \"subasta7.sol\":1171:1590  function bid() external payable onlyWhileActive {... */\n      jump\t// out\n        /* \"subasta7.sol\":245:264  uint public endTime */\n    tag_26:\n      sload(0x01)\n      dup2\n      jump\t// out\n        /* \"subasta7.sol\":346:375  uint public gasCommission = 2 */\n    tag_31:\n      sload(0x04)\n      dup2\n      jump\t// out\n        /* \"subasta7.sol\":213:238  address public auctioneer */\n    tag_35:\n      0x00\n      dup1\n      sload\n      swap1\n      0x0100\n      exp\n      swap1\n      div\n      0xffffffffffffffffffffffffffffffffffffffff\n      and\n      dup2\n      jump\t// out\n        /* \"subasta7.sol\":2519:3443  function refundDeposits() external onlyAuctioneer {... */\n    tag_40:\n        /* \"subasta7.sol\":939:949  auctioneer */\n      0x00\n      dup1\n      sload\n      swap1\n      0x0100\n      exp\n      swap1\n      div\n      0xffffffffffffffffffffffffffffffffffffffff\n      and\n        /* \"subasta7.sol\":925:949  msg.sender == auctioneer */\n      0xffffffffffffffffffffffffffffffffffffffff\n      and\n        /* \"subasta7.sol\":925:935  msg.sender */\n      caller\n        /* \"subasta7.sol\":925:949  msg.sender == auctioneer */\n      0xffffffffffffffffffffffffffffffffffffffff\n      and\n      eq\n        /* \"subasta7.sol\":917:999  require(msg.sender == auctioneer, \"Only the auctioneer can execute this function\") */\n      tag_96\n      jumpi\n      mload(0x40)\n      0x08c379a000000000000000000000000000000000000000000000000000000000\n      dup2\n      mstore\n      0x04\n      add\n      tag_97\n      swap1\n      tag_98\n      jump\t// in\n    tag_97:\n      mload(0x40)\n      dup1\n      swap2\n      sub\n      swap1\n      revert\n    tag_96:\n        /* \"subasta7.sol\":2589:2602  auctionActive */\n      0x05\n      0x00\n      swap1\n      sload\n      swap1\n      0x0100\n      exp\n      swap1\n      div\n      0xff\n      and\n        /* \"subasta7.sol\":2588:2602  !auctionActive */\n      iszero\n        /* \"subasta7.sol\":2580:2634  require(!auctionActive, \"The auction is still active\") */\n      tag_100\n      jumpi\n      mload(0x40)\n      0x08c379a000000000000000000000000000000000000000000000000000000000\n      dup2\n      mstore\n      0x04\n      add\n      tag_101\n      swap1\n      tag_102\n      jump\t// in\n    tag_101:\n      mload(0x40)\n      dup1\n      swap2\n      sub\n      swap1\n      revert\n    tag_100:\n        /* \"subasta7.sol\":2647:2666  uint historialArray */\n      0x00\n        /* \"subasta7.sol\":2669:2679  bidHistory */\n      0x06\n        /* \"subasta7.sol\":2669:2686  bidHistory.length */\n      dup1\n      sload\n      swap1\n      pop\n        /* \"subasta7.sol\":2647:2686  uint historialArray = bidHistory.length */\n      swap1\n      pop\n        /* \"subasta7.sol\":2697:2711  address winner */\n      0x00\n        /* \"subasta7.sol\":2714:2724  bidHistory */\n      0x06\n        /* \"subasta7.sol\":2742:2743  1 */\n      0x01\n        /* \"subasta7.sol\":2725:2739  historialArray */\n      dup4\n        /* \"subasta7.sol\":2725:2743  historialArray - 1 */\n      tag_103\n      swap2\n      swap1\n      tag_104\n      jump\t// in\n    tag_103:\n        /* \"subasta7.sol\":2714:2744  bidHistory[historialArray - 1] */\n      dup2\n      sload\n      dup2\n      lt\n      tag_105\n      jumpi\n      tag_106\n      tag_107\n      jump\t// in\n    tag_106:\n    tag_105:\n      swap1\n      0x00\n      mstore\n      keccak256(0x00, 0x20)\n      swap1\n      0x02\n      mul\n      add\n        /* \"subasta7.sol\":2714:2751  bidHistory[historialArray - 1].bidder */\n      0x00\n      add\n      0x00\n      swap1\n      sload\n      swap1\n      0x0100\n      exp\n      swap1\n      div\n      0xffffffffffffffffffffffffffffffffffffffff\n      and\n        /* \"subasta7.sol\":2697:2751  address winner = bidHistory[historialArray - 1].bidder */\n      swap1\n      pop\n        /* \"subasta7.sol\":2769:2775  uint i */\n      0x00\n        /* \"subasta7.sol\":2778:2779  1 */\n      0x01\n        /* \"subasta7.sol\":2769:2779  uint i = 1 */\n      swap1\n      pop\n        /* \"subasta7.sol\":2764:3436  for (uint i = 1; i < historialArray - 1; i++) { // Excluding the last bid (winner)... */\n    tag_109:\n        /* \"subasta7.sol\":2802:2803  1 */\n      0x01\n        /* \"subasta7.sol\":2785:2799  historialArray */\n      dup4\n        /* \"subasta7.sol\":2785:2803  historialArray - 1 */\n      tag_112\n      swap2\n      swap1\n      tag_104\n      jump\t// in\n    tag_112:\n        /* \"subasta7.sol\":2781:2782  i */\n      dup2\n        /* \"subasta7.sol\":2781:2803  i < historialArray - 1 */\n      lt\n        /* \"subasta7.sol\":2764:3436  for (uint i = 1; i < historialArray - 1; i++) { // Excluding the last bid (winner)... */\n      iszero\n      tag_110\n      jumpi\n        /* \"subasta7.sol\":2860:2874  address bidder */\n      0x00\n        /* \"subasta7.sol\":2877:2887  bidHistory */\n      0x06\n        /* \"subasta7.sol\":2888:2889  i */\n      dup3\n        /* \"subasta7.sol\":2877:2890  bidHistory[i] */\n      dup2\n      sload\n      dup2\n      lt\n      tag_113\n      jumpi\n      tag_114\n      tag_107\n      jump\t// in\n    tag_114:\n    tag_113:\n      swap1\n      0x00\n      mstore\n      keccak256(0x00, 0x20)\n      swap1\n      0x02\n      mul\n      add\n        /* \"subasta7.sol\":2877:2897  bidHistory[i].bidder */\n      0x00\n      add\n      0x00\n      swap1\n      sload\n      swap1\n      0x0100\n      exp\n      swap1\n      div\n      0xffffffffffffffffffffffffffffffffffffffff\n      and\n        /* \"subasta7.sol\":2860:2897  address bidder = bidHistory[i].bidder */\n      swap1\n      pop\n        /* \"subasta7.sol\":2912:2923  uint amount */\n      0x00\n        /* \"subasta7.sol\":2926:2936  bidHistory */\n      0x06\n        /* \"subasta7.sol\":2937:2938  i */\n      dup4\n        /* \"subasta7.sol\":2926:2939  bidHistory[i] */\n      dup2\n      sload\n      dup2\n      lt\n      tag_116\n      jumpi\n      tag_117\n      tag_107\n      jump\t// in\n    tag_117:\n    tag_116:\n      swap1\n      0x00\n      mstore\n      keccak256(0x00, 0x20)\n      swap1\n      0x02\n      mul\n      add\n        /* \"subasta7.sol\":2926:2946  bidHistory[i].amount */\n      0x01\n      add\n      sload\n        /* \"subasta7.sol\":2912:2946  uint amount = bidHistory[i].amount */\n      swap1\n      pop\n        /* \"subasta7.sol\":3033:3039  winner */\n      dup4\n        /* \"subasta7.sol\":3023:3039  bidder == winner */\n      0xffffffffffffffffffffffffffffffffffffffff\n      and\n        /* \"subasta7.sol\":3023:3029  bidder */\n      dup3\n        /* \"subasta7.sol\":3023:3039  bidder == winner */\n      0xffffffffffffffffffffffffffffffffffffffff\n      and\n      sub\n        /* \"subasta7.sol\":3019:3084  if (bidder == winner) {... */\n      tag_119\n      jumpi\n        /* \"subasta7.sol\":3060:3068  continue */\n      pop\n      pop\n      jump(tag_111)\n        /* \"subasta7.sol\":3019:3084  if (bidder == winner) {... */\n    tag_119:\n        /* \"subasta7.sol\":3171:3190  uint amountToRefund */\n      0x00\n        /* \"subasta7.sol\":3228:3231  100 */\n      0x64\n        /* \"subasta7.sol\":3210:3223  gasCommission */\n      sload(0x04)\n        /* \"subasta7.sol\":3204:3207  100 */\n      0x64\n        /* \"subasta7.sol\":3204:3223  100 - gasCommission */\n      tag_120\n      swap2\n      swap1\n      tag_104\n      jump\t// in\n    tag_120:\n        /* \"subasta7.sol\":3194:3200  amount */\n      dup4\n        /* \"subasta7.sol\":3194:3224  amount * (100 - gasCommission) */\n      tag_121\n      swap2\n      swap1\n      tag_82\n      jump\t// in\n    tag_121:\n        /* \"subasta7.sol\":3193:3231  (amount * (100 - gasCommission)) / 100 */\n      tag_122\n      swap2\n      swap1\n      tag_84\n      jump\t// in\n    tag_122:\n        /* \"subasta7.sol\":3171:3231  uint amountToRefund = (amount * (100 - gasCommission)) / 100 */\n      swap1\n      pop\n        /* \"subasta7.sol\":3310:3322  bool success */\n      0x00\n        /* \"subasta7.sol\":3328:3334  bidder */\n      dup4\n        /* \"subasta7.sol\":3328:3339  bidder.call */\n      0xffffffffffffffffffffffffffffffffffffffff\n      and\n        /* \"subasta7.sol\":3347:3361  amountToRefund */\n      dup3\n        /* \"subasta7.sol\":3328:3366  bidder.call{value: amountToRefund}(\"\") */\n      mload(0x40)\n      tag_123\n      swap1\n      tag_124\n      jump\t// in\n    tag_123:\n      0x00\n      mload(0x40)\n      dup1\n      dup4\n      sub\n      dup2\n      dup6\n      dup8\n      gas\n      call\n      swap3\n      pop\n      pop\n      pop\n      returndatasize\n      dup1\n      0x00\n      dup2\n      eq\n      tag_127\n      jumpi\n      mload(0x40)\n      swap2\n      pop\n      and(add(returndatasize, 0x3f), not(0x1f))\n      dup3\n      add\n      0x40\n      mstore\n      returndatasize\n      dup3\n      mstore\n      returndatasize\n      0x00\n      0x20\n      dup5\n      add\n      returndatacopy\n      jump(tag_126)\n    tag_127:\n      0x60\n      swap2\n      pop\n    tag_126:\n      pop\n        /* \"subasta7.sol\":3309:3366  (bool success, ) = bidder.call{value: amountToRefund}(\"\") */\n      pop\n      swap1\n      pop\n        /* \"subasta7.sol\":3389:3396  success */\n      dup1\n        /* \"subasta7.sol\":3381:3424  require(success, \"Refund to bidder failed\") */\n      tag_128\n      jumpi\n      mload(0x40)\n      0x08c379a000000000000000000000000000000000000000000000000000000000\n      dup2\n      mstore\n      0x04\n      add\n      tag_129\n      swap1\n      tag_130\n      jump\t// in\n    tag_129:\n      mload(0x40)\n      dup1\n      swap2\n      sub\n      swap1\n      revert\n    tag_128:\n        /* \"subasta7.sol\":2810:3436  { // Excluding the last bid (winner)... */\n      pop\n      pop\n      pop\n      pop\n        /* \"subasta7.sol\":2764:3436  for (uint i = 1; i < historialArray - 1; i++) { // Excluding the last bid (winner)... */\n    tag_111:\n        /* \"subasta7.sol\":2805:2808  i++ */\n      dup1\n      dup1\n      0x01\n      add\n      swap2\n      pop\n      pop\n        /* \"subasta7.sol\":2764:3436  for (uint i = 1; i < historialArray - 1; i++) { // Excluding the last bid (winner)... */\n      jump(tag_109)\n    tag_110:\n      pop\n        /* \"subasta7.sol\":2569:3443  {... */\n      pop\n      pop\n        /* \"subasta7.sol\":2519:3443  function refundDeposits() external onlyAuctioneer {... */\n      jump\t// out\n        /* \"subasta7.sol\":4112:4226  function getMaxBid() public view returns (uint) {... */\n    tag_43:\n        /* \"subasta7.sol\":4154:4158  uint */\n      0x00\n        /* \"subasta7.sol\":4178:4188  bidHistory */\n      0x06\n        /* \"subasta7.sol\":4209:4210  1 */\n      0x01\n        /* \"subasta7.sol\":4189:4199  bidHistory */\n      0x06\n        /* \"subasta7.sol\":4189:4206  bidHistory.length */\n      dup1\n      sload\n      swap1\n      pop\n        /* \"subasta7.sol\":4189:4210  bidHistory.length - 1 */\n      tag_132\n      swap2\n      swap1\n      tag_104\n      jump\t// in\n    tag_132:\n        /* \"subasta7.sol\":4178:4211  bidHistory[bidHistory.length - 1] */\n      dup2\n      sload\n      dup2\n      lt\n      tag_133\n      jumpi\n      tag_134\n      tag_107\n      jump\t// in\n    tag_134:\n    tag_133:\n      swap1\n      0x00\n      mstore\n      keccak256(0x00, 0x20)\n      swap1\n      0x02\n      mul\n      add\n        /* \"subasta7.sol\":4178:4218  bidHistory[bidHistory.length - 1].amount */\n      0x01\n      add\n      sload\n        /* \"subasta7.sol\":4171:4218  return bidHistory[bidHistory.length - 1].amount */\n      swap1\n      pop\n        /* \"subasta7.sol\":4112:4226  function getMaxBid() public view returns (uint) {... */\n      swap1\n      jump\t// out\n        /* \"subasta7.sol\":388:413  bool public auctionActive */\n    tag_47:\n      0x05\n      0x00\n      swap1\n      sload\n      swap1\n      0x0100\n      exp\n      swap1\n      div\n      0xff\n      and\n      dup2\n      jump\t// out\n        /* \"subasta7.sol\":317:339  uint public minimumBid */\n    tag_52:\n      sload(0x03)\n      dup2\n      jump\t// out\n        /* \"subasta7.sol\":271:310  uint public extensionPeriod = 1 minutes */\n    tag_56:\n      sload(0x02)\n      dup2\n      jump\t// out\n        /* \"subasta7.sol\":420:443  Bid[] public bidHistory */\n    tag_62:\n      0x06\n      dup2\n      dup2\n      sload\n      dup2\n      lt\n      tag_136\n      jumpi\n      0x00\n      dup1\n      revert\n    tag_136:\n      swap1\n      0x00\n      mstore\n      keccak256(0x00, 0x20)\n      swap1\n      0x02\n      mul\n      add\n      0x00\n      swap2\n      pop\n      swap1\n      pop\n      dup1\n      0x00\n      add\n      0x00\n      swap1\n      sload\n      swap1\n      0x0100\n      exp\n      swap1\n      div\n      0xffffffffffffffffffffffffffffffffffffffff\n      and\n      swap1\n      dup1\n      0x01\n      add\n      sload\n      swap1\n      pop\n      dup3\n      jump\t// out\n        /* \"subasta7.sol\":3451:3978  function partialWithdraw() external onlyWhileActive {... */\n    tag_67:\n        /* \"subasta7.sol\":1073:1086  auctionActive */\n      0x05\n      0x00\n      swap1\n      sload\n      swap1\n      0x0100\n      exp\n      swap1\n      div\n      0xff\n      and\n        /* \"subasta7.sol\":1065:1116  require(auctionActive, \"The auction is not active\") */\n      tag_139\n      jumpi\n      mload(0x40)\n      0x08c379a000000000000000000000000000000000000000000000000000000000\n      dup2\n      mstore\n      0x04\n      add\n      tag_140\n      swap1\n      tag_78\n      jump\t// in\n    tag_140:\n      mload(0x40)\n      dup1\n      swap2\n      sub\n      swap1\n      revert\n    tag_139:\n        /* \"subasta7.sol\":3514:3535  uint amountToWithdraw */\n      0x00\n        /* \"subasta7.sol\":3550:3569  uint historialArray */\n      dup1\n        /* \"subasta7.sol\":3572:3582  bidHistory */\n      0x06\n        /* \"subasta7.sol\":3572:3589  bidHistory.length */\n      dup1\n      sload\n      swap1\n      pop\n        /* \"subasta7.sol\":3550:3589  uint historialArray = bidHistory.length */\n      swap1\n      pop\n        /* \"subasta7.sol\":3607:3613  uint i */\n      0x00\n        /* \"subasta7.sol\":3602:3842  for (uint i = 0; i < historialArray - 1; i++) {... */\n    tag_142:\n        /* \"subasta7.sol\":3640:3641  1 */\n      0x01\n        /* \"subasta7.sol\":3623:3637  historialArray */\n      dup3\n        /* \"subasta7.sol\":3623:3641  historialArray - 1 */\n      tag_145\n      swap2\n      swap1\n      tag_104\n      jump\t// in\n    tag_145:\n        /* \"subasta7.sol\":3619:3620  i */\n      dup2\n        /* \"subasta7.sol\":3619:3641  i < historialArray - 1 */\n      lt\n        /* \"subasta7.sol\":3602:3842  for (uint i = 0; i < historialArray - 1; i++) {... */\n      iszero\n      tag_143\n      jumpi\n        /* \"subasta7.sol\":3691:3701  msg.sender */\n      caller\n        /* \"subasta7.sol\":3667:3701  bidHistory[i].bidder == msg.sender */\n      0xffffffffffffffffffffffffffffffffffffffff\n      and\n        /* \"subasta7.sol\":3667:3677  bidHistory */\n      0x06\n        /* \"subasta7.sol\":3678:3679  i */\n      dup3\n        /* \"subasta7.sol\":3667:3680  bidHistory[i] */\n      dup2\n      sload\n      dup2\n      lt\n      tag_146\n      jumpi\n      tag_147\n      tag_107\n      jump\t// in\n    tag_147:\n    tag_146:\n      swap1\n      0x00\n      mstore\n      keccak256(0x00, 0x20)\n      swap1\n      0x02\n      mul\n      add\n        /* \"subasta7.sol\":3667:3687  bidHistory[i].bidder */\n      0x00\n      add\n      0x00\n      swap1\n      sload\n      swap1\n      0x0100\n      exp\n      swap1\n      div\n      0xffffffffffffffffffffffffffffffffffffffff\n      and\n        /* \"subasta7.sol\":3667:3701  bidHistory[i].bidder == msg.sender */\n      0xffffffffffffffffffffffffffffffffffffffff\n      and\n      sub\n        /* \"subasta7.sol\":3663:3831  if (bidHistory[i].bidder == msg.sender) {... */\n      tag_149\n      jumpi\n        /* \"subasta7.sol\":3742:3752  bidHistory */\n      0x06\n        /* \"subasta7.sol\":3753:3754  i */\n      dup2\n        /* \"subasta7.sol\":3742:3755  bidHistory[i] */\n      dup2\n      sload\n      dup2\n      lt\n      tag_150\n      jumpi\n      tag_151\n      tag_107\n      jump\t// in\n    tag_151:\n    tag_150:\n      swap1\n      0x00\n      mstore\n      keccak256(0x00, 0x20)\n      swap1\n      0x02\n      mul\n      add\n        /* \"subasta7.sol\":3742:3762  bidHistory[i].amount */\n      0x01\n      add\n      sload\n        /* \"subasta7.sol\":3722:3762  amountToWithdraw += bidHistory[i].amount */\n      dup4\n      tag_153\n      swap2\n      swap1\n      tag_92\n      jump\t// in\n    tag_153:\n      swap3\n      pop\n        /* \"subasta7.sol\":3788:3798  bidHistory */\n      0x06\n        /* \"subasta7.sol\":3799:3800  i */\n      dup2\n        /* \"subasta7.sol\":3788:3801  bidHistory[i] */\n      dup2\n      sload\n      dup2\n      lt\n      tag_154\n      jumpi\n      tag_155\n      tag_107\n      jump\t// in\n    tag_155:\n    tag_154:\n      swap1\n      0x00\n      mstore\n      keccak256(0x00, 0x20)\n      swap1\n      0x02\n      mul\n      add\n      0x00\n        /* \"subasta7.sol\":3781:3801  delete bidHistory[i] */\n      dup1\n      dup3\n      add\n      exp(0x0100, 0x00)\n      dup2\n      sload\n      swap1\n      0xffffffffffffffffffffffffffffffffffffffff\n      mul\n      not\n      and\n      swap1\n      sstore\n      0x01\n      dup3\n      add\n      0x00\n      swap1\n      sstore\n      pop\n      pop\n        /* \"subasta7.sol\":3663:3831  if (bidHistory[i].bidder == msg.sender) {... */\n    tag_149:\n        /* \"subasta7.sol\":3643:3646  i++ */\n      dup1\n      dup1\n      0x01\n      add\n      swap2\n      pop\n      pop\n        /* \"subasta7.sol\":3602:3842  for (uint i = 0; i < historialArray - 1; i++) {... */\n      jump(tag_142)\n    tag_143:\n      pop\n        /* \"subasta7.sol\":3879:3880  0 */\n      0x00\n        /* \"subasta7.sol\":3860:3876  amountToWithdraw */\n      dup3\n        /* \"subasta7.sol\":3860:3880  amountToWithdraw > 0 */\n      gt\n        /* \"subasta7.sol\":3852:3913  require(amountToWithdraw > 0, \"There is nothing to withdraw\") */\n      tag_157\n      jumpi\n      mload(0x40)\n      0x08c379a000000000000000000000000000000000000000000000000000000000\n      dup2\n      mstore\n      0x04\n      add\n      tag_158\n      swap1\n      tag_159\n      jump\t// in\n    tag_158:\n      mload(0x40)\n      dup1\n      swap2\n      sub\n      swap1\n      revert\n    tag_157:\n        /* \"subasta7.sol\":3932:3942  msg.sender */\n      caller\n        /* \"subasta7.sol\":3924:3952  payable(msg.sender).transfer */\n      0xffffffffffffffffffffffffffffffffffffffff\n      and\n        /* \"subasta7.sol\":3924:3970  payable(msg.sender).transfer(amountToWithdraw) */\n      0x08fc\n        /* \"subasta7.sol\":3953:3969  amountToWithdraw */\n      dup4\n        /* \"subasta7.sol\":3924:3970  payable(msg.sender).transfer(amountToWithdraw) */\n      swap1\n      dup2\n      iszero\n      mul\n      swap1\n      mload(0x40)\n      0x00\n      mload(0x40)\n      dup1\n      dup4\n      sub\n      dup2\n      dup6\n      dup9\n      dup9\n      call\n      swap4\n      pop\n      pop\n      pop\n      pop\n      iszero\n      dup1\n      iszero\n      tag_161\n      jumpi\n      returndatasize\n      0x00\n      dup1\n      returndatacopy\n      revert(0x00, returndatasize)\n    tag_161:\n      pop\n        /* \"subasta7.sol\":3503:3978  {... */\n      pop\n      pop\n        /* \"subasta7.sol\":3451:3978  function partialWithdraw() external onlyWhileActive {... */\n      jump\t// out\n        /* \"subasta7.sol\":1968:2511  function endAuction() external onlyAuctioneer {... */\n    tag_70:\n        /* \"subasta7.sol\":939:949  auctioneer */\n      0x00\n      dup1\n      sload\n      swap1\n      0x0100\n      exp\n      swap1\n      div\n      0xffffffffffffffffffffffffffffffffffffffff\n      and\n        /* \"subasta7.sol\":925:949  msg.sender == auctioneer */\n      0xffffffffffffffffffffffffffffffffffffffff\n      and\n        /* \"subasta7.sol\":925:935  msg.sender */\n      caller\n        /* \"subasta7.sol\":925:949  msg.sender == auctioneer */\n      0xffffffffffffffffffffffffffffffffffffffff\n      and\n      eq\n        /* \"subasta7.sol\":917:999  require(msg.sender == auctioneer, \"Only the auctioneer can execute this function\") */\n      tag_163\n      jumpi\n      mload(0x40)\n      0x08c379a000000000000000000000000000000000000000000000000000000000\n      dup2\n      mstore\n      0x04\n      add\n      tag_164\n      swap1\n      tag_98\n      jump\t// in\n    tag_164:\n      mload(0x40)\n      dup1\n      swap2\n      sub\n      swap1\n      revert\n    tag_163:\n        /* \"subasta7.sol\":2052:2059  endTime */\n      sload(0x01)\n        /* \"subasta7.sol\":2033:2048  block.timestamp */\n      timestamp\n        /* \"subasta7.sol\":2033:2059  block.timestamp >= endTime */\n      lt\n      iszero\n        /* \"subasta7.sol\":2025:2089  require(block.timestamp >= endTime, \"The auction has not ended\") */\n      tag_166\n      jumpi\n      mload(0x40)\n      0x08c379a000000000000000000000000000000000000000000000000000000000\n      dup2\n      mstore\n      0x04\n      add\n      tag_167\n      swap1\n      tag_168\n      jump\t// in\n    tag_167:\n      mload(0x40)\n      dup1\n      swap2\n      sub\n      swap1\n      revert\n    tag_166:\n        /* \"subasta7.sol\":2118:2123  false */\n      0x00\n        /* \"subasta7.sol\":2102:2115  auctionActive */\n      0x05\n      0x00\n        /* \"subasta7.sol\":2102:2123  auctionActive = false */\n      0x0100\n      exp\n      dup2\n      sload\n      dup2\n      0xff\n      mul\n      not\n      and\n      swap1\n      dup4\n      iszero\n      iszero\n      mul\n      or\n      swap1\n      sstore\n      pop\n        /* \"subasta7.sol\":2134:2148  address winner */\n      0x00\n        /* \"subasta7.sol\":2151:2161  bidHistory */\n      0x06\n        /* \"subasta7.sol\":2182:2183  1 */\n      0x01\n        /* \"subasta7.sol\":2162:2172  bidHistory */\n      0x06\n        /* \"subasta7.sol\":2162:2179  bidHistory.length */\n      dup1\n      sload\n      swap1\n      pop\n        /* \"subasta7.sol\":2162:2183  bidHistory.length - 1 */\n      tag_169\n      swap2\n      swap1\n      tag_104\n      jump\t// in\n    tag_169:\n        /* \"subasta7.sol\":2151:2184  bidHistory[bidHistory.length - 1] */\n      dup2\n      sload\n      dup2\n      lt\n      tag_170\n      jumpi\n      tag_171\n      tag_107\n      jump\t// in\n    tag_171:\n    tag_170:\n      swap1\n      0x00\n      mstore\n      keccak256(0x00, 0x20)\n      swap1\n      0x02\n      mul\n      add\n        /* \"subasta7.sol\":2151:2191  bidHistory[bidHistory.length - 1].bidder */\n      0x00\n      add\n      0x00\n      swap1\n      sload\n      swap1\n      0x0100\n      exp\n      swap1\n      div\n      0xffffffffffffffffffffffffffffffffffffffff\n      and\n        /* \"subasta7.sol\":2134:2191  address winner = bidHistory[bidHistory.length - 1].bidder */\n      swap1\n      pop\n        /* \"subasta7.sol\":2202:2220  uint winningAmount */\n      0x00\n        /* \"subasta7.sol\":2223:2233  bidHistory */\n      0x06\n        /* \"subasta7.sol\":2254:2255  1 */\n      0x01\n        /* \"subasta7.sol\":2234:2244  bidHistory */\n      0x06\n        /* \"subasta7.sol\":2234:2251  bidHistory.length */\n      dup1\n      sload\n      swap1\n      pop\n        /* \"subasta7.sol\":2234:2255  bidHistory.length - 1 */\n      tag_173\n      swap2\n      swap1\n      tag_104\n      jump\t// in\n    tag_173:\n        /* \"subasta7.sol\":2223:2256  bidHistory[bidHistory.length - 1] */\n      dup2\n      sload\n      dup2\n      lt\n      tag_174\n      jumpi\n      tag_175\n      tag_107\n      jump\t// in\n    tag_175:\n    tag_174:\n      swap1\n      0x00\n      mstore\n      keccak256(0x00, 0x20)\n      swap1\n      0x02\n      mul\n      add\n        /* \"subasta7.sol\":2223:2263  bidHistory[bidHistory.length - 1].amount */\n      0x01\n      add\n      sload\n        /* \"subasta7.sol\":2202:2263  uint winningAmount = bidHistory[bidHistory.length - 1].amount */\n      swap1\n      pop\n        /* \"subasta7.sol\":2331:2343  bool success */\n      0x00\n        /* \"subasta7.sol\":2349:2359  auctioneer */\n      dup1\n      0x00\n      swap1\n      sload\n      swap1\n      0x0100\n      exp\n      swap1\n      div\n      0xffffffffffffffffffffffffffffffffffffffff\n      and\n        /* \"subasta7.sol\":2349:2364  auctioneer.call */\n      0xffffffffffffffffffffffffffffffffffffffff\n      and\n        /* \"subasta7.sol\":2372:2385  winningAmount */\n      dup3\n        /* \"subasta7.sol\":2349:2390  auctioneer.call{value: winningAmount}(\"\") */\n      mload(0x40)\n      tag_177\n      swap1\n      tag_124\n      jump\t// in\n    tag_177:\n      0x00\n      mload(0x40)\n      dup1\n      dup4\n      sub\n      dup2\n      dup6\n      dup8\n      gas\n      call\n      swap3\n      pop\n      pop\n      pop\n      returndatasize\n      dup1\n      0x00\n      dup2\n      eq\n      tag_180\n      jumpi\n      mload(0x40)\n      swap2\n      pop\n      and(add(returndatasize, 0x3f), not(0x1f))\n      dup3\n      add\n      0x40\n      mstore\n      returndatasize\n      dup3\n      mstore\n      returndatasize\n      0x00\n      0x20\n      dup5\n      add\n      returndatacopy\n      jump(tag_179)\n    tag_180:\n      0x60\n      swap2\n      pop\n    tag_179:\n      pop\n        /* \"subasta7.sol\":2330:2390  (bool success, ) = auctioneer.call{value: winningAmount}(\"\") */\n      pop\n      swap1\n      pop\n        /* \"subasta7.sol\":2409:2416  success */\n      dup1\n        /* \"subasta7.sol\":2401:2450  require(success, \"Transfer to auctioneer failed\") */\n      tag_181\n      jumpi\n      mload(0x40)\n      0x08c379a000000000000000000000000000000000000000000000000000000000\n      dup2\n      mstore\n      0x04\n      add\n      tag_182\n      swap1\n      tag_183\n      jump\t// in\n    tag_182:\n      mload(0x40)\n      dup1\n      swap2\n      sub\n      swap1\n      revert\n    tag_181:\n        /* \"subasta7.sol\":2468:2503  AuctionEnded(winner, winningAmount) */\n      0xdaec4582d5d9595688c8c98545fdd1c696d41c6aeaeb636737e84ed2f5c00eda\n        /* \"subasta7.sol\":2481:2487  winner */\n      dup4\n        /* \"subasta7.sol\":2489:2502  winningAmount */\n      dup4\n        /* \"subasta7.sol\":2468:2503  AuctionEnded(winner, winningAmount) */\n      mload(0x40)\n      tag_184\n      swap3\n      swap2\n      swap1\n      tag_64\n      jump\t// in\n    tag_184:\n      mload(0x40)\n      dup1\n      swap2\n      sub\n      swap1\n      log1\n        /* \"subasta7.sol\":2014:2511  {... */\n      pop\n      pop\n      pop\n        /* \"subasta7.sol\":1968:2511  function endAuction() external onlyAuctioneer {... */\n      jump\t// out\n        /* \"#utility.yul\":7:139   */\n    tag_185:\n        /* \"#utility.yul\":92:98   */\n      0x00\n        /* \"#utility.yul\":126:131   */\n      dup2\n        /* \"#utility.yul\":120:132   */\n      mload\n        /* \"#utility.yul\":110:132   */\n      swap1\n      pop\n        /* \"#utility.yul\":7:139   */\n      swap2\n      swap1\n      pop\n      jump\t// out\n        /* \"#utility.yul\":145:347   */\n    tag_186:\n        /* \"#utility.yul\":262:273   */\n      0x00\n        /* \"#utility.yul\":296:302   */\n      dup3\n        /* \"#utility.yul\":291:294   */\n      dup3\n        /* \"#utility.yul\":284:303   */\n      mstore\n        /* \"#utility.yul\":336:340   */\n      0x20\n        /* \"#utility.yul\":331:334   */\n      dup3\n        /* \"#utility.yul\":327:341   */\n      add\n        /* \"#utility.yul\":312:341   */\n      swap1\n      pop\n        /* \"#utility.yul\":145:347   */\n      swap3\n      swap2\n      pop\n      pop\n      jump\t// out\n        /* \"#utility.yul\":353:503   */\n    tag_187:\n        /* \"#utility.yul\":438:442   */\n      0x00\n        /* \"#utility.yul\":461:464   */\n      dup2\n        /* \"#utility.yul\":453:464   */\n      swap1\n      pop\n        /* \"#utility.yul\":491:495   */\n      0x20\n        /* \"#utility.yul\":486:489   */\n      dup3\n        /* \"#utility.yul\":482:496   */\n      add\n        /* \"#utility.yul\":474:496   */\n      swap1\n      pop\n        /* \"#utility.yul\":353:503   */\n      swap2\n      swap1\n      pop\n      jump\t// out\n        /* \"#utility.yul\":509:635   */\n    tag_188:\n        /* \"#utility.yul\":546:553   */\n      0x00\n        /* \"#utility.yul\":586:628   */\n      0xffffffffffffffffffffffffffffffffffffffff\n        /* \"#utility.yul\":579:584   */\n      dup3\n        /* \"#utility.yul\":575:629   */\n      and\n        /* \"#utility.yul\":564:629   */\n      swap1\n      pop\n        /* \"#utility.yul\":509:635   */\n      swap2\n      swap1\n      pop\n      jump\t// out\n        /* \"#utility.yul\":641:737   */\n    tag_189:\n        /* \"#utility.yul\":678:685   */\n      0x00\n        /* \"#utility.yul\":707:731   */\n      tag_236\n        /* \"#utility.yul\":725:730   */\n      dup3\n        /* \"#utility.yul\":707:731   */\n      tag_188\n      jump\t// in\n    tag_236:\n        /* \"#utility.yul\":696:731   */\n      swap1\n      pop\n        /* \"#utility.yul\":641:737   */\n      swap2\n      swap1\n      pop\n      jump\t// out\n        /* \"#utility.yul\":743:851   */\n    tag_190:\n        /* \"#utility.yul\":820:844   */\n      tag_238\n        /* \"#utility.yul\":838:843   */\n      dup2\n        /* \"#utility.yul\":820:844   */\n      tag_189\n      jump\t// in\n    tag_238:\n        /* \"#utility.yul\":815:818   */\n      dup3\n        /* \"#utility.yul\":808:845   */\n      mstore\n        /* \"#utility.yul\":743:851   */\n      pop\n      pop\n      jump\t// out\n        /* \"#utility.yul\":857:934   */\n    tag_191:\n        /* \"#utility.yul\":894:901   */\n      0x00\n        /* \"#utility.yul\":923:928   */\n      dup2\n        /* \"#utility.yul\":912:928   */\n      swap1\n      pop\n        /* \"#utility.yul\":857:934   */\n      swap2\n      swap1\n      pop\n      jump\t// out\n        /* \"#utility.yul\":940:1048   */\n    tag_192:\n        /* \"#utility.yul\":1017:1041   */\n      tag_241\n        /* \"#utility.yul\":1035:1040   */\n      dup2\n        /* \"#utility.yul\":1017:1041   */\n      tag_191\n      jump\t// in\n    tag_241:\n        /* \"#utility.yul\":1012:1015   */\n      dup3\n        /* \"#utility.yul\":1005:1042   */\n      mstore\n        /* \"#utility.yul\":940:1048   */\n      pop\n      pop\n      jump\t// out\n        /* \"#utility.yul\":1114:1601   */\n    tag_193:\n        /* \"#utility.yul\":1237:1241   */\n      0x40\n        /* \"#utility.yul\":1232:1235   */\n      dup3\n        /* \"#utility.yul\":1228:1242   */\n      add\n        /* \"#utility.yul\":1326:1330   */\n      0x00\n        /* \"#utility.yul\":1319:1324   */\n      dup3\n        /* \"#utility.yul\":1315:1331   */\n      add\n        /* \"#utility.yul\":1309:1332   */\n      mload\n        /* \"#utility.yul\":1345:1408   */\n      tag_243\n        /* \"#utility.yul\":1402:1406   */\n      0x00\n        /* \"#utility.yul\":1397:1400   */\n      dup6\n        /* \"#utility.yul\":1393:1407   */\n      add\n        /* \"#utility.yul\":1379:1391   */\n      dup3\n        /* \"#utility.yul\":1345:1408   */\n      tag_190\n      jump\t// in\n    tag_243:\n        /* \"#utility.yul\":1252:1418   */\n      pop\n        /* \"#utility.yul\":1502:1506   */\n      0x20\n        /* \"#utility.yul\":1495:1500   */\n      dup3\n        /* \"#utility.yul\":1491:1507   */\n      add\n        /* \"#utility.yul\":1485:1508   */\n      mload\n        /* \"#utility.yul\":1521:1584   */\n      tag_244\n        /* \"#utility.yul\":1578:1582   */\n      0x20\n        /* \"#utility.yul\":1573:1576   */\n      dup6\n        /* \"#utility.yul\":1569:1583   */\n      add\n        /* \"#utility.yul\":1555:1567   */\n      dup3\n        /* \"#utility.yul\":1521:1584   */\n      tag_192\n      jump\t// in\n    tag_244:\n        /* \"#utility.yul\":1428:1594   */\n      pop\n        /* \"#utility.yul\":1206:1601   */\n      pop\n        /* \"#utility.yul\":1114:1601   */\n      pop\n      pop\n      jump\t// out\n        /* \"#utility.yul\":1607:1858   */\n    tag_194:\n        /* \"#utility.yul\":1712:1722   */\n      0x00\n        /* \"#utility.yul\":1733:1815   */\n      tag_246\n        /* \"#utility.yul\":1811:1814   */\n      dup4\n        /* \"#utility.yul\":1803:1809   */\n      dup4\n        /* \"#utility.yul\":1733:1815   */\n      tag_193\n      jump\t// in\n    tag_246:\n        /* \"#utility.yul\":1847:1851   */\n      0x40\n        /* \"#utility.yul\":1842:1845   */\n      dup4\n        /* \"#utility.yul\":1838:1852   */\n      add\n        /* \"#utility.yul\":1824:1852   */\n      swap1\n      pop\n        /* \"#utility.yul\":1607:1858   */\n      swap3\n      swap2\n      pop\n      pop\n      jump\t// out\n        /* \"#utility.yul\":1864:1995   */\n    tag_195:\n        /* \"#utility.yul\":1952:1956   */\n      0x00\n        /* \"#utility.yul\":1984:1988   */\n      0x20\n        /* \"#utility.yul\":1979:1982   */\n      dup3\n        /* \"#utility.yul\":1975:1989   */\n      add\n        /* \"#utility.yul\":1967:1989   */\n      swap1\n      pop\n        /* \"#utility.yul\":1864:1995   */\n      swap2\n      swap1\n      pop\n      jump\t// out\n        /* \"#utility.yul\":2065:2941   */\n    tag_196:\n        /* \"#utility.yul\":2220:2223   */\n      0x00\n        /* \"#utility.yul\":2249:2321   */\n      tag_249\n        /* \"#utility.yul\":2315:2320   */\n      dup3\n        /* \"#utility.yul\":2249:2321   */\n      tag_185\n      jump\t// in\n    tag_249:\n        /* \"#utility.yul\":2337:2441   */\n      tag_250\n        /* \"#utility.yul\":2434:2440   */\n      dup2\n        /* \"#utility.yul\":2429:2432   */\n      dup6\n        /* \"#utility.yul\":2337:2441   */\n      tag_186\n      jump\t// in\n    tag_250:\n        /* \"#utility.yul\":2330:2441   */\n      swap4\n      pop\n        /* \"#utility.yul\":2465:2539   */\n      tag_251\n        /* \"#utility.yul\":2533:2538   */\n      dup4\n        /* \"#utility.yul\":2465:2539   */\n      tag_187\n      jump\t// in\n    tag_251:\n        /* \"#utility.yul\":2562:2569   */\n      dup1\n        /* \"#utility.yul\":2593:2594   */\n      0x00\n        /* \"#utility.yul\":2578:2916   */\n    tag_252:\n        /* \"#utility.yul\":2603:2609   */\n      dup4\n        /* \"#utility.yul\":2600:2601   */\n      dup2\n        /* \"#utility.yul\":2597:2610   */\n      lt\n        /* \"#utility.yul\":2578:2916   */\n      iszero\n      tag_254\n      jumpi\n        /* \"#utility.yul\":2679:2685   */\n      dup2\n        /* \"#utility.yul\":2673:2686   */\n      mload\n        /* \"#utility.yul\":2706:2805   */\n      tag_255\n        /* \"#utility.yul\":2801:2804   */\n      dup9\n        /* \"#utility.yul\":2786:2799   */\n      dup3\n        /* \"#utility.yul\":2706:2805   */\n      tag_194\n      jump\t// in\n    tag_255:\n        /* \"#utility.yul\":2699:2805   */\n      swap8\n      pop\n        /* \"#utility.yul\":2828:2906   */\n      tag_256\n        /* \"#utility.yul\":2899:2905   */\n      dup4\n        /* \"#utility.yul\":2828:2906   */\n      tag_195\n      jump\t// in\n    tag_256:\n        /* \"#utility.yul\":2818:2906   */\n      swap3\n      pop\n        /* \"#utility.yul\":2638:2916   */\n      pop\n        /* \"#utility.yul\":2625:2626   */\n      0x01\n        /* \"#utility.yul\":2622:2623   */\n      dup2\n        /* \"#utility.yul\":2618:2627   */\n      add\n        /* \"#utility.yul\":2613:2627   */\n      swap1\n      pop\n        /* \"#utility.yul\":2578:2916   */\n      jump(tag_252)\n    tag_254:\n        /* \"#utility.yul\":2582:2596   */\n      pop\n        /* \"#utility.yul\":2932:2935   */\n      dup6\n        /* \"#utility.yul\":2925:2935   */\n      swap4\n      pop\n        /* \"#utility.yul\":2225:2941   */\n      pop\n      pop\n      pop\n        /* \"#utility.yul\":2065:2941   */\n      swap3\n      swap2\n      pop\n      pop\n      jump\t// out\n        /* \"#utility.yul\":2947:3392   */\n    tag_21:\n        /* \"#utility.yul\":3126:3130   */\n      0x00\n        /* \"#utility.yul\":3164:3166   */\n      0x20\n        /* \"#utility.yul\":3153:3162   */\n      dup3\n        /* \"#utility.yul\":3149:3167   */\n      add\n        /* \"#utility.yul\":3141:3167   */\n      swap1\n      pop\n        /* \"#utility.yul\":3213:3222   */\n      dup2\n        /* \"#utility.yul\":3207:3211   */\n      dup2\n        /* \"#utility.yul\":3203:3223   */\n      sub\n        /* \"#utility.yul\":3199:3200   */\n      0x00\n        /* \"#utility.yul\":3188:3197   */\n      dup4\n        /* \"#utility.yul\":3184:3201   */\n      add\n        /* \"#utility.yul\":3177:3224   */\n      mstore\n        /* \"#utility.yul\":3241:3385   */\n      tag_258\n        /* \"#utility.yul\":3380:3384   */\n      dup2\n        /* \"#utility.yul\":3371:3377   */\n      dup5\n        /* \"#utility.yul\":3241:3385   */\n      tag_196\n      jump\t// in\n    tag_258:\n        /* \"#utility.yul\":3233:3385   */\n      swap1\n      pop\n        /* \"#utility.yul\":2947:3392   */\n      swap3\n      swap2\n      pop\n      pop\n      jump\t// out\n        /* \"#utility.yul\":3398:3516   */\n    tag_197:\n        /* \"#utility.yul\":3485:3509   */\n      tag_260\n        /* \"#utility.yul\":3503:3508   */\n      dup2\n        /* \"#utility.yul\":3485:3509   */\n      tag_191\n      jump\t// in\n    tag_260:\n        /* \"#utility.yul\":3480:3483   */\n      dup3\n        /* \"#utility.yul\":3473:3510   */\n      mstore\n        /* \"#utility.yul\":3398:3516   */\n      pop\n      pop\n      jump\t// out\n        /* \"#utility.yul\":3522:3744   */\n    tag_28:\n        /* \"#utility.yul\":3615:3619   */\n      0x00\n        /* \"#utility.yul\":3653:3655   */\n      0x20\n        /* \"#utility.yul\":3642:3651   */\n      dup3\n        /* \"#utility.yul\":3638:3656   */\n      add\n        /* \"#utility.yul\":3630:3656   */\n      swap1\n      pop\n        /* \"#utility.yul\":3666:3737   */\n      tag_262\n        /* \"#utility.yul\":3734:3735   */\n      0x00\n        /* \"#utility.yul\":3723:3732   */\n      dup4\n        /* \"#utility.yul\":3719:3736   */\n      add\n        /* \"#utility.yul\":3710:3716   */\n      dup5\n        /* \"#utility.yul\":3666:3737   */\n      tag_197\n      jump\t// in\n    tag_262:\n        /* \"#utility.yul\":3522:3744   */\n      swap3\n      swap2\n      pop\n      pop\n      jump\t// out\n        /* \"#utility.yul\":3750:3868   */\n    tag_198:\n        /* \"#utility.yul\":3837:3861   */\n      tag_264\n        /* \"#utility.yul\":3855:3860   */\n      dup2\n        /* \"#utility.yul\":3837:3861   */\n      tag_189\n      jump\t// in\n    tag_264:\n        /* \"#utility.yul\":3832:3835   */\n      dup3\n        /* \"#utility.yul\":3825:3862   */\n      mstore\n        /* \"#utility.yul\":3750:3868   */\n      pop\n      pop\n      jump\t// out\n        /* \"#utility.yul\":3874:4096   */\n    tag_37:\n        /* \"#utility.yul\":3967:3971   */\n      0x00\n        /* \"#utility.yul\":4005:4007   */\n      0x20\n        /* \"#utility.yul\":3994:4003   */\n      dup3\n        /* \"#utility.yul\":3990:4008   */\n      add\n        /* \"#utility.yul\":3982:4008   */\n      swap1\n      pop\n        /* \"#utility.yul\":4018:4089   */\n      tag_266\n        /* \"#utility.yul\":4086:4087   */\n      0x00\n        /* \"#utility.yul\":4075:4084   */\n      dup4\n        /* \"#utility.yul\":4071:4088   */\n      add\n        /* \"#utility.yul\":4062:4068   */\n      dup5\n        /* \"#utility.yul\":4018:4089   */\n      tag_198\n      jump\t// in\n    tag_266:\n        /* \"#utility.yul\":3874:4096   */\n      swap3\n      swap2\n      pop\n      pop\n      jump\t// out\n        /* \"#utility.yul\":4102:4192   */\n    tag_199:\n        /* \"#utility.yul\":4136:4143   */\n      0x00\n        /* \"#utility.yul\":4179:4184   */\n      dup2\n        /* \"#utility.yul\":4172:4185   */\n      iszero\n        /* \"#utility.yul\":4165:4186   */\n      iszero\n        /* \"#utility.yul\":4154:4186   */\n      swap1\n      pop\n        /* \"#utility.yul\":4102:4192   */\n      swap2\n      swap1\n      pop\n      jump\t// out\n        /* \"#utility.yul\":4198:4307   */\n    tag_200:\n        /* \"#utility.yul\":4279:4300   */\n      tag_269\n        /* \"#utility.yul\":4294:4299   */\n      dup2\n        /* \"#utility.yul\":4279:4300   */\n      tag_199\n      jump\t// in\n    tag_269:\n        /* \"#utility.yul\":4274:4277   */\n      dup3\n        /* \"#utility.yul\":4267:4301   */\n      mstore\n        /* \"#utility.yul\":4198:4307   */\n      pop\n      pop\n      jump\t// out\n        /* \"#utility.yul\":4313:4523   */\n    tag_49:\n        /* \"#utility.yul\":4400:4404   */\n      0x00\n        /* \"#utility.yul\":4438:4440   */\n      0x20\n        /* \"#utility.yul\":4427:4436   */\n      dup3\n        /* \"#utility.yul\":4423:4441   */\n      add\n        /* \"#utility.yul\":4415:4441   */\n      swap1\n      pop\n        /* \"#utility.yul\":4451:4516   */\n      tag_271\n        /* \"#utility.yul\":4513:4514   */\n      0x00\n        /* \"#utility.yul\":4502:4511   */\n      dup4\n        /* \"#utility.yul\":4498:4515   */\n      add\n        /* \"#utility.yul\":4489:4495   */\n      dup5\n        /* \"#utility.yul\":4451:4516   */\n      tag_200\n      jump\t// in\n    tag_271:\n        /* \"#utility.yul\":4313:4523   */\n      swap3\n      swap2\n      pop\n      pop\n      jump\t// out\n        /* \"#utility.yul\":4610:4727   */\n    tag_202:\n        /* \"#utility.yul\":4719:4720   */\n      0x00\n        /* \"#utility.yul\":4716:4717   */\n      dup1\n        /* \"#utility.yul\":4709:4721   */\n      revert\n        /* \"#utility.yul\":4856:4978   */\n    tag_204:\n        /* \"#utility.yul\":4929:4953   */\n      tag_276\n        /* \"#utility.yul\":4947:4952   */\n      dup2\n        /* \"#utility.yul\":4929:4953   */\n      tag_191\n      jump\t// in\n    tag_276:\n        /* \"#utility.yul\":4922:4927   */\n      dup2\n        /* \"#utility.yul\":4919:4954   */\n      eq\n        /* \"#utility.yul\":4909:4972   */\n      tag_277\n      jumpi\n        /* \"#utility.yul\":4968:4969   */\n      0x00\n        /* \"#utility.yul\":4965:4966   */\n      dup1\n        /* \"#utility.yul\":4958:4970   */\n      revert\n        /* \"#utility.yul\":4909:4972   */\n    tag_277:\n        /* \"#utility.yul\":4856:4978   */\n      pop\n      jump\t// out\n        /* \"#utility.yul\":4984:5123   */\n    tag_205:\n        /* \"#utility.yul\":5030:5035   */\n      0x00\n        /* \"#utility.yul\":5068:5074   */\n      dup2\n        /* \"#utility.yul\":5055:5075   */\n      calldataload\n        /* \"#utility.yul\":5046:5075   */\n      swap1\n      pop\n        /* \"#utility.yul\":5084:5117   */\n      tag_279\n        /* \"#utility.yul\":5111:5116   */\n      dup2\n        /* \"#utility.yul\":5084:5117   */\n      tag_204\n      jump\t// in\n    tag_279:\n        /* \"#utility.yul\":4984:5123   */\n      swap3\n      swap2\n      pop\n      pop\n      jump\t// out\n        /* \"#utility.yul\":5129:5458   */\n    tag_61:\n        /* \"#utility.yul\":5188:5194   */\n      0x00\n        /* \"#utility.yul\":5237:5239   */\n      0x20\n        /* \"#utility.yul\":5225:5234   */\n      dup3\n        /* \"#utility.yul\":5216:5223   */\n      dup5\n        /* \"#utility.yul\":5212:5235   */\n      sub\n        /* \"#utility.yul\":5208:5240   */\n      slt\n        /* \"#utility.yul\":5205:5324   */\n      iszero\n      tag_281\n      jumpi\n        /* \"#utility.yul\":5243:5322   */\n      tag_282\n      tag_202\n      jump\t// in\n    tag_282:\n        /* \"#utility.yul\":5205:5324   */\n    tag_281:\n        /* \"#utility.yul\":5363:5364   */\n      0x00\n        /* \"#utility.yul\":5388:5441   */\n      tag_283\n        /* \"#utility.yul\":5433:5440   */\n      dup5\n        /* \"#utility.yul\":5424:5430   */\n      dup3\n        /* \"#utility.yul\":5413:5422   */\n      dup6\n        /* \"#utility.yul\":5409:5431   */\n      add\n        /* \"#utility.yul\":5388:5441   */\n      tag_205\n      jump\t// in\n    tag_283:\n        /* \"#utility.yul\":5378:5441   */\n      swap2\n      pop\n        /* \"#utility.yul\":5334:5451   */\n      pop\n        /* \"#utility.yul\":5129:5458   */\n      swap3\n      swap2\n      pop\n      pop\n      jump\t// out\n        /* \"#utility.yul\":5464:5796   */\n    tag_64:\n        /* \"#utility.yul\":5585:5589   */\n      0x00\n        /* \"#utility.yul\":5623:5625   */\n      0x40\n        /* \"#utility.yul\":5612:5621   */\n      dup3\n        /* \"#utility.yul\":5608:5626   */\n      add\n        /* \"#utility.yul\":5600:5626   */\n      swap1\n      pop\n        /* \"#utility.yul\":5636:5707   */\n      tag_285\n        /* \"#utility.yul\":5704:5705   */\n      0x00\n        /* \"#utility.yul\":5693:5702   */\n      dup4\n        /* \"#utility.yul\":5689:5706   */\n      add\n        /* \"#utility.yul\":5680:5686   */\n      dup6\n        /* \"#utility.yul\":5636:5707   */\n      tag_198\n      jump\t// in\n    tag_285:\n        /* \"#utility.yul\":5717:5789   */\n      tag_286\n        /* \"#utility.yul\":5785:5787   */\n      0x20\n        /* \"#utility.yul\":5774:5783   */\n      dup4\n        /* \"#utility.yul\":5770:5788   */\n      add\n        /* \"#utility.yul\":5761:5767   */\n      dup5\n        /* \"#utility.yul\":5717:5789   */\n      tag_197\n      jump\t// in\n    tag_286:\n        /* \"#utility.yul\":5464:5796   */\n      swap4\n      swap3\n      pop\n      pop\n      pop\n      jump\t// out\n        /* \"#utility.yul\":5802:5971   */\n    tag_206:\n        /* \"#utility.yul\":5886:5897   */\n      0x00\n        /* \"#utility.yul\":5920:5926   */\n      dup3\n        /* \"#utility.yul\":5915:5918   */\n      dup3\n        /* \"#utility.yul\":5908:5927   */\n      mstore\n        /* \"#utility.yul\":5960:5964   */\n      0x20\n        /* \"#utility.yul\":5955:5958   */\n      dup3\n        /* \"#utility.yul\":5951:5965   */\n      add\n        /* \"#utility.yul\":5936:5965   */\n      swap1\n      pop\n        /* \"#utility.yul\":5802:5971   */\n      swap3\n      swap2\n      pop\n      pop\n      jump\t// out\n        /* \"#utility.yul\":5977:6152   */\n    tag_207:\n        /* \"#utility.yul\":6117:6144   */\n      0x5468652061756374696f6e206973206e6f742061637469766500000000000000\n        /* \"#utility.yul\":6113:6114   */\n      0x00\n        /* \"#utility.yul\":6105:6111   */\n      dup3\n        /* \"#utility.yul\":6101:6115   */\n      add\n        /* \"#utility.yul\":6094:6145   */\n      mstore\n        /* \"#utility.yul\":5977:6152   */\n      pop\n      jump\t// out\n        /* \"#utility.yul\":6158:6524   */\n    tag_208:\n        /* \"#utility.yul\":6300:6303   */\n      0x00\n        /* \"#utility.yul\":6321:6388   */\n      tag_290\n        /* \"#utility.yul\":6385:6387   */\n      0x19\n        /* \"#utility.yul\":6380:6383   */\n      dup4\n        /* \"#utility.yul\":6321:6388   */\n      tag_206\n      jump\t// in\n    tag_290:\n        /* \"#utility.yul\":6314:6388   */\n      swap2\n      pop\n        /* \"#utility.yul\":6397:6490   */\n      tag_291\n        /* \"#utility.yul\":6486:6489   */\n      dup3\n        /* \"#utility.yul\":6397:6490   */\n      tag_207\n      jump\t// in\n    tag_291:\n        /* \"#utility.yul\":6515:6517   */\n      0x20\n        /* \"#utility.yul\":6510:6513   */\n      dup3\n        /* \"#utility.yul\":6506:6518   */\n      add\n        /* \"#utility.yul\":6499:6518   */\n      swap1\n      pop\n        /* \"#utility.yul\":6158:6524   */\n      swap2\n      swap1\n      pop\n      jump\t// out\n        /* \"#utility.yul\":6530:6949   */\n    tag_78:\n        /* \"#utility.yul\":6696:6700   */\n      0x00\n        /* \"#utility.yul\":6734:6736   */\n      0x20\n        /* \"#utility.yul\":6723:6732   */\n      dup3\n        /* \"#utility.yul\":6719:6737   */\n      add\n        /* \"#utility.yul\":6711:6737   */\n      swap1\n      pop\n        /* \"#utility.yul\":6783:6792   */\n      dup2\n        /* \"#utility.yul\":6777:6781   */\n      dup2\n        /* \"#utility.yul\":6773:6793   */\n      sub\n        /* \"#utility.yul\":6769:6770   */\n      0x00\n        /* \"#utility.yul\":6758:6767   */\n      dup4\n        /* \"#utility.yul\":6754:6771   */\n      add\n        /* \"#utility.yul\":6747:6794   */\n      mstore\n        /* \"#utility.yul\":6811:6942   */\n      tag_293\n        /* \"#utility.yul\":6937:6941   */\n      dup2\n        /* \"#utility.yul\":6811:6942   */\n      tag_208\n      jump\t// in\n    tag_293:\n        /* \"#utility.yul\":6803:6942   */\n      swap1\n      pop\n        /* \"#utility.yul\":6530:6949   */\n      swap2\n      swap1\n      pop\n      jump\t// out\n        /* \"#utility.yul\":6955:7135   */\n    tag_209:\n        /* \"#utility.yul\":7003:7080   */\n      0x4e487b7100000000000000000000000000000000000000000000000000000000\n        /* \"#utility.yul\":7000:7001   */\n      0x00\n        /* \"#utility.yul\":6993:7081   */\n      mstore\n        /* \"#utility.yul\":7100:7104   */\n      0x11\n        /* \"#utility.yul\":7097:7098   */\n      0x04\n        /* \"#utility.yul\":7090:7105   */\n      mstore\n        /* \"#utility.yul\":7124:7128   */\n      0x24\n        /* \"#utility.yul\":7121:7122   */\n      0x00\n        /* \"#utility.yul\":7114:7129   */\n      revert\n        /* \"#utility.yul\":7141:7551   */\n    tag_82:\n        /* \"#utility.yul\":7181:7188   */\n      0x00\n        /* \"#utility.yul\":7204:7224   */\n      tag_296\n        /* \"#utility.yul\":7222:7223   */\n      dup3\n        /* \"#utility.yul\":7204:7224   */\n      tag_191\n      jump\t// in\n    tag_296:\n        /* \"#utility.yul\":7199:7224   */\n      swap2\n      pop\n        /* \"#utility.yul\":7238:7258   */\n      tag_297\n        /* \"#utility.yul\":7256:7257   */\n      dup4\n        /* \"#utility.yul\":7238:7258   */\n      tag_191\n      jump\t// in\n    tag_297:\n        /* \"#utility.yul\":7233:7258   */\n      swap3\n      pop\n        /* \"#utility.yul\":7293:7294   */\n      dup3\n        /* \"#utility.yul\":7290:7291   */\n      dup3\n        /* \"#utility.yul\":7286:7295   */\n      mul\n        /* \"#utility.yul\":7315:7345   */\n      tag_298\n        /* \"#utility.yul\":7333:7344   */\n      dup2\n        /* \"#utility.yul\":7315:7345   */\n      tag_191\n      jump\t// in\n    tag_298:\n        /* \"#utility.yul\":7304:7345   */\n      swap2\n      pop\n        /* \"#utility.yul\":7494:7495   */\n      dup3\n        /* \"#utility.yul\":7485:7492   */\n      dup3\n        /* \"#utility.yul\":7481:7496   */\n      div\n        /* \"#utility.yul\":7478:7479   */\n      dup5\n        /* \"#utility.yul\":7475:7497   */\n      eq\n        /* \"#utility.yul\":7455:7456   */\n      dup4\n        /* \"#utility.yul\":7448:7457   */\n      iszero\n        /* \"#utility.yul\":7428:7511   */\n      or\n        /* \"#utility.yul\":7405:7544   */\n      tag_299\n      jumpi\n        /* \"#utility.yul\":7524:7542   */\n      tag_300\n      tag_209\n      jump\t// in\n    tag_300:\n        /* \"#utility.yul\":7405:7544   */\n    tag_299:\n        /* \"#utility.yul\":7189:7551   */\n      pop\n        /* \"#utility.yul\":7141:7551   */\n      swap3\n      swap2\n      pop\n      pop\n      jump\t// out\n        /* \"#utility.yul\":7557:7737   */\n    tag_210:\n        /* \"#utility.yul\":7605:7682   */\n      0x4e487b7100000000000000000000000000000000000000000000000000000000\n        /* \"#utility.yul\":7602:7603   */\n      0x00\n        /* \"#utility.yul\":7595:7683   */\n      mstore\n        /* \"#utility.yul\":7702:7706   */\n      0x12\n        /* \"#utility.yul\":7699:7700   */\n      0x04\n        /* \"#utility.yul\":7692:7707   */\n      mstore\n        /* \"#utility.yul\":7726:7730   */\n      0x24\n        /* \"#utility.yul\":7723:7724   */\n      0x00\n        /* \"#utility.yul\":7716:7731   */\n      revert\n        /* \"#utility.yul\":7743:7928   */\n    tag_84:\n        /* \"#utility.yul\":7783:7784   */\n      0x00\n        /* \"#utility.yul\":7800:7820   */\n      tag_303\n        /* \"#utility.yul\":7818:7819   */\n      dup3\n        /* \"#utility.yul\":7800:7820   */\n      tag_191\n      jump\t// in\n    tag_303:\n        /* \"#utility.yul\":7795:7820   */\n      swap2\n      pop\n        /* \"#utility.yul\":7834:7854   */\n      tag_304\n        /* \"#utility.yul\":7852:7853   */\n      dup4\n        /* \"#utility.yul\":7834:7854   */\n      tag_191\n      jump\t// in\n    tag_304:\n        /* \"#utility.yul\":7829:7854   */\n      swap3\n      pop\n        /* \"#utility.yul\":7873:7874   */\n      dup3\n        /* \"#utility.yul\":7863:7898   */\n      tag_305\n      jumpi\n        /* \"#utility.yul\":7878:7896   */\n      tag_306\n      tag_210\n      jump\t// in\n    tag_306:\n        /* \"#utility.yul\":7863:7898   */\n    tag_305:\n        /* \"#utility.yul\":7920:7921   */\n      dup3\n        /* \"#utility.yul\":7917:7918   */\n      dup3\n        /* \"#utility.yul\":7913:7922   */\n      div\n        /* \"#utility.yul\":7908:7922   */\n      swap1\n      pop\n        /* \"#utility.yul\":7743:7928   */\n      swap3\n      swap2\n      pop\n      pop\n      jump\t// out\n        /* \"#utility.yul\":7934:8176   */\n    tag_211:\n        /* \"#utility.yul\":8074:8108   */\n      0x54686520626964206d757374206265206174206c656173742035252068696768\n        /* \"#utility.yul\":8070:8071   */\n      0x00\n        /* \"#utility.yul\":8062:8068   */\n      dup3\n        /* \"#utility.yul\":8058:8072   */\n      add\n        /* \"#utility.yul\":8051:8109   */\n      mstore\n        /* \"#utility.yul\":8143:8168   */\n      0x6572207468616e207468652063757272656e7420626964000000000000000000\n        /* \"#utility.yul\":8138:8140   */\n      0x20\n        /* \"#utility.yul\":8130:8136   */\n      dup3\n        /* \"#utility.yul\":8126:8141   */\n      add\n        /* \"#utility.yul\":8119:8169   */\n      mstore\n        /* \"#utility.yul\":7934:8176   */\n      pop\n      jump\t// out\n        /* \"#utility.yul\":8182:8548   */\n    tag_212:\n        /* \"#utility.yul\":8324:8327   */\n      0x00\n        /* \"#utility.yul\":8345:8412   */\n      tag_309\n        /* \"#utility.yul\":8409:8411   */\n      0x37\n        /* \"#utility.yul\":8404:8407   */\n      dup4\n        /* \"#utility.yul\":8345:8412   */\n      tag_206\n      jump\t// in\n    tag_309:\n        /* \"#utility.yul\":8338:8412   */\n      swap2\n      pop\n        /* \"#utility.yul\":8421:8514   */\n      tag_310\n        /* \"#utility.yul\":8510:8513   */\n      dup3\n        /* \"#utility.yul\":8421:8514   */\n      tag_211\n      jump\t// in\n    tag_310:\n        /* \"#utility.yul\":8539:8541   */\n      0x40\n        /* \"#utility.yul\":8534:8537   */\n      dup3\n        /* \"#utility.yul\":8530:8542   */\n      add\n        /* \"#utility.yul\":8523:8542   */\n      swap1\n      pop\n        /* \"#utility.yul\":8182:8548   */\n      swap2\n      swap1\n      pop\n      jump\t// out\n        /* \"#utility.yul\":8554:8973   */\n    tag_87:\n        /* \"#utility.yul\":8720:8724   */\n      0x00\n        /* \"#utility.yul\":8758:8760   */\n      0x20\n        /* \"#utility.yul\":8747:8756   */\n      dup3\n        /* \"#utility.yul\":8743:8761   */\n      add\n        /* \"#utility.yul\":8735:8761   */\n      swap1\n      pop\n        /* \"#utility.yul\":8807:8816   */\n      dup2\n        /* \"#utility.yul\":8801:8805   */\n      dup2\n        /* \"#utility.yul\":8797:8817   */\n      sub\n        /* \"#utility.yul\":8793:8794   */\n      0x00\n        /* \"#utility.yul\":8782:8791   */\n      dup4\n        /* \"#utility.yul\":8778:8795   */\n      add\n        /* \"#utility.yul\":8771:8818   */\n      mstore\n        /* \"#utility.yul\":8835:8966   */\n      tag_312\n        /* \"#utility.yul\":8961:8965   */\n      dup2\n        /* \"#utility.yul\":8835:8966   */\n      tag_212\n      jump\t// in\n    tag_312:\n        /* \"#utility.yul\":8827:8966   */\n      swap1\n      pop\n        /* \"#utility.yul\":8554:8973   */\n      swap2\n      swap1\n      pop\n      jump\t// out\n        /* \"#utility.yul\":8979:9150   */\n    tag_213:\n        /* \"#utility.yul\":9119:9142   */\n      0x5468652061756374696f6e2068617320656e6465640000000000000000000000\n        /* \"#utility.yul\":9115:9116   */\n      0x00\n        /* \"#utility.yul\":9107:9113   */\n      dup3\n        /* \"#utility.yul\":9103:9117   */\n      add\n        /* \"#utility.yul\":9096:9143   */\n      mstore\n        /* \"#utility.yul\":8979:9150   */\n      pop\n      jump\t// out\n        /* \"#utility.yul\":9156:9522   */\n    tag_214:\n        /* \"#utility.yul\":9298:9301   */\n      0x00\n        /* \"#utility.yul\":9319:9386   */\n      tag_315\n        /* \"#utility.yul\":9383:9385   */\n      0x15\n        /* \"#utility.yul\":9378:9381   */\n      dup4\n        /* \"#utility.yul\":9319:9386   */\n      tag_206\n      jump\t// in\n    tag_315:\n        /* \"#utility.yul\":9312:9386   */\n      swap2\n      pop\n        /* \"#utility.yul\":9395:9488   */\n      tag_316\n        /* \"#utility.yul\":9484:9487   */\n      dup3\n        /* \"#utility.yul\":9395:9488   */\n      tag_213\n      jump\t// in\n    tag_316:\n        /* \"#utility.yul\":9513:9515   */\n      0x20\n        /* \"#utility.yul\":9508:9511   */\n      dup3\n        /* \"#utility.yul\":9504:9516   */\n      add\n        /* \"#utility.yul\":9497:9516   */\n      swap1\n      pop\n        /* \"#utility.yul\":9156:9522   */\n      swap2\n      swap1\n      pop\n      jump\t// out\n        /* \"#utility.yul\":9528:9947   */\n    tag_90:\n        /* \"#utility.yul\":9694:9698   */\n      0x00\n        /* \"#utility.yul\":9732:9734   */\n      0x20\n        /* \"#utility.yul\":9721:9730   */\n      dup3\n        /* \"#utility.yul\":9717:9735   */\n      add\n        /* \"#utility.yul\":9709:9735   */\n      swap1\n      pop\n        /* \"#utility.yul\":9781:9790   */\n      dup2\n        /* \"#utility.yul\":9775:9779   */\n      dup2\n        /* \"#utility.yul\":9771:9791   */\n      sub\n        /* \"#utility.yul\":9767:9768   */\n      0x00\n        /* \"#utility.yul\":9756:9765   */\n      dup4\n        /* \"#utility.yul\":9752:9769   */\n      add\n        /* \"#utility.yul\":9745:9792   */\n      mstore\n        /* \"#utility.yul\":9809:9940   */\n      tag_318\n        /* \"#utility.yul\":9935:9939   */\n      dup2\n        /* \"#utility.yul\":9809:9940   */\n      tag_214\n      jump\t// in\n    tag_318:\n        /* \"#utility.yul\":9801:9940   */\n      swap1\n      pop\n        /* \"#utility.yul\":9528:9947   */\n      swap2\n      swap1\n      pop\n      jump\t// out\n        /* \"#utility.yul\":9953:10144   */\n    tag_92:\n        /* \"#utility.yul\":9993:9996   */\n      0x00\n        /* \"#utility.yul\":10012:10032   */\n      tag_320\n        /* \"#utility.yul\":10030:10031   */\n      dup3\n        /* \"#utility.yul\":10012:10032   */\n      tag_191\n      jump\t// in\n    tag_320:\n        /* \"#utility.yul\":10007:10032   */\n      swap2\n      pop\n        /* \"#utility.yul\":10046:10066   */\n      tag_321\n        /* \"#utility.yul\":10064:10065   */\n      dup4\n        /* \"#utility.yul\":10046:10066   */\n      tag_191\n      jump\t// in\n    tag_321:\n        /* \"#utility.yul\":10041:10066   */\n      swap3\n      pop\n        /* \"#utility.yul\":10089:10090   */\n      dup3\n        /* \"#utility.yul\":10086:10087   */\n      dup3\n        /* \"#utility.yul\":10082:10091   */\n      add\n        /* \"#utility.yul\":10075:10091   */\n      swap1\n      pop\n        /* \"#utility.yul\":10110:10113   */\n      dup1\n        /* \"#utility.yul\":10107:10108   */\n      dup3\n        /* \"#utility.yul\":10104:10114   */\n      gt\n        /* \"#utility.yul\":10101:10137   */\n      iszero\n      tag_322\n      jumpi\n        /* \"#utility.yul\":10117:10135   */\n      tag_323\n      tag_209\n      jump\t// in\n    tag_323:\n        /* \"#utility.yul\":10101:10137   */\n    tag_322:\n        /* \"#utility.yul\":9953:10144   */\n      swap3\n      swap2\n      pop\n      pop\n      jump\t// out\n        /* \"#utility.yul\":10150:10382   */\n    tag_215:\n        /* \"#utility.yul\":10290:10324   */\n      0x4f6e6c79207468652061756374696f6e6565722063616e206578656375746520\n        /* \"#utility.yul\":10286:10287   */\n      0x00\n        /* \"#utility.yul\":10278:10284   */\n      dup3\n        /* \"#utility.yul\":10274:10288   */\n      add\n        /* \"#utility.yul\":10267:10325   */\n      mstore\n        /* \"#utility.yul\":10359:10374   */\n      0x746869732066756e6374696f6e00000000000000000000000000000000000000\n        /* \"#utility.yul\":10354:10356   */\n      0x20\n        /* \"#utility.yul\":10346:10352   */\n      dup3\n        /* \"#utility.yul\":10342:10357   */\n      add\n        /* \"#utility.yul\":10335:10375   */\n      mstore\n        /* \"#utility.yul\":10150:10382   */\n      pop\n      jump\t// out\n        /* \"#utility.yul\":10388:10754   */\n    tag_216:\n        /* \"#utility.yul\":10530:10533   */\n      0x00\n        /* \"#utility.yul\":10551:10618   */\n      tag_326\n        /* \"#utility.yul\":10615:10617   */\n      0x2d\n        /* \"#utility.yul\":10610:10613   */\n      dup4\n        /* \"#utility.yul\":10551:10618   */\n      tag_206\n      jump\t// in\n    tag_326:\n        /* \"#utility.yul\":10544:10618   */\n      swap2\n      pop\n        /* \"#utility.yul\":10627:10720   */\n      tag_327\n        /* \"#utility.yul\":10716:10719   */\n      dup3\n        /* \"#utility.yul\":10627:10720   */\n      tag_215\n      jump\t// in\n    tag_327:\n        /* \"#utility.yul\":10745:10747   */\n      0x40\n        /* \"#utility.yul\":10740:10743   */\n      dup3\n        /* \"#utility.yul\":10736:10748   */\n      add\n        /* \"#utility.yul\":10729:10748   */\n      swap1\n      pop\n        /* \"#utility.yul\":10388:10754   */\n      swap2\n      swap1\n      pop\n      jump\t// out\n        /* \"#utility.yul\":10760:11179   */\n    tag_98:\n        /* \"#utility.yul\":10926:10930   */\n      0x00\n        /* \"#utility.yul\":10964:10966   */\n      0x20\n        /* \"#utility.yul\":10953:10962   */\n      dup3\n        /* \"#utility.yul\":10949:10967   */\n      add\n        /* \"#utility.yul\":10941:10967   */\n      swap1\n      pop\n        /* \"#utility.yul\":11013:11022   */\n      dup2\n        /* \"#utility.yul\":11007:11011   */\n      dup2\n        /* \"#utility.yul\":11003:11023   */\n      sub\n        /* \"#utility.yul\":10999:11000   */\n      0x00\n        /* \"#utility.yul\":10988:10997   */\n      dup4\n        /* \"#utility.yul\":10984:11001   */\n      add\n        /* \"#utility.yul\":10977:11024   */\n      mstore\n        /* \"#utility.yul\":11041:11172   */\n      tag_329\n        /* \"#utility.yul\":11167:11171   */\n      dup2\n        /* \"#utility.yul\":11041:11172   */\n      tag_216\n      jump\t// in\n    tag_329:\n        /* \"#utility.yul\":11033:11172   */\n      swap1\n      pop\n        /* \"#utility.yul\":10760:11179   */\n      swap2\n      swap1\n      pop\n      jump\t// out\n        /* \"#utility.yul\":11185:11362   */\n    tag_217:\n        /* \"#utility.yul\":11325:11354   */\n      0x5468652061756374696f6e206973207374696c6c206163746976650000000000\n        /* \"#utility.yul\":11321:11322   */\n      0x00\n        /* \"#utility.yul\":11313:11319   */\n      dup3\n        /* \"#utility.yul\":11309:11323   */\n      add\n        /* \"#utility.yul\":11302:11355   */\n      mstore\n        /* \"#utility.yul\":11185:11362   */\n      pop\n      jump\t// out\n        /* \"#utility.yul\":11368:11734   */\n    tag_218:\n        /* \"#utility.yul\":11510:11513   */\n      0x00\n        /* \"#utility.yul\":11531:11598   */\n      tag_332\n        /* \"#utility.yul\":11595:11597   */\n      0x1b\n        /* \"#utility.yul\":11590:11593   */\n      dup4\n        /* \"#utility.yul\":11531:11598   */\n      tag_206\n      jump\t// in\n    tag_332:\n        /* \"#utility.yul\":11524:11598   */\n      swap2\n      pop\n        /* \"#utility.yul\":11607:11700   */\n      tag_333\n        /* \"#utility.yul\":11696:11699   */\n      dup3\n        /* \"#utility.yul\":11607:11700   */\n      tag_217\n      jump\t// in\n    tag_333:\n        /* \"#utility.yul\":11725:11727   */\n      0x20\n        /* \"#utility.yul\":11720:11723   */\n      dup3\n        /* \"#utility.yul\":11716:11728   */\n      add\n        /* \"#utility.yul\":11709:11728   */\n      swap1\n      pop\n        /* \"#utility.yul\":11368:11734   */\n      swap2\n      swap1\n      pop\n      jump\t// out\n        /* \"#utility.yul\":11740:12159   */\n    tag_102:\n        /* \"#utility.yul\":11906:11910   */\n      0x00\n        /* \"#utility.yul\":11944:11946   */\n      0x20\n        /* \"#utility.yul\":11933:11942   */\n      dup3\n        /* \"#utility.yul\":11929:11947   */\n      add\n        /* \"#utility.yul\":11921:11947   */\n      swap1\n      pop\n        /* \"#utility.yul\":11993:12002   */\n      dup2\n        /* \"#utility.yul\":11987:11991   */\n      dup2\n        /* \"#utility.yul\":11983:12003   */\n      sub\n        /* \"#utility.yul\":11979:11980   */\n      0x00\n        /* \"#utility.yul\":11968:11977   */\n      dup4\n        /* \"#utility.yul\":11964:11981   */\n      add\n        /* \"#utility.yul\":11957:12004   */\n      mstore\n        /* \"#utility.yul\":12021:12152   */\n      tag_335\n        /* \"#utility.yul\":12147:12151   */\n      dup2\n        /* \"#utility.yul\":12021:12152   */\n      tag_218\n      jump\t// in\n    tag_335:\n        /* \"#utility.yul\":12013:12152   */\n      swap1\n      pop\n        /* \"#utility.yul\":11740:12159   */\n      swap2\n      swap1\n      pop\n      jump\t// out\n        /* \"#utility.yul\":12165:12359   */\n    tag_104:\n        /* \"#utility.yul\":12205:12209   */\n      0x00\n        /* \"#utility.yul\":12225:12245   */\n      tag_337\n        /* \"#utility.yul\":12243:12244   */\n      dup3\n        /* \"#utility.yul\":12225:12245   */\n      tag_191\n      jump\t// in\n    tag_337:\n        /* \"#utility.yul\":12220:12245   */\n      swap2\n      pop\n        /* \"#utility.yul\":12259:12279   */\n      tag_338\n        /* \"#utility.yul\":12277:12278   */\n      dup4\n        /* \"#utility.yul\":12259:12279   */\n      tag_191\n      jump\t// in\n    tag_338:\n        /* \"#utility.yul\":12254:12279   */\n      swap3\n      pop\n        /* \"#utility.yul\":12303:12304   */\n      dup3\n        /* \"#utility.yul\":12300:12301   */\n      dup3\n        /* \"#utility.yul\":12296:12305   */\n      sub\n        /* \"#utility.yul\":12288:12305   */\n      swap1\n      pop\n        /* \"#utility.yul\":12327:12328   */\n      dup2\n        /* \"#utility.yul\":12321:12325   */\n      dup2\n        /* \"#utility.yul\":12318:12329   */\n      gt\n        /* \"#utility.yul\":12315:12352   */\n      iszero\n      tag_339\n      jumpi\n        /* \"#utility.yul\":12332:12350   */\n      tag_340\n      tag_209\n      jump\t// in\n    tag_340:\n        /* \"#utility.yul\":12315:12352   */\n    tag_339:\n        /* \"#utility.yul\":12165:12359   */\n      swap3\n      swap2\n      pop\n      pop\n      jump\t// out\n        /* \"#utility.yul\":12365:12545   */\n    tag_107:\n        /* \"#utility.yul\":12413:12490   */\n      0x4e487b7100000000000000000000000000000000000000000000000000000000\n        /* \"#utility.yul\":12410:12411   */\n      0x00\n        /* \"#utility.yul\":12403:12491   */\n      mstore\n        /* \"#utility.yul\":12510:12514   */\n      0x32\n        /* \"#utility.yul\":12507:12508   */\n      0x04\n        /* \"#utility.yul\":12500:12515   */\n      mstore\n        /* \"#utility.yul\":12534:12538   */\n      0x24\n        /* \"#utility.yul\":12531:12532   */\n      0x00\n        /* \"#utility.yul\":12524:12539   */\n      revert\n        /* \"#utility.yul\":12551:12698   */\n    tag_219:\n        /* \"#utility.yul\":12652:12663   */\n      0x00\n        /* \"#utility.yul\":12689:12692   */\n      dup2\n        /* \"#utility.yul\":12674:12692   */\n      swap1\n      pop\n        /* \"#utility.yul\":12551:12698   */\n      swap3\n      swap2\n      pop\n      pop\n      jump\t// out\n        /* \"#utility.yul\":12704:12818   */\n    tag_220:\n      pop\n      jump\t// out\n        /* \"#utility.yul\":12824:13222   */\n    tag_221:\n        /* \"#utility.yul\":12983:12986   */\n      0x00\n        /* \"#utility.yul\":13004:13087   */\n      tag_345\n        /* \"#utility.yul\":13085:13086   */\n      0x00\n        /* \"#utility.yul\":13080:13083   */\n      dup4\n        /* \"#utility.yul\":13004:13087   */\n      tag_219\n      jump\t// in\n    tag_345:\n        /* \"#utility.yul\":12997:13087   */\n      swap2\n      pop\n        /* \"#utility.yul\":13096:13189   */\n      tag_346\n        /* \"#utility.yul\":13185:13188   */\n      dup3\n        /* \"#utility.yul\":13096:13189   */\n      tag_220\n      jump\t// in\n    tag_346:\n        /* \"#utility.yul\":13214:13215   */\n      0x00\n        /* \"#utility.yul\":13209:13212   */\n      dup3\n        /* \"#utility.yul\":13205:13216   */\n      add\n        /* \"#utility.yul\":13198:13216   */\n      swap1\n      pop\n        /* \"#utility.yul\":12824:13222   */\n      swap2\n      swap1\n      pop\n      jump\t// out\n        /* \"#utility.yul\":13228:13607   */\n    tag_124:\n        /* \"#utility.yul\":13412:13415   */\n      0x00\n        /* \"#utility.yul\":13434:13581   */\n      tag_348\n        /* \"#utility.yul\":13577:13580   */\n      dup3\n        /* \"#utility.yul\":13434:13581   */\n      tag_221\n      jump\t// in\n    tag_348:\n        /* \"#utility.yul\":13427:13581   */\n      swap2\n      pop\n        /* \"#utility.yul\":13598:13601   */\n      dup2\n        /* \"#utility.yul\":13591:13601   */\n      swap1\n      pop\n        /* \"#utility.yul\":13228:13607   */\n      swap2\n      swap1\n      pop\n      jump\t// out\n        /* \"#utility.yul\":13613:13786   */\n    tag_222:\n        /* \"#utility.yul\":13753:13778   */\n      0x526566756e6420746f20626964646572206661696c6564000000000000000000\n        /* \"#utility.yul\":13749:13750   */\n      0x00\n        /* \"#utility.yul\":13741:13747   */\n      dup3\n        /* \"#utility.yul\":13737:13751   */\n      add\n        /* \"#utility.yul\":13730:13779   */\n      mstore\n        /* \"#utility.yul\":13613:13786   */\n      pop\n      jump\t// out\n        /* \"#utility.yul\":13792:14158   */\n    tag_223:\n        /* \"#utility.yul\":13934:13937   */\n      0x00\n        /* \"#utility.yul\":13955:14022   */\n      tag_351\n        /* \"#utility.yul\":14019:14021   */\n      0x17\n        /* \"#utility.yul\":14014:14017   */\n      dup4\n        /* \"#utility.yul\":13955:14022   */\n      tag_206\n      jump\t// in\n    tag_351:\n        /* \"#utility.yul\":13948:14022   */\n      swap2\n      pop\n        /* \"#utility.yul\":14031:14124   */\n      tag_352\n        /* \"#utility.yul\":14120:14123   */\n      dup3\n        /* \"#utility.yul\":14031:14124   */\n      tag_222\n      jump\t// in\n    tag_352:\n        /* \"#utility.yul\":14149:14151   */\n      0x20\n        /* \"#utility.yul\":14144:14147   */\n      dup3\n        /* \"#utility.yul\":14140:14152   */\n      add\n        /* \"#utility.yul\":14133:14152   */\n      swap1\n      pop\n        /* \"#utility.yul\":13792:14158   */\n      swap2\n      swap1\n      pop\n      jump\t// out\n        /* \"#utility.yul\":14164:14583   */\n    tag_130:\n        /* \"#utility.yul\":14330:14334   */\n      0x00\n        /* \"#utility.yul\":14368:14370   */\n      0x20\n        /* \"#utility.yul\":14357:14366   */\n      dup3\n        /* \"#utility.yul\":14353:14371   */\n      add\n        /* \"#utility.yul\":14345:14371   */\n      swap1\n      pop\n        /* \"#utility.yul\":14417:14426   */\n      dup2\n        /* \"#utility.yul\":14411:14415   */\n      dup2\n        /* \"#utility.yul\":14407:14427   */\n      sub\n        /* \"#utility.yul\":14403:14404   */\n      0x00\n        /* \"#utility.yul\":14392:14401   */\n      dup4\n        /* \"#utility.yul\":14388:14405   */\n      add\n        /* \"#utility.yul\":14381:14428   */\n      mstore\n        /* \"#utility.yul\":14445:14576   */\n      tag_354\n        /* \"#utility.yul\":14571:14575   */\n      dup2\n        /* \"#utility.yul\":14445:14576   */\n      tag_223\n      jump\t// in\n    tag_354:\n        /* \"#utility.yul\":14437:14576   */\n      swap1\n      pop\n        /* \"#utility.yul\":14164:14583   */\n      swap2\n      swap1\n      pop\n      jump\t// out\n        /* \"#utility.yul\":14589:14767   */\n    tag_224:\n        /* \"#utility.yul\":14729:14759   */\n      0x5468657265206973206e6f7468696e6720746f20776974686472617700000000\n        /* \"#utility.yul\":14725:14726   */\n      0x00\n        /* \"#utility.yul\":14717:14723   */\n      dup3\n        /* \"#utility.yul\":14713:14727   */\n      add\n        /* \"#utility.yul\":14706:14760   */\n      mstore\n        /* \"#utility.yul\":14589:14767   */\n      pop\n      jump\t// out\n        /* \"#utility.yul\":14773:15139   */\n    tag_225:\n        /* \"#utility.yul\":14915:14918   */\n      0x00\n        /* \"#utility.yul\":14936:15003   */\n      tag_357\n        /* \"#utility.yul\":15000:15002   */\n      0x1c\n        /* \"#utility.yul\":14995:14998   */\n      dup4\n        /* \"#utility.yul\":14936:15003   */\n      tag_206\n      jump\t// in\n    tag_357:\n        /* \"#utility.yul\":14929:15003   */\n      swap2\n      pop\n        /* \"#utility.yul\":15012:15105   */\n      tag_358\n        /* \"#utility.yul\":15101:15104   */\n      dup3\n        /* \"#utility.yul\":15012:15105   */\n      tag_224\n      jump\t// in\n    tag_358:\n        /* \"#utility.yul\":15130:15132   */\n      0x20\n        /* \"#utility.yul\":15125:15128   */\n      dup3\n        /* \"#utility.yul\":15121:15133   */\n      add\n        /* \"#utility.yul\":15114:15133   */\n      swap1\n      pop\n        /* \"#utility.yul\":14773:15139   */\n      swap2\n      swap1\n      pop\n      jump\t// out\n        /* \"#utility.yul\":15145:15564   */\n    tag_159:\n        /* \"#utility.yul\":15311:15315   */\n      0x00\n        /* \"#utility.yul\":15349:15351   */\n      0x20\n        /* \"#utility.yul\":15338:15347   */\n      dup3\n        /* \"#utility.yul\":15334:15352   */\n      add\n        /* \"#utility.yul\":15326:15352   */\n      swap1\n      pop\n        /* \"#utility.yul\":15398:15407   */\n      dup2\n        /* \"#utility.yul\":15392:15396   */\n      dup2\n        /* \"#utility.yul\":15388:15408   */\n      sub\n        /* \"#utility.yul\":15384:15385   */\n      0x00\n        /* \"#utility.yul\":15373:15382   */\n      dup4\n        /* \"#utility.yul\":15369:15386   */\n      add\n        /* \"#utility.yul\":15362:15409   */\n      mstore\n        /* \"#utility.yul\":15426:15557   */\n      tag_360\n        /* \"#utility.yul\":15552:15556   */\n      dup2\n        /* \"#utility.yul\":15426:15557   */\n      tag_225\n      jump\t// in\n    tag_360:\n        /* \"#utility.yul\":15418:15557   */\n      swap1\n      pop\n        /* \"#utility.yul\":15145:15564   */\n      swap2\n      swap1\n      pop\n      jump\t// out\n        /* \"#utility.yul\":15570:15745   */\n    tag_226:\n        /* \"#utility.yul\":15710:15737   */\n      0x5468652061756374696f6e20686173206e6f7420656e64656400000000000000\n        /* \"#utility.yul\":15706:15707   */\n      0x00\n        /* \"#utility.yul\":15698:15704   */\n      dup3\n        /* \"#utility.yul\":15694:15708   */\n      add\n        /* \"#utility.yul\":15687:15738   */\n      mstore\n        /* \"#utility.yul\":15570:15745   */\n      pop\n      jump\t// out\n        /* \"#utility.yul\":15751:16117   */\n    tag_227:\n        /* \"#utility.yul\":15893:15896   */\n      0x00\n        /* \"#utility.yul\":15914:15981   */\n      tag_363\n        /* \"#utility.yul\":15978:15980   */\n      0x19\n        /* \"#utility.yul\":15973:15976   */\n      dup4\n        /* \"#utility.yul\":15914:15981   */\n      tag_206\n      jump\t// in\n    tag_363:\n        /* \"#utility.yul\":15907:15981   */\n      swap2\n      pop\n        /* \"#utility.yul\":15990:16083   */\n      tag_364\n        /* \"#utility.yul\":16079:16082   */\n      dup3\n        /* \"#utility.yul\":15990:16083   */\n      tag_226\n      jump\t// in\n    tag_364:\n        /* \"#utility.yul\":16108:16110   */\n      0x20\n        /* \"#utility.yul\":16103:16106   */\n      dup3\n        /* \"#utility.yul\":16099:16111   */\n      add\n        /* \"#utility.yul\":16092:16111   */\n      swap1\n      pop\n        /* \"#utility.yul\":15751:16117   */\n      swap2\n      swap1\n      pop\n      jump\t// out\n        /* \"#utility.yul\":16123:16542   */\n    tag_168:\n        /* \"#utility.yul\":16289:16293   */\n      0x00\n        /* \"#utility.yul\":16327:16329   */\n      0x20\n        /* \"#utility.yul\":16316:16325   */\n      dup3\n        /* \"#utility.yul\":16312:16330   */\n      add\n        /* \"#utility.yul\":16304:16330   */\n      swap1\n      pop\n        /* \"#utility.yul\":16376:16385   */\n      dup2\n        /* \"#utility.yul\":16370:16374   */\n      dup2\n        /* \"#utility.yul\":16366:16386   */\n      sub\n        /* \"#utility.yul\":16362:16363   */\n      0x00\n        /* \"#utility.yul\":16351:16360   */\n      dup4\n        /* \"#utility.yul\":16347:16364   */\n      add\n        /* \"#utility.yul\":16340:16387   */\n      mstore\n        /* \"#utility.yul\":16404:16535   */\n      tag_366\n        /* \"#utility.yul\":16530:16534   */\n      dup2\n        /* \"#utility.yul\":16404:16535   */\n      tag_227\n      jump\t// in\n    tag_366:\n        /* \"#utility.yul\":16396:16535   */\n      swap1\n      pop\n        /* \"#utility.yul\":16123:16542   */\n      swap2\n      swap1\n      pop\n      jump\t// out\n        /* \"#utility.yul\":16548:16727   */\n    tag_228:\n        /* \"#utility.yul\":16688:16719   */\n      0x5472616e7366657220746f2061756374696f6e656572206661696c6564000000\n        /* \"#utility.yul\":16684:16685   */\n      0x00\n        /* \"#utility.yul\":16676:16682   */\n      dup3\n        /* \"#utility.yul\":16672:16686   */\n      add\n        /* \"#utility.yul\":16665:16720   */\n      mstore\n        /* \"#utility.yul\":16548:16727   */\n      pop\n      jump\t// out\n        /* \"#utility.yul\":16733:17099   */\n    tag_229:\n        /* \"#utility.yul\":16875:16878   */\n      0x00\n        /* \"#utility.yul\":16896:16963   */\n      tag_369\n        /* \"#utility.yul\":16960:16962   */\n      0x1d\n        /* \"#utility.yul\":16955:16958   */\n      dup4\n        /* \"#utility.yul\":16896:16963   */\n      tag_206\n      jump\t// in\n    tag_369:\n        /* \"#utility.yul\":16889:16963   */\n      swap2\n      pop\n        /* \"#utility.yul\":16972:17065   */\n      tag_370\n        /* \"#utility.yul\":17061:17064   */\n      dup3\n        /* \"#utility.yul\":16972:17065   */\n      tag_228\n      jump\t// in\n    tag_370:\n        /* \"#utility.yul\":17090:17092   */\n      0x20\n        /* \"#utility.yul\":17085:17088   */\n      dup3\n        /* \"#utility.yul\":17081:17093   */\n      add\n        /* \"#utility.yul\":17074:17093   */\n      swap1\n      pop\n        /* \"#utility.yul\":16733:17099   */\n      swap2\n      swap1\n      pop\n      jump\t// out\n        /* \"#utility.yul\":17105:17524   */\n    tag_183:\n        /* \"#utility.yul\":17271:17275   */\n      0x00\n        /* \"#utility.yul\":17309:17311   */\n      0x20\n        /* \"#utility.yul\":17298:17307   */\n      dup3\n        /* \"#utility.yul\":17294:17312   */\n      add\n        /* \"#utility.yul\":17286:17312   */\n      swap1\n      pop\n        /* \"#utility.yul\":17358:17367   */\n      dup2\n        /* \"#utility.yul\":17352:17356   */\n      dup2\n        /* \"#utility.yul\":17348:17368   */\n      sub\n        /* \"#utility.yul\":17344:17345   */\n      0x00\n        /* \"#utility.yul\":17333:17342   */\n      dup4\n        /* \"#utility.yul\":17329:17346   */\n      add\n        /* \"#utility.yul\":17322:17369   */\n      mstore\n        /* \"#utility.yul\":17386:17517   */\n      tag_372\n        /* \"#utility.yul\":17512:17516   */\n      dup2\n        /* \"#utility.yul\":17386:17517   */\n      tag_229\n      jump\t// in\n    tag_372:\n        /* \"#utility.yul\":17378:17517   */\n      swap1\n      pop\n        /* \"#utility.yul\":17105:17524   */\n      swap2\n      swap1\n      pop\n      jump\t// out\n\n    auxdata: 0xa264697066735822122038880c206ea088f608640209882b7557a9808802edba1bdd99db0c166fe188a064736f6c634300081a0033\n}\n",
				"bytecode": {
					"linkReferences": {},
					"object": "6080604052603c6002556002600455348015610019575f80fd5b506040516117d63803806117d6833981810160405281019061003b919061018f565b335f806101000a81548173ffffffffffffffffffffffffffffffffffffffff021916908373ffffffffffffffffffffffffffffffffffffffff16021790555080600381905550600160055f6101000a81548160ff021916908315150217905550600254426100a991906101e7565b600181905550600660405180604001604052803373ffffffffffffffffffffffffffffffffffffffff16815260200183815250908060018154018082558091505060019003905f5260205f2090600202015f909190919091505f820151815f015f6101000a81548173ffffffffffffffffffffffffffffffffffffffff021916908373ffffffffffffffffffffffffffffffffffffffff1602179055506020820151816001015550505061021a565b5f80fd5b5f819050919050565b61016e8161015c565b8114610178575f80fd5b50565b5f8151905061018981610165565b92915050565b5f602082840312156101a4576101a3610158565b5b5f6101b18482850161017b565b91505092915050565b7f4e487b71000000000000000000000000000000000000000000000000000000005f52601160045260245ffd5b5f6101f18261015c565b91506101fc8361015c565b9250828201905080821115610214576102136101ba565b5b92915050565b6115af806102275f395ff3fe6080604052600436106100c1575f3560e01c80637e12a2511161007e578063dedfab7211610058578063dedfab721461020b578063ecde973d14610235578063f90ca11714610272578063fe67a54b14610288576100c1565b80637e12a2511461018d57806392228006146101b7578063d3a86386146101e1576100c1565b806314d2687c146100c55780631998aeef146100ef5780633197cbb6146100f957806337072780146101235780635ec2c7bf1461014d5780636773fd7714610177575b5f80fd5b3480156100d0575f80fd5b506100d961029e565b6040516100e69190610eb3565b60405180910390f35b6100f7610358565b005b348015610104575f80fd5b5061010d610559565b60405161011a9190610ee2565b60405180910390f35b34801561012e575f80fd5b5061013761055f565b6040516101449190610ee2565b60405180910390f35b348015610158575f80fd5b50610161610565565b60405161016e9190610f0a565b60405180910390f35b348015610182575f80fd5b5061018b610588565b005b348015610198575f80fd5b506101a1610866565b6040516101ae9190610ee2565b60405180910390f35b3480156101c2575f80fd5b506101cb6108a1565b6040516101d89190610f3d565b60405180910390f35b3480156101ec575f80fd5b506101f56108b3565b6040516102029190610ee2565b60405180910390f35b348015610216575f80fd5b5061021f6108b9565b60405161022c9190610ee2565b60405180910390f35b348015610240575f80fd5b5061025b60048036038101906102569190610f84565b6108bf565b604051610269929190610faf565b60405180910390f35b34801561027d575f80fd5b5061028661090d565b005b348015610293575f80fd5b5061029c610b08565b005b60606006805480602002602001604051908101604052809291908181526020015f905b8282101561034f578382905f5260205f2090600202016040518060400160405290815f82015f9054906101000a900473ffffffffffffffffffffffffffffffffffffffff1673ffffffffffffffffffffffffffffffffffffffff1673ffffffffffffffffffffffffffffffffffffffff168152602001600182015481525050815260200190600101906102c1565b50505050905090565b60055f9054906101000a900460ff166103a6576040517f08c379a000000000000000000000000000000000000000000000000000000000815260040161039d90611030565b60405180910390fd5b606460696103b2610866565b6103bc919061107b565b6103c691906110e9565b341015610408576040517f08c379a00000000000000000000000000000000000000000000000000000000081526004016103ff90611189565b60405180910390fd5b600154421061044c576040517f08c379a0000000000000000000000000000000000000000000000000000000008152600401610443906111f1565b60405180910390fd5b60025460015f82825461045f919061120f565b92505081905550600660405180604001604052803373ffffffffffffffffffffffffffffffffffffffff16815260200134815250908060018154018082558091505060019003905f5260205f2090600202015f909190919091505f820151815f015f6101000a81548173ffffffffffffffffffffffffffffffffffffffff021916908373ffffffffffffffffffffffffffffffffffffffff1602179055506020820151816001015550503373ffffffffffffffffffffffffffffffffffffffff167fdd0b6c6a77960e2066c96171b4d7ac9e8b4c184011f38544afa36a5bb63ec59f3460405161054f9190610ee2565b60405180910390a2565b60015481565b60045481565b5f8054906101000a900473ffffffffffffffffffffffffffffffffffffffff1681565b5f8054906101000a900473ffffffffffffffffffffffffffffffffffffffff1673ffffffffffffffffffffffffffffffffffffffff163373ffffffffffffffffffffffffffffffffffffffff1614610615576040517f08c379a000000000000000000000000000000000000000000000000000000000815260040161060c906112b2565b60405180910390fd5b60055f9054906101000a900460ff1615610664576040517f08c379a000000000000000000000000000000000000000000000000000000000815260040161065b9061131a565b60405180910390fd5b5f60068054905090505f600660018361067d9190611338565b8154811061068e5761068d61136b565b5b905f5260205f2090600202015f015f9054906101000a900473ffffffffffffffffffffffffffffffffffffffff1690505f600190505b6001836106d19190611338565b811015610861575f600682815481106106ed576106ec61136b565b5b905f5260205f2090600202015f015f9054906101000a900473ffffffffffffffffffffffffffffffffffffffff1690505f600683815481106107325761073161136b565b5b905f5260205f2090600202016001015490508373ffffffffffffffffffffffffffffffffffffffff168273ffffffffffffffffffffffffffffffffffffffff160361077e575050610854565b5f606460045460646107909190611338565b8361079b919061107b565b6107a591906110e9565b90505f8373ffffffffffffffffffffffffffffffffffffffff16826040516107cc906113c5565b5f6040518083038185875af1925050503d805f8114610806576040519150601f19603f3d011682016040523d82523d5f602084013e61080b565b606091505b505090508061084f576040517f08c379a000000000000000000000000000000000000000000000000000000000815260040161084690611423565b60405180910390fd5b505050505b80806001019150506106c4565b505050565b5f6006600160068054905061087b9190611338565b8154811061088c5761088b61136b565b5b905f5260205f20906002020160010154905090565b60055f9054906101000a900460ff1681565b60035481565b60025481565b600681815481106108ce575f80fd5b905f5260205f2090600202015f91509050805f015f9054906101000a900473ffffffffffffffffffffffffffffffffffffffff16908060010154905082565b60055f9054906101000a900460ff1661095b576040517f08c379a000000000000000000000000000000000000000000000000000000000815260040161095290611030565b60405180910390fd5b5f8060068054905090505f5b6001826109749190611338565b811015610a7d573373ffffffffffffffffffffffffffffffffffffffff16600682815481106109a6576109a561136b565b5b905f5260205f2090600202015f015f9054906101000a900473ffffffffffffffffffffffffffffffffffffffff1673ffffffffffffffffffffffffffffffffffffffff1603610a705760068181548110610a0357610a0261136b565b5b905f5260205f2090600202016001015483610a1e919061120f565b925060068181548110610a3457610a3361136b565b5b905f5260205f2090600202015f8082015f6101000a81549073ffffffffffffffffffffffffffffffffffffffff0219169055600182015f905550505b8080600101915050610967565b505f8211610ac0576040517f08c379a0000000000000000000000000000000000000000000000000000000008152600401610ab79061148b565b60405180910390fd5b3373ffffffffffffffffffffffffffffffffffffffff166108fc8390811502906040515f60405180830381858888f19350505050158015610b03573d5f803e3d5ffd5b505050565b5f8054906101000a900473ffffffffffffffffffffffffffffffffffffffff1673ffffffffffffffffffffffffffffffffffffffff163373ffffffffffffffffffffffffffffffffffffffff1614610b95576040517f08c379a0000000000000000000000000000000000000000000000000000000008152600401610b8c906112b2565b60405180910390fd5b600154421015610bda576040517f08c379a0000000000000000000000000000000000000000000000000000000008152600401610bd1906114f3565b60405180910390fd5b5f60055f6101000a81548160ff0219169083151502179055505f60066001600680549050610c089190611338565b81548110610c1957610c1861136b565b5b905f5260205f2090600202015f015f9054906101000a900473ffffffffffffffffffffffffffffffffffffffff1690505f60066001600680549050610c5e9190611338565b81548110610c6f57610c6e61136b565b5b905f5260205f2090600202016001015490505f805f9054906101000a900473ffffffffffffffffffffffffffffffffffffffff1673ffffffffffffffffffffffffffffffffffffffff1682604051610cc6906113c5565b5f6040518083038185875af1925050503d805f8114610d00576040519150601f19603f3d011682016040523d82523d5f602084013e610d05565b606091505b5050905080610d49576040517f08c379a0000000000000000000000000000000000000000000000000000000008152600401610d409061155b565b60405180910390fd5b7fdaec4582d5d9595688c8c98545fdd1c696d41c6aeaeb636737e84ed2f5c00eda8383604051610d7a929190610faf565b60405180910390a1505050565b5f81519050919050565b5f82825260208201905092915050565b5f819050602082019050919050565b5f73ffffffffffffffffffffffffffffffffffffffff82169050919050565b5f610dd982610db0565b9050919050565b610de981610dcf565b82525050565b5f819050919050565b610e0181610def565b82525050565b604082015f820151610e1b5f850182610de0565b506020820151610e2e6020850182610df8565b50505050565b5f610e3f8383610e07565b60408301905092915050565b5f602082019050919050565b5f610e6182610d87565b610e6b8185610d91565b9350610e7683610da1565b805f5b83811015610ea6578151610e8d8882610e34565b9750610e9883610e4b565b925050600181019050610e79565b5085935050505092915050565b5f6020820190508181035f830152610ecb8184610e57565b905092915050565b610edc81610def565b82525050565b5f602082019050610ef55f830184610ed3565b92915050565b610f0481610dcf565b82525050565b5f602082019050610f1d5f830184610efb565b92915050565b5f8115159050919050565b610f3781610f23565b82525050565b5f602082019050610f505f830184610f2e565b92915050565b5f80fd5b610f6381610def565b8114610f6d575f80fd5b50565b5f81359050610f7e81610f5a565b92915050565b5f60208284031215610f9957610f98610f56565b5b5f610fa684828501610f70565b91505092915050565b5f604082019050610fc25f830185610efb565b610fcf6020830184610ed3565b9392505050565b5f82825260208201905092915050565b7f5468652061756374696f6e206973206e6f7420616374697665000000000000005f82015250565b5f61101a601983610fd6565b915061102582610fe6565b602082019050919050565b5f6020820190508181035f8301526110478161100e565b9050919050565b7f4e487b71000000000000000000000000000000000000000000000000000000005f52601160045260245ffd5b5f61108582610def565b915061109083610def565b925082820261109e81610def565b915082820484148315176110b5576110b461104e565b5b5092915050565b7f4e487b71000000000000000000000000000000000000000000000000000000005f52601260045260245ffd5b5f6110f382610def565b91506110fe83610def565b92508261110e5761110d6110bc565b5b828204905092915050565b7f54686520626964206d757374206265206174206c6561737420352520686967685f8201527f6572207468616e207468652063757272656e7420626964000000000000000000602082015250565b5f611173603783610fd6565b915061117e82611119565b604082019050919050565b5f6020820190508181035f8301526111a081611167565b9050919050565b7f5468652061756374696f6e2068617320656e64656400000000000000000000005f82015250565b5f6111db601583610fd6565b91506111e6826111a7565b602082019050919050565b5f6020820190508181035f830152611208816111cf565b9050919050565b5f61121982610def565b915061122483610def565b925082820190508082111561123c5761123b61104e565b5b92915050565b7f4f6e6c79207468652061756374696f6e6565722063616e2065786563757465205f8201527f746869732066756e6374696f6e00000000000000000000000000000000000000602082015250565b5f61129c602d83610fd6565b91506112a782611242565b604082019050919050565b5f6020820190508181035f8301526112c981611290565b9050919050565b7f5468652061756374696f6e206973207374696c6c2061637469766500000000005f82015250565b5f611304601b83610fd6565b915061130f826112d0565b602082019050919050565b5f6020820190508181035f830152611331816112f8565b9050919050565b5f61134282610def565b915061134d83610def565b92508282039050818111156113655761136461104e565b5b92915050565b7f4e487b71000000000000000000000000000000000000000000000000000000005f52603260045260245ffd5b5f81905092915050565b50565b5f6113b05f83611398565b91506113bb826113a2565b5f82019050919050565b5f6113cf826113a5565b9150819050919050565b7f526566756e6420746f20626964646572206661696c65640000000000000000005f82015250565b5f61140d601783610fd6565b9150611418826113d9565b602082019050919050565b5f6020820190508181035f83015261143a81611401565b9050919050565b7f5468657265206973206e6f7468696e6720746f207769746864726177000000005f82015250565b5f611475601c83610fd6565b915061148082611441565b602082019050919050565b5f6020820190508181035f8301526114a281611469565b9050919050565b7f5468652061756374696f6e20686173206e6f7420656e646564000000000000005f82015250565b5f6114dd601983610fd6565b91506114e8826114a9565b602082019050919050565b5f6020820190508181035f83015261150a816114d1565b9050919050565b7f5472616e7366657220746f2061756374696f6e656572206661696c65640000005f82015250565b5f611545601d83610fd6565b915061155082611511565b602082019050919050565b5f6020820190508181035f83015261157281611539565b905091905056fea264697066735822122038880c206ea088f608640209882b7557a9808802edba1bdd99db0c166fe188a064736f6c634300081a0033",
					"opcodes": "PUSH1 0x80 PUSH1 0x40 MSTORE PUSH1 0x3C PUSH1 0x2 SSTORE PUSH1 0x2 PUSH1 0x4 SSTORE CALLVALUE DUP1 ISZERO PUSH2 0x19 JUMPI PUSH0 DUP1 REVERT JUMPDEST POP PUSH1 0x40 MLOAD PUSH2 0x17D6 CODESIZE SUB DUP1 PUSH2 0x17D6 DUP4 CODECOPY DUP2 DUP2 ADD PUSH1 0x40 MSTORE DUP2 ADD SWAP1 PUSH2 0x3B SWAP2 SWAP1 PUSH2 0x18F JUMP JUMPDEST CALLER PUSH0 DUP1 PUSH2 0x100 EXP DUP2 SLOAD DUP2 PUSH20 0xFFFFFFFFFFFFFFFFFFFFFFFFFFFFFFFFFFFFFFFF MUL NOT AND SWAP1 DUP4 PUSH20 0xFFFFFFFFFFFFFFFFFFFFFFFFFFFFFFFFFFFFFFFF AND MUL OR SWAP1 SSTORE POP DUP1 PUSH1 0x3 DUP2 SWAP1 SSTORE POP PUSH1 0x1 PUSH1 0x5 PUSH0 PUSH2 0x100 EXP DUP2 SLOAD DUP2 PUSH1 0xFF MUL NOT AND SWAP1 DUP4 ISZERO ISZERO MUL OR SWAP1 SSTORE POP PUSH1 0x2 SLOAD TIMESTAMP PUSH2 0xA9 SWAP2 SWAP1 PUSH2 0x1E7 JUMP JUMPDEST PUSH1 0x1 DUP2 SWAP1 SSTORE POP PUSH1 0x6 PUSH1 0x40 MLOAD DUP1 PUSH1 0x40 ADD PUSH1 0x40 MSTORE DUP1 CALLER PUSH20 0xFFFFFFFFFFFFFFFFFFFFFFFFFFFFFFFFFFFFFFFF AND DUP2 MSTORE PUSH1 0x20 ADD DUP4 DUP2 MSTORE POP SWAP1 DUP1 PUSH1 0x1 DUP2 SLOAD ADD DUP1 DUP3 SSTORE DUP1 SWAP2 POP POP PUSH1 0x1 SWAP1 SUB SWAP1 PUSH0 MSTORE PUSH1 0x20 PUSH0 KECCAK256 SWAP1 PUSH1 0x2 MUL ADD PUSH0 SWAP1 SWAP2 SWAP1 SWAP2 SWAP1 SWAP2 POP PUSH0 DUP3 ADD MLOAD DUP2 PUSH0 ADD PUSH0 PUSH2 0x100 EXP DUP2 SLOAD DUP2 PUSH20 0xFFFFFFFFFFFFFFFFFFFFFFFFFFFFFFFFFFFFFFFF MUL NOT AND SWAP1 DUP4 PUSH20 0xFFFFFFFFFFFFFFFFFFFFFFFFFFFFFFFFFFFFFFFF AND MUL OR SWAP1 SSTORE POP PUSH1 0x20 DUP3 ADD MLOAD DUP2 PUSH1 0x1 ADD SSTORE POP POP POP PUSH2 0x21A JUMP JUMPDEST PUSH0 DUP1 REVERT JUMPDEST PUSH0 DUP2 SWAP1 POP SWAP2 SWAP1 POP JUMP JUMPDEST PUSH2 0x16E DUP2 PUSH2 0x15C JUMP JUMPDEST DUP2 EQ PUSH2 0x178 JUMPI PUSH0 DUP1 REVERT JUMPDEST POP JUMP JUMPDEST PUSH0 DUP2 MLOAD SWAP1 POP PUSH2 0x189 DUP2 PUSH2 0x165 JUMP JUMPDEST SWAP3 SWAP2 POP POP JUMP JUMPDEST PUSH0 PUSH1 0x20 DUP3 DUP5 SUB SLT ISZERO PUSH2 0x1A4 JUMPI PUSH2 0x1A3 PUSH2 0x158 JUMP JUMPDEST JUMPDEST PUSH0 PUSH2 0x1B1 DUP5 DUP3 DUP6 ADD PUSH2 0x17B JUMP JUMPDEST SWAP2 POP POP SWAP3 SWAP2 POP POP JUMP JUMPDEST PUSH32 0x4E487B7100000000000000000000000000000000000000000000000000000000 PUSH0 MSTORE PUSH1 0x11 PUSH1 0x4 MSTORE PUSH1 0x24 PUSH0 REVERT JUMPDEST PUSH0 PUSH2 0x1F1 DUP3 PUSH2 0x15C JUMP JUMPDEST SWAP2 POP PUSH2 0x1FC DUP4 PUSH2 0x15C JUMP JUMPDEST SWAP3 POP DUP3 DUP3 ADD SWAP1 POP DUP1 DUP3 GT ISZERO PUSH2 0x214 JUMPI PUSH2 0x213 PUSH2 0x1BA JUMP JUMPDEST JUMPDEST SWAP3 SWAP2 POP POP JUMP JUMPDEST PUSH2 0x15AF DUP1 PUSH2 0x227 PUSH0 CODECOPY PUSH0 RETURN INVALID PUSH1 0x80 PUSH1 0x40 MSTORE PUSH1 0x4 CALLDATASIZE LT PUSH2 0xC1 JUMPI PUSH0 CALLDATALOAD PUSH1 0xE0 SHR DUP1 PUSH4 0x7E12A251 GT PUSH2 0x7E JUMPI DUP1 PUSH4 0xDEDFAB72 GT PUSH2 0x58 JUMPI DUP1 PUSH4 0xDEDFAB72 EQ PUSH2 0x20B JUMPI DUP1 PUSH4 0xECDE973D EQ PUSH2 0x235 JUMPI DUP1 PUSH4 0xF90CA117 EQ PUSH2 0x272 JUMPI DUP1 PUSH4 0xFE67A54B EQ PUSH2 0x288 JUMPI PUSH2 0xC1 JUMP JUMPDEST DUP1 PUSH4 0x7E12A251 EQ PUSH2 0x18D JUMPI DUP1 PUSH4 0x92228006 EQ PUSH2 0x1B7 JUMPI DUP1 PUSH4 0xD3A86386 EQ PUSH2 0x1E1 JUMPI PUSH2 0xC1 JUMP JUMPDEST DUP1 PUSH4 0x14D2687C EQ PUSH2 0xC5 JUMPI DUP1 PUSH4 0x1998AEEF EQ PUSH2 0xEF JUMPI DUP1 PUSH4 0x3197CBB6 EQ PUSH2 0xF9 JUMPI DUP1 PUSH4 0x37072780 EQ PUSH2 0x123 JUMPI DUP1 PUSH4 0x5EC2C7BF EQ PUSH2 0x14D JUMPI DUP1 PUSH4 0x6773FD77 EQ PUSH2 0x177 JUMPI JUMPDEST PUSH0 DUP1 REVERT JUMPDEST CALLVALUE DUP1 ISZERO PUSH2 0xD0 JUMPI PUSH0 DUP1 REVERT JUMPDEST POP PUSH2 0xD9 PUSH2 0x29E JUMP JUMPDEST PUSH1 0x40 MLOAD PUSH2 0xE6 SWAP2 SWAP1 PUSH2 0xEB3 JUMP JUMPDEST PUSH1 0x40 MLOAD DUP1 SWAP2 SUB SWAP1 RETURN JUMPDEST PUSH2 0xF7 PUSH2 0x358 JUMP JUMPDEST STOP JUMPDEST CALLVALUE DUP1 ISZERO PUSH2 0x104 JUMPI PUSH0 DUP1 REVERT JUMPDEST POP PUSH2 0x10D PUSH2 0x559 JUMP JUMPDEST PUSH1 0x40 MLOAD PUSH2 0x11A SWAP2 SWAP1 PUSH2 0xEE2 JUMP JUMPDEST PUSH1 0x40 MLOAD DUP1 SWAP2 SUB SWAP1 RETURN JUMPDEST CALLVALUE DUP1 ISZERO PUSH2 0x12E JUMPI PUSH0 DUP1 REVERT JUMPDEST POP PUSH2 0x137 PUSH2 0x55F JUMP JUMPDEST PUSH1 0x40 MLOAD PUSH2 0x144 SWAP2 SWAP1 PUSH2 0xEE2 JUMP JUMPDEST PUSH1 0x40 MLOAD DUP1 SWAP2 SUB SWAP1 RETURN JUMPDEST CALLVALUE DUP1 ISZERO PUSH2 0x158 JUMPI PUSH0 DUP1 REVERT JUMPDEST POP PUSH2 0x161 PUSH2 0x565 JUMP JUMPDEST PUSH1 0x40 MLOAD PUSH2 0x16E SWAP2 SWAP1 PUSH2 0xF0A JUMP JUMPDEST PUSH1 0x40 MLOAD DUP1 SWAP2 SUB SWAP1 RETURN JUMPDEST CALLVALUE DUP1 ISZERO PUSH2 0x182 JUMPI PUSH0 DUP1 REVERT JUMPDEST POP PUSH2 0x18B PUSH2 0x588 JUMP JUMPDEST STOP JUMPDEST CALLVALUE DUP1 ISZERO PUSH2 0x198 JUMPI PUSH0 DUP1 REVERT JUMPDEST POP PUSH2 0x1A1 PUSH2 0x866 JUMP JUMPDEST PUSH1 0x40 MLOAD PUSH2 0x1AE SWAP2 SWAP1 PUSH2 0xEE2 JUMP JUMPDEST PUSH1 0x40 MLOAD DUP1 SWAP2 SUB SWAP1 RETURN JUMPDEST CALLVALUE DUP1 ISZERO PUSH2 0x1C2 JUMPI PUSH0 DUP1 REVERT JUMPDEST POP PUSH2 0x1CB PUSH2 0x8A1 JUMP JUMPDEST PUSH1 0x40 MLOAD PUSH2 0x1D8 SWAP2 SWAP1 PUSH2 0xF3D JUMP JUMPDEST PUSH1 0x40 MLOAD DUP1 SWAP2 SUB SWAP1 RETURN JUMPDEST CALLVALUE DUP1 ISZERO PUSH2 0x1EC JUMPI PUSH0 DUP1 REVERT JUMPDEST POP PUSH2 0x1F5 PUSH2 0x8B3 JUMP JUMPDEST PUSH1 0x40 MLOAD PUSH2 0x202 SWAP2 SWAP1 PUSH2 0xEE2 JUMP JUMPDEST PUSH1 0x40 MLOAD DUP1 SWAP2 SUB SWAP1 RETURN JUMPDEST CALLVALUE DUP1 ISZERO PUSH2 0x216 JUMPI PUSH0 DUP1 REVERT JUMPDEST POP PUSH2 0x21F PUSH2 0x8B9 JUMP JUMPDEST PUSH1 0x40 MLOAD PUSH2 0x22C SWAP2 SWAP1 PUSH2 0xEE2 JUMP JUMPDEST PUSH1 0x40 MLOAD DUP1 SWAP2 SUB SWAP1 RETURN JUMPDEST CALLVALUE DUP1 ISZERO PUSH2 0x240 JUMPI PUSH0 DUP1 REVERT JUMPDEST POP PUSH2 0x25B PUSH1 0x4 DUP1 CALLDATASIZE SUB DUP2 ADD SWAP1 PUSH2 0x256 SWAP2 SWAP1 PUSH2 0xF84 JUMP JUMPDEST PUSH2 0x8BF JUMP JUMPDEST PUSH1 0x40 MLOAD PUSH2 0x269 SWAP3 SWAP2 SWAP1 PUSH2 0xFAF JUMP JUMPDEST PUSH1 0x40 MLOAD DUP1 SWAP2 SUB SWAP1 RETURN JUMPDEST CALLVALUE DUP1 ISZERO PUSH2 0x27D JUMPI PUSH0 DUP1 REVERT JUMPDEST POP PUSH2 0x286 PUSH2 0x90D JUMP JUMPDEST STOP JUMPDEST CALLVALUE DUP1 ISZERO PUSH2 0x293 JUMPI PUSH0 DUP1 REVERT JUMPDEST POP PUSH2 0x29C PUSH2 0xB08 JUMP JUMPDEST STOP JUMPDEST PUSH1 0x60 PUSH1 0x6 DUP1 SLOAD DUP1 PUSH1 0x20 MUL PUSH1 0x20 ADD PUSH1 0x40 MLOAD SWAP1 DUP2 ADD PUSH1 0x40 MSTORE DUP1 SWAP3 SWAP2 SWAP1 DUP2 DUP2 MSTORE PUSH1 0x20 ADD PUSH0 SWAP1 JUMPDEST DUP3 DUP3 LT ISZERO PUSH2 0x34F JUMPI DUP4 DUP3 SWAP1 PUSH0 MSTORE PUSH1 0x20 PUSH0 KECCAK256 SWAP1 PUSH1 0x2 MUL ADD PUSH1 0x40 MLOAD DUP1 PUSH1 0x40 ADD PUSH1 0x40 MSTORE SWAP1 DUP2 PUSH0 DUP3 ADD PUSH0 SWAP1 SLOAD SWAP1 PUSH2 0x100 EXP SWAP1 DIV PUSH20 0xFFFFFFFFFFFFFFFFFFFFFFFFFFFFFFFFFFFFFFFF AND PUSH20 0xFFFFFFFFFFFFFFFFFFFFFFFFFFFFFFFFFFFFFFFF AND PUSH20 0xFFFFFFFFFFFFFFFFFFFFFFFFFFFFFFFFFFFFFFFF AND DUP2 MSTORE PUSH1 0x20 ADD PUSH1 0x1 DUP3 ADD SLOAD DUP2 MSTORE POP POP DUP2 MSTORE PUSH1 0x20 ADD SWAP1 PUSH1 0x1 ADD SWAP1 PUSH2 0x2C1 JUMP JUMPDEST POP POP POP POP SWAP1 POP SWAP1 JUMP JUMPDEST PUSH1 0x5 PUSH0 SWAP1 SLOAD SWAP1 PUSH2 0x100 EXP SWAP1 DIV PUSH1 0xFF AND PUSH2 0x3A6 JUMPI PUSH1 0x40 MLOAD PUSH32 0x8C379A000000000000000000000000000000000000000000000000000000000 DUP2 MSTORE PUSH1 0x4 ADD PUSH2 0x39D SWAP1 PUSH2 0x1030 JUMP JUMPDEST PUSH1 0x40 MLOAD DUP1 SWAP2 SUB SWAP1 REVERT JUMPDEST PUSH1 0x64 PUSH1 0x69 PUSH2 0x3B2 PUSH2 0x866 JUMP JUMPDEST PUSH2 0x3BC SWAP2 SWAP1 PUSH2 0x107B JUMP JUMPDEST PUSH2 0x3C6 SWAP2 SWAP1 PUSH2 0x10E9 JUMP JUMPDEST CALLVALUE LT ISZERO PUSH2 0x408 JUMPI PUSH1 0x40 MLOAD PUSH32 0x8C379A000000000000000000000000000000000000000000000000000000000 DUP2 MSTORE PUSH1 0x4 ADD PUSH2 0x3FF SWAP1 PUSH2 0x1189 JUMP JUMPDEST PUSH1 0x40 MLOAD DUP1 SWAP2 SUB SWAP1 REVERT JUMPDEST PUSH1 0x1 SLOAD TIMESTAMP LT PUSH2 0x44C JUMPI PUSH1 0x40 MLOAD PUSH32 0x8C379A000000000000000000000000000000000000000000000000000000000 DUP2 MSTORE PUSH1 0x4 ADD PUSH2 0x443 SWAP1 PUSH2 0x11F1 JUMP JUMPDEST PUSH1 0x40 MLOAD DUP1 SWAP2 SUB SWAP1 REVERT JUMPDEST PUSH1 0x2 SLOAD PUSH1 0x1 PUSH0 DUP3 DUP3 SLOAD PUSH2 0x45F SWAP2 SWAP1 PUSH2 0x120F JUMP JUMPDEST SWAP3 POP POP DUP2 SWAP1 SSTORE POP PUSH1 0x6 PUSH1 0x40 MLOAD DUP1 PUSH1 0x40 ADD PUSH1 0x40 MSTORE DUP1 CALLER PUSH20 0xFFFFFFFFFFFFFFFFFFFFFFFFFFFFFFFFFFFFFFFF AND DUP2 MSTORE PUSH1 0x20 ADD CALLVALUE DUP2 MSTORE POP SWAP1 DUP1 PUSH1 0x1 DUP2 SLOAD ADD DUP1 DUP3 SSTORE DUP1 SWAP2 POP POP PUSH1 0x1 SWAP1 SUB SWAP1 PUSH0 MSTORE PUSH1 0x20 PUSH0 KECCAK256 SWAP1 PUSH1 0x2 MUL ADD PUSH0 SWAP1 SWAP2 SWAP1 SWAP2 SWAP1 SWAP2 POP PUSH0 DUP3 ADD MLOAD DUP2 PUSH0 ADD PUSH0 PUSH2 0x100 EXP DUP2 SLOAD DUP2 PUSH20 0xFFFFFFFFFFFFFFFFFFFFFFFFFFFFFFFFFFFFFFFF MUL NOT AND SWAP1 DUP4 PUSH20 0xFFFFFFFFFFFFFFFFFFFFFFFFFFFFFFFFFFFFFFFF AND MUL OR SWAP1 SSTORE POP PUSH1 0x20 DUP3 ADD MLOAD DUP2 PUSH1 0x1 ADD SSTORE POP POP CALLER PUSH20 0xFFFFFFFFFFFFFFFFFFFFFFFFFFFFFFFFFFFFFFFF AND PUSH32 0xDD0B6C6A77960E2066C96171B4D7AC9E8B4C184011F38544AFA36A5BB63EC59F CALLVALUE PUSH1 0x40 MLOAD PUSH2 0x54F SWAP2 SWAP1 PUSH2 0xEE2 JUMP JUMPDEST PUSH1 0x40 MLOAD DUP1 SWAP2 SUB SWAP1 LOG2 JUMP JUMPDEST PUSH1 0x1 SLOAD DUP2 JUMP JUMPDEST PUSH1 0x4 SLOAD DUP2 JUMP JUMPDEST PUSH0 DUP1 SLOAD SWAP1 PUSH2 0x100 EXP SWAP1 DIV PUSH20 0xFFFFFFFFFFFFFFFFFFFFFFFFFFFFFFFFFFFFFFFF AND DUP2 JUMP JUMPDEST PUSH0 DUP1 SLOAD SWAP1 PUSH2 0x100 EXP SWAP1 DIV PUSH20 0xFFFFFFFFFFFFFFFFFFFFFFFFFFFFFFFFFFFFFFFF AND PUSH20 0xFFFFFFFFFFFFFFFFFFFFFFFFFFFFFFFFFFFFFFFF AND CALLER PUSH20 0xFFFFFFFFFFFFFFFFFFFFFFFFFFFFFFFFFFFFFFFF AND EQ PUSH2 0x615 JUMPI PUSH1 0x40 MLOAD PUSH32 0x8C379A000000000000000000000000000000000000000000000000000000000 DUP2 MSTORE PUSH1 0x4 ADD PUSH2 0x60C SWAP1 PUSH2 0x12B2 JUMP JUMPDEST PUSH1 0x40 MLOAD DUP1 SWAP2 SUB SWAP1 REVERT JUMPDEST PUSH1 0x5 PUSH0 SWAP1 SLOAD SWAP1 PUSH2 0x100 EXP SWAP1 DIV PUSH1 0xFF AND ISZERO PUSH2 0x664 JUMPI PUSH1 0x40 MLOAD PUSH32 0x8C379A000000000000000000000000000000000000000000000000000000000 DUP2 MSTORE PUSH1 0x4 ADD PUSH2 0x65B SWAP1 PUSH2 0x131A JUMP JUMPDEST PUSH1 0x40 MLOAD DUP1 SWAP2 SUB SWAP1 REVERT JUMPDEST PUSH0 PUSH1 0x6 DUP1 SLOAD SWAP1 POP SWAP1 POP PUSH0 PUSH1 0x6 PUSH1 0x1 DUP4 PUSH2 0x67D SWAP2 SWAP1 PUSH2 0x1338 JUMP JUMPDEST DUP2 SLOAD DUP2 LT PUSH2 0x68E JUMPI PUSH2 0x68D PUSH2 0x136B JUMP JUMPDEST JUMPDEST SWAP1 PUSH0 MSTORE PUSH1 0x20 PUSH0 KECCAK256 SWAP1 PUSH1 0x2 MUL ADD PUSH0 ADD PUSH0 SWAP1 SLOAD SWAP1 PUSH2 0x100 EXP SWAP1 DIV PUSH20 0xFFFFFFFFFFFFFFFFFFFFFFFFFFFFFFFFFFFFFFFF AND SWAP1 POP PUSH0 PUSH1 0x1 SWAP1 POP JUMPDEST PUSH1 0x1 DUP4 PUSH2 0x6D1 SWAP2 SWAP1 PUSH2 0x1338 JUMP JUMPDEST DUP2 LT ISZERO PUSH2 0x861 JUMPI PUSH0 PUSH1 0x6 DUP3 DUP2 SLOAD DUP2 LT PUSH2 0x6ED JUMPI PUSH2 0x6EC PUSH2 0x136B JUMP JUMPDEST JUMPDEST SWAP1 PUSH0 MSTORE PUSH1 0x20 PUSH0 KECCAK256 SWAP1 PUSH1 0x2 MUL ADD PUSH0 ADD PUSH0 SWAP1 SLOAD SWAP1 PUSH2 0x100 EXP SWAP1 DIV PUSH20 0xFFFFFFFFFFFFFFFFFFFFFFFFFFFFFFFFFFFFFFFF AND SWAP1 POP PUSH0 PUSH1 0x6 DUP4 DUP2 SLOAD DUP2 LT PUSH2 0x732 JUMPI PUSH2 0x731 PUSH2 0x136B JUMP JUMPDEST JUMPDEST SWAP1 PUSH0 MSTORE PUSH1 0x20 PUSH0 KECCAK256 SWAP1 PUSH1 0x2 MUL ADD PUSH1 0x1 ADD SLOAD SWAP1 POP DUP4 PUSH20 0xFFFFFFFFFFFFFFFFFFFFFFFFFFFFFFFFFFFFFFFF AND DUP3 PUSH20 0xFFFFFFFFFFFFFFFFFFFFFFFFFFFFFFFFFFFFFFFF AND SUB PUSH2 0x77E JUMPI POP POP PUSH2 0x854 JUMP JUMPDEST PUSH0 PUSH1 0x64 PUSH1 0x4 SLOAD PUSH1 0x64 PUSH2 0x790 SWAP2 SWAP1 PUSH2 0x1338 JUMP JUMPDEST DUP4 PUSH2 0x79B SWAP2 SWAP1 PUSH2 0x107B JUMP JUMPDEST PUSH2 0x7A5 SWAP2 SWAP1 PUSH2 0x10E9 JUMP JUMPDEST SWAP1 POP PUSH0 DUP4 PUSH20 0xFFFFFFFFFFFFFFFFFFFFFFFFFFFFFFFFFFFFFFFF AND DUP3 PUSH1 0x40 MLOAD PUSH2 0x7CC SWAP1 PUSH2 0x13C5 JUMP JUMPDEST PUSH0 PUSH1 0x40 MLOAD DUP1 DUP4 SUB DUP2 DUP6 DUP8 GAS CALL SWAP3 POP POP POP RETURNDATASIZE DUP1 PUSH0 DUP2 EQ PUSH2 0x806 JUMPI PUSH1 0x40 MLOAD SWAP2 POP PUSH1 0x1F NOT PUSH1 0x3F RETURNDATASIZE ADD AND DUP3 ADD PUSH1 0x40 MSTORE RETURNDATASIZE DUP3 MSTORE RETURNDATASIZE PUSH0 PUSH1 0x20 DUP5 ADD RETURNDATACOPY PUSH2 0x80B JUMP JUMPDEST PUSH1 0x60 SWAP2 POP JUMPDEST POP POP SWAP1 POP DUP1 PUSH2 0x84F JUMPI PUSH1 0x40 MLOAD PUSH32 0x8C379A000000000000000000000000000000000000000000000000000000000 DUP2 MSTORE PUSH1 0x4 ADD PUSH2 0x846 SWAP1 PUSH2 0x1423 JUMP JUMPDEST PUSH1 0x40 MLOAD DUP1 SWAP2 SUB SWAP1 REVERT JUMPDEST POP POP POP POP JUMPDEST DUP1 DUP1 PUSH1 0x1 ADD SWAP2 POP POP PUSH2 0x6C4 JUMP JUMPDEST POP POP POP JUMP JUMPDEST PUSH0 PUSH1 0x6 PUSH1 0x1 PUSH1 0x6 DUP1 SLOAD SWAP1 POP PUSH2 0x87B SWAP2 SWAP1 PUSH2 0x1338 JUMP JUMPDEST DUP2 SLOAD DUP2 LT PUSH2 0x88C JUMPI PUSH2 0x88B PUSH2 0x136B JUMP JUMPDEST JUMPDEST SWAP1 PUSH0 MSTORE PUSH1 0x20 PUSH0 KECCAK256 SWAP1 PUSH1 0x2 MUL ADD PUSH1 0x1 ADD SLOAD SWAP1 POP SWAP1 JUMP JUMPDEST PUSH1 0x5 PUSH0 SWAP1 SLOAD SWAP1 PUSH2 0x100 EXP SWAP1 DIV PUSH1 0xFF AND DUP2 JUMP JUMPDEST PUSH1 0x3 SLOAD DUP2 JUMP JUMPDEST PUSH1 0x2 SLOAD DUP2 JUMP JUMPDEST PUSH1 0x6 DUP2 DUP2 SLOAD DUP2 LT PUSH2 0x8CE JUMPI PUSH0 DUP1 REVERT JUMPDEST SWAP1 PUSH0 MSTORE PUSH1 0x20 PUSH0 KECCAK256 SWAP1 PUSH1 0x2 MUL ADD PUSH0 SWAP2 POP SWAP1 POP DUP1 PUSH0 ADD PUSH0 SWAP1 SLOAD SWAP1 PUSH2 0x100 EXP SWAP1 DIV PUSH20 0xFFFFFFFFFFFFFFFFFFFFFFFFFFFFFFFFFFFFFFFF AND SWAP1 DUP1 PUSH1 0x1 ADD SLOAD SWAP1 POP DUP3 JUMP JUMPDEST PUSH1 0x5 PUSH0 SWAP1 SLOAD SWAP1 PUSH2 0x100 EXP SWAP1 DIV PUSH1 0xFF AND PUSH2 0x95B JUMPI PUSH1 0x40 MLOAD PUSH32 0x8C379A000000000000000000000000000000000000000000000000000000000 DUP2 MSTORE PUSH1 0x4 ADD PUSH2 0x952 SWAP1 PUSH2 0x1030 JUMP JUMPDEST PUSH1 0x40 MLOAD DUP1 SWAP2 SUB SWAP1 REVERT JUMPDEST PUSH0 DUP1 PUSH1 0x6 DUP1 SLOAD SWAP1 POP SWAP1 POP PUSH0 JUMPDEST PUSH1 0x1 DUP3 PUSH2 0x974 SWAP2 SWAP1 PUSH2 0x1338 JUMP JUMPDEST DUP2 LT ISZERO PUSH2 0xA7D JUMPI CALLER PUSH20 0xFFFFFFFFFFFFFFFFFFFFFFFFFFFFFFFFFFFFFFFF AND PUSH1 0x6 DUP3 DUP2 SLOAD DUP2 LT PUSH2 0x9A6 JUMPI PUSH2 0x9A5 PUSH2 0x136B JUMP JUMPDEST JUMPDEST SWAP1 PUSH0 MSTORE PUSH1 0x20 PUSH0 KECCAK256 SWAP1 PUSH1 0x2 MUL ADD PUSH0 ADD PUSH0 SWAP1 SLOAD SWAP1 PUSH2 0x100 EXP SWAP1 DIV PUSH20 0xFFFFFFFFFFFFFFFFFFFFFFFFFFFFFFFFFFFFFFFF AND PUSH20 0xFFFFFFFFFFFFFFFFFFFFFFFFFFFFFFFFFFFFFFFF AND SUB PUSH2 0xA70 JUMPI PUSH1 0x6 DUP2 DUP2 SLOAD DUP2 LT PUSH2 0xA03 JUMPI PUSH2 0xA02 PUSH2 0x136B JUMP JUMPDEST JUMPDEST SWAP1 PUSH0 MSTORE PUSH1 0x20 PUSH0 KECCAK256 SWAP1 PUSH1 0x2 MUL ADD PUSH1 0x1 ADD SLOAD DUP4 PUSH2 0xA1E SWAP2 SWAP1 PUSH2 0x120F JUMP JUMPDEST SWAP3 POP PUSH1 0x6 DUP2 DUP2 SLOAD DUP2 LT PUSH2 0xA34 JUMPI PUSH2 0xA33 PUSH2 0x136B JUMP JUMPDEST JUMPDEST SWAP1 PUSH0 MSTORE PUSH1 0x20 PUSH0 KECCAK256 SWAP1 PUSH1 0x2 MUL ADD PUSH0 DUP1 DUP3 ADD PUSH0 PUSH2 0x100 EXP DUP2 SLOAD SWAP1 PUSH20 0xFFFFFFFFFFFFFFFFFFFFFFFFFFFFFFFFFFFFFFFF MUL NOT AND SWAP1 SSTORE PUSH1 0x1 DUP3 ADD PUSH0 SWAP1 SSTORE POP POP JUMPDEST DUP1 DUP1 PUSH1 0x1 ADD SWAP2 POP POP PUSH2 0x967 JUMP JUMPDEST POP PUSH0 DUP3 GT PUSH2 0xAC0 JUMPI PUSH1 0x40 MLOAD PUSH32 0x8C379A000000000000000000000000000000000000000000000000000000000 DUP2 MSTORE PUSH1 0x4 ADD PUSH2 0xAB7 SWAP1 PUSH2 0x148B JUMP JUMPDEST PUSH1 0x40 MLOAD DUP1 SWAP2 SUB SWAP1 REVERT JUMPDEST CALLER PUSH20 0xFFFFFFFFFFFFFFFFFFFFFFFFFFFFFFFFFFFFFFFF AND PUSH2 0x8FC DUP4 SWAP1 DUP2 ISZERO MUL SWAP1 PUSH1 0x40 MLOAD PUSH0 PUSH1 0x40 MLOAD DUP1 DUP4 SUB DUP2 DUP6 DUP9 DUP9 CALL SWAP4 POP POP POP POP ISZERO DUP1 ISZERO PUSH2 0xB03 JUMPI RETURNDATASIZE PUSH0 DUP1 RETURNDATACOPY RETURNDATASIZE PUSH0 REVERT JUMPDEST POP POP POP JUMP JUMPDEST PUSH0 DUP1 SLOAD SWAP1 PUSH2 0x100 EXP SWAP1 DIV PUSH20 0xFFFFFFFFFFFFFFFFFFFFFFFFFFFFFFFFFFFFFFFF AND PUSH20 0xFFFFFFFFFFFFFFFFFFFFFFFFFFFFFFFFFFFFFFFF AND CALLER PUSH20 0xFFFFFFFFFFFFFFFFFFFFFFFFFFFFFFFFFFFFFFFF AND EQ PUSH2 0xB95 JUMPI PUSH1 0x40 MLOAD PUSH32 0x8C379A000000000000000000000000000000000000000000000000000000000 DUP2 MSTORE PUSH1 0x4 ADD PUSH2 0xB8C SWAP1 PUSH2 0x12B2 JUMP JUMPDEST PUSH1 0x40 MLOAD DUP1 SWAP2 SUB SWAP1 REVERT JUMPDEST PUSH1 0x1 SLOAD TIMESTAMP LT ISZERO PUSH2 0xBDA JUMPI PUSH1 0x40 MLOAD PUSH32 0x8C379A000000000000000000000000000000000000000000000000000000000 DUP2 MSTORE PUSH1 0x4 ADD PUSH2 0xBD1 SWAP1 PUSH2 0x14F3 JUMP JUMPDEST PUSH1 0x40 MLOAD DUP1 SWAP2 SUB SWAP1 REVERT JUMPDEST PUSH0 PUSH1 0x5 PUSH0 PUSH2 0x100 EXP DUP2 SLOAD DUP2 PUSH1 0xFF MUL NOT AND SWAP1 DUP4 ISZERO ISZERO MUL OR SWAP1 SSTORE POP PUSH0 PUSH1 0x6 PUSH1 0x1 PUSH1 0x6 DUP1 SLOAD SWAP1 POP PUSH2 0xC08 SWAP2 SWAP1 PUSH2 0x1338 JUMP JUMPDEST DUP2 SLOAD DUP2 LT PUSH2 0xC19 JUMPI PUSH2 0xC18 PUSH2 0x136B JUMP JUMPDEST JUMPDEST SWAP1 PUSH0 MSTORE PUSH1 0x20 PUSH0 KECCAK256 SWAP1 PUSH1 0x2 MUL ADD PUSH0 ADD PUSH0 SWAP1 SLOAD SWAP1 PUSH2 0x100 EXP SWAP1 DIV PUSH20 0xFFFFFFFFFFFFFFFFFFFFFFFFFFFFFFFFFFFFFFFF AND SWAP1 POP PUSH0 PUSH1 0x6 PUSH1 0x1 PUSH1 0x6 DUP1 SLOAD SWAP1 POP PUSH2 0xC5E SWAP2 SWAP1 PUSH2 0x1338 JUMP JUMPDEST DUP2 SLOAD DUP2 LT PUSH2 0xC6F JUMPI PUSH2 0xC6E PUSH2 0x136B JUMP JUMPDEST JUMPDEST SWAP1 PUSH0 MSTORE PUSH1 0x20 PUSH0 KECCAK256 SWAP1 PUSH1 0x2 MUL ADD PUSH1 0x1 ADD SLOAD SWAP1 POP PUSH0 DUP1 PUSH0 SWAP1 SLOAD SWAP1 PUSH2 0x100 EXP SWAP1 DIV PUSH20 0xFFFFFFFFFFFFFFFFFFFFFFFFFFFFFFFFFFFFFFFF AND PUSH20 0xFFFFFFFFFFFFFFFFFFFFFFFFFFFFFFFFFFFFFFFF AND DUP3 PUSH1 0x40 MLOAD PUSH2 0xCC6 SWAP1 PUSH2 0x13C5 JUMP JUMPDEST PUSH0 PUSH1 0x40 MLOAD DUP1 DUP4 SUB DUP2 DUP6 DUP8 GAS CALL SWAP3 POP POP POP RETURNDATASIZE DUP1 PUSH0 DUP2 EQ PUSH2 0xD00 JUMPI PUSH1 0x40 MLOAD SWAP2 POP PUSH1 0x1F NOT PUSH1 0x3F RETURNDATASIZE ADD AND DUP3 ADD PUSH1 0x40 MSTORE RETURNDATASIZE DUP3 MSTORE RETURNDATASIZE PUSH0 PUSH1 0x20 DUP5 ADD RETURNDATACOPY PUSH2 0xD05 JUMP JUMPDEST PUSH1 0x60 SWAP2 POP JUMPDEST POP POP SWAP1 POP DUP1 PUSH2 0xD49 JUMPI PUSH1 0x40 MLOAD PUSH32 0x8C379A000000000000000000000000000000000000000000000000000000000 DUP2 MSTORE PUSH1 0x4 ADD PUSH2 0xD40 SWAP1 PUSH2 0x155B JUMP JUMPDEST PUSH1 0x40 MLOAD DUP1 SWAP2 SUB SWAP1 REVERT JUMPDEST PUSH32 0xDAEC4582D5D9595688C8C98545FDD1C696D41C6AEAEB636737E84ED2F5C00EDA DUP4 DUP4 PUSH1 0x40 MLOAD PUSH2 0xD7A SWAP3 SWAP2 SWAP1 PUSH2 0xFAF JUMP JUMPDEST PUSH1 0x40 MLOAD DUP1 SWAP2 SUB SWAP1 LOG1 POP POP POP JUMP JUMPDEST PUSH0 DUP2 MLOAD SWAP1 POP SWAP2 SWAP1 POP JUMP JUMPDEST PUSH0 DUP3 DUP3 MSTORE PUSH1 0x20 DUP3 ADD SWAP1 POP SWAP3 SWAP2 POP POP JUMP JUMPDEST PUSH0 DUP2 SWAP1 POP PUSH1 0x20 DUP3 ADD SWAP1 POP SWAP2 SWAP1 POP JUMP JUMPDEST PUSH0 PUSH20 0xFFFFFFFFFFFFFFFFFFFFFFFFFFFFFFFFFFFFFFFF DUP3 AND SWAP1 POP SWAP2 SWAP1 POP JUMP JUMPDEST PUSH0 PUSH2 0xDD9 DUP3 PUSH2 0xDB0 JUMP JUMPDEST SWAP1 POP SWAP2 SWAP1 POP JUMP JUMPDEST PUSH2 0xDE9 DUP2 PUSH2 0xDCF JUMP JUMPDEST DUP3 MSTORE POP POP JUMP JUMPDEST PUSH0 DUP2 SWAP1 POP SWAP2 SWAP1 POP JUMP JUMPDEST PUSH2 0xE01 DUP2 PUSH2 0xDEF JUMP JUMPDEST DUP3 MSTORE POP POP JUMP JUMPDEST PUSH1 0x40 DUP3 ADD PUSH0 DUP3 ADD MLOAD PUSH2 0xE1B PUSH0 DUP6 ADD DUP3 PUSH2 0xDE0 JUMP JUMPDEST POP PUSH1 0x20 DUP3 ADD MLOAD PUSH2 0xE2E PUSH1 0x20 DUP6 ADD DUP3 PUSH2 0xDF8 JUMP JUMPDEST POP POP POP POP JUMP JUMPDEST PUSH0 PUSH2 0xE3F DUP4 DUP4 PUSH2 0xE07 JUMP JUMPDEST PUSH1 0x40 DUP4 ADD SWAP1 POP SWAP3 SWAP2 POP POP JUMP JUMPDEST PUSH0 PUSH1 0x20 DUP3 ADD SWAP1 POP SWAP2 SWAP1 POP JUMP JUMPDEST PUSH0 PUSH2 0xE61 DUP3 PUSH2 0xD87 JUMP JUMPDEST PUSH2 0xE6B DUP2 DUP6 PUSH2 0xD91 JUMP JUMPDEST SWAP4 POP PUSH2 0xE76 DUP4 PUSH2 0xDA1 JUMP JUMPDEST DUP1 PUSH0 JUMPDEST DUP4 DUP2 LT ISZERO PUSH2 0xEA6 JUMPI DUP2 MLOAD PUSH2 0xE8D DUP9 DUP3 PUSH2 0xE34 JUMP JUMPDEST SWAP8 POP PUSH2 0xE98 DUP4 PUSH2 0xE4B JUMP JUMPDEST SWAP3 POP POP PUSH1 0x1 DUP2 ADD SWAP1 POP PUSH2 0xE79 JUMP JUMPDEST POP DUP6 SWAP4 POP POP POP POP SWAP3 SWAP2 POP POP JUMP JUMPDEST PUSH0 PUSH1 0x20 DUP3 ADD SWAP1 POP DUP2 DUP2 SUB PUSH0 DUP4 ADD MSTORE PUSH2 0xECB DUP2 DUP5 PUSH2 0xE57 JUMP JUMPDEST SWAP1 POP SWAP3 SWAP2 POP POP JUMP JUMPDEST PUSH2 0xEDC DUP2 PUSH2 0xDEF JUMP JUMPDEST DUP3 MSTORE POP POP JUMP JUMPDEST PUSH0 PUSH1 0x20 DUP3 ADD SWAP1 POP PUSH2 0xEF5 PUSH0 DUP4 ADD DUP5 PUSH2 0xED3 JUMP JUMPDEST SWAP3 SWAP2 POP POP JUMP JUMPDEST PUSH2 0xF04 DUP2 PUSH2 0xDCF JUMP JUMPDEST DUP3 MSTORE POP POP JUMP JUMPDEST PUSH0 PUSH1 0x20 DUP3 ADD SWAP1 POP PUSH2 0xF1D PUSH0 DUP4 ADD DUP5 PUSH2 0xEFB JUMP JUMPDEST SWAP3 SWAP2 POP POP JUMP JUMPDEST PUSH0 DUP2 ISZERO ISZERO SWAP1 POP SWAP2 SWAP1 POP JUMP JUMPDEST PUSH2 0xF37 DUP2 PUSH2 0xF23 JUMP JUMPDEST DUP3 MSTORE POP POP JUMP JUMPDEST PUSH0 PUSH1 0x20 DUP3 ADD SWAP1 POP PUSH2 0xF50 PUSH0 DUP4 ADD DUP5 PUSH2 0xF2E JUMP JUMPDEST SWAP3 SWAP2 POP POP JUMP JUMPDEST PUSH0 DUP1 REVERT JUMPDEST PUSH2 0xF63 DUP2 PUSH2 0xDEF JUMP JUMPDEST DUP2 EQ PUSH2 0xF6D JUMPI PUSH0 DUP1 REVERT JUMPDEST POP JUMP JUMPDEST PUSH0 DUP2 CALLDATALOAD SWAP1 POP PUSH2 0xF7E DUP2 PUSH2 0xF5A JUMP JUMPDEST SWAP3 SWAP2 POP POP JUMP JUMPDEST PUSH0 PUSH1 0x20 DUP3 DUP5 SUB SLT ISZERO PUSH2 0xF99 JUMPI PUSH2 0xF98 PUSH2 0xF56 JUMP JUMPDEST JUMPDEST PUSH0 PUSH2 0xFA6 DUP5 DUP3 DUP6 ADD PUSH2 0xF70 JUMP JUMPDEST SWAP2 POP POP SWAP3 SWAP2 POP POP JUMP JUMPDEST PUSH0 PUSH1 0x40 DUP3 ADD SWAP1 POP PUSH2 0xFC2 PUSH0 DUP4 ADD DUP6 PUSH2 0xEFB JUMP JUMPDEST PUSH2 0xFCF PUSH1 0x20 DUP4 ADD DUP5 PUSH2 0xED3 JUMP JUMPDEST SWAP4 SWAP3 POP POP POP JUMP JUMPDEST PUSH0 DUP3 DUP3 MSTORE PUSH1 0x20 DUP3 ADD SWAP1 POP SWAP3 SWAP2 POP POP JUMP JUMPDEST PUSH32 0x5468652061756374696F6E206973206E6F742061637469766500000000000000 PUSH0 DUP3 ADD MSTORE POP JUMP JUMPDEST PUSH0 PUSH2 0x101A PUSH1 0x19 DUP4 PUSH2 0xFD6 JUMP JUMPDEST SWAP2 POP PUSH2 0x1025 DUP3 PUSH2 0xFE6 JUMP JUMPDEST PUSH1 0x20 DUP3 ADD SWAP1 POP SWAP2 SWAP1 POP JUMP JUMPDEST PUSH0 PUSH1 0x20 DUP3 ADD SWAP1 POP DUP2 DUP2 SUB PUSH0 DUP4 ADD MSTORE PUSH2 0x1047 DUP2 PUSH2 0x100E JUMP JUMPDEST SWAP1 POP SWAP2 SWAP1 POP JUMP JUMPDEST PUSH32 0x4E487B7100000000000000000000000000000000000000000000000000000000 PUSH0 MSTORE PUSH1 0x11 PUSH1 0x4 MSTORE PUSH1 0x24 PUSH0 REVERT JUMPDEST PUSH0 PUSH2 0x1085 DUP3 PUSH2 0xDEF JUMP JUMPDEST SWAP2 POP PUSH2 0x1090 DUP4 PUSH2 0xDEF JUMP JUMPDEST SWAP3 POP DUP3 DUP3 MUL PUSH2 0x109E DUP2 PUSH2 0xDEF JUMP JUMPDEST SWAP2 POP DUP3 DUP3 DIV DUP5 EQ DUP4 ISZERO OR PUSH2 0x10B5 JUMPI PUSH2 0x10B4 PUSH2 0x104E JUMP JUMPDEST JUMPDEST POP SWAP3 SWAP2 POP POP JUMP JUMPDEST PUSH32 0x4E487B7100000000000000000000000000000000000000000000000000000000 PUSH0 MSTORE PUSH1 0x12 PUSH1 0x4 MSTORE PUSH1 0x24 PUSH0 REVERT JUMPDEST PUSH0 PUSH2 0x10F3 DUP3 PUSH2 0xDEF JUMP JUMPDEST SWAP2 POP PUSH2 0x10FE DUP4 PUSH2 0xDEF JUMP JUMPDEST SWAP3 POP DUP3 PUSH2 0x110E JUMPI PUSH2 0x110D PUSH2 0x10BC JUMP JUMPDEST JUMPDEST DUP3 DUP3 DIV SWAP1 POP SWAP3 SWAP2 POP POP JUMP JUMPDEST PUSH32 0x54686520626964206D757374206265206174206C656173742035252068696768 PUSH0 DUP3 ADD MSTORE PUSH32 0x6572207468616E207468652063757272656E7420626964000000000000000000 PUSH1 0x20 DUP3 ADD MSTORE POP JUMP JUMPDEST PUSH0 PUSH2 0x1173 PUSH1 0x37 DUP4 PUSH2 0xFD6 JUMP JUMPDEST SWAP2 POP PUSH2 0x117E DUP3 PUSH2 0x1119 JUMP JUMPDEST PUSH1 0x40 DUP3 ADD SWAP1 POP SWAP2 SWAP1 POP JUMP JUMPDEST PUSH0 PUSH1 0x20 DUP3 ADD SWAP1 POP DUP2 DUP2 SUB PUSH0 DUP4 ADD MSTORE PUSH2 0x11A0 DUP2 PUSH2 0x1167 JUMP JUMPDEST SWAP1 POP SWAP2 SWAP1 POP JUMP JUMPDEST PUSH32 0x5468652061756374696F6E2068617320656E6465640000000000000000000000 PUSH0 DUP3 ADD MSTORE POP JUMP JUMPDEST PUSH0 PUSH2 0x11DB PUSH1 0x15 DUP4 PUSH2 0xFD6 JUMP JUMPDEST SWAP2 POP PUSH2 0x11E6 DUP3 PUSH2 0x11A7 JUMP JUMPDEST PUSH1 0x20 DUP3 ADD SWAP1 POP SWAP2 SWAP1 POP JUMP JUMPDEST PUSH0 PUSH1 0x20 DUP3 ADD SWAP1 POP DUP2 DUP2 SUB PUSH0 DUP4 ADD MSTORE PUSH2 0x1208 DUP2 PUSH2 0x11CF JUMP JUMPDEST SWAP1 POP SWAP2 SWAP1 POP JUMP JUMPDEST PUSH0 PUSH2 0x1219 DUP3 PUSH2 0xDEF JUMP JUMPDEST SWAP2 POP PUSH2 0x1224 DUP4 PUSH2 0xDEF JUMP JUMPDEST SWAP3 POP DUP3 DUP3 ADD SWAP1 POP DUP1 DUP3 GT ISZERO PUSH2 0x123C JUMPI PUSH2 0x123B PUSH2 0x104E JUMP JUMPDEST JUMPDEST SWAP3 SWAP2 POP POP JUMP JUMPDEST PUSH32 0x4F6E6C79207468652061756374696F6E6565722063616E206578656375746520 PUSH0 DUP3 ADD MSTORE PUSH32 0x746869732066756E6374696F6E00000000000000000000000000000000000000 PUSH1 0x20 DUP3 ADD MSTORE POP JUMP JUMPDEST PUSH0 PUSH2 0x129C PUSH1 0x2D DUP4 PUSH2 0xFD6 JUMP JUMPDEST SWAP2 POP PUSH2 0x12A7 DUP3 PUSH2 0x1242 JUMP JUMPDEST PUSH1 0x40 DUP3 ADD SWAP1 POP SWAP2 SWAP1 POP JUMP JUMPDEST PUSH0 PUSH1 0x20 DUP3 ADD SWAP1 POP DUP2 DUP2 SUB PUSH0 DUP4 ADD MSTORE PUSH2 0x12C9 DUP2 PUSH2 0x1290 JUMP JUMPDEST SWAP1 POP SWAP2 SWAP1 POP JUMP JUMPDEST PUSH32 0x5468652061756374696F6E206973207374696C6C206163746976650000000000 PUSH0 DUP3 ADD MSTORE POP JUMP JUMPDEST PUSH0 PUSH2 0x1304 PUSH1 0x1B DUP4 PUSH2 0xFD6 JUMP JUMPDEST SWAP2 POP PUSH2 0x130F DUP3 PUSH2 0x12D0 JUMP JUMPDEST PUSH1 0x20 DUP3 ADD SWAP1 POP SWAP2 SWAP1 POP JUMP JUMPDEST PUSH0 PUSH1 0x20 DUP3 ADD SWAP1 POP DUP2 DUP2 SUB PUSH0 DUP4 ADD MSTORE PUSH2 0x1331 DUP2 PUSH2 0x12F8 JUMP JUMPDEST SWAP1 POP SWAP2 SWAP1 POP JUMP JUMPDEST PUSH0 PUSH2 0x1342 DUP3 PUSH2 0xDEF JUMP JUMPDEST SWAP2 POP PUSH2 0x134D DUP4 PUSH2 0xDEF JUMP JUMPDEST SWAP3 POP DUP3 DUP3 SUB SWAP1 POP DUP2 DUP2 GT ISZERO PUSH2 0x1365 JUMPI PUSH2 0x1364 PUSH2 0x104E JUMP JUMPDEST JUMPDEST SWAP3 SWAP2 POP POP JUMP JUMPDEST PUSH32 0x4E487B7100000000000000000000000000000000000000000000000000000000 PUSH0 MSTORE PUSH1 0x32 PUSH1 0x4 MSTORE PUSH1 0x24 PUSH0 REVERT JUMPDEST PUSH0 DUP2 SWAP1 POP SWAP3 SWAP2 POP POP JUMP JUMPDEST POP JUMP JUMPDEST PUSH0 PUSH2 0x13B0 PUSH0 DUP4 PUSH2 0x1398 JUMP JUMPDEST SWAP2 POP PUSH2 0x13BB DUP3 PUSH2 0x13A2 JUMP JUMPDEST PUSH0 DUP3 ADD SWAP1 POP SWAP2 SWAP1 POP JUMP JUMPDEST PUSH0 PUSH2 0x13CF DUP3 PUSH2 0x13A5 JUMP JUMPDEST SWAP2 POP DUP2 SWAP1 POP SWAP2 SWAP1 POP JUMP JUMPDEST PUSH32 0x526566756E6420746F20626964646572206661696C6564000000000000000000 PUSH0 DUP3 ADD MSTORE POP JUMP JUMPDEST PUSH0 PUSH2 0x140D PUSH1 0x17 DUP4 PUSH2 0xFD6 JUMP JUMPDEST SWAP2 POP PUSH2 0x1418 DUP3 PUSH2 0x13D9 JUMP JUMPDEST PUSH1 0x20 DUP3 ADD SWAP1 POP SWAP2 SWAP1 POP JUMP JUMPDEST PUSH0 PUSH1 0x20 DUP3 ADD SWAP1 POP DUP2 DUP2 SUB PUSH0 DUP4 ADD MSTORE PUSH2 0x143A DUP2 PUSH2 0x1401 JUMP JUMPDEST SWAP1 POP SWAP2 SWAP1 POP JUMP JUMPDEST PUSH32 0x5468657265206973206E6F7468696E6720746F20776974686472617700000000 PUSH0 DUP3 ADD MSTORE POP JUMP JUMPDEST PUSH0 PUSH2 0x1475 PUSH1 0x1C DUP4 PUSH2 0xFD6 JUMP JUMPDEST SWAP2 POP PUSH2 0x1480 DUP3 PUSH2 0x1441 JUMP JUMPDEST PUSH1 0x20 DUP3 ADD SWAP1 POP SWAP2 SWAP1 POP JUMP JUMPDEST PUSH0 PUSH1 0x20 DUP3 ADD SWAP1 POP DUP2 DUP2 SUB PUSH0 DUP4 ADD MSTORE PUSH2 0x14A2 DUP2 PUSH2 0x1469 JUMP JUMPDEST SWAP1 POP SWAP2 SWAP1 POP JUMP JUMPDEST PUSH32 0x5468652061756374696F6E20686173206E6F7420656E64656400000000000000 PUSH0 DUP3 ADD MSTORE POP JUMP JUMPDEST PUSH0 PUSH2 0x14DD PUSH1 0x19 DUP4 PUSH2 0xFD6 JUMP JUMPDEST SWAP2 POP PUSH2 0x14E8 DUP3 PUSH2 0x14A9 JUMP JUMPDEST PUSH1 0x20 DUP3 ADD SWAP1 POP SWAP2 SWAP1 POP JUMP JUMPDEST PUSH0 PUSH1 0x20 DUP3 ADD SWAP1 POP DUP2 DUP2 SUB PUSH0 DUP4 ADD MSTORE PUSH2 0x150A DUP2 PUSH2 0x14D1 JUMP JUMPDEST SWAP1 POP SWAP2 SWAP1 POP JUMP JUMPDEST PUSH32 0x5472616E7366657220746F2061756374696F6E656572206661696C6564000000 PUSH0 DUP3 ADD MSTORE POP JUMP JUMPDEST PUSH0 PUSH2 0x1545 PUSH1 0x1D DUP4 PUSH2 0xFD6 JUMP JUMPDEST SWAP2 POP PUSH2 0x1550 DUP3 PUSH2 0x1511 JUMP JUMPDEST PUSH1 0x20 DUP3 ADD SWAP1 POP SWAP2 SWAP1 POP JUMP JUMPDEST PUSH0 PUSH1 0x20 DUP3 ADD SWAP1 POP DUP2 DUP2 SUB PUSH0 DUP4 ADD MSTORE PUSH2 0x1572 DUP2 PUSH2 0x1539 JUMP JUMPDEST SWAP1 POP SWAP2 SWAP1 POP JUMP INVALID LOG2 PUSH5 0x6970667358 0x22 SLT KECCAK256 CODESIZE DUP9 0xC KECCAK256 PUSH15 0xA088F608640209882B7557A9808802 0xED 0xBA SHL 0xDD SWAP10 0xDB 0xC AND PUSH16 0xE188A064736F6C634300081A00330000 "
				},
				"gasEstimates": {
					"creation": {
						"codeDepositCost": "1110200",
						"executionCost": "infinite",
						"totalCost": "infinite"
					},
					"external": {
						"auctionActive()": "2511",
						"auctioneer()": "2594",
						"bid()": "infinite",
						"bidHistory(uint256)": "infinite",
						"endAuction()": "infinite",
						"endTime()": "2470",
						"extensionPeriod()": "2447",
						"gasCommission()": "2492",
						"getMaxBid()": "infinite",
						"minimumBid()": "2492",
						"partialWithdraw()": "infinite",
						"refundDeposits()": "infinite",
						"showBids()": "infinite"
					}
				},
				"methodIdentifiers": {
					"auctionActive()": "92228006",
					"auctioneer()": "5ec2c7bf",
					"bid()": "1998aeef",
					"bidHistory(uint256)": "ecde973d",
					"endAuction()": "fe67a54b",
					"endTime()": "3197cbb6",
					"extensionPeriod()": "dedfab72",
					"gasCommission()": "37072780",
					"getMaxBid()": "7e12a251",
					"minimumBid()": "d3a86386",
					"partialWithdraw()": "f90ca117",
					"refundDeposits()": "6773fd77",
					"showBids()": "14d2687c"
				}
			},
			"storageLayout": {
				"storage": [
					{
						"astId": 8,
						"contract": "subasta7.sol:AuctionSergio",
						"label": "auctioneer",
						"offset": 0,
						"slot": "0",
						"type": "t_address"
					},
					{
						"astId": 10,
						"contract": "subasta7.sol:AuctionSergio",
						"label": "endTime",
						"offset": 0,
						"slot": "1",
						"type": "t_uint256"
					},
					{
						"astId": 13,
						"contract": "subasta7.sol:AuctionSergio",
						"label": "extensionPeriod",
						"offset": 0,
						"slot": "2",
						"type": "t_uint256"
					},
					{
						"astId": 15,
						"contract": "subasta7.sol:AuctionSergio",
						"label": "minimumBid",
						"offset": 0,
						"slot": "3",
						"type": "t_uint256"
					},
					{
						"astId": 18,
						"contract": "subasta7.sol:AuctionSergio",
						"label": "gasCommission",
						"offset": 0,
						"slot": "4",
						"type": "t_uint256"
					},
					{
						"astId": 20,
						"contract": "subasta7.sol:AuctionSergio",
						"label": "auctionActive",
						"offset": 0,
						"slot": "5",
						"type": "t_bool"
					},
					{
						"astId": 24,
						"contract": "subasta7.sol:AuctionSergio",
						"label": "bidHistory",
						"offset": 0,
						"slot": "6",
						"type": "t_array(t_struct(Bid)6_storage)dyn_storage"
					}
				],
				"types": {
					"t_address": {
						"encoding": "inplace",
						"label": "address",
						"numberOfBytes": "20"
					},
					"t_array(t_struct(Bid)6_storage)dyn_storage": {
						"base": "t_struct(Bid)6_storage",
						"encoding": "dynamic_array",
						"label": "struct AuctionSergio.Bid[]",
						"numberOfBytes": "32"
					},
					"t_bool": {
						"encoding": "inplace",
						"label": "bool",
						"numberOfBytes": "1"
					},
					"t_struct(Bid)6_storage": {
						"encoding": "inplace",
						"label": "struct AuctionSergio.Bid",
						"members": [
							{
								"astId": 3,
								"contract": "subasta7.sol:AuctionSergio",
								"label": "bidder",
								"offset": 0,
								"slot": "0",
								"type": "t_address"
							},
							{
								"astId": 5,
								"contract": "subasta7.sol:AuctionSergio",
								"label": "amount",
								"offset": 0,
								"slot": "1",
								"type": "t_uint256"
							}
						],
						"numberOfBytes": "64"
					},
					"t_uint256": {
						"encoding": "inplace",
						"label": "uint256",
						"numberOfBytes": "32"
					}
				}
			},
			"userdoc": {
				"kind": "user",
				"methods": {},
				"version": 1
			}
		}
	}
}