{
	"subasta8.sol": {
		"AuctionSergiommm": {
			"abi": [
				{
					"inputs": [
						{
							"internalType": "uint256",
							"name": "_initialBid",
							"type": "uint256"
						}
					],
					"stateMutability": "nonpayable",
					"type": "constructor"
				},
				{
					"anonymous": false,
					"inputs": [
						{
							"indexed": false,
							"internalType": "address",
							"name": "winner",
							"type": "address"
						},
						{
							"indexed": false,
							"internalType": "uint256",
							"name": "winningAmount",
							"type": "uint256"
						}
					],
					"name": "AuctionEnded",
					"type": "event"
				},
				{
					"anonymous": false,
					"inputs": [
						{
							"indexed": true,
							"internalType": "address",
							"name": "bidder",
							"type": "address"
						},
						{
							"indexed": false,
							"internalType": "uint256",
							"name": "amount",
							"type": "uint256"
						}
					],
					"name": "NewBid",
					"type": "event"
				},
				{
					"inputs": [],
					"name": "EXTENSION_PERIOD",
					"outputs": [
						{
							"internalType": "uint32",
							"name": "",
							"type": "uint32"
						}
					],
					"stateMutability": "view",
					"type": "function"
				},
				{
					"inputs": [],
					"name": "GAS_COMMISSION",
					"outputs": [
						{
							"internalType": "uint8",
							"name": "",
							"type": "uint8"
						}
					],
					"stateMutability": "view",
					"type": "function"
				},
				{
					"inputs": [],
					"name": "auctionActive",
					"outputs": [
						{
							"internalType": "bool",
							"name": "",
							"type": "bool"
						}
					],
					"stateMutability": "view",
					"type": "function"
				},
				{
					"inputs": [],
					"name": "auctioneer",
					"outputs": [
						{
							"internalType": "address",
							"name": "",
							"type": "address"
						}
					],
					"stateMutability": "view",
					"type": "function"
				},
				{
					"inputs": [],
					"name": "bid",
					"outputs": [],
					"stateMutability": "payable",
					"type": "function"
				},
				{
					"inputs": [
						{
							"internalType": "uint256",
							"name": "",
							"type": "uint256"
						}
					],
					"name": "bidHistory",
					"outputs": [
						{
							"internalType": "address",
							"name": "bidder",
							"type": "address"
						},
						{
							"internalType": "uint256",
							"name": "amount",
							"type": "uint256"
						}
					],
					"stateMutability": "view",
					"type": "function"
				},
				{
					"inputs": [],
					"name": "endAuction",
					"outputs": [],
					"stateMutability": "nonpayable",
					"type": "function"
				},
				{
					"inputs": [],
					"name": "endTime",
					"outputs": [
						{
							"internalType": "uint256",
							"name": "",
							"type": "uint256"
						}
					],
					"stateMutability": "view",
					"type": "function"
				},
				{
					"inputs": [],
					"name": "getMaxBid",
					"outputs": [
						{
							"internalType": "uint256",
							"name": "",
							"type": "uint256"
						}
					],
					"stateMutability": "view",
					"type": "function"
				},
				{
					"inputs": [],
					"name": "minimumBid",
					"outputs": [
						{
							"internalType": "uint256",
							"name": "",
							"type": "uint256"
						}
					],
					"stateMutability": "view",
					"type": "function"
				},
				{
					"inputs": [],
					"name": "partialWithdraw",
					"outputs": [],
					"stateMutability": "nonpayable",
					"type": "function"
				},
				{
					"inputs": [],
					"name": "refundDeposits",
					"outputs": [],
					"stateMutability": "nonpayable",
					"type": "function"
				},
				{
					"inputs": [],
					"name": "showBids",
					"outputs": [
						{
							"components": [
								{
									"internalType": "address",
									"name": "bidder",
									"type": "address"
								},
								{
									"internalType": "uint256",
									"name": "amount",
									"type": "uint256"
								}
							],
							"internalType": "struct AuctionSergiommm.Bid[]",
							"name": "",
							"type": "tuple[]"
						}
					],
					"stateMutability": "view",
					"type": "function"
				}
			],
			"devdoc": {
				"author": "Sergio Muñoz",
				"details": "This is a simple auction implementation with time extensions, bid history, and deposit refunds.",
				"kind": "dev",
				"methods": {},
				"title": "Final Work - Module 2 - Auction ",
				"version": 1
			},
			"evm": {
				"assembly": "    /* \"subasta8.sol\":340:3797  contract AuctionSergiommm {... */\n  mstore(0x40, 0x80)\n    /* \"subasta8.sol\":903:1152  constructor(uint _initialBid) {... */\n  callvalue\n  dup1\n  iszero\n  tag_1\n  jumpi\n  0x00\n  dup1\n  revert\ntag_1:\n  pop\n  mload(0x40)\n  sub(codesize, bytecodeSize)\n  dup1\n  bytecodeSize\n  dup4\n  codecopy\n  dup2\n  dup2\n  add\n  0x40\n  mstore\n  dup2\n  add\n  swap1\n  tag_2\n  swap2\n  swap1\n  tag_3\n  jump\t// in\ntag_2:\n    /* \"subasta8.sol\":957:967  msg.sender */\n  caller\n    /* \"subasta8.sol\":944:954  auctioneer */\n  0x00\n  dup1\n    /* \"subasta8.sol\":944:967  auctioneer = msg.sender */\n  0x0100\n  exp\n  dup2\n  sload\n  dup2\n  0xffffffffffffffffffffffffffffffffffffffff\n  mul\n  not\n  and\n  swap1\n  dup4\n  0xffffffffffffffffffffffffffffffffffffffff\n  and\n  mul\n  or\n  swap1\n  sstore\n  pop\n    /* \"subasta8.sol\":991:1002  _initialBid */\n  dup1\n    /* \"subasta8.sol\":978:988  minimumBid */\n  0x02\n    /* \"subasta8.sol\":978:1002  minimumBid = _initialBid */\n  dup2\n  swap1\n  sstore\n  pop\n    /* \"subasta8.sol\":1029:1033  true */\n  0x01\n    /* \"subasta8.sol\":1013:1026  auctionActive */\n  0x03\n  0x00\n    /* \"subasta8.sol\":1013:1033  auctionActive = true */\n  0x0100\n  exp\n  dup2\n  sload\n  dup2\n  0xff\n  mul\n  not\n  and\n  swap1\n  dup4\n  iszero\n  iszero\n  mul\n  or\n  swap1\n  sstore\n  pop\n    /* \"subasta8.sol\":587:596  2 minutes */\n  0x78\n    /* \"subasta8.sol\":1054:1088  block.timestamp + EXTENSION_PERIOD */\n  0xffffffff\n  and\n    /* \"subasta8.sol\":1054:1069  block.timestamp */\n  timestamp\n    /* \"subasta8.sol\":1054:1088  block.timestamp + EXTENSION_PERIOD */\n  tag_6\n  swap2\n  swap1\n  tag_7\n  jump\t// in\ntag_6:\n    /* \"subasta8.sol\":1044:1051  endTime */\n  0x01\n    /* \"subasta8.sol\":1044:1088  endTime = block.timestamp + EXTENSION_PERIOD */\n  dup2\n  swap1\n  sstore\n  pop\n    /* \"subasta8.sol\":1099:1109  bidHistory */\n  0x04\n    /* \"subasta8.sol\":1115:1143  Bid(msg.sender, _initialBid) */\n  mload(0x40)\n  dup1\n  0x40\n  add\n  0x40\n  mstore\n  dup1\n    /* \"subasta8.sol\":1119:1129  msg.sender */\n  caller\n    /* \"subasta8.sol\":1115:1143  Bid(msg.sender, _initialBid) */\n  0xffffffffffffffffffffffffffffffffffffffff\n  and\n  dup2\n  mstore\n  0x20\n  add\n    /* \"subasta8.sol\":1131:1142  _initialBid */\n  dup4\n    /* \"subasta8.sol\":1115:1143  Bid(msg.sender, _initialBid) */\n  dup2\n  mstore\n  pop\n    /* \"subasta8.sol\":1099:1144  bidHistory.push(Bid(msg.sender, _initialBid)) */\n  swap1\n  dup1\n  0x01\n  dup2\n  sload\n  add\n  dup1\n  dup3\n  sstore\n  dup1\n  swap2\n  pop\n  pop\n  0x01\n  swap1\n  sub\n  swap1\n  0x00\n  mstore\n  keccak256(0x00, 0x20)\n  swap1\n  0x02\n  mul\n  add\n  0x00\n  swap1\n  swap2\n  swap1\n  swap2\n  swap1\n  swap2\n  pop\n  0x00\n  dup3\n  add\n  mload\n  dup2\n  0x00\n  add\n  exp(0x0100, 0x00)\n  dup2\n  sload\n  dup2\n  0xffffffffffffffffffffffffffffffffffffffff\n  mul\n  not\n  and\n  swap1\n  dup4\n  0xffffffffffffffffffffffffffffffffffffffff\n  and\n  mul\n  or\n  swap1\n  sstore\n  pop\n  0x20\n  dup3\n  add\n  mload\n  dup2\n  0x01\n  add\n  sstore\n  pop\n  pop\n    /* \"subasta8.sol\":903:1152  constructor(uint _initialBid) {... */\n  pop\n    /* \"subasta8.sol\":340:3797  contract AuctionSergiommm {... */\n  jump(tag_9)\n    /* \"#utility.yul\":88:205   */\ntag_11:\n    /* \"#utility.yul\":197:198   */\n  0x00\n    /* \"#utility.yul\":194:195   */\n  dup1\n    /* \"#utility.yul\":187:199   */\n  revert\n    /* \"#utility.yul\":334:411   */\ntag_13:\n    /* \"#utility.yul\":371:378   */\n  0x00\n    /* \"#utility.yul\":400:405   */\n  dup2\n    /* \"#utility.yul\":389:405   */\n  swap1\n  pop\n    /* \"#utility.yul\":334:411   */\n  swap2\n  swap1\n  pop\n  jump\t// out\n    /* \"#utility.yul\":417:539   */\ntag_14:\n    /* \"#utility.yul\":490:514   */\n  tag_23\n    /* \"#utility.yul\":508:513   */\n  dup2\n    /* \"#utility.yul\":490:514   */\n  tag_13\n  jump\t// in\ntag_23:\n    /* \"#utility.yul\":483:488   */\n  dup2\n    /* \"#utility.yul\":480:515   */\n  eq\n    /* \"#utility.yul\":470:533   */\n  tag_24\n  jumpi\n    /* \"#utility.yul\":529:530   */\n  0x00\n    /* \"#utility.yul\":526:527   */\n  dup1\n    /* \"#utility.yul\":519:531   */\n  revert\n    /* \"#utility.yul\":470:533   */\ntag_24:\n    /* \"#utility.yul\":417:539   */\n  pop\n  jump\t// out\n    /* \"#utility.yul\":545:688   */\ntag_15:\n    /* \"#utility.yul\":602:607   */\n  0x00\n    /* \"#utility.yul\":633:639   */\n  dup2\n    /* \"#utility.yul\":627:640   */\n  mload\n    /* \"#utility.yul\":618:640   */\n  swap1\n  pop\n    /* \"#utility.yul\":649:682   */\n  tag_26\n    /* \"#utility.yul\":676:681   */\n  dup2\n    /* \"#utility.yul\":649:682   */\n  tag_14\n  jump\t// in\ntag_26:\n    /* \"#utility.yul\":545:688   */\n  swap3\n  swap2\n  pop\n  pop\n  jump\t// out\n    /* \"#utility.yul\":694:1045   */\ntag_3:\n    /* \"#utility.yul\":764:770   */\n  0x00\n    /* \"#utility.yul\":813:815   */\n  0x20\n    /* \"#utility.yul\":801:810   */\n  dup3\n    /* \"#utility.yul\":792:799   */\n  dup5\n    /* \"#utility.yul\":788:811   */\n  sub\n    /* \"#utility.yul\":784:816   */\n  slt\n    /* \"#utility.yul\":781:900   */\n  iszero\n  tag_28\n  jumpi\n    /* \"#utility.yul\":819:898   */\n  tag_29\n  tag_11\n  jump\t// in\ntag_29:\n    /* \"#utility.yul\":781:900   */\ntag_28:\n    /* \"#utility.yul\":939:940   */\n  0x00\n    /* \"#utility.yul\":964:1028   */\n  tag_30\n    /* \"#utility.yul\":1020:1027   */\n  dup5\n    /* \"#utility.yul\":1011:1017   */\n  dup3\n    /* \"#utility.yul\":1000:1009   */\n  dup6\n    /* \"#utility.yul\":996:1018   */\n  add\n    /* \"#utility.yul\":964:1028   */\n  tag_15\n  jump\t// in\ntag_30:\n    /* \"#utility.yul\":954:1028   */\n  swap2\n  pop\n    /* \"#utility.yul\":910:1038   */\n  pop\n    /* \"#utility.yul\":694:1045   */\n  swap3\n  swap2\n  pop\n  pop\n  jump\t// out\n    /* \"#utility.yul\":1051:1231   */\ntag_16:\n    /* \"#utility.yul\":1099:1176   */\n  0x4e487b7100000000000000000000000000000000000000000000000000000000\n    /* \"#utility.yul\":1096:1097   */\n  0x00\n    /* \"#utility.yul\":1089:1177   */\n  mstore\n    /* \"#utility.yul\":1196:1200   */\n  0x11\n    /* \"#utility.yul\":1193:1194   */\n  0x04\n    /* \"#utility.yul\":1186:1201   */\n  mstore\n    /* \"#utility.yul\":1220:1224   */\n  0x24\n    /* \"#utility.yul\":1217:1218   */\n  0x00\n    /* \"#utility.yul\":1210:1225   */\n  revert\n    /* \"#utility.yul\":1237:1428   */\ntag_7:\n    /* \"#utility.yul\":1277:1280   */\n  0x00\n    /* \"#utility.yul\":1296:1316   */\n  tag_33\n    /* \"#utility.yul\":1314:1315   */\n  dup3\n    /* \"#utility.yul\":1296:1316   */\n  tag_13\n  jump\t// in\ntag_33:\n    /* \"#utility.yul\":1291:1316   */\n  swap2\n  pop\n    /* \"#utility.yul\":1330:1350   */\n  tag_34\n    /* \"#utility.yul\":1348:1349   */\n  dup4\n    /* \"#utility.yul\":1330:1350   */\n  tag_13\n  jump\t// in\ntag_34:\n    /* \"#utility.yul\":1325:1350   */\n  swap3\n  pop\n    /* \"#utility.yul\":1373:1374   */\n  dup3\n    /* \"#utility.yul\":1370:1371   */\n  dup3\n    /* \"#utility.yul\":1366:1375   */\n  add\n    /* \"#utility.yul\":1359:1375   */\n  swap1\n  pop\n    /* \"#utility.yul\":1394:1397   */\n  dup1\n    /* \"#utility.yul\":1391:1392   */\n  dup3\n    /* \"#utility.yul\":1388:1398   */\n  gt\n    /* \"#utility.yul\":1385:1421   */\n  iszero\n  tag_35\n  jumpi\n    /* \"#utility.yul\":1401:1419   */\n  tag_36\n  tag_16\n  jump\t// in\ntag_36:\n    /* \"#utility.yul\":1385:1421   */\ntag_35:\n    /* \"#utility.yul\":1237:1428   */\n  swap3\n  swap2\n  pop\n  pop\n  jump\t// out\n    /* \"subasta8.sol\":340:3797  contract AuctionSergiommm {... */\ntag_9:\n  dataSize(sub_0)\n  dup1\n  dataOffset(sub_0)\n  0x00\n  codecopy\n  0x00\n  return\nstop\n\nsub_0: assembly {\n        /* \"subasta8.sol\":340:3797  contract AuctionSergiommm {... */\n      mstore(0x40, 0x80)\n      jumpi(tag_1, lt(calldatasize, 0x04))\n      shr(0xe0, calldataload(0x00))\n      dup1\n      0x7e12a251\n      gt\n      tag_15\n      jumpi\n      dup1\n      0xd3a86386\n      gt\n      tag_16\n      jumpi\n      dup1\n      0xd3a86386\n      eq\n      tag_11\n      jumpi\n      dup1\n      0xecde973d\n      eq\n      tag_12\n      jumpi\n      dup1\n      0xf90ca117\n      eq\n      tag_13\n      jumpi\n      dup1\n      0xfe67a54b\n      eq\n      tag_14\n      jumpi\n      jump(tag_1)\n    tag_16:\n      dup1\n      0x7e12a251\n      eq\n      tag_8\n      jumpi\n      dup1\n      0x92228006\n      eq\n      tag_9\n      jumpi\n      dup1\n      0xc2e8c498\n      eq\n      tag_10\n      jumpi\n      jump(tag_1)\n    tag_15:\n      dup1\n      0x110b093a\n      eq\n      tag_2\n      jumpi\n      dup1\n      0x14d2687c\n      eq\n      tag_3\n      jumpi\n      dup1\n      0x1998aeef\n      eq\n      tag_4\n      jumpi\n      dup1\n      0x3197cbb6\n      eq\n      tag_5\n      jumpi\n      dup1\n      0x5ec2c7bf\n      eq\n      tag_6\n      jumpi\n      dup1\n      0x6773fd77\n      eq\n      tag_7\n      jumpi\n    tag_1:\n      0x00\n      dup1\n      revert\n        /* \"subasta8.sol\":632:672  uint8 public constant GAS_COMMISSION = 2 */\n    tag_2:\n      callvalue\n      dup1\n      iszero\n      tag_17\n      jumpi\n      0x00\n      dup1\n      revert\n    tag_17:\n      pop\n      tag_18\n      tag_19\n      jump\t// in\n    tag_18:\n      mload(0x40)\n      tag_20\n      swap2\n      swap1\n      tag_21\n      jump\t// in\n    tag_20:\n      mload(0x40)\n      dup1\n      swap2\n      sub\n      swap1\n      return\n        /* \"subasta8.sol\":3554:3647  function showBids() external view returns (Bid[] memory) {... */\n    tag_3:\n      callvalue\n      dup1\n      iszero\n      tag_22\n      jumpi\n      0x00\n      dup1\n      revert\n    tag_22:\n      pop\n      tag_23\n      tag_24\n      jump\t// in\n    tag_23:\n      mload(0x40)\n      tag_25\n      swap2\n      swap1\n      tag_26\n      jump\t// in\n    tag_25:\n      mload(0x40)\n      dup1\n      swap2\n      sub\n      swap1\n      return\n        /* \"subasta8.sol\":1469:1945  function bid() external payable onlyWhileActive {... */\n    tag_4:\n      tag_27\n      tag_28\n      jump\t// in\n    tag_27:\n      stop\n        /* \"subasta8.sol\":519:538  uint public endTime */\n    tag_5:\n      callvalue\n      dup1\n      iszero\n      tag_29\n      jumpi\n      0x00\n      dup1\n      revert\n    tag_29:\n      pop\n      tag_30\n      tag_31\n      jump\t// in\n    tag_30:\n      mload(0x40)\n      tag_32\n      swap2\n      swap1\n      tag_33\n      jump\t// in\n    tag_32:\n      mload(0x40)\n      dup1\n      swap2\n      sub\n      swap1\n      return\n        /* \"subasta8.sol\":487:512  address public auctioneer */\n    tag_6:\n      callvalue\n      dup1\n      iszero\n      tag_34\n      jumpi\n      0x00\n      dup1\n      revert\n    tag_34:\n      pop\n      tag_35\n      tag_36\n      jump\t// in\n    tag_35:\n      mload(0x40)\n      tag_37\n      swap2\n      swap1\n      tag_38\n      jump\t// in\n    tag_37:\n      mload(0x40)\n      dup1\n      swap2\n      sub\n      swap1\n      return\n        /* \"subasta8.sol\":2451:3072  function refundDeposits() external onlyAuctioneer {... */\n    tag_7:\n      callvalue\n      dup1\n      iszero\n      tag_39\n      jumpi\n      0x00\n      dup1\n      revert\n    tag_39:\n      pop\n      tag_40\n      tag_41\n      jump\t// in\n    tag_40:\n      stop\n        /* \"subasta8.sol\":3680:3794  function getMaxBid() public view returns (uint) {... */\n    tag_8:\n      callvalue\n      dup1\n      iszero\n      tag_42\n      jumpi\n      0x00\n      dup1\n      revert\n    tag_42:\n      pop\n      tag_43\n      tag_44\n      jump\t// in\n    tag_43:\n      mload(0x40)\n      tag_45\n      swap2\n      swap1\n      tag_33\n      jump\t// in\n    tag_45:\n      mload(0x40)\n      dup1\n      swap2\n      sub\n      swap1\n      return\n        /* \"subasta8.sol\":685:710  bool public auctionActive */\n    tag_9:\n      callvalue\n      dup1\n      iszero\n      tag_46\n      jumpi\n      0x00\n      dup1\n      revert\n    tag_46:\n      pop\n      tag_47\n      tag_48\n      jump\t// in\n    tag_47:\n      mload(0x40)\n      tag_49\n      swap2\n      swap1\n      tag_50\n      jump\t// in\n    tag_49:\n      mload(0x40)\n      dup1\n      swap2\n      sub\n      swap1\n      return\n        /* \"subasta8.sol\":545:596  uint32 public constant EXTENSION_PERIOD = 2 minutes */\n    tag_10:\n      callvalue\n      dup1\n      iszero\n      tag_51\n      jumpi\n      0x00\n      dup1\n      revert\n    tag_51:\n      pop\n      tag_52\n      tag_53\n      jump\t// in\n    tag_52:\n      mload(0x40)\n      tag_54\n      swap2\n      swap1\n      tag_55\n      jump\t// in\n    tag_54:\n      mload(0x40)\n      dup1\n      swap2\n      sub\n      swap1\n      return\n        /* \"subasta8.sol\":603:625  uint public minimumBid */\n    tag_11:\n      callvalue\n      dup1\n      iszero\n      tag_56\n      jumpi\n      0x00\n      dup1\n      revert\n    tag_56:\n      pop\n      tag_57\n      tag_58\n      jump\t// in\n    tag_57:\n      mload(0x40)\n      tag_59\n      swap2\n      swap1\n      tag_33\n      jump\t// in\n    tag_59:\n      mload(0x40)\n      dup1\n      swap2\n      sub\n      swap1\n      return\n        /* \"subasta8.sol\":717:740  Bid[] public bidHistory */\n    tag_12:\n      callvalue\n      dup1\n      iszero\n      tag_60\n      jumpi\n      0x00\n      dup1\n      revert\n    tag_60:\n      pop\n      tag_61\n      0x04\n      dup1\n      calldatasize\n      sub\n      dup2\n      add\n      swap1\n      tag_62\n      swap2\n      swap1\n      tag_63\n      jump\t// in\n    tag_62:\n      tag_64\n      jump\t// in\n    tag_61:\n      mload(0x40)\n      tag_65\n      swap3\n      swap2\n      swap1\n      tag_66\n      jump\t// in\n    tag_65:\n      mload(0x40)\n      dup1\n      swap2\n      sub\n      swap1\n      return\n        /* \"subasta8.sol\":3080:3546  function partialWithdraw() external onlyWhileActive {... */\n    tag_13:\n      callvalue\n      dup1\n      iszero\n      tag_67\n      jumpi\n      0x00\n      dup1\n      revert\n    tag_67:\n      pop\n      tag_68\n      tag_69\n      jump\t// in\n    tag_68:\n      stop\n        /* \"subasta8.sol\":1953:2443  function endAuction() external onlyAuctioneer {... */\n    tag_14:\n      callvalue\n      dup1\n      iszero\n      tag_70\n      jumpi\n      0x00\n      dup1\n      revert\n    tag_70:\n      pop\n      tag_71\n      tag_72\n      jump\t// in\n    tag_71:\n      stop\n        /* \"subasta8.sol\":632:672  uint8 public constant GAS_COMMISSION = 2 */\n    tag_19:\n        /* \"subasta8.sol\":671:672  2 */\n      0x02\n        /* \"subasta8.sol\":632:672  uint8 public constant GAS_COMMISSION = 2 */\n      dup2\n      jump\t// out\n        /* \"subasta8.sol\":3554:3647  function showBids() external view returns (Bid[] memory) {... */\n    tag_24:\n        /* \"subasta8.sol\":3597:3609  Bid[] memory */\n      0x60\n        /* \"subasta8.sol\":3629:3639  bidHistory */\n      0x04\n        /* \"subasta8.sol\":3622:3639  return bidHistory */\n      dup1\n      sload\n      dup1\n      0x20\n      mul\n      0x20\n      add\n      mload(0x40)\n      swap1\n      dup2\n      add\n      0x40\n      mstore\n      dup1\n      swap3\n      swap2\n      swap1\n      dup2\n      dup2\n      mstore\n      0x20\n      add\n      0x00\n      swap1\n    tag_74:\n      dup3\n      dup3\n      lt\n      iszero\n      tag_75\n      jumpi\n      dup4\n      dup3\n      swap1\n      0x00\n      mstore\n      keccak256(0x00, 0x20)\n      swap1\n      0x02\n      mul\n      add\n      mload(0x40)\n      dup1\n      0x40\n      add\n      0x40\n      mstore\n      swap1\n      dup2\n      0x00\n      dup3\n      add\n      0x00\n      swap1\n      sload\n      swap1\n      0x0100\n      exp\n      swap1\n      div\n      0xffffffffffffffffffffffffffffffffffffffff\n      and\n      0xffffffffffffffffffffffffffffffffffffffff\n      and\n      0xffffffffffffffffffffffffffffffffffffffff\n      and\n      dup2\n      mstore\n      0x20\n      add\n      0x01\n      dup3\n      add\n      sload\n      dup2\n      mstore\n      pop\n      pop\n      dup2\n      mstore\n      0x20\n      add\n      swap1\n      0x01\n      add\n      swap1\n      jump(tag_74)\n    tag_75:\n      pop\n      pop\n      pop\n      pop\n      swap1\n      pop\n        /* \"subasta8.sol\":3554:3647  function showBids() external view returns (Bid[] memory) {... */\n      swap1\n      jump\t// out\n        /* \"subasta8.sol\":1469:1945  function bid() external payable onlyWhileActive {... */\n    tag_28:\n        /* \"subasta8.sol\":1371:1384  auctionActive */\n      0x03\n      0x00\n      swap1\n      sload\n      swap1\n      0x0100\n      exp\n      swap1\n      div\n      0xff\n      and\n        /* \"subasta8.sol\":1363:1414  require(auctionActive, \"The auction is not active\") */\n      tag_78\n      jumpi\n      mload(0x40)\n      0x08c379a000000000000000000000000000000000000000000000000000000000\n      dup2\n      mstore\n      0x04\n      add\n      tag_79\n      swap1\n      tag_80\n      jump\t// in\n    tag_79:\n      mload(0x40)\n      dup1\n      swap2\n      sub\n      swap1\n      revert\n    tag_78:\n        /* \"subasta8.sol\":1528:1546  uint currentMaxBid */\n      0x00\n        /* \"subasta8.sol\":1549:1560  getMaxBid() */\n      tag_82\n        /* \"subasta8.sol\":1549:1558  getMaxBid */\n      tag_44\n        /* \"subasta8.sol\":1549:1560  getMaxBid() */\n      jump\t// in\n    tag_82:\n        /* \"subasta8.sol\":1528:1560  uint currentMaxBid = getMaxBid() */\n      swap1\n      pop\n        /* \"subasta8.sol\":1614:1617  100 */\n      0x64\n        /* \"subasta8.sol\":1608:1611  105 */\n      0x69\n        /* \"subasta8.sol\":1592:1605  currentMaxBid */\n      dup3\n        /* \"subasta8.sol\":1592:1611  currentMaxBid * 105 */\n      tag_83\n      swap2\n      swap1\n      tag_84\n      jump\t// in\n    tag_83:\n        /* \"subasta8.sol\":1592:1617  currentMaxBid * 105 / 100 */\n      tag_85\n      swap2\n      swap1\n      tag_86\n      jump\t// in\n    tag_85:\n        /* \"subasta8.sol\":1579:1588  msg.value */\n      callvalue\n        /* \"subasta8.sol\":1579:1617  msg.value >= currentMaxBid * 105 / 100 */\n      lt\n      iszero\n        /* \"subasta8.sol\":1571:1673  require(msg.value >= currentMaxBid * 105 / 100, \"Bid must be at least 5% higher than the current bid\") */\n      tag_87\n      jumpi\n      mload(0x40)\n      0x08c379a000000000000000000000000000000000000000000000000000000000\n      dup2\n      mstore\n      0x04\n      add\n      tag_88\n      swap1\n      tag_89\n      jump\t// in\n    tag_88:\n      mload(0x40)\n      dup1\n      swap2\n      sub\n      swap1\n      revert\n    tag_87:\n        /* \"subasta8.sol\":1710:1717  endTime */\n      sload(0x01)\n        /* \"subasta8.sol\":1692:1707  block.timestamp */\n      timestamp\n        /* \"subasta8.sol\":1692:1717  block.timestamp < endTime */\n      lt\n        /* \"subasta8.sol\":1684:1743  require(block.timestamp < endTime, \"The auction has ended\") */\n      tag_90\n      jumpi\n      mload(0x40)\n      0x08c379a000000000000000000000000000000000000000000000000000000000\n      dup2\n      mstore\n      0x04\n      add\n      tag_91\n      swap1\n      tag_92\n      jump\t// in\n    tag_91:\n      mload(0x40)\n      dup1\n      swap2\n      sub\n      swap1\n      revert\n    tag_90:\n        /* \"subasta8.sol\":587:596  2 minutes */\n      0x78\n        /* \"subasta8.sol\":1802:1836  block.timestamp + EXTENSION_PERIOD */\n      0xffffffff\n      and\n        /* \"subasta8.sol\":1802:1817  block.timestamp */\n      timestamp\n        /* \"subasta8.sol\":1802:1836  block.timestamp + EXTENSION_PERIOD */\n      tag_93\n      swap2\n      swap1\n      tag_94\n      jump\t// in\n    tag_93:\n        /* \"subasta8.sol\":1792:1799  endTime */\n      0x01\n        /* \"subasta8.sol\":1792:1836  endTime = block.timestamp + EXTENSION_PERIOD */\n      dup2\n      swap1\n      sstore\n      pop\n        /* \"subasta8.sol\":1849:1859  bidHistory */\n      0x04\n        /* \"subasta8.sol\":1865:1891  Bid(msg.sender, msg.value) */\n      mload(0x40)\n      dup1\n      0x40\n      add\n      0x40\n      mstore\n      dup1\n        /* \"subasta8.sol\":1869:1879  msg.sender */\n      caller\n        /* \"subasta8.sol\":1865:1891  Bid(msg.sender, msg.value) */\n      0xffffffffffffffffffffffffffffffffffffffff\n      and\n      dup2\n      mstore\n      0x20\n      add\n        /* \"subasta8.sol\":1881:1890  msg.value */\n      callvalue\n        /* \"subasta8.sol\":1865:1891  Bid(msg.sender, msg.value) */\n      dup2\n      mstore\n      pop\n        /* \"subasta8.sol\":1849:1892  bidHistory.push(Bid(msg.sender, msg.value)) */\n      swap1\n      dup1\n      0x01\n      dup2\n      sload\n      add\n      dup1\n      dup3\n      sstore\n      dup1\n      swap2\n      pop\n      pop\n      0x01\n      swap1\n      sub\n      swap1\n      0x00\n      mstore\n      keccak256(0x00, 0x20)\n      swap1\n      0x02\n      mul\n      add\n      0x00\n      swap1\n      swap2\n      swap1\n      swap2\n      swap1\n      swap2\n      pop\n      0x00\n      dup3\n      add\n      mload\n      dup2\n      0x00\n      add\n      exp(0x0100, 0x00)\n      dup2\n      sload\n      dup2\n      0xffffffffffffffffffffffffffffffffffffffff\n      mul\n      not\n      and\n      swap1\n      dup4\n      0xffffffffffffffffffffffffffffffffffffffff\n      and\n      mul\n      or\n      swap1\n      sstore\n      pop\n      0x20\n      dup3\n      add\n      mload\n      dup2\n      0x01\n      add\n      sstore\n      pop\n      pop\n        /* \"subasta8.sol\":1915:1925  msg.sender */\n      caller\n        /* \"subasta8.sol\":1908:1937  NewBid(msg.sender, msg.value) */\n      0xffffffffffffffffffffffffffffffffffffffff\n      and\n      0xdd0b6c6a77960e2066c96171b4d7ac9e8b4c184011f38544afa36a5bb63ec59f\n        /* \"subasta8.sol\":1927:1936  msg.value */\n      callvalue\n        /* \"subasta8.sol\":1908:1937  NewBid(msg.sender, msg.value) */\n      mload(0x40)\n      tag_96\n      swap2\n      swap1\n      tag_33\n      jump\t// in\n    tag_96:\n      mload(0x40)\n      dup1\n      swap2\n      sub\n      swap1\n      log2\n        /* \"subasta8.sol\":1517:1945  {... */\n      pop\n        /* \"subasta8.sol\":1469:1945  function bid() external payable onlyWhileActive {... */\n      jump\t// out\n        /* \"subasta8.sol\":519:538  uint public endTime */\n    tag_31:\n      sload(0x01)\n      dup2\n      jump\t// out\n        /* \"subasta8.sol\":487:512  address public auctioneer */\n    tag_36:\n      0x00\n      dup1\n      sload\n      swap1\n      0x0100\n      exp\n      swap1\n      div\n      0xffffffffffffffffffffffffffffffffffffffff\n      and\n      dup2\n      jump\t// out\n        /* \"subasta8.sol\":2451:3072  function refundDeposits() external onlyAuctioneer {... */\n    tag_41:\n        /* \"subasta8.sol\":1237:1247  auctioneer */\n      0x00\n      dup1\n      sload\n      swap1\n      0x0100\n      exp\n      swap1\n      div\n      0xffffffffffffffffffffffffffffffffffffffff\n      and\n        /* \"subasta8.sol\":1223:1247  msg.sender == auctioneer */\n      0xffffffffffffffffffffffffffffffffffffffff\n      and\n        /* \"subasta8.sol\":1223:1233  msg.sender */\n      caller\n        /* \"subasta8.sol\":1223:1247  msg.sender == auctioneer */\n      0xffffffffffffffffffffffffffffffffffffffff\n      and\n      eq\n        /* \"subasta8.sol\":1215:1297  require(msg.sender == auctioneer, \"Only the auctioneer can execute this function\") */\n      tag_98\n      jumpi\n      mload(0x40)\n      0x08c379a000000000000000000000000000000000000000000000000000000000\n      dup2\n      mstore\n      0x04\n      add\n      tag_99\n      swap1\n      tag_100\n      jump\t// in\n    tag_99:\n      mload(0x40)\n      dup1\n      swap2\n      sub\n      swap1\n      revert\n    tag_98:\n        /* \"subasta8.sol\":2521:2534  auctionActive */\n      0x03\n      0x00\n      swap1\n      sload\n      swap1\n      0x0100\n      exp\n      swap1\n      div\n      0xff\n      and\n        /* \"subasta8.sol\":2520:2534  !auctionActive */\n      iszero\n        /* \"subasta8.sol\":2512:2566  require(!auctionActive, \"The auction is still active\") */\n      tag_102\n      jumpi\n      mload(0x40)\n      0x08c379a000000000000000000000000000000000000000000000000000000000\n      dup2\n      mstore\n      0x04\n      add\n      tag_103\n      swap1\n      tag_104\n      jump\t// in\n    tag_103:\n      mload(0x40)\n      dup1\n      swap2\n      sub\n      swap1\n      revert\n    tag_102:\n        /* \"subasta8.sol\":2579:2593  address winner */\n      0x00\n        /* \"subasta8.sol\":2596:2606  bidHistory */\n      0x04\n        /* \"subasta8.sol\":2627:2628  1 */\n      0x01\n        /* \"subasta8.sol\":2607:2617  bidHistory */\n      0x04\n        /* \"subasta8.sol\":2607:2624  bidHistory.length */\n      dup1\n      sload\n      swap1\n      pop\n        /* \"subasta8.sol\":2607:2628  bidHistory.length - 1 */\n      tag_105\n      swap2\n      swap1\n      tag_106\n      jump\t// in\n    tag_105:\n        /* \"subasta8.sol\":2596:2629  bidHistory[bidHistory.length - 1] */\n      dup2\n      sload\n      dup2\n      lt\n      tag_107\n      jumpi\n      tag_108\n      tag_109\n      jump\t// in\n    tag_108:\n    tag_107:\n      swap1\n      0x00\n      mstore\n      keccak256(0x00, 0x20)\n      swap1\n      0x02\n      mul\n      add\n        /* \"subasta8.sol\":2596:2636  bidHistory[bidHistory.length - 1].bidder */\n      0x00\n      add\n      0x00\n      swap1\n      sload\n      swap1\n      0x0100\n      exp\n      swap1\n      div\n      0xffffffffffffffffffffffffffffffffffffffff\n      and\n        /* \"subasta8.sol\":2579:2636  address winner = bidHistory[bidHistory.length - 1].bidder */\n      swap1\n      pop\n        /* \"subasta8.sol\":2654:2660  uint i */\n      0x00\n        /* \"subasta8.sol\":2663:2664  1 */\n      0x01\n        /* \"subasta8.sol\":2654:2664  uint i = 1 */\n      swap1\n      pop\n        /* \"subasta8.sol\":2649:3065  for (uint i = 1; i < bidHistory.length - 1; i++) {... */\n    tag_111:\n        /* \"subasta8.sol\":2690:2691  1 */\n      0x01\n        /* \"subasta8.sol\":2670:2680  bidHistory */\n      0x04\n        /* \"subasta8.sol\":2670:2687  bidHistory.length */\n      dup1\n      sload\n      swap1\n      pop\n        /* \"subasta8.sol\":2670:2691  bidHistory.length - 1 */\n      tag_114\n      swap2\n      swap1\n      tag_106\n      jump\t// in\n    tag_114:\n        /* \"subasta8.sol\":2666:2667  i */\n      dup2\n        /* \"subasta8.sol\":2666:2691  i < bidHistory.length - 1 */\n      lt\n        /* \"subasta8.sol\":2649:3065  for (uint i = 1; i < bidHistory.length - 1; i++) {... */\n      iszero\n      tag_112\n      jumpi\n        /* \"subasta8.sol\":2713:2734  Bid memory currentBid */\n      0x00\n        /* \"subasta8.sol\":2737:2747  bidHistory */\n      0x04\n        /* \"subasta8.sol\":2748:2749  i */\n      dup3\n        /* \"subasta8.sol\":2737:2750  bidHistory[i] */\n      dup2\n      sload\n      dup2\n      lt\n      tag_115\n      jumpi\n      tag_116\n      tag_109\n      jump\t// in\n    tag_116:\n    tag_115:\n      swap1\n      0x00\n      mstore\n      keccak256(0x00, 0x20)\n      swap1\n      0x02\n      mul\n      add\n        /* \"subasta8.sol\":2713:2750  Bid memory currentBid = bidHistory[i] */\n      mload(0x40)\n      dup1\n      0x40\n      add\n      0x40\n      mstore\n      swap1\n      dup2\n      0x00\n      dup3\n      add\n      0x00\n      swap1\n      sload\n      swap1\n      0x0100\n      exp\n      swap1\n      div\n      0xffffffffffffffffffffffffffffffffffffffff\n      and\n      0xffffffffffffffffffffffffffffffffffffffff\n      and\n      0xffffffffffffffffffffffffffffffffffffffff\n      and\n      dup2\n      mstore\n      0x20\n      add\n      0x01\n      dup3\n      add\n      sload\n      dup2\n      mstore\n      pop\n      pop\n      swap1\n      pop\n        /* \"subasta8.sol\":2790:2796  winner */\n      dup3\n        /* \"subasta8.sol\":2769:2796  currentBid.bidder != winner */\n      0xffffffffffffffffffffffffffffffffffffffff\n      and\n        /* \"subasta8.sol\":2769:2779  currentBid */\n      dup2\n        /* \"subasta8.sol\":2769:2786  currentBid.bidder */\n      0x00\n      add\n      mload\n        /* \"subasta8.sol\":2769:2796  currentBid.bidder != winner */\n      0xffffffffffffffffffffffffffffffffffffffff\n      and\n      eq\n        /* \"subasta8.sol\":2765:3054  if (currentBid.bidder != winner) {... */\n      tag_118\n      jumpi\n        /* \"subasta8.sol\":2817:2836  uint amountToRefund */\n      0x00\n        /* \"subasta8.sol\":2884:2887  100 */\n      0x64\n        /* \"subasta8.sol\":671:672  2 */\n      0x02\n        /* \"subasta8.sol\":2860:2863  100 */\n      0x64\n        /* \"subasta8.sol\":2860:2880  100 - GAS_COMMISSION */\n      tag_119\n      swap2\n      swap1\n      tag_120\n      jump\t// in\n    tag_119:\n        /* \"subasta8.sol\":2839:2881  currentBid.amount * (100 - GAS_COMMISSION) */\n      0xff\n      and\n        /* \"subasta8.sol\":2839:2849  currentBid */\n      dup4\n        /* \"subasta8.sol\":2839:2856  currentBid.amount */\n      0x20\n      add\n      mload\n        /* \"subasta8.sol\":2839:2881  currentBid.amount * (100 - GAS_COMMISSION) */\n      tag_121\n      swap2\n      swap1\n      tag_84\n      jump\t// in\n    tag_121:\n        /* \"subasta8.sol\":2839:2887  currentBid.amount * (100 - GAS_COMMISSION) / 100 */\n      tag_122\n      swap2\n      swap1\n      tag_86\n      jump\t// in\n    tag_122:\n        /* \"subasta8.sol\":2817:2887  uint amountToRefund = currentBid.amount * (100 - GAS_COMMISSION) / 100 */\n      swap1\n      pop\n        /* \"subasta8.sol\":2909:2921  bool success */\n      0x00\n        /* \"subasta8.sol\":2927:2937  currentBid */\n      dup3\n        /* \"subasta8.sol\":2927:2944  currentBid.bidder */\n      0x00\n      add\n      mload\n        /* \"subasta8.sol\":2927:2949  currentBid.bidder.call */\n      0xffffffffffffffffffffffffffffffffffffffff\n      and\n        /* \"subasta8.sol\":2957:2971  amountToRefund */\n      dup3\n        /* \"subasta8.sol\":2927:2976  currentBid.bidder.call{value: amountToRefund}(\"\") */\n      mload(0x40)\n      tag_123\n      swap1\n      tag_124\n      jump\t// in\n    tag_123:\n      0x00\n      mload(0x40)\n      dup1\n      dup4\n      sub\n      dup2\n      dup6\n      dup8\n      gas\n      call\n      swap3\n      pop\n      pop\n      pop\n      returndatasize\n      dup1\n      0x00\n      dup2\n      eq\n      tag_127\n      jumpi\n      mload(0x40)\n      swap2\n      pop\n      and(add(returndatasize, 0x3f), not(0x1f))\n      dup3\n      add\n      0x40\n      mstore\n      returndatasize\n      dup3\n      mstore\n      returndatasize\n      0x00\n      0x20\n      dup5\n      add\n      returndatacopy\n      jump(tag_126)\n    tag_127:\n      0x60\n      swap2\n      pop\n    tag_126:\n      pop\n        /* \"subasta8.sol\":2908:2976  (bool success, ) = currentBid.bidder.call{value: amountToRefund}(\"\") */\n      pop\n      swap1\n      pop\n        /* \"subasta8.sol\":3003:3010  success */\n      dup1\n        /* \"subasta8.sol\":2995:3038  require(success, \"Refund to bidder failed\") */\n      tag_128\n      jumpi\n      mload(0x40)\n      0x08c379a000000000000000000000000000000000000000000000000000000000\n      dup2\n      mstore\n      0x04\n      add\n      tag_129\n      swap1\n      tag_130\n      jump\t// in\n    tag_129:\n      mload(0x40)\n      dup1\n      swap2\n      sub\n      swap1\n      revert\n    tag_128:\n        /* \"subasta8.sol\":2798:3054  {... */\n      pop\n      pop\n        /* \"subasta8.sol\":2765:3054  if (currentBid.bidder != winner) {... */\n    tag_118:\n        /* \"subasta8.sol\":2698:3065  {... */\n      pop\n        /* \"subasta8.sol\":2693:2696  i++ */\n      dup1\n      dup1\n      0x01\n      add\n      swap2\n      pop\n      pop\n        /* \"subasta8.sol\":2649:3065  for (uint i = 1; i < bidHistory.length - 1; i++) {... */\n      jump(tag_111)\n    tag_112:\n      pop\n        /* \"subasta8.sol\":2501:3072  {... */\n      pop\n        /* \"subasta8.sol\":2451:3072  function refundDeposits() external onlyAuctioneer {... */\n      jump\t// out\n        /* \"subasta8.sol\":3680:3794  function getMaxBid() public view returns (uint) {... */\n    tag_44:\n        /* \"subasta8.sol\":3722:3726  uint */\n      0x00\n        /* \"subasta8.sol\":3746:3756  bidHistory */\n      0x04\n        /* \"subasta8.sol\":3777:3778  1 */\n      0x01\n        /* \"subasta8.sol\":3757:3767  bidHistory */\n      0x04\n        /* \"subasta8.sol\":3757:3774  bidHistory.length */\n      dup1\n      sload\n      swap1\n      pop\n        /* \"subasta8.sol\":3757:3778  bidHistory.length - 1 */\n      tag_132\n      swap2\n      swap1\n      tag_106\n      jump\t// in\n    tag_132:\n        /* \"subasta8.sol\":3746:3779  bidHistory[bidHistory.length - 1] */\n      dup2\n      sload\n      dup2\n      lt\n      tag_133\n      jumpi\n      tag_134\n      tag_109\n      jump\t// in\n    tag_134:\n    tag_133:\n      swap1\n      0x00\n      mstore\n      keccak256(0x00, 0x20)\n      swap1\n      0x02\n      mul\n      add\n        /* \"subasta8.sol\":3746:3786  bidHistory[bidHistory.length - 1].amount */\n      0x01\n      add\n      sload\n        /* \"subasta8.sol\":3739:3786  return bidHistory[bidHistory.length - 1].amount */\n      swap1\n      pop\n        /* \"subasta8.sol\":3680:3794  function getMaxBid() public view returns (uint) {... */\n      swap1\n      jump\t// out\n        /* \"subasta8.sol\":685:710  bool public auctionActive */\n    tag_48:\n      0x03\n      0x00\n      swap1\n      sload\n      swap1\n      0x0100\n      exp\n      swap1\n      div\n      0xff\n      and\n      dup2\n      jump\t// out\n        /* \"subasta8.sol\":545:596  uint32 public constant EXTENSION_PERIOD = 2 minutes */\n    tag_53:\n        /* \"subasta8.sol\":587:596  2 minutes */\n      0x78\n        /* \"subasta8.sol\":545:596  uint32 public constant EXTENSION_PERIOD = 2 minutes */\n      dup2\n      jump\t// out\n        /* \"subasta8.sol\":603:625  uint public minimumBid */\n    tag_58:\n      sload(0x02)\n      dup2\n      jump\t// out\n        /* \"subasta8.sol\":717:740  Bid[] public bidHistory */\n    tag_64:\n      0x04\n      dup2\n      dup2\n      sload\n      dup2\n      lt\n      tag_136\n      jumpi\n      0x00\n      dup1\n      revert\n    tag_136:\n      swap1\n      0x00\n      mstore\n      keccak256(0x00, 0x20)\n      swap1\n      0x02\n      mul\n      add\n      0x00\n      swap2\n      pop\n      swap1\n      pop\n      dup1\n      0x00\n      add\n      0x00\n      swap1\n      sload\n      swap1\n      0x0100\n      exp\n      swap1\n      div\n      0xffffffffffffffffffffffffffffffffffffffff\n      and\n      swap1\n      dup1\n      0x01\n      add\n      sload\n      swap1\n      pop\n      dup3\n      jump\t// out\n        /* \"subasta8.sol\":3080:3546  function partialWithdraw() external onlyWhileActive {... */\n    tag_69:\n        /* \"subasta8.sol\":1371:1384  auctionActive */\n      0x03\n      0x00\n      swap1\n      sload\n      swap1\n      0x0100\n      exp\n      swap1\n      div\n      0xff\n      and\n        /* \"subasta8.sol\":1363:1414  require(auctionActive, \"The auction is not active\") */\n      tag_139\n      jumpi\n      mload(0x40)\n      0x08c379a000000000000000000000000000000000000000000000000000000000\n      dup2\n      mstore\n      0x04\n      add\n      tag_140\n      swap1\n      tag_80\n      jump\t// in\n    tag_140:\n      mload(0x40)\n      dup1\n      swap2\n      sub\n      swap1\n      revert\n    tag_139:\n        /* \"subasta8.sol\":3143:3164  uint amountToWithdraw */\n      0x00\n        /* \"subasta8.sol\":3186:3192  uint i */\n      dup1\n        /* \"subasta8.sol\":3181:3410  for (uint i = 0; i < bidHistory.length - 1; i++) {... */\n    tag_142:\n        /* \"subasta8.sol\":3222:3223  1 */\n      0x01\n        /* \"subasta8.sol\":3202:3212  bidHistory */\n      0x04\n        /* \"subasta8.sol\":3202:3219  bidHistory.length */\n      dup1\n      sload\n      swap1\n      pop\n        /* \"subasta8.sol\":3202:3223  bidHistory.length - 1 */\n      tag_145\n      swap2\n      swap1\n      tag_106\n      jump\t// in\n    tag_145:\n        /* \"subasta8.sol\":3198:3199  i */\n      dup2\n        /* \"subasta8.sol\":3198:3223  i < bidHistory.length - 1 */\n      lt\n        /* \"subasta8.sol\":3181:3410  for (uint i = 0; i < bidHistory.length - 1; i++) {... */\n      iszero\n      tag_143\n      jumpi\n        /* \"subasta8.sol\":3273:3283  msg.sender */\n      caller\n        /* \"subasta8.sol\":3249:3283  bidHistory[i].bidder == msg.sender */\n      0xffffffffffffffffffffffffffffffffffffffff\n      and\n        /* \"subasta8.sol\":3249:3259  bidHistory */\n      0x04\n        /* \"subasta8.sol\":3260:3261  i */\n      dup3\n        /* \"subasta8.sol\":3249:3262  bidHistory[i] */\n      dup2\n      sload\n      dup2\n      lt\n      tag_146\n      jumpi\n      tag_147\n      tag_109\n      jump\t// in\n    tag_147:\n    tag_146:\n      swap1\n      0x00\n      mstore\n      keccak256(0x00, 0x20)\n      swap1\n      0x02\n      mul\n      add\n        /* \"subasta8.sol\":3249:3269  bidHistory[i].bidder */\n      0x00\n      add\n      0x00\n      swap1\n      sload\n      swap1\n      0x0100\n      exp\n      swap1\n      div\n      0xffffffffffffffffffffffffffffffffffffffff\n      and\n        /* \"subasta8.sol\":3249:3283  bidHistory[i].bidder == msg.sender */\n      0xffffffffffffffffffffffffffffffffffffffff\n      and\n      sub\n        /* \"subasta8.sol\":3245:3399  if (bidHistory[i].bidder == msg.sender) {... */\n      tag_149\n      jumpi\n        /* \"subasta8.sol\":3324:3334  bidHistory */\n      0x04\n        /* \"subasta8.sol\":3335:3336  i */\n      dup2\n        /* \"subasta8.sol\":3324:3337  bidHistory[i] */\n      dup2\n      sload\n      dup2\n      lt\n      tag_150\n      jumpi\n      tag_151\n      tag_109\n      jump\t// in\n    tag_151:\n    tag_150:\n      swap1\n      0x00\n      mstore\n      keccak256(0x00, 0x20)\n      swap1\n      0x02\n      mul\n      add\n        /* \"subasta8.sol\":3324:3344  bidHistory[i].amount */\n      0x01\n      add\n      sload\n        /* \"subasta8.sol\":3304:3344  amountToWithdraw += bidHistory[i].amount */\n      dup3\n      tag_153\n      swap2\n      swap1\n      tag_94\n      jump\t// in\n    tag_153:\n      swap2\n      pop\n        /* \"subasta8.sol\":3370:3380  bidHistory */\n      0x04\n        /* \"subasta8.sol\":3381:3382  i */\n      dup2\n        /* \"subasta8.sol\":3370:3383  bidHistory[i] */\n      dup2\n      sload\n      dup2\n      lt\n      tag_154\n      jumpi\n      tag_155\n      tag_109\n      jump\t// in\n    tag_155:\n    tag_154:\n      swap1\n      0x00\n      mstore\n      keccak256(0x00, 0x20)\n      swap1\n      0x02\n      mul\n      add\n      0x00\n        /* \"subasta8.sol\":3363:3383  delete bidHistory[i] */\n      dup1\n      dup3\n      add\n      exp(0x0100, 0x00)\n      dup2\n      sload\n      swap1\n      0xffffffffffffffffffffffffffffffffffffffff\n      mul\n      not\n      and\n      swap1\n      sstore\n      0x01\n      dup3\n      add\n      0x00\n      swap1\n      sstore\n      pop\n      pop\n        /* \"subasta8.sol\":3245:3399  if (bidHistory[i].bidder == msg.sender) {... */\n    tag_149:\n        /* \"subasta8.sol\":3225:3228  i++ */\n      dup1\n      dup1\n      0x01\n      add\n      swap2\n      pop\n      pop\n        /* \"subasta8.sol\":3181:3410  for (uint i = 0; i < bidHistory.length - 1; i++) {... */\n      jump(tag_142)\n    tag_143:\n      pop\n        /* \"subasta8.sol\":3447:3448  0 */\n      0x00\n        /* \"subasta8.sol\":3428:3444  amountToWithdraw */\n      dup2\n        /* \"subasta8.sol\":3428:3448  amountToWithdraw > 0 */\n      gt\n        /* \"subasta8.sol\":3420:3481  require(amountToWithdraw > 0, \"There is nothing to withdraw\") */\n      tag_157\n      jumpi\n      mload(0x40)\n      0x08c379a000000000000000000000000000000000000000000000000000000000\n      dup2\n      mstore\n      0x04\n      add\n      tag_158\n      swap1\n      tag_159\n      jump\t// in\n    tag_158:\n      mload(0x40)\n      dup1\n      swap2\n      sub\n      swap1\n      revert\n    tag_157:\n        /* \"subasta8.sol\":3500:3510  msg.sender */\n      caller\n        /* \"subasta8.sol\":3492:3520  payable(msg.sender).transfer */\n      0xffffffffffffffffffffffffffffffffffffffff\n      and\n        /* \"subasta8.sol\":3492:3538  payable(msg.sender).transfer(amountToWithdraw) */\n      0x08fc\n        /* \"subasta8.sol\":3521:3537  amountToWithdraw */\n      dup3\n        /* \"subasta8.sol\":3492:3538  payable(msg.sender).transfer(amountToWithdraw) */\n      swap1\n      dup2\n      iszero\n      mul\n      swap1\n      mload(0x40)\n      0x00\n      mload(0x40)\n      dup1\n      dup4\n      sub\n      dup2\n      dup6\n      dup9\n      dup9\n      call\n      swap4\n      pop\n      pop\n      pop\n      pop\n      iszero\n      dup1\n      iszero\n      tag_161\n      jumpi\n      returndatasize\n      0x00\n      dup1\n      returndatacopy\n      revert(0x00, returndatasize)\n    tag_161:\n      pop\n        /* \"subasta8.sol\":3132:3546  {... */\n      pop\n        /* \"subasta8.sol\":3080:3546  function partialWithdraw() external onlyWhileActive {... */\n      jump\t// out\n        /* \"subasta8.sol\":1953:2443  function endAuction() external onlyAuctioneer {... */\n    tag_72:\n        /* \"subasta8.sol\":1237:1247  auctioneer */\n      0x00\n      dup1\n      sload\n      swap1\n      0x0100\n      exp\n      swap1\n      div\n      0xffffffffffffffffffffffffffffffffffffffff\n      and\n        /* \"subasta8.sol\":1223:1247  msg.sender == auctioneer */\n      0xffffffffffffffffffffffffffffffffffffffff\n      and\n        /* \"subasta8.sol\":1223:1233  msg.sender */\n      caller\n        /* \"subasta8.sol\":1223:1247  msg.sender == auctioneer */\n      0xffffffffffffffffffffffffffffffffffffffff\n      and\n      eq\n        /* \"subasta8.sol\":1215:1297  require(msg.sender == auctioneer, \"Only the auctioneer can execute this function\") */\n      tag_163\n      jumpi\n      mload(0x40)\n      0x08c379a000000000000000000000000000000000000000000000000000000000\n      dup2\n      mstore\n      0x04\n      add\n      tag_164\n      swap1\n      tag_100\n      jump\t// in\n    tag_164:\n      mload(0x40)\n      dup1\n      swap2\n      sub\n      swap1\n      revert\n    tag_163:\n        /* \"subasta8.sol\":2037:2044  endTime */\n      sload(0x01)\n        /* \"subasta8.sol\":2018:2033  block.timestamp */\n      timestamp\n        /* \"subasta8.sol\":2018:2044  block.timestamp >= endTime */\n      lt\n      iszero\n        /* \"subasta8.sol\":2010:2074  require(block.timestamp >= endTime, \"The auction has not ended\") */\n      tag_166\n      jumpi\n      mload(0x40)\n      0x08c379a000000000000000000000000000000000000000000000000000000000\n      dup2\n      mstore\n      0x04\n      add\n      tag_167\n      swap1\n      tag_168\n      jump\t// in\n    tag_167:\n      mload(0x40)\n      dup1\n      swap2\n      sub\n      swap1\n      revert\n    tag_166:\n        /* \"subasta8.sol\":2103:2108  false */\n      0x00\n        /* \"subasta8.sol\":2087:2100  auctionActive */\n      0x03\n      0x00\n        /* \"subasta8.sol\":2087:2108  auctionActive = false */\n      0x0100\n      exp\n      dup2\n      sload\n      dup2\n      0xff\n      mul\n      not\n      and\n      swap1\n      dup4\n      iszero\n      iszero\n      mul\n      or\n      swap1\n      sstore\n      pop\n        /* \"subasta8.sol\":2119:2140  Bid memory winningBid */\n      0x00\n        /* \"subasta8.sol\":2143:2153  bidHistory */\n      0x04\n        /* \"subasta8.sol\":2174:2175  1 */\n      0x01\n        /* \"subasta8.sol\":2154:2164  bidHistory */\n      0x04\n        /* \"subasta8.sol\":2154:2171  bidHistory.length */\n      dup1\n      sload\n      swap1\n      pop\n        /* \"subasta8.sol\":2154:2175  bidHistory.length - 1 */\n      tag_169\n      swap2\n      swap1\n      tag_106\n      jump\t// in\n    tag_169:\n        /* \"subasta8.sol\":2143:2176  bidHistory[bidHistory.length - 1] */\n      dup2\n      sload\n      dup2\n      lt\n      tag_170\n      jumpi\n      tag_171\n      tag_109\n      jump\t// in\n    tag_171:\n    tag_170:\n      swap1\n      0x00\n      mstore\n      keccak256(0x00, 0x20)\n      swap1\n      0x02\n      mul\n      add\n        /* \"subasta8.sol\":2119:2176  Bid memory winningBid = bidHistory[bidHistory.length - 1] */\n      mload(0x40)\n      dup1\n      0x40\n      add\n      0x40\n      mstore\n      swap1\n      dup2\n      0x00\n      dup3\n      add\n      0x00\n      swap1\n      sload\n      swap1\n      0x0100\n      exp\n      swap1\n      div\n      0xffffffffffffffffffffffffffffffffffffffff\n      and\n      0xffffffffffffffffffffffffffffffffffffffff\n      and\n      0xffffffffffffffffffffffffffffffffffffffff\n      and\n      dup2\n      mstore\n      0x20\n      add\n      0x01\n      dup3\n      add\n      sload\n      dup2\n      mstore\n      pop\n      pop\n      swap1\n      pop\n        /* \"subasta8.sol\":2244:2256  bool success */\n      0x00\n        /* \"subasta8.sol\":2262:2272  auctioneer */\n      dup1\n      0x00\n      swap1\n      sload\n      swap1\n      0x0100\n      exp\n      swap1\n      div\n      0xffffffffffffffffffffffffffffffffffffffff\n      and\n        /* \"subasta8.sol\":2262:2277  auctioneer.call */\n      0xffffffffffffffffffffffffffffffffffffffff\n      and\n        /* \"subasta8.sol\":2285:2295  winningBid */\n      dup3\n        /* \"subasta8.sol\":2285:2302  winningBid.amount */\n      0x20\n      add\n      mload\n        /* \"subasta8.sol\":2262:2307  auctioneer.call{value: winningBid.amount}(\"\") */\n      mload(0x40)\n      tag_173\n      swap1\n      tag_124\n      jump\t// in\n    tag_173:\n      0x00\n      mload(0x40)\n      dup1\n      dup4\n      sub\n      dup2\n      dup6\n      dup8\n      gas\n      call\n      swap3\n      pop\n      pop\n      pop\n      returndatasize\n      dup1\n      0x00\n      dup2\n      eq\n      tag_176\n      jumpi\n      mload(0x40)\n      swap2\n      pop\n      and(add(returndatasize, 0x3f), not(0x1f))\n      dup3\n      add\n      0x40\n      mstore\n      returndatasize\n      dup3\n      mstore\n      returndatasize\n      0x00\n      0x20\n      dup5\n      add\n      returndatacopy\n      jump(tag_175)\n    tag_176:\n      0x60\n      swap2\n      pop\n    tag_175:\n      pop\n        /* \"subasta8.sol\":2243:2307  (bool success, ) = auctioneer.call{value: winningBid.amount}(\"\") */\n      pop\n      swap1\n      pop\n        /* \"subasta8.sol\":2326:2333  success */\n      dup1\n        /* \"subasta8.sol\":2318:2367  require(success, \"Transfer to auctioneer failed\") */\n      tag_177\n      jumpi\n      mload(0x40)\n      0x08c379a000000000000000000000000000000000000000000000000000000000\n      dup2\n      mstore\n      0x04\n      add\n      tag_178\n      swap1\n      tag_179\n      jump\t// in\n    tag_178:\n      mload(0x40)\n      dup1\n      swap2\n      sub\n      swap1\n      revert\n    tag_177:\n        /* \"subasta8.sol\":2385:2435  AuctionEnded(winningBid.bidder, winningBid.amount) */\n      0xdaec4582d5d9595688c8c98545fdd1c696d41c6aeaeb636737e84ed2f5c00eda\n        /* \"subasta8.sol\":2398:2408  winningBid */\n      dup3\n        /* \"subasta8.sol\":2398:2415  winningBid.bidder */\n      0x00\n      add\n      mload\n        /* \"subasta8.sol\":2417:2427  winningBid */\n      dup4\n        /* \"subasta8.sol\":2417:2434  winningBid.amount */\n      0x20\n      add\n      mload\n        /* \"subasta8.sol\":2385:2435  AuctionEnded(winningBid.bidder, winningBid.amount) */\n      mload(0x40)\n      tag_180\n      swap3\n      swap2\n      swap1\n      tag_66\n      jump\t// in\n    tag_180:\n      mload(0x40)\n      dup1\n      swap2\n      sub\n      swap1\n      log1\n        /* \"subasta8.sol\":1999:2443  {... */\n      pop\n      pop\n        /* \"subasta8.sol\":1953:2443  function endAuction() external onlyAuctioneer {... */\n      jump\t// out\n        /* \"#utility.yul\":7:93   */\n    tag_181:\n        /* \"#utility.yul\":42:49   */\n      0x00\n        /* \"#utility.yul\":82:86   */\n      0xff\n        /* \"#utility.yul\":75:80   */\n      dup3\n        /* \"#utility.yul\":71:87   */\n      and\n        /* \"#utility.yul\":60:87   */\n      swap1\n      pop\n        /* \"#utility.yul\":7:93   */\n      swap2\n      swap1\n      pop\n      jump\t// out\n        /* \"#utility.yul\":99:211   */\n    tag_182:\n        /* \"#utility.yul\":182:204   */\n      tag_233\n        /* \"#utility.yul\":198:203   */\n      dup2\n        /* \"#utility.yul\":182:204   */\n      tag_181\n      jump\t// in\n    tag_233:\n        /* \"#utility.yul\":177:180   */\n      dup3\n        /* \"#utility.yul\":170:205   */\n      mstore\n        /* \"#utility.yul\":99:211   */\n      pop\n      pop\n      jump\t// out\n        /* \"#utility.yul\":217:431   */\n    tag_21:\n        /* \"#utility.yul\":306:310   */\n      0x00\n        /* \"#utility.yul\":344:346   */\n      0x20\n        /* \"#utility.yul\":333:342   */\n      dup3\n        /* \"#utility.yul\":329:347   */\n      add\n        /* \"#utility.yul\":321:347   */\n      swap1\n      pop\n        /* \"#utility.yul\":357:424   */\n      tag_235\n        /* \"#utility.yul\":421:422   */\n      0x00\n        /* \"#utility.yul\":410:419   */\n      dup4\n        /* \"#utility.yul\":406:423   */\n      add\n        /* \"#utility.yul\":397:403   */\n      dup5\n        /* \"#utility.yul\":357:424   */\n      tag_182\n      jump\t// in\n    tag_235:\n        /* \"#utility.yul\":217:431   */\n      swap3\n      swap2\n      pop\n      pop\n      jump\t// out\n        /* \"#utility.yul\":437:569   */\n    tag_183:\n        /* \"#utility.yul\":522:528   */\n      0x00\n        /* \"#utility.yul\":556:561   */\n      dup2\n        /* \"#utility.yul\":550:562   */\n      mload\n        /* \"#utility.yul\":540:562   */\n      swap1\n      pop\n        /* \"#utility.yul\":437:569   */\n      swap2\n      swap1\n      pop\n      jump\t// out\n        /* \"#utility.yul\":575:777   */\n    tag_184:\n        /* \"#utility.yul\":692:703   */\n      0x00\n        /* \"#utility.yul\":726:732   */\n      dup3\n        /* \"#utility.yul\":721:724   */\n      dup3\n        /* \"#utility.yul\":714:733   */\n      mstore\n        /* \"#utility.yul\":766:770   */\n      0x20\n        /* \"#utility.yul\":761:764   */\n      dup3\n        /* \"#utility.yul\":757:771   */\n      add\n        /* \"#utility.yul\":742:771   */\n      swap1\n      pop\n        /* \"#utility.yul\":575:777   */\n      swap3\n      swap2\n      pop\n      pop\n      jump\t// out\n        /* \"#utility.yul\":783:933   */\n    tag_185:\n        /* \"#utility.yul\":868:872   */\n      0x00\n        /* \"#utility.yul\":891:894   */\n      dup2\n        /* \"#utility.yul\":883:894   */\n      swap1\n      pop\n        /* \"#utility.yul\":921:925   */\n      0x20\n        /* \"#utility.yul\":916:919   */\n      dup3\n        /* \"#utility.yul\":912:926   */\n      add\n        /* \"#utility.yul\":904:926   */\n      swap1\n      pop\n        /* \"#utility.yul\":783:933   */\n      swap2\n      swap1\n      pop\n      jump\t// out\n        /* \"#utility.yul\":939:1065   */\n    tag_186:\n        /* \"#utility.yul\":976:983   */\n      0x00\n        /* \"#utility.yul\":1016:1058   */\n      0xffffffffffffffffffffffffffffffffffffffff\n        /* \"#utility.yul\":1009:1014   */\n      dup3\n        /* \"#utility.yul\":1005:1059   */\n      and\n        /* \"#utility.yul\":994:1059   */\n      swap1\n      pop\n        /* \"#utility.yul\":939:1065   */\n      swap2\n      swap1\n      pop\n      jump\t// out\n        /* \"#utility.yul\":1071:1167   */\n    tag_187:\n        /* \"#utility.yul\":1108:1115   */\n      0x00\n        /* \"#utility.yul\":1137:1161   */\n      tag_241\n        /* \"#utility.yul\":1155:1160   */\n      dup3\n        /* \"#utility.yul\":1137:1161   */\n      tag_186\n      jump\t// in\n    tag_241:\n        /* \"#utility.yul\":1126:1161   */\n      swap1\n      pop\n        /* \"#utility.yul\":1071:1167   */\n      swap2\n      swap1\n      pop\n      jump\t// out\n        /* \"#utility.yul\":1173:1281   */\n    tag_188:\n        /* \"#utility.yul\":1250:1274   */\n      tag_243\n        /* \"#utility.yul\":1268:1273   */\n      dup2\n        /* \"#utility.yul\":1250:1274   */\n      tag_187\n      jump\t// in\n    tag_243:\n        /* \"#utility.yul\":1245:1248   */\n      dup3\n        /* \"#utility.yul\":1238:1275   */\n      mstore\n        /* \"#utility.yul\":1173:1281   */\n      pop\n      pop\n      jump\t// out\n        /* \"#utility.yul\":1287:1364   */\n    tag_189:\n        /* \"#utility.yul\":1324:1331   */\n      0x00\n        /* \"#utility.yul\":1353:1358   */\n      dup2\n        /* \"#utility.yul\":1342:1358   */\n      swap1\n      pop\n        /* \"#utility.yul\":1287:1364   */\n      swap2\n      swap1\n      pop\n      jump\t// out\n        /* \"#utility.yul\":1370:1478   */\n    tag_190:\n        /* \"#utility.yul\":1447:1471   */\n      tag_246\n        /* \"#utility.yul\":1465:1470   */\n      dup2\n        /* \"#utility.yul\":1447:1471   */\n      tag_189\n      jump\t// in\n    tag_246:\n        /* \"#utility.yul\":1442:1445   */\n      dup3\n        /* \"#utility.yul\":1435:1472   */\n      mstore\n        /* \"#utility.yul\":1370:1478   */\n      pop\n      pop\n      jump\t// out\n        /* \"#utility.yul\":1550:2037   */\n    tag_191:\n        /* \"#utility.yul\":1673:1677   */\n      0x40\n        /* \"#utility.yul\":1668:1671   */\n      dup3\n        /* \"#utility.yul\":1664:1678   */\n      add\n        /* \"#utility.yul\":1762:1766   */\n      0x00\n        /* \"#utility.yul\":1755:1760   */\n      dup3\n        /* \"#utility.yul\":1751:1767   */\n      add\n        /* \"#utility.yul\":1745:1768   */\n      mload\n        /* \"#utility.yul\":1781:1844   */\n      tag_248\n        /* \"#utility.yul\":1838:1842   */\n      0x00\n        /* \"#utility.yul\":1833:1836   */\n      dup6\n        /* \"#utility.yul\":1829:1843   */\n      add\n        /* \"#utility.yul\":1815:1827   */\n      dup3\n        /* \"#utility.yul\":1781:1844   */\n      tag_188\n      jump\t// in\n    tag_248:\n        /* \"#utility.yul\":1688:1854   */\n      pop\n        /* \"#utility.yul\":1938:1942   */\n      0x20\n        /* \"#utility.yul\":1931:1936   */\n      dup3\n        /* \"#utility.yul\":1927:1943   */\n      add\n        /* \"#utility.yul\":1921:1944   */\n      mload\n        /* \"#utility.yul\":1957:2020   */\n      tag_249\n        /* \"#utility.yul\":2014:2018   */\n      0x20\n        /* \"#utility.yul\":2009:2012   */\n      dup6\n        /* \"#utility.yul\":2005:2019   */\n      add\n        /* \"#utility.yul\":1991:2003   */\n      dup3\n        /* \"#utility.yul\":1957:2020   */\n      tag_190\n      jump\t// in\n    tag_249:\n        /* \"#utility.yul\":1864:2030   */\n      pop\n        /* \"#utility.yul\":1642:2037   */\n      pop\n        /* \"#utility.yul\":1550:2037   */\n      pop\n      pop\n      jump\t// out\n        /* \"#utility.yul\":2043:2294   */\n    tag_192:\n        /* \"#utility.yul\":2148:2158   */\n      0x00\n        /* \"#utility.yul\":2169:2251   */\n      tag_251\n        /* \"#utility.yul\":2247:2250   */\n      dup4\n        /* \"#utility.yul\":2239:2245   */\n      dup4\n        /* \"#utility.yul\":2169:2251   */\n      tag_191\n      jump\t// in\n    tag_251:\n        /* \"#utility.yul\":2283:2287   */\n      0x40\n        /* \"#utility.yul\":2278:2281   */\n      dup4\n        /* \"#utility.yul\":2274:2288   */\n      add\n        /* \"#utility.yul\":2260:2288   */\n      swap1\n      pop\n        /* \"#utility.yul\":2043:2294   */\n      swap3\n      swap2\n      pop\n      pop\n      jump\t// out\n        /* \"#utility.yul\":2300:2431   */\n    tag_193:\n        /* \"#utility.yul\":2388:2392   */\n      0x00\n        /* \"#utility.yul\":2420:2424   */\n      0x20\n        /* \"#utility.yul\":2415:2418   */\n      dup3\n        /* \"#utility.yul\":2411:2425   */\n      add\n        /* \"#utility.yul\":2403:2425   */\n      swap1\n      pop\n        /* \"#utility.yul\":2300:2431   */\n      swap2\n      swap1\n      pop\n      jump\t// out\n        /* \"#utility.yul\":2507:3383   */\n    tag_194:\n        /* \"#utility.yul\":2662:2665   */\n      0x00\n        /* \"#utility.yul\":2691:2763   */\n      tag_254\n        /* \"#utility.yul\":2757:2762   */\n      dup3\n        /* \"#utility.yul\":2691:2763   */\n      tag_183\n      jump\t// in\n    tag_254:\n        /* \"#utility.yul\":2779:2883   */\n      tag_255\n        /* \"#utility.yul\":2876:2882   */\n      dup2\n        /* \"#utility.yul\":2871:2874   */\n      dup6\n        /* \"#utility.yul\":2779:2883   */\n      tag_184\n      jump\t// in\n    tag_255:\n        /* \"#utility.yul\":2772:2883   */\n      swap4\n      pop\n        /* \"#utility.yul\":2907:2981   */\n      tag_256\n        /* \"#utility.yul\":2975:2980   */\n      dup4\n        /* \"#utility.yul\":2907:2981   */\n      tag_185\n      jump\t// in\n    tag_256:\n        /* \"#utility.yul\":3004:3011   */\n      dup1\n        /* \"#utility.yul\":3035:3036   */\n      0x00\n        /* \"#utility.yul\":3020:3358   */\n    tag_257:\n        /* \"#utility.yul\":3045:3051   */\n      dup4\n        /* \"#utility.yul\":3042:3043   */\n      dup2\n        /* \"#utility.yul\":3039:3052   */\n      lt\n        /* \"#utility.yul\":3020:3358   */\n      iszero\n      tag_259\n      jumpi\n        /* \"#utility.yul\":3121:3127   */\n      dup2\n        /* \"#utility.yul\":3115:3128   */\n      mload\n        /* \"#utility.yul\":3148:3247   */\n      tag_260\n        /* \"#utility.yul\":3243:3246   */\n      dup9\n        /* \"#utility.yul\":3228:3241   */\n      dup3\n        /* \"#utility.yul\":3148:3247   */\n      tag_192\n      jump\t// in\n    tag_260:\n        /* \"#utility.yul\":3141:3247   */\n      swap8\n      pop\n        /* \"#utility.yul\":3270:3348   */\n      tag_261\n        /* \"#utility.yul\":3341:3347   */\n      dup4\n        /* \"#utility.yul\":3270:3348   */\n      tag_193\n      jump\t// in\n    tag_261:\n        /* \"#utility.yul\":3260:3348   */\n      swap3\n      pop\n        /* \"#utility.yul\":3080:3358   */\n      pop\n        /* \"#utility.yul\":3067:3068   */\n      0x01\n        /* \"#utility.yul\":3064:3065   */\n      dup2\n        /* \"#utility.yul\":3060:3069   */\n      add\n        /* \"#utility.yul\":3055:3069   */\n      swap1\n      pop\n        /* \"#utility.yul\":3020:3358   */\n      jump(tag_257)\n    tag_259:\n        /* \"#utility.yul\":3024:3038   */\n      pop\n        /* \"#utility.yul\":3374:3377   */\n      dup6\n        /* \"#utility.yul\":3367:3377   */\n      swap4\n      pop\n        /* \"#utility.yul\":2667:3383   */\n      pop\n      pop\n      pop\n        /* \"#utility.yul\":2507:3383   */\n      swap3\n      swap2\n      pop\n      pop\n      jump\t// out\n        /* \"#utility.yul\":3389:3834   */\n    tag_26:\n        /* \"#utility.yul\":3568:3572   */\n      0x00\n        /* \"#utility.yul\":3606:3608   */\n      0x20\n        /* \"#utility.yul\":3595:3604   */\n      dup3\n        /* \"#utility.yul\":3591:3609   */\n      add\n        /* \"#utility.yul\":3583:3609   */\n      swap1\n      pop\n        /* \"#utility.yul\":3655:3664   */\n      dup2\n        /* \"#utility.yul\":3649:3653   */\n      dup2\n        /* \"#utility.yul\":3645:3665   */\n      sub\n        /* \"#utility.yul\":3641:3642   */\n      0x00\n        /* \"#utility.yul\":3630:3639   */\n      dup4\n        /* \"#utility.yul\":3626:3643   */\n      add\n        /* \"#utility.yul\":3619:3666   */\n      mstore\n        /* \"#utility.yul\":3683:3827   */\n      tag_263\n        /* \"#utility.yul\":3822:3826   */\n      dup2\n        /* \"#utility.yul\":3813:3819   */\n      dup5\n        /* \"#utility.yul\":3683:3827   */\n      tag_194\n      jump\t// in\n    tag_263:\n        /* \"#utility.yul\":3675:3827   */\n      swap1\n      pop\n        /* \"#utility.yul\":3389:3834   */\n      swap3\n      swap2\n      pop\n      pop\n      jump\t// out\n        /* \"#utility.yul\":3840:3958   */\n    tag_195:\n        /* \"#utility.yul\":3927:3951   */\n      tag_265\n        /* \"#utility.yul\":3945:3950   */\n      dup2\n        /* \"#utility.yul\":3927:3951   */\n      tag_189\n      jump\t// in\n    tag_265:\n        /* \"#utility.yul\":3922:3925   */\n      dup3\n        /* \"#utility.yul\":3915:3952   */\n      mstore\n        /* \"#utility.yul\":3840:3958   */\n      pop\n      pop\n      jump\t// out\n        /* \"#utility.yul\":3964:4186   */\n    tag_33:\n        /* \"#utility.yul\":4057:4061   */\n      0x00\n        /* \"#utility.yul\":4095:4097   */\n      0x20\n        /* \"#utility.yul\":4084:4093   */\n      dup3\n        /* \"#utility.yul\":4080:4098   */\n      add\n        /* \"#utility.yul\":4072:4098   */\n      swap1\n      pop\n        /* \"#utility.yul\":4108:4179   */\n      tag_267\n        /* \"#utility.yul\":4176:4177   */\n      0x00\n        /* \"#utility.yul\":4165:4174   */\n      dup4\n        /* \"#utility.yul\":4161:4178   */\n      add\n        /* \"#utility.yul\":4152:4158   */\n      dup5\n        /* \"#utility.yul\":4108:4179   */\n      tag_195\n      jump\t// in\n    tag_267:\n        /* \"#utility.yul\":3964:4186   */\n      swap3\n      swap2\n      pop\n      pop\n      jump\t// out\n        /* \"#utility.yul\":4192:4310   */\n    tag_196:\n        /* \"#utility.yul\":4279:4303   */\n      tag_269\n        /* \"#utility.yul\":4297:4302   */\n      dup2\n        /* \"#utility.yul\":4279:4303   */\n      tag_187\n      jump\t// in\n    tag_269:\n        /* \"#utility.yul\":4274:4277   */\n      dup3\n        /* \"#utility.yul\":4267:4304   */\n      mstore\n        /* \"#utility.yul\":4192:4310   */\n      pop\n      pop\n      jump\t// out\n        /* \"#utility.yul\":4316:4538   */\n    tag_38:\n        /* \"#utility.yul\":4409:4413   */\n      0x00\n        /* \"#utility.yul\":4447:4449   */\n      0x20\n        /* \"#utility.yul\":4436:4445   */\n      dup3\n        /* \"#utility.yul\":4432:4450   */\n      add\n        /* \"#utility.yul\":4424:4450   */\n      swap1\n      pop\n        /* \"#utility.yul\":4460:4531   */\n      tag_271\n        /* \"#utility.yul\":4528:4529   */\n      0x00\n        /* \"#utility.yul\":4517:4526   */\n      dup4\n        /* \"#utility.yul\":4513:4530   */\n      add\n        /* \"#utility.yul\":4504:4510   */\n      dup5\n        /* \"#utility.yul\":4460:4531   */\n      tag_196\n      jump\t// in\n    tag_271:\n        /* \"#utility.yul\":4316:4538   */\n      swap3\n      swap2\n      pop\n      pop\n      jump\t// out\n        /* \"#utility.yul\":4544:4634   */\n    tag_197:\n        /* \"#utility.yul\":4578:4585   */\n      0x00\n        /* \"#utility.yul\":4621:4626   */\n      dup2\n        /* \"#utility.yul\":4614:4627   */\n      iszero\n        /* \"#utility.yul\":4607:4628   */\n      iszero\n        /* \"#utility.yul\":4596:4628   */\n      swap1\n      pop\n        /* \"#utility.yul\":4544:4634   */\n      swap2\n      swap1\n      pop\n      jump\t// out\n        /* \"#utility.yul\":4640:4749   */\n    tag_198:\n        /* \"#utility.yul\":4721:4742   */\n      tag_274\n        /* \"#utility.yul\":4736:4741   */\n      dup2\n        /* \"#utility.yul\":4721:4742   */\n      tag_197\n      jump\t// in\n    tag_274:\n        /* \"#utility.yul\":4716:4719   */\n      dup3\n        /* \"#utility.yul\":4709:4743   */\n      mstore\n        /* \"#utility.yul\":4640:4749   */\n      pop\n      pop\n      jump\t// out\n        /* \"#utility.yul\":4755:4965   */\n    tag_50:\n        /* \"#utility.yul\":4842:4846   */\n      0x00\n        /* \"#utility.yul\":4880:4882   */\n      0x20\n        /* \"#utility.yul\":4869:4878   */\n      dup3\n        /* \"#utility.yul\":4865:4883   */\n      add\n        /* \"#utility.yul\":4857:4883   */\n      swap1\n      pop\n        /* \"#utility.yul\":4893:4958   */\n      tag_276\n        /* \"#utility.yul\":4955:4956   */\n      0x00\n        /* \"#utility.yul\":4944:4953   */\n      dup4\n        /* \"#utility.yul\":4940:4957   */\n      add\n        /* \"#utility.yul\":4931:4937   */\n      dup5\n        /* \"#utility.yul\":4893:4958   */\n      tag_198\n      jump\t// in\n    tag_276:\n        /* \"#utility.yul\":4755:4965   */\n      swap3\n      swap2\n      pop\n      pop\n      jump\t// out\n        /* \"#utility.yul\":4971:5064   */\n    tag_199:\n        /* \"#utility.yul\":5007:5014   */\n      0x00\n        /* \"#utility.yul\":5047:5057   */\n      0xffffffff\n        /* \"#utility.yul\":5040:5045   */\n      dup3\n        /* \"#utility.yul\":5036:5058   */\n      and\n        /* \"#utility.yul\":5025:5058   */\n      swap1\n      pop\n        /* \"#utility.yul\":4971:5064   */\n      swap2\n      swap1\n      pop\n      jump\t// out\n        /* \"#utility.yul\":5070:5185   */\n    tag_200:\n        /* \"#utility.yul\":5155:5178   */\n      tag_279\n        /* \"#utility.yul\":5172:5177   */\n      dup2\n        /* \"#utility.yul\":5155:5178   */\n      tag_199\n      jump\t// in\n    tag_279:\n        /* \"#utility.yul\":5150:5153   */\n      dup3\n        /* \"#utility.yul\":5143:5179   */\n      mstore\n        /* \"#utility.yul\":5070:5185   */\n      pop\n      pop\n      jump\t// out\n        /* \"#utility.yul\":5191:5409   */\n    tag_55:\n        /* \"#utility.yul\":5282:5286   */\n      0x00\n        /* \"#utility.yul\":5320:5322   */\n      0x20\n        /* \"#utility.yul\":5309:5318   */\n      dup3\n        /* \"#utility.yul\":5305:5323   */\n      add\n        /* \"#utility.yul\":5297:5323   */\n      swap1\n      pop\n        /* \"#utility.yul\":5333:5402   */\n      tag_281\n        /* \"#utility.yul\":5399:5400   */\n      0x00\n        /* \"#utility.yul\":5388:5397   */\n      dup4\n        /* \"#utility.yul\":5384:5401   */\n      add\n        /* \"#utility.yul\":5375:5381   */\n      dup5\n        /* \"#utility.yul\":5333:5402   */\n      tag_200\n      jump\t// in\n    tag_281:\n        /* \"#utility.yul\":5191:5409   */\n      swap3\n      swap2\n      pop\n      pop\n      jump\t// out\n        /* \"#utility.yul\":5496:5613   */\n    tag_202:\n        /* \"#utility.yul\":5605:5606   */\n      0x00\n        /* \"#utility.yul\":5602:5603   */\n      dup1\n        /* \"#utility.yul\":5595:5607   */\n      revert\n        /* \"#utility.yul\":5742:5864   */\n    tag_204:\n        /* \"#utility.yul\":5815:5839   */\n      tag_286\n        /* \"#utility.yul\":5833:5838   */\n      dup2\n        /* \"#utility.yul\":5815:5839   */\n      tag_189\n      jump\t// in\n    tag_286:\n        /* \"#utility.yul\":5808:5813   */\n      dup2\n        /* \"#utility.yul\":5805:5840   */\n      eq\n        /* \"#utility.yul\":5795:5858   */\n      tag_287\n      jumpi\n        /* \"#utility.yul\":5854:5855   */\n      0x00\n        /* \"#utility.yul\":5851:5852   */\n      dup1\n        /* \"#utility.yul\":5844:5856   */\n      revert\n        /* \"#utility.yul\":5795:5858   */\n    tag_287:\n        /* \"#utility.yul\":5742:5864   */\n      pop\n      jump\t// out\n        /* \"#utility.yul\":5870:6009   */\n    tag_205:\n        /* \"#utility.yul\":5916:5921   */\n      0x00\n        /* \"#utility.yul\":5954:5960   */\n      dup2\n        /* \"#utility.yul\":5941:5961   */\n      calldataload\n        /* \"#utility.yul\":5932:5961   */\n      swap1\n      pop\n        /* \"#utility.yul\":5970:6003   */\n      tag_289\n        /* \"#utility.yul\":5997:6002   */\n      dup2\n        /* \"#utility.yul\":5970:6003   */\n      tag_204\n      jump\t// in\n    tag_289:\n        /* \"#utility.yul\":5870:6009   */\n      swap3\n      swap2\n      pop\n      pop\n      jump\t// out\n        /* \"#utility.yul\":6015:6344   */\n    tag_63:\n        /* \"#utility.yul\":6074:6080   */\n      0x00\n        /* \"#utility.yul\":6123:6125   */\n      0x20\n        /* \"#utility.yul\":6111:6120   */\n      dup3\n        /* \"#utility.yul\":6102:6109   */\n      dup5\n        /* \"#utility.yul\":6098:6121   */\n      sub\n        /* \"#utility.yul\":6094:6126   */\n      slt\n        /* \"#utility.yul\":6091:6210   */\n      iszero\n      tag_291\n      jumpi\n        /* \"#utility.yul\":6129:6208   */\n      tag_292\n      tag_202\n      jump\t// in\n    tag_292:\n        /* \"#utility.yul\":6091:6210   */\n    tag_291:\n        /* \"#utility.yul\":6249:6250   */\n      0x00\n        /* \"#utility.yul\":6274:6327   */\n      tag_293\n        /* \"#utility.yul\":6319:6326   */\n      dup5\n        /* \"#utility.yul\":6310:6316   */\n      dup3\n        /* \"#utility.yul\":6299:6308   */\n      dup6\n        /* \"#utility.yul\":6295:6317   */\n      add\n        /* \"#utility.yul\":6274:6327   */\n      tag_205\n      jump\t// in\n    tag_293:\n        /* \"#utility.yul\":6264:6327   */\n      swap2\n      pop\n        /* \"#utility.yul\":6220:6337   */\n      pop\n        /* \"#utility.yul\":6015:6344   */\n      swap3\n      swap2\n      pop\n      pop\n      jump\t// out\n        /* \"#utility.yul\":6350:6682   */\n    tag_66:\n        /* \"#utility.yul\":6471:6475   */\n      0x00\n        /* \"#utility.yul\":6509:6511   */\n      0x40\n        /* \"#utility.yul\":6498:6507   */\n      dup3\n        /* \"#utility.yul\":6494:6512   */\n      add\n        /* \"#utility.yul\":6486:6512   */\n      swap1\n      pop\n        /* \"#utility.yul\":6522:6593   */\n      tag_295\n        /* \"#utility.yul\":6590:6591   */\n      0x00\n        /* \"#utility.yul\":6579:6588   */\n      dup4\n        /* \"#utility.yul\":6575:6592   */\n      add\n        /* \"#utility.yul\":6566:6572   */\n      dup6\n        /* \"#utility.yul\":6522:6593   */\n      tag_196\n      jump\t// in\n    tag_295:\n        /* \"#utility.yul\":6603:6675   */\n      tag_296\n        /* \"#utility.yul\":6671:6673   */\n      0x20\n        /* \"#utility.yul\":6660:6669   */\n      dup4\n        /* \"#utility.yul\":6656:6674   */\n      add\n        /* \"#utility.yul\":6647:6653   */\n      dup5\n        /* \"#utility.yul\":6603:6675   */\n      tag_195\n      jump\t// in\n    tag_296:\n        /* \"#utility.yul\":6350:6682   */\n      swap4\n      swap3\n      pop\n      pop\n      pop\n      jump\t// out\n        /* \"#utility.yul\":6688:6857   */\n    tag_206:\n        /* \"#utility.yul\":6772:6783   */\n      0x00\n        /* \"#utility.yul\":6806:6812   */\n      dup3\n        /* \"#utility.yul\":6801:6804   */\n      dup3\n        /* \"#utility.yul\":6794:6813   */\n      mstore\n        /* \"#utility.yul\":6846:6850   */\n      0x20\n        /* \"#utility.yul\":6841:6844   */\n      dup3\n        /* \"#utility.yul\":6837:6851   */\n      add\n        /* \"#utility.yul\":6822:6851   */\n      swap1\n      pop\n        /* \"#utility.yul\":6688:6857   */\n      swap3\n      swap2\n      pop\n      pop\n      jump\t// out\n        /* \"#utility.yul\":6863:7038   */\n    tag_207:\n        /* \"#utility.yul\":7003:7030   */\n      0x5468652061756374696f6e206973206e6f742061637469766500000000000000\n        /* \"#utility.yul\":6999:7000   */\n      0x00\n        /* \"#utility.yul\":6991:6997   */\n      dup3\n        /* \"#utility.yul\":6987:7001   */\n      add\n        /* \"#utility.yul\":6980:7031   */\n      mstore\n        /* \"#utility.yul\":6863:7038   */\n      pop\n      jump\t// out\n        /* \"#utility.yul\":7044:7410   */\n    tag_208:\n        /* \"#utility.yul\":7186:7189   */\n      0x00\n        /* \"#utility.yul\":7207:7274   */\n      tag_300\n        /* \"#utility.yul\":7271:7273   */\n      0x19\n        /* \"#utility.yul\":7266:7269   */\n      dup4\n        /* \"#utility.yul\":7207:7274   */\n      tag_206\n      jump\t// in\n    tag_300:\n        /* \"#utility.yul\":7200:7274   */\n      swap2\n      pop\n        /* \"#utility.yul\":7283:7376   */\n      tag_301\n        /* \"#utility.yul\":7372:7375   */\n      dup3\n        /* \"#utility.yul\":7283:7376   */\n      tag_207\n      jump\t// in\n    tag_301:\n        /* \"#utility.yul\":7401:7403   */\n      0x20\n        /* \"#utility.yul\":7396:7399   */\n      dup3\n        /* \"#utility.yul\":7392:7404   */\n      add\n        /* \"#utility.yul\":7385:7404   */\n      swap1\n      pop\n        /* \"#utility.yul\":7044:7410   */\n      swap2\n      swap1\n      pop\n      jump\t// out\n        /* \"#utility.yul\":7416:7835   */\n    tag_80:\n        /* \"#utility.yul\":7582:7586   */\n      0x00\n        /* \"#utility.yul\":7620:7622   */\n      0x20\n        /* \"#utility.yul\":7609:7618   */\n      dup3\n        /* \"#utility.yul\":7605:7623   */\n      add\n        /* \"#utility.yul\":7597:7623   */\n      swap1\n      pop\n        /* \"#utility.yul\":7669:7678   */\n      dup2\n        /* \"#utility.yul\":7663:7667   */\n      dup2\n        /* \"#utility.yul\":7659:7679   */\n      sub\n        /* \"#utility.yul\":7655:7656   */\n      0x00\n        /* \"#utility.yul\":7644:7653   */\n      dup4\n        /* \"#utility.yul\":7640:7657   */\n      add\n        /* \"#utility.yul\":7633:7680   */\n      mstore\n        /* \"#utility.yul\":7697:7828   */\n      tag_303\n        /* \"#utility.yul\":7823:7827   */\n      dup2\n        /* \"#utility.yul\":7697:7828   */\n      tag_208\n      jump\t// in\n    tag_303:\n        /* \"#utility.yul\":7689:7828   */\n      swap1\n      pop\n        /* \"#utility.yul\":7416:7835   */\n      swap2\n      swap1\n      pop\n      jump\t// out\n        /* \"#utility.yul\":7841:8021   */\n    tag_209:\n        /* \"#utility.yul\":7889:7966   */\n      0x4e487b7100000000000000000000000000000000000000000000000000000000\n        /* \"#utility.yul\":7886:7887   */\n      0x00\n        /* \"#utility.yul\":7879:7967   */\n      mstore\n        /* \"#utility.yul\":7986:7990   */\n      0x11\n        /* \"#utility.yul\":7983:7984   */\n      0x04\n        /* \"#utility.yul\":7976:7991   */\n      mstore\n        /* \"#utility.yul\":8010:8014   */\n      0x24\n        /* \"#utility.yul\":8007:8008   */\n      0x00\n        /* \"#utility.yul\":8000:8015   */\n      revert\n        /* \"#utility.yul\":8027:8437   */\n    tag_84:\n        /* \"#utility.yul\":8067:8074   */\n      0x00\n        /* \"#utility.yul\":8090:8110   */\n      tag_306\n        /* \"#utility.yul\":8108:8109   */\n      dup3\n        /* \"#utility.yul\":8090:8110   */\n      tag_189\n      jump\t// in\n    tag_306:\n        /* \"#utility.yul\":8085:8110   */\n      swap2\n      pop\n        /* \"#utility.yul\":8124:8144   */\n      tag_307\n        /* \"#utility.yul\":8142:8143   */\n      dup4\n        /* \"#utility.yul\":8124:8144   */\n      tag_189\n      jump\t// in\n    tag_307:\n        /* \"#utility.yul\":8119:8144   */\n      swap3\n      pop\n        /* \"#utility.yul\":8179:8180   */\n      dup3\n        /* \"#utility.yul\":8176:8177   */\n      dup3\n        /* \"#utility.yul\":8172:8181   */\n      mul\n        /* \"#utility.yul\":8201:8231   */\n      tag_308\n        /* \"#utility.yul\":8219:8230   */\n      dup2\n        /* \"#utility.yul\":8201:8231   */\n      tag_189\n      jump\t// in\n    tag_308:\n        /* \"#utility.yul\":8190:8231   */\n      swap2\n      pop\n        /* \"#utility.yul\":8380:8381   */\n      dup3\n        /* \"#utility.yul\":8371:8378   */\n      dup3\n        /* \"#utility.yul\":8367:8382   */\n      div\n        /* \"#utility.yul\":8364:8365   */\n      dup5\n        /* \"#utility.yul\":8361:8383   */\n      eq\n        /* \"#utility.yul\":8341:8342   */\n      dup4\n        /* \"#utility.yul\":8334:8343   */\n      iszero\n        /* \"#utility.yul\":8314:8397   */\n      or\n        /* \"#utility.yul\":8291:8430   */\n      tag_309\n      jumpi\n        /* \"#utility.yul\":8410:8428   */\n      tag_310\n      tag_209\n      jump\t// in\n    tag_310:\n        /* \"#utility.yul\":8291:8430   */\n    tag_309:\n        /* \"#utility.yul\":8075:8437   */\n      pop\n        /* \"#utility.yul\":8027:8437   */\n      swap3\n      swap2\n      pop\n      pop\n      jump\t// out\n        /* \"#utility.yul\":8443:8623   */\n    tag_210:\n        /* \"#utility.yul\":8491:8568   */\n      0x4e487b7100000000000000000000000000000000000000000000000000000000\n        /* \"#utility.yul\":8488:8489   */\n      0x00\n        /* \"#utility.yul\":8481:8569   */\n      mstore\n        /* \"#utility.yul\":8588:8592   */\n      0x12\n        /* \"#utility.yul\":8585:8586   */\n      0x04\n        /* \"#utility.yul\":8578:8593   */\n      mstore\n        /* \"#utility.yul\":8612:8616   */\n      0x24\n        /* \"#utility.yul\":8609:8610   */\n      0x00\n        /* \"#utility.yul\":8602:8617   */\n      revert\n        /* \"#utility.yul\":8629:8814   */\n    tag_86:\n        /* \"#utility.yul\":8669:8670   */\n      0x00\n        /* \"#utility.yul\":8686:8706   */\n      tag_313\n        /* \"#utility.yul\":8704:8705   */\n      dup3\n        /* \"#utility.yul\":8686:8706   */\n      tag_189\n      jump\t// in\n    tag_313:\n        /* \"#utility.yul\":8681:8706   */\n      swap2\n      pop\n        /* \"#utility.yul\":8720:8740   */\n      tag_314\n        /* \"#utility.yul\":8738:8739   */\n      dup4\n        /* \"#utility.yul\":8720:8740   */\n      tag_189\n      jump\t// in\n    tag_314:\n        /* \"#utility.yul\":8715:8740   */\n      swap3\n      pop\n        /* \"#utility.yul\":8759:8760   */\n      dup3\n        /* \"#utility.yul\":8749:8784   */\n      tag_315\n      jumpi\n        /* \"#utility.yul\":8764:8782   */\n      tag_316\n      tag_210\n      jump\t// in\n    tag_316:\n        /* \"#utility.yul\":8749:8784   */\n    tag_315:\n        /* \"#utility.yul\":8806:8807   */\n      dup3\n        /* \"#utility.yul\":8803:8804   */\n      dup3\n        /* \"#utility.yul\":8799:8808   */\n      div\n        /* \"#utility.yul\":8794:8808   */\n      swap1\n      pop\n        /* \"#utility.yul\":8629:8814   */\n      swap3\n      swap2\n      pop\n      pop\n      jump\t// out\n        /* \"#utility.yul\":8820:9058   */\n    tag_211:\n        /* \"#utility.yul\":8960:8994   */\n      0x426964206d757374206265206174206c65617374203525206869676865722074\n        /* \"#utility.yul\":8956:8957   */\n      0x00\n        /* \"#utility.yul\":8948:8954   */\n      dup3\n        /* \"#utility.yul\":8944:8958   */\n      add\n        /* \"#utility.yul\":8937:8995   */\n      mstore\n        /* \"#utility.yul\":9029:9050   */\n      0x68616e207468652063757272656e742062696400000000000000000000000000\n        /* \"#utility.yul\":9024:9026   */\n      0x20\n        /* \"#utility.yul\":9016:9022   */\n      dup3\n        /* \"#utility.yul\":9012:9027   */\n      add\n        /* \"#utility.yul\":9005:9051   */\n      mstore\n        /* \"#utility.yul\":8820:9058   */\n      pop\n      jump\t// out\n        /* \"#utility.yul\":9064:9430   */\n    tag_212:\n        /* \"#utility.yul\":9206:9209   */\n      0x00\n        /* \"#utility.yul\":9227:9294   */\n      tag_319\n        /* \"#utility.yul\":9291:9293   */\n      0x33\n        /* \"#utility.yul\":9286:9289   */\n      dup4\n        /* \"#utility.yul\":9227:9294   */\n      tag_206\n      jump\t// in\n    tag_319:\n        /* \"#utility.yul\":9220:9294   */\n      swap2\n      pop\n        /* \"#utility.yul\":9303:9396   */\n      tag_320\n        /* \"#utility.yul\":9392:9395   */\n      dup3\n        /* \"#utility.yul\":9303:9396   */\n      tag_211\n      jump\t// in\n    tag_320:\n        /* \"#utility.yul\":9421:9423   */\n      0x40\n        /* \"#utility.yul\":9416:9419   */\n      dup3\n        /* \"#utility.yul\":9412:9424   */\n      add\n        /* \"#utility.yul\":9405:9424   */\n      swap1\n      pop\n        /* \"#utility.yul\":9064:9430   */\n      swap2\n      swap1\n      pop\n      jump\t// out\n        /* \"#utility.yul\":9436:9855   */\n    tag_89:\n        /* \"#utility.yul\":9602:9606   */\n      0x00\n        /* \"#utility.yul\":9640:9642   */\n      0x20\n        /* \"#utility.yul\":9629:9638   */\n      dup3\n        /* \"#utility.yul\":9625:9643   */\n      add\n        /* \"#utility.yul\":9617:9643   */\n      swap1\n      pop\n        /* \"#utility.yul\":9689:9698   */\n      dup2\n        /* \"#utility.yul\":9683:9687   */\n      dup2\n        /* \"#utility.yul\":9679:9699   */\n      sub\n        /* \"#utility.yul\":9675:9676   */\n      0x00\n        /* \"#utility.yul\":9664:9673   */\n      dup4\n        /* \"#utility.yul\":9660:9677   */\n      add\n        /* \"#utility.yul\":9653:9700   */\n      mstore\n        /* \"#utility.yul\":9717:9848   */\n      tag_322\n        /* \"#utility.yul\":9843:9847   */\n      dup2\n        /* \"#utility.yul\":9717:9848   */\n      tag_212\n      jump\t// in\n    tag_322:\n        /* \"#utility.yul\":9709:9848   */\n      swap1\n      pop\n        /* \"#utility.yul\":9436:9855   */\n      swap2\n      swap1\n      pop\n      jump\t// out\n        /* \"#utility.yul\":9861:10032   */\n    tag_213:\n        /* \"#utility.yul\":10001:10024   */\n      0x5468652061756374696f6e2068617320656e6465640000000000000000000000\n        /* \"#utility.yul\":9997:9998   */\n      0x00\n        /* \"#utility.yul\":9989:9995   */\n      dup3\n        /* \"#utility.yul\":9985:9999   */\n      add\n        /* \"#utility.yul\":9978:10025   */\n      mstore\n        /* \"#utility.yul\":9861:10032   */\n      pop\n      jump\t// out\n        /* \"#utility.yul\":10038:10404   */\n    tag_214:\n        /* \"#utility.yul\":10180:10183   */\n      0x00\n        /* \"#utility.yul\":10201:10268   */\n      tag_325\n        /* \"#utility.yul\":10265:10267   */\n      0x15\n        /* \"#utility.yul\":10260:10263   */\n      dup4\n        /* \"#utility.yul\":10201:10268   */\n      tag_206\n      jump\t// in\n    tag_325:\n        /* \"#utility.yul\":10194:10268   */\n      swap2\n      pop\n        /* \"#utility.yul\":10277:10370   */\n      tag_326\n        /* \"#utility.yul\":10366:10369   */\n      dup3\n        /* \"#utility.yul\":10277:10370   */\n      tag_213\n      jump\t// in\n    tag_326:\n        /* \"#utility.yul\":10395:10397   */\n      0x20\n        /* \"#utility.yul\":10390:10393   */\n      dup3\n        /* \"#utility.yul\":10386:10398   */\n      add\n        /* \"#utility.yul\":10379:10398   */\n      swap1\n      pop\n        /* \"#utility.yul\":10038:10404   */\n      swap2\n      swap1\n      pop\n      jump\t// out\n        /* \"#utility.yul\":10410:10829   */\n    tag_92:\n        /* \"#utility.yul\":10576:10580   */\n      0x00\n        /* \"#utility.yul\":10614:10616   */\n      0x20\n        /* \"#utility.yul\":10603:10612   */\n      dup3\n        /* \"#utility.yul\":10599:10617   */\n      add\n        /* \"#utility.yul\":10591:10617   */\n      swap1\n      pop\n        /* \"#utility.yul\":10663:10672   */\n      dup2\n        /* \"#utility.yul\":10657:10661   */\n      dup2\n        /* \"#utility.yul\":10653:10673   */\n      sub\n        /* \"#utility.yul\":10649:10650   */\n      0x00\n        /* \"#utility.yul\":10638:10647   */\n      dup4\n        /* \"#utility.yul\":10634:10651   */\n      add\n        /* \"#utility.yul\":10627:10674   */\n      mstore\n        /* \"#utility.yul\":10691:10822   */\n      tag_328\n        /* \"#utility.yul\":10817:10821   */\n      dup2\n        /* \"#utility.yul\":10691:10822   */\n      tag_214\n      jump\t// in\n    tag_328:\n        /* \"#utility.yul\":10683:10822   */\n      swap1\n      pop\n        /* \"#utility.yul\":10410:10829   */\n      swap2\n      swap1\n      pop\n      jump\t// out\n        /* \"#utility.yul\":10835:11026   */\n    tag_94:\n        /* \"#utility.yul\":10875:10878   */\n      0x00\n        /* \"#utility.yul\":10894:10914   */\n      tag_330\n        /* \"#utility.yul\":10912:10913   */\n      dup3\n        /* \"#utility.yul\":10894:10914   */\n      tag_189\n      jump\t// in\n    tag_330:\n        /* \"#utility.yul\":10889:10914   */\n      swap2\n      pop\n        /* \"#utility.yul\":10928:10948   */\n      tag_331\n        /* \"#utility.yul\":10946:10947   */\n      dup4\n        /* \"#utility.yul\":10928:10948   */\n      tag_189\n      jump\t// in\n    tag_331:\n        /* \"#utility.yul\":10923:10948   */\n      swap3\n      pop\n        /* \"#utility.yul\":10971:10972   */\n      dup3\n        /* \"#utility.yul\":10968:10969   */\n      dup3\n        /* \"#utility.yul\":10964:10973   */\n      add\n        /* \"#utility.yul\":10957:10973   */\n      swap1\n      pop\n        /* \"#utility.yul\":10992:10995   */\n      dup1\n        /* \"#utility.yul\":10989:10990   */\n      dup3\n        /* \"#utility.yul\":10986:10996   */\n      gt\n        /* \"#utility.yul\":10983:11019   */\n      iszero\n      tag_332\n      jumpi\n        /* \"#utility.yul\":10999:11017   */\n      tag_333\n      tag_209\n      jump\t// in\n    tag_333:\n        /* \"#utility.yul\":10983:11019   */\n    tag_332:\n        /* \"#utility.yul\":10835:11026   */\n      swap3\n      swap2\n      pop\n      pop\n      jump\t// out\n        /* \"#utility.yul\":11032:11264   */\n    tag_215:\n        /* \"#utility.yul\":11172:11206   */\n      0x4f6e6c79207468652061756374696f6e6565722063616e206578656375746520\n        /* \"#utility.yul\":11168:11169   */\n      0x00\n        /* \"#utility.yul\":11160:11166   */\n      dup3\n        /* \"#utility.yul\":11156:11170   */\n      add\n        /* \"#utility.yul\":11149:11207   */\n      mstore\n        /* \"#utility.yul\":11241:11256   */\n      0x746869732066756e6374696f6e00000000000000000000000000000000000000\n        /* \"#utility.yul\":11236:11238   */\n      0x20\n        /* \"#utility.yul\":11228:11234   */\n      dup3\n        /* \"#utility.yul\":11224:11239   */\n      add\n        /* \"#utility.yul\":11217:11257   */\n      mstore\n        /* \"#utility.yul\":11032:11264   */\n      pop\n      jump\t// out\n        /* \"#utility.yul\":11270:11636   */\n    tag_216:\n        /* \"#utility.yul\":11412:11415   */\n      0x00\n        /* \"#utility.yul\":11433:11500   */\n      tag_336\n        /* \"#utility.yul\":11497:11499   */\n      0x2d\n        /* \"#utility.yul\":11492:11495   */\n      dup4\n        /* \"#utility.yul\":11433:11500   */\n      tag_206\n      jump\t// in\n    tag_336:\n        /* \"#utility.yul\":11426:11500   */\n      swap2\n      pop\n        /* \"#utility.yul\":11509:11602   */\n      tag_337\n        /* \"#utility.yul\":11598:11601   */\n      dup3\n        /* \"#utility.yul\":11509:11602   */\n      tag_215\n      jump\t// in\n    tag_337:\n        /* \"#utility.yul\":11627:11629   */\n      0x40\n        /* \"#utility.yul\":11622:11625   */\n      dup3\n        /* \"#utility.yul\":11618:11630   */\n      add\n        /* \"#utility.yul\":11611:11630   */\n      swap1\n      pop\n        /* \"#utility.yul\":11270:11636   */\n      swap2\n      swap1\n      pop\n      jump\t// out\n        /* \"#utility.yul\":11642:12061   */\n    tag_100:\n        /* \"#utility.yul\":11808:11812   */\n      0x00\n        /* \"#utility.yul\":11846:11848   */\n      0x20\n        /* \"#utility.yul\":11835:11844   */\n      dup3\n        /* \"#utility.yul\":11831:11849   */\n      add\n        /* \"#utility.yul\":11823:11849   */\n      swap1\n      pop\n        /* \"#utility.yul\":11895:11904   */\n      dup2\n        /* \"#utility.yul\":11889:11893   */\n      dup2\n        /* \"#utility.yul\":11885:11905   */\n      sub\n        /* \"#utility.yul\":11881:11882   */\n      0x00\n        /* \"#utility.yul\":11870:11879   */\n      dup4\n        /* \"#utility.yul\":11866:11883   */\n      add\n        /* \"#utility.yul\":11859:11906   */\n      mstore\n        /* \"#utility.yul\":11923:12054   */\n      tag_339\n        /* \"#utility.yul\":12049:12053   */\n      dup2\n        /* \"#utility.yul\":11923:12054   */\n      tag_216\n      jump\t// in\n    tag_339:\n        /* \"#utility.yul\":11915:12054   */\n      swap1\n      pop\n        /* \"#utility.yul\":11642:12061   */\n      swap2\n      swap1\n      pop\n      jump\t// out\n        /* \"#utility.yul\":12067:12244   */\n    tag_217:\n        /* \"#utility.yul\":12207:12236   */\n      0x5468652061756374696f6e206973207374696c6c206163746976650000000000\n        /* \"#utility.yul\":12203:12204   */\n      0x00\n        /* \"#utility.yul\":12195:12201   */\n      dup3\n        /* \"#utility.yul\":12191:12205   */\n      add\n        /* \"#utility.yul\":12184:12237   */\n      mstore\n        /* \"#utility.yul\":12067:12244   */\n      pop\n      jump\t// out\n        /* \"#utility.yul\":12250:12616   */\n    tag_218:\n        /* \"#utility.yul\":12392:12395   */\n      0x00\n        /* \"#utility.yul\":12413:12480   */\n      tag_342\n        /* \"#utility.yul\":12477:12479   */\n      0x1b\n        /* \"#utility.yul\":12472:12475   */\n      dup4\n        /* \"#utility.yul\":12413:12480   */\n      tag_206\n      jump\t// in\n    tag_342:\n        /* \"#utility.yul\":12406:12480   */\n      swap2\n      pop\n        /* \"#utility.yul\":12489:12582   */\n      tag_343\n        /* \"#utility.yul\":12578:12581   */\n      dup3\n        /* \"#utility.yul\":12489:12582   */\n      tag_217\n      jump\t// in\n    tag_343:\n        /* \"#utility.yul\":12607:12609   */\n      0x20\n        /* \"#utility.yul\":12602:12605   */\n      dup3\n        /* \"#utility.yul\":12598:12610   */\n      add\n        /* \"#utility.yul\":12591:12610   */\n      swap1\n      pop\n        /* \"#utility.yul\":12250:12616   */\n      swap2\n      swap1\n      pop\n      jump\t// out\n        /* \"#utility.yul\":12622:13041   */\n    tag_104:\n        /* \"#utility.yul\":12788:12792   */\n      0x00\n        /* \"#utility.yul\":12826:12828   */\n      0x20\n        /* \"#utility.yul\":12815:12824   */\n      dup3\n        /* \"#utility.yul\":12811:12829   */\n      add\n        /* \"#utility.yul\":12803:12829   */\n      swap1\n      pop\n        /* \"#utility.yul\":12875:12884   */\n      dup2\n        /* \"#utility.yul\":12869:12873   */\n      dup2\n        /* \"#utility.yul\":12865:12885   */\n      sub\n        /* \"#utility.yul\":12861:12862   */\n      0x00\n        /* \"#utility.yul\":12850:12859   */\n      dup4\n        /* \"#utility.yul\":12846:12863   */\n      add\n        /* \"#utility.yul\":12839:12886   */\n      mstore\n        /* \"#utility.yul\":12903:13034   */\n      tag_345\n        /* \"#utility.yul\":13029:13033   */\n      dup2\n        /* \"#utility.yul\":12903:13034   */\n      tag_218\n      jump\t// in\n    tag_345:\n        /* \"#utility.yul\":12895:13034   */\n      swap1\n      pop\n        /* \"#utility.yul\":12622:13041   */\n      swap2\n      swap1\n      pop\n      jump\t// out\n        /* \"#utility.yul\":13047:13241   */\n    tag_106:\n        /* \"#utility.yul\":13087:13091   */\n      0x00\n        /* \"#utility.yul\":13107:13127   */\n      tag_347\n        /* \"#utility.yul\":13125:13126   */\n      dup3\n        /* \"#utility.yul\":13107:13127   */\n      tag_189\n      jump\t// in\n    tag_347:\n        /* \"#utility.yul\":13102:13127   */\n      swap2\n      pop\n        /* \"#utility.yul\":13141:13161   */\n      tag_348\n        /* \"#utility.yul\":13159:13160   */\n      dup4\n        /* \"#utility.yul\":13141:13161   */\n      tag_189\n      jump\t// in\n    tag_348:\n        /* \"#utility.yul\":13136:13161   */\n      swap3\n      pop\n        /* \"#utility.yul\":13185:13186   */\n      dup3\n        /* \"#utility.yul\":13182:13183   */\n      dup3\n        /* \"#utility.yul\":13178:13187   */\n      sub\n        /* \"#utility.yul\":13170:13187   */\n      swap1\n      pop\n        /* \"#utility.yul\":13209:13210   */\n      dup2\n        /* \"#utility.yul\":13203:13207   */\n      dup2\n        /* \"#utility.yul\":13200:13211   */\n      gt\n        /* \"#utility.yul\":13197:13234   */\n      iszero\n      tag_349\n      jumpi\n        /* \"#utility.yul\":13214:13232   */\n      tag_350\n      tag_209\n      jump\t// in\n    tag_350:\n        /* \"#utility.yul\":13197:13234   */\n    tag_349:\n        /* \"#utility.yul\":13047:13241   */\n      swap3\n      swap2\n      pop\n      pop\n      jump\t// out\n        /* \"#utility.yul\":13247:13427   */\n    tag_109:\n        /* \"#utility.yul\":13295:13372   */\n      0x4e487b7100000000000000000000000000000000000000000000000000000000\n        /* \"#utility.yul\":13292:13293   */\n      0x00\n        /* \"#utility.yul\":13285:13373   */\n      mstore\n        /* \"#utility.yul\":13392:13396   */\n      0x32\n        /* \"#utility.yul\":13389:13390   */\n      0x04\n        /* \"#utility.yul\":13382:13397   */\n      mstore\n        /* \"#utility.yul\":13416:13420   */\n      0x24\n        /* \"#utility.yul\":13413:13414   */\n      0x00\n        /* \"#utility.yul\":13406:13421   */\n      revert\n        /* \"#utility.yul\":13433:13624   */\n    tag_120:\n        /* \"#utility.yul\":13471:13475   */\n      0x00\n        /* \"#utility.yul\":13491:13509   */\n      tag_353\n        /* \"#utility.yul\":13507:13508   */\n      dup3\n        /* \"#utility.yul\":13491:13509   */\n      tag_181\n      jump\t// in\n    tag_353:\n        /* \"#utility.yul\":13486:13509   */\n      swap2\n      pop\n        /* \"#utility.yul\":13523:13541   */\n      tag_354\n        /* \"#utility.yul\":13539:13540   */\n      dup4\n        /* \"#utility.yul\":13523:13541   */\n      tag_181\n      jump\t// in\n    tag_354:\n        /* \"#utility.yul\":13518:13541   */\n      swap3\n      pop\n        /* \"#utility.yul\":13565:13566   */\n      dup3\n        /* \"#utility.yul\":13562:13563   */\n      dup3\n        /* \"#utility.yul\":13558:13567   */\n      sub\n        /* \"#utility.yul\":13550:13567   */\n      swap1\n      pop\n        /* \"#utility.yul\":13589:13593   */\n      0xff\n        /* \"#utility.yul\":13583:13587   */\n      dup2\n        /* \"#utility.yul\":13580:13594   */\n      gt\n        /* \"#utility.yul\":13577:13617   */\n      iszero\n      tag_355\n      jumpi\n        /* \"#utility.yul\":13597:13615   */\n      tag_356\n      tag_209\n      jump\t// in\n    tag_356:\n        /* \"#utility.yul\":13577:13617   */\n    tag_355:\n        /* \"#utility.yul\":13433:13624   */\n      swap3\n      swap2\n      pop\n      pop\n      jump\t// out\n        /* \"#utility.yul\":13630:13777   */\n    tag_219:\n        /* \"#utility.yul\":13731:13742   */\n      0x00\n        /* \"#utility.yul\":13768:13771   */\n      dup2\n        /* \"#utility.yul\":13753:13771   */\n      swap1\n      pop\n        /* \"#utility.yul\":13630:13777   */\n      swap3\n      swap2\n      pop\n      pop\n      jump\t// out\n        /* \"#utility.yul\":13783:13897   */\n    tag_220:\n      pop\n      jump\t// out\n        /* \"#utility.yul\":13903:14301   */\n    tag_221:\n        /* \"#utility.yul\":14062:14065   */\n      0x00\n        /* \"#utility.yul\":14083:14166   */\n      tag_360\n        /* \"#utility.yul\":14164:14165   */\n      0x00\n        /* \"#utility.yul\":14159:14162   */\n      dup4\n        /* \"#utility.yul\":14083:14166   */\n      tag_219\n      jump\t// in\n    tag_360:\n        /* \"#utility.yul\":14076:14166   */\n      swap2\n      pop\n        /* \"#utility.yul\":14175:14268   */\n      tag_361\n        /* \"#utility.yul\":14264:14267   */\n      dup3\n        /* \"#utility.yul\":14175:14268   */\n      tag_220\n      jump\t// in\n    tag_361:\n        /* \"#utility.yul\":14293:14294   */\n      0x00\n        /* \"#utility.yul\":14288:14291   */\n      dup3\n        /* \"#utility.yul\":14284:14295   */\n      add\n        /* \"#utility.yul\":14277:14295   */\n      swap1\n      pop\n        /* \"#utility.yul\":13903:14301   */\n      swap2\n      swap1\n      pop\n      jump\t// out\n        /* \"#utility.yul\":14307:14686   */\n    tag_124:\n        /* \"#utility.yul\":14491:14494   */\n      0x00\n        /* \"#utility.yul\":14513:14660   */\n      tag_363\n        /* \"#utility.yul\":14656:14659   */\n      dup3\n        /* \"#utility.yul\":14513:14660   */\n      tag_221\n      jump\t// in\n    tag_363:\n        /* \"#utility.yul\":14506:14660   */\n      swap2\n      pop\n        /* \"#utility.yul\":14677:14680   */\n      dup2\n        /* \"#utility.yul\":14670:14680   */\n      swap1\n      pop\n        /* \"#utility.yul\":14307:14686   */\n      swap2\n      swap1\n      pop\n      jump\t// out\n        /* \"#utility.yul\":14692:14865   */\n    tag_222:\n        /* \"#utility.yul\":14832:14857   */\n      0x526566756e6420746f20626964646572206661696c6564000000000000000000\n        /* \"#utility.yul\":14828:14829   */\n      0x00\n        /* \"#utility.yul\":14820:14826   */\n      dup3\n        /* \"#utility.yul\":14816:14830   */\n      add\n        /* \"#utility.yul\":14809:14858   */\n      mstore\n        /* \"#utility.yul\":14692:14865   */\n      pop\n      jump\t// out\n        /* \"#utility.yul\":14871:15237   */\n    tag_223:\n        /* \"#utility.yul\":15013:15016   */\n      0x00\n        /* \"#utility.yul\":15034:15101   */\n      tag_366\n        /* \"#utility.yul\":15098:15100   */\n      0x17\n        /* \"#utility.yul\":15093:15096   */\n      dup4\n        /* \"#utility.yul\":15034:15101   */\n      tag_206\n      jump\t// in\n    tag_366:\n        /* \"#utility.yul\":15027:15101   */\n      swap2\n      pop\n        /* \"#utility.yul\":15110:15203   */\n      tag_367\n        /* \"#utility.yul\":15199:15202   */\n      dup3\n        /* \"#utility.yul\":15110:15203   */\n      tag_222\n      jump\t// in\n    tag_367:\n        /* \"#utility.yul\":15228:15230   */\n      0x20\n        /* \"#utility.yul\":15223:15226   */\n      dup3\n        /* \"#utility.yul\":15219:15231   */\n      add\n        /* \"#utility.yul\":15212:15231   */\n      swap1\n      pop\n        /* \"#utility.yul\":14871:15237   */\n      swap2\n      swap1\n      pop\n      jump\t// out\n        /* \"#utility.yul\":15243:15662   */\n    tag_130:\n        /* \"#utility.yul\":15409:15413   */\n      0x00\n        /* \"#utility.yul\":15447:15449   */\n      0x20\n        /* \"#utility.yul\":15436:15445   */\n      dup3\n        /* \"#utility.yul\":15432:15450   */\n      add\n        /* \"#utility.yul\":15424:15450   */\n      swap1\n      pop\n        /* \"#utility.yul\":15496:15505   */\n      dup2\n        /* \"#utility.yul\":15490:15494   */\n      dup2\n        /* \"#utility.yul\":15486:15506   */\n      sub\n        /* \"#utility.yul\":15482:15483   */\n      0x00\n        /* \"#utility.yul\":15471:15480   */\n      dup4\n        /* \"#utility.yul\":15467:15484   */\n      add\n        /* \"#utility.yul\":15460:15507   */\n      mstore\n        /* \"#utility.yul\":15524:15655   */\n      tag_369\n        /* \"#utility.yul\":15650:15654   */\n      dup2\n        /* \"#utility.yul\":15524:15655   */\n      tag_223\n      jump\t// in\n    tag_369:\n        /* \"#utility.yul\":15516:15655   */\n      swap1\n      pop\n        /* \"#utility.yul\":15243:15662   */\n      swap2\n      swap1\n      pop\n      jump\t// out\n        /* \"#utility.yul\":15668:15846   */\n    tag_224:\n        /* \"#utility.yul\":15808:15838   */\n      0x5468657265206973206e6f7468696e6720746f20776974686472617700000000\n        /* \"#utility.yul\":15804:15805   */\n      0x00\n        /* \"#utility.yul\":15796:15802   */\n      dup3\n        /* \"#utility.yul\":15792:15806   */\n      add\n        /* \"#utility.yul\":15785:15839   */\n      mstore\n        /* \"#utility.yul\":15668:15846   */\n      pop\n      jump\t// out\n        /* \"#utility.yul\":15852:16218   */\n    tag_225:\n        /* \"#utility.yul\":15994:15997   */\n      0x00\n        /* \"#utility.yul\":16015:16082   */\n      tag_372\n        /* \"#utility.yul\":16079:16081   */\n      0x1c\n        /* \"#utility.yul\":16074:16077   */\n      dup4\n        /* \"#utility.yul\":16015:16082   */\n      tag_206\n      jump\t// in\n    tag_372:\n        /* \"#utility.yul\":16008:16082   */\n      swap2\n      pop\n        /* \"#utility.yul\":16091:16184   */\n      tag_373\n        /* \"#utility.yul\":16180:16183   */\n      dup3\n        /* \"#utility.yul\":16091:16184   */\n      tag_224\n      jump\t// in\n    tag_373:\n        /* \"#utility.yul\":16209:16211   */\n      0x20\n        /* \"#utility.yul\":16204:16207   */\n      dup3\n        /* \"#utility.yul\":16200:16212   */\n      add\n        /* \"#utility.yul\":16193:16212   */\n      swap1\n      pop\n        /* \"#utility.yul\":15852:16218   */\n      swap2\n      swap1\n      pop\n      jump\t// out\n        /* \"#utility.yul\":16224:16643   */\n    tag_159:\n        /* \"#utility.yul\":16390:16394   */\n      0x00\n        /* \"#utility.yul\":16428:16430   */\n      0x20\n        /* \"#utility.yul\":16417:16426   */\n      dup3\n        /* \"#utility.yul\":16413:16431   */\n      add\n        /* \"#utility.yul\":16405:16431   */\n      swap1\n      pop\n        /* \"#utility.yul\":16477:16486   */\n      dup2\n        /* \"#utility.yul\":16471:16475   */\n      dup2\n        /* \"#utility.yul\":16467:16487   */\n      sub\n        /* \"#utility.yul\":16463:16464   */\n      0x00\n        /* \"#utility.yul\":16452:16461   */\n      dup4\n        /* \"#utility.yul\":16448:16465   */\n      add\n        /* \"#utility.yul\":16441:16488   */\n      mstore\n        /* \"#utility.yul\":16505:16636   */\n      tag_375\n        /* \"#utility.yul\":16631:16635   */\n      dup2\n        /* \"#utility.yul\":16505:16636   */\n      tag_225\n      jump\t// in\n    tag_375:\n        /* \"#utility.yul\":16497:16636   */\n      swap1\n      pop\n        /* \"#utility.yul\":16224:16643   */\n      swap2\n      swap1\n      pop\n      jump\t// out\n        /* \"#utility.yul\":16649:16824   */\n    tag_226:\n        /* \"#utility.yul\":16789:16816   */\n      0x5468652061756374696f6e20686173206e6f7420656e64656400000000000000\n        /* \"#utility.yul\":16785:16786   */\n      0x00\n        /* \"#utility.yul\":16777:16783   */\n      dup3\n        /* \"#utility.yul\":16773:16787   */\n      add\n        /* \"#utility.yul\":16766:16817   */\n      mstore\n        /* \"#utility.yul\":16649:16824   */\n      pop\n      jump\t// out\n        /* \"#utility.yul\":16830:17196   */\n    tag_227:\n        /* \"#utility.yul\":16972:16975   */\n      0x00\n        /* \"#utility.yul\":16993:17060   */\n      tag_378\n        /* \"#utility.yul\":17057:17059   */\n      0x19\n        /* \"#utility.yul\":17052:17055   */\n      dup4\n        /* \"#utility.yul\":16993:17060   */\n      tag_206\n      jump\t// in\n    tag_378:\n        /* \"#utility.yul\":16986:17060   */\n      swap2\n      pop\n        /* \"#utility.yul\":17069:17162   */\n      tag_379\n        /* \"#utility.yul\":17158:17161   */\n      dup3\n        /* \"#utility.yul\":17069:17162   */\n      tag_226\n      jump\t// in\n    tag_379:\n        /* \"#utility.yul\":17187:17189   */\n      0x20\n        /* \"#utility.yul\":17182:17185   */\n      dup3\n        /* \"#utility.yul\":17178:17190   */\n      add\n        /* \"#utility.yul\":17171:17190   */\n      swap1\n      pop\n        /* \"#utility.yul\":16830:17196   */\n      swap2\n      swap1\n      pop\n      jump\t// out\n        /* \"#utility.yul\":17202:17621   */\n    tag_168:\n        /* \"#utility.yul\":17368:17372   */\n      0x00\n        /* \"#utility.yul\":17406:17408   */\n      0x20\n        /* \"#utility.yul\":17395:17404   */\n      dup3\n        /* \"#utility.yul\":17391:17409   */\n      add\n        /* \"#utility.yul\":17383:17409   */\n      swap1\n      pop\n        /* \"#utility.yul\":17455:17464   */\n      dup2\n        /* \"#utility.yul\":17449:17453   */\n      dup2\n        /* \"#utility.yul\":17445:17465   */\n      sub\n        /* \"#utility.yul\":17441:17442   */\n      0x00\n        /* \"#utility.yul\":17430:17439   */\n      dup4\n        /* \"#utility.yul\":17426:17443   */\n      add\n        /* \"#utility.yul\":17419:17466   */\n      mstore\n        /* \"#utility.yul\":17483:17614   */\n      tag_381\n        /* \"#utility.yul\":17609:17613   */\n      dup2\n        /* \"#utility.yul\":17483:17614   */\n      tag_227\n      jump\t// in\n    tag_381:\n        /* \"#utility.yul\":17475:17614   */\n      swap1\n      pop\n        /* \"#utility.yul\":17202:17621   */\n      swap2\n      swap1\n      pop\n      jump\t// out\n        /* \"#utility.yul\":17627:17806   */\n    tag_228:\n        /* \"#utility.yul\":17767:17798   */\n      0x5472616e7366657220746f2061756374696f6e656572206661696c6564000000\n        /* \"#utility.yul\":17763:17764   */\n      0x00\n        /* \"#utility.yul\":17755:17761   */\n      dup3\n        /* \"#utility.yul\":17751:17765   */\n      add\n        /* \"#utility.yul\":17744:17799   */\n      mstore\n        /* \"#utility.yul\":17627:17806   */\n      pop\n      jump\t// out\n        /* \"#utility.yul\":17812:18178   */\n    tag_229:\n        /* \"#utility.yul\":17954:17957   */\n      0x00\n        /* \"#utility.yul\":17975:18042   */\n      tag_384\n        /* \"#utility.yul\":18039:18041   */\n      0x1d\n        /* \"#utility.yul\":18034:18037   */\n      dup4\n        /* \"#utility.yul\":17975:18042   */\n      tag_206\n      jump\t// in\n    tag_384:\n        /* \"#utility.yul\":17968:18042   */\n      swap2\n      pop\n        /* \"#utility.yul\":18051:18144   */\n      tag_385\n        /* \"#utility.yul\":18140:18143   */\n      dup3\n        /* \"#utility.yul\":18051:18144   */\n      tag_228\n      jump\t// in\n    tag_385:\n        /* \"#utility.yul\":18169:18171   */\n      0x20\n        /* \"#utility.yul\":18164:18167   */\n      dup3\n        /* \"#utility.yul\":18160:18172   */\n      add\n        /* \"#utility.yul\":18153:18172   */\n      swap1\n      pop\n        /* \"#utility.yul\":17812:18178   */\n      swap2\n      swap1\n      pop\n      jump\t// out\n        /* \"#utility.yul\":18184:18603   */\n    tag_179:\n        /* \"#utility.yul\":18350:18354   */\n      0x00\n        /* \"#utility.yul\":18388:18390   */\n      0x20\n        /* \"#utility.yul\":18377:18386   */\n      dup3\n        /* \"#utility.yul\":18373:18391   */\n      add\n        /* \"#utility.yul\":18365:18391   */\n      swap1\n      pop\n        /* \"#utility.yul\":18437:18446   */\n      dup2\n        /* \"#utility.yul\":18431:18435   */\n      dup2\n        /* \"#utility.yul\":18427:18447   */\n      sub\n        /* \"#utility.yul\":18423:18424   */\n      0x00\n        /* \"#utility.yul\":18412:18421   */\n      dup4\n        /* \"#utility.yul\":18408:18425   */\n      add\n        /* \"#utility.yul\":18401:18448   */\n      mstore\n        /* \"#utility.yul\":18465:18596   */\n      tag_387\n        /* \"#utility.yul\":18591:18595   */\n      dup2\n        /* \"#utility.yul\":18465:18596   */\n      tag_229\n      jump\t// in\n    tag_387:\n        /* \"#utility.yul\":18457:18596   */\n      swap1\n      pop\n        /* \"#utility.yul\":18184:18603   */\n      swap2\n      swap1\n      pop\n      jump\t// out\n\n    auxdata: 0xa264697066735822122021e5f496a70e5b7127adb38a110c1e2a92ec771e6be187c3b372783ab8cd5f8664736f6c634300081a0033\n}\n",
				"bytecode": {
					"linkReferences": {},
					"object": "608060405234801561000f575f80fd5b506040516118aa3803806118aa8339818101604052810190610031919061018a565b335f806101000a81548173ffffffffffffffffffffffffffffffffffffffff021916908373ffffffffffffffffffffffffffffffffffffffff16021790555080600281905550600160035f6101000a81548160ff021916908315150217905550607863ffffffff16426100a491906101e2565b600181905550600460405180604001604052803373ffffffffffffffffffffffffffffffffffffffff16815260200183815250908060018154018082558091505060019003905f5260205f2090600202015f909190919091505f820151815f015f6101000a81548173ffffffffffffffffffffffffffffffffffffffff021916908373ffffffffffffffffffffffffffffffffffffffff16021790555060208201518160010155505050610215565b5f80fd5b5f819050919050565b61016981610157565b8114610173575f80fd5b50565b5f8151905061018481610160565b92915050565b5f6020828403121561019f5761019e610153565b5b5f6101ac84828501610176565b91505092915050565b7f4e487b71000000000000000000000000000000000000000000000000000000005f52601160045260245ffd5b5f6101ec82610157565b91506101f783610157565b925082820190508082111561020f5761020e6101b5565b5b92915050565b611688806102225f395ff3fe6080604052600436106100c1575f3560e01c80637e12a2511161007e578063d3a8638611610058578063d3a863861461020b578063ecde973d14610235578063f90ca11714610272578063fe67a54b14610288576100c1565b80637e12a2511461018d57806392228006146101b7578063c2e8c498146101e1576100c1565b8063110b093a146100c557806314d2687c146100ef5780631998aeef146101195780633197cbb6146101235780635ec2c7bf1461014d5780636773fd7714610177575b5f80fd5b3480156100d0575f80fd5b506100d961029e565b6040516100e69190610ddc565b60405180910390f35b3480156100fa575f80fd5b506101036102a3565b6040516101109190610f21565b60405180910390f35b61012161035d565b005b34801561012e575f80fd5b50610137610562565b6040516101449190610f50565b60405180910390f35b348015610158575f80fd5b50610161610568565b60405161016e9190610f78565b60405180910390f35b348015610182575f80fd5b5061018b61058b565b005b348015610198575f80fd5b506101a161088d565b6040516101ae9190610f50565b60405180910390f35b3480156101c2575f80fd5b506101cb6108c8565b6040516101d89190610fab565b60405180910390f35b3480156101ec575f80fd5b506101f56108da565b6040516102029190610fe2565b60405180910390f35b348015610216575f80fd5b5061021f6108df565b60405161022c9190610f50565b60405180910390f35b348015610240575f80fd5b5061025b60048036038101906102569190611029565b6108e5565b604051610269929190611054565b60405180910390f35b34801561027d575f80fd5b50610286610933565b005b348015610293575f80fd5b5061029c610b29565b005b600281565b60606004805480602002602001604051908101604052809291908181526020015f905b82821015610354578382905f5260205f2090600202016040518060400160405290815f82015f9054906101000a900473ffffffffffffffffffffffffffffffffffffffff1673ffffffffffffffffffffffffffffffffffffffff1673ffffffffffffffffffffffffffffffffffffffff168152602001600182015481525050815260200190600101906102c6565b50505050905090565b60035f9054906101000a900460ff166103ab576040517f08c379a00000000000000000000000000000000000000000000000000000000081526004016103a2906110d5565b60405180910390fd5b5f6103b461088d565b905060646069826103c59190611120565b6103cf919061118e565b341015610411576040517f08c379a00000000000000000000000000000000000000000000000000000000081526004016104089061122e565b60405180910390fd5b6001544210610455576040517f08c379a000000000000000000000000000000000000000000000000000000000815260040161044c90611296565b60405180910390fd5b607863ffffffff164261046891906112b4565b600181905550600460405180604001604052803373ffffffffffffffffffffffffffffffffffffffff16815260200134815250908060018154018082558091505060019003905f5260205f2090600202015f909190919091505f820151815f015f6101000a81548173ffffffffffffffffffffffffffffffffffffffff021916908373ffffffffffffffffffffffffffffffffffffffff1602179055506020820151816001015550503373ffffffffffffffffffffffffffffffffffffffff167fdd0b6c6a77960e2066c96171b4d7ac9e8b4c184011f38544afa36a5bb63ec59f346040516105579190610f50565b60405180910390a250565b60015481565b5f8054906101000a900473ffffffffffffffffffffffffffffffffffffffff1681565b5f8054906101000a900473ffffffffffffffffffffffffffffffffffffffff1673ffffffffffffffffffffffffffffffffffffffff163373ffffffffffffffffffffffffffffffffffffffff1614610618576040517f08c379a000000000000000000000000000000000000000000000000000000000815260040161060f90611357565b60405180910390fd5b60035f9054906101000a900460ff1615610667576040517f08c379a000000000000000000000000000000000000000000000000000000000815260040161065e906113bf565b60405180910390fd5b5f6004600160048054905061067c91906113dd565b8154811061068d5761068c611410565b5b905f5260205f2090600202015f015f9054906101000a900473ffffffffffffffffffffffffffffffffffffffff1690505f600190505b60016004805490506106d591906113dd565b811015610889575f600482815481106106f1576106f0611410565b5b905f5260205f2090600202016040518060400160405290815f82015f9054906101000a900473ffffffffffffffffffffffffffffffffffffffff1673ffffffffffffffffffffffffffffffffffffffff1673ffffffffffffffffffffffffffffffffffffffff16815260200160018201548152505090508273ffffffffffffffffffffffffffffffffffffffff16815f015173ffffffffffffffffffffffffffffffffffffffff161461087b575f6064600260646107af919061143d565b60ff1683602001516107c19190611120565b6107cb919061118e565b90505f825f015173ffffffffffffffffffffffffffffffffffffffff16826040516107f59061149e565b5f6040518083038185875af1925050503d805f811461082f576040519150601f19603f3d011682016040523d82523d5f602084013e610834565b606091505b5050905080610878576040517f08c379a000000000000000000000000000000000000000000000000000000000815260040161086f906114fc565b60405180910390fd5b50505b5080806001019150506106c3565b5050565b5f600460016004805490506108a291906113dd565b815481106108b3576108b2611410565b5b905f5260205f20906002020160010154905090565b60035f9054906101000a900460ff1681565b607881565b60025481565b600481815481106108f4575f80fd5b905f5260205f2090600202015f91509050805f015f9054906101000a900473ffffffffffffffffffffffffffffffffffffffff16908060010154905082565b60035f9054906101000a900460ff16610981576040517f08c379a0000000000000000000000000000000000000000000000000000000008152600401610978906110d5565b60405180910390fd5b5f805b600160048054905061099691906113dd565b811015610a9f573373ffffffffffffffffffffffffffffffffffffffff16600482815481106109c8576109c7611410565b5b905f5260205f2090600202015f015f9054906101000a900473ffffffffffffffffffffffffffffffffffffffff1673ffffffffffffffffffffffffffffffffffffffff1603610a925760048181548110610a2557610a24611410565b5b905f5260205f2090600202016001015482610a4091906112b4565b915060048181548110610a5657610a55611410565b5b905f5260205f2090600202015f8082015f6101000a81549073ffffffffffffffffffffffffffffffffffffffff0219169055600182015f905550505b8080600101915050610984565b505f8111610ae2576040517f08c379a0000000000000000000000000000000000000000000000000000000008152600401610ad990611564565b60405180910390fd5b3373ffffffffffffffffffffffffffffffffffffffff166108fc8290811502906040515f60405180830381858888f19350505050158015610b25573d5f803e3d5ffd5b5050565b5f8054906101000a900473ffffffffffffffffffffffffffffffffffffffff1673ffffffffffffffffffffffffffffffffffffffff163373ffffffffffffffffffffffffffffffffffffffff1614610bb6576040517f08c379a0000000000000000000000000000000000000000000000000000000008152600401610bad90611357565b60405180910390fd5b600154421015610bfb576040517f08c379a0000000000000000000000000000000000000000000000000000000008152600401610bf2906115cc565b60405180910390fd5b5f60035f6101000a81548160ff0219169083151502179055505f60046001600480549050610c2991906113dd565b81548110610c3a57610c39611410565b5b905f5260205f2090600202016040518060400160405290815f82015f9054906101000a900473ffffffffffffffffffffffffffffffffffffffff1673ffffffffffffffffffffffffffffffffffffffff1673ffffffffffffffffffffffffffffffffffffffff16815260200160018201548152505090505f805f9054906101000a900473ffffffffffffffffffffffffffffffffffffffff1673ffffffffffffffffffffffffffffffffffffffff168260200151604051610cfa9061149e565b5f6040518083038185875af1925050503d805f8114610d34576040519150601f19603f3d011682016040523d82523d5f602084013e610d39565b606091505b5050905080610d7d576040517f08c379a0000000000000000000000000000000000000000000000000000000008152600401610d7490611634565b60405180910390fd5b7fdaec4582d5d9595688c8c98545fdd1c696d41c6aeaeb636737e84ed2f5c00eda825f01518360200151604051610db5929190611054565b60405180910390a15050565b5f60ff82169050919050565b610dd681610dc1565b82525050565b5f602082019050610def5f830184610dcd565b92915050565b5f81519050919050565b5f82825260208201905092915050565b5f819050602082019050919050565b5f73ffffffffffffffffffffffffffffffffffffffff82169050919050565b5f610e4782610e1e565b9050919050565b610e5781610e3d565b82525050565b5f819050919050565b610e6f81610e5d565b82525050565b604082015f820151610e895f850182610e4e565b506020820151610e9c6020850182610e66565b50505050565b5f610ead8383610e75565b60408301905092915050565b5f602082019050919050565b5f610ecf82610df5565b610ed98185610dff565b9350610ee483610e0f565b805f5b83811015610f14578151610efb8882610ea2565b9750610f0683610eb9565b925050600181019050610ee7565b5085935050505092915050565b5f6020820190508181035f830152610f398184610ec5565b905092915050565b610f4a81610e5d565b82525050565b5f602082019050610f635f830184610f41565b92915050565b610f7281610e3d565b82525050565b5f602082019050610f8b5f830184610f69565b92915050565b5f8115159050919050565b610fa581610f91565b82525050565b5f602082019050610fbe5f830184610f9c565b92915050565b5f63ffffffff82169050919050565b610fdc81610fc4565b82525050565b5f602082019050610ff55f830184610fd3565b92915050565b5f80fd5b61100881610e5d565b8114611012575f80fd5b50565b5f8135905061102381610fff565b92915050565b5f6020828403121561103e5761103d610ffb565b5b5f61104b84828501611015565b91505092915050565b5f6040820190506110675f830185610f69565b6110746020830184610f41565b9392505050565b5f82825260208201905092915050565b7f5468652061756374696f6e206973206e6f7420616374697665000000000000005f82015250565b5f6110bf60198361107b565b91506110ca8261108b565b602082019050919050565b5f6020820190508181035f8301526110ec816110b3565b9050919050565b7f4e487b71000000000000000000000000000000000000000000000000000000005f52601160045260245ffd5b5f61112a82610e5d565b915061113583610e5d565b925082820261114381610e5d565b9150828204841483151761115a576111596110f3565b5b5092915050565b7f4e487b71000000000000000000000000000000000000000000000000000000005f52601260045260245ffd5b5f61119882610e5d565b91506111a383610e5d565b9250826111b3576111b2611161565b5b828204905092915050565b7f426964206d757374206265206174206c656173742035252068696768657220745f8201527f68616e207468652063757272656e742062696400000000000000000000000000602082015250565b5f61121860338361107b565b9150611223826111be565b604082019050919050565b5f6020820190508181035f8301526112458161120c565b9050919050565b7f5468652061756374696f6e2068617320656e64656400000000000000000000005f82015250565b5f61128060158361107b565b915061128b8261124c565b602082019050919050565b5f6020820190508181035f8301526112ad81611274565b9050919050565b5f6112be82610e5d565b91506112c983610e5d565b92508282019050808211156112e1576112e06110f3565b5b92915050565b7f4f6e6c79207468652061756374696f6e6565722063616e2065786563757465205f8201527f746869732066756e6374696f6e00000000000000000000000000000000000000602082015250565b5f611341602d8361107b565b915061134c826112e7565b604082019050919050565b5f6020820190508181035f83015261136e81611335565b9050919050565b7f5468652061756374696f6e206973207374696c6c2061637469766500000000005f82015250565b5f6113a9601b8361107b565b91506113b482611375565b602082019050919050565b5f6020820190508181035f8301526113d68161139d565b9050919050565b5f6113e782610e5d565b91506113f283610e5d565b925082820390508181111561140a576114096110f3565b5b92915050565b7f4e487b71000000000000000000000000000000000000000000000000000000005f52603260045260245ffd5b5f61144782610dc1565b915061145283610dc1565b9250828203905060ff81111561146b5761146a6110f3565b5b92915050565b5f81905092915050565b50565b5f6114895f83611471565b91506114948261147b565b5f82019050919050565b5f6114a88261147e565b9150819050919050565b7f526566756e6420746f20626964646572206661696c65640000000000000000005f82015250565b5f6114e660178361107b565b91506114f1826114b2565b602082019050919050565b5f6020820190508181035f830152611513816114da565b9050919050565b7f5468657265206973206e6f7468696e6720746f207769746864726177000000005f82015250565b5f61154e601c8361107b565b91506115598261151a565b602082019050919050565b5f6020820190508181035f83015261157b81611542565b9050919050565b7f5468652061756374696f6e20686173206e6f7420656e646564000000000000005f82015250565b5f6115b660198361107b565b91506115c182611582565b602082019050919050565b5f6020820190508181035f8301526115e3816115aa565b9050919050565b7f5472616e7366657220746f2061756374696f6e656572206661696c65640000005f82015250565b5f61161e601d8361107b565b9150611629826115ea565b602082019050919050565b5f6020820190508181035f83015261164b81611612565b905091905056fea264697066735822122021e5f496a70e5b7127adb38a110c1e2a92ec771e6be187c3b372783ab8cd5f8664736f6c634300081a0033",
					"opcodes": "PUSH1 0x80 PUSH1 0x40 MSTORE CALLVALUE DUP1 ISZERO PUSH2 0xF JUMPI PUSH0 DUP1 REVERT JUMPDEST POP PUSH1 0x40 MLOAD PUSH2 0x18AA CODESIZE SUB DUP1 PUSH2 0x18AA DUP4 CODECOPY DUP2 DUP2 ADD PUSH1 0x40 MSTORE DUP2 ADD SWAP1 PUSH2 0x31 SWAP2 SWAP1 PUSH2 0x18A JUMP JUMPDEST CALLER PUSH0 DUP1 PUSH2 0x100 EXP DUP2 SLOAD DUP2 PUSH20 0xFFFFFFFFFFFFFFFFFFFFFFFFFFFFFFFFFFFFFFFF MUL NOT AND SWAP1 DUP4 PUSH20 0xFFFFFFFFFFFFFFFFFFFFFFFFFFFFFFFFFFFFFFFF AND MUL OR SWAP1 SSTORE POP DUP1 PUSH1 0x2 DUP2 SWAP1 SSTORE POP PUSH1 0x1 PUSH1 0x3 PUSH0 PUSH2 0x100 EXP DUP2 SLOAD DUP2 PUSH1 0xFF MUL NOT AND SWAP1 DUP4 ISZERO ISZERO MUL OR SWAP1 SSTORE POP PUSH1 0x78 PUSH4 0xFFFFFFFF AND TIMESTAMP PUSH2 0xA4 SWAP2 SWAP1 PUSH2 0x1E2 JUMP JUMPDEST PUSH1 0x1 DUP2 SWAP1 SSTORE POP PUSH1 0x4 PUSH1 0x40 MLOAD DUP1 PUSH1 0x40 ADD PUSH1 0x40 MSTORE DUP1 CALLER PUSH20 0xFFFFFFFFFFFFFFFFFFFFFFFFFFFFFFFFFFFFFFFF AND DUP2 MSTORE PUSH1 0x20 ADD DUP4 DUP2 MSTORE POP SWAP1 DUP1 PUSH1 0x1 DUP2 SLOAD ADD DUP1 DUP3 SSTORE DUP1 SWAP2 POP POP PUSH1 0x1 SWAP1 SUB SWAP1 PUSH0 MSTORE PUSH1 0x20 PUSH0 KECCAK256 SWAP1 PUSH1 0x2 MUL ADD PUSH0 SWAP1 SWAP2 SWAP1 SWAP2 SWAP1 SWAP2 POP PUSH0 DUP3 ADD MLOAD DUP2 PUSH0 ADD PUSH0 PUSH2 0x100 EXP DUP2 SLOAD DUP2 PUSH20 0xFFFFFFFFFFFFFFFFFFFFFFFFFFFFFFFFFFFFFFFF MUL NOT AND SWAP1 DUP4 PUSH20 0xFFFFFFFFFFFFFFFFFFFFFFFFFFFFFFFFFFFFFFFF AND MUL OR SWAP1 SSTORE POP PUSH1 0x20 DUP3 ADD MLOAD DUP2 PUSH1 0x1 ADD SSTORE POP POP POP PUSH2 0x215 JUMP JUMPDEST PUSH0 DUP1 REVERT JUMPDEST PUSH0 DUP2 SWAP1 POP SWAP2 SWAP1 POP JUMP JUMPDEST PUSH2 0x169 DUP2 PUSH2 0x157 JUMP JUMPDEST DUP2 EQ PUSH2 0x173 JUMPI PUSH0 DUP1 REVERT JUMPDEST POP JUMP JUMPDEST PUSH0 DUP2 MLOAD SWAP1 POP PUSH2 0x184 DUP2 PUSH2 0x160 JUMP JUMPDEST SWAP3 SWAP2 POP POP JUMP JUMPDEST PUSH0 PUSH1 0x20 DUP3 DUP5 SUB SLT ISZERO PUSH2 0x19F JUMPI PUSH2 0x19E PUSH2 0x153 JUMP JUMPDEST JUMPDEST PUSH0 PUSH2 0x1AC DUP5 DUP3 DUP6 ADD PUSH2 0x176 JUMP JUMPDEST SWAP2 POP POP SWAP3 SWAP2 POP POP JUMP JUMPDEST PUSH32 0x4E487B7100000000000000000000000000000000000000000000000000000000 PUSH0 MSTORE PUSH1 0x11 PUSH1 0x4 MSTORE PUSH1 0x24 PUSH0 REVERT JUMPDEST PUSH0 PUSH2 0x1EC DUP3 PUSH2 0x157 JUMP JUMPDEST SWAP2 POP PUSH2 0x1F7 DUP4 PUSH2 0x157 JUMP JUMPDEST SWAP3 POP DUP3 DUP3 ADD SWAP1 POP DUP1 DUP3 GT ISZERO PUSH2 0x20F JUMPI PUSH2 0x20E PUSH2 0x1B5 JUMP JUMPDEST JUMPDEST SWAP3 SWAP2 POP POP JUMP JUMPDEST PUSH2 0x1688 DUP1 PUSH2 0x222 PUSH0 CODECOPY PUSH0 RETURN INVALID PUSH1 0x80 PUSH1 0x40 MSTORE PUSH1 0x4 CALLDATASIZE LT PUSH2 0xC1 JUMPI PUSH0 CALLDATALOAD PUSH1 0xE0 SHR DUP1 PUSH4 0x7E12A251 GT PUSH2 0x7E JUMPI DUP1 PUSH4 0xD3A86386 GT PUSH2 0x58 JUMPI DUP1 PUSH4 0xD3A86386 EQ PUSH2 0x20B JUMPI DUP1 PUSH4 0xECDE973D EQ PUSH2 0x235 JUMPI DUP1 PUSH4 0xF90CA117 EQ PUSH2 0x272 JUMPI DUP1 PUSH4 0xFE67A54B EQ PUSH2 0x288 JUMPI PUSH2 0xC1 JUMP JUMPDEST DUP1 PUSH4 0x7E12A251 EQ PUSH2 0x18D JUMPI DUP1 PUSH4 0x92228006 EQ PUSH2 0x1B7 JUMPI DUP1 PUSH4 0xC2E8C498 EQ PUSH2 0x1E1 JUMPI PUSH2 0xC1 JUMP JUMPDEST DUP1 PUSH4 0x110B093A EQ PUSH2 0xC5 JUMPI DUP1 PUSH4 0x14D2687C EQ PUSH2 0xEF JUMPI DUP1 PUSH4 0x1998AEEF EQ PUSH2 0x119 JUMPI DUP1 PUSH4 0x3197CBB6 EQ PUSH2 0x123 JUMPI DUP1 PUSH4 0x5EC2C7BF EQ PUSH2 0x14D JUMPI DUP1 PUSH4 0x6773FD77 EQ PUSH2 0x177 JUMPI JUMPDEST PUSH0 DUP1 REVERT JUMPDEST CALLVALUE DUP1 ISZERO PUSH2 0xD0 JUMPI PUSH0 DUP1 REVERT JUMPDEST POP PUSH2 0xD9 PUSH2 0x29E JUMP JUMPDEST PUSH1 0x40 MLOAD PUSH2 0xE6 SWAP2 SWAP1 PUSH2 0xDDC JUMP JUMPDEST PUSH1 0x40 MLOAD DUP1 SWAP2 SUB SWAP1 RETURN JUMPDEST CALLVALUE DUP1 ISZERO PUSH2 0xFA JUMPI PUSH0 DUP1 REVERT JUMPDEST POP PUSH2 0x103 PUSH2 0x2A3 JUMP JUMPDEST PUSH1 0x40 MLOAD PUSH2 0x110 SWAP2 SWAP1 PUSH2 0xF21 JUMP JUMPDEST PUSH1 0x40 MLOAD DUP1 SWAP2 SUB SWAP1 RETURN JUMPDEST PUSH2 0x121 PUSH2 0x35D JUMP JUMPDEST STOP JUMPDEST CALLVALUE DUP1 ISZERO PUSH2 0x12E JUMPI PUSH0 DUP1 REVERT JUMPDEST POP PUSH2 0x137 PUSH2 0x562 JUMP JUMPDEST PUSH1 0x40 MLOAD PUSH2 0x144 SWAP2 SWAP1 PUSH2 0xF50 JUMP JUMPDEST PUSH1 0x40 MLOAD DUP1 SWAP2 SUB SWAP1 RETURN JUMPDEST CALLVALUE DUP1 ISZERO PUSH2 0x158 JUMPI PUSH0 DUP1 REVERT JUMPDEST POP PUSH2 0x161 PUSH2 0x568 JUMP JUMPDEST PUSH1 0x40 MLOAD PUSH2 0x16E SWAP2 SWAP1 PUSH2 0xF78 JUMP JUMPDEST PUSH1 0x40 MLOAD DUP1 SWAP2 SUB SWAP1 RETURN JUMPDEST CALLVALUE DUP1 ISZERO PUSH2 0x182 JUMPI PUSH0 DUP1 REVERT JUMPDEST POP PUSH2 0x18B PUSH2 0x58B JUMP JUMPDEST STOP JUMPDEST CALLVALUE DUP1 ISZERO PUSH2 0x198 JUMPI PUSH0 DUP1 REVERT JUMPDEST POP PUSH2 0x1A1 PUSH2 0x88D JUMP JUMPDEST PUSH1 0x40 MLOAD PUSH2 0x1AE SWAP2 SWAP1 PUSH2 0xF50 JUMP JUMPDEST PUSH1 0x40 MLOAD DUP1 SWAP2 SUB SWAP1 RETURN JUMPDEST CALLVALUE DUP1 ISZERO PUSH2 0x1C2 JUMPI PUSH0 DUP1 REVERT JUMPDEST POP PUSH2 0x1CB PUSH2 0x8C8 JUMP JUMPDEST PUSH1 0x40 MLOAD PUSH2 0x1D8 SWAP2 SWAP1 PUSH2 0xFAB JUMP JUMPDEST PUSH1 0x40 MLOAD DUP1 SWAP2 SUB SWAP1 RETURN JUMPDEST CALLVALUE DUP1 ISZERO PUSH2 0x1EC JUMPI PUSH0 DUP1 REVERT JUMPDEST POP PUSH2 0x1F5 PUSH2 0x8DA JUMP JUMPDEST PUSH1 0x40 MLOAD PUSH2 0x202 SWAP2 SWAP1 PUSH2 0xFE2 JUMP JUMPDEST PUSH1 0x40 MLOAD DUP1 SWAP2 SUB SWAP1 RETURN JUMPDEST CALLVALUE DUP1 ISZERO PUSH2 0x216 JUMPI PUSH0 DUP1 REVERT JUMPDEST POP PUSH2 0x21F PUSH2 0x8DF JUMP JUMPDEST PUSH1 0x40 MLOAD PUSH2 0x22C SWAP2 SWAP1 PUSH2 0xF50 JUMP JUMPDEST PUSH1 0x40 MLOAD DUP1 SWAP2 SUB SWAP1 RETURN JUMPDEST CALLVALUE DUP1 ISZERO PUSH2 0x240 JUMPI PUSH0 DUP1 REVERT JUMPDEST POP PUSH2 0x25B PUSH1 0x4 DUP1 CALLDATASIZE SUB DUP2 ADD SWAP1 PUSH2 0x256 SWAP2 SWAP1 PUSH2 0x1029 JUMP JUMPDEST PUSH2 0x8E5 JUMP JUMPDEST PUSH1 0x40 MLOAD PUSH2 0x269 SWAP3 SWAP2 SWAP1 PUSH2 0x1054 JUMP JUMPDEST PUSH1 0x40 MLOAD DUP1 SWAP2 SUB SWAP1 RETURN JUMPDEST CALLVALUE DUP1 ISZERO PUSH2 0x27D JUMPI PUSH0 DUP1 REVERT JUMPDEST POP PUSH2 0x286 PUSH2 0x933 JUMP JUMPDEST STOP JUMPDEST CALLVALUE DUP1 ISZERO PUSH2 0x293 JUMPI PUSH0 DUP1 REVERT JUMPDEST POP PUSH2 0x29C PUSH2 0xB29 JUMP JUMPDEST STOP JUMPDEST PUSH1 0x2 DUP2 JUMP JUMPDEST PUSH1 0x60 PUSH1 0x4 DUP1 SLOAD DUP1 PUSH1 0x20 MUL PUSH1 0x20 ADD PUSH1 0x40 MLOAD SWAP1 DUP2 ADD PUSH1 0x40 MSTORE DUP1 SWAP3 SWAP2 SWAP1 DUP2 DUP2 MSTORE PUSH1 0x20 ADD PUSH0 SWAP1 JUMPDEST DUP3 DUP3 LT ISZERO PUSH2 0x354 JUMPI DUP4 DUP3 SWAP1 PUSH0 MSTORE PUSH1 0x20 PUSH0 KECCAK256 SWAP1 PUSH1 0x2 MUL ADD PUSH1 0x40 MLOAD DUP1 PUSH1 0x40 ADD PUSH1 0x40 MSTORE SWAP1 DUP2 PUSH0 DUP3 ADD PUSH0 SWAP1 SLOAD SWAP1 PUSH2 0x100 EXP SWAP1 DIV PUSH20 0xFFFFFFFFFFFFFFFFFFFFFFFFFFFFFFFFFFFFFFFF AND PUSH20 0xFFFFFFFFFFFFFFFFFFFFFFFFFFFFFFFFFFFFFFFF AND PUSH20 0xFFFFFFFFFFFFFFFFFFFFFFFFFFFFFFFFFFFFFFFF AND DUP2 MSTORE PUSH1 0x20 ADD PUSH1 0x1 DUP3 ADD SLOAD DUP2 MSTORE POP POP DUP2 MSTORE PUSH1 0x20 ADD SWAP1 PUSH1 0x1 ADD SWAP1 PUSH2 0x2C6 JUMP JUMPDEST POP POP POP POP SWAP1 POP SWAP1 JUMP JUMPDEST PUSH1 0x3 PUSH0 SWAP1 SLOAD SWAP1 PUSH2 0x100 EXP SWAP1 DIV PUSH1 0xFF AND PUSH2 0x3AB JUMPI PUSH1 0x40 MLOAD PUSH32 0x8C379A000000000000000000000000000000000000000000000000000000000 DUP2 MSTORE PUSH1 0x4 ADD PUSH2 0x3A2 SWAP1 PUSH2 0x10D5 JUMP JUMPDEST PUSH1 0x40 MLOAD DUP1 SWAP2 SUB SWAP1 REVERT JUMPDEST PUSH0 PUSH2 0x3B4 PUSH2 0x88D JUMP JUMPDEST SWAP1 POP PUSH1 0x64 PUSH1 0x69 DUP3 PUSH2 0x3C5 SWAP2 SWAP1 PUSH2 0x1120 JUMP JUMPDEST PUSH2 0x3CF SWAP2 SWAP1 PUSH2 0x118E JUMP JUMPDEST CALLVALUE LT ISZERO PUSH2 0x411 JUMPI PUSH1 0x40 MLOAD PUSH32 0x8C379A000000000000000000000000000000000000000000000000000000000 DUP2 MSTORE PUSH1 0x4 ADD PUSH2 0x408 SWAP1 PUSH2 0x122E JUMP JUMPDEST PUSH1 0x40 MLOAD DUP1 SWAP2 SUB SWAP1 REVERT JUMPDEST PUSH1 0x1 SLOAD TIMESTAMP LT PUSH2 0x455 JUMPI PUSH1 0x40 MLOAD PUSH32 0x8C379A000000000000000000000000000000000000000000000000000000000 DUP2 MSTORE PUSH1 0x4 ADD PUSH2 0x44C SWAP1 PUSH2 0x1296 JUMP JUMPDEST PUSH1 0x40 MLOAD DUP1 SWAP2 SUB SWAP1 REVERT JUMPDEST PUSH1 0x78 PUSH4 0xFFFFFFFF AND TIMESTAMP PUSH2 0x468 SWAP2 SWAP1 PUSH2 0x12B4 JUMP JUMPDEST PUSH1 0x1 DUP2 SWAP1 SSTORE POP PUSH1 0x4 PUSH1 0x40 MLOAD DUP1 PUSH1 0x40 ADD PUSH1 0x40 MSTORE DUP1 CALLER PUSH20 0xFFFFFFFFFFFFFFFFFFFFFFFFFFFFFFFFFFFFFFFF AND DUP2 MSTORE PUSH1 0x20 ADD CALLVALUE DUP2 MSTORE POP SWAP1 DUP1 PUSH1 0x1 DUP2 SLOAD ADD DUP1 DUP3 SSTORE DUP1 SWAP2 POP POP PUSH1 0x1 SWAP1 SUB SWAP1 PUSH0 MSTORE PUSH1 0x20 PUSH0 KECCAK256 SWAP1 PUSH1 0x2 MUL ADD PUSH0 SWAP1 SWAP2 SWAP1 SWAP2 SWAP1 SWAP2 POP PUSH0 DUP3 ADD MLOAD DUP2 PUSH0 ADD PUSH0 PUSH2 0x100 EXP DUP2 SLOAD DUP2 PUSH20 0xFFFFFFFFFFFFFFFFFFFFFFFFFFFFFFFFFFFFFFFF MUL NOT AND SWAP1 DUP4 PUSH20 0xFFFFFFFFFFFFFFFFFFFFFFFFFFFFFFFFFFFFFFFF AND MUL OR SWAP1 SSTORE POP PUSH1 0x20 DUP3 ADD MLOAD DUP2 PUSH1 0x1 ADD SSTORE POP POP CALLER PUSH20 0xFFFFFFFFFFFFFFFFFFFFFFFFFFFFFFFFFFFFFFFF AND PUSH32 0xDD0B6C6A77960E2066C96171B4D7AC9E8B4C184011F38544AFA36A5BB63EC59F CALLVALUE PUSH1 0x40 MLOAD PUSH2 0x557 SWAP2 SWAP1 PUSH2 0xF50 JUMP JUMPDEST PUSH1 0x40 MLOAD DUP1 SWAP2 SUB SWAP1 LOG2 POP JUMP JUMPDEST PUSH1 0x1 SLOAD DUP2 JUMP JUMPDEST PUSH0 DUP1 SLOAD SWAP1 PUSH2 0x100 EXP SWAP1 DIV PUSH20 0xFFFFFFFFFFFFFFFFFFFFFFFFFFFFFFFFFFFFFFFF AND DUP2 JUMP JUMPDEST PUSH0 DUP1 SLOAD SWAP1 PUSH2 0x100 EXP SWAP1 DIV PUSH20 0xFFFFFFFFFFFFFFFFFFFFFFFFFFFFFFFFFFFFFFFF AND PUSH20 0xFFFFFFFFFFFFFFFFFFFFFFFFFFFFFFFFFFFFFFFF AND CALLER PUSH20 0xFFFFFFFFFFFFFFFFFFFFFFFFFFFFFFFFFFFFFFFF AND EQ PUSH2 0x618 JUMPI PUSH1 0x40 MLOAD PUSH32 0x8C379A000000000000000000000000000000000000000000000000000000000 DUP2 MSTORE PUSH1 0x4 ADD PUSH2 0x60F SWAP1 PUSH2 0x1357 JUMP JUMPDEST PUSH1 0x40 MLOAD DUP1 SWAP2 SUB SWAP1 REVERT JUMPDEST PUSH1 0x3 PUSH0 SWAP1 SLOAD SWAP1 PUSH2 0x100 EXP SWAP1 DIV PUSH1 0xFF AND ISZERO PUSH2 0x667 JUMPI PUSH1 0x40 MLOAD PUSH32 0x8C379A000000000000000000000000000000000000000000000000000000000 DUP2 MSTORE PUSH1 0x4 ADD PUSH2 0x65E SWAP1 PUSH2 0x13BF JUMP JUMPDEST PUSH1 0x40 MLOAD DUP1 SWAP2 SUB SWAP1 REVERT JUMPDEST PUSH0 PUSH1 0x4 PUSH1 0x1 PUSH1 0x4 DUP1 SLOAD SWAP1 POP PUSH2 0x67C SWAP2 SWAP1 PUSH2 0x13DD JUMP JUMPDEST DUP2 SLOAD DUP2 LT PUSH2 0x68D JUMPI PUSH2 0x68C PUSH2 0x1410 JUMP JUMPDEST JUMPDEST SWAP1 PUSH0 MSTORE PUSH1 0x20 PUSH0 KECCAK256 SWAP1 PUSH1 0x2 MUL ADD PUSH0 ADD PUSH0 SWAP1 SLOAD SWAP1 PUSH2 0x100 EXP SWAP1 DIV PUSH20 0xFFFFFFFFFFFFFFFFFFFFFFFFFFFFFFFFFFFFFFFF AND SWAP1 POP PUSH0 PUSH1 0x1 SWAP1 POP JUMPDEST PUSH1 0x1 PUSH1 0x4 DUP1 SLOAD SWAP1 POP PUSH2 0x6D5 SWAP2 SWAP1 PUSH2 0x13DD JUMP JUMPDEST DUP2 LT ISZERO PUSH2 0x889 JUMPI PUSH0 PUSH1 0x4 DUP3 DUP2 SLOAD DUP2 LT PUSH2 0x6F1 JUMPI PUSH2 0x6F0 PUSH2 0x1410 JUMP JUMPDEST JUMPDEST SWAP1 PUSH0 MSTORE PUSH1 0x20 PUSH0 KECCAK256 SWAP1 PUSH1 0x2 MUL ADD PUSH1 0x40 MLOAD DUP1 PUSH1 0x40 ADD PUSH1 0x40 MSTORE SWAP1 DUP2 PUSH0 DUP3 ADD PUSH0 SWAP1 SLOAD SWAP1 PUSH2 0x100 EXP SWAP1 DIV PUSH20 0xFFFFFFFFFFFFFFFFFFFFFFFFFFFFFFFFFFFFFFFF AND PUSH20 0xFFFFFFFFFFFFFFFFFFFFFFFFFFFFFFFFFFFFFFFF AND PUSH20 0xFFFFFFFFFFFFFFFFFFFFFFFFFFFFFFFFFFFFFFFF AND DUP2 MSTORE PUSH1 0x20 ADD PUSH1 0x1 DUP3 ADD SLOAD DUP2 MSTORE POP POP SWAP1 POP DUP3 PUSH20 0xFFFFFFFFFFFFFFFFFFFFFFFFFFFFFFFFFFFFFFFF AND DUP2 PUSH0 ADD MLOAD PUSH20 0xFFFFFFFFFFFFFFFFFFFFFFFFFFFFFFFFFFFFFFFF AND EQ PUSH2 0x87B JUMPI PUSH0 PUSH1 0x64 PUSH1 0x2 PUSH1 0x64 PUSH2 0x7AF SWAP2 SWAP1 PUSH2 0x143D JUMP JUMPDEST PUSH1 0xFF AND DUP4 PUSH1 0x20 ADD MLOAD PUSH2 0x7C1 SWAP2 SWAP1 PUSH2 0x1120 JUMP JUMPDEST PUSH2 0x7CB SWAP2 SWAP1 PUSH2 0x118E JUMP JUMPDEST SWAP1 POP PUSH0 DUP3 PUSH0 ADD MLOAD PUSH20 0xFFFFFFFFFFFFFFFFFFFFFFFFFFFFFFFFFFFFFFFF AND DUP3 PUSH1 0x40 MLOAD PUSH2 0x7F5 SWAP1 PUSH2 0x149E JUMP JUMPDEST PUSH0 PUSH1 0x40 MLOAD DUP1 DUP4 SUB DUP2 DUP6 DUP8 GAS CALL SWAP3 POP POP POP RETURNDATASIZE DUP1 PUSH0 DUP2 EQ PUSH2 0x82F JUMPI PUSH1 0x40 MLOAD SWAP2 POP PUSH1 0x1F NOT PUSH1 0x3F RETURNDATASIZE ADD AND DUP3 ADD PUSH1 0x40 MSTORE RETURNDATASIZE DUP3 MSTORE RETURNDATASIZE PUSH0 PUSH1 0x20 DUP5 ADD RETURNDATACOPY PUSH2 0x834 JUMP JUMPDEST PUSH1 0x60 SWAP2 POP JUMPDEST POP POP SWAP1 POP DUP1 PUSH2 0x878 JUMPI PUSH1 0x40 MLOAD PUSH32 0x8C379A000000000000000000000000000000000000000000000000000000000 DUP2 MSTORE PUSH1 0x4 ADD PUSH2 0x86F SWAP1 PUSH2 0x14FC JUMP JUMPDEST PUSH1 0x40 MLOAD DUP1 SWAP2 SUB SWAP1 REVERT JUMPDEST POP POP JUMPDEST POP DUP1 DUP1 PUSH1 0x1 ADD SWAP2 POP POP PUSH2 0x6C3 JUMP JUMPDEST POP POP JUMP JUMPDEST PUSH0 PUSH1 0x4 PUSH1 0x1 PUSH1 0x4 DUP1 SLOAD SWAP1 POP PUSH2 0x8A2 SWAP2 SWAP1 PUSH2 0x13DD JUMP JUMPDEST DUP2 SLOAD DUP2 LT PUSH2 0x8B3 JUMPI PUSH2 0x8B2 PUSH2 0x1410 JUMP JUMPDEST JUMPDEST SWAP1 PUSH0 MSTORE PUSH1 0x20 PUSH0 KECCAK256 SWAP1 PUSH1 0x2 MUL ADD PUSH1 0x1 ADD SLOAD SWAP1 POP SWAP1 JUMP JUMPDEST PUSH1 0x3 PUSH0 SWAP1 SLOAD SWAP1 PUSH2 0x100 EXP SWAP1 DIV PUSH1 0xFF AND DUP2 JUMP JUMPDEST PUSH1 0x78 DUP2 JUMP JUMPDEST PUSH1 0x2 SLOAD DUP2 JUMP JUMPDEST PUSH1 0x4 DUP2 DUP2 SLOAD DUP2 LT PUSH2 0x8F4 JUMPI PUSH0 DUP1 REVERT JUMPDEST SWAP1 PUSH0 MSTORE PUSH1 0x20 PUSH0 KECCAK256 SWAP1 PUSH1 0x2 MUL ADD PUSH0 SWAP2 POP SWAP1 POP DUP1 PUSH0 ADD PUSH0 SWAP1 SLOAD SWAP1 PUSH2 0x100 EXP SWAP1 DIV PUSH20 0xFFFFFFFFFFFFFFFFFFFFFFFFFFFFFFFFFFFFFFFF AND SWAP1 DUP1 PUSH1 0x1 ADD SLOAD SWAP1 POP DUP3 JUMP JUMPDEST PUSH1 0x3 PUSH0 SWAP1 SLOAD SWAP1 PUSH2 0x100 EXP SWAP1 DIV PUSH1 0xFF AND PUSH2 0x981 JUMPI PUSH1 0x40 MLOAD PUSH32 0x8C379A000000000000000000000000000000000000000000000000000000000 DUP2 MSTORE PUSH1 0x4 ADD PUSH2 0x978 SWAP1 PUSH2 0x10D5 JUMP JUMPDEST PUSH1 0x40 MLOAD DUP1 SWAP2 SUB SWAP1 REVERT JUMPDEST PUSH0 DUP1 JUMPDEST PUSH1 0x1 PUSH1 0x4 DUP1 SLOAD SWAP1 POP PUSH2 0x996 SWAP2 SWAP1 PUSH2 0x13DD JUMP JUMPDEST DUP2 LT ISZERO PUSH2 0xA9F JUMPI CALLER PUSH20 0xFFFFFFFFFFFFFFFFFFFFFFFFFFFFFFFFFFFFFFFF AND PUSH1 0x4 DUP3 DUP2 SLOAD DUP2 LT PUSH2 0x9C8 JUMPI PUSH2 0x9C7 PUSH2 0x1410 JUMP JUMPDEST JUMPDEST SWAP1 PUSH0 MSTORE PUSH1 0x20 PUSH0 KECCAK256 SWAP1 PUSH1 0x2 MUL ADD PUSH0 ADD PUSH0 SWAP1 SLOAD SWAP1 PUSH2 0x100 EXP SWAP1 DIV PUSH20 0xFFFFFFFFFFFFFFFFFFFFFFFFFFFFFFFFFFFFFFFF AND PUSH20 0xFFFFFFFFFFFFFFFFFFFFFFFFFFFFFFFFFFFFFFFF AND SUB PUSH2 0xA92 JUMPI PUSH1 0x4 DUP2 DUP2 SLOAD DUP2 LT PUSH2 0xA25 JUMPI PUSH2 0xA24 PUSH2 0x1410 JUMP JUMPDEST JUMPDEST SWAP1 PUSH0 MSTORE PUSH1 0x20 PUSH0 KECCAK256 SWAP1 PUSH1 0x2 MUL ADD PUSH1 0x1 ADD SLOAD DUP3 PUSH2 0xA40 SWAP2 SWAP1 PUSH2 0x12B4 JUMP JUMPDEST SWAP2 POP PUSH1 0x4 DUP2 DUP2 SLOAD DUP2 LT PUSH2 0xA56 JUMPI PUSH2 0xA55 PUSH2 0x1410 JUMP JUMPDEST JUMPDEST SWAP1 PUSH0 MSTORE PUSH1 0x20 PUSH0 KECCAK256 SWAP1 PUSH1 0x2 MUL ADD PUSH0 DUP1 DUP3 ADD PUSH0 PUSH2 0x100 EXP DUP2 SLOAD SWAP1 PUSH20 0xFFFFFFFFFFFFFFFFFFFFFFFFFFFFFFFFFFFFFFFF MUL NOT AND SWAP1 SSTORE PUSH1 0x1 DUP3 ADD PUSH0 SWAP1 SSTORE POP POP JUMPDEST DUP1 DUP1 PUSH1 0x1 ADD SWAP2 POP POP PUSH2 0x984 JUMP JUMPDEST POP PUSH0 DUP2 GT PUSH2 0xAE2 JUMPI PUSH1 0x40 MLOAD PUSH32 0x8C379A000000000000000000000000000000000000000000000000000000000 DUP2 MSTORE PUSH1 0x4 ADD PUSH2 0xAD9 SWAP1 PUSH2 0x1564 JUMP JUMPDEST PUSH1 0x40 MLOAD DUP1 SWAP2 SUB SWAP1 REVERT JUMPDEST CALLER PUSH20 0xFFFFFFFFFFFFFFFFFFFFFFFFFFFFFFFFFFFFFFFF AND PUSH2 0x8FC DUP3 SWAP1 DUP2 ISZERO MUL SWAP1 PUSH1 0x40 MLOAD PUSH0 PUSH1 0x40 MLOAD DUP1 DUP4 SUB DUP2 DUP6 DUP9 DUP9 CALL SWAP4 POP POP POP POP ISZERO DUP1 ISZERO PUSH2 0xB25 JUMPI RETURNDATASIZE PUSH0 DUP1 RETURNDATACOPY RETURNDATASIZE PUSH0 REVERT JUMPDEST POP POP JUMP JUMPDEST PUSH0 DUP1 SLOAD SWAP1 PUSH2 0x100 EXP SWAP1 DIV PUSH20 0xFFFFFFFFFFFFFFFFFFFFFFFFFFFFFFFFFFFFFFFF AND PUSH20 0xFFFFFFFFFFFFFFFFFFFFFFFFFFFFFFFFFFFFFFFF AND CALLER PUSH20 0xFFFFFFFFFFFFFFFFFFFFFFFFFFFFFFFFFFFFFFFF AND EQ PUSH2 0xBB6 JUMPI PUSH1 0x40 MLOAD PUSH32 0x8C379A000000000000000000000000000000000000000000000000000000000 DUP2 MSTORE PUSH1 0x4 ADD PUSH2 0xBAD SWAP1 PUSH2 0x1357 JUMP JUMPDEST PUSH1 0x40 MLOAD DUP1 SWAP2 SUB SWAP1 REVERT JUMPDEST PUSH1 0x1 SLOAD TIMESTAMP LT ISZERO PUSH2 0xBFB JUMPI PUSH1 0x40 MLOAD PUSH32 0x8C379A000000000000000000000000000000000000000000000000000000000 DUP2 MSTORE PUSH1 0x4 ADD PUSH2 0xBF2 SWAP1 PUSH2 0x15CC JUMP JUMPDEST PUSH1 0x40 MLOAD DUP1 SWAP2 SUB SWAP1 REVERT JUMPDEST PUSH0 PUSH1 0x3 PUSH0 PUSH2 0x100 EXP DUP2 SLOAD DUP2 PUSH1 0xFF MUL NOT AND SWAP1 DUP4 ISZERO ISZERO MUL OR SWAP1 SSTORE POP PUSH0 PUSH1 0x4 PUSH1 0x1 PUSH1 0x4 DUP1 SLOAD SWAP1 POP PUSH2 0xC29 SWAP2 SWAP1 PUSH2 0x13DD JUMP JUMPDEST DUP2 SLOAD DUP2 LT PUSH2 0xC3A JUMPI PUSH2 0xC39 PUSH2 0x1410 JUMP JUMPDEST JUMPDEST SWAP1 PUSH0 MSTORE PUSH1 0x20 PUSH0 KECCAK256 SWAP1 PUSH1 0x2 MUL ADD PUSH1 0x40 MLOAD DUP1 PUSH1 0x40 ADD PUSH1 0x40 MSTORE SWAP1 DUP2 PUSH0 DUP3 ADD PUSH0 SWAP1 SLOAD SWAP1 PUSH2 0x100 EXP SWAP1 DIV PUSH20 0xFFFFFFFFFFFFFFFFFFFFFFFFFFFFFFFFFFFFFFFF AND PUSH20 0xFFFFFFFFFFFFFFFFFFFFFFFFFFFFFFFFFFFFFFFF AND PUSH20 0xFFFFFFFFFFFFFFFFFFFFFFFFFFFFFFFFFFFFFFFF AND DUP2 MSTORE PUSH1 0x20 ADD PUSH1 0x1 DUP3 ADD SLOAD DUP2 MSTORE POP POP SWAP1 POP PUSH0 DUP1 PUSH0 SWAP1 SLOAD SWAP1 PUSH2 0x100 EXP SWAP1 DIV PUSH20 0xFFFFFFFFFFFFFFFFFFFFFFFFFFFFFFFFFFFFFFFF AND PUSH20 0xFFFFFFFFFFFFFFFFFFFFFFFFFFFFFFFFFFFFFFFF AND DUP3 PUSH1 0x20 ADD MLOAD PUSH1 0x40 MLOAD PUSH2 0xCFA SWAP1 PUSH2 0x149E JUMP JUMPDEST PUSH0 PUSH1 0x40 MLOAD DUP1 DUP4 SUB DUP2 DUP6 DUP8 GAS CALL SWAP3 POP POP POP RETURNDATASIZE DUP1 PUSH0 DUP2 EQ PUSH2 0xD34 JUMPI PUSH1 0x40 MLOAD SWAP2 POP PUSH1 0x1F NOT PUSH1 0x3F RETURNDATASIZE ADD AND DUP3 ADD PUSH1 0x40 MSTORE RETURNDATASIZE DUP3 MSTORE RETURNDATASIZE PUSH0 PUSH1 0x20 DUP5 ADD RETURNDATACOPY PUSH2 0xD39 JUMP JUMPDEST PUSH1 0x60 SWAP2 POP JUMPDEST POP POP SWAP1 POP DUP1 PUSH2 0xD7D JUMPI PUSH1 0x40 MLOAD PUSH32 0x8C379A000000000000000000000000000000000000000000000000000000000 DUP2 MSTORE PUSH1 0x4 ADD PUSH2 0xD74 SWAP1 PUSH2 0x1634 JUMP JUMPDEST PUSH1 0x40 MLOAD DUP1 SWAP2 SUB SWAP1 REVERT JUMPDEST PUSH32 0xDAEC4582D5D9595688C8C98545FDD1C696D41C6AEAEB636737E84ED2F5C00EDA DUP3 PUSH0 ADD MLOAD DUP4 PUSH1 0x20 ADD MLOAD PUSH1 0x40 MLOAD PUSH2 0xDB5 SWAP3 SWAP2 SWAP1 PUSH2 0x1054 JUMP JUMPDEST PUSH1 0x40 MLOAD DUP1 SWAP2 SUB SWAP1 LOG1 POP POP JUMP JUMPDEST PUSH0 PUSH1 0xFF DUP3 AND SWAP1 POP SWAP2 SWAP1 POP JUMP JUMPDEST PUSH2 0xDD6 DUP2 PUSH2 0xDC1 JUMP JUMPDEST DUP3 MSTORE POP POP JUMP JUMPDEST PUSH0 PUSH1 0x20 DUP3 ADD SWAP1 POP PUSH2 0xDEF PUSH0 DUP4 ADD DUP5 PUSH2 0xDCD JUMP JUMPDEST SWAP3 SWAP2 POP POP JUMP JUMPDEST PUSH0 DUP2 MLOAD SWAP1 POP SWAP2 SWAP1 POP JUMP JUMPDEST PUSH0 DUP3 DUP3 MSTORE PUSH1 0x20 DUP3 ADD SWAP1 POP SWAP3 SWAP2 POP POP JUMP JUMPDEST PUSH0 DUP2 SWAP1 POP PUSH1 0x20 DUP3 ADD SWAP1 POP SWAP2 SWAP1 POP JUMP JUMPDEST PUSH0 PUSH20 0xFFFFFFFFFFFFFFFFFFFFFFFFFFFFFFFFFFFFFFFF DUP3 AND SWAP1 POP SWAP2 SWAP1 POP JUMP JUMPDEST PUSH0 PUSH2 0xE47 DUP3 PUSH2 0xE1E JUMP JUMPDEST SWAP1 POP SWAP2 SWAP1 POP JUMP JUMPDEST PUSH2 0xE57 DUP2 PUSH2 0xE3D JUMP JUMPDEST DUP3 MSTORE POP POP JUMP JUMPDEST PUSH0 DUP2 SWAP1 POP SWAP2 SWAP1 POP JUMP JUMPDEST PUSH2 0xE6F DUP2 PUSH2 0xE5D JUMP JUMPDEST DUP3 MSTORE POP POP JUMP JUMPDEST PUSH1 0x40 DUP3 ADD PUSH0 DUP3 ADD MLOAD PUSH2 0xE89 PUSH0 DUP6 ADD DUP3 PUSH2 0xE4E JUMP JUMPDEST POP PUSH1 0x20 DUP3 ADD MLOAD PUSH2 0xE9C PUSH1 0x20 DUP6 ADD DUP3 PUSH2 0xE66 JUMP JUMPDEST POP POP POP POP JUMP JUMPDEST PUSH0 PUSH2 0xEAD DUP4 DUP4 PUSH2 0xE75 JUMP JUMPDEST PUSH1 0x40 DUP4 ADD SWAP1 POP SWAP3 SWAP2 POP POP JUMP JUMPDEST PUSH0 PUSH1 0x20 DUP3 ADD SWAP1 POP SWAP2 SWAP1 POP JUMP JUMPDEST PUSH0 PUSH2 0xECF DUP3 PUSH2 0xDF5 JUMP JUMPDEST PUSH2 0xED9 DUP2 DUP6 PUSH2 0xDFF JUMP JUMPDEST SWAP4 POP PUSH2 0xEE4 DUP4 PUSH2 0xE0F JUMP JUMPDEST DUP1 PUSH0 JUMPDEST DUP4 DUP2 LT ISZERO PUSH2 0xF14 JUMPI DUP2 MLOAD PUSH2 0xEFB DUP9 DUP3 PUSH2 0xEA2 JUMP JUMPDEST SWAP8 POP PUSH2 0xF06 DUP4 PUSH2 0xEB9 JUMP JUMPDEST SWAP3 POP POP PUSH1 0x1 DUP2 ADD SWAP1 POP PUSH2 0xEE7 JUMP JUMPDEST POP DUP6 SWAP4 POP POP POP POP SWAP3 SWAP2 POP POP JUMP JUMPDEST PUSH0 PUSH1 0x20 DUP3 ADD SWAP1 POP DUP2 DUP2 SUB PUSH0 DUP4 ADD MSTORE PUSH2 0xF39 DUP2 DUP5 PUSH2 0xEC5 JUMP JUMPDEST SWAP1 POP SWAP3 SWAP2 POP POP JUMP JUMPDEST PUSH2 0xF4A DUP2 PUSH2 0xE5D JUMP JUMPDEST DUP3 MSTORE POP POP JUMP JUMPDEST PUSH0 PUSH1 0x20 DUP3 ADD SWAP1 POP PUSH2 0xF63 PUSH0 DUP4 ADD DUP5 PUSH2 0xF41 JUMP JUMPDEST SWAP3 SWAP2 POP POP JUMP JUMPDEST PUSH2 0xF72 DUP2 PUSH2 0xE3D JUMP JUMPDEST DUP3 MSTORE POP POP JUMP JUMPDEST PUSH0 PUSH1 0x20 DUP3 ADD SWAP1 POP PUSH2 0xF8B PUSH0 DUP4 ADD DUP5 PUSH2 0xF69 JUMP JUMPDEST SWAP3 SWAP2 POP POP JUMP JUMPDEST PUSH0 DUP2 ISZERO ISZERO SWAP1 POP SWAP2 SWAP1 POP JUMP JUMPDEST PUSH2 0xFA5 DUP2 PUSH2 0xF91 JUMP JUMPDEST DUP3 MSTORE POP POP JUMP JUMPDEST PUSH0 PUSH1 0x20 DUP3 ADD SWAP1 POP PUSH2 0xFBE PUSH0 DUP4 ADD DUP5 PUSH2 0xF9C JUMP JUMPDEST SWAP3 SWAP2 POP POP JUMP JUMPDEST PUSH0 PUSH4 0xFFFFFFFF DUP3 AND SWAP1 POP SWAP2 SWAP1 POP JUMP JUMPDEST PUSH2 0xFDC DUP2 PUSH2 0xFC4 JUMP JUMPDEST DUP3 MSTORE POP POP JUMP JUMPDEST PUSH0 PUSH1 0x20 DUP3 ADD SWAP1 POP PUSH2 0xFF5 PUSH0 DUP4 ADD DUP5 PUSH2 0xFD3 JUMP JUMPDEST SWAP3 SWAP2 POP POP JUMP JUMPDEST PUSH0 DUP1 REVERT JUMPDEST PUSH2 0x1008 DUP2 PUSH2 0xE5D JUMP JUMPDEST DUP2 EQ PUSH2 0x1012 JUMPI PUSH0 DUP1 REVERT JUMPDEST POP JUMP JUMPDEST PUSH0 DUP2 CALLDATALOAD SWAP1 POP PUSH2 0x1023 DUP2 PUSH2 0xFFF JUMP JUMPDEST SWAP3 SWAP2 POP POP JUMP JUMPDEST PUSH0 PUSH1 0x20 DUP3 DUP5 SUB SLT ISZERO PUSH2 0x103E JUMPI PUSH2 0x103D PUSH2 0xFFB JUMP JUMPDEST JUMPDEST PUSH0 PUSH2 0x104B DUP5 DUP3 DUP6 ADD PUSH2 0x1015 JUMP JUMPDEST SWAP2 POP POP SWAP3 SWAP2 POP POP JUMP JUMPDEST PUSH0 PUSH1 0x40 DUP3 ADD SWAP1 POP PUSH2 0x1067 PUSH0 DUP4 ADD DUP6 PUSH2 0xF69 JUMP JUMPDEST PUSH2 0x1074 PUSH1 0x20 DUP4 ADD DUP5 PUSH2 0xF41 JUMP JUMPDEST SWAP4 SWAP3 POP POP POP JUMP JUMPDEST PUSH0 DUP3 DUP3 MSTORE PUSH1 0x20 DUP3 ADD SWAP1 POP SWAP3 SWAP2 POP POP JUMP JUMPDEST PUSH32 0x5468652061756374696F6E206973206E6F742061637469766500000000000000 PUSH0 DUP3 ADD MSTORE POP JUMP JUMPDEST PUSH0 PUSH2 0x10BF PUSH1 0x19 DUP4 PUSH2 0x107B JUMP JUMPDEST SWAP2 POP PUSH2 0x10CA DUP3 PUSH2 0x108B JUMP JUMPDEST PUSH1 0x20 DUP3 ADD SWAP1 POP SWAP2 SWAP1 POP JUMP JUMPDEST PUSH0 PUSH1 0x20 DUP3 ADD SWAP1 POP DUP2 DUP2 SUB PUSH0 DUP4 ADD MSTORE PUSH2 0x10EC DUP2 PUSH2 0x10B3 JUMP JUMPDEST SWAP1 POP SWAP2 SWAP1 POP JUMP JUMPDEST PUSH32 0x4E487B7100000000000000000000000000000000000000000000000000000000 PUSH0 MSTORE PUSH1 0x11 PUSH1 0x4 MSTORE PUSH1 0x24 PUSH0 REVERT JUMPDEST PUSH0 PUSH2 0x112A DUP3 PUSH2 0xE5D JUMP JUMPDEST SWAP2 POP PUSH2 0x1135 DUP4 PUSH2 0xE5D JUMP JUMPDEST SWAP3 POP DUP3 DUP3 MUL PUSH2 0x1143 DUP2 PUSH2 0xE5D JUMP JUMPDEST SWAP2 POP DUP3 DUP3 DIV DUP5 EQ DUP4 ISZERO OR PUSH2 0x115A JUMPI PUSH2 0x1159 PUSH2 0x10F3 JUMP JUMPDEST JUMPDEST POP SWAP3 SWAP2 POP POP JUMP JUMPDEST PUSH32 0x4E487B7100000000000000000000000000000000000000000000000000000000 PUSH0 MSTORE PUSH1 0x12 PUSH1 0x4 MSTORE PUSH1 0x24 PUSH0 REVERT JUMPDEST PUSH0 PUSH2 0x1198 DUP3 PUSH2 0xE5D JUMP JUMPDEST SWAP2 POP PUSH2 0x11A3 DUP4 PUSH2 0xE5D JUMP JUMPDEST SWAP3 POP DUP3 PUSH2 0x11B3 JUMPI PUSH2 0x11B2 PUSH2 0x1161 JUMP JUMPDEST JUMPDEST DUP3 DUP3 DIV SWAP1 POP SWAP3 SWAP2 POP POP JUMP JUMPDEST PUSH32 0x426964206D757374206265206174206C65617374203525206869676865722074 PUSH0 DUP3 ADD MSTORE PUSH32 0x68616E207468652063757272656E742062696400000000000000000000000000 PUSH1 0x20 DUP3 ADD MSTORE POP JUMP JUMPDEST PUSH0 PUSH2 0x1218 PUSH1 0x33 DUP4 PUSH2 0x107B JUMP JUMPDEST SWAP2 POP PUSH2 0x1223 DUP3 PUSH2 0x11BE JUMP JUMPDEST PUSH1 0x40 DUP3 ADD SWAP1 POP SWAP2 SWAP1 POP JUMP JUMPDEST PUSH0 PUSH1 0x20 DUP3 ADD SWAP1 POP DUP2 DUP2 SUB PUSH0 DUP4 ADD MSTORE PUSH2 0x1245 DUP2 PUSH2 0x120C JUMP JUMPDEST SWAP1 POP SWAP2 SWAP1 POP JUMP JUMPDEST PUSH32 0x5468652061756374696F6E2068617320656E6465640000000000000000000000 PUSH0 DUP3 ADD MSTORE POP JUMP JUMPDEST PUSH0 PUSH2 0x1280 PUSH1 0x15 DUP4 PUSH2 0x107B JUMP JUMPDEST SWAP2 POP PUSH2 0x128B DUP3 PUSH2 0x124C JUMP JUMPDEST PUSH1 0x20 DUP3 ADD SWAP1 POP SWAP2 SWAP1 POP JUMP JUMPDEST PUSH0 PUSH1 0x20 DUP3 ADD SWAP1 POP DUP2 DUP2 SUB PUSH0 DUP4 ADD MSTORE PUSH2 0x12AD DUP2 PUSH2 0x1274 JUMP JUMPDEST SWAP1 POP SWAP2 SWAP1 POP JUMP JUMPDEST PUSH0 PUSH2 0x12BE DUP3 PUSH2 0xE5D JUMP JUMPDEST SWAP2 POP PUSH2 0x12C9 DUP4 PUSH2 0xE5D JUMP JUMPDEST SWAP3 POP DUP3 DUP3 ADD SWAP1 POP DUP1 DUP3 GT ISZERO PUSH2 0x12E1 JUMPI PUSH2 0x12E0 PUSH2 0x10F3 JUMP JUMPDEST JUMPDEST SWAP3 SWAP2 POP POP JUMP JUMPDEST PUSH32 0x4F6E6C79207468652061756374696F6E6565722063616E206578656375746520 PUSH0 DUP3 ADD MSTORE PUSH32 0x746869732066756E6374696F6E00000000000000000000000000000000000000 PUSH1 0x20 DUP3 ADD MSTORE POP JUMP JUMPDEST PUSH0 PUSH2 0x1341 PUSH1 0x2D DUP4 PUSH2 0x107B JUMP JUMPDEST SWAP2 POP PUSH2 0x134C DUP3 PUSH2 0x12E7 JUMP JUMPDEST PUSH1 0x40 DUP3 ADD SWAP1 POP SWAP2 SWAP1 POP JUMP JUMPDEST PUSH0 PUSH1 0x20 DUP3 ADD SWAP1 POP DUP2 DUP2 SUB PUSH0 DUP4 ADD MSTORE PUSH2 0x136E DUP2 PUSH2 0x1335 JUMP JUMPDEST SWAP1 POP SWAP2 SWAP1 POP JUMP JUMPDEST PUSH32 0x5468652061756374696F6E206973207374696C6C206163746976650000000000 PUSH0 DUP3 ADD MSTORE POP JUMP JUMPDEST PUSH0 PUSH2 0x13A9 PUSH1 0x1B DUP4 PUSH2 0x107B JUMP JUMPDEST SWAP2 POP PUSH2 0x13B4 DUP3 PUSH2 0x1375 JUMP JUMPDEST PUSH1 0x20 DUP3 ADD SWAP1 POP SWAP2 SWAP1 POP JUMP JUMPDEST PUSH0 PUSH1 0x20 DUP3 ADD SWAP1 POP DUP2 DUP2 SUB PUSH0 DUP4 ADD MSTORE PUSH2 0x13D6 DUP2 PUSH2 0x139D JUMP JUMPDEST SWAP1 POP SWAP2 SWAP1 POP JUMP JUMPDEST PUSH0 PUSH2 0x13E7 DUP3 PUSH2 0xE5D JUMP JUMPDEST SWAP2 POP PUSH2 0x13F2 DUP4 PUSH2 0xE5D JUMP JUMPDEST SWAP3 POP DUP3 DUP3 SUB SWAP1 POP DUP2 DUP2 GT ISZERO PUSH2 0x140A JUMPI PUSH2 0x1409 PUSH2 0x10F3 JUMP JUMPDEST JUMPDEST SWAP3 SWAP2 POP POP JUMP JUMPDEST PUSH32 0x4E487B7100000000000000000000000000000000000000000000000000000000 PUSH0 MSTORE PUSH1 0x32 PUSH1 0x4 MSTORE PUSH1 0x24 PUSH0 REVERT JUMPDEST PUSH0 PUSH2 0x1447 DUP3 PUSH2 0xDC1 JUMP JUMPDEST SWAP2 POP PUSH2 0x1452 DUP4 PUSH2 0xDC1 JUMP JUMPDEST SWAP3 POP DUP3 DUP3 SUB SWAP1 POP PUSH1 0xFF DUP2 GT ISZERO PUSH2 0x146B JUMPI PUSH2 0x146A PUSH2 0x10F3 JUMP JUMPDEST JUMPDEST SWAP3 SWAP2 POP POP JUMP JUMPDEST PUSH0 DUP2 SWAP1 POP SWAP3 SWAP2 POP POP JUMP JUMPDEST POP JUMP JUMPDEST PUSH0 PUSH2 0x1489 PUSH0 DUP4 PUSH2 0x1471 JUMP JUMPDEST SWAP2 POP PUSH2 0x1494 DUP3 PUSH2 0x147B JUMP JUMPDEST PUSH0 DUP3 ADD SWAP1 POP SWAP2 SWAP1 POP JUMP JUMPDEST PUSH0 PUSH2 0x14A8 DUP3 PUSH2 0x147E JUMP JUMPDEST SWAP2 POP DUP2 SWAP1 POP SWAP2 SWAP1 POP JUMP JUMPDEST PUSH32 0x526566756E6420746F20626964646572206661696C6564000000000000000000 PUSH0 DUP3 ADD MSTORE POP JUMP JUMPDEST PUSH0 PUSH2 0x14E6 PUSH1 0x17 DUP4 PUSH2 0x107B JUMP JUMPDEST SWAP2 POP PUSH2 0x14F1 DUP3 PUSH2 0x14B2 JUMP JUMPDEST PUSH1 0x20 DUP3 ADD SWAP1 POP SWAP2 SWAP1 POP JUMP JUMPDEST PUSH0 PUSH1 0x20 DUP3 ADD SWAP1 POP DUP2 DUP2 SUB PUSH0 DUP4 ADD MSTORE PUSH2 0x1513 DUP2 PUSH2 0x14DA JUMP JUMPDEST SWAP1 POP SWAP2 SWAP1 POP JUMP JUMPDEST PUSH32 0x5468657265206973206E6F7468696E6720746F20776974686472617700000000 PUSH0 DUP3 ADD MSTORE POP JUMP JUMPDEST PUSH0 PUSH2 0x154E PUSH1 0x1C DUP4 PUSH2 0x107B JUMP JUMPDEST SWAP2 POP PUSH2 0x1559 DUP3 PUSH2 0x151A JUMP JUMPDEST PUSH1 0x20 DUP3 ADD SWAP1 POP SWAP2 SWAP1 POP JUMP JUMPDEST PUSH0 PUSH1 0x20 DUP3 ADD SWAP1 POP DUP2 DUP2 SUB PUSH0 DUP4 ADD MSTORE PUSH2 0x157B DUP2 PUSH2 0x1542 JUMP JUMPDEST SWAP1 POP SWAP2 SWAP1 POP JUMP JUMPDEST PUSH32 0x5468652061756374696F6E20686173206E6F7420656E64656400000000000000 PUSH0 DUP3 ADD MSTORE POP JUMP JUMPDEST PUSH0 PUSH2 0x15B6 PUSH1 0x19 DUP4 PUSH2 0x107B JUMP JUMPDEST SWAP2 POP PUSH2 0x15C1 DUP3 PUSH2 0x1582 JUMP JUMPDEST PUSH1 0x20 DUP3 ADD SWAP1 POP SWAP2 SWAP1 POP JUMP JUMPDEST PUSH0 PUSH1 0x20 DUP3 ADD SWAP1 POP DUP2 DUP2 SUB PUSH0 DUP4 ADD MSTORE PUSH2 0x15E3 DUP2 PUSH2 0x15AA JUMP JUMPDEST SWAP1 POP SWAP2 SWAP1 POP JUMP JUMPDEST PUSH32 0x5472616E7366657220746F2061756374696F6E656572206661696C6564000000 PUSH0 DUP3 ADD MSTORE POP JUMP JUMPDEST PUSH0 PUSH2 0x161E PUSH1 0x1D DUP4 PUSH2 0x107B JUMP JUMPDEST SWAP2 POP PUSH2 0x1629 DUP3 PUSH2 0x15EA JUMP JUMPDEST PUSH1 0x20 DUP3 ADD SWAP1 POP SWAP2 SWAP1 POP JUMP JUMPDEST PUSH0 PUSH1 0x20 DUP3 ADD SWAP1 POP DUP2 DUP2 SUB PUSH0 DUP4 ADD MSTORE PUSH2 0x164B DUP2 PUSH2 0x1612 JUMP JUMPDEST SWAP1 POP SWAP2 SWAP1 POP JUMP INVALID LOG2 PUSH5 0x6970667358 0x22 SLT KECCAK256 0x21 0xE5 DELEGATECALL SWAP7 0xA7 0xE JUMPDEST PUSH18 0x27ADB38A110C1E2A92EC771E6BE187C3B372 PUSH25 0x3AB8CD5F8664736F6C634300081A0033000000000000000000 "
				},
				"gasEstimates": {
					"creation": {
						"codeDepositCost": "1153600",
						"executionCost": "infinite",
						"totalCost": "infinite"
					},
					"external": {
						"EXTENSION_PERIOD()": "398",
						"GAS_COMMISSION()": "332",
						"auctionActive()": "2511",
						"auctioneer()": "2594",
						"bid()": "infinite",
						"bidHistory(uint256)": "infinite",
						"endAuction()": "infinite",
						"endTime()": "2492",
						"getMaxBid()": "infinite",
						"minimumBid()": "2447",
						"partialWithdraw()": "infinite",
						"refundDeposits()": "infinite",
						"showBids()": "infinite"
					}
				},
				"methodIdentifiers": {
					"EXTENSION_PERIOD()": "c2e8c498",
					"GAS_COMMISSION()": "110b093a",
					"auctionActive()": "92228006",
					"auctioneer()": "5ec2c7bf",
					"bid()": "1998aeef",
					"bidHistory(uint256)": "ecde973d",
					"endAuction()": "fe67a54b",
					"endTime()": "3197cbb6",
					"getMaxBid()": "7e12a251",
					"minimumBid()": "d3a86386",
					"partialWithdraw()": "f90ca117",
					"refundDeposits()": "6773fd77",
					"showBids()": "14d2687c"
				}
			},
			"storageLayout": {
				"storage": [
					{
						"astId": 9,
						"contract": "subasta8.sol:AuctionSergiommm",
						"label": "auctioneer",
						"offset": 0,
						"slot": "0",
						"type": "t_address"
					},
					{
						"astId": 11,
						"contract": "subasta8.sol:AuctionSergiommm",
						"label": "endTime",
						"offset": 0,
						"slot": "1",
						"type": "t_uint256"
					},
					{
						"astId": 16,
						"contract": "subasta8.sol:AuctionSergiommm",
						"label": "minimumBid",
						"offset": 0,
						"slot": "2",
						"type": "t_uint256"
					},
					{
						"astId": 21,
						"contract": "subasta8.sol:AuctionSergiommm",
						"label": "auctionActive",
						"offset": 0,
						"slot": "3",
						"type": "t_bool"
					},
					{
						"astId": 25,
						"contract": "subasta8.sol:AuctionSergiommm",
						"label": "bidHistory",
						"offset": 0,
						"slot": "4",
						"type": "t_array(t_struct(Bid)7_storage)dyn_storage"
					}
				],
				"types": {
					"t_address": {
						"encoding": "inplace",
						"label": "address",
						"numberOfBytes": "20"
					},
					"t_array(t_struct(Bid)7_storage)dyn_storage": {
						"base": "t_struct(Bid)7_storage",
						"encoding": "dynamic_array",
						"label": "struct AuctionSergiommm.Bid[]",
						"numberOfBytes": "32"
					},
					"t_bool": {
						"encoding": "inplace",
						"label": "bool",
						"numberOfBytes": "1"
					},
					"t_struct(Bid)7_storage": {
						"encoding": "inplace",
						"label": "struct AuctionSergiommm.Bid",
						"members": [
							{
								"astId": 4,
								"contract": "subasta8.sol:AuctionSergiommm",
								"label": "bidder",
								"offset": 0,
								"slot": "0",
								"type": "t_address"
							},
							{
								"astId": 6,
								"contract": "subasta8.sol:AuctionSergiommm",
								"label": "amount",
								"offset": 0,
								"slot": "1",
								"type": "t_uint256"
							}
						],
						"numberOfBytes": "64"
					},
					"t_uint256": {
						"encoding": "inplace",
						"label": "uint256",
						"numberOfBytes": "32"
					}
				}
			},
			"userdoc": {
				"kind": "user",
				"methods": {},
				"notice": "This contract allows for the creation of an auction where participants can place bids.",
				"version": 1
			}
		}
	}
}