{
	"auction3.sol": {
		"Auction": {
			"abi": [
				{
					"inputs": [],
					"stateMutability": "nonpayable",
					"type": "constructor"
				},
				{
					"anonymous": false,
					"inputs": [
						{
							"indexed": false,
							"internalType": "address",
							"name": "winner",
							"type": "address"
						},
						{
							"indexed": false,
							"internalType": "uint256",
							"name": "amount",
							"type": "uint256"
						}
					],
					"name": "AuctionEnded",
					"type": "event"
				},
				{
					"anonymous": false,
					"inputs": [
						{
							"indexed": true,
							"internalType": "address",
							"name": "bidder",
							"type": "address"
						},
						{
							"indexed": false,
							"internalType": "uint256",
							"name": "amount",
							"type": "uint256"
						}
					],
					"name": "NewBid",
					"type": "event"
				},
				{
					"inputs": [],
					"name": "auctionEndTime",
					"outputs": [
						{
							"internalType": "uint256",
							"name": "",
							"type": "uint256"
						}
					],
					"stateMutability": "view",
					"type": "function"
				},
				{
					"inputs": [],
					"name": "bid",
					"outputs": [],
					"stateMutability": "payable",
					"type": "function"
				},
				{
					"inputs": [
						{
							"internalType": "uint256",
							"name": "",
							"type": "uint256"
						}
					],
					"name": "bids",
					"outputs": [
						{
							"internalType": "address",
							"name": "bidder",
							"type": "address"
						},
						{
							"internalType": "uint256",
							"name": "amount",
							"type": "uint256"
						}
					],
					"stateMutability": "view",
					"type": "function"
				},
				{
					"inputs": [
						{
							"internalType": "address",
							"name": "",
							"type": "address"
						}
					],
					"name": "deposits",
					"outputs": [
						{
							"internalType": "uint256",
							"name": "",
							"type": "uint256"
						}
					],
					"stateMutability": "view",
					"type": "function"
				},
				{
					"inputs": [],
					"name": "endAuction",
					"outputs": [],
					"stateMutability": "nonpayable",
					"type": "function"
				},
				{
					"inputs": [],
					"name": "ended",
					"outputs": [
						{
							"internalType": "bool",
							"name": "",
							"type": "bool"
						}
					],
					"stateMutability": "view",
					"type": "function"
				},
				{
					"inputs": [],
					"name": "extensionThreshold",
					"outputs": [
						{
							"internalType": "uint256",
							"name": "",
							"type": "uint256"
						}
					],
					"stateMutability": "view",
					"type": "function"
				},
				{
					"inputs": [],
					"name": "extensionTime",
					"outputs": [
						{
							"internalType": "uint256",
							"name": "",
							"type": "uint256"
						}
					],
					"stateMutability": "view",
					"type": "function"
				},
				{
					"inputs": [],
					"name": "highestBid",
					"outputs": [
						{
							"internalType": "uint256",
							"name": "",
							"type": "uint256"
						}
					],
					"stateMutability": "view",
					"type": "function"
				},
				{
					"inputs": [],
					"name": "highestBidder",
					"outputs": [
						{
							"internalType": "address",
							"name": "",
							"type": "address"
						}
					],
					"stateMutability": "view",
					"type": "function"
				},
				{
					"inputs": [],
					"name": "initialPrice",
					"outputs": [
						{
							"internalType": "uint256",
							"name": "",
							"type": "uint256"
						}
					],
					"stateMutability": "view",
					"type": "function"
				},
				{
					"inputs": [],
					"name": "owner",
					"outputs": [
						{
							"internalType": "address",
							"name": "",
							"type": "address"
						}
					],
					"stateMutability": "view",
					"type": "function"
				},
				{
					"inputs": [
						{
							"internalType": "uint256",
							"name": "amount",
							"type": "uint256"
						}
					],
					"name": "partialWithdraw",
					"outputs": [],
					"stateMutability": "nonpayable",
					"type": "function"
				},
				{
					"inputs": [],
					"name": "showBids",
					"outputs": [
						{
							"components": [
								{
									"internalType": "address",
									"name": "bidder",
									"type": "address"
								},
								{
									"internalType": "uint256",
									"name": "amount",
									"type": "uint256"
								}
							],
							"internalType": "struct Auction.Bid[]",
							"name": "",
							"type": "tuple[]"
						}
					],
					"stateMutability": "view",
					"type": "function"
				},
				{
					"inputs": [],
					"name": "showWinner",
					"outputs": [
						{
							"internalType": "address",
							"name": "",
							"type": "address"
						},
						{
							"internalType": "uint256",
							"name": "",
							"type": "uint256"
						}
					],
					"stateMutability": "view",
					"type": "function"
				},
				{
					"inputs": [],
					"name": "withdraw",
					"outputs": [],
					"stateMutability": "nonpayable",
					"type": "function"
				}
			],
			"devdoc": {
				"kind": "dev",
				"methods": {},
				"version": 1
			},
			"evm": {
				"assembly": "    /* \"auction3.sol\":60:3740  contract Auction {... */\n  mstore(0x40, 0x80)\n    /* \"auction3.sol\":319:329  10 minutes */\n  0x0258\n    /* \"auction3.sol\":291:329  uint public extensionTime = 10 minutes */\n  0x05\n  sstore\n    /* \"auction3.sol\":369:379  10 minutes */\n  0x0258\n    /* \"auction3.sol\":336:379  uint public extensionThreshold = 10 minutes */\n  0x06\n  sstore\n    /* \"auction3.sol\":1232:1420  constructor() {... */\n  callvalue\n  dup1\n  iszero\n  tag_1\n  jumpi\n  0x00\n  dup1\n  revert\ntag_1:\n  pop\n    /* \"auction3.sol\":1265:1275  msg.sender */\n  caller\n    /* \"auction3.sol\":1257:1262  owner */\n  0x00\n  dup1\n    /* \"auction3.sol\":1257:1275  owner = msg.sender */\n  0x0100\n  exp\n  dup2\n  sload\n  dup2\n  0xffffffffffffffffffffffffffffffffffffffff\n  mul\n  not\n  and\n  swap1\n  dup4\n  0xffffffffffffffffffffffffffffffffffffffff\n  and\n  mul\n  or\n  swap1\n  sstore\n  pop\n    /* \"auction3.sol\":60:3740  contract Auction {... */\n  dataSize(sub_0)\n  dup1\n  dataOffset(sub_0)\n  0x00\n  codecopy\n  0x00\n  return\nstop\n\nsub_0: assembly {\n        /* \"auction3.sol\":60:3740  contract Auction {... */\n      mstore(0x40, 0x80)\n      jumpi(tag_1, lt(calldatasize, 0x04))\n      shr(0xe0, calldataload(0x00))\n      dup1\n      0x8da5cb5b\n      gt\n      tag_18\n      jumpi\n      dup1\n      0xd57bde79\n      gt\n      tag_19\n      jumpi\n      dup1\n      0xd57bde79\n      eq\n      tag_14\n      jumpi\n      dup1\n      0xeeed1b26\n      eq\n      tag_15\n      jumpi\n      dup1\n      0xfc7e286d\n      eq\n      tag_16\n      jumpi\n      dup1\n      0xfe67a54b\n      eq\n      tag_17\n      jumpi\n      jump(tag_1)\n    tag_19:\n      dup1\n      0x8da5cb5b\n      eq\n      tag_10\n      jumpi\n      dup1\n      0x91f90157\n      eq\n      tag_11\n      jumpi\n      dup1\n      0xaaad413f\n      eq\n      tag_12\n      jumpi\n      dup1\n      0xb7e03264\n      eq\n      tag_13\n      jumpi\n      jump(tag_1)\n    tag_18:\n      dup1\n      0x3ccfd60b\n      gt\n      tag_20\n      jumpi\n      dup1\n      0x3ccfd60b\n      eq\n      tag_6\n      jumpi\n      dup1\n      0x4423c5f1\n      eq\n      tag_7\n      jumpi\n      dup1\n      0x4b449cba\n      eq\n      tag_8\n      jumpi\n      dup1\n      0x71d2ee6c\n      eq\n      tag_9\n      jumpi\n      jump(tag_1)\n    tag_20:\n      dup1\n      0x12fa6feb\n      eq\n      tag_2\n      jumpi\n      dup1\n      0x14d2687c\n      eq\n      tag_3\n      jumpi\n      dup1\n      0x1998aeef\n      eq\n      tag_4\n      jumpi\n      dup1\n      0x1d0806ae\n      eq\n      tag_5\n      jumpi\n    tag_1:\n      0x00\n      dup1\n      revert\n        /* \"auction3.sol\":267:284  bool public ended */\n    tag_2:\n      callvalue\n      dup1\n      iszero\n      tag_21\n      jumpi\n      0x00\n      dup1\n      revert\n    tag_21:\n      pop\n      tag_22\n      tag_23\n      jump\t// in\n    tag_22:\n      mload(0x40)\n      tag_24\n      swap2\n      swap1\n      tag_25\n      jump\t// in\n    tag_24:\n      mload(0x40)\n      dup1\n      swap2\n      sub\n      swap1\n      return\n        /* \"auction3.sol\":2423:2510  function showBids() external view returns (Bid[] memory) {... */\n    tag_3:\n      callvalue\n      dup1\n      iszero\n      tag_26\n      jumpi\n      0x00\n      dup1\n      revert\n    tag_26:\n      pop\n      tag_27\n      tag_28\n      jump\t// in\n    tag_27:\n      mload(0x40)\n      tag_29\n      swap2\n      swap1\n      tag_30\n      jump\t// in\n    tag_29:\n      mload(0x40)\n      dup1\n      swap2\n      sub\n      swap1\n      return\n        /* \"auction3.sol\":1458:2192  function bid() external payable onlyBeforeEnd {... */\n    tag_4:\n      tag_31\n      tag_32\n      jump\t// in\n    tag_31:\n      stop\n        /* \"auction3.sol\":139:163  uint public initialPrice */\n    tag_5:\n      callvalue\n      dup1\n      iszero\n      tag_33\n      jumpi\n      0x00\n      dup1\n      revert\n    tag_33:\n      pop\n      tag_34\n      tag_35\n      jump\t// in\n    tag_34:\n      mload(0x40)\n      tag_36\n      swap2\n      swap1\n      tag_37\n      jump\t// in\n    tag_36:\n      mload(0x40)\n      dup1\n      swap2\n      sub\n      swap1\n      return\n        /* \"auction3.sol\":2813:3365  function withdraw() external onlyAfterEnd {... */\n    tag_6:\n      callvalue\n      dup1\n      iszero\n      tag_38\n      jumpi\n      0x00\n      dup1\n      revert\n    tag_38:\n      pop\n      tag_39\n      tag_40\n      jump\t// in\n    tag_39:\n      stop\n        /* \"auction3.sol\":629:646  Bid[] public bids */\n    tag_7:\n      callvalue\n      dup1\n      iszero\n      tag_41\n      jumpi\n      0x00\n      dup1\n      revert\n    tag_41:\n      pop\n      tag_42\n      0x04\n      dup1\n      calldatasize\n      sub\n      dup2\n      add\n      swap1\n      tag_43\n      swap2\n      swap1\n      tag_44\n      jump\t// in\n    tag_43:\n      tag_45\n      jump\t// in\n    tag_42:\n      mload(0x40)\n      tag_46\n      swap3\n      swap2\n      swap1\n      tag_47\n      jump\t// in\n    tag_46:\n      mload(0x40)\n      dup1\n      swap2\n      sub\n      swap1\n      return\n        /* \"auction3.sol\":170:196  uint public auctionEndTime */\n    tag_8:\n      callvalue\n      dup1\n      iszero\n      tag_48\n      jumpi\n      0x00\n      dup1\n      revert\n    tag_48:\n      pop\n      tag_49\n      tag_50\n      jump\t// in\n    tag_49:\n      mload(0x40)\n      tag_51\n      swap2\n      swap1\n      tag_37\n      jump\t// in\n    tag_51:\n      mload(0x40)\n      dup1\n      swap2\n      sub\n      swap1\n      return\n        /* \"auction3.sol\":3430:3737  function partialWithdraw(uint amount) external onlyBeforeEnd {... */\n    tag_9:\n      callvalue\n      dup1\n      iszero\n      tag_52\n      jumpi\n      0x00\n      dup1\n      revert\n    tag_52:\n      pop\n      tag_53\n      0x04\n      dup1\n      calldatasize\n      sub\n      dup2\n      add\n      swap1\n      tag_54\n      swap2\n      swap1\n      tag_44\n      jump\t// in\n    tag_54:\n      tag_55\n      jump\t// in\n    tag_53:\n      stop\n        /* \"auction3.sol\":112:132  address public owner */\n    tag_10:\n      callvalue\n      dup1\n      iszero\n      tag_56\n      jumpi\n      0x00\n      dup1\n      revert\n    tag_56:\n      pop\n      tag_57\n      tag_58\n      jump\t// in\n    tag_57:\n      mload(0x40)\n      tag_59\n      swap2\n      swap1\n      tag_60\n      jump\t// in\n    tag_59:\n      mload(0x40)\n      dup1\n      swap2\n      sub\n      swap1\n      return\n        /* \"auction3.sol\":232:260  address public highestBidder */\n    tag_11:\n      callvalue\n      dup1\n      iszero\n      tag_61\n      jumpi\n      0x00\n      dup1\n      revert\n    tag_61:\n      pop\n      tag_62\n      tag_63\n      jump\t// in\n    tag_62:\n      mload(0x40)\n      tag_64\n      swap2\n      swap1\n      tag_60\n      jump\t// in\n    tag_64:\n      mload(0x40)\n      dup1\n      swap2\n      sub\n      swap1\n      return\n        /* \"auction3.sol\":336:379  uint public extensionThreshold = 10 minutes */\n    tag_12:\n      callvalue\n      dup1\n      iszero\n      tag_65\n      jumpi\n      0x00\n      dup1\n      revert\n    tag_65:\n      pop\n      tag_66\n      tag_67\n      jump\t// in\n    tag_66:\n      mload(0x40)\n      tag_68\n      swap2\n      swap1\n      tag_37\n      jump\t// in\n    tag_68:\n      mload(0x40)\n      dup1\n      swap2\n      sub\n      swap1\n      return\n        /* \"auction3.sol\":2241:2367  function showWinner() external view onlyAfterEnd returns (address, uint) {... */\n    tag_13:\n      callvalue\n      dup1\n      iszero\n      tag_69\n      jumpi\n      0x00\n      dup1\n      revert\n    tag_69:\n      pop\n      tag_70\n      tag_71\n      jump\t// in\n    tag_70:\n      mload(0x40)\n      tag_72\n      swap3\n      swap2\n      swap1\n      tag_47\n      jump\t// in\n    tag_72:\n      mload(0x40)\n      dup1\n      swap2\n      sub\n      swap1\n      return\n        /* \"auction3.sol\":203:225  uint public highestBid */\n    tag_14:\n      callvalue\n      dup1\n      iszero\n      tag_73\n      jumpi\n      0x00\n      dup1\n      revert\n    tag_73:\n      pop\n      tag_74\n      tag_75\n      jump\t// in\n    tag_74:\n      mload(0x40)\n      tag_76\n      swap2\n      swap1\n      tag_37\n      jump\t// in\n    tag_76:\n      mload(0x40)\n      dup1\n      swap2\n      sub\n      swap1\n      return\n        /* \"auction3.sol\":291:329  uint public extensionTime = 10 minutes */\n    tag_15:\n      callvalue\n      dup1\n      iszero\n      tag_77\n      jumpi\n      0x00\n      dup1\n      revert\n    tag_77:\n      pop\n      tag_78\n      tag_79\n      jump\t// in\n    tag_78:\n      mload(0x40)\n      tag_80\n      swap2\n      swap1\n      tag_37\n      jump\t// in\n    tag_80:\n      mload(0x40)\n      dup1\n      swap2\n      sub\n      swap1\n      return\n        /* \"auction3.sol\":582:622  mapping(address => uint) public deposits */\n    tag_16:\n      callvalue\n      dup1\n      iszero\n      tag_81\n      jumpi\n      0x00\n      dup1\n      revert\n    tag_81:\n      pop\n      tag_82\n      0x04\n      dup1\n      calldatasize\n      sub\n      dup2\n      add\n      swap1\n      tag_83\n      swap2\n      swap1\n      tag_84\n      jump\t// in\n    tag_83:\n      tag_85\n      jump\t// in\n    tag_82:\n      mload(0x40)\n      tag_86\n      swap2\n      swap1\n      tag_37\n      jump\t// in\n    tag_86:\n      mload(0x40)\n      dup1\n      swap2\n      sub\n      swap1\n      return\n        /* \"auction3.sol\":2561:2764  function endAuction() external onlyOwner onlyAfterEnd {... */\n    tag_17:\n      callvalue\n      dup1\n      iszero\n      tag_87\n      jumpi\n      0x00\n      dup1\n      revert\n    tag_87:\n      pop\n      tag_88\n      tag_89\n      jump\t// in\n    tag_88:\n      stop\n        /* \"auction3.sol\":267:284  bool public ended */\n    tag_23:\n      0x04\n      0x14\n      swap1\n      sload\n      swap1\n      0x0100\n      exp\n      swap1\n      div\n      0xff\n      and\n      dup2\n      jump\t// out\n        /* \"auction3.sol\":2423:2510  function showBids() external view returns (Bid[] memory) {... */\n    tag_28:\n        /* \"auction3.sol\":2466:2478  Bid[] memory */\n      0x60\n        /* \"auction3.sol\":2498:2502  bids */\n      0x08\n        /* \"auction3.sol\":2491:2502  return bids */\n      dup1\n      sload\n      dup1\n      0x20\n      mul\n      0x20\n      add\n      mload(0x40)\n      swap1\n      dup2\n      add\n      0x40\n      mstore\n      dup1\n      swap3\n      swap2\n      swap1\n      dup2\n      dup2\n      mstore\n      0x20\n      add\n      0x00\n      swap1\n    tag_91:\n      dup3\n      dup3\n      lt\n      iszero\n      tag_92\n      jumpi\n      dup4\n      dup3\n      swap1\n      0x00\n      mstore\n      keccak256(0x00, 0x20)\n      swap1\n      0x02\n      mul\n      add\n      mload(0x40)\n      dup1\n      0x40\n      add\n      0x40\n      mstore\n      swap1\n      dup2\n      0x00\n      dup3\n      add\n      0x00\n      swap1\n      sload\n      swap1\n      0x0100\n      exp\n      swap1\n      div\n      0xffffffffffffffffffffffffffffffffffffffff\n      and\n      0xffffffffffffffffffffffffffffffffffffffff\n      and\n      0xffffffffffffffffffffffffffffffffffffffff\n      and\n      dup2\n      mstore\n      0x20\n      add\n      0x01\n      dup3\n      add\n      sload\n      dup2\n      mstore\n      pop\n      pop\n      dup2\n      mstore\n      0x20\n      add\n      swap1\n      0x01\n      add\n      swap1\n      jump(tag_91)\n    tag_92:\n      pop\n      pop\n      pop\n      pop\n      swap1\n      pop\n        /* \"auction3.sol\":2423:2510  function showBids() external view returns (Bid[] memory) {... */\n      swap1\n      jump\t// out\n        /* \"auction3.sol\":1458:2192  function bid() external payable onlyBeforeEnd {... */\n    tag_32:\n        /* \"auction3.sol\":867:881  auctionEndTime */\n      sload(0x02)\n        /* \"auction3.sol\":849:864  block.timestamp */\n      timestamp\n        /* \"auction3.sol\":849:881  block.timestamp < auctionEndTime */\n      lt\n        /* \"auction3.sol\":841:911  require(block.timestamp < auctionEndTime, \"La subasta ha finalizado.\") */\n      tag_95\n      jumpi\n      mload(0x40)\n      0x08c379a000000000000000000000000000000000000000000000000000000000\n      dup2\n      mstore\n      0x04\n      add\n      tag_96\n      swap1\n      tag_97\n      jump\t// in\n    tag_96:\n      mload(0x40)\n      dup1\n      swap2\n      sub\n      swap1\n      revert\n    tag_95:\n        /* \"auction3.sol\":1515:1526  uint newBid */\n      0x00\n        /* \"auction3.sol\":1552:1561  msg.value */\n      callvalue\n        /* \"auction3.sol\":1529:1537  deposits */\n      0x07\n        /* \"auction3.sol\":1529:1549  deposits[msg.sender] */\n      0x00\n        /* \"auction3.sol\":1538:1548  msg.sender */\n      caller\n        /* \"auction3.sol\":1529:1549  deposits[msg.sender] */\n      0xffffffffffffffffffffffffffffffffffffffff\n      and\n      0xffffffffffffffffffffffffffffffffffffffff\n      and\n      dup2\n      mstore\n      0x20\n      add\n      swap1\n      dup2\n      mstore\n      0x20\n      add\n      0x00\n      keccak256\n      sload\n        /* \"auction3.sol\":1529:1561  deposits[msg.sender] + msg.value */\n      tag_99\n      swap2\n      swap1\n      tag_100\n      jump\t// in\n    tag_99:\n        /* \"auction3.sol\":1515:1561  uint newBid = deposits[msg.sender] + msg.value */\n      swap1\n      pop\n        /* \"auction3.sol\":1608:1611  100 */\n      0x64\n        /* \"auction3.sol\":1602:1605  105 */\n      0x69\n        /* \"auction3.sol\":1589:1599  highestBid */\n      sload(0x03)\n        /* \"auction3.sol\":1589:1605  highestBid * 105 */\n      tag_101\n      swap2\n      swap1\n      tag_102\n      jump\t// in\n    tag_101:\n        /* \"auction3.sol\":1589:1611  highestBid * 105 / 100 */\n      tag_103\n      swap2\n      swap1\n      tag_104\n      jump\t// in\n    tag_103:\n        /* \"auction3.sol\":1580:1586  newBid */\n      dup2\n        /* \"auction3.sol\":1580:1611  newBid > highestBid * 105 / 100 */\n      gt\n        /* \"auction3.sol\":1572:1672  require(newBid > highestBid * 105 / 100, \"La oferta debe ser al menos 5% mayor a la oferta actual.\") */\n      tag_105\n      jumpi\n      mload(0x40)\n      0x08c379a000000000000000000000000000000000000000000000000000000000\n      dup2\n      mstore\n      0x04\n      add\n      tag_106\n      swap1\n      tag_107\n      jump\t// in\n    tag_106:\n      mload(0x40)\n      dup1\n      swap2\n      sub\n      swap1\n      revert\n    tag_105:\n        /* \"auction3.sol\":1708:1714  newBid */\n      dup1\n        /* \"auction3.sol\":1685:1693  deposits */\n      0x07\n        /* \"auction3.sol\":1685:1705  deposits[msg.sender] */\n      0x00\n        /* \"auction3.sol\":1694:1704  msg.sender */\n      caller\n        /* \"auction3.sol\":1685:1705  deposits[msg.sender] */\n      0xffffffffffffffffffffffffffffffffffffffff\n      and\n      0xffffffffffffffffffffffffffffffffffffffff\n      and\n      dup2\n      mstore\n      0x20\n      add\n      swap1\n      dup2\n      mstore\n      0x20\n      add\n      0x00\n      keccak256\n        /* \"auction3.sol\":1685:1714  deposits[msg.sender] = newBid */\n      dup2\n      swap1\n      sstore\n      pop\n        /* \"auction3.sol\":1780:1784  bids */\n      0x08\n        /* \"auction3.sol\":1790:1813  Bid(msg.sender, newBid) */\n      mload(0x40)\n      dup1\n      0x40\n      add\n      0x40\n      mstore\n      dup1\n        /* \"auction3.sol\":1794:1804  msg.sender */\n      caller\n        /* \"auction3.sol\":1790:1813  Bid(msg.sender, newBid) */\n      0xffffffffffffffffffffffffffffffffffffffff\n      and\n      dup2\n      mstore\n      0x20\n      add\n        /* \"auction3.sol\":1806:1812  newBid */\n      dup4\n        /* \"auction3.sol\":1790:1813  Bid(msg.sender, newBid) */\n      dup2\n      mstore\n      pop\n        /* \"auction3.sol\":1780:1814  bids.push(Bid(msg.sender, newBid)) */\n      swap1\n      dup1\n      0x01\n      dup2\n      sload\n      add\n      dup1\n      dup3\n      sstore\n      dup1\n      swap2\n      pop\n      pop\n      0x01\n      swap1\n      sub\n      swap1\n      0x00\n      mstore\n      keccak256(0x00, 0x20)\n      swap1\n      0x02\n      mul\n      add\n      0x00\n      swap1\n      swap2\n      swap1\n      swap2\n      swap1\n      swap2\n      pop\n      0x00\n      dup3\n      add\n      mload\n      dup2\n      0x00\n      add\n      exp(0x0100, 0x00)\n      dup2\n      sload\n      dup2\n      0xffffffffffffffffffffffffffffffffffffffff\n      mul\n      not\n      and\n      swap1\n      dup4\n      0xffffffffffffffffffffffffffffffffffffffff\n      and\n      mul\n      or\n      swap1\n      sstore\n      pop\n      0x20\n      dup3\n      add\n      mload\n      dup2\n      0x01\n      add\n      sstore\n      pop\n      pop\n        /* \"auction3.sol\":1908:1914  newBid */\n      dup1\n        /* \"auction3.sol\":1895:1905  highestBid */\n      0x03\n        /* \"auction3.sol\":1895:1914  highestBid = newBid */\n      dup2\n      swap1\n      sstore\n      pop\n        /* \"auction3.sol\":1941:1951  msg.sender */\n      caller\n        /* \"auction3.sol\":1925:1938  highestBidder */\n      0x04\n      0x00\n        /* \"auction3.sol\":1925:1951  highestBidder = msg.sender */\n      0x0100\n      exp\n      dup2\n      sload\n      dup2\n      0xffffffffffffffffffffffffffffffffffffffff\n      mul\n      not\n      and\n      swap1\n      dup4\n      0xffffffffffffffffffffffffffffffffffffffff\n      and\n      mul\n      or\n      swap1\n      sstore\n      pop\n        /* \"auction3.sol\":2063:2081  extensionThreshold */\n      sload(0x06)\n        /* \"auction3.sol\":2045:2060  block.timestamp */\n      timestamp\n        /* \"auction3.sol\":2028:2042  auctionEndTime */\n      sload(0x02)\n        /* \"auction3.sol\":2028:2060  auctionEndTime - block.timestamp */\n      tag_109\n      swap2\n      swap1\n      tag_110\n      jump\t// in\n    tag_109:\n        /* \"auction3.sol\":2028:2081  auctionEndTime - block.timestamp < extensionThreshold */\n      lt\n        /* \"auction3.sol\":2024:2141  if (auctionEndTime - block.timestamp < extensionThreshold) {... */\n      iszero\n      tag_111\n      jumpi\n        /* \"auction3.sol\":2116:2129  extensionTime */\n      sload(0x05)\n        /* \"auction3.sol\":2098:2112  auctionEndTime */\n      0x02\n      0x00\n        /* \"auction3.sol\":2098:2129  auctionEndTime += extensionTime */\n      dup3\n      dup3\n      sload\n      tag_112\n      swap2\n      swap1\n      tag_100\n      jump\t// in\n    tag_112:\n      swap3\n      pop\n      pop\n      dup2\n      swap1\n      sstore\n      pop\n        /* \"auction3.sol\":2024:2141  if (auctionEndTime - block.timestamp < extensionThreshold) {... */\n    tag_111:\n        /* \"auction3.sol\":2165:2175  msg.sender */\n      caller\n        /* \"auction3.sol\":2158:2184  NewBid(msg.sender, newBid) */\n      0xffffffffffffffffffffffffffffffffffffffff\n      and\n      0xdd0b6c6a77960e2066c96171b4d7ac9e8b4c184011f38544afa36a5bb63ec59f\n        /* \"auction3.sol\":2177:2183  newBid */\n      dup3\n        /* \"auction3.sol\":2158:2184  NewBid(msg.sender, newBid) */\n      mload(0x40)\n      tag_113\n      swap2\n      swap1\n      tag_37\n      jump\t// in\n    tag_113:\n      mload(0x40)\n      dup1\n      swap2\n      sub\n      swap1\n      log2\n        /* \"auction3.sol\":1504:2192  {... */\n      pop\n        /* \"auction3.sol\":1458:2192  function bid() external payable onlyBeforeEnd {... */\n      jump\t// out\n        /* \"auction3.sol\":139:163  uint public initialPrice */\n    tag_35:\n      sload(0x01)\n      dup2\n      jump\t// out\n        /* \"auction3.sol\":2813:3365  function withdraw() external onlyAfterEnd {... */\n    tag_40:\n        /* \"auction3.sol\":1001:1015  auctionEndTime */\n      sload(0x02)\n        /* \"auction3.sol\":982:997  block.timestamp */\n      timestamp\n        /* \"auction3.sol\":982:1015  block.timestamp >= auctionEndTime */\n      lt\n      iszero\n        /* \"auction3.sol\":974:1044  require(block.timestamp >= auctionEndTime, \"La subasta sigue activa.\") */\n      tag_115\n      jumpi\n      mload(0x40)\n      0x08c379a000000000000000000000000000000000000000000000000000000000\n      dup2\n      mstore\n      0x04\n      add\n      tag_116\n      swap1\n      tag_117\n      jump\t// in\n    tag_116:\n      mload(0x40)\n      dup1\n      swap2\n      sub\n      swap1\n      revert\n    tag_115:\n        /* \"auction3.sol\":2888:2901  highestBidder */\n      0x04\n      0x00\n      swap1\n      sload\n      swap1\n      0x0100\n      exp\n      swap1\n      div\n      0xffffffffffffffffffffffffffffffffffffffff\n      and\n        /* \"auction3.sol\":2874:2901  msg.sender != highestBidder */\n      0xffffffffffffffffffffffffffffffffffffffff\n      and\n        /* \"auction3.sol\":2874:2884  msg.sender */\n      caller\n        /* \"auction3.sol\":2874:2901  msg.sender != highestBidder */\n      0xffffffffffffffffffffffffffffffffffffffff\n      and\n      sub\n        /* \"auction3.sol\":2866:2934  require(msg.sender != highestBidder, \"El ganador no puede retirar.\") */\n      tag_119\n      jumpi\n      mload(0x40)\n      0x08c379a000000000000000000000000000000000000000000000000000000000\n      dup2\n      mstore\n      0x04\n      add\n      tag_120\n      swap1\n      tag_121\n      jump\t// in\n    tag_120:\n      mload(0x40)\n      dup1\n      swap2\n      sub\n      swap1\n      revert\n    tag_119:\n        /* \"auction3.sol\":2945:2962  uint refundAmount */\n      0x00\n        /* \"auction3.sol\":2965:2973  deposits */\n      0x07\n        /* \"auction3.sol\":2965:2985  deposits[msg.sender] */\n      0x00\n        /* \"auction3.sol\":2974:2984  msg.sender */\n      caller\n        /* \"auction3.sol\":2965:2985  deposits[msg.sender] */\n      0xffffffffffffffffffffffffffffffffffffffff\n      and\n      0xffffffffffffffffffffffffffffffffffffffff\n      and\n      dup2\n      mstore\n      0x20\n      add\n      swap1\n      dup2\n      mstore\n      0x20\n      add\n      0x00\n      keccak256\n      sload\n        /* \"auction3.sol\":2945:2985  uint refundAmount = deposits[msg.sender] */\n      swap1\n      pop\n        /* \"auction3.sol\":3019:3020  0 */\n      0x00\n        /* \"auction3.sol\":3004:3016  refundAmount */\n      dup2\n        /* \"auction3.sol\":3004:3020  refundAmount > 0 */\n      gt\n        /* \"auction3.sol\":2996:3052  require(refundAmount > 0, \"No hay fondos para retirar.\") */\n      tag_122\n      jumpi\n      mload(0x40)\n      0x08c379a000000000000000000000000000000000000000000000000000000000\n      dup2\n      mstore\n      0x04\n      add\n      tag_123\n      swap1\n      tag_124\n      jump\t// in\n    tag_123:\n      mload(0x40)\n      dup1\n      swap2\n      sub\n      swap1\n      revert\n    tag_122:\n        /* \"auction3.sol\":3115:3123  uint fee */\n      0x00\n        /* \"auction3.sol\":3145:3148  100 */\n      0x64\n        /* \"auction3.sol\":3141:3142  2 */\n      0x02\n        /* \"auction3.sol\":3126:3138  refundAmount */\n      dup4\n        /* \"auction3.sol\":3126:3142  refundAmount * 2 */\n      tag_125\n      swap2\n      swap1\n      tag_102\n      jump\t// in\n    tag_125:\n        /* \"auction3.sol\":3126:3148  refundAmount * 2 / 100 */\n      tag_126\n      swap2\n      swap1\n      tag_104\n      jump\t// in\n    tag_126:\n        /* \"auction3.sol\":3115:3148  uint fee = refundAmount * 2 / 100 */\n      swap1\n      pop\n        /* \"auction3.sol\":3159:3175  uint finalAmount */\n      0x00\n        /* \"auction3.sol\":3193:3196  fee */\n      dup2\n        /* \"auction3.sol\":3178:3190  refundAmount */\n      dup4\n        /* \"auction3.sol\":3178:3196  refundAmount - fee */\n      tag_127\n      swap2\n      swap1\n      tag_110\n      jump\t// in\n    tag_127:\n        /* \"auction3.sol\":3159:3196  uint finalAmount = refundAmount - fee */\n      swap1\n      pop\n        /* \"auction3.sol\":3230:3231  0 */\n      0x00\n        /* \"auction3.sol\":3207:3215  deposits */\n      0x07\n        /* \"auction3.sol\":3207:3227  deposits[msg.sender] */\n      0x00\n        /* \"auction3.sol\":3216:3226  msg.sender */\n      caller\n        /* \"auction3.sol\":3207:3227  deposits[msg.sender] */\n      0xffffffffffffffffffffffffffffffffffffffff\n      and\n      0xffffffffffffffffffffffffffffffffffffffff\n      and\n      dup2\n      mstore\n      0x20\n      add\n      swap1\n      dup2\n      mstore\n      0x20\n      add\n      0x00\n      keccak256\n        /* \"auction3.sol\":3207:3231  deposits[msg.sender] = 0 */\n      dup2\n      swap1\n      sstore\n      pop\n        /* \"auction3.sol\":3253:3265  bool success */\n      0x00\n        /* \"auction3.sol\":3271:3281  msg.sender */\n      caller\n        /* \"auction3.sol\":3271:3286  msg.sender.call */\n      0xffffffffffffffffffffffffffffffffffffffff\n      and\n        /* \"auction3.sol\":3294:3305  finalAmount */\n      dup3\n        /* \"auction3.sol\":3271:3310  msg.sender.call{value: finalAmount}(\"\") */\n      mload(0x40)\n      tag_128\n      swap1\n      tag_129\n      jump\t// in\n    tag_128:\n      0x00\n      mload(0x40)\n      dup1\n      dup4\n      sub\n      dup2\n      dup6\n      dup8\n      gas\n      call\n      swap3\n      pop\n      pop\n      pop\n      returndatasize\n      dup1\n      0x00\n      dup2\n      eq\n      tag_132\n      jumpi\n      mload(0x40)\n      swap2\n      pop\n      and(add(returndatasize, 0x3f), not(0x1f))\n      dup3\n      add\n      0x40\n      mstore\n      returndatasize\n      dup3\n      mstore\n      returndatasize\n      0x00\n      0x20\n      dup5\n      add\n      returndatacopy\n      jump(tag_131)\n    tag_132:\n      0x60\n      swap2\n      pop\n    tag_131:\n      pop\n        /* \"auction3.sol\":3252:3310  (bool success, ) = msg.sender.call{value: finalAmount}(\"\") */\n      pop\n      swap1\n      pop\n        /* \"auction3.sol\":3329:3336  success */\n      dup1\n        /* \"auction3.sol\":3321:3357  require(success, \"El retiro fallo.\") */\n      tag_133\n      jumpi\n      mload(0x40)\n      0x08c379a000000000000000000000000000000000000000000000000000000000\n      dup2\n      mstore\n      0x04\n      add\n      tag_134\n      swap1\n      tag_135\n      jump\t// in\n    tag_134:\n      mload(0x40)\n      dup1\n      swap2\n      sub\n      swap1\n      revert\n    tag_133:\n        /* \"auction3.sol\":2855:3365  {... */\n      pop\n      pop\n      pop\n      pop\n        /* \"auction3.sol\":2813:3365  function withdraw() external onlyAfterEnd {... */\n      jump\t// out\n        /* \"auction3.sol\":629:646  Bid[] public bids */\n    tag_45:\n      0x08\n      dup2\n      dup2\n      sload\n      dup2\n      lt\n      tag_136\n      jumpi\n      0x00\n      dup1\n      revert\n    tag_136:\n      swap1\n      0x00\n      mstore\n      keccak256(0x00, 0x20)\n      swap1\n      0x02\n      mul\n      add\n      0x00\n      swap2\n      pop\n      swap1\n      pop\n      dup1\n      0x00\n      add\n      0x00\n      swap1\n      sload\n      swap1\n      0x0100\n      exp\n      swap1\n      div\n      0xffffffffffffffffffffffffffffffffffffffff\n      and\n      swap1\n      dup1\n      0x01\n      add\n      sload\n      swap1\n      pop\n      dup3\n      jump\t// out\n        /* \"auction3.sol\":170:196  uint public auctionEndTime */\n    tag_50:\n      sload(0x02)\n      dup2\n      jump\t// out\n        /* \"auction3.sol\":3430:3737  function partialWithdraw(uint amount) external onlyBeforeEnd {... */\n    tag_55:\n        /* \"auction3.sol\":867:881  auctionEndTime */\n      sload(0x02)\n        /* \"auction3.sol\":849:864  block.timestamp */\n      timestamp\n        /* \"auction3.sol\":849:881  block.timestamp < auctionEndTime */\n      lt\n        /* \"auction3.sol\":841:911  require(block.timestamp < auctionEndTime, \"La subasta ha finalizado.\") */\n      tag_139\n      jumpi\n      mload(0x40)\n      0x08c379a000000000000000000000000000000000000000000000000000000000\n      dup2\n      mstore\n      0x04\n      add\n      tag_140\n      swap1\n      tag_97\n      jump\t// in\n    tag_140:\n      mload(0x40)\n      dup1\n      swap2\n      sub\n      swap1\n      revert\n    tag_139:\n        /* \"auction3.sol\":3534:3540  amount */\n      dup1\n        /* \"auction3.sol\":3510:3518  deposits */\n      0x07\n        /* \"auction3.sol\":3510:3530  deposits[msg.sender] */\n      0x00\n        /* \"auction3.sol\":3519:3529  msg.sender */\n      caller\n        /* \"auction3.sol\":3510:3530  deposits[msg.sender] */\n      0xffffffffffffffffffffffffffffffffffffffff\n      and\n      0xffffffffffffffffffffffffffffffffffffffff\n      and\n      dup2\n      mstore\n      0x20\n      add\n      swap1\n      dup2\n      mstore\n      0x20\n      add\n      0x00\n      keccak256\n      sload\n        /* \"auction3.sol\":3510:3540  deposits[msg.sender] >= amount */\n      lt\n      iszero\n        /* \"auction3.sol\":3502:3575  require(deposits[msg.sender] >= amount, \"No tienes suficiente deposito.\") */\n      tag_142\n      jumpi\n      mload(0x40)\n      0x08c379a000000000000000000000000000000000000000000000000000000000\n      dup2\n      mstore\n      0x04\n      add\n      tag_143\n      swap1\n      tag_144\n      jump\t// in\n    tag_143:\n      mload(0x40)\n      dup1\n      swap2\n      sub\n      swap1\n      revert\n    tag_142:\n        /* \"auction3.sol\":3610:3616  amount */\n      dup1\n        /* \"auction3.sol\":3586:3594  deposits */\n      0x07\n        /* \"auction3.sol\":3586:3606  deposits[msg.sender] */\n      0x00\n        /* \"auction3.sol\":3595:3605  msg.sender */\n      caller\n        /* \"auction3.sol\":3586:3606  deposits[msg.sender] */\n      0xffffffffffffffffffffffffffffffffffffffff\n      and\n      0xffffffffffffffffffffffffffffffffffffffff\n      and\n      dup2\n      mstore\n      0x20\n      add\n      swap1\n      dup2\n      mstore\n      0x20\n      add\n      0x00\n      keccak256\n      0x00\n        /* \"auction3.sol\":3586:3616  deposits[msg.sender] -= amount */\n      dup3\n      dup3\n      sload\n      tag_145\n      swap2\n      swap1\n      tag_110\n      jump\t// in\n    tag_145:\n      swap3\n      pop\n      pop\n      dup2\n      swap1\n      sstore\n      pop\n        /* \"auction3.sol\":3630:3642  bool success */\n      0x00\n        /* \"auction3.sol\":3648:3658  msg.sender */\n      caller\n        /* \"auction3.sol\":3648:3663  msg.sender.call */\n      0xffffffffffffffffffffffffffffffffffffffff\n      and\n        /* \"auction3.sol\":3671:3677  amount */\n      dup3\n        /* \"auction3.sol\":3648:3682  msg.sender.call{value: amount}(\"\") */\n      mload(0x40)\n      tag_146\n      swap1\n      tag_129\n      jump\t// in\n    tag_146:\n      0x00\n      mload(0x40)\n      dup1\n      dup4\n      sub\n      dup2\n      dup6\n      dup8\n      gas\n      call\n      swap3\n      pop\n      pop\n      pop\n      returndatasize\n      dup1\n      0x00\n      dup2\n      eq\n      tag_149\n      jumpi\n      mload(0x40)\n      swap2\n      pop\n      and(add(returndatasize, 0x3f), not(0x1f))\n      dup3\n      add\n      0x40\n      mstore\n      returndatasize\n      dup3\n      mstore\n      returndatasize\n      0x00\n      0x20\n      dup5\n      add\n      returndatacopy\n      jump(tag_148)\n    tag_149:\n      0x60\n      swap2\n      pop\n    tag_148:\n      pop\n        /* \"auction3.sol\":3629:3682  (bool success, ) = msg.sender.call{value: amount}(\"\") */\n      pop\n      swap1\n      pop\n        /* \"auction3.sol\":3701:3708  success */\n      dup1\n        /* \"auction3.sol\":3693:3729  require(success, \"El retiro fallo.\") */\n      tag_150\n      jumpi\n      mload(0x40)\n      0x08c379a000000000000000000000000000000000000000000000000000000000\n      dup2\n      mstore\n      0x04\n      add\n      tag_151\n      swap1\n      tag_135\n      jump\t// in\n    tag_151:\n      mload(0x40)\n      dup1\n      swap2\n      sub\n      swap1\n      revert\n    tag_150:\n        /* \"auction3.sol\":3491:3737  {... */\n      pop\n        /* \"auction3.sol\":3430:3737  function partialWithdraw(uint amount) external onlyBeforeEnd {... */\n      pop\n      jump\t// out\n        /* \"auction3.sol\":112:132  address public owner */\n    tag_58:\n      0x00\n      dup1\n      sload\n      swap1\n      0x0100\n      exp\n      swap1\n      div\n      0xffffffffffffffffffffffffffffffffffffffff\n      and\n      dup2\n      jump\t// out\n        /* \"auction3.sol\":232:260  address public highestBidder */\n    tag_63:\n      0x04\n      0x00\n      swap1\n      sload\n      swap1\n      0x0100\n      exp\n      swap1\n      div\n      0xffffffffffffffffffffffffffffffffffffffff\n      and\n      dup2\n      jump\t// out\n        /* \"auction3.sol\":336:379  uint public extensionThreshold = 10 minutes */\n    tag_67:\n      sload(0x06)\n      dup2\n      jump\t// out\n        /* \"auction3.sol\":2241:2367  function showWinner() external view onlyAfterEnd returns (address, uint) {... */\n    tag_71:\n        /* \"auction3.sol\":2299:2306  address */\n      0x00\n        /* \"auction3.sol\":2308:2312  uint */\n      dup1\n        /* \"auction3.sol\":1001:1015  auctionEndTime */\n      sload(0x02)\n        /* \"auction3.sol\":982:997  block.timestamp */\n      timestamp\n        /* \"auction3.sol\":982:1015  block.timestamp >= auctionEndTime */\n      lt\n      iszero\n        /* \"auction3.sol\":974:1044  require(block.timestamp >= auctionEndTime, \"La subasta sigue activa.\") */\n      tag_153\n      jumpi\n      mload(0x40)\n      0x08c379a000000000000000000000000000000000000000000000000000000000\n      dup2\n      mstore\n      0x04\n      add\n      tag_154\n      swap1\n      tag_117\n      jump\t// in\n    tag_154:\n      mload(0x40)\n      dup1\n      swap2\n      sub\n      swap1\n      revert\n    tag_153:\n        /* \"auction3.sol\":2333:2346  highestBidder */\n      0x04\n      0x00\n      swap1\n      sload\n      swap1\n      0x0100\n      exp\n      swap1\n      div\n      0xffffffffffffffffffffffffffffffffffffffff\n      and\n        /* \"auction3.sol\":2348:2358  highestBid */\n      sload(0x03)\n        /* \"auction3.sol\":2325:2359  return (highestBidder, highestBid) */\n      swap2\n      pop\n      swap2\n      pop\n        /* \"auction3.sol\":2241:2367  function showWinner() external view onlyAfterEnd returns (address, uint) {... */\n      swap1\n      swap2\n      jump\t// out\n        /* \"auction3.sol\":203:225  uint public highestBid */\n    tag_75:\n      sload(0x03)\n      dup2\n      jump\t// out\n        /* \"auction3.sol\":291:329  uint public extensionTime = 10 minutes */\n    tag_79:\n      sload(0x05)\n      dup2\n      jump\t// out\n        /* \"auction3.sol\":582:622  mapping(address => uint) public deposits */\n    tag_85:\n      mstore(0x20, 0x07)\n      dup1\n      0x00\n      mstore\n      keccak256(0x00, 0x40)\n      0x00\n      swap2\n      pop\n      swap1\n      pop\n      sload\n      dup2\n      jump\t// out\n        /* \"auction3.sol\":2561:2764  function endAuction() external onlyOwner onlyAfterEnd {... */\n    tag_89:\n        /* \"auction3.sol\":1126:1131  owner */\n      0x00\n      dup1\n      sload\n      swap1\n      0x0100\n      exp\n      swap1\n      div\n      0xffffffffffffffffffffffffffffffffffffffff\n      and\n        /* \"auction3.sol\":1112:1131  msg.sender == owner */\n      0xffffffffffffffffffffffffffffffffffffffff\n      and\n        /* \"auction3.sol\":1112:1122  msg.sender */\n      caller\n        /* \"auction3.sol\":1112:1131  msg.sender == owner */\n      0xffffffffffffffffffffffffffffffffffffffff\n      and\n      eq\n        /* \"auction3.sol\":1104:1184  require(msg.sender == owner, \"Solo el propietario puede ejecutar esta funcion.\") */\n      tag_157\n      jumpi\n      mload(0x40)\n      0x08c379a000000000000000000000000000000000000000000000000000000000\n      dup2\n      mstore\n      0x04\n      add\n      tag_158\n      swap1\n      tag_159\n      jump\t// in\n    tag_158:\n      mload(0x40)\n      dup1\n      swap2\n      sub\n      swap1\n      revert\n    tag_157:\n        /* \"auction3.sol\":1001:1015  auctionEndTime */\n      sload(0x02)\n        /* \"auction3.sol\":982:997  block.timestamp */\n      timestamp\n        /* \"auction3.sol\":982:1015  block.timestamp >= auctionEndTime */\n      lt\n      iszero\n        /* \"auction3.sol\":974:1044  require(block.timestamp >= auctionEndTime, \"La subasta sigue activa.\") */\n      tag_161\n      jumpi\n      mload(0x40)\n      0x08c379a000000000000000000000000000000000000000000000000000000000\n      dup2\n      mstore\n      0x04\n      add\n      tag_162\n      swap1\n      tag_117\n      jump\t// in\n    tag_162:\n      mload(0x40)\n      dup1\n      swap2\n      sub\n      swap1\n      revert\n    tag_161:\n        /* \"auction3.sol\":2635:2640  ended */\n      0x04\n      0x14\n      swap1\n      sload\n      swap1\n      0x0100\n      exp\n      swap1\n      div\n      0xff\n      and\n        /* \"auction3.sol\":2634:2640  !ended */\n      iszero\n        /* \"auction3.sol\":2626:2678  require(!ended, \"La subasta ya ha sido finalizada.\") */\n      tag_164\n      jumpi\n      mload(0x40)\n      0x08c379a000000000000000000000000000000000000000000000000000000000\n      dup2\n      mstore\n      0x04\n      add\n      tag_165\n      swap1\n      tag_166\n      jump\t// in\n    tag_165:\n      mload(0x40)\n      dup1\n      swap2\n      sub\n      swap1\n      revert\n    tag_164:\n        /* \"auction3.sol\":2697:2701  true */\n      0x01\n        /* \"auction3.sol\":2689:2694  ended */\n      0x04\n      0x14\n        /* \"auction3.sol\":2689:2701  ended = true */\n      0x0100\n      exp\n      dup2\n      sload\n      dup2\n      0xff\n      mul\n      not\n      and\n      swap1\n      dup4\n      iszero\n      iszero\n      mul\n      or\n      swap1\n      sstore\n      pop\n        /* \"auction3.sol\":2717:2756  AuctionEnded(highestBidder, highestBid) */\n      0xdaec4582d5d9595688c8c98545fdd1c696d41c6aeaeb636737e84ed2f5c00eda\n        /* \"auction3.sol\":2730:2743  highestBidder */\n      0x04\n      0x00\n      swap1\n      sload\n      swap1\n      0x0100\n      exp\n      swap1\n      div\n      0xffffffffffffffffffffffffffffffffffffffff\n      and\n        /* \"auction3.sol\":2745:2755  highestBid */\n      sload(0x03)\n        /* \"auction3.sol\":2717:2756  AuctionEnded(highestBidder, highestBid) */\n      mload(0x40)\n      tag_167\n      swap3\n      swap2\n      swap1\n      tag_47\n      jump\t// in\n    tag_167:\n      mload(0x40)\n      dup1\n      swap2\n      sub\n      swap1\n      log1\n        /* \"auction3.sol\":2561:2764  function endAuction() external onlyOwner onlyAfterEnd {... */\n      jump\t// out\n        /* \"#utility.yul\":7:97   */\n    tag_168:\n        /* \"#utility.yul\":41:48   */\n      0x00\n        /* \"#utility.yul\":84:89   */\n      dup2\n        /* \"#utility.yul\":77:90   */\n      iszero\n        /* \"#utility.yul\":70:91   */\n      iszero\n        /* \"#utility.yul\":59:91   */\n      swap1\n      pop\n        /* \"#utility.yul\":7:97   */\n      swap2\n      swap1\n      pop\n      jump\t// out\n        /* \"#utility.yul\":103:212   */\n    tag_169:\n        /* \"#utility.yul\":184:205   */\n      tag_218\n        /* \"#utility.yul\":199:204   */\n      dup2\n        /* \"#utility.yul\":184:205   */\n      tag_168\n      jump\t// in\n    tag_218:\n        /* \"#utility.yul\":179:182   */\n      dup3\n        /* \"#utility.yul\":172:206   */\n      mstore\n        /* \"#utility.yul\":103:212   */\n      pop\n      pop\n      jump\t// out\n        /* \"#utility.yul\":218:428   */\n    tag_25:\n        /* \"#utility.yul\":305:309   */\n      0x00\n        /* \"#utility.yul\":343:345   */\n      0x20\n        /* \"#utility.yul\":332:341   */\n      dup3\n        /* \"#utility.yul\":328:346   */\n      add\n        /* \"#utility.yul\":320:346   */\n      swap1\n      pop\n        /* \"#utility.yul\":356:421   */\n      tag_220\n        /* \"#utility.yul\":418:419   */\n      0x00\n        /* \"#utility.yul\":407:416   */\n      dup4\n        /* \"#utility.yul\":403:420   */\n      add\n        /* \"#utility.yul\":394:400   */\n      dup5\n        /* \"#utility.yul\":356:421   */\n      tag_169\n      jump\t// in\n    tag_220:\n        /* \"#utility.yul\":218:428   */\n      swap3\n      swap2\n      pop\n      pop\n      jump\t// out\n        /* \"#utility.yul\":434:567   */\n    tag_170:\n        /* \"#utility.yul\":520:526   */\n      0x00\n        /* \"#utility.yul\":554:559   */\n      dup2\n        /* \"#utility.yul\":548:560   */\n      mload\n        /* \"#utility.yul\":538:560   */\n      swap1\n      pop\n        /* \"#utility.yul\":434:567   */\n      swap2\n      swap1\n      pop\n      jump\t// out\n        /* \"#utility.yul\":573:776   */\n    tag_171:\n        /* \"#utility.yul\":691:702   */\n      0x00\n        /* \"#utility.yul\":725:731   */\n      dup3\n        /* \"#utility.yul\":720:723   */\n      dup3\n        /* \"#utility.yul\":713:732   */\n      mstore\n        /* \"#utility.yul\":765:769   */\n      0x20\n        /* \"#utility.yul\":760:763   */\n      dup3\n        /* \"#utility.yul\":756:770   */\n      add\n        /* \"#utility.yul\":741:770   */\n      swap1\n      pop\n        /* \"#utility.yul\":573:776   */\n      swap3\n      swap2\n      pop\n      pop\n      jump\t// out\n        /* \"#utility.yul\":782:933   */\n    tag_172:\n        /* \"#utility.yul\":868:872   */\n      0x00\n        /* \"#utility.yul\":891:894   */\n      dup2\n        /* \"#utility.yul\":883:894   */\n      swap1\n      pop\n        /* \"#utility.yul\":921:925   */\n      0x20\n        /* \"#utility.yul\":916:919   */\n      dup3\n        /* \"#utility.yul\":912:926   */\n      add\n        /* \"#utility.yul\":904:926   */\n      swap1\n      pop\n        /* \"#utility.yul\":782:933   */\n      swap2\n      swap1\n      pop\n      jump\t// out\n        /* \"#utility.yul\":939:1065   */\n    tag_173:\n        /* \"#utility.yul\":976:983   */\n      0x00\n        /* \"#utility.yul\":1016:1058   */\n      0xffffffffffffffffffffffffffffffffffffffff\n        /* \"#utility.yul\":1009:1014   */\n      dup3\n        /* \"#utility.yul\":1005:1059   */\n      and\n        /* \"#utility.yul\":994:1059   */\n      swap1\n      pop\n        /* \"#utility.yul\":939:1065   */\n      swap2\n      swap1\n      pop\n      jump\t// out\n        /* \"#utility.yul\":1071:1167   */\n    tag_174:\n        /* \"#utility.yul\":1108:1115   */\n      0x00\n        /* \"#utility.yul\":1137:1161   */\n      tag_226\n        /* \"#utility.yul\":1155:1160   */\n      dup3\n        /* \"#utility.yul\":1137:1161   */\n      tag_173\n      jump\t// in\n    tag_226:\n        /* \"#utility.yul\":1126:1161   */\n      swap1\n      pop\n        /* \"#utility.yul\":1071:1167   */\n      swap2\n      swap1\n      pop\n      jump\t// out\n        /* \"#utility.yul\":1173:1281   */\n    tag_175:\n        /* \"#utility.yul\":1250:1274   */\n      tag_228\n        /* \"#utility.yul\":1268:1273   */\n      dup2\n        /* \"#utility.yul\":1250:1274   */\n      tag_174\n      jump\t// in\n    tag_228:\n        /* \"#utility.yul\":1245:1248   */\n      dup3\n        /* \"#utility.yul\":1238:1275   */\n      mstore\n        /* \"#utility.yul\":1173:1281   */\n      pop\n      pop\n      jump\t// out\n        /* \"#utility.yul\":1287:1364   */\n    tag_176:\n        /* \"#utility.yul\":1324:1331   */\n      0x00\n        /* \"#utility.yul\":1353:1358   */\n      dup2\n        /* \"#utility.yul\":1342:1358   */\n      swap1\n      pop\n        /* \"#utility.yul\":1287:1364   */\n      swap2\n      swap1\n      pop\n      jump\t// out\n        /* \"#utility.yul\":1370:1478   */\n    tag_177:\n        /* \"#utility.yul\":1447:1471   */\n      tag_231\n        /* \"#utility.yul\":1465:1470   */\n      dup2\n        /* \"#utility.yul\":1447:1471   */\n      tag_176\n      jump\t// in\n    tag_231:\n        /* \"#utility.yul\":1442:1445   */\n      dup3\n        /* \"#utility.yul\":1435:1472   */\n      mstore\n        /* \"#utility.yul\":1370:1478   */\n      pop\n      pop\n      jump\t// out\n        /* \"#utility.yul\":1532:2021   */\n    tag_178:\n        /* \"#utility.yul\":1657:1661   */\n      0x40\n        /* \"#utility.yul\":1652:1655   */\n      dup3\n        /* \"#utility.yul\":1648:1662   */\n      add\n        /* \"#utility.yul\":1746:1750   */\n      0x00\n        /* \"#utility.yul\":1739:1744   */\n      dup3\n        /* \"#utility.yul\":1735:1751   */\n      add\n        /* \"#utility.yul\":1729:1752   */\n      mload\n        /* \"#utility.yul\":1765:1828   */\n      tag_233\n        /* \"#utility.yul\":1822:1826   */\n      0x00\n        /* \"#utility.yul\":1817:1820   */\n      dup6\n        /* \"#utility.yul\":1813:1827   */\n      add\n        /* \"#utility.yul\":1799:1811   */\n      dup3\n        /* \"#utility.yul\":1765:1828   */\n      tag_175\n      jump\t// in\n    tag_233:\n        /* \"#utility.yul\":1672:1838   */\n      pop\n        /* \"#utility.yul\":1922:1926   */\n      0x20\n        /* \"#utility.yul\":1915:1920   */\n      dup3\n        /* \"#utility.yul\":1911:1927   */\n      add\n        /* \"#utility.yul\":1905:1928   */\n      mload\n        /* \"#utility.yul\":1941:2004   */\n      tag_234\n        /* \"#utility.yul\":1998:2002   */\n      0x20\n        /* \"#utility.yul\":1993:1996   */\n      dup6\n        /* \"#utility.yul\":1989:2003   */\n      add\n        /* \"#utility.yul\":1975:1987   */\n      dup3\n        /* \"#utility.yul\":1941:2004   */\n      tag_177\n      jump\t// in\n    tag_234:\n        /* \"#utility.yul\":1848:2014   */\n      pop\n        /* \"#utility.yul\":1626:2021   */\n      pop\n        /* \"#utility.yul\":1532:2021   */\n      pop\n      pop\n      jump\t// out\n        /* \"#utility.yul\":2027:2282   */\n    tag_179:\n        /* \"#utility.yul\":2134:2144   */\n      0x00\n        /* \"#utility.yul\":2155:2239   */\n      tag_236\n        /* \"#utility.yul\":2235:2238   */\n      dup4\n        /* \"#utility.yul\":2227:2233   */\n      dup4\n        /* \"#utility.yul\":2155:2239   */\n      tag_178\n      jump\t// in\n    tag_236:\n        /* \"#utility.yul\":2271:2275   */\n      0x40\n        /* \"#utility.yul\":2266:2269   */\n      dup4\n        /* \"#utility.yul\":2262:2276   */\n      add\n        /* \"#utility.yul\":2248:2276   */\n      swap1\n      pop\n        /* \"#utility.yul\":2027:2282   */\n      swap3\n      swap2\n      pop\n      pop\n      jump\t// out\n        /* \"#utility.yul\":2288:2420   */\n    tag_180:\n        /* \"#utility.yul\":2377:2381   */\n      0x00\n        /* \"#utility.yul\":2409:2413   */\n      0x20\n        /* \"#utility.yul\":2404:2407   */\n      dup3\n        /* \"#utility.yul\":2400:2414   */\n      add\n        /* \"#utility.yul\":2392:2414   */\n      swap1\n      pop\n        /* \"#utility.yul\":2288:2420   */\n      swap2\n      swap1\n      pop\n      jump\t// out\n        /* \"#utility.yul\":2478:3362   */\n    tag_181:\n        /* \"#utility.yul\":2635:2638   */\n      0x00\n        /* \"#utility.yul\":2664:2737   */\n      tag_239\n        /* \"#utility.yul\":2731:2736   */\n      dup3\n        /* \"#utility.yul\":2664:2737   */\n      tag_170\n      jump\t// in\n    tag_239:\n        /* \"#utility.yul\":2753:2858   */\n      tag_240\n        /* \"#utility.yul\":2851:2857   */\n      dup2\n        /* \"#utility.yul\":2846:2849   */\n      dup6\n        /* \"#utility.yul\":2753:2858   */\n      tag_171\n      jump\t// in\n    tag_240:\n        /* \"#utility.yul\":2746:2858   */\n      swap4\n      pop\n        /* \"#utility.yul\":2882:2957   */\n      tag_241\n        /* \"#utility.yul\":2951:2956   */\n      dup4\n        /* \"#utility.yul\":2882:2957   */\n      tag_172\n      jump\t// in\n    tag_241:\n        /* \"#utility.yul\":2980:2987   */\n      dup1\n        /* \"#utility.yul\":3011:3012   */\n      0x00\n        /* \"#utility.yul\":2996:3337   */\n    tag_242:\n        /* \"#utility.yul\":3021:3027   */\n      dup4\n        /* \"#utility.yul\":3018:3019   */\n      dup2\n        /* \"#utility.yul\":3015:3028   */\n      lt\n        /* \"#utility.yul\":2996:3337   */\n      iszero\n      tag_244\n      jumpi\n        /* \"#utility.yul\":3097:3103   */\n      dup2\n        /* \"#utility.yul\":3091:3104   */\n      mload\n        /* \"#utility.yul\":3124:3225   */\n      tag_245\n        /* \"#utility.yul\":3221:3224   */\n      dup9\n        /* \"#utility.yul\":3206:3219   */\n      dup3\n        /* \"#utility.yul\":3124:3225   */\n      tag_179\n      jump\t// in\n    tag_245:\n        /* \"#utility.yul\":3117:3225   */\n      swap8\n      pop\n        /* \"#utility.yul\":3248:3327   */\n      tag_246\n        /* \"#utility.yul\":3320:3326   */\n      dup4\n        /* \"#utility.yul\":3248:3327   */\n      tag_180\n      jump\t// in\n    tag_246:\n        /* \"#utility.yul\":3238:3327   */\n      swap3\n      pop\n        /* \"#utility.yul\":3056:3337   */\n      pop\n        /* \"#utility.yul\":3043:3044   */\n      0x01\n        /* \"#utility.yul\":3040:3041   */\n      dup2\n        /* \"#utility.yul\":3036:3045   */\n      add\n        /* \"#utility.yul\":3031:3045   */\n      swap1\n      pop\n        /* \"#utility.yul\":2996:3337   */\n      jump(tag_242)\n    tag_244:\n        /* \"#utility.yul\":3000:3014   */\n      pop\n        /* \"#utility.yul\":3353:3356   */\n      dup6\n        /* \"#utility.yul\":3346:3356   */\n      swap4\n      pop\n        /* \"#utility.yul\":2640:3362   */\n      pop\n      pop\n      pop\n        /* \"#utility.yul\":2478:3362   */\n      swap3\n      swap2\n      pop\n      pop\n      jump\t// out\n        /* \"#utility.yul\":3368:3817   */\n    tag_30:\n        /* \"#utility.yul\":3549:3553   */\n      0x00\n        /* \"#utility.yul\":3587:3589   */\n      0x20\n        /* \"#utility.yul\":3576:3585   */\n      dup3\n        /* \"#utility.yul\":3572:3590   */\n      add\n        /* \"#utility.yul\":3564:3590   */\n      swap1\n      pop\n        /* \"#utility.yul\":3636:3645   */\n      dup2\n        /* \"#utility.yul\":3630:3634   */\n      dup2\n        /* \"#utility.yul\":3626:3646   */\n      sub\n        /* \"#utility.yul\":3622:3623   */\n      0x00\n        /* \"#utility.yul\":3611:3620   */\n      dup4\n        /* \"#utility.yul\":3607:3624   */\n      add\n        /* \"#utility.yul\":3600:3647   */\n      mstore\n        /* \"#utility.yul\":3664:3810   */\n      tag_248\n        /* \"#utility.yul\":3805:3809   */\n      dup2\n        /* \"#utility.yul\":3796:3802   */\n      dup5\n        /* \"#utility.yul\":3664:3810   */\n      tag_181\n      jump\t// in\n    tag_248:\n        /* \"#utility.yul\":3656:3810   */\n      swap1\n      pop\n        /* \"#utility.yul\":3368:3817   */\n      swap3\n      swap2\n      pop\n      pop\n      jump\t// out\n        /* \"#utility.yul\":3823:3941   */\n    tag_182:\n        /* \"#utility.yul\":3910:3934   */\n      tag_250\n        /* \"#utility.yul\":3928:3933   */\n      dup2\n        /* \"#utility.yul\":3910:3934   */\n      tag_176\n      jump\t// in\n    tag_250:\n        /* \"#utility.yul\":3905:3908   */\n      dup3\n        /* \"#utility.yul\":3898:3935   */\n      mstore\n        /* \"#utility.yul\":3823:3941   */\n      pop\n      pop\n      jump\t// out\n        /* \"#utility.yul\":3947:4169   */\n    tag_37:\n        /* \"#utility.yul\":4040:4044   */\n      0x00\n        /* \"#utility.yul\":4078:4080   */\n      0x20\n        /* \"#utility.yul\":4067:4076   */\n      dup3\n        /* \"#utility.yul\":4063:4081   */\n      add\n        /* \"#utility.yul\":4055:4081   */\n      swap1\n      pop\n        /* \"#utility.yul\":4091:4162   */\n      tag_252\n        /* \"#utility.yul\":4159:4160   */\n      0x00\n        /* \"#utility.yul\":4148:4157   */\n      dup4\n        /* \"#utility.yul\":4144:4161   */\n      add\n        /* \"#utility.yul\":4135:4141   */\n      dup5\n        /* \"#utility.yul\":4091:4162   */\n      tag_182\n      jump\t// in\n    tag_252:\n        /* \"#utility.yul\":3947:4169   */\n      swap3\n      swap2\n      pop\n      pop\n      jump\t// out\n        /* \"#utility.yul\":4256:4373   */\n    tag_184:\n        /* \"#utility.yul\":4365:4366   */\n      0x00\n        /* \"#utility.yul\":4362:4363   */\n      dup1\n        /* \"#utility.yul\":4355:4367   */\n      revert\n        /* \"#utility.yul\":4502:4624   */\n    tag_186:\n        /* \"#utility.yul\":4575:4599   */\n      tag_257\n        /* \"#utility.yul\":4593:4598   */\n      dup2\n        /* \"#utility.yul\":4575:4599   */\n      tag_176\n      jump\t// in\n    tag_257:\n        /* \"#utility.yul\":4568:4573   */\n      dup2\n        /* \"#utility.yul\":4565:4600   */\n      eq\n        /* \"#utility.yul\":4555:4618   */\n      tag_258\n      jumpi\n        /* \"#utility.yul\":4614:4615   */\n      0x00\n        /* \"#utility.yul\":4611:4612   */\n      dup1\n        /* \"#utility.yul\":4604:4616   */\n      revert\n        /* \"#utility.yul\":4555:4618   */\n    tag_258:\n        /* \"#utility.yul\":4502:4624   */\n      pop\n      jump\t// out\n        /* \"#utility.yul\":4630:4769   */\n    tag_187:\n        /* \"#utility.yul\":4676:4681   */\n      0x00\n        /* \"#utility.yul\":4714:4720   */\n      dup2\n        /* \"#utility.yul\":4701:4721   */\n      calldataload\n        /* \"#utility.yul\":4692:4721   */\n      swap1\n      pop\n        /* \"#utility.yul\":4730:4763   */\n      tag_260\n        /* \"#utility.yul\":4757:4762   */\n      dup2\n        /* \"#utility.yul\":4730:4763   */\n      tag_186\n      jump\t// in\n    tag_260:\n        /* \"#utility.yul\":4630:4769   */\n      swap3\n      swap2\n      pop\n      pop\n      jump\t// out\n        /* \"#utility.yul\":4775:5104   */\n    tag_44:\n        /* \"#utility.yul\":4834:4840   */\n      0x00\n        /* \"#utility.yul\":4883:4885   */\n      0x20\n        /* \"#utility.yul\":4871:4880   */\n      dup3\n        /* \"#utility.yul\":4862:4869   */\n      dup5\n        /* \"#utility.yul\":4858:4881   */\n      sub\n        /* \"#utility.yul\":4854:4886   */\n      slt\n        /* \"#utility.yul\":4851:4970   */\n      iszero\n      tag_262\n      jumpi\n        /* \"#utility.yul\":4889:4968   */\n      tag_263\n      tag_184\n      jump\t// in\n    tag_263:\n        /* \"#utility.yul\":4851:4970   */\n    tag_262:\n        /* \"#utility.yul\":5009:5010   */\n      0x00\n        /* \"#utility.yul\":5034:5087   */\n      tag_264\n        /* \"#utility.yul\":5079:5086   */\n      dup5\n        /* \"#utility.yul\":5070:5076   */\n      dup3\n        /* \"#utility.yul\":5059:5068   */\n      dup6\n        /* \"#utility.yul\":5055:5077   */\n      add\n        /* \"#utility.yul\":5034:5087   */\n      tag_187\n      jump\t// in\n    tag_264:\n        /* \"#utility.yul\":5024:5087   */\n      swap2\n      pop\n        /* \"#utility.yul\":4980:5097   */\n      pop\n        /* \"#utility.yul\":4775:5104   */\n      swap3\n      swap2\n      pop\n      pop\n      jump\t// out\n        /* \"#utility.yul\":5110:5228   */\n    tag_188:\n        /* \"#utility.yul\":5197:5221   */\n      tag_266\n        /* \"#utility.yul\":5215:5220   */\n      dup2\n        /* \"#utility.yul\":5197:5221   */\n      tag_174\n      jump\t// in\n    tag_266:\n        /* \"#utility.yul\":5192:5195   */\n      dup3\n        /* \"#utility.yul\":5185:5222   */\n      mstore\n        /* \"#utility.yul\":5110:5228   */\n      pop\n      pop\n      jump\t// out\n        /* \"#utility.yul\":5234:5566   */\n    tag_47:\n        /* \"#utility.yul\":5355:5359   */\n      0x00\n        /* \"#utility.yul\":5393:5395   */\n      0x40\n        /* \"#utility.yul\":5382:5391   */\n      dup3\n        /* \"#utility.yul\":5378:5396   */\n      add\n        /* \"#utility.yul\":5370:5396   */\n      swap1\n      pop\n        /* \"#utility.yul\":5406:5477   */\n      tag_268\n        /* \"#utility.yul\":5474:5475   */\n      0x00\n        /* \"#utility.yul\":5463:5472   */\n      dup4\n        /* \"#utility.yul\":5459:5476   */\n      add\n        /* \"#utility.yul\":5450:5456   */\n      dup6\n        /* \"#utility.yul\":5406:5477   */\n      tag_188\n      jump\t// in\n    tag_268:\n        /* \"#utility.yul\":5487:5559   */\n      tag_269\n        /* \"#utility.yul\":5555:5557   */\n      0x20\n        /* \"#utility.yul\":5544:5553   */\n      dup4\n        /* \"#utility.yul\":5540:5558   */\n      add\n        /* \"#utility.yul\":5531:5537   */\n      dup5\n        /* \"#utility.yul\":5487:5559   */\n      tag_182\n      jump\t// in\n    tag_269:\n        /* \"#utility.yul\":5234:5566   */\n      swap4\n      swap3\n      pop\n      pop\n      pop\n      jump\t// out\n        /* \"#utility.yul\":5572:5794   */\n    tag_60:\n        /* \"#utility.yul\":5665:5669   */\n      0x00\n        /* \"#utility.yul\":5703:5705   */\n      0x20\n        /* \"#utility.yul\":5692:5701   */\n      dup3\n        /* \"#utility.yul\":5688:5706   */\n      add\n        /* \"#utility.yul\":5680:5706   */\n      swap1\n      pop\n        /* \"#utility.yul\":5716:5787   */\n      tag_271\n        /* \"#utility.yul\":5784:5785   */\n      0x00\n        /* \"#utility.yul\":5773:5782   */\n      dup4\n        /* \"#utility.yul\":5769:5786   */\n      add\n        /* \"#utility.yul\":5760:5766   */\n      dup5\n        /* \"#utility.yul\":5716:5787   */\n      tag_188\n      jump\t// in\n    tag_271:\n        /* \"#utility.yul\":5572:5794   */\n      swap3\n      swap2\n      pop\n      pop\n      jump\t// out\n        /* \"#utility.yul\":5800:5922   */\n    tag_189:\n        /* \"#utility.yul\":5873:5897   */\n      tag_273\n        /* \"#utility.yul\":5891:5896   */\n      dup2\n        /* \"#utility.yul\":5873:5897   */\n      tag_174\n      jump\t// in\n    tag_273:\n        /* \"#utility.yul\":5866:5871   */\n      dup2\n        /* \"#utility.yul\":5863:5898   */\n      eq\n        /* \"#utility.yul\":5853:5916   */\n      tag_274\n      jumpi\n        /* \"#utility.yul\":5912:5913   */\n      0x00\n        /* \"#utility.yul\":5909:5910   */\n      dup1\n        /* \"#utility.yul\":5902:5914   */\n      revert\n        /* \"#utility.yul\":5853:5916   */\n    tag_274:\n        /* \"#utility.yul\":5800:5922   */\n      pop\n      jump\t// out\n        /* \"#utility.yul\":5928:6067   */\n    tag_190:\n        /* \"#utility.yul\":5974:5979   */\n      0x00\n        /* \"#utility.yul\":6012:6018   */\n      dup2\n        /* \"#utility.yul\":5999:6019   */\n      calldataload\n        /* \"#utility.yul\":5990:6019   */\n      swap1\n      pop\n        /* \"#utility.yul\":6028:6061   */\n      tag_276\n        /* \"#utility.yul\":6055:6060   */\n      dup2\n        /* \"#utility.yul\":6028:6061   */\n      tag_189\n      jump\t// in\n    tag_276:\n        /* \"#utility.yul\":5928:6067   */\n      swap3\n      swap2\n      pop\n      pop\n      jump\t// out\n        /* \"#utility.yul\":6073:6402   */\n    tag_84:\n        /* \"#utility.yul\":6132:6138   */\n      0x00\n        /* \"#utility.yul\":6181:6183   */\n      0x20\n        /* \"#utility.yul\":6169:6178   */\n      dup3\n        /* \"#utility.yul\":6160:6167   */\n      dup5\n        /* \"#utility.yul\":6156:6179   */\n      sub\n        /* \"#utility.yul\":6152:6184   */\n      slt\n        /* \"#utility.yul\":6149:6268   */\n      iszero\n      tag_278\n      jumpi\n        /* \"#utility.yul\":6187:6266   */\n      tag_279\n      tag_184\n      jump\t// in\n    tag_279:\n        /* \"#utility.yul\":6149:6268   */\n    tag_278:\n        /* \"#utility.yul\":6307:6308   */\n      0x00\n        /* \"#utility.yul\":6332:6385   */\n      tag_280\n        /* \"#utility.yul\":6377:6384   */\n      dup5\n        /* \"#utility.yul\":6368:6374   */\n      dup3\n        /* \"#utility.yul\":6357:6366   */\n      dup6\n        /* \"#utility.yul\":6353:6375   */\n      add\n        /* \"#utility.yul\":6332:6385   */\n      tag_190\n      jump\t// in\n    tag_280:\n        /* \"#utility.yul\":6322:6385   */\n      swap2\n      pop\n        /* \"#utility.yul\":6278:6395   */\n      pop\n        /* \"#utility.yul\":6073:6402   */\n      swap3\n      swap2\n      pop\n      pop\n      jump\t// out\n        /* \"#utility.yul\":6408:6577   */\n    tag_191:\n        /* \"#utility.yul\":6492:6503   */\n      0x00\n        /* \"#utility.yul\":6526:6532   */\n      dup3\n        /* \"#utility.yul\":6521:6524   */\n      dup3\n        /* \"#utility.yul\":6514:6533   */\n      mstore\n        /* \"#utility.yul\":6566:6570   */\n      0x20\n        /* \"#utility.yul\":6561:6564   */\n      dup3\n        /* \"#utility.yul\":6557:6571   */\n      add\n        /* \"#utility.yul\":6542:6571   */\n      swap1\n      pop\n        /* \"#utility.yul\":6408:6577   */\n      swap3\n      swap2\n      pop\n      pop\n      jump\t// out\n        /* \"#utility.yul\":6583:6758   */\n    tag_192:\n        /* \"#utility.yul\":6723:6750   */\n      0x4c6120737562617374612068612066696e616c697a61646f2e00000000000000\n        /* \"#utility.yul\":6719:6720   */\n      0x00\n        /* \"#utility.yul\":6711:6717   */\n      dup3\n        /* \"#utility.yul\":6707:6721   */\n      add\n        /* \"#utility.yul\":6700:6751   */\n      mstore\n        /* \"#utility.yul\":6583:6758   */\n      pop\n      jump\t// out\n        /* \"#utility.yul\":6764:7130   */\n    tag_193:\n        /* \"#utility.yul\":6906:6909   */\n      0x00\n        /* \"#utility.yul\":6927:6994   */\n      tag_284\n        /* \"#utility.yul\":6991:6993   */\n      0x19\n        /* \"#utility.yul\":6986:6989   */\n      dup4\n        /* \"#utility.yul\":6927:6994   */\n      tag_191\n      jump\t// in\n    tag_284:\n        /* \"#utility.yul\":6920:6994   */\n      swap2\n      pop\n        /* \"#utility.yul\":7003:7096   */\n      tag_285\n        /* \"#utility.yul\":7092:7095   */\n      dup3\n        /* \"#utility.yul\":7003:7096   */\n      tag_192\n      jump\t// in\n    tag_285:\n        /* \"#utility.yul\":7121:7123   */\n      0x20\n        /* \"#utility.yul\":7116:7119   */\n      dup3\n        /* \"#utility.yul\":7112:7124   */\n      add\n        /* \"#utility.yul\":7105:7124   */\n      swap1\n      pop\n        /* \"#utility.yul\":6764:7130   */\n      swap2\n      swap1\n      pop\n      jump\t// out\n        /* \"#utility.yul\":7136:7555   */\n    tag_97:\n        /* \"#utility.yul\":7302:7306   */\n      0x00\n        /* \"#utility.yul\":7340:7342   */\n      0x20\n        /* \"#utility.yul\":7329:7338   */\n      dup3\n        /* \"#utility.yul\":7325:7343   */\n      add\n        /* \"#utility.yul\":7317:7343   */\n      swap1\n      pop\n        /* \"#utility.yul\":7389:7398   */\n      dup2\n        /* \"#utility.yul\":7383:7387   */\n      dup2\n        /* \"#utility.yul\":7379:7399   */\n      sub\n        /* \"#utility.yul\":7375:7376   */\n      0x00\n        /* \"#utility.yul\":7364:7373   */\n      dup4\n        /* \"#utility.yul\":7360:7377   */\n      add\n        /* \"#utility.yul\":7353:7400   */\n      mstore\n        /* \"#utility.yul\":7417:7548   */\n      tag_287\n        /* \"#utility.yul\":7543:7547   */\n      dup2\n        /* \"#utility.yul\":7417:7548   */\n      tag_193\n      jump\t// in\n    tag_287:\n        /* \"#utility.yul\":7409:7548   */\n      swap1\n      pop\n        /* \"#utility.yul\":7136:7555   */\n      swap2\n      swap1\n      pop\n      jump\t// out\n        /* \"#utility.yul\":7561:7741   */\n    tag_194:\n        /* \"#utility.yul\":7609:7686   */\n      0x4e487b7100000000000000000000000000000000000000000000000000000000\n        /* \"#utility.yul\":7606:7607   */\n      0x00\n        /* \"#utility.yul\":7599:7687   */\n      mstore\n        /* \"#utility.yul\":7706:7710   */\n      0x11\n        /* \"#utility.yul\":7703:7704   */\n      0x04\n        /* \"#utility.yul\":7696:7711   */\n      mstore\n        /* \"#utility.yul\":7730:7734   */\n      0x24\n        /* \"#utility.yul\":7727:7728   */\n      0x00\n        /* \"#utility.yul\":7720:7735   */\n      revert\n        /* \"#utility.yul\":7747:7938   */\n    tag_100:\n        /* \"#utility.yul\":7787:7790   */\n      0x00\n        /* \"#utility.yul\":7806:7826   */\n      tag_290\n        /* \"#utility.yul\":7824:7825   */\n      dup3\n        /* \"#utility.yul\":7806:7826   */\n      tag_176\n      jump\t// in\n    tag_290:\n        /* \"#utility.yul\":7801:7826   */\n      swap2\n      pop\n        /* \"#utility.yul\":7840:7860   */\n      tag_291\n        /* \"#utility.yul\":7858:7859   */\n      dup4\n        /* \"#utility.yul\":7840:7860   */\n      tag_176\n      jump\t// in\n    tag_291:\n        /* \"#utility.yul\":7835:7860   */\n      swap3\n      pop\n        /* \"#utility.yul\":7883:7884   */\n      dup3\n        /* \"#utility.yul\":7880:7881   */\n      dup3\n        /* \"#utility.yul\":7876:7885   */\n      add\n        /* \"#utility.yul\":7869:7885   */\n      swap1\n      pop\n        /* \"#utility.yul\":7904:7907   */\n      dup1\n        /* \"#utility.yul\":7901:7902   */\n      dup3\n        /* \"#utility.yul\":7898:7908   */\n      gt\n        /* \"#utility.yul\":7895:7931   */\n      iszero\n      tag_292\n      jumpi\n        /* \"#utility.yul\":7911:7929   */\n      tag_293\n      tag_194\n      jump\t// in\n    tag_293:\n        /* \"#utility.yul\":7895:7931   */\n    tag_292:\n        /* \"#utility.yul\":7747:7938   */\n      swap3\n      swap2\n      pop\n      pop\n      jump\t// out\n        /* \"#utility.yul\":7944:8354   */\n    tag_102:\n        /* \"#utility.yul\":7984:7991   */\n      0x00\n        /* \"#utility.yul\":8007:8027   */\n      tag_295\n        /* \"#utility.yul\":8025:8026   */\n      dup3\n        /* \"#utility.yul\":8007:8027   */\n      tag_176\n      jump\t// in\n    tag_295:\n        /* \"#utility.yul\":8002:8027   */\n      swap2\n      pop\n        /* \"#utility.yul\":8041:8061   */\n      tag_296\n        /* \"#utility.yul\":8059:8060   */\n      dup4\n        /* \"#utility.yul\":8041:8061   */\n      tag_176\n      jump\t// in\n    tag_296:\n        /* \"#utility.yul\":8036:8061   */\n      swap3\n      pop\n        /* \"#utility.yul\":8096:8097   */\n      dup3\n        /* \"#utility.yul\":8093:8094   */\n      dup3\n        /* \"#utility.yul\":8089:8098   */\n      mul\n        /* \"#utility.yul\":8118:8148   */\n      tag_297\n        /* \"#utility.yul\":8136:8147   */\n      dup2\n        /* \"#utility.yul\":8118:8148   */\n      tag_176\n      jump\t// in\n    tag_297:\n        /* \"#utility.yul\":8107:8148   */\n      swap2\n      pop\n        /* \"#utility.yul\":8297:8298   */\n      dup3\n        /* \"#utility.yul\":8288:8295   */\n      dup3\n        /* \"#utility.yul\":8284:8299   */\n      div\n        /* \"#utility.yul\":8281:8282   */\n      dup5\n        /* \"#utility.yul\":8278:8300   */\n      eq\n        /* \"#utility.yul\":8258:8259   */\n      dup4\n        /* \"#utility.yul\":8251:8260   */\n      iszero\n        /* \"#utility.yul\":8231:8314   */\n      or\n        /* \"#utility.yul\":8208:8347   */\n      tag_298\n      jumpi\n        /* \"#utility.yul\":8327:8345   */\n      tag_299\n      tag_194\n      jump\t// in\n    tag_299:\n        /* \"#utility.yul\":8208:8347   */\n    tag_298:\n        /* \"#utility.yul\":7992:8354   */\n      pop\n        /* \"#utility.yul\":7944:8354   */\n      swap3\n      swap2\n      pop\n      pop\n      jump\t// out\n        /* \"#utility.yul\":8360:8540   */\n    tag_195:\n        /* \"#utility.yul\":8408:8485   */\n      0x4e487b7100000000000000000000000000000000000000000000000000000000\n        /* \"#utility.yul\":8405:8406   */\n      0x00\n        /* \"#utility.yul\":8398:8486   */\n      mstore\n        /* \"#utility.yul\":8505:8509   */\n      0x12\n        /* \"#utility.yul\":8502:8503   */\n      0x04\n        /* \"#utility.yul\":8495:8510   */\n      mstore\n        /* \"#utility.yul\":8529:8533   */\n      0x24\n        /* \"#utility.yul\":8526:8527   */\n      0x00\n        /* \"#utility.yul\":8519:8534   */\n      revert\n        /* \"#utility.yul\":8546:8731   */\n    tag_104:\n        /* \"#utility.yul\":8586:8587   */\n      0x00\n        /* \"#utility.yul\":8603:8623   */\n      tag_302\n        /* \"#utility.yul\":8621:8622   */\n      dup3\n        /* \"#utility.yul\":8603:8623   */\n      tag_176\n      jump\t// in\n    tag_302:\n        /* \"#utility.yul\":8598:8623   */\n      swap2\n      pop\n        /* \"#utility.yul\":8637:8657   */\n      tag_303\n        /* \"#utility.yul\":8655:8656   */\n      dup4\n        /* \"#utility.yul\":8637:8657   */\n      tag_176\n      jump\t// in\n    tag_303:\n        /* \"#utility.yul\":8632:8657   */\n      swap3\n      pop\n        /* \"#utility.yul\":8676:8677   */\n      dup3\n        /* \"#utility.yul\":8666:8701   */\n      tag_304\n      jumpi\n        /* \"#utility.yul\":8681:8699   */\n      tag_305\n      tag_195\n      jump\t// in\n    tag_305:\n        /* \"#utility.yul\":8666:8701   */\n    tag_304:\n        /* \"#utility.yul\":8723:8724   */\n      dup3\n        /* \"#utility.yul\":8720:8721   */\n      dup3\n        /* \"#utility.yul\":8716:8725   */\n      div\n        /* \"#utility.yul\":8711:8725   */\n      swap1\n      pop\n        /* \"#utility.yul\":8546:8731   */\n      swap3\n      swap2\n      pop\n      pop\n      jump\t// out\n        /* \"#utility.yul\":8737:8980   */\n    tag_196:\n        /* \"#utility.yul\":8877:8911   */\n      0x4c61206f666572746120646562652073657220616c206d656e6f73203525206d\n        /* \"#utility.yul\":8873:8874   */\n      0x00\n        /* \"#utility.yul\":8865:8871   */\n      dup3\n        /* \"#utility.yul\":8861:8875   */\n      add\n        /* \"#utility.yul\":8854:8912   */\n      mstore\n        /* \"#utility.yul\":8946:8972   */\n      0x61796f722061206c61206f66657274612061637475616c2e0000000000000000\n        /* \"#utility.yul\":8941:8943   */\n      0x20\n        /* \"#utility.yul\":8933:8939   */\n      dup3\n        /* \"#utility.yul\":8929:8944   */\n      add\n        /* \"#utility.yul\":8922:8973   */\n      mstore\n        /* \"#utility.yul\":8737:8980   */\n      pop\n      jump\t// out\n        /* \"#utility.yul\":8986:9352   */\n    tag_197:\n        /* \"#utility.yul\":9128:9131   */\n      0x00\n        /* \"#utility.yul\":9149:9216   */\n      tag_308\n        /* \"#utility.yul\":9213:9215   */\n      0x38\n        /* \"#utility.yul\":9208:9211   */\n      dup4\n        /* \"#utility.yul\":9149:9216   */\n      tag_191\n      jump\t// in\n    tag_308:\n        /* \"#utility.yul\":9142:9216   */\n      swap2\n      pop\n        /* \"#utility.yul\":9225:9318   */\n      tag_309\n        /* \"#utility.yul\":9314:9317   */\n      dup3\n        /* \"#utility.yul\":9225:9318   */\n      tag_196\n      jump\t// in\n    tag_309:\n        /* \"#utility.yul\":9343:9345   */\n      0x40\n        /* \"#utility.yul\":9338:9341   */\n      dup3\n        /* \"#utility.yul\":9334:9346   */\n      add\n        /* \"#utility.yul\":9327:9346   */\n      swap1\n      pop\n        /* \"#utility.yul\":8986:9352   */\n      swap2\n      swap1\n      pop\n      jump\t// out\n        /* \"#utility.yul\":9358:9777   */\n    tag_107:\n        /* \"#utility.yul\":9524:9528   */\n      0x00\n        /* \"#utility.yul\":9562:9564   */\n      0x20\n        /* \"#utility.yul\":9551:9560   */\n      dup3\n        /* \"#utility.yul\":9547:9565   */\n      add\n        /* \"#utility.yul\":9539:9565   */\n      swap1\n      pop\n        /* \"#utility.yul\":9611:9620   */\n      dup2\n        /* \"#utility.yul\":9605:9609   */\n      dup2\n        /* \"#utility.yul\":9601:9621   */\n      sub\n        /* \"#utility.yul\":9597:9598   */\n      0x00\n        /* \"#utility.yul\":9586:9595   */\n      dup4\n        /* \"#utility.yul\":9582:9599   */\n      add\n        /* \"#utility.yul\":9575:9622   */\n      mstore\n        /* \"#utility.yul\":9639:9770   */\n      tag_311\n        /* \"#utility.yul\":9765:9769   */\n      dup2\n        /* \"#utility.yul\":9639:9770   */\n      tag_197\n      jump\t// in\n    tag_311:\n        /* \"#utility.yul\":9631:9770   */\n      swap1\n      pop\n        /* \"#utility.yul\":9358:9777   */\n      swap2\n      swap1\n      pop\n      jump\t// out\n        /* \"#utility.yul\":9783:9977   */\n    tag_110:\n        /* \"#utility.yul\":9823:9827   */\n      0x00\n        /* \"#utility.yul\":9843:9863   */\n      tag_313\n        /* \"#utility.yul\":9861:9862   */\n      dup3\n        /* \"#utility.yul\":9843:9863   */\n      tag_176\n      jump\t// in\n    tag_313:\n        /* \"#utility.yul\":9838:9863   */\n      swap2\n      pop\n        /* \"#utility.yul\":9877:9897   */\n      tag_314\n        /* \"#utility.yul\":9895:9896   */\n      dup4\n        /* \"#utility.yul\":9877:9897   */\n      tag_176\n      jump\t// in\n    tag_314:\n        /* \"#utility.yul\":9872:9897   */\n      swap3\n      pop\n        /* \"#utility.yul\":9921:9922   */\n      dup3\n        /* \"#utility.yul\":9918:9919   */\n      dup3\n        /* \"#utility.yul\":9914:9923   */\n      sub\n        /* \"#utility.yul\":9906:9923   */\n      swap1\n      pop\n        /* \"#utility.yul\":9945:9946   */\n      dup2\n        /* \"#utility.yul\":9939:9943   */\n      dup2\n        /* \"#utility.yul\":9936:9947   */\n      gt\n        /* \"#utility.yul\":9933:9970   */\n      iszero\n      tag_315\n      jumpi\n        /* \"#utility.yul\":9950:9968   */\n      tag_316\n      tag_194\n      jump\t// in\n    tag_316:\n        /* \"#utility.yul\":9933:9970   */\n    tag_315:\n        /* \"#utility.yul\":9783:9977   */\n      swap3\n      swap2\n      pop\n      pop\n      jump\t// out\n        /* \"#utility.yul\":9983:10157   */\n    tag_198:\n        /* \"#utility.yul\":10123:10149   */\n      0x4c612073756261737461207369677565206163746976612e0000000000000000\n        /* \"#utility.yul\":10119:10120   */\n      0x00\n        /* \"#utility.yul\":10111:10117   */\n      dup3\n        /* \"#utility.yul\":10107:10121   */\n      add\n        /* \"#utility.yul\":10100:10150   */\n      mstore\n        /* \"#utility.yul\":9983:10157   */\n      pop\n      jump\t// out\n        /* \"#utility.yul\":10163:10529   */\n    tag_199:\n        /* \"#utility.yul\":10305:10308   */\n      0x00\n        /* \"#utility.yul\":10326:10393   */\n      tag_319\n        /* \"#utility.yul\":10390:10392   */\n      0x18\n        /* \"#utility.yul\":10385:10388   */\n      dup4\n        /* \"#utility.yul\":10326:10393   */\n      tag_191\n      jump\t// in\n    tag_319:\n        /* \"#utility.yul\":10319:10393   */\n      swap2\n      pop\n        /* \"#utility.yul\":10402:10495   */\n      tag_320\n        /* \"#utility.yul\":10491:10494   */\n      dup3\n        /* \"#utility.yul\":10402:10495   */\n      tag_198\n      jump\t// in\n    tag_320:\n        /* \"#utility.yul\":10520:10522   */\n      0x20\n        /* \"#utility.yul\":10515:10518   */\n      dup3\n        /* \"#utility.yul\":10511:10523   */\n      add\n        /* \"#utility.yul\":10504:10523   */\n      swap1\n      pop\n        /* \"#utility.yul\":10163:10529   */\n      swap2\n      swap1\n      pop\n      jump\t// out\n        /* \"#utility.yul\":10535:10954   */\n    tag_117:\n        /* \"#utility.yul\":10701:10705   */\n      0x00\n        /* \"#utility.yul\":10739:10741   */\n      0x20\n        /* \"#utility.yul\":10728:10737   */\n      dup3\n        /* \"#utility.yul\":10724:10742   */\n      add\n        /* \"#utility.yul\":10716:10742   */\n      swap1\n      pop\n        /* \"#utility.yul\":10788:10797   */\n      dup2\n        /* \"#utility.yul\":10782:10786   */\n      dup2\n        /* \"#utility.yul\":10778:10798   */\n      sub\n        /* \"#utility.yul\":10774:10775   */\n      0x00\n        /* \"#utility.yul\":10763:10772   */\n      dup4\n        /* \"#utility.yul\":10759:10776   */\n      add\n        /* \"#utility.yul\":10752:10799   */\n      mstore\n        /* \"#utility.yul\":10816:10947   */\n      tag_322\n        /* \"#utility.yul\":10942:10946   */\n      dup2\n        /* \"#utility.yul\":10816:10947   */\n      tag_199\n      jump\t// in\n    tag_322:\n        /* \"#utility.yul\":10808:10947   */\n      swap1\n      pop\n        /* \"#utility.yul\":10535:10954   */\n      swap2\n      swap1\n      pop\n      jump\t// out\n        /* \"#utility.yul\":10960:11138   */\n    tag_200:\n        /* \"#utility.yul\":11100:11130   */\n      0x456c2067616e61646f72206e6f20707565646520726574697261722e00000000\n        /* \"#utility.yul\":11096:11097   */\n      0x00\n        /* \"#utility.yul\":11088:11094   */\n      dup3\n        /* \"#utility.yul\":11084:11098   */\n      add\n        /* \"#utility.yul\":11077:11131   */\n      mstore\n        /* \"#utility.yul\":10960:11138   */\n      pop\n      jump\t// out\n        /* \"#utility.yul\":11144:11510   */\n    tag_201:\n        /* \"#utility.yul\":11286:11289   */\n      0x00\n        /* \"#utility.yul\":11307:11374   */\n      tag_325\n        /* \"#utility.yul\":11371:11373   */\n      0x1c\n        /* \"#utility.yul\":11366:11369   */\n      dup4\n        /* \"#utility.yul\":11307:11374   */\n      tag_191\n      jump\t// in\n    tag_325:\n        /* \"#utility.yul\":11300:11374   */\n      swap2\n      pop\n        /* \"#utility.yul\":11383:11476   */\n      tag_326\n        /* \"#utility.yul\":11472:11475   */\n      dup3\n        /* \"#utility.yul\":11383:11476   */\n      tag_200\n      jump\t// in\n    tag_326:\n        /* \"#utility.yul\":11501:11503   */\n      0x20\n        /* \"#utility.yul\":11496:11499   */\n      dup3\n        /* \"#utility.yul\":11492:11504   */\n      add\n        /* \"#utility.yul\":11485:11504   */\n      swap1\n      pop\n        /* \"#utility.yul\":11144:11510   */\n      swap2\n      swap1\n      pop\n      jump\t// out\n        /* \"#utility.yul\":11516:11935   */\n    tag_121:\n        /* \"#utility.yul\":11682:11686   */\n      0x00\n        /* \"#utility.yul\":11720:11722   */\n      0x20\n        /* \"#utility.yul\":11709:11718   */\n      dup3\n        /* \"#utility.yul\":11705:11723   */\n      add\n        /* \"#utility.yul\":11697:11723   */\n      swap1\n      pop\n        /* \"#utility.yul\":11769:11778   */\n      dup2\n        /* \"#utility.yul\":11763:11767   */\n      dup2\n        /* \"#utility.yul\":11759:11779   */\n      sub\n        /* \"#utility.yul\":11755:11756   */\n      0x00\n        /* \"#utility.yul\":11744:11753   */\n      dup4\n        /* \"#utility.yul\":11740:11757   */\n      add\n        /* \"#utility.yul\":11733:11780   */\n      mstore\n        /* \"#utility.yul\":11797:11928   */\n      tag_328\n        /* \"#utility.yul\":11923:11927   */\n      dup2\n        /* \"#utility.yul\":11797:11928   */\n      tag_201\n      jump\t// in\n    tag_328:\n        /* \"#utility.yul\":11789:11928   */\n      swap1\n      pop\n        /* \"#utility.yul\":11516:11935   */\n      swap2\n      swap1\n      pop\n      jump\t// out\n        /* \"#utility.yul\":11941:12118   */\n    tag_202:\n        /* \"#utility.yul\":12081:12110   */\n      0x4e6f2068617920666f6e646f73207061726120726574697261722e0000000000\n        /* \"#utility.yul\":12077:12078   */\n      0x00\n        /* \"#utility.yul\":12069:12075   */\n      dup3\n        /* \"#utility.yul\":12065:12079   */\n      add\n        /* \"#utility.yul\":12058:12111   */\n      mstore\n        /* \"#utility.yul\":11941:12118   */\n      pop\n      jump\t// out\n        /* \"#utility.yul\":12124:12490   */\n    tag_203:\n        /* \"#utility.yul\":12266:12269   */\n      0x00\n        /* \"#utility.yul\":12287:12354   */\n      tag_331\n        /* \"#utility.yul\":12351:12353   */\n      0x1b\n        /* \"#utility.yul\":12346:12349   */\n      dup4\n        /* \"#utility.yul\":12287:12354   */\n      tag_191\n      jump\t// in\n    tag_331:\n        /* \"#utility.yul\":12280:12354   */\n      swap2\n      pop\n        /* \"#utility.yul\":12363:12456   */\n      tag_332\n        /* \"#utility.yul\":12452:12455   */\n      dup3\n        /* \"#utility.yul\":12363:12456   */\n      tag_202\n      jump\t// in\n    tag_332:\n        /* \"#utility.yul\":12481:12483   */\n      0x20\n        /* \"#utility.yul\":12476:12479   */\n      dup3\n        /* \"#utility.yul\":12472:12484   */\n      add\n        /* \"#utility.yul\":12465:12484   */\n      swap1\n      pop\n        /* \"#utility.yul\":12124:12490   */\n      swap2\n      swap1\n      pop\n      jump\t// out\n        /* \"#utility.yul\":12496:12915   */\n    tag_124:\n        /* \"#utility.yul\":12662:12666   */\n      0x00\n        /* \"#utility.yul\":12700:12702   */\n      0x20\n        /* \"#utility.yul\":12689:12698   */\n      dup3\n        /* \"#utility.yul\":12685:12703   */\n      add\n        /* \"#utility.yul\":12677:12703   */\n      swap1\n      pop\n        /* \"#utility.yul\":12749:12758   */\n      dup2\n        /* \"#utility.yul\":12743:12747   */\n      dup2\n        /* \"#utility.yul\":12739:12759   */\n      sub\n        /* \"#utility.yul\":12735:12736   */\n      0x00\n        /* \"#utility.yul\":12724:12733   */\n      dup4\n        /* \"#utility.yul\":12720:12737   */\n      add\n        /* \"#utility.yul\":12713:12760   */\n      mstore\n        /* \"#utility.yul\":12777:12908   */\n      tag_334\n        /* \"#utility.yul\":12903:12907   */\n      dup2\n        /* \"#utility.yul\":12777:12908   */\n      tag_203\n      jump\t// in\n    tag_334:\n        /* \"#utility.yul\":12769:12908   */\n      swap1\n      pop\n        /* \"#utility.yul\":12496:12915   */\n      swap2\n      swap1\n      pop\n      jump\t// out\n        /* \"#utility.yul\":12921:13068   */\n    tag_204:\n        /* \"#utility.yul\":13022:13033   */\n      0x00\n        /* \"#utility.yul\":13059:13062   */\n      dup2\n        /* \"#utility.yul\":13044:13062   */\n      swap1\n      pop\n        /* \"#utility.yul\":12921:13068   */\n      swap3\n      swap2\n      pop\n      pop\n      jump\t// out\n        /* \"#utility.yul\":13074:13188   */\n    tag_205:\n      pop\n      jump\t// out\n        /* \"#utility.yul\":13194:13592   */\n    tag_206:\n        /* \"#utility.yul\":13353:13356   */\n      0x00\n        /* \"#utility.yul\":13374:13457   */\n      tag_338\n        /* \"#utility.yul\":13455:13456   */\n      0x00\n        /* \"#utility.yul\":13450:13453   */\n      dup4\n        /* \"#utility.yul\":13374:13457   */\n      tag_204\n      jump\t// in\n    tag_338:\n        /* \"#utility.yul\":13367:13457   */\n      swap2\n      pop\n        /* \"#utility.yul\":13466:13559   */\n      tag_339\n        /* \"#utility.yul\":13555:13558   */\n      dup3\n        /* \"#utility.yul\":13466:13559   */\n      tag_205\n      jump\t// in\n    tag_339:\n        /* \"#utility.yul\":13584:13585   */\n      0x00\n        /* \"#utility.yul\":13579:13582   */\n      dup3\n        /* \"#utility.yul\":13575:13586   */\n      add\n        /* \"#utility.yul\":13568:13586   */\n      swap1\n      pop\n        /* \"#utility.yul\":13194:13592   */\n      swap2\n      swap1\n      pop\n      jump\t// out\n        /* \"#utility.yul\":13598:13977   */\n    tag_129:\n        /* \"#utility.yul\":13782:13785   */\n      0x00\n        /* \"#utility.yul\":13804:13951   */\n      tag_341\n        /* \"#utility.yul\":13947:13950   */\n      dup3\n        /* \"#utility.yul\":13804:13951   */\n      tag_206\n      jump\t// in\n    tag_341:\n        /* \"#utility.yul\":13797:13951   */\n      swap2\n      pop\n        /* \"#utility.yul\":13968:13971   */\n      dup2\n        /* \"#utility.yul\":13961:13971   */\n      swap1\n      pop\n        /* \"#utility.yul\":13598:13977   */\n      swap2\n      swap1\n      pop\n      jump\t// out\n        /* \"#utility.yul\":13983:14149   */\n    tag_207:\n        /* \"#utility.yul\":14123:14141   */\n      0x456c2072657469726f2066616c6c6f2e00000000000000000000000000000000\n        /* \"#utility.yul\":14119:14120   */\n      0x00\n        /* \"#utility.yul\":14111:14117   */\n      dup3\n        /* \"#utility.yul\":14107:14121   */\n      add\n        /* \"#utility.yul\":14100:14142   */\n      mstore\n        /* \"#utility.yul\":13983:14149   */\n      pop\n      jump\t// out\n        /* \"#utility.yul\":14155:14521   */\n    tag_208:\n        /* \"#utility.yul\":14297:14300   */\n      0x00\n        /* \"#utility.yul\":14318:14385   */\n      tag_344\n        /* \"#utility.yul\":14382:14384   */\n      0x10\n        /* \"#utility.yul\":14377:14380   */\n      dup4\n        /* \"#utility.yul\":14318:14385   */\n      tag_191\n      jump\t// in\n    tag_344:\n        /* \"#utility.yul\":14311:14385   */\n      swap2\n      pop\n        /* \"#utility.yul\":14394:14487   */\n      tag_345\n        /* \"#utility.yul\":14483:14486   */\n      dup3\n        /* \"#utility.yul\":14394:14487   */\n      tag_207\n      jump\t// in\n    tag_345:\n        /* \"#utility.yul\":14512:14514   */\n      0x20\n        /* \"#utility.yul\":14507:14510   */\n      dup3\n        /* \"#utility.yul\":14503:14515   */\n      add\n        /* \"#utility.yul\":14496:14515   */\n      swap1\n      pop\n        /* \"#utility.yul\":14155:14521   */\n      swap2\n      swap1\n      pop\n      jump\t// out\n        /* \"#utility.yul\":14527:14946   */\n    tag_135:\n        /* \"#utility.yul\":14693:14697   */\n      0x00\n        /* \"#utility.yul\":14731:14733   */\n      0x20\n        /* \"#utility.yul\":14720:14729   */\n      dup3\n        /* \"#utility.yul\":14716:14734   */\n      add\n        /* \"#utility.yul\":14708:14734   */\n      swap1\n      pop\n        /* \"#utility.yul\":14780:14789   */\n      dup2\n        /* \"#utility.yul\":14774:14778   */\n      dup2\n        /* \"#utility.yul\":14770:14790   */\n      sub\n        /* \"#utility.yul\":14766:14767   */\n      0x00\n        /* \"#utility.yul\":14755:14764   */\n      dup4\n        /* \"#utility.yul\":14751:14768   */\n      add\n        /* \"#utility.yul\":14744:14791   */\n      mstore\n        /* \"#utility.yul\":14808:14939   */\n      tag_347\n        /* \"#utility.yul\":14934:14938   */\n      dup2\n        /* \"#utility.yul\":14808:14939   */\n      tag_208\n      jump\t// in\n    tag_347:\n        /* \"#utility.yul\":14800:14939   */\n      swap1\n      pop\n        /* \"#utility.yul\":14527:14946   */\n      swap2\n      swap1\n      pop\n      jump\t// out\n        /* \"#utility.yul\":14952:15132   */\n    tag_209:\n        /* \"#utility.yul\":15092:15124   */\n      0x4e6f207469656e657320737566696369656e7465206465706f7369746f2e0000\n        /* \"#utility.yul\":15088:15089   */\n      0x00\n        /* \"#utility.yul\":15080:15086   */\n      dup3\n        /* \"#utility.yul\":15076:15090   */\n      add\n        /* \"#utility.yul\":15069:15125   */\n      mstore\n        /* \"#utility.yul\":14952:15132   */\n      pop\n      jump\t// out\n        /* \"#utility.yul\":15138:15504   */\n    tag_210:\n        /* \"#utility.yul\":15280:15283   */\n      0x00\n        /* \"#utility.yul\":15301:15368   */\n      tag_350\n        /* \"#utility.yul\":15365:15367   */\n      0x1e\n        /* \"#utility.yul\":15360:15363   */\n      dup4\n        /* \"#utility.yul\":15301:15368   */\n      tag_191\n      jump\t// in\n    tag_350:\n        /* \"#utility.yul\":15294:15368   */\n      swap2\n      pop\n        /* \"#utility.yul\":15377:15470   */\n      tag_351\n        /* \"#utility.yul\":15466:15469   */\n      dup3\n        /* \"#utility.yul\":15377:15470   */\n      tag_209\n      jump\t// in\n    tag_351:\n        /* \"#utility.yul\":15495:15497   */\n      0x20\n        /* \"#utility.yul\":15490:15493   */\n      dup3\n        /* \"#utility.yul\":15486:15498   */\n      add\n        /* \"#utility.yul\":15479:15498   */\n      swap1\n      pop\n        /* \"#utility.yul\":15138:15504   */\n      swap2\n      swap1\n      pop\n      jump\t// out\n        /* \"#utility.yul\":15510:15929   */\n    tag_144:\n        /* \"#utility.yul\":15676:15680   */\n      0x00\n        /* \"#utility.yul\":15714:15716   */\n      0x20\n        /* \"#utility.yul\":15703:15712   */\n      dup3\n        /* \"#utility.yul\":15699:15717   */\n      add\n        /* \"#utility.yul\":15691:15717   */\n      swap1\n      pop\n        /* \"#utility.yul\":15763:15772   */\n      dup2\n        /* \"#utility.yul\":15757:15761   */\n      dup2\n        /* \"#utility.yul\":15753:15773   */\n      sub\n        /* \"#utility.yul\":15749:15750   */\n      0x00\n        /* \"#utility.yul\":15738:15747   */\n      dup4\n        /* \"#utility.yul\":15734:15751   */\n      add\n        /* \"#utility.yul\":15727:15774   */\n      mstore\n        /* \"#utility.yul\":15791:15922   */\n      tag_353\n        /* \"#utility.yul\":15917:15921   */\n      dup2\n        /* \"#utility.yul\":15791:15922   */\n      tag_210\n      jump\t// in\n    tag_353:\n        /* \"#utility.yul\":15783:15922   */\n      swap1\n      pop\n        /* \"#utility.yul\":15510:15929   */\n      swap2\n      swap1\n      pop\n      jump\t// out\n        /* \"#utility.yul\":15935:16170   */\n    tag_211:\n        /* \"#utility.yul\":16075:16109   */\n      0x536f6c6f20656c2070726f706965746172696f20707565646520656a65637574\n        /* \"#utility.yul\":16071:16072   */\n      0x00\n        /* \"#utility.yul\":16063:16069   */\n      dup3\n        /* \"#utility.yul\":16059:16073   */\n      add\n        /* \"#utility.yul\":16052:16110   */\n      mstore\n        /* \"#utility.yul\":16144:16162   */\n      0x617220657374612066756e63696f6e2e00000000000000000000000000000000\n        /* \"#utility.yul\":16139:16141   */\n      0x20\n        /* \"#utility.yul\":16131:16137   */\n      dup3\n        /* \"#utility.yul\":16127:16142   */\n      add\n        /* \"#utility.yul\":16120:16163   */\n      mstore\n        /* \"#utility.yul\":15935:16170   */\n      pop\n      jump\t// out\n        /* \"#utility.yul\":16176:16542   */\n    tag_212:\n        /* \"#utility.yul\":16318:16321   */\n      0x00\n        /* \"#utility.yul\":16339:16406   */\n      tag_356\n        /* \"#utility.yul\":16403:16405   */\n      0x30\n        /* \"#utility.yul\":16398:16401   */\n      dup4\n        /* \"#utility.yul\":16339:16406   */\n      tag_191\n      jump\t// in\n    tag_356:\n        /* \"#utility.yul\":16332:16406   */\n      swap2\n      pop\n        /* \"#utility.yul\":16415:16508   */\n      tag_357\n        /* \"#utility.yul\":16504:16507   */\n      dup3\n        /* \"#utility.yul\":16415:16508   */\n      tag_211\n      jump\t// in\n    tag_357:\n        /* \"#utility.yul\":16533:16535   */\n      0x40\n        /* \"#utility.yul\":16528:16531   */\n      dup3\n        /* \"#utility.yul\":16524:16536   */\n      add\n        /* \"#utility.yul\":16517:16536   */\n      swap1\n      pop\n        /* \"#utility.yul\":16176:16542   */\n      swap2\n      swap1\n      pop\n      jump\t// out\n        /* \"#utility.yul\":16548:16967   */\n    tag_159:\n        /* \"#utility.yul\":16714:16718   */\n      0x00\n        /* \"#utility.yul\":16752:16754   */\n      0x20\n        /* \"#utility.yul\":16741:16750   */\n      dup3\n        /* \"#utility.yul\":16737:16755   */\n      add\n        /* \"#utility.yul\":16729:16755   */\n      swap1\n      pop\n        /* \"#utility.yul\":16801:16810   */\n      dup2\n        /* \"#utility.yul\":16795:16799   */\n      dup2\n        /* \"#utility.yul\":16791:16811   */\n      sub\n        /* \"#utility.yul\":16787:16788   */\n      0x00\n        /* \"#utility.yul\":16776:16785   */\n      dup4\n        /* \"#utility.yul\":16772:16789   */\n      add\n        /* \"#utility.yul\":16765:16812   */\n      mstore\n        /* \"#utility.yul\":16829:16960   */\n      tag_359\n        /* \"#utility.yul\":16955:16959   */\n      dup2\n        /* \"#utility.yul\":16829:16960   */\n      tag_212\n      jump\t// in\n    tag_359:\n        /* \"#utility.yul\":16821:16960   */\n      swap1\n      pop\n        /* \"#utility.yul\":16548:16967   */\n      swap2\n      swap1\n      pop\n      jump\t// out\n        /* \"#utility.yul\":16973:17193   */\n    tag_213:\n        /* \"#utility.yul\":17113:17147   */\n      0x4c612073756261737461207961206861207369646f2066696e616c697a616461\n        /* \"#utility.yul\":17109:17110   */\n      0x00\n        /* \"#utility.yul\":17101:17107   */\n      dup3\n        /* \"#utility.yul\":17097:17111   */\n      add\n        /* \"#utility.yul\":17090:17148   */\n      mstore\n        /* \"#utility.yul\":17182:17185   */\n      0x2e00000000000000000000000000000000000000000000000000000000000000\n        /* \"#utility.yul\":17177:17179   */\n      0x20\n        /* \"#utility.yul\":17169:17175   */\n      dup3\n        /* \"#utility.yul\":17165:17180   */\n      add\n        /* \"#utility.yul\":17158:17186   */\n      mstore\n        /* \"#utility.yul\":16973:17193   */\n      pop\n      jump\t// out\n        /* \"#utility.yul\":17199:17565   */\n    tag_214:\n        /* \"#utility.yul\":17341:17344   */\n      0x00\n        /* \"#utility.yul\":17362:17429   */\n      tag_362\n        /* \"#utility.yul\":17426:17428   */\n      0x21\n        /* \"#utility.yul\":17421:17424   */\n      dup4\n        /* \"#utility.yul\":17362:17429   */\n      tag_191\n      jump\t// in\n    tag_362:\n        /* \"#utility.yul\":17355:17429   */\n      swap2\n      pop\n        /* \"#utility.yul\":17438:17531   */\n      tag_363\n        /* \"#utility.yul\":17527:17530   */\n      dup3\n        /* \"#utility.yul\":17438:17531   */\n      tag_213\n      jump\t// in\n    tag_363:\n        /* \"#utility.yul\":17556:17558   */\n      0x40\n        /* \"#utility.yul\":17551:17554   */\n      dup3\n        /* \"#utility.yul\":17547:17559   */\n      add\n        /* \"#utility.yul\":17540:17559   */\n      swap1\n      pop\n        /* \"#utility.yul\":17199:17565   */\n      swap2\n      swap1\n      pop\n      jump\t// out\n        /* \"#utility.yul\":17571:17990   */\n    tag_166:\n        /* \"#utility.yul\":17737:17741   */\n      0x00\n        /* \"#utility.yul\":17775:17777   */\n      0x20\n        /* \"#utility.yul\":17764:17773   */\n      dup3\n        /* \"#utility.yul\":17760:17778   */\n      add\n        /* \"#utility.yul\":17752:17778   */\n      swap1\n      pop\n        /* \"#utility.yul\":17824:17833   */\n      dup2\n        /* \"#utility.yul\":17818:17822   */\n      dup2\n        /* \"#utility.yul\":17814:17834   */\n      sub\n        /* \"#utility.yul\":17810:17811   */\n      0x00\n        /* \"#utility.yul\":17799:17808   */\n      dup4\n        /* \"#utility.yul\":17795:17812   */\n      add\n        /* \"#utility.yul\":17788:17835   */\n      mstore\n        /* \"#utility.yul\":17852:17983   */\n      tag_365\n        /* \"#utility.yul\":17978:17982   */\n      dup2\n        /* \"#utility.yul\":17852:17983   */\n      tag_214\n      jump\t// in\n    tag_365:\n        /* \"#utility.yul\":17844:17983   */\n      swap1\n      pop\n        /* \"#utility.yul\":17571:17990   */\n      swap2\n      swap1\n      pop\n      jump\t// out\n\n    auxdata: 0xa264697066735822122032312efec1977d9714632c16736b9653bf14315a14aafe69e100c88dd9fdd7b664736f6c634300081a0033\n}\n",
				"bytecode": {
					"linkReferences": {},
					"object": "6080604052610258600555610258600655348015601a575f80fd5b50335f806101000a81548173ffffffffffffffffffffffffffffffffffffffff021916908373ffffffffffffffffffffffffffffffffffffffff16021790555061165d806100675f395ff3fe6080604052600436106100f2575f3560e01c80638da5cb5b11610089578063d57bde7911610058578063d57bde79146102cc578063eeed1b26146102f6578063fc7e286d14610320578063fe67a54b1461035c576100f2565b80638da5cb5b1461022357806391f901571461024d578063aaad413f14610277578063b7e03264146102a1576100f2565b80633ccfd60b116100c55780633ccfd60b1461017e5780634423c5f1146101945780634b449cba146101d157806371d2ee6c146101fb576100f2565b806312fa6feb146100f657806314d2687c146101205780631998aeef1461014a5780631d0806ae14610154575b5f80fd5b348015610101575f80fd5b5061010a610372565b6040516101179190610e01565b60405180910390f35b34801561012b575f80fd5b50610134610385565b6040516101419190610f46565b60405180910390f35b61015261043f565b005b34801561015f575f80fd5b506101686106da565b6040516101759190610f75565b60405180910390f35b348015610189575f80fd5b506101926106e0565b005b34801561019f575f80fd5b506101ba60048036038101906101b59190610fbc565b610952565b6040516101c8929190610ff6565b60405180910390f35b3480156101dc575f80fd5b506101e56109a0565b6040516101f29190610f75565b60405180910390f35b348015610206575f80fd5b50610221600480360381019061021c9190610fbc565b6109a6565b005b34801561022e575f80fd5b50610237610b69565b604051610244919061101d565b60405180910390f35b348015610258575f80fd5b50610261610b8c565b60405161026e919061101d565b60405180910390f35b348015610282575f80fd5b5061028b610bb1565b6040516102989190610f75565b60405180910390f35b3480156102ac575f80fd5b506102b5610bb7565b6040516102c3929190610ff6565b60405180910390f35b3480156102d7575f80fd5b506102e0610c2b565b6040516102ed9190610f75565b60405180910390f35b348015610301575f80fd5b5061030a610c31565b6040516103179190610f75565b60405180910390f35b34801561032b575f80fd5b5061034660048036038101906103419190611060565b610c37565b6040516103539190610f75565b60405180910390f35b348015610367575f80fd5b50610370610c4c565b005b600460149054906101000a900460ff1681565b60606008805480602002602001604051908101604052809291908181526020015f905b82821015610436578382905f5260205f2090600202016040518060400160405290815f82015f9054906101000a900473ffffffffffffffffffffffffffffffffffffffff1673ffffffffffffffffffffffffffffffffffffffff1673ffffffffffffffffffffffffffffffffffffffff168152602001600182015481525050815260200190600101906103a8565b50505050905090565b6002544210610483576040517f08c379a000000000000000000000000000000000000000000000000000000000815260040161047a906110e5565b60405180910390fd5b5f3460075f3373ffffffffffffffffffffffffffffffffffffffff1673ffffffffffffffffffffffffffffffffffffffff1681526020019081526020015f20546104cd9190611130565b9050606460696003546104e09190611163565b6104ea91906111d1565b811161052b576040517f08c379a000000000000000000000000000000000000000000000000000000000815260040161052290611271565b60405180910390fd5b8060075f3373ffffffffffffffffffffffffffffffffffffffff1673ffffffffffffffffffffffffffffffffffffffff1681526020019081526020015f2081905550600860405180604001604052803373ffffffffffffffffffffffffffffffffffffffff16815260200183815250908060018154018082558091505060019003905f5260205f2090600202015f909190919091505f820151815f015f6101000a81548173ffffffffffffffffffffffffffffffffffffffff021916908373ffffffffffffffffffffffffffffffffffffffff160217905550602082015181600101555050806003819055503360045f6101000a81548173ffffffffffffffffffffffffffffffffffffffff021916908373ffffffffffffffffffffffffffffffffffffffff16021790555060065442600254610668919061128f565b10156106895760055460025f8282546106819190611130565b925050819055505b3373ffffffffffffffffffffffffffffffffffffffff167fdd0b6c6a77960e2066c96171b4d7ac9e8b4c184011f38544afa36a5bb63ec59f826040516106cf9190610f75565b60405180910390a250565b60015481565b600254421015610725576040517f08c379a000000000000000000000000000000000000000000000000000000000815260040161071c9061130c565b60405180910390fd5b60045f9054906101000a900473ffffffffffffffffffffffffffffffffffffffff1673ffffffffffffffffffffffffffffffffffffffff163373ffffffffffffffffffffffffffffffffffffffff16036107b4576040517f08c379a00000000000000000000000000000000000000000000000000000000081526004016107ab90611374565b60405180910390fd5b5f60075f3373ffffffffffffffffffffffffffffffffffffffff1673ffffffffffffffffffffffffffffffffffffffff1681526020019081526020015f205490505f8111610837576040517f08c379a000000000000000000000000000000000000000000000000000000000815260040161082e906113dc565b60405180910390fd5b5f60646002836108479190611163565b61085191906111d1565b90505f8183610860919061128f565b90505f60075f3373ffffffffffffffffffffffffffffffffffffffff1673ffffffffffffffffffffffffffffffffffffffff1681526020019081526020015f20819055505f3373ffffffffffffffffffffffffffffffffffffffff16826040516108c990611427565b5f6040518083038185875af1925050503d805f8114610903576040519150601f19603f3d011682016040523d82523d5f602084013e610908565b606091505b505090508061094c576040517f08c379a000000000000000000000000000000000000000000000000000000000815260040161094390611485565b60405180910390fd5b50505050565b60088181548110610961575f80fd5b905f5260205f2090600202015f91509050805f015f9054906101000a900473ffffffffffffffffffffffffffffffffffffffff16908060010154905082565b60025481565b60025442106109ea576040517f08c379a00000000000000000000000000000000000000000000000000000000081526004016109e1906110e5565b60405180910390fd5b8060075f3373ffffffffffffffffffffffffffffffffffffffff1673ffffffffffffffffffffffffffffffffffffffff1681526020019081526020015f20541015610a6a576040517f08c379a0000000000000000000000000000000000000000000000000000000008152600401610a61906114ed565b60405180910390fd5b8060075f3373ffffffffffffffffffffffffffffffffffffffff1673ffffffffffffffffffffffffffffffffffffffff1681526020019081526020015f205f828254610ab6919061128f565b925050819055505f3373ffffffffffffffffffffffffffffffffffffffff1682604051610ae290611427565b5f6040518083038185875af1925050503d805f8114610b1c576040519150601f19603f3d011682016040523d82523d5f602084013e610b21565b606091505b5050905080610b65576040517f08c379a0000000000000000000000000000000000000000000000000000000008152600401610b5c90611485565b60405180910390fd5b5050565b5f8054906101000a900473ffffffffffffffffffffffffffffffffffffffff1681565b60045f9054906101000a900473ffffffffffffffffffffffffffffffffffffffff1681565b60065481565b5f80600254421015610bfe576040517f08c379a0000000000000000000000000000000000000000000000000000000008152600401610bf59061130c565b60405180910390fd5b60045f9054906101000a900473ffffffffffffffffffffffffffffffffffffffff16600354915091509091565b60035481565b60055481565b6007602052805f5260405f205f915090505481565b5f8054906101000a900473ffffffffffffffffffffffffffffffffffffffff1673ffffffffffffffffffffffffffffffffffffffff163373ffffffffffffffffffffffffffffffffffffffff1614610cd9576040517f08c379a0000000000000000000000000000000000000000000000000000000008152600401610cd09061157b565b60405180910390fd5b600254421015610d1e576040517f08c379a0000000000000000000000000000000000000000000000000000000008152600401610d159061130c565b60405180910390fd5b600460149054906101000a900460ff1615610d6e576040517f08c379a0000000000000000000000000000000000000000000000000000000008152600401610d6590611609565b60405180910390fd5b6001600460146101000a81548160ff0219169083151502179055507fdaec4582d5d9595688c8c98545fdd1c696d41c6aeaeb636737e84ed2f5c00eda60045f9054906101000a900473ffffffffffffffffffffffffffffffffffffffff16600354604051610ddd929190610ff6565b60405180910390a1565b5f8115159050919050565b610dfb81610de7565b82525050565b5f602082019050610e145f830184610df2565b92915050565b5f81519050919050565b5f82825260208201905092915050565b5f819050602082019050919050565b5f73ffffffffffffffffffffffffffffffffffffffff82169050919050565b5f610e6c82610e43565b9050919050565b610e7c81610e62565b82525050565b5f819050919050565b610e9481610e82565b82525050565b604082015f820151610eae5f850182610e73565b506020820151610ec16020850182610e8b565b50505050565b5f610ed28383610e9a565b60408301905092915050565b5f602082019050919050565b5f610ef482610e1a565b610efe8185610e24565b9350610f0983610e34565b805f5b83811015610f39578151610f208882610ec7565b9750610f2b83610ede565b925050600181019050610f0c565b5085935050505092915050565b5f6020820190508181035f830152610f5e8184610eea565b905092915050565b610f6f81610e82565b82525050565b5f602082019050610f885f830184610f66565b92915050565b5f80fd5b610f9b81610e82565b8114610fa5575f80fd5b50565b5f81359050610fb681610f92565b92915050565b5f60208284031215610fd157610fd0610f8e565b5b5f610fde84828501610fa8565b91505092915050565b610ff081610e62565b82525050565b5f6040820190506110095f830185610fe7565b6110166020830184610f66565b9392505050565b5f6020820190506110305f830184610fe7565b92915050565b61103f81610e62565b8114611049575f80fd5b50565b5f8135905061105a81611036565b92915050565b5f6020828403121561107557611074610f8e565b5b5f6110828482850161104c565b91505092915050565b5f82825260208201905092915050565b7f4c6120737562617374612068612066696e616c697a61646f2e000000000000005f82015250565b5f6110cf60198361108b565b91506110da8261109b565b602082019050919050565b5f6020820190508181035f8301526110fc816110c3565b9050919050565b7f4e487b71000000000000000000000000000000000000000000000000000000005f52601160045260245ffd5b5f61113a82610e82565b915061114583610e82565b925082820190508082111561115d5761115c611103565b5b92915050565b5f61116d82610e82565b915061117883610e82565b925082820261118681610e82565b9150828204841483151761119d5761119c611103565b5b5092915050565b7f4e487b71000000000000000000000000000000000000000000000000000000005f52601260045260245ffd5b5f6111db82610e82565b91506111e683610e82565b9250826111f6576111f56111a4565b5b828204905092915050565b7f4c61206f666572746120646562652073657220616c206d656e6f73203525206d5f8201527f61796f722061206c61206f66657274612061637475616c2e0000000000000000602082015250565b5f61125b60388361108b565b915061126682611201565b604082019050919050565b5f6020820190508181035f8301526112888161124f565b9050919050565b5f61129982610e82565b91506112a483610e82565b92508282039050818111156112bc576112bb611103565b5b92915050565b7f4c612073756261737461207369677565206163746976612e00000000000000005f82015250565b5f6112f660188361108b565b9150611301826112c2565b602082019050919050565b5f6020820190508181035f830152611323816112ea565b9050919050565b7f456c2067616e61646f72206e6f20707565646520726574697261722e000000005f82015250565b5f61135e601c8361108b565b91506113698261132a565b602082019050919050565b5f6020820190508181035f83015261138b81611352565b9050919050565b7f4e6f2068617920666f6e646f73207061726120726574697261722e00000000005f82015250565b5f6113c6601b8361108b565b91506113d182611392565b602082019050919050565b5f6020820190508181035f8301526113f3816113ba565b9050919050565b5f81905092915050565b50565b5f6114125f836113fa565b915061141d82611404565b5f82019050919050565b5f61143182611407565b9150819050919050565b7f456c2072657469726f2066616c6c6f2e000000000000000000000000000000005f82015250565b5f61146f60108361108b565b915061147a8261143b565b602082019050919050565b5f6020820190508181035f83015261149c81611463565b9050919050565b7f4e6f207469656e657320737566696369656e7465206465706f7369746f2e00005f82015250565b5f6114d7601e8361108b565b91506114e2826114a3565b602082019050919050565b5f6020820190508181035f830152611504816114cb565b9050919050565b7f536f6c6f20656c2070726f706965746172696f20707565646520656a656375745f8201527f617220657374612066756e63696f6e2e00000000000000000000000000000000602082015250565b5f61156560308361108b565b91506115708261150b565b604082019050919050565b5f6020820190508181035f83015261159281611559565b9050919050565b7f4c612073756261737461207961206861207369646f2066696e616c697a6164615f8201527f2e00000000000000000000000000000000000000000000000000000000000000602082015250565b5f6115f360218361108b565b91506115fe82611599565b604082019050919050565b5f6020820190508181035f830152611620816115e7565b905091905056fea264697066735822122032312efec1977d9714632c16736b9653bf14315a14aafe69e100c88dd9fdd7b664736f6c634300081a0033",
					"opcodes": "PUSH1 0x80 PUSH1 0x40 MSTORE PUSH2 0x258 PUSH1 0x5 SSTORE PUSH2 0x258 PUSH1 0x6 SSTORE CALLVALUE DUP1 ISZERO PUSH1 0x1A JUMPI PUSH0 DUP1 REVERT JUMPDEST POP CALLER PUSH0 DUP1 PUSH2 0x100 EXP DUP2 SLOAD DUP2 PUSH20 0xFFFFFFFFFFFFFFFFFFFFFFFFFFFFFFFFFFFFFFFF MUL NOT AND SWAP1 DUP4 PUSH20 0xFFFFFFFFFFFFFFFFFFFFFFFFFFFFFFFFFFFFFFFF AND MUL OR SWAP1 SSTORE POP PUSH2 0x165D DUP1 PUSH2 0x67 PUSH0 CODECOPY PUSH0 RETURN INVALID PUSH1 0x80 PUSH1 0x40 MSTORE PUSH1 0x4 CALLDATASIZE LT PUSH2 0xF2 JUMPI PUSH0 CALLDATALOAD PUSH1 0xE0 SHR DUP1 PUSH4 0x8DA5CB5B GT PUSH2 0x89 JUMPI DUP1 PUSH4 0xD57BDE79 GT PUSH2 0x58 JUMPI DUP1 PUSH4 0xD57BDE79 EQ PUSH2 0x2CC JUMPI DUP1 PUSH4 0xEEED1B26 EQ PUSH2 0x2F6 JUMPI DUP1 PUSH4 0xFC7E286D EQ PUSH2 0x320 JUMPI DUP1 PUSH4 0xFE67A54B EQ PUSH2 0x35C JUMPI PUSH2 0xF2 JUMP JUMPDEST DUP1 PUSH4 0x8DA5CB5B EQ PUSH2 0x223 JUMPI DUP1 PUSH4 0x91F90157 EQ PUSH2 0x24D JUMPI DUP1 PUSH4 0xAAAD413F EQ PUSH2 0x277 JUMPI DUP1 PUSH4 0xB7E03264 EQ PUSH2 0x2A1 JUMPI PUSH2 0xF2 JUMP JUMPDEST DUP1 PUSH4 0x3CCFD60B GT PUSH2 0xC5 JUMPI DUP1 PUSH4 0x3CCFD60B EQ PUSH2 0x17E JUMPI DUP1 PUSH4 0x4423C5F1 EQ PUSH2 0x194 JUMPI DUP1 PUSH4 0x4B449CBA EQ PUSH2 0x1D1 JUMPI DUP1 PUSH4 0x71D2EE6C EQ PUSH2 0x1FB JUMPI PUSH2 0xF2 JUMP JUMPDEST DUP1 PUSH4 0x12FA6FEB EQ PUSH2 0xF6 JUMPI DUP1 PUSH4 0x14D2687C EQ PUSH2 0x120 JUMPI DUP1 PUSH4 0x1998AEEF EQ PUSH2 0x14A JUMPI DUP1 PUSH4 0x1D0806AE EQ PUSH2 0x154 JUMPI JUMPDEST PUSH0 DUP1 REVERT JUMPDEST CALLVALUE DUP1 ISZERO PUSH2 0x101 JUMPI PUSH0 DUP1 REVERT JUMPDEST POP PUSH2 0x10A PUSH2 0x372 JUMP JUMPDEST PUSH1 0x40 MLOAD PUSH2 0x117 SWAP2 SWAP1 PUSH2 0xE01 JUMP JUMPDEST PUSH1 0x40 MLOAD DUP1 SWAP2 SUB SWAP1 RETURN JUMPDEST CALLVALUE DUP1 ISZERO PUSH2 0x12B JUMPI PUSH0 DUP1 REVERT JUMPDEST POP PUSH2 0x134 PUSH2 0x385 JUMP JUMPDEST PUSH1 0x40 MLOAD PUSH2 0x141 SWAP2 SWAP1 PUSH2 0xF46 JUMP JUMPDEST PUSH1 0x40 MLOAD DUP1 SWAP2 SUB SWAP1 RETURN JUMPDEST PUSH2 0x152 PUSH2 0x43F JUMP JUMPDEST STOP JUMPDEST CALLVALUE DUP1 ISZERO PUSH2 0x15F JUMPI PUSH0 DUP1 REVERT JUMPDEST POP PUSH2 0x168 PUSH2 0x6DA JUMP JUMPDEST PUSH1 0x40 MLOAD PUSH2 0x175 SWAP2 SWAP1 PUSH2 0xF75 JUMP JUMPDEST PUSH1 0x40 MLOAD DUP1 SWAP2 SUB SWAP1 RETURN JUMPDEST CALLVALUE DUP1 ISZERO PUSH2 0x189 JUMPI PUSH0 DUP1 REVERT JUMPDEST POP PUSH2 0x192 PUSH2 0x6E0 JUMP JUMPDEST STOP JUMPDEST CALLVALUE DUP1 ISZERO PUSH2 0x19F JUMPI PUSH0 DUP1 REVERT JUMPDEST POP PUSH2 0x1BA PUSH1 0x4 DUP1 CALLDATASIZE SUB DUP2 ADD SWAP1 PUSH2 0x1B5 SWAP2 SWAP1 PUSH2 0xFBC JUMP JUMPDEST PUSH2 0x952 JUMP JUMPDEST PUSH1 0x40 MLOAD PUSH2 0x1C8 SWAP3 SWAP2 SWAP1 PUSH2 0xFF6 JUMP JUMPDEST PUSH1 0x40 MLOAD DUP1 SWAP2 SUB SWAP1 RETURN JUMPDEST CALLVALUE DUP1 ISZERO PUSH2 0x1DC JUMPI PUSH0 DUP1 REVERT JUMPDEST POP PUSH2 0x1E5 PUSH2 0x9A0 JUMP JUMPDEST PUSH1 0x40 MLOAD PUSH2 0x1F2 SWAP2 SWAP1 PUSH2 0xF75 JUMP JUMPDEST PUSH1 0x40 MLOAD DUP1 SWAP2 SUB SWAP1 RETURN JUMPDEST CALLVALUE DUP1 ISZERO PUSH2 0x206 JUMPI PUSH0 DUP1 REVERT JUMPDEST POP PUSH2 0x221 PUSH1 0x4 DUP1 CALLDATASIZE SUB DUP2 ADD SWAP1 PUSH2 0x21C SWAP2 SWAP1 PUSH2 0xFBC JUMP JUMPDEST PUSH2 0x9A6 JUMP JUMPDEST STOP JUMPDEST CALLVALUE DUP1 ISZERO PUSH2 0x22E JUMPI PUSH0 DUP1 REVERT JUMPDEST POP PUSH2 0x237 PUSH2 0xB69 JUMP JUMPDEST PUSH1 0x40 MLOAD PUSH2 0x244 SWAP2 SWAP1 PUSH2 0x101D JUMP JUMPDEST PUSH1 0x40 MLOAD DUP1 SWAP2 SUB SWAP1 RETURN JUMPDEST CALLVALUE DUP1 ISZERO PUSH2 0x258 JUMPI PUSH0 DUP1 REVERT JUMPDEST POP PUSH2 0x261 PUSH2 0xB8C JUMP JUMPDEST PUSH1 0x40 MLOAD PUSH2 0x26E SWAP2 SWAP1 PUSH2 0x101D JUMP JUMPDEST PUSH1 0x40 MLOAD DUP1 SWAP2 SUB SWAP1 RETURN JUMPDEST CALLVALUE DUP1 ISZERO PUSH2 0x282 JUMPI PUSH0 DUP1 REVERT JUMPDEST POP PUSH2 0x28B PUSH2 0xBB1 JUMP JUMPDEST PUSH1 0x40 MLOAD PUSH2 0x298 SWAP2 SWAP1 PUSH2 0xF75 JUMP JUMPDEST PUSH1 0x40 MLOAD DUP1 SWAP2 SUB SWAP1 RETURN JUMPDEST CALLVALUE DUP1 ISZERO PUSH2 0x2AC JUMPI PUSH0 DUP1 REVERT JUMPDEST POP PUSH2 0x2B5 PUSH2 0xBB7 JUMP JUMPDEST PUSH1 0x40 MLOAD PUSH2 0x2C3 SWAP3 SWAP2 SWAP1 PUSH2 0xFF6 JUMP JUMPDEST PUSH1 0x40 MLOAD DUP1 SWAP2 SUB SWAP1 RETURN JUMPDEST CALLVALUE DUP1 ISZERO PUSH2 0x2D7 JUMPI PUSH0 DUP1 REVERT JUMPDEST POP PUSH2 0x2E0 PUSH2 0xC2B JUMP JUMPDEST PUSH1 0x40 MLOAD PUSH2 0x2ED SWAP2 SWAP1 PUSH2 0xF75 JUMP JUMPDEST PUSH1 0x40 MLOAD DUP1 SWAP2 SUB SWAP1 RETURN JUMPDEST CALLVALUE DUP1 ISZERO PUSH2 0x301 JUMPI PUSH0 DUP1 REVERT JUMPDEST POP PUSH2 0x30A PUSH2 0xC31 JUMP JUMPDEST PUSH1 0x40 MLOAD PUSH2 0x317 SWAP2 SWAP1 PUSH2 0xF75 JUMP JUMPDEST PUSH1 0x40 MLOAD DUP1 SWAP2 SUB SWAP1 RETURN JUMPDEST CALLVALUE DUP1 ISZERO PUSH2 0x32B JUMPI PUSH0 DUP1 REVERT JUMPDEST POP PUSH2 0x346 PUSH1 0x4 DUP1 CALLDATASIZE SUB DUP2 ADD SWAP1 PUSH2 0x341 SWAP2 SWAP1 PUSH2 0x1060 JUMP JUMPDEST PUSH2 0xC37 JUMP JUMPDEST PUSH1 0x40 MLOAD PUSH2 0x353 SWAP2 SWAP1 PUSH2 0xF75 JUMP JUMPDEST PUSH1 0x40 MLOAD DUP1 SWAP2 SUB SWAP1 RETURN JUMPDEST CALLVALUE DUP1 ISZERO PUSH2 0x367 JUMPI PUSH0 DUP1 REVERT JUMPDEST POP PUSH2 0x370 PUSH2 0xC4C JUMP JUMPDEST STOP JUMPDEST PUSH1 0x4 PUSH1 0x14 SWAP1 SLOAD SWAP1 PUSH2 0x100 EXP SWAP1 DIV PUSH1 0xFF AND DUP2 JUMP JUMPDEST PUSH1 0x60 PUSH1 0x8 DUP1 SLOAD DUP1 PUSH1 0x20 MUL PUSH1 0x20 ADD PUSH1 0x40 MLOAD SWAP1 DUP2 ADD PUSH1 0x40 MSTORE DUP1 SWAP3 SWAP2 SWAP1 DUP2 DUP2 MSTORE PUSH1 0x20 ADD PUSH0 SWAP1 JUMPDEST DUP3 DUP3 LT ISZERO PUSH2 0x436 JUMPI DUP4 DUP3 SWAP1 PUSH0 MSTORE PUSH1 0x20 PUSH0 KECCAK256 SWAP1 PUSH1 0x2 MUL ADD PUSH1 0x40 MLOAD DUP1 PUSH1 0x40 ADD PUSH1 0x40 MSTORE SWAP1 DUP2 PUSH0 DUP3 ADD PUSH0 SWAP1 SLOAD SWAP1 PUSH2 0x100 EXP SWAP1 DIV PUSH20 0xFFFFFFFFFFFFFFFFFFFFFFFFFFFFFFFFFFFFFFFF AND PUSH20 0xFFFFFFFFFFFFFFFFFFFFFFFFFFFFFFFFFFFFFFFF AND PUSH20 0xFFFFFFFFFFFFFFFFFFFFFFFFFFFFFFFFFFFFFFFF AND DUP2 MSTORE PUSH1 0x20 ADD PUSH1 0x1 DUP3 ADD SLOAD DUP2 MSTORE POP POP DUP2 MSTORE PUSH1 0x20 ADD SWAP1 PUSH1 0x1 ADD SWAP1 PUSH2 0x3A8 JUMP JUMPDEST POP POP POP POP SWAP1 POP SWAP1 JUMP JUMPDEST PUSH1 0x2 SLOAD TIMESTAMP LT PUSH2 0x483 JUMPI PUSH1 0x40 MLOAD PUSH32 0x8C379A000000000000000000000000000000000000000000000000000000000 DUP2 MSTORE PUSH1 0x4 ADD PUSH2 0x47A SWAP1 PUSH2 0x10E5 JUMP JUMPDEST PUSH1 0x40 MLOAD DUP1 SWAP2 SUB SWAP1 REVERT JUMPDEST PUSH0 CALLVALUE PUSH1 0x7 PUSH0 CALLER PUSH20 0xFFFFFFFFFFFFFFFFFFFFFFFFFFFFFFFFFFFFFFFF AND PUSH20 0xFFFFFFFFFFFFFFFFFFFFFFFFFFFFFFFFFFFFFFFF AND DUP2 MSTORE PUSH1 0x20 ADD SWAP1 DUP2 MSTORE PUSH1 0x20 ADD PUSH0 KECCAK256 SLOAD PUSH2 0x4CD SWAP2 SWAP1 PUSH2 0x1130 JUMP JUMPDEST SWAP1 POP PUSH1 0x64 PUSH1 0x69 PUSH1 0x3 SLOAD PUSH2 0x4E0 SWAP2 SWAP1 PUSH2 0x1163 JUMP JUMPDEST PUSH2 0x4EA SWAP2 SWAP1 PUSH2 0x11D1 JUMP JUMPDEST DUP2 GT PUSH2 0x52B JUMPI PUSH1 0x40 MLOAD PUSH32 0x8C379A000000000000000000000000000000000000000000000000000000000 DUP2 MSTORE PUSH1 0x4 ADD PUSH2 0x522 SWAP1 PUSH2 0x1271 JUMP JUMPDEST PUSH1 0x40 MLOAD DUP1 SWAP2 SUB SWAP1 REVERT JUMPDEST DUP1 PUSH1 0x7 PUSH0 CALLER PUSH20 0xFFFFFFFFFFFFFFFFFFFFFFFFFFFFFFFFFFFFFFFF AND PUSH20 0xFFFFFFFFFFFFFFFFFFFFFFFFFFFFFFFFFFFFFFFF AND DUP2 MSTORE PUSH1 0x20 ADD SWAP1 DUP2 MSTORE PUSH1 0x20 ADD PUSH0 KECCAK256 DUP2 SWAP1 SSTORE POP PUSH1 0x8 PUSH1 0x40 MLOAD DUP1 PUSH1 0x40 ADD PUSH1 0x40 MSTORE DUP1 CALLER PUSH20 0xFFFFFFFFFFFFFFFFFFFFFFFFFFFFFFFFFFFFFFFF AND DUP2 MSTORE PUSH1 0x20 ADD DUP4 DUP2 MSTORE POP SWAP1 DUP1 PUSH1 0x1 DUP2 SLOAD ADD DUP1 DUP3 SSTORE DUP1 SWAP2 POP POP PUSH1 0x1 SWAP1 SUB SWAP1 PUSH0 MSTORE PUSH1 0x20 PUSH0 KECCAK256 SWAP1 PUSH1 0x2 MUL ADD PUSH0 SWAP1 SWAP2 SWAP1 SWAP2 SWAP1 SWAP2 POP PUSH0 DUP3 ADD MLOAD DUP2 PUSH0 ADD PUSH0 PUSH2 0x100 EXP DUP2 SLOAD DUP2 PUSH20 0xFFFFFFFFFFFFFFFFFFFFFFFFFFFFFFFFFFFFFFFF MUL NOT AND SWAP1 DUP4 PUSH20 0xFFFFFFFFFFFFFFFFFFFFFFFFFFFFFFFFFFFFFFFF AND MUL OR SWAP1 SSTORE POP PUSH1 0x20 DUP3 ADD MLOAD DUP2 PUSH1 0x1 ADD SSTORE POP POP DUP1 PUSH1 0x3 DUP2 SWAP1 SSTORE POP CALLER PUSH1 0x4 PUSH0 PUSH2 0x100 EXP DUP2 SLOAD DUP2 PUSH20 0xFFFFFFFFFFFFFFFFFFFFFFFFFFFFFFFFFFFFFFFF MUL NOT AND SWAP1 DUP4 PUSH20 0xFFFFFFFFFFFFFFFFFFFFFFFFFFFFFFFFFFFFFFFF AND MUL OR SWAP1 SSTORE POP PUSH1 0x6 SLOAD TIMESTAMP PUSH1 0x2 SLOAD PUSH2 0x668 SWAP2 SWAP1 PUSH2 0x128F JUMP JUMPDEST LT ISZERO PUSH2 0x689 JUMPI PUSH1 0x5 SLOAD PUSH1 0x2 PUSH0 DUP3 DUP3 SLOAD PUSH2 0x681 SWAP2 SWAP1 PUSH2 0x1130 JUMP JUMPDEST SWAP3 POP POP DUP2 SWAP1 SSTORE POP JUMPDEST CALLER PUSH20 0xFFFFFFFFFFFFFFFFFFFFFFFFFFFFFFFFFFFFFFFF AND PUSH32 0xDD0B6C6A77960E2066C96171B4D7AC9E8B4C184011F38544AFA36A5BB63EC59F DUP3 PUSH1 0x40 MLOAD PUSH2 0x6CF SWAP2 SWAP1 PUSH2 0xF75 JUMP JUMPDEST PUSH1 0x40 MLOAD DUP1 SWAP2 SUB SWAP1 LOG2 POP JUMP JUMPDEST PUSH1 0x1 SLOAD DUP2 JUMP JUMPDEST PUSH1 0x2 SLOAD TIMESTAMP LT ISZERO PUSH2 0x725 JUMPI PUSH1 0x40 MLOAD PUSH32 0x8C379A000000000000000000000000000000000000000000000000000000000 DUP2 MSTORE PUSH1 0x4 ADD PUSH2 0x71C SWAP1 PUSH2 0x130C JUMP JUMPDEST PUSH1 0x40 MLOAD DUP1 SWAP2 SUB SWAP1 REVERT JUMPDEST PUSH1 0x4 PUSH0 SWAP1 SLOAD SWAP1 PUSH2 0x100 EXP SWAP1 DIV PUSH20 0xFFFFFFFFFFFFFFFFFFFFFFFFFFFFFFFFFFFFFFFF AND PUSH20 0xFFFFFFFFFFFFFFFFFFFFFFFFFFFFFFFFFFFFFFFF AND CALLER PUSH20 0xFFFFFFFFFFFFFFFFFFFFFFFFFFFFFFFFFFFFFFFF AND SUB PUSH2 0x7B4 JUMPI PUSH1 0x40 MLOAD PUSH32 0x8C379A000000000000000000000000000000000000000000000000000000000 DUP2 MSTORE PUSH1 0x4 ADD PUSH2 0x7AB SWAP1 PUSH2 0x1374 JUMP JUMPDEST PUSH1 0x40 MLOAD DUP1 SWAP2 SUB SWAP1 REVERT JUMPDEST PUSH0 PUSH1 0x7 PUSH0 CALLER PUSH20 0xFFFFFFFFFFFFFFFFFFFFFFFFFFFFFFFFFFFFFFFF AND PUSH20 0xFFFFFFFFFFFFFFFFFFFFFFFFFFFFFFFFFFFFFFFF AND DUP2 MSTORE PUSH1 0x20 ADD SWAP1 DUP2 MSTORE PUSH1 0x20 ADD PUSH0 KECCAK256 SLOAD SWAP1 POP PUSH0 DUP2 GT PUSH2 0x837 JUMPI PUSH1 0x40 MLOAD PUSH32 0x8C379A000000000000000000000000000000000000000000000000000000000 DUP2 MSTORE PUSH1 0x4 ADD PUSH2 0x82E SWAP1 PUSH2 0x13DC JUMP JUMPDEST PUSH1 0x40 MLOAD DUP1 SWAP2 SUB SWAP1 REVERT JUMPDEST PUSH0 PUSH1 0x64 PUSH1 0x2 DUP4 PUSH2 0x847 SWAP2 SWAP1 PUSH2 0x1163 JUMP JUMPDEST PUSH2 0x851 SWAP2 SWAP1 PUSH2 0x11D1 JUMP JUMPDEST SWAP1 POP PUSH0 DUP2 DUP4 PUSH2 0x860 SWAP2 SWAP1 PUSH2 0x128F JUMP JUMPDEST SWAP1 POP PUSH0 PUSH1 0x7 PUSH0 CALLER PUSH20 0xFFFFFFFFFFFFFFFFFFFFFFFFFFFFFFFFFFFFFFFF AND PUSH20 0xFFFFFFFFFFFFFFFFFFFFFFFFFFFFFFFFFFFFFFFF AND DUP2 MSTORE PUSH1 0x20 ADD SWAP1 DUP2 MSTORE PUSH1 0x20 ADD PUSH0 KECCAK256 DUP2 SWAP1 SSTORE POP PUSH0 CALLER PUSH20 0xFFFFFFFFFFFFFFFFFFFFFFFFFFFFFFFFFFFFFFFF AND DUP3 PUSH1 0x40 MLOAD PUSH2 0x8C9 SWAP1 PUSH2 0x1427 JUMP JUMPDEST PUSH0 PUSH1 0x40 MLOAD DUP1 DUP4 SUB DUP2 DUP6 DUP8 GAS CALL SWAP3 POP POP POP RETURNDATASIZE DUP1 PUSH0 DUP2 EQ PUSH2 0x903 JUMPI PUSH1 0x40 MLOAD SWAP2 POP PUSH1 0x1F NOT PUSH1 0x3F RETURNDATASIZE ADD AND DUP3 ADD PUSH1 0x40 MSTORE RETURNDATASIZE DUP3 MSTORE RETURNDATASIZE PUSH0 PUSH1 0x20 DUP5 ADD RETURNDATACOPY PUSH2 0x908 JUMP JUMPDEST PUSH1 0x60 SWAP2 POP JUMPDEST POP POP SWAP1 POP DUP1 PUSH2 0x94C JUMPI PUSH1 0x40 MLOAD PUSH32 0x8C379A000000000000000000000000000000000000000000000000000000000 DUP2 MSTORE PUSH1 0x4 ADD PUSH2 0x943 SWAP1 PUSH2 0x1485 JUMP JUMPDEST PUSH1 0x40 MLOAD DUP1 SWAP2 SUB SWAP1 REVERT JUMPDEST POP POP POP POP JUMP JUMPDEST PUSH1 0x8 DUP2 DUP2 SLOAD DUP2 LT PUSH2 0x961 JUMPI PUSH0 DUP1 REVERT JUMPDEST SWAP1 PUSH0 MSTORE PUSH1 0x20 PUSH0 KECCAK256 SWAP1 PUSH1 0x2 MUL ADD PUSH0 SWAP2 POP SWAP1 POP DUP1 PUSH0 ADD PUSH0 SWAP1 SLOAD SWAP1 PUSH2 0x100 EXP SWAP1 DIV PUSH20 0xFFFFFFFFFFFFFFFFFFFFFFFFFFFFFFFFFFFFFFFF AND SWAP1 DUP1 PUSH1 0x1 ADD SLOAD SWAP1 POP DUP3 JUMP JUMPDEST PUSH1 0x2 SLOAD DUP2 JUMP JUMPDEST PUSH1 0x2 SLOAD TIMESTAMP LT PUSH2 0x9EA JUMPI PUSH1 0x40 MLOAD PUSH32 0x8C379A000000000000000000000000000000000000000000000000000000000 DUP2 MSTORE PUSH1 0x4 ADD PUSH2 0x9E1 SWAP1 PUSH2 0x10E5 JUMP JUMPDEST PUSH1 0x40 MLOAD DUP1 SWAP2 SUB SWAP1 REVERT JUMPDEST DUP1 PUSH1 0x7 PUSH0 CALLER PUSH20 0xFFFFFFFFFFFFFFFFFFFFFFFFFFFFFFFFFFFFFFFF AND PUSH20 0xFFFFFFFFFFFFFFFFFFFFFFFFFFFFFFFFFFFFFFFF AND DUP2 MSTORE PUSH1 0x20 ADD SWAP1 DUP2 MSTORE PUSH1 0x20 ADD PUSH0 KECCAK256 SLOAD LT ISZERO PUSH2 0xA6A JUMPI PUSH1 0x40 MLOAD PUSH32 0x8C379A000000000000000000000000000000000000000000000000000000000 DUP2 MSTORE PUSH1 0x4 ADD PUSH2 0xA61 SWAP1 PUSH2 0x14ED JUMP JUMPDEST PUSH1 0x40 MLOAD DUP1 SWAP2 SUB SWAP1 REVERT JUMPDEST DUP1 PUSH1 0x7 PUSH0 CALLER PUSH20 0xFFFFFFFFFFFFFFFFFFFFFFFFFFFFFFFFFFFFFFFF AND PUSH20 0xFFFFFFFFFFFFFFFFFFFFFFFFFFFFFFFFFFFFFFFF AND DUP2 MSTORE PUSH1 0x20 ADD SWAP1 DUP2 MSTORE PUSH1 0x20 ADD PUSH0 KECCAK256 PUSH0 DUP3 DUP3 SLOAD PUSH2 0xAB6 SWAP2 SWAP1 PUSH2 0x128F JUMP JUMPDEST SWAP3 POP POP DUP2 SWAP1 SSTORE POP PUSH0 CALLER PUSH20 0xFFFFFFFFFFFFFFFFFFFFFFFFFFFFFFFFFFFFFFFF AND DUP3 PUSH1 0x40 MLOAD PUSH2 0xAE2 SWAP1 PUSH2 0x1427 JUMP JUMPDEST PUSH0 PUSH1 0x40 MLOAD DUP1 DUP4 SUB DUP2 DUP6 DUP8 GAS CALL SWAP3 POP POP POP RETURNDATASIZE DUP1 PUSH0 DUP2 EQ PUSH2 0xB1C JUMPI PUSH1 0x40 MLOAD SWAP2 POP PUSH1 0x1F NOT PUSH1 0x3F RETURNDATASIZE ADD AND DUP3 ADD PUSH1 0x40 MSTORE RETURNDATASIZE DUP3 MSTORE RETURNDATASIZE PUSH0 PUSH1 0x20 DUP5 ADD RETURNDATACOPY PUSH2 0xB21 JUMP JUMPDEST PUSH1 0x60 SWAP2 POP JUMPDEST POP POP SWAP1 POP DUP1 PUSH2 0xB65 JUMPI PUSH1 0x40 MLOAD PUSH32 0x8C379A000000000000000000000000000000000000000000000000000000000 DUP2 MSTORE PUSH1 0x4 ADD PUSH2 0xB5C SWAP1 PUSH2 0x1485 JUMP JUMPDEST PUSH1 0x40 MLOAD DUP1 SWAP2 SUB SWAP1 REVERT JUMPDEST POP POP JUMP JUMPDEST PUSH0 DUP1 SLOAD SWAP1 PUSH2 0x100 EXP SWAP1 DIV PUSH20 0xFFFFFFFFFFFFFFFFFFFFFFFFFFFFFFFFFFFFFFFF AND DUP2 JUMP JUMPDEST PUSH1 0x4 PUSH0 SWAP1 SLOAD SWAP1 PUSH2 0x100 EXP SWAP1 DIV PUSH20 0xFFFFFFFFFFFFFFFFFFFFFFFFFFFFFFFFFFFFFFFF AND DUP2 JUMP JUMPDEST PUSH1 0x6 SLOAD DUP2 JUMP JUMPDEST PUSH0 DUP1 PUSH1 0x2 SLOAD TIMESTAMP LT ISZERO PUSH2 0xBFE JUMPI PUSH1 0x40 MLOAD PUSH32 0x8C379A000000000000000000000000000000000000000000000000000000000 DUP2 MSTORE PUSH1 0x4 ADD PUSH2 0xBF5 SWAP1 PUSH2 0x130C JUMP JUMPDEST PUSH1 0x40 MLOAD DUP1 SWAP2 SUB SWAP1 REVERT JUMPDEST PUSH1 0x4 PUSH0 SWAP1 SLOAD SWAP1 PUSH2 0x100 EXP SWAP1 DIV PUSH20 0xFFFFFFFFFFFFFFFFFFFFFFFFFFFFFFFFFFFFFFFF AND PUSH1 0x3 SLOAD SWAP2 POP SWAP2 POP SWAP1 SWAP2 JUMP JUMPDEST PUSH1 0x3 SLOAD DUP2 JUMP JUMPDEST PUSH1 0x5 SLOAD DUP2 JUMP JUMPDEST PUSH1 0x7 PUSH1 0x20 MSTORE DUP1 PUSH0 MSTORE PUSH1 0x40 PUSH0 KECCAK256 PUSH0 SWAP2 POP SWAP1 POP SLOAD DUP2 JUMP JUMPDEST PUSH0 DUP1 SLOAD SWAP1 PUSH2 0x100 EXP SWAP1 DIV PUSH20 0xFFFFFFFFFFFFFFFFFFFFFFFFFFFFFFFFFFFFFFFF AND PUSH20 0xFFFFFFFFFFFFFFFFFFFFFFFFFFFFFFFFFFFFFFFF AND CALLER PUSH20 0xFFFFFFFFFFFFFFFFFFFFFFFFFFFFFFFFFFFFFFFF AND EQ PUSH2 0xCD9 JUMPI PUSH1 0x40 MLOAD PUSH32 0x8C379A000000000000000000000000000000000000000000000000000000000 DUP2 MSTORE PUSH1 0x4 ADD PUSH2 0xCD0 SWAP1 PUSH2 0x157B JUMP JUMPDEST PUSH1 0x40 MLOAD DUP1 SWAP2 SUB SWAP1 REVERT JUMPDEST PUSH1 0x2 SLOAD TIMESTAMP LT ISZERO PUSH2 0xD1E JUMPI PUSH1 0x40 MLOAD PUSH32 0x8C379A000000000000000000000000000000000000000000000000000000000 DUP2 MSTORE PUSH1 0x4 ADD PUSH2 0xD15 SWAP1 PUSH2 0x130C JUMP JUMPDEST PUSH1 0x40 MLOAD DUP1 SWAP2 SUB SWAP1 REVERT JUMPDEST PUSH1 0x4 PUSH1 0x14 SWAP1 SLOAD SWAP1 PUSH2 0x100 EXP SWAP1 DIV PUSH1 0xFF AND ISZERO PUSH2 0xD6E JUMPI PUSH1 0x40 MLOAD PUSH32 0x8C379A000000000000000000000000000000000000000000000000000000000 DUP2 MSTORE PUSH1 0x4 ADD PUSH2 0xD65 SWAP1 PUSH2 0x1609 JUMP JUMPDEST PUSH1 0x40 MLOAD DUP1 SWAP2 SUB SWAP1 REVERT JUMPDEST PUSH1 0x1 PUSH1 0x4 PUSH1 0x14 PUSH2 0x100 EXP DUP2 SLOAD DUP2 PUSH1 0xFF MUL NOT AND SWAP1 DUP4 ISZERO ISZERO MUL OR SWAP1 SSTORE POP PUSH32 0xDAEC4582D5D9595688C8C98545FDD1C696D41C6AEAEB636737E84ED2F5C00EDA PUSH1 0x4 PUSH0 SWAP1 SLOAD SWAP1 PUSH2 0x100 EXP SWAP1 DIV PUSH20 0xFFFFFFFFFFFFFFFFFFFFFFFFFFFFFFFFFFFFFFFF AND PUSH1 0x3 SLOAD PUSH1 0x40 MLOAD PUSH2 0xDDD SWAP3 SWAP2 SWAP1 PUSH2 0xFF6 JUMP JUMPDEST PUSH1 0x40 MLOAD DUP1 SWAP2 SUB SWAP1 LOG1 JUMP JUMPDEST PUSH0 DUP2 ISZERO ISZERO SWAP1 POP SWAP2 SWAP1 POP JUMP JUMPDEST PUSH2 0xDFB DUP2 PUSH2 0xDE7 JUMP JUMPDEST DUP3 MSTORE POP POP JUMP JUMPDEST PUSH0 PUSH1 0x20 DUP3 ADD SWAP1 POP PUSH2 0xE14 PUSH0 DUP4 ADD DUP5 PUSH2 0xDF2 JUMP JUMPDEST SWAP3 SWAP2 POP POP JUMP JUMPDEST PUSH0 DUP2 MLOAD SWAP1 POP SWAP2 SWAP1 POP JUMP JUMPDEST PUSH0 DUP3 DUP3 MSTORE PUSH1 0x20 DUP3 ADD SWAP1 POP SWAP3 SWAP2 POP POP JUMP JUMPDEST PUSH0 DUP2 SWAP1 POP PUSH1 0x20 DUP3 ADD SWAP1 POP SWAP2 SWAP1 POP JUMP JUMPDEST PUSH0 PUSH20 0xFFFFFFFFFFFFFFFFFFFFFFFFFFFFFFFFFFFFFFFF DUP3 AND SWAP1 POP SWAP2 SWAP1 POP JUMP JUMPDEST PUSH0 PUSH2 0xE6C DUP3 PUSH2 0xE43 JUMP JUMPDEST SWAP1 POP SWAP2 SWAP1 POP JUMP JUMPDEST PUSH2 0xE7C DUP2 PUSH2 0xE62 JUMP JUMPDEST DUP3 MSTORE POP POP JUMP JUMPDEST PUSH0 DUP2 SWAP1 POP SWAP2 SWAP1 POP JUMP JUMPDEST PUSH2 0xE94 DUP2 PUSH2 0xE82 JUMP JUMPDEST DUP3 MSTORE POP POP JUMP JUMPDEST PUSH1 0x40 DUP3 ADD PUSH0 DUP3 ADD MLOAD PUSH2 0xEAE PUSH0 DUP6 ADD DUP3 PUSH2 0xE73 JUMP JUMPDEST POP PUSH1 0x20 DUP3 ADD MLOAD PUSH2 0xEC1 PUSH1 0x20 DUP6 ADD DUP3 PUSH2 0xE8B JUMP JUMPDEST POP POP POP POP JUMP JUMPDEST PUSH0 PUSH2 0xED2 DUP4 DUP4 PUSH2 0xE9A JUMP JUMPDEST PUSH1 0x40 DUP4 ADD SWAP1 POP SWAP3 SWAP2 POP POP JUMP JUMPDEST PUSH0 PUSH1 0x20 DUP3 ADD SWAP1 POP SWAP2 SWAP1 POP JUMP JUMPDEST PUSH0 PUSH2 0xEF4 DUP3 PUSH2 0xE1A JUMP JUMPDEST PUSH2 0xEFE DUP2 DUP6 PUSH2 0xE24 JUMP JUMPDEST SWAP4 POP PUSH2 0xF09 DUP4 PUSH2 0xE34 JUMP JUMPDEST DUP1 PUSH0 JUMPDEST DUP4 DUP2 LT ISZERO PUSH2 0xF39 JUMPI DUP2 MLOAD PUSH2 0xF20 DUP9 DUP3 PUSH2 0xEC7 JUMP JUMPDEST SWAP8 POP PUSH2 0xF2B DUP4 PUSH2 0xEDE JUMP JUMPDEST SWAP3 POP POP PUSH1 0x1 DUP2 ADD SWAP1 POP PUSH2 0xF0C JUMP JUMPDEST POP DUP6 SWAP4 POP POP POP POP SWAP3 SWAP2 POP POP JUMP JUMPDEST PUSH0 PUSH1 0x20 DUP3 ADD SWAP1 POP DUP2 DUP2 SUB PUSH0 DUP4 ADD MSTORE PUSH2 0xF5E DUP2 DUP5 PUSH2 0xEEA JUMP JUMPDEST SWAP1 POP SWAP3 SWAP2 POP POP JUMP JUMPDEST PUSH2 0xF6F DUP2 PUSH2 0xE82 JUMP JUMPDEST DUP3 MSTORE POP POP JUMP JUMPDEST PUSH0 PUSH1 0x20 DUP3 ADD SWAP1 POP PUSH2 0xF88 PUSH0 DUP4 ADD DUP5 PUSH2 0xF66 JUMP JUMPDEST SWAP3 SWAP2 POP POP JUMP JUMPDEST PUSH0 DUP1 REVERT JUMPDEST PUSH2 0xF9B DUP2 PUSH2 0xE82 JUMP JUMPDEST DUP2 EQ PUSH2 0xFA5 JUMPI PUSH0 DUP1 REVERT JUMPDEST POP JUMP JUMPDEST PUSH0 DUP2 CALLDATALOAD SWAP1 POP PUSH2 0xFB6 DUP2 PUSH2 0xF92 JUMP JUMPDEST SWAP3 SWAP2 POP POP JUMP JUMPDEST PUSH0 PUSH1 0x20 DUP3 DUP5 SUB SLT ISZERO PUSH2 0xFD1 JUMPI PUSH2 0xFD0 PUSH2 0xF8E JUMP JUMPDEST JUMPDEST PUSH0 PUSH2 0xFDE DUP5 DUP3 DUP6 ADD PUSH2 0xFA8 JUMP JUMPDEST SWAP2 POP POP SWAP3 SWAP2 POP POP JUMP JUMPDEST PUSH2 0xFF0 DUP2 PUSH2 0xE62 JUMP JUMPDEST DUP3 MSTORE POP POP JUMP JUMPDEST PUSH0 PUSH1 0x40 DUP3 ADD SWAP1 POP PUSH2 0x1009 PUSH0 DUP4 ADD DUP6 PUSH2 0xFE7 JUMP JUMPDEST PUSH2 0x1016 PUSH1 0x20 DUP4 ADD DUP5 PUSH2 0xF66 JUMP JUMPDEST SWAP4 SWAP3 POP POP POP JUMP JUMPDEST PUSH0 PUSH1 0x20 DUP3 ADD SWAP1 POP PUSH2 0x1030 PUSH0 DUP4 ADD DUP5 PUSH2 0xFE7 JUMP JUMPDEST SWAP3 SWAP2 POP POP JUMP JUMPDEST PUSH2 0x103F DUP2 PUSH2 0xE62 JUMP JUMPDEST DUP2 EQ PUSH2 0x1049 JUMPI PUSH0 DUP1 REVERT JUMPDEST POP JUMP JUMPDEST PUSH0 DUP2 CALLDATALOAD SWAP1 POP PUSH2 0x105A DUP2 PUSH2 0x1036 JUMP JUMPDEST SWAP3 SWAP2 POP POP JUMP JUMPDEST PUSH0 PUSH1 0x20 DUP3 DUP5 SUB SLT ISZERO PUSH2 0x1075 JUMPI PUSH2 0x1074 PUSH2 0xF8E JUMP JUMPDEST JUMPDEST PUSH0 PUSH2 0x1082 DUP5 DUP3 DUP6 ADD PUSH2 0x104C JUMP JUMPDEST SWAP2 POP POP SWAP3 SWAP2 POP POP JUMP JUMPDEST PUSH0 DUP3 DUP3 MSTORE PUSH1 0x20 DUP3 ADD SWAP1 POP SWAP3 SWAP2 POP POP JUMP JUMPDEST PUSH32 0x4C6120737562617374612068612066696E616C697A61646F2E00000000000000 PUSH0 DUP3 ADD MSTORE POP JUMP JUMPDEST PUSH0 PUSH2 0x10CF PUSH1 0x19 DUP4 PUSH2 0x108B JUMP JUMPDEST SWAP2 POP PUSH2 0x10DA DUP3 PUSH2 0x109B JUMP JUMPDEST PUSH1 0x20 DUP3 ADD SWAP1 POP SWAP2 SWAP1 POP JUMP JUMPDEST PUSH0 PUSH1 0x20 DUP3 ADD SWAP1 POP DUP2 DUP2 SUB PUSH0 DUP4 ADD MSTORE PUSH2 0x10FC DUP2 PUSH2 0x10C3 JUMP JUMPDEST SWAP1 POP SWAP2 SWAP1 POP JUMP JUMPDEST PUSH32 0x4E487B7100000000000000000000000000000000000000000000000000000000 PUSH0 MSTORE PUSH1 0x11 PUSH1 0x4 MSTORE PUSH1 0x24 PUSH0 REVERT JUMPDEST PUSH0 PUSH2 0x113A DUP3 PUSH2 0xE82 JUMP JUMPDEST SWAP2 POP PUSH2 0x1145 DUP4 PUSH2 0xE82 JUMP JUMPDEST SWAP3 POP DUP3 DUP3 ADD SWAP1 POP DUP1 DUP3 GT ISZERO PUSH2 0x115D JUMPI PUSH2 0x115C PUSH2 0x1103 JUMP JUMPDEST JUMPDEST SWAP3 SWAP2 POP POP JUMP JUMPDEST PUSH0 PUSH2 0x116D DUP3 PUSH2 0xE82 JUMP JUMPDEST SWAP2 POP PUSH2 0x1178 DUP4 PUSH2 0xE82 JUMP JUMPDEST SWAP3 POP DUP3 DUP3 MUL PUSH2 0x1186 DUP2 PUSH2 0xE82 JUMP JUMPDEST SWAP2 POP DUP3 DUP3 DIV DUP5 EQ DUP4 ISZERO OR PUSH2 0x119D JUMPI PUSH2 0x119C PUSH2 0x1103 JUMP JUMPDEST JUMPDEST POP SWAP3 SWAP2 POP POP JUMP JUMPDEST PUSH32 0x4E487B7100000000000000000000000000000000000000000000000000000000 PUSH0 MSTORE PUSH1 0x12 PUSH1 0x4 MSTORE PUSH1 0x24 PUSH0 REVERT JUMPDEST PUSH0 PUSH2 0x11DB DUP3 PUSH2 0xE82 JUMP JUMPDEST SWAP2 POP PUSH2 0x11E6 DUP4 PUSH2 0xE82 JUMP JUMPDEST SWAP3 POP DUP3 PUSH2 0x11F6 JUMPI PUSH2 0x11F5 PUSH2 0x11A4 JUMP JUMPDEST JUMPDEST DUP3 DUP3 DIV SWAP1 POP SWAP3 SWAP2 POP POP JUMP JUMPDEST PUSH32 0x4C61206F666572746120646562652073657220616C206D656E6F73203525206D PUSH0 DUP3 ADD MSTORE PUSH32 0x61796F722061206C61206F66657274612061637475616C2E0000000000000000 PUSH1 0x20 DUP3 ADD MSTORE POP JUMP JUMPDEST PUSH0 PUSH2 0x125B PUSH1 0x38 DUP4 PUSH2 0x108B JUMP JUMPDEST SWAP2 POP PUSH2 0x1266 DUP3 PUSH2 0x1201 JUMP JUMPDEST PUSH1 0x40 DUP3 ADD SWAP1 POP SWAP2 SWAP1 POP JUMP JUMPDEST PUSH0 PUSH1 0x20 DUP3 ADD SWAP1 POP DUP2 DUP2 SUB PUSH0 DUP4 ADD MSTORE PUSH2 0x1288 DUP2 PUSH2 0x124F JUMP JUMPDEST SWAP1 POP SWAP2 SWAP1 POP JUMP JUMPDEST PUSH0 PUSH2 0x1299 DUP3 PUSH2 0xE82 JUMP JUMPDEST SWAP2 POP PUSH2 0x12A4 DUP4 PUSH2 0xE82 JUMP JUMPDEST SWAP3 POP DUP3 DUP3 SUB SWAP1 POP DUP2 DUP2 GT ISZERO PUSH2 0x12BC JUMPI PUSH2 0x12BB PUSH2 0x1103 JUMP JUMPDEST JUMPDEST SWAP3 SWAP2 POP POP JUMP JUMPDEST PUSH32 0x4C612073756261737461207369677565206163746976612E0000000000000000 PUSH0 DUP3 ADD MSTORE POP JUMP JUMPDEST PUSH0 PUSH2 0x12F6 PUSH1 0x18 DUP4 PUSH2 0x108B JUMP JUMPDEST SWAP2 POP PUSH2 0x1301 DUP3 PUSH2 0x12C2 JUMP JUMPDEST PUSH1 0x20 DUP3 ADD SWAP1 POP SWAP2 SWAP1 POP JUMP JUMPDEST PUSH0 PUSH1 0x20 DUP3 ADD SWAP1 POP DUP2 DUP2 SUB PUSH0 DUP4 ADD MSTORE PUSH2 0x1323 DUP2 PUSH2 0x12EA JUMP JUMPDEST SWAP1 POP SWAP2 SWAP1 POP JUMP JUMPDEST PUSH32 0x456C2067616E61646F72206E6F20707565646520726574697261722E00000000 PUSH0 DUP3 ADD MSTORE POP JUMP JUMPDEST PUSH0 PUSH2 0x135E PUSH1 0x1C DUP4 PUSH2 0x108B JUMP JUMPDEST SWAP2 POP PUSH2 0x1369 DUP3 PUSH2 0x132A JUMP JUMPDEST PUSH1 0x20 DUP3 ADD SWAP1 POP SWAP2 SWAP1 POP JUMP JUMPDEST PUSH0 PUSH1 0x20 DUP3 ADD SWAP1 POP DUP2 DUP2 SUB PUSH0 DUP4 ADD MSTORE PUSH2 0x138B DUP2 PUSH2 0x1352 JUMP JUMPDEST SWAP1 POP SWAP2 SWAP1 POP JUMP JUMPDEST PUSH32 0x4E6F2068617920666F6E646F73207061726120726574697261722E0000000000 PUSH0 DUP3 ADD MSTORE POP JUMP JUMPDEST PUSH0 PUSH2 0x13C6 PUSH1 0x1B DUP4 PUSH2 0x108B JUMP JUMPDEST SWAP2 POP PUSH2 0x13D1 DUP3 PUSH2 0x1392 JUMP JUMPDEST PUSH1 0x20 DUP3 ADD SWAP1 POP SWAP2 SWAP1 POP JUMP JUMPDEST PUSH0 PUSH1 0x20 DUP3 ADD SWAP1 POP DUP2 DUP2 SUB PUSH0 DUP4 ADD MSTORE PUSH2 0x13F3 DUP2 PUSH2 0x13BA JUMP JUMPDEST SWAP1 POP SWAP2 SWAP1 POP JUMP JUMPDEST PUSH0 DUP2 SWAP1 POP SWAP3 SWAP2 POP POP JUMP JUMPDEST POP JUMP JUMPDEST PUSH0 PUSH2 0x1412 PUSH0 DUP4 PUSH2 0x13FA JUMP JUMPDEST SWAP2 POP PUSH2 0x141D DUP3 PUSH2 0x1404 JUMP JUMPDEST PUSH0 DUP3 ADD SWAP1 POP SWAP2 SWAP1 POP JUMP JUMPDEST PUSH0 PUSH2 0x1431 DUP3 PUSH2 0x1407 JUMP JUMPDEST SWAP2 POP DUP2 SWAP1 POP SWAP2 SWAP1 POP JUMP JUMPDEST PUSH32 0x456C2072657469726F2066616C6C6F2E00000000000000000000000000000000 PUSH0 DUP3 ADD MSTORE POP JUMP JUMPDEST PUSH0 PUSH2 0x146F PUSH1 0x10 DUP4 PUSH2 0x108B JUMP JUMPDEST SWAP2 POP PUSH2 0x147A DUP3 PUSH2 0x143B JUMP JUMPDEST PUSH1 0x20 DUP3 ADD SWAP1 POP SWAP2 SWAP1 POP JUMP JUMPDEST PUSH0 PUSH1 0x20 DUP3 ADD SWAP1 POP DUP2 DUP2 SUB PUSH0 DUP4 ADD MSTORE PUSH2 0x149C DUP2 PUSH2 0x1463 JUMP JUMPDEST SWAP1 POP SWAP2 SWAP1 POP JUMP JUMPDEST PUSH32 0x4E6F207469656E657320737566696369656E7465206465706F7369746F2E0000 PUSH0 DUP3 ADD MSTORE POP JUMP JUMPDEST PUSH0 PUSH2 0x14D7 PUSH1 0x1E DUP4 PUSH2 0x108B JUMP JUMPDEST SWAP2 POP PUSH2 0x14E2 DUP3 PUSH2 0x14A3 JUMP JUMPDEST PUSH1 0x20 DUP3 ADD SWAP1 POP SWAP2 SWAP1 POP JUMP JUMPDEST PUSH0 PUSH1 0x20 DUP3 ADD SWAP1 POP DUP2 DUP2 SUB PUSH0 DUP4 ADD MSTORE PUSH2 0x1504 DUP2 PUSH2 0x14CB JUMP JUMPDEST SWAP1 POP SWAP2 SWAP1 POP JUMP JUMPDEST PUSH32 0x536F6C6F20656C2070726F706965746172696F20707565646520656A65637574 PUSH0 DUP3 ADD MSTORE PUSH32 0x617220657374612066756E63696F6E2E00000000000000000000000000000000 PUSH1 0x20 DUP3 ADD MSTORE POP JUMP JUMPDEST PUSH0 PUSH2 0x1565 PUSH1 0x30 DUP4 PUSH2 0x108B JUMP JUMPDEST SWAP2 POP PUSH2 0x1570 DUP3 PUSH2 0x150B JUMP JUMPDEST PUSH1 0x40 DUP3 ADD SWAP1 POP SWAP2 SWAP1 POP JUMP JUMPDEST PUSH0 PUSH1 0x20 DUP3 ADD SWAP1 POP DUP2 DUP2 SUB PUSH0 DUP4 ADD MSTORE PUSH2 0x1592 DUP2 PUSH2 0x1559 JUMP JUMPDEST SWAP1 POP SWAP2 SWAP1 POP JUMP JUMPDEST PUSH32 0x4C612073756261737461207961206861207369646F2066696E616C697A616461 PUSH0 DUP3 ADD MSTORE PUSH32 0x2E00000000000000000000000000000000000000000000000000000000000000 PUSH1 0x20 DUP3 ADD MSTORE POP JUMP JUMPDEST PUSH0 PUSH2 0x15F3 PUSH1 0x21 DUP4 PUSH2 0x108B JUMP JUMPDEST SWAP2 POP PUSH2 0x15FE DUP3 PUSH2 0x1599 JUMP JUMPDEST PUSH1 0x40 DUP3 ADD SWAP1 POP SWAP2 SWAP1 POP JUMP JUMPDEST PUSH0 PUSH1 0x20 DUP3 ADD SWAP1 POP DUP2 DUP2 SUB PUSH0 DUP4 ADD MSTORE PUSH2 0x1620 DUP2 PUSH2 0x15E7 JUMP JUMPDEST SWAP1 POP SWAP2 SWAP1 POP JUMP INVALID LOG2 PUSH5 0x6970667358 0x22 SLT KECCAK256 ORIGIN BALANCE 0x2E INVALID 0xC1 SWAP8 PUSH30 0x9714632C16736B9653BF14315A14AAFE69E100C88DD9FDD7B664736F6C63 NUMBER STOP ADDMOD BYTE STOP CALLER "
				},
				"gasEstimates": {
					"creation": {
						"codeDepositCost": "1145000",
						"executionCost": "69662",
						"totalCost": "1214662"
					},
					"external": {
						"auctionEndTime()": "2492",
						"bid()": "infinite",
						"bids(uint256)": "infinite",
						"deposits(address)": "2868",
						"endAuction()": "36874",
						"ended()": "2541",
						"extensionThreshold()": "2492",
						"extensionTime()": "2469",
						"highestBid()": "2447",
						"highestBidder()": "2553",
						"initialPrice()": "2515",
						"owner()": "2528",
						"partialWithdraw(uint256)": "infinite",
						"showBids()": "infinite",
						"showWinner()": "6942",
						"withdraw()": "infinite"
					}
				},
				"methodIdentifiers": {
					"auctionEndTime()": "4b449cba",
					"bid()": "1998aeef",
					"bids(uint256)": "4423c5f1",
					"deposits(address)": "fc7e286d",
					"endAuction()": "fe67a54b",
					"ended()": "12fa6feb",
					"extensionThreshold()": "aaad413f",
					"extensionTime()": "eeed1b26",
					"highestBid()": "d57bde79",
					"highestBidder()": "91f90157",
					"initialPrice()": "1d0806ae",
					"owner()": "8da5cb5b",
					"partialWithdraw(uint256)": "71d2ee6c",
					"showBids()": "14d2687c",
					"showWinner()": "b7e03264",
					"withdraw()": "3ccfd60b"
				}
			},
			"storageLayout": {
				"storage": [
					{
						"astId": 3,
						"contract": "auction3.sol:Auction",
						"label": "owner",
						"offset": 0,
						"slot": "0",
						"type": "t_address"
					},
					{
						"astId": 5,
						"contract": "auction3.sol:Auction",
						"label": "initialPrice",
						"offset": 0,
						"slot": "1",
						"type": "t_uint256"
					},
					{
						"astId": 7,
						"contract": "auction3.sol:Auction",
						"label": "auctionEndTime",
						"offset": 0,
						"slot": "2",
						"type": "t_uint256"
					},
					{
						"astId": 9,
						"contract": "auction3.sol:Auction",
						"label": "highestBid",
						"offset": 0,
						"slot": "3",
						"type": "t_uint256"
					},
					{
						"astId": 11,
						"contract": "auction3.sol:Auction",
						"label": "highestBidder",
						"offset": 0,
						"slot": "4",
						"type": "t_address"
					},
					{
						"astId": 13,
						"contract": "auction3.sol:Auction",
						"label": "ended",
						"offset": 20,
						"slot": "4",
						"type": "t_bool"
					},
					{
						"astId": 16,
						"contract": "auction3.sol:Auction",
						"label": "extensionTime",
						"offset": 0,
						"slot": "5",
						"type": "t_uint256"
					},
					{
						"astId": 19,
						"contract": "auction3.sol:Auction",
						"label": "extensionThreshold",
						"offset": 0,
						"slot": "6",
						"type": "t_uint256"
					},
					{
						"astId": 28,
						"contract": "auction3.sol:Auction",
						"label": "deposits",
						"offset": 0,
						"slot": "7",
						"type": "t_mapping(t_address,t_uint256)"
					},
					{
						"astId": 32,
						"contract": "auction3.sol:Auction",
						"label": "bids",
						"offset": 0,
						"slot": "8",
						"type": "t_array(t_struct(Bid)24_storage)dyn_storage"
					}
				],
				"types": {
					"t_address": {
						"encoding": "inplace",
						"label": "address",
						"numberOfBytes": "20"
					},
					"t_array(t_struct(Bid)24_storage)dyn_storage": {
						"base": "t_struct(Bid)24_storage",
						"encoding": "dynamic_array",
						"label": "struct Auction.Bid[]",
						"numberOfBytes": "32"
					},
					"t_bool": {
						"encoding": "inplace",
						"label": "bool",
						"numberOfBytes": "1"
					},
					"t_mapping(t_address,t_uint256)": {
						"encoding": "mapping",
						"key": "t_address",
						"label": "mapping(address => uint256)",
						"numberOfBytes": "32",
						"value": "t_uint256"
					},
					"t_struct(Bid)24_storage": {
						"encoding": "inplace",
						"label": "struct Auction.Bid",
						"members": [
							{
								"astId": 21,
								"contract": "auction3.sol:Auction",
								"label": "bidder",
								"offset": 0,
								"slot": "0",
								"type": "t_address"
							},
							{
								"astId": 23,
								"contract": "auction3.sol:Auction",
								"label": "amount",
								"offset": 0,
								"slot": "1",
								"type": "t_uint256"
							}
						],
						"numberOfBytes": "64"
					},
					"t_uint256": {
						"encoding": "inplace",
						"label": "uint256",
						"numberOfBytes": "32"
					}
				}
			},
			"userdoc": {
				"kind": "user",
				"methods": {},
				"version": 1
			}
		}
	}
}