{
	"auction2.sol": {
		"Auction": {
			"abi": [
				{
					"inputs": [
						{
							"internalType": "uint256",
							"name": "duration",
							"type": "uint256"
						}
					],
					"stateMutability": "nonpayable",
					"type": "constructor"
				},
				{
					"anonymous": false,
					"inputs": [
						{
							"indexed": false,
							"internalType": "address",
							"name": "winner",
							"type": "address"
						},
						{
							"indexed": false,
							"internalType": "uint256",
							"name": "amount",
							"type": "uint256"
						}
					],
					"name": "AuctionEnded",
					"type": "event"
				},
				{
					"anonymous": false,
					"inputs": [
						{
							"indexed": true,
							"internalType": "address",
							"name": "bidder",
							"type": "address"
						},
						{
							"indexed": false,
							"internalType": "uint256",
							"name": "amount",
							"type": "uint256"
						}
					],
					"name": "NewBid",
					"type": "event"
				},
				{
					"inputs": [],
					"name": "auctionEnded",
					"outputs": [
						{
							"internalType": "bool",
							"name": "",
							"type": "bool"
						}
					],
					"stateMutability": "view",
					"type": "function"
				},
				{
					"inputs": [],
					"name": "bid",
					"outputs": [],
					"stateMutability": "payable",
					"type": "function"
				},
				{
					"inputs": [
						{
							"internalType": "uint256",
							"name": "",
							"type": "uint256"
						}
					],
					"name": "bids",
					"outputs": [
						{
							"internalType": "address",
							"name": "bidder",
							"type": "address"
						},
						{
							"internalType": "uint256",
							"name": "amount",
							"type": "uint256"
						}
					],
					"stateMutability": "view",
					"type": "function"
				},
				{
					"inputs": [],
					"name": "endAuction",
					"outputs": [],
					"stateMutability": "nonpayable",
					"type": "function"
				},
				{
					"inputs": [],
					"name": "endTime",
					"outputs": [
						{
							"internalType": "uint256",
							"name": "",
							"type": "uint256"
						}
					],
					"stateMutability": "view",
					"type": "function"
				},
				{
					"inputs": [],
					"name": "getBids",
					"outputs": [
						{
							"components": [
								{
									"internalType": "address",
									"name": "bidder",
									"type": "address"
								},
								{
									"internalType": "uint256",
									"name": "amount",
									"type": "uint256"
								}
							],
							"internalType": "struct Auction.Bid[]",
							"name": "",
							"type": "tuple[]"
						}
					],
					"stateMutability": "view",
					"type": "function"
				},
				{
					"inputs": [],
					"name": "highestBid",
					"outputs": [
						{
							"internalType": "uint256",
							"name": "",
							"type": "uint256"
						}
					],
					"stateMutability": "view",
					"type": "function"
				},
				{
					"inputs": [],
					"name": "highestBidder",
					"outputs": [
						{
							"internalType": "address",
							"name": "",
							"type": "address"
						}
					],
					"stateMutability": "view",
					"type": "function"
				},
				{
					"inputs": [],
					"name": "owner",
					"outputs": [
						{
							"internalType": "address",
							"name": "",
							"type": "address"
						}
					],
					"stateMutability": "view",
					"type": "function"
				},
				{
					"inputs": [],
					"name": "showWinner",
					"outputs": [
						{
							"internalType": "address",
							"name": "winner",
							"type": "address"
						},
						{
							"internalType": "uint256",
							"name": "amount",
							"type": "uint256"
						}
					],
					"stateMutability": "view",
					"type": "function"
				},
				{
					"inputs": [],
					"name": "withdraw",
					"outputs": [],
					"stateMutability": "nonpayable",
					"type": "function"
				},
				{
					"inputs": [
						{
							"internalType": "uint256",
							"name": "amount",
							"type": "uint256"
						}
					],
					"name": "withdrawPartial",
					"outputs": [],
					"stateMutability": "nonpayable",
					"type": "function"
				}
			],
			"devdoc": {
				"kind": "dev",
				"methods": {},
				"version": 1
			},
			"evm": {
				"assembly": "    /* \"auction2.sol\":60:3496  contract Auction {... */\n  mstore(0x40, 0x80)\n    /* \"auction2.sol\":917:1093  constructor(uint256 duration) {... */\n  callvalue\n  dup1\n  iszero\n  tag_1\n  jumpi\n  0x00\n  dup1\n  revert\ntag_1:\n  pop\n  mload(0x40)\n  sub(codesize, bytecodeSize)\n  dup1\n  bytecodeSize\n  dup4\n  codecopy\n  dup2\n  dup2\n  add\n  0x40\n  mstore\n  dup2\n  add\n  swap1\n  tag_2\n  swap2\n  swap1\n  tag_3\n  jump\t// in\ntag_2:\n    /* \"auction2.sol\":966:976  msg.sender */\n  caller\n    /* \"auction2.sol\":958:963  owner */\n  0x00\n  dup1\n    /* \"auction2.sol\":958:976  owner = msg.sender */\n  0x0100\n  exp\n  dup2\n  sload\n  dup2\n  0xffffffffffffffffffffffffffffffffffffffff\n  mul\n  not\n  and\n  swap1\n  dup4\n  0xffffffffffffffffffffffffffffffffffffffff\n  and\n  mul\n  or\n  swap1\n  sstore\n  pop\n    /* \"auction2.sol\":1000:1007  10 gwei */\n  0x02540be400\n    /* \"auction2.sol\":987:997  highestBid */\n  0x01\n    /* \"auction2.sol\":987:1007  highestBid = 10 gwei */\n  dup2\n  swap1\n  sstore\n  pop\n    /* \"auction2.sol\":1077:1085  duration */\n  dup1\n    /* \"auction2.sol\":1059:1074  block.timestamp */\n  timestamp\n    /* \"auction2.sol\":1059:1085  block.timestamp + duration */\n  tag_6\n  swap2\n  swap1\n  tag_7\n  jump\t// in\ntag_6:\n    /* \"auction2.sol\":1049:1056  endTime */\n  0x03\n    /* \"auction2.sol\":1049:1085  endTime = block.timestamp + duration */\n  dup2\n  swap1\n  sstore\n  pop\n    /* \"auction2.sol\":917:1093  constructor(uint256 duration) {... */\n  pop\n    /* \"auction2.sol\":60:3496  contract Auction {... */\n  jump(tag_8)\n    /* \"#utility.yul\":88:205   */\ntag_10:\n    /* \"#utility.yul\":197:198   */\n  0x00\n    /* \"#utility.yul\":194:195   */\n  dup1\n    /* \"#utility.yul\":187:199   */\n  revert\n    /* \"#utility.yul\":334:411   */\ntag_12:\n    /* \"#utility.yul\":371:378   */\n  0x00\n    /* \"#utility.yul\":400:405   */\n  dup2\n    /* \"#utility.yul\":389:405   */\n  swap1\n  pop\n    /* \"#utility.yul\":334:411   */\n  swap2\n  swap1\n  pop\n  jump\t// out\n    /* \"#utility.yul\":417:539   */\ntag_13:\n    /* \"#utility.yul\":490:514   */\n  tag_22\n    /* \"#utility.yul\":508:513   */\n  dup2\n    /* \"#utility.yul\":490:514   */\n  tag_12\n  jump\t// in\ntag_22:\n    /* \"#utility.yul\":483:488   */\n  dup2\n    /* \"#utility.yul\":480:515   */\n  eq\n    /* \"#utility.yul\":470:533   */\n  tag_23\n  jumpi\n    /* \"#utility.yul\":529:530   */\n  0x00\n    /* \"#utility.yul\":526:527   */\n  dup1\n    /* \"#utility.yul\":519:531   */\n  revert\n    /* \"#utility.yul\":470:533   */\ntag_23:\n    /* \"#utility.yul\":417:539   */\n  pop\n  jump\t// out\n    /* \"#utility.yul\":545:688   */\ntag_14:\n    /* \"#utility.yul\":602:607   */\n  0x00\n    /* \"#utility.yul\":633:639   */\n  dup2\n    /* \"#utility.yul\":627:640   */\n  mload\n    /* \"#utility.yul\":618:640   */\n  swap1\n  pop\n    /* \"#utility.yul\":649:682   */\n  tag_25\n    /* \"#utility.yul\":676:681   */\n  dup2\n    /* \"#utility.yul\":649:682   */\n  tag_13\n  jump\t// in\ntag_25:\n    /* \"#utility.yul\":545:688   */\n  swap3\n  swap2\n  pop\n  pop\n  jump\t// out\n    /* \"#utility.yul\":694:1045   */\ntag_3:\n    /* \"#utility.yul\":764:770   */\n  0x00\n    /* \"#utility.yul\":813:815   */\n  0x20\n    /* \"#utility.yul\":801:810   */\n  dup3\n    /* \"#utility.yul\":792:799   */\n  dup5\n    /* \"#utility.yul\":788:811   */\n  sub\n    /* \"#utility.yul\":784:816   */\n  slt\n    /* \"#utility.yul\":781:900   */\n  iszero\n  tag_27\n  jumpi\n    /* \"#utility.yul\":819:898   */\n  tag_28\n  tag_10\n  jump\t// in\ntag_28:\n    /* \"#utility.yul\":781:900   */\ntag_27:\n    /* \"#utility.yul\":939:940   */\n  0x00\n    /* \"#utility.yul\":964:1028   */\n  tag_29\n    /* \"#utility.yul\":1020:1027   */\n  dup5\n    /* \"#utility.yul\":1011:1017   */\n  dup3\n    /* \"#utility.yul\":1000:1009   */\n  dup6\n    /* \"#utility.yul\":996:1018   */\n  add\n    /* \"#utility.yul\":964:1028   */\n  tag_14\n  jump\t// in\ntag_29:\n    /* \"#utility.yul\":954:1028   */\n  swap2\n  pop\n    /* \"#utility.yul\":910:1038   */\n  pop\n    /* \"#utility.yul\":694:1045   */\n  swap3\n  swap2\n  pop\n  pop\n  jump\t// out\n    /* \"#utility.yul\":1051:1231   */\ntag_15:\n    /* \"#utility.yul\":1099:1176   */\n  0x4e487b7100000000000000000000000000000000000000000000000000000000\n    /* \"#utility.yul\":1096:1097   */\n  0x00\n    /* \"#utility.yul\":1089:1177   */\n  mstore\n    /* \"#utility.yul\":1196:1200   */\n  0x11\n    /* \"#utility.yul\":1193:1194   */\n  0x04\n    /* \"#utility.yul\":1186:1201   */\n  mstore\n    /* \"#utility.yul\":1220:1224   */\n  0x24\n    /* \"#utility.yul\":1217:1218   */\n  0x00\n    /* \"#utility.yul\":1210:1225   */\n  revert\n    /* \"#utility.yul\":1237:1428   */\ntag_7:\n    /* \"#utility.yul\":1277:1280   */\n  0x00\n    /* \"#utility.yul\":1296:1316   */\n  tag_32\n    /* \"#utility.yul\":1314:1315   */\n  dup3\n    /* \"#utility.yul\":1296:1316   */\n  tag_12\n  jump\t// in\ntag_32:\n    /* \"#utility.yul\":1291:1316   */\n  swap2\n  pop\n    /* \"#utility.yul\":1330:1350   */\n  tag_33\n    /* \"#utility.yul\":1348:1349   */\n  dup4\n    /* \"#utility.yul\":1330:1350   */\n  tag_12\n  jump\t// in\ntag_33:\n    /* \"#utility.yul\":1325:1350   */\n  swap3\n  pop\n    /* \"#utility.yul\":1373:1374   */\n  dup3\n    /* \"#utility.yul\":1370:1371   */\n  dup3\n    /* \"#utility.yul\":1366:1375   */\n  add\n    /* \"#utility.yul\":1359:1375   */\n  swap1\n  pop\n    /* \"#utility.yul\":1394:1397   */\n  dup1\n    /* \"#utility.yul\":1391:1392   */\n  dup3\n    /* \"#utility.yul\":1388:1398   */\n  gt\n    /* \"#utility.yul\":1385:1421   */\n  iszero\n  tag_34\n  jumpi\n    /* \"#utility.yul\":1401:1419   */\n  tag_35\n  tag_15\n  jump\t// in\ntag_35:\n    /* \"#utility.yul\":1385:1421   */\ntag_34:\n    /* \"#utility.yul\":1237:1428   */\n  swap3\n  swap2\n  pop\n  pop\n  jump\t// out\n    /* \"auction2.sol\":60:3496  contract Auction {... */\ntag_8:\n  dataSize(sub_0)\n  dup1\n  dataOffset(sub_0)\n  0x00\n  codecopy\n  0x00\n  return\nstop\n\nsub_0: assembly {\n        /* \"auction2.sol\":60:3496  contract Auction {... */\n      mstore(0x40, 0x80)\n      jumpi(tag_1, lt(calldatasize, 0x04))\n      shr(0xe0, calldataload(0x00))\n      dup1\n      0x8da5cb5b\n      gt\n      tag_14\n      jumpi\n      dup1\n      0x8da5cb5b\n      eq\n      tag_8\n      jumpi\n      dup1\n      0x91f90157\n      eq\n      tag_9\n      jumpi\n      dup1\n      0xb7e03264\n      eq\n      tag_10\n      jumpi\n      dup1\n      0xb81c78ec\n      eq\n      tag_11\n      jumpi\n      dup1\n      0xd57bde79\n      eq\n      tag_12\n      jumpi\n      dup1\n      0xfe67a54b\n      eq\n      tag_13\n      jumpi\n      jump(tag_1)\n    tag_14:\n      dup1\n      0x1211540c\n      eq\n      tag_2\n      jumpi\n      dup1\n      0x1998aeef\n      eq\n      tag_3\n      jumpi\n      dup1\n      0x3197cbb6\n      eq\n      tag_4\n      jumpi\n      dup1\n      0x3ccfd60b\n      eq\n      tag_5\n      jumpi\n      dup1\n      0x4423c5f1\n      eq\n      tag_6\n      jumpi\n      dup1\n      0x86433374\n      eq\n      tag_7\n      jumpi\n    tag_1:\n      0x00\n      dup1\n      revert\n        /* \"auction2.sol\":2910:3493  function withdrawPartial(uint256 amount) external auctionActive {... */\n    tag_2:\n      callvalue\n      dup1\n      iszero\n      tag_15\n      jumpi\n      0x00\n      dup1\n      revert\n    tag_15:\n      pop\n      tag_16\n      0x04\n      dup1\n      calldatasize\n      sub\n      dup2\n      add\n      swap1\n      tag_17\n      swap2\n      swap1\n      tag_18\n      jump\t// in\n    tag_17:\n      tag_19\n      jump\t// in\n    tag_16:\n      stop\n        /* \"auction2.sol\":1131:1876  function bid() external payable auctionActive {... */\n    tag_3:\n      tag_20\n      tag_21\n      jump\t// in\n    tag_20:\n      stop\n        /* \"auction2.sol\":255:277  uint256 public endTime */\n    tag_4:\n      callvalue\n      dup1\n      iszero\n      tag_22\n      jumpi\n      0x00\n      dup1\n      revert\n    tag_22:\n      pop\n      tag_23\n      tag_24\n      jump\t// in\n    tag_23:\n      mload(0x40)\n      tag_25\n      swap2\n      swap1\n      tag_26\n      jump\t// in\n    tag_25:\n      mload(0x40)\n      dup1\n      swap2\n      sub\n      swap1\n      return\n        /* \"auction2.sol\":2393:2876  function withdraw() external auctionEndedOnly {... */\n    tag_5:\n      callvalue\n      dup1\n      iszero\n      tag_27\n      jumpi\n      0x00\n      dup1\n      revert\n    tag_27:\n      pop\n      tag_28\n      tag_29\n      jump\t// in\n    tag_28:\n      stop\n        /* \"auction2.sol\":315:332  Bid[] public bids */\n    tag_6:\n      callvalue\n      dup1\n      iszero\n      tag_30\n      jumpi\n      0x00\n      dup1\n      revert\n    tag_30:\n      pop\n      tag_31\n      0x04\n      dup1\n      calldatasize\n      sub\n      dup2\n      add\n      swap1\n      tag_32\n      swap2\n      swap1\n      tag_18\n      jump\t// in\n    tag_32:\n      tag_33\n      jump\t// in\n    tag_31:\n      mload(0x40)\n      tag_34\n      swap3\n      swap2\n      swap1\n      tag_35\n      jump\t// in\n    tag_34:\n      mload(0x40)\n      dup1\n      swap2\n      sub\n      swap1\n      return\n        /* \"auction2.sol\":284:308  bool public auctionEnded */\n    tag_7:\n      callvalue\n      dup1\n      iszero\n      tag_36\n      jumpi\n      0x00\n      dup1\n      revert\n    tag_36:\n      pop\n      tag_37\n      tag_38\n      jump\t// in\n    tag_37:\n      mload(0x40)\n      tag_39\n      swap2\n      swap1\n      tag_40\n      jump\t// in\n    tag_39:\n      mload(0x40)\n      dup1\n      swap2\n      sub\n      swap1\n      return\n        /* \"auction2.sol\":161:181  address public owner */\n    tag_8:\n      callvalue\n      dup1\n      iszero\n      tag_41\n      jumpi\n      0x00\n      dup1\n      revert\n    tag_41:\n      pop\n      tag_42\n      tag_43\n      jump\t// in\n    tag_42:\n      mload(0x40)\n      tag_44\n      swap2\n      swap1\n      tag_45\n      jump\t// in\n    tag_44:\n      mload(0x40)\n      dup1\n      swap2\n      sub\n      swap1\n      return\n        /* \"auction2.sol\":220:248  address public highestBidder */\n    tag_9:\n      callvalue\n      dup1\n      iszero\n      tag_46\n      jumpi\n      0x00\n      dup1\n      revert\n    tag_46:\n      pop\n      tag_47\n      tag_48\n      jump\t// in\n    tag_47:\n      mload(0x40)\n      tag_49\n      swap2\n      swap1\n      tag_45\n      jump\t// in\n    tag_49:\n      mload(0x40)\n      dup1\n      swap2\n      sub\n      swap1\n      return\n        /* \"auction2.sol\":1908:2055  function showWinner() external view auctionEndedOnly returns (address winner, uint256 amount) {... */\n    tag_10:\n      callvalue\n      dup1\n      iszero\n      tag_50\n      jumpi\n      0x00\n      dup1\n      revert\n    tag_50:\n      pop\n      tag_51\n      tag_52\n      jump\t// in\n    tag_51:\n      mload(0x40)\n      tag_53\n      swap3\n      swap2\n      swap1\n      tag_35\n      jump\t// in\n    tag_53:\n      mload(0x40)\n      dup1\n      swap2\n      sub\n      swap1\n      return\n        /* \"auction2.sol\":2087:2173  function getBids() external view returns (Bid[] memory) {... */\n    tag_11:\n      callvalue\n      dup1\n      iszero\n      tag_54\n      jumpi\n      0x00\n      dup1\n      revert\n    tag_54:\n      pop\n      tag_55\n      tag_56\n      jump\t// in\n    tag_55:\n      mload(0x40)\n      tag_57\n      swap2\n      swap1\n      tag_58\n      jump\t// in\n    tag_57:\n      mload(0x40)\n      dup1\n      swap2\n      sub\n      swap1\n      return\n        /* \"auction2.sol\":188:213  uint256 public highestBid */\n    tag_12:\n      callvalue\n      dup1\n      iszero\n      tag_59\n      jumpi\n      0x00\n      dup1\n      revert\n    tag_59:\n      pop\n      tag_60\n      tag_61\n      jump\t// in\n    tag_60:\n      mload(0x40)\n      tag_62\n      swap2\n      swap1\n      tag_26\n      jump\t// in\n    tag_62:\n      mload(0x40)\n      dup1\n      swap2\n      sub\n      swap1\n      return\n        /* \"auction2.sol\":2210:2358  function endAuction() external onlyOwner auctionActive {... */\n    tag_13:\n      callvalue\n      dup1\n      iszero\n      tag_63\n      jumpi\n      0x00\n      dup1\n      revert\n    tag_63:\n      pop\n      tag_64\n      tag_65\n      jump\t// in\n    tag_64:\n      stop\n        /* \"auction2.sol\":2910:3493  function withdrawPartial(uint256 amount) external auctionActive {... */\n    tag_19:\n        /* \"auction2.sol\":714:721  endTime */\n      sload(0x03)\n        /* \"auction2.sol\":696:711  block.timestamp */\n      timestamp\n        /* \"auction2.sol\":696:721  block.timestamp < endTime */\n      lt\n        /* \"auction2.sol\":688:750  require(block.timestamp < endTime, \"La subasta ha terminado.\") */\n      tag_67\n      jumpi\n      mload(0x40)\n      0x08c379a000000000000000000000000000000000000000000000000000000000\n      dup2\n      mstore\n      0x04\n      add\n      tag_68\n      swap1\n      tag_69\n      jump\t// in\n    tag_68:\n      mload(0x40)\n      dup1\n      swap2\n      sub\n      swap1\n      revert\n    tag_67:\n        /* \"auction2.sol\":3027:3037  highestBid */\n      sload(0x01)\n        /* \"auction2.sol\":3003:3024  address(this).balance */\n      selfbalance\n        /* \"auction2.sol\":3003:3037  address(this).balance - highestBid */\n      tag_71\n      swap2\n      swap1\n      tag_72\n      jump\t// in\n    tag_71:\n        /* \"auction2.sol\":2993:2999  amount */\n      dup2\n        /* \"auction2.sol\":2993:3037  amount <= address(this).balance - highestBid */\n      gt\n      iszero\n        /* \"auction2.sol\":2985:3076  require(amount <= address(this).balance - highestBid, \"No se puede retirar esta cantidad.\") */\n      tag_73\n      jumpi\n      mload(0x40)\n      0x08c379a000000000000000000000000000000000000000000000000000000000\n      dup2\n      mstore\n      0x04\n      add\n      tag_74\n      swap1\n      tag_75\n      jump\t// in\n    tag_74:\n      mload(0x40)\n      dup1\n      swap2\n      sub\n      swap1\n      revert\n    tag_73:\n        /* \"auction2.sol\":3104:3105  0 */\n      0x00\n        /* \"auction2.sol\":3095:3101  amount */\n      dup2\n        /* \"auction2.sol\":3095:3105  amount > 0 */\n      gt\n        /* \"auction2.sol\":3087:3146  require(amount > 0, \"La cantidad debe ser mayor que cero.\") */\n      tag_76\n      jumpi\n      mload(0x40)\n      0x08c379a000000000000000000000000000000000000000000000000000000000\n      dup2\n      mstore\n      0x04\n      add\n      tag_77\n      swap1\n      tag_78\n      jump\t// in\n    tag_77:\n      mload(0x40)\n      dup1\n      swap2\n      sub\n      swap1\n      revert\n    tag_76:\n        /* \"auction2.sol\":3159:3174  uint256 lastBid */\n      0x00\n        /* \"auction2.sol\":3196:3205  uint256 i */\n      dup1\n        /* \"auction2.sol\":3191:3352  for (uint256 i = 0; i < bids.length; i++) {... */\n    tag_79:\n        /* \"auction2.sol\":3215:3219  bids */\n      0x05\n        /* \"auction2.sol\":3215:3226  bids.length */\n      dup1\n      sload\n      swap1\n      pop\n        /* \"auction2.sol\":3211:3212  i */\n      dup2\n        /* \"auction2.sol\":3211:3226  i < bids.length */\n      lt\n        /* \"auction2.sol\":3191:3352  for (uint256 i = 0; i < bids.length; i++) {... */\n      iszero\n      tag_80\n      jumpi\n        /* \"auction2.sol\":3270:3280  msg.sender */\n      caller\n        /* \"auction2.sol\":3252:3280  bids[i].bidder == msg.sender */\n      0xffffffffffffffffffffffffffffffffffffffff\n      and\n        /* \"auction2.sol\":3252:3256  bids */\n      0x05\n        /* \"auction2.sol\":3257:3258  i */\n      dup3\n        /* \"auction2.sol\":3252:3259  bids[i] */\n      dup2\n      sload\n      dup2\n      lt\n      tag_82\n      jumpi\n      tag_83\n      tag_84\n      jump\t// in\n    tag_83:\n    tag_82:\n      swap1\n      0x00\n      mstore\n      keccak256(0x00, 0x20)\n      swap1\n      0x02\n      mul\n      add\n        /* \"auction2.sol\":3252:3266  bids[i].bidder */\n      0x00\n      add\n      0x00\n      swap1\n      sload\n      swap1\n      0x0100\n      exp\n      swap1\n      div\n      0xffffffffffffffffffffffffffffffffffffffff\n      and\n        /* \"auction2.sol\":3252:3280  bids[i].bidder == msg.sender */\n      0xffffffffffffffffffffffffffffffffffffffff\n      and\n      sub\n        /* \"auction2.sol\":3248:3341  if (bids[i].bidder == msg.sender) {... */\n      tag_86\n      jumpi\n        /* \"auction2.sol\":3311:3315  bids */\n      0x05\n        /* \"auction2.sol\":3316:3317  i */\n      dup2\n        /* \"auction2.sol\":3311:3318  bids[i] */\n      dup2\n      sload\n      dup2\n      lt\n      tag_87\n      jumpi\n      tag_88\n      tag_84\n      jump\t// in\n    tag_88:\n    tag_87:\n      swap1\n      0x00\n      mstore\n      keccak256(0x00, 0x20)\n      swap1\n      0x02\n      mul\n      add\n        /* \"auction2.sol\":3311:3325  bids[i].amount */\n      0x01\n      add\n      sload\n        /* \"auction2.sol\":3301:3325  lastBid = bids[i].amount */\n      swap2\n      pop\n        /* \"auction2.sol\":3248:3341  if (bids[i].bidder == msg.sender) {... */\n    tag_86:\n        /* \"auction2.sol\":3228:3231  i++ */\n      dup1\n      dup1\n      0x01\n      add\n      swap2\n      pop\n      pop\n        /* \"auction2.sol\":3191:3352  for (uint256 i = 0; i < bids.length; i++) {... */\n      jump(tag_79)\n    tag_80:\n      pop\n        /* \"auction2.sol\":3382:3389  lastBid */\n      dup1\n        /* \"auction2.sol\":3372:3378  amount */\n      dup3\n        /* \"auction2.sol\":3372:3389  amount <= lastBid */\n      gt\n      iszero\n        /* \"auction2.sol\":3364:3436  require(amount <= lastBid, \"No puedes retirar mas de tu ultima oferta.\") */\n      tag_90\n      jumpi\n      mload(0x40)\n      0x08c379a000000000000000000000000000000000000000000000000000000000\n      dup2\n      mstore\n      0x04\n      add\n      tag_91\n      swap1\n      tag_92\n      jump\t// in\n    tag_91:\n      mload(0x40)\n      dup1\n      swap2\n      sub\n      swap1\n      revert\n    tag_90:\n        /* \"auction2.sol\":3457:3467  msg.sender */\n      caller\n        /* \"auction2.sol\":3449:3477  payable(msg.sender).transfer */\n      0xffffffffffffffffffffffffffffffffffffffff\n      and\n        /* \"auction2.sol\":3449:3485  payable(msg.sender).transfer(amount) */\n      0x08fc\n        /* \"auction2.sol\":3478:3484  amount */\n      dup4\n        /* \"auction2.sol\":3449:3485  payable(msg.sender).transfer(amount) */\n      swap1\n      dup2\n      iszero\n      mul\n      swap1\n      mload(0x40)\n      0x00\n      mload(0x40)\n      dup1\n      dup4\n      sub\n      dup2\n      dup6\n      dup9\n      dup9\n      call\n      swap4\n      pop\n      pop\n      pop\n      pop\n      iszero\n      dup1\n      iszero\n      tag_94\n      jumpi\n      returndatasize\n      0x00\n      dup1\n      returndatacopy\n      revert(0x00, returndatasize)\n    tag_94:\n      pop\n        /* \"auction2.sol\":2974:3493  {... */\n      pop\n        /* \"auction2.sol\":2910:3493  function withdrawPartial(uint256 amount) external auctionActive {... */\n      pop\n      jump\t// out\n        /* \"auction2.sol\":1131:1876  function bid() external payable auctionActive {... */\n    tag_21:\n        /* \"auction2.sol\":714:721  endTime */\n      sload(0x03)\n        /* \"auction2.sol\":696:711  block.timestamp */\n      timestamp\n        /* \"auction2.sol\":696:721  block.timestamp < endTime */\n      lt\n        /* \"auction2.sol\":688:750  require(block.timestamp < endTime, \"La subasta ha terminado.\") */\n      tag_96\n      jumpi\n      mload(0x40)\n      0x08c379a000000000000000000000000000000000000000000000000000000000\n      dup2\n      mstore\n      0x04\n      add\n      tag_97\n      swap1\n      tag_69\n      jump\t// in\n    tag_97:\n      mload(0x40)\n      dup1\n      swap2\n      sub\n      swap1\n      revert\n    tag_96:\n        /* \"auction2.sol\":1227:1230  100 */\n      0x64\n        /* \"auction2.sol\":1221:1224  105 */\n      0x69\n        /* \"auction2.sol\":1208:1218  highestBid */\n      sload(0x01)\n        /* \"auction2.sol\":1208:1224  highestBid * 105 */\n      tag_99\n      swap2\n      swap1\n      tag_100\n      jump\t// in\n    tag_99:\n        /* \"auction2.sol\":1208:1230  highestBid * 105 / 100 */\n      tag_101\n      swap2\n      swap1\n      tag_102\n      jump\t// in\n    tag_101:\n        /* \"auction2.sol\":1196:1205  msg.value */\n      callvalue\n        /* \"auction2.sol\":1196:1230  msg.value > highestBid * 105 / 100 */\n      gt\n        /* \"auction2.sol\":1188:1305  require(msg.value > highestBid * 105 / 100, \"La oferta debe ser al menos un 5% mayor que la oferta mas alta actual.\") */\n      tag_103\n      jumpi\n      mload(0x40)\n      0x08c379a000000000000000000000000000000000000000000000000000000000\n      dup2\n      mstore\n      0x04\n      add\n      tag_104\n      swap1\n      tag_105\n      jump\t// in\n    tag_104:\n      mload(0x40)\n      dup1\n      swap2\n      sub\n      swap1\n      revert\n    tag_103:\n        /* \"auction2.sol\":1403:1404  0 */\n      0x00\n        /* \"auction2.sol\":1378:1405  highestBidder != address(0) */\n      0xffffffffffffffffffffffffffffffffffffffff\n      and\n        /* \"auction2.sol\":1378:1391  highestBidder */\n      0x02\n      0x00\n      swap1\n      sload\n      swap1\n      0x0100\n      exp\n      swap1\n      div\n      0xffffffffffffffffffffffffffffffffffffffff\n      and\n        /* \"auction2.sol\":1378:1405  highestBidder != address(0) */\n      0xffffffffffffffffffffffffffffffffffffffff\n      and\n      eq\n        /* \"auction2.sol\":1374:1508  if (highestBidder != address(0)) {... */\n      tag_106\n      jumpi\n        /* \"auction2.sol\":1430:1443  highestBidder */\n      0x02\n      0x00\n      swap1\n      sload\n      swap1\n      0x0100\n      exp\n      swap1\n      div\n      0xffffffffffffffffffffffffffffffffffffffff\n      and\n        /* \"auction2.sol\":1422:1453  payable(highestBidder).transfer */\n      0xffffffffffffffffffffffffffffffffffffffff\n      and\n        /* \"auction2.sol\":1422:1465  payable(highestBidder).transfer(highestBid) */\n      0x08fc\n        /* \"auction2.sol\":1454:1464  highestBid */\n      sload(0x01)\n        /* \"auction2.sol\":1422:1465  payable(highestBidder).transfer(highestBid) */\n      swap1\n      dup2\n      iszero\n      mul\n      swap1\n      mload(0x40)\n      0x00\n      mload(0x40)\n      dup1\n      dup4\n      sub\n      dup2\n      dup6\n      dup9\n      dup9\n      call\n      swap4\n      pop\n      pop\n      pop\n      pop\n      iszero\n      dup1\n      iszero\n      tag_108\n      jumpi\n      returndatasize\n      0x00\n      dup1\n      returndatacopy\n      revert(0x00, returndatasize)\n    tag_108:\n      pop\n        /* \"auction2.sol\":1374:1508  if (highestBidder != address(0)) {... */\n    tag_106:\n        /* \"auction2.sol\":1533:1542  msg.value */\n      callvalue\n        /* \"auction2.sol\":1520:1530  highestBid */\n      0x01\n        /* \"auction2.sol\":1520:1542  highestBid = msg.value */\n      dup2\n      swap1\n      sstore\n      pop\n        /* \"auction2.sol\":1569:1579  msg.sender */\n      caller\n        /* \"auction2.sol\":1553:1566  highestBidder */\n      0x02\n      0x00\n        /* \"auction2.sol\":1553:1579  highestBidder = msg.sender */\n      0x0100\n      exp\n      dup2\n      sload\n      dup2\n      0xffffffffffffffffffffffffffffffffffffffff\n      mul\n      not\n      and\n      swap1\n      dup4\n      0xffffffffffffffffffffffffffffffffffffffff\n      and\n      mul\n      or\n      swap1\n      sstore\n      pop\n        /* \"auction2.sol\":1590:1594  bids */\n      0x05\n        /* \"auction2.sol\":1600:1626  Bid(msg.sender, msg.value) */\n      mload(0x40)\n      dup1\n      0x40\n      add\n      0x40\n      mstore\n      dup1\n        /* \"auction2.sol\":1604:1614  msg.sender */\n      caller\n        /* \"auction2.sol\":1600:1626  Bid(msg.sender, msg.value) */\n      0xffffffffffffffffffffffffffffffffffffffff\n      and\n      dup2\n      mstore\n      0x20\n      add\n        /* \"auction2.sol\":1616:1625  msg.value */\n      callvalue\n        /* \"auction2.sol\":1600:1626  Bid(msg.sender, msg.value) */\n      dup2\n      mstore\n      pop\n        /* \"auction2.sol\":1590:1627  bids.push(Bid(msg.sender, msg.value)) */\n      swap1\n      dup1\n      0x01\n      dup2\n      sload\n      add\n      dup1\n      dup3\n      sstore\n      dup1\n      swap2\n      pop\n      pop\n      0x01\n      swap1\n      sub\n      swap1\n      0x00\n      mstore\n      keccak256(0x00, 0x20)\n      swap1\n      0x02\n      mul\n      add\n      0x00\n      swap1\n      swap2\n      swap1\n      swap2\n      swap1\n      swap2\n      pop\n      0x00\n      dup3\n      add\n      mload\n      dup2\n      0x00\n      add\n      exp(0x0100, 0x00)\n      dup2\n      sload\n      dup2\n      0xffffffffffffffffffffffffffffffffffffffff\n      mul\n      not\n      and\n      swap1\n      dup4\n      0xffffffffffffffffffffffffffffffffffffffff\n      and\n      mul\n      or\n      swap1\n      sstore\n      pop\n      0x20\n      dup3\n      add\n      mload\n      dup2\n      0x01\n      add\n      sstore\n      pop\n      pop\n        /* \"auction2.sol\":1762:1772  10 minutes */\n      0x0258\n        /* \"auction2.sol\":1743:1758  block.timestamp */\n      timestamp\n        /* \"auction2.sol\":1733:1740  endTime */\n      sload(0x03)\n        /* \"auction2.sol\":1733:1758  endTime - block.timestamp */\n      tag_110\n      swap2\n      swap1\n      tag_72\n      jump\t// in\n    tag_110:\n        /* \"auction2.sol\":1733:1772  endTime - block.timestamp <= 10 minutes */\n      gt\n        /* \"auction2.sol\":1729:1822  if (endTime - block.timestamp <= 10 minutes) {... */\n      tag_111\n      jumpi\n        /* \"auction2.sol\":1800:1810  10 minutes */\n      0x0258\n        /* \"auction2.sol\":1789:1796  endTime */\n      0x03\n      0x00\n        /* \"auction2.sol\":1789:1810  endTime += 10 minutes */\n      dup3\n      dup3\n      sload\n      tag_112\n      swap2\n      swap1\n      tag_113\n      jump\t// in\n    tag_112:\n      swap3\n      pop\n      pop\n      dup2\n      swap1\n      sstore\n      pop\n        /* \"auction2.sol\":1729:1822  if (endTime - block.timestamp <= 10 minutes) {... */\n    tag_111:\n        /* \"auction2.sol\":1846:1856  msg.sender */\n      caller\n        /* \"auction2.sol\":1839:1868  NewBid(msg.sender, msg.value) */\n      0xffffffffffffffffffffffffffffffffffffffff\n      and\n      0xdd0b6c6a77960e2066c96171b4d7ac9e8b4c184011f38544afa36a5bb63ec59f\n        /* \"auction2.sol\":1858:1867  msg.value */\n      callvalue\n        /* \"auction2.sol\":1839:1868  NewBid(msg.sender, msg.value) */\n      mload(0x40)\n      tag_114\n      swap2\n      swap1\n      tag_26\n      jump\t// in\n    tag_114:\n      mload(0x40)\n      dup1\n      swap2\n      sub\n      swap1\n      log2\n        /* \"auction2.sol\":1131:1876  function bid() external payable auctionActive {... */\n      jump\t// out\n        /* \"auction2.sol\":255:277  uint256 public endTime */\n    tag_24:\n      sload(0x03)\n      dup2\n      jump\t// out\n        /* \"auction2.sol\":2393:2876  function withdraw() external auctionEndedOnly {... */\n    tag_29:\n        /* \"auction2.sol\":825:837  auctionEnded */\n      0x04\n      0x00\n      swap1\n      sload\n      swap1\n      0x0100\n      exp\n      swap1\n      div\n      0xff\n      and\n        /* \"auction2.sol\":817:869  require(auctionEnded, \"La subasta no ha terminado.\") */\n      tag_116\n      jumpi\n      mload(0x40)\n      0x08c379a000000000000000000000000000000000000000000000000000000000\n      dup2\n      mstore\n      0x04\n      add\n      tag_117\n      swap1\n      tag_118\n      jump\t// in\n    tag_117:\n      mload(0x40)\n      dup1\n      swap2\n      sub\n      swap1\n      revert\n    tag_116:\n        /* \"auction2.sol\":2450:2474  uint256 amountToWithdraw */\n      0x00\n        /* \"auction2.sol\":2496:2505  uint256 i */\n      dup1\n        /* \"auction2.sol\":2491:2739  for (uint256 i = 0; i < bids.length; i++) {... */\n    tag_120:\n        /* \"auction2.sol\":2515:2519  bids */\n      0x05\n        /* \"auction2.sol\":2515:2526  bids.length */\n      dup1\n      sload\n      swap1\n      pop\n        /* \"auction2.sol\":2511:2512  i */\n      dup2\n        /* \"auction2.sol\":2511:2526  i < bids.length */\n      lt\n        /* \"auction2.sol\":2491:2739  for (uint256 i = 0; i < bids.length; i++) {... */\n      iszero\n      tag_121\n      jumpi\n        /* \"auction2.sol\":2570:2580  msg.sender */\n      caller\n        /* \"auction2.sol\":2552:2580  bids[i].bidder == msg.sender */\n      0xffffffffffffffffffffffffffffffffffffffff\n      and\n        /* \"auction2.sol\":2552:2556  bids */\n      0x05\n        /* \"auction2.sol\":2557:2558  i */\n      dup3\n        /* \"auction2.sol\":2552:2559  bids[i] */\n      dup2\n      sload\n      dup2\n      lt\n      tag_123\n      jumpi\n      tag_124\n      tag_84\n      jump\t// in\n    tag_124:\n    tag_123:\n      swap1\n      0x00\n      mstore\n      keccak256(0x00, 0x20)\n      swap1\n      0x02\n      mul\n      add\n        /* \"auction2.sol\":2552:2566  bids[i].bidder */\n      0x00\n      add\n      0x00\n      swap1\n      sload\n      swap1\n      0x0100\n      exp\n      swap1\n      div\n      0xffffffffffffffffffffffffffffffffffffffff\n      and\n        /* \"auction2.sol\":2552:2580  bids[i].bidder == msg.sender */\n      0xffffffffffffffffffffffffffffffffffffffff\n      and\n      eq\n        /* \"auction2.sol\":2552:2615  bids[i].bidder == msg.sender && bids[i].bidder != highestBidder */\n      dup1\n      iszero\n      tag_126\n      jumpi\n      pop\n        /* \"auction2.sol\":2602:2615  highestBidder */\n      0x02\n      0x00\n      swap1\n      sload\n      swap1\n      0x0100\n      exp\n      swap1\n      div\n      0xffffffffffffffffffffffffffffffffffffffff\n      and\n        /* \"auction2.sol\":2584:2615  bids[i].bidder != highestBidder */\n      0xffffffffffffffffffffffffffffffffffffffff\n      and\n        /* \"auction2.sol\":2584:2588  bids */\n      0x05\n        /* \"auction2.sol\":2589:2590  i */\n      dup3\n        /* \"auction2.sol\":2584:2591  bids[i] */\n      dup2\n      sload\n      dup2\n      lt\n      tag_127\n      jumpi\n      tag_128\n      tag_84\n      jump\t// in\n    tag_128:\n    tag_127:\n      swap1\n      0x00\n      mstore\n      keccak256(0x00, 0x20)\n      swap1\n      0x02\n      mul\n      add\n        /* \"auction2.sol\":2584:2598  bids[i].bidder */\n      0x00\n      add\n      0x00\n      swap1\n      sload\n      swap1\n      0x0100\n      exp\n      swap1\n      div\n      0xffffffffffffffffffffffffffffffffffffffff\n      and\n        /* \"auction2.sol\":2584:2615  bids[i].bidder != highestBidder */\n      0xffffffffffffffffffffffffffffffffffffffff\n      and\n      eq\n      iszero\n        /* \"auction2.sol\":2552:2615  bids[i].bidder == msg.sender && bids[i].bidder != highestBidder */\n    tag_126:\n        /* \"auction2.sol\":2548:2728  if (bids[i].bidder == msg.sender && bids[i].bidder != highestBidder) {... */\n      iszero\n      tag_130\n      jumpi\n        /* \"auction2.sol\":2678:2681  100 */\n      0x64\n        /* \"auction2.sol\":2673:2675  98 */\n      0x62\n        /* \"auction2.sol\":2656:2660  bids */\n      0x05\n        /* \"auction2.sol\":2661:2662  i */\n      dup4\n        /* \"auction2.sol\":2656:2663  bids[i] */\n      dup2\n      sload\n      dup2\n      lt\n      tag_131\n      jumpi\n      tag_132\n      tag_84\n      jump\t// in\n    tag_132:\n    tag_131:\n      swap1\n      0x00\n      mstore\n      keccak256(0x00, 0x20)\n      swap1\n      0x02\n      mul\n      add\n        /* \"auction2.sol\":2656:2670  bids[i].amount */\n      0x01\n      add\n      sload\n        /* \"auction2.sol\":2656:2675  bids[i].amount * 98 */\n      tag_134\n      swap2\n      swap1\n      tag_100\n      jump\t// in\n    tag_134:\n        /* \"auction2.sol\":2656:2681  bids[i].amount * 98 / 100 */\n      tag_135\n      swap2\n      swap1\n      tag_102\n      jump\t// in\n    tag_135:\n        /* \"auction2.sol\":2636:2681  amountToWithdraw += bids[i].amount * 98 / 100 */\n      dup3\n      tag_136\n      swap2\n      swap1\n      tag_113\n      jump\t// in\n    tag_136:\n      swap2\n      pop\n        /* \"auction2.sol\":2548:2728  if (bids[i].bidder == msg.sender && bids[i].bidder != highestBidder) {... */\n    tag_130:\n        /* \"auction2.sol\":2528:2531  i++ */\n      dup1\n      dup1\n      0x01\n      add\n      swap2\n      pop\n      pop\n        /* \"auction2.sol\":2491:2739  for (uint256 i = 0; i < bids.length; i++) {... */\n      jump(tag_120)\n    tag_121:\n      pop\n        /* \"auction2.sol\":2778:2779  0 */\n      0x00\n        /* \"auction2.sol\":2759:2775  amountToWithdraw */\n      dup2\n        /* \"auction2.sol\":2759:2779  amountToWithdraw > 0 */\n      gt\n        /* \"auction2.sol\":2751:2811  require(amountToWithdraw > 0, \"No hay fondos para retirar.\") */\n      tag_137\n      jumpi\n      mload(0x40)\n      0x08c379a000000000000000000000000000000000000000000000000000000000\n      dup2\n      mstore\n      0x04\n      add\n      tag_138\n      swap1\n      tag_139\n      jump\t// in\n    tag_138:\n      mload(0x40)\n      dup1\n      swap2\n      sub\n      swap1\n      revert\n    tag_137:\n        /* \"auction2.sol\":2830:2840  msg.sender */\n      caller\n        /* \"auction2.sol\":2822:2850  payable(msg.sender).transfer */\n      0xffffffffffffffffffffffffffffffffffffffff\n      and\n        /* \"auction2.sol\":2822:2868  payable(msg.sender).transfer(amountToWithdraw) */\n      0x08fc\n        /* \"auction2.sol\":2851:2867  amountToWithdraw */\n      dup3\n        /* \"auction2.sol\":2822:2868  payable(msg.sender).transfer(amountToWithdraw) */\n      swap1\n      dup2\n      iszero\n      mul\n      swap1\n      mload(0x40)\n      0x00\n      mload(0x40)\n      dup1\n      dup4\n      sub\n      dup2\n      dup6\n      dup9\n      dup9\n      call\n      swap4\n      pop\n      pop\n      pop\n      pop\n      iszero\n      dup1\n      iszero\n      tag_141\n      jumpi\n      returndatasize\n      0x00\n      dup1\n      returndatacopy\n      revert(0x00, returndatasize)\n    tag_141:\n      pop\n        /* \"auction2.sol\":2439:2876  {... */\n      pop\n        /* \"auction2.sol\":2393:2876  function withdraw() external auctionEndedOnly {... */\n      jump\t// out\n        /* \"auction2.sol\":315:332  Bid[] public bids */\n    tag_33:\n      0x05\n      dup2\n      dup2\n      sload\n      dup2\n      lt\n      tag_142\n      jumpi\n      0x00\n      dup1\n      revert\n    tag_142:\n      swap1\n      0x00\n      mstore\n      keccak256(0x00, 0x20)\n      swap1\n      0x02\n      mul\n      add\n      0x00\n      swap2\n      pop\n      swap1\n      pop\n      dup1\n      0x00\n      add\n      0x00\n      swap1\n      sload\n      swap1\n      0x0100\n      exp\n      swap1\n      div\n      0xffffffffffffffffffffffffffffffffffffffff\n      and\n      swap1\n      dup1\n      0x01\n      add\n      sload\n      swap1\n      pop\n      dup3\n      jump\t// out\n        /* \"auction2.sol\":284:308  bool public auctionEnded */\n    tag_38:\n      0x04\n      0x00\n      swap1\n      sload\n      swap1\n      0x0100\n      exp\n      swap1\n      div\n      0xff\n      and\n      dup2\n      jump\t// out\n        /* \"auction2.sol\":161:181  address public owner */\n    tag_43:\n      0x00\n      dup1\n      sload\n      swap1\n      0x0100\n      exp\n      swap1\n      div\n      0xffffffffffffffffffffffffffffffffffffffff\n      and\n      dup2\n      jump\t// out\n        /* \"auction2.sol\":220:248  address public highestBidder */\n    tag_48:\n      0x02\n      0x00\n      swap1\n      sload\n      swap1\n      0x0100\n      exp\n      swap1\n      div\n      0xffffffffffffffffffffffffffffffffffffffff\n      and\n      dup2\n      jump\t// out\n        /* \"auction2.sol\":1908:2055  function showWinner() external view auctionEndedOnly returns (address winner, uint256 amount) {... */\n    tag_52:\n        /* \"auction2.sol\":1970:1984  address winner */\n      0x00\n        /* \"auction2.sol\":1986:2000  uint256 amount */\n      dup1\n        /* \"auction2.sol\":825:837  auctionEnded */\n      0x04\n      0x00\n      swap1\n      sload\n      swap1\n      0x0100\n      exp\n      swap1\n      div\n      0xff\n      and\n        /* \"auction2.sol\":817:869  require(auctionEnded, \"La subasta no ha terminado.\") */\n      tag_145\n      jumpi\n      mload(0x40)\n      0x08c379a000000000000000000000000000000000000000000000000000000000\n      dup2\n      mstore\n      0x04\n      add\n      tag_146\n      swap1\n      tag_118\n      jump\t// in\n    tag_146:\n      mload(0x40)\n      dup1\n      swap2\n      sub\n      swap1\n      revert\n    tag_145:\n        /* \"auction2.sol\":2021:2034  highestBidder */\n      0x02\n      0x00\n      swap1\n      sload\n      swap1\n      0x0100\n      exp\n      swap1\n      div\n      0xffffffffffffffffffffffffffffffffffffffff\n      and\n        /* \"auction2.sol\":2036:2046  highestBid */\n      sload(0x01)\n        /* \"auction2.sol\":2013:2047  return (highestBidder, highestBid) */\n      swap2\n      pop\n      swap2\n      pop\n        /* \"auction2.sol\":1908:2055  function showWinner() external view auctionEndedOnly returns (address winner, uint256 amount) {... */\n      swap1\n      swap2\n      jump\t// out\n        /* \"auction2.sol\":2087:2173  function getBids() external view returns (Bid[] memory) {... */\n    tag_56:\n        /* \"auction2.sol\":2129:2141  Bid[] memory */\n      0x60\n        /* \"auction2.sol\":2161:2165  bids */\n      0x05\n        /* \"auction2.sol\":2154:2165  return bids */\n      dup1\n      sload\n      dup1\n      0x20\n      mul\n      0x20\n      add\n      mload(0x40)\n      swap1\n      dup2\n      add\n      0x40\n      mstore\n      dup1\n      swap3\n      swap2\n      swap1\n      dup2\n      dup2\n      mstore\n      0x20\n      add\n      0x00\n      swap1\n    tag_149:\n      dup3\n      dup3\n      lt\n      iszero\n      tag_150\n      jumpi\n      dup4\n      dup3\n      swap1\n      0x00\n      mstore\n      keccak256(0x00, 0x20)\n      swap1\n      0x02\n      mul\n      add\n      mload(0x40)\n      dup1\n      0x40\n      add\n      0x40\n      mstore\n      swap1\n      dup2\n      0x00\n      dup3\n      add\n      0x00\n      swap1\n      sload\n      swap1\n      0x0100\n      exp\n      swap1\n      div\n      0xffffffffffffffffffffffffffffffffffffffff\n      and\n      0xffffffffffffffffffffffffffffffffffffffff\n      and\n      0xffffffffffffffffffffffffffffffffffffffff\n      and\n      dup2\n      mstore\n      0x20\n      add\n      0x01\n      dup3\n      add\n      sload\n      dup2\n      mstore\n      pop\n      pop\n      dup2\n      mstore\n      0x20\n      add\n      swap1\n      0x01\n      add\n      swap1\n      jump(tag_149)\n    tag_150:\n      pop\n      pop\n      pop\n      pop\n      swap1\n      pop\n        /* \"auction2.sol\":2087:2173  function getBids() external view returns (Bid[] memory) {... */\n      swap1\n      jump\t// out\n        /* \"auction2.sol\":188:213  uint256 public highestBid */\n    tag_61:\n      sload(0x01)\n      dup2\n      jump\t// out\n        /* \"auction2.sol\":2210:2358  function endAuction() external onlyOwner auctionActive {... */\n    tag_65:\n        /* \"auction2.sol\":551:556  owner */\n      0x00\n      dup1\n      sload\n      swap1\n      0x0100\n      exp\n      swap1\n      div\n      0xffffffffffffffffffffffffffffffffffffffff\n      and\n        /* \"auction2.sol\":537:556  msg.sender == owner */\n      0xffffffffffffffffffffffffffffffffffffffff\n      and\n        /* \"auction2.sol\":537:547  msg.sender */\n      caller\n        /* \"auction2.sol\":537:556  msg.sender == owner */\n      0xffffffffffffffffffffffffffffffffffffffff\n      and\n      eq\n        /* \"auction2.sol\":529:624  require(msg.sender == owner, \"No autorizado: solo el propietario puede ejecutar esta funcion.\") */\n      tag_153\n      jumpi\n      mload(0x40)\n      0x08c379a000000000000000000000000000000000000000000000000000000000\n      dup2\n      mstore\n      0x04\n      add\n      tag_154\n      swap1\n      tag_155\n      jump\t// in\n    tag_154:\n      mload(0x40)\n      dup1\n      swap2\n      sub\n      swap1\n      revert\n    tag_153:\n        /* \"auction2.sol\":714:721  endTime */\n      sload(0x03)\n        /* \"auction2.sol\":696:711  block.timestamp */\n      timestamp\n        /* \"auction2.sol\":696:721  block.timestamp < endTime */\n      lt\n        /* \"auction2.sol\":688:750  require(block.timestamp < endTime, \"La subasta ha terminado.\") */\n      tag_157\n      jumpi\n      mload(0x40)\n      0x08c379a000000000000000000000000000000000000000000000000000000000\n      dup2\n      mstore\n      0x04\n      add\n      tag_158\n      swap1\n      tag_69\n      jump\t// in\n    tag_158:\n      mload(0x40)\n      dup1\n      swap2\n      sub\n      swap1\n      revert\n    tag_157:\n        /* \"auction2.sol\":2291:2295  true */\n      0x01\n        /* \"auction2.sol\":2276:2288  auctionEnded */\n      0x04\n      0x00\n        /* \"auction2.sol\":2276:2295  auctionEnded = true */\n      0x0100\n      exp\n      dup2\n      sload\n      dup2\n      0xff\n      mul\n      not\n      and\n      swap1\n      dup4\n      iszero\n      iszero\n      mul\n      or\n      swap1\n      sstore\n      pop\n        /* \"auction2.sol\":2311:2350  AuctionEnded(highestBidder, highestBid) */\n      0xdaec4582d5d9595688c8c98545fdd1c696d41c6aeaeb636737e84ed2f5c00eda\n        /* \"auction2.sol\":2324:2337  highestBidder */\n      0x02\n      0x00\n      swap1\n      sload\n      swap1\n      0x0100\n      exp\n      swap1\n      div\n      0xffffffffffffffffffffffffffffffffffffffff\n      and\n        /* \"auction2.sol\":2339:2349  highestBid */\n      sload(0x01)\n        /* \"auction2.sol\":2311:2350  AuctionEnded(highestBidder, highestBid) */\n      mload(0x40)\n      tag_160\n      swap3\n      swap2\n      swap1\n      tag_35\n      jump\t// in\n    tag_160:\n      mload(0x40)\n      dup1\n      swap2\n      sub\n      swap1\n      log1\n        /* \"auction2.sol\":2210:2358  function endAuction() external onlyOwner auctionActive {... */\n      jump\t// out\n        /* \"#utility.yul\":88:205   */\n    tag_162:\n        /* \"#utility.yul\":197:198   */\n      0x00\n        /* \"#utility.yul\":194:195   */\n      dup1\n        /* \"#utility.yul\":187:199   */\n      revert\n        /* \"#utility.yul\":334:411   */\n    tag_164:\n        /* \"#utility.yul\":371:378   */\n      0x00\n        /* \"#utility.yul\":400:405   */\n      dup2\n        /* \"#utility.yul\":389:405   */\n      swap1\n      pop\n        /* \"#utility.yul\":334:411   */\n      swap2\n      swap1\n      pop\n      jump\t// out\n        /* \"#utility.yul\":417:539   */\n    tag_165:\n        /* \"#utility.yul\":490:514   */\n      tag_207\n        /* \"#utility.yul\":508:513   */\n      dup2\n        /* \"#utility.yul\":490:514   */\n      tag_164\n      jump\t// in\n    tag_207:\n        /* \"#utility.yul\":483:488   */\n      dup2\n        /* \"#utility.yul\":480:515   */\n      eq\n        /* \"#utility.yul\":470:533   */\n      tag_208\n      jumpi\n        /* \"#utility.yul\":529:530   */\n      0x00\n        /* \"#utility.yul\":526:527   */\n      dup1\n        /* \"#utility.yul\":519:531   */\n      revert\n        /* \"#utility.yul\":470:533   */\n    tag_208:\n        /* \"#utility.yul\":417:539   */\n      pop\n      jump\t// out\n        /* \"#utility.yul\":545:684   */\n    tag_166:\n        /* \"#utility.yul\":591:596   */\n      0x00\n        /* \"#utility.yul\":629:635   */\n      dup2\n        /* \"#utility.yul\":616:636   */\n      calldataload\n        /* \"#utility.yul\":607:636   */\n      swap1\n      pop\n        /* \"#utility.yul\":645:678   */\n      tag_210\n        /* \"#utility.yul\":672:677   */\n      dup2\n        /* \"#utility.yul\":645:678   */\n      tag_165\n      jump\t// in\n    tag_210:\n        /* \"#utility.yul\":545:684   */\n      swap3\n      swap2\n      pop\n      pop\n      jump\t// out\n        /* \"#utility.yul\":690:1019   */\n    tag_18:\n        /* \"#utility.yul\":749:755   */\n      0x00\n        /* \"#utility.yul\":798:800   */\n      0x20\n        /* \"#utility.yul\":786:795   */\n      dup3\n        /* \"#utility.yul\":777:784   */\n      dup5\n        /* \"#utility.yul\":773:796   */\n      sub\n        /* \"#utility.yul\":769:801   */\n      slt\n        /* \"#utility.yul\":766:885   */\n      iszero\n      tag_212\n      jumpi\n        /* \"#utility.yul\":804:883   */\n      tag_213\n      tag_162\n      jump\t// in\n    tag_213:\n        /* \"#utility.yul\":766:885   */\n    tag_212:\n        /* \"#utility.yul\":924:925   */\n      0x00\n        /* \"#utility.yul\":949:1002   */\n      tag_214\n        /* \"#utility.yul\":994:1001   */\n      dup5\n        /* \"#utility.yul\":985:991   */\n      dup3\n        /* \"#utility.yul\":974:983   */\n      dup6\n        /* \"#utility.yul\":970:992   */\n      add\n        /* \"#utility.yul\":949:1002   */\n      tag_166\n      jump\t// in\n    tag_214:\n        /* \"#utility.yul\":939:1002   */\n      swap2\n      pop\n        /* \"#utility.yul\":895:1012   */\n      pop\n        /* \"#utility.yul\":690:1019   */\n      swap3\n      swap2\n      pop\n      pop\n      jump\t// out\n        /* \"#utility.yul\":1025:1143   */\n    tag_167:\n        /* \"#utility.yul\":1112:1136   */\n      tag_216\n        /* \"#utility.yul\":1130:1135   */\n      dup2\n        /* \"#utility.yul\":1112:1136   */\n      tag_164\n      jump\t// in\n    tag_216:\n        /* \"#utility.yul\":1107:1110   */\n      dup3\n        /* \"#utility.yul\":1100:1137   */\n      mstore\n        /* \"#utility.yul\":1025:1143   */\n      pop\n      pop\n      jump\t// out\n        /* \"#utility.yul\":1149:1371   */\n    tag_26:\n        /* \"#utility.yul\":1242:1246   */\n      0x00\n        /* \"#utility.yul\":1280:1282   */\n      0x20\n        /* \"#utility.yul\":1269:1278   */\n      dup3\n        /* \"#utility.yul\":1265:1283   */\n      add\n        /* \"#utility.yul\":1257:1283   */\n      swap1\n      pop\n        /* \"#utility.yul\":1293:1364   */\n      tag_218\n        /* \"#utility.yul\":1361:1362   */\n      0x00\n        /* \"#utility.yul\":1350:1359   */\n      dup4\n        /* \"#utility.yul\":1346:1363   */\n      add\n        /* \"#utility.yul\":1337:1343   */\n      dup5\n        /* \"#utility.yul\":1293:1364   */\n      tag_167\n      jump\t// in\n    tag_218:\n        /* \"#utility.yul\":1149:1371   */\n      swap3\n      swap2\n      pop\n      pop\n      jump\t// out\n        /* \"#utility.yul\":1377:1503   */\n    tag_168:\n        /* \"#utility.yul\":1414:1421   */\n      0x00\n        /* \"#utility.yul\":1454:1496   */\n      0xffffffffffffffffffffffffffffffffffffffff\n        /* \"#utility.yul\":1447:1452   */\n      dup3\n        /* \"#utility.yul\":1443:1497   */\n      and\n        /* \"#utility.yul\":1432:1497   */\n      swap1\n      pop\n        /* \"#utility.yul\":1377:1503   */\n      swap2\n      swap1\n      pop\n      jump\t// out\n        /* \"#utility.yul\":1509:1605   */\n    tag_169:\n        /* \"#utility.yul\":1546:1553   */\n      0x00\n        /* \"#utility.yul\":1575:1599   */\n      tag_221\n        /* \"#utility.yul\":1593:1598   */\n      dup3\n        /* \"#utility.yul\":1575:1599   */\n      tag_168\n      jump\t// in\n    tag_221:\n        /* \"#utility.yul\":1564:1599   */\n      swap1\n      pop\n        /* \"#utility.yul\":1509:1605   */\n      swap2\n      swap1\n      pop\n      jump\t// out\n        /* \"#utility.yul\":1611:1729   */\n    tag_170:\n        /* \"#utility.yul\":1698:1722   */\n      tag_223\n        /* \"#utility.yul\":1716:1721   */\n      dup2\n        /* \"#utility.yul\":1698:1722   */\n      tag_169\n      jump\t// in\n    tag_223:\n        /* \"#utility.yul\":1693:1696   */\n      dup3\n        /* \"#utility.yul\":1686:1723   */\n      mstore\n        /* \"#utility.yul\":1611:1729   */\n      pop\n      pop\n      jump\t// out\n        /* \"#utility.yul\":1735:2067   */\n    tag_35:\n        /* \"#utility.yul\":1856:1860   */\n      0x00\n        /* \"#utility.yul\":1894:1896   */\n      0x40\n        /* \"#utility.yul\":1883:1892   */\n      dup3\n        /* \"#utility.yul\":1879:1897   */\n      add\n        /* \"#utility.yul\":1871:1897   */\n      swap1\n      pop\n        /* \"#utility.yul\":1907:1978   */\n      tag_225\n        /* \"#utility.yul\":1975:1976   */\n      0x00\n        /* \"#utility.yul\":1964:1973   */\n      dup4\n        /* \"#utility.yul\":1960:1977   */\n      add\n        /* \"#utility.yul\":1951:1957   */\n      dup6\n        /* \"#utility.yul\":1907:1978   */\n      tag_170\n      jump\t// in\n    tag_225:\n        /* \"#utility.yul\":1988:2060   */\n      tag_226\n        /* \"#utility.yul\":2056:2058   */\n      0x20\n        /* \"#utility.yul\":2045:2054   */\n      dup4\n        /* \"#utility.yul\":2041:2059   */\n      add\n        /* \"#utility.yul\":2032:2038   */\n      dup5\n        /* \"#utility.yul\":1988:2060   */\n      tag_167\n      jump\t// in\n    tag_226:\n        /* \"#utility.yul\":1735:2067   */\n      swap4\n      swap3\n      pop\n      pop\n      pop\n      jump\t// out\n        /* \"#utility.yul\":2073:2163   */\n    tag_171:\n        /* \"#utility.yul\":2107:2114   */\n      0x00\n        /* \"#utility.yul\":2150:2155   */\n      dup2\n        /* \"#utility.yul\":2143:2156   */\n      iszero\n        /* \"#utility.yul\":2136:2157   */\n      iszero\n        /* \"#utility.yul\":2125:2157   */\n      swap1\n      pop\n        /* \"#utility.yul\":2073:2163   */\n      swap2\n      swap1\n      pop\n      jump\t// out\n        /* \"#utility.yul\":2169:2278   */\n    tag_172:\n        /* \"#utility.yul\":2250:2271   */\n      tag_229\n        /* \"#utility.yul\":2265:2270   */\n      dup2\n        /* \"#utility.yul\":2250:2271   */\n      tag_171\n      jump\t// in\n    tag_229:\n        /* \"#utility.yul\":2245:2248   */\n      dup3\n        /* \"#utility.yul\":2238:2272   */\n      mstore\n        /* \"#utility.yul\":2169:2278   */\n      pop\n      pop\n      jump\t// out\n        /* \"#utility.yul\":2284:2494   */\n    tag_40:\n        /* \"#utility.yul\":2371:2375   */\n      0x00\n        /* \"#utility.yul\":2409:2411   */\n      0x20\n        /* \"#utility.yul\":2398:2407   */\n      dup3\n        /* \"#utility.yul\":2394:2412   */\n      add\n        /* \"#utility.yul\":2386:2412   */\n      swap1\n      pop\n        /* \"#utility.yul\":2422:2487   */\n      tag_231\n        /* \"#utility.yul\":2484:2485   */\n      0x00\n        /* \"#utility.yul\":2473:2482   */\n      dup4\n        /* \"#utility.yul\":2469:2486   */\n      add\n        /* \"#utility.yul\":2460:2466   */\n      dup5\n        /* \"#utility.yul\":2422:2487   */\n      tag_172\n      jump\t// in\n    tag_231:\n        /* \"#utility.yul\":2284:2494   */\n      swap3\n      swap2\n      pop\n      pop\n      jump\t// out\n        /* \"#utility.yul\":2500:2722   */\n    tag_45:\n        /* \"#utility.yul\":2593:2597   */\n      0x00\n        /* \"#utility.yul\":2631:2633   */\n      0x20\n        /* \"#utility.yul\":2620:2629   */\n      dup3\n        /* \"#utility.yul\":2616:2634   */\n      add\n        /* \"#utility.yul\":2608:2634   */\n      swap1\n      pop\n        /* \"#utility.yul\":2644:2715   */\n      tag_233\n        /* \"#utility.yul\":2712:2713   */\n      0x00\n        /* \"#utility.yul\":2701:2710   */\n      dup4\n        /* \"#utility.yul\":2697:2714   */\n      add\n        /* \"#utility.yul\":2688:2694   */\n      dup5\n        /* \"#utility.yul\":2644:2715   */\n      tag_170\n      jump\t// in\n    tag_233:\n        /* \"#utility.yul\":2500:2722   */\n      swap3\n      swap2\n      pop\n      pop\n      jump\t// out\n        /* \"#utility.yul\":2728:2860   */\n    tag_173:\n        /* \"#utility.yul\":2813:2819   */\n      0x00\n        /* \"#utility.yul\":2847:2852   */\n      dup2\n        /* \"#utility.yul\":2841:2853   */\n      mload\n        /* \"#utility.yul\":2831:2853   */\n      swap1\n      pop\n        /* \"#utility.yul\":2728:2860   */\n      swap2\n      swap1\n      pop\n      jump\t// out\n        /* \"#utility.yul\":2866:3068   */\n    tag_174:\n        /* \"#utility.yul\":2983:2994   */\n      0x00\n        /* \"#utility.yul\":3017:3023   */\n      dup3\n        /* \"#utility.yul\":3012:3015   */\n      dup3\n        /* \"#utility.yul\":3005:3024   */\n      mstore\n        /* \"#utility.yul\":3057:3061   */\n      0x20\n        /* \"#utility.yul\":3052:3055   */\n      dup3\n        /* \"#utility.yul\":3048:3062   */\n      add\n        /* \"#utility.yul\":3033:3062   */\n      swap1\n      pop\n        /* \"#utility.yul\":2866:3068   */\n      swap3\n      swap2\n      pop\n      pop\n      jump\t// out\n        /* \"#utility.yul\":3074:3224   */\n    tag_175:\n        /* \"#utility.yul\":3159:3163   */\n      0x00\n        /* \"#utility.yul\":3182:3185   */\n      dup2\n        /* \"#utility.yul\":3174:3185   */\n      swap1\n      pop\n        /* \"#utility.yul\":3212:3216   */\n      0x20\n        /* \"#utility.yul\":3207:3210   */\n      dup3\n        /* \"#utility.yul\":3203:3217   */\n      add\n        /* \"#utility.yul\":3195:3217   */\n      swap1\n      pop\n        /* \"#utility.yul\":3074:3224   */\n      swap2\n      swap1\n      pop\n      jump\t// out\n        /* \"#utility.yul\":3230:3338   */\n    tag_176:\n        /* \"#utility.yul\":3307:3331   */\n      tag_238\n        /* \"#utility.yul\":3325:3330   */\n      dup2\n        /* \"#utility.yul\":3307:3331   */\n      tag_169\n      jump\t// in\n    tag_238:\n        /* \"#utility.yul\":3302:3305   */\n      dup3\n        /* \"#utility.yul\":3295:3332   */\n      mstore\n        /* \"#utility.yul\":3230:3338   */\n      pop\n      pop\n      jump\t// out\n        /* \"#utility.yul\":3344:3452   */\n    tag_177:\n        /* \"#utility.yul\":3421:3445   */\n      tag_240\n        /* \"#utility.yul\":3439:3444   */\n      dup2\n        /* \"#utility.yul\":3421:3445   */\n      tag_164\n      jump\t// in\n    tag_240:\n        /* \"#utility.yul\":3416:3419   */\n      dup3\n        /* \"#utility.yul\":3409:3446   */\n      mstore\n        /* \"#utility.yul\":3344:3452   */\n      pop\n      pop\n      jump\t// out\n        /* \"#utility.yul\":3506:3993   */\n    tag_178:\n        /* \"#utility.yul\":3629:3633   */\n      0x40\n        /* \"#utility.yul\":3624:3627   */\n      dup3\n        /* \"#utility.yul\":3620:3634   */\n      add\n        /* \"#utility.yul\":3718:3722   */\n      0x00\n        /* \"#utility.yul\":3711:3716   */\n      dup3\n        /* \"#utility.yul\":3707:3723   */\n      add\n        /* \"#utility.yul\":3701:3724   */\n      mload\n        /* \"#utility.yul\":3737:3800   */\n      tag_242\n        /* \"#utility.yul\":3794:3798   */\n      0x00\n        /* \"#utility.yul\":3789:3792   */\n      dup6\n        /* \"#utility.yul\":3785:3799   */\n      add\n        /* \"#utility.yul\":3771:3783   */\n      dup3\n        /* \"#utility.yul\":3737:3800   */\n      tag_176\n      jump\t// in\n    tag_242:\n        /* \"#utility.yul\":3644:3810   */\n      pop\n        /* \"#utility.yul\":3894:3898   */\n      0x20\n        /* \"#utility.yul\":3887:3892   */\n      dup3\n        /* \"#utility.yul\":3883:3899   */\n      add\n        /* \"#utility.yul\":3877:3900   */\n      mload\n        /* \"#utility.yul\":3913:3976   */\n      tag_243\n        /* \"#utility.yul\":3970:3974   */\n      0x20\n        /* \"#utility.yul\":3965:3968   */\n      dup6\n        /* \"#utility.yul\":3961:3975   */\n      add\n        /* \"#utility.yul\":3947:3959   */\n      dup3\n        /* \"#utility.yul\":3913:3976   */\n      tag_177\n      jump\t// in\n    tag_243:\n        /* \"#utility.yul\":3820:3986   */\n      pop\n        /* \"#utility.yul\":3598:3993   */\n      pop\n        /* \"#utility.yul\":3506:3993   */\n      pop\n      pop\n      jump\t// out\n        /* \"#utility.yul\":3999:4250   */\n    tag_179:\n        /* \"#utility.yul\":4104:4114   */\n      0x00\n        /* \"#utility.yul\":4125:4207   */\n      tag_245\n        /* \"#utility.yul\":4203:4206   */\n      dup4\n        /* \"#utility.yul\":4195:4201   */\n      dup4\n        /* \"#utility.yul\":4125:4207   */\n      tag_178\n      jump\t// in\n    tag_245:\n        /* \"#utility.yul\":4239:4243   */\n      0x40\n        /* \"#utility.yul\":4234:4237   */\n      dup4\n        /* \"#utility.yul\":4230:4244   */\n      add\n        /* \"#utility.yul\":4216:4244   */\n      swap1\n      pop\n        /* \"#utility.yul\":3999:4250   */\n      swap3\n      swap2\n      pop\n      pop\n      jump\t// out\n        /* \"#utility.yul\":4256:4387   */\n    tag_180:\n        /* \"#utility.yul\":4344:4348   */\n      0x00\n        /* \"#utility.yul\":4376:4380   */\n      0x20\n        /* \"#utility.yul\":4371:4374   */\n      dup3\n        /* \"#utility.yul\":4367:4381   */\n      add\n        /* \"#utility.yul\":4359:4381   */\n      swap1\n      pop\n        /* \"#utility.yul\":4256:4387   */\n      swap2\n      swap1\n      pop\n      jump\t// out\n        /* \"#utility.yul\":4445:5321   */\n    tag_181:\n        /* \"#utility.yul\":4600:4603   */\n      0x00\n        /* \"#utility.yul\":4629:4701   */\n      tag_248\n        /* \"#utility.yul\":4695:4700   */\n      dup3\n        /* \"#utility.yul\":4629:4701   */\n      tag_173\n      jump\t// in\n    tag_248:\n        /* \"#utility.yul\":4717:4821   */\n      tag_249\n        /* \"#utility.yul\":4814:4820   */\n      dup2\n        /* \"#utility.yul\":4809:4812   */\n      dup6\n        /* \"#utility.yul\":4717:4821   */\n      tag_174\n      jump\t// in\n    tag_249:\n        /* \"#utility.yul\":4710:4821   */\n      swap4\n      pop\n        /* \"#utility.yul\":4845:4919   */\n      tag_250\n        /* \"#utility.yul\":4913:4918   */\n      dup4\n        /* \"#utility.yul\":4845:4919   */\n      tag_175\n      jump\t// in\n    tag_250:\n        /* \"#utility.yul\":4942:4949   */\n      dup1\n        /* \"#utility.yul\":4973:4974   */\n      0x00\n        /* \"#utility.yul\":4958:5296   */\n    tag_251:\n        /* \"#utility.yul\":4983:4989   */\n      dup4\n        /* \"#utility.yul\":4980:4981   */\n      dup2\n        /* \"#utility.yul\":4977:4990   */\n      lt\n        /* \"#utility.yul\":4958:5296   */\n      iszero\n      tag_253\n      jumpi\n        /* \"#utility.yul\":5059:5065   */\n      dup2\n        /* \"#utility.yul\":5053:5066   */\n      mload\n        /* \"#utility.yul\":5086:5185   */\n      tag_254\n        /* \"#utility.yul\":5181:5184   */\n      dup9\n        /* \"#utility.yul\":5166:5179   */\n      dup3\n        /* \"#utility.yul\":5086:5185   */\n      tag_179\n      jump\t// in\n    tag_254:\n        /* \"#utility.yul\":5079:5185   */\n      swap8\n      pop\n        /* \"#utility.yul\":5208:5286   */\n      tag_255\n        /* \"#utility.yul\":5279:5285   */\n      dup4\n        /* \"#utility.yul\":5208:5286   */\n      tag_180\n      jump\t// in\n    tag_255:\n        /* \"#utility.yul\":5198:5286   */\n      swap3\n      pop\n        /* \"#utility.yul\":5018:5296   */\n      pop\n        /* \"#utility.yul\":5005:5006   */\n      0x01\n        /* \"#utility.yul\":5002:5003   */\n      dup2\n        /* \"#utility.yul\":4998:5007   */\n      add\n        /* \"#utility.yul\":4993:5007   */\n      swap1\n      pop\n        /* \"#utility.yul\":4958:5296   */\n      jump(tag_251)\n    tag_253:\n        /* \"#utility.yul\":4962:4976   */\n      pop\n        /* \"#utility.yul\":5312:5315   */\n      dup6\n        /* \"#utility.yul\":5305:5315   */\n      swap4\n      pop\n        /* \"#utility.yul\":4605:5321   */\n      pop\n      pop\n      pop\n        /* \"#utility.yul\":4445:5321   */\n      swap3\n      swap2\n      pop\n      pop\n      jump\t// out\n        /* \"#utility.yul\":5327:5772   */\n    tag_58:\n        /* \"#utility.yul\":5506:5510   */\n      0x00\n        /* \"#utility.yul\":5544:5546   */\n      0x20\n        /* \"#utility.yul\":5533:5542   */\n      dup3\n        /* \"#utility.yul\":5529:5547   */\n      add\n        /* \"#utility.yul\":5521:5547   */\n      swap1\n      pop\n        /* \"#utility.yul\":5593:5602   */\n      dup2\n        /* \"#utility.yul\":5587:5591   */\n      dup2\n        /* \"#utility.yul\":5583:5603   */\n      sub\n        /* \"#utility.yul\":5579:5580   */\n      0x00\n        /* \"#utility.yul\":5568:5577   */\n      dup4\n        /* \"#utility.yul\":5564:5581   */\n      add\n        /* \"#utility.yul\":5557:5604   */\n      mstore\n        /* \"#utility.yul\":5621:5765   */\n      tag_257\n        /* \"#utility.yul\":5760:5764   */\n      dup2\n        /* \"#utility.yul\":5751:5757   */\n      dup5\n        /* \"#utility.yul\":5621:5765   */\n      tag_181\n      jump\t// in\n    tag_257:\n        /* \"#utility.yul\":5613:5765   */\n      swap1\n      pop\n        /* \"#utility.yul\":5327:5772   */\n      swap3\n      swap2\n      pop\n      pop\n      jump\t// out\n        /* \"#utility.yul\":5778:5947   */\n    tag_182:\n        /* \"#utility.yul\":5862:5873   */\n      0x00\n        /* \"#utility.yul\":5896:5902   */\n      dup3\n        /* \"#utility.yul\":5891:5894   */\n      dup3\n        /* \"#utility.yul\":5884:5903   */\n      mstore\n        /* \"#utility.yul\":5936:5940   */\n      0x20\n        /* \"#utility.yul\":5931:5934   */\n      dup3\n        /* \"#utility.yul\":5927:5941   */\n      add\n        /* \"#utility.yul\":5912:5941   */\n      swap1\n      pop\n        /* \"#utility.yul\":5778:5947   */\n      swap3\n      swap2\n      pop\n      pop\n      jump\t// out\n        /* \"#utility.yul\":5953:6127   */\n    tag_183:\n        /* \"#utility.yul\":6093:6119   */\n      0x4c612073756261737461206861207465726d696e61646f2e0000000000000000\n        /* \"#utility.yul\":6089:6090   */\n      0x00\n        /* \"#utility.yul\":6081:6087   */\n      dup3\n        /* \"#utility.yul\":6077:6091   */\n      add\n        /* \"#utility.yul\":6070:6120   */\n      mstore\n        /* \"#utility.yul\":5953:6127   */\n      pop\n      jump\t// out\n        /* \"#utility.yul\":6133:6499   */\n    tag_184:\n        /* \"#utility.yul\":6275:6278   */\n      0x00\n        /* \"#utility.yul\":6296:6363   */\n      tag_261\n        /* \"#utility.yul\":6360:6362   */\n      0x18\n        /* \"#utility.yul\":6355:6358   */\n      dup4\n        /* \"#utility.yul\":6296:6363   */\n      tag_182\n      jump\t// in\n    tag_261:\n        /* \"#utility.yul\":6289:6363   */\n      swap2\n      pop\n        /* \"#utility.yul\":6372:6465   */\n      tag_262\n        /* \"#utility.yul\":6461:6464   */\n      dup3\n        /* \"#utility.yul\":6372:6465   */\n      tag_183\n      jump\t// in\n    tag_262:\n        /* \"#utility.yul\":6490:6492   */\n      0x20\n        /* \"#utility.yul\":6485:6488   */\n      dup3\n        /* \"#utility.yul\":6481:6493   */\n      add\n        /* \"#utility.yul\":6474:6493   */\n      swap1\n      pop\n        /* \"#utility.yul\":6133:6499   */\n      swap2\n      swap1\n      pop\n      jump\t// out\n        /* \"#utility.yul\":6505:6924   */\n    tag_69:\n        /* \"#utility.yul\":6671:6675   */\n      0x00\n        /* \"#utility.yul\":6709:6711   */\n      0x20\n        /* \"#utility.yul\":6698:6707   */\n      dup3\n        /* \"#utility.yul\":6694:6712   */\n      add\n        /* \"#utility.yul\":6686:6712   */\n      swap1\n      pop\n        /* \"#utility.yul\":6758:6767   */\n      dup2\n        /* \"#utility.yul\":6752:6756   */\n      dup2\n        /* \"#utility.yul\":6748:6768   */\n      sub\n        /* \"#utility.yul\":6744:6745   */\n      0x00\n        /* \"#utility.yul\":6733:6742   */\n      dup4\n        /* \"#utility.yul\":6729:6746   */\n      add\n        /* \"#utility.yul\":6722:6769   */\n      mstore\n        /* \"#utility.yul\":6786:6917   */\n      tag_264\n        /* \"#utility.yul\":6912:6916   */\n      dup2\n        /* \"#utility.yul\":6786:6917   */\n      tag_184\n      jump\t// in\n    tag_264:\n        /* \"#utility.yul\":6778:6917   */\n      swap1\n      pop\n        /* \"#utility.yul\":6505:6924   */\n      swap2\n      swap1\n      pop\n      jump\t// out\n        /* \"#utility.yul\":6930:7110   */\n    tag_185:\n        /* \"#utility.yul\":6978:7055   */\n      0x4e487b7100000000000000000000000000000000000000000000000000000000\n        /* \"#utility.yul\":6975:6976   */\n      0x00\n        /* \"#utility.yul\":6968:7056   */\n      mstore\n        /* \"#utility.yul\":7075:7079   */\n      0x11\n        /* \"#utility.yul\":7072:7073   */\n      0x04\n        /* \"#utility.yul\":7065:7080   */\n      mstore\n        /* \"#utility.yul\":7099:7103   */\n      0x24\n        /* \"#utility.yul\":7096:7097   */\n      0x00\n        /* \"#utility.yul\":7089:7104   */\n      revert\n        /* \"#utility.yul\":7116:7310   */\n    tag_72:\n        /* \"#utility.yul\":7156:7160   */\n      0x00\n        /* \"#utility.yul\":7176:7196   */\n      tag_267\n        /* \"#utility.yul\":7194:7195   */\n      dup3\n        /* \"#utility.yul\":7176:7196   */\n      tag_164\n      jump\t// in\n    tag_267:\n        /* \"#utility.yul\":7171:7196   */\n      swap2\n      pop\n        /* \"#utility.yul\":7210:7230   */\n      tag_268\n        /* \"#utility.yul\":7228:7229   */\n      dup4\n        /* \"#utility.yul\":7210:7230   */\n      tag_164\n      jump\t// in\n    tag_268:\n        /* \"#utility.yul\":7205:7230   */\n      swap3\n      pop\n        /* \"#utility.yul\":7254:7255   */\n      dup3\n        /* \"#utility.yul\":7251:7252   */\n      dup3\n        /* \"#utility.yul\":7247:7256   */\n      sub\n        /* \"#utility.yul\":7239:7256   */\n      swap1\n      pop\n        /* \"#utility.yul\":7278:7279   */\n      dup2\n        /* \"#utility.yul\":7272:7276   */\n      dup2\n        /* \"#utility.yul\":7269:7280   */\n      gt\n        /* \"#utility.yul\":7266:7303   */\n      iszero\n      tag_269\n      jumpi\n        /* \"#utility.yul\":7283:7301   */\n      tag_270\n      tag_185\n      jump\t// in\n    tag_270:\n        /* \"#utility.yul\":7266:7303   */\n    tag_269:\n        /* \"#utility.yul\":7116:7310   */\n      swap3\n      swap2\n      pop\n      pop\n      jump\t// out\n        /* \"#utility.yul\":7316:7537   */\n    tag_186:\n        /* \"#utility.yul\":7456:7490   */\n      0x4e6f207365207075656465207265746972617220657374612063616e74696461\n        /* \"#utility.yul\":7452:7453   */\n      0x00\n        /* \"#utility.yul\":7444:7450   */\n      dup3\n        /* \"#utility.yul\":7440:7454   */\n      add\n        /* \"#utility.yul\":7433:7491   */\n      mstore\n        /* \"#utility.yul\":7525:7529   */\n      0x642e000000000000000000000000000000000000000000000000000000000000\n        /* \"#utility.yul\":7520:7522   */\n      0x20\n        /* \"#utility.yul\":7512:7518   */\n      dup3\n        /* \"#utility.yul\":7508:7523   */\n      add\n        /* \"#utility.yul\":7501:7530   */\n      mstore\n        /* \"#utility.yul\":7316:7537   */\n      pop\n      jump\t// out\n        /* \"#utility.yul\":7543:7909   */\n    tag_187:\n        /* \"#utility.yul\":7685:7688   */\n      0x00\n        /* \"#utility.yul\":7706:7773   */\n      tag_273\n        /* \"#utility.yul\":7770:7772   */\n      0x22\n        /* \"#utility.yul\":7765:7768   */\n      dup4\n        /* \"#utility.yul\":7706:7773   */\n      tag_182\n      jump\t// in\n    tag_273:\n        /* \"#utility.yul\":7699:7773   */\n      swap2\n      pop\n        /* \"#utility.yul\":7782:7875   */\n      tag_274\n        /* \"#utility.yul\":7871:7874   */\n      dup3\n        /* \"#utility.yul\":7782:7875   */\n      tag_186\n      jump\t// in\n    tag_274:\n        /* \"#utility.yul\":7900:7902   */\n      0x40\n        /* \"#utility.yul\":7895:7898   */\n      dup3\n        /* \"#utility.yul\":7891:7903   */\n      add\n        /* \"#utility.yul\":7884:7903   */\n      swap1\n      pop\n        /* \"#utility.yul\":7543:7909   */\n      swap2\n      swap1\n      pop\n      jump\t// out\n        /* \"#utility.yul\":7915:8334   */\n    tag_75:\n        /* \"#utility.yul\":8081:8085   */\n      0x00\n        /* \"#utility.yul\":8119:8121   */\n      0x20\n        /* \"#utility.yul\":8108:8117   */\n      dup3\n        /* \"#utility.yul\":8104:8122   */\n      add\n        /* \"#utility.yul\":8096:8122   */\n      swap1\n      pop\n        /* \"#utility.yul\":8168:8177   */\n      dup2\n        /* \"#utility.yul\":8162:8166   */\n      dup2\n        /* \"#utility.yul\":8158:8178   */\n      sub\n        /* \"#utility.yul\":8154:8155   */\n      0x00\n        /* \"#utility.yul\":8143:8152   */\n      dup4\n        /* \"#utility.yul\":8139:8156   */\n      add\n        /* \"#utility.yul\":8132:8179   */\n      mstore\n        /* \"#utility.yul\":8196:8327   */\n      tag_276\n        /* \"#utility.yul\":8322:8326   */\n      dup2\n        /* \"#utility.yul\":8196:8327   */\n      tag_187\n      jump\t// in\n    tag_276:\n        /* \"#utility.yul\":8188:8327   */\n      swap1\n      pop\n        /* \"#utility.yul\":7915:8334   */\n      swap2\n      swap1\n      pop\n      jump\t// out\n        /* \"#utility.yul\":8340:8563   */\n    tag_188:\n        /* \"#utility.yul\":8480:8514   */\n      0x4c612063616e7469646164206465626520736572206d61796f72207175652063\n        /* \"#utility.yul\":8476:8477   */\n      0x00\n        /* \"#utility.yul\":8468:8474   */\n      dup3\n        /* \"#utility.yul\":8464:8478   */\n      add\n        /* \"#utility.yul\":8457:8515   */\n      mstore\n        /* \"#utility.yul\":8549:8555   */\n      0x65726f2e00000000000000000000000000000000000000000000000000000000\n        /* \"#utility.yul\":8544:8546   */\n      0x20\n        /* \"#utility.yul\":8536:8542   */\n      dup3\n        /* \"#utility.yul\":8532:8547   */\n      add\n        /* \"#utility.yul\":8525:8556   */\n      mstore\n        /* \"#utility.yul\":8340:8563   */\n      pop\n      jump\t// out\n        /* \"#utility.yul\":8569:8935   */\n    tag_189:\n        /* \"#utility.yul\":8711:8714   */\n      0x00\n        /* \"#utility.yul\":8732:8799   */\n      tag_279\n        /* \"#utility.yul\":8796:8798   */\n      0x24\n        /* \"#utility.yul\":8791:8794   */\n      dup4\n        /* \"#utility.yul\":8732:8799   */\n      tag_182\n      jump\t// in\n    tag_279:\n        /* \"#utility.yul\":8725:8799   */\n      swap2\n      pop\n        /* \"#utility.yul\":8808:8901   */\n      tag_280\n        /* \"#utility.yul\":8897:8900   */\n      dup3\n        /* \"#utility.yul\":8808:8901   */\n      tag_188\n      jump\t// in\n    tag_280:\n        /* \"#utility.yul\":8926:8928   */\n      0x40\n        /* \"#utility.yul\":8921:8924   */\n      dup3\n        /* \"#utility.yul\":8917:8929   */\n      add\n        /* \"#utility.yul\":8910:8929   */\n      swap1\n      pop\n        /* \"#utility.yul\":8569:8935   */\n      swap2\n      swap1\n      pop\n      jump\t// out\n        /* \"#utility.yul\":8941:9360   */\n    tag_78:\n        /* \"#utility.yul\":9107:9111   */\n      0x00\n        /* \"#utility.yul\":9145:9147   */\n      0x20\n        /* \"#utility.yul\":9134:9143   */\n      dup3\n        /* \"#utility.yul\":9130:9148   */\n      add\n        /* \"#utility.yul\":9122:9148   */\n      swap1\n      pop\n        /* \"#utility.yul\":9194:9203   */\n      dup2\n        /* \"#utility.yul\":9188:9192   */\n      dup2\n        /* \"#utility.yul\":9184:9204   */\n      sub\n        /* \"#utility.yul\":9180:9181   */\n      0x00\n        /* \"#utility.yul\":9169:9178   */\n      dup4\n        /* \"#utility.yul\":9165:9182   */\n      add\n        /* \"#utility.yul\":9158:9205   */\n      mstore\n        /* \"#utility.yul\":9222:9353   */\n      tag_282\n        /* \"#utility.yul\":9348:9352   */\n      dup2\n        /* \"#utility.yul\":9222:9353   */\n      tag_189\n      jump\t// in\n    tag_282:\n        /* \"#utility.yul\":9214:9353   */\n      swap1\n      pop\n        /* \"#utility.yul\":8941:9360   */\n      swap2\n      swap1\n      pop\n      jump\t// out\n        /* \"#utility.yul\":9366:9546   */\n    tag_84:\n        /* \"#utility.yul\":9414:9491   */\n      0x4e487b7100000000000000000000000000000000000000000000000000000000\n        /* \"#utility.yul\":9411:9412   */\n      0x00\n        /* \"#utility.yul\":9404:9492   */\n      mstore\n        /* \"#utility.yul\":9511:9515   */\n      0x32\n        /* \"#utility.yul\":9508:9509   */\n      0x04\n        /* \"#utility.yul\":9501:9516   */\n      mstore\n        /* \"#utility.yul\":9535:9539   */\n      0x24\n        /* \"#utility.yul\":9532:9533   */\n      0x00\n        /* \"#utility.yul\":9525:9540   */\n      revert\n        /* \"#utility.yul\":9552:9781   */\n    tag_190:\n        /* \"#utility.yul\":9692:9726   */\n      0x4e6f207075656465732072657469726172206d617320646520747520756c7469\n        /* \"#utility.yul\":9688:9689   */\n      0x00\n        /* \"#utility.yul\":9680:9686   */\n      dup3\n        /* \"#utility.yul\":9676:9690   */\n      add\n        /* \"#utility.yul\":9669:9727   */\n      mstore\n        /* \"#utility.yul\":9761:9773   */\n      0x6d61206f66657274612e00000000000000000000000000000000000000000000\n        /* \"#utility.yul\":9756:9758   */\n      0x20\n        /* \"#utility.yul\":9748:9754   */\n      dup3\n        /* \"#utility.yul\":9744:9759   */\n      add\n        /* \"#utility.yul\":9737:9774   */\n      mstore\n        /* \"#utility.yul\":9552:9781   */\n      pop\n      jump\t// out\n        /* \"#utility.yul\":9787:10153   */\n    tag_191:\n        /* \"#utility.yul\":9929:9932   */\n      0x00\n        /* \"#utility.yul\":9950:10017   */\n      tag_286\n        /* \"#utility.yul\":10014:10016   */\n      0x2a\n        /* \"#utility.yul\":10009:10012   */\n      dup4\n        /* \"#utility.yul\":9950:10017   */\n      tag_182\n      jump\t// in\n    tag_286:\n        /* \"#utility.yul\":9943:10017   */\n      swap2\n      pop\n        /* \"#utility.yul\":10026:10119   */\n      tag_287\n        /* \"#utility.yul\":10115:10118   */\n      dup3\n        /* \"#utility.yul\":10026:10119   */\n      tag_190\n      jump\t// in\n    tag_287:\n        /* \"#utility.yul\":10144:10146   */\n      0x40\n        /* \"#utility.yul\":10139:10142   */\n      dup3\n        /* \"#utility.yul\":10135:10147   */\n      add\n        /* \"#utility.yul\":10128:10147   */\n      swap1\n      pop\n        /* \"#utility.yul\":9787:10153   */\n      swap2\n      swap1\n      pop\n      jump\t// out\n        /* \"#utility.yul\":10159:10578   */\n    tag_92:\n        /* \"#utility.yul\":10325:10329   */\n      0x00\n        /* \"#utility.yul\":10363:10365   */\n      0x20\n        /* \"#utility.yul\":10352:10361   */\n      dup3\n        /* \"#utility.yul\":10348:10366   */\n      add\n        /* \"#utility.yul\":10340:10366   */\n      swap1\n      pop\n        /* \"#utility.yul\":10412:10421   */\n      dup2\n        /* \"#utility.yul\":10406:10410   */\n      dup2\n        /* \"#utility.yul\":10402:10422   */\n      sub\n        /* \"#utility.yul\":10398:10399   */\n      0x00\n        /* \"#utility.yul\":10387:10396   */\n      dup4\n        /* \"#utility.yul\":10383:10400   */\n      add\n        /* \"#utility.yul\":10376:10423   */\n      mstore\n        /* \"#utility.yul\":10440:10571   */\n      tag_289\n        /* \"#utility.yul\":10566:10570   */\n      dup2\n        /* \"#utility.yul\":10440:10571   */\n      tag_191\n      jump\t// in\n    tag_289:\n        /* \"#utility.yul\":10432:10571   */\n      swap1\n      pop\n        /* \"#utility.yul\":10159:10578   */\n      swap2\n      swap1\n      pop\n      jump\t// out\n        /* \"#utility.yul\":10584:10994   */\n    tag_100:\n        /* \"#utility.yul\":10624:10631   */\n      0x00\n        /* \"#utility.yul\":10647:10667   */\n      tag_291\n        /* \"#utility.yul\":10665:10666   */\n      dup3\n        /* \"#utility.yul\":10647:10667   */\n      tag_164\n      jump\t// in\n    tag_291:\n        /* \"#utility.yul\":10642:10667   */\n      swap2\n      pop\n        /* \"#utility.yul\":10681:10701   */\n      tag_292\n        /* \"#utility.yul\":10699:10700   */\n      dup4\n        /* \"#utility.yul\":10681:10701   */\n      tag_164\n      jump\t// in\n    tag_292:\n        /* \"#utility.yul\":10676:10701   */\n      swap3\n      pop\n        /* \"#utility.yul\":10736:10737   */\n      dup3\n        /* \"#utility.yul\":10733:10734   */\n      dup3\n        /* \"#utility.yul\":10729:10738   */\n      mul\n        /* \"#utility.yul\":10758:10788   */\n      tag_293\n        /* \"#utility.yul\":10776:10787   */\n      dup2\n        /* \"#utility.yul\":10758:10788   */\n      tag_164\n      jump\t// in\n    tag_293:\n        /* \"#utility.yul\":10747:10788   */\n      swap2\n      pop\n        /* \"#utility.yul\":10937:10938   */\n      dup3\n        /* \"#utility.yul\":10928:10935   */\n      dup3\n        /* \"#utility.yul\":10924:10939   */\n      div\n        /* \"#utility.yul\":10921:10922   */\n      dup5\n        /* \"#utility.yul\":10918:10940   */\n      eq\n        /* \"#utility.yul\":10898:10899   */\n      dup4\n        /* \"#utility.yul\":10891:10900   */\n      iszero\n        /* \"#utility.yul\":10871:10954   */\n      or\n        /* \"#utility.yul\":10848:10987   */\n      tag_294\n      jumpi\n        /* \"#utility.yul\":10967:10985   */\n      tag_295\n      tag_185\n      jump\t// in\n    tag_295:\n        /* \"#utility.yul\":10848:10987   */\n    tag_294:\n        /* \"#utility.yul\":10632:10994   */\n      pop\n        /* \"#utility.yul\":10584:10994   */\n      swap3\n      swap2\n      pop\n      pop\n      jump\t// out\n        /* \"#utility.yul\":11000:11180   */\n    tag_192:\n        /* \"#utility.yul\":11048:11125   */\n      0x4e487b7100000000000000000000000000000000000000000000000000000000\n        /* \"#utility.yul\":11045:11046   */\n      0x00\n        /* \"#utility.yul\":11038:11126   */\n      mstore\n        /* \"#utility.yul\":11145:11149   */\n      0x12\n        /* \"#utility.yul\":11142:11143   */\n      0x04\n        /* \"#utility.yul\":11135:11150   */\n      mstore\n        /* \"#utility.yul\":11169:11173   */\n      0x24\n        /* \"#utility.yul\":11166:11167   */\n      0x00\n        /* \"#utility.yul\":11159:11174   */\n      revert\n        /* \"#utility.yul\":11186:11371   */\n    tag_102:\n        /* \"#utility.yul\":11226:11227   */\n      0x00\n        /* \"#utility.yul\":11243:11263   */\n      tag_298\n        /* \"#utility.yul\":11261:11262   */\n      dup3\n        /* \"#utility.yul\":11243:11263   */\n      tag_164\n      jump\t// in\n    tag_298:\n        /* \"#utility.yul\":11238:11263   */\n      swap2\n      pop\n        /* \"#utility.yul\":11277:11297   */\n      tag_299\n        /* \"#utility.yul\":11295:11296   */\n      dup4\n        /* \"#utility.yul\":11277:11297   */\n      tag_164\n      jump\t// in\n    tag_299:\n        /* \"#utility.yul\":11272:11297   */\n      swap3\n      pop\n        /* \"#utility.yul\":11316:11317   */\n      dup3\n        /* \"#utility.yul\":11306:11341   */\n      tag_300\n      jumpi\n        /* \"#utility.yul\":11321:11339   */\n      tag_301\n      tag_192\n      jump\t// in\n    tag_301:\n        /* \"#utility.yul\":11306:11341   */\n    tag_300:\n        /* \"#utility.yul\":11363:11364   */\n      dup3\n        /* \"#utility.yul\":11360:11361   */\n      dup3\n        /* \"#utility.yul\":11356:11365   */\n      div\n        /* \"#utility.yul\":11351:11365   */\n      swap1\n      pop\n        /* \"#utility.yul\":11186:11371   */\n      swap3\n      swap2\n      pop\n      pop\n      jump\t// out\n        /* \"#utility.yul\":11377:11671   */\n    tag_193:\n        /* \"#utility.yul\":11517:11551   */\n      0x4c61206f666572746120646562652073657220616c206d656e6f7320756e2035\n        /* \"#utility.yul\":11513:11514   */\n      0x00\n        /* \"#utility.yul\":11505:11511   */\n      dup3\n        /* \"#utility.yul\":11501:11515   */\n      add\n        /* \"#utility.yul\":11494:11552   */\n      mstore\n        /* \"#utility.yul\":11586:11620   */\n      0x25206d61796f7220717565206c61206f6665727461206d617320616c74612061\n        /* \"#utility.yul\":11581:11583   */\n      0x20\n        /* \"#utility.yul\":11573:11579   */\n      dup3\n        /* \"#utility.yul\":11569:11584   */\n      add\n        /* \"#utility.yul\":11562:11621   */\n      mstore\n        /* \"#utility.yul\":11655:11663   */\n      0x637475616c2e0000000000000000000000000000000000000000000000000000\n        /* \"#utility.yul\":11650:11652   */\n      0x40\n        /* \"#utility.yul\":11642:11648   */\n      dup3\n        /* \"#utility.yul\":11638:11653   */\n      add\n        /* \"#utility.yul\":11631:11664   */\n      mstore\n        /* \"#utility.yul\":11377:11671   */\n      pop\n      jump\t// out\n        /* \"#utility.yul\":11677:12043   */\n    tag_194:\n        /* \"#utility.yul\":11819:11822   */\n      0x00\n        /* \"#utility.yul\":11840:11907   */\n      tag_304\n        /* \"#utility.yul\":11904:11906   */\n      0x46\n        /* \"#utility.yul\":11899:11902   */\n      dup4\n        /* \"#utility.yul\":11840:11907   */\n      tag_182\n      jump\t// in\n    tag_304:\n        /* \"#utility.yul\":11833:11907   */\n      swap2\n      pop\n        /* \"#utility.yul\":11916:12009   */\n      tag_305\n        /* \"#utility.yul\":12005:12008   */\n      dup3\n        /* \"#utility.yul\":11916:12009   */\n      tag_193\n      jump\t// in\n    tag_305:\n        /* \"#utility.yul\":12034:12036   */\n      0x60\n        /* \"#utility.yul\":12029:12032   */\n      dup3\n        /* \"#utility.yul\":12025:12037   */\n      add\n        /* \"#utility.yul\":12018:12037   */\n      swap1\n      pop\n        /* \"#utility.yul\":11677:12043   */\n      swap2\n      swap1\n      pop\n      jump\t// out\n        /* \"#utility.yul\":12049:12468   */\n    tag_105:\n        /* \"#utility.yul\":12215:12219   */\n      0x00\n        /* \"#utility.yul\":12253:12255   */\n      0x20\n        /* \"#utility.yul\":12242:12251   */\n      dup3\n        /* \"#utility.yul\":12238:12256   */\n      add\n        /* \"#utility.yul\":12230:12256   */\n      swap1\n      pop\n        /* \"#utility.yul\":12302:12311   */\n      dup2\n        /* \"#utility.yul\":12296:12300   */\n      dup2\n        /* \"#utility.yul\":12292:12312   */\n      sub\n        /* \"#utility.yul\":12288:12289   */\n      0x00\n        /* \"#utility.yul\":12277:12286   */\n      dup4\n        /* \"#utility.yul\":12273:12290   */\n      add\n        /* \"#utility.yul\":12266:12313   */\n      mstore\n        /* \"#utility.yul\":12330:12461   */\n      tag_307\n        /* \"#utility.yul\":12456:12460   */\n      dup2\n        /* \"#utility.yul\":12330:12461   */\n      tag_194\n      jump\t// in\n    tag_307:\n        /* \"#utility.yul\":12322:12461   */\n      swap1\n      pop\n        /* \"#utility.yul\":12049:12468   */\n      swap2\n      swap1\n      pop\n      jump\t// out\n        /* \"#utility.yul\":12474:12665   */\n    tag_113:\n        /* \"#utility.yul\":12514:12517   */\n      0x00\n        /* \"#utility.yul\":12533:12553   */\n      tag_309\n        /* \"#utility.yul\":12551:12552   */\n      dup3\n        /* \"#utility.yul\":12533:12553   */\n      tag_164\n      jump\t// in\n    tag_309:\n        /* \"#utility.yul\":12528:12553   */\n      swap2\n      pop\n        /* \"#utility.yul\":12567:12587   */\n      tag_310\n        /* \"#utility.yul\":12585:12586   */\n      dup4\n        /* \"#utility.yul\":12567:12587   */\n      tag_164\n      jump\t// in\n    tag_310:\n        /* \"#utility.yul\":12562:12587   */\n      swap3\n      pop\n        /* \"#utility.yul\":12610:12611   */\n      dup3\n        /* \"#utility.yul\":12607:12608   */\n      dup3\n        /* \"#utility.yul\":12603:12612   */\n      add\n        /* \"#utility.yul\":12596:12612   */\n      swap1\n      pop\n        /* \"#utility.yul\":12631:12634   */\n      dup1\n        /* \"#utility.yul\":12628:12629   */\n      dup3\n        /* \"#utility.yul\":12625:12635   */\n      gt\n        /* \"#utility.yul\":12622:12658   */\n      iszero\n      tag_311\n      jumpi\n        /* \"#utility.yul\":12638:12656   */\n      tag_312\n      tag_185\n      jump\t// in\n    tag_312:\n        /* \"#utility.yul\":12622:12658   */\n    tag_311:\n        /* \"#utility.yul\":12474:12665   */\n      swap3\n      swap2\n      pop\n      pop\n      jump\t// out\n        /* \"#utility.yul\":12671:12848   */\n    tag_195:\n        /* \"#utility.yul\":12811:12840   */\n      0x4c612073756261737461206e6f206861207465726d696e61646f2e0000000000\n        /* \"#utility.yul\":12807:12808   */\n      0x00\n        /* \"#utility.yul\":12799:12805   */\n      dup3\n        /* \"#utility.yul\":12795:12809   */\n      add\n        /* \"#utility.yul\":12788:12841   */\n      mstore\n        /* \"#utility.yul\":12671:12848   */\n      pop\n      jump\t// out\n        /* \"#utility.yul\":12854:13220   */\n    tag_196:\n        /* \"#utility.yul\":12996:12999   */\n      0x00\n        /* \"#utility.yul\":13017:13084   */\n      tag_315\n        /* \"#utility.yul\":13081:13083   */\n      0x1b\n        /* \"#utility.yul\":13076:13079   */\n      dup4\n        /* \"#utility.yul\":13017:13084   */\n      tag_182\n      jump\t// in\n    tag_315:\n        /* \"#utility.yul\":13010:13084   */\n      swap2\n      pop\n        /* \"#utility.yul\":13093:13186   */\n      tag_316\n        /* \"#utility.yul\":13182:13185   */\n      dup3\n        /* \"#utility.yul\":13093:13186   */\n      tag_195\n      jump\t// in\n    tag_316:\n        /* \"#utility.yul\":13211:13213   */\n      0x20\n        /* \"#utility.yul\":13206:13209   */\n      dup3\n        /* \"#utility.yul\":13202:13214   */\n      add\n        /* \"#utility.yul\":13195:13214   */\n      swap1\n      pop\n        /* \"#utility.yul\":12854:13220   */\n      swap2\n      swap1\n      pop\n      jump\t// out\n        /* \"#utility.yul\":13226:13645   */\n    tag_118:\n        /* \"#utility.yul\":13392:13396   */\n      0x00\n        /* \"#utility.yul\":13430:13432   */\n      0x20\n        /* \"#utility.yul\":13419:13428   */\n      dup3\n        /* \"#utility.yul\":13415:13433   */\n      add\n        /* \"#utility.yul\":13407:13433   */\n      swap1\n      pop\n        /* \"#utility.yul\":13479:13488   */\n      dup2\n        /* \"#utility.yul\":13473:13477   */\n      dup2\n        /* \"#utility.yul\":13469:13489   */\n      sub\n        /* \"#utility.yul\":13465:13466   */\n      0x00\n        /* \"#utility.yul\":13454:13463   */\n      dup4\n        /* \"#utility.yul\":13450:13467   */\n      add\n        /* \"#utility.yul\":13443:13490   */\n      mstore\n        /* \"#utility.yul\":13507:13638   */\n      tag_318\n        /* \"#utility.yul\":13633:13637   */\n      dup2\n        /* \"#utility.yul\":13507:13638   */\n      tag_196\n      jump\t// in\n    tag_318:\n        /* \"#utility.yul\":13499:13638   */\n      swap1\n      pop\n        /* \"#utility.yul\":13226:13645   */\n      swap2\n      swap1\n      pop\n      jump\t// out\n        /* \"#utility.yul\":13651:13828   */\n    tag_197:\n        /* \"#utility.yul\":13791:13820   */\n      0x4e6f2068617920666f6e646f73207061726120726574697261722e0000000000\n        /* \"#utility.yul\":13787:13788   */\n      0x00\n        /* \"#utility.yul\":13779:13785   */\n      dup3\n        /* \"#utility.yul\":13775:13789   */\n      add\n        /* \"#utility.yul\":13768:13821   */\n      mstore\n        /* \"#utility.yul\":13651:13828   */\n      pop\n      jump\t// out\n        /* \"#utility.yul\":13834:14200   */\n    tag_198:\n        /* \"#utility.yul\":13976:13979   */\n      0x00\n        /* \"#utility.yul\":13997:14064   */\n      tag_321\n        /* \"#utility.yul\":14061:14063   */\n      0x1b\n        /* \"#utility.yul\":14056:14059   */\n      dup4\n        /* \"#utility.yul\":13997:14064   */\n      tag_182\n      jump\t// in\n    tag_321:\n        /* \"#utility.yul\":13990:14064   */\n      swap2\n      pop\n        /* \"#utility.yul\":14073:14166   */\n      tag_322\n        /* \"#utility.yul\":14162:14165   */\n      dup3\n        /* \"#utility.yul\":14073:14166   */\n      tag_197\n      jump\t// in\n    tag_322:\n        /* \"#utility.yul\":14191:14193   */\n      0x20\n        /* \"#utility.yul\":14186:14189   */\n      dup3\n        /* \"#utility.yul\":14182:14194   */\n      add\n        /* \"#utility.yul\":14175:14194   */\n      swap1\n      pop\n        /* \"#utility.yul\":13834:14200   */\n      swap2\n      swap1\n      pop\n      jump\t// out\n        /* \"#utility.yul\":14206:14625   */\n    tag_139:\n        /* \"#utility.yul\":14372:14376   */\n      0x00\n        /* \"#utility.yul\":14410:14412   */\n      0x20\n        /* \"#utility.yul\":14399:14408   */\n      dup3\n        /* \"#utility.yul\":14395:14413   */\n      add\n        /* \"#utility.yul\":14387:14413   */\n      swap1\n      pop\n        /* \"#utility.yul\":14459:14468   */\n      dup2\n        /* \"#utility.yul\":14453:14457   */\n      dup2\n        /* \"#utility.yul\":14449:14469   */\n      sub\n        /* \"#utility.yul\":14445:14446   */\n      0x00\n        /* \"#utility.yul\":14434:14443   */\n      dup4\n        /* \"#utility.yul\":14430:14447   */\n      add\n        /* \"#utility.yul\":14423:14470   */\n      mstore\n        /* \"#utility.yul\":14487:14618   */\n      tag_324\n        /* \"#utility.yul\":14613:14617   */\n      dup2\n        /* \"#utility.yul\":14487:14618   */\n      tag_198\n      jump\t// in\n    tag_324:\n        /* \"#utility.yul\":14479:14618   */\n      swap1\n      pop\n        /* \"#utility.yul\":14206:14625   */\n      swap2\n      swap1\n      pop\n      jump\t// out\n        /* \"#utility.yul\":14631:14881   */\n    tag_199:\n        /* \"#utility.yul\":14771:14805   */\n      0x4e6f206175746f72697a61646f3a20736f6c6f20656c2070726f706965746172\n        /* \"#utility.yul\":14767:14768   */\n      0x00\n        /* \"#utility.yul\":14759:14765   */\n      dup3\n        /* \"#utility.yul\":14755:14769   */\n      add\n        /* \"#utility.yul\":14748:14806   */\n      mstore\n        /* \"#utility.yul\":14840:14873   */\n      0x696f20707565646520656a65637574617220657374612066756e63696f6e2e00\n        /* \"#utility.yul\":14835:14837   */\n      0x20\n        /* \"#utility.yul\":14827:14833   */\n      dup3\n        /* \"#utility.yul\":14823:14838   */\n      add\n        /* \"#utility.yul\":14816:14874   */\n      mstore\n        /* \"#utility.yul\":14631:14881   */\n      pop\n      jump\t// out\n        /* \"#utility.yul\":14887:15253   */\n    tag_200:\n        /* \"#utility.yul\":15029:15032   */\n      0x00\n        /* \"#utility.yul\":15050:15117   */\n      tag_327\n        /* \"#utility.yul\":15114:15116   */\n      0x3f\n        /* \"#utility.yul\":15109:15112   */\n      dup4\n        /* \"#utility.yul\":15050:15117   */\n      tag_182\n      jump\t// in\n    tag_327:\n        /* \"#utility.yul\":15043:15117   */\n      swap2\n      pop\n        /* \"#utility.yul\":15126:15219   */\n      tag_328\n        /* \"#utility.yul\":15215:15218   */\n      dup3\n        /* \"#utility.yul\":15126:15219   */\n      tag_199\n      jump\t// in\n    tag_328:\n        /* \"#utility.yul\":15244:15246   */\n      0x40\n        /* \"#utility.yul\":15239:15242   */\n      dup3\n        /* \"#utility.yul\":15235:15247   */\n      add\n        /* \"#utility.yul\":15228:15247   */\n      swap1\n      pop\n        /* \"#utility.yul\":14887:15253   */\n      swap2\n      swap1\n      pop\n      jump\t// out\n        /* \"#utility.yul\":15259:15678   */\n    tag_155:\n        /* \"#utility.yul\":15425:15429   */\n      0x00\n        /* \"#utility.yul\":15463:15465   */\n      0x20\n        /* \"#utility.yul\":15452:15461   */\n      dup3\n        /* \"#utility.yul\":15448:15466   */\n      add\n        /* \"#utility.yul\":15440:15466   */\n      swap1\n      pop\n        /* \"#utility.yul\":15512:15521   */\n      dup2\n        /* \"#utility.yul\":15506:15510   */\n      dup2\n        /* \"#utility.yul\":15502:15522   */\n      sub\n        /* \"#utility.yul\":15498:15499   */\n      0x00\n        /* \"#utility.yul\":15487:15496   */\n      dup4\n        /* \"#utility.yul\":15483:15500   */\n      add\n        /* \"#utility.yul\":15476:15523   */\n      mstore\n        /* \"#utility.yul\":15540:15671   */\n      tag_330\n        /* \"#utility.yul\":15666:15670   */\n      dup2\n        /* \"#utility.yul\":15540:15671   */\n      tag_200\n      jump\t// in\n    tag_330:\n        /* \"#utility.yul\":15532:15671   */\n      swap1\n      pop\n        /* \"#utility.yul\":15259:15678   */\n      swap2\n      swap1\n      pop\n      jump\t// out\n\n    auxdata: 0xa26469706673582212205c90c8b7e1ca17c5403ce0ea3f817ef70688a367eaf8444f0e933bb765c548b064736f6c634300081a0033\n}\n",
				"bytecode": {
					"linkReferences": {},
					"object": "608060405234801561000f575f80fd5b50604051611649380380611649833981810160405281019061003191906100cb565b335f806101000a81548173ffffffffffffffffffffffffffffffffffffffff021916908373ffffffffffffffffffffffffffffffffffffffff1602179055506402540be40060018190555080426100889190610123565b60038190555050610156565b5f80fd5b5f819050919050565b6100aa81610098565b81146100b4575f80fd5b50565b5f815190506100c5816100a1565b92915050565b5f602082840312156100e0576100df610094565b5b5f6100ed848285016100b7565b91505092915050565b7f4e487b71000000000000000000000000000000000000000000000000000000005f52601160045260245ffd5b5f61012d82610098565b915061013883610098565b92508282019050808211156101505761014f6100f6565b5b92915050565b6114e6806101635f395ff3fe6080604052600436106100a6575f3560e01c80638da5cb5b116100635780638da5cb5b1461018357806391f90157146101ad578063b7e03264146101d7578063b81c78ec14610202578063d57bde791461022c578063fe67a54b14610256576100a6565b80631211540c146100aa5780631998aeef146100d25780633197cbb6146100dc5780633ccfd60b146101065780634423c5f11461011c5780638643337414610159575b5f80fd5b3480156100b5575f80fd5b506100d060048036038101906100cb9190610d06565b61026c565b005b6100da610486565b005b3480156100e7575f80fd5b506100f061074d565b6040516100fd9190610d40565b60405180910390f35b348015610111575f80fd5b5061011a610753565b005b348015610127575f80fd5b50610142600480360381019061013d9190610d06565b6109a1565b604051610150929190610d98565b60405180910390f35b348015610164575f80fd5b5061016d6109ef565b60405161017a9190610dd9565b60405180910390f35b34801561018e575f80fd5b50610197610a01565b6040516101a49190610df2565b60405180910390f35b3480156101b8575f80fd5b506101c1610a24565b6040516101ce9190610df2565b60405180910390f35b3480156101e2575f80fd5b506101eb610a49565b6040516101f9929190610d98565b60405180910390f35b34801561020d575f80fd5b50610216610ac6565b6040516102239190610efe565b60405180910390f35b348015610237575f80fd5b50610240610b80565b60405161024d9190610d40565b60405180910390f35b348015610261575f80fd5b5061026a610b86565b005b60035442106102b0576040517f08c379a00000000000000000000000000000000000000000000000000000000081526004016102a790610f78565b60405180910390fd5b600154476102be9190610fc3565b811115610300576040517f08c379a00000000000000000000000000000000000000000000000000000000081526004016102f790611066565b60405180910390fd5b5f8111610342576040517f08c379a0000000000000000000000000000000000000000000000000000000008152600401610339906110f4565b60405180910390fd5b5f805b6005805490508110156103fa573373ffffffffffffffffffffffffffffffffffffffff166005828154811061037d5761037c611112565b5b905f5260205f2090600202015f015f9054906101000a900473ffffffffffffffffffffffffffffffffffffffff1673ffffffffffffffffffffffffffffffffffffffff16036103ed57600581815481106103da576103d9611112565b5b905f5260205f2090600202016001015491505b8080600101915050610345565b508082111561043e576040517f08c379a0000000000000000000000000000000000000000000000000000000008152600401610435906111af565b60405180910390fd5b3373ffffffffffffffffffffffffffffffffffffffff166108fc8390811502906040515f60405180830381858888f19350505050158015610481573d5f803e3d5ffd5b505050565b60035442106104ca576040517f08c379a00000000000000000000000000000000000000000000000000000000081526004016104c190610f78565b60405180910390fd5b606460696001546104db91906111cd565b6104e5919061123b565b3411610526576040517f08c379a000000000000000000000000000000000000000000000000000000000815260040161051d90611301565b60405180910390fd5b5f73ffffffffffffffffffffffffffffffffffffffff1660025f9054906101000a900473ffffffffffffffffffffffffffffffffffffffff1673ffffffffffffffffffffffffffffffffffffffff16146105e25760025f9054906101000a900473ffffffffffffffffffffffffffffffffffffffff1673ffffffffffffffffffffffffffffffffffffffff166108fc60015490811502906040515f60405180830381858888f193505050501580156105e0573d5f803e3d5ffd5b505b346001819055503360025f6101000a81548173ffffffffffffffffffffffffffffffffffffffff021916908373ffffffffffffffffffffffffffffffffffffffff160217905550600560405180604001604052803373ffffffffffffffffffffffffffffffffffffffff16815260200134815250908060018154018082558091505060019003905f5260205f2090600202015f909190919091505f820151815f015f6101000a81548173ffffffffffffffffffffffffffffffffffffffff021916908373ffffffffffffffffffffffffffffffffffffffff160217905550602082015181600101555050610258426003546106dd9190610fc3565b116106fd5761025860035f8282546106f5919061131f565b925050819055505b3373ffffffffffffffffffffffffffffffffffffffff167fdd0b6c6a77960e2066c96171b4d7ac9e8b4c184011f38544afa36a5bb63ec59f346040516107439190610d40565b60405180910390a2565b60035481565b60045f9054906101000a900460ff166107a1576040517f08c379a00000000000000000000000000000000000000000000000000000000081526004016107989061139c565b60405180910390fd5b5f805b600580549050811015610917573373ffffffffffffffffffffffffffffffffffffffff16600582815481106107dc576107db611112565b5b905f5260205f2090600202015f015f9054906101000a900473ffffffffffffffffffffffffffffffffffffffff1673ffffffffffffffffffffffffffffffffffffffff161480156108bb575060025f9054906101000a900473ffffffffffffffffffffffffffffffffffffffff1673ffffffffffffffffffffffffffffffffffffffff166005828154811061087457610873611112565b5b905f5260205f2090600202015f015f9054906101000a900473ffffffffffffffffffffffffffffffffffffffff1673ffffffffffffffffffffffffffffffffffffffff1614155b1561090a5760646062600583815481106108d8576108d7611112565b5b905f5260205f209060020201600101546108f291906111cd565b6108fc919061123b565b82610907919061131f565b91505b80806001019150506107a4565b505f811161095a576040517f08c379a000000000000000000000000000000000000000000000000000000000815260040161095190611404565b60405180910390fd5b3373ffffffffffffffffffffffffffffffffffffffff166108fc8290811502906040515f60405180830381858888f1935050505015801561099d573d5f803e3d5ffd5b5050565b600581815481106109b0575f80fd5b905f5260205f2090600202015f91509050805f015f9054906101000a900473ffffffffffffffffffffffffffffffffffffffff16908060010154905082565b60045f9054906101000a900460ff1681565b5f8054906101000a900473ffffffffffffffffffffffffffffffffffffffff1681565b60025f9054906101000a900473ffffffffffffffffffffffffffffffffffffffff1681565b5f8060045f9054906101000a900460ff16610a99576040517f08c379a0000000000000000000000000000000000000000000000000000000008152600401610a909061139c565b60405180910390fd5b60025f9054906101000a900473ffffffffffffffffffffffffffffffffffffffff16600154915091509091565b60606005805480602002602001604051908101604052809291908181526020015f905b82821015610b77578382905f5260205f2090600202016040518060400160405290815f82015f9054906101000a900473ffffffffffffffffffffffffffffffffffffffff1673ffffffffffffffffffffffffffffffffffffffff1673ffffffffffffffffffffffffffffffffffffffff16815260200160018201548152505081526020019060010190610ae9565b50505050905090565b60015481565b5f8054906101000a900473ffffffffffffffffffffffffffffffffffffffff1673ffffffffffffffffffffffffffffffffffffffff163373ffffffffffffffffffffffffffffffffffffffff1614610c13576040517f08c379a0000000000000000000000000000000000000000000000000000000008152600401610c0a90611492565b60405180910390fd5b6003544210610c57576040517f08c379a0000000000000000000000000000000000000000000000000000000008152600401610c4e90610f78565b60405180910390fd5b600160045f6101000a81548160ff0219169083151502179055507fdaec4582d5d9595688c8c98545fdd1c696d41c6aeaeb636737e84ed2f5c00eda60025f9054906101000a900473ffffffffffffffffffffffffffffffffffffffff16600154604051610cc5929190610d98565b60405180910390a1565b5f80fd5b5f819050919050565b610ce581610cd3565b8114610cef575f80fd5b50565b5f81359050610d0081610cdc565b92915050565b5f60208284031215610d1b57610d1a610ccf565b5b5f610d2884828501610cf2565b91505092915050565b610d3a81610cd3565b82525050565b5f602082019050610d535f830184610d31565b92915050565b5f73ffffffffffffffffffffffffffffffffffffffff82169050919050565b5f610d8282610d59565b9050919050565b610d9281610d78565b82525050565b5f604082019050610dab5f830185610d89565b610db86020830184610d31565b9392505050565b5f8115159050919050565b610dd381610dbf565b82525050565b5f602082019050610dec5f830184610dca565b92915050565b5f602082019050610e055f830184610d89565b92915050565b5f81519050919050565b5f82825260208201905092915050565b5f819050602082019050919050565b610e3d81610d78565b82525050565b610e4c81610cd3565b82525050565b604082015f820151610e665f850182610e34565b506020820151610e796020850182610e43565b50505050565b5f610e8a8383610e52565b60408301905092915050565b5f602082019050919050565b5f610eac82610e0b565b610eb68185610e15565b9350610ec183610e25565b805f5b83811015610ef1578151610ed88882610e7f565b9750610ee383610e96565b925050600181019050610ec4565b5085935050505092915050565b5f6020820190508181035f830152610f168184610ea2565b905092915050565b5f82825260208201905092915050565b7f4c612073756261737461206861207465726d696e61646f2e00000000000000005f82015250565b5f610f62601883610f1e565b9150610f6d82610f2e565b602082019050919050565b5f6020820190508181035f830152610f8f81610f56565b9050919050565b7f4e487b71000000000000000000000000000000000000000000000000000000005f52601160045260245ffd5b5f610fcd82610cd3565b9150610fd883610cd3565b9250828203905081811115610ff057610fef610f96565b5b92915050565b7f4e6f207365207075656465207265746972617220657374612063616e746964615f8201527f642e000000000000000000000000000000000000000000000000000000000000602082015250565b5f611050602283610f1e565b915061105b82610ff6565b604082019050919050565b5f6020820190508181035f83015261107d81611044565b9050919050565b7f4c612063616e7469646164206465626520736572206d61796f722071756520635f8201527f65726f2e00000000000000000000000000000000000000000000000000000000602082015250565b5f6110de602483610f1e565b91506110e982611084565b604082019050919050565b5f6020820190508181035f83015261110b816110d2565b9050919050565b7f4e487b71000000000000000000000000000000000000000000000000000000005f52603260045260245ffd5b7f4e6f207075656465732072657469726172206d617320646520747520756c74695f8201527f6d61206f66657274612e00000000000000000000000000000000000000000000602082015250565b5f611199602a83610f1e565b91506111a48261113f565b604082019050919050565b5f6020820190508181035f8301526111c68161118d565b9050919050565b5f6111d782610cd3565b91506111e283610cd3565b92508282026111f081610cd3565b9150828204841483151761120757611206610f96565b5b5092915050565b7f4e487b71000000000000000000000000000000000000000000000000000000005f52601260045260245ffd5b5f61124582610cd3565b915061125083610cd3565b9250826112605761125f61120e565b5b828204905092915050565b7f4c61206f666572746120646562652073657220616c206d656e6f7320756e20355f8201527f25206d61796f7220717565206c61206f6665727461206d617320616c7461206160208201527f637475616c2e0000000000000000000000000000000000000000000000000000604082015250565b5f6112eb604683610f1e565b91506112f68261126b565b606082019050919050565b5f6020820190508181035f830152611318816112df565b9050919050565b5f61132982610cd3565b915061133483610cd3565b925082820190508082111561134c5761134b610f96565b5b92915050565b7f4c612073756261737461206e6f206861207465726d696e61646f2e00000000005f82015250565b5f611386601b83610f1e565b915061139182611352565b602082019050919050565b5f6020820190508181035f8301526113b38161137a565b9050919050565b7f4e6f2068617920666f6e646f73207061726120726574697261722e00000000005f82015250565b5f6113ee601b83610f1e565b91506113f9826113ba565b602082019050919050565b5f6020820190508181035f83015261141b816113e2565b9050919050565b7f4e6f206175746f72697a61646f3a20736f6c6f20656c2070726f7069657461725f8201527f696f20707565646520656a65637574617220657374612066756e63696f6e2e00602082015250565b5f61147c603f83610f1e565b915061148782611422565b604082019050919050565b5f6020820190508181035f8301526114a981611470565b905091905056fea26469706673582212205c90c8b7e1ca17c5403ce0ea3f817ef70688a367eaf8444f0e933bb765c548b064736f6c634300081a0033",
					"opcodes": "PUSH1 0x80 PUSH1 0x40 MSTORE CALLVALUE DUP1 ISZERO PUSH2 0xF JUMPI PUSH0 DUP1 REVERT JUMPDEST POP PUSH1 0x40 MLOAD PUSH2 0x1649 CODESIZE SUB DUP1 PUSH2 0x1649 DUP4 CODECOPY DUP2 DUP2 ADD PUSH1 0x40 MSTORE DUP2 ADD SWAP1 PUSH2 0x31 SWAP2 SWAP1 PUSH2 0xCB JUMP JUMPDEST CALLER PUSH0 DUP1 PUSH2 0x100 EXP DUP2 SLOAD DUP2 PUSH20 0xFFFFFFFFFFFFFFFFFFFFFFFFFFFFFFFFFFFFFFFF MUL NOT AND SWAP1 DUP4 PUSH20 0xFFFFFFFFFFFFFFFFFFFFFFFFFFFFFFFFFFFFFFFF AND MUL OR SWAP1 SSTORE POP PUSH5 0x2540BE400 PUSH1 0x1 DUP2 SWAP1 SSTORE POP DUP1 TIMESTAMP PUSH2 0x88 SWAP2 SWAP1 PUSH2 0x123 JUMP JUMPDEST PUSH1 0x3 DUP2 SWAP1 SSTORE POP POP PUSH2 0x156 JUMP JUMPDEST PUSH0 DUP1 REVERT JUMPDEST PUSH0 DUP2 SWAP1 POP SWAP2 SWAP1 POP JUMP JUMPDEST PUSH2 0xAA DUP2 PUSH2 0x98 JUMP JUMPDEST DUP2 EQ PUSH2 0xB4 JUMPI PUSH0 DUP1 REVERT JUMPDEST POP JUMP JUMPDEST PUSH0 DUP2 MLOAD SWAP1 POP PUSH2 0xC5 DUP2 PUSH2 0xA1 JUMP JUMPDEST SWAP3 SWAP2 POP POP JUMP JUMPDEST PUSH0 PUSH1 0x20 DUP3 DUP5 SUB SLT ISZERO PUSH2 0xE0 JUMPI PUSH2 0xDF PUSH2 0x94 JUMP JUMPDEST JUMPDEST PUSH0 PUSH2 0xED DUP5 DUP3 DUP6 ADD PUSH2 0xB7 JUMP JUMPDEST SWAP2 POP POP SWAP3 SWAP2 POP POP JUMP JUMPDEST PUSH32 0x4E487B7100000000000000000000000000000000000000000000000000000000 PUSH0 MSTORE PUSH1 0x11 PUSH1 0x4 MSTORE PUSH1 0x24 PUSH0 REVERT JUMPDEST PUSH0 PUSH2 0x12D DUP3 PUSH2 0x98 JUMP JUMPDEST SWAP2 POP PUSH2 0x138 DUP4 PUSH2 0x98 JUMP JUMPDEST SWAP3 POP DUP3 DUP3 ADD SWAP1 POP DUP1 DUP3 GT ISZERO PUSH2 0x150 JUMPI PUSH2 0x14F PUSH2 0xF6 JUMP JUMPDEST JUMPDEST SWAP3 SWAP2 POP POP JUMP JUMPDEST PUSH2 0x14E6 DUP1 PUSH2 0x163 PUSH0 CODECOPY PUSH0 RETURN INVALID PUSH1 0x80 PUSH1 0x40 MSTORE PUSH1 0x4 CALLDATASIZE LT PUSH2 0xA6 JUMPI PUSH0 CALLDATALOAD PUSH1 0xE0 SHR DUP1 PUSH4 0x8DA5CB5B GT PUSH2 0x63 JUMPI DUP1 PUSH4 0x8DA5CB5B EQ PUSH2 0x183 JUMPI DUP1 PUSH4 0x91F90157 EQ PUSH2 0x1AD JUMPI DUP1 PUSH4 0xB7E03264 EQ PUSH2 0x1D7 JUMPI DUP1 PUSH4 0xB81C78EC EQ PUSH2 0x202 JUMPI DUP1 PUSH4 0xD57BDE79 EQ PUSH2 0x22C JUMPI DUP1 PUSH4 0xFE67A54B EQ PUSH2 0x256 JUMPI PUSH2 0xA6 JUMP JUMPDEST DUP1 PUSH4 0x1211540C EQ PUSH2 0xAA JUMPI DUP1 PUSH4 0x1998AEEF EQ PUSH2 0xD2 JUMPI DUP1 PUSH4 0x3197CBB6 EQ PUSH2 0xDC JUMPI DUP1 PUSH4 0x3CCFD60B EQ PUSH2 0x106 JUMPI DUP1 PUSH4 0x4423C5F1 EQ PUSH2 0x11C JUMPI DUP1 PUSH4 0x86433374 EQ PUSH2 0x159 JUMPI JUMPDEST PUSH0 DUP1 REVERT JUMPDEST CALLVALUE DUP1 ISZERO PUSH2 0xB5 JUMPI PUSH0 DUP1 REVERT JUMPDEST POP PUSH2 0xD0 PUSH1 0x4 DUP1 CALLDATASIZE SUB DUP2 ADD SWAP1 PUSH2 0xCB SWAP2 SWAP1 PUSH2 0xD06 JUMP JUMPDEST PUSH2 0x26C JUMP JUMPDEST STOP JUMPDEST PUSH2 0xDA PUSH2 0x486 JUMP JUMPDEST STOP JUMPDEST CALLVALUE DUP1 ISZERO PUSH2 0xE7 JUMPI PUSH0 DUP1 REVERT JUMPDEST POP PUSH2 0xF0 PUSH2 0x74D JUMP JUMPDEST PUSH1 0x40 MLOAD PUSH2 0xFD SWAP2 SWAP1 PUSH2 0xD40 JUMP JUMPDEST PUSH1 0x40 MLOAD DUP1 SWAP2 SUB SWAP1 RETURN JUMPDEST CALLVALUE DUP1 ISZERO PUSH2 0x111 JUMPI PUSH0 DUP1 REVERT JUMPDEST POP PUSH2 0x11A PUSH2 0x753 JUMP JUMPDEST STOP JUMPDEST CALLVALUE DUP1 ISZERO PUSH2 0x127 JUMPI PUSH0 DUP1 REVERT JUMPDEST POP PUSH2 0x142 PUSH1 0x4 DUP1 CALLDATASIZE SUB DUP2 ADD SWAP1 PUSH2 0x13D SWAP2 SWAP1 PUSH2 0xD06 JUMP JUMPDEST PUSH2 0x9A1 JUMP JUMPDEST PUSH1 0x40 MLOAD PUSH2 0x150 SWAP3 SWAP2 SWAP1 PUSH2 0xD98 JUMP JUMPDEST PUSH1 0x40 MLOAD DUP1 SWAP2 SUB SWAP1 RETURN JUMPDEST CALLVALUE DUP1 ISZERO PUSH2 0x164 JUMPI PUSH0 DUP1 REVERT JUMPDEST POP PUSH2 0x16D PUSH2 0x9EF JUMP JUMPDEST PUSH1 0x40 MLOAD PUSH2 0x17A SWAP2 SWAP1 PUSH2 0xDD9 JUMP JUMPDEST PUSH1 0x40 MLOAD DUP1 SWAP2 SUB SWAP1 RETURN JUMPDEST CALLVALUE DUP1 ISZERO PUSH2 0x18E JUMPI PUSH0 DUP1 REVERT JUMPDEST POP PUSH2 0x197 PUSH2 0xA01 JUMP JUMPDEST PUSH1 0x40 MLOAD PUSH2 0x1A4 SWAP2 SWAP1 PUSH2 0xDF2 JUMP JUMPDEST PUSH1 0x40 MLOAD DUP1 SWAP2 SUB SWAP1 RETURN JUMPDEST CALLVALUE DUP1 ISZERO PUSH2 0x1B8 JUMPI PUSH0 DUP1 REVERT JUMPDEST POP PUSH2 0x1C1 PUSH2 0xA24 JUMP JUMPDEST PUSH1 0x40 MLOAD PUSH2 0x1CE SWAP2 SWAP1 PUSH2 0xDF2 JUMP JUMPDEST PUSH1 0x40 MLOAD DUP1 SWAP2 SUB SWAP1 RETURN JUMPDEST CALLVALUE DUP1 ISZERO PUSH2 0x1E2 JUMPI PUSH0 DUP1 REVERT JUMPDEST POP PUSH2 0x1EB PUSH2 0xA49 JUMP JUMPDEST PUSH1 0x40 MLOAD PUSH2 0x1F9 SWAP3 SWAP2 SWAP1 PUSH2 0xD98 JUMP JUMPDEST PUSH1 0x40 MLOAD DUP1 SWAP2 SUB SWAP1 RETURN JUMPDEST CALLVALUE DUP1 ISZERO PUSH2 0x20D JUMPI PUSH0 DUP1 REVERT JUMPDEST POP PUSH2 0x216 PUSH2 0xAC6 JUMP JUMPDEST PUSH1 0x40 MLOAD PUSH2 0x223 SWAP2 SWAP1 PUSH2 0xEFE JUMP JUMPDEST PUSH1 0x40 MLOAD DUP1 SWAP2 SUB SWAP1 RETURN JUMPDEST CALLVALUE DUP1 ISZERO PUSH2 0x237 JUMPI PUSH0 DUP1 REVERT JUMPDEST POP PUSH2 0x240 PUSH2 0xB80 JUMP JUMPDEST PUSH1 0x40 MLOAD PUSH2 0x24D SWAP2 SWAP1 PUSH2 0xD40 JUMP JUMPDEST PUSH1 0x40 MLOAD DUP1 SWAP2 SUB SWAP1 RETURN JUMPDEST CALLVALUE DUP1 ISZERO PUSH2 0x261 JUMPI PUSH0 DUP1 REVERT JUMPDEST POP PUSH2 0x26A PUSH2 0xB86 JUMP JUMPDEST STOP JUMPDEST PUSH1 0x3 SLOAD TIMESTAMP LT PUSH2 0x2B0 JUMPI PUSH1 0x40 MLOAD PUSH32 0x8C379A000000000000000000000000000000000000000000000000000000000 DUP2 MSTORE PUSH1 0x4 ADD PUSH2 0x2A7 SWAP1 PUSH2 0xF78 JUMP JUMPDEST PUSH1 0x40 MLOAD DUP1 SWAP2 SUB SWAP1 REVERT JUMPDEST PUSH1 0x1 SLOAD SELFBALANCE PUSH2 0x2BE SWAP2 SWAP1 PUSH2 0xFC3 JUMP JUMPDEST DUP2 GT ISZERO PUSH2 0x300 JUMPI PUSH1 0x40 MLOAD PUSH32 0x8C379A000000000000000000000000000000000000000000000000000000000 DUP2 MSTORE PUSH1 0x4 ADD PUSH2 0x2F7 SWAP1 PUSH2 0x1066 JUMP JUMPDEST PUSH1 0x40 MLOAD DUP1 SWAP2 SUB SWAP1 REVERT JUMPDEST PUSH0 DUP2 GT PUSH2 0x342 JUMPI PUSH1 0x40 MLOAD PUSH32 0x8C379A000000000000000000000000000000000000000000000000000000000 DUP2 MSTORE PUSH1 0x4 ADD PUSH2 0x339 SWAP1 PUSH2 0x10F4 JUMP JUMPDEST PUSH1 0x40 MLOAD DUP1 SWAP2 SUB SWAP1 REVERT JUMPDEST PUSH0 DUP1 JUMPDEST PUSH1 0x5 DUP1 SLOAD SWAP1 POP DUP2 LT ISZERO PUSH2 0x3FA JUMPI CALLER PUSH20 0xFFFFFFFFFFFFFFFFFFFFFFFFFFFFFFFFFFFFFFFF AND PUSH1 0x5 DUP3 DUP2 SLOAD DUP2 LT PUSH2 0x37D JUMPI PUSH2 0x37C PUSH2 0x1112 JUMP JUMPDEST JUMPDEST SWAP1 PUSH0 MSTORE PUSH1 0x20 PUSH0 KECCAK256 SWAP1 PUSH1 0x2 MUL ADD PUSH0 ADD PUSH0 SWAP1 SLOAD SWAP1 PUSH2 0x100 EXP SWAP1 DIV PUSH20 0xFFFFFFFFFFFFFFFFFFFFFFFFFFFFFFFFFFFFFFFF AND PUSH20 0xFFFFFFFFFFFFFFFFFFFFFFFFFFFFFFFFFFFFFFFF AND SUB PUSH2 0x3ED JUMPI PUSH1 0x5 DUP2 DUP2 SLOAD DUP2 LT PUSH2 0x3DA JUMPI PUSH2 0x3D9 PUSH2 0x1112 JUMP JUMPDEST JUMPDEST SWAP1 PUSH0 MSTORE PUSH1 0x20 PUSH0 KECCAK256 SWAP1 PUSH1 0x2 MUL ADD PUSH1 0x1 ADD SLOAD SWAP2 POP JUMPDEST DUP1 DUP1 PUSH1 0x1 ADD SWAP2 POP POP PUSH2 0x345 JUMP JUMPDEST POP DUP1 DUP3 GT ISZERO PUSH2 0x43E JUMPI PUSH1 0x40 MLOAD PUSH32 0x8C379A000000000000000000000000000000000000000000000000000000000 DUP2 MSTORE PUSH1 0x4 ADD PUSH2 0x435 SWAP1 PUSH2 0x11AF JUMP JUMPDEST PUSH1 0x40 MLOAD DUP1 SWAP2 SUB SWAP1 REVERT JUMPDEST CALLER PUSH20 0xFFFFFFFFFFFFFFFFFFFFFFFFFFFFFFFFFFFFFFFF AND PUSH2 0x8FC DUP4 SWAP1 DUP2 ISZERO MUL SWAP1 PUSH1 0x40 MLOAD PUSH0 PUSH1 0x40 MLOAD DUP1 DUP4 SUB DUP2 DUP6 DUP9 DUP9 CALL SWAP4 POP POP POP POP ISZERO DUP1 ISZERO PUSH2 0x481 JUMPI RETURNDATASIZE PUSH0 DUP1 RETURNDATACOPY RETURNDATASIZE PUSH0 REVERT JUMPDEST POP POP POP JUMP JUMPDEST PUSH1 0x3 SLOAD TIMESTAMP LT PUSH2 0x4CA JUMPI PUSH1 0x40 MLOAD PUSH32 0x8C379A000000000000000000000000000000000000000000000000000000000 DUP2 MSTORE PUSH1 0x4 ADD PUSH2 0x4C1 SWAP1 PUSH2 0xF78 JUMP JUMPDEST PUSH1 0x40 MLOAD DUP1 SWAP2 SUB SWAP1 REVERT JUMPDEST PUSH1 0x64 PUSH1 0x69 PUSH1 0x1 SLOAD PUSH2 0x4DB SWAP2 SWAP1 PUSH2 0x11CD JUMP JUMPDEST PUSH2 0x4E5 SWAP2 SWAP1 PUSH2 0x123B JUMP JUMPDEST CALLVALUE GT PUSH2 0x526 JUMPI PUSH1 0x40 MLOAD PUSH32 0x8C379A000000000000000000000000000000000000000000000000000000000 DUP2 MSTORE PUSH1 0x4 ADD PUSH2 0x51D SWAP1 PUSH2 0x1301 JUMP JUMPDEST PUSH1 0x40 MLOAD DUP1 SWAP2 SUB SWAP1 REVERT JUMPDEST PUSH0 PUSH20 0xFFFFFFFFFFFFFFFFFFFFFFFFFFFFFFFFFFFFFFFF AND PUSH1 0x2 PUSH0 SWAP1 SLOAD SWAP1 PUSH2 0x100 EXP SWAP1 DIV PUSH20 0xFFFFFFFFFFFFFFFFFFFFFFFFFFFFFFFFFFFFFFFF AND PUSH20 0xFFFFFFFFFFFFFFFFFFFFFFFFFFFFFFFFFFFFFFFF AND EQ PUSH2 0x5E2 JUMPI PUSH1 0x2 PUSH0 SWAP1 SLOAD SWAP1 PUSH2 0x100 EXP SWAP1 DIV PUSH20 0xFFFFFFFFFFFFFFFFFFFFFFFFFFFFFFFFFFFFFFFF AND PUSH20 0xFFFFFFFFFFFFFFFFFFFFFFFFFFFFFFFFFFFFFFFF AND PUSH2 0x8FC PUSH1 0x1 SLOAD SWAP1 DUP2 ISZERO MUL SWAP1 PUSH1 0x40 MLOAD PUSH0 PUSH1 0x40 MLOAD DUP1 DUP4 SUB DUP2 DUP6 DUP9 DUP9 CALL SWAP4 POP POP POP POP ISZERO DUP1 ISZERO PUSH2 0x5E0 JUMPI RETURNDATASIZE PUSH0 DUP1 RETURNDATACOPY RETURNDATASIZE PUSH0 REVERT JUMPDEST POP JUMPDEST CALLVALUE PUSH1 0x1 DUP2 SWAP1 SSTORE POP CALLER PUSH1 0x2 PUSH0 PUSH2 0x100 EXP DUP2 SLOAD DUP2 PUSH20 0xFFFFFFFFFFFFFFFFFFFFFFFFFFFFFFFFFFFFFFFF MUL NOT AND SWAP1 DUP4 PUSH20 0xFFFFFFFFFFFFFFFFFFFFFFFFFFFFFFFFFFFFFFFF AND MUL OR SWAP1 SSTORE POP PUSH1 0x5 PUSH1 0x40 MLOAD DUP1 PUSH1 0x40 ADD PUSH1 0x40 MSTORE DUP1 CALLER PUSH20 0xFFFFFFFFFFFFFFFFFFFFFFFFFFFFFFFFFFFFFFFF AND DUP2 MSTORE PUSH1 0x20 ADD CALLVALUE DUP2 MSTORE POP SWAP1 DUP1 PUSH1 0x1 DUP2 SLOAD ADD DUP1 DUP3 SSTORE DUP1 SWAP2 POP POP PUSH1 0x1 SWAP1 SUB SWAP1 PUSH0 MSTORE PUSH1 0x20 PUSH0 KECCAK256 SWAP1 PUSH1 0x2 MUL ADD PUSH0 SWAP1 SWAP2 SWAP1 SWAP2 SWAP1 SWAP2 POP PUSH0 DUP3 ADD MLOAD DUP2 PUSH0 ADD PUSH0 PUSH2 0x100 EXP DUP2 SLOAD DUP2 PUSH20 0xFFFFFFFFFFFFFFFFFFFFFFFFFFFFFFFFFFFFFFFF MUL NOT AND SWAP1 DUP4 PUSH20 0xFFFFFFFFFFFFFFFFFFFFFFFFFFFFFFFFFFFFFFFF AND MUL OR SWAP1 SSTORE POP PUSH1 0x20 DUP3 ADD MLOAD DUP2 PUSH1 0x1 ADD SSTORE POP POP PUSH2 0x258 TIMESTAMP PUSH1 0x3 SLOAD PUSH2 0x6DD SWAP2 SWAP1 PUSH2 0xFC3 JUMP JUMPDEST GT PUSH2 0x6FD JUMPI PUSH2 0x258 PUSH1 0x3 PUSH0 DUP3 DUP3 SLOAD PUSH2 0x6F5 SWAP2 SWAP1 PUSH2 0x131F JUMP JUMPDEST SWAP3 POP POP DUP2 SWAP1 SSTORE POP JUMPDEST CALLER PUSH20 0xFFFFFFFFFFFFFFFFFFFFFFFFFFFFFFFFFFFFFFFF AND PUSH32 0xDD0B6C6A77960E2066C96171B4D7AC9E8B4C184011F38544AFA36A5BB63EC59F CALLVALUE PUSH1 0x40 MLOAD PUSH2 0x743 SWAP2 SWAP1 PUSH2 0xD40 JUMP JUMPDEST PUSH1 0x40 MLOAD DUP1 SWAP2 SUB SWAP1 LOG2 JUMP JUMPDEST PUSH1 0x3 SLOAD DUP2 JUMP JUMPDEST PUSH1 0x4 PUSH0 SWAP1 SLOAD SWAP1 PUSH2 0x100 EXP SWAP1 DIV PUSH1 0xFF AND PUSH2 0x7A1 JUMPI PUSH1 0x40 MLOAD PUSH32 0x8C379A000000000000000000000000000000000000000000000000000000000 DUP2 MSTORE PUSH1 0x4 ADD PUSH2 0x798 SWAP1 PUSH2 0x139C JUMP JUMPDEST PUSH1 0x40 MLOAD DUP1 SWAP2 SUB SWAP1 REVERT JUMPDEST PUSH0 DUP1 JUMPDEST PUSH1 0x5 DUP1 SLOAD SWAP1 POP DUP2 LT ISZERO PUSH2 0x917 JUMPI CALLER PUSH20 0xFFFFFFFFFFFFFFFFFFFFFFFFFFFFFFFFFFFFFFFF AND PUSH1 0x5 DUP3 DUP2 SLOAD DUP2 LT PUSH2 0x7DC JUMPI PUSH2 0x7DB PUSH2 0x1112 JUMP JUMPDEST JUMPDEST SWAP1 PUSH0 MSTORE PUSH1 0x20 PUSH0 KECCAK256 SWAP1 PUSH1 0x2 MUL ADD PUSH0 ADD PUSH0 SWAP1 SLOAD SWAP1 PUSH2 0x100 EXP SWAP1 DIV PUSH20 0xFFFFFFFFFFFFFFFFFFFFFFFFFFFFFFFFFFFFFFFF AND PUSH20 0xFFFFFFFFFFFFFFFFFFFFFFFFFFFFFFFFFFFFFFFF AND EQ DUP1 ISZERO PUSH2 0x8BB JUMPI POP PUSH1 0x2 PUSH0 SWAP1 SLOAD SWAP1 PUSH2 0x100 EXP SWAP1 DIV PUSH20 0xFFFFFFFFFFFFFFFFFFFFFFFFFFFFFFFFFFFFFFFF AND PUSH20 0xFFFFFFFFFFFFFFFFFFFFFFFFFFFFFFFFFFFFFFFF AND PUSH1 0x5 DUP3 DUP2 SLOAD DUP2 LT PUSH2 0x874 JUMPI PUSH2 0x873 PUSH2 0x1112 JUMP JUMPDEST JUMPDEST SWAP1 PUSH0 MSTORE PUSH1 0x20 PUSH0 KECCAK256 SWAP1 PUSH1 0x2 MUL ADD PUSH0 ADD PUSH0 SWAP1 SLOAD SWAP1 PUSH2 0x100 EXP SWAP1 DIV PUSH20 0xFFFFFFFFFFFFFFFFFFFFFFFFFFFFFFFFFFFFFFFF AND PUSH20 0xFFFFFFFFFFFFFFFFFFFFFFFFFFFFFFFFFFFFFFFF AND EQ ISZERO JUMPDEST ISZERO PUSH2 0x90A JUMPI PUSH1 0x64 PUSH1 0x62 PUSH1 0x5 DUP4 DUP2 SLOAD DUP2 LT PUSH2 0x8D8 JUMPI PUSH2 0x8D7 PUSH2 0x1112 JUMP JUMPDEST JUMPDEST SWAP1 PUSH0 MSTORE PUSH1 0x20 PUSH0 KECCAK256 SWAP1 PUSH1 0x2 MUL ADD PUSH1 0x1 ADD SLOAD PUSH2 0x8F2 SWAP2 SWAP1 PUSH2 0x11CD JUMP JUMPDEST PUSH2 0x8FC SWAP2 SWAP1 PUSH2 0x123B JUMP JUMPDEST DUP3 PUSH2 0x907 SWAP2 SWAP1 PUSH2 0x131F JUMP JUMPDEST SWAP2 POP JUMPDEST DUP1 DUP1 PUSH1 0x1 ADD SWAP2 POP POP PUSH2 0x7A4 JUMP JUMPDEST POP PUSH0 DUP2 GT PUSH2 0x95A JUMPI PUSH1 0x40 MLOAD PUSH32 0x8C379A000000000000000000000000000000000000000000000000000000000 DUP2 MSTORE PUSH1 0x4 ADD PUSH2 0x951 SWAP1 PUSH2 0x1404 JUMP JUMPDEST PUSH1 0x40 MLOAD DUP1 SWAP2 SUB SWAP1 REVERT JUMPDEST CALLER PUSH20 0xFFFFFFFFFFFFFFFFFFFFFFFFFFFFFFFFFFFFFFFF AND PUSH2 0x8FC DUP3 SWAP1 DUP2 ISZERO MUL SWAP1 PUSH1 0x40 MLOAD PUSH0 PUSH1 0x40 MLOAD DUP1 DUP4 SUB DUP2 DUP6 DUP9 DUP9 CALL SWAP4 POP POP POP POP ISZERO DUP1 ISZERO PUSH2 0x99D JUMPI RETURNDATASIZE PUSH0 DUP1 RETURNDATACOPY RETURNDATASIZE PUSH0 REVERT JUMPDEST POP POP JUMP JUMPDEST PUSH1 0x5 DUP2 DUP2 SLOAD DUP2 LT PUSH2 0x9B0 JUMPI PUSH0 DUP1 REVERT JUMPDEST SWAP1 PUSH0 MSTORE PUSH1 0x20 PUSH0 KECCAK256 SWAP1 PUSH1 0x2 MUL ADD PUSH0 SWAP2 POP SWAP1 POP DUP1 PUSH0 ADD PUSH0 SWAP1 SLOAD SWAP1 PUSH2 0x100 EXP SWAP1 DIV PUSH20 0xFFFFFFFFFFFFFFFFFFFFFFFFFFFFFFFFFFFFFFFF AND SWAP1 DUP1 PUSH1 0x1 ADD SLOAD SWAP1 POP DUP3 JUMP JUMPDEST PUSH1 0x4 PUSH0 SWAP1 SLOAD SWAP1 PUSH2 0x100 EXP SWAP1 DIV PUSH1 0xFF AND DUP2 JUMP JUMPDEST PUSH0 DUP1 SLOAD SWAP1 PUSH2 0x100 EXP SWAP1 DIV PUSH20 0xFFFFFFFFFFFFFFFFFFFFFFFFFFFFFFFFFFFFFFFF AND DUP2 JUMP JUMPDEST PUSH1 0x2 PUSH0 SWAP1 SLOAD SWAP1 PUSH2 0x100 EXP SWAP1 DIV PUSH20 0xFFFFFFFFFFFFFFFFFFFFFFFFFFFFFFFFFFFFFFFF AND DUP2 JUMP JUMPDEST PUSH0 DUP1 PUSH1 0x4 PUSH0 SWAP1 SLOAD SWAP1 PUSH2 0x100 EXP SWAP1 DIV PUSH1 0xFF AND PUSH2 0xA99 JUMPI PUSH1 0x40 MLOAD PUSH32 0x8C379A000000000000000000000000000000000000000000000000000000000 DUP2 MSTORE PUSH1 0x4 ADD PUSH2 0xA90 SWAP1 PUSH2 0x139C JUMP JUMPDEST PUSH1 0x40 MLOAD DUP1 SWAP2 SUB SWAP1 REVERT JUMPDEST PUSH1 0x2 PUSH0 SWAP1 SLOAD SWAP1 PUSH2 0x100 EXP SWAP1 DIV PUSH20 0xFFFFFFFFFFFFFFFFFFFFFFFFFFFFFFFFFFFFFFFF AND PUSH1 0x1 SLOAD SWAP2 POP SWAP2 POP SWAP1 SWAP2 JUMP JUMPDEST PUSH1 0x60 PUSH1 0x5 DUP1 SLOAD DUP1 PUSH1 0x20 MUL PUSH1 0x20 ADD PUSH1 0x40 MLOAD SWAP1 DUP2 ADD PUSH1 0x40 MSTORE DUP1 SWAP3 SWAP2 SWAP1 DUP2 DUP2 MSTORE PUSH1 0x20 ADD PUSH0 SWAP1 JUMPDEST DUP3 DUP3 LT ISZERO PUSH2 0xB77 JUMPI DUP4 DUP3 SWAP1 PUSH0 MSTORE PUSH1 0x20 PUSH0 KECCAK256 SWAP1 PUSH1 0x2 MUL ADD PUSH1 0x40 MLOAD DUP1 PUSH1 0x40 ADD PUSH1 0x40 MSTORE SWAP1 DUP2 PUSH0 DUP3 ADD PUSH0 SWAP1 SLOAD SWAP1 PUSH2 0x100 EXP SWAP1 DIV PUSH20 0xFFFFFFFFFFFFFFFFFFFFFFFFFFFFFFFFFFFFFFFF AND PUSH20 0xFFFFFFFFFFFFFFFFFFFFFFFFFFFFFFFFFFFFFFFF AND PUSH20 0xFFFFFFFFFFFFFFFFFFFFFFFFFFFFFFFFFFFFFFFF AND DUP2 MSTORE PUSH1 0x20 ADD PUSH1 0x1 DUP3 ADD SLOAD DUP2 MSTORE POP POP DUP2 MSTORE PUSH1 0x20 ADD SWAP1 PUSH1 0x1 ADD SWAP1 PUSH2 0xAE9 JUMP JUMPDEST POP POP POP POP SWAP1 POP SWAP1 JUMP JUMPDEST PUSH1 0x1 SLOAD DUP2 JUMP JUMPDEST PUSH0 DUP1 SLOAD SWAP1 PUSH2 0x100 EXP SWAP1 DIV PUSH20 0xFFFFFFFFFFFFFFFFFFFFFFFFFFFFFFFFFFFFFFFF AND PUSH20 0xFFFFFFFFFFFFFFFFFFFFFFFFFFFFFFFFFFFFFFFF AND CALLER PUSH20 0xFFFFFFFFFFFFFFFFFFFFFFFFFFFFFFFFFFFFFFFF AND EQ PUSH2 0xC13 JUMPI PUSH1 0x40 MLOAD PUSH32 0x8C379A000000000000000000000000000000000000000000000000000000000 DUP2 MSTORE PUSH1 0x4 ADD PUSH2 0xC0A SWAP1 PUSH2 0x1492 JUMP JUMPDEST PUSH1 0x40 MLOAD DUP1 SWAP2 SUB SWAP1 REVERT JUMPDEST PUSH1 0x3 SLOAD TIMESTAMP LT PUSH2 0xC57 JUMPI PUSH1 0x40 MLOAD PUSH32 0x8C379A000000000000000000000000000000000000000000000000000000000 DUP2 MSTORE PUSH1 0x4 ADD PUSH2 0xC4E SWAP1 PUSH2 0xF78 JUMP JUMPDEST PUSH1 0x40 MLOAD DUP1 SWAP2 SUB SWAP1 REVERT JUMPDEST PUSH1 0x1 PUSH1 0x4 PUSH0 PUSH2 0x100 EXP DUP2 SLOAD DUP2 PUSH1 0xFF MUL NOT AND SWAP1 DUP4 ISZERO ISZERO MUL OR SWAP1 SSTORE POP PUSH32 0xDAEC4582D5D9595688C8C98545FDD1C696D41C6AEAEB636737E84ED2F5C00EDA PUSH1 0x2 PUSH0 SWAP1 SLOAD SWAP1 PUSH2 0x100 EXP SWAP1 DIV PUSH20 0xFFFFFFFFFFFFFFFFFFFFFFFFFFFFFFFFFFFFFFFF AND PUSH1 0x1 SLOAD PUSH1 0x40 MLOAD PUSH2 0xCC5 SWAP3 SWAP2 SWAP1 PUSH2 0xD98 JUMP JUMPDEST PUSH1 0x40 MLOAD DUP1 SWAP2 SUB SWAP1 LOG1 JUMP JUMPDEST PUSH0 DUP1 REVERT JUMPDEST PUSH0 DUP2 SWAP1 POP SWAP2 SWAP1 POP JUMP JUMPDEST PUSH2 0xCE5 DUP2 PUSH2 0xCD3 JUMP JUMPDEST DUP2 EQ PUSH2 0xCEF JUMPI PUSH0 DUP1 REVERT JUMPDEST POP JUMP JUMPDEST PUSH0 DUP2 CALLDATALOAD SWAP1 POP PUSH2 0xD00 DUP2 PUSH2 0xCDC JUMP JUMPDEST SWAP3 SWAP2 POP POP JUMP JUMPDEST PUSH0 PUSH1 0x20 DUP3 DUP5 SUB SLT ISZERO PUSH2 0xD1B JUMPI PUSH2 0xD1A PUSH2 0xCCF JUMP JUMPDEST JUMPDEST PUSH0 PUSH2 0xD28 DUP5 DUP3 DUP6 ADD PUSH2 0xCF2 JUMP JUMPDEST SWAP2 POP POP SWAP3 SWAP2 POP POP JUMP JUMPDEST PUSH2 0xD3A DUP2 PUSH2 0xCD3 JUMP JUMPDEST DUP3 MSTORE POP POP JUMP JUMPDEST PUSH0 PUSH1 0x20 DUP3 ADD SWAP1 POP PUSH2 0xD53 PUSH0 DUP4 ADD DUP5 PUSH2 0xD31 JUMP JUMPDEST SWAP3 SWAP2 POP POP JUMP JUMPDEST PUSH0 PUSH20 0xFFFFFFFFFFFFFFFFFFFFFFFFFFFFFFFFFFFFFFFF DUP3 AND SWAP1 POP SWAP2 SWAP1 POP JUMP JUMPDEST PUSH0 PUSH2 0xD82 DUP3 PUSH2 0xD59 JUMP JUMPDEST SWAP1 POP SWAP2 SWAP1 POP JUMP JUMPDEST PUSH2 0xD92 DUP2 PUSH2 0xD78 JUMP JUMPDEST DUP3 MSTORE POP POP JUMP JUMPDEST PUSH0 PUSH1 0x40 DUP3 ADD SWAP1 POP PUSH2 0xDAB PUSH0 DUP4 ADD DUP6 PUSH2 0xD89 JUMP JUMPDEST PUSH2 0xDB8 PUSH1 0x20 DUP4 ADD DUP5 PUSH2 0xD31 JUMP JUMPDEST SWAP4 SWAP3 POP POP POP JUMP JUMPDEST PUSH0 DUP2 ISZERO ISZERO SWAP1 POP SWAP2 SWAP1 POP JUMP JUMPDEST PUSH2 0xDD3 DUP2 PUSH2 0xDBF JUMP JUMPDEST DUP3 MSTORE POP POP JUMP JUMPDEST PUSH0 PUSH1 0x20 DUP3 ADD SWAP1 POP PUSH2 0xDEC PUSH0 DUP4 ADD DUP5 PUSH2 0xDCA JUMP JUMPDEST SWAP3 SWAP2 POP POP JUMP JUMPDEST PUSH0 PUSH1 0x20 DUP3 ADD SWAP1 POP PUSH2 0xE05 PUSH0 DUP4 ADD DUP5 PUSH2 0xD89 JUMP JUMPDEST SWAP3 SWAP2 POP POP JUMP JUMPDEST PUSH0 DUP2 MLOAD SWAP1 POP SWAP2 SWAP1 POP JUMP JUMPDEST PUSH0 DUP3 DUP3 MSTORE PUSH1 0x20 DUP3 ADD SWAP1 POP SWAP3 SWAP2 POP POP JUMP JUMPDEST PUSH0 DUP2 SWAP1 POP PUSH1 0x20 DUP3 ADD SWAP1 POP SWAP2 SWAP1 POP JUMP JUMPDEST PUSH2 0xE3D DUP2 PUSH2 0xD78 JUMP JUMPDEST DUP3 MSTORE POP POP JUMP JUMPDEST PUSH2 0xE4C DUP2 PUSH2 0xCD3 JUMP JUMPDEST DUP3 MSTORE POP POP JUMP JUMPDEST PUSH1 0x40 DUP3 ADD PUSH0 DUP3 ADD MLOAD PUSH2 0xE66 PUSH0 DUP6 ADD DUP3 PUSH2 0xE34 JUMP JUMPDEST POP PUSH1 0x20 DUP3 ADD MLOAD PUSH2 0xE79 PUSH1 0x20 DUP6 ADD DUP3 PUSH2 0xE43 JUMP JUMPDEST POP POP POP POP JUMP JUMPDEST PUSH0 PUSH2 0xE8A DUP4 DUP4 PUSH2 0xE52 JUMP JUMPDEST PUSH1 0x40 DUP4 ADD SWAP1 POP SWAP3 SWAP2 POP POP JUMP JUMPDEST PUSH0 PUSH1 0x20 DUP3 ADD SWAP1 POP SWAP2 SWAP1 POP JUMP JUMPDEST PUSH0 PUSH2 0xEAC DUP3 PUSH2 0xE0B JUMP JUMPDEST PUSH2 0xEB6 DUP2 DUP6 PUSH2 0xE15 JUMP JUMPDEST SWAP4 POP PUSH2 0xEC1 DUP4 PUSH2 0xE25 JUMP JUMPDEST DUP1 PUSH0 JUMPDEST DUP4 DUP2 LT ISZERO PUSH2 0xEF1 JUMPI DUP2 MLOAD PUSH2 0xED8 DUP9 DUP3 PUSH2 0xE7F JUMP JUMPDEST SWAP8 POP PUSH2 0xEE3 DUP4 PUSH2 0xE96 JUMP JUMPDEST SWAP3 POP POP PUSH1 0x1 DUP2 ADD SWAP1 POP PUSH2 0xEC4 JUMP JUMPDEST POP DUP6 SWAP4 POP POP POP POP SWAP3 SWAP2 POP POP JUMP JUMPDEST PUSH0 PUSH1 0x20 DUP3 ADD SWAP1 POP DUP2 DUP2 SUB PUSH0 DUP4 ADD MSTORE PUSH2 0xF16 DUP2 DUP5 PUSH2 0xEA2 JUMP JUMPDEST SWAP1 POP SWAP3 SWAP2 POP POP JUMP JUMPDEST PUSH0 DUP3 DUP3 MSTORE PUSH1 0x20 DUP3 ADD SWAP1 POP SWAP3 SWAP2 POP POP JUMP JUMPDEST PUSH32 0x4C612073756261737461206861207465726D696E61646F2E0000000000000000 PUSH0 DUP3 ADD MSTORE POP JUMP JUMPDEST PUSH0 PUSH2 0xF62 PUSH1 0x18 DUP4 PUSH2 0xF1E JUMP JUMPDEST SWAP2 POP PUSH2 0xF6D DUP3 PUSH2 0xF2E JUMP JUMPDEST PUSH1 0x20 DUP3 ADD SWAP1 POP SWAP2 SWAP1 POP JUMP JUMPDEST PUSH0 PUSH1 0x20 DUP3 ADD SWAP1 POP DUP2 DUP2 SUB PUSH0 DUP4 ADD MSTORE PUSH2 0xF8F DUP2 PUSH2 0xF56 JUMP JUMPDEST SWAP1 POP SWAP2 SWAP1 POP JUMP JUMPDEST PUSH32 0x4E487B7100000000000000000000000000000000000000000000000000000000 PUSH0 MSTORE PUSH1 0x11 PUSH1 0x4 MSTORE PUSH1 0x24 PUSH0 REVERT JUMPDEST PUSH0 PUSH2 0xFCD DUP3 PUSH2 0xCD3 JUMP JUMPDEST SWAP2 POP PUSH2 0xFD8 DUP4 PUSH2 0xCD3 JUMP JUMPDEST SWAP3 POP DUP3 DUP3 SUB SWAP1 POP DUP2 DUP2 GT ISZERO PUSH2 0xFF0 JUMPI PUSH2 0xFEF PUSH2 0xF96 JUMP JUMPDEST JUMPDEST SWAP3 SWAP2 POP POP JUMP JUMPDEST PUSH32 0x4E6F207365207075656465207265746972617220657374612063616E74696461 PUSH0 DUP3 ADD MSTORE PUSH32 0x642E000000000000000000000000000000000000000000000000000000000000 PUSH1 0x20 DUP3 ADD MSTORE POP JUMP JUMPDEST PUSH0 PUSH2 0x1050 PUSH1 0x22 DUP4 PUSH2 0xF1E JUMP JUMPDEST SWAP2 POP PUSH2 0x105B DUP3 PUSH2 0xFF6 JUMP JUMPDEST PUSH1 0x40 DUP3 ADD SWAP1 POP SWAP2 SWAP1 POP JUMP JUMPDEST PUSH0 PUSH1 0x20 DUP3 ADD SWAP1 POP DUP2 DUP2 SUB PUSH0 DUP4 ADD MSTORE PUSH2 0x107D DUP2 PUSH2 0x1044 JUMP JUMPDEST SWAP1 POP SWAP2 SWAP1 POP JUMP JUMPDEST PUSH32 0x4C612063616E7469646164206465626520736572206D61796F72207175652063 PUSH0 DUP3 ADD MSTORE PUSH32 0x65726F2E00000000000000000000000000000000000000000000000000000000 PUSH1 0x20 DUP3 ADD MSTORE POP JUMP JUMPDEST PUSH0 PUSH2 0x10DE PUSH1 0x24 DUP4 PUSH2 0xF1E JUMP JUMPDEST SWAP2 POP PUSH2 0x10E9 DUP3 PUSH2 0x1084 JUMP JUMPDEST PUSH1 0x40 DUP3 ADD SWAP1 POP SWAP2 SWAP1 POP JUMP JUMPDEST PUSH0 PUSH1 0x20 DUP3 ADD SWAP1 POP DUP2 DUP2 SUB PUSH0 DUP4 ADD MSTORE PUSH2 0x110B DUP2 PUSH2 0x10D2 JUMP JUMPDEST SWAP1 POP SWAP2 SWAP1 POP JUMP JUMPDEST PUSH32 0x4E487B7100000000000000000000000000000000000000000000000000000000 PUSH0 MSTORE PUSH1 0x32 PUSH1 0x4 MSTORE PUSH1 0x24 PUSH0 REVERT JUMPDEST PUSH32 0x4E6F207075656465732072657469726172206D617320646520747520756C7469 PUSH0 DUP3 ADD MSTORE PUSH32 0x6D61206F66657274612E00000000000000000000000000000000000000000000 PUSH1 0x20 DUP3 ADD MSTORE POP JUMP JUMPDEST PUSH0 PUSH2 0x1199 PUSH1 0x2A DUP4 PUSH2 0xF1E JUMP JUMPDEST SWAP2 POP PUSH2 0x11A4 DUP3 PUSH2 0x113F JUMP JUMPDEST PUSH1 0x40 DUP3 ADD SWAP1 POP SWAP2 SWAP1 POP JUMP JUMPDEST PUSH0 PUSH1 0x20 DUP3 ADD SWAP1 POP DUP2 DUP2 SUB PUSH0 DUP4 ADD MSTORE PUSH2 0x11C6 DUP2 PUSH2 0x118D JUMP JUMPDEST SWAP1 POP SWAP2 SWAP1 POP JUMP JUMPDEST PUSH0 PUSH2 0x11D7 DUP3 PUSH2 0xCD3 JUMP JUMPDEST SWAP2 POP PUSH2 0x11E2 DUP4 PUSH2 0xCD3 JUMP JUMPDEST SWAP3 POP DUP3 DUP3 MUL PUSH2 0x11F0 DUP2 PUSH2 0xCD3 JUMP JUMPDEST SWAP2 POP DUP3 DUP3 DIV DUP5 EQ DUP4 ISZERO OR PUSH2 0x1207 JUMPI PUSH2 0x1206 PUSH2 0xF96 JUMP JUMPDEST JUMPDEST POP SWAP3 SWAP2 POP POP JUMP JUMPDEST PUSH32 0x4E487B7100000000000000000000000000000000000000000000000000000000 PUSH0 MSTORE PUSH1 0x12 PUSH1 0x4 MSTORE PUSH1 0x24 PUSH0 REVERT JUMPDEST PUSH0 PUSH2 0x1245 DUP3 PUSH2 0xCD3 JUMP JUMPDEST SWAP2 POP PUSH2 0x1250 DUP4 PUSH2 0xCD3 JUMP JUMPDEST SWAP3 POP DUP3 PUSH2 0x1260 JUMPI PUSH2 0x125F PUSH2 0x120E JUMP JUMPDEST JUMPDEST DUP3 DUP3 DIV SWAP1 POP SWAP3 SWAP2 POP POP JUMP JUMPDEST PUSH32 0x4C61206F666572746120646562652073657220616C206D656E6F7320756E2035 PUSH0 DUP3 ADD MSTORE PUSH32 0x25206D61796F7220717565206C61206F6665727461206D617320616C74612061 PUSH1 0x20 DUP3 ADD MSTORE PUSH32 0x637475616C2E0000000000000000000000000000000000000000000000000000 PUSH1 0x40 DUP3 ADD MSTORE POP JUMP JUMPDEST PUSH0 PUSH2 0x12EB PUSH1 0x46 DUP4 PUSH2 0xF1E JUMP JUMPDEST SWAP2 POP PUSH2 0x12F6 DUP3 PUSH2 0x126B JUMP JUMPDEST PUSH1 0x60 DUP3 ADD SWAP1 POP SWAP2 SWAP1 POP JUMP JUMPDEST PUSH0 PUSH1 0x20 DUP3 ADD SWAP1 POP DUP2 DUP2 SUB PUSH0 DUP4 ADD MSTORE PUSH2 0x1318 DUP2 PUSH2 0x12DF JUMP JUMPDEST SWAP1 POP SWAP2 SWAP1 POP JUMP JUMPDEST PUSH0 PUSH2 0x1329 DUP3 PUSH2 0xCD3 JUMP JUMPDEST SWAP2 POP PUSH2 0x1334 DUP4 PUSH2 0xCD3 JUMP JUMPDEST SWAP3 POP DUP3 DUP3 ADD SWAP1 POP DUP1 DUP3 GT ISZERO PUSH2 0x134C JUMPI PUSH2 0x134B PUSH2 0xF96 JUMP JUMPDEST JUMPDEST SWAP3 SWAP2 POP POP JUMP JUMPDEST PUSH32 0x4C612073756261737461206E6F206861207465726D696E61646F2E0000000000 PUSH0 DUP3 ADD MSTORE POP JUMP JUMPDEST PUSH0 PUSH2 0x1386 PUSH1 0x1B DUP4 PUSH2 0xF1E JUMP JUMPDEST SWAP2 POP PUSH2 0x1391 DUP3 PUSH2 0x1352 JUMP JUMPDEST PUSH1 0x20 DUP3 ADD SWAP1 POP SWAP2 SWAP1 POP JUMP JUMPDEST PUSH0 PUSH1 0x20 DUP3 ADD SWAP1 POP DUP2 DUP2 SUB PUSH0 DUP4 ADD MSTORE PUSH2 0x13B3 DUP2 PUSH2 0x137A JUMP JUMPDEST SWAP1 POP SWAP2 SWAP1 POP JUMP JUMPDEST PUSH32 0x4E6F2068617920666F6E646F73207061726120726574697261722E0000000000 PUSH0 DUP3 ADD MSTORE POP JUMP JUMPDEST PUSH0 PUSH2 0x13EE PUSH1 0x1B DUP4 PUSH2 0xF1E JUMP JUMPDEST SWAP2 POP PUSH2 0x13F9 DUP3 PUSH2 0x13BA JUMP JUMPDEST PUSH1 0x20 DUP3 ADD SWAP1 POP SWAP2 SWAP1 POP JUMP JUMPDEST PUSH0 PUSH1 0x20 DUP3 ADD SWAP1 POP DUP2 DUP2 SUB PUSH0 DUP4 ADD MSTORE PUSH2 0x141B DUP2 PUSH2 0x13E2 JUMP JUMPDEST SWAP1 POP SWAP2 SWAP1 POP JUMP JUMPDEST PUSH32 0x4E6F206175746F72697A61646F3A20736F6C6F20656C2070726F706965746172 PUSH0 DUP3 ADD MSTORE PUSH32 0x696F20707565646520656A65637574617220657374612066756E63696F6E2E00 PUSH1 0x20 DUP3 ADD MSTORE POP JUMP JUMPDEST PUSH0 PUSH2 0x147C PUSH1 0x3F DUP4 PUSH2 0xF1E JUMP JUMPDEST SWAP2 POP PUSH2 0x1487 DUP3 PUSH2 0x1422 JUMP JUMPDEST PUSH1 0x40 DUP3 ADD SWAP1 POP SWAP2 SWAP1 POP JUMP JUMPDEST PUSH0 PUSH1 0x20 DUP3 ADD SWAP1 POP DUP2 DUP2 SUB PUSH0 DUP4 ADD MSTORE PUSH2 0x14A9 DUP2 PUSH2 0x1470 JUMP JUMPDEST SWAP1 POP SWAP2 SWAP1 POP JUMP INVALID LOG2 PUSH5 0x6970667358 0x22 SLT KECCAK256 TLOAD SWAP1 0xC8 0xB7 0xE1 0xCA OR 0xC5 BLOCKHASH EXTCODECOPY 0xE0 0xEA EXTCODEHASH DUP2 PUSH31 0xF70688A367EAF8444F0E933BB765C548B064736F6C634300081A0033000000 "
				},
				"gasEstimates": {
					"creation": {
						"codeDepositCost": "1070000",
						"executionCost": "infinite",
						"totalCost": "infinite"
					},
					"external": {
						"auctionEnded()": "2577",
						"bid()": "infinite",
						"bids(uint256)": "infinite",
						"endAuction()": "34636",
						"endTime()": "2470",
						"getBids()": "infinite",
						"highestBid()": "2513",
						"highestBidder()": "2530",
						"owner()": "2505",
						"showWinner()": "6924",
						"withdraw()": "infinite",
						"withdrawPartial(uint256)": "infinite"
					}
				},
				"methodIdentifiers": {
					"auctionEnded()": "86433374",
					"bid()": "1998aeef",
					"bids(uint256)": "4423c5f1",
					"endAuction()": "fe67a54b",
					"endTime()": "3197cbb6",
					"getBids()": "b81c78ec",
					"highestBid()": "d57bde79",
					"highestBidder()": "91f90157",
					"owner()": "8da5cb5b",
					"showWinner()": "b7e03264",
					"withdraw()": "3ccfd60b",
					"withdrawPartial(uint256)": "1211540c"
				}
			},
			"storageLayout": {
				"storage": [
					{
						"astId": 8,
						"contract": "auction2.sol:Auction",
						"label": "owner",
						"offset": 0,
						"slot": "0",
						"type": "t_address"
					},
					{
						"astId": 10,
						"contract": "auction2.sol:Auction",
						"label": "highestBid",
						"offset": 0,
						"slot": "1",
						"type": "t_uint256"
					},
					{
						"astId": 12,
						"contract": "auction2.sol:Auction",
						"label": "highestBidder",
						"offset": 0,
						"slot": "2",
						"type": "t_address"
					},
					{
						"astId": 14,
						"contract": "auction2.sol:Auction",
						"label": "endTime",
						"offset": 0,
						"slot": "3",
						"type": "t_uint256"
					},
					{
						"astId": 16,
						"contract": "auction2.sol:Auction",
						"label": "auctionEnded",
						"offset": 0,
						"slot": "4",
						"type": "t_bool"
					},
					{
						"astId": 20,
						"contract": "auction2.sol:Auction",
						"label": "bids",
						"offset": 0,
						"slot": "5",
						"type": "t_array(t_struct(Bid)6_storage)dyn_storage"
					}
				],
				"types": {
					"t_address": {
						"encoding": "inplace",
						"label": "address",
						"numberOfBytes": "20"
					},
					"t_array(t_struct(Bid)6_storage)dyn_storage": {
						"base": "t_struct(Bid)6_storage",
						"encoding": "dynamic_array",
						"label": "struct Auction.Bid[]",
						"numberOfBytes": "32"
					},
					"t_bool": {
						"encoding": "inplace",
						"label": "bool",
						"numberOfBytes": "1"
					},
					"t_struct(Bid)6_storage": {
						"encoding": "inplace",
						"label": "struct Auction.Bid",
						"members": [
							{
								"astId": 3,
								"contract": "auction2.sol:Auction",
								"label": "bidder",
								"offset": 0,
								"slot": "0",
								"type": "t_address"
							},
							{
								"astId": 5,
								"contract": "auction2.sol:Auction",
								"label": "amount",
								"offset": 0,
								"slot": "1",
								"type": "t_uint256"
							}
						],
						"numberOfBytes": "64"
					},
					"t_uint256": {
						"encoding": "inplace",
						"label": "uint256",
						"numberOfBytes": "32"
					}
				}
			},
			"userdoc": {
				"kind": "user",
				"methods": {},
				"version": 1
			}
		}
	}
}