{
	"maru.sol": {
		"Subasta": {
			"abi": [
				{
					"inputs": [],
					"stateMutability": "nonpayable",
					"type": "constructor"
				},
				{
					"anonymous": false,
					"inputs": [
						{
							"indexed": false,
							"internalType": "address",
							"name": "postor",
							"type": "address"
						},
						{
							"indexed": false,
							"internalType": "uint256",
							"name": "oferta",
							"type": "uint256"
						}
					],
					"name": "OfertaAceptada",
					"type": "event"
				},
				{
					"anonymous": false,
					"inputs": [
						{
							"indexed": false,
							"internalType": "address",
							"name": "postor",
							"type": "address"
						},
						{
							"indexed": false,
							"internalType": "uint256",
							"name": "oferta",
							"type": "uint256"
						}
					],
					"name": "OfertaMejorada",
					"type": "event"
				},
				{
					"anonymous": false,
					"inputs": [
						{
							"indexed": false,
							"internalType": "address",
							"name": "ganador",
							"type": "address"
						},
						{
							"indexed": false,
							"internalType": "uint256",
							"name": "oferta",
							"type": "uint256"
						}
					],
					"name": "SubastaFinalizada",
					"type": "event"
				},
				{
					"inputs": [
						{
							"internalType": "address",
							"name": "",
							"type": "address"
						}
					],
					"name": "depositosAcumulados",
					"outputs": [
						{
							"internalType": "uint256",
							"name": "",
							"type": "uint256"
						}
					],
					"stateMutability": "view",
					"type": "function"
				},
				{
					"inputs": [],
					"name": "devolverDepositos",
					"outputs": [],
					"stateMutability": "nonpayable",
					"type": "function"
				},
				{
					"inputs": [],
					"name": "finalizarSubasta",
					"outputs": [],
					"stateMutability": "nonpayable",
					"type": "function"
				},
				{
					"inputs": [
						{
							"internalType": "uint256",
							"name": "",
							"type": "uint256"
						}
					],
					"name": "historialOfertas",
					"outputs": [
						{
							"internalType": "address",
							"name": "postor",
							"type": "address"
						},
						{
							"internalType": "uint256",
							"name": "cantidad",
							"type": "uint256"
						}
					],
					"stateMutability": "view",
					"type": "function"
				},
				{
					"inputs": [],
					"name": "mejorOferta",
					"outputs": [
						{
							"internalType": "uint256",
							"name": "",
							"type": "uint256"
						}
					],
					"stateMutability": "view",
					"type": "function"
				},
				{
					"inputs": [],
					"name": "mejorPostor",
					"outputs": [
						{
							"internalType": "address",
							"name": "",
							"type": "address"
						}
					],
					"stateMutability": "view",
					"type": "function"
				},
				{
					"inputs": [],
					"name": "ofertaGanadora",
					"outputs": [
						{
							"internalType": "address",
							"name": "postor",
							"type": "address"
						},
						{
							"internalType": "uint256",
							"name": "cantidad",
							"type": "uint256"
						}
					],
					"stateMutability": "view",
					"type": "function"
				},
				{
					"inputs": [],
					"name": "ofertar",
					"outputs": [],
					"stateMutability": "payable",
					"type": "function"
				},
				{
					"inputs": [
						{
							"internalType": "address",
							"name": "",
							"type": "address"
						}
					],
					"name": "ofertasPendientes",
					"outputs": [
						{
							"internalType": "uint256",
							"name": "",
							"type": "uint256"
						}
					],
					"stateMutability": "view",
					"type": "function"
				},
				{
					"inputs": [],
					"name": "precioBase",
					"outputs": [
						{
							"internalType": "uint256",
							"name": "",
							"type": "uint256"
						}
					],
					"stateMutability": "view",
					"type": "function"
				},
				{
					"inputs": [],
					"name": "retirarOfertasPendientes",
					"outputs": [],
					"stateMutability": "nonpayable",
					"type": "function"
				},
				{
					"inputs": [],
					"name": "subastador",
					"outputs": [
						{
							"internalType": "address",
							"name": "",
							"type": "address"
						}
					],
					"stateMutability": "view",
					"type": "function"
				},
				{
					"inputs": [],
					"name": "tiempoFinalSubasta",
					"outputs": [
						{
							"internalType": "uint256",
							"name": "",
							"type": "uint256"
						}
					],
					"stateMutability": "view",
					"type": "function"
				}
			],
			"devdoc": {
				"kind": "dev",
				"methods": {},
				"version": 1
			},
			"evm": {
				"assembly": "    /* \"maru.sol\":60:3596  contract Subasta {... */\n  mstore(0x40, 0x80)\n    /* \"maru.sol\":377:384  1 ether */\n  0x0de0b6b3a7640000\n    /* \"maru.sol\":352:384  uint public precioBase = 1 ether */\n  0x07\n  sstore\n    /* \"maru.sol\":800:998  constructor() {... */\n  callvalue\n  dup1\n  iszero\n  tag_1\n  jumpi\n  0x00\n  dup1\n  revert\ntag_1:\n  pop\n    /* \"maru.sol\":838:848  msg.sender */\n  caller\n    /* \"maru.sol\":825:835  subastador */\n  0x00\n  dup1\n    /* \"maru.sol\":825:848  subastador = msg.sender */\n  0x0100\n  exp\n  dup2\n  sload\n  dup2\n  0xffffffffffffffffffffffffffffffffffffffff\n  mul\n  not\n  and\n  swap1\n  dup4\n  0xffffffffffffffffffffffffffffffffffffffff\n  and\n  mul\n  or\n  swap1\n  sstore\n  pop\n    /* \"maru.sol\":898:901  300 */\n  0x012c\n    /* \"maru.sol\":880:895  block.timestamp */\n  timestamp\n    /* \"maru.sol\":880:901  block.timestamp + 300 */\n  tag_4\n  swap2\n  swap1\n  tag_5\n  jump\t// in\ntag_4:\n    /* \"maru.sol\":859:877  tiempoFinalSubasta */\n  0x01\n    /* \"maru.sol\":859:901  tiempoFinalSubasta = block.timestamp + 300 */\n  dup2\n  swap1\n  sstore\n  pop\n    /* \"maru.sol\":951:961  precioBase */\n  sload(0x07)\n    /* \"maru.sol\":937:948  mejorOferta */\n  0x03\n    /* \"maru.sol\":937:961  mejorOferta = precioBase */\n  dup2\n  swap1\n  sstore\n  pop\n    /* \"maru.sol\":60:3596  contract Subasta {... */\n  jump(tag_6)\n    /* \"#utility.yul\":7:84   */\ntag_7:\n    /* \"#utility.yul\":44:51   */\n  0x00\n    /* \"#utility.yul\":73:78   */\n  dup2\n    /* \"#utility.yul\":62:78   */\n  swap1\n  pop\n    /* \"#utility.yul\":7:84   */\n  swap2\n  swap1\n  pop\n  jump\t// out\n    /* \"#utility.yul\":90:270   */\ntag_8:\n    /* \"#utility.yul\":138:215   */\n  0x4e487b7100000000000000000000000000000000000000000000000000000000\n    /* \"#utility.yul\":135:136   */\n  0x00\n    /* \"#utility.yul\":128:216   */\n  mstore\n    /* \"#utility.yul\":235:239   */\n  0x11\n    /* \"#utility.yul\":232:233   */\n  0x04\n    /* \"#utility.yul\":225:240   */\n  mstore\n    /* \"#utility.yul\":259:263   */\n  0x24\n    /* \"#utility.yul\":256:257   */\n  0x00\n    /* \"#utility.yul\":249:264   */\n  revert\n    /* \"#utility.yul\":276:467   */\ntag_5:\n    /* \"#utility.yul\":316:319   */\n  0x00\n    /* \"#utility.yul\":335:355   */\n  tag_13\n    /* \"#utility.yul\":353:354   */\n  dup3\n    /* \"#utility.yul\":335:355   */\n  tag_7\n  jump\t// in\ntag_13:\n    /* \"#utility.yul\":330:355   */\n  swap2\n  pop\n    /* \"#utility.yul\":369:389   */\n  tag_14\n    /* \"#utility.yul\":387:388   */\n  dup4\n    /* \"#utility.yul\":369:389   */\n  tag_7\n  jump\t// in\ntag_14:\n    /* \"#utility.yul\":364:389   */\n  swap3\n  pop\n    /* \"#utility.yul\":412:413   */\n  dup3\n    /* \"#utility.yul\":409:410   */\n  dup3\n    /* \"#utility.yul\":405:414   */\n  add\n    /* \"#utility.yul\":398:414   */\n  swap1\n  pop\n    /* \"#utility.yul\":433:436   */\n  dup1\n    /* \"#utility.yul\":430:431   */\n  dup3\n    /* \"#utility.yul\":427:437   */\n  gt\n    /* \"#utility.yul\":424:460   */\n  iszero\n  tag_15\n  jumpi\n    /* \"#utility.yul\":440:458   */\n  tag_16\n  tag_8\n  jump\t// in\ntag_16:\n    /* \"#utility.yul\":424:460   */\ntag_15:\n    /* \"#utility.yul\":276:467   */\n  swap3\n  swap2\n  pop\n  pop\n  jump\t// out\n    /* \"maru.sol\":60:3596  contract Subasta {... */\ntag_6:\n  dataSize(sub_0)\n  dup1\n  dataOffset(sub_0)\n  0x00\n  codecopy\n  0x00\n  return\nstop\n\nsub_0: assembly {\n        /* \"maru.sol\":60:3596  contract Subasta {... */\n      mstore(0x40, 0x80)\n      jumpi(tag_1, lt(calldatasize, 0x04))\n      shr(0xe0, calldataload(0x00))\n      dup1\n      0x569fd801\n      gt\n      tag_15\n      jumpi\n      dup1\n      0x9257a3db\n      gt\n      tag_16\n      jumpi\n      dup1\n      0x9257a3db\n      eq\n      tag_11\n      jumpi\n      dup1\n      0xacfc9f98\n      eq\n      tag_12\n      jumpi\n      dup1\n      0xb95707ca\n      eq\n      tag_13\n      jumpi\n      dup1\n      0xbe955647\n      eq\n      tag_14\n      jumpi\n      jump(tag_1)\n    tag_16:\n      dup1\n      0x569fd801\n      eq\n      tag_8\n      jumpi\n      dup1\n      0x7498184a\n      eq\n      tag_9\n      jumpi\n      dup1\n      0x74db2207\n      eq\n      tag_10\n      jumpi\n      jump(tag_1)\n    tag_15:\n      dup1\n      0x0851eac2\n      eq\n      tag_2\n      jumpi\n      dup1\n      0x13a83eaf\n      eq\n      tag_3\n      jumpi\n      dup1\n      0x3dfa138d\n      eq\n      tag_4\n      jumpi\n      dup1\n      0x3ec059d7\n      eq\n      tag_5\n      jumpi\n      dup1\n      0x4171c8a4\n      eq\n      tag_6\n      jumpi\n      dup1\n      0x5298a3c4\n      eq\n      tag_7\n      jumpi\n    tag_1:\n      0x00\n      dup1\n      revert\n        /* \"maru.sol\":2413:2863  function finalizarSubasta() public {... */\n    tag_2:\n      callvalue\n      dup1\n      iszero\n      tag_17\n      jumpi\n      0x00\n      dup1\n      revert\n    tag_17:\n      pop\n      tag_18\n      tag_19\n      jump\t// in\n    tag_18:\n      stop\n        /* \"maru.sol\":535:563  Oferta public ofertaGanadora */\n    tag_3:\n      callvalue\n      dup1\n      iszero\n      tag_20\n      jumpi\n      0x00\n      dup1\n      revert\n    tag_20:\n      pop\n      tag_21\n      tag_22\n      jump\t// in\n    tag_21:\n      mload(0x40)\n      tag_23\n      swap3\n      swap2\n      swap1\n      tag_24\n      jump\t// in\n    tag_23:\n      mload(0x40)\n      dup1\n      swap2\n      sub\n      swap1\n      return\n        /* \"maru.sol\":84:109  address public subastador */\n    tag_4:\n      callvalue\n      dup1\n      iszero\n      tag_25\n      jumpi\n      0x00\n      dup1\n      revert\n    tag_25:\n      pop\n      tag_26\n      tag_27\n      jump\t// in\n    tag_26:\n      mload(0x40)\n      tag_28\n      swap2\n      swap1\n      tag_29\n      jump\t// in\n    tag_28:\n      mload(0x40)\n      dup1\n      swap2\n      sub\n      swap1\n      return\n        /* \"maru.sol\":1006:2133  function ofertar() public payable {... */\n    tag_5:\n      tag_30\n      tag_31\n      jump\t// in\n    tag_30:\n      stop\n        /* \"maru.sol\":2141:2405  function retirarOfertasPendientes() public {... */\n    tag_6:\n      callvalue\n      dup1\n      iszero\n      tag_32\n      jumpi\n      0x00\n      dup1\n      revert\n    tag_32:\n      pop\n      tag_33\n      tag_34\n      jump\t// in\n    tag_33:\n      stop\n        /* \"maru.sol\":2871:3593  function devolverDepositos() public {... */\n    tag_7:\n      callvalue\n      dup1\n      iszero\n      tag_35\n      jumpi\n      0x00\n      dup1\n      revert\n    tag_35:\n      pop\n      tag_36\n      tag_37\n      jump\t// in\n    tag_36:\n      stop\n        /* \"maru.sol\":352:384  uint public precioBase = 1 ether */\n    tag_8:\n      callvalue\n      dup1\n      iszero\n      tag_38\n      jumpi\n      0x00\n      dup1\n      revert\n    tag_38:\n      pop\n      tag_39\n      tag_40\n      jump\t// in\n    tag_39:\n      mload(0x40)\n      tag_41\n      swap2\n      swap1\n      tag_42\n      jump\t// in\n    tag_41:\n      mload(0x40)\n      dup1\n      swap2\n      sub\n      swap1\n      return\n        /* \"maru.sol\":153:179  address public mejorPostor */\n    tag_9:\n      callvalue\n      dup1\n      iszero\n      tag_43\n      jumpi\n      0x00\n      dup1\n      revert\n    tag_43:\n      pop\n      tag_44\n      tag_45\n      jump\t// in\n    tag_44:\n      mload(0x40)\n      tag_46\n      swap2\n      swap1\n      tag_29\n      jump\t// in\n    tag_46:\n      mload(0x40)\n      dup1\n      swap2\n      sub\n      swap1\n      return\n        /* \"maru.sol\":216:265  mapping(address => uint) public ofertasPendientes */\n    tag_10:\n      callvalue\n      dup1\n      iszero\n      tag_47\n      jumpi\n      0x00\n      dup1\n      revert\n    tag_47:\n      pop\n      tag_48\n      0x04\n      dup1\n      calldatasize\n      sub\n      dup2\n      add\n      swap1\n      tag_49\n      swap2\n      swap1\n      tag_50\n      jump\t// in\n    tag_49:\n      tag_51\n      jump\t// in\n    tag_48:\n      mload(0x40)\n      tag_52\n      swap2\n      swap1\n      tag_42\n      jump\t// in\n    tag_52:\n      mload(0x40)\n      dup1\n      swap2\n      sub\n      swap1\n      return\n        /* \"maru.sol\":496:528  Oferta[] public historialOfertas */\n    tag_11:\n      callvalue\n      dup1\n      iszero\n      tag_53\n      jumpi\n      0x00\n      dup1\n      revert\n    tag_53:\n      pop\n      tag_54\n      0x04\n      dup1\n      calldatasize\n      sub\n      dup2\n      add\n      swap1\n      tag_55\n      swap2\n      swap1\n      tag_56\n      jump\t// in\n    tag_55:\n      tag_57\n      jump\t// in\n    tag_54:\n      mload(0x40)\n      tag_58\n      swap3\n      swap2\n      swap1\n      tag_24\n      jump\t// in\n    tag_58:\n      mload(0x40)\n      dup1\n      swap2\n      sub\n      swap1\n      return\n        /* \"maru.sol\":186:209  uint public mejorOferta */\n    tag_12:\n      callvalue\n      dup1\n      iszero\n      tag_59\n      jumpi\n      0x00\n      dup1\n      revert\n    tag_59:\n      pop\n      tag_60\n      tag_61\n      jump\t// in\n    tag_60:\n      mload(0x40)\n      tag_62\n      swap2\n      swap1\n      tag_42\n      jump\t// in\n    tag_62:\n      mload(0x40)\n      dup1\n      swap2\n      sub\n      swap1\n      return\n        /* \"maru.sol\":272:323  mapping(address => uint) public depositosAcumulados */\n    tag_13:\n      callvalue\n      dup1\n      iszero\n      tag_63\n      jumpi\n      0x00\n      dup1\n      revert\n    tag_63:\n      pop\n      tag_64\n      0x04\n      dup1\n      calldatasize\n      sub\n      dup2\n      add\n      swap1\n      tag_65\n      swap2\n      swap1\n      tag_50\n      jump\t// in\n    tag_65:\n      tag_66\n      jump\t// in\n    tag_64:\n      mload(0x40)\n      tag_67\n      swap2\n      swap1\n      tag_42\n      jump\t// in\n    tag_67:\n      mload(0x40)\n      dup1\n      swap2\n      sub\n      swap1\n      return\n        /* \"maru.sol\":116:146  uint public tiempoFinalSubasta */\n    tag_14:\n      callvalue\n      dup1\n      iszero\n      tag_68\n      jumpi\n      0x00\n      dup1\n      revert\n    tag_68:\n      pop\n      tag_69\n      tag_70\n      jump\t// in\n    tag_69:\n      mload(0x40)\n      tag_71\n      swap2\n      swap1\n      tag_42\n      jump\t// in\n    tag_71:\n      mload(0x40)\n      dup1\n      swap2\n      sub\n      swap1\n      return\n        /* \"maru.sol\":2413:2863  function finalizarSubasta() public {... */\n    tag_19:\n        /* \"maru.sol\":2486:2504  tiempoFinalSubasta */\n      sload(0x01)\n        /* \"maru.sol\":2467:2482  block.timestamp */\n      timestamp\n        /* \"maru.sol\":2467:2504  block.timestamp >= tiempoFinalSubasta */\n      lt\n      iszero\n        /* \"maru.sol\":2459:2536  require(block.timestamp >= tiempoFinalSubasta, \"La subasta no ha finalizado\") */\n      tag_73\n      jumpi\n      mload(0x40)\n      0x08c379a000000000000000000000000000000000000000000000000000000000\n      dup2\n      mstore\n      0x04\n      add\n      tag_74\n      swap1\n      tag_75\n      jump\t// in\n    tag_74:\n      mload(0x40)\n      dup1\n      swap2\n      sub\n      swap1\n      revert\n    tag_73:\n        /* \"maru.sol\":2556:2566  finalizada */\n      0x06\n      0x00\n      swap1\n      sload\n      swap1\n      0x0100\n      exp\n      swap1\n      div\n      0xff\n      and\n        /* \"maru.sol\":2555:2566  !finalizada */\n      iszero\n        /* \"maru.sol\":2547:2603  require(!finalizada, \"La subasta ya ha sido finalizada\") */\n      tag_76\n      jumpi\n      mload(0x40)\n      0x08c379a000000000000000000000000000000000000000000000000000000000\n      dup2\n      mstore\n      0x04\n      add\n      tag_77\n      swap1\n      tag_78\n      jump\t// in\n    tag_77:\n      mload(0x40)\n      dup1\n      swap2\n      sub\n      swap1\n      revert\n    tag_76:\n        /* \"maru.sol\":2629:2633  true */\n      0x01\n        /* \"maru.sol\":2616:2626  finalizada */\n      0x06\n      0x00\n        /* \"maru.sol\":2616:2633  finalizada = true */\n      0x0100\n      exp\n      dup2\n      sload\n      dup2\n      0xff\n      mul\n      not\n      and\n      swap1\n      dup4\n      iszero\n      iszero\n      mul\n      or\n      swap1\n      sstore\n      pop\n        /* \"maru.sol\":2661:2713  Oferta({postor: mejorPostor, cantidad: mejorOferta}) */\n      mload(0x40)\n      dup1\n      0x40\n      add\n      0x40\n      mstore\n      dup1\n        /* \"maru.sol\":2677:2688  mejorPostor */\n      0x02\n      0x00\n      swap1\n      sload\n      swap1\n      0x0100\n      exp\n      swap1\n      div\n      0xffffffffffffffffffffffffffffffffffffffff\n      and\n        /* \"maru.sol\":2661:2713  Oferta({postor: mejorPostor, cantidad: mejorOferta}) */\n      0xffffffffffffffffffffffffffffffffffffffff\n      and\n      dup2\n      mstore\n      0x20\n      add\n        /* \"maru.sol\":2700:2711  mejorOferta */\n      sload(0x03)\n        /* \"maru.sol\":2661:2713  Oferta({postor: mejorPostor, cantidad: mejorOferta}) */\n      dup2\n      mstore\n      pop\n        /* \"maru.sol\":2644:2658  ofertaGanadora */\n      0x09\n        /* \"maru.sol\":2644:2713  ofertaGanadora = Oferta({postor: mejorPostor, cantidad: mejorOferta}) */\n      0x00\n      dup3\n      add\n      mload\n      dup2\n      0x00\n      add\n      exp(0x0100, 0x00)\n      dup2\n      sload\n      dup2\n      0xffffffffffffffffffffffffffffffffffffffff\n      mul\n      not\n      and\n      swap1\n      dup4\n      0xffffffffffffffffffffffffffffffffffffffff\n      and\n      mul\n      or\n      swap1\n      sstore\n      pop\n      0x20\n      dup3\n      add\n      mload\n      dup2\n      0x01\n      add\n      sstore\n      swap1\n      pop\n      pop\n        /* \"maru.sol\":2758:2801  SubastaFinalizada(mejorPostor, mejorOferta) */\n      0xa3a65b403bdae88eb037f4ecc1d619f436fc3ef6bcbbee3787757164e82883f2\n        /* \"maru.sol\":2776:2787  mejorPostor */\n      0x02\n      0x00\n      swap1\n      sload\n      swap1\n      0x0100\n      exp\n      swap1\n      div\n      0xffffffffffffffffffffffffffffffffffffffff\n      and\n        /* \"maru.sol\":2789:2800  mejorOferta */\n      sload(0x03)\n        /* \"maru.sol\":2758:2801  SubastaFinalizada(mejorPostor, mejorOferta) */\n      mload(0x40)\n      tag_79\n      swap3\n      swap2\n      swap1\n      tag_24\n      jump\t// in\n    tag_79:\n      mload(0x40)\n      dup1\n      swap2\n      sub\n      swap1\n      log1\n        /* \"maru.sol\":2822:2832  subastador */\n      0x00\n      dup1\n      sload\n      swap1\n      0x0100\n      exp\n      swap1\n      div\n      0xffffffffffffffffffffffffffffffffffffffff\n      and\n        /* \"maru.sol\":2814:2842  payable(subastador).transfer */\n      0xffffffffffffffffffffffffffffffffffffffff\n      and\n        /* \"maru.sol\":2814:2855  payable(subastador).transfer(mejorOferta) */\n      0x08fc\n        /* \"maru.sol\":2843:2854  mejorOferta */\n      sload(0x03)\n        /* \"maru.sol\":2814:2855  payable(subastador).transfer(mejorOferta) */\n      swap1\n      dup2\n      iszero\n      mul\n      swap1\n      mload(0x40)\n      0x00\n      mload(0x40)\n      dup1\n      dup4\n      sub\n      dup2\n      dup6\n      dup9\n      dup9\n      call\n      swap4\n      pop\n      pop\n      pop\n      pop\n      iszero\n      dup1\n      iszero\n      tag_81\n      jumpi\n      returndatasize\n      0x00\n      dup1\n      returndatacopy\n      revert(0x00, returndatasize)\n    tag_81:\n      pop\n        /* \"maru.sol\":2413:2863  function finalizarSubasta() public {... */\n      jump\t// out\n        /* \"maru.sol\":535:563  Oferta public ofertaGanadora */\n    tag_22:\n      0x09\n      dup1\n      0x00\n      add\n      0x00\n      swap1\n      sload\n      swap1\n      0x0100\n      exp\n      swap1\n      div\n      0xffffffffffffffffffffffffffffffffffffffff\n      and\n      swap1\n      dup1\n      0x01\n      add\n      sload\n      swap1\n      pop\n      dup3\n      jump\t// out\n        /* \"maru.sol\":84:109  address public subastador */\n    tag_27:\n      0x00\n      dup1\n      sload\n      swap1\n      0x0100\n      exp\n      swap1\n      div\n      0xffffffffffffffffffffffffffffffffffffffff\n      and\n      dup2\n      jump\t// out\n        /* \"maru.sol\":1006:2133  function ofertar() public payable {... */\n    tag_31:\n        /* \"maru.sol\":1077:1095  tiempoFinalSubasta */\n      sload(0x01)\n        /* \"maru.sol\":1059:1074  block.timestamp */\n      timestamp\n        /* \"maru.sol\":1059:1095  block.timestamp < tiempoFinalSubasta */\n      lt\n        /* \"maru.sol\":1051:1124  require(block.timestamp < tiempoFinalSubasta, \"La subasta ha finalizado\") */\n      tag_83\n      jumpi\n      mload(0x40)\n      0x08c379a000000000000000000000000000000000000000000000000000000000\n      dup2\n      mstore\n      0x04\n      add\n      tag_84\n      swap1\n      tag_85\n      jump\t// in\n    tag_84:\n      mload(0x40)\n      dup1\n      swap2\n      sub\n      swap1\n      revert\n    tag_83:\n        /* \"maru.sol\":1189:1192  100 */\n      0x64\n        /* \"maru.sol\":1185:1186  5 */\n      0x05\n        /* \"maru.sol\":1171:1182  mejorOferta */\n      sload(0x03)\n        /* \"maru.sol\":1171:1186  mejorOferta * 5 */\n      tag_86\n      swap2\n      swap1\n      tag_87\n      jump\t// in\n    tag_86:\n        /* \"maru.sol\":1171:1192  mejorOferta * 5 / 100 */\n      tag_88\n      swap2\n      swap1\n      tag_89\n      jump\t// in\n    tag_88:\n        /* \"maru.sol\":1156:1167  mejorOferta */\n      sload(0x03)\n        /* \"maru.sol\":1156:1193  mejorOferta + (mejorOferta * 5 / 100) */\n      tag_90\n      swap2\n      swap1\n      tag_91\n      jump\t// in\n    tag_90:\n        /* \"maru.sol\":1143:1152  msg.value */\n      callvalue\n        /* \"maru.sol\":1143:1193  msg.value >= mejorOferta + (mejorOferta * 5 / 100) */\n      lt\n      iszero\n        /* \"maru.sol\":1135:1237  require(msg.value >= mejorOferta + (mejorOferta * 5 / 100), \"La oferta debe ser al menos un 5% mayor\") */\n      tag_92\n      jumpi\n      mload(0x40)\n      0x08c379a000000000000000000000000000000000000000000000000000000000\n      dup2\n      mstore\n      0x04\n      add\n      tag_93\n      swap1\n      tag_94\n      jump\t// in\n    tag_93:\n      mload(0x40)\n      dup1\n      swap2\n      sub\n      swap1\n      revert\n    tag_92:\n        /* \"maru.sol\":1269:1270  0 */\n      0x00\n        /* \"maru.sol\":1254:1265  mejorOferta */\n      sload(0x03)\n        /* \"maru.sol\":1254:1270  mejorOferta != 0 */\n      eq\n      iszero\n        /* \"maru.sol\":1254:1299  mejorOferta != 0 && mejorPostor != address(0) */\n      dup1\n      iszero\n      tag_95\n      jumpi\n      pop\n        /* \"maru.sol\":1297:1298  0 */\n      0x00\n        /* \"maru.sol\":1274:1299  mejorPostor != address(0) */\n      0xffffffffffffffffffffffffffffffffffffffff\n      and\n        /* \"maru.sol\":1274:1285  mejorPostor */\n      0x02\n      0x00\n      swap1\n      sload\n      swap1\n      0x0100\n      exp\n      swap1\n      div\n      0xffffffffffffffffffffffffffffffffffffffff\n      and\n        /* \"maru.sol\":1274:1299  mejorPostor != address(0) */\n      0xffffffffffffffffffffffffffffffffffffffff\n      and\n      eq\n      iszero\n        /* \"maru.sol\":1254:1299  mejorOferta != 0 && mejorPostor != address(0) */\n    tag_95:\n        /* \"maru.sol\":1250:1373  if (mejorOferta != 0 && mejorPostor != address(0)) {... */\n      iszero\n      tag_96\n      jumpi\n        /* \"maru.sol\":1350:1361  mejorOferta */\n      sload(0x03)\n        /* \"maru.sol\":1316:1333  ofertasPendientes */\n      0x04\n        /* \"maru.sol\":1316:1346  ofertasPendientes[mejorPostor] */\n      0x00\n        /* \"maru.sol\":1334:1345  mejorPostor */\n      0x02\n      0x00\n      swap1\n      sload\n      swap1\n      0x0100\n      exp\n      swap1\n      div\n      0xffffffffffffffffffffffffffffffffffffffff\n      and\n        /* \"maru.sol\":1316:1346  ofertasPendientes[mejorPostor] */\n      0xffffffffffffffffffffffffffffffffffffffff\n      and\n      0xffffffffffffffffffffffffffffffffffffffff\n      and\n      dup2\n      mstore\n      0x20\n      add\n      swap1\n      dup2\n      mstore\n      0x20\n      add\n      0x00\n      keccak256\n      0x00\n        /* \"maru.sol\":1316:1361  ofertasPendientes[mejorPostor] += mejorOferta */\n      dup3\n      dup3\n      sload\n      tag_97\n      swap2\n      swap1\n      tag_91\n      jump\t// in\n    tag_97:\n      swap3\n      pop\n      pop\n      dup2\n      swap1\n      sstore\n      pop\n        /* \"maru.sol\":1250:1373  if (mejorOferta != 0 && mejorPostor != address(0)) {... */\n    tag_96:\n        /* \"maru.sol\":1399:1409  msg.sender */\n      caller\n        /* \"maru.sol\":1385:1396  mejorPostor */\n      0x02\n      0x00\n        /* \"maru.sol\":1385:1409  mejorPostor = msg.sender */\n      0x0100\n      exp\n      dup2\n      sload\n      dup2\n      0xffffffffffffffffffffffffffffffffffffffff\n      mul\n      not\n      and\n      swap1\n      dup4\n      0xffffffffffffffffffffffffffffffffffffffff\n      and\n      mul\n      or\n      swap1\n      sstore\n      pop\n        /* \"maru.sol\":1434:1443  msg.value */\n      callvalue\n        /* \"maru.sol\":1420:1431  mejorOferta */\n      0x03\n        /* \"maru.sol\":1420:1443  mejorOferta = msg.value */\n      dup2\n      swap1\n      sstore\n      pop\n        /* \"maru.sol\":1604:1607  120 */\n      0x78\n        /* \"maru.sol\":1583:1601  tiempoFinalSubasta */\n      sload(0x01)\n        /* \"maru.sol\":1583:1607  tiempoFinalSubasta - 120 */\n      tag_98\n      swap2\n      swap1\n      tag_99\n      jump\t// in\n    tag_98:\n        /* \"maru.sol\":1564:1579  block.timestamp */\n      timestamp\n        /* \"maru.sol\":1564:1607  block.timestamp >= tiempoFinalSubasta - 120 */\n      lt\n        /* \"maru.sol\":1560:1710  if (block.timestamp >= tiempoFinalSubasta - 120) { // 120 segundos = 2 minutos... */\n      tag_100\n      jumpi\n        /* \"maru.sol\":1674:1677  120 */\n      0x78\n        /* \"maru.sol\":1652:1670  tiempoFinalSubasta */\n      0x01\n      0x00\n        /* \"maru.sol\":1652:1677  tiempoFinalSubasta += 120 */\n      dup3\n      dup3\n      sload\n      tag_101\n      swap2\n      swap1\n      tag_91\n      jump\t// in\n    tag_101:\n      swap3\n      pop\n      pop\n      dup2\n      swap1\n      sstore\n      pop\n        /* \"maru.sol\":1560:1710  if (block.timestamp >= tiempoFinalSubasta - 120) { // 120 segundos = 2 minutos... */\n    tag_100:\n        /* \"maru.sol\":1770:1786  historialOfertas */\n      0x08\n        /* \"maru.sol\":1792:1878  Oferta({... */\n      mload(0x40)\n      dup1\n      0x40\n      add\n      0x40\n      mstore\n      dup1\n        /* \"maru.sol\":1822:1832  msg.sender */\n      caller\n        /* \"maru.sol\":1792:1878  Oferta({... */\n      0xffffffffffffffffffffffffffffffffffffffff\n      and\n      dup2\n      mstore\n      0x20\n      add\n        /* \"maru.sol\":1857:1866  msg.value */\n      callvalue\n        /* \"maru.sol\":1792:1878  Oferta({... */\n      dup2\n      mstore\n      pop\n        /* \"maru.sol\":1770:1879  historialOfertas.push(Oferta({... */\n      swap1\n      dup1\n      0x01\n      dup2\n      sload\n      add\n      dup1\n      dup3\n      sstore\n      dup1\n      swap2\n      pop\n      pop\n      0x01\n      swap1\n      sub\n      swap1\n      0x00\n      mstore\n      keccak256(0x00, 0x20)\n      swap1\n      0x02\n      mul\n      add\n      0x00\n      swap1\n      swap2\n      swap1\n      swap2\n      swap1\n      swap2\n      pop\n      0x00\n      dup3\n      add\n      mload\n      dup2\n      0x00\n      add\n      exp(0x0100, 0x00)\n      dup2\n      sload\n      dup2\n      0xffffffffffffffffffffffffffffffffffffffff\n      mul\n      not\n      and\n      swap1\n      dup4\n      0xffffffffffffffffffffffffffffffffffffffff\n      and\n      mul\n      or\n      swap1\n      sstore\n      pop\n      0x20\n      dup3\n      add\n      mload\n      dup2\n      0x01\n      add\n      sstore\n      pop\n      pop\n        /* \"maru.sol\":1972:1981  msg.value */\n      callvalue\n        /* \"maru.sol\":1937:1956  depositosAcumulados */\n      0x05\n        /* \"maru.sol\":1937:1968  depositosAcumulados[msg.sender] */\n      0x00\n        /* \"maru.sol\":1957:1967  msg.sender */\n      caller\n        /* \"maru.sol\":1937:1968  depositosAcumulados[msg.sender] */\n      0xffffffffffffffffffffffffffffffffffffffff\n      and\n      0xffffffffffffffffffffffffffffffffffffffff\n      and\n      dup2\n      mstore\n      0x20\n      add\n      swap1\n      dup2\n      mstore\n      0x20\n      add\n      0x00\n      keccak256\n      0x00\n        /* \"maru.sol\":1937:1981  depositosAcumulados[msg.sender] += msg.value */\n      dup3\n      dup3\n      sload\n      tag_103\n      swap2\n      swap1\n      tag_91\n      jump\t// in\n    tag_103:\n      swap3\n      pop\n      pop\n      dup2\n      swap1\n      sstore\n      pop\n        /* \"maru.sol\":1999:2036  OfertaMejorada(msg.sender, msg.value) */\n      0xe70e25d11cf51a1fd88bfc1eb147f99d42669057a0f9537828fa3cd3394dc3e4\n        /* \"maru.sol\":2014:2024  msg.sender */\n      caller\n        /* \"maru.sol\":2026:2035  msg.value */\n      callvalue\n        /* \"maru.sol\":1999:2036  OfertaMejorada(msg.sender, msg.value) */\n      mload(0x40)\n      tag_104\n      swap3\n      swap2\n      swap1\n      tag_24\n      jump\t// in\n    tag_104:\n      mload(0x40)\n      dup1\n      swap2\n      sub\n      swap1\n      log1\n        /* \"maru.sol\":2052:2089  OfertaAceptada(msg.sender, msg.value) */\n      0xde66accd6240fde8499e988f5d390a2c61bc04425d3f696ff40b06c9ddf578ab\n        /* \"maru.sol\":2067:2077  msg.sender */\n      caller\n        /* \"maru.sol\":2079:2088  msg.value */\n      callvalue\n        /* \"maru.sol\":2052:2089  OfertaAceptada(msg.sender, msg.value) */\n      mload(0x40)\n      tag_105\n      swap3\n      swap2\n      swap1\n      tag_24\n      jump\t// in\n    tag_105:\n      mload(0x40)\n      dup1\n      swap2\n      sub\n      swap1\n      log1\n        /* \"maru.sol\":1006:2133  function ofertar() public payable {... */\n      jump\t// out\n        /* \"maru.sol\":2141:2405  function retirarOfertasPendientes() public {... */\n    tag_34:\n        /* \"maru.sol\":2195:2208  uint cantidad */\n      0x00\n        /* \"maru.sol\":2211:2228  ofertasPendientes */\n      0x04\n        /* \"maru.sol\":2211:2240  ofertasPendientes[msg.sender] */\n      0x00\n        /* \"maru.sol\":2229:2239  msg.sender */\n      caller\n        /* \"maru.sol\":2211:2240  ofertasPendientes[msg.sender] */\n      0xffffffffffffffffffffffffffffffffffffffff\n      and\n      0xffffffffffffffffffffffffffffffffffffffff\n      and\n      dup2\n      mstore\n      0x20\n      add\n      swap1\n      dup2\n      mstore\n      0x20\n      add\n      0x00\n      keccak256\n      sload\n        /* \"maru.sol\":2195:2240  uint cantidad = ofertasPendientes[msg.sender] */\n      swap1\n      pop\n        /* \"maru.sol\":2270:2271  0 */\n      0x00\n        /* \"maru.sol\":2259:2267  cantidad */\n      dup2\n        /* \"maru.sol\":2259:2271  cantidad > 0 */\n      gt\n        /* \"maru.sol\":2251:2300  require(cantidad > 0, \"No hay fondos pendientes\") */\n      tag_107\n      jumpi\n      mload(0x40)\n      0x08c379a000000000000000000000000000000000000000000000000000000000\n      dup2\n      mstore\n      0x04\n      add\n      tag_108\n      swap1\n      tag_109\n      jump\t// in\n    tag_108:\n      mload(0x40)\n      dup1\n      swap2\n      sub\n      swap1\n      revert\n    tag_107:\n        /* \"maru.sol\":2345:2346  0 */\n      0x00\n        /* \"maru.sol\":2313:2330  ofertasPendientes */\n      0x04\n        /* \"maru.sol\":2313:2342  ofertasPendientes[msg.sender] */\n      0x00\n        /* \"maru.sol\":2331:2341  msg.sender */\n      caller\n        /* \"maru.sol\":2313:2342  ofertasPendientes[msg.sender] */\n      0xffffffffffffffffffffffffffffffffffffffff\n      and\n      0xffffffffffffffffffffffffffffffffffffffff\n      and\n      dup2\n      mstore\n      0x20\n      add\n      swap1\n      dup2\n      mstore\n      0x20\n      add\n      0x00\n      keccak256\n        /* \"maru.sol\":2313:2346  ofertasPendientes[msg.sender] = 0 */\n      dup2\n      swap1\n      sstore\n      pop\n        /* \"maru.sol\":2367:2377  msg.sender */\n      caller\n        /* \"maru.sol\":2359:2387  payable(msg.sender).transfer */\n      0xffffffffffffffffffffffffffffffffffffffff\n      and\n        /* \"maru.sol\":2359:2397  payable(msg.sender).transfer(cantidad) */\n      0x08fc\n        /* \"maru.sol\":2388:2396  cantidad */\n      dup3\n        /* \"maru.sol\":2359:2397  payable(msg.sender).transfer(cantidad) */\n      swap1\n      dup2\n      iszero\n      mul\n      swap1\n      mload(0x40)\n      0x00\n      mload(0x40)\n      dup1\n      dup4\n      sub\n      dup2\n      dup6\n      dup9\n      dup9\n      call\n      swap4\n      pop\n      pop\n      pop\n      pop\n      iszero\n      dup1\n      iszero\n      tag_111\n      jumpi\n      returndatasize\n      0x00\n      dup1\n      returndatacopy\n      revert(0x00, returndatasize)\n    tag_111:\n      pop\n        /* \"maru.sol\":2184:2405  {... */\n      pop\n        /* \"maru.sol\":2141:2405  function retirarOfertasPendientes() public {... */\n      jump\t// out\n        /* \"maru.sol\":2871:3593  function devolverDepositos() public {... */\n    tag_37:\n        /* \"maru.sol\":2926:2936  finalizada */\n      0x06\n      0x00\n      swap1\n      sload\n      swap1\n      0x0100\n      exp\n      swap1\n      div\n      0xff\n      and\n        /* \"maru.sol\":2918:2968  require(finalizada, \"La subasta no ha finalizado\") */\n      tag_113\n      jumpi\n      mload(0x40)\n      0x08c379a000000000000000000000000000000000000000000000000000000000\n      dup2\n      mstore\n      0x04\n      add\n      tag_114\n      swap1\n      tag_75\n      jump\t// in\n    tag_114:\n      mload(0x40)\n      dup1\n      swap2\n      sub\n      swap1\n      revert\n    tag_113:\n        /* \"maru.sol\":2993:2999  uint i */\n      0x00\n        /* \"maru.sol\":2988:3590  for (uint i = 0; i < historialOfertas.length; i++) {... */\n    tag_115:\n        /* \"maru.sol\":3009:3025  historialOfertas */\n      0x08\n        /* \"maru.sol\":3009:3032  historialOfertas.length */\n      dup1\n      sload\n      swap1\n      pop\n        /* \"maru.sol\":3005:3006  i */\n      dup2\n        /* \"maru.sol\":3005:3032  i < historialOfertas.length */\n      lt\n        /* \"maru.sol\":2988:3590  for (uint i = 0; i < historialOfertas.length; i++) {... */\n      iszero\n      tag_116\n      jumpi\n        /* \"maru.sol\":3054:3074  Oferta memory oferta */\n      0x00\n        /* \"maru.sol\":3077:3093  historialOfertas */\n      0x08\n        /* \"maru.sol\":3094:3095  i */\n      dup3\n        /* \"maru.sol\":3077:3096  historialOfertas[i] */\n      dup2\n      sload\n      dup2\n      lt\n      tag_118\n      jumpi\n      tag_119\n      tag_120\n      jump\t// in\n    tag_119:\n    tag_118:\n      swap1\n      0x00\n      mstore\n      keccak256(0x00, 0x20)\n      swap1\n      0x02\n      mul\n      add\n        /* \"maru.sol\":3054:3096  Oferta memory oferta = historialOfertas[i] */\n      mload(0x40)\n      dup1\n      0x40\n      add\n      0x40\n      mstore\n      swap1\n      dup2\n      0x00\n      dup3\n      add\n      0x00\n      swap1\n      sload\n      swap1\n      0x0100\n      exp\n      swap1\n      div\n      0xffffffffffffffffffffffffffffffffffffffff\n      and\n      0xffffffffffffffffffffffffffffffffffffffff\n      and\n      0xffffffffffffffffffffffffffffffffffffffff\n      and\n      dup2\n      mstore\n      0x20\n      add\n      0x01\n      dup3\n      add\n      sload\n      dup2\n      mstore\n      pop\n      pop\n      swap1\n      pop\n        /* \"maru.sol\":3132:3143  mejorPostor */\n      0x02\n      0x00\n      swap1\n      sload\n      swap1\n      0x0100\n      exp\n      swap1\n      div\n      0xffffffffffffffffffffffffffffffffffffffff\n      and\n        /* \"maru.sol\":3115:3143  oferta.postor != mejorPostor */\n      0xffffffffffffffffffffffffffffffffffffffff\n      and\n        /* \"maru.sol\":3115:3121  oferta */\n      dup2\n        /* \"maru.sol\":3115:3128  oferta.postor */\n      0x00\n      add\n      mload\n        /* \"maru.sol\":3115:3143  oferta.postor != mejorPostor */\n      0xffffffffffffffffffffffffffffffffffffffff\n      and\n      eq\n        /* \"maru.sol\":3111:3583  if (oferta.postor != mejorPostor) {... */\n      tag_122\n      jumpi\n        /* \"maru.sol\":3164:3177  uint cantidad */\n      0x00\n        /* \"maru.sol\":3180:3186  oferta */\n      dup2\n        /* \"maru.sol\":3180:3195  oferta.cantidad */\n      0x20\n      add\n      mload\n        /* \"maru.sol\":3164:3195  uint cantidad = oferta.cantidad */\n      swap1\n      pop\n        /* \"maru.sol\":3214:3227  uint comision */\n      0x00\n        /* \"maru.sol\":3247:3250  100 */\n      0x64\n        /* \"maru.sol\":3242:3243  2 */\n      0x02\n        /* \"maru.sol\":3231:3239  cantidad */\n      dup4\n        /* \"maru.sol\":3231:3243  cantidad * 2 */\n      tag_123\n      swap2\n      swap1\n      tag_87\n      jump\t// in\n    tag_123:\n        /* \"maru.sol\":3230:3250  (cantidad * 2) / 100 */\n      tag_124\n      swap2\n      swap1\n      tag_89\n      jump\t// in\n    tag_124:\n        /* \"maru.sol\":3214:3250  uint comision = (cantidad * 2) / 100 */\n      swap1\n      pop\n        /* \"maru.sol\":3298:3311  uint devolver */\n      0x00\n        /* \"maru.sol\":3325:3333  comision */\n      dup2\n        /* \"maru.sol\":3314:3322  cantidad */\n      dup4\n        /* \"maru.sol\":3314:3333  cantidad - comision */\n      tag_125\n      swap2\n      swap1\n      tag_99\n      jump\t// in\n    tag_125:\n        /* \"maru.sol\":3298:3333  uint devolver = cantidad - comision */\n      swap1\n      pop\n        /* \"maru.sol\":3421:3427  oferta */\n      dup4\n        /* \"maru.sol\":3421:3434  oferta.postor */\n      0x00\n      add\n      mload\n        /* \"maru.sol\":3413:3444  payable(oferta.postor).transfer */\n      0xffffffffffffffffffffffffffffffffffffffff\n      and\n        /* \"maru.sol\":3413:3454  payable(oferta.postor).transfer(devolver) */\n      0x08fc\n        /* \"maru.sol\":3445:3453  devolver */\n      dup3\n        /* \"maru.sol\":3413:3454  payable(oferta.postor).transfer(devolver) */\n      swap1\n      dup2\n      iszero\n      mul\n      swap1\n      mload(0x40)\n      0x00\n      mload(0x40)\n      dup1\n      dup4\n      sub\n      dup2\n      dup6\n      dup9\n      dup9\n      call\n      swap4\n      pop\n      pop\n      pop\n      pop\n      iszero\n      dup1\n      iszero\n      tag_127\n      jumpi\n      returndatasize\n      0x00\n      dup1\n      returndatacopy\n      revert(0x00, returndatasize)\n    tag_127:\n      pop\n        /* \"maru.sol\":3541:3551  subastador */\n      0x00\n      dup1\n      sload\n      swap1\n      0x0100\n      exp\n      swap1\n      div\n      0xffffffffffffffffffffffffffffffffffffffff\n      and\n        /* \"maru.sol\":3533:3561  payable(subastador).transfer */\n      0xffffffffffffffffffffffffffffffffffffffff\n      and\n        /* \"maru.sol\":3533:3571  payable(subastador).transfer(comision) */\n      0x08fc\n        /* \"maru.sol\":3562:3570  comision */\n      dup4\n        /* \"maru.sol\":3533:3571  payable(subastador).transfer(comision) */\n      swap1\n      dup2\n      iszero\n      mul\n      swap1\n      mload(0x40)\n      0x00\n      mload(0x40)\n      dup1\n      dup4\n      sub\n      dup2\n      dup6\n      dup9\n      dup9\n      call\n      swap4\n      pop\n      pop\n      pop\n      pop\n      iszero\n      dup1\n      iszero\n      tag_129\n      jumpi\n      returndatasize\n      0x00\n      dup1\n      returndatacopy\n      revert(0x00, returndatasize)\n    tag_129:\n      pop\n        /* \"maru.sol\":3145:3583  {... */\n      pop\n      pop\n      pop\n        /* \"maru.sol\":3111:3583  if (oferta.postor != mejorPostor) {... */\n    tag_122:\n        /* \"maru.sol\":3039:3590  {... */\n      pop\n        /* \"maru.sol\":3034:3037  i++ */\n      dup1\n      dup1\n      0x01\n      add\n      swap2\n      pop\n      pop\n        /* \"maru.sol\":2988:3590  for (uint i = 0; i < historialOfertas.length; i++) {... */\n      jump(tag_115)\n    tag_116:\n      pop\n        /* \"maru.sol\":2871:3593  function devolverDepositos() public {... */\n      jump\t// out\n        /* \"maru.sol\":352:384  uint public precioBase = 1 ether */\n    tag_40:\n      sload(0x07)\n      dup2\n      jump\t// out\n        /* \"maru.sol\":153:179  address public mejorPostor */\n    tag_45:\n      0x02\n      0x00\n      swap1\n      sload\n      swap1\n      0x0100\n      exp\n      swap1\n      div\n      0xffffffffffffffffffffffffffffffffffffffff\n      and\n      dup2\n      jump\t// out\n        /* \"maru.sol\":216:265  mapping(address => uint) public ofertasPendientes */\n    tag_51:\n      mstore(0x20, 0x04)\n      dup1\n      0x00\n      mstore\n      keccak256(0x00, 0x40)\n      0x00\n      swap2\n      pop\n      swap1\n      pop\n      sload\n      dup2\n      jump\t// out\n        /* \"maru.sol\":496:528  Oferta[] public historialOfertas */\n    tag_57:\n      0x08\n      dup2\n      dup2\n      sload\n      dup2\n      lt\n      tag_130\n      jumpi\n      0x00\n      dup1\n      revert\n    tag_130:\n      swap1\n      0x00\n      mstore\n      keccak256(0x00, 0x20)\n      swap1\n      0x02\n      mul\n      add\n      0x00\n      swap2\n      pop\n      swap1\n      pop\n      dup1\n      0x00\n      add\n      0x00\n      swap1\n      sload\n      swap1\n      0x0100\n      exp\n      swap1\n      div\n      0xffffffffffffffffffffffffffffffffffffffff\n      and\n      swap1\n      dup1\n      0x01\n      add\n      sload\n      swap1\n      pop\n      dup3\n      jump\t// out\n        /* \"maru.sol\":186:209  uint public mejorOferta */\n    tag_61:\n      sload(0x03)\n      dup2\n      jump\t// out\n        /* \"maru.sol\":272:323  mapping(address => uint) public depositosAcumulados */\n    tag_66:\n      mstore(0x20, 0x05)\n      dup1\n      0x00\n      mstore\n      keccak256(0x00, 0x40)\n      0x00\n      swap2\n      pop\n      swap1\n      pop\n      sload\n      dup2\n      jump\t// out\n        /* \"maru.sol\":116:146  uint public tiempoFinalSubasta */\n    tag_70:\n      sload(0x01)\n      dup2\n      jump\t// out\n        /* \"#utility.yul\":7:133   */\n    tag_132:\n        /* \"#utility.yul\":44:51   */\n      0x00\n        /* \"#utility.yul\":84:126   */\n      0xffffffffffffffffffffffffffffffffffffffff\n        /* \"#utility.yul\":77:82   */\n      dup3\n        /* \"#utility.yul\":73:127   */\n      and\n        /* \"#utility.yul\":62:127   */\n      swap1\n      pop\n        /* \"#utility.yul\":7:133   */\n      swap2\n      swap1\n      pop\n      jump\t// out\n        /* \"#utility.yul\":139:235   */\n    tag_133:\n        /* \"#utility.yul\":176:183   */\n      0x00\n        /* \"#utility.yul\":205:229   */\n      tag_160\n        /* \"#utility.yul\":223:228   */\n      dup3\n        /* \"#utility.yul\":205:229   */\n      tag_132\n      jump\t// in\n    tag_160:\n        /* \"#utility.yul\":194:229   */\n      swap1\n      pop\n        /* \"#utility.yul\":139:235   */\n      swap2\n      swap1\n      pop\n      jump\t// out\n        /* \"#utility.yul\":241:359   */\n    tag_134:\n        /* \"#utility.yul\":328:352   */\n      tag_162\n        /* \"#utility.yul\":346:351   */\n      dup2\n        /* \"#utility.yul\":328:352   */\n      tag_133\n      jump\t// in\n    tag_162:\n        /* \"#utility.yul\":323:326   */\n      dup3\n        /* \"#utility.yul\":316:353   */\n      mstore\n        /* \"#utility.yul\":241:359   */\n      pop\n      pop\n      jump\t// out\n        /* \"#utility.yul\":365:442   */\n    tag_135:\n        /* \"#utility.yul\":402:409   */\n      0x00\n        /* \"#utility.yul\":431:436   */\n      dup2\n        /* \"#utility.yul\":420:436   */\n      swap1\n      pop\n        /* \"#utility.yul\":365:442   */\n      swap2\n      swap1\n      pop\n      jump\t// out\n        /* \"#utility.yul\":448:566   */\n    tag_136:\n        /* \"#utility.yul\":535:559   */\n      tag_165\n        /* \"#utility.yul\":553:558   */\n      dup2\n        /* \"#utility.yul\":535:559   */\n      tag_135\n      jump\t// in\n    tag_165:\n        /* \"#utility.yul\":530:533   */\n      dup3\n        /* \"#utility.yul\":523:560   */\n      mstore\n        /* \"#utility.yul\":448:566   */\n      pop\n      pop\n      jump\t// out\n        /* \"#utility.yul\":572:904   */\n    tag_24:\n        /* \"#utility.yul\":693:697   */\n      0x00\n        /* \"#utility.yul\":731:733   */\n      0x40\n        /* \"#utility.yul\":720:729   */\n      dup3\n        /* \"#utility.yul\":716:734   */\n      add\n        /* \"#utility.yul\":708:734   */\n      swap1\n      pop\n        /* \"#utility.yul\":744:815   */\n      tag_167\n        /* \"#utility.yul\":812:813   */\n      0x00\n        /* \"#utility.yul\":801:810   */\n      dup4\n        /* \"#utility.yul\":797:814   */\n      add\n        /* \"#utility.yul\":788:794   */\n      dup6\n        /* \"#utility.yul\":744:815   */\n      tag_134\n      jump\t// in\n    tag_167:\n        /* \"#utility.yul\":825:897   */\n      tag_168\n        /* \"#utility.yul\":893:895   */\n      0x20\n        /* \"#utility.yul\":882:891   */\n      dup4\n        /* \"#utility.yul\":878:896   */\n      add\n        /* \"#utility.yul\":869:875   */\n      dup5\n        /* \"#utility.yul\":825:897   */\n      tag_136\n      jump\t// in\n    tag_168:\n        /* \"#utility.yul\":572:904   */\n      swap4\n      swap3\n      pop\n      pop\n      pop\n      jump\t// out\n        /* \"#utility.yul\":910:1132   */\n    tag_29:\n        /* \"#utility.yul\":1003:1007   */\n      0x00\n        /* \"#utility.yul\":1041:1043   */\n      0x20\n        /* \"#utility.yul\":1030:1039   */\n      dup3\n        /* \"#utility.yul\":1026:1044   */\n      add\n        /* \"#utility.yul\":1018:1044   */\n      swap1\n      pop\n        /* \"#utility.yul\":1054:1125   */\n      tag_170\n        /* \"#utility.yul\":1122:1123   */\n      0x00\n        /* \"#utility.yul\":1111:1120   */\n      dup4\n        /* \"#utility.yul\":1107:1124   */\n      add\n        /* \"#utility.yul\":1098:1104   */\n      dup5\n        /* \"#utility.yul\":1054:1125   */\n      tag_134\n      jump\t// in\n    tag_170:\n        /* \"#utility.yul\":910:1132   */\n      swap3\n      swap2\n      pop\n      pop\n      jump\t// out\n        /* \"#utility.yul\":1138:1360   */\n    tag_42:\n        /* \"#utility.yul\":1231:1235   */\n      0x00\n        /* \"#utility.yul\":1269:1271   */\n      0x20\n        /* \"#utility.yul\":1258:1267   */\n      dup3\n        /* \"#utility.yul\":1254:1272   */\n      add\n        /* \"#utility.yul\":1246:1272   */\n      swap1\n      pop\n        /* \"#utility.yul\":1282:1353   */\n      tag_172\n        /* \"#utility.yul\":1350:1351   */\n      0x00\n        /* \"#utility.yul\":1339:1348   */\n      dup4\n        /* \"#utility.yul\":1335:1352   */\n      add\n        /* \"#utility.yul\":1326:1332   */\n      dup5\n        /* \"#utility.yul\":1282:1353   */\n      tag_136\n      jump\t// in\n    tag_172:\n        /* \"#utility.yul\":1138:1360   */\n      swap3\n      swap2\n      pop\n      pop\n      jump\t// out\n        /* \"#utility.yul\":1447:1564   */\n    tag_138:\n        /* \"#utility.yul\":1556:1557   */\n      0x00\n        /* \"#utility.yul\":1553:1554   */\n      dup1\n        /* \"#utility.yul\":1546:1558   */\n      revert\n        /* \"#utility.yul\":1693:1815   */\n    tag_140:\n        /* \"#utility.yul\":1766:1790   */\n      tag_177\n        /* \"#utility.yul\":1784:1789   */\n      dup2\n        /* \"#utility.yul\":1766:1790   */\n      tag_133\n      jump\t// in\n    tag_177:\n        /* \"#utility.yul\":1759:1764   */\n      dup2\n        /* \"#utility.yul\":1756:1791   */\n      eq\n        /* \"#utility.yul\":1746:1809   */\n      tag_178\n      jumpi\n        /* \"#utility.yul\":1805:1806   */\n      0x00\n        /* \"#utility.yul\":1802:1803   */\n      dup1\n        /* \"#utility.yul\":1795:1807   */\n      revert\n        /* \"#utility.yul\":1746:1809   */\n    tag_178:\n        /* \"#utility.yul\":1693:1815   */\n      pop\n      jump\t// out\n        /* \"#utility.yul\":1821:1960   */\n    tag_141:\n        /* \"#utility.yul\":1867:1872   */\n      0x00\n        /* \"#utility.yul\":1905:1911   */\n      dup2\n        /* \"#utility.yul\":1892:1912   */\n      calldataload\n        /* \"#utility.yul\":1883:1912   */\n      swap1\n      pop\n        /* \"#utility.yul\":1921:1954   */\n      tag_180\n        /* \"#utility.yul\":1948:1953   */\n      dup2\n        /* \"#utility.yul\":1921:1954   */\n      tag_140\n      jump\t// in\n    tag_180:\n        /* \"#utility.yul\":1821:1960   */\n      swap3\n      swap2\n      pop\n      pop\n      jump\t// out\n        /* \"#utility.yul\":1966:2295   */\n    tag_50:\n        /* \"#utility.yul\":2025:2031   */\n      0x00\n        /* \"#utility.yul\":2074:2076   */\n      0x20\n        /* \"#utility.yul\":2062:2071   */\n      dup3\n        /* \"#utility.yul\":2053:2060   */\n      dup5\n        /* \"#utility.yul\":2049:2072   */\n      sub\n        /* \"#utility.yul\":2045:2077   */\n      slt\n        /* \"#utility.yul\":2042:2161   */\n      iszero\n      tag_182\n      jumpi\n        /* \"#utility.yul\":2080:2159   */\n      tag_183\n      tag_138\n      jump\t// in\n    tag_183:\n        /* \"#utility.yul\":2042:2161   */\n    tag_182:\n        /* \"#utility.yul\":2200:2201   */\n      0x00\n        /* \"#utility.yul\":2225:2278   */\n      tag_184\n        /* \"#utility.yul\":2270:2277   */\n      dup5\n        /* \"#utility.yul\":2261:2267   */\n      dup3\n        /* \"#utility.yul\":2250:2259   */\n      dup6\n        /* \"#utility.yul\":2246:2268   */\n      add\n        /* \"#utility.yul\":2225:2278   */\n      tag_141\n      jump\t// in\n    tag_184:\n        /* \"#utility.yul\":2215:2278   */\n      swap2\n      pop\n        /* \"#utility.yul\":2171:2288   */\n      pop\n        /* \"#utility.yul\":1966:2295   */\n      swap3\n      swap2\n      pop\n      pop\n      jump\t// out\n        /* \"#utility.yul\":2301:2423   */\n    tag_142:\n        /* \"#utility.yul\":2374:2398   */\n      tag_186\n        /* \"#utility.yul\":2392:2397   */\n      dup2\n        /* \"#utility.yul\":2374:2398   */\n      tag_135\n      jump\t// in\n    tag_186:\n        /* \"#utility.yul\":2367:2372   */\n      dup2\n        /* \"#utility.yul\":2364:2399   */\n      eq\n        /* \"#utility.yul\":2354:2417   */\n      tag_187\n      jumpi\n        /* \"#utility.yul\":2413:2414   */\n      0x00\n        /* \"#utility.yul\":2410:2411   */\n      dup1\n        /* \"#utility.yul\":2403:2415   */\n      revert\n        /* \"#utility.yul\":2354:2417   */\n    tag_187:\n        /* \"#utility.yul\":2301:2423   */\n      pop\n      jump\t// out\n        /* \"#utility.yul\":2429:2568   */\n    tag_143:\n        /* \"#utility.yul\":2475:2480   */\n      0x00\n        /* \"#utility.yul\":2513:2519   */\n      dup2\n        /* \"#utility.yul\":2500:2520   */\n      calldataload\n        /* \"#utility.yul\":2491:2520   */\n      swap1\n      pop\n        /* \"#utility.yul\":2529:2562   */\n      tag_189\n        /* \"#utility.yul\":2556:2561   */\n      dup2\n        /* \"#utility.yul\":2529:2562   */\n      tag_142\n      jump\t// in\n    tag_189:\n        /* \"#utility.yul\":2429:2568   */\n      swap3\n      swap2\n      pop\n      pop\n      jump\t// out\n        /* \"#utility.yul\":2574:2903   */\n    tag_56:\n        /* \"#utility.yul\":2633:2639   */\n      0x00\n        /* \"#utility.yul\":2682:2684   */\n      0x20\n        /* \"#utility.yul\":2670:2679   */\n      dup3\n        /* \"#utility.yul\":2661:2668   */\n      dup5\n        /* \"#utility.yul\":2657:2680   */\n      sub\n        /* \"#utility.yul\":2653:2685   */\n      slt\n        /* \"#utility.yul\":2650:2769   */\n      iszero\n      tag_191\n      jumpi\n        /* \"#utility.yul\":2688:2767   */\n      tag_192\n      tag_138\n      jump\t// in\n    tag_192:\n        /* \"#utility.yul\":2650:2769   */\n    tag_191:\n        /* \"#utility.yul\":2808:2809   */\n      0x00\n        /* \"#utility.yul\":2833:2886   */\n      tag_193\n        /* \"#utility.yul\":2878:2885   */\n      dup5\n        /* \"#utility.yul\":2869:2875   */\n      dup3\n        /* \"#utility.yul\":2858:2867   */\n      dup6\n        /* \"#utility.yul\":2854:2876   */\n      add\n        /* \"#utility.yul\":2833:2886   */\n      tag_143\n      jump\t// in\n    tag_193:\n        /* \"#utility.yul\":2823:2886   */\n      swap2\n      pop\n        /* \"#utility.yul\":2779:2896   */\n      pop\n        /* \"#utility.yul\":2574:2903   */\n      swap3\n      swap2\n      pop\n      pop\n      jump\t// out\n        /* \"#utility.yul\":2909:3078   */\n    tag_144:\n        /* \"#utility.yul\":2993:3004   */\n      0x00\n        /* \"#utility.yul\":3027:3033   */\n      dup3\n        /* \"#utility.yul\":3022:3025   */\n      dup3\n        /* \"#utility.yul\":3015:3034   */\n      mstore\n        /* \"#utility.yul\":3067:3071   */\n      0x20\n        /* \"#utility.yul\":3062:3065   */\n      dup3\n        /* \"#utility.yul\":3058:3072   */\n      add\n        /* \"#utility.yul\":3043:3072   */\n      swap1\n      pop\n        /* \"#utility.yul\":2909:3078   */\n      swap3\n      swap2\n      pop\n      pop\n      jump\t// out\n        /* \"#utility.yul\":3084:3261   */\n    tag_145:\n        /* \"#utility.yul\":3224:3253   */\n      0x4c612073756261737461206e6f2068612066696e616c697a61646f0000000000\n        /* \"#utility.yul\":3220:3221   */\n      0x00\n        /* \"#utility.yul\":3212:3218   */\n      dup3\n        /* \"#utility.yul\":3208:3222   */\n      add\n        /* \"#utility.yul\":3201:3254   */\n      mstore\n        /* \"#utility.yul\":3084:3261   */\n      pop\n      jump\t// out\n        /* \"#utility.yul\":3267:3633   */\n    tag_146:\n        /* \"#utility.yul\":3409:3412   */\n      0x00\n        /* \"#utility.yul\":3430:3497   */\n      tag_197\n        /* \"#utility.yul\":3494:3496   */\n      0x1b\n        /* \"#utility.yul\":3489:3492   */\n      dup4\n        /* \"#utility.yul\":3430:3497   */\n      tag_144\n      jump\t// in\n    tag_197:\n        /* \"#utility.yul\":3423:3497   */\n      swap2\n      pop\n        /* \"#utility.yul\":3506:3599   */\n      tag_198\n        /* \"#utility.yul\":3595:3598   */\n      dup3\n        /* \"#utility.yul\":3506:3599   */\n      tag_145\n      jump\t// in\n    tag_198:\n        /* \"#utility.yul\":3624:3626   */\n      0x20\n        /* \"#utility.yul\":3619:3622   */\n      dup3\n        /* \"#utility.yul\":3615:3627   */\n      add\n        /* \"#utility.yul\":3608:3627   */\n      swap1\n      pop\n        /* \"#utility.yul\":3267:3633   */\n      swap2\n      swap1\n      pop\n      jump\t// out\n        /* \"#utility.yul\":3639:4058   */\n    tag_75:\n        /* \"#utility.yul\":3805:3809   */\n      0x00\n        /* \"#utility.yul\":3843:3845   */\n      0x20\n        /* \"#utility.yul\":3832:3841   */\n      dup3\n        /* \"#utility.yul\":3828:3846   */\n      add\n        /* \"#utility.yul\":3820:3846   */\n      swap1\n      pop\n        /* \"#utility.yul\":3892:3901   */\n      dup2\n        /* \"#utility.yul\":3886:3890   */\n      dup2\n        /* \"#utility.yul\":3882:3902   */\n      sub\n        /* \"#utility.yul\":3878:3879   */\n      0x00\n        /* \"#utility.yul\":3867:3876   */\n      dup4\n        /* \"#utility.yul\":3863:3880   */\n      add\n        /* \"#utility.yul\":3856:3903   */\n      mstore\n        /* \"#utility.yul\":3920:4051   */\n      tag_200\n        /* \"#utility.yul\":4046:4050   */\n      dup2\n        /* \"#utility.yul\":3920:4051   */\n      tag_146\n      jump\t// in\n    tag_200:\n        /* \"#utility.yul\":3912:4051   */\n      swap1\n      pop\n        /* \"#utility.yul\":3639:4058   */\n      swap2\n      swap1\n      pop\n      jump\t// out\n        /* \"#utility.yul\":4064:4246   */\n    tag_147:\n        /* \"#utility.yul\":4204:4238   */\n      0x4c612073756261737461207961206861207369646f2066696e616c697a616461\n        /* \"#utility.yul\":4200:4201   */\n      0x00\n        /* \"#utility.yul\":4192:4198   */\n      dup3\n        /* \"#utility.yul\":4188:4202   */\n      add\n        /* \"#utility.yul\":4181:4239   */\n      mstore\n        /* \"#utility.yul\":4064:4246   */\n      pop\n      jump\t// out\n        /* \"#utility.yul\":4252:4618   */\n    tag_148:\n        /* \"#utility.yul\":4394:4397   */\n      0x00\n        /* \"#utility.yul\":4415:4482   */\n      tag_203\n        /* \"#utility.yul\":4479:4481   */\n      0x20\n        /* \"#utility.yul\":4474:4477   */\n      dup4\n        /* \"#utility.yul\":4415:4482   */\n      tag_144\n      jump\t// in\n    tag_203:\n        /* \"#utility.yul\":4408:4482   */\n      swap2\n      pop\n        /* \"#utility.yul\":4491:4584   */\n      tag_204\n        /* \"#utility.yul\":4580:4583   */\n      dup3\n        /* \"#utility.yul\":4491:4584   */\n      tag_147\n      jump\t// in\n    tag_204:\n        /* \"#utility.yul\":4609:4611   */\n      0x20\n        /* \"#utility.yul\":4604:4607   */\n      dup3\n        /* \"#utility.yul\":4600:4612   */\n      add\n        /* \"#utility.yul\":4593:4612   */\n      swap1\n      pop\n        /* \"#utility.yul\":4252:4618   */\n      swap2\n      swap1\n      pop\n      jump\t// out\n        /* \"#utility.yul\":4624:5043   */\n    tag_78:\n        /* \"#utility.yul\":4790:4794   */\n      0x00\n        /* \"#utility.yul\":4828:4830   */\n      0x20\n        /* \"#utility.yul\":4817:4826   */\n      dup3\n        /* \"#utility.yul\":4813:4831   */\n      add\n        /* \"#utility.yul\":4805:4831   */\n      swap1\n      pop\n        /* \"#utility.yul\":4877:4886   */\n      dup2\n        /* \"#utility.yul\":4871:4875   */\n      dup2\n        /* \"#utility.yul\":4867:4887   */\n      sub\n        /* \"#utility.yul\":4863:4864   */\n      0x00\n        /* \"#utility.yul\":4852:4861   */\n      dup4\n        /* \"#utility.yul\":4848:4865   */\n      add\n        /* \"#utility.yul\":4841:4888   */\n      mstore\n        /* \"#utility.yul\":4905:5036   */\n      tag_206\n        /* \"#utility.yul\":5031:5035   */\n      dup2\n        /* \"#utility.yul\":4905:5036   */\n      tag_148\n      jump\t// in\n    tag_206:\n        /* \"#utility.yul\":4897:5036   */\n      swap1\n      pop\n        /* \"#utility.yul\":4624:5043   */\n      swap2\n      swap1\n      pop\n      jump\t// out\n        /* \"#utility.yul\":5049:5223   */\n    tag_149:\n        /* \"#utility.yul\":5189:5215   */\n      0x4c6120737562617374612068612066696e616c697a61646f0000000000000000\n        /* \"#utility.yul\":5185:5186   */\n      0x00\n        /* \"#utility.yul\":5177:5183   */\n      dup3\n        /* \"#utility.yul\":5173:5187   */\n      add\n        /* \"#utility.yul\":5166:5216   */\n      mstore\n        /* \"#utility.yul\":5049:5223   */\n      pop\n      jump\t// out\n        /* \"#utility.yul\":5229:5595   */\n    tag_150:\n        /* \"#utility.yul\":5371:5374   */\n      0x00\n        /* \"#utility.yul\":5392:5459   */\n      tag_209\n        /* \"#utility.yul\":5456:5458   */\n      0x18\n        /* \"#utility.yul\":5451:5454   */\n      dup4\n        /* \"#utility.yul\":5392:5459   */\n      tag_144\n      jump\t// in\n    tag_209:\n        /* \"#utility.yul\":5385:5459   */\n      swap2\n      pop\n        /* \"#utility.yul\":5468:5561   */\n      tag_210\n        /* \"#utility.yul\":5557:5560   */\n      dup3\n        /* \"#utility.yul\":5468:5561   */\n      tag_149\n      jump\t// in\n    tag_210:\n        /* \"#utility.yul\":5586:5588   */\n      0x20\n        /* \"#utility.yul\":5581:5584   */\n      dup3\n        /* \"#utility.yul\":5577:5589   */\n      add\n        /* \"#utility.yul\":5570:5589   */\n      swap1\n      pop\n        /* \"#utility.yul\":5229:5595   */\n      swap2\n      swap1\n      pop\n      jump\t// out\n        /* \"#utility.yul\":5601:6020   */\n    tag_85:\n        /* \"#utility.yul\":5767:5771   */\n      0x00\n        /* \"#utility.yul\":5805:5807   */\n      0x20\n        /* \"#utility.yul\":5794:5803   */\n      dup3\n        /* \"#utility.yul\":5790:5808   */\n      add\n        /* \"#utility.yul\":5782:5808   */\n      swap1\n      pop\n        /* \"#utility.yul\":5854:5863   */\n      dup2\n        /* \"#utility.yul\":5848:5852   */\n      dup2\n        /* \"#utility.yul\":5844:5864   */\n      sub\n        /* \"#utility.yul\":5840:5841   */\n      0x00\n        /* \"#utility.yul\":5829:5838   */\n      dup4\n        /* \"#utility.yul\":5825:5842   */\n      add\n        /* \"#utility.yul\":5818:5865   */\n      mstore\n        /* \"#utility.yul\":5882:6013   */\n      tag_212\n        /* \"#utility.yul\":6008:6012   */\n      dup2\n        /* \"#utility.yul\":5882:6013   */\n      tag_150\n      jump\t// in\n    tag_212:\n        /* \"#utility.yul\":5874:6013   */\n      swap1\n      pop\n        /* \"#utility.yul\":5601:6020   */\n      swap2\n      swap1\n      pop\n      jump\t// out\n        /* \"#utility.yul\":6026:6206   */\n    tag_151:\n        /* \"#utility.yul\":6074:6151   */\n      0x4e487b7100000000000000000000000000000000000000000000000000000000\n        /* \"#utility.yul\":6071:6072   */\n      0x00\n        /* \"#utility.yul\":6064:6152   */\n      mstore\n        /* \"#utility.yul\":6171:6175   */\n      0x11\n        /* \"#utility.yul\":6168:6169   */\n      0x04\n        /* \"#utility.yul\":6161:6176   */\n      mstore\n        /* \"#utility.yul\":6195:6199   */\n      0x24\n        /* \"#utility.yul\":6192:6193   */\n      0x00\n        /* \"#utility.yul\":6185:6200   */\n      revert\n        /* \"#utility.yul\":6212:6622   */\n    tag_87:\n        /* \"#utility.yul\":6252:6259   */\n      0x00\n        /* \"#utility.yul\":6275:6295   */\n      tag_215\n        /* \"#utility.yul\":6293:6294   */\n      dup3\n        /* \"#utility.yul\":6275:6295   */\n      tag_135\n      jump\t// in\n    tag_215:\n        /* \"#utility.yul\":6270:6295   */\n      swap2\n      pop\n        /* \"#utility.yul\":6309:6329   */\n      tag_216\n        /* \"#utility.yul\":6327:6328   */\n      dup4\n        /* \"#utility.yul\":6309:6329   */\n      tag_135\n      jump\t// in\n    tag_216:\n        /* \"#utility.yul\":6304:6329   */\n      swap3\n      pop\n        /* \"#utility.yul\":6364:6365   */\n      dup3\n        /* \"#utility.yul\":6361:6362   */\n      dup3\n        /* \"#utility.yul\":6357:6366   */\n      mul\n        /* \"#utility.yul\":6386:6416   */\n      tag_217\n        /* \"#utility.yul\":6404:6415   */\n      dup2\n        /* \"#utility.yul\":6386:6416   */\n      tag_135\n      jump\t// in\n    tag_217:\n        /* \"#utility.yul\":6375:6416   */\n      swap2\n      pop\n        /* \"#utility.yul\":6565:6566   */\n      dup3\n        /* \"#utility.yul\":6556:6563   */\n      dup3\n        /* \"#utility.yul\":6552:6567   */\n      div\n        /* \"#utility.yul\":6549:6550   */\n      dup5\n        /* \"#utility.yul\":6546:6568   */\n      eq\n        /* \"#utility.yul\":6526:6527   */\n      dup4\n        /* \"#utility.yul\":6519:6528   */\n      iszero\n        /* \"#utility.yul\":6499:6582   */\n      or\n        /* \"#utility.yul\":6476:6615   */\n      tag_218\n      jumpi\n        /* \"#utility.yul\":6595:6613   */\n      tag_219\n      tag_151\n      jump\t// in\n    tag_219:\n        /* \"#utility.yul\":6476:6615   */\n    tag_218:\n        /* \"#utility.yul\":6260:6622   */\n      pop\n        /* \"#utility.yul\":6212:6622   */\n      swap3\n      swap2\n      pop\n      pop\n      jump\t// out\n        /* \"#utility.yul\":6628:6808   */\n    tag_152:\n        /* \"#utility.yul\":6676:6753   */\n      0x4e487b7100000000000000000000000000000000000000000000000000000000\n        /* \"#utility.yul\":6673:6674   */\n      0x00\n        /* \"#utility.yul\":6666:6754   */\n      mstore\n        /* \"#utility.yul\":6773:6777   */\n      0x12\n        /* \"#utility.yul\":6770:6771   */\n      0x04\n        /* \"#utility.yul\":6763:6778   */\n      mstore\n        /* \"#utility.yul\":6797:6801   */\n      0x24\n        /* \"#utility.yul\":6794:6795   */\n      0x00\n        /* \"#utility.yul\":6787:6802   */\n      revert\n        /* \"#utility.yul\":6814:6999   */\n    tag_89:\n        /* \"#utility.yul\":6854:6855   */\n      0x00\n        /* \"#utility.yul\":6871:6891   */\n      tag_222\n        /* \"#utility.yul\":6889:6890   */\n      dup3\n        /* \"#utility.yul\":6871:6891   */\n      tag_135\n      jump\t// in\n    tag_222:\n        /* \"#utility.yul\":6866:6891   */\n      swap2\n      pop\n        /* \"#utility.yul\":6905:6925   */\n      tag_223\n        /* \"#utility.yul\":6923:6924   */\n      dup4\n        /* \"#utility.yul\":6905:6925   */\n      tag_135\n      jump\t// in\n    tag_223:\n        /* \"#utility.yul\":6900:6925   */\n      swap3\n      pop\n        /* \"#utility.yul\":6944:6945   */\n      dup3\n        /* \"#utility.yul\":6934:6969   */\n      tag_224\n      jumpi\n        /* \"#utility.yul\":6949:6967   */\n      tag_225\n      tag_152\n      jump\t// in\n    tag_225:\n        /* \"#utility.yul\":6934:6969   */\n    tag_224:\n        /* \"#utility.yul\":6991:6992   */\n      dup3\n        /* \"#utility.yul\":6988:6989   */\n      dup3\n        /* \"#utility.yul\":6984:6993   */\n      div\n        /* \"#utility.yul\":6979:6993   */\n      swap1\n      pop\n        /* \"#utility.yul\":6814:6999   */\n      swap3\n      swap2\n      pop\n      pop\n      jump\t// out\n        /* \"#utility.yul\":7005:7196   */\n    tag_91:\n        /* \"#utility.yul\":7045:7048   */\n      0x00\n        /* \"#utility.yul\":7064:7084   */\n      tag_227\n        /* \"#utility.yul\":7082:7083   */\n      dup3\n        /* \"#utility.yul\":7064:7084   */\n      tag_135\n      jump\t// in\n    tag_227:\n        /* \"#utility.yul\":7059:7084   */\n      swap2\n      pop\n        /* \"#utility.yul\":7098:7118   */\n      tag_228\n        /* \"#utility.yul\":7116:7117   */\n      dup4\n        /* \"#utility.yul\":7098:7118   */\n      tag_135\n      jump\t// in\n    tag_228:\n        /* \"#utility.yul\":7093:7118   */\n      swap3\n      pop\n        /* \"#utility.yul\":7141:7142   */\n      dup3\n        /* \"#utility.yul\":7138:7139   */\n      dup3\n        /* \"#utility.yul\":7134:7143   */\n      add\n        /* \"#utility.yul\":7127:7143   */\n      swap1\n      pop\n        /* \"#utility.yul\":7162:7165   */\n      dup1\n        /* \"#utility.yul\":7159:7160   */\n      dup3\n        /* \"#utility.yul\":7156:7166   */\n      gt\n        /* \"#utility.yul\":7153:7189   */\n      iszero\n      tag_229\n      jumpi\n        /* \"#utility.yul\":7169:7187   */\n      tag_230\n      tag_151\n      jump\t// in\n    tag_230:\n        /* \"#utility.yul\":7153:7189   */\n    tag_229:\n        /* \"#utility.yul\":7005:7196   */\n      swap3\n      swap2\n      pop\n      pop\n      jump\t// out\n        /* \"#utility.yul\":7202:7428   */\n    tag_153:\n        /* \"#utility.yul\":7342:7376   */\n      0x4c61206f666572746120646562652073657220616c206d656e6f7320756e2035\n        /* \"#utility.yul\":7338:7339   */\n      0x00\n        /* \"#utility.yul\":7330:7336   */\n      dup3\n        /* \"#utility.yul\":7326:7340   */\n      add\n        /* \"#utility.yul\":7319:7377   */\n      mstore\n        /* \"#utility.yul\":7411:7420   */\n      0x25206d61796f7200000000000000000000000000000000000000000000000000\n        /* \"#utility.yul\":7406:7408   */\n      0x20\n        /* \"#utility.yul\":7398:7404   */\n      dup3\n        /* \"#utility.yul\":7394:7409   */\n      add\n        /* \"#utility.yul\":7387:7421   */\n      mstore\n        /* \"#utility.yul\":7202:7428   */\n      pop\n      jump\t// out\n        /* \"#utility.yul\":7434:7800   */\n    tag_154:\n        /* \"#utility.yul\":7576:7579   */\n      0x00\n        /* \"#utility.yul\":7597:7664   */\n      tag_233\n        /* \"#utility.yul\":7661:7663   */\n      0x27\n        /* \"#utility.yul\":7656:7659   */\n      dup4\n        /* \"#utility.yul\":7597:7664   */\n      tag_144\n      jump\t// in\n    tag_233:\n        /* \"#utility.yul\":7590:7664   */\n      swap2\n      pop\n        /* \"#utility.yul\":7673:7766   */\n      tag_234\n        /* \"#utility.yul\":7762:7765   */\n      dup3\n        /* \"#utility.yul\":7673:7766   */\n      tag_153\n      jump\t// in\n    tag_234:\n        /* \"#utility.yul\":7791:7793   */\n      0x40\n        /* \"#utility.yul\":7786:7789   */\n      dup3\n        /* \"#utility.yul\":7782:7794   */\n      add\n        /* \"#utility.yul\":7775:7794   */\n      swap1\n      pop\n        /* \"#utility.yul\":7434:7800   */\n      swap2\n      swap1\n      pop\n      jump\t// out\n        /* \"#utility.yul\":7806:8225   */\n    tag_94:\n        /* \"#utility.yul\":7972:7976   */\n      0x00\n        /* \"#utility.yul\":8010:8012   */\n      0x20\n        /* \"#utility.yul\":7999:8008   */\n      dup3\n        /* \"#utility.yul\":7995:8013   */\n      add\n        /* \"#utility.yul\":7987:8013   */\n      swap1\n      pop\n        /* \"#utility.yul\":8059:8068   */\n      dup2\n        /* \"#utility.yul\":8053:8057   */\n      dup2\n        /* \"#utility.yul\":8049:8069   */\n      sub\n        /* \"#utility.yul\":8045:8046   */\n      0x00\n        /* \"#utility.yul\":8034:8043   */\n      dup4\n        /* \"#utility.yul\":8030:8047   */\n      add\n        /* \"#utility.yul\":8023:8070   */\n      mstore\n        /* \"#utility.yul\":8087:8218   */\n      tag_236\n        /* \"#utility.yul\":8213:8217   */\n      dup2\n        /* \"#utility.yul\":8087:8218   */\n      tag_154\n      jump\t// in\n    tag_236:\n        /* \"#utility.yul\":8079:8218   */\n      swap1\n      pop\n        /* \"#utility.yul\":7806:8225   */\n      swap2\n      swap1\n      pop\n      jump\t// out\n        /* \"#utility.yul\":8231:8425   */\n    tag_99:\n        /* \"#utility.yul\":8271:8275   */\n      0x00\n        /* \"#utility.yul\":8291:8311   */\n      tag_238\n        /* \"#utility.yul\":8309:8310   */\n      dup3\n        /* \"#utility.yul\":8291:8311   */\n      tag_135\n      jump\t// in\n    tag_238:\n        /* \"#utility.yul\":8286:8311   */\n      swap2\n      pop\n        /* \"#utility.yul\":8325:8345   */\n      tag_239\n        /* \"#utility.yul\":8343:8344   */\n      dup4\n        /* \"#utility.yul\":8325:8345   */\n      tag_135\n      jump\t// in\n    tag_239:\n        /* \"#utility.yul\":8320:8345   */\n      swap3\n      pop\n        /* \"#utility.yul\":8369:8370   */\n      dup3\n        /* \"#utility.yul\":8366:8367   */\n      dup3\n        /* \"#utility.yul\":8362:8371   */\n      sub\n        /* \"#utility.yul\":8354:8371   */\n      swap1\n      pop\n        /* \"#utility.yul\":8393:8394   */\n      dup2\n        /* \"#utility.yul\":8387:8391   */\n      dup2\n        /* \"#utility.yul\":8384:8395   */\n      gt\n        /* \"#utility.yul\":8381:8418   */\n      iszero\n      tag_240\n      jumpi\n        /* \"#utility.yul\":8398:8416   */\n      tag_241\n      tag_151\n      jump\t// in\n    tag_241:\n        /* \"#utility.yul\":8381:8418   */\n    tag_240:\n        /* \"#utility.yul\":8231:8425   */\n      swap3\n      swap2\n      pop\n      pop\n      jump\t// out\n        /* \"#utility.yul\":8431:8605   */\n    tag_155:\n        /* \"#utility.yul\":8571:8597   */\n      0x4e6f2068617920666f6e646f732070656e6469656e7465730000000000000000\n        /* \"#utility.yul\":8567:8568   */\n      0x00\n        /* \"#utility.yul\":8559:8565   */\n      dup3\n        /* \"#utility.yul\":8555:8569   */\n      add\n        /* \"#utility.yul\":8548:8598   */\n      mstore\n        /* \"#utility.yul\":8431:8605   */\n      pop\n      jump\t// out\n        /* \"#utility.yul\":8611:8977   */\n    tag_156:\n        /* \"#utility.yul\":8753:8756   */\n      0x00\n        /* \"#utility.yul\":8774:8841   */\n      tag_244\n        /* \"#utility.yul\":8838:8840   */\n      0x18\n        /* \"#utility.yul\":8833:8836   */\n      dup4\n        /* \"#utility.yul\":8774:8841   */\n      tag_144\n      jump\t// in\n    tag_244:\n        /* \"#utility.yul\":8767:8841   */\n      swap2\n      pop\n        /* \"#utility.yul\":8850:8943   */\n      tag_245\n        /* \"#utility.yul\":8939:8942   */\n      dup3\n        /* \"#utility.yul\":8850:8943   */\n      tag_155\n      jump\t// in\n    tag_245:\n        /* \"#utility.yul\":8968:8970   */\n      0x20\n        /* \"#utility.yul\":8963:8966   */\n      dup3\n        /* \"#utility.yul\":8959:8971   */\n      add\n        /* \"#utility.yul\":8952:8971   */\n      swap1\n      pop\n        /* \"#utility.yul\":8611:8977   */\n      swap2\n      swap1\n      pop\n      jump\t// out\n        /* \"#utility.yul\":8983:9402   */\n    tag_109:\n        /* \"#utility.yul\":9149:9153   */\n      0x00\n        /* \"#utility.yul\":9187:9189   */\n      0x20\n        /* \"#utility.yul\":9176:9185   */\n      dup3\n        /* \"#utility.yul\":9172:9190   */\n      add\n        /* \"#utility.yul\":9164:9190   */\n      swap1\n      pop\n        /* \"#utility.yul\":9236:9245   */\n      dup2\n        /* \"#utility.yul\":9230:9234   */\n      dup2\n        /* \"#utility.yul\":9226:9246   */\n      sub\n        /* \"#utility.yul\":9222:9223   */\n      0x00\n        /* \"#utility.yul\":9211:9220   */\n      dup4\n        /* \"#utility.yul\":9207:9224   */\n      add\n        /* \"#utility.yul\":9200:9247   */\n      mstore\n        /* \"#utility.yul\":9264:9395   */\n      tag_247\n        /* \"#utility.yul\":9390:9394   */\n      dup2\n        /* \"#utility.yul\":9264:9395   */\n      tag_156\n      jump\t// in\n    tag_247:\n        /* \"#utility.yul\":9256:9395   */\n      swap1\n      pop\n        /* \"#utility.yul\":8983:9402   */\n      swap2\n      swap1\n      pop\n      jump\t// out\n        /* \"#utility.yul\":9408:9588   */\n    tag_120:\n        /* \"#utility.yul\":9456:9533   */\n      0x4e487b7100000000000000000000000000000000000000000000000000000000\n        /* \"#utility.yul\":9453:9454   */\n      0x00\n        /* \"#utility.yul\":9446:9534   */\n      mstore\n        /* \"#utility.yul\":9553:9557   */\n      0x32\n        /* \"#utility.yul\":9550:9551   */\n      0x04\n        /* \"#utility.yul\":9543:9558   */\n      mstore\n        /* \"#utility.yul\":9577:9581   */\n      0x24\n        /* \"#utility.yul\":9574:9575   */\n      0x00\n        /* \"#utility.yul\":9567:9582   */\n      revert\n\n    auxdata: 0xa26469706673582212209ca4b6bd2e6dc4e9386f374c42a7ec7631834778a1468c2177fb4c2102fe024a64736f6c634300081a0033\n}\n",
				"bytecode": {
					"linkReferences": {},
					"object": "6080604052670de0b6b3a7640000600755348015601a575f80fd5b50335f806101000a81548173ffffffffffffffffffffffffffffffffffffffff021916908373ffffffffffffffffffffffffffffffffffffffff16021790555061012c426066919060af565b60018190555060075460038190555060db565b5f819050919050565b7f4e487b71000000000000000000000000000000000000000000000000000000005f52601160045260245ffd5b5f60b7826079565b915060c0836079565b925082820190508082111560d55760d46082565b5b92915050565b6111ae806100e85f395ff3fe6080604052600436106100c1575f3560e01c8063569fd8011161007e5780639257a3db116100585780639257a3db146101f6578063acfc9f9814610233578063b95707ca1461025d578063be95564714610299576100c1565b8063569fd801146101665780637498184a1461019057806374db2207146101ba576100c1565b80630851eac2146100c557806313a83eaf146100db5780633dfa138d146101065780633ec059d7146101305780634171c8a41461013a5780635298a3c414610150575b5f80fd5b3480156100d0575f80fd5b506100d96102c3565b005b3480156100e6575f80fd5b506100ef6104d5565b6040516100fd929190610cd5565b60405180910390f35b348015610111575f80fd5b5061011a610505565b6040516101279190610cfc565b60405180910390f35b610138610528565b005b348015610145575f80fd5b5061014e610891565b005b34801561015b575f80fd5b5061016461099d565b005b348015610171575f80fd5b5061017a610bcf565b6040516101879190610d15565b60405180910390f35b34801561019b575f80fd5b506101a4610bd5565b6040516101b19190610cfc565b60405180910390f35b3480156101c5575f80fd5b506101e060048036038101906101db9190610d5c565b610bfa565b6040516101ed9190610d15565b60405180910390f35b348015610201575f80fd5b5061021c60048036038101906102179190610db1565b610c0f565b60405161022a929190610cd5565b60405180910390f35b34801561023e575f80fd5b50610247610c5d565b6040516102549190610d15565b60405180910390f35b348015610268575f80fd5b50610283600480360381019061027e9190610d5c565b610c63565b6040516102909190610d15565b60405180910390f35b3480156102a4575f80fd5b506102ad610c78565b6040516102ba9190610d15565b60405180910390f35b600154421015610308576040517f08c379a00000000000000000000000000000000000000000000000000000000081526004016102ff90610e36565b60405180910390fd5b60065f9054906101000a900460ff1615610357576040517f08c379a000000000000000000000000000000000000000000000000000000000815260040161034e90610e9e565b60405180910390fd5b600160065f6101000a81548160ff021916908315150217905550604051806040016040528060025f9054906101000a900473ffffffffffffffffffffffffffffffffffffffff1673ffffffffffffffffffffffffffffffffffffffff16815260200160035481525060095f820151815f015f6101000a81548173ffffffffffffffffffffffffffffffffffffffff021916908373ffffffffffffffffffffffffffffffffffffffff160217905550602082015181600101559050507fa3a65b403bdae88eb037f4ecc1d619f436fc3ef6bcbbee3787757164e82883f260025f9054906101000a900473ffffffffffffffffffffffffffffffffffffffff16600354604051610466929190610cd5565b60405180910390a15f8054906101000a900473ffffffffffffffffffffffffffffffffffffffff1673ffffffffffffffffffffffffffffffffffffffff166108fc60035490811502906040515f60405180830381858888f193505050501580156104d2573d5f803e3d5ffd5b50565b6009805f015f9054906101000a900473ffffffffffffffffffffffffffffffffffffffff16908060010154905082565b5f8054906101000a900473ffffffffffffffffffffffffffffffffffffffff1681565b600154421061056c576040517f08c379a000000000000000000000000000000000000000000000000000000000815260040161056390610f06565b60405180910390fd5b6064600560035461057d9190610f51565b6105879190610fbf565b6003546105949190610fef565b3410156105d6576040517f08c379a00000000000000000000000000000000000000000000000000000000081526004016105cd90611092565b60405180910390fd5b5f6003541415801561063557505f73ffffffffffffffffffffffffffffffffffffffff1660025f9054906101000a900473ffffffffffffffffffffffffffffffffffffffff1673ffffffffffffffffffffffffffffffffffffffff1614155b156106b15760035460045f60025f9054906101000a900473ffffffffffffffffffffffffffffffffffffffff1673ffffffffffffffffffffffffffffffffffffffff1673ffffffffffffffffffffffffffffffffffffffff1681526020019081526020015f205f8282546106a99190610fef565b925050819055505b3360025f6101000a81548173ffffffffffffffffffffffffffffffffffffffff021916908373ffffffffffffffffffffffffffffffffffffffff16021790555034600381905550607860015461070791906110b0565b421061072757607860015f82825461071f9190610fef565b925050819055505b600860405180604001604052803373ffffffffffffffffffffffffffffffffffffffff16815260200134815250908060018154018082558091505060019003905f5260205f2090600202015f909190919091505f820151815f015f6101000a81548173ffffffffffffffffffffffffffffffffffffffff021916908373ffffffffffffffffffffffffffffffffffffffff1602179055506020820151816001015550503460055f3373ffffffffffffffffffffffffffffffffffffffff1673ffffffffffffffffffffffffffffffffffffffff1681526020019081526020015f205f8282546108169190610fef565b925050819055507fe70e25d11cf51a1fd88bfc1eb147f99d42669057a0f9537828fa3cd3394dc3e4333460405161084e929190610cd5565b60405180910390a17fde66accd6240fde8499e988f5d390a2c61bc04425d3f696ff40b06c9ddf578ab3334604051610887929190610cd5565b60405180910390a1565b5f60045f3373ffffffffffffffffffffffffffffffffffffffff1673ffffffffffffffffffffffffffffffffffffffff1681526020019081526020015f205490505f8111610914576040517f08c379a000000000000000000000000000000000000000000000000000000000815260040161090b9061112d565b60405180910390fd5b5f60045f3373ffffffffffffffffffffffffffffffffffffffff1673ffffffffffffffffffffffffffffffffffffffff1681526020019081526020015f20819055503373ffffffffffffffffffffffffffffffffffffffff166108fc8290811502906040515f60405180830381858888f19350505050158015610999573d5f803e3d5ffd5b5050565b60065f9054906101000a900460ff166109eb576040517f08c379a00000000000000000000000000000000000000000000000000000000081526004016109e290610e36565b60405180910390fd5b5f5b600880549050811015610bcc575f60088281548110610a0f57610a0e61114b565b5b905f5260205f2090600202016040518060400160405290815f82015f9054906101000a900473ffffffffffffffffffffffffffffffffffffffff1673ffffffffffffffffffffffffffffffffffffffff1673ffffffffffffffffffffffffffffffffffffffff168152602001600182015481525050905060025f9054906101000a900473ffffffffffffffffffffffffffffffffffffffff1673ffffffffffffffffffffffffffffffffffffffff16815f015173ffffffffffffffffffffffffffffffffffffffff1614610bbe575f816020015190505f6064600283610af59190610f51565b610aff9190610fbf565b90505f8183610b0e91906110b0565b9050835f015173ffffffffffffffffffffffffffffffffffffffff166108fc8290811502906040515f60405180830381858888f19350505050158015610b56573d5f803e3d5ffd5b505f8054906101000a900473ffffffffffffffffffffffffffffffffffffffff1673ffffffffffffffffffffffffffffffffffffffff166108fc8390811502906040515f60405180830381858888f19350505050158015610bb9573d5f803e3d5ffd5b505050505b5080806001019150506109ed565b50565b60075481565b60025f9054906101000a900473ffffffffffffffffffffffffffffffffffffffff1681565b6004602052805f5260405f205f915090505481565b60088181548110610c1e575f80fd5b905f5260205f2090600202015f91509050805f015f9054906101000a900473ffffffffffffffffffffffffffffffffffffffff16908060010154905082565b60035481565b6005602052805f5260405f205f915090505481565b60015481565b5f73ffffffffffffffffffffffffffffffffffffffff82169050919050565b5f610ca782610c7e565b9050919050565b610cb781610c9d565b82525050565b5f819050919050565b610ccf81610cbd565b82525050565b5f604082019050610ce85f830185610cae565b610cf56020830184610cc6565b9392505050565b5f602082019050610d0f5f830184610cae565b92915050565b5f602082019050610d285f830184610cc6565b92915050565b5f80fd5b610d3b81610c9d565b8114610d45575f80fd5b50565b5f81359050610d5681610d32565b92915050565b5f60208284031215610d7157610d70610d2e565b5b5f610d7e84828501610d48565b91505092915050565b610d9081610cbd565b8114610d9a575f80fd5b50565b5f81359050610dab81610d87565b92915050565b5f60208284031215610dc657610dc5610d2e565b5b5f610dd384828501610d9d565b91505092915050565b5f82825260208201905092915050565b7f4c612073756261737461206e6f2068612066696e616c697a61646f00000000005f82015250565b5f610e20601b83610ddc565b9150610e2b82610dec565b602082019050919050565b5f6020820190508181035f830152610e4d81610e14565b9050919050565b7f4c612073756261737461207961206861207369646f2066696e616c697a6164615f82015250565b5f610e88602083610ddc565b9150610e9382610e54565b602082019050919050565b5f6020820190508181035f830152610eb581610e7c565b9050919050565b7f4c6120737562617374612068612066696e616c697a61646f00000000000000005f82015250565b5f610ef0601883610ddc565b9150610efb82610ebc565b602082019050919050565b5f6020820190508181035f830152610f1d81610ee4565b9050919050565b7f4e487b71000000000000000000000000000000000000000000000000000000005f52601160045260245ffd5b5f610f5b82610cbd565b9150610f6683610cbd565b9250828202610f7481610cbd565b91508282048414831517610f8b57610f8a610f24565b5b5092915050565b7f4e487b71000000000000000000000000000000000000000000000000000000005f52601260045260245ffd5b5f610fc982610cbd565b9150610fd483610cbd565b925082610fe457610fe3610f92565b5b828204905092915050565b5f610ff982610cbd565b915061100483610cbd565b925082820190508082111561101c5761101b610f24565b5b92915050565b7f4c61206f666572746120646562652073657220616c206d656e6f7320756e20355f8201527f25206d61796f7200000000000000000000000000000000000000000000000000602082015250565b5f61107c602783610ddc565b915061108782611022565b604082019050919050565b5f6020820190508181035f8301526110a981611070565b9050919050565b5f6110ba82610cbd565b91506110c583610cbd565b92508282039050818111156110dd576110dc610f24565b5b92915050565b7f4e6f2068617920666f6e646f732070656e6469656e74657300000000000000005f82015250565b5f611117601883610ddc565b9150611122826110e3565b602082019050919050565b5f6020820190508181035f8301526111448161110b565b9050919050565b7f4e487b71000000000000000000000000000000000000000000000000000000005f52603260045260245ffdfea26469706673582212209ca4b6bd2e6dc4e9386f374c42a7ec7631834778a1468c2177fb4c2102fe024a64736f6c634300081a0033",
					"opcodes": "PUSH1 0x80 PUSH1 0x40 MSTORE PUSH8 0xDE0B6B3A7640000 PUSH1 0x7 SSTORE CALLVALUE DUP1 ISZERO PUSH1 0x1A JUMPI PUSH0 DUP1 REVERT JUMPDEST POP CALLER PUSH0 DUP1 PUSH2 0x100 EXP DUP2 SLOAD DUP2 PUSH20 0xFFFFFFFFFFFFFFFFFFFFFFFFFFFFFFFFFFFFFFFF MUL NOT AND SWAP1 DUP4 PUSH20 0xFFFFFFFFFFFFFFFFFFFFFFFFFFFFFFFFFFFFFFFF AND MUL OR SWAP1 SSTORE POP PUSH2 0x12C TIMESTAMP PUSH1 0x66 SWAP2 SWAP1 PUSH1 0xAF JUMP JUMPDEST PUSH1 0x1 DUP2 SWAP1 SSTORE POP PUSH1 0x7 SLOAD PUSH1 0x3 DUP2 SWAP1 SSTORE POP PUSH1 0xDB JUMP JUMPDEST PUSH0 DUP2 SWAP1 POP SWAP2 SWAP1 POP JUMP JUMPDEST PUSH32 0x4E487B7100000000000000000000000000000000000000000000000000000000 PUSH0 MSTORE PUSH1 0x11 PUSH1 0x4 MSTORE PUSH1 0x24 PUSH0 REVERT JUMPDEST PUSH0 PUSH1 0xB7 DUP3 PUSH1 0x79 JUMP JUMPDEST SWAP2 POP PUSH1 0xC0 DUP4 PUSH1 0x79 JUMP JUMPDEST SWAP3 POP DUP3 DUP3 ADD SWAP1 POP DUP1 DUP3 GT ISZERO PUSH1 0xD5 JUMPI PUSH1 0xD4 PUSH1 0x82 JUMP JUMPDEST JUMPDEST SWAP3 SWAP2 POP POP JUMP JUMPDEST PUSH2 0x11AE DUP1 PUSH2 0xE8 PUSH0 CODECOPY PUSH0 RETURN INVALID PUSH1 0x80 PUSH1 0x40 MSTORE PUSH1 0x4 CALLDATASIZE LT PUSH2 0xC1 JUMPI PUSH0 CALLDATALOAD PUSH1 0xE0 SHR DUP1 PUSH4 0x569FD801 GT PUSH2 0x7E JUMPI DUP1 PUSH4 0x9257A3DB GT PUSH2 0x58 JUMPI DUP1 PUSH4 0x9257A3DB EQ PUSH2 0x1F6 JUMPI DUP1 PUSH4 0xACFC9F98 EQ PUSH2 0x233 JUMPI DUP1 PUSH4 0xB95707CA EQ PUSH2 0x25D JUMPI DUP1 PUSH4 0xBE955647 EQ PUSH2 0x299 JUMPI PUSH2 0xC1 JUMP JUMPDEST DUP1 PUSH4 0x569FD801 EQ PUSH2 0x166 JUMPI DUP1 PUSH4 0x7498184A EQ PUSH2 0x190 JUMPI DUP1 PUSH4 0x74DB2207 EQ PUSH2 0x1BA JUMPI PUSH2 0xC1 JUMP JUMPDEST DUP1 PUSH4 0x851EAC2 EQ PUSH2 0xC5 JUMPI DUP1 PUSH4 0x13A83EAF EQ PUSH2 0xDB JUMPI DUP1 PUSH4 0x3DFA138D EQ PUSH2 0x106 JUMPI DUP1 PUSH4 0x3EC059D7 EQ PUSH2 0x130 JUMPI DUP1 PUSH4 0x4171C8A4 EQ PUSH2 0x13A JUMPI DUP1 PUSH4 0x5298A3C4 EQ PUSH2 0x150 JUMPI JUMPDEST PUSH0 DUP1 REVERT JUMPDEST CALLVALUE DUP1 ISZERO PUSH2 0xD0 JUMPI PUSH0 DUP1 REVERT JUMPDEST POP PUSH2 0xD9 PUSH2 0x2C3 JUMP JUMPDEST STOP JUMPDEST CALLVALUE DUP1 ISZERO PUSH2 0xE6 JUMPI PUSH0 DUP1 REVERT JUMPDEST POP PUSH2 0xEF PUSH2 0x4D5 JUMP JUMPDEST PUSH1 0x40 MLOAD PUSH2 0xFD SWAP3 SWAP2 SWAP1 PUSH2 0xCD5 JUMP JUMPDEST PUSH1 0x40 MLOAD DUP1 SWAP2 SUB SWAP1 RETURN JUMPDEST CALLVALUE DUP1 ISZERO PUSH2 0x111 JUMPI PUSH0 DUP1 REVERT JUMPDEST POP PUSH2 0x11A PUSH2 0x505 JUMP JUMPDEST PUSH1 0x40 MLOAD PUSH2 0x127 SWAP2 SWAP1 PUSH2 0xCFC JUMP JUMPDEST PUSH1 0x40 MLOAD DUP1 SWAP2 SUB SWAP1 RETURN JUMPDEST PUSH2 0x138 PUSH2 0x528 JUMP JUMPDEST STOP JUMPDEST CALLVALUE DUP1 ISZERO PUSH2 0x145 JUMPI PUSH0 DUP1 REVERT JUMPDEST POP PUSH2 0x14E PUSH2 0x891 JUMP JUMPDEST STOP JUMPDEST CALLVALUE DUP1 ISZERO PUSH2 0x15B JUMPI PUSH0 DUP1 REVERT JUMPDEST POP PUSH2 0x164 PUSH2 0x99D JUMP JUMPDEST STOP JUMPDEST CALLVALUE DUP1 ISZERO PUSH2 0x171 JUMPI PUSH0 DUP1 REVERT JUMPDEST POP PUSH2 0x17A PUSH2 0xBCF JUMP JUMPDEST PUSH1 0x40 MLOAD PUSH2 0x187 SWAP2 SWAP1 PUSH2 0xD15 JUMP JUMPDEST PUSH1 0x40 MLOAD DUP1 SWAP2 SUB SWAP1 RETURN JUMPDEST CALLVALUE DUP1 ISZERO PUSH2 0x19B JUMPI PUSH0 DUP1 REVERT JUMPDEST POP PUSH2 0x1A4 PUSH2 0xBD5 JUMP JUMPDEST PUSH1 0x40 MLOAD PUSH2 0x1B1 SWAP2 SWAP1 PUSH2 0xCFC JUMP JUMPDEST PUSH1 0x40 MLOAD DUP1 SWAP2 SUB SWAP1 RETURN JUMPDEST CALLVALUE DUP1 ISZERO PUSH2 0x1C5 JUMPI PUSH0 DUP1 REVERT JUMPDEST POP PUSH2 0x1E0 PUSH1 0x4 DUP1 CALLDATASIZE SUB DUP2 ADD SWAP1 PUSH2 0x1DB SWAP2 SWAP1 PUSH2 0xD5C JUMP JUMPDEST PUSH2 0xBFA JUMP JUMPDEST PUSH1 0x40 MLOAD PUSH2 0x1ED SWAP2 SWAP1 PUSH2 0xD15 JUMP JUMPDEST PUSH1 0x40 MLOAD DUP1 SWAP2 SUB SWAP1 RETURN JUMPDEST CALLVALUE DUP1 ISZERO PUSH2 0x201 JUMPI PUSH0 DUP1 REVERT JUMPDEST POP PUSH2 0x21C PUSH1 0x4 DUP1 CALLDATASIZE SUB DUP2 ADD SWAP1 PUSH2 0x217 SWAP2 SWAP1 PUSH2 0xDB1 JUMP JUMPDEST PUSH2 0xC0F JUMP JUMPDEST PUSH1 0x40 MLOAD PUSH2 0x22A SWAP3 SWAP2 SWAP1 PUSH2 0xCD5 JUMP JUMPDEST PUSH1 0x40 MLOAD DUP1 SWAP2 SUB SWAP1 RETURN JUMPDEST CALLVALUE DUP1 ISZERO PUSH2 0x23E JUMPI PUSH0 DUP1 REVERT JUMPDEST POP PUSH2 0x247 PUSH2 0xC5D JUMP JUMPDEST PUSH1 0x40 MLOAD PUSH2 0x254 SWAP2 SWAP1 PUSH2 0xD15 JUMP JUMPDEST PUSH1 0x40 MLOAD DUP1 SWAP2 SUB SWAP1 RETURN JUMPDEST CALLVALUE DUP1 ISZERO PUSH2 0x268 JUMPI PUSH0 DUP1 REVERT JUMPDEST POP PUSH2 0x283 PUSH1 0x4 DUP1 CALLDATASIZE SUB DUP2 ADD SWAP1 PUSH2 0x27E SWAP2 SWAP1 PUSH2 0xD5C JUMP JUMPDEST PUSH2 0xC63 JUMP JUMPDEST PUSH1 0x40 MLOAD PUSH2 0x290 SWAP2 SWAP1 PUSH2 0xD15 JUMP JUMPDEST PUSH1 0x40 MLOAD DUP1 SWAP2 SUB SWAP1 RETURN JUMPDEST CALLVALUE DUP1 ISZERO PUSH2 0x2A4 JUMPI PUSH0 DUP1 REVERT JUMPDEST POP PUSH2 0x2AD PUSH2 0xC78 JUMP JUMPDEST PUSH1 0x40 MLOAD PUSH2 0x2BA SWAP2 SWAP1 PUSH2 0xD15 JUMP JUMPDEST PUSH1 0x40 MLOAD DUP1 SWAP2 SUB SWAP1 RETURN JUMPDEST PUSH1 0x1 SLOAD TIMESTAMP LT ISZERO PUSH2 0x308 JUMPI PUSH1 0x40 MLOAD PUSH32 0x8C379A000000000000000000000000000000000000000000000000000000000 DUP2 MSTORE PUSH1 0x4 ADD PUSH2 0x2FF SWAP1 PUSH2 0xE36 JUMP JUMPDEST PUSH1 0x40 MLOAD DUP1 SWAP2 SUB SWAP1 REVERT JUMPDEST PUSH1 0x6 PUSH0 SWAP1 SLOAD SWAP1 PUSH2 0x100 EXP SWAP1 DIV PUSH1 0xFF AND ISZERO PUSH2 0x357 JUMPI PUSH1 0x40 MLOAD PUSH32 0x8C379A000000000000000000000000000000000000000000000000000000000 DUP2 MSTORE PUSH1 0x4 ADD PUSH2 0x34E SWAP1 PUSH2 0xE9E JUMP JUMPDEST PUSH1 0x40 MLOAD DUP1 SWAP2 SUB SWAP1 REVERT JUMPDEST PUSH1 0x1 PUSH1 0x6 PUSH0 PUSH2 0x100 EXP DUP2 SLOAD DUP2 PUSH1 0xFF MUL NOT AND SWAP1 DUP4 ISZERO ISZERO MUL OR SWAP1 SSTORE POP PUSH1 0x40 MLOAD DUP1 PUSH1 0x40 ADD PUSH1 0x40 MSTORE DUP1 PUSH1 0x2 PUSH0 SWAP1 SLOAD SWAP1 PUSH2 0x100 EXP SWAP1 DIV PUSH20 0xFFFFFFFFFFFFFFFFFFFFFFFFFFFFFFFFFFFFFFFF AND PUSH20 0xFFFFFFFFFFFFFFFFFFFFFFFFFFFFFFFFFFFFFFFF AND DUP2 MSTORE PUSH1 0x20 ADD PUSH1 0x3 SLOAD DUP2 MSTORE POP PUSH1 0x9 PUSH0 DUP3 ADD MLOAD DUP2 PUSH0 ADD PUSH0 PUSH2 0x100 EXP DUP2 SLOAD DUP2 PUSH20 0xFFFFFFFFFFFFFFFFFFFFFFFFFFFFFFFFFFFFFFFF MUL NOT AND SWAP1 DUP4 PUSH20 0xFFFFFFFFFFFFFFFFFFFFFFFFFFFFFFFFFFFFFFFF AND MUL OR SWAP1 SSTORE POP PUSH1 0x20 DUP3 ADD MLOAD DUP2 PUSH1 0x1 ADD SSTORE SWAP1 POP POP PUSH32 0xA3A65B403BDAE88EB037F4ECC1D619F436FC3EF6BCBBEE3787757164E82883F2 PUSH1 0x2 PUSH0 SWAP1 SLOAD SWAP1 PUSH2 0x100 EXP SWAP1 DIV PUSH20 0xFFFFFFFFFFFFFFFFFFFFFFFFFFFFFFFFFFFFFFFF AND PUSH1 0x3 SLOAD PUSH1 0x40 MLOAD PUSH2 0x466 SWAP3 SWAP2 SWAP1 PUSH2 0xCD5 JUMP JUMPDEST PUSH1 0x40 MLOAD DUP1 SWAP2 SUB SWAP1 LOG1 PUSH0 DUP1 SLOAD SWAP1 PUSH2 0x100 EXP SWAP1 DIV PUSH20 0xFFFFFFFFFFFFFFFFFFFFFFFFFFFFFFFFFFFFFFFF AND PUSH20 0xFFFFFFFFFFFFFFFFFFFFFFFFFFFFFFFFFFFFFFFF AND PUSH2 0x8FC PUSH1 0x3 SLOAD SWAP1 DUP2 ISZERO MUL SWAP1 PUSH1 0x40 MLOAD PUSH0 PUSH1 0x40 MLOAD DUP1 DUP4 SUB DUP2 DUP6 DUP9 DUP9 CALL SWAP4 POP POP POP POP ISZERO DUP1 ISZERO PUSH2 0x4D2 JUMPI RETURNDATASIZE PUSH0 DUP1 RETURNDATACOPY RETURNDATASIZE PUSH0 REVERT JUMPDEST POP JUMP JUMPDEST PUSH1 0x9 DUP1 PUSH0 ADD PUSH0 SWAP1 SLOAD SWAP1 PUSH2 0x100 EXP SWAP1 DIV PUSH20 0xFFFFFFFFFFFFFFFFFFFFFFFFFFFFFFFFFFFFFFFF AND SWAP1 DUP1 PUSH1 0x1 ADD SLOAD SWAP1 POP DUP3 JUMP JUMPDEST PUSH0 DUP1 SLOAD SWAP1 PUSH2 0x100 EXP SWAP1 DIV PUSH20 0xFFFFFFFFFFFFFFFFFFFFFFFFFFFFFFFFFFFFFFFF AND DUP2 JUMP JUMPDEST PUSH1 0x1 SLOAD TIMESTAMP LT PUSH2 0x56C JUMPI PUSH1 0x40 MLOAD PUSH32 0x8C379A000000000000000000000000000000000000000000000000000000000 DUP2 MSTORE PUSH1 0x4 ADD PUSH2 0x563 SWAP1 PUSH2 0xF06 JUMP JUMPDEST PUSH1 0x40 MLOAD DUP1 SWAP2 SUB SWAP1 REVERT JUMPDEST PUSH1 0x64 PUSH1 0x5 PUSH1 0x3 SLOAD PUSH2 0x57D SWAP2 SWAP1 PUSH2 0xF51 JUMP JUMPDEST PUSH2 0x587 SWAP2 SWAP1 PUSH2 0xFBF JUMP JUMPDEST PUSH1 0x3 SLOAD PUSH2 0x594 SWAP2 SWAP1 PUSH2 0xFEF JUMP JUMPDEST CALLVALUE LT ISZERO PUSH2 0x5D6 JUMPI PUSH1 0x40 MLOAD PUSH32 0x8C379A000000000000000000000000000000000000000000000000000000000 DUP2 MSTORE PUSH1 0x4 ADD PUSH2 0x5CD SWAP1 PUSH2 0x1092 JUMP JUMPDEST PUSH1 0x40 MLOAD DUP1 SWAP2 SUB SWAP1 REVERT JUMPDEST PUSH0 PUSH1 0x3 SLOAD EQ ISZERO DUP1 ISZERO PUSH2 0x635 JUMPI POP PUSH0 PUSH20 0xFFFFFFFFFFFFFFFFFFFFFFFFFFFFFFFFFFFFFFFF AND PUSH1 0x2 PUSH0 SWAP1 SLOAD SWAP1 PUSH2 0x100 EXP SWAP1 DIV PUSH20 0xFFFFFFFFFFFFFFFFFFFFFFFFFFFFFFFFFFFFFFFF AND PUSH20 0xFFFFFFFFFFFFFFFFFFFFFFFFFFFFFFFFFFFFFFFF AND EQ ISZERO JUMPDEST ISZERO PUSH2 0x6B1 JUMPI PUSH1 0x3 SLOAD PUSH1 0x4 PUSH0 PUSH1 0x2 PUSH0 SWAP1 SLOAD SWAP1 PUSH2 0x100 EXP SWAP1 DIV PUSH20 0xFFFFFFFFFFFFFFFFFFFFFFFFFFFFFFFFFFFFFFFF AND PUSH20 0xFFFFFFFFFFFFFFFFFFFFFFFFFFFFFFFFFFFFFFFF AND PUSH20 0xFFFFFFFFFFFFFFFFFFFFFFFFFFFFFFFFFFFFFFFF AND DUP2 MSTORE PUSH1 0x20 ADD SWAP1 DUP2 MSTORE PUSH1 0x20 ADD PUSH0 KECCAK256 PUSH0 DUP3 DUP3 SLOAD PUSH2 0x6A9 SWAP2 SWAP1 PUSH2 0xFEF JUMP JUMPDEST SWAP3 POP POP DUP2 SWAP1 SSTORE POP JUMPDEST CALLER PUSH1 0x2 PUSH0 PUSH2 0x100 EXP DUP2 SLOAD DUP2 PUSH20 0xFFFFFFFFFFFFFFFFFFFFFFFFFFFFFFFFFFFFFFFF MUL NOT AND SWAP1 DUP4 PUSH20 0xFFFFFFFFFFFFFFFFFFFFFFFFFFFFFFFFFFFFFFFF AND MUL OR SWAP1 SSTORE POP CALLVALUE PUSH1 0x3 DUP2 SWAP1 SSTORE POP PUSH1 0x78 PUSH1 0x1 SLOAD PUSH2 0x707 SWAP2 SWAP1 PUSH2 0x10B0 JUMP JUMPDEST TIMESTAMP LT PUSH2 0x727 JUMPI PUSH1 0x78 PUSH1 0x1 PUSH0 DUP3 DUP3 SLOAD PUSH2 0x71F SWAP2 SWAP1 PUSH2 0xFEF JUMP JUMPDEST SWAP3 POP POP DUP2 SWAP1 SSTORE POP JUMPDEST PUSH1 0x8 PUSH1 0x40 MLOAD DUP1 PUSH1 0x40 ADD PUSH1 0x40 MSTORE DUP1 CALLER PUSH20 0xFFFFFFFFFFFFFFFFFFFFFFFFFFFFFFFFFFFFFFFF AND DUP2 MSTORE PUSH1 0x20 ADD CALLVALUE DUP2 MSTORE POP SWAP1 DUP1 PUSH1 0x1 DUP2 SLOAD ADD DUP1 DUP3 SSTORE DUP1 SWAP2 POP POP PUSH1 0x1 SWAP1 SUB SWAP1 PUSH0 MSTORE PUSH1 0x20 PUSH0 KECCAK256 SWAP1 PUSH1 0x2 MUL ADD PUSH0 SWAP1 SWAP2 SWAP1 SWAP2 SWAP1 SWAP2 POP PUSH0 DUP3 ADD MLOAD DUP2 PUSH0 ADD PUSH0 PUSH2 0x100 EXP DUP2 SLOAD DUP2 PUSH20 0xFFFFFFFFFFFFFFFFFFFFFFFFFFFFFFFFFFFFFFFF MUL NOT AND SWAP1 DUP4 PUSH20 0xFFFFFFFFFFFFFFFFFFFFFFFFFFFFFFFFFFFFFFFF AND MUL OR SWAP1 SSTORE POP PUSH1 0x20 DUP3 ADD MLOAD DUP2 PUSH1 0x1 ADD SSTORE POP POP CALLVALUE PUSH1 0x5 PUSH0 CALLER PUSH20 0xFFFFFFFFFFFFFFFFFFFFFFFFFFFFFFFFFFFFFFFF AND PUSH20 0xFFFFFFFFFFFFFFFFFFFFFFFFFFFFFFFFFFFFFFFF AND DUP2 MSTORE PUSH1 0x20 ADD SWAP1 DUP2 MSTORE PUSH1 0x20 ADD PUSH0 KECCAK256 PUSH0 DUP3 DUP3 SLOAD PUSH2 0x816 SWAP2 SWAP1 PUSH2 0xFEF JUMP JUMPDEST SWAP3 POP POP DUP2 SWAP1 SSTORE POP PUSH32 0xE70E25D11CF51A1FD88BFC1EB147F99D42669057A0F9537828FA3CD3394DC3E4 CALLER CALLVALUE PUSH1 0x40 MLOAD PUSH2 0x84E SWAP3 SWAP2 SWAP1 PUSH2 0xCD5 JUMP JUMPDEST PUSH1 0x40 MLOAD DUP1 SWAP2 SUB SWAP1 LOG1 PUSH32 0xDE66ACCD6240FDE8499E988F5D390A2C61BC04425D3F696FF40B06C9DDF578AB CALLER CALLVALUE PUSH1 0x40 MLOAD PUSH2 0x887 SWAP3 SWAP2 SWAP1 PUSH2 0xCD5 JUMP JUMPDEST PUSH1 0x40 MLOAD DUP1 SWAP2 SUB SWAP1 LOG1 JUMP JUMPDEST PUSH0 PUSH1 0x4 PUSH0 CALLER PUSH20 0xFFFFFFFFFFFFFFFFFFFFFFFFFFFFFFFFFFFFFFFF AND PUSH20 0xFFFFFFFFFFFFFFFFFFFFFFFFFFFFFFFFFFFFFFFF AND DUP2 MSTORE PUSH1 0x20 ADD SWAP1 DUP2 MSTORE PUSH1 0x20 ADD PUSH0 KECCAK256 SLOAD SWAP1 POP PUSH0 DUP2 GT PUSH2 0x914 JUMPI PUSH1 0x40 MLOAD PUSH32 0x8C379A000000000000000000000000000000000000000000000000000000000 DUP2 MSTORE PUSH1 0x4 ADD PUSH2 0x90B SWAP1 PUSH2 0x112D JUMP JUMPDEST PUSH1 0x40 MLOAD DUP1 SWAP2 SUB SWAP1 REVERT JUMPDEST PUSH0 PUSH1 0x4 PUSH0 CALLER PUSH20 0xFFFFFFFFFFFFFFFFFFFFFFFFFFFFFFFFFFFFFFFF AND PUSH20 0xFFFFFFFFFFFFFFFFFFFFFFFFFFFFFFFFFFFFFFFF AND DUP2 MSTORE PUSH1 0x20 ADD SWAP1 DUP2 MSTORE PUSH1 0x20 ADD PUSH0 KECCAK256 DUP2 SWAP1 SSTORE POP CALLER PUSH20 0xFFFFFFFFFFFFFFFFFFFFFFFFFFFFFFFFFFFFFFFF AND PUSH2 0x8FC DUP3 SWAP1 DUP2 ISZERO MUL SWAP1 PUSH1 0x40 MLOAD PUSH0 PUSH1 0x40 MLOAD DUP1 DUP4 SUB DUP2 DUP6 DUP9 DUP9 CALL SWAP4 POP POP POP POP ISZERO DUP1 ISZERO PUSH2 0x999 JUMPI RETURNDATASIZE PUSH0 DUP1 RETURNDATACOPY RETURNDATASIZE PUSH0 REVERT JUMPDEST POP POP JUMP JUMPDEST PUSH1 0x6 PUSH0 SWAP1 SLOAD SWAP1 PUSH2 0x100 EXP SWAP1 DIV PUSH1 0xFF AND PUSH2 0x9EB JUMPI PUSH1 0x40 MLOAD PUSH32 0x8C379A000000000000000000000000000000000000000000000000000000000 DUP2 MSTORE PUSH1 0x4 ADD PUSH2 0x9E2 SWAP1 PUSH2 0xE36 JUMP JUMPDEST PUSH1 0x40 MLOAD DUP1 SWAP2 SUB SWAP1 REVERT JUMPDEST PUSH0 JUMPDEST PUSH1 0x8 DUP1 SLOAD SWAP1 POP DUP2 LT ISZERO PUSH2 0xBCC JUMPI PUSH0 PUSH1 0x8 DUP3 DUP2 SLOAD DUP2 LT PUSH2 0xA0F JUMPI PUSH2 0xA0E PUSH2 0x114B JUMP JUMPDEST JUMPDEST SWAP1 PUSH0 MSTORE PUSH1 0x20 PUSH0 KECCAK256 SWAP1 PUSH1 0x2 MUL ADD PUSH1 0x40 MLOAD DUP1 PUSH1 0x40 ADD PUSH1 0x40 MSTORE SWAP1 DUP2 PUSH0 DUP3 ADD PUSH0 SWAP1 SLOAD SWAP1 PUSH2 0x100 EXP SWAP1 DIV PUSH20 0xFFFFFFFFFFFFFFFFFFFFFFFFFFFFFFFFFFFFFFFF AND PUSH20 0xFFFFFFFFFFFFFFFFFFFFFFFFFFFFFFFFFFFFFFFF AND PUSH20 0xFFFFFFFFFFFFFFFFFFFFFFFFFFFFFFFFFFFFFFFF AND DUP2 MSTORE PUSH1 0x20 ADD PUSH1 0x1 DUP3 ADD SLOAD DUP2 MSTORE POP POP SWAP1 POP PUSH1 0x2 PUSH0 SWAP1 SLOAD SWAP1 PUSH2 0x100 EXP SWAP1 DIV PUSH20 0xFFFFFFFFFFFFFFFFFFFFFFFFFFFFFFFFFFFFFFFF AND PUSH20 0xFFFFFFFFFFFFFFFFFFFFFFFFFFFFFFFFFFFFFFFF AND DUP2 PUSH0 ADD MLOAD PUSH20 0xFFFFFFFFFFFFFFFFFFFFFFFFFFFFFFFFFFFFFFFF AND EQ PUSH2 0xBBE JUMPI PUSH0 DUP2 PUSH1 0x20 ADD MLOAD SWAP1 POP PUSH0 PUSH1 0x64 PUSH1 0x2 DUP4 PUSH2 0xAF5 SWAP2 SWAP1 PUSH2 0xF51 JUMP JUMPDEST PUSH2 0xAFF SWAP2 SWAP1 PUSH2 0xFBF JUMP JUMPDEST SWAP1 POP PUSH0 DUP2 DUP4 PUSH2 0xB0E SWAP2 SWAP1 PUSH2 0x10B0 JUMP JUMPDEST SWAP1 POP DUP4 PUSH0 ADD MLOAD PUSH20 0xFFFFFFFFFFFFFFFFFFFFFFFFFFFFFFFFFFFFFFFF AND PUSH2 0x8FC DUP3 SWAP1 DUP2 ISZERO MUL SWAP1 PUSH1 0x40 MLOAD PUSH0 PUSH1 0x40 MLOAD DUP1 DUP4 SUB DUP2 DUP6 DUP9 DUP9 CALL SWAP4 POP POP POP POP ISZERO DUP1 ISZERO PUSH2 0xB56 JUMPI RETURNDATASIZE PUSH0 DUP1 RETURNDATACOPY RETURNDATASIZE PUSH0 REVERT JUMPDEST POP PUSH0 DUP1 SLOAD SWAP1 PUSH2 0x100 EXP SWAP1 DIV PUSH20 0xFFFFFFFFFFFFFFFFFFFFFFFFFFFFFFFFFFFFFFFF AND PUSH20 0xFFFFFFFFFFFFFFFFFFFFFFFFFFFFFFFFFFFFFFFF AND PUSH2 0x8FC DUP4 SWAP1 DUP2 ISZERO MUL SWAP1 PUSH1 0x40 MLOAD PUSH0 PUSH1 0x40 MLOAD DUP1 DUP4 SUB DUP2 DUP6 DUP9 DUP9 CALL SWAP4 POP POP POP POP ISZERO DUP1 ISZERO PUSH2 0xBB9 JUMPI RETURNDATASIZE PUSH0 DUP1 RETURNDATACOPY RETURNDATASIZE PUSH0 REVERT JUMPDEST POP POP POP POP JUMPDEST POP DUP1 DUP1 PUSH1 0x1 ADD SWAP2 POP POP PUSH2 0x9ED JUMP JUMPDEST POP JUMP JUMPDEST PUSH1 0x7 SLOAD DUP2 JUMP JUMPDEST PUSH1 0x2 PUSH0 SWAP1 SLOAD SWAP1 PUSH2 0x100 EXP SWAP1 DIV PUSH20 0xFFFFFFFFFFFFFFFFFFFFFFFFFFFFFFFFFFFFFFFF AND DUP2 JUMP JUMPDEST PUSH1 0x4 PUSH1 0x20 MSTORE DUP1 PUSH0 MSTORE PUSH1 0x40 PUSH0 KECCAK256 PUSH0 SWAP2 POP SWAP1 POP SLOAD DUP2 JUMP JUMPDEST PUSH1 0x8 DUP2 DUP2 SLOAD DUP2 LT PUSH2 0xC1E JUMPI PUSH0 DUP1 REVERT JUMPDEST SWAP1 PUSH0 MSTORE PUSH1 0x20 PUSH0 KECCAK256 SWAP1 PUSH1 0x2 MUL ADD PUSH0 SWAP2 POP SWAP1 POP DUP1 PUSH0 ADD PUSH0 SWAP1 SLOAD SWAP1 PUSH2 0x100 EXP SWAP1 DIV PUSH20 0xFFFFFFFFFFFFFFFFFFFFFFFFFFFFFFFFFFFFFFFF AND SWAP1 DUP1 PUSH1 0x1 ADD SLOAD SWAP1 POP DUP3 JUMP JUMPDEST PUSH1 0x3 SLOAD DUP2 JUMP JUMPDEST PUSH1 0x5 PUSH1 0x20 MSTORE DUP1 PUSH0 MSTORE PUSH1 0x40 PUSH0 KECCAK256 PUSH0 SWAP2 POP SWAP1 POP SLOAD DUP2 JUMP JUMPDEST PUSH1 0x1 SLOAD DUP2 JUMP JUMPDEST PUSH0 PUSH20 0xFFFFFFFFFFFFFFFFFFFFFFFFFFFFFFFFFFFFFFFF DUP3 AND SWAP1 POP SWAP2 SWAP1 POP JUMP JUMPDEST PUSH0 PUSH2 0xCA7 DUP3 PUSH2 0xC7E JUMP JUMPDEST SWAP1 POP SWAP2 SWAP1 POP JUMP JUMPDEST PUSH2 0xCB7 DUP2 PUSH2 0xC9D JUMP JUMPDEST DUP3 MSTORE POP POP JUMP JUMPDEST PUSH0 DUP2 SWAP1 POP SWAP2 SWAP1 POP JUMP JUMPDEST PUSH2 0xCCF DUP2 PUSH2 0xCBD JUMP JUMPDEST DUP3 MSTORE POP POP JUMP JUMPDEST PUSH0 PUSH1 0x40 DUP3 ADD SWAP1 POP PUSH2 0xCE8 PUSH0 DUP4 ADD DUP6 PUSH2 0xCAE JUMP JUMPDEST PUSH2 0xCF5 PUSH1 0x20 DUP4 ADD DUP5 PUSH2 0xCC6 JUMP JUMPDEST SWAP4 SWAP3 POP POP POP JUMP JUMPDEST PUSH0 PUSH1 0x20 DUP3 ADD SWAP1 POP PUSH2 0xD0F PUSH0 DUP4 ADD DUP5 PUSH2 0xCAE JUMP JUMPDEST SWAP3 SWAP2 POP POP JUMP JUMPDEST PUSH0 PUSH1 0x20 DUP3 ADD SWAP1 POP PUSH2 0xD28 PUSH0 DUP4 ADD DUP5 PUSH2 0xCC6 JUMP JUMPDEST SWAP3 SWAP2 POP POP JUMP JUMPDEST PUSH0 DUP1 REVERT JUMPDEST PUSH2 0xD3B DUP2 PUSH2 0xC9D JUMP JUMPDEST DUP2 EQ PUSH2 0xD45 JUMPI PUSH0 DUP1 REVERT JUMPDEST POP JUMP JUMPDEST PUSH0 DUP2 CALLDATALOAD SWAP1 POP PUSH2 0xD56 DUP2 PUSH2 0xD32 JUMP JUMPDEST SWAP3 SWAP2 POP POP JUMP JUMPDEST PUSH0 PUSH1 0x20 DUP3 DUP5 SUB SLT ISZERO PUSH2 0xD71 JUMPI PUSH2 0xD70 PUSH2 0xD2E JUMP JUMPDEST JUMPDEST PUSH0 PUSH2 0xD7E DUP5 DUP3 DUP6 ADD PUSH2 0xD48 JUMP JUMPDEST SWAP2 POP POP SWAP3 SWAP2 POP POP JUMP JUMPDEST PUSH2 0xD90 DUP2 PUSH2 0xCBD JUMP JUMPDEST DUP2 EQ PUSH2 0xD9A JUMPI PUSH0 DUP1 REVERT JUMPDEST POP JUMP JUMPDEST PUSH0 DUP2 CALLDATALOAD SWAP1 POP PUSH2 0xDAB DUP2 PUSH2 0xD87 JUMP JUMPDEST SWAP3 SWAP2 POP POP JUMP JUMPDEST PUSH0 PUSH1 0x20 DUP3 DUP5 SUB SLT ISZERO PUSH2 0xDC6 JUMPI PUSH2 0xDC5 PUSH2 0xD2E JUMP JUMPDEST JUMPDEST PUSH0 PUSH2 0xDD3 DUP5 DUP3 DUP6 ADD PUSH2 0xD9D JUMP JUMPDEST SWAP2 POP POP SWAP3 SWAP2 POP POP JUMP JUMPDEST PUSH0 DUP3 DUP3 MSTORE PUSH1 0x20 DUP3 ADD SWAP1 POP SWAP3 SWAP2 POP POP JUMP JUMPDEST PUSH32 0x4C612073756261737461206E6F2068612066696E616C697A61646F0000000000 PUSH0 DUP3 ADD MSTORE POP JUMP JUMPDEST PUSH0 PUSH2 0xE20 PUSH1 0x1B DUP4 PUSH2 0xDDC JUMP JUMPDEST SWAP2 POP PUSH2 0xE2B DUP3 PUSH2 0xDEC JUMP JUMPDEST PUSH1 0x20 DUP3 ADD SWAP1 POP SWAP2 SWAP1 POP JUMP JUMPDEST PUSH0 PUSH1 0x20 DUP3 ADD SWAP1 POP DUP2 DUP2 SUB PUSH0 DUP4 ADD MSTORE PUSH2 0xE4D DUP2 PUSH2 0xE14 JUMP JUMPDEST SWAP1 POP SWAP2 SWAP1 POP JUMP JUMPDEST PUSH32 0x4C612073756261737461207961206861207369646F2066696E616C697A616461 PUSH0 DUP3 ADD MSTORE POP JUMP JUMPDEST PUSH0 PUSH2 0xE88 PUSH1 0x20 DUP4 PUSH2 0xDDC JUMP JUMPDEST SWAP2 POP PUSH2 0xE93 DUP3 PUSH2 0xE54 JUMP JUMPDEST PUSH1 0x20 DUP3 ADD SWAP1 POP SWAP2 SWAP1 POP JUMP JUMPDEST PUSH0 PUSH1 0x20 DUP3 ADD SWAP1 POP DUP2 DUP2 SUB PUSH0 DUP4 ADD MSTORE PUSH2 0xEB5 DUP2 PUSH2 0xE7C JUMP JUMPDEST SWAP1 POP SWAP2 SWAP1 POP JUMP JUMPDEST PUSH32 0x4C6120737562617374612068612066696E616C697A61646F0000000000000000 PUSH0 DUP3 ADD MSTORE POP JUMP JUMPDEST PUSH0 PUSH2 0xEF0 PUSH1 0x18 DUP4 PUSH2 0xDDC JUMP JUMPDEST SWAP2 POP PUSH2 0xEFB DUP3 PUSH2 0xEBC JUMP JUMPDEST PUSH1 0x20 DUP3 ADD SWAP1 POP SWAP2 SWAP1 POP JUMP JUMPDEST PUSH0 PUSH1 0x20 DUP3 ADD SWAP1 POP DUP2 DUP2 SUB PUSH0 DUP4 ADD MSTORE PUSH2 0xF1D DUP2 PUSH2 0xEE4 JUMP JUMPDEST SWAP1 POP SWAP2 SWAP1 POP JUMP JUMPDEST PUSH32 0x4E487B7100000000000000000000000000000000000000000000000000000000 PUSH0 MSTORE PUSH1 0x11 PUSH1 0x4 MSTORE PUSH1 0x24 PUSH0 REVERT JUMPDEST PUSH0 PUSH2 0xF5B DUP3 PUSH2 0xCBD JUMP JUMPDEST SWAP2 POP PUSH2 0xF66 DUP4 PUSH2 0xCBD JUMP JUMPDEST SWAP3 POP DUP3 DUP3 MUL PUSH2 0xF74 DUP2 PUSH2 0xCBD JUMP JUMPDEST SWAP2 POP DUP3 DUP3 DIV DUP5 EQ DUP4 ISZERO OR PUSH2 0xF8B JUMPI PUSH2 0xF8A PUSH2 0xF24 JUMP JUMPDEST JUMPDEST POP SWAP3 SWAP2 POP POP JUMP JUMPDEST PUSH32 0x4E487B7100000000000000000000000000000000000000000000000000000000 PUSH0 MSTORE PUSH1 0x12 PUSH1 0x4 MSTORE PUSH1 0x24 PUSH0 REVERT JUMPDEST PUSH0 PUSH2 0xFC9 DUP3 PUSH2 0xCBD JUMP JUMPDEST SWAP2 POP PUSH2 0xFD4 DUP4 PUSH2 0xCBD JUMP JUMPDEST SWAP3 POP DUP3 PUSH2 0xFE4 JUMPI PUSH2 0xFE3 PUSH2 0xF92 JUMP JUMPDEST JUMPDEST DUP3 DUP3 DIV SWAP1 POP SWAP3 SWAP2 POP POP JUMP JUMPDEST PUSH0 PUSH2 0xFF9 DUP3 PUSH2 0xCBD JUMP JUMPDEST SWAP2 POP PUSH2 0x1004 DUP4 PUSH2 0xCBD JUMP JUMPDEST SWAP3 POP DUP3 DUP3 ADD SWAP1 POP DUP1 DUP3 GT ISZERO PUSH2 0x101C JUMPI PUSH2 0x101B PUSH2 0xF24 JUMP JUMPDEST JUMPDEST SWAP3 SWAP2 POP POP JUMP JUMPDEST PUSH32 0x4C61206F666572746120646562652073657220616C206D656E6F7320756E2035 PUSH0 DUP3 ADD MSTORE PUSH32 0x25206D61796F7200000000000000000000000000000000000000000000000000 PUSH1 0x20 DUP3 ADD MSTORE POP JUMP JUMPDEST PUSH0 PUSH2 0x107C PUSH1 0x27 DUP4 PUSH2 0xDDC JUMP JUMPDEST SWAP2 POP PUSH2 0x1087 DUP3 PUSH2 0x1022 JUMP JUMPDEST PUSH1 0x40 DUP3 ADD SWAP1 POP SWAP2 SWAP1 POP JUMP JUMPDEST PUSH0 PUSH1 0x20 DUP3 ADD SWAP1 POP DUP2 DUP2 SUB PUSH0 DUP4 ADD MSTORE PUSH2 0x10A9 DUP2 PUSH2 0x1070 JUMP JUMPDEST SWAP1 POP SWAP2 SWAP1 POP JUMP JUMPDEST PUSH0 PUSH2 0x10BA DUP3 PUSH2 0xCBD JUMP JUMPDEST SWAP2 POP PUSH2 0x10C5 DUP4 PUSH2 0xCBD JUMP JUMPDEST SWAP3 POP DUP3 DUP3 SUB SWAP1 POP DUP2 DUP2 GT ISZERO PUSH2 0x10DD JUMPI PUSH2 0x10DC PUSH2 0xF24 JUMP JUMPDEST JUMPDEST SWAP3 SWAP2 POP POP JUMP JUMPDEST PUSH32 0x4E6F2068617920666F6E646F732070656E6469656E7465730000000000000000 PUSH0 DUP3 ADD MSTORE POP JUMP JUMPDEST PUSH0 PUSH2 0x1117 PUSH1 0x18 DUP4 PUSH2 0xDDC JUMP JUMPDEST SWAP2 POP PUSH2 0x1122 DUP3 PUSH2 0x10E3 JUMP JUMPDEST PUSH1 0x20 DUP3 ADD SWAP1 POP SWAP2 SWAP1 POP JUMP JUMPDEST PUSH0 PUSH1 0x20 DUP3 ADD SWAP1 POP DUP2 DUP2 SUB PUSH0 DUP4 ADD MSTORE PUSH2 0x1144 DUP2 PUSH2 0x110B JUMP JUMPDEST SWAP1 POP SWAP2 SWAP1 POP JUMP JUMPDEST PUSH32 0x4E487B7100000000000000000000000000000000000000000000000000000000 PUSH0 MSTORE PUSH1 0x32 PUSH1 0x4 MSTORE PUSH1 0x24 PUSH0 REVERT INVALID LOG2 PUSH5 0x6970667358 0x22 SLT KECCAK256 SWAP13 LOG4 0xB6 0xBD 0x2E PUSH14 0xC4E9386F374C42A7EC7631834778 LOG1 CHAINID DUP13 0x21 PUSH24 0xFB4C2102FE024A64736F6C634300081A0033000000000000 "
				},
				"gasEstimates": {
					"creation": {
						"codeDepositCost": "905200",
						"executionCost": "infinite",
						"totalCost": "infinite"
					},
					"external": {
						"depositosAcumulados(address)": "2868",
						"devolverDepositos()": "infinite",
						"finalizarSubasta()": "infinite",
						"historialOfertas(uint256)": "infinite",
						"mejorOferta()": "2469",
						"mejorPostor()": "2553",
						"ofertaGanadora()": "4755",
						"ofertar()": "infinite",
						"ofertasPendientes(address)": "2869",
						"precioBase()": "2448",
						"retirarOfertasPendientes()": "infinite",
						"subastador()": "2550",
						"tiempoFinalSubasta()": "2513"
					}
				},
				"methodIdentifiers": {
					"depositosAcumulados(address)": "b95707ca",
					"devolverDepositos()": "5298a3c4",
					"finalizarSubasta()": "0851eac2",
					"historialOfertas(uint256)": "9257a3db",
					"mejorOferta()": "acfc9f98",
					"mejorPostor()": "7498184a",
					"ofertaGanadora()": "13a83eaf",
					"ofertar()": "3ec059d7",
					"ofertasPendientes(address)": "74db2207",
					"precioBase()": "569fd801",
					"retirarOfertasPendientes()": "4171c8a4",
					"subastador()": "3dfa138d",
					"tiempoFinalSubasta()": "be955647"
				}
			},
			"storageLayout": {
				"storage": [
					{
						"astId": 3,
						"contract": "maru.sol:Subasta",
						"label": "subastador",
						"offset": 0,
						"slot": "0",
						"type": "t_address"
					},
					{
						"astId": 5,
						"contract": "maru.sol:Subasta",
						"label": "tiempoFinalSubasta",
						"offset": 0,
						"slot": "1",
						"type": "t_uint256"
					},
					{
						"astId": 7,
						"contract": "maru.sol:Subasta",
						"label": "mejorPostor",
						"offset": 0,
						"slot": "2",
						"type": "t_address"
					},
					{
						"astId": 9,
						"contract": "maru.sol:Subasta",
						"label": "mejorOferta",
						"offset": 0,
						"slot": "3",
						"type": "t_uint256"
					},
					{
						"astId": 13,
						"contract": "maru.sol:Subasta",
						"label": "ofertasPendientes",
						"offset": 0,
						"slot": "4",
						"type": "t_mapping(t_address,t_uint256)"
					},
					{
						"astId": 17,
						"contract": "maru.sol:Subasta",
						"label": "depositosAcumulados",
						"offset": 0,
						"slot": "5",
						"type": "t_mapping(t_address,t_uint256)"
					},
					{
						"astId": 19,
						"contract": "maru.sol:Subasta",
						"label": "finalizada",
						"offset": 0,
						"slot": "6",
						"type": "t_bool"
					},
					{
						"astId": 22,
						"contract": "maru.sol:Subasta",
						"label": "precioBase",
						"offset": 0,
						"slot": "7",
						"type": "t_uint256"
					},
					{
						"astId": 31,
						"contract": "maru.sol:Subasta",
						"label": "historialOfertas",
						"offset": 0,
						"slot": "8",
						"type": "t_array(t_struct(Oferta)27_storage)dyn_storage"
					},
					{
						"astId": 34,
						"contract": "maru.sol:Subasta",
						"label": "ofertaGanadora",
						"offset": 0,
						"slot": "9",
						"type": "t_struct(Oferta)27_storage"
					}
				],
				"types": {
					"t_address": {
						"encoding": "inplace",
						"label": "address",
						"numberOfBytes": "20"
					},
					"t_array(t_struct(Oferta)27_storage)dyn_storage": {
						"base": "t_struct(Oferta)27_storage",
						"encoding": "dynamic_array",
						"label": "struct Subasta.Oferta[]",
						"numberOfBytes": "32"
					},
					"t_bool": {
						"encoding": "inplace",
						"label": "bool",
						"numberOfBytes": "1"
					},
					"t_mapping(t_address,t_uint256)": {
						"encoding": "mapping",
						"key": "t_address",
						"label": "mapping(address => uint256)",
						"numberOfBytes": "32",
						"value": "t_uint256"
					},
					"t_struct(Oferta)27_storage": {
						"encoding": "inplace",
						"label": "struct Subasta.Oferta",
						"members": [
							{
								"astId": 24,
								"contract": "maru.sol:Subasta",
								"label": "postor",
								"offset": 0,
								"slot": "0",
								"type": "t_address"
							},
							{
								"astId": 26,
								"contract": "maru.sol:Subasta",
								"label": "cantidad",
								"offset": 0,
								"slot": "1",
								"type": "t_uint256"
							}
						],
						"numberOfBytes": "64"
					},
					"t_uint256": {
						"encoding": "inplace",
						"label": "uint256",
						"numberOfBytes": "32"
					}
				}
			},
			"userdoc": {
				"kind": "user",
				"methods": {},
				"version": 1
			}
		}
	}
}