{
	"data": {
		"bytecode": {
			"linkReferences": {},
			"object": "60806040525f60085f6101000a81548160ff0219169083151502179055503480156027575f80fd5b506111bb806100355f395ff3fe6080604052600436106100a6575f3560e01c806391f901571161006357806391f9015714610172578063b2f4bdb01461019c578063c7876ea4146101c6578063d4ee1d90146101f0578063ea8954581461021a578063f1fffdcb14610236576100a6565b806305b1a768146100aa5780630e8670e0146100b4578063319a9d27146100de578063502319a614610108578063642ae6a51461011e5780637284e41614610148575b5f80fd5b6100b2610260565b005b3480156100bf575f80fd5b506100c86103e4565b6040516100d591906107ce565b60405180910390f35b3480156100e9575f80fd5b506100f26103ea565b6040516100ff91906107ce565b60405180910390f35b348015610113575f80fd5b5061011c6103f0565b005b348015610129575f80fd5b506101326105be565b60405161013f9190610801565b60405180910390f35b348015610153575f80fd5b5061015c6105d0565b604051610169919061088a565b60405180910390f35b34801561017d575f80fd5b5061018661065c565b60405161019391906108e9565b60405180910390f35b3480156101a7575f80fd5b506101b0610681565b6040516101bd91906107ce565b60405180910390f35b3480156101d1575f80fd5b506101da610687565b6040516101e791906107ce565b60405180910390f35b3480156101fb575f80fd5b5061020461068d565b60405161021191906108e9565b60405180910390f35b610234600480360381019061022f9190610995565b6106b2565b005b348015610241575f80fd5b5061024a610793565b60405161025791906108e9565b60405180910390f35b6002546003546102709190610a33565b4211156102845761027f6103f0565b6103e2565b60075434118015610296575060055434115b80156102b357505f151560085f9054906101000a900460ff161515145b156103a45760065f9054906101000a900473ffffffffffffffffffffffffffffffffffffffff1673ffffffffffffffffffffffffffffffffffffffff166108fc60075490811502906040515f60405180830381858888f1935050505015801561031e573d5f803e3d5ffd5b503360065f6101000a81548173ffffffffffffffffffffffffffffffffffffffff021916908373ffffffffffffffffffffffffffffffffffffffff160217905550346007819055507f072a7f927530f4d093ed141b5fe5f27bb3c830963a0bc838285570a0f1e77ae43342604051610397929190610ad6565b60405180910390a16103e1565b7f072a7f927530f4d093ed141b5fe5f27bb3c830963a0bc838285570a0f1e77ae433426040516103d5929190610b80565b60405180910390a15f80fd5b5b565b60075481565b60025481565b6002546003546104009190610a33565b4211156105b8575f8054906101000a900473ffffffffffffffffffffffffffffffffffffffff1673ffffffffffffffffffffffffffffffffffffffff166108fc60055490811502906040515f60405180830381858888f1935050505015801561046b573d5f803e3d5ffd5b5060065f9054906101000a900473ffffffffffffffffffffffffffffffffffffffff1660015f6101000a81548173ffffffffffffffffffffffffffffffffffffffff021916908373ffffffffffffffffffffffffffffffffffffffff160217905550600160085f6101000a81548160ff0219169083151502179055507f072a7f927530f4d093ed141b5fe5f27bb3c830963a0bc838285570a0f1e77ae460015f9054906101000a900473ffffffffffffffffffffffffffffffffffffffff1642604051610539929190610c04565b60405180910390a17f072a7f927530f4d093ed141b5fe5f27bb3c830963a0bc838285570a0f1e77ae43342604051610572929190610c88565b60405180910390a17f072a7f927530f4d093ed141b5fe5f27bb3c830963a0bc838285570a0f1e77ae433426040516105ab929190610d0c565b60405180910390a16105bc565b5f80fd5b565b60085f9054906101000a900460ff1681565b600480546105dd90610d73565b80601f016020809104026020016040519081016040528092919081815260200182805461060990610d73565b80156106545780601f1061062b57610100808354040283529160200191610654565b820191905f5260205f20905b81548152906001019060200180831161063757829003601f168201915b505050505081565b60065f9054906101000a900473ffffffffffffffffffffffffffffffffffffffff1681565b60035481565b60055481565b60015f9054906101000a900473ffffffffffffffffffffffffffffffffffffffff1681565b335f806101000a81548173ffffffffffffffffffffffffffffffffffffffff021916908373ffffffffffffffffffffffffffffffffffffffff160217905550838360049182610702929190610f77565b508160058190555080600281905550426003819055507f072a7f927530f4d093ed141b5fe5f27bb3c830963a0bc838285570a0f1e77ae4334260405161074992919061108e565b60405180910390a17f072a7f927530f4d093ed141b5fe5f27bb3c830963a0bc838285570a0f1e77ae46004334260405161078593929190611149565b60405180910390a150505050565b5f8054906101000a900473ffffffffffffffffffffffffffffffffffffffff1681565b5f819050919050565b6107c8816107b6565b82525050565b5f6020820190506107e15f8301846107bf565b92915050565b5f8115159050919050565b6107fb816107e7565b82525050565b5f6020820190506108145f8301846107f2565b92915050565b5f81519050919050565b5f82825260208201905092915050565b8281835e5f83830152505050565b5f601f19601f8301169050919050565b5f61085c8261081a565b6108668185610824565b9350610876818560208601610834565b61087f81610842565b840191505092915050565b5f6020820190508181035f8301526108a28184610852565b905092915050565b5f73ffffffffffffffffffffffffffffffffffffffff82169050919050565b5f6108d3826108aa565b9050919050565b6108e3816108c9565b82525050565b5f6020820190506108fc5f8301846108da565b92915050565b5f80fd5b5f80fd5b5f80fd5b5f80fd5b5f80fd5b5f8083601f84011261092b5761092a61090a565b5b8235905067ffffffffffffffff8111156109485761094761090e565b5b60208301915083600182028301111561096457610963610912565b5b9250929050565b610974816107b6565b811461097e575f80fd5b50565b5f8135905061098f8161096b565b92915050565b5f805f80606085870312156109ad576109ac610902565b5b5f85013567ffffffffffffffff8111156109ca576109c9610906565b5b6109d687828801610916565b945094505060206109e987828801610981565b92505060406109fa87828801610981565b91505092959194509250565b7f4e487b71000000000000000000000000000000000000000000000000000000005f52601160045260245ffd5b5f610a3d826107b6565b9150610a48836107b6565b9250828201905080821115610a6057610a5f610a06565b5b92915050565b7f4e65772048696768657374204269646465722c204f6c642042696464657220685f8201527f616420686973206d6f6e6579206261636b000000000000000000000000000000602082015250565b5f610ac0603183610824565b9150610acb82610a66565b604082019050919050565b5f6060820190508181035f830152610aed81610ab4565b9050610afc60208301856108da565b610b0960408301846107bf565b9392505050565b7f5468697320626964206973206e6f7420706f737369626c652e204f7574206f665f8201527f2054696d65206f72205072696365206e6f74206869676820656e6f7567687400602082015250565b5f610b6a603f83610824565b9150610b7582610b10565b604082019050919050565b5f6060820190508181035f830152610b9781610b5e565b9050610ba660208301856108da565b610bb360408301846107bf565b9392505050565b7f4974656d206e6577204f776e65723a00000000000000000000000000000000005f82015250565b5f610bee600f83610824565b9150610bf982610bba565b602082019050919050565b5f6060820190508181035f830152610c1b81610be2565b9050610c2a60208301856108da565b610c3760408301846107bf565b9392505050565b7f4269642044696420456e642100000000000000000000000000000000000000005f82015250565b5f610c72600c83610824565b9150610c7d82610c3e565b602082019050919050565b5f6060820190508181035f830152610c9f81610c66565b9050610cae60208301856108da565b610cbb60408301846107bf565b9392505050565b7f4368656b696769662042696420456e6465642e2e2e00000000000000000000005f82015250565b5f610cf6601583610824565b9150610d0182610cc2565b602082019050919050565b5f6060820190508181035f830152610d2381610cea565b9050610d3260208301856108da565b610d3f60408301846107bf565b9392505050565b7f4e487b71000000000000000000000000000000000000000000000000000000005f52602260045260245ffd5b5f6002820490506001821680610d8a57607f821691505b602082108103610d9d57610d9c610d46565b5b50919050565b5f82905092915050565b7f4e487b71000000000000000000000000000000000000000000000000000000005f52604160045260245ffd5b5f819050815f5260205f209050919050565b5f6020601f8301049050919050565b5f82821b905092915050565b5f60088302610e367fffffffffffffffffffffffffffffffffffffffffffffffffffffffffffffffff82610dfb565b610e408683610dfb565b95508019841693508086168417925050509392505050565b5f819050919050565b5f610e7b610e76610e71846107b6565b610e58565b6107b6565b9050919050565b5f819050919050565b610e9483610e61565b610ea8610ea082610e82565b848454610e07565b825550505050565b5f90565b610ebc610eb0565b610ec7818484610e8b565b505050565b5b81811015610eea57610edf5f82610eb4565b600181019050610ecd565b5050565b601f821115610f2f57610f0081610dda565b610f0984610dec565b81016020851015610f18578190505b610f2c610f2485610dec565b830182610ecc565b50505b505050565b5f82821c905092915050565b5f610f4f5f1984600802610f34565b1980831691505092915050565b5f610f678383610f40565b9150826002028217905092915050565b610f818383610da3565b67ffffffffffffffff811115610f9a57610f99610dad565b5b610fa48254610d73565b610faf828285610eee565b5f601f831160018114610fdc575f8415610fca578287013590505b610fd48582610f5c565b86555061103b565b601f198416610fea86610dda565b5f5b8281101561101157848901358255600182019150602085019450602081019050610fec565b8683101561102e578489013561102a601f891682610f40565b8355505b6001600288020188555050505b50505050505050565b7f4269642043726561746564206f66206974656d3a0000000000000000000000005f82015250565b5f611078601483610824565b915061108382611044565b602082019050919050565b5f6060820190508181035f8301526110a58161106c565b90506110b460208301856108da565b6110c160408301846107bf565b9392505050565b5f81546110d481610d73565b6110de8186610824565b9450600182165f81146110f8576001811461110e57611140565b60ff198316865281151560200286019350611140565b61111785610dda565b5f5b8381101561113857815481890152600182019150602081019050611119565b808801955050505b50505092915050565b5f6060820190508181035f83015261116181866110c8565b905061117060208301856108da565b61117d60408301846107bf565b94935050505056fea2646970667358221220d699718ecca531c2793fedb085f3e69501a40f2bfc612f7466181672168911c264736f6c634300081a0033",
			"opcodes": "PUSH1 0x80 PUSH1 0x40 MSTORE PUSH0 PUSH1 0x8 PUSH0 PUSH2 0x100 EXP DUP2 SLOAD DUP2 PUSH1 0xFF MUL NOT AND SWAP1 DUP4 ISZERO ISZERO MUL OR SWAP1 SSTORE POP CALLVALUE DUP1 ISZERO PUSH1 0x27 JUMPI PUSH0 DUP1 REVERT JUMPDEST POP PUSH2 0x11BB DUP1 PUSH2 0x35 PUSH0 CODECOPY PUSH0 RETURN INVALID PUSH1 0x80 PUSH1 0x40 MSTORE PUSH1 0x4 CALLDATASIZE LT PUSH2 0xA6 JUMPI PUSH0 CALLDATALOAD PUSH1 0xE0 SHR DUP1 PUSH4 0x91F90157 GT PUSH2 0x63 JUMPI DUP1 PUSH4 0x91F90157 EQ PUSH2 0x172 JUMPI DUP1 PUSH4 0xB2F4BDB0 EQ PUSH2 0x19C JUMPI DUP1 PUSH4 0xC7876EA4 EQ PUSH2 0x1C6 JUMPI DUP1 PUSH4 0xD4EE1D90 EQ PUSH2 0x1F0 JUMPI DUP1 PUSH4 0xEA895458 EQ PUSH2 0x21A JUMPI DUP1 PUSH4 0xF1FFFDCB EQ PUSH2 0x236 JUMPI PUSH2 0xA6 JUMP JUMPDEST DUP1 PUSH4 0x5B1A768 EQ PUSH2 0xAA JUMPI DUP1 PUSH4 0xE8670E0 EQ PUSH2 0xB4 JUMPI DUP1 PUSH4 0x319A9D27 EQ PUSH2 0xDE JUMPI DUP1 PUSH4 0x502319A6 EQ PUSH2 0x108 JUMPI DUP1 PUSH4 0x642AE6A5 EQ PUSH2 0x11E JUMPI DUP1 PUSH4 0x7284E416 EQ PUSH2 0x148 JUMPI JUMPDEST PUSH0 DUP1 REVERT JUMPDEST PUSH2 0xB2 PUSH2 0x260 JUMP JUMPDEST STOP JUMPDEST CALLVALUE DUP1 ISZERO PUSH2 0xBF JUMPI PUSH0 DUP1 REVERT JUMPDEST POP PUSH2 0xC8 PUSH2 0x3E4 JUMP JUMPDEST PUSH1 0x40 MLOAD PUSH2 0xD5 SWAP2 SWAP1 PUSH2 0x7CE JUMP JUMPDEST PUSH1 0x40 MLOAD DUP1 SWAP2 SUB SWAP1 RETURN JUMPDEST CALLVALUE DUP1 ISZERO PUSH2 0xE9 JUMPI PUSH0 DUP1 REVERT JUMPDEST POP PUSH2 0xF2 PUSH2 0x3EA JUMP JUMPDEST PUSH1 0x40 MLOAD PUSH2 0xFF SWAP2 SWAP1 PUSH2 0x7CE JUMP JUMPDEST PUSH1 0x40 MLOAD DUP1 SWAP2 SUB SWAP1 RETURN JUMPDEST CALLVALUE DUP1 ISZERO PUSH2 0x113 JUMPI PUSH0 DUP1 REVERT JUMPDEST POP PUSH2 0x11C PUSH2 0x3F0 JUMP JUMPDEST STOP JUMPDEST CALLVALUE DUP1 ISZERO PUSH2 0x129 JUMPI PUSH0 DUP1 REVERT JUMPDEST POP PUSH2 0x132 PUSH2 0x5BE JUMP JUMPDEST PUSH1 0x40 MLOAD PUSH2 0x13F SWAP2 SWAP1 PUSH2 0x801 JUMP JUMPDEST PUSH1 0x40 MLOAD DUP1 SWAP2 SUB SWAP1 RETURN JUMPDEST CALLVALUE DUP1 ISZERO PUSH2 0x153 JUMPI PUSH0 DUP1 REVERT JUMPDEST POP PUSH2 0x15C PUSH2 0x5D0 JUMP JUMPDEST PUSH1 0x40 MLOAD PUSH2 0x169 SWAP2 SWAP1 PUSH2 0x88A JUMP JUMPDEST PUSH1 0x40 MLOAD DUP1 SWAP2 SUB SWAP1 RETURN JUMPDEST CALLVALUE DUP1 ISZERO PUSH2 0x17D JUMPI PUSH0 DUP1 REVERT JUMPDEST POP PUSH2 0x186 PUSH2 0x65C JUMP JUMPDEST PUSH1 0x40 MLOAD PUSH2 0x193 SWAP2 SWAP1 PUSH2 0x8E9 JUMP JUMPDEST PUSH1 0x40 MLOAD DUP1 SWAP2 SUB SWAP1 RETURN JUMPDEST CALLVALUE DUP1 ISZERO PUSH2 0x1A7 JUMPI PUSH0 DUP1 REVERT JUMPDEST POP PUSH2 0x1B0 PUSH2 0x681 JUMP JUMPDEST PUSH1 0x40 MLOAD PUSH2 0x1BD SWAP2 SWAP1 PUSH2 0x7CE JUMP JUMPDEST PUSH1 0x40 MLOAD DUP1 SWAP2 SUB SWAP1 RETURN JUMPDEST CALLVALUE DUP1 ISZERO PUSH2 0x1D1 JUMPI PUSH0 DUP1 REVERT JUMPDEST POP PUSH2 0x1DA PUSH2 0x687 JUMP JUMPDEST PUSH1 0x40 MLOAD PUSH2 0x1E7 SWAP2 SWAP1 PUSH2 0x7CE JUMP JUMPDEST PUSH1 0x40 MLOAD DUP1 SWAP2 SUB SWAP1 RETURN JUMPDEST CALLVALUE DUP1 ISZERO PUSH2 0x1FB JUMPI PUSH0 DUP1 REVERT JUMPDEST POP PUSH2 0x204 PUSH2 0x68D JUMP JUMPDEST PUSH1 0x40 MLOAD PUSH2 0x211 SWAP2 SWAP1 PUSH2 0x8E9 JUMP JUMPDEST PUSH1 0x40 MLOAD DUP1 SWAP2 SUB SWAP1 RETURN JUMPDEST PUSH2 0x234 PUSH1 0x4 DUP1 CALLDATASIZE SUB DUP2 ADD SWAP1 PUSH2 0x22F SWAP2 SWAP1 PUSH2 0x995 JUMP JUMPDEST PUSH2 0x6B2 JUMP JUMPDEST STOP JUMPDEST CALLVALUE DUP1 ISZERO PUSH2 0x241 JUMPI PUSH0 DUP1 REVERT JUMPDEST POP PUSH2 0x24A PUSH2 0x793 JUMP JUMPDEST PUSH1 0x40 MLOAD PUSH2 0x257 SWAP2 SWAP1 PUSH2 0x8E9 JUMP JUMPDEST PUSH1 0x40 MLOAD DUP1 SWAP2 SUB SWAP1 RETURN JUMPDEST PUSH1 0x2 SLOAD PUSH1 0x3 SLOAD PUSH2 0x270 SWAP2 SWAP1 PUSH2 0xA33 JUMP JUMPDEST TIMESTAMP GT ISZERO PUSH2 0x284 JUMPI PUSH2 0x27F PUSH2 0x3F0 JUMP JUMPDEST PUSH2 0x3E2 JUMP JUMPDEST PUSH1 0x7 SLOAD CALLVALUE GT DUP1 ISZERO PUSH2 0x296 JUMPI POP PUSH1 0x5 SLOAD CALLVALUE GT JUMPDEST DUP1 ISZERO PUSH2 0x2B3 JUMPI POP PUSH0 ISZERO ISZERO PUSH1 0x8 PUSH0 SWAP1 SLOAD SWAP1 PUSH2 0x100 EXP SWAP1 DIV PUSH1 0xFF AND ISZERO ISZERO EQ JUMPDEST ISZERO PUSH2 0x3A4 JUMPI PUSH1 0x6 PUSH0 SWAP1 SLOAD SWAP1 PUSH2 0x100 EXP SWAP1 DIV PUSH20 0xFFFFFFFFFFFFFFFFFFFFFFFFFFFFFFFFFFFFFFFF AND PUSH20 0xFFFFFFFFFFFFFFFFFFFFFFFFFFFFFFFFFFFFFFFF AND PUSH2 0x8FC PUSH1 0x7 SLOAD SWAP1 DUP2 ISZERO MUL SWAP1 PUSH1 0x40 MLOAD PUSH0 PUSH1 0x40 MLOAD DUP1 DUP4 SUB DUP2 DUP6 DUP9 DUP9 CALL SWAP4 POP POP POP POP ISZERO DUP1 ISZERO PUSH2 0x31E JUMPI RETURNDATASIZE PUSH0 DUP1 RETURNDATACOPY RETURNDATASIZE PUSH0 REVERT JUMPDEST POP CALLER PUSH1 0x6 PUSH0 PUSH2 0x100 EXP DUP2 SLOAD DUP2 PUSH20 0xFFFFFFFFFFFFFFFFFFFFFFFFFFFFFFFFFFFFFFFF MUL NOT AND SWAP1 DUP4 PUSH20 0xFFFFFFFFFFFFFFFFFFFFFFFFFFFFFFFFFFFFFFFF AND MUL OR SWAP1 SSTORE POP CALLVALUE PUSH1 0x7 DUP2 SWAP1 SSTORE POP PUSH32 0x72A7F927530F4D093ED141B5FE5F27BB3C830963A0BC838285570A0F1E77AE4 CALLER TIMESTAMP PUSH1 0x40 MLOAD PUSH2 0x397 SWAP3 SWAP2 SWAP1 PUSH2 0xAD6 JUMP JUMPDEST PUSH1 0x40 MLOAD DUP1 SWAP2 SUB SWAP1 LOG1 PUSH2 0x3E1 JUMP JUMPDEST PUSH32 0x72A7F927530F4D093ED141B5FE5F27BB3C830963A0BC838285570A0F1E77AE4 CALLER TIMESTAMP PUSH1 0x40 MLOAD PUSH2 0x3D5 SWAP3 SWAP2 SWAP1 PUSH2 0xB80 JUMP JUMPDEST PUSH1 0x40 MLOAD DUP1 SWAP2 SUB SWAP1 LOG1 PUSH0 DUP1 REVERT JUMPDEST JUMPDEST JUMP JUMPDEST PUSH1 0x7 SLOAD DUP2 JUMP JUMPDEST PUSH1 0x2 SLOAD DUP2 JUMP JUMPDEST PUSH1 0x2 SLOAD PUSH1 0x3 SLOAD PUSH2 0x400 SWAP2 SWAP1 PUSH2 0xA33 JUMP JUMPDEST TIMESTAMP GT ISZERO PUSH2 0x5B8 JUMPI PUSH0 DUP1 SLOAD SWAP1 PUSH2 0x100 EXP SWAP1 DIV PUSH20 0xFFFFFFFFFFFFFFFFFFFFFFFFFFFFFFFFFFFFFFFF AND PUSH20 0xFFFFFFFFFFFFFFFFFFFFFFFFFFFFFFFFFFFFFFFF AND PUSH2 0x8FC PUSH1 0x5 SLOAD SWAP1 DUP2 ISZERO MUL SWAP1 PUSH1 0x40 MLOAD PUSH0 PUSH1 0x40 MLOAD DUP1 DUP4 SUB DUP2 DUP6 DUP9 DUP9 CALL SWAP4 POP POP POP POP ISZERO DUP1 ISZERO PUSH2 0x46B JUMPI RETURNDATASIZE PUSH0 DUP1 RETURNDATACOPY RETURNDATASIZE PUSH0 REVERT JUMPDEST POP PUSH1 0x6 PUSH0 SWAP1 SLOAD SWAP1 PUSH2 0x100 EXP SWAP1 DIV PUSH20 0xFFFFFFFFFFFFFFFFFFFFFFFFFFFFFFFFFFFFFFFF AND PUSH1 0x1 PUSH0 PUSH2 0x100 EXP DUP2 SLOAD DUP2 PUSH20 0xFFFFFFFFFFFFFFFFFFFFFFFFFFFFFFFFFFFFFFFF MUL NOT AND SWAP1 DUP4 PUSH20 0xFFFFFFFFFFFFFFFFFFFFFFFFFFFFFFFFFFFFFFFF AND MUL OR SWAP1 SSTORE POP PUSH1 0x1 PUSH1 0x8 PUSH0 PUSH2 0x100 EXP DUP2 SLOAD DUP2 PUSH1 0xFF MUL NOT AND SWAP1 DUP4 ISZERO ISZERO MUL OR SWAP1 SSTORE POP PUSH32 0x72A7F927530F4D093ED141B5FE5F27BB3C830963A0BC838285570A0F1E77AE4 PUSH1 0x1 PUSH0 SWAP1 SLOAD SWAP1 PUSH2 0x100 EXP SWAP1 DIV PUSH20 0xFFFFFFFFFFFFFFFFFFFFFFFFFFFFFFFFFFFFFFFF AND TIMESTAMP PUSH1 0x40 MLOAD PUSH2 0x539 SWAP3 SWAP2 SWAP1 PUSH2 0xC04 JUMP JUMPDEST PUSH1 0x40 MLOAD DUP1 SWAP2 SUB SWAP1 LOG1 PUSH32 0x72A7F927530F4D093ED141B5FE5F27BB3C830963A0BC838285570A0F1E77AE4 CALLER TIMESTAMP PUSH1 0x40 MLOAD PUSH2 0x572 SWAP3 SWAP2 SWAP1 PUSH2 0xC88 JUMP JUMPDEST PUSH1 0x40 MLOAD DUP1 SWAP2 SUB SWAP1 LOG1 PUSH32 0x72A7F927530F4D093ED141B5FE5F27BB3C830963A0BC838285570A0F1E77AE4 CALLER TIMESTAMP PUSH1 0x40 MLOAD PUSH2 0x5AB SWAP3 SWAP2 SWAP1 PUSH2 0xD0C JUMP JUMPDEST PUSH1 0x40 MLOAD DUP1 SWAP2 SUB SWAP1 LOG1 PUSH2 0x5BC JUMP JUMPDEST PUSH0 DUP1 REVERT JUMPDEST JUMP JUMPDEST PUSH1 0x8 PUSH0 SWAP1 SLOAD SWAP1 PUSH2 0x100 EXP SWAP1 DIV PUSH1 0xFF AND DUP2 JUMP JUMPDEST PUSH1 0x4 DUP1 SLOAD PUSH2 0x5DD SWAP1 PUSH2 0xD73 JUMP JUMPDEST DUP1 PUSH1 0x1F ADD PUSH1 0x20 DUP1 SWAP2 DIV MUL PUSH1 0x20 ADD PUSH1 0x40 MLOAD SWAP1 DUP2 ADD PUSH1 0x40 MSTORE DUP1 SWAP3 SWAP2 SWAP1 DUP2 DUP2 MSTORE PUSH1 0x20 ADD DUP3 DUP1 SLOAD PUSH2 0x609 SWAP1 PUSH2 0xD73 JUMP JUMPDEST DUP1 ISZERO PUSH2 0x654 JUMPI DUP1 PUSH1 0x1F LT PUSH2 0x62B JUMPI PUSH2 0x100 DUP1 DUP4 SLOAD DIV MUL DUP4 MSTORE SWAP2 PUSH1 0x20 ADD SWAP2 PUSH2 0x654 JUMP JUMPDEST DUP3 ADD SWAP2 SWAP1 PUSH0 MSTORE PUSH1 0x20 PUSH0 KECCAK256 SWAP1 JUMPDEST DUP2 SLOAD DUP2 MSTORE SWAP1 PUSH1 0x1 ADD SWAP1 PUSH1 0x20 ADD DUP1 DUP4 GT PUSH2 0x637 JUMPI DUP3 SWAP1 SUB PUSH1 0x1F AND DUP3 ADD SWAP2 JUMPDEST POP POP POP POP POP DUP2 JUMP JUMPDEST PUSH1 0x6 PUSH0 SWAP1 SLOAD SWAP1 PUSH2 0x100 EXP SWAP1 DIV PUSH20 0xFFFFFFFFFFFFFFFFFFFFFFFFFFFFFFFFFFFFFFFF AND DUP2 JUMP JUMPDEST PUSH1 0x3 SLOAD DUP2 JUMP JUMPDEST PUSH1 0x5 SLOAD DUP2 JUMP JUMPDEST PUSH1 0x1 PUSH0 SWAP1 SLOAD SWAP1 PUSH2 0x100 EXP SWAP1 DIV PUSH20 0xFFFFFFFFFFFFFFFFFFFFFFFFFFFFFFFFFFFFFFFF AND DUP2 JUMP JUMPDEST CALLER PUSH0 DUP1 PUSH2 0x100 EXP DUP2 SLOAD DUP2 PUSH20 0xFFFFFFFFFFFFFFFFFFFFFFFFFFFFFFFFFFFFFFFF MUL NOT AND SWAP1 DUP4 PUSH20 0xFFFFFFFFFFFFFFFFFFFFFFFFFFFFFFFFFFFFFFFF AND MUL OR SWAP1 SSTORE POP DUP4 DUP4 PUSH1 0x4 SWAP2 DUP3 PUSH2 0x702 SWAP3 SWAP2 SWAP1 PUSH2 0xF77 JUMP JUMPDEST POP DUP2 PUSH1 0x5 DUP2 SWAP1 SSTORE POP DUP1 PUSH1 0x2 DUP2 SWAP1 SSTORE POP TIMESTAMP PUSH1 0x3 DUP2 SWAP1 SSTORE POP PUSH32 0x72A7F927530F4D093ED141B5FE5F27BB3C830963A0BC838285570A0F1E77AE4 CALLER TIMESTAMP PUSH1 0x40 MLOAD PUSH2 0x749 SWAP3 SWAP2 SWAP1 PUSH2 0x108E JUMP JUMPDEST PUSH1 0x40 MLOAD DUP1 SWAP2 SUB SWAP1 LOG1 PUSH32 0x72A7F927530F4D093ED141B5FE5F27BB3C830963A0BC838285570A0F1E77AE4 PUSH1 0x4 CALLER TIMESTAMP PUSH1 0x40 MLOAD PUSH2 0x785 SWAP4 SWAP3 SWAP2 SWAP1 PUSH2 0x1149 JUMP JUMPDEST PUSH1 0x40 MLOAD DUP1 SWAP2 SUB SWAP1 LOG1 POP POP POP POP JUMP JUMPDEST PUSH0 DUP1 SLOAD SWAP1 PUSH2 0x100 EXP SWAP1 DIV PUSH20 0xFFFFFFFFFFFFFFFFFFFFFFFFFFFFFFFFFFFFFFFF AND DUP2 JUMP JUMPDEST PUSH0 DUP2 SWAP1 POP SWAP2 SWAP1 POP JUMP JUMPDEST PUSH2 0x7C8 DUP2 PUSH2 0x7B6 JUMP JUMPDEST DUP3 MSTORE POP POP JUMP JUMPDEST PUSH0 PUSH1 0x20 DUP3 ADD SWAP1 POP PUSH2 0x7E1 PUSH0 DUP4 ADD DUP5 PUSH2 0x7BF JUMP JUMPDEST SWAP3 SWAP2 POP POP JUMP JUMPDEST PUSH0 DUP2 ISZERO ISZERO SWAP1 POP SWAP2 SWAP1 POP JUMP JUMPDEST PUSH2 0x7FB DUP2 PUSH2 0x7E7 JUMP JUMPDEST DUP3 MSTORE POP POP JUMP JUMPDEST PUSH0 PUSH1 0x20 DUP3 ADD SWAP1 POP PUSH2 0x814 PUSH0 DUP4 ADD DUP5 PUSH2 0x7F2 JUMP JUMPDEST SWAP3 SWAP2 POP POP JUMP JUMPDEST PUSH0 DUP2 MLOAD SWAP1 POP SWAP2 SWAP1 POP JUMP JUMPDEST PUSH0 DUP3 DUP3 MSTORE PUSH1 0x20 DUP3 ADD SWAP1 POP SWAP3 SWAP2 POP POP JUMP JUMPDEST DUP3 DUP2 DUP4 MCOPY PUSH0 DUP4 DUP4 ADD MSTORE POP POP POP JUMP JUMPDEST PUSH0 PUSH1 0x1F NOT PUSH1 0x1F DUP4 ADD AND SWAP1 POP SWAP2 SWAP1 POP JUMP JUMPDEST PUSH0 PUSH2 0x85C DUP3 PUSH2 0x81A JUMP JUMPDEST PUSH2 0x866 DUP2 DUP6 PUSH2 0x824 JUMP JUMPDEST SWAP4 POP PUSH2 0x876 DUP2 DUP6 PUSH1 0x20 DUP7 ADD PUSH2 0x834 JUMP JUMPDEST PUSH2 0x87F DUP2 PUSH2 0x842 JUMP JUMPDEST DUP5 ADD SWAP2 POP POP SWAP3 SWAP2 POP POP JUMP JUMPDEST PUSH0 PUSH1 0x20 DUP3 ADD SWAP1 POP DUP2 DUP2 SUB PUSH0 DUP4 ADD MSTORE PUSH2 0x8A2 DUP2 DUP5 PUSH2 0x852 JUMP JUMPDEST SWAP1 POP SWAP3 SWAP2 POP POP JUMP JUMPDEST PUSH0 PUSH20 0xFFFFFFFFFFFFFFFFFFFFFFFFFFFFFFFFFFFFFFFF DUP3 AND SWAP1 POP SWAP2 SWAP1 POP JUMP JUMPDEST PUSH0 PUSH2 0x8D3 DUP3 PUSH2 0x8AA JUMP JUMPDEST SWAP1 POP SWAP2 SWAP1 POP JUMP JUMPDEST PUSH2 0x8E3 DUP2 PUSH2 0x8C9 JUMP JUMPDEST DUP3 MSTORE POP POP JUMP JUMPDEST PUSH0 PUSH1 0x20 DUP3 ADD SWAP1 POP PUSH2 0x8FC PUSH0 DUP4 ADD DUP5 PUSH2 0x8DA JUMP JUMPDEST SWAP3 SWAP2 POP POP JUMP JUMPDEST PUSH0 DUP1 REVERT JUMPDEST PUSH0 DUP1 REVERT JUMPDEST PUSH0 DUP1 REVERT JUMPDEST PUSH0 DUP1 REVERT JUMPDEST PUSH0 DUP1 REVERT JUMPDEST PUSH0 DUP1 DUP4 PUSH1 0x1F DUP5 ADD SLT PUSH2 0x92B JUMPI PUSH2 0x92A PUSH2 0x90A JUMP JUMPDEST JUMPDEST DUP3 CALLDATALOAD SWAP1 POP PUSH8 0xFFFFFFFFFFFFFFFF DUP2 GT ISZERO PUSH2 0x948 JUMPI PUSH2 0x947 PUSH2 0x90E JUMP JUMPDEST JUMPDEST PUSH1 0x20 DUP4 ADD SWAP2 POP DUP4 PUSH1 0x1 DUP3 MUL DUP4 ADD GT ISZERO PUSH2 0x964 JUMPI PUSH2 0x963 PUSH2 0x912 JUMP JUMPDEST JUMPDEST SWAP3 POP SWAP3 SWAP1 POP JUMP JUMPDEST PUSH2 0x974 DUP2 PUSH2 0x7B6 JUMP JUMPDEST DUP2 EQ PUSH2 0x97E JUMPI PUSH0 DUP1 REVERT JUMPDEST POP JUMP JUMPDEST PUSH0 DUP2 CALLDATALOAD SWAP1 POP PUSH2 0x98F DUP2 PUSH2 0x96B JUMP JUMPDEST SWAP3 SWAP2 POP POP JUMP JUMPDEST PUSH0 DUP1 PUSH0 DUP1 PUSH1 0x60 DUP6 DUP8 SUB SLT ISZERO PUSH2 0x9AD JUMPI PUSH2 0x9AC PUSH2 0x902 JUMP JUMPDEST JUMPDEST PUSH0 DUP6 ADD CALLDATALOAD PUSH8 0xFFFFFFFFFFFFFFFF DUP2 GT ISZERO PUSH2 0x9CA JUMPI PUSH2 0x9C9 PUSH2 0x906 JUMP JUMPDEST JUMPDEST PUSH2 0x9D6 DUP8 DUP3 DUP9 ADD PUSH2 0x916 JUMP JUMPDEST SWAP5 POP SWAP5 POP POP PUSH1 0x20 PUSH2 0x9E9 DUP8 DUP3 DUP9 ADD PUSH2 0x981 JUMP JUMPDEST SWAP3 POP POP PUSH1 0x40 PUSH2 0x9FA DUP8 DUP3 DUP9 ADD PUSH2 0x981 JUMP JUMPDEST SWAP2 POP POP SWAP3 SWAP6 SWAP2 SWAP5 POP SWAP3 POP JUMP JUMPDEST PUSH32 0x4E487B7100000000000000000000000000000000000000000000000000000000 PUSH0 MSTORE PUSH1 0x11 PUSH1 0x4 MSTORE PUSH1 0x24 PUSH0 REVERT JUMPDEST PUSH0 PUSH2 0xA3D DUP3 PUSH2 0x7B6 JUMP JUMPDEST SWAP2 POP PUSH2 0xA48 DUP4 PUSH2 0x7B6 JUMP JUMPDEST SWAP3 POP DUP3 DUP3 ADD SWAP1 POP DUP1 DUP3 GT ISZERO PUSH2 0xA60 JUMPI PUSH2 0xA5F PUSH2 0xA06 JUMP JUMPDEST JUMPDEST SWAP3 SWAP2 POP POP JUMP JUMPDEST PUSH32 0x4E65772048696768657374204269646465722C204F6C64204269646465722068 PUSH0 DUP3 ADD MSTORE PUSH32 0x616420686973206D6F6E6579206261636B000000000000000000000000000000 PUSH1 0x20 DUP3 ADD MSTORE POP JUMP JUMPDEST PUSH0 PUSH2 0xAC0 PUSH1 0x31 DUP4 PUSH2 0x824 JUMP JUMPDEST SWAP2 POP PUSH2 0xACB DUP3 PUSH2 0xA66 JUMP JUMPDEST PUSH1 0x40 DUP3 ADD SWAP1 POP SWAP2 SWAP1 POP JUMP JUMPDEST PUSH0 PUSH1 0x60 DUP3 ADD SWAP1 POP DUP2 DUP2 SUB PUSH0 DUP4 ADD MSTORE PUSH2 0xAED DUP2 PUSH2 0xAB4 JUMP JUMPDEST SWAP1 POP PUSH2 0xAFC PUSH1 0x20 DUP4 ADD DUP6 PUSH2 0x8DA JUMP JUMPDEST PUSH2 0xB09 PUSH1 0x40 DUP4 ADD DUP5 PUSH2 0x7BF JUMP JUMPDEST SWAP4 SWAP3 POP POP POP JUMP JUMPDEST PUSH32 0x5468697320626964206973206E6F7420706F737369626C652E204F7574206F66 PUSH0 DUP3 ADD MSTORE PUSH32 0x2054696D65206F72205072696365206E6F74206869676820656E6F7567687400 PUSH1 0x20 DUP3 ADD MSTORE POP JUMP JUMPDEST PUSH0 PUSH2 0xB6A PUSH1 0x3F DUP4 PUSH2 0x824 JUMP JUMPDEST SWAP2 POP PUSH2 0xB75 DUP3 PUSH2 0xB10 JUMP JUMPDEST PUSH1 0x40 DUP3 ADD SWAP1 POP SWAP2 SWAP1 POP JUMP JUMPDEST PUSH0 PUSH1 0x60 DUP3 ADD SWAP1 POP DUP2 DUP2 SUB PUSH0 DUP4 ADD MSTORE PUSH2 0xB97 DUP2 PUSH2 0xB5E JUMP JUMPDEST SWAP1 POP PUSH2 0xBA6 PUSH1 0x20 DUP4 ADD DUP6 PUSH2 0x8DA JUMP JUMPDEST PUSH2 0xBB3 PUSH1 0x40 DUP4 ADD DUP5 PUSH2 0x7BF JUMP JUMPDEST SWAP4 SWAP3 POP POP POP JUMP JUMPDEST PUSH32 0x4974656D206E6577204F776E65723A0000000000000000000000000000000000 PUSH0 DUP3 ADD MSTORE POP JUMP JUMPDEST PUSH0 PUSH2 0xBEE PUSH1 0xF DUP4 PUSH2 0x824 JUMP JUMPDEST SWAP2 POP PUSH2 0xBF9 DUP3 PUSH2 0xBBA JUMP JUMPDEST PUSH1 0x20 DUP3 ADD SWAP1 POP SWAP2 SWAP1 POP JUMP JUMPDEST PUSH0 PUSH1 0x60 DUP3 ADD SWAP1 POP DUP2 DUP2 SUB PUSH0 DUP4 ADD MSTORE PUSH2 0xC1B DUP2 PUSH2 0xBE2 JUMP JUMPDEST SWAP1 POP PUSH2 0xC2A PUSH1 0x20 DUP4 ADD DUP6 PUSH2 0x8DA JUMP JUMPDEST PUSH2 0xC37 PUSH1 0x40 DUP4 ADD DUP5 PUSH2 0x7BF JUMP JUMPDEST SWAP4 SWAP3 POP POP POP JUMP JUMPDEST PUSH32 0x4269642044696420456E64210000000000000000000000000000000000000000 PUSH0 DUP3 ADD MSTORE POP JUMP JUMPDEST PUSH0 PUSH2 0xC72 PUSH1 0xC DUP4 PUSH2 0x824 JUMP JUMPDEST SWAP2 POP PUSH2 0xC7D DUP3 PUSH2 0xC3E JUMP JUMPDEST PUSH1 0x20 DUP3 ADD SWAP1 POP SWAP2 SWAP1 POP JUMP JUMPDEST PUSH0 PUSH1 0x60 DUP3 ADD SWAP1 POP DUP2 DUP2 SUB PUSH0 DUP4 ADD MSTORE PUSH2 0xC9F DUP2 PUSH2 0xC66 JUMP JUMPDEST SWAP1 POP PUSH2 0xCAE PUSH1 0x20 DUP4 ADD DUP6 PUSH2 0x8DA JUMP JUMPDEST PUSH2 0xCBB PUSH1 0x40 DUP4 ADD DUP5 PUSH2 0x7BF JUMP JUMPDEST SWAP4 SWAP3 POP POP POP JUMP JUMPDEST PUSH32 0x4368656B696769662042696420456E6465642E2E2E0000000000000000000000 PUSH0 DUP3 ADD MSTORE POP JUMP JUMPDEST PUSH0 PUSH2 0xCF6 PUSH1 0x15 DUP4 PUSH2 0x824 JUMP JUMPDEST SWAP2 POP PUSH2 0xD01 DUP3 PUSH2 0xCC2 JUMP JUMPDEST PUSH1 0x20 DUP3 ADD SWAP1 POP SWAP2 SWAP1 POP JUMP JUMPDEST PUSH0 PUSH1 0x60 DUP3 ADD SWAP1 POP DUP2 DUP2 SUB PUSH0 DUP4 ADD MSTORE PUSH2 0xD23 DUP2 PUSH2 0xCEA JUMP JUMPDEST SWAP1 POP PUSH2 0xD32 PUSH1 0x20 DUP4 ADD DUP6 PUSH2 0x8DA JUMP JUMPDEST PUSH2 0xD3F PUSH1 0x40 DUP4 ADD DUP5 PUSH2 0x7BF JUMP JUMPDEST SWAP4 SWAP3 POP POP POP JUMP JUMPDEST PUSH32 0x4E487B7100000000000000000000000000000000000000000000000000000000 PUSH0 MSTORE PUSH1 0x22 PUSH1 0x4 MSTORE PUSH1 0x24 PUSH0 REVERT JUMPDEST PUSH0 PUSH1 0x2 DUP3 DIV SWAP1 POP PUSH1 0x1 DUP3 AND DUP1 PUSH2 0xD8A JUMPI PUSH1 0x7F DUP3 AND SWAP2 POP JUMPDEST PUSH1 0x20 DUP3 LT DUP2 SUB PUSH2 0xD9D JUMPI PUSH2 0xD9C PUSH2 0xD46 JUMP JUMPDEST JUMPDEST POP SWAP2 SWAP1 POP JUMP JUMPDEST PUSH0 DUP3 SWAP1 POP SWAP3 SWAP2 POP POP JUMP JUMPDEST PUSH32 0x4E487B7100000000000000000000000000000000000000000000000000000000 PUSH0 MSTORE PUSH1 0x41 PUSH1 0x4 MSTORE PUSH1 0x24 PUSH0 REVERT JUMPDEST PUSH0 DUP2 SWAP1 POP DUP2 PUSH0 MSTORE PUSH1 0x20 PUSH0 KECCAK256 SWAP1 POP SWAP2 SWAP1 POP JUMP JUMPDEST PUSH0 PUSH1 0x20 PUSH1 0x1F DUP4 ADD DIV SWAP1 POP SWAP2 SWAP1 POP JUMP JUMPDEST PUSH0 DUP3 DUP3 SHL SWAP1 POP SWAP3 SWAP2 POP POP JUMP JUMPDEST PUSH0 PUSH1 0x8 DUP4 MUL PUSH2 0xE36 PUSH32 0xFFFFFFFFFFFFFFFFFFFFFFFFFFFFFFFFFFFFFFFFFFFFFFFFFFFFFFFFFFFFFFFF DUP3 PUSH2 0xDFB JUMP JUMPDEST PUSH2 0xE40 DUP7 DUP4 PUSH2 0xDFB JUMP JUMPDEST SWAP6 POP DUP1 NOT DUP5 AND SWAP4 POP DUP1 DUP7 AND DUP5 OR SWAP3 POP POP POP SWAP4 SWAP3 POP POP POP JUMP JUMPDEST PUSH0 DUP2 SWAP1 POP SWAP2 SWAP1 POP JUMP JUMPDEST PUSH0 PUSH2 0xE7B PUSH2 0xE76 PUSH2 0xE71 DUP5 PUSH2 0x7B6 JUMP JUMPDEST PUSH2 0xE58 JUMP JUMPDEST PUSH2 0x7B6 JUMP JUMPDEST SWAP1 POP SWAP2 SWAP1 POP JUMP JUMPDEST PUSH0 DUP2 SWAP1 POP SWAP2 SWAP1 POP JUMP JUMPDEST PUSH2 0xE94 DUP4 PUSH2 0xE61 JUMP JUMPDEST PUSH2 0xEA8 PUSH2 0xEA0 DUP3 PUSH2 0xE82 JUMP JUMPDEST DUP5 DUP5 SLOAD PUSH2 0xE07 JUMP JUMPDEST DUP3 SSTORE POP POP POP POP JUMP JUMPDEST PUSH0 SWAP1 JUMP JUMPDEST PUSH2 0xEBC PUSH2 0xEB0 JUMP JUMPDEST PUSH2 0xEC7 DUP2 DUP5 DUP5 PUSH2 0xE8B JUMP JUMPDEST POP POP POP JUMP JUMPDEST JUMPDEST DUP2 DUP2 LT ISZERO PUSH2 0xEEA JUMPI PUSH2 0xEDF PUSH0 DUP3 PUSH2 0xEB4 JUMP JUMPDEST PUSH1 0x1 DUP2 ADD SWAP1 POP PUSH2 0xECD JUMP JUMPDEST POP POP JUMP JUMPDEST PUSH1 0x1F DUP3 GT ISZERO PUSH2 0xF2F JUMPI PUSH2 0xF00 DUP2 PUSH2 0xDDA JUMP JUMPDEST PUSH2 0xF09 DUP5 PUSH2 0xDEC JUMP JUMPDEST DUP2 ADD PUSH1 0x20 DUP6 LT ISZERO PUSH2 0xF18 JUMPI DUP2 SWAP1 POP JUMPDEST PUSH2 0xF2C PUSH2 0xF24 DUP6 PUSH2 0xDEC JUMP JUMPDEST DUP4 ADD DUP3 PUSH2 0xECC JUMP JUMPDEST POP POP JUMPDEST POP POP POP JUMP JUMPDEST PUSH0 DUP3 DUP3 SHR SWAP1 POP SWAP3 SWAP2 POP POP JUMP JUMPDEST PUSH0 PUSH2 0xF4F PUSH0 NOT DUP5 PUSH1 0x8 MUL PUSH2 0xF34 JUMP JUMPDEST NOT DUP1 DUP4 AND SWAP2 POP POP SWAP3 SWAP2 POP POP JUMP JUMPDEST PUSH0 PUSH2 0xF67 DUP4 DUP4 PUSH2 0xF40 JUMP JUMPDEST SWAP2 POP DUP3 PUSH1 0x2 MUL DUP3 OR SWAP1 POP SWAP3 SWAP2 POP POP JUMP JUMPDEST PUSH2 0xF81 DUP4 DUP4 PUSH2 0xDA3 JUMP JUMPDEST PUSH8 0xFFFFFFFFFFFFFFFF DUP2 GT ISZERO PUSH2 0xF9A JUMPI PUSH2 0xF99 PUSH2 0xDAD JUMP JUMPDEST JUMPDEST PUSH2 0xFA4 DUP3 SLOAD PUSH2 0xD73 JUMP JUMPDEST PUSH2 0xFAF DUP3 DUP3 DUP6 PUSH2 0xEEE JUMP JUMPDEST PUSH0 PUSH1 0x1F DUP4 GT PUSH1 0x1 DUP2 EQ PUSH2 0xFDC JUMPI PUSH0 DUP5 ISZERO PUSH2 0xFCA JUMPI DUP3 DUP8 ADD CALLDATALOAD SWAP1 POP JUMPDEST PUSH2 0xFD4 DUP6 DUP3 PUSH2 0xF5C JUMP JUMPDEST DUP7 SSTORE POP PUSH2 0x103B JUMP JUMPDEST PUSH1 0x1F NOT DUP5 AND PUSH2 0xFEA DUP7 PUSH2 0xDDA JUMP JUMPDEST PUSH0 JUMPDEST DUP3 DUP2 LT ISZERO PUSH2 0x1011 JUMPI DUP5 DUP10 ADD CALLDATALOAD DUP3 SSTORE PUSH1 0x1 DUP3 ADD SWAP2 POP PUSH1 0x20 DUP6 ADD SWAP5 POP PUSH1 0x20 DUP2 ADD SWAP1 POP PUSH2 0xFEC JUMP JUMPDEST DUP7 DUP4 LT ISZERO PUSH2 0x102E JUMPI DUP5 DUP10 ADD CALLDATALOAD PUSH2 0x102A PUSH1 0x1F DUP10 AND DUP3 PUSH2 0xF40 JUMP JUMPDEST DUP4 SSTORE POP JUMPDEST PUSH1 0x1 PUSH1 0x2 DUP9 MUL ADD DUP9 SSTORE POP POP POP JUMPDEST POP POP POP POP POP POP POP JUMP JUMPDEST PUSH32 0x4269642043726561746564206F66206974656D3A000000000000000000000000 PUSH0 DUP3 ADD MSTORE POP JUMP JUMPDEST PUSH0 PUSH2 0x1078 PUSH1 0x14 DUP4 PUSH2 0x824 JUMP JUMPDEST SWAP2 POP PUSH2 0x1083 DUP3 PUSH2 0x1044 JUMP JUMPDEST PUSH1 0x20 DUP3 ADD SWAP1 POP SWAP2 SWAP1 POP JUMP JUMPDEST PUSH0 PUSH1 0x60 DUP3 ADD SWAP1 POP DUP2 DUP2 SUB PUSH0 DUP4 ADD MSTORE PUSH2 0x10A5 DUP2 PUSH2 0x106C JUMP JUMPDEST SWAP1 POP PUSH2 0x10B4 PUSH1 0x20 DUP4 ADD DUP6 PUSH2 0x8DA JUMP JUMPDEST PUSH2 0x10C1 PUSH1 0x40 DUP4 ADD DUP5 PUSH2 0x7BF JUMP JUMPDEST SWAP4 SWAP3 POP POP POP JUMP JUMPDEST PUSH0 DUP2 SLOAD PUSH2 0x10D4 DUP2 PUSH2 0xD73 JUMP JUMPDEST PUSH2 0x10DE DUP2 DUP7 PUSH2 0x824 JUMP JUMPDEST SWAP5 POP PUSH1 0x1 DUP3 AND PUSH0 DUP2 EQ PUSH2 0x10F8 JUMPI PUSH1 0x1 DUP2 EQ PUSH2 0x110E JUMPI PUSH2 0x1140 JUMP JUMPDEST PUSH1 0xFF NOT DUP4 AND DUP7 MSTORE DUP2 ISZERO ISZERO PUSH1 0x20 MUL DUP7 ADD SWAP4 POP PUSH2 0x1140 JUMP JUMPDEST PUSH2 0x1117 DUP6 PUSH2 0xDDA JUMP JUMPDEST PUSH0 JUMPDEST DUP4 DUP2 LT ISZERO PUSH2 0x1138 JUMPI DUP2 SLOAD DUP2 DUP10 ADD MSTORE PUSH1 0x1 DUP3 ADD SWAP2 POP PUSH1 0x20 DUP2 ADD SWAP1 POP PUSH2 0x1119 JUMP JUMPDEST DUP1 DUP9 ADD SWAP6 POP POP POP JUMPDEST POP POP POP SWAP3 SWAP2 POP POP JUMP JUMPDEST PUSH0 PUSH1 0x60 DUP3 ADD SWAP1 POP DUP2 DUP2 SUB PUSH0 DUP4 ADD MSTORE PUSH2 0x1161 DUP2 DUP7 PUSH2 0x10C8 JUMP JUMPDEST SWAP1 POP PUSH2 0x1170 PUSH1 0x20 DUP4 ADD DUP6 PUSH2 0x8DA JUMP JUMPDEST PUSH2 0x117D PUSH1 0x40 DUP4 ADD DUP5 PUSH2 0x7BF JUMP JUMPDEST SWAP5 SWAP4 POP POP POP POP JUMP INVALID LOG2 PUSH5 0x6970667358 0x22 SLT KECCAK256 0xD6 SWAP10 PUSH18 0x8ECCA531C2793FEDB085F3E69501A40F2BFC PUSH2 0x2F74 PUSH7 0x181672168911C2 PUSH5 0x736F6C6343 STOP ADDMOD BYTE STOP CALLER "
		},
		"gasEstimates": {
			"creation": {
				"codeDepositCost": "907800",
				"executionCost": "25205",
				"totalCost": "933005"
			},
			"external": {
				"BidContract(string,uint256,uint256)": "infinite",
				"basePrice()": "2469",
				"bib()": "infinite",
				"bidDidFinish()": "2555",
				"checkIfBidEnd()": "infinite",
				"createdTime()": "2447",
				"description()": "infinite",
				"highestBidder()": "2508",
				"highestPrice()": "2448",
				"newOwner()": "2574",
				"originalOwner()": "2615",
				"secondToEnd()": "2470"
			}
		},
		"methodIdentifiers": {
			"BidContract(string,uint256,uint256)": "ea895458",
			"basePrice()": "c7876ea4",
			"bib()": "05b1a768",
			"bidDidFinish()": "642ae6a5",
			"checkIfBidEnd()": "502319a6",
			"createdTime()": "b2f4bdb0",
			"description()": "7284e416",
			"highestBidder()": "91f90157",
			"highestPrice()": "0e8670e0",
			"newOwner()": "d4ee1d90",
			"originalOwner()": "f1fffdcb",
			"secondToEnd()": "319a9d27"
		}
	},
	"abi": [
		{
			"anonymous": false,
			"inputs": [
				{
					"indexed": false,
					"internalType": "string",
					"name": "_msg",
					"type": "string"
				},
				{
					"indexed": false,
					"internalType": "address",
					"name": "user",
					"type": "address"
				},
				{
					"indexed": false,
					"internalType": "uint256",
					"name": "time",
					"type": "uint256"
				}
			],
			"name": "Status",
			"type": "event"
		},
		{
			"inputs": [
				{
					"internalType": "string",
					"name": "_description",
					"type": "string"
				},
				{
					"internalType": "uint256",
					"name": "_basePrice",
					"type": "uint256"
				},
				{
					"internalType": "uint256",
					"name": "_secondsToEnd",
					"type": "uint256"
				}
			],
			"name": "BidContract",
			"outputs": [],
			"stateMutability": "payable",
			"type": "function"
		},
		{
			"inputs": [],
			"name": "basePrice",
			"outputs": [
				{
					"internalType": "uint256",
					"name": "",
					"type": "uint256"
				}
			],
			"stateMutability": "view",
			"type": "function"
		},
		{
			"inputs": [],
			"name": "bib",
			"outputs": [],
			"stateMutability": "payable",
			"type": "function"
		},
		{
			"inputs": [],
			"name": "bidDidFinish",
			"outputs": [
				{
					"internalType": "bool",
					"name": "",
					"type": "bool"
				}
			],
			"stateMutability": "view",
			"type": "function"
		},
		{
			"inputs": [],
			"name": "checkIfBidEnd",
			"outputs": [],
			"stateMutability": "nonpayable",
			"type": "function"
		},
		{
			"inputs": [],
			"name": "createdTime",
			"outputs": [
				{
					"internalType": "uint256",
					"name": "",
					"type": "uint256"
				}
			],
			"stateMutability": "view",
			"type": "function"
		},
		{
			"inputs": [],
			"name": "description",
			"outputs": [
				{
					"internalType": "string",
					"name": "",
					"type": "string"
				}
			],
			"stateMutability": "view",
			"type": "function"
		},
		{
			"inputs": [],
			"name": "highestBidder",
			"outputs": [
				{
					"internalType": "address",
					"name": "",
					"type": "address"
				}
			],
			"stateMutability": "view",
			"type": "function"
		},
		{
			"inputs": [],
			"name": "highestPrice",
			"outputs": [
				{
					"internalType": "uint256",
					"name": "",
					"type": "uint256"
				}
			],
			"stateMutability": "view",
			"type": "function"
		},
		{
			"inputs": [],
			"name": "newOwner",
			"outputs": [
				{
					"internalType": "address",
					"name": "",
					"type": "address"
				}
			],
			"stateMutability": "view",
			"type": "function"
		},
		{
			"inputs": [],
			"name": "originalOwner",
			"outputs": [
				{
					"internalType": "address",
					"name": "",
					"type": "address"
				}
			],
			"stateMutability": "view",
			"type": "function"
		},
		{
			"inputs": [],
			"name": "secondToEnd",
			"outputs": [
				{
					"internalType": "uint256",
					"name": "",
					"type": "uint256"
				}
			],
			"stateMutability": "view",
			"type": "function"
		}
	]
}