{
	"data": {
		"bytecode": {
			"linkReferences": {},
			"object": "6080604052600a5f553480156012575f80fd5b50610331806100205f395ff3fe608060405234801561000f575f80fd5b506004361061007b575f3560e01c80636d994a84116100595780636d994a84146100b1578063789b652c146100bb5780638951e3cb146100c55780639c284fe1146100cf5761007b565b80633df4ddf41461007f57806340e3f9dc1461009d57806348bf2fc1146100a7575b5f80fd5b6100876100d9565b6040516100949190610181565b60405180910390f35b6100a56100de565b005b6100af6100f8565b005b6100b9610112565b005b6100c361012c565b005b6100cd610135565b005b6100d761014f565b005b5f5481565b60035f808282546100ef91906101f4565b92505081905550565b600a5f808282546101099190610224565b92505081905550565b600a5f808282546101239190610257565b92505081905550565b60145f81905550565b60035f80828254610146919061028a565b92505081905550565b60055f8082825461016091906102ba565b92505081905550565b5f819050919050565b61017b81610169565b82525050565b5f6020820190506101945f830184610172565b92915050565b7f4e487b71000000000000000000000000000000000000000000000000000000005f52601260045260245ffd5b7f4e487b71000000000000000000000000000000000000000000000000000000005f52601160045260245ffd5b5f6101fe82610169565b915061020983610169565b9250826102195761021861019a565b5b828204905092915050565b5f61022e82610169565b915061023983610169565b9250828201905080821115610251576102506101c7565b5b92915050565b5f61026182610169565b915061026c83610169565b9250828203905081811115610284576102836101c7565b5b92915050565b5f61029482610169565b915061029f83610169565b9250826102af576102ae61019a565b5b828206905092915050565b5f6102c482610169565b91506102cf83610169565b92508282026102dd81610169565b915082820484148315176102f4576102f36101c7565b5b509291505056fea2646970667358221220baf9e81b29c3ddba5d74946c193ce2130d264e0ff23f7ca5e0866559e8b77db464736f6c634300081a0033",
			"opcodes": "PUSH1 0x80 PUSH1 0x40 MSTORE PUSH1 0xA PUSH0 SSTORE CALLVALUE DUP1 ISZERO PUSH1 0x12 JUMPI PUSH0 DUP1 REVERT JUMPDEST POP PUSH2 0x331 DUP1 PUSH2 0x20 PUSH0 CODECOPY PUSH0 RETURN INVALID PUSH1 0x80 PUSH1 0x40 MSTORE CALLVALUE DUP1 ISZERO PUSH2 0xF JUMPI PUSH0 DUP1 REVERT JUMPDEST POP PUSH1 0x4 CALLDATASIZE LT PUSH2 0x7B JUMPI PUSH0 CALLDATALOAD PUSH1 0xE0 SHR DUP1 PUSH4 0x6D994A84 GT PUSH2 0x59 JUMPI DUP1 PUSH4 0x6D994A84 EQ PUSH2 0xB1 JUMPI DUP1 PUSH4 0x789B652C EQ PUSH2 0xBB JUMPI DUP1 PUSH4 0x8951E3CB EQ PUSH2 0xC5 JUMPI DUP1 PUSH4 0x9C284FE1 EQ PUSH2 0xCF JUMPI PUSH2 0x7B JUMP JUMPDEST DUP1 PUSH4 0x3DF4DDF4 EQ PUSH2 0x7F JUMPI DUP1 PUSH4 0x40E3F9DC EQ PUSH2 0x9D JUMPI DUP1 PUSH4 0x48BF2FC1 EQ PUSH2 0xA7 JUMPI JUMPDEST PUSH0 DUP1 REVERT JUMPDEST PUSH2 0x87 PUSH2 0xD9 JUMP JUMPDEST PUSH1 0x40 MLOAD PUSH2 0x94 SWAP2 SWAP1 PUSH2 0x181 JUMP JUMPDEST PUSH1 0x40 MLOAD DUP1 SWAP2 SUB SWAP1 RETURN JUMPDEST PUSH2 0xA5 PUSH2 0xDE JUMP JUMPDEST STOP JUMPDEST PUSH2 0xAF PUSH2 0xF8 JUMP JUMPDEST STOP JUMPDEST PUSH2 0xB9 PUSH2 0x112 JUMP JUMPDEST STOP JUMPDEST PUSH2 0xC3 PUSH2 0x12C JUMP JUMPDEST STOP JUMPDEST PUSH2 0xCD PUSH2 0x135 JUMP JUMPDEST STOP JUMPDEST PUSH2 0xD7 PUSH2 0x14F JUMP JUMPDEST STOP JUMPDEST PUSH0 SLOAD DUP2 JUMP JUMPDEST PUSH1 0x3 PUSH0 DUP1 DUP3 DUP3 SLOAD PUSH2 0xEF SWAP2 SWAP1 PUSH2 0x1F4 JUMP JUMPDEST SWAP3 POP POP DUP2 SWAP1 SSTORE POP JUMP JUMPDEST PUSH1 0xA PUSH0 DUP1 DUP3 DUP3 SLOAD PUSH2 0x109 SWAP2 SWAP1 PUSH2 0x224 JUMP JUMPDEST SWAP3 POP POP DUP2 SWAP1 SSTORE POP JUMP JUMPDEST PUSH1 0xA PUSH0 DUP1 DUP3 DUP3 SLOAD PUSH2 0x123 SWAP2 SWAP1 PUSH2 0x257 JUMP JUMPDEST SWAP3 POP POP DUP2 SWAP1 SSTORE POP JUMP JUMPDEST PUSH1 0x14 PUSH0 DUP2 SWAP1 SSTORE POP JUMP JUMPDEST PUSH1 0x3 PUSH0 DUP1 DUP3 DUP3 SLOAD PUSH2 0x146 SWAP2 SWAP1 PUSH2 0x28A JUMP JUMPDEST SWAP3 POP POP DUP2 SWAP1 SSTORE POP JUMP JUMPDEST PUSH1 0x5 PUSH0 DUP1 DUP3 DUP3 SLOAD PUSH2 0x160 SWAP2 SWAP1 PUSH2 0x2BA JUMP JUMPDEST SWAP3 POP POP DUP2 SWAP1 SSTORE POP JUMP JUMPDEST PUSH0 DUP2 SWAP1 POP SWAP2 SWAP1 POP JUMP JUMPDEST PUSH2 0x17B DUP2 PUSH2 0x169 JUMP JUMPDEST DUP3 MSTORE POP POP JUMP JUMPDEST PUSH0 PUSH1 0x20 DUP3 ADD SWAP1 POP PUSH2 0x194 PUSH0 DUP4 ADD DUP5 PUSH2 0x172 JUMP JUMPDEST SWAP3 SWAP2 POP POP JUMP JUMPDEST PUSH32 0x4E487B7100000000000000000000000000000000000000000000000000000000 PUSH0 MSTORE PUSH1 0x12 PUSH1 0x4 MSTORE PUSH1 0x24 PUSH0 REVERT JUMPDEST PUSH32 0x4E487B7100000000000000000000000000000000000000000000000000000000 PUSH0 MSTORE PUSH1 0x11 PUSH1 0x4 MSTORE PUSH1 0x24 PUSH0 REVERT JUMPDEST PUSH0 PUSH2 0x1FE DUP3 PUSH2 0x169 JUMP JUMPDEST SWAP2 POP PUSH2 0x209 DUP4 PUSH2 0x169 JUMP JUMPDEST SWAP3 POP DUP3 PUSH2 0x219 JUMPI PUSH2 0x218 PUSH2 0x19A JUMP JUMPDEST JUMPDEST DUP3 DUP3 DIV SWAP1 POP SWAP3 SWAP2 POP POP JUMP JUMPDEST PUSH0 PUSH2 0x22E DUP3 PUSH2 0x169 JUMP JUMPDEST SWAP2 POP PUSH2 0x239 DUP4 PUSH2 0x169 JUMP JUMPDEST SWAP3 POP DUP3 DUP3 ADD SWAP1 POP DUP1 DUP3 GT ISZERO PUSH2 0x251 JUMPI PUSH2 0x250 PUSH2 0x1C7 JUMP JUMPDEST JUMPDEST SWAP3 SWAP2 POP POP JUMP JUMPDEST PUSH0 PUSH2 0x261 DUP3 PUSH2 0x169 JUMP JUMPDEST SWAP2 POP PUSH2 0x26C DUP4 PUSH2 0x169 JUMP JUMPDEST SWAP3 POP DUP3 DUP3 SUB SWAP1 POP DUP2 DUP2 GT ISZERO PUSH2 0x284 JUMPI PUSH2 0x283 PUSH2 0x1C7 JUMP JUMPDEST JUMPDEST SWAP3 SWAP2 POP POP JUMP JUMPDEST PUSH0 PUSH2 0x294 DUP3 PUSH2 0x169 JUMP JUMPDEST SWAP2 POP PUSH2 0x29F DUP4 PUSH2 0x169 JUMP JUMPDEST SWAP3 POP DUP3 PUSH2 0x2AF JUMPI PUSH2 0x2AE PUSH2 0x19A JUMP JUMPDEST JUMPDEST DUP3 DUP3 MOD SWAP1 POP SWAP3 SWAP2 POP POP JUMP JUMPDEST PUSH0 PUSH2 0x2C4 DUP3 PUSH2 0x169 JUMP JUMPDEST SWAP2 POP PUSH2 0x2CF DUP4 PUSH2 0x169 JUMP JUMPDEST SWAP3 POP DUP3 DUP3 MUL PUSH2 0x2DD DUP2 PUSH2 0x169 JUMP JUMPDEST SWAP2 POP DUP3 DUP3 DIV DUP5 EQ DUP4 ISZERO OR PUSH2 0x2F4 JUMPI PUSH2 0x2F3 PUSH2 0x1C7 JUMP JUMPDEST JUMPDEST POP SWAP3 SWAP2 POP POP JUMP INVALID LOG2 PUSH5 0x6970667358 0x22 SLT KECCAK256 0xBA 0xF9 0xE8 SHL 0x29 0xC3 0xDD 0xBA TSTORE PUSH21 0x946C193CE2130D264E0FF23F7CA5E0866559E8B77D 0xB4 PUSH5 0x736F6C6343 STOP ADDMOD BYTE STOP CALLER "
		},
		"gasEstimates": {
			"creation": {
				"codeDepositCost": "163400",
				"executionCost": "22311",
				"totalCost": "185711"
			},
			"external": {
				"addAssignment()": "infinite",
				"divideAssignment()": "infinite",
				"first()": "2425",
				"modulusAssignment()": "infinite",
				"multiplyAssignment()": "infinite",
				"simpleAssignment()": "22278",
				"substractAssignment()": "infinite"
			}
		},
		"methodIdentifiers": {
			"addAssignment()": "48bf2fc1",
			"divideAssignment()": "40e3f9dc",
			"first()": "3df4ddf4",
			"modulusAssignment()": "8951e3cb",
			"multiplyAssignment()": "9c284fe1",
			"simpleAssignment()": "789b652c",
			"substractAssignment()": "6d994a84"
		}
	},
	"abi": [
		{
			"inputs": [],
			"name": "addAssignment",
			"outputs": [],
			"stateMutability": "nonpayable",
			"type": "function"
		},
		{
			"inputs": [],
			"name": "divideAssignment",
			"outputs": [],
			"stateMutability": "nonpayable",
			"type": "function"
		},
		{
			"inputs": [],
			"name": "first",
			"outputs": [
				{
					"internalType": "uint256",
					"name": "",
					"type": "uint256"
				}
			],
			"stateMutability": "view",
			"type": "function"
		},
		{
			"inputs": [],
			"name": "modulusAssignment",
			"outputs": [],
			"stateMutability": "nonpayable",
			"type": "function"
		},
		{
			"inputs": [],
			"name": "multiplyAssignment",
			"outputs": [],
			"stateMutability": "nonpayable",
			"type": "function"
		},
		{
			"inputs": [],
			"name": "simpleAssignment",
			"outputs": [],
			"stateMutability": "nonpayable",
			"type": "function"
		},
		{
			"inputs": [],
			"name": "substractAssignment",
			"outputs": [],
			"stateMutability": "nonpayable",
			"type": "function"
		}
	]
}